{
  "_format": "hh-sol-artifact-1",
  "contractName": "TeleswapV2Router02",
  "sourceName": "contracts/TeleswapV2Router02.sol",
  "abi": [
    {
      "inputs": [],
      "name": "WETH",
      "outputs": [
        {
          "internalType": "address",
          "name": "",
          "type": "address"
        }
      ],
      "stateMutability": "view",
      "type": "function"
    },
    {
      "inputs": [
        {
          "components": [
            {
              "internalType": "address",
              "name": "from",
              "type": "address"
            },
            {
              "internalType": "address",
              "name": "to",
              "type": "address"
            },
            {
              "internalType": "bool",
              "name": "stable",
              "type": "bool"
            }
          ],
          "internalType": "struct route",
          "name": "_route",
          "type": "tuple"
        },
        {
          "internalType": "uint256",
          "name": "amountADesired",
          "type": "uint256"
        },
        {
          "internalType": "uint256",
          "name": "amountBDesired",
          "type": "uint256"
        },
        {
          "internalType": "uint256",
          "name": "amountAMin",
          "type": "uint256"
        },
        {
          "internalType": "uint256",
          "name": "amountBMin",
          "type": "uint256"
        },
        {
          "internalType": "address",
          "name": "to",
          "type": "address"
        },
        {
          "internalType": "uint256",
          "name": "deadline",
          "type": "uint256"
        }
      ],
      "name": "addLiquidity",
      "outputs": [
        {
          "internalType": "uint256",
          "name": "amountA",
          "type": "uint256"
        },
        {
          "internalType": "uint256",
          "name": "amountB",
          "type": "uint256"
        },
        {
          "internalType": "uint256",
          "name": "liquidity",
          "type": "uint256"
        }
      ],
      "stateMutability": "nonpayable",
      "type": "function"
    },
    {
      "inputs": [
        {
          "components": [
            {
              "internalType": "address",
              "name": "from",
              "type": "address"
            },
            {
              "internalType": "address",
              "name": "to",
              "type": "address"
            },
            {
              "internalType": "bool",
              "name": "stable",
              "type": "bool"
            }
          ],
          "internalType": "struct route",
          "name": "_route",
          "type": "tuple"
        },
        {
          "internalType": "uint256",
          "name": "amountTokenDesired",
          "type": "uint256"
        },
        {
          "internalType": "uint256",
          "name": "amountTokenMin",
          "type": "uint256"
        },
        {
          "internalType": "uint256",
          "name": "amountETHMin",
          "type": "uint256"
        },
        {
          "internalType": "address",
          "name": "to",
          "type": "address"
        },
        {
          "internalType": "uint256",
          "name": "deadline",
          "type": "uint256"
        }
      ],
      "name": "addLiquidityETH",
      "outputs": [
        {
          "internalType": "uint256",
          "name": "amountToken",
          "type": "uint256"
        },
        {
          "internalType": "uint256",
          "name": "amountETH",
          "type": "uint256"
        },
        {
          "internalType": "uint256",
          "name": "liquidity",
          "type": "uint256"
        }
      ],
      "stateMutability": "payable",
      "type": "function"
    },
    {
      "inputs": [],
      "name": "factory",
      "outputs": [
        {
          "internalType": "address",
          "name": "",
          "type": "address"
        }
      ],
      "stateMutability": "view",
      "type": "function"
    },
    {
      "inputs": [
        {
          "internalType": "uint256",
          "name": "amountOut",
          "type": "uint256"
        },
        {
          "internalType": "uint256",
          "name": "reserveIn",
          "type": "uint256"
        },
        {
          "internalType": "uint256",
          "name": "reserveOut",
          "type": "uint256"
        },
        {
          "internalType": "bool",
          "name": "stable",
          "type": "bool"
        },
        {
          "internalType": "uint256",
          "name": "decimalIn",
          "type": "uint256"
        },
        {
          "internalType": "uint256",
          "name": "decimalOut",
          "type": "uint256"
        }
      ],
      "name": "getAmountIn",
      "outputs": [
        {
          "internalType": "uint256",
          "name": "amountIn",
          "type": "uint256"
        }
      ],
      "stateMutability": "pure",
      "type": "function"
    },
    {
      "inputs": [
        {
          "internalType": "uint256",
          "name": "amountIn",
          "type": "uint256"
        },
        {
          "internalType": "uint256",
          "name": "reserveIn",
          "type": "uint256"
        },
        {
          "internalType": "uint256",
          "name": "reserveOut",
          "type": "uint256"
        },
        {
          "internalType": "bool",
          "name": "stable",
          "type": "bool"
        },
        {
          "internalType": "uint256",
          "name": "decimalIn",
          "type": "uint256"
        },
        {
          "internalType": "uint256",
          "name": "decimalOut",
          "type": "uint256"
        }
      ],
      "name": "getAmountOut",
      "outputs": [
        {
          "internalType": "uint256",
          "name": "amountOut",
          "type": "uint256"
        }
      ],
      "stateMutability": "pure",
      "type": "function"
    },
    {
      "inputs": [
        {
          "internalType": "uint256",
          "name": "amountOut",
          "type": "uint256"
        },
        {
          "components": [
            {
              "internalType": "address",
              "name": "from",
              "type": "address"
            },
            {
              "internalType": "address",
              "name": "to",
              "type": "address"
            },
            {
              "internalType": "bool",
              "name": "stable",
              "type": "bool"
            }
          ],
          "internalType": "struct route[]",
          "name": "_routes",
          "type": "tuple[]"
        }
      ],
      "name": "getAmountsIn",
      "outputs": [
        {
          "internalType": "uint256[]",
          "name": "amounts",
          "type": "uint256[]"
        }
      ],
      "stateMutability": "view",
      "type": "function"
    },
    {
      "inputs": [
        {
          "internalType": "uint256",
          "name": "amountIn",
          "type": "uint256"
        },
        {
          "components": [
            {
              "internalType": "address",
              "name": "from",
              "type": "address"
            },
            {
              "internalType": "address",
              "name": "to",
              "type": "address"
            },
            {
              "internalType": "bool",
              "name": "stable",
              "type": "bool"
            }
          ],
          "internalType": "struct route[]",
          "name": "_routes",
          "type": "tuple[]"
        }
      ],
      "name": "getAmountsOut",
      "outputs": [
        {
          "internalType": "uint256[]",
          "name": "amounts",
          "type": "uint256[]"
        }
      ],
      "stateMutability": "view",
      "type": "function"
    },
    {
      "inputs": [
        {
          "internalType": "address",
          "name": "_factory",
          "type": "address"
        },
        {
          "internalType": "address",
          "name": "_WETH",
          "type": "address"
        }
      ],
      "name": "initialize",
      "outputs": [],
      "stateMutability": "nonpayable",
      "type": "function"
    },
    {
      "inputs": [
        {
          "internalType": "uint256",
          "name": "amountA",
          "type": "uint256"
        },
        {
          "internalType": "uint256",
          "name": "reserveA",
          "type": "uint256"
        },
        {
          "internalType": "uint256",
          "name": "reserveB",
          "type": "uint256"
        }
      ],
      "name": "quote",
      "outputs": [
        {
          "internalType": "uint256",
          "name": "amountB",
          "type": "uint256"
        }
      ],
      "stateMutability": "pure",
      "type": "function"
    },
    {
      "inputs": [
        {
          "components": [
            {
              "internalType": "address",
              "name": "from",
              "type": "address"
            },
            {
              "internalType": "address",
              "name": "to",
              "type": "address"
            },
            {
              "internalType": "bool",
              "name": "stable",
              "type": "bool"
            }
          ],
          "internalType": "struct route",
          "name": "_route",
          "type": "tuple"
        },
        {
          "internalType": "uint256",
          "name": "liquidity",
          "type": "uint256"
        },
        {
          "internalType": "uint256",
          "name": "amountAMin",
          "type": "uint256"
        },
        {
          "internalType": "uint256",
          "name": "amountBMin",
          "type": "uint256"
        },
        {
          "internalType": "address",
          "name": "to",
          "type": "address"
        },
        {
          "internalType": "uint256",
          "name": "deadline",
          "type": "uint256"
        }
      ],
      "name": "removeLiquidity",
      "outputs": [
        {
          "internalType": "uint256",
          "name": "amountA",
          "type": "uint256"
        },
        {
          "internalType": "uint256",
          "name": "amountB",
          "type": "uint256"
        }
      ],
      "stateMutability": "nonpayable",
      "type": "function"
    },
    {
      "inputs": [
        {
          "components": [
            {
              "internalType": "address",
              "name": "from",
              "type": "address"
            },
            {
              "internalType": "address",
              "name": "to",
              "type": "address"
            },
            {
              "internalType": "bool",
              "name": "stable",
              "type": "bool"
            }
          ],
          "internalType": "struct route",
          "name": "_route",
          "type": "tuple"
        },
        {
          "internalType": "uint256",
          "name": "liquidity",
          "type": "uint256"
        },
        {
          "internalType": "uint256",
          "name": "amountTokenMin",
          "type": "uint256"
        },
        {
          "internalType": "uint256",
          "name": "amountETHMin",
          "type": "uint256"
        },
        {
          "internalType": "address",
          "name": "to",
          "type": "address"
        },
        {
          "internalType": "uint256",
          "name": "deadline",
          "type": "uint256"
        }
      ],
      "name": "removeLiquidityETH",
      "outputs": [
        {
          "internalType": "uint256",
          "name": "amountToken",
          "type": "uint256"
        },
        {
          "internalType": "uint256",
          "name": "amountETH",
          "type": "uint256"
        }
      ],
      "stateMutability": "nonpayable",
      "type": "function"
    },
    {
      "inputs": [
        {
          "components": [
            {
              "internalType": "address",
              "name": "from",
              "type": "address"
            },
            {
              "internalType": "address",
              "name": "to",
              "type": "address"
            },
            {
              "internalType": "bool",
              "name": "stable",
              "type": "bool"
            }
          ],
          "internalType": "struct route",
          "name": "_route",
          "type": "tuple"
        },
        {
          "internalType": "uint256",
          "name": "liquidity",
          "type": "uint256"
        },
        {
          "internalType": "uint256",
          "name": "amountTokenMin",
          "type": "uint256"
        },
        {
          "internalType": "uint256",
          "name": "amountETHMin",
          "type": "uint256"
        },
        {
          "internalType": "address",
          "name": "to",
          "type": "address"
        },
        {
          "internalType": "uint256",
          "name": "deadline",
          "type": "uint256"
        }
      ],
      "name": "removeLiquidityETHSupportingFeeOnTransferTokens",
      "outputs": [
        {
          "internalType": "uint256",
          "name": "amountETH",
          "type": "uint256"
        }
      ],
      "stateMutability": "nonpayable",
      "type": "function"
    },
    {
      "inputs": [
        {
          "components": [
            {
              "internalType": "address",
              "name": "from",
              "type": "address"
            },
            {
              "internalType": "address",
              "name": "to",
              "type": "address"
            },
            {
              "internalType": "bool",
              "name": "stable",
              "type": "bool"
            }
          ],
          "internalType": "struct route",
          "name": "_route",
          "type": "tuple"
        },
        {
          "internalType": "uint256",
          "name": "liquidity",
          "type": "uint256"
        },
        {
          "internalType": "uint256",
          "name": "amountTokenMin",
          "type": "uint256"
        },
        {
          "internalType": "uint256",
          "name": "amountETHMin",
          "type": "uint256"
        },
        {
          "internalType": "address",
          "name": "to",
          "type": "address"
        },
        {
          "internalType": "uint256",
          "name": "deadline",
          "type": "uint256"
        },
        {
          "internalType": "bool",
          "name": "approveMax",
          "type": "bool"
        },
        {
          "components": [
            {
              "internalType": "uint8",
              "name": "v",
              "type": "uint8"
            },
            {
              "internalType": "bytes32",
              "name": "r",
              "type": "bytes32"
            },
            {
              "internalType": "bytes32",
              "name": "s",
              "type": "bytes32"
            }
          ],
          "internalType": "struct Sig",
          "name": "sig",
          "type": "tuple"
        }
      ],
      "name": "removeLiquidityETHWithPermit",
      "outputs": [
        {
          "internalType": "uint256",
          "name": "amountToken",
          "type": "uint256"
        },
        {
          "internalType": "uint256",
          "name": "amountETH",
          "type": "uint256"
        }
      ],
      "stateMutability": "nonpayable",
      "type": "function"
    },
    {
      "inputs": [
        {
          "components": [
            {
              "internalType": "address",
              "name": "from",
              "type": "address"
            },
            {
              "internalType": "address",
              "name": "to",
              "type": "address"
            },
            {
              "internalType": "bool",
              "name": "stable",
              "type": "bool"
            }
          ],
          "internalType": "struct route",
          "name": "_route",
          "type": "tuple"
        },
        {
          "internalType": "uint256",
          "name": "liquidity",
          "type": "uint256"
        },
        {
          "internalType": "uint256",
          "name": "amountTokenMin",
          "type": "uint256"
        },
        {
          "internalType": "uint256",
          "name": "amountETHMin",
          "type": "uint256"
        },
        {
          "internalType": "address",
          "name": "to",
          "type": "address"
        },
        {
          "internalType": "uint256",
          "name": "deadline",
          "type": "uint256"
        },
        {
          "internalType": "bool",
          "name": "approveMax",
          "type": "bool"
        },
        {
          "components": [
            {
              "internalType": "uint8",
              "name": "v",
              "type": "uint8"
            },
            {
              "internalType": "bytes32",
              "name": "r",
              "type": "bytes32"
            },
            {
              "internalType": "bytes32",
              "name": "s",
              "type": "bytes32"
            }
          ],
          "internalType": "struct Sig",
          "name": "sig",
          "type": "tuple"
        }
      ],
      "name": "removeLiquidityETHWithPermitSupportingFeeOnTransferTokens",
      "outputs": [
        {
          "internalType": "uint256",
          "name": "amountETH",
          "type": "uint256"
        }
      ],
      "stateMutability": "nonpayable",
      "type": "function"
    },
    {
      "inputs": [
        {
          "components": [
            {
              "internalType": "address",
              "name": "from",
              "type": "address"
            },
            {
              "internalType": "address",
              "name": "to",
              "type": "address"
            },
            {
              "internalType": "bool",
              "name": "stable",
              "type": "bool"
            }
          ],
          "internalType": "struct route",
          "name": "_route",
          "type": "tuple"
        },
        {
          "internalType": "uint256",
          "name": "liquidity",
          "type": "uint256"
        },
        {
          "internalType": "uint256",
          "name": "amountAMin",
          "type": "uint256"
        },
        {
          "internalType": "uint256",
          "name": "amountBMin",
          "type": "uint256"
        },
        {
          "internalType": "address",
          "name": "to",
          "type": "address"
        },
        {
          "internalType": "uint256",
          "name": "deadline",
          "type": "uint256"
        },
        {
          "internalType": "bool",
          "name": "approveMax",
          "type": "bool"
        },
        {
          "components": [
            {
              "internalType": "uint8",
              "name": "v",
              "type": "uint8"
            },
            {
              "internalType": "bytes32",
              "name": "r",
              "type": "bytes32"
            },
            {
              "internalType": "bytes32",
              "name": "s",
              "type": "bytes32"
            }
          ],
          "internalType": "struct Sig",
          "name": "sig",
          "type": "tuple"
        }
      ],
      "name": "removeLiquidityWithPermit",
      "outputs": [
        {
          "internalType": "uint256",
          "name": "amountA",
          "type": "uint256"
        },
        {
          "internalType": "uint256",
          "name": "amountB",
          "type": "uint256"
        }
      ],
      "stateMutability": "nonpayable",
      "type": "function"
    },
    {
      "inputs": [
        {
          "internalType": "uint256",
          "name": "amountOut",
          "type": "uint256"
        },
        {
          "components": [
            {
              "internalType": "address",
              "name": "from",
              "type": "address"
            },
            {
              "internalType": "address",
              "name": "to",
              "type": "address"
            },
            {
              "internalType": "bool",
              "name": "stable",
              "type": "bool"
            }
          ],
          "internalType": "struct route[]",
          "name": "routes",
          "type": "tuple[]"
        },
        {
          "internalType": "address",
          "name": "to",
          "type": "address"
        },
        {
          "internalType": "uint256",
          "name": "deadline",
          "type": "uint256"
        }
      ],
      "name": "swapETHForExactTokens",
      "outputs": [
        {
          "internalType": "uint256[]",
          "name": "amounts",
          "type": "uint256[]"
        }
      ],
      "stateMutability": "payable",
      "type": "function"
    },
    {
      "inputs": [
        {
          "internalType": "uint256",
          "name": "amountOutMin",
          "type": "uint256"
        },
        {
          "components": [
            {
              "internalType": "address",
              "name": "from",
              "type": "address"
            },
            {
              "internalType": "address",
              "name": "to",
              "type": "address"
            },
            {
              "internalType": "bool",
              "name": "stable",
              "type": "bool"
            }
          ],
          "internalType": "struct route[]",
          "name": "routes",
          "type": "tuple[]"
        },
        {
          "internalType": "address",
          "name": "to",
          "type": "address"
        },
        {
          "internalType": "uint256",
          "name": "deadline",
          "type": "uint256"
        }
      ],
      "name": "swapExactETHForTokens",
      "outputs": [
        {
          "internalType": "uint256[]",
          "name": "amounts",
          "type": "uint256[]"
        }
      ],
      "stateMutability": "payable",
      "type": "function"
    },
    {
      "inputs": [
        {
          "internalType": "uint256",
          "name": "amountOutMin",
          "type": "uint256"
        },
        {
          "components": [
            {
              "internalType": "address",
              "name": "from",
              "type": "address"
            },
            {
              "internalType": "address",
              "name": "to",
              "type": "address"
            },
            {
              "internalType": "bool",
              "name": "stable",
              "type": "bool"
            }
          ],
          "internalType": "struct route[]",
          "name": "routes",
          "type": "tuple[]"
        },
        {
          "internalType": "address",
          "name": "to",
          "type": "address"
        },
        {
          "internalType": "uint256",
          "name": "deadline",
          "type": "uint256"
        }
      ],
      "name": "swapExactETHForTokensSupportingFeeOnTransferTokens",
      "outputs": [],
      "stateMutability": "payable",
      "type": "function"
    },
    {
      "inputs": [
        {
          "internalType": "uint256",
          "name": "amountIn",
          "type": "uint256"
        },
        {
          "internalType": "uint256",
          "name": "amountOutMin",
          "type": "uint256"
        },
        {
          "components": [
            {
              "internalType": "address",
              "name": "from",
              "type": "address"
            },
            {
              "internalType": "address",
              "name": "to",
              "type": "address"
            },
            {
              "internalType": "bool",
              "name": "stable",
              "type": "bool"
            }
          ],
          "internalType": "struct route[]",
          "name": "routes",
          "type": "tuple[]"
        },
        {
          "internalType": "address",
          "name": "to",
          "type": "address"
        },
        {
          "internalType": "uint256",
          "name": "deadline",
          "type": "uint256"
        }
      ],
      "name": "swapExactTokensForETH",
      "outputs": [
        {
          "internalType": "uint256[]",
          "name": "amounts",
          "type": "uint256[]"
        }
      ],
      "stateMutability": "nonpayable",
      "type": "function"
    },
    {
      "inputs": [
        {
          "internalType": "uint256",
          "name": "amountIn",
          "type": "uint256"
        },
        {
          "internalType": "uint256",
          "name": "amountOutMin",
          "type": "uint256"
        },
        {
          "components": [
            {
              "internalType": "address",
              "name": "from",
              "type": "address"
            },
            {
              "internalType": "address",
              "name": "to",
              "type": "address"
            },
            {
              "internalType": "bool",
              "name": "stable",
              "type": "bool"
            }
          ],
          "internalType": "struct route[]",
          "name": "routes",
          "type": "tuple[]"
        },
        {
          "internalType": "address",
          "name": "to",
          "type": "address"
        },
        {
          "internalType": "uint256",
          "name": "deadline",
          "type": "uint256"
        }
      ],
      "name": "swapExactTokensForETHSupportingFeeOnTransferTokens",
      "outputs": [],
      "stateMutability": "nonpayable",
      "type": "function"
    },
    {
      "inputs": [
        {
          "internalType": "uint256",
          "name": "amountIn",
          "type": "uint256"
        },
        {
          "internalType": "uint256",
          "name": "amountOutMin",
          "type": "uint256"
        },
        {
          "components": [
            {
              "internalType": "address",
              "name": "from",
              "type": "address"
            },
            {
              "internalType": "address",
              "name": "to",
              "type": "address"
            },
            {
              "internalType": "bool",
              "name": "stable",
              "type": "bool"
            }
          ],
          "internalType": "struct route[]",
          "name": "routes",
          "type": "tuple[]"
        },
        {
          "internalType": "address",
          "name": "to",
          "type": "address"
        },
        {
          "internalType": "uint256",
          "name": "deadline",
          "type": "uint256"
        }
      ],
      "name": "swapExactTokensForTokens",
      "outputs": [
        {
          "internalType": "uint256[]",
          "name": "amounts",
          "type": "uint256[]"
        }
      ],
      "stateMutability": "nonpayable",
      "type": "function"
    },
    {
      "inputs": [
        {
          "internalType": "uint256",
          "name": "amountIn",
          "type": "uint256"
        },
        {
          "internalType": "uint256",
          "name": "amountOutMin",
          "type": "uint256"
        },
        {
          "components": [
            {
              "internalType": "address",
              "name": "from",
              "type": "address"
            },
            {
              "internalType": "address",
              "name": "to",
              "type": "address"
            },
            {
              "internalType": "bool",
              "name": "stable",
              "type": "bool"
            }
          ],
          "internalType": "struct route[]",
          "name": "routes",
          "type": "tuple[]"
        },
        {
          "internalType": "address",
          "name": "to",
          "type": "address"
        },
        {
          "internalType": "uint256",
          "name": "deadline",
          "type": "uint256"
        }
      ],
      "name": "swapExactTokensForTokensSupportingFeeOnTransferTokens",
      "outputs": [],
      "stateMutability": "nonpayable",
      "type": "function"
    },
    {
      "inputs": [
        {
          "internalType": "uint256",
          "name": "amountOut",
          "type": "uint256"
        },
        {
          "internalType": "uint256",
          "name": "amountInMax",
          "type": "uint256"
        },
        {
          "components": [
            {
              "internalType": "address",
              "name": "from",
              "type": "address"
            },
            {
              "internalType": "address",
              "name": "to",
              "type": "address"
            },
            {
              "internalType": "bool",
              "name": "stable",
              "type": "bool"
            }
          ],
          "internalType": "struct route[]",
          "name": "routes",
          "type": "tuple[]"
        },
        {
          "internalType": "address",
          "name": "to",
          "type": "address"
        },
        {
          "internalType": "uint256",
          "name": "deadline",
          "type": "uint256"
        }
      ],
      "name": "swapTokensForExactETH",
      "outputs": [
        {
          "internalType": "uint256[]",
          "name": "amounts",
          "type": "uint256[]"
        }
      ],
      "stateMutability": "nonpayable",
      "type": "function"
    },
    {
      "inputs": [
        {
          "internalType": "uint256",
          "name": "amountOut",
          "type": "uint256"
        },
        {
          "internalType": "uint256",
          "name": "amountInMax",
          "type": "uint256"
        },
        {
          "components": [
            {
              "internalType": "address",
              "name": "from",
              "type": "address"
            },
            {
              "internalType": "address",
              "name": "to",
              "type": "address"
            },
            {
              "internalType": "bool",
              "name": "stable",
              "type": "bool"
            }
          ],
          "internalType": "struct route[]",
          "name": "routes",
          "type": "tuple[]"
        },
        {
          "internalType": "address",
          "name": "to",
          "type": "address"
        },
        {
          "internalType": "uint256",
          "name": "deadline",
          "type": "uint256"
        }
      ],
      "name": "swapTokensForExactTokens",
      "outputs": [
        {
          "internalType": "uint256[]",
          "name": "amounts",
          "type": "uint256[]"
        }
      ],
      "stateMutability": "nonpayable",
      "type": "function"
    },
    {
      "stateMutability": "payable",
      "type": "receive"
    }
  ],
  "bytecode": "0x608060405234801561001057600080fd5b50614816806100206000396000f3fe60806040526004361061016a5760003560e01c806382179c5d116100d1578063cad77ef21161008a578063d8ec277711610064578063d8ec27771461042d578063dc2972c21461044d578063ed1fbca21461046d578063f41766d81461048d57610185565b8063cad77ef2146103cd578063d5c54e33146103ed578063d69f344c1461040d57610185565b806382179c5d146103165780639881fcb41461033657806399e629f914610356578063ad5c464814610376578063ad615dec14610398578063c45a0155146103b857610185565b806367ffb66a1161012357806367ffb66a1461026e5780636cc1ae131461028157806376c72751146102a15780637af728c8146102b45780637d03c793146102d45780637de50ddf146102f657610185565b80630cd7ee9f1461018a57806318a13086146101c15780633e6c63c9146101ee578063485cc9551461020e5780634b45e5351461022e578063633afc921461025b57610185565b36610185576001546001600160a01b0316331461018357fe5b005b600080fd5b34801561019657600080fd5b506101aa6101a5366004613c13565b6104ad565b6040516101b892919061468f565b60405180910390f35b3480156101cd57600080fd5b506101e16101dc366004613ec8565b6105ff565b6040516101b8919061412b565b3480156101fa57600080fd5b506101aa610209366004613bb6565b61089f565b34801561021a57600080fd5b50610183610229366004613b4a565b610973565b34801561023a57600080fd5b5061024e610249366004613c13565b610a16565b6040516101b89190614686565b6101e1610269366004613d90565b610afe565b6101e161027c366004613d90565b610dd2565b34801561028d57600080fd5b5061018361029c366004613ec8565b61104e565b6101836102af366004613d90565b6112a3565b3480156102c057600080fd5b506101836102cf366004613ec8565b61157a565b6102e76102e2366004613bb6565b611770565b6040516101b8939291906146ed565b34801561030257600080fd5b506101aa610311366004613c13565b61198c565b34801561032257600080fd5b506101aa610331366004613d19565b611a79565b34801561034257600080fd5b506101e1610351366004613df5565b611c56565b34801561036257600080fd5b5061024e610371366004613f64565b611e22565b34801561038257600080fd5b5061038b611e3f565b6040516101b89190614075565b3480156103a457600080fd5b5061024e6103b3366004613f39565b611e4e565b3480156103c457600080fd5b5061038b611e65565b3480156103d957600080fd5b5061024e6103e8366004613d19565b611e74565b3480156103f957600080fd5b506101e1610408366004613df5565b611f9f565b34801561041957600080fd5b506101e1610428366004613ec8565b612161565b34801561043957600080fd5b5061024e610448366004613f64565b6122c8565b34801561045957600080fd5b506102e7610468366004613c95565b6122d8565b34801561047957600080fd5b506101e1610488366004613ec8565b61240b565b34801561049957600080fd5b506101e16104a8366004613ec8565b612518565b600254600080549091829182916104db916001600160a01b03166104d6368f90038f018f613cfe565b61266d565b90506000856104ea578a6104ee565b6000195b90506001600160a01b03821663d505accf3330848b61051060208c018c613fb6565b8b602001358c604001356040518863ffffffff1660e01b815260040161053c9796959493929190614089565b600060405180830381600087803b15801561055657600080fd5b505af115801561056a573d6000803e3d6000fd5b5050604051633e6c63c960e01b8152309450633e6c63c9935061059d92508e91508d908d908d908d908d90600401614610565b6040805180830381600087803b1580156105b657600080fd5b505af11580156105ca573d6000803e3d6000fd5b505050506040513d601f19601f820116820180604052508101906105ee9190613ea5565b909b909a5098505050505050505050565b6060814281101561062b5760405162461bcd60e51b81526004016106229061416f565b60405180910390fd5b6001546001600160a01b03168686600019810181811061064757fe5b905060600201602001602081019061065f9190613b12565b6001600160a01b0316146106855760405162461bcd60e51b8152600401610622906144c2565b6106e1888787808060200260200160405190810160405280939291908181526020016000905b828210156106d7576106c860608302860136819003810190613cfe565b815260200190600101906106ab565b5050505050611c56565b915086826001845103815181106106f457fe5b6020026020010151101561071a5760405162461bcd60e51b815260040161062290614530565b6107998686600081811061072a57fe5b6107409260206060909202019081019150613b12565b3361077f6002546000809054906101000a90046001600160a01b03168b8b600081811061076957fe5b9050606002018036038101906104d69190613cfe565b8560008151811061078c57fe5b60200260200101516126ed565b6107f6828787808060200260200160405190810160405280939291908181526020016000905b828210156107eb576107dc60608302860136819003810190613cfe565b815260200190600101906107bf565b5050505050306127de565b60015482516001600160a01b0390911690632e1a7d4d908490600019810190811061081d57fe5b60200260200101516040518263ffffffff1660e01b81526004016108419190614686565b600060405180830381600087803b15801561085b57600080fd5b505af115801561086f573d6000803e3d6000fd5b50505050610894848360018551038151811061088757fe5b6020026020010151612991565b509695505050505050565b60008082428110156108c35760405162461bcd60e51b81526004016106229061416f565b6108df6108d5368b90038b018b613cfe565b8989893089611a79565b90935091506108fb6108f460208b018b613b12565b8685612a23565b600154604051632e1a7d4d60e01b81526001600160a01b0390911690632e1a7d4d9061092b908590600401614686565b600060405180830381600087803b15801561094557600080fd5b505af1158015610959573d6000803e3d6000fd5b505050506109678583612991565b50965096945050505050565b600080546001600160a01b038085166001600160a01b031992831681179093556001805491851691909216179055604080516351ad19bd60e11b8152905163a35a337a91600480820192602092909190829003018186803b1580156109d757600080fd5b505afa1580156109eb573d6000803e3d6000fd5b505050506040513d601f19601f82011682018060405250810190610a0f9190613b9e565b6002555050565b6002546000805490918291610a3e91906001600160a01b03166104d6368e90038e018e613cfe565b9050600084610a4d5789610a51565b6000195b90506001600160a01b03821663d505accf3330848a610a7360208b018b613fb6565b8a602001358b604001356040518863ffffffff1660e01b8152600401610a9f9796959493929190614089565b600060405180830381600087803b158015610ab957600080fd5b505af1158015610acd573d6000803e3d6000fd5b50505050610aef8b803603810190610ae59190613cfe565b8b8b8b8b8b611e74565b9b9a5050505050505050505050565b60608142811015610b215760405162461bcd60e51b81526004016106229061416f565b6001546001600160a01b03168686600081610b3857fe5b610b4e9260206060909202019081019150613b12565b6001600160a01b031614610b745760405162461bcd60e51b8152600401610622906144c2565b610bd0878787808060200260200160405190810160405280939291908181526020016000905b82821015610bc657610bb760608302860136819003810190613cfe565b81526020019060010190610b9a565b5050505050611f9f565b91503482600081518110610be057fe5b60200260200101511115610c065760405162461bcd60e51b815260040161062290614353565b60015482516001600160a01b039091169063d0e30db0908490600090610c2857fe5b60200260200101516040518263ffffffff1660e01b81526004016000604051808303818588803b158015610c5b57600080fd5b505af1158015610c6f573d6000803e3d6000fd5b5050600154600254600080546001600160a01b03938416965063a9059cbb9550610ca594509192909116908b908b908161076957fe5b84600081518110610cb257fe5b60200260200101516040518363ffffffff1660e01b8152600401610cd7929190614112565b602060405180830381600087803b158015610cf157600080fd5b505af1158015610d05573d6000803e3d6000fd5b505050506040513d601f19601f82011682018060405250810190610d299190613b82565b610d2f57fe5b610d8c828787808060200260200160405190810160405280939291908181526020016000905b82821015610d8157610d7260608302860136819003810190613cfe565b81526020019060010190610d55565b5050505050866127de565b81600081518110610d9957fe5b6020026020010151341115610dc857610dc83383600081518110610db957fe5b60200260200101513403612991565b5095945050505050565b60608142811015610df55760405162461bcd60e51b81526004016106229061416f565b6001546001600160a01b03168686600081610e0c57fe5b610e229260206060909202019081019150613b12565b6001600160a01b031614610e485760405162461bcd60e51b8152600401610622906144c2565b610e9a348787808060200260200160405190810160405280939291908181526020016000905b828210156106d757610e8b60608302860136819003810190613cfe565b81526020019060010190610e6e565b91508682600184510381518110610ead57fe5b60200260200101511015610ed35760405162461bcd60e51b815260040161062290614530565b60015482516001600160a01b039091169063d0e30db0908490600090610ef557fe5b60200260200101516040518263ffffffff1660e01b81526004016000604051808303818588803b158015610f2857600080fd5b505af1158015610f3c573d6000803e3d6000fd5b5050600154600254600080546001600160a01b03938416965063a9059cbb9550610f7294509192909116908b908b908161076957fe5b84600081518110610f7f57fe5b60200260200101516040518363ffffffff1660e01b8152600401610fa4929190614112565b602060405180830381600087803b158015610fbe57600080fd5b505af1158015610fd2573d6000803e3d6000fd5b505050506040513d601f19601f82011682018060405250810190610ff69190613b82565b610ffc57fe5b610dc8828787808060200260200160405190810160405280939291908181526020016000905b82821015610d815761103f60608302860136819003810190613cfe565b81526020019060010190611022565b804281101561106f5760405162461bcd60e51b81526004016106229061416f565b6110c48585600081811061107f57fe5b6110959260206060909202019081019150613b12565b336110be6002546000809054906101000a90046001600160a01b03168a8a600081811061076957fe5b8a6126ed565b6000858560001981018181106110d657fe5b90506060020160200160208101906110ee9190613b12565b6001600160a01b03166370a08231856040518263ffffffff1660e01b81526004016111199190614075565b60206040518083038186803b15801561113157600080fd5b505afa158015611145573d6000803e3d6000fd5b505050506040513d601f19601f820116820180604052508101906111699190613b9e565b90506111c78686808060200260200160405190810160405280939291908181526020016000905b828210156111bc576111ad60608302860136819003810190613cfe565b81526020019060010190611190565b505050505085612b11565b8661127b82888860001981018181106111dc57fe5b90506060020160200160208101906111f49190613b12565b6001600160a01b03166370a08231886040518263ffffffff1660e01b815260040161121f9190614075565b60206040518083038186803b15801561123757600080fd5b505afa15801561124b573d6000803e3d6000fd5b505050506040513d601f19601f8201168201806040525081019061126f9190613b9e565b9063ffffffff612eef16565b10156112995760405162461bcd60e51b815260040161062290614530565b5050505050505050565b80428110156112c45760405162461bcd60e51b81526004016106229061416f565b6001546001600160a01b031685856000816112db57fe5b6112f19260206060909202019081019150613b12565b6001600160a01b0316146113175760405162461bcd60e51b8152600401610622906144c2565b60015460408051630d0e30db60e41b8152905134926001600160a01b03169163d0e30db091849160048082019260009290919082900301818588803b15801561135f57600080fd5b505af1158015611373573d6000803e3d6000fd5b5050600154600254600080546001600160a01b03938416965063a9059cbb95506113a994509192909116908b908b908161076957fe5b836040518363ffffffff1660e01b81526004016113c7929190614112565b602060405180830381600087803b1580156113e157600080fd5b505af11580156113f5573d6000803e3d6000fd5b505050506040513d601f19601f820116820180604052508101906114199190613b82565b61141f57fe5b60008686600019810181811061143157fe5b90506060020160200160208101906114499190613b12565b6001600160a01b03166370a08231866040518263ffffffff1660e01b81526004016114749190614075565b60206040518083038186803b15801561148c57600080fd5b505afa1580156114a0573d6000803e3d6000fd5b505050506040513d601f19601f820116820180604052508101906114c49190613b9e565b90506115228787808060200260200160405190810160405280939291908181526020016000905b828210156115175761150860608302860136819003810190613cfe565b815260200190600101906114eb565b505050505086612b11565b8761127b828989600019810181811061153757fe5b905060600201602001602081019061154f9190613b12565b6001600160a01b03166370a08231896040518263ffffffff1660e01b815260040161121f9190614075565b804281101561159b5760405162461bcd60e51b81526004016106229061416f565b6001546001600160a01b0316858560001981018181106115b757fe5b90506060020160200160208101906115cf9190613b12565b6001600160a01b0316146115f55760405162461bcd60e51b8152600401610622906144c2565b6116058585600081811061107f57fe5b6116618585808060200260200160405190810160405280939291908181526020016000905b828210156116565761164760608302860136819003810190613cfe565b8152602001906001019061162a565b505050505030612b11565b6001546040516370a0823160e01b81526000916001600160a01b0316906370a0823190611692903090600401614075565b60206040518083038186803b1580156116aa57600080fd5b505afa1580156116be573d6000803e3d6000fd5b505050506040513d601f19601f820116820180604052508101906116e29190613b9e565b9050868110156117045760405162461bcd60e51b815260040161062290614530565b600154604051632e1a7d4d60e01b81526001600160a01b0390911690632e1a7d4d90611734908490600401614686565b600060405180830381600087803b15801561174e57600080fd5b505af1158015611762573d6000803e3d6000fd5b505050506112998482612991565b600080600083428110156117965760405162461bcd60e51b81526004016106229061416f565b6117b16117a8368c90038c018c613cfe565b8a348b8b612f12565b6002546000805493975091955090916117dd91906001600160a01b03166104d6368f90038f018f613cfe565b90506117f76117ef60208d018d613b12565b3383886126ed565b600160009054906101000a90046001600160a01b03166001600160a01b031663d0e30db0856040518263ffffffff1660e01b81526004016000604051808303818588803b15801561184757600080fd5b505af115801561185b573d6000803e3d6000fd5b505060015460405163a9059cbb60e01b81526001600160a01b03909116935063a9059cbb9250611892915084908890600401614112565b602060405180830381600087803b1580156118ac57600080fd5b505af11580156118c0573d6000803e3d6000fd5b505050506040513d601f19601f820116820180604052508101906118e49190613b82565b6118ea57fe5b6040516335313c2160e11b81526001600160a01b03821690636a62784290611916908a90600401614075565b602060405180830381600087803b15801561193057600080fd5b505af1158015611944573d6000803e3d6000fd5b505050506040513d601f19601f820116820180604052508101906119689190613b9e565b92508334111561197e5761197e33853403612991565b505096509650969350505050565b600254600080549091829182916119b5916001600160a01b03166104d6368f90038f018f613cfe565b90506000856119c4578a6119c8565b6000195b90506001600160a01b03821663d505accf3330848b6119ea60208c018c613fb6565b8b602001358c604001356040518863ffffffff1660e01b8152600401611a169796959493929190614089565b600060405180830381600087803b158015611a3057600080fd5b505af1158015611a44573d6000803e3d6000fd5b50505050611a668c803603810190611a5c9190613cfe565b8c8c8c8c8c611a79565b909d909c509a5050505050505050505050565b6000808242811015611a9d5760405162461bcd60e51b81526004016106229061416f565b600254600080549091611ab9916001600160a01b03168c61266d565b6040516323b872dd60e01b81529091506001600160a01b038216906323b872dd90611aec90339085908e906004016140ca565b602060405180830381600087803b158015611b0657600080fd5b505af1158015611b1a573d6000803e3d6000fd5b505050506040513d601f19601f82011682018060405250810190611b3e9190613b82565b50600080826001600160a01b03166389afcb44896040518263ffffffff1660e01b8152600401611b6e9190614075565b6040805180830381600087803b158015611b8757600080fd5b505af1158015611b9b573d6000803e3d6000fd5b505050506040513d601f19601f82011682018060405250810190611bbf9190613ea5565b915091506000611bd78d600001518e6020015161310e565b509050806001600160a01b03168d600001516001600160a01b031614611bfe578183611c01565b82825b90975095508a871015611c265760405162461bcd60e51b8152600401610622906145c9565b89861015611c465760405162461bcd60e51b8152600401610622906143d6565b5050505050965096945050505050565b606080825160010167ffffffffffffffff81118015611c7457600080fd5b50604051908082528060200260200182016040528015611c9e578160200160208202803683370190505b50905082600081518110611cae57fe5b6020026020010151600001516001600160a01b031663313ce5676040518163ffffffff1660e01b815260040160206040518083038186803b158015611cf257600080fd5b505afa158015611d06573d6000803e3d6000fd5b505050506040513d601f19601f82011682018060405250810190611d2a9190613fd2565b60ff1681600081518110611d3a57fe5b60200260200101818152505060005b8351811015611dff57838181518110611d5e57fe5b6020026020010151602001516001600160a01b031663313ce5676040518163ffffffff1660e01b815260040160206040518083038186803b158015611da257600080fd5b505afa158015611db6573d6000803e3d6000fd5b505050506040513d601f19601f82011682018060405250810190611dda9190613fd2565b60ff16828260010181518110611dec57fe5b6020908102919091010152600101611d49565b50600054611e18906001600160a01b0316858584613198565b9150505b92915050565b6000611e328787878787876132df565b90505b9695505050505050565b6001546001600160a01b031681565b6000611e5b84848461341c565b90505b9392505050565b6000546001600160a01b031681565b60008142811015611e975760405162461bcd60e51b81526004016106229061416f565b611ea5888888883088611a79565b89516040516370a0823160e01b8152919450611f3392509086906001600160a01b038316906370a0823190611ede903090600401614075565b60206040518083038186803b158015611ef657600080fd5b505afa158015611f0a573d6000803e3d6000fd5b505050506040513d601f19601f82011682018060405250810190611f2e9190613b9e565b612a23565b600154604051632e1a7d4d60e01b81526001600160a01b0390911690632e1a7d4d90611f63908590600401614686565b600060405180830381600087803b158015611f7d57600080fd5b505af1158015611f91573d6000803e3d6000fd5b505050506108948483612991565b606080825160010167ffffffffffffffff81118015611fbd57600080fd5b50604051908082528060200260200182016040528015611fe7578160200160208202803683370190505b50905082600081518110611ff757fe5b6020026020010151600001516001600160a01b031663313ce5676040518163ffffffff1660e01b815260040160206040518083038186803b15801561203b57600080fd5b505afa15801561204f573d6000803e3d6000fd5b505050506040513d601f19601f820116820180604052508101906120739190613fd2565b60ff168160008151811061208357fe5b60200260200101818152505060005b8351811015612148578381815181106120a757fe5b6020026020010151602001516001600160a01b031663313ce5676040518163ffffffff1660e01b815260040160206040518083038186803b1580156120eb57600080fd5b505afa1580156120ff573d6000803e3d6000fd5b505050506040513d601f19601f820116820180604052508101906121239190613fd2565b60ff1682826001018151811061213557fe5b6020908102919091010152600101612092565b50600054611e18906001600160a01b031685858461348a565b606081428110156121845760405162461bcd60e51b81526004016106229061416f565b6001546001600160a01b0316868660001981018181106121a057fe5b90506060020160200160208101906121b89190613b12565b6001600160a01b0316146121de5760405162461bcd60e51b8152600401610622906144c2565b612230888787808060200260200160405190810160405280939291908181526020016000905b82821015610bc65761222160608302860136819003810190613cfe565b81526020019060010190612204565b9150868260008151811061224057fe5b602002602001015111156122665760405162461bcd60e51b815260040161062290614353565b6122768686600081811061072a57fe5b6107f6828787808060200260200160405190810160405280939291908181526020016000905b828210156107eb576122b960608302860136819003810190613cfe565b8152602001906001019061229c565b6000611e328787878787876135b6565b600080600083428110156122fe5760405162461bcd60e51b81526004016106229061416f565b612319612310368d90038d018d613cfe565b8b8b8b8b612f12565b8094508195505050600061234f6002546000809054906101000a90046001600160a01b03168e8036038101906104d69190613cfe565b90506123616117ef60208e018e613b12565b61237c61237460408e0160208f01613b12565b3383876126ed565b6040516335313c2160e11b81526001600160a01b03821690636a627842906123a8908a90600401614075565b602060405180830381600087803b1580156123c257600080fd5b505af11580156123d6573d6000803e3d6000fd5b505050506040513d601f19601f820116820180604052508101906123fa9190613b9e565b925050509750975097945050505050565b6060814281101561242e5760405162461bcd60e51b81526004016106229061416f565b612480888787808060200260200160405190810160405280939291908181526020016000905b82821015610bc65761247160608302860136819003810190613cfe565b81526020019060010190612454565b9150868260008151811061249057fe5b602002602001015111156124b65760405162461bcd60e51b815260040161062290614353565b6124c68686600081811061072a57fe5b610894828787808060200260200160405190810160405280939291908181526020016000905b82821015610d815761250960608302860136819003810190613cfe565b815260200190600101906124ec565b6060814281101561253b5760405162461bcd60e51b81526004016106229061416f565b61258d888787808060200260200160405190810160405280939291908181526020016000905b828210156106d75761257e60608302860136819003810190613cfe565b81526020019060010190612561565b915086826001845103815181106125a057fe5b602002602001015110156125c65760405162461bcd60e51b815260040161062290614530565b61261b868660008181106125d657fe5b6125ec9260206060909202019081019150613b12565b336126156002546000809054906101000a90046001600160a01b03168b8b600081811061076957fe5b8b6126ed565b610894828787808060200260200160405190810160405280939291908181526020016000905b82821015610d815761265e60608302860136819003810190613cfe565b81526020019060010190612641565b60008060006126848460000151856020015161310e565b9150915084828286604001516040516020016126a293929190613fee565b60405160208183030381529060405280519060200120876040516020016126cb9392919061403d565b60408051601f1981840301815291905280516020909101209695505050505050565b60006060856001600160a01b03166323b872dd868686604051602401612715939291906140ca565b6040516020818303038152906040529060e01b6020820180516001600160e01b03838183161783525050505060405161274e9190614021565b6000604051808303816000865af19150503d806000811461278b576040519150601f19603f3d011682016040523d82523d6000602084013e612790565b606091505b50915091508180156127ba5750805115806127ba5750808060200190518101906127ba9190613b82565b6127d65760405162461bcd60e51b815260040161062290614268565b505050505050565b60005b600183510381101561298b576000808483815181106127fc57fe5b60200260200101516000015185848151811061281457fe5b602002602001015160200151915091506000612830838361310e565b509050600087856001018151811061284457fe5b60200260200101519050600080836001600160a01b0316866001600160a01b03161461287257826000612876565b6000835b91509150600060018a5103881061288d57886128c0565b6002546000548b516128c092916001600160a01b0316908d9060018d019081106128b357fe5b602002602001015161266d565b90506128e96002546000809054906101000a90046001600160a01b03168c8b815181106128b357fe5b6001600160a01b031663022c0d9f84848460006040519080825280601f01601f191660200182016040528015612926576020820181803683370190505b506040518563ffffffff1660e01b8152600401612946949392919061469d565b600060405180830381600087803b15801561296057600080fd5b505af1158015612974573d6000803e3d6000fd5b5050600190990198506127e1975050505050505050565b50505050565b604080516000808252602082019092526001600160a01b0384169083906040516129bb9190614021565b60006040518083038185875af1925050503d80600081146129f8576040519150601f19603f3d011682016040523d82523d6000602084013e6129fd565b606091505b5050905080612a1e5760405162461bcd60e51b8152600401610622906142b9565b505050565b60006060846001600160a01b031663a9059cbb8585604051602401612a49929190614112565b6040516020818303038152906040529060e01b6020820180516001600160e01b038381831617835250505050604051612a829190614021565b6000604051808303816000865af19150503d8060008114612abf576040519150601f19603f3d011682016040523d82523d6000602084013e612ac4565b606091505b5091509150818015612aee575080511580612aee575080806020019051810190612aee9190613b82565b612b0a5760405162461bcd60e51b81526004016106229061457c565b5050505050565b60005b8251811015612a1e576000612b57848381518110612b2e57fe5b602002602001015160000151858481518110612b4657fe5b60200260200101516020015161310e565b5090506000612b836002546000809054906101000a90046001600160a01b03168786815181106128b357fe5b9050600080600080600080866001600160a01b0316630902f1ac6040518163ffffffff1660e01b815260040160606040518083038186803b158015612bc757600080fd5b505afa158015612bdb573d6000803e3d6000fd5b505050506040513d601f19601f82011682018060405250810190612bff9190613d3c565b506001600160701b031691506001600160701b03169150876001600160a01b03168b8a81518110612c2c57fe5b6020026020010151600001516001600160a01b031614612c4d578082612c50565b81815b8094508195505050612c9f848c8b81518110612c6857fe5b6020026020010151600001516001600160a01b03166370a082318a6040518263ffffffff1660e01b815260040161121f9190614075565b955050506000898881518110612cb157fe5b6020026020010151600001516001600160a01b031663313ce5676040518163ffffffff1660e01b815260040160206040518083038186803b158015612cf557600080fd5b505afa158015612d09573d6000803e3d6000fd5b505050506040513d601f19601f82011682018060405250810190612d2d9190613fd2565b60ff16905060008a8981518110612d4057fe5b6020026020010151602001516001600160a01b031663313ce5676040518163ffffffff1660e01b815260040160206040518083038186803b158015612d8457600080fd5b505afa158015612d98573d6000803e3d6000fd5b505050506040513d601f19601f82011682018060405250810190612dbc9190613fd2565b60ff169050612de68685858e8d81518110612dd357fe5b60200260200101516040015186866122c8565b94505050600080876001600160a01b03168b8a81518110612e0357fe5b6020026020010151600001516001600160a01b031614612e2557846000612e29565b6000855b91509150600060018c51038a10612e40578a612e66565b6002546000548d51612e6692916001600160a01b0316908f9060018f019081106128b357fe5b6040805160008152602081019182905263022c0d9f60e01b9091529091506001600160a01b0389169063022c0d9f90612ea8908690869086906024810161469d565b600060405180830381600087803b158015612ec257600080fd5b505af1158015612ed6573d6000803e3d6000fd5b50506001909b019a50612b149950505050505050505050565b80820382811115611e1c5760405162461bcd60e51b8152600401610622906141dd565b60008054865160208801516040808a015190516306801cc360e41b8152859485946001600160a01b0390911693636801cc3093612f51936004016140ee565b60206040518083038186803b158015612f6957600080fd5b505afa158015612f7d573d6000803e3d6000fd5b505050506040513d601f19601f82011682018060405250810190612fa19190613b2e565b90506001600160a01b03811661304457600054885160208a01516040808c015190516320b7f73960e21b81526001600160a01b03909416936382dfdce493612fef93909290916004016140ee565b602060405180830381600087803b15801561300957600080fd5b505af115801561301d573d6000803e3d6000fd5b505050506040513d601f19601f820116820180604052508101906130419190613b2e565b90505b60008054819061305d906001600160a01b03168b6136ee565b9150915081600014801561306f575080155b1561307f57889450879350613101565b600061308c8a848461341c565b90508881116130c057868110156130b55760405162461bcd60e51b8152600401610622906143d6565b8995509350836130ff565b60006130cd8a848661341c565b90508a8111156130d957fe5b888110156130f95760405162461bcd60e51b8152600401610622906145c9565b95508894505b505b5050509550959350505050565b600080826001600160a01b0316846001600160a01b031614156131435760405162461bcd60e51b81526004016106229061430d565b826001600160a01b0316846001600160a01b031610613163578284613166565b83835b90925090506001600160a01b0382166131915760405162461bcd60e51b8152600401610622906141a6565b9250929050565b60606001835110156131bc5760405162461bcd60e51b8152600401610622906144f9565b825160010167ffffffffffffffff811180156131d757600080fd5b50604051908082528060200260200182016040528015613201578160200160208202803683370190505b509050838160008151811061321257fe5b60200260200101818152505060005b60018451038110156132d65760008061324d8887858151811061324057fe5b60200260200101516136ee565b915091506132b284848151811061326057fe5b6020026020010151838389878151811061327657fe5b60200260200101516040015189888151811061328e57fe5b60200260200101518a89600101815181106132a557fe5b60200260200101516135b6565b8484600101815181106132c157fe5b60209081029190910101525050600101613221565b50949350505050565b60008087116133005760405162461bcd60e51b81526004016106229061439b565b6000861180156133105750600085115b61332c5760405162461bcd60e51b81526004016106229061448b565b83156133b457612710870487039650600061334987878686613848565b90508387670de0b6b3a7640000028161335e57fe5b0496508286670de0b6b3a7640000028161337457fe5b0495508288670de0b6b3a7640000028161338a57fe5b04975061339a88870382896138c3565b87039150670de0b6b3a76400008483025b04915050611e35565b60006133d86103e86133cc898b63ffffffff61398416565b9063ffffffff61398416565b905060006133f26103e56133cc898c63ffffffff612eef16565b905061340f600182848161340257fe5b049063ffffffff6139bb16565b9998505050505050505050565b600080841161343d5760405162461bcd60e51b815260040161062290614457565b60008311801561344d5750600082115b6134695760405162461bcd60e51b81526004016106229061448b565b8261347a858463ffffffff61398416565b8161348157fe5b04949350505050565b60606001835110156134ae5760405162461bcd60e51b8152600401610622906144f9565b825160010167ffffffffffffffff811180156134c957600080fd5b506040519080825280602002602001820160405280156134f3578160200160208202803683370190505b509050838160018351038151811061350757fe5b60209081029190910101528251600019015b60008061352c8887858151811061324057fe5b9150915061359484846001018151811061354257fe5b6020026020010151838389878151811061355857fe5b60200260200101516040015189888151811061357057fe5b60200260200101518a896001018151811061358757fe5b60200260200101516132df565b8484815181106135a057fe5b6020908102919091010152505060001901613519565b60008087116135d75760405162461bcd60e51b81526004016106229061441d565b6000861180156135e75750600085115b6136035760405162461bcd60e51b81526004016106229061448b565b831561368657612710870487039650600061362087878686613848565b90508387670de0b6b3a7640000028161363557fe5b0496508286670de0b6b3a7640000028161364b57fe5b0495508388670de0b6b3a7640000028161366157fe5b04975061367187890182886138c3565b86039150670de0b6b3a76400008383026133ab565b600061369a886103e563ffffffff61398416565b905060006136ae828863ffffffff61398416565b905060006136d4836136c88b6103e863ffffffff61398416565b9063ffffffff6139bb16565b90508082816136df57fe5b049a9950505050505050505050565b60008060006137058460000151856020015161310e565b5090506000856001600160a01b031663a35a337a6040518163ffffffff1660e01b815260040160206040518083038186803b15801561374357600080fd5b505afa158015613757573d6000803e3d6000fd5b505050506040513d601f19601f8201168201806040525081019061377b9190613b9e565b905060008061378b83898961266d565b6001600160a01b0316630902f1ac6040518163ffffffff1660e01b815260040160606040518083038186803b1580156137c357600080fd5b505afa1580156137d7573d6000803e3d6000fd5b505050506040513d601f19601f820116820180604052508101906137fb9190613d3c565b506001600160701b031691506001600160701b03169150836001600160a01b031687600001516001600160a01b031614613836578082613839565b81815b90999098509650505050505050565b6000808386670de0b6b3a7640000028161385e57fe5b04905060008386670de0b6b3a7640000028161387657fe5b0490506000670de0b6b3a76400008383020490506000670de0b6b3a764000083800204670de0b6b3a764000085800204019050670de0b6b3a7640000828202049998505050505050505050565b6000805b60ff81101561397b578260006138dd87836139de565b9050858110156139135760006138f38887613a2e565b828803670de0b6b3a7640000028161390757fe5b0495909501945061393a565b600061391f8887613a2e565b878303670de0b6b3a7640000028161393357fe5b0490950394505b8185111561395c5760018286031161395757849350505050611e5e565b613971565b60018583031161397157849350505050611e5e565b50506001016138c7565b50909392505050565b600081158061399f5750508082028282828161399c57fe5b04145b611e1c5760405162461bcd60e51b81526004016106229061420c565b80820182811015611e1c5760405162461bcd60e51b81526004016106229061423a565b6000670de0b6b3a7640000828185818180020402816139f957fe5b040281613a0257fe5b04670de0b6b3a7640000808481818002040281613a1b57fe5b04850281613a2557fe5b04019392505050565b6000670de0b6b3a76400008381818002040281613a4757fe5b04670de0b6b3a76400008084800204856003020281613a2557fe5b60008083601f840112613a73578182fd5b50813567ffffffffffffffff811115613a8a578182fd5b60208301915083602060608302850101111561319157600080fd5b600060608284031215613ab6578081fd5b50919050565b600060608284031215613acd578081fd5b613ad76060614703565b90508135613ae481614776565b81526020820135613af481614776565b60208201526040820135613b078161478e565b604082015292915050565b600060208284031215613b23578081fd5b8135611e5e81614776565b600060208284031215613b3f578081fd5b8151611e5e81614776565b60008060408385031215613b5c578081fd5b8235613b6781614776565b91506020830135613b7781614776565b809150509250929050565b600060208284031215613b93578081fd5b8151611e5e8161478e565b600060208284031215613baf578081fd5b5051919050565b6000806000806000806101008789031215613bcf578182fd5b613bd98888613aa5565b9550606087013594506080870135935060a0870135925060c0870135613bfe81614776565b8092505060e087013590509295509295509295565b600080600080600080600080610180898b031215613c2f578182fd5b613c398a8a613aa5565b9750606089013596506080890135955060a0890135945060c0890135613c5e81614776565b935060e08901359250610100890135613c768161478e565b9150613c868a6101208b01613aa5565b90509295985092959890939650565b6000806000806000806000610120888a031215613cb0578081fd5b613cba8989613aa5565b9650606088013595506080880135945060a0880135935060c0880135925060e0880135613ce681614776565b80925050610100880135905092959891949750929550565b600060608284031215613d0f578081fd5b611e5e8383613abc565b6000806000806000806101008789031215613d32578384fd5b613bd98888613abc565b600080600060608486031215613d50578081fd5b8351613d5b8161479c565b6020850151909350613d6c8161479c565b604085015190925063ffffffff81168114613d85578182fd5b809150509250925092565b600080600080600060808688031215613da7578283fd5b85359450602086013567ffffffffffffffff811115613dc4578384fd5b613dd088828901613a62565b9095509350506040860135613de481614776565b949793965091946060013592915050565b60008060408385031215613e07578182fd5b8235915060208084013567ffffffffffffffff811115613e25578283fd5b80850186601f820112613e36578384fd5b80359150613e4b613e468361472a565b614703565b828152838101908285016060808602850187018b1015613e69578788fd5b8794505b85851015613e9557613e7f8b83613abc565b8452600194909401939286019290810190613e6d565b5096999098509650505050505050565b60008060408385031215613eb7578182fd5b505080516020909101519092909150565b60008060008060008060a08789031215613ee0578384fd5b8635955060208701359450604087013567ffffffffffffffff811115613f04578485fd5b613f1089828a01613a62565b9095509350506060870135613f2481614776565b80925050608087013590509295509295509295565b600080600060608486031215613f4d578081fd5b505081359360208301359350604090920135919050565b60008060008060008060c08789031215613f7c578384fd5b8635955060208701359450604087013593506060870135613f9c8161478e565b9598949750929560808101359460a0909101359350915050565b600060208284031215613fc7578081fd5b8135611e5e816147b1565b600060208284031215613fe3578081fd5b8151611e5e816147b1565b6bffffffffffffffffffffffff19606094851b811682529290931b9091166014830152151560f81b602882015260290190565b6000825161403381846020870161474a565b9190910192915050565b6001600160f81b0319815260609390931b6bffffffffffffffffffffffff191660018401526015830191909152603582015260550190565b6001600160a01b0391909116815260200190565b6001600160a01b0397881681529590961660208601526040850193909352606084019190915260ff16608083015260a082015260c081019190915260e00190565b6001600160a01b039384168152919092166020820152604081019190915260600190565b6001600160a01b039384168152919092166020820152901515604082015260600190565b6001600160a01b03929092168252602082015260400190565b6020808252825182820181905260009190848201906040850190845b8181101561416357835183529284019291840191600101614147565b50909695505050505050565b60208082526019908201527f54656c65737761705632526f757465723a204558504952454400000000000000604082015260600190565b6020808252601f908201527f54656c657377617056324c6962726172793a205a45524f5f4144445245535300604082015260600190565b60208082526015908201527464732d6d6174682d7375622d756e646572666c6f7760581b604082015260600190565b60208082526014908201527364732d6d6174682d6d756c2d6f766572666c6f7760601b604082015260600190565b60208082526014908201527364732d6d6174682d6164642d6f766572666c6f7760601b604082015260600190565b60208082526031908201527f5472616e7366657248656c7065723a3a7472616e7366657246726f6d3a207472604082015270185b9cd9995c919c9bdb4819985a5b1959607a1b606082015260800190565b60208082526034908201527f5472616e7366657248656c7065723a3a736166655472616e736665724554483a60408201527308115512081d1c985b9cd9995c8819985a5b195960621b606082015260800190565b60208082526026908201527f54656c657377617056324c6962726172793a204944454e544943414c5f41444460408201526552455353455360d01b606082015260800190565b60208082526028908201527f54656c65737761705632526f757465723a204558434553534956455f494e50556040820152671517d05353d5539560c21b606082015260800190565b6020808252602d908201526000805160206147c183398151915260408201526c13d55514155517d05353d55395609a1b606082015260800190565b60208082526027908201527f54656c65737761705632526f757465723a20494e53554646494349454e545f4260408201526617d05353d5539560ca1b606082015260800190565b6020808252602c908201526000805160206147c183398151915260408201526b125394155517d05353d5539560a21b606082015260800190565b60208082526026908201526000805160206147c1833981519152604082015265105353d5539560d21b606082015260800190565b60208082526029908201526000805160206147c18339815191526040820152684c495155494449545960b81b606082015260800190565b6020808252601e908201527f54656c65737761705632526f757465723a20494e56414c49445f504154480000604082015260600190565b6020808252601f908201527f54656c657377617056324c6962726172793a20494e56414c49445f5041544800604082015260600190565b6020808252602c908201527f54656c65737761705632526f757465723a20494e53554646494349454e545f4f60408201526b155514155517d05353d5539560a21b606082015260800190565b6020808252602d908201527f5472616e7366657248656c7065723a3a736166655472616e736665723a20747260408201526c185b9cd9995c8819985a5b1959609a1b606082015260800190565b60208082526027908201527f54656c65737761705632526f757465723a20494e53554646494349454e545f4160408201526617d05353d5539560ca1b606082015260800190565b6101008101873561462081614776565b6001600160a01b03908116835260208901359061463c82614776565b90811660208401526040890135906146538261478e565b90151560408401526060830197909752608082019590955260a0810193909352931660c082015260e00191909152919050565b90815260200190565b918252602082015260400190565b600085825284602083015260018060a01b03841660408301526080606083015282518060808401526146d68160a085016020870161474a565b601f01601f19169190910160a00195945050505050565b9283526020830191909152604082015260600190565b60405181810167ffffffffffffffff8111828210171561472257600080fd5b604052919050565b600067ffffffffffffffff821115614740578081fd5b5060209081020190565b60005b8381101561476557818101518382015260200161474d565b8381111561298b5750506000910152565b6001600160a01b038116811461478b57600080fd5b50565b801515811461478b57600080fd5b6001600160701b038116811461478b57600080fd5b60ff8116811461478b57600080fdfe54656c657377617056324c6962726172793a20494e53554646494349454e545fa26469706673582212203bab985a650a9621657821248b5e355a9c02316aa93e759fc6afd1250272253464736f6c63430006060033",
  "linkReferences": {},
  "deployedLinkReferences": {}
}