{
  "contractName": "BasicStakeContractMock",
  "abi": [
    {
      "constant": false,
      "inputs": [
        {
          "name": "_amount",
          "type": "uint256"
        },
        {
          "name": "_data",
          "type": "bytes"
        }
      ],
      "name": "stake",
      "outputs": [],
      "payable": false,
      "stateMutability": "nonpayable",
      "type": "function"
    },
    {
      "constant": false,
      "inputs": [
        {
          "name": "_user",
          "type": "address"
        },
        {
          "name": "_amount",
          "type": "uint256"
        },
        {
          "name": "_data",
          "type": "bytes"
        }
      ],
      "name": "stakeFor",
      "outputs": [],
      "payable": false,
      "stateMutability": "nonpayable",
      "type": "function"
    },
    {
      "constant": true,
      "inputs": [
        {
          "name": "_address",
          "type": "address"
        }
      ],
      "name": "getPersonalStakeUnlockedTimestamps",
      "outputs": [
        {
          "name": "",
          "type": "uint256[]"
        }
      ],
      "payable": false,
      "stateMutability": "view",
      "type": "function"
    },
    {
      "constant": true,
      "inputs": [
        {
          "name": "_address",
          "type": "address"
        }
      ],
      "name": "getPersonalStakes",
      "outputs": [
        {
          "name": "",
          "type": "uint256[]"
        },
        {
          "name": "",
          "type": "uint256[]"
        },
        {
          "name": "",
          "type": "address[]"
        }
      ],
      "payable": false,
      "stateMutability": "view",
      "type": "function"
    },
    {
      "constant": true,
      "inputs": [
        {
          "name": "_address",
          "type": "address"
        }
      ],
      "name": "totalStakedFor",
      "outputs": [
        {
          "name": "",
          "type": "uint256"
        }
      ],
      "payable": false,
      "stateMutability": "view",
      "type": "function"
    },
    {
      "constant": true,
      "inputs": [
        {
          "name": "_address",
          "type": "address"
        }
      ],
      "name": "getPersonalStakeActualAmounts",
      "outputs": [
        {
          "name": "",
          "type": "uint256[]"
        }
      ],
      "payable": false,
      "stateMutability": "view",
      "type": "function"
    },
    {
      "constant": true,
      "inputs": [],
      "name": "supportsHistory",
      "outputs": [
        {
          "name": "",
          "type": "bool"
        }
      ],
      "payable": false,
      "stateMutability": "pure",
      "type": "function"
    },
    {
      "constant": true,
      "inputs": [
        {
          "name": "_address",
          "type": "address"
        }
      ],
      "name": "getPersonalStakeForAddresses",
      "outputs": [
        {
          "name": "",
          "type": "address[]"
        }
      ],
      "payable": false,
      "stateMutability": "view",
      "type": "function"
    },
    {
      "constant": true,
      "inputs": [],
      "name": "totalStaked",
      "outputs": [
        {
          "name": "",
          "type": "uint256"
        }
      ],
      "payable": false,
      "stateMutability": "view",
      "type": "function"
    },
    {
      "constant": false,
      "inputs": [
        {
          "name": "_amount",
          "type": "uint256"
        },
        {
          "name": "_data",
          "type": "bytes"
        }
      ],
      "name": "unstake",
      "outputs": [],
      "payable": false,
      "stateMutability": "nonpayable",
      "type": "function"
    },
    {
      "constant": true,
      "inputs": [
        {
          "name": "",
          "type": "address"
        }
      ],
      "name": "stakeHolders",
      "outputs": [
        {
          "name": "totalStakedFor",
          "type": "uint256"
        },
        {
          "name": "personalStakeIndex",
          "type": "uint256"
        },
        {
          "name": "exists",
          "type": "bool"
        }
      ],
      "payable": false,
      "stateMutability": "view",
      "type": "function"
    },
    {
      "constant": true,
      "inputs": [],
      "name": "defaultLockInDuration",
      "outputs": [
        {
          "name": "",
          "type": "uint256"
        }
      ],
      "payable": false,
      "stateMutability": "view",
      "type": "function"
    },
    {
      "constant": true,
      "inputs": [],
      "name": "token",
      "outputs": [
        {
          "name": "",
          "type": "address"
        }
      ],
      "payable": false,
      "stateMutability": "view",
      "type": "function"
    },
    {
      "inputs": [
        {
          "name": "_stakingToken",
          "type": "address"
        },
        {
          "name": "_lockInDuration",
          "type": "uint256"
        }
      ],
      "payable": false,
      "stateMutability": "nonpayable",
      "type": "constructor"
    },
    {
      "anonymous": false,
      "inputs": [
        {
          "indexed": true,
          "name": "user",
          "type": "address"
        },
        {
          "indexed": false,
          "name": "amount",
          "type": "uint256"
        },
        {
          "indexed": false,
          "name": "total",
          "type": "uint256"
        },
        {
          "indexed": false,
          "name": "data",
          "type": "bytes"
        }
      ],
      "name": "Staked",
      "type": "event"
    },
    {
      "anonymous": false,
      "inputs": [
        {
          "indexed": true,
          "name": "user",
          "type": "address"
        },
        {
          "indexed": false,
          "name": "amount",
          "type": "uint256"
        },
        {
          "indexed": false,
          "name": "total",
          "type": "uint256"
        },
        {
          "indexed": false,
          "name": "data",
          "type": "bytes"
        }
      ],
      "name": "Unstaked",
      "type": "event"
    }
  ],
  "bytecode": "0x608060405234801561001057600080fd5b5060405160408061101483398101604052805160209091015160008054600160a060020a031916600160a060020a03909316929092178255600155610fb990819061005b90396000f3006080604052600436106100c45763ffffffff7c01000000000000000000000000000000000000000000000000000000006000350416630e89439b81146100c95780630ef9635614610129578063201d3be71461019f57806320bf96201461021d5780634b341aed1461032957806366e6360d146103695780637033e4a6146103975780638033f6bc146103c0578063817b1cd2146103ee578063c8fd6ed014610403578063e26ff10a14610461578063e8297da2146104af578063fc0c546a146104c4575b600080fd5b3480156100d557600080fd5b5060408051602060046024803582810135601f81018590048502860185019096528585526101279583359536956044949193909101919081908401838280828437509497506105029650505050505050565b005b34801561013557600080fd5b50604080516020600460443581810135601f810184900484028501840190955284845261012794823573ffffffffffffffffffffffffffffffffffffffff169460248035953695946064949201919081908401838280828437509497506105149650505050505050565b3480156101ab57600080fd5b506101cd73ffffffffffffffffffffffffffffffffffffffff60043516610527565b60408051602080825283518183015283519192839290830191858101910280838360005b838110156102095781810151838201526020016101f1565b505050509050019250505060405180910390f35b34801561022957600080fd5b5061024b73ffffffffffffffffffffffffffffffffffffffff6004351661053d565b60405180806020018060200180602001848103845287818151815260200191508051906020019060200280838360005b8381101561029357818101518382015260200161027b565b50505050905001848103835286818151815260200191508051906020019060200280838360005b838110156102d25781810151838201526020016102ba565b50505050905001848103825285818151815260200191508051906020019060200280838360005b838110156103115781810151838201526020016102f9565b50505050905001965050505050505060405180910390f35b34801561033557600080fd5b5061035773ffffffffffffffffffffffffffffffffffffffff60043516610721565b60408051918252519081900360200190f35b34801561037557600080fd5b506101cd73ffffffffffffffffffffffffffffffffffffffff60043516610749565b3480156103a357600080fd5b506103ac61075e565b604080519115158252519081900360200190f35b3480156103cc57600080fd5b506101cd73ffffffffffffffffffffffffffffffffffffffff60043516610763565b3480156103fa57600080fd5b50610357610778565b34801561040f57600080fd5b5060408051602060046024803582810135601f810185900485028601850190965285855261012795833595369560449491939091019190819084018382808284375094975061081c9650505050505050565b34801561046d57600080fd5b5061048f73ffffffffffffffffffffffffffffffffffffffff60043516610826565b604080519384526020840192909252151582820152519081900360600190f35b3480156104bb57600080fd5b5061035761084a565b3480156104d057600080fd5b506104d9610850565b6040805173ffffffffffffffffffffffffffffffffffffffff9092168252519081900360200190f35b61051033836001548461086c565b5050565b61052283836001548461086c565b505050565b6060806105338361053d565b5090949350505050565b73ffffffffffffffffffffffffffffffffffffffff8116600090815260026020818152604080842060018101549381015482519490038085528084028501909301909152606093849384939184918291829181908680156105a8578160200160208202803883390190505b509450856040519080825280602002602001820160405280156105d5578160200160208202803883390190505b50935085604051908082528060200260200182016040528015610602578160200160208202803883390190505b509250866001015491505b600287015482101561071157866001015482039050866002018281548110151561063357fe5b906000526020600020906003020160000154858281518110151561065357fe5b602090810290910101526002870180548390811061066d57fe5b906000526020600020906003020160010154848281518110151561068d57fe5b60209081029091010152600287018054839081106106a757fe5b6000918252602090912060026003909202010154835173ffffffffffffffffffffffffffffffffffffffff909116908490839081106106e257fe5b73ffffffffffffffffffffffffffffffffffffffff90921660209283029091019091015260019091019061060d565b5092999198509650945050505050565b73ffffffffffffffffffffffffffffffffffffffff1660009081526002602052604090205490565b6060806107558361053d565b50949350505050565b600090565b60608061076f8361053d565b95945050505050565b60008054604080517f70a08231000000000000000000000000000000000000000000000000000000008152306004820152905173ffffffffffffffffffffffffffffffffffffffff909216916370a082319160248082019260209290919082900301818787803b1580156107eb57600080fd5b505af11580156107ff573d6000803e3d6000fd5b505050506040513d602081101561081557600080fd5b5051905090565b6105108282610ba7565b60026020526000908152604090208054600182015460039092015490919060ff1683565b60015481565b60005473ffffffffffffffffffffffffffffffffffffffff1690565b60008054604080517f23b872dd00000000000000000000000000000000000000000000000000000000815233600482018190523060248301526044820188905291519193879373ffffffffffffffffffffffffffffffffffffffff16926323b872dd926064808201936020939283900390910190829087803b1580156108f157600080fd5b505af1158015610905573d6000803e3d6000fd5b505050506040513d602081101561091b57600080fd5b5051151561098a57604080517f08c379a000000000000000000000000000000000000000000000000000000000815260206004820152600e60248201527f5374616b65207265717569726564000000000000000000000000000000000000604482015290519081900360640190fd5b3360009081526002602052604090206003015460ff1615156109e25733600090815260026020526040902060030180547fffffffffffffffffffffffffffffffffffffffffffffffffffffffffffffff001660011790555b73ffffffffffffffffffffffffffffffffffffffff8616600090815260026020526040902054610a18908663ffffffff610f6816565b73ffffffffffffffffffffffffffffffffffffffff871660009081526002602081905260408083209390935533825290829020825160608101909352019080610a67428863ffffffff610f6816565b8152602080820189905273ffffffffffffffffffffffffffffffffffffffff8a81166040938401819052855460018082018855600097885296849020865160039092020190815592850151958301959095559290910151600290910180547fffffffffffffffffffffffff000000000000000000000000000000000000000016919092161790557fc65e53b88159e7d2c0fc12a0600072e28ae53ff73b4c1715369c30f16093514286610b1989610721565b866040518084815260200183815260200180602001828103825283818151815260200191508051906020019080838360005b83811015610b63578181015183820152602001610b4b565b50505050905090810190601f168015610b905780820380516001836020036101000a031916815260200191505b5094505050505060405180910390a2505050505050565b33600090815260026020819052604082206001810154910180549091908110610bcc57fe5b9060005260206000209060030201905042816000015411151515610c7757604080517f08c379a000000000000000000000000000000000000000000000000000000000815260206004820152602560248201527f5468652063757272656e74207374616b65206861736e277420756e6c6f636b6560448201527f6420796574000000000000000000000000000000000000000000000000000000606482015290519081900360840190fd5b60018101548314610d0f57604080517f08c379a000000000000000000000000000000000000000000000000000000000815260206004820152603360248201527f54686520756e7374616b6520616d6f756e7420646f6573206e6f74206d61746360448201527f68207468652063757272656e74207374616b6500000000000000000000000000606482015290519081900360840190fd5b60008054604080517fa9059cbb00000000000000000000000000000000000000000000000000000000815233600482015260248101879052905173ffffffffffffffffffffffffffffffffffffffff9092169263a9059cbb926044808401936020939083900390910190829087803b158015610d8a57600080fd5b505af1158015610d9e573d6000803e3d6000fd5b505050506040513d6020811015610db457600080fd5b50511515610e2357604080517f08c379a000000000000000000000000000000000000000000000000000000000815260206004820152601860248201527f556e61626c6520746f207769746864726177207374616b650000000000000000604482015290519081900360640190fd5b600181015460028083015473ffffffffffffffffffffffffffffffffffffffff1660009081526020919091526040902054610e639163ffffffff610f7b16565b6002828101805473ffffffffffffffffffffffffffffffffffffffff9081166000908152602093909352604080842094909455600180860184905533845293909220830180549093019092559054167faf01bfc8475df280aca00b578c4a948e6d95700f0db8c13365240f7f973c875484610edd83610721565b856040518084815260200183815260200180602001828103825283818151815260200191508051906020019080838360005b83811015610f27578181015183820152602001610f0f565b50505050905090810190601f168015610f545780820380516001836020036101000a031916815260200191505b5094505050505060405180910390a2505050565b81810182811015610f7557fe5b92915050565b600082821115610f8757fe5b509003905600a165627a7a723058209c144a8f520a9d7eafb37dd564819f8aba3deb7dc7b40f38900ac0de5e0934630029",
  "source": "pragma solidity ^0.4.24;\n\nimport \"../ERC900/ERC900BasicStakeContract.sol\";\n\n\n/**\n * @title BasicStakeContractMock\n */\ncontract BasicStakeContractMock is ERC900BasicStakeContract {\n  /**\n   * @dev Constructor function\n   * @param _stakingToken ERC20 The address of the token used for staking\n   * @param _lockInDuration uint256 The duration (in seconds) that stakes are required to be locked for\n   */\n  constructor(\n    ERC20 _stakingToken,\n    uint256 _lockInDuration\n  )\n    public\n    ERC900BasicStakeContract(_stakingToken)\n  {\n    defaultLockInDuration = _lockInDuration;\n  }\n}\n",
  "sourcePath": "/Users/ceruleanhu/code/defi/cdc/swap/our/cro-staking/contracts/mocks/BasicStakeContractMock.sol",
  "compiler": {
    "name": "solc",
    "version": "0.4.25+commit.59dbf8f1.Emscripten.clang"
  },
  "schemaVersion": "3.2.4",
  "updatedAt": "2020-09-03T06:02:18.280Z",
  "networkType": "ethereum",
  "devdoc": {
    "methods": {
      "getPersonalStakeActualAmounts(address)": {
        "details": "Returns the stake actualAmount for active personal stakes for an addressThese accessors functions are needed until https://github.com/ethereum/web3.js/issues/1241 is solved",
        "params": {
          "_address": "address that created the stakes"
        },
        "return": "uint256[] array of actualAmounts"
      },
      "getPersonalStakeForAddresses(address)": {
        "details": "Returns the addresses that each personal stake was created for by an addressThese accessors functions are needed until https://github.com/ethereum/web3.js/issues/1241 is solved",
        "params": {
          "_address": "address that created the stakes"
        },
        "return": "address[] array of amounts"
      },
      "getPersonalStakeUnlockedTimestamps(address)": {
        "details": "Returns the timestamps for when active personal stakes for an address will unlockThese accessors functions are needed until https://github.com/ethereum/web3.js/issues/1241 is solved",
        "params": {
          "_address": "address that created the stakes"
        },
        "return": "uint256[] array of timestamps"
      },
      "getPersonalStakes(address)": {
        "details": "Helper function to get specific properties of all of the personal stakes created by an address",
        "params": {
          "_address": "address The address to query"
        },
        "return": "(uint256[], uint256[], address[]) timestamps array, actualAmounts array, stakedFor array"
      },
      "stake(uint256,bytes)": {
        "params": {
          "_amount": "uint256 the amount of tokens to stake",
          "_data": "bytes optional data to include in the Stake event"
        }
      },
      "stakeFor(address,uint256,bytes)": {
        "params": {
          "_amount": "uint256 the amount of tokens to stake",
          "_data": "bytes optional data to include in the Stake event",
          "_user": "address the address the tokens are staked for"
        }
      },
      "supportsHistory()": {
        "details": "Since we don't implement the optional interface, this always returns false",
        "return": "bool Whether or not the optional history functions are implemented"
      },
      "token()": {
        "return": "address The address of the ERC20 token used for staking"
      },
      "totalStaked()": {
        "return": "uint256 The number of tokens staked in the contract"
      },
      "totalStakedFor(address)": {
        "params": {
          "_address": "address The address to query"
        },
        "return": "uint256 The number of tokens staked for the given address"
      },
      "unstake(uint256,bytes)": {
        "details": "Unstaking tokens is an atomic operationeither all of the tokens in a stake, or none of the tokens.Users can only unstake a single stake at a time, it is must be their oldest active stake. Upon releasing that stake, the tokens will be transferred back to their account, and their personalStakeIndex will increment to the next active stake.",
        "params": {
          "_amount": "uint256 the amount of tokens to unstake",
          "_data": "bytes optional data to include in the Unstake event"
        }
      }
    },
    "title": "BasicStakeContractMock"
  },
  "userdoc": {
    "methods": {
      "stake(uint256,bytes)": {
        "notice": "Stakes a certain amount of tokens, this MUST transfer the given amount from the userMUST trigger Staked event"
      },
      "stakeFor(address,uint256,bytes)": {
        "notice": "Stakes a certain amount of tokens, this MUST transfer the given amount from the callerMUST trigger Staked event"
      },
      "supportsHistory()": {
        "notice": "MUST return true if the optional history functions are implemented, otherwise false"
      },
      "token()": {
        "notice": "Address of the token being used by the staking interface"
      },
      "totalStaked()": {
        "notice": "Returns the current total of tokens staked"
      },
      "totalStakedFor(address)": {
        "notice": "Returns the current total of tokens staked for an address"
      },
      "unstake(uint256,bytes)": {
        "notice": "Unstakes a certain amount of tokens, this SHOULD return the given amount of tokens to the user, if unstaking is currently not possible the function MUST revertMUST trigger Unstaked event"
      }
    }
  }
}