{
  "contractName": "StartfiMarketPlace",
  "abi": [
    {
      "inputs": [
        {
          "internalType": "string",
          "name": "erc721Name_",
          "type": "string"
        },
        {
          "internalType": "address",
          "name": "_erc721Address",
          "type": "address"
        },
        {
          "internalType": "address",
          "name": "_paymentTokenAddress",
          "type": "address"
        }
      ],
      "stateMutability": "nonpayable",
      "type": "constructor"
    },
    {
      "anonymous": false,
      "inputs": [
        {
          "indexed": true,
          "internalType": "address",
          "name": "previousOwner",
          "type": "address"
        },
        {
          "indexed": true,
          "internalType": "address",
          "name": "newOwner",
          "type": "address"
        }
      ],
      "name": "OwnershipTransferred",
      "type": "event"
    },
    {
      "anonymous": false,
      "inputs": [
        {
          "indexed": true,
          "internalType": "uint256",
          "name": "tokenId",
          "type": "uint256"
        },
        {
          "indexed": true,
          "internalType": "address",
          "name": "owner",
          "type": "address"
        },
        {
          "indexed": true,
          "internalType": "address",
          "name": "bidder",
          "type": "address"
        },
        {
          "indexed": false,
          "internalType": "uint256",
          "name": "total",
          "type": "uint256"
        },
        {
          "indexed": false,
          "internalType": "uint256",
          "name": "value",
          "type": "uint256"
        },
        {
          "indexed": false,
          "internalType": "uint256",
          "name": "fees",
          "type": "uint256"
        }
      ],
      "name": "TokenBidAccepted",
      "type": "event"
    },
    {
      "anonymous": false,
      "inputs": [
        {
          "indexed": true,
          "internalType": "uint256",
          "name": "tokenId",
          "type": "uint256"
        },
        {
          "indexed": true,
          "internalType": "address",
          "name": "fromAddress",
          "type": "address"
        },
        {
          "indexed": false,
          "internalType": "uint256",
          "name": "value",
          "type": "uint256"
        }
      ],
      "name": "TokenBidEntered",
      "type": "event"
    },
    {
      "anonymous": false,
      "inputs": [
        {
          "indexed": true,
          "internalType": "uint256",
          "name": "tokenId",
          "type": "uint256"
        },
        {
          "indexed": true,
          "internalType": "address",
          "name": "fromAddress",
          "type": "address"
        },
        {
          "indexed": false,
          "internalType": "uint256",
          "name": "value",
          "type": "uint256"
        }
      ],
      "name": "TokenBidWithdrawn",
      "type": "event"
    },
    {
      "anonymous": false,
      "inputs": [
        {
          "indexed": true,
          "internalType": "uint256",
          "name": "tokenId",
          "type": "uint256"
        },
        {
          "indexed": true,
          "internalType": "address",
          "name": "fromAddress",
          "type": "address"
        },
        {
          "indexed": true,
          "internalType": "address",
          "name": "toAddress",
          "type": "address"
        },
        {
          "indexed": false,
          "internalType": "uint256",
          "name": "total",
          "type": "uint256"
        },
        {
          "indexed": false,
          "internalType": "uint256",
          "name": "value",
          "type": "uint256"
        },
        {
          "indexed": false,
          "internalType": "uint256",
          "name": "fees",
          "type": "uint256"
        }
      ],
      "name": "TokenBought",
      "type": "event"
    },
    {
      "anonymous": false,
      "inputs": [
        {
          "indexed": true,
          "internalType": "uint256",
          "name": "tokenId",
          "type": "uint256"
        },
        {
          "indexed": true,
          "internalType": "address",
          "name": "fromAddress",
          "type": "address"
        }
      ],
      "name": "TokenDelisted",
      "type": "event"
    },
    {
      "anonymous": false,
      "inputs": [
        {
          "indexed": true,
          "internalType": "uint256",
          "name": "tokenId",
          "type": "uint256"
        },
        {
          "indexed": true,
          "internalType": "address",
          "name": "fromAddress",
          "type": "address"
        },
        {
          "indexed": false,
          "internalType": "uint256",
          "name": "minValue",
          "type": "uint256"
        }
      ],
      "name": "TokenListed",
      "type": "event"
    },
    {
      "inputs": [
        {
          "internalType": "address",
          "name": "",
          "type": "address"
        },
        {
          "internalType": "address",
          "name": "",
          "type": "address"
        },
        {
          "internalType": "uint256",
          "name": "",
          "type": "uint256"
        },
        {
          "internalType": "bytes",
          "name": "",
          "type": "bytes"
        }
      ],
      "name": "onERC721Received",
      "outputs": [
        {
          "internalType": "bytes4",
          "name": "",
          "type": "bytes4"
        }
      ],
      "stateMutability": "nonpayable",
      "type": "function"
    },
    {
      "inputs": [],
      "name": "owner",
      "outputs": [
        {
          "internalType": "address",
          "name": "",
          "type": "address"
        }
      ],
      "stateMutability": "view",
      "type": "function",
      "constant": true
    },
    {
      "inputs": [],
      "name": "renounceOwnership",
      "outputs": [],
      "stateMutability": "nonpayable",
      "type": "function"
    },
    {
      "inputs": [
        {
          "internalType": "address",
          "name": "newOwner",
          "type": "address"
        }
      ],
      "name": "transferOwnership",
      "outputs": [],
      "stateMutability": "nonpayable",
      "type": "function"
    },
    {
      "inputs": [],
      "name": "tokenAddress",
      "outputs": [
        {
          "internalType": "address",
          "name": "",
          "type": "address"
        }
      ],
      "stateMutability": "view",
      "type": "function",
      "constant": true
    },
    {
      "inputs": [],
      "name": "paymentTokenAddress",
      "outputs": [
        {
          "internalType": "address",
          "name": "",
          "type": "address"
        }
      ],
      "stateMutability": "view",
      "type": "function",
      "constant": true
    },
    {
      "inputs": [
        {
          "internalType": "uint256",
          "name": "tokenId",
          "type": "uint256"
        }
      ],
      "name": "getTokenListing",
      "outputs": [
        {
          "components": [
            {
              "internalType": "uint256",
              "name": "tokenId",
              "type": "uint256"
            },
            {
              "internalType": "uint256",
              "name": "listingPrice",
              "type": "uint256"
            },
            {
              "internalType": "address",
              "name": "seller",
              "type": "address"
            },
            {
              "internalType": "uint256",
              "name": "expireTimestamp",
              "type": "uint256"
            }
          ],
          "internalType": "struct INFTKEYMarketPlaceV1.Listing",
          "name": "",
          "type": "tuple"
        }
      ],
      "stateMutability": "view",
      "type": "function",
      "constant": true
    },
    {
      "inputs": [
        {
          "internalType": "uint256",
          "name": "from",
          "type": "uint256"
        },
        {
          "internalType": "uint256",
          "name": "size",
          "type": "uint256"
        }
      ],
      "name": "getTokenListings",
      "outputs": [
        {
          "components": [
            {
              "internalType": "uint256",
              "name": "tokenId",
              "type": "uint256"
            },
            {
              "internalType": "uint256",
              "name": "listingPrice",
              "type": "uint256"
            },
            {
              "internalType": "address",
              "name": "seller",
              "type": "address"
            },
            {
              "internalType": "uint256",
              "name": "expireTimestamp",
              "type": "uint256"
            }
          ],
          "internalType": "struct INFTKEYMarketPlaceV1.Listing[]",
          "name": "",
          "type": "tuple[]"
        }
      ],
      "stateMutability": "view",
      "type": "function",
      "constant": true
    },
    {
      "inputs": [],
      "name": "getAllTokenListings",
      "outputs": [
        {
          "components": [
            {
              "internalType": "uint256",
              "name": "tokenId",
              "type": "uint256"
            },
            {
              "internalType": "uint256",
              "name": "listingPrice",
              "type": "uint256"
            },
            {
              "internalType": "address",
              "name": "seller",
              "type": "address"
            },
            {
              "internalType": "uint256",
              "name": "expireTimestamp",
              "type": "uint256"
            }
          ],
          "internalType": "struct INFTKEYMarketPlaceV1.Listing[]",
          "name": "",
          "type": "tuple[]"
        }
      ],
      "stateMutability": "view",
      "type": "function",
      "constant": true
    },
    {
      "inputs": [
        {
          "internalType": "uint256",
          "name": "tokenId",
          "type": "uint256"
        },
        {
          "internalType": "address",
          "name": "bidder",
          "type": "address"
        }
      ],
      "name": "getBidderTokenBid",
      "outputs": [
        {
          "components": [
            {
              "internalType": "uint256",
              "name": "tokenId",
              "type": "uint256"
            },
            {
              "internalType": "uint256",
              "name": "bidPrice",
              "type": "uint256"
            },
            {
              "internalType": "address",
              "name": "bidder",
              "type": "address"
            },
            {
              "internalType": "uint256",
              "name": "expireTimestamp",
              "type": "uint256"
            }
          ],
          "internalType": "struct INFTKEYMarketPlaceV1.Bid",
          "name": "",
          "type": "tuple"
        }
      ],
      "stateMutability": "view",
      "type": "function",
      "constant": true
    },
    {
      "inputs": [
        {
          "internalType": "uint256",
          "name": "tokenId",
          "type": "uint256"
        },
        {
          "internalType": "uint256",
          "name": "value",
          "type": "uint256"
        },
        {
          "internalType": "uint256",
          "name": "expireTimestamp",
          "type": "uint256"
        }
      ],
      "name": "listToken",
      "outputs": [],
      "stateMutability": "nonpayable",
      "type": "function"
    },
    {
      "inputs": [
        {
          "internalType": "uint256",
          "name": "tokenId",
          "type": "uint256"
        }
      ],
      "name": "delistToken",
      "outputs": [],
      "stateMutability": "nonpayable",
      "type": "function"
    },
    {
      "inputs": [
        {
          "internalType": "uint256",
          "name": "tokenId",
          "type": "uint256"
        }
      ],
      "name": "buyToken",
      "outputs": [],
      "stateMutability": "payable",
      "type": "function",
      "payable": true
    },
    {
      "inputs": [
        {
          "internalType": "uint256",
          "name": "tokenId",
          "type": "uint256"
        },
        {
          "internalType": "uint256",
          "name": "bidPrice",
          "type": "uint256"
        },
        {
          "internalType": "uint256",
          "name": "expireTimestamp",
          "type": "uint256"
        }
      ],
      "name": "enterBidForToken",
      "outputs": [],
      "stateMutability": "nonpayable",
      "type": "function"
    },
    {
      "inputs": [
        {
          "internalType": "uint256",
          "name": "tokenId",
          "type": "uint256"
        }
      ],
      "name": "withdrawBidForToken",
      "outputs": [],
      "stateMutability": "nonpayable",
      "type": "function"
    },
    {
      "inputs": [
        {
          "internalType": "uint256",
          "name": "tokenId",
          "type": "uint256"
        },
        {
          "internalType": "address",
          "name": "bidder",
          "type": "address"
        }
      ],
      "name": "acceptBidForToken",
      "outputs": [],
      "stateMutability": "nonpayable",
      "type": "function"
    },
    {
      "inputs": [],
      "name": "getInvalidListingCount",
      "outputs": [
        {
          "internalType": "uint256",
          "name": "",
          "type": "uint256"
        }
      ],
      "stateMutability": "view",
      "type": "function",
      "constant": true
    },
    {
      "inputs": [],
      "name": "erc721Name",
      "outputs": [
        {
          "internalType": "string",
          "name": "",
          "type": "string"
        }
      ],
      "stateMutability": "view",
      "type": "function",
      "constant": true
    },
    {
      "inputs": [],
      "name": "isListingAndBidEnabled",
      "outputs": [
        {
          "internalType": "bool",
          "name": "",
          "type": "bool"
        }
      ],
      "stateMutability": "view",
      "type": "function",
      "constant": true
    },
    {
      "inputs": [
        {
          "internalType": "bool",
          "name": "enabled",
          "type": "bool"
        }
      ],
      "name": "changeMarketplaceStatus",
      "outputs": [],
      "stateMutability": "nonpayable",
      "type": "function"
    },
    {
      "inputs": [],
      "name": "actionTimeOutRangeMin",
      "outputs": [
        {
          "internalType": "uint256",
          "name": "",
          "type": "uint256"
        }
      ],
      "stateMutability": "view",
      "type": "function",
      "constant": true
    },
    {
      "inputs": [],
      "name": "actionTimeOutRangeMax",
      "outputs": [
        {
          "internalType": "uint256",
          "name": "",
          "type": "uint256"
        }
      ],
      "stateMutability": "view",
      "type": "function",
      "constant": true
    },
    {
      "inputs": [
        {
          "internalType": "uint256",
          "name": "timeInSec",
          "type": "uint256"
        }
      ],
      "name": "changeMinActionTimeLimit",
      "outputs": [],
      "stateMutability": "nonpayable",
      "type": "function"
    },
    {
      "inputs": [
        {
          "internalType": "uint256",
          "name": "timeInSec",
          "type": "uint256"
        }
      ],
      "name": "changeMaxActionTimeLimit",
      "outputs": [],
      "stateMutability": "nonpayable",
      "type": "function"
    },
    {
      "inputs": [],
      "name": "serviceFee",
      "outputs": [
        {
          "internalType": "uint8",
          "name": "",
          "type": "uint8"
        },
        {
          "internalType": "uint8",
          "name": "",
          "type": "uint8"
        }
      ],
      "stateMutability": "view",
      "type": "function",
      "constant": true
    },
    {
      "inputs": [
        {
          "internalType": "uint8",
          "name": "feeFraction_",
          "type": "uint8"
        },
        {
          "internalType": "uint8",
          "name": "feeBase_",
          "type": "uint8"
        }
      ],
      "name": "changeSeriveFee",
      "outputs": [],
      "stateMutability": "nonpayable",
      "type": "function"
    }
  ],
  "bytecode": "0x60c060405260038054610100600160ff199092169190911761ff0019161762ff0000191662640000179055620151806004556301e133806005553480156200004657600080fd5b5060405162003c0638038062003c068339810160408190526200006991620001c0565b600062000075620000f9565b600080546001600160a01b0319166001600160a01b0383169081178255604051929350917f8be0079c531659141344cd1fd0a4f28419497f9722a3daafe3b4186f6b6457e0908290a350600180558251620000d8906002906020860190620000fd565b506001600160601b0319606092831b8116608052911b1660a0525062000309565b3390565b8280546200010b90620002b6565b90600052602060002090601f0160209004810192826200012f57600085556200017a565b82601f106200014a57805160ff19168380011785556200017a565b828001600101855582156200017a579182015b828111156200017a5782518255916020019190600101906200015d565b50620001889291506200018c565b5090565b5b808211156200018857600081556001016200018d565b80516001600160a01b0381168114620001bb57600080fd5b919050565b600080600060608486031215620001d5578283fd5b83516001600160401b0380821115620001ec578485fd5b818601915086601f83011262000200578485fd5b815181811115620002155762000215620002f3565b6040516020601f8301601f19168201810184811183821017156200023d576200023d620002f3565b60405282825284830181018a101562000254578788fd5b8793505b8284101562000277578484018101518285018201529283019262000258565b828411156200028857878184840101525b81975062000298818a01620001a3565b96505050505050620002ad60408501620001a3565b90509250925092565b600281046001821680620002cb57607f821691505b60208210811415620002ed57634e487b7160e01b600052602260045260246000fd5b50919050565b634e487b7160e01b600052604160045260246000fd5b60805160601c60a05160601c61387d62000389600039600081816106e0015281816107a701528181610879015281816108c501528181610c00015281816115a601528181611b3f015261238b01526000818161099d01528181610c7a0152818161145d01528181611e970152818161219b01526122a1015261387d6000f3fe6080604052600436106101a15760003560e01c80638da5cb5b116100e1578063b6be53ba1161008a578063e154870211610064578063e15487021461045d578063e724488114610472578063f0e6dcab14610492578063f2fde38b146104b4576101a1565b8063b6be53ba146103fd578063bce64a7d1461041d578063bed659bc1461043d576101a1565b8063a3c0b5f0116100bb578063a3c0b5f0146103b3578063a6a27f3a146103d3578063afb18fe7146103e8576101a1565b80638da5cb5b1461035c57806398792eec1461037e5780639d76ea581461039e576101a1565b80635eef51ee1161014e57806373885b701161012857806373885b70146102ca57806375ccb1f2146102ec57806385f5a92a146103195780638abdf5aa14610339576101a1565b80635eef51ee1461026857806370a3b39014610288578063715018a6146102b5576101a1565b806333549d3d1161017f57806333549d3d14610211578063336c16c614610233578063453dfc5014610253576101a1565b8063150b7a02146101a65780632426fc24146101dc5780632d296bf1146101fe575b600080fd5b3480156101b257600080fd5b506101c66101c13660046129bb565b6104d4565b6040516101d39190612ce8565b60405180910390f35b3480156101e857600080fd5b506101fc6101f7366004612ae1565b6104fd565b005b6101fc61020c366004612ae1565b61057e565b34801561021d57600080fd5b50610226610a24565b6040516101d391906135b4565b34801561023f57600080fd5b506101fc61024e366004612b11565b610a2a565b34801561025f57600080fd5b50610226610d77565b34801561027457600080fd5b506101fc610283366004612b8c565b610d7d565b34801561029457600080fd5b506102a86102a3366004612b11565b610ef8565b6040516101d391906135a6565b3480156102c157600080fd5b506101fc610f7e565b3480156102d657600080fd5b506102df611060565b6040516101d39190612d15565b3480156102f857600080fd5b5061030c610307366004612b40565b6110f2565b6040516101d39190612c8f565b34801561032557600080fd5b506101fc610334366004612ae1565b6112b0565b34801561034557600080fd5b5061034e6113ac565b6040516101d39291906135d3565b34801561036857600080fd5b506103716113c4565b6040516101d39190612c16565b34801561038a57600080fd5b506102a8610399366004612ae1565b6113e0565b3480156103aa57600080fd5b5061037161145b565b3480156103bf57600080fd5b506101fc6103ce366004612ae1565b61147f565b3480156103df57600080fd5b506102266114f7565b3480156103f457600080fd5b506103716115a4565b34801561040957600080fd5b506101fc610418366004612aa9565b6115c8565b34801561042957600080fd5b506101fc610438366004612b61565b61166c565b34801561044957600080fd5b506101fc610458366004612ae1565b6118e7565b34801561046957600080fd5b5061030c6119a7565b34801561047e57600080fd5b506101fc61048d366004612b61565b6119bd565b34801561049e57600080fd5b506104a7611cfd565b6040516101d39190612cdd565b3480156104c057600080fd5b506101fc6104cf366004612983565b611d06565b7f150b7a0200000000000000000000000000000000000000000000000000000000949350505050565b610505611e53565b73ffffffffffffffffffffffffffffffffffffffff166105236113c4565b73ffffffffffffffffffffffffffffffffffffffff1614610579576040517f08c379a00000000000000000000000000000000000000000000000000000000081526004016105709061320a565b60405180910390fd5b600455565b600260015414156105bb576040517f08c379a000000000000000000000000000000000000000000000000000000000815260040161057090613421565b600260015560006105cb826113e0565b604081015190915073ffffffffffffffffffffffffffffffffffffffff1661061f576040517f08c379a0000000000000000000000000000000000000000000000000000000008152600401610570906131d3565b6106298233611e57565b15610660576040517f08c379a000000000000000000000000000000000000000000000000000000000815260040161057090612e7d565b60035460208201516000916106919160ff62010000830481169261068b929161010090910416611f75565b90611f88565b60208301519091506106a39082611f94565b6040517fdd62ed3e00000000000000000000000000000000000000000000000000000000815273ffffffffffffffffffffffffffffffffffffffff7f0000000000000000000000000000000000000000000000000000000000000000169063dd62ed3e906107179033903090600401612c37565b60206040518083038186803b15801561072f57600080fd5b505afa158015610743573d6000803e3d6000fd5b505050506040513d601f19601f820116820180604052508101906107679190612af9565b101561079f576040517f08c379a000000000000000000000000000000000000000000000000000000000815260040161057090612f48565b6000610856827f000000000000000000000000000000000000000000000000000000000000000073ffffffffffffffffffffffffffffffffffffffff1663dd62ed3e33306040518363ffffffff1660e01b8152600401610800929190612c37565b60206040518083038186803b15801561081857600080fd5b505afa15801561082c573d6000803e3d6000fd5b505050506040513d601f19601f820116820180604052508101906108509190612af9565b90611fa0565b60408401519091506108a29073ffffffffffffffffffffffffffffffffffffffff7f00000000000000000000000000000000000000000000000000000000000000001690339084611fac565b6108ed336108ae6113c4565b73ffffffffffffffffffffffffffffffffffffffff7f000000000000000000000000000000000000000000000000000000000000000016919085611fac565b3373ffffffffffffffffffffffffffffffffffffffff16836040015173ffffffffffffffffffffffffffffffffffffffff16857f1d83c44501b48d5dc85fea9b94506cda160418d62c65b481199bdbec265df157348587604051610953939291906135bd565b60405180910390a460408084015190517f42842e0e00000000000000000000000000000000000000000000000000000000815273ffffffffffffffffffffffffffffffffffffffff7f000000000000000000000000000000000000000000000000000000000000000016916342842e0e916109d5919033908990600401612c5e565b600060405180830381600087803b1580156109ef57600080fd5b505af1158015610a03573d6000803e3d6000fd5b50505050610a1084612055565b610a1a84336120b6565b5050600180555050565b60045490565b60026001541415610a67576040517f08c379a000000000000000000000000000000000000000000000000000000000815260040161057090613421565b6002600155610a768233611e57565b610aac576040517f08c379a0000000000000000000000000000000000000000000000000000000008152600401610570906134ec565b610ab58261215b565b80610ac45750610ac433612261565b610afa576040517f08c379a000000000000000000000000000000000000000000000000000000000815260040161057090612d66565b6000610b068383610ef8565b905060008160200151118015610b4b57508173ffffffffffffffffffffffffffffffffffffffff16816040015173ffffffffffffffffffffffffffffffffffffffff16145b610b81576040517f08c379a00000000000000000000000000000000000000000000000000000000081526004016105709061329c565b600354600090610bc290610ba59060ff6101008204811691620100009004166135ff565b600354602085015160ff9283169261068b92610100900416611f75565b90506000610bdd828460200151611fa090919063ffffffff16565b6040840151909150610c289073ffffffffffffffffffffffffffffffffffffffff7f000000000000000000000000000000000000000000000000000000000000000016903384611fac565b610c3883604001516108ae6113c4565b60408084015190517f42842e0e00000000000000000000000000000000000000000000000000000000815273ffffffffffffffffffffffffffffffffffffffff7f000000000000000000000000000000000000000000000000000000000000000016916342842e0e91610cb19133918a90600401612c5e565b600060405180830381600087803b158015610ccb57600080fd5b505af1158015610cdf573d6000803e3d6000fd5b50505050826040015173ffffffffffffffffffffffffffffffffffffffff163373ffffffffffffffffffffffffffffffffffffffff16867f2c907f0c6ace0ad59e44f69f6873314bb2b85cca7eeffb05ca93fa65326bfbb486602001518587604051610d4d939291906135bd565b60405180910390a4610d5e85612055565b610d6c8584604001516120b6565b505060018055505050565b60055490565b610d85611e53565b73ffffffffffffffffffffffffffffffffffffffff16610da36113c4565b73ffffffffffffffffffffffffffffffffffffffff1614610df0576040517f08c379a00000000000000000000000000000000000000000000000000000000081526004016105709061320a565b8060ff168260ff161115610e30576040517f08c379a00000000000000000000000000000000000000000000000000000000081526004016105709061338d565b60008160ff168360ff166103e8610e479190613659565b610e519190613624565b61ffff1690506019811115610e92576040517f08c379a0000000000000000000000000000000000000000000000000000000008152600401610570906130bc565b506003805460ff92831662010000027fffffffffffffffffffffffffffffffffffffffffffffffffffffffffff00ffff94909316610100027fffffffffffffffffffffffffffffffffffffffffffffffffffffffffffff00ff9091161792909216179055565b610f00612934565b600083815260096020908152604080832073ffffffffffffffffffffffffffffffffffffffff8087168552908352928190208151608081018352815481526001820154938101939093526002810154909316908201526003909101546060820152610f6a81612328565b15610f76579050610f78565b505b92915050565b610f86611e53565b73ffffffffffffffffffffffffffffffffffffffff16610fa46113c4565b73ffffffffffffffffffffffffffffffffffffffff1614610ff1576040517f08c379a00000000000000000000000000000000000000000000000000000000081526004016105709061320a565b6000805460405173ffffffffffffffffffffffffffffffffffffffff909116907f8be0079c531659141344cd1fd0a4f28419497f9722a3daafe3b4186f6b6457e0908390a3600080547fffffffffffffffffffffffff0000000000000000000000000000000000000000169055565b60606002805461106f90613703565b80601f016020809104026020016040519081016040528092919081815260200182805461109b90613703565b80156110e85780601f106110bd576101008083540402835291602001916110e8565b820191906000526020600020905b8154815290600101906020018083116110cb57829003601f168201915b5050505050905090565b60606110fe6007612440565b8310801561110c5750600082115b15610f78578161111c6007612440565b61112684866135e7565b111561114457836111376007612440565b61114191906136c0565b90505b60008167ffffffffffffffff811115611186577f4e487b7100000000000000000000000000000000000000000000000000000000600052604160045260246000fd5b6040519080825280602002602001820160405280156111bf57816020015b6111ac612934565b8152602001906001900390816111a45790505b50905060005b828110156112a65760006006816111e76111df8a866135e7565b60079061244b565b81526020808201929092526040908101600020815160808101835281548152600182015493810193909352600281015473ffffffffffffffffffffffffffffffffffffffff1691830191909152600301546060820152905061124881612457565b156112935780838381518110611287577f4e487b7100000000000000000000000000000000000000000000000000000000600052603260045260246000fd5b60200260200101819052505b508061129e81613751565b9150506111c5565b509150610f789050565b60008181526009602090815260408083203380855290835292819020815160808101835281548152600182015493810193909352600281015473ffffffffffffffffffffffffffffffffffffffff16918301829052600301546060830152909114611347576040517f08c379a0000000000000000000000000000000000000000000000000000000008152600401610570906132f9565b806040015173ffffffffffffffffffffffffffffffffffffffff16827f4afa471ce7ab7fa67258e3afb1adf7e899e0495602eeb26d90d41e1b64dea5a6836020015160405161139691906135b4565b60405180910390a36113a882336120b6565b5050565b60035460ff6101008204811691620100009004169091565b60005473ffffffffffffffffffffffffffffffffffffffff1690565b6113e8612934565b600082815260066020908152604091829020825160808101845281548152600182015492810192909252600281015473ffffffffffffffffffffffffffffffffffffffff1692820192909252600390910154606082015261144881612457565b15611454579050611456565b505b919050565b7f000000000000000000000000000000000000000000000000000000000000000090565b611487611e53565b73ffffffffffffffffffffffffffffffffffffffff166114a56113c4565b73ffffffffffffffffffffffffffffffffffffffff16146114f2576040517f08c379a00000000000000000000000000000000000000000000000000000000081526004016105709061320a565b600555565b600080805b6115066007612440565b81101561159e5761157a6006600061151f60078561244b565b81526020808201929092526040908101600020815160808101835281548152600182015493810193909352600281015473ffffffffffffffffffffffffffffffffffffffff1691830191909152600301546060820152612457565b61158c57611589826001611f94565b91505b8061159681613751565b9150506114fc565b50905090565b7f000000000000000000000000000000000000000000000000000000000000000090565b6115d0611e53565b73ffffffffffffffffffffffffffffffffffffffff166115ee6113c4565b73ffffffffffffffffffffffffffffffffffffffff161461163b576040517f08c379a00000000000000000000000000000000000000000000000000000000081526004016105709061320a565b600380547fffffffffffffffffffffffffffffffffffffffffffffffffffffffffffffff0016911515919091179055565b60035460ff166116a8576040517f08c379a000000000000000000000000000000000000000000000000000000000815260040161057090612eda565b60045481906116b78242611fa0565b10156116ef576040517f08c379a000000000000000000000000000000000000000000000000000000000815260040161057090613549565b6005546116fc8242611fa0565b1115611734576040517f08c379a000000000000000000000000000000000000000000000000000000000815260040161057090613002565b6000831161176e576040517f08c379a000000000000000000000000000000000000000000000000000000000815260040161057090613119565b6117788433611e57565b6117ae576040517f08c379a0000000000000000000000000000000000000000000000000000000008152600401610570906134b5565b6117b78461215b565b806117c657506117c633612261565b6117fc576040517f08c379a00000000000000000000000000000000000000000000000000000000081526004016105709061323f565b604080516080810182528581526020808201868152338385019081526060840187815260008a815260069094529490922092518355516001830155516002820180547fffffffffffffffffffffffff00000000000000000000000000000000000000001673ffffffffffffffffffffffffffffffffffffffff9092169190911790559051600390910155611891600785612490565b503373ffffffffffffffffffffffffffffffffffffffff16847f7765a1c07bdce3390c521eaeb86030b188b77cbaba2d76bd7c9c32d906bfbcba856040516118d991906135b4565b60405180910390a350505050565b60008181526006602052604090206002015473ffffffffffffffffffffffffffffffffffffffff163314611947576040517f08c379a000000000000000000000000000000000000000000000000000000000815260040161057090613458565b60008181526006602052604080822060020154905173ffffffffffffffffffffffffffffffffffffffff9091169183917f70a382c18b6e794d86997f6e1f1efca577925cfa85c476a6ff7031f0a3dd6ed09190a36119a481612055565b50565b60606119b860006103076007612440565b905090565b60035460ff166119f9576040517f08c379a000000000000000000000000000000000000000000000000000000000815260040161057090612eda565b6004548190611a088242611fa0565b1015611a40576040517f08c379a000000000000000000000000000000000000000000000000000000000815260040161057090613549565b600554611a4d8242611fa0565b1115611a85576040517f08c379a000000000000000000000000000000000000000000000000000000000815260040161057090613002565b60008311611abf576040517f08c379a000000000000000000000000000000000000000000000000000000000815260040161057090612f11565b611ac98433611e57565b15611b00576040517f08c379a00000000000000000000000000000000000000000000000000000000081526004016105709061305f565b6040517fdd62ed3e000000000000000000000000000000000000000000000000000000008152839073ffffffffffffffffffffffffffffffffffffffff7f0000000000000000000000000000000000000000000000000000000000000000169063dd62ed3e90611b769033903090600401612c37565b60206040518083038186803b158015611b8e57600080fd5b505afa158015611ba2573d6000803e3d6000fd5b505050506040513d601f19601f82011682018060405250810190611bc69190612af9565b1015611bfe576040517f08c379a000000000000000000000000000000000000000000000000000000000815260040161057090613176565b6040805160808101825285815260208101859052339181019190915260608101839052611c2c600a8661249c565b611c3d57611c3b600a86612490565b505b6000858152600960209081526040808320338085529083529281902084518155918401516001830155838101516002830180547fffffffffffffffffffffffff00000000000000000000000000000000000000001673ffffffffffffffffffffffffffffffffffffffff90921691909117905560608401516003909201919091555186907f0ea16c10401e9d7c547471845914c4a904af6a01b9fa1e195eeecae9f78bcca190611cee9088906135b4565b60405180910390a35050505050565b60035460ff1690565b611d0e611e53565b73ffffffffffffffffffffffffffffffffffffffff16611d2c6113c4565b73ffffffffffffffffffffffffffffffffffffffff1614611d79576040517f08c379a00000000000000000000000000000000000000000000000000000000081526004016105709061320a565b73ffffffffffffffffffffffffffffffffffffffff8116611dc6576040517f08c379a000000000000000000000000000000000000000000000000000000000815260040161057090612e20565b6000805460405173ffffffffffffffffffffffffffffffffffffffff808516939216917f8be0079c531659141344cd1fd0a4f28419497f9722a3daafe3b4186f6b6457e091a3600080547fffffffffffffffffffffffff00000000000000000000000000000000000000001673ffffffffffffffffffffffffffffffffffffffff92909216919091179055565b3390565b6040517f6352211e00000000000000000000000000000000000000000000000000000000815260009073ffffffffffffffffffffffffffffffffffffffff7f00000000000000000000000000000000000000000000000000000000000000001690636352211e90611ecc9086906004016135b4565b60206040518083038186803b158015611ee457600080fd5b505afa925050508015611f32575060408051601f3d9081017fffffffffffffffffffffffffffffffffffffffffffffffffffffffffffffffe0168201909252611f2f9181019061299f565b60015b611f3e57506000610f78565b8273ffffffffffffffffffffffffffffffffffffffff168173ffffffffffffffffffffffffffffffffffffffff1614915050610f78565b6000611f818284613683565b9392505050565b6000611f818284613645565b6000611f8182846135e7565b6000611f8182846136c0565b61204f846323b872dd60e01b858585604051602401611fcd93929190612c5e565b604080517fffffffffffffffffffffffffffffffffffffffffffffffffffffffffffffffe08184030181529190526020810180517bffffffffffffffffffffffffffffffffffffffffffffffffffffffff167fffffffff00000000000000000000000000000000000000000000000000000000909316929092179091526124a8565b50505050565b61206060078261249c565b156119a4576000818152600660205260408120818155600181018290556002810180547fffffffffffffffffffffffff0000000000000000000000000000000000000000169055600301556113a8600782612563565b600082815260096020908152604080832073ffffffffffffffffffffffffffffffffffffffff858116855292529091206002015416156113a857600082815260096020908152604080832073ffffffffffffffffffffffffffffffffffffffff851684529091528120818155600181018290556002810180547fffffffffffffffffffffffff0000000000000000000000000000000000000000169055600301555050565b6040517f081812fc00000000000000000000000000000000000000000000000000000000815260009073ffffffffffffffffffffffffffffffffffffffff7f0000000000000000000000000000000000000000000000000000000000000000169063081812fc906121d09085906004016135b4565b60206040518083038186803b1580156121e857600080fd5b505afa925050508015612236575060408051601f3d9081017fffffffffffffffffffffffffffffffffffffffffffffffffffffffffffffffe01682019092526122339181019061299f565b60015b61224257506000611456565b73ffffffffffffffffffffffffffffffffffffffff1630149050611456565b6040517fe985e9c500000000000000000000000000000000000000000000000000000000815260009073ffffffffffffffffffffffffffffffffffffffff7f0000000000000000000000000000000000000000000000000000000000000000169063e985e9c5906122d89085903090600401612c37565b60206040518083038186803b1580156122f057600080fd5b505afa158015612304573d6000803e3d6000fd5b505050506040513d601f19601f82011682018060405250810190610f789190612ac5565b600061233c82600001518360400151611e57565b1580156124145750602082015160408084015190517fdd62ed3e00000000000000000000000000000000000000000000000000000000815273ffffffffffffffffffffffffffffffffffffffff7f0000000000000000000000000000000000000000000000000000000000000000169163dd62ed3e916123c191903090600401612c37565b60206040518083038186803b1580156123d957600080fd5b505afa1580156123ed573d6000803e3d6000fd5b505050506040513d601f19601f820116820180604052508101906124119190612af9565b10155b8015612424575060008260200151115b80156124335750428260600151115b1561145657506001611456565b6000610f788261256f565b6000611f818383612573565b600061246b82600001518360400151611e57565b80156124145750815161247d9061215b565b8061241457506124148260400151612261565b6000611f8183836125ff565b6000611f818383612649565b600061250a826040518060400160405280602081526020017f5361666545524332303a206c6f772d6c6576656c2063616c6c206661696c65648152508573ffffffffffffffffffffffffffffffffffffffff166126619092919063ffffffff16565b80519091501561255e57808060200190518101906125289190612ac5565b61255e576040517f08c379a0000000000000000000000000000000000000000000000000000000008152600401610570906133c4565b505050565b6000611f818383612678565b5490565b815460009082106125b0576040517f08c379a000000000000000000000000000000000000000000000000000000000815260040161057090612dc3565b8260000182815481106125ec577f4e487b7100000000000000000000000000000000000000000000000000000000600052603260045260246000fd5b9060005260206000200154905092915050565b600061260b8383612649565b61264157508154600181810184556000848152602080822090930184905584548482528286019093526040902091909155610f78565b506000610f78565b60009081526001919091016020526040902054151590565b606061267084846000856127da565b949350505050565b600081815260018301602052604081205480156127d057600061269c6001836136c0565b85549091506000906126b0906001906136c0565b905060008660000182815481106126f0577f4e487b7100000000000000000000000000000000000000000000000000000000600052603260045260246000fd5b906000526020600020015490508087600001848154811061273a577f4e487b7100000000000000000000000000000000000000000000000000000000600052603260045260246000fd5b600091825260208083209091019290925582815260018901909152604090208490558654879080612794577f4e487b7100000000000000000000000000000000000000000000000000000000600052603160045260246000fd5b60019003818190600052602060002001600090559055866001016000878152602001908152602001600020600090556001945050505050610f78565b6000915050610f78565b606082471015612816576040517f08c379a000000000000000000000000000000000000000000000000000000000815260040161057090612fa5565b61281f856128db565b612855576040517f08c379a000000000000000000000000000000000000000000000000000000000815260040161057090613356565b6000808673ffffffffffffffffffffffffffffffffffffffff16858760405161287e9190612bfa565b60006040518083038185875af1925050503d80600081146128bb576040519150601f19603f3d011682016040523d82523d6000602084013e6128c0565b606091505b50915091506128d08282866128e1565b979650505050505050565b3b151590565b606083156128f0575081611f81565b8251156129005782518084602001fd5b816040517f08c379a00000000000000000000000000000000000000000000000000000000081526004016105709190612d15565b60405180608001604052806000815260200160008152602001600073ffffffffffffffffffffffffffffffffffffffff168152602001600081525090565b803560ff8116811461145657600080fd5b600060208284031215612994578081fd5b8135611f8181613817565b6000602082840312156129b0578081fd5b8151611f8181613817565b600080600080608085870312156129d0578283fd5b84356129db81613817565b93506020858101356129ec81613817565b935060408601359250606086013567ffffffffffffffff80821115612a0f578384fd5b818801915088601f830112612a22578384fd5b813581811115612a3457612a346137e8565b604051847fffffffffffffffffffffffffffffffffffffffffffffffffffffffffffffffe0601f8401168201018181108482111715612a7557612a756137e8565b60405281815283820185018b1015612a8b578586fd5b81858501868301379081019093019390935250939692955090935050565b600060208284031215612aba578081fd5b8135611f8181613839565b600060208284031215612ad6578081fd5b8151611f8181613839565b600060208284031215612af2578081fd5b5035919050565b600060208284031215612b0a578081fd5b5051919050565b60008060408385031215612b23578182fd5b823591506020830135612b3581613817565b809150509250929050565b60008060408385031215612b52578182fd5b50508035926020909101359150565b600080600060608486031215612b75578283fd5b505081359360208301359350604090920135919050565b60008060408385031215612b9e578182fd5b612ba783612972565b9150612bb560208401612972565b90509250929050565b805182526020810151602083015273ffffffffffffffffffffffffffffffffffffffff6040820151166040830152606081015160608301525050565b60008251612c0c8184602087016136d7565b9190910192915050565b73ffffffffffffffffffffffffffffffffffffffff91909116815260200190565b73ffffffffffffffffffffffffffffffffffffffff92831681529116602082015260400190565b73ffffffffffffffffffffffffffffffffffffffff9384168152919092166020820152604081019190915260600190565b6020808252825182820181905260009190848201906040850190845b81811015612cd157612cbe838551612bbe565b9284019260809290920191600101612cab565b50909695505050505050565b901515815260200190565b7fffffffff0000000000000000000000000000000000000000000000000000000091909116815260200190565b6000602082528251806020840152612d348160408501602087016136d7565b601f017fffffffffffffffffffffffffffffffffffffffffffffffffffffffffffffffe0169190910160400192915050565b60208082526035908201527f54686520746f6b656e206973206e6f7420617070726f76656420746f2074726160408201527f6e736665722062792074686520636f6e74726163740000000000000000000000606082015260800190565b60208082526022908201527f456e756d657261626c655365743a20696e646578206f7574206f6620626f756e60408201527f6473000000000000000000000000000000000000000000000000000000000000606082015260800190565b60208082526026908201527f4f776e61626c653a206e6577206f776e657220697320746865207a65726f206160408201527f6464726573730000000000000000000000000000000000000000000000000000606082015260800190565b60208082526025908201527f546f6b656e206f776e65722063616e277420627579207468656972206f776e2060408201527f746f6b656e000000000000000000000000000000000000000000000000000000606082015260800190565b6020808252601f908201527f4c697374696e6720616e642062696420617265206e6f7420656e61626c656400604082015260600190565b6020808252601a908201527f506c656173652062696420666f72206d6f7265207468616e2030000000000000604082015260600190565b6020808252602c908201527f5468652076616c75652073656e642069732062656c6f772073616c652070726960408201527f636520706c757320666565730000000000000000000000000000000000000000606082015260800190565b60208082526026908201527f416464726573733a20696e73756666696369656e742062616c616e636520666f60408201527f722063616c6c0000000000000000000000000000000000000000000000000000606082015260800190565b60208082526025908201527f506c6561736520656e74657220612073686f7274657220706572696f64206f6660408201527f2074696d65000000000000000000000000000000000000000000000000000000606082015260800190565b60208082526022908201527f5468697320546f6b656e2062656c6f6e677320746f207468697320616464726560408201527f7373000000000000000000000000000000000000000000000000000000000000606082015260800190565b6020808252602b908201527f417474656d707420746f207365742070657263656e746167652068696768657260408201527f207468616e20322e35252e000000000000000000000000000000000000000000606082015260800190565b60208082526038908201527f506c65617365206c69737420666f72206d6f7265207468616e2030206f72207560408201527f736520746865207472616e736665722066756e6374696f6e0000000000000000606082015260800190565b60208082526036908201527f4e65656420746f206861766520656e6f75676820746f6b656e20686f6c64696e60408201527f6720746f20626964206f6e207468697320746f6b656e00000000000000000000606082015260800190565b60208082526015908201527f546f6b656e206973206e6f7420666f722073616c650000000000000000000000604082015260600190565b6020808252818101527f4f776e61626c653a2063616c6c6572206973206e6f7420746865206f776e6572604082015260600190565b60208082526036908201527f5468697320746f6b656e206973206e6f7420616c6c6f77656420746f2074726160408201527f6e73666572206279207468697320636f6e747261637400000000000000000000606082015260800190565b60208082526026908201527f5468697320746f6b656e20646f65736e277420686176652061206d617463686960408201527f6e67206269640000000000000000000000000000000000000000000000000000606082015260800190565b6020808252602b908201527f54686973206164647265737320646f65736e2774206861766520626964206f6e60408201527f207468697320746f6b656e000000000000000000000000000000000000000000606082015260800190565b6020808252601d908201527f416464726573733a2063616c6c20746f206e6f6e2d636f6e7472616374000000604082015260600190565b6020808252601b908201527f466565206672616374696f6e20657863656564656420626173652e0000000000604082015260600190565b6020808252602a908201527f5361666545524332303a204552433230206f7065726174696f6e20646964206e60408201527f6f74207375636365656400000000000000000000000000000000000000000000606082015260800190565b6020808252601f908201527f5265656e7472616e637947756172643a207265656e7472616e742063616c6c00604082015260600190565b60208082526022908201527f4f6e6c7920746f6b656e2073656c6c65722063616e2064656c69737420746f6b60408201527f656e000000000000000000000000000000000000000000000000000000000000606082015260800190565b6020808252601f908201527f4f6e6c7920746f6b656e206f776e65722063616e206c69737420746f6b656e00604082015260600190565b60208082526028908201527f4f6e6c7920746f6b656e206f776e65722063616e20616363657074206269642060408201527f6f6620746f6b656e000000000000000000000000000000000000000000000000606082015260800190565b60208082526024908201527f506c6561736520656e7465722061206c6f6e67657220706572696f64206f662060408201527f74696d6500000000000000000000000000000000000000000000000000000000606082015260800190565b60808101610f788284612bbe565b90815260200190565b9283526020830191909152604082015260600190565b60ff92831681529116602082015260400190565b600082198211156135fa576135fa61378a565b500190565b600060ff821660ff84168060ff0382111561361c5761361c61378a565b019392505050565b600061ffff80841680613639576136396137b9565b92169190910492915050565b600082613654576136546137b9565b500490565b600061ffff8083168185168183048111821515161561367a5761367a61378a565b02949350505050565b6000817fffffffffffffffffffffffffffffffffffffffffffffffffffffffffffffffff04831182151516156136bb576136bb61378a565b500290565b6000828210156136d2576136d261378a565b500390565b60005b838110156136f25781810151838201526020016136da565b8381111561204f5750506000910152565b60028104600182168061371757607f821691505b60208210811415611454577f4e487b7100000000000000000000000000000000000000000000000000000000600052602260045260246000fd5b60007fffffffffffffffffffffffffffffffffffffffffffffffffffffffffffffffff8214156137835761378361378a565b5060010190565b7f4e487b7100000000000000000000000000000000000000000000000000000000600052601160045260246000fd5b7f4e487b7100000000000000000000000000000000000000000000000000000000600052601260045260246000fd5b7f4e487b7100000000000000000000000000000000000000000000000000000000600052604160045260246000fd5b73ffffffffffffffffffffffffffffffffffffffff811681146119a457600080fd5b80151581146119a457600080fdfea264697066735822122053b8ae2c38d016097127360860c95f536f47ebe9dd4a486963bc17b14aaeb79164736f6c63430008000033",
  "immutableReferences": {
    "103": [
      {
        "length": 32,
        "start": 2461
      },
      {
        "length": 32,
        "start": 3194
      },
      {
        "length": 32,
        "start": 5213
      },
      {
        "length": 32,
        "start": 7831
      },
      {
        "length": 32,
        "start": 8603
      },
      {
        "length": 32,
        "start": 8865
      }
    ],
    "106": [
      {
        "length": 32,
        "start": 1760
      },
      {
        "length": 32,
        "start": 1959
      },
      {
        "length": 32,
        "start": 2169
      },
      {
        "length": 32,
        "start": 2245
      },
      {
        "length": 32,
        "start": 3072
      },
      {
        "length": 32,
        "start": 5542
      },
      {
        "length": 32,
        "start": 6975
      },
      {
        "length": 32,
        "start": 9099
      }
    ]
  },
  "source": "// SPDX-License-Identifier: AGPL-3.0-or-later\n\npragma solidity >=0.8.0;\npragma abicoder v2;\n\nimport \"@openzeppelin/contracts/access/Ownable.sol\";\nimport \"@openzeppelin/contracts/utils/math/SafeMath.sol\";\nimport \"@openzeppelin/contracts/utils/Address.sol\";\nimport \"@openzeppelin/contracts/utils/structs/EnumerableSet.sol\";\nimport \"@openzeppelin/contracts/security/ReentrancyGuard.sol\";\nimport \"@openzeppelin/contracts/token/ERC721/IERC721.sol\";\nimport \"@openzeppelin/contracts/token/ERC20/utils/SafeERC20.sol\";\nimport \"@openzeppelin/contracts/token/ERC20/IERC20.sol\";\nimport \"@openzeppelin/contracts/token/ERC721/utils/ERC721Holder.sol\";\nimport \"./interface/INFTKEYMarketPlaceV1.sol\";\n\n/**\n * @title NFTKEY MarketPlace contract V1\n * Note: This marketplace contract is collection based. It serves one ERC721 contract only\n * Payment tokens usually is the chain native coin's wrapped token, e.g. WETH, WBNB\n */\ncontract StartfiMarketPlace is INFTKEYMarketPlaceV1, Ownable, ReentrancyGuard,ERC721Holder {\n    using SafeMath for uint256;\n    using Address for address;\n     using SafeERC20 for IERC20;\n    using EnumerableSet for EnumerableSet.UintSet;\n    using EnumerableSet for EnumerableSet.AddressSet;\n\n\n    constructor(\n        string memory erc721Name_,\n        address _erc721Address,\n        address _paymentTokenAddress\n    ) public {\n        _erc721Name = erc721Name_;\n        _erc721 = IERC721(_erc721Address);\n        _paymentToken = IERC20(_paymentTokenAddress);\n    }\n\n    string private _erc721Name;\n    IERC721 private immutable _erc721;\n    IERC20 private immutable _paymentToken;\n\n    bool private _isListingAndBidEnabled = true;\n    uint8 private _feeFraction = 1;\n    uint8 private _feeBase = 100;\n    uint256 private _actionTimeOutRangeMin = 86400; // 24 hours\n    uint256 private _actionTimeOutRangeMax = 31536000; // One year - This can extend by owner is contract is working smoothly\n\n    mapping(uint256 => Listing) private _tokenListings;\n    EnumerableSet.UintSet private _tokenIdWithListing;\n\n    mapping(uint256 => mapping(address=>Bid)) private _tokenBids;\n    EnumerableSet.UintSet private _tokenIdWithBid;\n//\n    EnumerableSet.AddressSet private _emptyBidders; // Help initiate TokenBid struct\n\n\n    /**\n     * @dev only if listing and bid is enabled\n     * This is to help contract migration in case of upgrade or bug\n     */\n    modifier onlyMarketplaceOpen() {\n        require(_isListingAndBidEnabled, \"Listing and bid are not enabled\");\n        _;\n    }\n\n    /**\n     * @dev only if the entered timestamp is within the allowed range\n     * This helps to not list or bid for too short or too long period of time\n     */\n    modifier onlyAllowedExpireTimestamp(uint256 expireTimestamp) {\n        require(\n            expireTimestamp.sub(block.timestamp) >= _actionTimeOutRangeMin,\n            \"Please enter a longer period of time\"\n        );\n        require(\n            expireTimestamp.sub(block.timestamp) <= _actionTimeOutRangeMax,\n            \"Please enter a shorter period of time\"\n        );\n        _;\n    }\n\n    /**\n     * @dev check if the account is the owner of this erc721 token\n     */\n    function _isTokenOwner(uint256 tokenId, address account) private view returns (bool) {\n        try _erc721.ownerOf(tokenId) returns (address tokenOwner) {\n            return tokenOwner == account;\n        } catch {\n            return false;\n        }\n    }\n\n    /**\n     * @dev check if this contract has approved to transfer this erc721 token\n     */\n    function _isTokenApproved(uint256 tokenId) private view returns (bool) {\n        try _erc721.getApproved(tokenId) returns (address tokenOperator) {\n            return tokenOperator == address(this);\n        } catch {\n            return false;\n        }\n    }\n\n    /**\n     * @dev check if this contract has approved to all of this owner's erc721 tokens\n     */\n    function _isAllTokenApproved(address owner) private view returns (bool) {\n        return _erc721.isApprovedForAll(owner, address(this));\n    }\n\n    /**\n     * @dev See {INFTKEYMarketPlaceV1-tokenAddress}.\n     */\n    function tokenAddress() external view override returns (address) {\n        return address(_erc721);\n    }\n\n    /**\n     * @dev See {INFTKEYMarketPlaceV1-paymentTokenAddress}.\n     */\n    function paymentTokenAddress() external view override returns (address) {\n        return address(_paymentToken);\n    }\n\n    /**\n     * @dev Check if a listing is valid or not\n     * The seller must be the owner\n     * The seller must have give this contract allowance\n     * The sell price must be more than 0\n     * The listing mustn't be expired\n     */\n    function _isListingValid(Listing memory listing) private view returns (bool) {\n        if (\n            _isTokenOwner(listing.tokenId, listing.seller) &&\n            (_isTokenApproved(listing.tokenId) || _isAllTokenApproved(listing.seller)) &&\n            listing.listingPrice > 0 &&\n            listing.expireTimestamp > block.timestamp\n        ) {\n            return true;\n        }\n    }\n\n    /**\n     * @dev See {INFTKEYMarketPlaceV1-getTokenListing}.\n     */\n    function getTokenListing(uint256 tokenId) public view override returns (Listing memory) {\n        Listing memory listing = _tokenListings[tokenId];\n        if (_isListingValid(listing)) {\n            return listing;\n        }\n    }\n\n    /**\n     * @dev See {INFTKEYMarketPlaceV1-getTokenListings}.\n     */\n    function getTokenListings(uint256 from, uint256 size)\n        public\n        view\n        override\n        returns (Listing[] memory)\n    {\n        if (from < _tokenIdWithListing.length() && size > 0) {\n            uint256 querySize = size;\n            if ((from + size) > _tokenIdWithListing.length()) {\n                querySize = _tokenIdWithListing.length() - from;\n            }\n            Listing[] memory listings = new Listing[](querySize);\n            for (uint256 i = 0; i < querySize; i++) {\n                Listing memory listing = _tokenListings[_tokenIdWithListing.at(i + from)];\n                if (_isListingValid(listing)) {\n                    listings[i] = listing;\n                }\n            }\n            return listings;\n        }\n    }\n\n    /**\n     * @dev See {INFTKEYMarketPlaceV1-getAllTokenListings}.\n     */\n    function getAllTokenListings() external view override returns (Listing[] memory) {\n        return getTokenListings(0, _tokenIdWithListing.length());\n    }\n\n    /**\n     * @dev Check if an bid is valid or not\n     * Bidder must not be the owner\n     * Bidder must give the contract allowance same or more than bid price\n     * Bid price must > 0\n     * Bid mustn't been expired\n     */\n    function _isBidValid(Bid memory bid) private view returns (bool) {\n        if (\n            !_isTokenOwner(bid.tokenId, bid.bidder) &&\n            _paymentToken.allowance(bid.bidder, address(this)) >= bid.bidPrice &&\n            bid.bidPrice > 0 &&\n            bid.expireTimestamp > block.timestamp\n        ) {\n            return true;\n        }\n    }\n\n    /**\n     * @dev See {INFTKEYMarketPlaceV1-getBidderTokenBid}.\n     */\n    function getBidderTokenBid(uint256 tokenId, address bidder)\n        public\n        view\n        override\n        returns (Bid memory)\n    {\n        Bid memory bid = _tokenBids[tokenId][bidder];\n        if (_isBidValid(bid)) {\n            return bid;\n        }\n    }\n\n  \n    \n\n\n\n    /**\n     * @dev delist a token - remove token id record and remove listing from mapping\n     * @param tokenId erc721 token Id\n     */\n    function _delistToken(uint256 tokenId) private {\n        if (_tokenIdWithListing.contains(tokenId)) {\n            delete _tokenListings[tokenId];\n            _tokenIdWithListing.remove(tokenId);\n        }\n    }\n\n    /**\n     * @dev remove a bid of a bidder\n     * @param tokenId erc721 token Id\n     * @param bidder bidder address\n     */\n    function _removeBidOfBidder(uint256 tokenId, address bidder) private {\n        if (_tokenBids[tokenId][bidder].bidder!=address(0)) {\n            // Step 1: delete the bid and the address\n            delete _tokenBids[tokenId][bidder];\n        }\n    }\n\n    /**\n     * @dev See {INFTKEYMarketPlaceV1-listToken}.\n     * People can only list if listing is allowed\n     * The timestamp set needs to be in the allowed range\n     * Only token owner can list token\n     * Price must be higher than 0\n     * This contract must be approved to transfer this token\n     */\n    function listToken(\n        uint256 tokenId,\n        uint256 value,\n        uint256 expireTimestamp\n    ) external override onlyMarketplaceOpen onlyAllowedExpireTimestamp(expireTimestamp) {\n        require(value > 0, \"Please list for more than 0 or use the transfer function\");\n        require(_isTokenOwner(tokenId, msg.sender), \"Only token owner can list token\");\n        require(\n            _isTokenApproved(tokenId) || _isAllTokenApproved(msg.sender),\n            \"This token is not allowed to transfer by this contract\"\n        );\n\n        _tokenListings[tokenId] = Listing(tokenId, value, msg.sender, expireTimestamp);\n        _tokenIdWithListing.add(tokenId);\n\n        emit TokenListed(tokenId, msg.sender, value);\n    }\n\n    /**\n     * @dev See {INFTKEYMarketPlaceV1-delistToken}.\n     * msg.sender must be the seller of the listing record\n     */\n    function delistToken(uint256 tokenId) external override {\n        require(_tokenListings[tokenId].seller == msg.sender, \"Only token seller can delist token\");\n        emit TokenDelisted(tokenId, _tokenListings[tokenId].seller);\n        _delistToken(tokenId);\n    }\n\n    /**\n     * @dev See {INFTKEYMarketPlaceV1-buyToken}.\n     * Must have a valid listing\n     * msg.sender must not the owner of token\n     * token payment allowed must be at least sell price plus fees\n     */\n    function buyToken(uint256 tokenId) external payable override nonReentrant {\n        Listing memory listing = getTokenListing(tokenId); // Get valid listing\n        require(listing.seller != address(0), \"Token is not for sale\"); // Listing not valid\n        require(!_isTokenOwner(tokenId, msg.sender), \"Token owner can't buy their own token\");\n\n        uint256 fees = listing.listingPrice.mul(_feeFraction).div(_feeBase);\n        require(\n             _paymentToken.allowance(msg.sender, address(this)) >= listing.listingPrice .add( fees),\n            \"The value send is below sale price plus fees\"\n        );\n\n        // Send value to token seller and fees to contract owner\n        uint256 valueWithoutFees =  _paymentToken.allowance(msg.sender, address(this)).sub(fees);\n        _paymentToken.safeTransferFrom( msg.sender,listing.seller, valueWithoutFees);\n        _paymentToken.safeTransferFrom( msg.sender, owner(), fees);\n    \n        // Send token to buyer\n        emit TokenBought(tokenId, listing.seller, msg.sender, msg.value, valueWithoutFees, fees);\n        _erc721.safeTransferFrom(listing.seller, msg.sender, tokenId);\n\n        // Remove token listing\n        _delistToken(tokenId);\n        _removeBidOfBidder(tokenId, msg.sender);\n    }\n\n    /**\n     * @dev See {INFTKEYMarketPlaceV1-enterBidForToken}.\n     * People can only enter bid if bid is allowed\n     * The timestamp set needs to be in the allowed range\n     * bid price > 0\n     * must not be token owner\n     * must allow this contract to spend enough payment token\n     */\n    function enterBidForToken(\n        uint256 tokenId,\n        uint256 bidPrice,\n        uint256 expireTimestamp\n    ) external override onlyMarketplaceOpen onlyAllowedExpireTimestamp(expireTimestamp) {\n        require(bidPrice > 0, \"Please bid for more than 0\");\n        require(!_isTokenOwner(tokenId, msg.sender), \"This Token belongs to this address\");\n        require(\n            _paymentToken.allowance(msg.sender, address(this)) >= bidPrice,\n            \"Need to have enough token holding to bid on this token\"\n        );\n\n        Bid memory bid = Bid(tokenId, bidPrice, msg.sender, expireTimestamp);\n\n        // if no bids of this token add a entry to both records _tokenIdWithBid and _tokenBids\n        if (!_tokenIdWithBid.contains(tokenId)) {\n            _tokenIdWithBid.add(tokenId);\n        }\n\n         _tokenBids[tokenId][msg.sender] = bid;\n\n        emit TokenBidEntered(tokenId, msg.sender, bidPrice);\n    }\n\n    /**\n     * @dev See {INFTKEYMarketPlaceV1-withdrawBidForToken}.\n     * There must be a bid exists\n     * remove this bid record\n     */\n    function withdrawBidForToken(uint256 tokenId) external override {\n        Bid memory bid = _tokenBids[tokenId][msg.sender];\n        require(bid.bidder == msg.sender, \"This address doesn't have bid on this token\");\n\n        emit TokenBidWithdrawn(tokenId, bid.bidder, bid.bidPrice);\n        _removeBidOfBidder(tokenId, msg.sender);\n    }\n\n    /**\n     * @dev See {INFTKEYMarketPlaceV1-acceptBidForToken}.\n     * Must be owner of this token\n     * Must have approved this contract to transfer token\n     * Must have a valid existing bid that matches the bidder address\n     */\n    function acceptBidForToken(uint256 tokenId, address bidder) external override nonReentrant {\n        require(_isTokenOwner(tokenId, msg.sender), \"Only token owner can accept bid of token\");\n        require(\n            _isTokenApproved(tokenId) || _isAllTokenApproved(msg.sender),\n            \"The token is not approved to transfer by the contract\"\n        );\n\n        Bid memory existingBid = getBidderTokenBid(tokenId, bidder);\n        require(\n            existingBid.bidPrice > 0 && existingBid.bidder == bidder,\n            \"This token doesn't have a matching bid\"\n        );\n\n        uint256 fees = existingBid.bidPrice.mul(_feeFraction).div(_feeBase + _feeFraction);\n        uint256 tokenValue = existingBid.bidPrice.sub(fees);\n\n        _paymentToken.safeTransferFrom( existingBid.bidder, msg.sender, tokenValue);\n        _paymentToken.safeTransferFrom( existingBid.bidder, owner(), fees);\n\n        _erc721.safeTransferFrom(msg.sender, existingBid.bidder, tokenId);\n\n        emit TokenBidAccepted(\n            tokenId,\n            msg.sender,\n            existingBid.bidder,\n            existingBid.bidPrice,\n            tokenValue,\n            fees\n        );\n\n        // Remove token listing\n        _delistToken(tokenId);\n        _removeBidOfBidder(tokenId, existingBid.bidder);\n    }\n\n    /**\n     * @dev See {INFTKEYMarketPlaceV1-getInvalidListingCount}.\n     */\n    function getInvalidListingCount() external view override returns (uint256) {\n        uint256 count = 0;\n        for (uint256 i = 0; i < _tokenIdWithListing.length(); i++) {\n            if (!_isListingValid(_tokenListings[_tokenIdWithListing.at(i)])) {\n                count = count.add(1);\n            }\n        }\n        return count;\n    }\n\n \n\n  \n\n   \n\n    /**\n     * @dev See {INFTKEYMarketPlaceV1-erc721Name}.\n     */\n    function erc721Name() external view override returns (string memory) {\n        return _erc721Name;\n    }\n\n    /**\n     * @dev See {INFTKEYMarketPlaceV1-isListingAndBidEnabled}.\n     */\n    function isListingAndBidEnabled() external view override returns (bool) {\n        return _isListingAndBidEnabled;\n    }\n\n    /**\n     * @dev Enable to disable Bids and Listing\n     */\n    function changeMarketplaceStatus(bool enabled) external onlyOwner {\n        _isListingAndBidEnabled = enabled;\n    }\n\n    /**\n     * @dev See {INFTKEYMarketPlaceV1-actionTimeOutRangeMin}.\n     */\n    function actionTimeOutRangeMin() external view override returns (uint256) {\n        return _actionTimeOutRangeMin;\n    }\n\n    /**\n     * @dev See {INFTKEYMarketPlaceV1-actionTimeOutRangeMax}.\n     */\n    function actionTimeOutRangeMax() external view override returns (uint256) {\n        return _actionTimeOutRangeMax;\n    }\n\n    /**\n     * @dev Change minimum listing and bid time range\n     */\n    function changeMinActionTimeLimit(uint256 timeInSec) external onlyOwner {\n        _actionTimeOutRangeMin = timeInSec;\n    }\n\n    /**\n     * @dev Change maximum listing and bid time range\n     */\n    function changeMaxActionTimeLimit(uint256 timeInSec) external onlyOwner {\n        _actionTimeOutRangeMax = timeInSec;\n    }\n\n    /**\n     * @dev See {INFTKEYMarketPlaceV1-serviceFee}.\n     */\n    function serviceFee() external view override returns (uint8, uint8) {\n        return (_feeFraction, _feeBase);\n    }\n\n    /**\n     * @dev Change withdrawal fee percentage.\n     * If 1%, then input (1,100)\n     * If 0.5%, then input (5,1000)\n     * @param feeFraction_ Fraction of withdrawal fee based on feeBase_\n     * @param feeBase_ Fraction of withdrawal fee base\n     */\n    function changeSeriveFee(uint8 feeFraction_, uint8 feeBase_) external onlyOwner {\n        require(feeFraction_ <= feeBase_, \"Fee fraction exceeded base.\");\n        uint256 percentage = (feeFraction_ * 1000) / feeBase_;\n        require(percentage <= 25, \"Attempt to set percentage higher than 2.5%.\");\n\n        _feeFraction = feeFraction_;\n        _feeBase = feeBase_;\n    }\n}\n",
  "sourcePath": "/root/nftkey-marketplace/contracts/StartFiMarketPlace.sol",
  "compiler": {
    "name": "solc",
    "version": "0.8.0+commit.c7dfd78e.Emscripten.clang"
  },
  "schemaVersion": "3.4.0",
  "updatedAt": "2021-05-06T18:04:51.584Z",
  "networkType": "ethereum",
  "devdoc": {
    "kind": "dev",
    "methods": {
      "acceptBidForToken(uint256,address)": {
        "details": "See {INFTKEYMarketPlaceV1-acceptBidForToken}. Must be owner of this token Must have approved this contract to transfer token Must have a valid existing bid that matches the bidder address"
      },
      "actionTimeOutRangeMax()": {
        "details": "See {INFTKEYMarketPlaceV1-actionTimeOutRangeMax}."
      },
      "actionTimeOutRangeMin()": {
        "details": "See {INFTKEYMarketPlaceV1-actionTimeOutRangeMin}."
      },
      "buyToken(uint256)": {
        "details": "See {INFTKEYMarketPlaceV1-buyToken}. Must have a valid listing msg.sender must not the owner of token token payment allowed must be at least sell price plus fees"
      },
      "changeMarketplaceStatus(bool)": {
        "details": "Enable to disable Bids and Listing"
      },
      "changeMaxActionTimeLimit(uint256)": {
        "details": "Change maximum listing and bid time range"
      },
      "changeMinActionTimeLimit(uint256)": {
        "details": "Change minimum listing and bid time range"
      },
      "changeSeriveFee(uint8,uint8)": {
        "details": "Change withdrawal fee percentage. If 1%, then input (1,100) If 0.5%, then input (5,1000)",
        "params": {
          "feeBase_": "Fraction of withdrawal fee base",
          "feeFraction_": "Fraction of withdrawal fee based on feeBase_"
        }
      },
      "delistToken(uint256)": {
        "details": "See {INFTKEYMarketPlaceV1-delistToken}. msg.sender must be the seller of the listing record"
      },
      "enterBidForToken(uint256,uint256,uint256)": {
        "details": "See {INFTKEYMarketPlaceV1-enterBidForToken}. People can only enter bid if bid is allowed The timestamp set needs to be in the allowed range bid price > 0 must not be token owner must allow this contract to spend enough payment token"
      },
      "erc721Name()": {
        "details": "See {INFTKEYMarketPlaceV1-erc721Name}."
      },
      "getAllTokenListings()": {
        "details": "See {INFTKEYMarketPlaceV1-getAllTokenListings}."
      },
      "getBidderTokenBid(uint256,address)": {
        "details": "See {INFTKEYMarketPlaceV1-getBidderTokenBid}."
      },
      "getInvalidListingCount()": {
        "details": "See {INFTKEYMarketPlaceV1-getInvalidListingCount}."
      },
      "getTokenListing(uint256)": {
        "details": "See {INFTKEYMarketPlaceV1-getTokenListing}."
      },
      "getTokenListings(uint256,uint256)": {
        "details": "See {INFTKEYMarketPlaceV1-getTokenListings}."
      },
      "isListingAndBidEnabled()": {
        "details": "See {INFTKEYMarketPlaceV1-isListingAndBidEnabled}."
      },
      "listToken(uint256,uint256,uint256)": {
        "details": "See {INFTKEYMarketPlaceV1-listToken}. People can only list if listing is allowed The timestamp set needs to be in the allowed range Only token owner can list token Price must be higher than 0 This contract must be approved to transfer this token"
      },
      "onERC721Received(address,address,uint256,bytes)": {
        "details": "See {IERC721Receiver-onERC721Received}. Always returns `IERC721Receiver.onERC721Received.selector`."
      },
      "owner()": {
        "details": "Returns the address of the current owner."
      },
      "paymentTokenAddress()": {
        "details": "See {INFTKEYMarketPlaceV1-paymentTokenAddress}."
      },
      "renounceOwnership()": {
        "details": "Leaves the contract without owner. It will not be possible to call `onlyOwner` functions anymore. Can only be called by the current owner. NOTE: Renouncing ownership will leave the contract without an owner, thereby removing any functionality that is only available to the owner."
      },
      "serviceFee()": {
        "details": "See {INFTKEYMarketPlaceV1-serviceFee}."
      },
      "tokenAddress()": {
        "details": "See {INFTKEYMarketPlaceV1-tokenAddress}."
      },
      "transferOwnership(address)": {
        "details": "Transfers ownership of the contract to a new account (`newOwner`). Can only be called by the current owner."
      },
      "withdrawBidForToken(uint256)": {
        "details": "See {INFTKEYMarketPlaceV1-withdrawBidForToken}. There must be a bid exists remove this bid record"
      }
    },
    "title": "NFTKEY MarketPlace contract V1 Note: This marketplace contract is collection based. It serves one ERC721 contract only Payment tokens usually is the chain native coin's wrapped token, e.g. WETH, WBNB",
    "version": 1
  },
  "userdoc": {
    "kind": "user",
    "methods": {},
    "version": 1
  }
}