{
  "_format": "hh-sol-artifact-1",
  "contractName": "TeleswapV2Factory",
  "sourceName": "contracts/TeleswapV2Factory.sol",
  "abi": [
    {
      "anonymous": false,
      "inputs": [
        {
          "indexed": true,
          "internalType": "address",
          "name": "token0",
          "type": "address"
        },
        {
          "indexed": true,
          "internalType": "address",
          "name": "token1",
          "type": "address"
        },
        {
          "indexed": false,
          "internalType": "bool",
          "name": "stable",
          "type": "bool"
        },
        {
          "indexed": false,
          "internalType": "address",
          "name": "pair",
          "type": "address"
        },
        {
          "indexed": false,
          "internalType": "uint256",
          "name": "",
          "type": "uint256"
        }
      ],
      "name": "PairCreated",
      "type": "event"
    },
    {
      "constant": true,
      "inputs": [
        {
          "internalType": "uint256",
          "name": "",
          "type": "uint256"
        }
      ],
      "name": "allPairs",
      "outputs": [
        {
          "internalType": "address",
          "name": "",
          "type": "address"
        }
      ],
      "payable": false,
      "stateMutability": "view",
      "type": "function"
    },
    {
      "constant": true,
      "inputs": [],
      "name": "allPairsLength",
      "outputs": [
        {
          "internalType": "uint256",
          "name": "",
          "type": "uint256"
        }
      ],
      "payable": false,
      "stateMutability": "view",
      "type": "function"
    },
    {
      "constant": false,
      "inputs": [
        {
          "internalType": "address",
          "name": "tokenA",
          "type": "address"
        },
        {
          "internalType": "address",
          "name": "tokenB",
          "type": "address"
        },
        {
          "internalType": "bool",
          "name": "stable",
          "type": "bool"
        }
      ],
      "name": "createPair",
      "outputs": [
        {
          "internalType": "address",
          "name": "pair",
          "type": "address"
        }
      ],
      "payable": false,
      "stateMutability": "nonpayable",
      "type": "function"
    },
    {
      "constant": true,
      "inputs": [],
      "name": "feeTo",
      "outputs": [
        {
          "internalType": "address",
          "name": "",
          "type": "address"
        }
      ],
      "payable": false,
      "stateMutability": "view",
      "type": "function"
    },
    {
      "constant": true,
      "inputs": [],
      "name": "feeToSetter",
      "outputs": [
        {
          "internalType": "address",
          "name": "",
          "type": "address"
        }
      ],
      "payable": false,
      "stateMutability": "view",
      "type": "function"
    },
    {
      "constant": true,
      "inputs": [
        {
          "internalType": "address",
          "name": "",
          "type": "address"
        },
        {
          "internalType": "address",
          "name": "",
          "type": "address"
        },
        {
          "internalType": "bool",
          "name": "",
          "type": "bool"
        }
      ],
      "name": "getPair",
      "outputs": [
        {
          "internalType": "address",
          "name": "",
          "type": "address"
        }
      ],
      "payable": false,
      "stateMutability": "view",
      "type": "function"
    },
    {
      "constant": false,
      "inputs": [
        {
          "internalType": "address",
          "name": "_feeToSetter",
          "type": "address"
        }
      ],
      "name": "initialize",
      "outputs": [],
      "payable": false,
      "stateMutability": "nonpayable",
      "type": "function"
    },
    {
      "constant": true,
      "inputs": [],
      "name": "pairInitCodeHash",
      "outputs": [
        {
          "internalType": "bytes32",
          "name": "",
          "type": "bytes32"
        }
      ],
      "payable": false,
      "stateMutability": "pure",
      "type": "function"
    },
    {
      "constant": false,
      "inputs": [
        {
          "internalType": "address",
          "name": "_feeTo",
          "type": "address"
        }
      ],
      "name": "setFeeTo",
      "outputs": [],
      "payable": false,
      "stateMutability": "nonpayable",
      "type": "function"
    },
    {
      "constant": false,
      "inputs": [
        {
          "internalType": "address",
          "name": "_feeToSetter",
          "type": "address"
        }
      ],
      "name": "setFeeToSetter",
      "outputs": [],
      "payable": false,
      "stateMutability": "nonpayable",
      "type": "function"
    }
  ],
  "bytecode": "0x608060405234801561001057600080fd5b50615e75806100206000396000f3fe608060405234801561001057600080fd5b506004361061009e5760003560e01c806382dfdce41161006657806382dfdce414610273578063a2e74af614610323578063a35a337a14610367578063c4d66de814610385578063f46901ed146103c95761009e565b8063017e7e58146100a3578063094b7415146100ed5780631e3dd18b14610137578063574f2ba3146101a55780636801cc30146101c3575b600080fd5b6100ab61040d565b604051808273ffffffffffffffffffffffffffffffffffffffff1673ffffffffffffffffffffffffffffffffffffffff16815260200191505060405180910390f35b6100f5610432565b604051808273ffffffffffffffffffffffffffffffffffffffff1673ffffffffffffffffffffffffffffffffffffffff16815260200191505060405180910390f35b6101636004803603602081101561014d57600080fd5b8101908080359060200190929190505050610458565b604051808273ffffffffffffffffffffffffffffffffffffffff1673ffffffffffffffffffffffffffffffffffffffff16815260200191505060405180910390f35b6101ad610494565b6040518082815260200191505060405180910390f35b610231600480360360608110156101d957600080fd5b81019080803573ffffffffffffffffffffffffffffffffffffffff169060200190929190803573ffffffffffffffffffffffffffffffffffffffff1690602001909291908035151590602001909291905050506104a1565b604051808273ffffffffffffffffffffffffffffffffffffffff1673ffffffffffffffffffffffffffffffffffffffff16815260200191505060405180910390f35b6102e16004803603606081101561028957600080fd5b81019080803573ffffffffffffffffffffffffffffffffffffffff169060200190929190803573ffffffffffffffffffffffffffffffffffffffff1690602001909291908035151590602001909291905050506104f0565b604051808273ffffffffffffffffffffffffffffffffffffffff1673ffffffffffffffffffffffffffffffffffffffff16815260200191505060405180910390f35b6103656004803603602081101561033957600080fd5b81019080803573ffffffffffffffffffffffffffffffffffffffff169060200190929190505050610c34565b005b61036f610d3b565b6040518082815260200191505060405180910390f35b6103c76004803603602081101561039b57600080fd5b81019080803573ffffffffffffffffffffffffffffffffffffffff169060200190929190505050610d6d565b005b61040b600480360360208110156103df57600080fd5b81019080803573ffffffffffffffffffffffffffffffffffffffff169060200190929190505050610db1565b005b6000809054906101000a900473ffffffffffffffffffffffffffffffffffffffff1681565b600160009054906101000a900473ffffffffffffffffffffffffffffffffffffffff1681565b6003818154811061046557fe5b906000526020600020016000915054906101000a900473ffffffffffffffffffffffffffffffffffffffff1681565b6000600380549050905090565b6002602052826000526040600020602052816000526040600020602052806000526040600020600092509250509054906101000a900473ffffffffffffffffffffffffffffffffffffffff1681565b60008273ffffffffffffffffffffffffffffffffffffffff168473ffffffffffffffffffffffffffffffffffffffff161415610594576040517f08c379a000000000000000000000000000000000000000000000000000000000815260040180806020018281038252601f8152602001807f54656c657377617056323a204944454e544943414c5f4144445245535345530081525060200191505060405180910390fd5b6000808473ffffffffffffffffffffffffffffffffffffffff168673ffffffffffffffffffffffffffffffffffffffff16106105d15784866105d4565b85855b91509150600073ffffffffffffffffffffffffffffffffffffffff168273ffffffffffffffffffffffffffffffffffffffff16141561067b576040517f08c379a00000000000000000000000000000000000000000000000000000000081526004018080602001828103825260188152602001807f54656c657377617056323a205a45524f5f41444452455353000000000000000081525060200191505060405180910390fd5b600073ffffffffffffffffffffffffffffffffffffffff16600260008473ffffffffffffffffffffffffffffffffffffffff1673ffffffffffffffffffffffffffffffffffffffff16815260200190815260200160002060008373ffffffffffffffffffffffffffffffffffffffff1673ffffffffffffffffffffffffffffffffffffffff16815260200190815260200160002060008615151515815260200190815260200160002060009054906101000a900473ffffffffffffffffffffffffffffffffffffffff1673ffffffffffffffffffffffffffffffffffffffff16146107ce576040517f08c379a00000000000000000000000000000000000000000000000000000000081526004018080602001828103825260178152602001807f54656c657377617056323a20504149525f45584953545300000000000000000081525060200191505060405180910390fd5b6000828286604051602001808473ffffffffffffffffffffffffffffffffffffffff1673ffffffffffffffffffffffffffffffffffffffff1660601b81526014018373ffffffffffffffffffffffffffffffffffffffff1673ffffffffffffffffffffffffffffffffffffffff1660601b8152601401821515151560f81b8152600101935050505060405160208183030381529060405280519060200120905060606040518060200161088090610eb7565b6020820181038252601f19601f820116604052509050818151602083016000f594508473ffffffffffffffffffffffffffffffffffffffff1663e4bbb5a88585896040518463ffffffff1660e01b8152600401808473ffffffffffffffffffffffffffffffffffffffff1673ffffffffffffffffffffffffffffffffffffffff1681526020018373ffffffffffffffffffffffffffffffffffffffff1673ffffffffffffffffffffffffffffffffffffffff168152602001821515151581526020019350505050600060405180830381600087803b15801561096157600080fd5b505af1158015610975573d6000803e3d6000fd5b5050505084600260008673ffffffffffffffffffffffffffffffffffffffff1673ffffffffffffffffffffffffffffffffffffffff16815260200190815260200160002060008573ffffffffffffffffffffffffffffffffffffffff1673ffffffffffffffffffffffffffffffffffffffff16815260200190815260200160002060008815151515815260200190815260200160002060006101000a81548173ffffffffffffffffffffffffffffffffffffffff021916908373ffffffffffffffffffffffffffffffffffffffff16021790555084600260008573ffffffffffffffffffffffffffffffffffffffff1673ffffffffffffffffffffffffffffffffffffffff16815260200190815260200160002060008673ffffffffffffffffffffffffffffffffffffffff1673ffffffffffffffffffffffffffffffffffffffff16815260200190815260200160002060008815151515815260200190815260200160002060006101000a81548173ffffffffffffffffffffffffffffffffffffffff021916908373ffffffffffffffffffffffffffffffffffffffff16021790555060038590806001815401808255809150509060018203906000526020600020016000909192909190916101000a81548173ffffffffffffffffffffffffffffffffffffffff021916908373ffffffffffffffffffffffffffffffffffffffff160217905550508273ffffffffffffffffffffffffffffffffffffffff168473ffffffffffffffffffffffffffffffffffffffff167fc4805696c66d7cf352fc1d6bb633ad5ee82f6cb577c453024b6e0eb8306c6fc9888860038054905060405180841515151581526020018373ffffffffffffffffffffffffffffffffffffffff1673ffffffffffffffffffffffffffffffffffffffff168152602001828152602001935050505060405180910390a3505050509392505050565b600160009054906101000a900473ffffffffffffffffffffffffffffffffffffffff1673ffffffffffffffffffffffffffffffffffffffff163373ffffffffffffffffffffffffffffffffffffffff1614610cf7576040517f08c379a00000000000000000000000000000000000000000000000000000000081526004018080602001828103825260158152602001807f54656c657377617056323a20464f5242494444454e000000000000000000000081525060200191505060405180910390fd5b80600160006101000a81548173ffffffffffffffffffffffffffffffffffffffff021916908373ffffffffffffffffffffffffffffffffffffffff16021790555050565b600060405180602001610d4d90610eb7565b6020820181038252601f19601f8201166040525080519060200120905090565b80600160006101000a81548173ffffffffffffffffffffffffffffffffffffffff021916908373ffffffffffffffffffffffffffffffffffffffff16021790555050565b600160009054906101000a900473ffffffffffffffffffffffffffffffffffffffff1673ffffffffffffffffffffffffffffffffffffffff163373ffffffffffffffffffffffffffffffffffffffff1614610e74576040517f08c379a00000000000000000000000000000000000000000000000000000000081526004018080602001828103825260158152602001807f54656c657377617056323a20464f5242494444454e000000000000000000000081525060200191505060405180910390fd5b806000806101000a81548173ffffffffffffffffffffffffffffffffffffffff021916908373ffffffffffffffffffffffffffffffffffffffff16021790555050565b614f7c80610ec58339019056fe60806040526040518060400160405280600b81526020017f54656c657377617020563200000000000000000000000000000000000000000081525060009080519060200190620000519291906200023b565b506040518060400160405280600681526020017f554e492d56320000000000000000000000000000000000000000000000000000815250600190805190602001906200009f9291906200023b565b506001600e55348015620000b257600080fd5b506000469050604051808062004f2a605291396052019050604051809103902060006040518082805460018160011615610100020316600290048015620001335780601f106200011057610100808354040283529182019162000133565b820191906000526020600020905b8154815290600101906020018083116200011e575b505091505060405180910390206040518060400160405280600181526020017f3100000000000000000000000000000000000000000000000000000000000000815250805190602001208330604051602001808681526020018581526020018481526020018381526020018273ffffffffffffffffffffffffffffffffffffffff1673ffffffffffffffffffffffffffffffffffffffff16815260200195505050505050604051602081830303815290604052805190602001206005819055505033600760016101000a81548173ffffffffffffffffffffffffffffffffffffffff021916908373ffffffffffffffffffffffffffffffffffffffff160217905550620002ea565b828054600181600116156101000203166002900490600052602060002090601f016020900481019282601f106200027e57805160ff1916838001178555620002af565b82800160010185558215620002af579182015b82811115620002ae57825182559160200191906001019062000291565b5b509050620002be9190620002c2565b5090565b620002e791905b80821115620002e3576000816000905550600101620002c9565b5090565b90565b614c3080620002fa6000396000f3fe608060405234801561001057600080fd5b50600436106101c45760003560e01c806370a08231116100f9578063bc25cf7711610097578063d505accf11610071578063d505accf146108e7578063dd62ed3e14610980578063e4bbb5a8146109f8578063fff6cae914610a68576101c4565b8063bc25cf771461080f578063c45a015514610853578063d21220a71461089d576101c4565b806389afcb44116100d357806389afcb44146106a957806395d89b4114610708578063a9059cbb1461078b578063ba9a7a56146107f1576101c4565b806370a08231146105db5780637464fc3d146106335780637ecebe0014610651576101c4565b806323b872dd116101665780633644e515116101405780633644e515146105295780635909c0d5146105475780635a3d5493146105655780636a62784214610583576101c4565b806323b872dd1461046157806330adf81f146104e7578063313ce56714610505576101c4565b8063095ea7b3116101a2578063095ea7b3146103715780630dfe1681146103d757806318160ddd1461042157806322be3de11461043f576101c4565b8063022c0d9f146101c957806306fdde03146102765780630902f1ac146102f9575b600080fd5b610274600480360360808110156101df57600080fd5b810190808035906020019092919080359060200190929190803573ffffffffffffffffffffffffffffffffffffffff1690602001909291908035906020019064010000000081111561023057600080fd5b82018360208201111561024257600080fd5b8035906020019184600183028401116401000000008311171561026457600080fd5b9091929391929390505050610a72565b005b61027e611307565b6040518080602001828103825283818151815260200191508051906020019080838360005b838110156102be5780820151818401526020810190506102a3565b50505050905090810190601f1680156102eb5780820380516001836020036101000a031916815260200191505b509250505060405180910390f35b6103016113a5565b60405180846dffffffffffffffffffffffffffff166dffffffffffffffffffffffffffff168152602001836dffffffffffffffffffffffffffff166dffffffffffffffffffffffffffff1681526020018263ffffffff1663ffffffff168152602001935050505060405180910390f35b6103bd6004803603604081101561038757600080fd5b81019080803573ffffffffffffffffffffffffffffffffffffffff16906020019092919080359060200190929190505050611402565b604051808215151515815260200191505060405180910390f35b6103df611419565b604051808273ffffffffffffffffffffffffffffffffffffffff1673ffffffffffffffffffffffffffffffffffffffff16815260200191505060405180910390f35b61042961143f565b6040518082815260200191505060405180910390f35b610447611445565b604051808215151515815260200191505060405180910390f35b6104cd6004803603606081101561047757600080fd5b81019080803573ffffffffffffffffffffffffffffffffffffffff169060200190929190803573ffffffffffffffffffffffffffffffffffffffff16906020019092919080359060200190929190505050611458565b604051808215151515815260200191505060405180910390f35b6104ef611623565b6040518082815260200191505060405180910390f35b61050d61164a565b604051808260ff1660ff16815260200191505060405180910390f35b61053161164f565b6040518082815260200191505060405180910390f35b61054f611655565b6040518082815260200191505060405180910390f35b61056d61165b565b6040518082815260200191505060405180910390f35b6105c56004803603602081101561059957600080fd5b81019080803573ffffffffffffffffffffffffffffffffffffffff169060200190929190505050611661565b6040518082815260200191505060405180910390f35b61061d600480360360208110156105f157600080fd5b81019080803573ffffffffffffffffffffffffffffffffffffffff169060200190929190505050611b13565b6040518082815260200191505060405180910390f35b61063b611b2b565b6040518082815260200191505060405180910390f35b6106936004803603602081101561066757600080fd5b81019080803573ffffffffffffffffffffffffffffffffffffffff169060200190929190505050611b31565b6040518082815260200191505060405180910390f35b6106eb600480360360208110156106bf57600080fd5b81019080803573ffffffffffffffffffffffffffffffffffffffff169060200190929190505050611b49565b604051808381526020018281526020019250505060405180910390f35b610710612137565b6040518080602001828103825283818151815260200191508051906020019080838360005b83811015610750578082015181840152602081019050610735565b50505050905090810190601f16801561077d5780820380516001836020036101000a031916815260200191505b509250505060405180910390f35b6107d7600480360360408110156107a157600080fd5b81019080803573ffffffffffffffffffffffffffffffffffffffff169060200190929190803590602001909291905050506121d5565b604051808215151515815260200191505060405180910390f35b6107f96121ec565b6040518082815260200191505060405180910390f35b6108516004803603602081101561082557600080fd5b81019080803573ffffffffffffffffffffffffffffffffffffffff1690602001909291905050506121f2565b005b61085b6124cd565b604051808273ffffffffffffffffffffffffffffffffffffffff1673ffffffffffffffffffffffffffffffffffffffff16815260200191505060405180910390f35b6108a56124f3565b604051808273ffffffffffffffffffffffffffffffffffffffff1673ffffffffffffffffffffffffffffffffffffffff16815260200191505060405180910390f35b61097e600480360360e08110156108fd57600080fd5b81019080803573ffffffffffffffffffffffffffffffffffffffff169060200190929190803573ffffffffffffffffffffffffffffffffffffffff1690602001909291908035906020019092919080359060200190929190803560ff1690602001909291908035906020019092919080359060200190929190505050612519565b005b6109e26004803603604081101561099657600080fd5b81019080803573ffffffffffffffffffffffffffffffffffffffff169060200190929190803573ffffffffffffffffffffffffffffffffffffffff16906020019092919050505061285d565b6040518082815260200191505060405180910390f35b610a6660048036036060811015610a0e57600080fd5b81019080803573ffffffffffffffffffffffffffffffffffffffff169060200190929190803573ffffffffffffffffffffffffffffffffffffffff169060200190929190803515159060200190929190505050612882565b005b610a70613872565b005b6001600e5414610aea576040517f08c379a00000000000000000000000000000000000000000000000000000000081526004018080602001828103825260128152602001807f54656c657377617056323a204c4f434b4544000000000000000000000000000081525060200191505060405180910390fd5b6000600e819055506000851180610b015750600084115b610b56576040517f08c379a0000000000000000000000000000000000000000000000000000000008152600401808060200182810382526026815260200180614b666026913960400191505060405180910390fd5b600080610b616113a5565b5091509150816dffffffffffffffffffffffffffff1687108015610b945750806dffffffffffffffffffffffffffff1686105b610be9576040517f08c379a0000000000000000000000000000000000000000000000000000000008152600401808060200182810382526022815260200180614bb56022913960400191505060405180910390fd5b6000806000600860009054906101000a900473ffffffffffffffffffffffffffffffffffffffff1690506000600960009054906101000a900473ffffffffffffffffffffffffffffffffffffffff1690508173ffffffffffffffffffffffffffffffffffffffff168973ffffffffffffffffffffffffffffffffffffffff1614158015610ca257508073ffffffffffffffffffffffffffffffffffffffff168973ffffffffffffffffffffffffffffffffffffffff1614155b610d14576040517f08c379a00000000000000000000000000000000000000000000000000000000081526004018080602001828103825260168152602001807f54656c657377617056323a20494e56414c49445f544f0000000000000000000081525060200191505060405180910390fd5b60008b1115610d2957610d28828a8d613af2565b5b60008a1115610d3e57610d3d818a8c613af2565b5b6000888890501115610e26578873ffffffffffffffffffffffffffffffffffffffff166310d1e85c338d8d8c8c6040518663ffffffff1660e01b8152600401808673ffffffffffffffffffffffffffffffffffffffff1673ffffffffffffffffffffffffffffffffffffffff168152602001858152602001848152602001806020018281038252848482818152602001925080828437600081840152601f19601f8201169050808301925050509650505050505050600060405180830381600087803b158015610e0d57600080fd5b505af1158015610e21573d6000803e3d6000fd5b505050505b8173ffffffffffffffffffffffffffffffffffffffff166370a08231306040518263ffffffff1660e01b8152600401808273ffffffffffffffffffffffffffffffffffffffff1673ffffffffffffffffffffffffffffffffffffffff16815260200191505060206040518083038186803b158015610ea357600080fd5b505afa158015610eb7573d6000803e3d6000fd5b505050506040513d6020811015610ecd57600080fd5b810190808051906020019092919050505093508073ffffffffffffffffffffffffffffffffffffffff166370a08231306040518263ffffffff1660e01b8152600401808273ffffffffffffffffffffffffffffffffffffffff1673ffffffffffffffffffffffffffffffffffffffff16815260200191505060206040518083038186803b158015610f5d57600080fd5b505afa158015610f71573d6000803e3d6000fd5b505050506040513d6020811015610f8757600080fd5b810190808051906020019092919050505092505050600089856dffffffffffffffffffffffffffff16038311610fbe576000610fd4565b89856dffffffffffffffffffffffffffff160383035b9050600089856dffffffffffffffffffffffffffff16038311610ff857600061100e565b89856dffffffffffffffffffffffffffff160383035b9050600082118061101f5750600081115b611074576040517f08c379a0000000000000000000000000000000000000000000000000000000008152600401808060200182810382526025815260200180614bd76025913960400191505060405180910390fd5b60006110b061108d600385613d3f90919063ffffffff16565b6110a26103e888613d3f90919063ffffffff16565b613dd490919063ffffffff16565b905060006110ee6110cb600385613d3f90919063ffffffff16565b6110e06103e888613d3f90919063ffffffff16565b613dd490919063ffffffff16565b9050611138620f424061112a896dffffffffffffffffffffffffffff168b6dffffffffffffffffffffffffffff16613d3f90919063ffffffff16565b613d3f90919063ffffffff16565b61114b8284613d3f90919063ffffffff16565b10156111bf576040517f08c379a000000000000000000000000000000000000000000000000000000000815260040180806020018281038252600d8152602001807f54656c657377617056323a204b0000000000000000000000000000000000000081525060200191505060405180910390fd5b6111e9886dffffffffffffffffffffffffffff16886dffffffffffffffffffffffffffff16613e57565b6111f38383613e57565b1015611267576040517f08c379a000000000000000000000000000000000000000000000000000000000815260040180806020018281038252600d8152602001807f54656c657377617056323a204b0000000000000000000000000000000000000081525060200191505060405180910390fd5b505061127584848888613efc565b8873ffffffffffffffffffffffffffffffffffffffff163373ffffffffffffffffffffffffffffffffffffffff167fd78ad95fa46c994b6551d0da85fc275fe613ce37657fb8d5e3d130840159d82284848f8f6040518085815260200184815260200183815260200182815260200194505050505060405180910390a35050505050506001600e819055505050505050565b60008054600181600116156101000203166002900480601f01602080910402602001604051908101604052809291908181526020018280546001816001161561010002031660029004801561139d5780601f106113725761010080835404028352916020019161139d565b820191906000526020600020905b81548152906001019060200180831161138057829003601f168201915b505050505081565b6000806000600a60009054906101000a90046dffffffffffffffffffffffffffff169250600a600e9054906101000a90046dffffffffffffffffffffffffffff169150600a601c9054906101000a900463ffffffff169050909192565b600061140f33848461427a565b6001905092915050565b600860009054906101000a900473ffffffffffffffffffffffffffffffffffffffff1681565b60025481565b600760009054906101000a900460ff1681565b60007fffffffffffffffffffffffffffffffffffffffffffffffffffffffffffffffff600460008673ffffffffffffffffffffffffffffffffffffffff1673ffffffffffffffffffffffffffffffffffffffff16815260200190815260200160002060003373ffffffffffffffffffffffffffffffffffffffff1673ffffffffffffffffffffffffffffffffffffffff168152602001908152602001600020541461160d5761158c82600460008773ffffffffffffffffffffffffffffffffffffffff1673ffffffffffffffffffffffffffffffffffffffff16815260200190815260200160002060003373ffffffffffffffffffffffffffffffffffffffff1673ffffffffffffffffffffffffffffffffffffffff16815260200190815260200160002054613dd490919063ffffffff16565b600460008673ffffffffffffffffffffffffffffffffffffffff1673ffffffffffffffffffffffffffffffffffffffff16815260200190815260200160002060003373ffffffffffffffffffffffffffffffffffffffff1673ffffffffffffffffffffffffffffffffffffffff168152602001908152602001600020819055505b611618848484614365565b600190509392505050565b7f6e71edae12b1b97f4d1f60370fef10105fa2faae0126114a169c64845d6126c960001b81565b601281565b60055481565b600b5481565b600c5481565b60006001600e54146116db576040517f08c379a00000000000000000000000000000000000000000000000000000000081526004018080602001828103825260128152602001807f54656c657377617056323a204c4f434b4544000000000000000000000000000081525060200191505060405180910390fd5b6000600e819055506000806116ee6113a5565b50915091506000600860009054906101000a900473ffffffffffffffffffffffffffffffffffffffff1673ffffffffffffffffffffffffffffffffffffffff166370a08231306040518263ffffffff1660e01b8152600401808273ffffffffffffffffffffffffffffffffffffffff1673ffffffffffffffffffffffffffffffffffffffff16815260200191505060206040518083038186803b15801561179457600080fd5b505afa1580156117a8573d6000803e3d6000fd5b505050506040513d60208110156117be57600080fd5b810190808051906020019092919050505090506000600960009054906101000a900473ffffffffffffffffffffffffffffffffffffffff1673ffffffffffffffffffffffffffffffffffffffff166370a08231306040518263ffffffff1660e01b8152600401808273ffffffffffffffffffffffffffffffffffffffff1673ffffffffffffffffffffffffffffffffffffffff16815260200191505060206040518083038186803b15801561187257600080fd5b505afa158015611886573d6000803e3d6000fd5b505050506040513d602081101561189c57600080fd5b8101908080519060200190929190505050905060006118d4856dffffffffffffffffffffffffffff1684613dd490919063ffffffff16565b905060006118fb856dffffffffffffffffffffffffffff1684613dd490919063ffffffff16565b9050600061190987876144f9565b905060006002549050600081141561195e5761194a6103e861193c6119378688613d3f90919063ffffffff16565b6146da565b613dd490919063ffffffff16565b985061195960006103e861473c565b6119c1565b6119be886dffffffffffffffffffffffffffff166119858387613d3f90919063ffffffff16565b8161198c57fe5b04886dffffffffffffffffffffffffffff166119b18487613d3f90919063ffffffff16565b816119b857fe5b04614856565b98505b60008911611a1a576040517f08c379a0000000000000000000000000000000000000000000000000000000008152600401808060200182810382526029815260200180614b8c6029913960400191505060405180910390fd5b611a248a8a61473c565b611a3086868a8a613efc565b8115611aa857611aa1600a600e9054906101000a90046dffffffffffffffffffffffffffff166dffffffffffffffffffffffffffff16600a60009054906101000a90046dffffffffffffffffffffffffffff166dffffffffffffffffffffffffffff16613d3f90919063ffffffff16565b600d819055505b3373ffffffffffffffffffffffffffffffffffffffff167f4c209b5fc8ad50758f13e2e1088ba56a560dff690a1c6fef26394f4c03821c4f8585604051808381526020018281526020019250505060405180910390a250505050505050506001600e81905550919050565b60036020528060005260406000206000915090505481565b600d5481565b60066020528060005260406000206000915090505481565b6000806001600e5414611bc4576040517f08c379a00000000000000000000000000000000000000000000000000000000081526004018080602001828103825260128152602001807f54656c657377617056323a204c4f434b4544000000000000000000000000000081525060200191505060405180910390fd5b6000600e81905550600080611bd76113a5565b50915091506000600860009054906101000a900473ffffffffffffffffffffffffffffffffffffffff1690506000600960009054906101000a900473ffffffffffffffffffffffffffffffffffffffff16905060008273ffffffffffffffffffffffffffffffffffffffff166370a08231306040518263ffffffff1660e01b8152600401808273ffffffffffffffffffffffffffffffffffffffff1673ffffffffffffffffffffffffffffffffffffffff16815260200191505060206040518083038186803b158015611ca957600080fd5b505afa158015611cbd573d6000803e3d6000fd5b505050506040513d6020811015611cd357600080fd5b8101908080519060200190929190505050905060008273ffffffffffffffffffffffffffffffffffffffff166370a08231306040518263ffffffff1660e01b8152600401808273ffffffffffffffffffffffffffffffffffffffff1673ffffffffffffffffffffffffffffffffffffffff16815260200191505060206040518083038186803b158015611d6557600080fd5b505afa158015611d79573d6000803e3d6000fd5b505050506040513d6020811015611d8f57600080fd5b810190808051906020019092919050505090506000600360003073ffffffffffffffffffffffffffffffffffffffff1673ffffffffffffffffffffffffffffffffffffffff1681526020019081526020016000205490506000611df288886144f9565b90506000600254905080611e0f8685613d3f90919063ffffffff16565b81611e1657fe5b049a5080611e2d8585613d3f90919063ffffffff16565b81611e3457fe5b04995060008b118015611e47575060008a115b611e9c576040517f08c379a0000000000000000000000000000000000000000000000000000000008152600401808060200182810382526029815260200180614b3d6029913960400191505060405180910390fd5b611ea6308461486f565b611eb1878d8d613af2565b611ebc868d8c613af2565b8673ffffffffffffffffffffffffffffffffffffffff166370a08231306040518263ffffffff1660e01b8152600401808273ffffffffffffffffffffffffffffffffffffffff1673ffffffffffffffffffffffffffffffffffffffff16815260200191505060206040518083038186803b158015611f3957600080fd5b505afa158015611f4d573d6000803e3d6000fd5b505050506040513d6020811015611f6357600080fd5b810190808051906020019092919050505094508573ffffffffffffffffffffffffffffffffffffffff166370a08231306040518263ffffffff1660e01b8152600401808273ffffffffffffffffffffffffffffffffffffffff1673ffffffffffffffffffffffffffffffffffffffff16815260200191505060206040518083038186803b158015611ff357600080fd5b505afa158015612007573d6000803e3d6000fd5b505050506040513d602081101561201d57600080fd5b8101908080519060200190929190505050935061203c85858b8b613efc565b81156120b4576120ad600a600e9054906101000a90046dffffffffffffffffffffffffffff166dffffffffffffffffffffffffffff16600a60009054906101000a90046dffffffffffffffffffffffffffff166dffffffffffffffffffffffffffff16613d3f90919063ffffffff16565b600d819055505b8b73ffffffffffffffffffffffffffffffffffffffff163373ffffffffffffffffffffffffffffffffffffffff167fdccd412f0b1252819cb1fd330b93224ca42612892bb3f4f789976e6d819364968d8d604051808381526020018281526020019250505060405180910390a35050505050505050506001600e81905550915091565b60018054600181600116156101000203166002900480601f0160208091040260200160405190810160405280929190818152602001828054600181600116156101000203166002900480156121cd5780601f106121a2576101008083540402835291602001916121cd565b820191906000526020600020905b8154815290600101906020018083116121b057829003601f168201915b505050505081565b60006121e2338484614365565b6001905092915050565b6103e881565b6001600e541461226a576040517f08c379a00000000000000000000000000000000000000000000000000000000081526004018080602001828103825260128152602001807f54656c657377617056323a204c4f434b4544000000000000000000000000000081525060200191505060405180910390fd5b6000600e819055506000600860009054906101000a900473ffffffffffffffffffffffffffffffffffffffff1690506000600960009054906101000a900473ffffffffffffffffffffffffffffffffffffffff1690506123c082846123bb600a60009054906101000a90046dffffffffffffffffffffffffffff166dffffffffffffffffffffffffffff168673ffffffffffffffffffffffffffffffffffffffff166370a08231306040518263ffffffff1660e01b8152600401808273ffffffffffffffffffffffffffffffffffffffff1673ffffffffffffffffffffffffffffffffffffffff16815260200191505060206040518083038186803b15801561237257600080fd5b505afa158015612386573d6000803e3d6000fd5b505050506040513d602081101561239c57600080fd5b8101908080519060200190929190505050613dd490919063ffffffff16565b613af2565b6124c081846124bb600a600e9054906101000a90046dffffffffffffffffffffffffffff166dffffffffffffffffffffffffffff168573ffffffffffffffffffffffffffffffffffffffff166370a08231306040518263ffffffff1660e01b8152600401808273ffffffffffffffffffffffffffffffffffffffff1673ffffffffffffffffffffffffffffffffffffffff16815260200191505060206040518083038186803b15801561247257600080fd5b505afa158015612486573d6000803e3d6000fd5b505050506040513d602081101561249c57600080fd5b8101908080519060200190929190505050613dd490919063ffffffff16565b613af2565b50506001600e8190555050565b600760019054906101000a900473ffffffffffffffffffffffffffffffffffffffff1681565b600960009054906101000a900473ffffffffffffffffffffffffffffffffffffffff1681565b4284101561258f576040517f08c379a00000000000000000000000000000000000000000000000000000000081526004018080602001828103825260138152602001807f54656c657377617056323a20455850495245440000000000000000000000000081525060200191505060405180910390fd5b60006005547f6e71edae12b1b97f4d1f60370fef10105fa2faae0126114a169c64845d6126c960001b898989600660008e73ffffffffffffffffffffffffffffffffffffffff1673ffffffffffffffffffffffffffffffffffffffff1681526020019081526020016000206000815480929190600101919050558a604051602001808781526020018673ffffffffffffffffffffffffffffffffffffffff1673ffffffffffffffffffffffffffffffffffffffff1681526020018573ffffffffffffffffffffffffffffffffffffffff1673ffffffffffffffffffffffffffffffffffffffff16815260200184815260200183815260200182815260200196505050505050506040516020818303038152906040528051906020012060405160200180807f190100000000000000000000000000000000000000000000000000000000000081525060020183815260200182815260200192505050604051602081830303815290604052805190602001209050600060018286868660405160008152602001604052604051808581526020018460ff1660ff1681526020018381526020018281526020019450505050506020604051602081039080840390855afa158015612761573d6000803e3d6000fd5b505050602060405103519050600073ffffffffffffffffffffffffffffffffffffffff168173ffffffffffffffffffffffffffffffffffffffff16141580156127d557508873ffffffffffffffffffffffffffffffffffffffff168173ffffffffffffffffffffffffffffffffffffffff16145b612847576040517f08c379a000000000000000000000000000000000000000000000000000000000815260040180806020018281038252601d8152602001807f54656c657377617056323a20494e56414c49445f5349474e415455524500000081525060200191505060405180910390fd5b61285289898961427a565b505050505050505050565b6004602052816000526040600020602052806000526040600020600091509150505481565b600760019054906101000a900473ffffffffffffffffffffffffffffffffffffffff1673ffffffffffffffffffffffffffffffffffffffff163373ffffffffffffffffffffffffffffffffffffffff1614612945576040517f08c379a00000000000000000000000000000000000000000000000000000000081526004018080602001828103825260158152602001807f54656c657377617056323a20464f5242494444454e000000000000000000000081525060200191505060405180910390fd5b82600860006101000a81548173ffffffffffffffffffffffffffffffffffffffff021916908373ffffffffffffffffffffffffffffffffffffffff16021790555081600960006101000a81548173ffffffffffffffffffffffffffffffffffffffff021916908373ffffffffffffffffffffffffffffffffffffffff16021790555080600760006101000a81548160ff021916908315150217905550801561312c578273ffffffffffffffffffffffffffffffffffffffff166395d89b416040518163ffffffff1660e01b815260040160006040518083038186803b158015612a2d57600080fd5b505afa158015612a41573d6000803e3d6000fd5b505050506040513d6000823e3d601f19601f820116820180604052506020811015612a6b57600080fd5b8101908080516040519392919084640100000000821115612a8b57600080fd5b83820191506020820185811115612aa157600080fd5b8251866001820283011164010000000082111715612abe57600080fd5b8083526020830192505050908051906020019080838360005b83811015612af2578082015181840152602081019050612ad7565b50505050905090810190601f168015612b1f5780820380516001836020036101000a031916815260200191505b506040525050508273ffffffffffffffffffffffffffffffffffffffff166395d89b416040518163ffffffff1660e01b815260040160006040518083038186803b158015612b6c57600080fd5b505afa158015612b80573d6000803e3d6000fd5b505050506040513d6000823e3d601f19601f820116820180604052506020811015612baa57600080fd5b8101908080516040519392919084640100000000821115612bca57600080fd5b83820191506020820185811115612be057600080fd5b8251866001820283011164010000000082111715612bfd57600080fd5b8083526020830192505050908051906020019080838360005b83811015612c31578082015181840152602081019050612c16565b50505050905090810190601f168015612c5e5780820380516001836020036101000a031916815260200191505b5060405250505060405160200180807f537461626c65563120414d4d202d200000000000000000000000000000000000815250600f0183805190602001908083835b60208310612cc35780518252602082019150602081019050602083039250612ca0565b6001836020036101000a038019825116818451168082178552505050505050905001807f2f0000000000000000000000000000000000000000000000000000000000000081525060010182805190602001908083835b60208310612d3c5780518252602082019150602081019050602083039250612d19565b6001836020036101000a0380198251168184511680821785525050505050509050019250505060405160208183030381529060405260009080519060200190612d86929190614a97565b508273ffffffffffffffffffffffffffffffffffffffff166395d89b416040518163ffffffff1660e01b815260040160006040518083038186803b158015612dcd57600080fd5b505afa158015612de1573d6000803e3d6000fd5b505050506040513d6000823e3d601f19601f820116820180604052506020811015612e0b57600080fd5b8101908080516040519392919084640100000000821115612e2b57600080fd5b83820191506020820185811115612e4157600080fd5b8251866001820283011164010000000082111715612e5e57600080fd5b8083526020830192505050908051906020019080838360005b83811015612e92578082015181840152602081019050612e77565b50505050905090810190601f168015612ebf5780820380516001836020036101000a031916815260200191505b506040525050508273ffffffffffffffffffffffffffffffffffffffff166395d89b416040518163ffffffff1660e01b815260040160006040518083038186803b158015612f0c57600080fd5b505afa158015612f20573d6000803e3d6000fd5b505050506040513d6000823e3d601f19601f820116820180604052506020811015612f4a57600080fd5b8101908080516040519392919084640100000000821115612f6a57600080fd5b83820191506020820185811115612f8057600080fd5b8251866001820283011164010000000082111715612f9d57600080fd5b8083526020830192505050908051906020019080838360005b83811015612fd1578082015181840152602081019050612fb6565b50505050905090810190601f168015612ffe5780820380516001836020036101000a031916815260200191505b5060405250505060405160200180807f73414d4d2d00000000000000000000000000000000000000000000000000000081525060050183805190602001908083835b602083106130635780518252602082019150602081019050602083039250613040565b6001836020036101000a038019825116818451168082178552505050505050905001807f2f0000000000000000000000000000000000000000000000000000000000000081525060010182805190602001908083835b602083106130dc57805182526020820191506020810190506020830392506130b9565b6001836020036101000a0380198251168184511680821785525050505050509050019250505060405160208183030381529060405260019080519060200190613126929190614a97565b5061386d565b8273ffffffffffffffffffffffffffffffffffffffff166395d89b416040518163ffffffff1660e01b815260040160006040518083038186803b15801561317257600080fd5b505afa158015613186573d6000803e3d6000fd5b505050506040513d6000823e3d601f19601f8201168201806040525060208110156131b057600080fd5b81019080805160405193929190846401000000008211156131d057600080fd5b838201915060208201858111156131e657600080fd5b825186600182028301116401000000008211171561320357600080fd5b8083526020830192505050908051906020019080838360005b8381101561323757808201518184015260208101905061321c565b50505050905090810190601f1680156132645780820380516001836020036101000a031916815260200191505b506040525050508273ffffffffffffffffffffffffffffffffffffffff166395d89b416040518163ffffffff1660e01b815260040160006040518083038186803b1580156132b157600080fd5b505afa1580156132c5573d6000803e3d6000fd5b505050506040513d6000823e3d601f19601f8201168201806040525060208110156132ef57600080fd5b810190808051604051939291908464010000000082111561330f57600080fd5b8382019150602082018581111561332557600080fd5b825186600182028301116401000000008211171561334257600080fd5b8083526020830192505050908051906020019080838360005b8381101561337657808201518184015260208101905061335b565b50505050905090810190601f1680156133a35780820380516001836020036101000a031916815260200191505b5060405250505060405160200180807f566f6c6174696c65563120414d4d202d2000000000000000000000000000000081525060110183805190602001908083835b6020831061340857805182526020820191506020810190506020830392506133e5565b6001836020036101000a038019825116818451168082178552505050505050905001807f2f0000000000000000000000000000000000000000000000000000000000000081525060010182805190602001908083835b60208310613481578051825260208201915060208101905060208303925061345e565b6001836020036101000a03801982511681845116808217855250505050505090500192505050604051602081830303815290604052600090805190602001906134cb929190614a97565b508273ffffffffffffffffffffffffffffffffffffffff166395d89b416040518163ffffffff1660e01b815260040160006040518083038186803b15801561351257600080fd5b505afa158015613526573d6000803e3d6000fd5b505050506040513d6000823e3d601f19601f82011682018060405250602081101561355057600080fd5b810190808051604051939291908464010000000082111561357057600080fd5b8382019150602082018581111561358657600080fd5b82518660018202830111640100000000821117156135a357600080fd5b8083526020830192505050908051906020019080838360005b838110156135d75780820151818401526020810190506135bc565b50505050905090810190601f1680156136045780820380516001836020036101000a031916815260200191505b506040525050508273ffffffffffffffffffffffffffffffffffffffff166395d89b416040518163ffffffff1660e01b815260040160006040518083038186803b15801561365157600080fd5b505afa158015613665573d6000803e3d6000fd5b505050506040513d6000823e3d601f19601f82011682018060405250602081101561368f57600080fd5b81019080805160405193929190846401000000008211156136af57600080fd5b838201915060208201858111156136c557600080fd5b82518660018202830111640100000000821117156136e257600080fd5b8083526020830192505050908051906020019080838360005b838110156137165780820151818401526020810190506136fb565b50505050905090810190601f1680156137435780820380516001836020036101000a031916815260200191505b5060405250505060405160200180807f76414d4d2d00000000000000000000000000000000000000000000000000000081525060050183805190602001908083835b602083106137a85780518252602082019150602081019050602083039250613785565b6001836020036101000a038019825116818451168082178552505050505050905001807f2f0000000000000000000000000000000000000000000000000000000000000081525060010182805190602001908083835b6020831061382157805182526020820191506020810190506020830392506137fe565b6001836020036101000a038019825116818451168082178552505050505050905001925050506040516020818303038152906040526001908051906020019061386b929190614a97565b505b505050565b6001600e54146138ea576040517f08c379a00000000000000000000000000000000000000000000000000000000081526004018080602001828103825260128152602001807f54656c657377617056323a204c4f434b4544000000000000000000000000000081525060200191505060405180910390fd5b6000600e81905550613ae8600860009054906101000a900473ffffffffffffffffffffffffffffffffffffffff1673ffffffffffffffffffffffffffffffffffffffff166370a08231306040518263ffffffff1660e01b8152600401808273ffffffffffffffffffffffffffffffffffffffff1673ffffffffffffffffffffffffffffffffffffffff16815260200191505060206040518083038186803b15801561399457600080fd5b505afa1580156139a8573d6000803e3d6000fd5b505050506040513d60208110156139be57600080fd5b8101908080519060200190929190505050600960009054906101000a900473ffffffffffffffffffffffffffffffffffffffff1673ffffffffffffffffffffffffffffffffffffffff166370a08231306040518263ffffffff1660e01b8152600401808273ffffffffffffffffffffffffffffffffffffffff1673ffffffffffffffffffffffffffffffffffffffff16815260200191505060206040518083038186803b158015613a6e57600080fd5b505afa158015613a82573d6000803e3d6000fd5b505050506040513d6020811015613a9857600080fd5b8101908080519060200190929190505050600a60009054906101000a90046dffffffffffffffffffffffffffff16600a600e9054906101000a90046dffffffffffffffffffffffffffff16613efc565b6001600e81905550565b600060608473ffffffffffffffffffffffffffffffffffffffff166040518060400160405280601981526020017f7472616e7366657228616464726573732c75696e743235362900000000000000815250805190602001208585604051602401808373ffffffffffffffffffffffffffffffffffffffff1673ffffffffffffffffffffffffffffffffffffffff16815260200182815260200192505050604051602081830303815290604052907bffffffffffffffffffffffffffffffffffffffffffffffffffffffff19166020820180517bffffffffffffffffffffffffffffffffffffffffffffffffffffffff83818316178352505050506040518082805190602001908083835b60208310613c1f5780518252602082019150602081019050602083039250613bfc565b6001836020036101000a0380198251168184511680821785525050505050509050019150506000604051808303816000865af19150503d8060008114613c81576040519150601f19603f3d011682016040523d82523d6000602084013e613c86565b606091505b5091509150818015613cc65750600081511480613cc55750808060200190516020811015613cb357600080fd5b81019080805190602001909291905050505b5b613d38576040517f08c379a000000000000000000000000000000000000000000000000000000000815260040180806020018281038252601b8152602001807f54656c657377617056323a205452414e534645525f4641494c4544000000000081525060200191505060405180910390fd5b5050505050565b600080821480613d5c5750828283850292508281613d5957fe5b04145b613dce576040517f08c379a00000000000000000000000000000000000000000000000000000000081526004018080602001828103825260148152602001807f64732d6d6174682d6d756c2d6f766572666c6f7700000000000000000000000081525060200191505060405180910390fd5b92915050565b6000828284039150811115613e51576040517f08c379a00000000000000000000000000000000000000000000000000000000081526004018080602001828103825260158152602001807f64732d6d6174682d7375622d756e646572666c6f77000000000000000000000081525060200191505060405180910390fd5b92915050565b6000600760009054906101000a900460ff1615613ef0576000670de0b6b3a7640000840290506000670de0b6b3a7640000840290506000670de0b6b3a764000082840281613ea157fe5b0490506000670de0b6b3a764000083840281613eb957fe5b04670de0b6b3a764000085860281613ecd57fe5b04019050670de0b6b3a764000081830281613ee457fe5b04945050505050613ef6565b81830290505b92915050565b7fffffffffffffffffffffffffffffffffffffffffffffffffffffffffffffffff6dffffffffffffffffffffffffffff168411158015613f6c57507fffffffffffffffffffffffffffffffffffffffffffffffffffffffffffffffff6dffffffffffffffffffffffffffff168311155b613fde576040517f08c379a00000000000000000000000000000000000000000000000000000000081526004018080602001828103825260148152602001807f54656c657377617056323a204f564552464c4f5700000000000000000000000081525060200191505060405180910390fd5b60006401000000004281613fee57fe5b0690506000600a601c9054906101000a900463ffffffff168203905060008163ffffffff1611801561403157506000846dffffffffffffffffffffffffffff1614155b801561404e57506000836dffffffffffffffffffffffffffff1614155b15614130578063ffffffff166140938561406786614989565b7bffffffffffffffffffffffffffffffffffffffffffffffffffffffff166149b490919063ffffffff16565b7bffffffffffffffffffffffffffffffffffffffffffffffffffffffff1602600b600082825401925050819055508063ffffffff16614101846140d587614989565b7bffffffffffffffffffffffffffffffffffffffffffffffffffffffff166149b490919063ffffffff16565b7bffffffffffffffffffffffffffffffffffffffffffffffffffffffff1602600c600082825401925050819055505b85600a60006101000a8154816dffffffffffffffffffffffffffff02191690836dffffffffffffffffffffffffffff16021790555084600a600e6101000a8154816dffffffffffffffffffffffffffff02191690836dffffffffffffffffffffffffffff16021790555081600a601c6101000a81548163ffffffff021916908363ffffffff1602179055507f1c411e9a96e071241c2f21f7726b17ae89e3cab4c78be50e062b03a9fffbbad1600a60009054906101000a90046dffffffffffffffffffffffffffff16600a600e9054906101000a90046dffffffffffffffffffffffffffff1660405180836dffffffffffffffffffffffffffff166dffffffffffffffffffffffffffff168152602001826dffffffffffffffffffffffffffff166dffffffffffffffffffffffffffff1681526020019250505060405180910390a1505050505050565b80600460008573ffffffffffffffffffffffffffffffffffffffff1673ffffffffffffffffffffffffffffffffffffffff16815260200190815260200160002060008473ffffffffffffffffffffffffffffffffffffffff1673ffffffffffffffffffffffffffffffffffffffff168152602001908152602001600020819055508173ffffffffffffffffffffffffffffffffffffffff168373ffffffffffffffffffffffffffffffffffffffff167f8c5be1e5ebec7d5bd14f71427d1e84f3dd0314c0f7b2291e5b200ac8c7c3b925836040518082815260200191505060405180910390a3505050565b6143b781600360008673ffffffffffffffffffffffffffffffffffffffff1673ffffffffffffffffffffffffffffffffffffffff16815260200190815260200160002054613dd490919063ffffffff16565b600360008573ffffffffffffffffffffffffffffffffffffffff1673ffffffffffffffffffffffffffffffffffffffff1681526020019081526020016000208190555061444c81600360008573ffffffffffffffffffffffffffffffffffffffff1673ffffffffffffffffffffffffffffffffffffffff16815260200190815260200160002054614a1490919063ffffffff16565b600360008473ffffffffffffffffffffffffffffffffffffffff1673ffffffffffffffffffffffffffffffffffffffff168152602001908152602001600020819055508173ffffffffffffffffffffffffffffffffffffffff168373ffffffffffffffffffffffffffffffffffffffff167fddf252ad1be2c89b69c2b068fc378daa952ba7f163c4a11628f55a4df523b3ef836040518082815260200191505060405180910390a3505050565b600080600760019054906101000a900473ffffffffffffffffffffffffffffffffffffffff1673ffffffffffffffffffffffffffffffffffffffff1663017e7e586040518163ffffffff1660e01b815260040160206040518083038186803b15801561456457600080fd5b505afa158015614578573d6000803e3d6000fd5b505050506040513d602081101561458e57600080fd5b81019080805190602001909291905050509050600073ffffffffffffffffffffffffffffffffffffffff168173ffffffffffffffffffffffffffffffffffffffff16141591506000600d54905082156146c057600081146146bb576000614626614621866dffffffffffffffffffffffffffff16886dffffffffffffffffffffffffffff16613d3f90919063ffffffff16565b6146da565b90506000614633836146da565b9050808211156146b85760006146666146558385613dd490919063ffffffff16565b600254613d3f90919063ffffffff16565b9050600061469083614682600587613d3f90919063ffffffff16565b614a1490919063ffffffff16565b9050600081838161469d57fe5b04905060008111156146b4576146b3878261473c565b5b5050505b50505b6146d2565b600081146146d1576000600d819055505b5b505092915050565b600060038211156147295781905060006001600284816146f657fe5b040190505b818110156147235780915060028182858161471257fe5b04018161471b57fe5b0490506146fb565b50614737565b6000821461473657600190505b5b919050565b61475181600254614a1490919063ffffffff16565b6002819055506147a981600360008573ffffffffffffffffffffffffffffffffffffffff1673ffffffffffffffffffffffffffffffffffffffff16815260200190815260200160002054614a1490919063ffffffff16565b600360008473ffffffffffffffffffffffffffffffffffffffff1673ffffffffffffffffffffffffffffffffffffffff168152602001908152602001600020819055508173ffffffffffffffffffffffffffffffffffffffff16600073ffffffffffffffffffffffffffffffffffffffff167fddf252ad1be2c89b69c2b068fc378daa952ba7f163c4a11628f55a4df523b3ef836040518082815260200191505060405180910390a35050565b60008183106148655781614867565b825b905092915050565b6148c181600360008573ffffffffffffffffffffffffffffffffffffffff1673ffffffffffffffffffffffffffffffffffffffff16815260200190815260200160002054613dd490919063ffffffff16565b600360008473ffffffffffffffffffffffffffffffffffffffff1673ffffffffffffffffffffffffffffffffffffffff1681526020019081526020016000208190555061491981600254613dd490919063ffffffff16565b600281905550600073ffffffffffffffffffffffffffffffffffffffff168273ffffffffffffffffffffffffffffffffffffffff167fddf252ad1be2c89b69c2b068fc378daa952ba7f163c4a11628f55a4df523b3ef836040518082815260200191505060405180910390a35050565b60006e010000000000000000000000000000826dffffffffffffffffffffffffffff16029050919050565b6000816dffffffffffffffffffffffffffff167bffffffffffffffffffffffffffffffffffffffffffffffffffffffff16837bffffffffffffffffffffffffffffffffffffffffffffffffffffffff1681614a0b57fe5b04905092915050565b6000828284019150811015614a91576040517f08c379a00000000000000000000000000000000000000000000000000000000081526004018080602001828103825260148152602001807f64732d6d6174682d6164642d6f766572666c6f7700000000000000000000000081525060200191505060405180910390fd5b92915050565b828054600181600116156101000203166002900490600052602060002090601f016020900481019282601f10614ad857805160ff1916838001178555614b06565b82800160010185558215614b06579182015b82811115614b05578251825591602001919060010190614aea565b5b509050614b139190614b17565b5090565b614b3991905b80821115614b35576000816000905550600101614b1d565b5090565b9056fe54656c657377617056323a20494e53554646494349454e545f4c49515549444954595f4255524e454454656c657377617056323a20494e53554646494349454e545f4f55545055545f414d4f554e5454656c657377617056323a20494e53554646494349454e545f4c49515549444954595f4d494e54454454656c657377617056323a20494e53554646494349454e545f4c495155494449545954656c657377617056323a20494e53554646494349454e545f494e5055545f414d4f554e54a265627a7a72315820a80a381100cd7e56dd8a550cb90e1789932fb1d17c219cb7da43ffca44f9c0d664736f6c63430005100032454950373132446f6d61696e28737472696e67206e616d652c737472696e672076657273696f6e2c75696e7432353620636861696e49642c6164647265737320766572696679696e67436f6e747261637429a265627a7a723158207b59baf42cb08a0f384389bbc2e2438da1932810636b8105d21bb554fc97f0ae64736f6c63430005100032",
  "linkReferences": {},
  "deployedLinkReferences": {}
}