{
  "_format": "hh-sol-artifact-1",
  "contractName": "Airdrop",
  "sourceName": "contracts/Airdrop.sol",
  "abi": [
    {
      "inputs": [
        {
          "internalType": "contract IERC20",
          "name": "token",
          "type": "address"
        },
        {
          "internalType": "bytes32",
          "name": "rootHash",
          "type": "bytes32"
        },
        {
          "internalType": "address",
          "name": "treasury",
          "type": "address"
        }
      ],
      "stateMutability": "nonpayable",
      "type": "constructor"
    },
    {
      "inputs": [],
      "name": "_blockDeadline",
      "outputs": [
        {
          "internalType": "uint256",
          "name": "",
          "type": "uint256"
        }
      ],
      "stateMutability": "view",
      "type": "function"
    },
    {
      "inputs": [],
      "name": "_rootHash",
      "outputs": [
        {
          "internalType": "bytes32",
          "name": "",
          "type": "bytes32"
        }
      ],
      "stateMutability": "view",
      "type": "function"
    },
    {
      "inputs": [],
      "name": "_token",
      "outputs": [
        {
          "internalType": "contract IERC20",
          "name": "",
          "type": "address"
        }
      ],
      "stateMutability": "view",
      "type": "function"
    },
    {
      "inputs": [],
      "name": "_treasury",
      "outputs": [
        {
          "internalType": "address",
          "name": "",
          "type": "address"
        }
      ],
      "stateMutability": "view",
      "type": "function"
    },
    {
      "inputs": [
        {
          "internalType": "uint256",
          "name": "index",
          "type": "uint256"
        },
        {
          "internalType": "address",
          "name": "recipient",
          "type": "address"
        },
        {
          "internalType": "uint256",
          "name": "amount",
          "type": "uint256"
        },
        {
          "internalType": "bytes32[]",
          "name": "merkleProof",
          "type": "bytes32[]"
        }
      ],
      "name": "redeemPackage",
      "outputs": [],
      "stateMutability": "nonpayable",
      "type": "function"
    },
    {
      "inputs": [
        {
          "internalType": "uint256",
          "name": "index",
          "type": "uint256"
        }
      ],
      "name": "redeemed",
      "outputs": [
        {
          "internalType": "bool",
          "name": "",
          "type": "bool"
        }
      ],
      "stateMutability": "view",
      "type": "function"
    },
    {
      "inputs": [
        {
          "internalType": "contract IERC20",
          "name": "token",
          "type": "address"
        }
      ],
      "name": "sweepPostDeadline",
      "outputs": [],
      "stateMutability": "nonpayable",
      "type": "function"
    }
  ],
  "bytecode": "0x61010060405234801561001157600080fd5b50604051610d01380380610d018339818101604052606081101561003457600080fd5b810190808051906020019092919080519060200190929190805190602001909291905050508273ffffffffffffffffffffffffffffffffffffffff1660a08173ffffffffffffffffffffffffffffffffffffffff1660601b8152505081608081815250508073ffffffffffffffffffffffffffffffffffffffff1660e08173ffffffffffffffffffffffffffffffffffffffff1660601b815250506100e962151800426100f860201b6109fe1790919060201c565b60c08181525050505050610180565b600080828401905083811015610176576040517f08c379a000000000000000000000000000000000000000000000000000000000815260040180806020018281038252601b8152602001807f536166654d6174683a206164646974696f6e206f766572666c6f77000000000081525060200191505060405180910390fd5b8091505092915050565b60805160a05160601c60c05160e05160601c610b2d6101d4600039806103d652806109b852508061029c52806104df528061094d5250806107e152806109dc52508061074c52806109295250610b2d6000f3fe608060405234801561001057600080fd5b506004361061007d5760003560e01c806372a2cb7d1161005b57806372a2cb7d146101d05780637ed0f1c1146101ee578063e319a3d914610232578063ecd0c0c3146102665761007d565b80631fb886bb146100825780633289e004146100c65780636283188c146101b2575b600080fd5b6100c46004803603602081101561009857600080fd5b81019080803573ffffffffffffffffffffffffffffffffffffffff16906020019092919050505061029a565b005b6101b0600480360360808110156100dc57600080fd5b8101908080359060200190929190803573ffffffffffffffffffffffffffffffffffffffff169060200190929190803590602001909291908035906020019064010000000081111561012d57600080fd5b82018360208201111561013f57600080fd5b8035906020019184602083028401116401000000008311171561016157600080fd5b919080806020026020016040519081016040528093929190818152602001838360200280828437600081840152601f19601f8201169050808301925050505050505091929192905050506104dd565b005b6101ba610927565b6040518082815260200191505060405180910390f35b6101d861094b565b6040518082815260200191505060405180910390f35b61021a6004803603602081101561020457600080fd5b810190808035906020019092919050505061096f565b60405180821515815260200191505060405180910390f35b61023a6109b6565b604051808273ffffffffffffffffffffffffffffffffffffffff16815260200191505060405180910390f35b61026e6109da565b604051808273ffffffffffffffffffffffffffffffffffffffff16815260200191505060405180910390f35b7f00000000000000000000000000000000000000000000000000000000000000004211610312576040517f08c379a0000000000000000000000000000000000000000000000000000000008152600401808060200182810382526025815260200180610a876025913960400191505060405180910390fd5b60008173ffffffffffffffffffffffffffffffffffffffff166370a08231306040518263ffffffff1660e01b8152600401808273ffffffffffffffffffffffffffffffffffffffff16815260200191505060206040518083038186803b15801561037b57600080fd5b505afa15801561038f573d6000803e3d6000fd5b505050506040513d60208110156103a557600080fd5b810190808051906020019092919050505090508173ffffffffffffffffffffffffffffffffffffffff1663a9059cbb7f0000000000000000000000000000000000000000000000000000000000000000836040518363ffffffff1660e01b8152600401808373ffffffffffffffffffffffffffffffffffffffff16815260200182815260200192505050602060405180830381600087803b15801561044957600080fd5b505af115801561045d573d6000803e3d6000fd5b505050506040513d602081101561047357600080fd5b81019080805190602001909291905050506104d9576040517f08c379a0000000000000000000000000000000000000000000000000000000008152600401808060200182810382526028815260200180610aac6028913960400191505060405180910390fd5b5050565b7f0000000000000000000000000000000000000000000000000000000000000000421115610556576040517f08c379a0000000000000000000000000000000000000000000000000000000008152600401808060200182810382526024815260200180610ad46024913960400191505060405180910390fd5b6000806000610100878161056657fe5b0481526020019081526020016000205490506000610100868161058557fe5b066001901b9050600081831614610604576040517f08c379a00000000000000000000000000000000000000000000000000000000081526004018080602001828103825260198152602001807f41697264726f703a20616c72656164792072656465656d65640000000000000081525060200191505060405180910390fd5b808217600080610100898161061557fe5b048152602001908152602001600020819055506000868686604051602001808481526020018373ffffffffffffffffffffffffffffffffffffffff1681526020018281526020019350505050604051602081830303815290604052805190602001209050600087905060005b85518161ffff16101561074957600180831614156106e657858161ffff16815181106106a957fe5b602002602001015183604051602001808381526020018281526020019250505060405160208183030381529060405280519060200120925061072f565b82868261ffff16815181106106f757fe5b602002602001015160405160200180838152602001828152602001925050506040516020818303038152906040528051906020012092505b6002828161073957fe5b0491508080600101915050610681565b507f000000000000000000000000000000000000000000000000000000000000000082146107df576040517f08c379a000000000000000000000000000000000000000000000000000000000815260040180806020018281038252601d8152602001807f41697264726f703a204d65726b6c6520726f6f74206d69736d6174636800000081525060200191505060405180910390fd5b7f000000000000000000000000000000000000000000000000000000000000000073ffffffffffffffffffffffffffffffffffffffff1663a9059cbb88886040518363ffffffff1660e01b8152600401808373ffffffffffffffffffffffffffffffffffffffff16815260200182815260200192505050602060405180830381600087803b15801561087057600080fd5b505af1158015610884573d6000803e3d6000fd5b505050506040513d602081101561089a57600080fd5b810190808051906020019092919050505061091d576040517f08c379a000000000000000000000000000000000000000000000000000000000815260040180806020018281038252601c8152602001807f41697264726f703a20546f6b656e207472616e73666572206661696c0000000081525060200191505060405180910390fd5b5050505050505050565b7f000000000000000000000000000000000000000000000000000000000000000081565b7f000000000000000000000000000000000000000000000000000000000000000081565b600080600080610100858161098057fe5b0481526020019081526020016000205490506000610100848161099f57fe5b066001901b90506000818316141592505050919050565b7f000000000000000000000000000000000000000000000000000000000000000081565b7f000000000000000000000000000000000000000000000000000000000000000081565b600080828401905083811015610a7c576040517f08c379a000000000000000000000000000000000000000000000000000000000815260040180806020018281038252601b8152602001807f536166654d6174683a206164646974696f6e206f766572666c6f77000000000081525060200191505060405180910390fd5b809150509291505056fe41697264726f703a20446561646c696e6520686173206e6f7420796574207061737365642e41697264726f703a20546f6b656e207472616e7366657220746f207472656173757279206661696c41697264726f703a20526564656d7074696f6e20646561646c696e65207061737365642ea264697066735822122081234b66c4f7c03a4bf4ca4c50b1c0eb45b0efea26625a06941a816c8f8199b364736f6c63430007030033",
  "linkReferences": {},
  "deployedLinkReferences": {}
}