{
  "_format": "hh-sol-artifact-1",
  "contractName": "ComplexRewarderTime",
  "sourceName": "contracts/ComplexRewarderTime.sol",
  "abi": [
    {
      "inputs": [
        {
          "internalType": "contract IERC20",
          "name": "_rewardToken",
          "type": "address"
        },
        {
          "internalType": "uint256",
          "name": "_rewardPerSecond",
          "type": "uint256"
        },
        {
          "internalType": "address",
          "name": "_MASTERCHEF_V2",
          "type": "address"
        }
      ],
      "stateMutability": "nonpayable",
      "type": "constructor"
    },
    {
      "anonymous": false,
      "inputs": [],
      "name": "LogInit",
      "type": "event"
    },
    {
      "anonymous": false,
      "inputs": [
        {
          "indexed": true,
          "internalType": "address",
          "name": "user",
          "type": "address"
        },
        {
          "indexed": true,
          "internalType": "uint256",
          "name": "pid",
          "type": "uint256"
        },
        {
          "indexed": false,
          "internalType": "uint256",
          "name": "amount",
          "type": "uint256"
        },
        {
          "indexed": true,
          "internalType": "address",
          "name": "to",
          "type": "address"
        }
      ],
      "name": "LogOnReward",
      "type": "event"
    },
    {
      "anonymous": false,
      "inputs": [
        {
          "indexed": true,
          "internalType": "uint256",
          "name": "pid",
          "type": "uint256"
        },
        {
          "indexed": false,
          "internalType": "uint256",
          "name": "allocPoint",
          "type": "uint256"
        }
      ],
      "name": "LogPoolAddition",
      "type": "event"
    },
    {
      "anonymous": false,
      "inputs": [
        {
          "indexed": false,
          "internalType": "uint256",
          "name": "rewardPerSecond",
          "type": "uint256"
        }
      ],
      "name": "LogRewardPerSecond",
      "type": "event"
    },
    {
      "anonymous": false,
      "inputs": [
        {
          "indexed": true,
          "internalType": "uint256",
          "name": "pid",
          "type": "uint256"
        },
        {
          "indexed": false,
          "internalType": "uint256",
          "name": "allocPoint",
          "type": "uint256"
        }
      ],
      "name": "LogSetPool",
      "type": "event"
    },
    {
      "anonymous": false,
      "inputs": [
        {
          "indexed": true,
          "internalType": "uint256",
          "name": "pid",
          "type": "uint256"
        },
        {
          "indexed": false,
          "internalType": "uint64",
          "name": "lastRewardTime",
          "type": "uint64"
        },
        {
          "indexed": false,
          "internalType": "uint256",
          "name": "lpSupply",
          "type": "uint256"
        },
        {
          "indexed": false,
          "internalType": "uint256",
          "name": "accDiffusionPerShare",
          "type": "uint256"
        }
      ],
      "name": "LogUpdatePool",
      "type": "event"
    },
    {
      "anonymous": false,
      "inputs": [
        {
          "indexed": true,
          "internalType": "address",
          "name": "previousOwner",
          "type": "address"
        },
        {
          "indexed": true,
          "internalType": "address",
          "name": "newOwner",
          "type": "address"
        }
      ],
      "name": "OwnershipTransferred",
      "type": "event"
    },
    {
      "inputs": [
        {
          "internalType": "uint256",
          "name": "allocPoint",
          "type": "uint256"
        },
        {
          "internalType": "uint256",
          "name": "_pid",
          "type": "uint256"
        }
      ],
      "name": "add",
      "outputs": [],
      "stateMutability": "nonpayable",
      "type": "function"
    },
    {
      "inputs": [],
      "name": "claimOwnership",
      "outputs": [],
      "stateMutability": "nonpayable",
      "type": "function"
    },
    {
      "inputs": [
        {
          "internalType": "uint256[]",
          "name": "pids",
          "type": "uint256[]"
        }
      ],
      "name": "massUpdatePools",
      "outputs": [],
      "stateMutability": "nonpayable",
      "type": "function"
    },
    {
      "inputs": [
        {
          "internalType": "uint256",
          "name": "pid",
          "type": "uint256"
        },
        {
          "internalType": "address",
          "name": "_user",
          "type": "address"
        },
        {
          "internalType": "address",
          "name": "to",
          "type": "address"
        },
        {
          "internalType": "uint256",
          "name": "",
          "type": "uint256"
        },
        {
          "internalType": "uint256",
          "name": "lpToken",
          "type": "uint256"
        }
      ],
      "name": "onDiffusionReward",
      "outputs": [],
      "stateMutability": "nonpayable",
      "type": "function"
    },
    {
      "inputs": [],
      "name": "owner",
      "outputs": [
        {
          "internalType": "address",
          "name": "",
          "type": "address"
        }
      ],
      "stateMutability": "view",
      "type": "function"
    },
    {
      "inputs": [],
      "name": "pendingOwner",
      "outputs": [
        {
          "internalType": "address",
          "name": "",
          "type": "address"
        }
      ],
      "stateMutability": "view",
      "type": "function"
    },
    {
      "inputs": [
        {
          "internalType": "uint256",
          "name": "_pid",
          "type": "uint256"
        },
        {
          "internalType": "address",
          "name": "_user",
          "type": "address"
        }
      ],
      "name": "pendingToken",
      "outputs": [
        {
          "internalType": "uint256",
          "name": "pending",
          "type": "uint256"
        }
      ],
      "stateMutability": "view",
      "type": "function"
    },
    {
      "inputs": [
        {
          "internalType": "uint256",
          "name": "pid",
          "type": "uint256"
        },
        {
          "internalType": "address",
          "name": "user",
          "type": "address"
        },
        {
          "internalType": "uint256",
          "name": "",
          "type": "uint256"
        }
      ],
      "name": "pendingTokens",
      "outputs": [
        {
          "internalType": "contract IERC20[]",
          "name": "rewardTokens",
          "type": "address[]"
        },
        {
          "internalType": "uint256[]",
          "name": "rewardAmounts",
          "type": "uint256[]"
        }
      ],
      "stateMutability": "view",
      "type": "function"
    },
    {
      "inputs": [
        {
          "internalType": "uint256",
          "name": "",
          "type": "uint256"
        }
      ],
      "name": "poolIds",
      "outputs": [
        {
          "internalType": "uint256",
          "name": "",
          "type": "uint256"
        }
      ],
      "stateMutability": "view",
      "type": "function"
    },
    {
      "inputs": [
        {
          "internalType": "uint256",
          "name": "",
          "type": "uint256"
        }
      ],
      "name": "poolInfo",
      "outputs": [
        {
          "internalType": "uint128",
          "name": "accDiffusionPerShare",
          "type": "uint128"
        },
        {
          "internalType": "uint64",
          "name": "lastRewardTime",
          "type": "uint64"
        },
        {
          "internalType": "uint64",
          "name": "allocPoint",
          "type": "uint64"
        }
      ],
      "stateMutability": "view",
      "type": "function"
    },
    {
      "inputs": [],
      "name": "poolLength",
      "outputs": [
        {
          "internalType": "uint256",
          "name": "pools",
          "type": "uint256"
        }
      ],
      "stateMutability": "view",
      "type": "function"
    },
    {
      "inputs": [
        {
          "internalType": "address",
          "name": "token",
          "type": "address"
        },
        {
          "internalType": "uint256",
          "name": "amount",
          "type": "uint256"
        },
        {
          "internalType": "address payable",
          "name": "to",
          "type": "address"
        }
      ],
      "name": "reclaimTokens",
      "outputs": [],
      "stateMutability": "nonpayable",
      "type": "function"
    },
    {
      "inputs": [],
      "name": "rewardPerSecond",
      "outputs": [
        {
          "internalType": "uint256",
          "name": "",
          "type": "uint256"
        }
      ],
      "stateMutability": "view",
      "type": "function"
    },
    {
      "inputs": [
        {
          "internalType": "uint256",
          "name": "_pid",
          "type": "uint256"
        },
        {
          "internalType": "uint256",
          "name": "_allocPoint",
          "type": "uint256"
        }
      ],
      "name": "set",
      "outputs": [],
      "stateMutability": "nonpayable",
      "type": "function"
    },
    {
      "inputs": [
        {
          "internalType": "uint256",
          "name": "_rewardPerSecond",
          "type": "uint256"
        }
      ],
      "name": "setRewardPerSecond",
      "outputs": [],
      "stateMutability": "nonpayable",
      "type": "function"
    },
    {
      "inputs": [
        {
          "internalType": "address",
          "name": "newOwner",
          "type": "address"
        },
        {
          "internalType": "bool",
          "name": "direct",
          "type": "bool"
        },
        {
          "internalType": "bool",
          "name": "renounce",
          "type": "bool"
        }
      ],
      "name": "transferOwnership",
      "outputs": [],
      "stateMutability": "nonpayable",
      "type": "function"
    },
    {
      "inputs": [
        {
          "internalType": "uint256",
          "name": "pid",
          "type": "uint256"
        }
      ],
      "name": "updatePool",
      "outputs": [
        {
          "components": [
            {
              "internalType": "uint128",
              "name": "accDiffusionPerShare",
              "type": "uint128"
            },
            {
              "internalType": "uint64",
              "name": "lastRewardTime",
              "type": "uint64"
            },
            {
              "internalType": "uint64",
              "name": "allocPoint",
              "type": "uint64"
            }
          ],
          "internalType": "struct ComplexRewarderTime.PoolInfo",
          "name": "pool",
          "type": "tuple"
        }
      ],
      "stateMutability": "nonpayable",
      "type": "function"
    },
    {
      "inputs": [
        {
          "internalType": "uint256",
          "name": "",
          "type": "uint256"
        },
        {
          "internalType": "address",
          "name": "",
          "type": "address"
        }
      ],
      "name": "userInfo",
      "outputs": [
        {
          "internalType": "uint256",
          "name": "amount",
          "type": "uint256"
        },
        {
          "internalType": "uint256",
          "name": "rewardDebt",
          "type": "uint256"
        },
        {
          "internalType": "uint256",
          "name": "unpaidRewards",
          "type": "uint256"
        }
      ],
      "stateMutability": "view",
      "type": "function"
    }
  ],
  "bytecode": "0x60c06040523480156200001157600080fd5b5060405162001b5d38038062001b5d83398101604081905262000034916200009e565b600080546001600160a01b0319163390811782556040519091907f8be0079c531659141344cd1fd0a4f28419497f9722a3daafe3b4186f6b6457e0908290a36001600160601b0319606093841b811660805260069290925590911b1660a0526001600755620000fe565b600080600060608486031215620000b3578283fd5b8351620000c081620000e5565b602085015160408601519194509250620000da81620000e5565b809150509250925092565b6001600160a01b0381168114620000fb57600080fd5b50565b60805160601c60a05160601c611a126200014b6000398061053252806105c7528061084752806108dc5280610ec2525080610e115280610fa4528061105552806110965250611a126000f3fe608060405234801561001057600080fd5b50600436106101165760003560e01c806369883b4e116100a257806393f1a40b1161007157806393f1a40b14610227578063c1ea386814610249578063d63b3c491461025c578063e30c39781461027d578063ef0864e61461028557610116565b806369883b4e146101e4578063771602f7146101f75780638da5cb5b1461020a5780638f10369a1461021f57610116565b806348e43af4116100e957806348e43af4146101835780634e71e0c81461019657806351eb05a61461019e57806357a5b58c146101be57806366da5815146101d157610116565b8063078dfbe71461011b578063081e3eda146101305780631526fe271461014e5780631ab06ee514610170575b600080fd5b61012e61012936600461136e565b610298565b005b610138610387565b604051610145919061196d565b60405180910390f35b61016161015c36600461149b565b61038d565b60405161014593929190611943565b61012e61017e366004611582565b6103c4565b6101386101913660046114cb565b6104a3565b61012e610741565b6101b16101ac36600461149b565b6107ce565b604051610145919061190a565b61012e6101cc3660046113ee565b610acc565b61012e6101df36600461149b565b610b02565b6101386101f236600461149b565b610b6c565b61012e610205366004611582565b610b8a565b610212610d20565b60405161014591906115e4565b610138610d2f565b61023a6102353660046114cb565b610d35565b60405161014593929190611976565b61012e6102573660046113b8565b610d61565b61026f61026a36600461154b565b610de9565b604051610145929190611611565b610212610ea8565b61012e6102933660046114fa565b610eb7565b6000546001600160a01b031633146102cb5760405162461bcd60e51b81526004016102c290611812565b60405180910390fd5b8115610366576001600160a01b0383161515806102e55750805b6103015760405162461bcd60e51b81526004016102c290611775565b600080546040516001600160a01b03808716939216917f8be0079c531659141344cd1fd0a4f28419497f9722a3daafe3b4186f6b6457e091a3600080546001600160a01b0385166001600160a01b031991821617909155600180549091169055610382565b600180546001600160a01b0319166001600160a01b0385161790555b505050565b60035490565b6002602052600090815260409020546001600160801b038116906001600160401b03600160801b8204811691600160c01b90041683565b6000546001600160a01b031633146103ee5760405162461bcd60e51b81526004016102c290611812565b60008281526002602052604090205460055461042591839161041f91600160c01b90046001600160401b0316611158565b90611181565b600555610431816111a4565b6000838152600260205260409081902080546001600160401b0393909316600160c01b026001600160c01b03909316929092179091555182907f942cc7e17a17c164bd977f32ab8c54265d5b9d481e4e352bf874f1e568874e7c9061049790849061196d565b60405180910390a25050565b60006104ad61134e565b506000838152600260209081526040808320815160608101835290546001600160801b0380821683526001600160401b03600160801b8304811684870152600160c01b9092049091168284015287855260048085528386206001600160a01b03808a1688529552838620835194516378ed5d1f60e01b815293969095949092169391927f0000000000000000000000000000000000000000000000000000000000000000909216916378ed5d1f91610567918b910161196d565b60206040518083038186803b15801561057f57600080fd5b505afa158015610593573d6000803e3d6000fd5b505050506040513d601f19601f820116820180604052508101906105b7919061147f565b6001600160a01b03166370a082317f00000000000000000000000000000000000000000000000000000000000000006040518263ffffffff1660e01b815260040161060291906115e4565b60206040518083038186803b15801561061a57600080fd5b505afa15801561062e573d6000803e3d6000fd5b505050506040513d601f19601f8201168201806040525081019061065291906114b3565b905083602001516001600160401b03164211801561066f57508015155b156106fb57600061069685602001516001600160401b03164261115890919063ffffffff16565b905060006005546106c987604001516001600160401b03166106c3600654866111d190919063ffffffff16565b906111d1565b816106d057fe5b0490506106f6836106e68364e8d4a510006111d1565b816106ed57fe5b86919004611181565b935050505b610736836002015461041f856001015464e8d4a510006107288789600001546111d190919063ffffffff16565b8161072f57fe5b0490611158565b979650505050505050565b6001546001600160a01b031633811461076c5760405162461bcd60e51b81526004016102c290611847565b600080546040516001600160a01b03808516939216917f8be0079c531659141344cd1fd0a4f28419497f9722a3daafe3b4186f6b6457e091a3600080546001600160a01b039092166001600160a01b0319928316179055600180549091169055565b6107d661134e565b50600081815260026020908152604091829020825160608101845290546001600160801b03811682526001600160401b03600160801b82048116938301849052600160c01b9091041692810192909252421115610ac7576040516378ed5d1f60e01b81526000906001600160a01b037f000000000000000000000000000000000000000000000000000000000000000016906378ed5d1f9061087c90869060040161196d565b60206040518083038186803b15801561089457600080fd5b505afa1580156108a8573d6000803e3d6000fd5b505050506040513d601f19601f820116820180604052508101906108cc919061147f565b6001600160a01b03166370a082317f00000000000000000000000000000000000000000000000000000000000000006040518263ffffffff1660e01b815260040161091791906115e4565b60206040518083038186803b15801561092f57600080fd5b505afa158015610943573d6000803e3d6000fd5b505050506040513d601f19601f8201168201806040525081019061096791906114b3565b90508015610a0a57600061099183602001516001600160401b03164261115890919063ffffffff16565b905060006005546109be85604001516001600160401b03166106c3600654866111d190919063ffffffff16565b816109c557fe5b0490506109fc6109eb846109de8464e8d4a510006111d1565b816109e557fe5b04611208565b85516001600160801b031690611231565b6001600160801b0316845250505b610a13426111a4565b6001600160401b03908116602084810191825260008681526002909152604090819020855181549351838801516001600160801b03199095166001600160801b0383161767ffffffffffffffff60801b1916600160801b82881602176001600160c01b0316600160c01b95909616949094029490941790555185927f0fc9545022a542541ad085d091fb09a2ab36fee366a4576ab63714ea907ad35392610abd929091869161198c565b60405180910390a2505b919050565b8060005b81811015610afc57610af3848483818110610ae757fe5b905060200201356107ce565b50600101610ad0565b50505050565b6000546001600160a01b03163314610b2c5760405162461bcd60e51b81526004016102c290611812565b60068190556040517fde89cb17ac7f58f94792b3e91e086ed85403819c24ceea882491f960ccb1a27890610b6190839061196d565b60405180910390a150565b60038181548110610b7957fe5b600091825260209091200154905081565b6000546001600160a01b03163314610bb45760405162461bcd60e51b81526004016102c290611812565b600081815260026020526040902054600160801b90046001600160401b031615610bf05760405162461bcd60e51b81526004016102c2906116d0565b6005544290610bff9084611181565b60055560408051606081019091526000815260208101610c1e836111a4565b6001600160401b03168152602001610c35856111a4565b6001600160401b0390811690915260008481526002602090815260408083208551815493870151968301518616600160c01b026001600160c01b0397909616600160801b0267ffffffffffffffff60801b196001600160801b039092166001600160801b031990951694909417169290921794909416929092179091556003805460018101825591527fc2575a0e9e593c00f959f8c92f12db2869c3395a3b0502d05e2516446f71f85b018390555182907f38410508059921573ab9ebdca2a5034be738d236366b8f32de4434ea95ed3c8190610d1390869061196d565b60405180910390a2505050565b6000546001600160a01b031681565b60065481565b600460209081526000928352604080842090915290825290208054600182015460029092015490919083565b6000546001600160a01b03163314610d8b5760405162461bcd60e51b81526004016102c290611812565b6001600160a01b038316610dd5576040516001600160a01b0382169083156108fc029084906000818181858888f19350505050158015610dcf573d6000803e3d6000fd5b50610382565b6103826001600160a01b0384168284611260565b60408051600180825281830190925260609182918291602080830190803683370190505090507f000000000000000000000000000000000000000000000000000000000000000081600081518110610e3d57fe5b6001600160a01b039290921660209283029190910190910152604080516001808252818301909252606091816020016020820280368337019050509050610e8487876104a3565b81600081518110610e9157fe5b602090810291909101015290969095509350505050565b6001546001600160a01b031681565b336001600160a01b037f00000000000000000000000000000000000000000000000000000000000000001614610eff5760405162461bcd60e51b81526004016102c290611734565b600754600114610f215760405162461bcd60e51b81526004016102c2906118b3565b6002600755610f2e61134e565b610f37866107ce565b60008781526004602090815260408083206001600160a01b038a1684529091528120805492935091156110c757610f9e826002015461041f846001015464e8d4a5100061072888600001516001600160801b031688600001546111d190919063ffffffff16565b905060007f00000000000000000000000000000000000000000000000000000000000000006001600160a01b03166370a08231306040518263ffffffff1660e01b8152600401610fee91906115e4565b60206040518083038186803b15801561100657600080fd5b505afa15801561101a573d6000803e3d6000fd5b505050506040513d601f19601f8201168201806040525081019061103e91906114b3565b9050808211156110895761107c6001600160a01b037f0000000000000000000000000000000000000000000000000000000000000000168883611260565b80820360028401556110c5565b6110bd6001600160a01b037f0000000000000000000000000000000000000000000000000000000000000000168884611260565b600060028401555b505b838255825164e8d4a51000906110e79086906001600160801b03166111d1565b816110ee57fe5b048260010181905550856001600160a01b031688886001600160a01b03167f2ece88ca2bc08dd018db50e1d25a20bf1241e5fab1c396caa51f01a54bd2f75b85600201548503604051611141919061196d565b60405180910390a450506001600755505050505050565b8082038281111561117b5760405162461bcd60e51b81526004016102c2906116a1565b92915050565b8181018181101561117b5760405162461bcd60e51b81526004016102c2906117db565b60006001600160401b038211156111cd5760405162461bcd60e51b81526004016102c29061187c565b5090565b60008115806111ec575050808202828282816111e957fe5b04145b61117b5760405162461bcd60e51b81526004016102c2906118d3565b60006001600160801b038211156111cd5760405162461bcd60e51b81526004016102c2906117a4565b8181016001600160801b03808316908216101561117b5760405162461bcd60e51b81526004016102c2906117db565b60006060846001600160a01b031663a9059cbb85856040516024016112869291906115f8565b6040516020818303038152906040529060e01b6020820180516001600160e01b0383818316178352505050506040516112bf91906115ab565b6000604051808303816000865af19150503d80600081146112fc576040519150601f19603f3d011682016040523d82523d6000602084013e611301565b606091505b509150915081801561132b57508051158061132b57508080602001905181019061132b919061145c565b6113475760405162461bcd60e51b81526004016102c2906116fd565b5050505050565b604080516060810182526000808252602082018190529181019190915290565b600080600060608486031215611382578283fd5b833561138d816119b6565b9250602084013561139d816119ce565b915060408401356113ad816119ce565b809150509250925092565b6000806000606084860312156113cc578283fd5b83356113d7816119b6565b92506020840135915060408401356113ad816119b6565b60008060208385031215611400578182fd5b82356001600160401b0380821115611416578384fd5b818501915085601f830112611429578384fd5b813581811115611437578485fd5b866020808302850101111561144a578485fd5b60209290920196919550909350505050565b60006020828403121561146d578081fd5b8151611478816119ce565b9392505050565b600060208284031215611490578081fd5b8151611478816119b6565b6000602082840312156114ac578081fd5b5035919050565b6000602082840312156114c4578081fd5b5051919050565b600080604083850312156114dd578182fd5b8235915060208301356114ef816119b6565b809150509250929050565b600080600080600060a08688031215611511578081fd5b853594506020860135611523816119b6565b93506040860135611533816119b6565b94979396509394606081013594506080013592915050565b60008060006060848603121561155f578283fd5b833592506020840135611571816119b6565b929592945050506040919091013590565b60008060408385031215611594578182fd5b50508035926020909101359150565b815260200190565b60008251815b818110156115cb57602081860181015185830152016115b1565b818111156115d95782828501525b509190910192915050565b6001600160a01b0391909116815260200190565b6001600160a01b03929092168252602082015260400190565b604080825283519082018190526000906020906060840190828701845b828110156116535781516001600160a01b03168452928401929084019060010161162e565b5050508381038285015280855161166a818461196d565b91508387019250845b81811015611694576116868385516115a3565b938501939250600101611673565b5090979650505050505050565b602080825260159082015274426f72696e674d6174683a20556e646572666c6f7760581b604082015260600190565b602080825260139082015272506f6f6c20616c72656164792065786973747360681b604082015260600190565b6020808252601c908201527f426f72696e6745524332303a205472616e73666572206661696c656400000000604082015260600190565b60208082526021908201527f4f6e6c79204d4356322063616e2063616c6c20746869732066756e6374696f6e6040820152601760f91b606082015260800190565b6020808252601590820152744f776e61626c653a207a65726f206164647265737360581b604082015260600190565b6020808252601c908201527f426f72696e674d6174683a2075696e74313238204f766572666c6f7700000000604082015260600190565b60208082526018908201527f426f72696e674d6174683a20416464204f766572666c6f770000000000000000604082015260600190565b6020808252818101527f4f776e61626c653a2063616c6c6572206973206e6f7420746865206f776e6572604082015260600190565b6020808252818101527f4f776e61626c653a2063616c6c657220213d2070656e64696e67206f776e6572604082015260600190565b6020808252601b908201527f426f72696e674d6174683a2075696e743634204f766572666c6f770000000000604082015260600190565b6020808252600690820152651313d0d2d15160d21b604082015260600190565b60208082526018908201527f426f72696e674d6174683a204d756c204f766572666c6f770000000000000000604082015260600190565b81516001600160801b031681526020808301516001600160401b0390811691830191909152604092830151169181019190915260600190565b6001600160801b039390931683526001600160401b03918216602084015216604082015260600190565b90815260200190565b9283526020830191909152604082015260600190565b6001600160401b0393909316835260208301919091526001600160801b0316604082015260600190565b6001600160a01b03811681146119cb57600080fd5b50565b80151581146119cb57600080fdfea26469706673582212206da905526a3b77ed339bedf68587a46df3d422a16fcea02401348578e6b571a164736f6c634300060c0033",
  "linkReferences": {},
  "deployedLinkReferences": {}
}