{
  "_format": "hh-sol-artifact-1",
  "contractName": "ComplexRewarderTime",
  "sourceName": "contracts/ComplexRewarderTime.sol",
  "abi": [
    {
      "inputs": [
        {
          "internalType": "contract IERC20",
          "name": "_rewardToken",
          "type": "address"
        },
        {
          "internalType": "uint256",
          "name": "_rewardPerSecond",
          "type": "uint256"
        },
        {
          "internalType": "address",
          "name": "_MASTERCHEF_V2",
          "type": "address"
        }
      ],
      "stateMutability": "nonpayable",
      "type": "constructor"
    },
    {
      "anonymous": false,
      "inputs": [],
      "name": "LogInit",
      "type": "event"
    },
    {
      "anonymous": false,
      "inputs": [
        {
          "indexed": true,
          "internalType": "address",
          "name": "user",
          "type": "address"
        },
        {
          "indexed": true,
          "internalType": "uint256",
          "name": "pid",
          "type": "uint256"
        },
        {
          "indexed": false,
          "internalType": "uint256",
          "name": "amount",
          "type": "uint256"
        },
        {
          "indexed": true,
          "internalType": "address",
          "name": "to",
          "type": "address"
        }
      ],
      "name": "LogOnReward",
      "type": "event"
    },
    {
      "anonymous": false,
      "inputs": [
        {
          "indexed": true,
          "internalType": "uint256",
          "name": "pid",
          "type": "uint256"
        },
        {
          "indexed": false,
          "internalType": "uint256",
          "name": "allocPoint",
          "type": "uint256"
        }
      ],
      "name": "LogPoolAddition",
      "type": "event"
    },
    {
      "anonymous": false,
      "inputs": [
        {
          "indexed": false,
          "internalType": "uint256",
          "name": "rewardPerSecond",
          "type": "uint256"
        }
      ],
      "name": "LogRewardPerSecond",
      "type": "event"
    },
    {
      "anonymous": false,
      "inputs": [
        {
          "indexed": true,
          "internalType": "uint256",
          "name": "pid",
          "type": "uint256"
        },
        {
          "indexed": false,
          "internalType": "uint256",
          "name": "allocPoint",
          "type": "uint256"
        }
      ],
      "name": "LogSetPool",
      "type": "event"
    },
    {
      "anonymous": false,
      "inputs": [
        {
          "indexed": true,
          "internalType": "uint256",
          "name": "pid",
          "type": "uint256"
        },
        {
          "indexed": false,
          "internalType": "uint64",
          "name": "lastRewardTime",
          "type": "uint64"
        },
        {
          "indexed": false,
          "internalType": "uint256",
          "name": "lpSupply",
          "type": "uint256"
        },
        {
          "indexed": false,
          "internalType": "uint256",
          "name": "accDiffusionPerShare",
          "type": "uint256"
        }
      ],
      "name": "LogUpdatePool",
      "type": "event"
    },
    {
      "anonymous": false,
      "inputs": [
        {
          "indexed": true,
          "internalType": "address",
          "name": "previousOwner",
          "type": "address"
        },
        {
          "indexed": true,
          "internalType": "address",
          "name": "newOwner",
          "type": "address"
        }
      ],
      "name": "OwnershipTransferred",
      "type": "event"
    },
    {
      "inputs": [
        {
          "internalType": "uint256",
          "name": "allocPoint",
          "type": "uint256"
        },
        {
          "internalType": "uint256",
          "name": "_pid",
          "type": "uint256"
        }
      ],
      "name": "add",
      "outputs": [],
      "stateMutability": "nonpayable",
      "type": "function"
    },
    {
      "inputs": [],
      "name": "claimOwnership",
      "outputs": [],
      "stateMutability": "nonpayable",
      "type": "function"
    },
    {
      "inputs": [
        {
          "internalType": "uint256[]",
          "name": "pids",
          "type": "uint256[]"
        }
      ],
      "name": "massUpdatePools",
      "outputs": [],
      "stateMutability": "nonpayable",
      "type": "function"
    },
    {
      "inputs": [
        {
          "internalType": "uint256",
          "name": "pid",
          "type": "uint256"
        },
        {
          "internalType": "address",
          "name": "_user",
          "type": "address"
        },
        {
          "internalType": "address",
          "name": "to",
          "type": "address"
        },
        {
          "internalType": "uint256",
          "name": "",
          "type": "uint256"
        },
        {
          "internalType": "uint256",
          "name": "lpToken",
          "type": "uint256"
        }
      ],
      "name": "onDiffusionReward",
      "outputs": [],
      "stateMutability": "nonpayable",
      "type": "function"
    },
    {
      "inputs": [],
      "name": "owner",
      "outputs": [
        {
          "internalType": "address",
          "name": "",
          "type": "address"
        }
      ],
      "stateMutability": "view",
      "type": "function"
    },
    {
      "inputs": [],
      "name": "pendingOwner",
      "outputs": [
        {
          "internalType": "address",
          "name": "",
          "type": "address"
        }
      ],
      "stateMutability": "view",
      "type": "function"
    },
    {
      "inputs": [
        {
          "internalType": "uint256",
          "name": "_pid",
          "type": "uint256"
        },
        {
          "internalType": "address",
          "name": "_user",
          "type": "address"
        }
      ],
      "name": "pendingToken",
      "outputs": [
        {
          "internalType": "uint256",
          "name": "pending",
          "type": "uint256"
        }
      ],
      "stateMutability": "view",
      "type": "function"
    },
    {
      "inputs": [
        {
          "internalType": "uint256",
          "name": "pid",
          "type": "uint256"
        },
        {
          "internalType": "address",
          "name": "user",
          "type": "address"
        },
        {
          "internalType": "uint256",
          "name": "",
          "type": "uint256"
        }
      ],
      "name": "pendingTokens",
      "outputs": [
        {
          "internalType": "contract IERC20[]",
          "name": "rewardTokens",
          "type": "address[]"
        },
        {
          "internalType": "uint256[]",
          "name": "rewardAmounts",
          "type": "uint256[]"
        }
      ],
      "stateMutability": "view",
      "type": "function"
    },
    {
      "inputs": [
        {
          "internalType": "uint256",
          "name": "",
          "type": "uint256"
        }
      ],
      "name": "poolIds",
      "outputs": [
        {
          "internalType": "uint256",
          "name": "",
          "type": "uint256"
        }
      ],
      "stateMutability": "view",
      "type": "function"
    },
    {
      "inputs": [
        {
          "internalType": "uint256",
          "name": "",
          "type": "uint256"
        }
      ],
      "name": "poolInfo",
      "outputs": [
        {
          "internalType": "uint128",
          "name": "accDiffusionPerShare",
          "type": "uint128"
        },
        {
          "internalType": "uint64",
          "name": "lastRewardTime",
          "type": "uint64"
        },
        {
          "internalType": "uint64",
          "name": "allocPoint",
          "type": "uint64"
        }
      ],
      "stateMutability": "view",
      "type": "function"
    },
    {
      "inputs": [],
      "name": "poolLength",
      "outputs": [
        {
          "internalType": "uint256",
          "name": "pools",
          "type": "uint256"
        }
      ],
      "stateMutability": "view",
      "type": "function"
    },
    {
      "inputs": [
        {
          "internalType": "address",
          "name": "token",
          "type": "address"
        },
        {
          "internalType": "uint256",
          "name": "amount",
          "type": "uint256"
        },
        {
          "internalType": "address payable",
          "name": "to",
          "type": "address"
        }
      ],
      "name": "reclaimTokens",
      "outputs": [],
      "stateMutability": "nonpayable",
      "type": "function"
    },
    {
      "inputs": [],
      "name": "rewardPerSecond",
      "outputs": [
        {
          "internalType": "uint256",
          "name": "",
          "type": "uint256"
        }
      ],
      "stateMutability": "view",
      "type": "function"
    },
    {
      "inputs": [
        {
          "internalType": "uint256",
          "name": "_pid",
          "type": "uint256"
        },
        {
          "internalType": "uint256",
          "name": "_allocPoint",
          "type": "uint256"
        }
      ],
      "name": "set",
      "outputs": [],
      "stateMutability": "nonpayable",
      "type": "function"
    },
    {
      "inputs": [
        {
          "internalType": "uint256",
          "name": "_rewardPerSecond",
          "type": "uint256"
        }
      ],
      "name": "setRewardPerSecond",
      "outputs": [],
      "stateMutability": "nonpayable",
      "type": "function"
    },
    {
      "inputs": [],
      "name": "totalAllocPoint",
      "outputs": [
        {
          "internalType": "uint256",
          "name": "",
          "type": "uint256"
        }
      ],
      "stateMutability": "view",
      "type": "function"
    },
    {
      "inputs": [
        {
          "internalType": "address",
          "name": "newOwner",
          "type": "address"
        },
        {
          "internalType": "bool",
          "name": "direct",
          "type": "bool"
        },
        {
          "internalType": "bool",
          "name": "renounce",
          "type": "bool"
        }
      ],
      "name": "transferOwnership",
      "outputs": [],
      "stateMutability": "nonpayable",
      "type": "function"
    },
    {
      "inputs": [
        {
          "internalType": "uint256",
          "name": "pid",
          "type": "uint256"
        }
      ],
      "name": "updatePool",
      "outputs": [
        {
          "components": [
            {
              "internalType": "uint128",
              "name": "accDiffusionPerShare",
              "type": "uint128"
            },
            {
              "internalType": "uint64",
              "name": "lastRewardTime",
              "type": "uint64"
            },
            {
              "internalType": "uint64",
              "name": "allocPoint",
              "type": "uint64"
            }
          ],
          "internalType": "struct ComplexRewarderTime.PoolInfo",
          "name": "pool",
          "type": "tuple"
        }
      ],
      "stateMutability": "nonpayable",
      "type": "function"
    },
    {
      "inputs": [
        {
          "internalType": "uint256",
          "name": "",
          "type": "uint256"
        },
        {
          "internalType": "address",
          "name": "",
          "type": "address"
        }
      ],
      "name": "userInfo",
      "outputs": [
        {
          "internalType": "uint256",
          "name": "amount",
          "type": "uint256"
        },
        {
          "internalType": "uint256",
          "name": "rewardDebt",
          "type": "uint256"
        },
        {
          "internalType": "uint256",
          "name": "unpaidRewards",
          "type": "uint256"
        }
      ],
      "stateMutability": "view",
      "type": "function"
    }
  ],
  "bytecode": "0x60c06040523480156200001157600080fd5b5060405162001b7638038062001b7683398101604081905262000034916200009e565b600080546001600160a01b0319163390811782556040519091907f8be0079c531659141344cd1fd0a4f28419497f9722a3daafe3b4186f6b6457e0908290a36001600160601b0319606093841b811660805260069290925590911b1660a0526001600755620000fe565b600080600060608486031215620000b3578283fd5b8351620000c081620000e5565b602085015160408601519194509250620000da81620000e5565b809150509250925092565b6001600160a01b0381168114620000fb57600080fd5b50565b60805160601c60a05160601c611a2b6200014b6000398061054b52806105e0528061086052806108f55280610edb525080610e2a5280610fbd528061106e52806110af5250611a2b6000f3fe608060405234801561001057600080fd5b50600436106101215760003560e01c806366da5815116100ad57806393f1a40b1161007157806393f1a40b1461023a578063c1ea38681461025c578063d63b3c491461026f578063e30c397814610290578063ef0864e61461029857610121565b806366da5815146101e457806369883b4e146101f7578063771602f71461020a5780638da5cb5b1461021d5780638f10369a1461023257610121565b80631ab06ee5116100f45780631ab06ee51461018357806348e43af4146101965780634e71e0c8146101a957806351eb05a6146101b157806357a5b58c146101d157610121565b8063078dfbe714610126578063081e3eda1461013b5780631526fe271461015957806317caf6f11461017b575b600080fd5b610139610134366004611387565b6102ab565b005b61014361039a565b6040516101509190611986565b60405180910390f35b61016c6101673660046114b4565b6103a0565b6040516101509392919061195c565b6101436103d7565b61013961019136600461159b565b6103dd565b6101436101a43660046114e4565b6104bc565b61013961075a565b6101c46101bf3660046114b4565b6107e7565b6040516101509190611923565b6101396101df366004611407565b610ae5565b6101396101f23660046114b4565b610b1b565b6101436102053660046114b4565b610b85565b61013961021836600461159b565b610ba3565b610225610d39565b60405161015091906115fd565b610143610d48565b61024d6102483660046114e4565b610d4e565b6040516101509392919061198f565b61013961026a3660046113d1565b610d7a565b61028261027d366004611564565b610e02565b60405161015092919061162a565b610225610ec1565b6101396102a6366004611513565b610ed0565b6000546001600160a01b031633146102de5760405162461bcd60e51b81526004016102d59061182b565b60405180910390fd5b8115610379576001600160a01b0383161515806102f85750805b6103145760405162461bcd60e51b81526004016102d59061178e565b600080546040516001600160a01b03808716939216917f8be0079c531659141344cd1fd0a4f28419497f9722a3daafe3b4186f6b6457e091a3600080546001600160a01b0385166001600160a01b031991821617909155600180549091169055610395565b600180546001600160a01b0319166001600160a01b0385161790555b505050565b60035490565b6002602052600090815260409020546001600160801b038116906001600160401b03600160801b8204811691600160c01b90041683565b60055481565b6000546001600160a01b031633146104075760405162461bcd60e51b81526004016102d59061182b565b60008281526002602052604090205460055461043e91839161043891600160c01b90046001600160401b0316611171565b9061119a565b60055561044a816111bd565b6000838152600260205260409081902080546001600160401b0393909316600160c01b026001600160c01b03909316929092179091555182907f942cc7e17a17c164bd977f32ab8c54265d5b9d481e4e352bf874f1e568874e7c906104b0908490611986565b60405180910390a25050565b60006104c6611367565b506000838152600260209081526040808320815160608101835290546001600160801b0380821683526001600160401b03600160801b8304811684870152600160c01b9092049091168284015287855260048085528386206001600160a01b03808a1688529552838620835194516378ed5d1f60e01b815293969095949092169391927f0000000000000000000000000000000000000000000000000000000000000000909216916378ed5d1f91610580918b9101611986565b60206040518083038186803b15801561059857600080fd5b505afa1580156105ac573d6000803e3d6000fd5b505050506040513d601f19601f820116820180604052508101906105d09190611498565b6001600160a01b03166370a082317f00000000000000000000000000000000000000000000000000000000000000006040518263ffffffff1660e01b815260040161061b91906115fd565b60206040518083038186803b15801561063357600080fd5b505afa158015610647573d6000803e3d6000fd5b505050506040513d601f19601f8201168201806040525081019061066b91906114cc565b905083602001516001600160401b03164211801561068857508015155b156107145760006106af85602001516001600160401b03164261117190919063ffffffff16565b905060006005546106e287604001516001600160401b03166106dc600654866111ea90919063ffffffff16565b906111ea565b816106e957fe5b04905061070f836106ff8364e8d4a510006111ea565b8161070657fe5b8691900461119a565b935050505b61074f8360020154610438856001015464e8d4a510006107418789600001546111ea90919063ffffffff16565b8161074857fe5b0490611171565b979650505050505050565b6001546001600160a01b03163381146107855760405162461bcd60e51b81526004016102d590611860565b600080546040516001600160a01b03808516939216917f8be0079c531659141344cd1fd0a4f28419497f9722a3daafe3b4186f6b6457e091a3600080546001600160a01b039092166001600160a01b0319928316179055600180549091169055565b6107ef611367565b50600081815260026020908152604091829020825160608101845290546001600160801b03811682526001600160401b03600160801b82048116938301849052600160c01b9091041692810192909252421115610ae0576040516378ed5d1f60e01b81526000906001600160a01b037f000000000000000000000000000000000000000000000000000000000000000016906378ed5d1f90610895908690600401611986565b60206040518083038186803b1580156108ad57600080fd5b505afa1580156108c1573d6000803e3d6000fd5b505050506040513d601f19601f820116820180604052508101906108e59190611498565b6001600160a01b03166370a082317f00000000000000000000000000000000000000000000000000000000000000006040518263ffffffff1660e01b815260040161093091906115fd565b60206040518083038186803b15801561094857600080fd5b505afa15801561095c573d6000803e3d6000fd5b505050506040513d601f19601f8201168201806040525081019061098091906114cc565b90508015610a235760006109aa83602001516001600160401b03164261117190919063ffffffff16565b905060006005546109d785604001516001600160401b03166106dc600654866111ea90919063ffffffff16565b816109de57fe5b049050610a15610a04846109f78464e8d4a510006111ea565b816109fe57fe5b04611221565b85516001600160801b03169061124a565b6001600160801b0316845250505b610a2c426111bd565b6001600160401b03908116602084810191825260008681526002909152604090819020855181549351838801516001600160801b03199095166001600160801b0383161767ffffffffffffffff60801b1916600160801b82881602176001600160c01b0316600160c01b95909616949094029490941790555185927f0fc9545022a542541ad085d091fb09a2ab36fee366a4576ab63714ea907ad35392610ad692909186916119a5565b60405180910390a2505b919050565b8060005b81811015610b1557610b0c848483818110610b0057fe5b905060200201356107e7565b50600101610ae9565b50505050565b6000546001600160a01b03163314610b455760405162461bcd60e51b81526004016102d59061182b565b60068190556040517fde89cb17ac7f58f94792b3e91e086ed85403819c24ceea882491f960ccb1a27890610b7a908390611986565b60405180910390a150565b60038181548110610b9257fe5b600091825260209091200154905081565b6000546001600160a01b03163314610bcd5760405162461bcd60e51b81526004016102d59061182b565b600081815260026020526040902054600160801b90046001600160401b031615610c095760405162461bcd60e51b81526004016102d5906116e9565b6005544290610c18908461119a565b60055560408051606081019091526000815260208101610c37836111bd565b6001600160401b03168152602001610c4e856111bd565b6001600160401b0390811690915260008481526002602090815260408083208551815493870151968301518616600160c01b026001600160c01b0397909616600160801b0267ffffffffffffffff60801b196001600160801b039092166001600160801b031990951694909417169290921794909416929092179091556003805460018101825591527fc2575a0e9e593c00f959f8c92f12db2869c3395a3b0502d05e2516446f71f85b018390555182907f38410508059921573ab9ebdca2a5034be738d236366b8f32de4434ea95ed3c8190610d2c908690611986565b60405180910390a2505050565b6000546001600160a01b031681565b60065481565b600460209081526000928352604080842090915290825290208054600182015460029092015490919083565b6000546001600160a01b03163314610da45760405162461bcd60e51b81526004016102d59061182b565b6001600160a01b038316610dee576040516001600160a01b0382169083156108fc029084906000818181858888f19350505050158015610de8573d6000803e3d6000fd5b50610395565b6103956001600160a01b0384168284611279565b60408051600180825281830190925260609182918291602080830190803683370190505090507f000000000000000000000000000000000000000000000000000000000000000081600081518110610e5657fe5b6001600160a01b039290921660209283029190910190910152604080516001808252818301909252606091816020016020820280368337019050509050610e9d87876104bc565b81600081518110610eaa57fe5b602090810291909101015290969095509350505050565b6001546001600160a01b031681565b336001600160a01b037f00000000000000000000000000000000000000000000000000000000000000001614610f185760405162461bcd60e51b81526004016102d59061174d565b600754600114610f3a5760405162461bcd60e51b81526004016102d5906118cc565b6002600755610f47611367565b610f50866107e7565b60008781526004602090815260408083206001600160a01b038a1684529091528120805492935091156110e057610fb78260020154610438846001015464e8d4a5100061074188600001516001600160801b031688600001546111ea90919063ffffffff16565b905060007f00000000000000000000000000000000000000000000000000000000000000006001600160a01b03166370a08231306040518263ffffffff1660e01b815260040161100791906115fd565b60206040518083038186803b15801561101f57600080fd5b505afa158015611033573d6000803e3d6000fd5b505050506040513d601f19601f8201168201806040525081019061105791906114cc565b9050808211156110a2576110956001600160a01b037f0000000000000000000000000000000000000000000000000000000000000000168883611279565b80820360028401556110de565b6110d66001600160a01b037f0000000000000000000000000000000000000000000000000000000000000000168884611279565b600060028401555b505b838255825164e8d4a51000906111009086906001600160801b03166111ea565b8161110757fe5b048260010181905550856001600160a01b031688886001600160a01b03167f2ece88ca2bc08dd018db50e1d25a20bf1241e5fab1c396caa51f01a54bd2f75b8560020154850360405161115a9190611986565b60405180910390a450506001600755505050505050565b808203828111156111945760405162461bcd60e51b81526004016102d5906116ba565b92915050565b818101818110156111945760405162461bcd60e51b81526004016102d5906117f4565b60006001600160401b038211156111e65760405162461bcd60e51b81526004016102d590611895565b5090565b60008115806112055750508082028282828161120257fe5b04145b6111945760405162461bcd60e51b81526004016102d5906118ec565b60006001600160801b038211156111e65760405162461bcd60e51b81526004016102d5906117bd565b8181016001600160801b0380831690821610156111945760405162461bcd60e51b81526004016102d5906117f4565b60006060846001600160a01b031663a9059cbb858560405160240161129f929190611611565b6040516020818303038152906040529060e01b6020820180516001600160e01b0383818316178352505050506040516112d891906115c4565b6000604051808303816000865af19150503d8060008114611315576040519150601f19603f3d011682016040523d82523d6000602084013e61131a565b606091505b50915091508180156113445750805115806113445750808060200190518101906113449190611475565b6113605760405162461bcd60e51b81526004016102d590611716565b5050505050565b604080516060810182526000808252602082018190529181019190915290565b60008060006060848603121561139b578283fd5b83356113a6816119cf565b925060208401356113b6816119e7565b915060408401356113c6816119e7565b809150509250925092565b6000806000606084860312156113e5578283fd5b83356113f0816119cf565b92506020840135915060408401356113c6816119cf565b60008060208385031215611419578182fd5b82356001600160401b038082111561142f578384fd5b818501915085601f830112611442578384fd5b813581811115611450578485fd5b8660208083028501011115611463578485fd5b60209290920196919550909350505050565b600060208284031215611486578081fd5b8151611491816119e7565b9392505050565b6000602082840312156114a9578081fd5b8151611491816119cf565b6000602082840312156114c5578081fd5b5035919050565b6000602082840312156114dd578081fd5b5051919050565b600080604083850312156114f6578182fd5b823591506020830135611508816119cf565b809150509250929050565b600080600080600060a0868803121561152a578081fd5b85359450602086013561153c816119cf565b9350604086013561154c816119cf565b94979396509394606081013594506080013592915050565b600080600060608486031215611578578283fd5b83359250602084013561158a816119cf565b929592945050506040919091013590565b600080604083850312156115ad578182fd5b50508035926020909101359150565b815260200190565b60008251815b818110156115e457602081860181015185830152016115ca565b818111156115f25782828501525b509190910192915050565b6001600160a01b0391909116815260200190565b6001600160a01b03929092168252602082015260400190565b604080825283519082018190526000906020906060840190828701845b8281101561166c5781516001600160a01b031684529284019290840190600101611647565b505050838103828501528085516116838184611986565b91508387019250845b818110156116ad5761169f8385516115bc565b93850193925060010161168c565b5090979650505050505050565b602080825260159082015274426f72696e674d6174683a20556e646572666c6f7760581b604082015260600190565b602080825260139082015272506f6f6c20616c72656164792065786973747360681b604082015260600190565b6020808252601c908201527f426f72696e6745524332303a205472616e73666572206661696c656400000000604082015260600190565b60208082526021908201527f4f6e6c79204d4356322063616e2063616c6c20746869732066756e6374696f6e6040820152601760f91b606082015260800190565b6020808252601590820152744f776e61626c653a207a65726f206164647265737360581b604082015260600190565b6020808252601c908201527f426f72696e674d6174683a2075696e74313238204f766572666c6f7700000000604082015260600190565b60208082526018908201527f426f72696e674d6174683a20416464204f766572666c6f770000000000000000604082015260600190565b6020808252818101527f4f776e61626c653a2063616c6c6572206973206e6f7420746865206f776e6572604082015260600190565b6020808252818101527f4f776e61626c653a2063616c6c657220213d2070656e64696e67206f776e6572604082015260600190565b6020808252601b908201527f426f72696e674d6174683a2075696e743634204f766572666c6f770000000000604082015260600190565b6020808252600690820152651313d0d2d15160d21b604082015260600190565b60208082526018908201527f426f72696e674d6174683a204d756c204f766572666c6f770000000000000000604082015260600190565b81516001600160801b031681526020808301516001600160401b0390811691830191909152604092830151169181019190915260600190565b6001600160801b039390931683526001600160401b03918216602084015216604082015260600190565b90815260200190565b9283526020830191909152604082015260600190565b6001600160401b0393909316835260208301919091526001600160801b0316604082015260600190565b6001600160a01b03811681146119e457600080fd5b50565b80151581146119e457600080fdfea26469706673582212207237a56b71c7b073f7847994fd2dc07478370070f5cc38044fa7ecc182aa881c64736f6c634300060c0033",
  "linkReferences": {},
  "deployedLinkReferences": {}
}