{
  "_format": "hh-sol-artifact-1",
  "contractName": "XYZSwapPair",
  "sourceName": "contracts/XYZSwapPair.sol",
  "abi": [
    {
      "inputs": [],
      "stateMutability": "nonpayable",
      "type": "constructor"
    },
    {
      "anonymous": false,
      "inputs": [
        {
          "indexed": true,
          "internalType": "address",
          "name": "owner",
          "type": "address"
        },
        {
          "indexed": true,
          "internalType": "address",
          "name": "spender",
          "type": "address"
        },
        {
          "indexed": false,
          "internalType": "uint256",
          "name": "value",
          "type": "uint256"
        }
      ],
      "name": "Approval",
      "type": "event"
    },
    {
      "anonymous": false,
      "inputs": [
        {
          "indexed": true,
          "internalType": "address",
          "name": "sender",
          "type": "address"
        },
        {
          "indexed": false,
          "internalType": "uint256",
          "name": "amount0",
          "type": "uint256"
        },
        {
          "indexed": false,
          "internalType": "uint256",
          "name": "amount1",
          "type": "uint256"
        },
        {
          "indexed": true,
          "internalType": "address",
          "name": "to",
          "type": "address"
        }
      ],
      "name": "Burn",
      "type": "event"
    },
    {
      "anonymous": false,
      "inputs": [
        {
          "indexed": true,
          "internalType": "address",
          "name": "sender",
          "type": "address"
        },
        {
          "indexed": false,
          "internalType": "uint256",
          "name": "amount0",
          "type": "uint256"
        },
        {
          "indexed": false,
          "internalType": "uint256",
          "name": "amount1",
          "type": "uint256"
        }
      ],
      "name": "Mint",
      "type": "event"
    },
    {
      "anonymous": false,
      "inputs": [
        {
          "indexed": true,
          "internalType": "address",
          "name": "sender",
          "type": "address"
        },
        {
          "indexed": false,
          "internalType": "uint256",
          "name": "amount0In",
          "type": "uint256"
        },
        {
          "indexed": false,
          "internalType": "uint256",
          "name": "amount1In",
          "type": "uint256"
        },
        {
          "indexed": false,
          "internalType": "uint256",
          "name": "amount0Out",
          "type": "uint256"
        },
        {
          "indexed": false,
          "internalType": "uint256",
          "name": "amount1Out",
          "type": "uint256"
        },
        {
          "indexed": true,
          "internalType": "address",
          "name": "to",
          "type": "address"
        },
        {
          "indexed": false,
          "internalType": "uint256",
          "name": "feeInPrecision",
          "type": "uint256"
        }
      ],
      "name": "Swap",
      "type": "event"
    },
    {
      "anonymous": false,
      "inputs": [
        {
          "indexed": false,
          "internalType": "uint256",
          "name": "vReserve0",
          "type": "uint256"
        },
        {
          "indexed": false,
          "internalType": "uint256",
          "name": "vReserve1",
          "type": "uint256"
        },
        {
          "indexed": false,
          "internalType": "uint256",
          "name": "reserve0",
          "type": "uint256"
        },
        {
          "indexed": false,
          "internalType": "uint256",
          "name": "reserve1",
          "type": "uint256"
        }
      ],
      "name": "Sync",
      "type": "event"
    },
    {
      "anonymous": false,
      "inputs": [
        {
          "indexed": true,
          "internalType": "address",
          "name": "from",
          "type": "address"
        },
        {
          "indexed": true,
          "internalType": "address",
          "name": "to",
          "type": "address"
        },
        {
          "indexed": false,
          "internalType": "uint256",
          "name": "value",
          "type": "uint256"
        }
      ],
      "name": "Transfer",
      "type": "event"
    },
    {
      "anonymous": false,
      "inputs": [
        {
          "indexed": false,
          "internalType": "uint256",
          "name": "shortEMA",
          "type": "uint256"
        },
        {
          "indexed": false,
          "internalType": "uint256",
          "name": "longEMA",
          "type": "uint256"
        },
        {
          "indexed": false,
          "internalType": "uint128",
          "name": "lastBlockVolume",
          "type": "uint128"
        },
        {
          "indexed": false,
          "internalType": "uint256",
          "name": "skipBlock",
          "type": "uint256"
        }
      ],
      "name": "UpdateEMA",
      "type": "event"
    },
    {
      "inputs": [],
      "name": "MINIMUM_LIQUIDITY",
      "outputs": [
        {
          "internalType": "uint256",
          "name": "",
          "type": "uint256"
        }
      ],
      "stateMutability": "view",
      "type": "function"
    },
    {
      "inputs": [],
      "name": "PERMIT_TYPEHASH",
      "outputs": [
        {
          "internalType": "bytes32",
          "name": "",
          "type": "bytes32"
        }
      ],
      "stateMutability": "view",
      "type": "function"
    },
    {
      "inputs": [
        {
          "internalType": "address",
          "name": "owner",
          "type": "address"
        },
        {
          "internalType": "address",
          "name": "spender",
          "type": "address"
        }
      ],
      "name": "allowance",
      "outputs": [
        {
          "internalType": "uint256",
          "name": "",
          "type": "uint256"
        }
      ],
      "stateMutability": "view",
      "type": "function"
    },
    {
      "inputs": [
        {
          "internalType": "address",
          "name": "spender",
          "type": "address"
        },
        {
          "internalType": "uint256",
          "name": "amount",
          "type": "uint256"
        }
      ],
      "name": "approve",
      "outputs": [
        {
          "internalType": "bool",
          "name": "",
          "type": "bool"
        }
      ],
      "stateMutability": "nonpayable",
      "type": "function"
    },
    {
      "inputs": [
        {
          "internalType": "address",
          "name": "account",
          "type": "address"
        }
      ],
      "name": "balanceOf",
      "outputs": [
        {
          "internalType": "uint256",
          "name": "",
          "type": "uint256"
        }
      ],
      "stateMutability": "view",
      "type": "function"
    },
    {
      "inputs": [
        {
          "internalType": "address",
          "name": "to",
          "type": "address"
        }
      ],
      "name": "burn",
      "outputs": [
        {
          "internalType": "uint256",
          "name": "amount0",
          "type": "uint256"
        },
        {
          "internalType": "uint256",
          "name": "amount1",
          "type": "uint256"
        }
      ],
      "stateMutability": "nonpayable",
      "type": "function"
    },
    {
      "inputs": [
        {
          "internalType": "bytes32",
          "name": "c__0x2260575d",
          "type": "bytes32"
        }
      ],
      "name": "c_0x2260575d",
      "outputs": [],
      "stateMutability": "pure",
      "type": "function"
    },
    {
      "inputs": [
        {
          "internalType": "bytes32",
          "name": "c__0x840dcd32",
          "type": "bytes32"
        }
      ],
      "name": "c_0x840dcd32",
      "outputs": [],
      "stateMutability": "pure",
      "type": "function"
    },
    {
      "inputs": [
        {
          "internalType": "bytes32",
          "name": "c__0x9c08fa02",
          "type": "bytes32"
        }
      ],
      "name": "c_0x9c08fa02",
      "outputs": [],
      "stateMutability": "pure",
      "type": "function"
    },
    {
      "inputs": [],
      "name": "decimals",
      "outputs": [
        {
          "internalType": "uint8",
          "name": "",
          "type": "uint8"
        }
      ],
      "stateMutability": "view",
      "type": "function"
    },
    {
      "inputs": [
        {
          "internalType": "address",
          "name": "spender",
          "type": "address"
        },
        {
          "internalType": "uint256",
          "name": "subtractedValue",
          "type": "uint256"
        }
      ],
      "name": "decreaseAllowance",
      "outputs": [
        {
          "internalType": "bool",
          "name": "",
          "type": "bool"
        }
      ],
      "stateMutability": "nonpayable",
      "type": "function"
    },
    {
      "inputs": [],
      "name": "domainSeparator",
      "outputs": [
        {
          "internalType": "bytes32",
          "name": "",
          "type": "bytes32"
        }
      ],
      "stateMutability": "view",
      "type": "function"
    },
    {
      "inputs": [],
      "name": "factory",
      "outputs": [
        {
          "internalType": "contract IXYZSwapFactory",
          "name": "",
          "type": "address"
        }
      ],
      "stateMutability": "view",
      "type": "function"
    },
    {
      "inputs": [],
      "name": "getReserves",
      "outputs": [
        {
          "internalType": "uint112",
          "name": "_reserve0",
          "type": "uint112"
        },
        {
          "internalType": "uint112",
          "name": "_reserve1",
          "type": "uint112"
        },
        {
          "internalType": "uint32",
          "name": "_blockTimestampLast",
          "type": "uint32"
        }
      ],
      "stateMutability": "view",
      "type": "function"
    },
    {
      "inputs": [],
      "name": "getTradeInfo",
      "outputs": [
        {
          "internalType": "uint112",
          "name": "_reserve0",
          "type": "uint112"
        },
        {
          "internalType": "uint112",
          "name": "_reserve1",
          "type": "uint112"
        },
        {
          "internalType": "uint112",
          "name": "_vReserve0",
          "type": "uint112"
        },
        {
          "internalType": "uint112",
          "name": "_vReserve1",
          "type": "uint112"
        },
        {
          "internalType": "uint256",
          "name": "feeInPrecision",
          "type": "uint256"
        }
      ],
      "stateMutability": "view",
      "type": "function"
    },
    {
      "inputs": [],
      "name": "getVolumeTrendData",
      "outputs": [
        {
          "internalType": "uint128",
          "name": "_shortEMA",
          "type": "uint128"
        },
        {
          "internalType": "uint128",
          "name": "_longEMA",
          "type": "uint128"
        },
        {
          "internalType": "uint128",
          "name": "_currentBlockVolume",
          "type": "uint128"
        },
        {
          "internalType": "uint128",
          "name": "_lastTradeBlock",
          "type": "uint128"
        }
      ],
      "stateMutability": "view",
      "type": "function"
    },
    {
      "inputs": [
        {
          "internalType": "address",
          "name": "spender",
          "type": "address"
        },
        {
          "internalType": "uint256",
          "name": "addedValue",
          "type": "uint256"
        }
      ],
      "name": "increaseAllowance",
      "outputs": [
        {
          "internalType": "bool",
          "name": "",
          "type": "bool"
        }
      ],
      "stateMutability": "nonpayable",
      "type": "function"
    },
    {
      "inputs": [
        {
          "internalType": "contract IERC20",
          "name": "_token0",
          "type": "address"
        },
        {
          "internalType": "contract IERC20",
          "name": "_token1",
          "type": "address"
        },
        {
          "internalType": "uint32",
          "name": "_ampBps",
          "type": "uint32"
        }
      ],
      "name": "initialize",
      "outputs": [],
      "stateMutability": "nonpayable",
      "type": "function"
    },
    {
      "inputs": [],
      "name": "kLast",
      "outputs": [
        {
          "internalType": "uint256",
          "name": "",
          "type": "uint256"
        }
      ],
      "stateMutability": "view",
      "type": "function"
    },
    {
      "inputs": [
        {
          "internalType": "address",
          "name": "to",
          "type": "address"
        }
      ],
      "name": "mint",
      "outputs": [
        {
          "internalType": "uint256",
          "name": "liquidity",
          "type": "uint256"
        }
      ],
      "stateMutability": "nonpayable",
      "type": "function"
    },
    {
      "inputs": [],
      "name": "name",
      "outputs": [
        {
          "internalType": "string",
          "name": "",
          "type": "string"
        }
      ],
      "stateMutability": "view",
      "type": "function"
    },
    {
      "inputs": [
        {
          "internalType": "address",
          "name": "",
          "type": "address"
        }
      ],
      "name": "nonces",
      "outputs": [
        {
          "internalType": "uint256",
          "name": "",
          "type": "uint256"
        }
      ],
      "stateMutability": "view",
      "type": "function"
    },
    {
      "inputs": [
        {
          "internalType": "address",
          "name": "owner",
          "type": "address"
        },
        {
          "internalType": "address",
          "name": "spender",
          "type": "address"
        },
        {
          "internalType": "uint256",
          "name": "value",
          "type": "uint256"
        },
        {
          "internalType": "uint256",
          "name": "deadline",
          "type": "uint256"
        },
        {
          "internalType": "uint8",
          "name": "v",
          "type": "uint8"
        },
        {
          "internalType": "bytes32",
          "name": "r",
          "type": "bytes32"
        },
        {
          "internalType": "bytes32",
          "name": "s",
          "type": "bytes32"
        }
      ],
      "name": "permit",
      "outputs": [],
      "stateMutability": "nonpayable",
      "type": "function"
    },
    {
      "inputs": [
        {
          "internalType": "address",
          "name": "to",
          "type": "address"
        }
      ],
      "name": "skim",
      "outputs": [],
      "stateMutability": "nonpayable",
      "type": "function"
    },
    {
      "inputs": [
        {
          "internalType": "uint256",
          "name": "amount0Out",
          "type": "uint256"
        },
        {
          "internalType": "uint256",
          "name": "amount1Out",
          "type": "uint256"
        },
        {
          "internalType": "address",
          "name": "to",
          "type": "address"
        },
        {
          "internalType": "bytes",
          "name": "callbackData",
          "type": "bytes"
        }
      ],
      "name": "swap",
      "outputs": [],
      "stateMutability": "nonpayable",
      "type": "function"
    },
    {
      "inputs": [],
      "name": "symbol",
      "outputs": [
        {
          "internalType": "string",
          "name": "",
          "type": "string"
        }
      ],
      "stateMutability": "view",
      "type": "function"
    },
    {
      "inputs": [],
      "name": "sync",
      "outputs": [],
      "stateMutability": "nonpayable",
      "type": "function"
    },
    {
      "inputs": [],
      "name": "token0",
      "outputs": [
        {
          "internalType": "contract IERC20",
          "name": "",
          "type": "address"
        }
      ],
      "stateMutability": "view",
      "type": "function"
    },
    {
      "inputs": [],
      "name": "token1",
      "outputs": [
        {
          "internalType": "contract IERC20",
          "name": "",
          "type": "address"
        }
      ],
      "stateMutability": "view",
      "type": "function"
    },
    {
      "inputs": [],
      "name": "totalSupply",
      "outputs": [
        {
          "internalType": "uint256",
          "name": "",
          "type": "uint256"
        }
      ],
      "stateMutability": "view",
      "type": "function"
    },
    {
      "inputs": [
        {
          "internalType": "address",
          "name": "recipient",
          "type": "address"
        },
        {
          "internalType": "uint256",
          "name": "amount",
          "type": "uint256"
        }
      ],
      "name": "transfer",
      "outputs": [
        {
          "internalType": "bool",
          "name": "",
          "type": "bool"
        }
      ],
      "stateMutability": "nonpayable",
      "type": "function"
    },
    {
      "inputs": [
        {
          "internalType": "address",
          "name": "sender",
          "type": "address"
        },
        {
          "internalType": "address",
          "name": "recipient",
          "type": "address"
        },
        {
          "internalType": "uint256",
          "name": "amount",
          "type": "uint256"
        }
      ],
      "name": "transferFrom",
      "outputs": [
        {
          "internalType": "bool",
          "name": "",
          "type": "bool"
        }
      ],
      "stateMutability": "nonpayable",
      "type": "function"
    }
  ],
  "bytecode": "0x60806040523480156200001157600080fd5b5060006040518060400160405280600a81526020017f58595a53776170204c50000000000000000000000000000000000000000000008152506040518060400160405280600681526020017f58595a2d4c5000000000000000000000000000000000000000000000000000008152506040518060400160405280600181526020017f310000000000000000000000000000000000000000000000000000000000000081525082828160039080519060200190620000d092919062000802565b508060049080519060200190620000e992919062000802565b506012600560006101000a81548160ff021916908360ff16021790555050506200013c7f628fa44730a11483b8266397577141835b8fe2dd37e72077cfd84f5d6701b47560001b620005fc60201b60201c565b620001707f935c26252ae9e4edd473c8e35012f57eca39d1084cecc2f22410e132f98cb9a360001b620005fc60201b60201c565b620001a47f5b4e11103754d354f8ec5b9005341f05efec6966d5b944d9351fedfdadc5d3df60001b620005fc60201b60201c565b6000620001da7ff59ea69b64b62bbc45f334d6c5edc8fe8cd9fd8173cc62d9bdf9815bbe35991860001b620005fc60201b60201c565b469050620002117f5635cdd3834a6c7e239aad84473bc47ad093ebee62ec7c515a570fd7a5b0c61560001b620005fc60201b60201c565b620002457f3d4eecd446c9d7ffaf0af9abd91196f0d27de9a609c5138310ab01cc9c1234d460001b620005fc60201b60201c565b60405180806200c12a6052913960520190506040518091039020848051906020012083805190602001208330604051602001808681526020018581526020018481526020018381526020018273ffffffffffffffffffffffffffffffffffffffff1673ffffffffffffffffffffffffffffffffffffffff1681526020019550505050505060405160208183030381529060405280519060200120600681905550505050506001600881905550620003257f28a3959734c7558dfe03aa4b26b3751e4a9f738200bf413677e962b1692614b660001b620005ff60201b60201c565b620003597f27be329d0d8ad34953770e74b9b86c5dd61a6de9b7455a7f7915609963bb958760001b620005ff60201b60201c565b6200038d7f35ff9b435b0e68635d7bd7633fdc8978776126d8d2190f5af80d0e86e9d224de60001b620005ff60201b60201c565b80600960006101000a8154816fffffffffffffffffffffffffffffffff02191690836fffffffffffffffffffffffffffffffff160217905550620003fa7fd4f5d837efd261a8425db6699caeaf6198b5b71fb1bbab58cd9e289c25d543c460001b620005ff60201b60201c565b6200042e7fad0dc2a5bcd1991858b646c058eb3650812eb11a7e5b1917e584dad9efd42f3160001b620005ff60201b60201c565b80600960106101000a8154816fffffffffffffffffffffffffffffffff02191690836fffffffffffffffffffffffffffffffff1602179055506200049b7ff1128f989880e7357b16cfc0f49e89402e1a8a6f4d2225c109bc5ff8d4beb01360001b620005ff60201b60201c565b620004cf7f17cb05c5ab9af0f8eb51280b5e9a4159d52569fc5f5faf71344da105b5a023a260001b620005ff60201b60201c565b620004e0436200060260201b60201c565b600a60106101000a8154816fffffffffffffffffffffffffffffffff02191690836fffffffffffffffffffffffffffffffff160217905550506200054d7f839456cefb5f3c6bdd2069e90818b59f3947c8216a9f5509335d194cf80d90ef60001b620007ff60201b60201c565b620005817fa37edbe83030cc6dc0cad6a6c6dead4427e0e3df74fd44cfb07e095ed462936960001b620007ff60201b60201c565b620005b57fb3de9aec7f84736850855d8dcaf85e748a3f8408d367b3cd178859b6b776e2ec60001b620007ff60201b60201c565b33600b60006101000a81548173ffffffffffffffffffffffffffffffffffffffff021916908373ffffffffffffffffffffffffffffffffffffffff160217905550620008b1565b50565b50565b6000620006387fcc44474d4b6cd8f96012b5c786ff3530b459ca5772ea152d1b1bd062b667fe6360001b620005ff60201b60201c565b6200066c7f755bf2215d32a5b44fbbef96abe966792c1876290422d6ec645eeecb28573fef60001b620005ff60201b60201c565b620006a07f8d1c98b36dbe40afd2bb285a4be48e51b03db5b5d52d28cb24ad443726ceb1b460001b620005ff60201b60201c565b620006d47fd1f74c05fd81211b1e033a27eac9b65eac54d93ea04938bdc7d3b5ad305c997a60001b620005ff60201b60201c565b6fffffffffffffffffffffffffffffffff8211156200075b576040517f08c379a00000000000000000000000000000000000000000000000000000000081526004018080602001828103825260108152602001807f6f766572666c6f772075696e743132380000000000000000000000000000000081525060200191505060405180910390fd5b6200078f7f0bfdea64af8b1751a5870d0a9e434b3ecc9d534b6ad47cdce269da831ae220ab60001b620005ff60201b60201c565b620007c37f299b6f7ce26432cf481c09c8dffa9f2d3aa8b9fd8c8650930c02e0372357f0b360001b620005ff60201b60201c565b620007f77fc18152ffe401aa8b6dedef287ac1adf6038a392c9fe44fcbbaf6c0f9619d16b460001b620005ff60201b60201c565b819050919050565b50565b828054600181600116156101000203166002900490600052602060002090601f016020900481019282601f106200084557805160ff191683800117855562000876565b8280016001018555821562000876579182015b828111156200087557825182559160200191906001019062000858565b5b50905062000885919062000889565b5090565b620008ae91905b80821115620008aa57600081600090555060010162000890565b5090565b90565b61b86980620008c16000396000f3fe608060405234801561001057600080fd5b50600436106101f05760003560e01c80637464fc3d1161010f578063bc25cf77116100a2578063d669402711610071578063d669402714610bbd578063dd62ed3e14610c77578063f698da2514610cef578063fff6cae914610d0d576101f0565b8063bc25cf7714610a4c578063c45a015514610a90578063d21220a714610ada578063d505accf14610b24576101f0565b80639f936269116100de5780639f93626914610934578063a457c2d714610962578063a9059cbb146109c8578063ba9a7a5614610a2e576101f0565b80637464fc3d146107dc5780637ecebe00146107fa57806389afcb441461085257806395d89b41146108b1576101f0565b806330adf81f116101875780636a627842116101565780636a6278421461068a5780636ecf2b22146106e25780636f6368a01461075657806370a0823114610784576101f0565b806330adf81f146105b457806330f993f7146105d2578063313ce567146106005780633950935114610624576101f0565b80630d94d50b116101c35780630d94d50b146104035780630dfe1681146104c657806318160ddd1461051057806323b872dd1461052e576101f0565b8063022c0d9f146101f557806306fdde03146102a25780630902f1ac14610325578063095ea7b31461039d575b600080fd5b6102a06004803603608081101561020b57600080fd5b810190808035906020019092919080359060200190929190803573ffffffffffffffffffffffffffffffffffffffff1690602001909291908035906020019064010000000081111561025c57600080fd5b82018360208201111561026e57600080fd5b8035906020019184600183028401116401000000008311171561029057600080fd5b9091929391929390505050610d17565b005b6102aa611feb565b6040518080602001828103825283818151815260200191508051906020019080838360005b838110156102ea5780820151818401526020810190506102cf565b50505050905090810190601f1680156103175780820380516001836020036101000a031916815260200191505b509250505060405180910390f35b61032d61208d565b60405180846dffffffffffffffffffffffffffff166dffffffffffffffffffffffffffff168152602001836dffffffffffffffffffffffffffff166dffffffffffffffffffffffffffff1681526020018263ffffffff1663ffffffff168152602001935050505060405180910390f35b6103e9600480360360408110156103b357600080fd5b81019080803573ffffffffffffffffffffffffffffffffffffffff1690602001909291908035906020019092919050505061221d565b604051808215151515815260200191505060405180910390f35b61040b61223b565b60405180856fffffffffffffffffffffffffffffffff166fffffffffffffffffffffffffffffffff168152602001846fffffffffffffffffffffffffffffffff166fffffffffffffffffffffffffffffffff168152602001836fffffffffffffffffffffffffffffffff166fffffffffffffffffffffffffffffffff168152602001826fffffffffffffffffffffffffffffffff166fffffffffffffffffffffffffffffffff16815260200194505050505060405180910390f35b6104ce612457565b604051808273ffffffffffffffffffffffffffffffffffffffff1673ffffffffffffffffffffffffffffffffffffffff16815260200191505060405180910390f35b61051861247d565b6040518082815260200191505060405180910390f35b61059a6004803603606081101561054457600080fd5b81019080803573ffffffffffffffffffffffffffffffffffffffff169060200190929190803573ffffffffffffffffffffffffffffffffffffffff16906020019092919080359060200190929190505050612487565b604051808215151515815260200191505060405180910390f35b6105bc612560565b6040518082815260200191505060405180910390f35b6105fe600480360360208110156105e857600080fd5b8101908080359060200190929190505050612587565b005b61060861258a565b604051808260ff1660ff16815260200191505060405180910390f35b6106706004803603604081101561063a57600080fd5b81019080803573ffffffffffffffffffffffffffffffffffffffff169060200190929190803590602001909291905050506125a1565b604051808215151515815260200191505060405180910390f35b6106cc600480360360208110156106a057600080fd5b81019080803573ffffffffffffffffffffffffffffffffffffffff169060200190929190505050612654565b6040518082815260200191505060405180910390f35b610754600480360360608110156106f857600080fd5b81019080803573ffffffffffffffffffffffffffffffffffffffff169060200190929190803573ffffffffffffffffffffffffffffffffffffffff169060200190929190803563ffffffff16906020019092919050505061367a565b005b6107826004803603602081101561076c57600080fd5b81019080803590602001909291905050506139c9565b005b6107c66004803603602081101561079a57600080fd5b81019080803573ffffffffffffffffffffffffffffffffffffffff1690602001909291905050506139cc565b6040518082815260200191505060405180910390f35b6107e4613a14565b6040518082815260200191505060405180910390f35b61083c6004803603602081101561081057600080fd5b81019080803573ffffffffffffffffffffffffffffffffffffffff169060200190929190505050613a1a565b6040518082815260200191505060405180910390f35b6108946004803603602081101561086857600080fd5b81019080803573ffffffffffffffffffffffffffffffffffffffff169060200190929190505050613a32565b604051808381526020018281526020019250505060405180910390f35b6108b9614b95565b6040518080602001828103825283818151815260200191508051906020019080838360005b838110156108f95780820151818401526020810190506108de565b50505050905090810190601f1680156109265780820380516001836020036101000a031916815260200191505b509250505060405180910390f35b6109606004803603602081101561094a57600080fd5b8101908080359060200190929190505050614c37565b005b6109ae6004803603604081101561097857600080fd5b81019080803573ffffffffffffffffffffffffffffffffffffffff16906020019092919080359060200190929190505050614c3a565b604051808215151515815260200191505060405180910390f35b610a14600480360360408110156109de57600080fd5b81019080803573ffffffffffffffffffffffffffffffffffffffff16906020019092919080359060200190929190505050614d07565b604051808215151515815260200191505060405180910390f35b610a36614d25565b6040518082815260200191505060405180910390f35b610a8e60048036036020811015610a6257600080fd5b81019080803573ffffffffffffffffffffffffffffffffffffffff169060200190929190505050614d2b565b005b610a9861515a565b604051808273ffffffffffffffffffffffffffffffffffffffff1673ffffffffffffffffffffffffffffffffffffffff16815260200191505060405180910390f35b610ae2615180565b604051808273ffffffffffffffffffffffffffffffffffffffff1673ffffffffffffffffffffffffffffffffffffffff16815260200191505060405180910390f35b610bbb600480360360e0811015610b3a57600080fd5b81019080803573ffffffffffffffffffffffffffffffffffffffff169060200190929190803573ffffffffffffffffffffffffffffffffffffffff1690602001909291908035906020019092919080359060200190929190803560ff16906020019092919080359060200190929190803590602001909291905050506151a6565b005b610bc561577e565b60405180866dffffffffffffffffffffffffffff166dffffffffffffffffffffffffffff168152602001856dffffffffffffffffffffffffffff166dffffffffffffffffffffffffffff168152602001846dffffffffffffffffffffffffffff166dffffffffffffffffffffffffffff168152602001836dffffffffffffffffffffffffffff166dffffffffffffffffffffffffffff1681526020018281526020019550505050505060405180910390f35b610cd960048036036040811015610c8d57600080fd5b81019080803573ffffffffffffffffffffffffffffffffffffffff169060200190929190803573ffffffffffffffffffffffffffffffffffffffff169060200190929190505050615bea565b6040518082815260200191505060405180910390f35b610cf7615c71565b6040518082815260200191505060405180910390f35b610d15615c77565b005b60026008541415610d90576040517f08c379a000000000000000000000000000000000000000000000000000000000815260040180806020018281038252601f8152602001807f5265656e7472616e637947756172643a207265656e7472616e742063616c6c0081525060200191505060405180910390fd5b6002600881905550610dc47faa0c426e48b6889c055bcc4b76654d06e82aed44f8a97f2a342390146bf3dbad60001b614c37565b610df07f709ab6f8e39dba8833db2d0df40be659e4a65fbfff1dc730c45bc897c1d60aba60001b614c37565b610e1c7fa9d8f0686cbbb05bd72f2ff75029f90c8b6a68b018d00bf258c94624be0cd5c660001b614c37565b610e487faaa16bbbae11b68e3b55af021a7e25102ce6be03fcd6d91d8f106a4475073f4260001b614c37565b6000851180610e575750600084115b610eac576040517f08c379a000000000000000000000000000000000000000000000000000000000815260040180806020018281038252602381526020018061b7796023913960400191505060405180910390fd5b610ed87f51aa01938b6de416fd87297e3f8b9104fe428d87cce4971df66530b8b5abbf8660001b614c37565b610f047f0a3377adb430bcb4f8779005e6488eb10c73554f0c51777cc9949dfd73de9e3f60001b614c37565b610f307f6965f7b155d4979521952a41a65590ec0478c1b79d631b7f271b0c838809798560001b614c37565b6000610f3a61b5eb565b610f426163c1565b91509150610f727f01a100a31f284bfdff296a6831e42f59aebcd0ed8213d9b36be359a144007f4260001b614c37565b610f9e7fc97bd01edee9203667626ad75de5c2ef2e3715d0c564a71c66b418b42228d06260001b614c37565b610fca7f929e5672bab6f341a091c9ef04f4afb8b519fc4da11b97743b182422fb36fae460001b614c37565b806000015187108015610fe05750806020015186105b611052576040517f08c379a000000000000000000000000000000000000000000000000000000000815260040180806020018281038252601f8152602001807f58595a537761703a20494e53554646494349454e545f4c49515549444954590081525060200191505060405180910390fd5b61107e7f355a10fb2e667776d4081cf846d450216239846f40750dbd76ee332f236c4c4860001b614c37565b6110aa7f55258626748bc611422d18482bfbd5be948ed5e1c9232af67bb2a2c8ff0f49d760001b614c37565b6110d67f38b59ca8efca8afc09967950db80757187685daacd73388aca2772b6876eec6160001b614c37565b6110de61b5eb565b61110a7f24a4ffe39e00af071b0a588da1986730500d349e910f426d9f1880d965c7360c60001b614c37565b6111367f1f8a4cf32007d26d30b5bbbe94922273bdc7141aa0afe21902bccf7451b6138760001b614c37565b6111627fed51461acba9cdcc7f5273b6fbf79a7f310f3cc7797d2aaa423af5806237362b60001b614c37565b6000600c60009054906101000a900473ffffffffffffffffffffffffffffffffffffffff1690506111b57ff75fd87affc89a723282babc5cae1f45a577cc0113488044f92dac618a8bfc6e60001b614c37565b6111e07ee0648ef083bffe2c26b8745ecfeee0b29f656f0573eb15a9468b2fd626abed60001b614c37565b6000600d60009054906101000a900473ffffffffffffffffffffffffffffffffffffffff1690506112337f659121ccb68a1d47882d80066314dda84cf3b15afa2403bf4c9c77947692c31260001b614c37565b61125f7fbdbdd9b0032751cb602b82343f1fc001fa6a86e1b31cfa3891b77965d47fd5b460001b614c37565b61128b7f46163af4922e237b35b415599a3f54c68a25f8cb9c0dc05721ae435b0eff5af760001b614c37565b8173ffffffffffffffffffffffffffffffffffffffff168873ffffffffffffffffffffffffffffffffffffffff16141580156112f357508073ffffffffffffffffffffffffffffffffffffffff168873ffffffffffffffffffffffffffffffffffffffff1614155b611365576040517f08c379a00000000000000000000000000000000000000000000000000000000081526004018080602001828103825260138152602001807f58595a537761703a20494e56414c49445f544f0000000000000000000000000081525060200191505060405180910390fd5b6113917f3898cbac22b4b61c5f82d0959d8d4659ef01bda9dd619f973e1c50f7d6487d2160001b614c37565b6113bd7f3506f32b6b219d4c07b50e73cc632181e1600a7dfb2943af9b6e96d018a4f46960001b614c37565b6113e97fd0ae0a8838e65eb9be020dc7696c806928358eff4d2c7646ceb001cab13ff54960001b614c37565b60008a11156114795761141d7ec907252a1688a70074c655837ed3cb45b9086e8c32ac4dbc6c65547fa910bc60001b614c37565b6114497f4f27fda1f98c9b7a6ada7c53c68451050187a4db233645151df286e81cd081dc60001b614c37565b611474888b8473ffffffffffffffffffffffffffffffffffffffff166167669092919063ffffffff16565b6114a6565b6114a57f6163acd3fb2fbd727a8b91d90feabbad127131076a43dbf316b79075631bdd3260001b614c37565b5b6114d27fc88a8ddb4339e71358350f129f6742d66cd3487a610ca6fc0c2e27cb92fb402160001b614c37565b6114fe7f77462931bd2f0d29d25895ac6c83c9f9f845d97e2e3e1d21d52d734562d95dc060001b614c37565b600089111561158f576115337fa4752d77e3e43aa0ea7ef14ab4f58437b645404aa189d7a66592840e89eb83ec60001b614c37565b61155f7f9eae3e2332e7f90e975749a454c125f9bfce198de89554f1b63c3e991b66f94a60001b614c37565b61158a888a8373ffffffffffffffffffffffffffffffffffffffff166167669092919063ffffffff16565b6115bc565b6115bb7fb258978c3cc999cfc1508a70adc53ee9ae499e8b84f93ee9f555e5061561b9d760001b614c37565b5b6115e87f82837cc9519631174678c7da189c271257e484dc243b90669f4882f959897a1560001b614c37565b6116147f791160f2a60036c27ad7b2ef538addd9cceaa05281784050612e0af7fdf61f6d60001b614c37565b60008787905011156117845761164c7f6172e3fce75320fb5606c49e7819293a7232217c14a0d05ba7d03825f25e8fee60001b614c37565b6116787fac01024b641372f2bb1e04f1f40cc476b63e87d400f8027f1005f5a56400d9dd60001b614c37565b6116a47fbf9e44532cf3125e73c3b2ef9212ad83536b83d7c03babcfc6e884efac0b57e860001b614c37565b8773ffffffffffffffffffffffffffffffffffffffff1663735c5cad338c8c8b8b6040518663ffffffff1660e01b8152600401808673ffffffffffffffffffffffffffffffffffffffff1673ffffffffffffffffffffffffffffffffffffffff168152602001858152602001848152602001806020018281038252848482818152602001925080828437600081840152601f19601f8201169050808301925050509650505050505050600060405180830381600087803b15801561176757600080fd5b505af115801561177b573d6000803e3d6000fd5b505050506117b1565b6117b07f960292b0a7702b79c7fa9dc5417e5c66a4a362a5209a995c94ad40145e65d8be60001b614c37565b5b6117dd7f7f9feb5021fe38132b97f20fb64c6d1b316275cdde63d3ecc44c7d9f787dc5ac60001b614c37565b6118097fef45f6844d744114027057996a1ec046b9c44c4eb42a9cbd08c40ecafdd31dd960001b614c37565b8173ffffffffffffffffffffffffffffffffffffffff166370a08231306040518263ffffffff1660e01b8152600401808273ffffffffffffffffffffffffffffffffffffffff1673ffffffffffffffffffffffffffffffffffffffff16815260200191505060206040518083038186803b15801561188657600080fd5b505afa15801561189a573d6000803e3d6000fd5b505050506040513d60208110156118b057600080fd5b81019080805190602001909291905050508360000181815250506118f67f320fd7ed08c3f0fe2abf4bdc8f4cdbb02acff896f1095d222395006bd2486e6260001b614c37565b6119227f90386befe8eec621ea78960eeb4037030a1371868a7d8011b554f8090fd1f49660001b614c37565b8073ffffffffffffffffffffffffffffffffffffffff166370a08231306040518263ffffffff1660e01b8152600401808273ffffffffffffffffffffffffffffffffffffffff1673ffffffffffffffffffffffffffffffffffffffff16815260200191505060206040518083038186803b15801561199f57600080fd5b505afa1580156119b3573d6000803e3d6000fd5b505050506040513d60208110156119c957600080fd5b8101908080519060200190929190505050836020018181525050611a0f7f51f50f121900a7f16ad2dc4f5165beb946974ba9eb9c3686b80fedead3132efd60001b614c37565b611a3b7fb7b8c3ee51d181ce67740b3a4c407b0209dce58fdab5db27bb4dadaa75d9feb860001b614c37565b8415611b9657611a6d7fa9aace826cd94725f309c04c4b2efa6b9ce71ebfbb4f06dbcbbd7583c085540560001b614c37565b611a997fc831685d2ce2e217ca4d981b0095f1583a6ef96421ca70335e6a7e237f07057460001b614c37565b611ac57f5e8f081867adcbce83761f9585aa9b5f10ad99b82bff6e0d16cdf42e038ee3ba60001b614c37565b611af68460000151611ae88560000151876040015161681e90919063ffffffff16565b6168a690919063ffffffff16565b836040018181525050611b2b7fe7af9ada6be3a9b4df0875163d9320ddf9737f71ae1f6cb4aface1d34e70030a60001b614c37565b611b577f3017c016523c833c44e941fd1bd938145886311ba3d389abebd66deded6d5a2a60001b614c37565b611b888460200151611b7a8560200151876060015161681e90919063ffffffff16565b6168a690919063ffffffff16565b836060018181525050611bc3565b611bc27f0d8fa0a04c0cde2cfabad3beccae7260fb79a7b8a26072bc31b6dcee5330b53d60001b614c37565b5b5050611bf17fdcfb2388f822822d7a31628846ffb8a5c8eb19f2b2bb43e736bc270e00f1d17160001b614c37565b611c1d7fe5b93fe879d35558dd210b9aa1974b1a0a8127498f2929b3062c51a68c4711ef60001b614c37565b600088836000015103826000015111611c37576000611c45565b888360000151038260000151035b9050611c737fb5117fc9f3a6a9cd24c1092b47aa83ca8194f8859c354aec2ffddf16bc4d506060001b614c37565b611c9f7fe6abfa062ec88f35fbd7cc9299138b1d2d86fc1c956a4ce86be8c6465920d6b960001b614c37565b600088846020015103836020015111611cb9576000611cc7565b888460200151038360200151035b9050611cf57fb26bd6812d9e42c4b2a83238699f5200718834fdc5d6afc7b09923fa797c6c6860001b614c37565b611d217f0e31aa692ffd7fc5f905c2cf177572cb137510a2a8938bf20de6329098e5b48460001b614c37565b611d4d7f03c1010698b75267add86f4e3fdf0564f3db07b00b55242557ae3d6631e5768960001b614c37565b6000821180611d5c5750600081115b611db1576040517f08c379a000000000000000000000000000000000000000000000000000000000815260040180806020018281038252602281526020018061b6c76022913960400191505060405180910390fd5b611ddd7f3fa881a0138f922ea61fe7fe50214fb3baf4a6a2543358afa3d737a68f69209960001b614c37565b611e097f928308a2982e7bcc8c8f90622356a0d052e8b3636092c11c19d3ab17eec69f7860001b614c37565b611e357f450aa3ae0a2300aa4eb9bea41e0506a83fdb336a578ff56486da34d51b8290ab60001b614c37565b6000611e95838388611e4b578760000151611e51565b87604001515b89611e60578860200151611e66565b88606001515b8a611e75578860000151611e7b565b88604001515b8b611e8a578960200151611e90565b89606001515b6168f0565b9050611ec37feb0e2dc9173e4eba3e30428af23189c322a3e7705f67d3b9a2acf2b2f53ded9c60001b614c37565b611eef7fcf22d80fc1b4b15eaeb7e5b2b9cea634feaf0c9c32f859358a257f7e5d8ab1f760001b614c37565b611ef98685616e96565b611f257f93f92c99da2fb10352265acd8df21d356d98993159d305c594a99049a29575e060001b614c37565b611f517f944f41c6db00a1bc5bde15696e56630dac5496610cefdaca1409fbc8616adf3f60001b614c37565b8873ffffffffffffffffffffffffffffffffffffffff163373ffffffffffffffffffffffffffffffffffffffff167f606ecd02b3e3b4778f8e97b2e03351de14224efaa5fa64e62200afc9395c249985858f8f87604051808681526020018581526020018481526020018381526020018281526020019550505050505060405180910390a350505050505060016008819055505050505050565b606060038054600181600116156101000203166002900480601f0160208091040260200160405190810160405280929190818152602001828054600181600116156101000203166002900480156120835780601f1061205857610100808354040283529160200191612083565b820191906000526020600020905b81548152906001019060200180831161206657829003601f168201915b5050505050905090565b60008060006120be7f29d7bfcd303f97fd0ade2eb9aec330a5c3e9cba987c9d3f72a1034b7776a1cdb60001b614c37565b6120ea7fb2be001bc8903d53fbe61d5ad69568d11130cce05eb9d1763660507cb15a3e6c60001b614c37565b6121167f8a0387c1bacd0d699d6f24931f775b4427d9ec1f42c1b4772b3b4d95e7a5417a60001b614c37565b600e60009054906101000a90046dffffffffffffffffffffffffffff1692506121617f0a56a62cae8dbf59a2ea11c04a75bb273f8024846301aca02c99436629c3707d60001b614c37565b61218d7fd2c3cec935607feaa2b42a9fc1a48f6e04c307cb7ee20a93d5a58f3cd3d47ba360001b614c37565b600e809054906101000a90046dffffffffffffffffffffffffffff1691506121d77f711ecb98ace6a3c0539fe44c27daa2c46c76d7d5d267c81a78524c33b857027360001b614c37565b6122037f27c8a1d412280b5af099756b79a70bc0fbf094b12a4da252bf2109a0b5ff018360001b614c37565b600e601c9054906101000a900463ffffffff169050909192565b600061223161222a6173ff565b8484617407565b6001905092915050565b60008060008061226d7f88454618ebaf3272666e4c7f2ce6e2658a4ef3850658114b3a3153a95c0fdebc60001b6139c9565b6122997f53f342e6464a92b8f8f2ab5eb4ea788e7640e5ac37aed56fab397e132b1acd5c60001b6139c9565b6122c57fc2af4f07775bf580e54fb572935fd1dafaaebfd5a9bbcb0a33fb4d47964f90e460001b6139c9565b600960009054906101000a90046fffffffffffffffffffffffffffffffff1693506123127f2a0b64130ed38c2319483ec66c59280291c3295fc5ad51f4a060b53c4d152ae760001b6139c9565b61233e7f55cae0a3b0aa31a89217af2e6ea16fc55f32069b8ab45f9058b8e5e4a51a284e60001b6139c9565b600960109054906101000a90046fffffffffffffffffffffffffffffffff16925061238b7f75cc90569f7e41237c732d292e5d77bfae8635717a169cd40e973700bb6478aa60001b6139c9565b6123b77f99b94a9900b4f9c656733272298d5f7cda5e22bcd7d37a55059b82f3fca8311360001b6139c9565b600a60009054906101000a90046fffffffffffffffffffffffffffffffff1691506124047f8e93f3399c0c75e2f95163a33c6ab72597807d08cae3289da6753eecb110305960001b6139c9565b6124307f315723da5379a7b6f5953668471221876b510cc6b0b65aa135ed29533883914560001b6139c9565b600a60109054906101000a90046fffffffffffffffffffffffffffffffff16905090919293565b600c60009054906101000a900473ffffffffffffffffffffffffffffffffffffffff1681565b6000600254905090565b60006124948484846175fe565b612555846124a06173ff565b6125508560405180606001604052806028815260200161b70a60289139600160008b73ffffffffffffffffffffffffffffffffffffffff1673ffffffffffffffffffffffffffffffffffffffff16815260200190815260200160002060006125066173ff565b73ffffffffffffffffffffffffffffffffffffffff1673ffffffffffffffffffffffffffffffffffffffff168152602001908152602001600020546178bf9092919063ffffffff16565b617407565b600190509392505050565b7f6e71edae12b1b97f4d1f60370fef10105fa2faae0126114a169c64845d6126c960001b81565b50565b6000600560009054906101000a900460ff16905090565b600061264a6125ae6173ff565b8461264585600160006125bf6173ff565b73ffffffffffffffffffffffffffffffffffffffff1673ffffffffffffffffffffffffffffffffffffffff16815260200190815260200160002060008973ffffffffffffffffffffffffffffffffffffffff1673ffffffffffffffffffffffffffffffffffffffff1681526020019081526020016000205461681e90919063ffffffff16565b617407565b6001905092915050565b6000600260085414156126cf576040517f08c379a000000000000000000000000000000000000000000000000000000000815260040180806020018281038252601f8152602001807f5265656e7472616e637947756172643a207265656e7472616e742063616c6c0081525060200191505060405180910390fd5b60026008819055506127037f65fe206f77a579aa53ae6421589eb105a6a80455cf06f5855e0ae108a418ed0f60001b614c37565b61272f7fc7ea4cd0ff8a982c3707034603a718292fea820b690eeb0964aa42d73e2924d160001b614c37565b61275b7fcbd6f6ab7874caabcae275386fd7fe017d8e769aae76873d28501b6829b1aa6d60001b614c37565b600061276561b5eb565b61276d6163c1565b9150915061279d7fb5b7b1a975d7af2681af3ae5731d8609b4c55325371ccf6b554d79d65802a47760001b614c37565b6127c97fc416db0845527d936419ede1b6f7260743f965e6275f6bfe84e466cf858ac98f60001b614c37565b6127d161b5eb565b6127fd7f52be12c6ce726418ee809a97f96279c657b43de6d81ad5c5df6b1b82d5a8a22f60001b614c37565b6128297fc35c0e475f3a0c9c4c80c7d8a8ac516e92ea1e353c116dbf9c26a898759ccf8260001b614c37565b600c60009054906101000a900473ffffffffffffffffffffffffffffffffffffffff1673ffffffffffffffffffffffffffffffffffffffff166370a08231306040518263ffffffff1660e01b8152600401808273ffffffffffffffffffffffffffffffffffffffff1673ffffffffffffffffffffffffffffffffffffffff16815260200191505060206040518083038186803b1580156128c857600080fd5b505afa1580156128dc573d6000803e3d6000fd5b505050506040513d60208110156128f257600080fd5b81019080805190602001909291905050508160000181815250506129387f5aa1896cac8a05a97c1fe211c79bcba81512de8ff11361a0742a40b15507323360001b614c37565b6129647fd0ff18310a34f6c1dce14b3ef04cf22c6b88927e5a5bdd61ce15c23e7b7c013960001b614c37565b600d60009054906101000a900473ffffffffffffffffffffffffffffffffffffffff1673ffffffffffffffffffffffffffffffffffffffff166370a08231306040518263ffffffff1660e01b8152600401808273ffffffffffffffffffffffffffffffffffffffff1673ffffffffffffffffffffffffffffffffffffffff16815260200191505060206040518083038186803b158015612a0357600080fd5b505afa158015612a17573d6000803e3d6000fd5b505050506040513d6020811015612a2d57600080fd5b8101908080519060200190929190505050816020018181525050612a737f75b4db30563145e4699e6bf5a0e8e42df726bf05879b3635e68179fe23d183c860001b614c37565b612a9f7f5f197fa29c58eb0e9926ca0d5ec2bf6381a752ae05ef299e57d5c50fa94767e860001b614c37565b6000612abc836000015183600001516168a690919063ffffffff16565b9050612aea7f1f1dabf7e2fdfabe3a8cd1c08ef32ed1556b833e4650270fc1b56be4903d42c660001b614c37565b612b167fee0a110ac6b7bdf75f296b6915fdf50155dd70306f403a65edeb1ff11c4f7a5060001b614c37565b6000612b33846020015184602001516168a690919063ffffffff16565b9050612b617fddab95e686b928429d720f90e9ab58261f3d113b10c255fc672ad2e52aa76ebc60001b614c37565b612b8d7fd3623236b3a7e2fd7e91d4911bffbab4b420a63e8ffc6656585f5c7c4e2c0faa60001b614c37565b6000612b99868661797f565b9050612bc77f4147bfdc6bf5272779cd53981178dd2dd144c1c61d0cbea8a63b4ee82ffee5ad60001b614c37565b612bf37fa05caedec19f94da459b83dc8540127d71f9dd23c7fff3959d1b2e09a17e070e60001b614c37565b6000612bfd61247d565b9050612c2b7f8c7a1cc3a3ec74470d0f95bd6a68afe0b41cfd925f85a6f124d90ccfde6fa46f60001b614c37565b612c577f724502d35a44c0eb839987929bd7ef703900851e87e30a8dd82d106887ab5b3460001b614c37565b6000811415612fdc57612c8c7facbe037b182ae048ae3fd4b5547dce9c51c5503e1c4f3d3d2f05bceb43ce539e60001b614c37565b612cb87fd721af147ae96294a31bf80a3f37bbb346fc77f0ccb98974d20a7b7d927e293d60001b614c37565b612ce47f073fd57dc6eaae7c939babc4ab82d0f446203b323f9031d1c370e93791cbc09a60001b614c37565b8615612e9d57612d167fd4d2c768bdc946c242a71c9b12d6a9df37f5668d489d386a75e2fc79f957aeb760001b614c37565b612d427fcc35a4b735440d24c13c08fc74e832df0624b1bd9a0ec0e3af30b7f8b72574c560001b614c37565b612d6e7f52b678a0e5ce8d1640901c9ae557304562a4a538a37367c449afdb6f188132fa60001b614c37565b6000600f60009054906101000a900463ffffffff169050612db17f14ffe3563a257d68fa5979484e1c538c80fd80a6708167e5bc93238c561d8e9060001b614c37565b612ddd7f1b2370d0ef3fa8d2a5d9577e43c763b5862551e4b80b89e81b6ca107eb8e262260001b614c37565b612710612dfd8263ffffffff16886000015161820590919063ffffffff16565b81612e0457fe5b04866040018181525050612e3a7fd9dfd007eb70a36419f23a925f6189f2f47e10d54abe4b1e5a39d501f1a4d66f60001b614c37565b612e667fb0760704c47373124a16847ea76b90300123cfd1a1b46e03eeb08d5d6630090560001b614c37565b612710612e868263ffffffff16886020015161820590919063ffffffff16565b81612e8d57fe5b0486606001818152505050612eca565b612ec97f9b5f340b7a54f5b34ae500d24d66d9432d53943b34fc120871aaa8336c521d3c60001b614c37565b5b612ef67fee72101030405eb64f8723edc61b82de30196f877a639b19811f26e741aa8a0560001b614c37565b612f227fc9b5ebabc3e3a5f09ca581b2f47a3e651485cd659f497d005dd9f656babde4db60001b614c37565b612f516103e8612f43612f3e868861820590919063ffffffff16565b61828b565b6168a690919063ffffffff16565b9750612f7f7fedbb8a3808f3a09043862532b521a660749dd055fe85710ed827631b5d015afe60001b614c37565b612fab7f75efdbf4de2fdb8b5e26f88f67148dd5b560e20314c54c838ad6eebd0c0a38e960001b614c37565b612fd77fffffffffffffffffffffffffffffffffffffffffffffffffffffffffffffffff6103e8618662565b6132f3565b6130087f2a61f4ffb78420f637cf0841300516c45f71939d96dbba7df9dcca7ea9f11b7560001b614c37565b6130347fb098a056dce068cd6648d4fce6dbd3638f3add1cc2d7d91f66e90a6b7294c22c60001b614c37565b6130607fd4cee45328a00b2aa288610c01feb0f30f441fc966ae950ebf1c7060ff64790960001b614c37565b6130a8866000015161307b838761820590919063ffffffff16565b8161308257fe5b04876020015161309b848761820590919063ffffffff16565b816130a257fe5b04618829565b97506130d67f747e17cc524e96383c86bc5bcef2faeaf2acc4248750b571e1188f45c8120e4f60001b614c37565b6131027fd3418bab3af1138ca9a0213875ccd86a1704d19f4b02698b59ec0ed6337b521460001b614c37565b86156132c5576131347fcf9e0e629b582590d3c7ee06ced54c3fd161e777e8c79618cc6898753a88a65560001b614c37565b6131607fb0a506371c0e608515fe7ac779f0fcee6267c61dfa0aaea445bf83652faf68bc60001b614c37565b61318c7f71c87084ce6308e8da1cb55bb620ca42f3166333012d87760f44f49f7eda5fe160001b614c37565b60006131a1828a61681e90919063ffffffff16565b90506131cf7f26a58a3ac7dfbdf0f5b1fc508ddbdadd01df1da355d2aac59bf78ecfd33a53b760001b614c37565b6131fb7f23f6366b8e28fceb68f651d247309a94adee155cfb97116aaa43dec2ea65f30060001b614c37565b61322882613216838a6040015161820590919063ffffffff16565b8161321d57fe5b048760000151618842565b86604001818152505061325d7f962e0e3ba055ee46b729a5866820158063ec711168f66d4280ded2b447dd2fd760001b614c37565b6132897f41e6013a20e39c60eecc2fa3e76110bfe0250243bb7839dbf4036c649fe8b0d760001b614c37565b6132b6826132a4838a6060015161820590919063ffffffff16565b816132ab57fe5b048760200151618842565b866060018181525050506132f2565b6132f17f0cb882226b2c38b87a6084bc8dfd74673c7982193208c08c0eab88adf94a7f7560001b614c37565b5b5b61331f7ff8a9c9b9dfa1c0e2cad8b39f6bc7c3a988f1e8fc5a2774abff92266e716dba7f60001b614c37565b61334b7f88c1022aac6fed019132b2da22015c6a77e348793cf44f4d2ed84fbdbc8ab07e60001b614c37565b6133777fe2e35d1b8e9be2b74c331d94e4e79f996648ea055bedb9b36ecefe0498f1237060001b614c37565b600088116133d0576040517f08c379a000000000000000000000000000000000000000000000000000000000815260040180806020018281038252602681526020018061b7536026913960400191505060405180910390fd5b6133fc7f3abb8dff35395cd6f0b7f29990b586161e653953985f8ece67f92f18f41e568060001b614c37565b6134287fc05f13606222a680b71ba724b926ed9b677f3c29e0fedcea8dd0b84a1696276b60001b614c37565b6134547fece89b0011e57757a1343dfe273b39dc905bc76cfbae3b375067c8ce05c52aa360001b614c37565b61345e8989618662565b61348a7f87441b0da46b36d228aba13d221b60745cfc696dd7b3b20f886fbd238b45be3d60001b614c37565b6134b67f1a6c87e45ef9f9867fbbe8bc2083a69927850ef89b844ee687e11b09c7d61d3260001b614c37565b6134c08786616e96565b6134ec7f9aa01cd71adb6a736b9b382acd8e49c64a8092baa7418b2e2cb362f4a79a714960001b614c37565b6135187f4db547710a22fa62fa27102898a69eea2fa9aaab6b25c04ea4a072a94803985060001b614c37565b811561358b5761354a7ff39243c7a95d8278b77a4ce705d88bd533deecb9bc7a94994e3d7ad7c2d4b1bc60001b614c37565b6135767f9fabfb2f64a52dd75fbd7dc997b55471105cd206fcd928f5bfca70367f0234de60001b614c37565b613580878661885c565b6010819055506135b8565b6135b77f5c76874e2f3306d0fe4ba8f60bb97455c5965a12242675d432e865db2e81d4d160001b614c37565b5b6135e47fe034409979961c1cc9a4f564f402160a736d9aadce3166b7f5b03a3c90d33e8560001b614c37565b6136107f6729b4715bc92178873505f3d6f7173dd50ab9f40074adaaa3bce8a98d44fa9260001b614c37565b3373ffffffffffffffffffffffffffffffffffffffff167f4c209b5fc8ad50758f13e2e1088ba56a560dff690a1c6fef26394f4c03821c4f8585604051808381526020018281526020019250505060405180910390a2505050505050506001600881905550919050565b6136a67ff8a0ca3fd283342e8ee44e79b80ae6864fece3889ae4bbb5a3d07a94375523c360001b614c37565b6136d27f3132d58a89c94ba3cda96165c17207e0d0cc5546a232a49a7f729ce61961b04460001b614c37565b6136fe7fe38985d9bff35482260b63e311b7bc9fd055f186143076815a9d217c69f2487260001b614c37565b61372a7fba34713ded0b6ebb903e8c5f8e0a81490cc00d73ee6dbadf1fb2275c119b737460001b614c37565b600b60009054906101000a900473ffffffffffffffffffffffffffffffffffffffff1673ffffffffffffffffffffffffffffffffffffffff163373ffffffffffffffffffffffffffffffffffffffff16146137ed576040517f08c379a00000000000000000000000000000000000000000000000000000000081526004018080602001828103825260128152602001807f58595a537761703a20464f5242494444454e000000000000000000000000000081525060200191505060405180910390fd5b6138197fbbbe4a8a7c18880fbfd33b3b016cbf7df44ab107abf5fb27337cdf424c11f26b60001b614c37565b6138457f647e5b7ade78accc83e21a688681360f076defe49e6ea9167dfeb32e847bbcb960001b614c37565b6138717f5a5257b5865cbc3fededd7a5257aad7609d783bac3640fb0bded84d91f2893bb60001b614c37565b82600c60006101000a81548173ffffffffffffffffffffffffffffffffffffffff021916908373ffffffffffffffffffffffffffffffffffffffff1602179055506138de7f76ceb4ba9472ac85b0eb83b9b3505f00122ceca95af1c205e15a5c0fc82c67c360001b614c37565b61390a7f0196c18cd01ec6965c407d03c874f83b949d7710aa26eca5d8ef11dd14b4177e60001b614c37565b81600d60006101000a81548173ffffffffffffffffffffffffffffffffffffffff021916908373ffffffffffffffffffffffffffffffffffffffff1602179055506139777fe15edde8ea104d348fb5540e05e4955387493bccca178058e5a084bfa1e8faed60001b614c37565b6139a37fa24cc7c6d424d01748cb504330bcdb9d781447f39d866431def0d90efae750f960001b614c37565b80600f60006101000a81548163ffffffff021916908363ffffffff160217905550505050565b50565b60008060008373ffffffffffffffffffffffffffffffffffffffff1673ffffffffffffffffffffffffffffffffffffffff168152602001908152602001600020549050919050565b60105481565b60076020528060005260406000206000915090505481565b60008060026008541415613aae576040517f08c379a000000000000000000000000000000000000000000000000000000000815260040180806020018281038252601f8152602001807f5265656e7472616e637947756172643a207265656e7472616e742063616c6c0081525060200191505060405180910390fd5b6002600881905550613ae27f1f373f54a3449a0631353c477ab90db5c3f7a2e32ea32c49568c3c906515b15960001b614c37565b613b0e7f836a5a78f5f2daa8b2c7d08c6529743052857db1e93ee16f5beda82d73f46b5a60001b614c37565b613b3a7f61cbe9be11231241c24d7cdda0d73b96b69d91401a2b701839672a2f95b52bcf60001b614c37565b6000613b4461b5eb565b613b4c6163c1565b91509150613b7c7f16037d44f6039b2f421390c09a23a8cbe39251c88250c780a2e70d884b2173f160001b614c37565b613ba87fc21278924560e49cc7a3db09e6a1a315b56a87703b4574c1b98156899fff037d60001b614c37565b6000600c60009054906101000a900473ffffffffffffffffffffffffffffffffffffffff169050613bfb7fdc4b2ab93a13b0e2b83c567038d1324c0ce77ed07b8f19d18cd37978aabaab2d60001b614c37565b613c277fafb8e2e8101b86dcbe0dfb0201adc7656b8aa8e93937b0abf23c74b54edb084060001b614c37565b6000600d60009054906101000a900473ffffffffffffffffffffffffffffffffffffffff169050613c7a7f14fb3bbb154c7b03dc8336d3a8a103a17c6d99e11c108b1946c7ea9d33d4b6f960001b614c37565b613ca67f0373bb5f3e376755696ac4aef141ce2836e9b4151b752140e6064d3f4b423d9060001b614c37565b60008273ffffffffffffffffffffffffffffffffffffffff166370a08231306040518263ffffffff1660e01b8152600401808273ffffffffffffffffffffffffffffffffffffffff1673ffffffffffffffffffffffffffffffffffffffff16815260200191505060206040518083038186803b158015613d2557600080fd5b505afa158015613d39573d6000803e3d6000fd5b505050506040513d6020811015613d4f57600080fd5b81019080805190602001909291905050509050613d8e7f4430adeb1f7fbe60e797511e91cd8fa0d22cb50524a88b336a967047fca0ddf260001b614c37565b613dba7f2987302dad3dde3decb0aa5033917e1f0fd279b818baabb4dbd703ee367ef2f560001b614c37565b60008273ffffffffffffffffffffffffffffffffffffffff166370a08231306040518263ffffffff1660e01b8152600401808273ffffffffffffffffffffffffffffffffffffffff1673ffffffffffffffffffffffffffffffffffffffff16815260200191505060206040518083038186803b158015613e3957600080fd5b505afa158015613e4d573d6000803e3d6000fd5b505050506040513d6020811015613e6357600080fd5b81019080805190602001909291905050509050613ea27f8ac25beef3f0d3bd2b6d19b922f3a4bff2ea59e1c9747f962aa0da6a2147a4a860001b614c37565b613ece7f7ad7cbf41ea40f4442b4bfac2822f863672f89b812e388262f740b8d509bed3d60001b614c37565b613efa7feb2d18e00c8cb6c9daf29e2b594beba83c2ffc8b5586d2741e5c5b79c826401b60001b614c37565b84600001518210158015613f12575084602001518110155b613f84576040517f08c379a00000000000000000000000000000000000000000000000000000000081526004018080602001828103825260188152602001807f58595a537761703a20554e53594e435f5245534552564553000000000000000081525060200191505060405180910390fd5b613fb07ffac89fbb34105ac0f244bb22cd778955d68a021807667cab1703c4d32517545260001b614c37565b613fdc7fe0d3019601350bab1a0e797e5749ebefdb42092589648d07e2c50fc8ddbafefd60001b614c37565b6140087f34386076b5271b59873304b4c32261d249d60ae7859235396b1354823978e1f560001b614c37565b6000614013306139cc565b90506140417f1742b6b8936c39951ee5d7c5b28241df88deef10edc623713268cd3b0b544a5060001b614c37565b61406d7fdf24e8cf1ef9490e477949fc979c38ab7de73defde849a0505f42eef7210947b60001b614c37565b6000614079888861797f565b90506140a77f72cf2d88af18c7b79c5234271ed763eeea0fdcb01cdb66d71b482663e67a3a4d60001b614c37565b6140d37f64e35fec5273ec4f8a6f23ad88abf34fc039dc5f360ec3be8a3081a89f94d2f760001b614c37565b60006140dd61247d565b905061410b7fc1ea0fcd8c2341382ffd15b4be067c515cf589202484c05bdc7074b2c285170660001b614c37565b6141377f7c224bf7ff7099f290025efab0573333f805efe6c7dfeeb3a570a367e5289ac660001b614c37565b8061414b868561820590919063ffffffff16565b8161415257fe5b049a506141817f84d6f7ecdff94e3e68564efa7e91c8d738809e8b27be8bbd20c4aa2a8fd6bb5f60001b614c37565b6141ad7fa88077a100b2659b41293bb31d61cde69cb9091be8aa394a2ecca658aa76c31b60001b614c37565b806141c1858561820590919063ffffffff16565b816141c857fe5b0499506141f77f9f925545681883ae7d165f3a6cd9c97e3007a585abce58c1ff4cc7e3364851ea60001b614c37565b6142237fcab34c35c05d57e8daa765d7c8a3d3c94b1bd0c5ae1a4495461f6d8f3ee8650560001b614c37565b61424f7f5a4d3c5f145fcbe8079ea2ca3a0b4231f1d8e8d3931eea93b212c25c005d57e960001b614c37565b60008b11801561425f575060008a115b6142b4576040517f08c379a000000000000000000000000000000000000000000000000000000000815260040180806020018281038252602681526020018061b6a16026913960400191505060405180910390fd5b6142e07f194f9d41cd148c93854ffe4fe9ef32c3aebb0680feb39342334e7a81fcd68ac260001b614c37565b61430c7ff7f5d51cb418c80888829ee966a5613f089f6f2a803458ee1fa8d61ec5fa50cf60001b614c37565b6143387f6c9528b3d384e7469935f15494efb33e2307b1e935c4418c86c9d83cf0af0e0b60001b614c37565b614342308461890b565b61436e7f16e7e9225b749a3036b2266fa59d6f9b640741a73c10518ce80dd179cf4deb9c60001b614c37565b61439a7fa3b73ce31af51cef8fb84bb91bb4f0db2ef0b761576f2a7e97d171a3ec8cd20060001b614c37565b6143c58c8c8973ffffffffffffffffffffffffffffffffffffffff166167669092919063ffffffff16565b6143f17f843eabfaa440d188403186677089dcc31eea54fbf323bc40ec065ea2bc0792a660001b614c37565b61441d7f0fbd33b3bec62a175fa29a2a5f66b5ccb2fd178eda6007f4bd960caf29baf46a60001b614c37565b6144488c8b8873ffffffffffffffffffffffffffffffffffffffff166167669092919063ffffffff16565b6144747fe29983bcd0d8c5a84d008a44c292e605e5368747992ec179be79e8e3eccb500560001b614c37565b6144a07f394fc4a59a45b6f36c7256e2bb8aa4cfff4bafd7c32ebf328570c6c1408fc56860001b614c37565b6144a861b5eb565b6144d47ffbf8abf78f69cb40766c91d4ae9bba1f73bdfe6f53616d53156f953eda01e0b860001b614c37565b6145007fc777c2e7a8f3f13a18b781e96b71b031e93d4ad3dd2c4d5cd2bfd90c6b8229e860001b614c37565b8773ffffffffffffffffffffffffffffffffffffffff166370a08231306040518263ffffffff1660e01b8152600401808273ffffffffffffffffffffffffffffffffffffffff1673ffffffffffffffffffffffffffffffffffffffff16815260200191505060206040518083038186803b15801561457d57600080fd5b505afa158015614591573d6000803e3d6000fd5b505050506040513d60208110156145a757600080fd5b81019080805190602001909291905050508160000181815250506145ed7f02a53551d2a5d89864ee9277c51fbf83154ad8e0d2a1142347a7c7ba00d08f4160001b614c37565b6146197f319373d09a4fed4237a834bcd638e79025edd416a8dac60c462fa9559b3de9de60001b614c37565b8673ffffffffffffffffffffffffffffffffffffffff166370a08231306040518263ffffffff1660e01b8152600401808273ffffffffffffffffffffffffffffffffffffffff1673ffffffffffffffffffffffffffffffffffffffff16815260200191505060206040518083038186803b15801561469657600080fd5b505afa1580156146aa573d6000803e3d6000fd5b505050506040513d60208110156146c057600080fd5b81019080805190602001909291905050508160200181815250506147067fa4819729b6272a3383eb45408d88a21809d13d1d8fb0e46f43622928ad61514760001b614c37565b6147327f947b2d918eac0fd56fa124d99d993ac6e826afa63e01f7f92c2116a86642c71d60001b614c37565b8915614932576147647fdc5d10e87bd5db9141f22d5fcb161bc2a257721c25385d97bd8ee2206f89cb2e60001b614c37565b6147907f59c7cea418fec5ab91800abded13215bc9b67175483e50043e2948ba901d595560001b614c37565b6147bc7f859c33536a372e28998b9e2271974fd79f31538a00bd24fa893ad99eff16581d60001b614c37565b600061480e8a600001516147dd85856000015161820590919063ffffffff16565b816147e457fe5b048b6020015161480186866020015161820590919063ffffffff16565b8161480857fe5b04618829565b905061483c7fdad9e9b2b6e57744f33867734095f0d7f4ae0976d24fe1e59c2dfad8f53ba53d60001b614c37565b6148687fd5b9e537c1046e85322eac41a2c62b541012568b2d93a52d437d471602c9707f60001b614c37565b61489583614883838d6040015161820590919063ffffffff16565b8161488a57fe5b048360000151618842565b8260400181815250506148ca7f14e22c0f22e13218298cde7fa22da72af045a36f5417c51c6b7cbbaaf668bb9760001b614c37565b6148f67f84a0515723e21d41f83725a3f518dee7e9ba0fab9c0a69b34e66c0521db4dc5f60001b614c37565b61492383614911838d6060015161820590919063ffffffff16565b8161491857fe5b048360200151618842565b8260600181815250505061495f565b61495e7f38caa00f4329ab26ab90e2e31d3b0ed9f857bed0b91ac00813822f755d9545e560001b614c37565b5b61498b7f508eb89266855d08c15d828dc771d1200107a0333601fd6ad5f554a08a086f8e60001b614c37565b6149b77f295fc5fdfb1d5190278f2553536d02127eb04af6e37b44f573ed5658fd7084cc60001b614c37565b6149c18a82616e96565b6149ed7f0eaafd26efcfa36ec113806729b7ba30ee8bf8d90088712e476fc28914a0188760001b614c37565b614a197fc4b18ce9f752685110f7fae5edac76204b45b6bd1eb5d89ccbc488825956202460001b614c37565b8215614a8c57614a4b7fbac8150117dde768d24057980697f60a0bb2d325efccba00e62df133ee06dc2160001b614c37565b614a777fd22b7db86c3b1a36a9abf47c7c979944f6edfe1a63065715222503c04785c80460001b614c37565b614a818a8261885c565b601081905550614ab9565b614ab87f9df6ed3556c479d0c5e53d94ecbe9e696d3edb510df20c624bb347480124503760001b614c37565b5b614ae57f480866e63a11086a0292a3cb272e33493275229ffc244a0f9ef930d99ecae50960001b614c37565b614b117f89ec7a7eea3c5aeccf871439542497753c27a1d244adf8289cb4e996f294b6d360001b614c37565b8c73ffffffffffffffffffffffffffffffffffffffff163373ffffffffffffffffffffffffffffffffffffffff167fdccd412f0b1252819cb1fd330b93224ca42612892bb3f4f789976e6d819364968e8e604051808381526020018281526020019250505060405180910390a3505050505050505050506001600881905550915091565b606060048054600181600116156101000203166002900480601f016020809104026020016040519081016040528092919081815260200182805460018160011615610100020316600290048015614c2d5780601f10614c0257610100808354040283529160200191614c2d565b820191906000526020600020905b815481529060010190602001808311614c1057829003601f168201915b5050505050905090565b50565b6000614cfd614c476173ff565b84614cf88560405180606001604052806025815260200161b80f6025913960016000614c716173ff565b73ffffffffffffffffffffffffffffffffffffffff1673ffffffffffffffffffffffffffffffffffffffff16815260200190815260200160002060008a73ffffffffffffffffffffffffffffffffffffffff1673ffffffffffffffffffffffffffffffffffffffff168152602001908152602001600020546178bf9092919063ffffffff16565b617407565b6001905092915050565b6000614d1b614d146173ff565b84846175fe565b6001905092915050565b6103e881565b60026008541415614da4576040517f08c379a000000000000000000000000000000000000000000000000000000000815260040180806020018281038252601f8152602001807f5265656e7472616e637947756172643a207265656e7472616e742063616c6c0081525060200191505060405180910390fd5b6002600881905550614dd87f8610697c728a417ce98119e9abd79ebab755ea63f95a1a272801f19d2772fc1b60001b614c37565b614e047fb070c8710a502e77e6fc03072a613984a9ff5c2c87afde59c1064c869af3da3b60001b614c37565b614e307f1518f6120f99538c15da2509024fa21c5ca68858c7fb1c709e56355976f6cebf60001b614c37565b614f9481614f4c600e60009054906101000a90046dffffffffffffffffffffffffffff166dffffffffffffffffffffffffffff16600c60009054906101000a900473ffffffffffffffffffffffffffffffffffffffff1673ffffffffffffffffffffffffffffffffffffffff166370a08231306040518263ffffffff1660e01b8152600401808273ffffffffffffffffffffffffffffffffffffffff1673ffffffffffffffffffffffffffffffffffffffff16815260200191505060206040518083038186803b158015614f0357600080fd5b505afa158015614f17573d6000803e3d6000fd5b505050506040513d6020811015614f2d57600080fd5b81019080805190602001909291905050506168a690919063ffffffff16565b600c60009054906101000a900473ffffffffffffffffffffffffffffffffffffffff1673ffffffffffffffffffffffffffffffffffffffff166167669092919063ffffffff16565b614fc07ff24f558717d2a6e89bb24e80fcb14f1ecedf6a901228fbfa839b90e80d6f1b4560001b614c37565b614fec7f33f58518fba2a21711c6e070df55bf986dda0e08dc93ceac1ea51fefcb55834160001b614c37565b61514f81615107600e809054906101000a90046dffffffffffffffffffffffffffff166dffffffffffffffffffffffffffff16600d60009054906101000a900473ffffffffffffffffffffffffffffffffffffffff1673ffffffffffffffffffffffffffffffffffffffff166370a08231306040518263ffffffff1660e01b8152600401808273ffffffffffffffffffffffffffffffffffffffff1673ffffffffffffffffffffffffffffffffffffffff16815260200191505060206040518083038186803b1580156150be57600080fd5b505afa1580156150d2573d6000803e3d6000fd5b505050506040513d60208110156150e857600080fd5b81019080805190602001909291905050506168a690919063ffffffff16565b600d60009054906101000a900473ffffffffffffffffffffffffffffffffffffffff1673ffffffffffffffffffffffffffffffffffffffff166167669092919063ffffffff16565b600160088190555050565b600b60009054906101000a900473ffffffffffffffffffffffffffffffffffffffff1681565b600d60009054906101000a900473ffffffffffffffffffffffffffffffffffffffff1681565b6151d27fe0657876ee0b15e4404e90cbbe9424b01926bdaf84c3d62ca5baf9cf7c15f28460001b612587565b6151fe7f9da0d1727878e7ca1fb472cfff6c80594a28fa6bd3b7e63f9b0a46365f40d50460001b612587565b61522a7fcc0ad90f66578cc75e222d599ef021d7227034f75101e9c7668e286529bb1a5060001b612587565b6152567f3d398eb8ca6a68e56610134619ba1b342a08eeef23e5c09ad81f0856a5fd778d60001b612587565b428410156152cc576040517f08c379a00000000000000000000000000000000000000000000000000000000081526004018080602001828103825260148152602001807f45524332305065726d69743a204558504952454400000000000000000000000081525060200191505060405180910390fd5b6152f87f82d87d64b9c2438f0f3706cbdbd172958b66cb30f6670f5999c3a2d85593abaf60001b612587565b6153247f159fed9a02f397454ff3720b3fba072872d8e39a1af56fe75523d70e6380e5ff60001b612587565b6153507f11fb9d2944c5d1e7efa63d7a485b8d53e52c7e24d3e64b7ee59e32fd41debb0260001b612587565b60006006547f6e71edae12b1b97f4d1f60370fef10105fa2faae0126114a169c64845d6126c960001b898989600760008e73ffffffffffffffffffffffffffffffffffffffff1673ffffffffffffffffffffffffffffffffffffffff1681526020019081526020016000206000815480929190600101919050558a604051602001808781526020018673ffffffffffffffffffffffffffffffffffffffff1673ffffffffffffffffffffffffffffffffffffffff1681526020018573ffffffffffffffffffffffffffffffffffffffff1673ffffffffffffffffffffffffffffffffffffffff16815260200184815260200183815260200182815260200196505050505050506040516020818303038152906040528051906020012060405160200180807f1901000000000000000000000000000000000000000000000000000000000000815250600201838152602001828152602001925050506040516020818303038152906040528051906020012090506154ef7fd6d0913245e4040ec3fcbc8431f30c4a3cc7b5b87a8452b206593cf9af41952560001b612587565b61551b7f97a67c81d4cb05ceace0a539dae2f1ee7cbda2cd169966a3ddf5b4b1dca2a17760001b612587565b600060018286868660405160008152602001604052604051808581526020018460ff1660ff1681526020018381526020018281526020019450505050506020604051602081039080840390855afa15801561557a573d6000803e3d6000fd5b5050506020604051035190506155b27f97259088e94de0aa809bec3cca4582b426c232ced7ea793cb6512825dbdafc2760001b612587565b6155de7f1768afecd8a9d24f8a1dee608da80ebcfb86012c839324e5fa6f343c443821e560001b612587565b61560a7fc063d6f1195a6cc49c8da87c238d5bd3ffdbdc936bc29a5827e16bb3bd5923cb60001b612587565b600073ffffffffffffffffffffffffffffffffffffffff168173ffffffffffffffffffffffffffffffffffffffff161415801561567257508873ffffffffffffffffffffffffffffffffffffffff168173ffffffffffffffffffffffffffffffffffffffff16145b6156e4576040517f08c379a000000000000000000000000000000000000000000000000000000000815260040180806020018281038252601e8152602001807f45524332305065726d69743a20494e56414c49445f5349474e4154555245000081525060200191505060405180910390fd5b6157107fe75b8f1b4da39de10690fcbcf53819b72c0b66933fe70bc746bbf4979d1d993760001b612587565b61573c7f8151df4b0093331439132ae87f1b332aa128edb23ef72b905595d7419cbd77b960001b612587565b6157687f48c7a60bca1ba2f15c1341d72697b4261430fd58b05371abafbeefe27d54131860001b612587565b615773898989617407565b505050505050505050565b60008060008060006157b27fa34689971a8f279490b8323f268e3ded2c6559f28edf848724839d43ecb9a2cf60001b614c37565b6157de7fe5ea11d7c350680c41ffab0bd6f527a7d7e49971efed68fdc8500da359442acf60001b614c37565b61580a7f81ee185167e8780c75f0796c114b16c43f6e0088e85b36d653807a9994e693b360001b614c37565b600e60009054906101000a90046dffffffffffffffffffffffffffff1694506158557f735ee6900f6eaa915bc5ded76b44d13495049709a7c5c052cd54f146b0f5fac860001b614c37565b6158817f64df41d741681e50b40b2efbe83f99e4d405f89c93eca39154be93ae82e59bbf60001b614c37565b600e809054906101000a90046dffffffffffffffffffffffffffff1693506158cb7f7aeef7d2a7437202d0aad823254cf6c601e0e2c46e661ab7ca4d7306cb1e5a8d60001b614c37565b6158f77f4f1ed52f902f659e6491312723aeb64f19a6a21bca9ef17b041747b27201cc1260001b614c37565b612710600f60009054906101000a900463ffffffff1663ffffffff1614615a37576159447f1665359d4895b92f26a8860253c35fa8de665e312039c58b108828ed5225197d60001b614c37565b6159707f566b41baee958c742b35014f09044e72317a40042521e29fff04ac23cbc0d17e60001b614c37565b61599c7f7e6fb09a2edc1e4ef6fc79c37f341432ded54f2e76f92487582918c32be2a7c360001b614c37565b600f60049054906101000a90046dffffffffffffffffffffffffffff1692506159e77fd322e9adc7997027c1db3b8b0e3abe740b6ec388d02f38d22b0373e13ec30e1460001b614c37565b615a137fabfa96ff55ea1ea78b35d1f571d74fa98196c60337100e39e6d56df6cda093bb60001b614c37565b600f60129054906101000a90046dffffffffffffffffffffffffffff169150615b1a565b615a637f8c2ed6021fce3aad068b4708ae9b3b037090339a4091d4ae6e0ed2ab6deb34ae60001b614c37565b615a8f7fca0b574ffd231ecce25259cbb88bf177fc77b479b6cf98ee4cb9a2dc3cc67a5e60001b614c37565b615abb7fd96a9b1d62019f68b32bf3fc5137520f44738c9b718213c3dcd06b5a52007aff60001b614c37565b849250615aea7ffdd5ec867dab0dc7f058b973b6f884b052f9fbc902e048dc5a9ef5e37603dc3a60001b614c37565b615b167fe793a9a56b2bc2158cd5d1fd920f52f7f565b06b60487b49df76452f9d66d98460001b614c37565b8391505b615b467f0d80718706703148badc2a24fbaaadf068b84d960798f9c2e520b3a90296f31160001b614c37565b615b727fdd471897696eb3c3498a8cc273683b96bf26e4c260472757f50a236ae58628c960001b614c37565b6000615b7d43618acf565b9050615bab7ffa7d4688b7082b87c997403dacc35ebfc6aab76a38be8b5704d172f6da22bc0a60001b614c37565b615bd77f3af3d8d5212cf4c98125247f0fd830235560cafc7cf5d0ed74617810b9f4d9c060001b614c37565b615be081619032565b9150509091929394565b6000600160008473ffffffffffffffffffffffffffffffffffffffff1673ffffffffffffffffffffffffffffffffffffffff16815260200190815260200160002060008373ffffffffffffffffffffffffffffffffffffffff1673ffffffffffffffffffffffffffffffffffffffff16815260200190815260200160002054905092915050565b60065481565b60026008541415615cf0576040517f08c379a000000000000000000000000000000000000000000000000000000000815260040180806020018281038252601f8152602001807f5265656e7472616e637947756172643a207265656e7472616e742063616c6c0081525060200191505060405180910390fd5b6002600881905550615d247ff96547282751854475420e523eb4c459c58812ef28f106ca323e2f6d1f93198160001b614c37565b615d507fe2746a0575a2334810e82862159e297d3e4addaf510b4cf7a00d551f2659157e60001b614c37565b615d7c7f6494df0375c5be6130281b0bc5923fef8558b430fdf35ae895bb5bed8efe9f3f60001b614c37565b6000615d8661b5eb565b615d8e6163c1565b91509150615dbe7f7401bd39c305aaa3cc7ad87edf4b919a8838067386d0049ef937ed5385c64e2d60001b614c37565b615dea7f5989f29fda047ba0fde75fd6f0ff85e46ee9f065cf12b579ff24c09f984d1e0460001b614c37565b615df261b5eb565b615e1e7f751214ae0d488f1c9c438a95a01508b7e44404c6eafee5fb059388587aaaa67460001b614c37565b615e4a7f05f5569e59f852b95a03788430817ce8049339657cc36374fafda919a513149e60001b614c37565b600c60009054906101000a900473ffffffffffffffffffffffffffffffffffffffff1673ffffffffffffffffffffffffffffffffffffffff166370a08231306040518263ffffffff1660e01b8152600401808273ffffffffffffffffffffffffffffffffffffffff1673ffffffffffffffffffffffffffffffffffffffff16815260200191505060206040518083038186803b158015615ee957600080fd5b505afa158015615efd573d6000803e3d6000fd5b505050506040513d6020811015615f1357600080fd5b8101908080519060200190929190505050816000018181525050615f597f71e2342a334ce521c3e1d6c912ee69cfbd7f08ce694da9157b877d324a00c57a60001b614c37565b615f857fab25dc57a8a1031fd9685f4974179d94a0c408b11df5ebcd74311bff0e3ebefe60001b614c37565b600d60009054906101000a900473ffffffffffffffffffffffffffffffffffffffff1673ffffffffffffffffffffffffffffffffffffffff166370a08231306040518263ffffffff1660e01b8152600401808273ffffffffffffffffffffffffffffffffffffffff1673ffffffffffffffffffffffffffffffffffffffff16815260200191505060206040518083038186803b15801561602457600080fd5b505afa158015616038573d6000803e3d6000fd5b505050506040513d602081101561604e57600080fd5b81019080805190602001909291905050508160200181815250506160947f9d58bdc237d3b52bc075e56f9b69d077697aaef6c25323226b956081c31bc5af60001b614c37565b6160c07f629240a1a2cbd3dfd5e596bc1a1b59f9e67e2e8aceab8068be00edec86f08a4360001b614c37565b8215616325576160f27f9bffc7a76ab6d3783de20969942460f73d42e44d02d9a3b18f9a6864ad7b398660001b614c37565b61611e7f4433c2f61c0fd1503374ff52f72f69ea80a7a43b87714ce85c72f1e96f69bf9160001b614c37565b61614a7fcb7601d8c32cd1508aa50095d5d94ea5e2b0b748a4b01eff0fbfd62df763972060001b614c37565b600061615461247d565b90506161827f51385cb5142a6044b8d3c24d76985363b2b3e5973f7e85a5dbcec0236954403e60001b614c37565b6161ae7fd925f340623255bf35350d50a0388ba342e1e4922a3d8017dced256c8ed5dab160001b614c37565b600061620084600001516161cf84866000015161820590919063ffffffff16565b816161d657fe5b0485602001516161f385876020015161820590919063ffffffff16565b816161fa57fe5b04618829565b905061622e7ffab702f5031d5a87d75a43641817995ea382a4eec0090de37e17bd266c95b39460001b614c37565b61625a7f7f15d39369ea908809b8ed07cfc2bad1c945e518065ad4e1fdbdb9ddeb2d2e1260001b614c37565b6162878261627583876040015161820590919063ffffffff16565b8161627c57fe5b048460000151618842565b8360400181815250506162bc7f95d0d11211286cb89f93b78ef144899928e096d436f1af50375571e4dec628ea60001b614c37565b6162e87f7cd7de9de464abb4adbb73789562b441be1c327a9d75e3442b341dc6a2bbbb9160001b614c37565b6163158261630383876060015161820590919063ffffffff16565b8161630a57fe5b048460200151618842565b8360600181815250505050616352565b6163517f140042952dd366f8e16a8e32a7454aacc8bfe7f324312554e81e20e4a646293660001b614c37565b5b61637e7f5ab4a71ef9adff321faec149b2f28cea0fd37b544ccc457f95ad6f1842e5e9f760001b614c37565b6163aa7f60758bf3c37a5cef54d9d68b2dae1a4a26168ef8c9ec0ed39fed118ba2fe482860001b614c37565b6163b48382616e96565b5050506001600881905550565b60006163cb61b5eb565b6163f77f21e3570b04bf59e1f518563c13b077061faf6405cbf1d0d6c977afbca1411b3560001b614c37565b6164237f51f4a0d226d131899197dd4ed4e8f303f6fbe6f665931ff6d01db9943abefc9160001b614c37565b61644f7f5afa979ddf531c92188a285e51ea82bc122b37118baf70a9fa1da142203b708760001b614c37565b600e60009054906101000a90046dffffffffffffffffffffffffffff166dffffffffffffffffffffffffffff168160000181815250506164b17f4f8b777e1cea8d9c9c65cdadb8fc2c825275b81c30e0623f5cfe215ef6d24c9760001b614c37565b6164dd7f71dbce35b1d8ae86623680ce12e281e6b90884cfa3d1036bdc86d43f7dd9a25a60001b614c37565b600e809054906101000a90046dffffffffffffffffffffffffffff166dffffffffffffffffffffffffffff1681602001818152505061653e7f4ab243c0c7a01ffc54b66762ea19e23850a5c45aaeb9d268464ef2d558e5b4d560001b614c37565b61656a7fb7174689120a4b43d85c84172dec4b2218fae305812eb4c88404bf740e61e16d60001b614c37565b612710600f60009054906101000a900463ffffffff1663ffffffff16141591506165b67f0c02d95022b692a929ac536325df9253a94583351a277f2b4a9b50545a3e52f360001b614c37565b6165e27f192d49821a5bdbb2ee334f47ab8aa84903b1ac4bcbaebfdca6e15b46c1ee1b2960001b614c37565b8115616735576166147f8302887a3b5ebe0958f2e0d8cb1e717ffc02803179e9942df033131ed576f4b660001b614c37565b6166407f17dbdfd69fc39c6dee5b50f32d72cd0d68c316b46f0da6f16732ae51442a062160001b614c37565b61666c7f52f5ed9c70a7e6d07d63bd7eaeeb35acb771ed846ea3391c664690228eddf7d160001b614c37565b600f60049054906101000a90046dffffffffffffffffffffffffffff166dffffffffffffffffffffffffffff168160400181815250506166ce7fc05da655b13a5f4393a563d7f18d644725cec4b28eb0e2036570a63fb5c16d4a60001b614c37565b6166fa7fa6712da58253561097649cda9b945758bca74a74d67c2e47f10b7cd2e99a52b860001b614c37565b600f60129054906101000a90046dffffffffffffffffffffffffffff166dffffffffffffffffffffffffffff16816060018181525050616762565b6167617f2c70f45bcbb7b882674e20c146897feb442a85b1ac687632822b0356a569e44f60001b614c37565b5b9091565b6168198363a9059cbb60e01b8484604051602401808373ffffffffffffffffffffffffffffffffffffffff1673ffffffffffffffffffffffffffffffffffffffff16815260200182815260200192505050604051602081830303815290604052907bffffffffffffffffffffffffffffffffffffffffffffffffffffffff19166020820180517bffffffffffffffffffffffffffffffffffffffffffffffffffffffff8381831617835250505050619a5f565b505050565b60008082840190508381101561689c576040517f08c379a000000000000000000000000000000000000000000000000000000000815260040180806020018281038252601b8152602001807f536166654d6174683a206164646974696f6e206f766572666c6f77000000000081525060200191505060405180910390fd5b8091505092915050565b60006168e883836040518060400160405280601e81526020017f536166654d6174683a207375627472616374696f6e206f766572666c6f7700008152506178bf565b905092915050565b600061691e7f8c0a1bd5a7e156f828a191bc37692f0fd5b6f5200e2b86c582da8aee503e24f160001b614c37565b61694a7fa14762dcd293c85712663bf627870d9399d1e9eaa3b9f660729b9f01ead4cd4f60001b614c37565b6169767f8dca3eebbb35ba9dadeab958e5fec56360cf1f2ee23453c488afdf2229aaea9860001b614c37565b60006169af886169a1876169938b8b61820590919063ffffffff16565b619b4e90919063ffffffff16565b61681e90919063ffffffff16565b90506169dd7ff1253e8e77a09062ac429f7d5d27ecbd987df4bea86d03a05a6b9ba4d5baa8cf60001b614c37565b616a097f7a6855391b2e585d3d4c530344c87c4f4890da10f776a04ecc8d09dbaed0649860001b614c37565b6000616a154383619b98565b9050616a437f1718a40e47a76eb6d6a2972cc48c5af7b46d0f5a727fb12739f6af55c719c13a60001b614c37565b616a6f7f36423901beee89d9f9c6939ef8c944c92e76476b04a6c8ef6e21753df27e8ec060001b614c37565b616a7881619032565b9250616aa67fc371ebf5de05c7537ab6a23d126713adbebe688a168365e5ae96a6ee3d5873b360001b614c37565b616ad27ff06b9e9fe5276e76261ae5dee1907846d508dd0c315f3058b2c6dbc8b297666660001b614c37565b6000616aef670de0b6b3a76400008761820590919063ffffffff16565b9050616b1d7f8e549a6a9e7b921f35480938052f0d5ba550add376ca08389f491da38237e61d60001b614c37565b616b497fb6046403e920ab2e35ced2930dbf856fbeebf810eebc0594c7a9fc2c0053ed9d60001b614c37565b616b6e616b5f858c61820590919063ffffffff16565b826168a690919063ffffffff16565b9050616b9c7f7fba60f34b0b5224f7c3f5c68889ad004e3f57bdac50a6a1d35a8028bbedbed760001b614c37565b616bc87f9fd6ec0737cc4052129a434508bbc2c3683cd997be8eec2b8d0c5657677751bb60001b614c37565b670de0b6b3a76400008181616bd957fe5b049050616c087fe15ff368761bb81940eb9eeec7a4cea7b5a4ca9f5f5dda9b314d69af091bacf460001b614c37565b616c347fb859588a2e696604fd8e0a70bf5eb91a069c9dfe4d8d69ad10835b7eade0134160001b614c37565b6000616c51670de0b6b3a76400008761820590919063ffffffff16565b9050616c7f7f4b467b72d74fc7f69c0fd502c77c30a0f42b74d77248ecc81ff86d2abdf7717260001b614c37565b616cab7f5383fe3be8b1d0dcf05a4b50ede8cd6507ca3187e1e3b1fd9b7ee748ceae922060001b614c37565b616cd0616cc1868c61820590919063ffffffff16565b826168a690919063ffffffff16565b9050616cfe7f671f2705b667edd02bf658aa4f41deec8134d78345c10720b973b170578cd6d560001b614c37565b616d2a7fc6d9abc300f68acfceacc3c0f4b69bbf4a6e6c723ffb54eb392dd42f0b9f13f060001b614c37565b670de0b6b3a76400008181616d3b57fe5b049050616d6a7f9b8c04122297b17ed880191574b50f5ba66c517c98a57088ed7924612931555f60001b614c37565b616d967f8ae27a44a209c0dcd406fa6e46ba3da9660077268a27ad51f2e0fc6d11a6198b60001b614c37565b616dc27feff00c2655116b8d6f20eec5b5ff731f396f9af5b2e29501ed01c6ae5bddb7ea60001b614c37565b616dd5888a61820590919063ffffffff16565b616de8828461820590919063ffffffff16565b1015616e5c576040517f08c379a000000000000000000000000000000000000000000000000000000000815260040180806020018281038252600a8152602001807f58595a537761703a204b0000000000000000000000000000000000000000000081525060200191505060405180910390fd5b616e887f43c01bcd2ab5eb365d45aa7de67d35227f702cb32d228f38756c48905295dbb060001b614c37565b505050509695505050505050565b616ec27ffa13fe9fd766e4da9bd483bb830d654d474d71a8ad937ad146cd3fd4aa3ca39f60001b614c37565b616eee7f7ed791f5fef964fc28fb9fc5e2dd70a99bcac72c2678d2a0cc79bebb15bdbd8a60001b614c37565b616f1a7ff95ec950f73a05b1e13434bdf671a2689ee49467c7e76ff41e484ac80d86830560001b614c37565b60006401000000004281616f2a57fe5b069050616f597f7ef233ed9a83df706e14c566a6900a879db77da0d23adbf9ba098fb6acab240160001b614c37565b616f857f0a979400f6d87d1a2ef61fa4ac0324c8ed5f65efd92d0ce40b1af0834a1e92c360001b614c37565b616f92826000015161a5b8565b600e60006101000a8154816dffffffffffffffffffffffffffff02191690836dffffffffffffffffffffffffffff160217905550616ff27f69954838fbcd130be9e337b7c74da6bc5001bcb1761806e54292abfe1ba61e6360001b614c37565b61701e7fd97f1e5ac20f73cc1fac74b610c43ad612bf5257c312f0f0be451580793849c460001b614c37565b61702b826020015161a5b8565b600e806101000a8154816dffffffffffffffffffffffffffff02191690836dffffffffffffffffffffffffffff16021790555061708a7f3fcc9bb2613aeb1dccad17a0933393773d368a591328345a81e48688d14fc64160001b614c37565b6170b67f9d786a9a543a507481a6baca57f6f83f948b8c19acf5548d93842b9beded138d60001b614c37565b80600e601c6101000a81548163ffffffff021916908363ffffffff1602179055506171037ff6e9958ad2f5557e4c844162e7c9018e8d498d77e4fbfdbbde5e7c352ddb047f60001b614c37565b61712f7f953cebb8725689014e03410626434e2c973a664416d510b9cf62e35219e76b5560001b614c37565b8215617316576171617fb4abdca671ad1505a99942ecb80cd6ebdb232ce312682cb4347d33675fe5bc5d60001b614c37565b61718d7ffb433f1362b3f3e32e833031ee5aa6118b6052076eea32311591054512b6947a60001b614c37565b6171b97f496c5144d2643e63611e72bb3d44b6db4cc2acf3991738a78d4a66565078728e60001b614c37565b81600001518260400151101580156171d957508160200151826060015110155b6171df57fe5b61720b7fb937713803771b42db7cb9692655153d2bdb09bedc47d2fbe4a1af4d5df581bd60001b614c37565b6172377f86a377d62c55c4ee952f48911d949bc4d3b2e258289c51190083ae3e27ddb50c60001b614c37565b617244826040015161a5b8565b600f60046101000a8154816dffffffffffffffffffffffffffff02191690836dffffffffffffffffffffffffffff1602179055506172a47f4c33ee256af706ef9aae7ef846915a9886ad9d6e3b172a154f6bd27e3e5dce5c60001b614c37565b6172d07f6aaf93bb32d9f0948b0b0c4fd118f2e6d83c492ada9c8bf36f40109c31a3586060001b614c37565b6172dd826060015161a5b8565b600f60126101000a8154816dffffffffffffffffffffffffffff02191690836dffffffffffffffffffffffffffff160217905550617343565b6173427fa86e786fb1b91ffea7458a74f5ba36e023344585b4adcb79950e269590a6071660001b614c37565b5b61736f7f57d5a92c4710ed542b8fbd1c955fa0dc33a9f0c238f65e0c54e6e8fcb8b8038260001b614c37565b61739b7faad6b1a16356fab9f10f772a8d741e31ac93b687c4cc0539d00eaf56bac4dde860001b614c37565b7f2f9d55abfefdfd4c3a83e00a1b419b3c2fe4b83100c559f0e2213e57f6e0bba982604001518360600151846000015185602001516040518085815260200184815260200183815260200182815260200194505050505060405180910390a1505050565b600033905090565b600073ffffffffffffffffffffffffffffffffffffffff168373ffffffffffffffffffffffffffffffffffffffff16141561748d576040517f08c379a000000000000000000000000000000000000000000000000000000000815260040180806020018281038252602481526020018061b7c16024913960400191505060405180910390fd5b600073ffffffffffffffffffffffffffffffffffffffff168273ffffffffffffffffffffffffffffffffffffffff161415617513576040517f08c379a000000000000000000000000000000000000000000000000000000000815260040180806020018281038252602281526020018061b6596022913960400191505060405180910390fd5b80600160008573ffffffffffffffffffffffffffffffffffffffff1673ffffffffffffffffffffffffffffffffffffffff16815260200190815260200160002060008473ffffffffffffffffffffffffffffffffffffffff1673ffffffffffffffffffffffffffffffffffffffff168152602001908152602001600020819055508173ffffffffffffffffffffffffffffffffffffffff168373ffffffffffffffffffffffffffffffffffffffff167f8c5be1e5ebec7d5bd14f71427d1e84f3dd0314c0f7b2291e5b200ac8c7c3b925836040518082815260200191505060405180910390a3505050565b600073ffffffffffffffffffffffffffffffffffffffff168373ffffffffffffffffffffffffffffffffffffffff161415617684576040517f08c379a000000000000000000000000000000000000000000000000000000000815260040180806020018281038252602581526020018061b79c6025913960400191505060405180910390fd5b600073ffffffffffffffffffffffffffffffffffffffff168273ffffffffffffffffffffffffffffffffffffffff16141561770a576040517f08c379a000000000000000000000000000000000000000000000000000000000815260040180806020018281038252602381526020018061b6146023913960400191505060405180910390fd5b61771583838361a77a565b6177808160405180606001604052806026815260200161b67b602691396000808773ffffffffffffffffffffffffffffffffffffffff1673ffffffffffffffffffffffffffffffffffffffff168152602001908152602001600020546178bf9092919063ffffffff16565b6000808573ffffffffffffffffffffffffffffffffffffffff1673ffffffffffffffffffffffffffffffffffffffff16815260200190815260200160002081905550617813816000808573ffffffffffffffffffffffffffffffffffffffff1673ffffffffffffffffffffffffffffffffffffffff1681526020019081526020016000205461681e90919063ffffffff16565b6000808473ffffffffffffffffffffffffffffffffffffffff1673ffffffffffffffffffffffffffffffffffffffff168152602001908152602001600020819055508173ffffffffffffffffffffffffffffffffffffffff168373ffffffffffffffffffffffffffffffffffffffff167fddf252ad1be2c89b69c2b068fc378daa952ba7f163c4a11628f55a4df523b3ef836040518082815260200191505060405180910390a3505050565b600083831115829061796c576040517f08c379a00000000000000000000000000000000000000000000000000000000081526004018080602001828103825283818151815260200191508051906020019080838360005b83811015617931578082015181840152602081019050617916565b50505050905090810190601f16801561795e5780820380516001836020036101000a031916815260200191505b509250505060405180910390fd5b5060008385039050809150509392505050565b60006179ad7fddcb6460f63437462e483f039c6833f344f8cad3cd7f9bffe4c6a60a19cf527760001b614c37565b6179d97ffaff311e26096c3e98157f18d5dd66394871cb0265cf8a965b99bc75be14ad8160001b614c37565b617a057f1423e430521593d6fd0cf77e6c8b81afb1447a9ffaaaf425b9279f8401b6d69160001b614c37565b6000600b60009054906101000a900473ffffffffffffffffffffffffffffffffffffffff1673ffffffffffffffffffffffffffffffffffffffff1663017e7e586040518163ffffffff1660e01b815260040160206040518083038186803b158015617a6f57600080fd5b505afa158015617a83573d6000803e3d6000fd5b505050506040513d6020811015617a9957600080fd5b81019080805190602001909291905050509050617ad87f036daca45bdba7147a5d602ef6e154996db3d864ef2b2d675317ccb67624a35760001b614c37565b617b047fcb27012d3aec3e88387373d3ace4e34c6061bc29c657378cba857628b1cdd9ea60001b614c37565b600073ffffffffffffffffffffffffffffffffffffffff168173ffffffffffffffffffffffffffffffffffffffff1614159150617b637f57d629ada9638de4c3d5c4604ec3b7538f035a8a10fb78601769afbfec0808bf60001b614c37565b617b8f7f884867f4eb4cb877168b31b99d5f62c2ee561677d3af8e7f3c1ff256a1f4761a60001b614c37565b60006010549050617bc27f29e62d8c36f32979311536c54f2e916c8b6a86d71cb202dd817040f09820728d60001b614c37565b617bee7f388f196f73e5612a675f00adef63974aa2afe39eb32b622cd075f9915ed1b0d360001b614c37565b82156180de57617c207f783625e53b2e8f2fbbf3571767916ef38604efe3a53bd45650600dd770bfd77260001b614c37565b617c4c7fa6509bf429989c02a3465af3c8f14086f645977f1055f283d3cfb24ad1f9481460001b614c37565b617c787f3b8a7a2dd20b5098e51fa0a53ca89f968a034d9bb475508417964882c36361d560001b614c37565b600081146180ac57617cac7fc35f8c897b21fbbc8c33a9f9f9c1e0c7ad6b763313b86f9347e1062f0a8a161460001b614c37565b617cd87f2baac9367c612181ad7ca6e761af05853124e759d91d5e941e76541bd8f3e62860001b614c37565b617d047f41298dfc2f0daa4e930be2457bbb9e7dce3e2c328196b98c76d707e8d59989c060001b614c37565b6000617d18617d13878761885c565b61828b565b9050617d467fb7754bd29753f39ecfe2925654b2203deb1672e57fcd25bbe5eebed73c1d780c60001b614c37565b617d727ff11463c1fa784e35dc222c5ef71b93ffa06fd1fd829629177e6efea266b6406d60001b614c37565b6000617d7d8361828b565b9050617dab7fc108cd1cf33a341685694f50b5bfe0151c0380ece23cca3fe52c3a6f657e500860001b614c37565b617dd77f92175f14a8cdbeaa1e7ed26cc03ccc5065f8d884f717125b9ef6fddc48c2168a60001b614c37565b8082111561807857617e0b7f9786c74044ef8004fa7e94f3bca9c1e58ecebefb79664851684a5277aed9026860001b614c37565b617e377fd2a0f0a2bca11e6b821827d5b02ecdb47cee3ee7cd6916ea241ebc6f718c5f7a60001b614c37565b617e637febc82d06246bf7f39c073a18eaf058fee9f68b6aa6a4d6895d4eb3ee943b19c060001b614c37565b6000617e91617e7b83856168a690919063ffffffff16565b617e8361247d565b61820590919063ffffffff16565b9050617ebf7f627366ddca53cf27be00c6cc3b0d767474c44496f6f74e68c84b4029ac1e6ac060001b614c37565b617eeb7f4d6ef0d7f59a2109b546d747a043aadbb89a482f5e5abf701bb5f3654233c23360001b614c37565b6000617f1383617f0560058761820590919063ffffffff16565b61681e90919063ffffffff16565b9050617f417ffefbaf7be51fa6c7a78c709903a50ee31dd7c7eb120c617bf74aec4e055b2c8360001b614c37565b617f6d7ffa2ec62f7391c9b15482957b28e0b6b4c722140246cce04fa8ce6217a0228c4060001b614c37565b6000818381617f7857fe5b049050617fa77f3714ae7f7b15b246fb3c6be89c8a7ad0d5c7e70ce1fc943361153321ab21f15d60001b614c37565b617fd37f3c8adb8ea6277a3ecd41d4c4bdbd7e060d9706880db49212a3ca6e181ff55d6560001b614c37565b6000811115618043576180087fafdeb03649bbc7e938de93a3791ea480641ed25a24b7dcb354772c29bd6c0f6660001b614c37565b6180347f45402d3af8796ae6f0efb6095b16d70820298064af630521e4bb3d3eaf43b8f660001b614c37565b61803e8782618662565b618070565b61806f7f77e0183ed2cb2083a0e6bdcbaf7763f4cd3d0e208eed8a9bf5d271540873e5bb60001b614c37565b5b5050506180a5565b6180a47f75d121d9903fe6260a11f879a9427e400fdd35998fe6f5a422683e77fc2c1c8d60001b614c37565b5b50506180d9565b6180d87f91746569c94cadfb36ec23679cb51a3ea76c6f384b38772e018f75266d5eed9660001b614c37565b5b6181fd565b61810a7fee535e3dde4df09635351b54f4bc9bff630fb2f3c2df88f5fca937478f359df960001b614c37565b6181367f8ff31b7d177baf0567b14acbd022f4606cca951ca61cf24948d51c50d2c2343960001b614c37565b600081146181cf5761816a7f1c59059d2aaecb4e5b4be11d6c2f90c00c4fb558e46227bd23a4ecd7f86e0a9060001b614c37565b6181967f4e6bb8d2b5fef8771706a9a02013eac759519fbeef882992545ae7dea942d3fa60001b614c37565b6181c27f525a0a393c0903fe13bb0784b5f68e2e3295f41a68d2e47bd645316da192bc2760001b614c37565b60006010819055506181fc565b6181fb7fe3a380f2c5d61af496204a0f5524e0b1224b726c78b213a78d599e714b811a5760001b614c37565b5b5b505092915050565b6000808314156182185760009050618285565b600082840290508284828161822957fe5b0414618280576040517f08c379a000000000000000000000000000000000000000000000000000000000815260040180806020018281038252602181526020018061b6e96021913960400191505060405180910390fd5b809150505b92915050565b60006182b97f23875c82c9ae7c238a43839577aed341141dab4ac9ac74ed17fadf6b0b9f279f60001b61a77f565b6182e57f734447e0efe6f94a930c1c2f1f11f35c487b6f21ecd7eb8793b5d1dc8e52a6cc60001b61a77f565b6183117f11e43fe3f9971596b93c6aafc3ec073345e6f8f72956cc954165b1823d32779160001b61a77f565b6003821115618542576183467f4bf49ceb5eed3812662dffcebfeff5d0f99096813b3eb0cc1636ae5ed99ad55560001b61a77f565b6183727f12b3bff3cdbdb86092d7f296eab43fa080b6d7deec75c04cb482e03053906a8c60001b61a77f565b61839e7f0aada6e58c893b15b51919df5d60f621a92c2f43643dbec90df5d54fdb8027d660001b61a77f565b8190506183cd7f4294972ec8cbfde054b790a2515522753419e9f89bd4b545e548bac7ee8aec6560001b61a77f565b6183f97f5f08f941a774f75e7a167c9042f29a4ad1e1f07602bbcf6b4ef8b0fb2f406a5060001b61a77f565b600060016002848161840757fe5b040190506184377fa5384f912ab629f2248b49bbd1d65277eb6bd8a3575ed8cf77bb4ac5e159bfa360001b61a77f565b6184637fdf9f87e94269f9e926eeb1ef07aa400931e4d2c966c56fb167216372fc9c39b260001b61a77f565b5b8181101561853c576184987fc1dc0e749ba49826ffb8588797248a9f511638685996c45d05754bd9b72d55ae60001b61a77f565b6184c47f22330cc52ca41100c9d5f1a9c3535e732d2753ddeac26bf98be6d283c4a0003160001b61a77f565b8091506184f37fe7abcf61d9af881020c8e4c8d8f4d2ef6b96d30eb34a08500f4913e11f0c9a4d60001b61a77f565b61851f7f2f80622e089807e52c21d268366e9e76c9d60853bd138230e0c4e999959b1e9860001b61a77f565b60028182858161852b57fe5b04018161853457fe5b049050618464565b5061865d565b61856e7f29ea67f162e7e7d7f060455af7bf194cb8c06cbdb0c36c70b37e61b8e83d784560001b61a77f565b61859a7f8113bc306a94005a9d303c6bac865892a9820f77a6d7511f2c1b0de12e34301960001b61a77f565b6000821461862f576185ce7f709f9d823a1e6b3ac154ffcabb1add303522628725a4563d6d19b756ac16f3fa60001b61a77f565b6185fa7f41538b16ad86ed5d2caeef782cd9364cf54c55d3c66d23102db0b9418be471c560001b61a77f565b6186267ff57e356643aa700d64531607af2a5b5f3e7ab51d2d0d411272c399af7a6c3c8b60001b61a77f565b6001905061865c565b61865b7fb29500621929c60218aca1bbc2b7579e47b35a2164fdae2c3c510be8c7ca2a7a60001b61a77f565b5b5b919050565b600073ffffffffffffffffffffffffffffffffffffffff168273ffffffffffffffffffffffffffffffffffffffff161415618705576040517f08c379a000000000000000000000000000000000000000000000000000000000815260040180806020018281038252601f8152602001807f45524332303a206d696e7420746f20746865207a65726f20616464726573730081525060200191505060405180910390fd5b6187116000838361a77a565b6187268160025461681e90919063ffffffff16565b60028190555061877d816000808573ffffffffffffffffffffffffffffffffffffffff1673ffffffffffffffffffffffffffffffffffffffff1681526020019081526020016000205461681e90919063ffffffff16565b6000808473ffffffffffffffffffffffffffffffffffffffff1673ffffffffffffffffffffffffffffffffffffffff168152602001908152602001600020819055508173ffffffffffffffffffffffffffffffffffffffff16600073ffffffffffffffffffffffffffffffffffffffff167fddf252ad1be2c89b69c2b068fc378daa952ba7f163c4a11628f55a4df523b3ef836040518082815260200191505060405180910390a35050565b6000818310618838578161883a565b825b905092915050565b6000818310156188525781618854565b825b905092915050565b600061888a7f2b80baa61fd43ea5650cc4c860632818c768ea59e904314814f550f1869fc79e60001b614c37565b6188b67fb9cc28ace4f1c4490cce1b4d6d7041416b46b4b887c4734520a3ce0bfc3e858860001b614c37565b6188e27f826d843f2d059078ff09ea4248fa883b05c7541907e4cfa95e800ded630ad91d60001b614c37565b826188f7578160200151826000015102618903565b81606001518260400151025b905092915050565b600073ffffffffffffffffffffffffffffffffffffffff168273ffffffffffffffffffffffffffffffffffffffff161415618991576040517f08c379a000000000000000000000000000000000000000000000000000000000815260040180806020018281038252602181526020018061b7326021913960400191505060405180910390fd5b61899d8260008361a77a565b618a088160405180606001604052806022815260200161b637602291396000808673ffffffffffffffffffffffffffffffffffffffff1673ffffffffffffffffffffffffffffffffffffffff168152602001908152602001600020546178bf9092919063ffffffff16565b6000808473ffffffffffffffffffffffffffffffffffffffff1673ffffffffffffffffffffffffffffffffffffffff16815260200190815260200160002081905550618a5f816002546168a690919063ffffffff16565b600281905550600073ffffffffffffffffffffffffffffffffffffffff168273ffffffffffffffffffffffffffffffffffffffff167fddf252ad1be2c89b69c2b068fc378daa952ba7f163c4a11628f55a4df523b3ef836040518082815260200191505060405180910390a35050565b6000618afd7fc16ff875792bbb15fb5f75c5b94e1006a36854cdf5393e59cb85993a2e7d1dc760001b6139c9565b618b297f2d36de28ad11db03f562a0d37a57a8be8665ee640d4792bc102d35b50000bd7c60001b6139c9565b618b557fd4673b13aee1948e981914659fa2c90be464512c73f85f87850ad4ee5676740960001b6139c9565b6000600a60109054906101000a90046fffffffffffffffffffffffffffffffff166fffffffffffffffffffffffffffffffff1683039050618bb87f548f759304fe20aefeced8e8bdf76fbee4bd8627295976c99f2e3f1b98d16b0560001b6139c9565b618be47f973bb7989aa1ceaa08a4f50183f194d2e55eb180e8bea90112f517fd544877af60001b6139c9565b6000811415618ce357618c197f5ba276434aa3a5173ff68b94ca799556a29b258a893a487f200c9fd4cc9b38cc60001b6139c9565b618c457f1ca6b13175ea6f4ccab0d7780fd1407331915b200cff452889729b0979dd039560001b6139c9565b618c717f5c471555f0cfd65387c99749c38018e8020993950e266b2442c4ab19a0edaa4b60001b6139c9565b618cdb600960009054906101000a90046fffffffffffffffffffffffffffffffff166fffffffffffffffffffffffffffffffff16600960109054906101000a90046fffffffffffffffffffffffffffffffff166fffffffffffffffffffffffffffffffff1661a782565b91505061902d565b618d0f7f56b031d779682fbf5f35d7893267e61728fb8a234f384337e5d51ec22696b10360001b6139c9565b618d3b7feb1ca6a804216572e8e9c4ae60d460db6670fdfcf19e5d433c9b15fb3a41c77360001b6139c9565b618d677f7f706ebc25e700094cf915a79acdbad3e2ca1c7ef06030fcea14cd03e4085ed360001b6139c9565b6000618dc6600960009054906101000a90046fffffffffffffffffffffffffffffffff16611519670de0b6b3a764000060020281618da157fe5b04600a60009054906101000a90046fffffffffffffffffffffffffffffffff1661a93f565b9050618df47fbddfad433e0c7725bc64971219d616bbd076b76b34438536a9d6e9b954f10fb160001b6139c9565b618e207f4a214147881ad60117066bc2fd4514ce9a735cd400ada74ad1f3f23326f6c76860001b6139c9565b6000618e7f600960109054906101000a90046fffffffffffffffffffffffffffffffff16612a31670de0b6b3a764000060020281618e5a57fe5b04600a60009054906101000a90046fffffffffffffffffffffffffffffffff1661a93f565b9050618ead7f2b10895ce02ea1926bd20677ad2afa0d20b94e791344176a98b3544ccaee1fa960001b6139c9565b618ed97f0c0274e2190fa72233057cf8118012c6297e4dfee3f9c4f7021f32057b2bb9e560001b6139c9565b618f21618f1260018503611519670de0b6b3a764000060020281618ef957fe5b04670de0b6b3a76400000361aa7d90919063ffffffff16565b8361ae8090919063ffffffff16565b9150618f4f7f80f9c678501bbbbd0347381b6e60906acfb56f688525b13c3c3e24f8d29f96a860001b6139c9565b618f7b7f02ad133bf17906ac14deb9bb11ae1762806ced71d216a4d31e587a57a1b67f8f60001b6139c9565b618fc3618fb460018503612a31670de0b6b3a764000060020281618f9b57fe5b04670de0b6b3a76400000361aa7d90919063ffffffff16565b8261ae8090919063ffffffff16565b9050618ff17fb0f37e3c0fb290a9c7df9954971ca005344e1b6be3925aea8eb541a2b0622f1b60001b6139c9565b61901d7fac43082a841fffd1cd096adb3279de1e568daa704aba63ff51eb6a2606d3786d60001b6139c9565b619027828261a782565b93505050505b919050565b60006190607f025a2f873b1a92f67797c2875d5ac2ce603f6fafe80e9945886c56264a8b211760001b61af32565b61908c7fb7331fcae94d085926ae504bc8eb56692746958bc9536c8c4ac4f6a06d0082ca60001b61af32565b6190b87f96d646aabc1da394eaa0687932f6cccb10b833339efec2e9dded9b00a75f689460001b61af32565b671480cc142da92a848210619169576190f37fbb87696e36daf9820aadd586f74392e5ecdabf41815d556375194f168d6bd89260001b61af32565b61911f7f2efbfc5979bd76311573945101dd28adb95eceb9f1b69603bbee14408fa8c5fd60001b61af32565b61914b7fc3c0738220a21e03094eb7b5088d63b6e784b7aa44d4da43fce4262a987c4a0a60001b61af32565b612710670de0b6b3a7640000603c028161916157fe5b049050619a5a565b6191957ff908a41500aa452e2bb9697613f4caee6397830d652503c02aab86c462a8b30760001b61af32565b6191c17ffcc6d88baac9500c5db2e28f6a9ef76d7579dd088aa59088c4e441a7876f8bf960001b61af32565b670de0b6b3a7640000821061967d576191fc7ff16bcdf2b10d847e74f02f1b335caf40da134a3ac43acabc4fc12cd3c0f979d860001b61af32565b6192287fa13aec049c7c7076259a0798d3d3d96361058495e8a98e62fa157c4df9116c3360001b61af32565b6192547f3cb7c413dca75f7b582720cd78e57b2fc34b1f63a38173214e6163adea55621660001b61af32565b6064670de0b6b3a76400006078028161926957fe5b048211156194775761929d7f3a76f2cf477b070b0d9e195efda1c6ba305ae42cefe96a12669c9f54385a8f8960001b61af32565b6192c97f1259cc74a8c59ef597ae469f274ee653fd839345b130f85bf698e7e24632a50e60001b61af32565b6192f57f99d669bc2244e728d87e466999415fe787427770715379f9c61b6f3792d9d11a60001b61af32565b60006064670de0b6b3a76400006078028161930c57fe5b048303905061933d7f680c5a24993326461726cf48a850f389291af2d8661d7c2df1882e196536337660001b61af32565b6193697f8353b7989c159f956d3e76eda066b038a7e312d4c73216aab0ca27ebdc0291fa60001b61af32565b600061937f60038361aa7d90919063ffffffff16565b90506193ad7f648ee87d9376c718785870043229638fd361af41e31528ea5301e2e80e18af1d60001b61af32565b6193d97fbdbb57f495655b01d1dc7848ffeb806a186f1f32451e6d1d56b0e357eb8ccf3560001b61af32565b61271061946661940784600960fa670de0b6b3a764000002816193f857fe5b0461ae8090919063ffffffff16565b61945861943385601b614e20670de0b6b3a7640000028161942457fe5b0461ae8090919063ffffffff16565b601b6103d9670de0b6b3a7640000028161944957fe5b0461681e90919063ffffffff16565b61681e90919063ffffffff16565b8161946d57fe5b0492505050619a5a565b6194a37fc1d6a1bf2b23e17a1810d7d92668e3caf2d1233c0ec9490d80a67076c107531760001b61af32565b6194cf7f3557244d8b69bd4162762401878a761b979867bd3c88892efb8447287e242e9160001b61af32565b6194fb7fedb6fb375632ba753ce9dbde6bf4795837887f10cd17922ac61cfedd5ad031a960001b61af32565b6000826064670de0b6b3a76400006078028161951357fe5b040390506195437f7b40f3a1783e8cebc5fc89e03e465e1eecbe18f0530a6a37879fb3e2efc9d2e160001b61af32565b61956f7f99fa852c5fde981e7e8d7fba91ee584cd18305125f2c95bdd2f0bf415f99173160001b61af32565b600061958560038361aa7d90919063ffffffff16565b90506195b37f5a43ca86cf87820d6bfba6cd24df095eaa53a216c0d207266675d373aad7208d60001b61af32565b6195df7f420db7d976c61a09a7abb9aa127df0ec21bd698cd393fa80bfe46019cc8e9ccf60001b61af32565b61271061966c61960d84600960fa670de0b6b3a764000002816195fe57fe5b0461ae8090919063ffffffff16565b61965e61963985601b614e20670de0b6b3a7640000028161962a57fe5b0461ae8090919063ffffffff16565b601b6103d9670de0b6b3a7640000028161964f57fe5b046168a690919063ffffffff16565b6168a690919063ffffffff16565b8161967357fe5b0492505050619a5a565b6196a97f714e2a4607277de3746b4c8c907df0fa85170397faa6271a69d10af54f210f5e60001b61af32565b6196d57fa5c8212485e1c454ac6e566dc7b94ab56049216cb258cb89f1aae609ad742c2660001b61af32565b6197017f3d5b44367125b00c8b5b133660caa8dc2d934e88c0beff229b22875efeadbc3d60001b61af32565b60006103e8670de0b6b3a7640000610344028161971a57fe5b04831161974057826103e8670de0b6b3a7640000610344028161973957fe5b040361975b565b6103e8670de0b6b3a7640000610344028161975757fe5b0483035b90506197897f35dfa07e3d872f268cf115c149292fc84bfa5e8b53ded67ab100b951df655caf60001b61af32565b6197b57f11523abb856425751d32958a9976fbc2191de91ebf5f0182bcee522db79bf10660001b61af32565b6197c960028261aa7d90919063ffffffff16565b90506197f77fc1e08403a86d0a7556e21af4e54c3aa068392a9315c668d415324b67810de79960001b61af32565b6198237f9efa1622b5116a4bf50ac628b3b5a0d6c522148675b39320337446469f26146560001b61af32565b600061987d619851612710670de0b6b3a76400006002028161984157fe5b048461681e90919063ffffffff16565b61986f84670de0b6b3a764000060050261820590919063ffffffff16565b619b4e90919063ffffffff16565b90506198ab7f57cbea94803148f62e63f070f0fba2074c9cdc8f20543f843b0cf89113fde05d60001b61af32565b6198d77f59818fc09b427d31a44e876a7b8e16102c5067e65dfc3f8d88a42627718522f260001b61af32565b6103e8670de0b6b3a764000061034402816198ee57fe5b048411156199aa576199227ff84ec4a24617243f183683f0e2888f678d3a6d3e4ab079a3bf23091221303f8860001b61af32565b61994e7fcd846bd8922893909cca9a128e8dffac3356b6100f1eeadf6223d9b2f8c2c33b60001b61af32565b61997a7f4a48c61f2857812b9ecd6a2c7227422685773af640f243db59713b0f4b358a0c60001b61af32565b612710619999826801161163ae0de59a9261681e90919063ffffffff16565b816199a057fe5b0492505050619a5a565b6199d67f487c5c9766cd67db3c908fe9bdb2393c66baacdc653e75230e69a81828dbdb2f60001b61af32565b619a027fedf04917d2b1ed5b9e7e2c7f14b3a551b96344bd32ee2fb01b2c0ddf81ac334a60001b61af32565b619a2e7f9ee2a3b8b012820d93b05f182093165dd2b33ee67ae7b20187849ad78c95479a60001b61af32565b612710619a4d826801161163ae0de59a926168a690919063ffffffff16565b81619a5457fe5b04925050505b919050565b6060619ac1826040518060400160405280602081526020017f5361666545524332303a206c6f772d6c6576656c2063616c6c206661696c65648152508573ffffffffffffffffffffffffffffffffffffffff1661af359092919063ffffffff16565b9050600081511115619b4957808060200190516020811015619ae257600080fd5b8101908080519060200190929190505050619b48576040517f08c379a000000000000000000000000000000000000000000000000000000000815260040180806020018281038252602a81526020018061b7e5602a913960400191505060405180910390fd5b5b505050565b6000619b9083836040518060400160405280601a81526020017f536166654d6174683a206469766973696f6e206279207a65726f00000000000081525061af4d565b905092915050565b6000619bc67f3fa7f3cfeb2a6d4aca337b94b9c2abcec3ad356d55e2fbeca3535b94ac6c395860001b6139c9565b619bf27f70a5fdbfdc6fa6c5ec2061a328018957294e747d03268d3f4a0bec991ba0c10260001b6139c9565b619c1e7f47feaf312c3e442554bf56081b3c20b23beb591c4d607b69eb62cd3ce372d5f360001b6139c9565b6000600a60109054906101000a90046fffffffffffffffffffffffffffffffff166fffffffffffffffffffffffffffffffff1684039050619c817f1e1b23e8f75ad71257e58e5cc1fed3ebd0a6f41fc6a6377a774365c57980f45860001b6139c9565b619cad7f1edcd14f80a454ec030b543f9b64703e5137adc8bff4479a585c276888f4fd7060001b6139c9565b6000811415619ebd57619ce27fdea043fb8ed3dc6443cc9596269ddea513c5bf664fcaf0e18721d433f9bdeb2460001b6139c9565b619d0e7f754ea2aae18600b59f277a2790e5f603e7ef67b2d9e4c24c9ece140f439bcf3760001b6139c9565b619d3a7f850bc76b3c27f9b6fa356db9fe42cfbff2d17a46929d77ff538828c1f4f898da60001b6139c9565b619dbb619d8084600a60009054906101000a90046fffffffffffffffffffffffffffffffff166fffffffffffffffffffffffffffffffff1661681e90919063ffffffff16565b6040518060400160405280601a81526020017f766f6c756d6520657863656564732076616c69642072616e676500000000000081525061b013565b600a60006101000a8154816fffffffffffffffffffffffffffffffff02191690836fffffffffffffffffffffffffffffffff160217905550619e1f7fb9afec73ad016498034fab5646599ca88f5d21da905453ad46084e68fefbc14560001b6139c9565b619e4b7f0108454a97692912bad37f3fd2887915c76af63e93c655c4c4fad5252c68481560001b6139c9565b619eb5600960009054906101000a90046fffffffffffffffffffffffffffffffff166fffffffffffffffffffffffffffffffff16600960109054906101000a90046fffffffffffffffffffffffffffffffff166fffffffffffffffffffffffffffffffff1661a782565b91505061a5b2565b619ee97ffbad4ca03248694de0192925e9d374d8549aa4720304127c40fa9411d488c57860001b6139c9565b619f157f5535c1ff5b1c310c2646ea8c499ff48797a0467b5a7c042791cf1de845934ba160001b6139c9565b619f417fc0bd0f8a16182aa75122dbdf01d76d5dd9ad9c35e3cd980722b525488974438760001b6139c9565b6000600a60009054906101000a90046fffffffffffffffffffffffffffffffff169050619f907ff6f0dfbf6e4094d3e0049beefd5f711c27fa31029b168f31766912b06d02dd7060001b6139c9565b619fbc7f83415777b88df8e7e3f590c309bebf5f1cb4b770a3d1e25e4a03e2bdb2727dd260001b6139c9565b600061a01b600960009054906101000a90046fffffffffffffffffffffffffffffffff16611519670de0b6b3a764000060020281619ff657fe5b04600a60009054906101000a90046fffffffffffffffffffffffffffffffff1661a93f565b905061a0497fde5a4062ece1362268d8df500503a9dfb9241b66cf1f8adaba420046d56473ca60001b6139c9565b61a0757fa6ea61ed6df1a9d203cc1086960a1e3a05aad23885a8f8fb9e506b30cafc65ed60001b6139c9565b600061a0d4600960109054906101000a90046fffffffffffffffffffffffffffffffff16612a31670de0b6b3a76400006002028161a0af57fe5b04600a60009054906101000a90046fffffffffffffffffffffffffffffffff1661a93f565b905061a1027f5b64017b7f1108d180f0202c5e654ea59036c0d4cc2dd56981253bdcd8fbf1fa60001b6139c9565b61a12e7f0b81c38304e7335c374c82063a6b83c86754455a3dcfc8fa995f488642e5533860001b6139c9565b61a17661a16760018603611519670de0b6b3a76400006002028161a14e57fe5b04670de0b6b3a76400000361aa7d90919063ffffffff16565b8361ae8090919063ffffffff16565b915061a1a47f85e2c5778673ca045591c24e5d0da6c9e863539018192af7b408b4dc48c5824c60001b6139c9565b61a1d07fe08f6a14599b23b70c541bda136b895f109a24f5c0b46855741a0542a0cabdc460001b6139c9565b61a21861a20960018603612a31670de0b6b3a76400006002028161a1f057fe5b04670de0b6b3a76400000361aa7d90919063ffffffff16565b8261ae8090919063ffffffff16565b905061a2467f5553c12350cafe5738bcf92a7154b477784ff3df50b8fc933210bed756e8c50260001b6139c9565b61a2727f6dd7117477b1049f768000df49268c35482ee86eb2d8fbd8de61725b0fa44d8f60001b6139c9565b61a27b8261b20e565b600960006101000a8154816fffffffffffffffffffffffffffffffff02191690836fffffffffffffffffffffffffffffffff16021790555061a2df7faa98210dbd95b180fedef51bb1e5a619b518b11673f5a3786fbd56df1309059860001b6139c9565b61a30b7f8366a416c3862c416069c0328cb8a5ef9afde94acaef809e1e59185cc680d28d60001b6139c9565b61a3148161b20e565b600960106101000a8154816fffffffffffffffffffffffffffffffff02191690836fffffffffffffffffffffffffffffffff16021790555061a3787f977b3275d8ca4741e47f08c4881d39d89781244277d25e49fa7d47c3efa32f7760001b6139c9565b61a3a47fd8d094abc84265cf0fcab7088d1fc03e0c975becea70564781ee5bb895a61e4d60001b6139c9565b61a3ad8661b20e565b600a60006101000a8154816fffffffffffffffffffffffffffffffff02191690836fffffffffffffffffffffffffffffffff16021790555061a4117ff8f4bd09503bcf56a1b225fde21fc96562e6c70012613b3f3f5175f86e204aa960001b6139c9565b61a43d7fc204a0c6c8ca125c5af47568e26b12959109ce8a04e6d8ea18306714d549944860001b6139c9565b61a4468761b20e565b600a60106101000a8154816fffffffffffffffffffffffffffffffff02191690836fffffffffffffffffffffffffffffffff16021790555061a4aa7fac14f6a476a3cfba9f5a0b66027b02bb7e953922b3ec426d25b1c8fdb3ad4ef360001b6139c9565b61a4d67f73f33ecf02b6d35df2a0700319b4bdd4d58c8807321cebeea50bf8488e2e035360001b6139c9565b7f96e2c334d3c0fa98c8b728ee84471864ffe5b28e05f46e52f8a469d0ab3a8b8b8282858760405180858152602001848152602001836fffffffffffffffffffffffffffffffff166fffffffffffffffffffffffffffffffff16815260200182815260200194505050505060405180910390a161a5757f589e989e02f582a86d84ba8a055104d40ce50fae4ec92bcd07a4e473d365fb5860001b6139c9565b61a5a17ffb791ffdfb164e8c6e4410a2f6bf8d76483f4dfd59590c70a3d8bcc0134bb07b60001b6139c9565b61a5ab828261a782565b9450505050505b92915050565b600061a5e67f8a647d1c47d1a5527acc538b6fda26cdae17b0c8b787a7f8ca34d876e45c304f60001b614c37565b61a6127fbb7fc232937c2dd53d2e56edd4e347af648479336a21a81fd8a4464be4181e5660001b614c37565b61a63e7f27ec1dc3237cde436b211c65f66d0dfcbc1a2b810dbcd00b6c810fd82f5fdc4260001b614c37565b61a66a7f0777b6351015cf4927069c1a9c9a10840dc45d4381023c885ec318d127fc8bb460001b614c37565b6dffffffffffffffffffffffffffff82111561a6ee576040517f08c379a00000000000000000000000000000000000000000000000000000000081526004018080602001828103825260118152602001807f58595a537761703a204f564552464c4f5700000000000000000000000000000081525060200191505060405180910390fd5b61a71a7f4a3611b308c5fd78b65bda6f63382136f6cd8770362aaa289c3bfed5fa46fc1960001b614c37565b61a7467f4742bfe1c92e99c9bdc3941fce7c8352c51cf1eb22011b02e829c3a20feb81ef60001b614c37565b61a7727f59af8fc450a51f8b2f7edea011f6010674ba1021259f07f3355efd91a471f99060001b614c37565b819050919050565b505050565b50565b600061a7b07f79b14318dad702b4c4811198e1890c3e47721fb57c4b6b2559131b44d6cbc5c060001b6139c9565b61a7dc7f507768526f408ac865a6aee7e9fbe1fd7e5eeed7813892e334c7501864a6177b60001b6139c9565b61a8087fe081bf20b93bc6f94fdc65757a55bcfb141bf4f2d9e05a478d9fd2303048452960001b6139c9565b600082141561a89e5761a83d7ff7f8030f420803f263183513fe9bdd844ad3343376cb2fcd7e29a2c27d77eccc60001b6139c9565b61a8697f01de8eb65112f59caf82047ecdfd8d990a87502b192a82e4a3c0337f551a64e160001b6139c9565b61a8957f6d6702bef595c91b0f2dd5dff745bf49131d2ff5a92266663dc2182a77b4d37160001b6139c9565b6000905061a939565b61a8ca7f0a38a8c8148bff995be9f943323814b3680b001299dd471c7747c0b359b9aa8560001b6139c9565b61a8f67f630aac48cb043456cdf1882044a5fbdc4e02551bcfd8140509a0abf6e0aa276960001b6139c9565b61a9227ffcb5fe4f2ecf93176e9243c6344459dbc46f3b8ce81b14a10601c0fe502928b760001b6139c9565b81670de0b6b3a764000084028161a93557fe5b0490505b92915050565b600061a96d7f430d2bec95a106bfc6307dd526982e27fe7708138fd542dcecf2ab4d3f6bd1a760001b6139c9565b61a9997f301edbf5599f66a270ef9dc5c655112b441a49bc68f123127c5abe5bd3eb093a60001b6139c9565b61a9c57f5a9b86efe5aac34f4dfbf105c0bd6db0ff977e9d09b44d6727095225f3bbe98560001b6139c9565b670de0b6b3a7640000831061a9d657fe5b61aa027fef0961dfc0d9271a4b28d6ec160d16f4f92c39d3d3350eb09f4a12069b756e6c60001b6139c9565b61aa2e7f4dd2d0c5ebd28377bba91243222c8d4d62799bce1105de2f02be67e13012001860001b6139c9565b670de0b6b3a7640000826fffffffffffffffffffffffffffffffff168402856fffffffffffffffffffffffffffffffff1685670de0b6b3a76400000302018161aa7357fe5b0490509392505050565b600061aaab7fa6dbe018de227cf3e52d1ff6e6e9ef5bb4cba7a43b37ddbf15e93ac7fb743f6f60001b61a77f565b61aad77fa02df3dedbb774e7013c8250520a2ba8de3233433fb1a64b2a85e0c2184a391260001b61a77f565b61ab037f1f811940c1e4d188995f533149f0120ec0f69cba5c612747dc3854bc5cfccb5c60001b61a77f565b61ab2f7f988c42417bf4df71bcb868bd2b6711cac8c3a593d0d3794e12f46e0ba803f0d260001b61a77f565b670de0b6b3a764000083111561abad576040517f08c379a00000000000000000000000000000000000000000000000000000000081526004018080602001828103825260168152602001807f4d6174684578743a2078203e20505245434953494f4e0000000000000000000081525060200191505060405180910390fd5b61abd97fc2f1cab977e439e77af09a6a341564ef429f16c7102b8d3d25f0a0be03e3bd2960001b61a77f565b61ac057f0ee15d6574f509ff85e521923fd2798ed8fa334224e82f8aa5ec14a81e46db5960001b61a77f565b61ac317f86fc9921cafff7c84b4680a2ffb7c61954b89a9973acec2961524fbf6c80297960001b61a77f565b60006002838161ac3d57fe5b06141561ac5257670de0b6b3a764000061ac54565b825b905061ac827fd9b5849e5ba190748310b1e3b5151c7954fcfdf14c3efe8369349344959d12f760001b61a77f565b61acae7f510c30360b44bbb15d7a879983f82aabccffb5db5bd6f26c6f28c9ef6cf0922460001b61a77f565b6002828161acb857fe5b0491505b6000821461ae7a5761acf07f556166a06eb5f3205035d5952c38e25354b474bbc9795c490d9919252a1c1dd260001b61a77f565b61ad1c7f06f8f66baadff2354af2f0257b5dfa6689e5efd70eac97da2d6e633c9887e22c60001b61a77f565b670de0b6b3a76400008384028161ad2f57fe5b04925061ad5e7f310f6752a7a5800232f83d024e2b99b4ffd1cd185390b7b77786f7c3cf740d8d60001b61a77f565b61ad8a7f76e2e7f01543f8cb88d04c278923c1f93961880ec9b3f2e1eb55d1f10e2c2ec760001b61a77f565b60006002838161ad9657fe5b061461ae3b5761adc87ff827e3ca6ba1cbb2bb978550ec35abd506bc1e3d6edc858b2e10df9f62428ed960001b61a77f565b61adf47f51fc87c099c8ded20abad0e0eeca77b5a28647e7849053bef6a1b1972929443060001b61a77f565b61ae207f05ff1d9c41d6b2d06eaa7a2a79f63018932e45647bcb2dd52669eef5d570f0b960001b61a77f565b670de0b6b3a76400008382028161ae3357fe5b04905061ae68565b61ae677f74611f1e0623b497f3004343097c594b03ea9ee4a001487cac21ff1d35664bad60001b61a77f565b5b6002828161ae7257fe5b04915061acbc565b92915050565b600061aeae7f4441f99f20e69498749404c8690bbd2d8702df8260879ace91865ee12f27ac2e60001b61a77f565b61aeda7f26fd81cf6d511b2012b18fd91f0380d187972dbfd6f87e49a740b4fe51ecb09960001b61a77f565b61af067f9f57069e84753fca85a7563a5f7e769a27d08d890f4c49a78f3b6947f77644ff60001b61a77f565b670de0b6b3a764000061af22838561820590919063ffffffff16565b8161af2957fe5b04905092915050565b50565b606061af44848460008561b3d2565b90509392505050565b6000808311829061aff9576040517f08c379a00000000000000000000000000000000000000000000000000000000081526004018080602001828103825283818151815260200191508051906020019080838360005b8381101561afbe57808201518184015260208101905061afa3565b50505050905090810190601f16801561afeb5780820380516001836020036101000a031916815260200191505b509250505060405180910390fd5b50600083858161b00557fe5b049050809150509392505050565b600061b0417f8349c6f66f7f1ece12ac693a18815dacaf91690dbeba7261036c3399241dd9f960001b6139c9565b61b06d7f07a778900eac07fda31cc6fe41d91486888f18614deaa019913b4e542a4d28d560001b6139c9565b61b0997fda675fada2f76621f627e18ca96574b0deeededcdd47904083581c6ad697b96b60001b6139c9565b61b0c57f97356ff22e54796976424e8dc966edbd903956a15079fd998123ba1c960f6c9960001b6139c9565b6fffffffffffffffffffffffffffffffff831115829061b180576040517f08c379a00000000000000000000000000000000000000000000000000000000081526004018080602001828103825283818151815260200191508051906020019080838360005b8381101561b14557808201518184015260208101905061b12a565b50505050905090810190601f16801561b1725780820380516001836020036101000a031916815260200191505b509250505060405180910390fd5b5061b1ad7f1fd1dc23c20412bf56f54b078f2ac75fad6fa30a14d8de10445ed644bcdc61aa60001b6139c9565b61b1d97fe39bb3495cf271ff6c6c91d245d66e1ba5cb78c6e7a290a8fb89936dcbf2bc5160001b6139c9565b61b2057f4064db590d9da4529bf50f1cbdbc6b53add4dc048515fc3f8bf73f22f0b8f6da60001b6139c9565b82905092915050565b600061b23c7fcc44474d4b6cd8f96012b5c786ff3530b459ca5772ea152d1b1bd062b667fe6360001b6139c9565b61b2687f755bf2215d32a5b44fbbef96abe966792c1876290422d6ec645eeecb28573fef60001b6139c9565b61b2947f8d1c98b36dbe40afd2bb285a4be48e51b03db5b5d52d28cb24ad443726ceb1b460001b6139c9565b61b2c07fd1f74c05fd81211b1e033a27eac9b65eac54d93ea04938bdc7d3b5ad305c997a60001b6139c9565b6fffffffffffffffffffffffffffffffff82111561b346576040517f08c379a00000000000000000000000000000000000000000000000000000000081526004018080602001828103825260108152602001807f6f766572666c6f772075696e743132380000000000000000000000000000000081525060200191505060405180910390fd5b61b3727f0bfdea64af8b1751a5870d0a9e434b3ecc9d534b6ad47cdce269da831ae220ab60001b6139c9565b61b39e7f299b6f7ce26432cf481c09c8dffa9f2d3aa8b9fd8c8650930c02e0372357f0b360001b6139c9565b61b3ca7fc18152ffe401aa8b6dedef287ac1adf6038a392c9fe44fcbbaf6c0f9619d16b460001b6139c9565b819050919050565b606061b3dd8561b5d8565b61b44f576040517f08c379a000000000000000000000000000000000000000000000000000000000815260040180806020018281038252601d8152602001807f416464726573733a2063616c6c20746f206e6f6e2d636f6e747261637400000081525060200191505060405180910390fd5b600060608673ffffffffffffffffffffffffffffffffffffffff1685876040518082805190602001908083835b6020831061b49f578051825260208201915060208101905060208303925061b47c565b6001836020036101000a03801982511681845116808217855250505050505090500191505060006040518083038185875af1925050503d806000811461b501576040519150601f19603f3d011682016040523d82523d6000602084013e61b506565b606091505b5091509150811561b51b57809250505061b5d0565b60008151111561b52e5780518082602001fd5b836040517f08c379a00000000000000000000000000000000000000000000000000000000081526004018080602001828103825283818151815260200191508051906020019080838360005b8381101561b59557808201518184015260208101905061b57a565b50505050905090810190601f16801561b5c25780820380516001836020036101000a031916815260200191505b509250505060405180910390fd5b949350505050565b600080823b905060008111915050919050565b604051806080016040528060008152602001600081526020016000815260200160008152509056fe45524332303a207472616e7366657220746f20746865207a65726f206164647265737345524332303a206275726e20616d6f756e7420657863656564732062616c616e636545524332303a20617070726f766520746f20746865207a65726f206164647265737345524332303a207472616e7366657220616d6f756e7420657863656564732062616c616e636558595a537761703a20494e53554646494349454e545f4c49515549444954595f4255524e454458595a537761703a20494e53554646494349454e545f494e5055545f414d4f554e54536166654d6174683a206d756c7469706c69636174696f6e206f766572666c6f7745524332303a207472616e7366657220616d6f756e74206578636565647320616c6c6f77616e636545524332303a206275726e2066726f6d20746865207a65726f206164647265737358595a537761703a20494e53554646494349454e545f4c49515549444954595f4d494e54454458595a537761703a20494e53554646494349454e545f4f55545055545f414d4f554e5445524332303a207472616e736665722066726f6d20746865207a65726f206164647265737345524332303a20617070726f76652066726f6d20746865207a65726f20616464726573735361666545524332303a204552433230206f7065726174696f6e20646964206e6f74207375636365656445524332303a2064656372656173656420616c6c6f77616e63652062656c6f77207a65726fa26469706673582212203da16388274236cf31e42cd684b89cf6b6c6b5c686cc529b6cf1d9028da8e55164736f6c63430006060033454950373132446f6d61696e28737472696e67206e616d652c737472696e672076657273696f6e2c75696e7432353620636861696e49642c6164647265737320766572696679696e67436f6e747261637429",
  "linkReferences": {},
  "deployedLinkReferences": {}
}