{
  "_format": "hh-sol-artifact-1",
  "contractName": "XYZSwapFactory",
  "sourceName": "contracts/XYZSwapFactory.sol",
  "abi": [
    {
      "inputs": [
        {
          "internalType": "address",
          "name": "_feeToSetter",
          "type": "address"
        }
      ],
      "stateMutability": "nonpayable",
      "type": "constructor"
    },
    {
      "anonymous": false,
      "inputs": [
        {
          "indexed": true,
          "internalType": "contract IERC20",
          "name": "token0",
          "type": "address"
        },
        {
          "indexed": true,
          "internalType": "contract IERC20",
          "name": "token1",
          "type": "address"
        },
        {
          "indexed": false,
          "internalType": "address",
          "name": "pair",
          "type": "address"
        },
        {
          "indexed": false,
          "internalType": "uint32",
          "name": "ampBps",
          "type": "uint32"
        },
        {
          "indexed": false,
          "internalType": "uint256",
          "name": "totalPair",
          "type": "uint256"
        }
      ],
      "name": "PairCreated",
      "type": "event"
    },
    {
      "anonymous": false,
      "inputs": [
        {
          "indexed": false,
          "internalType": "address",
          "name": "feeTo",
          "type": "address"
        },
        {
          "indexed": false,
          "internalType": "uint16",
          "name": "governmentFeeBps",
          "type": "uint16"
        }
      ],
      "name": "SetFeeConfiguration",
      "type": "event"
    },
    {
      "anonymous": false,
      "inputs": [
        {
          "indexed": false,
          "internalType": "address",
          "name": "feeToSetter",
          "type": "address"
        }
      ],
      "name": "SetFeeToSetter",
      "type": "event"
    },
    {
      "inputs": [
        {
          "internalType": "uint256",
          "name": "",
          "type": "uint256"
        }
      ],
      "name": "allPairs",
      "outputs": [
        {
          "internalType": "address",
          "name": "",
          "type": "address"
        }
      ],
      "stateMutability": "view",
      "type": "function"
    },
    {
      "inputs": [],
      "name": "allPairsLength",
      "outputs": [
        {
          "internalType": "uint256",
          "name": "",
          "type": "uint256"
        }
      ],
      "stateMutability": "view",
      "type": "function"
    },
    {
      "inputs": [
        {
          "internalType": "contract IERC20",
          "name": "tokenA",
          "type": "address"
        },
        {
          "internalType": "contract IERC20",
          "name": "tokenB",
          "type": "address"
        },
        {
          "internalType": "uint32",
          "name": "ampBps",
          "type": "uint32"
        }
      ],
      "name": "createPair",
      "outputs": [
        {
          "internalType": "address",
          "name": "pair",
          "type": "address"
        }
      ],
      "stateMutability": "nonpayable",
      "type": "function"
    },
    {
      "inputs": [],
      "name": "feeToSetter",
      "outputs": [
        {
          "internalType": "address",
          "name": "",
          "type": "address"
        }
      ],
      "stateMutability": "view",
      "type": "function"
    },
    {
      "inputs": [],
      "name": "getFeeConfiguration",
      "outputs": [
        {
          "internalType": "address",
          "name": "_feeTo",
          "type": "address"
        },
        {
          "internalType": "uint16",
          "name": "_governmentFeeBps",
          "type": "uint16"
        }
      ],
      "stateMutability": "view",
      "type": "function"
    },
    {
      "inputs": [
        {
          "internalType": "contract IERC20",
          "name": "",
          "type": "address"
        },
        {
          "internalType": "contract IERC20",
          "name": "",
          "type": "address"
        }
      ],
      "name": "getNonAmpPair",
      "outputs": [
        {
          "internalType": "address",
          "name": "",
          "type": "address"
        }
      ],
      "stateMutability": "view",
      "type": "function"
    },
    {
      "inputs": [
        {
          "internalType": "contract IERC20",
          "name": "token0",
          "type": "address"
        },
        {
          "internalType": "contract IERC20",
          "name": "token1",
          "type": "address"
        },
        {
          "internalType": "uint256",
          "name": "index",
          "type": "uint256"
        }
      ],
      "name": "getPairAtIndex",
      "outputs": [
        {
          "internalType": "address",
          "name": "_tokenPair",
          "type": "address"
        }
      ],
      "stateMutability": "view",
      "type": "function"
    },
    {
      "inputs": [
        {
          "internalType": "contract IERC20",
          "name": "token0",
          "type": "address"
        },
        {
          "internalType": "contract IERC20",
          "name": "token1",
          "type": "address"
        }
      ],
      "name": "getPairs",
      "outputs": [
        {
          "internalType": "address[]",
          "name": "_tokenPairs",
          "type": "address[]"
        }
      ],
      "stateMutability": "view",
      "type": "function"
    },
    {
      "inputs": [
        {
          "internalType": "contract IERC20",
          "name": "token0",
          "type": "address"
        },
        {
          "internalType": "contract IERC20",
          "name": "token1",
          "type": "address"
        }
      ],
      "name": "getPairsLength",
      "outputs": [
        {
          "internalType": "uint256",
          "name": "",
          "type": "uint256"
        }
      ],
      "stateMutability": "view",
      "type": "function"
    },
    {
      "inputs": [
        {
          "internalType": "contract IERC20",
          "name": "token0",
          "type": "address"
        },
        {
          "internalType": "contract IERC20",
          "name": "token1",
          "type": "address"
        },
        {
          "internalType": "address",
          "name": "pair",
          "type": "address"
        }
      ],
      "name": "isPair",
      "outputs": [
        {
          "internalType": "bool",
          "name": "",
          "type": "bool"
        }
      ],
      "stateMutability": "view",
      "type": "function"
    },
    {
      "inputs": [
        {
          "internalType": "address",
          "name": "_feeTo",
          "type": "address"
        },
        {
          "internalType": "uint16",
          "name": "_governmentFeeBps",
          "type": "uint16"
        }
      ],
      "name": "setFeeConfiguration",
      "outputs": [],
      "stateMutability": "nonpayable",
      "type": "function"
    },
    {
      "inputs": [
        {
          "internalType": "address",
          "name": "_feeToSetter",
          "type": "address"
        }
      ],
      "name": "setFeeToSetter",
      "outputs": [],
      "stateMutability": "nonpayable",
      "type": "function"
    }
  ],
  "bytecode": "0x608060405234801561001057600080fd5b506040516158d93803806158d98339818101604052602081101561003357600080fd5b5051600180546001600160a01b0319166001600160a01b03909216919091179055615876806100636000396000f3fe60806040523480156200001157600080fd5b5060043610620000e85760003560e01c8063574f2ba3116200008d578063a2e74af61162000063578063a2e74af6146200035b578063ad5cb2e11462000391578063cd26b35f14620003ce57620000e8565b8063574f2ba314620002be57806389609fb314620002c85780638d22cf54146200030e57620000e8565b806316093fad11620000c357806316093fad14620001cc5780631e3dd18b146200025c5780632900909d146200027c57620000e8565b8063094b741514620000ed57806312605b561462000120578063139ea3961462000170575b600080fd5b620000f76200040c565b6040805173ffffffffffffffffffffffffffffffffffffffff9092168252519081900360200190f35b6200015e600480360360408110156200013857600080fd5b5073ffffffffffffffffffffffffffffffffffffffff8135811691602001351662000428565b60408051918252519081900360200190f35b620001b8600480360360608110156200018857600080fd5b5073ffffffffffffffffffffffffffffffffffffffff813581169160208101358216916040909101351662000470565b604080519115158252519081900360200190f35b6200020a60048036036040811015620001e457600080fd5b5073ffffffffffffffffffffffffffffffffffffffff81358116916020013516620004be565b60408051602080825283518183015283519192839290830191858101910280838360005b83811015620002485781810151838201526020016200022e565b505050509050019250505060405180910390f35b620000f7600480360360208110156200027457600080fd5b5035620005dc565b620002bc600480360360408110156200029457600080fd5b50803573ffffffffffffffffffffffffffffffffffffffff16906020013561ffff1662000611565b005b6200015e620007e2565b620000f760048036036060811015620002e057600080fd5b5073ffffffffffffffffffffffffffffffffffffffff813581169160208101359091169060400135620007e8565b620000f7600480360360608110156200032657600080fd5b50803573ffffffffffffffffffffffffffffffffffffffff908116916020810135909116906040013563ffffffff166200082e565b620002bc600480360360208110156200037357600080fd5b503573ffffffffffffffffffffffffffffffffffffffff1662000d73565b6200039b62000e73565b6040805173ffffffffffffffffffffffffffffffffffffffff909316835261ffff90911660208301528051918290030190f35b620000f760048036036040811015620003e657600080fd5b5073ffffffffffffffffffffffffffffffffffffffff8135811691602001351662000eae565b60015473ffffffffffffffffffffffffffffffffffffffff1681565b73ffffffffffffffffffffffffffffffffffffffff80831660009081526002602090815260408083209385168352929052908120620004679062000ee1565b90505b92915050565b73ffffffffffffffffffffffffffffffffffffffff80841660009081526002602090815260408083209386168352929052908120620004b6908363ffffffff62000eee16565b949350505050565b73ffffffffffffffffffffffffffffffffffffffff8083166000908152600260209081526040808320938516835292905290812060609190620005019062000ee1565b90508067ffffffffffffffff811180156200051b57600080fd5b5060405190808252806020026020018201604052801562000546578160200160208202803683370190505b50915060005b81811015620005d45773ffffffffffffffffffffffffffffffffffffffff808616600090815260026020908152604080832093881683529290522062000599908263ffffffff62000f1216565b838281518110620005a657fe5b73ffffffffffffffffffffffffffffffffffffffff909216602092830291909101909101526001016200054c565b505092915050565b60048181548110620005ea57fe5b60009182526020909120015473ffffffffffffffffffffffffffffffffffffffff16905081565b60015473ffffffffffffffffffffffffffffffffffffffff1633146200069857604080517f08c379a000000000000000000000000000000000000000000000000000000000815260206004820152601260248201527f58595a537761703a20464f5242494444454e0000000000000000000000000000604482015290519081900360640190fd5b60008161ffff16118015620006b257506107d08161ffff16105b6200071e57604080517f08c379a000000000000000000000000000000000000000000000000000000000815260206004820152601460248201527f58595a537761703a20494e56414c494420464545000000000000000000000000604482015290519081900360640190fd5b6000805461ffff83167401000000000000000000000000000000000000000081027fffffffffffffffffffff0000ffffffffffffffffffffffffffffffffffffffff73ffffffffffffffffffffffffffffffffffffffff87167fffffffffffffffffffffffff00000000000000000000000000000000000000009094168417161790925560408051918252602082019290925281517fce65ee4e1b50c25affcecb736ecf577b5c46ff900efade2a6214267a8707628e929181900390910190a15050565b60045490565b73ffffffffffffffffffffffffffffffffffffffff80841660009081526002602090815260408083209386168352929052908120620004b6908363ffffffff62000f1216565b60008273ffffffffffffffffffffffffffffffffffffffff168473ffffffffffffffffffffffffffffffffffffffff161415620008cc57604080517f08c379a000000000000000000000000000000000000000000000000000000000815260206004820152601c60248201527f58595a537761703a204944454e544943414c5f41444452455353455300000000604482015290519081900360640190fd5b6000808473ffffffffffffffffffffffffffffffffffffffff168673ffffffffffffffffffffffffffffffffffffffff16106200090b5784866200090e565b85855b909250905073ffffffffffffffffffffffffffffffffffffffff82166200099657604080517f08c379a000000000000000000000000000000000000000000000000000000000815260206004820152601560248201527f58595a537761703a205a45524f5f414444524553530000000000000000000000604482015290519081900360640190fd5b6127108463ffffffff16101562000a0e57604080517f08c379a000000000000000000000000000000000000000000000000000000000815260206004820152601460248201527f58595a537761703a20494e56414c49445f425053000000000000000000000000604482015290519081900360640190fd5b6127108463ffffffff1614158062000a58575073ffffffffffffffffffffffffffffffffffffffff8281166000908152600360209081526040808320858516845290915290205416155b62000ac457604080517f08c379a000000000000000000000000000000000000000000000000000000000815260206004820152601460248201527f58595a537761703a20504149525f455849535453000000000000000000000000604482015290519081900360640190fd5b60405162000ad29062001030565b604051809103906000f08015801562000aef573d6000803e3d6000fd5b50604080517f6ecf2b2200000000000000000000000000000000000000000000000000000000815273ffffffffffffffffffffffffffffffffffffffff8581166004830152848116602483015263ffffffff88166044830152915192955090851691636ecf2b229160648082019260009290919082900301818387803b15801562000b7957600080fd5b505af115801562000b8e573d6000803e3d6000fd5b50505073ffffffffffffffffffffffffffffffffffffffff808416600090815260026020908152604080832093861683529290522062000bd691508463ffffffff62000f2016565b5073ffffffffffffffffffffffffffffffffffffffff808216600090815260026020908152604080832093861683529290522062000c1b908463ffffffff62000f2016565b506127108463ffffffff16141562000ca65773ffffffffffffffffffffffffffffffffffffffff8083166000818152600360208181526040808420878716855282528084208054968a167fffffffffffffffffffffffff0000000000000000000000000000000000000000978816811790915592825280842094845293905291902080549092161790555b6004805460018101825560008290527f8a35acfbc15ff81a39ae7d344fd709f28e8600b4aa8c65c6b64bfe7fe36bd19b01805473ffffffffffffffffffffffffffffffffffffffff8087167fffffffffffffffffffffffff0000000000000000000000000000000000000000909216821790925591546040805193845263ffffffff88166020850152838101919091525183821692918516917f3541d8fea55be35f686281f975bf8b7ab8fbb500c1c7ddd6c4e714655e9cd4e2919081900360600190a350509392505050565b60015473ffffffffffffffffffffffffffffffffffffffff16331462000dfa57604080517f08c379a000000000000000000000000000000000000000000000000000000000815260206004820152601260248201527f58595a537761703a20464f5242494444454e0000000000000000000000000000604482015290519081900360640190fd5b6001805473ffffffffffffffffffffffffffffffffffffffff83167fffffffffffffffffffffffff0000000000000000000000000000000000000000909116811790915560408051918252517f66330d9620e4f36ed52d5f7b79fa819b71c33037004c3889a3601b06c68da7cc9181900360200190a150565b60005473ffffffffffffffffffffffffffffffffffffffff8116917401000000000000000000000000000000000000000090910461ffff1690565b600360209081526000928352604080842090915290825290205473ffffffffffffffffffffffffffffffffffffffff1681565b60006200046a8262000f44565b6000620004678373ffffffffffffffffffffffffffffffffffffffff841662000f48565b600062000467838362000f60565b6000620004678373ffffffffffffffffffffffffffffffffffffffff841662000fe1565b5490565b60009081526001919091016020526040902054151590565b8154600090821062000fbe576040517f08c379a00000000000000000000000000000000000000000000000000000000081526004018080602001828103825260228152602001806200581f6022913960400191505060405180910390fd5b82600001828154811062000fce57fe5b9060005260206000200154905092915050565b600062000fef838362000f48565b62001027575081546001818101845560008481526020808220909301849055845484825282860190935260409020919091556200046a565b5060006200046a565b6147e0806200103f8339019056fe60806040523480156200001157600080fd5b5060006040518060400160405280600a815260200169058595a53776170204c560b41b81525060405180604001604052806006815260200165058595a2d4c560d41b815250604051806040016040528060018152602001603160f81b815250828281600390805190602001906200008a929190620001f3565b508051620000a0906004906020840190620001f3565b50506005805460ff191660121790555060405146908060526200478e8239604080519182900360520182208751602098890120865196890196909620888401919091528282019590955260608201949094526080810192909252503060a0808301919091528251808303909101815260c0909101909152805192019190912060065550600160085560098054600160801b6001600160801b038085169182026001600160801b0319909316919091171617905562000167436001600160e01b036200019d16565b600a80546001600160801b03928316600160801b02921691909117905550600b80546001600160a01b031916331790556200028d565b60006001600160801b03821115620001ef576040805162461bcd60e51b815260206004820152601060248201526f0deeccae4ccd8deee40ead2dce86264760831b604482015290519081900360640190fd5b5090565b828054600181600116156101000203166002900490600052602060002090601f016020900481019282601f106200023657805160ff191683800117855562000266565b8280016001018555821562000266579182015b828111156200026657825182559160200191906001019062000249565b50620001ef926200028a9250905b80821115620001ef576000815560010162000274565b90565b6144f1806200029d6000396000f3fe608060405234801561001057600080fd5b50600436106101cf5760003560e01c80637464fc3d11610104578063bc25cf77116100a2578063d669402711610071578063d669402714610704578063dd62ed3e1461074e578063f698da2514610789578063fff6cae914610791576101cf565b8063bc25cf7714610663578063c45a015514610696578063d21220a71461069e578063d505accf146106a6576101cf565b806395d89b41116100de57806395d89b41146105e1578063a457c2d7146105e9578063a9059cbb14610622578063ba9a7a561461065b576101cf565b80637464fc3d1461055a5780637ecebe001461056257806389afcb4414610595576101cf565b806323b872dd11610171578063395093511161014b57806339509351146104715780636a627842146104aa5780636ecf2b22146104dd57806370a0823114610527576101cf565b806323b872dd1461040857806330adf81f1461044b578063313ce56714610453576101cf565b8063095ea7b3116101ad578063095ea7b31461032b5780630d94d50b146103785780630dfe1681146103bd57806318160ddd146103ee576101cf565b8063022c0d9f146101d457806306fdde031461026f5780630902f1ac146102ec575b600080fd5b61026d600480360360808110156101ea57600080fd5b81359160208101359173ffffffffffffffffffffffffffffffffffffffff604083013516919081019060808101606082013564010000000081111561022e57600080fd5b82018360208201111561024057600080fd5b8035906020019184600183028401116401000000008311171561026257600080fd5b509092509050610799565b005b610277610e40565b6040805160208082528351818301528351919283929083019185019080838360005b838110156102b1578181015183820152602001610299565b50505050905090810190601f1680156102de5780820380516001836020036101000a031916815260200191505b509250505060405180910390f35b6102f4610ef4565b604080516dffffffffffffffffffffffffffff948516815292909316602083015263ffffffff168183015290519081900360600190f35b6103646004803603604081101561034157600080fd5b5073ffffffffffffffffffffffffffffffffffffffff8135169060200135610f49565b604080519115158252519081900360200190f35b610380610f67565b604080516fffffffffffffffffffffffffffffffff9586168152938516602085015291841683830152909216606082015290519081900360800190f35b6103c5610fa6565b6040805173ffffffffffffffffffffffffffffffffffffffff9092168252519081900360200190f35b6103f6610fc2565b60408051918252519081900360200190f35b6103646004803603606081101561041e57600080fd5b5073ffffffffffffffffffffffffffffffffffffffff813581169160208101359091169060400135610fc8565b6103f661106f565b61045b611093565b6040805160ff9092168252519081900360200190f35b6103646004803603604081101561048757600080fd5b5073ffffffffffffffffffffffffffffffffffffffff813516906020013561109c565b6103f6600480360360208110156104c057600080fd5b503573ffffffffffffffffffffffffffffffffffffffff166110fd565b61026d600480360360608110156104f357600080fd5b50803573ffffffffffffffffffffffffffffffffffffffff908116916020810135909116906040013563ffffffff1661156b565b6103f66004803603602081101561053d57600080fd5b503573ffffffffffffffffffffffffffffffffffffffff1661167d565b6103f66116a9565b6103f66004803603602081101561057857600080fd5b503573ffffffffffffffffffffffffffffffffffffffff166116af565b6105c8600480360360208110156105ab57600080fd5b503573ffffffffffffffffffffffffffffffffffffffff166116c1565b6040805192835260208301919091528051918290030190f35b610277611cc3565b610364600480360360408110156105ff57600080fd5b5073ffffffffffffffffffffffffffffffffffffffff8135169060200135611d42565b6103646004803603604081101561063857600080fd5b5073ffffffffffffffffffffffffffffffffffffffff8135169060200135611dbd565b6103f6611dd1565b61026d6004803603602081101561067957600080fd5b503573ffffffffffffffffffffffffffffffffffffffff16611dd7565b6103c561200b565b6103c5612027565b61026d600480360360e08110156106bc57600080fd5b5073ffffffffffffffffffffffffffffffffffffffff813581169160208101359091169060408101359060608101359060ff6080820135169060a08101359060c00135612043565b61070c61230f565b604080516dffffffffffffffffffffffffffff968716815294861660208601529285168484015293166060830152608082019290925290519081900360a00190f35b6103f66004803603604081101561076457600080fd5b5073ffffffffffffffffffffffffffffffffffffffff813581169160200135166123b5565b6103f66123ed565b61026d6123f3565b6002600854141561080b57604080517f08c379a000000000000000000000000000000000000000000000000000000000815260206004820152601f60248201527f5265656e7472616e637947756172643a207265656e7472616e742063616c6c00604482015290519081900360640190fd5b60026008558415158061081e5750600084115b610873576040517f08c379a00000000000000000000000000000000000000000000000000000000081526004018080602001828103825260238152602001806144016023913960400191505060405180910390fd5b600061087d614273565b610885612699565b805191935091508710801561089d5750806020015186105b61090857604080517f08c379a000000000000000000000000000000000000000000000000000000000815260206004820152601f60248201527f58595a537761703a20494e53554646494349454e545f4c495155494449545900604482015290519081900360640190fd5b610910614273565b600c54600d5473ffffffffffffffffffffffffffffffffffffffff91821691908116908816821480159061097057508073ffffffffffffffffffffffffffffffffffffffff168873ffffffffffffffffffffffffffffffffffffffff1614155b6109db57604080517f08c379a000000000000000000000000000000000000000000000000000000000815260206004820152601360248201527f58595a537761703a20494e56414c49445f544f00000000000000000000000000604482015290519081900360640190fd5b8915610a0857610a0873ffffffffffffffffffffffffffffffffffffffff8316898c63ffffffff61272b16565b8815610a3557610a3573ffffffffffffffffffffffffffffffffffffffff8216898b63ffffffff61272b16565b8515610b17578773ffffffffffffffffffffffffffffffffffffffff1663735c5cad338c8c8b8b6040518663ffffffff1660e01b8152600401808673ffffffffffffffffffffffffffffffffffffffff1673ffffffffffffffffffffffffffffffffffffffff168152602001858152602001848152602001806020018281038252848482818152602001925080828437600081840152601f19601f8201169050808301925050509650505050505050600060405180830381600087803b158015610afe57600080fd5b505af1158015610b12573d6000803e3d6000fd5b505050505b604080517f70a08231000000000000000000000000000000000000000000000000000000008152306004820152905173ffffffffffffffffffffffffffffffffffffffff8416916370a08231916024808301926020929190829003018186803b158015610b8357600080fd5b505afa158015610b97573d6000803e3d6000fd5b505050506040513d6020811015610bad57600080fd5b50518352604080517f70a08231000000000000000000000000000000000000000000000000000000008152306004820152905173ffffffffffffffffffffffffffffffffffffffff8316916370a08231916024808301926020929190829003018186803b158015610c1d57600080fd5b505afa158015610c31573d6000803e3d6000fd5b505050506040513d6020811015610c4757600080fd5b505160208401528415610cad57835183516040860151610c7e9291610c72919063ffffffff6127bd16565b9063ffffffff61283816565b6040840152602080850151908401516060860151610ca79291610c72919063ffffffff6127bd16565b60608401525b5050815181516000918a900310610cc5576000610cd0565b82518251908a900390035b9050600088846020015103836020015111610cec576000610cfa565b888460200151038360200151035b90506000821180610d0b5750600081115b610d60576040517f08c379a000000000000000000000000000000000000000000000000000000000815260040180806020018281038252602281526020018061434f6022913960400191505060405180910390fd5b6000610dba838388610d73578751610d79565b87604001515b89610d88578860200151610d8e565b88606001515b8a610d9a578851610da0565b88604001515b8b610daf578960200151610db5565b89606001515b61287a565b9050610dc686856129e4565b60408051848152602081018490528082018d9052606081018c905260808101839052905173ffffffffffffffffffffffffffffffffffffffff8b169133917f606ecd02b3e3b4778f8e97b2e03351de14224efaa5fa64e62200afc9395c24999181900360a00190a350506001600855505050505050505050565b60038054604080516020601f60027fffffffffffffffffffffffffffffffffffffffffffffffffffffffffffffffff610100600188161502019095169490940493840181900481028201810190925282815260609390929091830182828015610eea5780601f10610ebf57610100808354040283529160200191610eea565b820191906000526020600020905b815481529060010190602001808311610ecd57829003601f168201915b5050505050905090565b600e546dffffffffffffffffffffffffffff808216926e0100000000000000000000000000008304909116917c0100000000000000000000000000000000000000000000000000000000900463ffffffff1690565b6000610f5d610f56612be1565b8484612be5565b5060015b92915050565b600954600a546fffffffffffffffffffffffffffffffff8083169370010000000000000000000000000000000093849004821693838316930490911690565b600c5473ffffffffffffffffffffffffffffffffffffffff1681565b60025490565b6000610fd5848484612d2c565b61106584610fe1612be1565b611060856040518060600160405280602881526020016143926028913973ffffffffffffffffffffffffffffffffffffffff8a1660009081526001602052604081209061102c612be1565b73ffffffffffffffffffffffffffffffffffffffff168152602081019190915260400160002054919063ffffffff612f0816565b612be5565b5060019392505050565b7f6e71edae12b1b97f4d1f60370fef10105fa2faae0126114a169c64845d6126c981565b60055460ff1690565b6000610f5d6110a9612be1565b8461106085600160006110ba612be1565b73ffffffffffffffffffffffffffffffffffffffff908116825260208083019390935260409182016000908120918c16815292529020549063ffffffff6127bd16565b60006002600854141561117157604080517f08c379a000000000000000000000000000000000000000000000000000000000815260206004820152601f60248201527f5265656e7472616e637947756172643a207265656e7472616e742063616c6c00604482015290519081900360640190fd5b60026008556000611180614273565b611188612699565b91509150611194614273565b600c54604080517f70a08231000000000000000000000000000000000000000000000000000000008152306004820152905173ffffffffffffffffffffffffffffffffffffffff909216916370a0823191602480820192602092909190829003018186803b15801561120557600080fd5b505afa158015611219573d6000803e3d6000fd5b505050506040513d602081101561122f57600080fd5b50518152600d54604080517f70a08231000000000000000000000000000000000000000000000000000000008152306004820152905173ffffffffffffffffffffffffffffffffffffffff909216916370a0823191602480820192602092909190829003018186803b1580156112a457600080fd5b505afa1580156112b8573d6000803e3d6000fd5b505050506040513d60208110156112ce57600080fd5b50516020820152815181516000916112ec919063ffffffff61283816565b9050600061130b8460200151846020015161283890919063ffffffff16565b905060006113198686612fb9565b90506000611325610fc2565b9050806113d957861561138857600f54855163ffffffff918216916127109161135091849061313a16565b8161135757fe5b0460408701526020860151612710906113799063ffffffff8085169061313a16565b8161138057fe5b046060870152505b6113a66103e8610c726113a1878763ffffffff61313a16565b6131ad565b97506113d47fffffffffffffffffffffffffffffffffffffffffffffffffffffffffffffffff6103e86131fe565b61149e565b855161141c906113ef868463ffffffff61313a16565b816113f657fe5b04876020015161140f848761313a90919063ffffffff16565b8161141657fe5b0461333b565b9750861561149e576000611436898363ffffffff6127bd16565b905061146582611453838a6040015161313a90919063ffffffff16565b8161145a57fe5b048760000151613351565b60408701526060870151611497908390611485908463ffffffff61313a16565b8161148c57fe5b048760200151613351565b6060870152505b600088116114f7576040517f08c379a00000000000000000000000000000000000000000000000000000000081526004018080602001828103825260268152602001806143db6026913960400191505060405180910390fd5b61150189896131fe565b61150b87866129e4565b811561151f5761151b8786613361565b6010555b6040805185815260208101859052815133927f4c209b5fc8ad50758f13e2e1088ba56a560dff690a1c6fef26394f4c03821c4f928290030190a250506001600855509395945050505050565b600b5473ffffffffffffffffffffffffffffffffffffffff1633146115f157604080517f08c379a000000000000000000000000000000000000000000000000000000000815260206004820152601260248201527f58595a537761703a20464f5242494444454e0000000000000000000000000000604482015290519081900360640190fd5b600c80547fffffffffffffffffffffffff000000000000000000000000000000000000000090811673ffffffffffffffffffffffffffffffffffffffff95861617909155600d80549091169290931691909117909155600f80547fffffffffffffffffffffffffffffffffffffffffffffffffffffffff000000001663ffffffff909216919091179055565b73ffffffffffffffffffffffffffffffffffffffff81166000908152602081905260409020545b919050565b60105481565b60076020526000908152604090205481565b6000806002600854141561173657604080517f08c379a000000000000000000000000000000000000000000000000000000000815260206004820152601f60248201527f5265656e7472616e637947756172643a207265656e7472616e742063616c6c00604482015290519081900360640190fd5b60026008556000611745614273565b61174d612699565b600c54600d54604080517f70a08231000000000000000000000000000000000000000000000000000000008152306004820152905194965092945073ffffffffffffffffffffffffffffffffffffffff9182169391169160009184916370a08231916024808301926020929190829003018186803b1580156117ce57600080fd5b505afa1580156117e2573d6000803e3d6000fd5b505050506040513d60208110156117f857600080fd5b5051604080517f70a08231000000000000000000000000000000000000000000000000000000008152306004820152905191925060009173ffffffffffffffffffffffffffffffffffffffff8516916370a08231916024808301926020929190829003018186803b15801561186c57600080fd5b505afa158015611880573d6000803e3d6000fd5b505050506040513d602081101561189657600080fd5b5051855190915082108015906118b0575084602001518110155b61191b57604080517f08c379a000000000000000000000000000000000000000000000000000000000815260206004820152601860248201527f58595a537761703a20554e53594e435f52455345525645530000000000000000604482015290519081900360640190fd5b60006119263061167d565b905060006119348888612fb9565b90506000611940610fc2565b905080611953848763ffffffff61313a16565b8161195a57fe5b049a508061196e848663ffffffff61313a16565b8161197557fe5b04995060008b118015611988575060008a115b6119dd576040517f08c379a00000000000000000000000000000000000000000000000000000000081526004018080602001828103825260268152602001806143296026913960400191505060405180910390fd5b6119e73084613387565b611a0e73ffffffffffffffffffffffffffffffffffffffff88168d8d63ffffffff61272b16565b611a3573ffffffffffffffffffffffffffffffffffffffff87168d8c63ffffffff61272b16565b611a3d614273565b604080517f70a08231000000000000000000000000000000000000000000000000000000008152306004820152905173ffffffffffffffffffffffffffffffffffffffff8a16916370a08231916024808301926020929190829003018186803b158015611aa957600080fd5b505afa158015611abd573d6000803e3d6000fd5b505050506040513d6020811015611ad357600080fd5b50518152604080517f70a08231000000000000000000000000000000000000000000000000000000008152306004820152905173ffffffffffffffffffffffffffffffffffffffff8916916370a08231916024808301926020929190829003018186803b158015611b4357600080fd5b505afa158015611b57573d6000803e3d6000fd5b505050506040513d6020811015611b6d57600080fd5b505160208201528915611c215788518151600091611bb991611b95908663ffffffff61313a16565b81611b9c57fe5b048b6020015161140f86866020015161313a90919063ffffffff16565b9050611be883611bd6838d6040015161313a90919063ffffffff16565b81611bdd57fe5b048360000151613351565b604083015260608a0151611c1a908490611c08908463ffffffff61313a16565b81611c0f57fe5b048360200151613351565b6060830152505b611c2b8a826129e4565b8215611c3f57611c3b8a82613361565b6010555b8c73ffffffffffffffffffffffffffffffffffffffff163373ffffffffffffffffffffffffffffffffffffffff167fdccd412f0b1252819cb1fd330b93224ca42612892bb3f4f789976e6d819364968e8e604051808381526020018281526020019250505060405180910390a3505050505050505050506001600881905550915091565b60048054604080516020601f60027fffffffffffffffffffffffffffffffffffffffffffffffffffffffffffffffff610100600188161502019095169490940493840181900481028201810190925282815260609390929091830182828015610eea5780601f10610ebf57610100808354040283529160200191610eea565b6000610f5d611d4f612be1565b84611060856040518060600160405280602581526020016144976025913960016000611d79612be1565b73ffffffffffffffffffffffffffffffffffffffff908116825260208083019390935260409182016000908120918d1681529252902054919063ffffffff612f0816565b6000610f5d611dca612be1565b8484612d2c565b6103e881565b60026008541415611e4957604080517f08c379a000000000000000000000000000000000000000000000000000000000815260206004820152601f60248201527f5265656e7472616e637947756172643a207265656e7472616e742063616c6c00604482015290519081900360640190fd5b6002600855600e54600c54604080517f70a082310000000000000000000000000000000000000000000000000000000081523060048201529051611f3c938593611f16936dffffffffffffffffffffffffffff9092169273ffffffffffffffffffffffffffffffffffffffff909116916370a08231916024808301926020929190829003018186803b158015611ede57600080fd5b505afa158015611ef2573d6000803e3d6000fd5b505050506040513d6020811015611f0857600080fd5b50519063ffffffff61283816565b600c5473ffffffffffffffffffffffffffffffffffffffff16919063ffffffff61272b16565b600e54600d54604080517f70a082310000000000000000000000000000000000000000000000000000000081523060048201529051612003938593611fdd936e0100000000000000000000000000009092046dffffffffffffffffffffffffffff169273ffffffffffffffffffffffffffffffffffffffff909116916370a08231916024808301926020929190829003018186803b158015611ede57600080fd5b600d5473ffffffffffffffffffffffffffffffffffffffff16919063ffffffff61272b16565b506001600855565b600b5473ffffffffffffffffffffffffffffffffffffffff1681565b600d5473ffffffffffffffffffffffffffffffffffffffff1681565b428410156120b257604080517f08c379a000000000000000000000000000000000000000000000000000000000815260206004820152601460248201527f45524332305065726d69743a2045585049524544000000000000000000000000604482015290519081900360640190fd5b60065473ffffffffffffffffffffffffffffffffffffffff80891660008181526007602090815260408083208054600180820190925582517f6e71edae12b1b97f4d1f60370fef10105fa2faae0126114a169c64845d6126c98186015280840196909652958d166060860152608085018c905260a085019590955260c08085018b90528151808603909101815260e0850182528051908301207f19010000000000000000000000000000000000000000000000000000000000006101008601526101028501969096526101228085019690965280518085039096018652610142840180825286519683019690962095839052610162840180825286905260ff89166101828501526101a284018890526101c28401879052519193926101e2808201937fffffffffffffffffffffffffffffffffffffffffffffffffffffffffffffffe081019281900390910190855afa158015612213573d6000803e3d6000fd5b50506040517fffffffffffffffffffffffffffffffffffffffffffffffffffffffffffffffe0015191505073ffffffffffffffffffffffffffffffffffffffff81161580159061228e57508873ffffffffffffffffffffffffffffffffffffffff168173ffffffffffffffffffffffffffffffffffffffff16145b6122f957604080517f08c379a000000000000000000000000000000000000000000000000000000000815260206004820152601e60248201527f45524332305065726d69743a20494e56414c49445f5349474e41545552450000604482015290519081900360640190fd5b612304898989612be5565b505050505050505050565b600e54600f546dffffffffffffffffffffffffffff808316926e010000000000000000000000000000900416906000908190819063ffffffff166127101461238e57600f546dffffffffffffffffffffffffffff6401000000008204811694507201000000000000000000000000000000000000909104169150612395565b8492508391505b60006123a0436134dd565b90506123ab81613693565b9150509091929394565b73ffffffffffffffffffffffffffffffffffffffff918216600090815260016020908152604080832093909416825291909152205490565b60065481565b6002600854141561246557604080517f08c379a000000000000000000000000000000000000000000000000000000000815260206004820152601f60248201527f5265656e7472616e637947756172643a207265656e7472616e742063616c6c00604482015290519081900360640190fd5b60026008556000612474614273565b61247c612699565b91509150612488614273565b600c54604080517f70a08231000000000000000000000000000000000000000000000000000000008152306004820152905173ffffffffffffffffffffffffffffffffffffffff909216916370a0823191602480820192602092909190829003018186803b1580156124f957600080fd5b505afa15801561250d573d6000803e3d6000fd5b505050506040513d602081101561252357600080fd5b50518152600d54604080517f70a08231000000000000000000000000000000000000000000000000000000008152306004820152905173ffffffffffffffffffffffffffffffffffffffff909216916370a0823191602480820192602092909190829003018186803b15801561259857600080fd5b505afa1580156125ac573d6000803e3d6000fd5b505050506040513d60208110156125c257600080fd5b5051602082015282156126855760006125d9610fc2565b8351835191925060009161261c91906125f8908563ffffffff61313a16565b816125ff57fe5b04856020015161140f85876020015161313a90919063ffffffff16565b905061264b8261263983876040015161313a90919063ffffffff16565b8161264057fe5b048460000151613351565b6040840152606084015161267d90839061266b908463ffffffff61313a16565b8161267257fe5b048460200151613351565b606084015250505b61268f83826129e4565b5050600160085550565b60006126a3614273565b600e546dffffffffffffffffffffffffffff80821683526e010000000000000000000000000000909104166020820152600f5463ffffffff16612710148015925061272757600f546dffffffffffffffffffffffffffff64010000000082048116604084015272010000000000000000000000000000000000009091041660608201525b9091565b6040805173ffffffffffffffffffffffffffffffffffffffff8416602482015260448082018490528251808303909101815260649091019091526020810180517bffffffffffffffffffffffffffffffffffffffffffffffffffffffff167fa9059cbb000000000000000000000000000000000000000000000000000000001790526127b8908490613892565b505050565b60008282018381101561283157604080517f08c379a000000000000000000000000000000000000000000000000000000000815260206004820152601b60248201527f536166654d6174683a206164646974696f6e206f766572666c6f770000000000604482015290519081900360640190fd5b9392505050565b600061283183836040518060400160405280601e81526020017f536166654d6174683a207375627472616374696f6e206f766572666c6f770000815250612f08565b6000806128ad886128a1876128958a8c63ffffffff61313a16565b9063ffffffff61396a16565b9063ffffffff6127bd16565b905060006128bb43836139ac565b90506128c681613693565b925060006128e286670de0b6b3a764000063ffffffff61313a16565b90506129046128f78b8663ffffffff61313a16565b829063ffffffff61283816565b9050670de0b6b3a764000081049050600061292d86670de0b6b3a764000063ffffffff61313a16565b90506129426128f78b8763ffffffff61313a16565b670de0b6b3a764000090049050612959898961313a565b612969838363ffffffff61313a16565b10156129d657604080517f08c379a000000000000000000000000000000000000000000000000000000000815260206004820152600a60248201527f58595a537761703a204b00000000000000000000000000000000000000000000604482015290519081900360640190fd5b505050509695505050505050565b805163ffffffff4216906129f790613d05565b600e80547fffffffffffffffffffffffffffffffffffff0000000000000000000000000000166dffffffffffffffffffffffffffff929092169190911790556020820151612a4490613d05565b600e80547fffffffff0000000000000000000000000000ffffffffffffffffffffffffffff166e0100000000000000000000000000006dffffffffffffffffffffffffffff9390931692909202919091177bffffffffffffffffffffffffffffffffffffffffffffffffffffffff167c010000000000000000000000000000000000000000000000000000000063ffffffff8416021790558215612b88578151604083015110801590612aff57508160200151826060015110155b612b0557fe5b612b128260400151613d05565b600f60046101000a8154816dffffffffffffffffffffffffffff02191690836dffffffffffffffffffffffffffff160217905550612b538260600151613d05565b600f60126101000a8154816dffffffffffffffffffffffffffff02191690836dffffffffffffffffffffffffffff1602179055505b6040808301516060808501518551602080880151865195865290850192909252838501529082015290517f2f9d55abfefdfd4c3a83e00a1b419b3c2fe4b83100c559f0e2213e57f6e0bba99181900360800190a1505050565b3390565b73ffffffffffffffffffffffffffffffffffffffff8316612c51576040517f08c379a00000000000000000000000000000000000000000000000000000000081526004018080602001828103825260248152602001806144496024913960400191505060405180910390fd5b73ffffffffffffffffffffffffffffffffffffffff8216612cbd576040517f08c379a00000000000000000000000000000000000000000000000000000000081526004018080602001828103825260228152602001806142e16022913960400191505060405180910390fd5b73ffffffffffffffffffffffffffffffffffffffff808416600081815260016020908152604080832094871680845294825291829020859055815185815291517f8c5be1e5ebec7d5bd14f71427d1e84f3dd0314c0f7b2291e5b200ac8c7c3b9259281900390910190a3505050565b73ffffffffffffffffffffffffffffffffffffffff8316612d98576040517f08c379a00000000000000000000000000000000000000000000000000000000081526004018080602001828103825260258152602001806144246025913960400191505060405180910390fd5b73ffffffffffffffffffffffffffffffffffffffff8216612e04576040517f08c379a000000000000000000000000000000000000000000000000000000000815260040180806020018281038252602381526020018061429c6023913960400191505060405180910390fd5b612e0f8383836127b8565b612e5f816040518060600160405280602681526020016143036026913973ffffffffffffffffffffffffffffffffffffffff8616600090815260208190526040902054919063ffffffff612f0816565b73ffffffffffffffffffffffffffffffffffffffff8085166000908152602081905260408082209390935590841681522054612ea1908263ffffffff6127bd16565b73ffffffffffffffffffffffffffffffffffffffff8084166000818152602081815260409182902094909455805185815290519193928716927fddf252ad1be2c89b69c2b068fc378daa952ba7f163c4a11628f55a4df523b3ef92918290030190a3505050565b60008184841115612fb1576040517f08c379a00000000000000000000000000000000000000000000000000000000081526004018080602001828103825283818151815260200191508051906020019080838360005b83811015612f76578181015183820152602001612f5e565b50505050905090810190601f168015612fa35780820380516001836020036101000a031916815260200191505b509250505060405180910390fd5b505050900390565b6000806000600b60009054906101000a900473ffffffffffffffffffffffffffffffffffffffff1673ffffffffffffffffffffffffffffffffffffffff1663ad5cb2e16040518163ffffffff1660e01b8152600401604080518083038186803b15801561302557600080fd5b505afa158015613039573d6000803e3d6000fd5b505050506040513d604081101561304f57600080fd5b50805160209091015160105473ffffffffffffffffffffffffffffffffffffffff83161580159650929450909250906131255780156131205760006130976113a18888613361565b905060006130a4836131ad565b90508082111561311d5760006130df61ffff86166130d36130cb868663ffffffff61283816565b6130d3610fc2565b9063ffffffff61313a16565b905060006130f96113886130d3868663ffffffff6127bd16565b9050600081838161310657fe5b04905080156131195761311988826131fe565b5050505b50505b613131565b80156131315760006010555b50505092915050565b60008261314957506000610f61565b8282028284828161315657fe5b0414612831576040517f08c379a00000000000000000000000000000000000000000000000000000000081526004018080602001828103825260218152602001806143716021913960400191505060405180910390fd5b600060038211156131f0575080600160028204015b818110156131ea578091506002818285816131d957fe5b0401816131e257fe5b0490506131c2565b506116a4565b81156116a457506001919050565b73ffffffffffffffffffffffffffffffffffffffff821661328057604080517f08c379a000000000000000000000000000000000000000000000000000000000815260206004820152601f60248201527f45524332303a206d696e7420746f20746865207a65726f206164647265737300604482015290519081900360640190fd5b61328c600083836127b8565b60025461329f908263ffffffff6127bd16565b60025573ffffffffffffffffffffffffffffffffffffffff82166000908152602081905260409020546132d8908263ffffffff6127bd16565b73ffffffffffffffffffffffffffffffffffffffff83166000818152602081815260408083209490945583518581529351929391927fddf252ad1be2c89b69c2b068fc378daa952ba7f163c4a11628f55a4df523b3ef9281900390910190a35050565b600081831061334a5781612831565b5090919050565b60008183101561334a5781612831565b600082613375576020820151825102612831565b50606081015160409091015102919050565b73ffffffffffffffffffffffffffffffffffffffff82166133f3576040517f08c379a00000000000000000000000000000000000000000000000000000000081526004018080602001828103825260218152602001806143ba6021913960400191505060405180910390fd5b6133ff826000836127b8565b61344f816040518060600160405280602281526020016142bf6022913973ffffffffffffffffffffffffffffffffffffffff8516600090815260208190526040902054919063ffffffff612f0816565b73ffffffffffffffffffffffffffffffffffffffff8316600090815260208190526040902055600254613488908263ffffffff61283816565b60025560408051828152905160009173ffffffffffffffffffffffffffffffffffffffff8516917fddf252ad1be2c89b69c2b068fc378daa952ba7f163c4a11628f55a4df523b3ef9181900360200190a35050565b600a5460009070010000000000000000000000000000000090046fffffffffffffffffffffffffffffffff1682038061354e57600954613546906fffffffffffffffffffffffffffffffff80821691700100000000000000000000000000000000900416613d88565b9150506116a4565b600954600090613595906fffffffffffffffffffffffffffffffff16611519671bc16d674ec800005b600a54919004906fffffffffffffffffffffffffffffffff16613db2565b6009549091506000906135d99070010000000000000000000000000000000090046fffffffffffffffffffffffffffffffff16612a31671bc16d674ec80000613577565b90506136356136287fffffffffffffffffffffffffffffffffffffffffffffffffffffffffffffffff8501611519671bc16d674ec800005b04670de0b6b3a7640000039063ffffffff613e1316565b839063ffffffff613ee416565b915061367e6136717fffffffffffffffffffffffffffffffffffffffffffffffffffffffffffffffff8501612a31671bc16d674ec80000613611565b829063ffffffff613ee416565b905061368a8282613d88565b95945050505050565b6000671480cc142da92a8482106136b25750661550f7dca700006116a4565b670de0b6b3a764000082106137c0576710a741a462780000821115613761577fffffffffffffffffffffffffffffffffffffffffffffffffef58be5b9d88000082016000613701826003613e13565b9050612710613750613727846009680d8d726b7177a800005b049063ffffffff613ee416565b6128a161374085601b69043c33c193756480000061371a565b6801fa48421ec7b1ed09906127bd565b8161375757fe5b04925050506116a4565b6710a741a462780000829003600061377a826003613e13565b9050612710613750613797846009680d8d726b7177a8000061371a565b610c726137b085601b69043c33c193756480000061371a565b6801fa48421ec7b1ed0990612838565b6000670b9a1192183a000083116137e257670b9a1192183a0000839003613806565b7ffffffffffffffffffffffffffffffffffffffffffffffffff465ee6de7c6000083015b905061381981600263ffffffff613e1316565b905060006138486138308365b5e620f480006127bd565b612895674563918244f400008563ffffffff61313a16565b9050670b9a1192183a0000841115613876576127106137506801161163ae0de59a928363ffffffff6127bd16565b6127106137506801161163ae0de59a928363ffffffff61283816565b60606138f4826040518060400160405280602081526020017f5361666545524332303a206c6f772d6c6576656c2063616c6c206661696c65648152508573ffffffffffffffffffffffffffffffffffffffff16613f069092919063ffffffff16565b8051909150156127b85780806020019051602081101561391357600080fd5b50516127b8576040517f08c379a000000000000000000000000000000000000000000000000000000000815260040180806020018281038252602a81526020018061446d602a913960400191505060405180910390fd5b600061283183836040518060400160405280601a81526020017f536166654d6174683a206469766973696f6e206279207a65726f000000000000815250613f1d565b600a5460009070010000000000000000000000000000000090046fffffffffffffffffffffffffffffffff16830380613aad57600a54613a4390613a08906fffffffffffffffffffffffffffffffff168563ffffffff6127bd16565b6040518060400160405280601a81526020017f766f6c756d6520657863656564732076616c69642072616e6765000000000000815250613f9c565b600a80547fffffffffffffffffffffffffffffffff00000000000000000000000000000000166fffffffffffffffffffffffffffffffff928316179055600954613aa59181811691700100000000000000000000000000000000900416613d88565b915050610f61565b600a546009546fffffffffffffffffffffffffffffffff91821691600091613ae19116611519671bc16d674ec80000613577565b600954909150600090613b259070010000000000000000000000000000000090046fffffffffffffffffffffffffffffffff16612a31671bc16d674ec80000613577565b9050613b616136287fffffffffffffffffffffffffffffffffffffffffffffffffffffffffffffffff8601611519671bc16d674ec80000613611565b9150613b9d6136717fffffffffffffffffffffffffffffffffffffffffffffffffffffffffffffffff8601612a31671bc16d674ec80000613611565b9050613ba882614020565b600980547fffffffffffffffffffffffffffffffff00000000000000000000000000000000166fffffffffffffffffffffffffffffffff92909216919091179055613bf281614020565b600980546fffffffffffffffffffffffffffffffff928316700100000000000000000000000000000000029216919091179055613c2e86614020565b600a80547fffffffffffffffffffffffffffffffff00000000000000000000000000000000166fffffffffffffffffffffffffffffffff92909216919091179055613c7887614020565b600a80546fffffffffffffffffffffffffffffffff9283167001000000000000000000000000000000000290831617905560408051848152602081018490529185168282015260608201869052517f96e2c334d3c0fa98c8b728ee84471864ffe5b28e05f46e52f8a469d0ab3a8b8b9181900360800190a1613cfa8282613d88565b979650505050505050565b60006dffffffffffffffffffffffffffff821115613d8457604080517f08c379a000000000000000000000000000000000000000000000000000000000815260206004820152601160248201527f58595a537761703a204f564552464c4f57000000000000000000000000000000604482015290519081900360640190fd5b5090565b600081613d9757506000610f61565b81670de0b6b3a7640000840281613daa57fe5b049392505050565b6000670de0b6b3a76400008310613dc557fe5b670de0b6b3a7640000826fffffffffffffffffffffffffffffffff168402856fffffffffffffffffffffffffffffffff1685670de0b6b3a764000003020181613e0a57fe5b04949350505050565b6000670de0b6b3a7640000831115613e8c57604080517f08c379a000000000000000000000000000000000000000000000000000000000815260206004820152601660248201527f4d6174684578743a2078203e20505245434953494f4e00000000000000000000604482015290519081900360640190fd5b60028206613ea257670de0b6b3a7640000613ea4565b825b90506002820491505b8115610f6157670de0b6b3a76400008380020492506002820615613ed957670de0b6b3a7640000908302045b600282049150613ead565b6000670de0b6b3a7640000613eff848463ffffffff61313a16565b81613daa57fe5b6060613f1584846000856140a1565b949350505050565b60008183613f86576040517f08c379a0000000000000000000000000000000000000000000000000000000008152602060048201818152835160248401528351909283926044909101919085019080838360008315612f76578181015183820152602001612f5e565b506000838581613f9257fe5b0495945050505050565b6000816fffffffffffffffffffffffffffffffff841115614018576040517f08c379a0000000000000000000000000000000000000000000000000000000008152602060048201818152835160248401528351909283926044909101919085019080838360008315612f76578181015183820152602001612f5e565b509192915050565b60006fffffffffffffffffffffffffffffffff821115613d8457604080517f08c379a000000000000000000000000000000000000000000000000000000000815260206004820152601060248201527f6f766572666c6f772075696e7431323800000000000000000000000000000000604482015290519081900360640190fd5b60606140ac8561426d565b61411757604080517f08c379a000000000000000000000000000000000000000000000000000000000815260206004820152601d60248201527f416464726573733a2063616c6c20746f206e6f6e2d636f6e7472616374000000604482015290519081900360640190fd5b600060608673ffffffffffffffffffffffffffffffffffffffff1685876040518082805190602001908083835b6020831061418157805182527fffffffffffffffffffffffffffffffffffffffffffffffffffffffffffffffe09092019160209182019101614144565b6001836020036101000a03801982511681845116808217855250505050505090500191505060006040518083038185875af1925050503d80600081146141e3576040519150601f19603f3d011682016040523d82523d6000602084013e6141e8565b606091505b509150915081156141fc579150613f159050565b80511561420c5780518082602001fd5b6040517f08c379a0000000000000000000000000000000000000000000000000000000008152602060048201818152865160248401528651879391928392604401919085019080838360008315612f76578181015183820152602001612f5e565b3b151590565b604051806080016040528060008152602001600081526020016000815260200160008152509056fe45524332303a207472616e7366657220746f20746865207a65726f206164647265737345524332303a206275726e20616d6f756e7420657863656564732062616c616e636545524332303a20617070726f766520746f20746865207a65726f206164647265737345524332303a207472616e7366657220616d6f756e7420657863656564732062616c616e636558595a537761703a20494e53554646494349454e545f4c49515549444954595f4255524e454458595a537761703a20494e53554646494349454e545f494e5055545f414d4f554e54536166654d6174683a206d756c7469706c69636174696f6e206f766572666c6f7745524332303a207472616e7366657220616d6f756e74206578636565647320616c6c6f77616e636545524332303a206275726e2066726f6d20746865207a65726f206164647265737358595a537761703a20494e53554646494349454e545f4c49515549444954595f4d494e54454458595a537761703a20494e53554646494349454e545f4f55545055545f414d4f554e5445524332303a207472616e736665722066726f6d20746865207a65726f206164647265737345524332303a20617070726f76652066726f6d20746865207a65726f20616464726573735361666545524332303a204552433230206f7065726174696f6e20646964206e6f74207375636365656445524332303a2064656372656173656420616c6c6f77616e63652062656c6f77207a65726fa26469706673582212201e5bb1164d46feadfdc63e3c8c2b3b6d280173f31973dda35fd846e8d61c2f5c64736f6c63430006060033454950373132446f6d61696e28737472696e67206e616d652c737472696e672076657273696f6e2c75696e7432353620636861696e49642c6164647265737320766572696679696e67436f6e747261637429456e756d657261626c655365743a20696e646578206f7574206f6620626f756e6473a2646970667358221220d3ad5b2d8c26e12caac3799e094f0d26b2fab944de71d73a9676050848d7a5e364736f6c63430006060033",
  "linkReferences": {},
  "deployedLinkReferences": {}
}