{
  "abi": [
    {
      "inputs": [],
      "stateMutability": "nonpayable",
      "type": "constructor"
    },
    {
      "inputs": [],
      "name": "T",
      "type": "error"
    },
    {
      "inputs": [
        {
          "internalType": "bool",
          "name": "borrowBelow",
          "type": "bool"
        },
        {
          "internalType": "uint256",
          "name": "collateralAmount",
          "type": "uint256"
        },
        {
          "internalType": "uint256",
          "name": "ltv",
          "type": "uint256"
        },
        {
          "components": [
            {
              "internalType": "int24",
              "name": "tick",
              "type": "int24"
            },
            {
              "internalType": "uint128",
              "name": "liquidity",
              "type": "uint128"
            },
            {
              "internalType": "uint256",
              "name": "premiumOrUrate",
              "type": "uint256"
            }
          ],
          "internalType": "struct LiquidityManager.Liquidity[]",
          "name": "borrowInfo",
          "type": "tuple[]"
        }
      ],
      "name": "addBorrowPosition",
      "outputs": [
        {
          "components": [
            {
              "internalType": "bool",
              "name": "isBorrow",
              "type": "bool"
            },
            {
              "internalType": "address",
              "name": "pool",
              "type": "address"
            },
            {
              "internalType": "uint256",
              "name": "totalPosition",
              "type": "uint256"
            },
            {
              "internalType": "uint256",
              "name": "totalDebt",
              "type": "uint256"
            },
            {
              "internalType": "uint256",
              "name": "totalDebtInput",
              "type": "uint256"
            },
            {
              "internalType": "uint256",
              "name": "initCollateral",
              "type": "uint256"
            },
            {
              "internalType": "uint128",
              "name": "recentPremium",
              "type": "uint128"
            },
            {
              "internalType": "uint128",
              "name": "totalPremium",
              "type": "uint128"
            },
            {
              "internalType": "uint128",
              "name": "unusedPremium",
              "type": "uint128"
            },
            {
              "internalType": "bool",
              "name": "isToken0",
              "type": "bool"
            },
            {
              "internalType": "uint32",
              "name": "openTime",
              "type": "uint32"
            },
            {
              "internalType": "uint32",
              "name": "repayTime",
              "type": "uint32"
            },
            {
              "components": [
                {
                  "internalType": "int24",
                  "name": "tick",
                  "type": "int24"
                },
                {
                  "internalType": "uint128",
                  "name": "liquidity",
                  "type": "uint128"
                },
                {
                  "internalType": "uint256",
                  "name": "premiumOrUrate",
                  "type": "uint256"
                }
              ],
              "internalType": "struct LiquidityManager.Liquidity[]",
              "name": "borrowInfo",
              "type": "tuple[]"
            }
          ],
          "internalType": "struct GlobalStorage.Position",
          "name": "",
          "type": "tuple"
        },
        {
          "internalType": "uint256",
          "name": "",
          "type": "uint256"
        },
        {
          "internalType": "uint256",
          "name": "",
          "type": "uint256"
        }
      ],
      "stateMutability": "nonpayable",
      "type": "function"
    },
    {
      "inputs": [
        {
          "internalType": "uint160",
          "name": "price",
          "type": "uint160"
        },
        {
          "internalType": "uint256",
          "name": "maxSlippage",
          "type": "uint256"
        },
        {
          "internalType": "bool",
          "name": "down",
          "type": "bool"
        }
      ],
      "name": "applySlippageX96",
      "outputs": [
        {
          "internalType": "uint160",
          "name": "",
          "type": "uint160"
        }
      ],
      "stateMutability": "pure",
      "type": "function"
    },
    {
      "inputs": [
        {
          "internalType": "bool",
          "name": "borrowBelow",
          "type": "bool"
        },
        {
          "internalType": "uint256",
          "name": "amountSpecified",
          "type": "uint256"
        },
        {
          "internalType": "uint256",
          "name": "leverage",
          "type": "uint256"
        }
      ],
      "name": "borrow",
      "outputs": [
        {
          "internalType": "int24",
          "name": "",
          "type": "int24"
        },
        {
          "internalType": "int24",
          "name": "",
          "type": "int24"
        },
        {
          "components": [
            {
              "internalType": "int24",
              "name": "tick",
              "type": "int24"
            },
            {
              "internalType": "uint128",
              "name": "liquidity",
              "type": "uint128"
            },
            {
              "internalType": "uint256",
              "name": "premiumOrUrate",
              "type": "uint256"
            }
          ],
          "internalType": "struct LiquidityManager.Liquidity[]",
          "name": "",
          "type": "tuple[]"
        }
      ],
      "stateMutability": "nonpayable",
      "type": "function"
    },
    {
      "inputs": [
        {
          "components": [
            {
              "internalType": "int24",
              "name": "tick",
              "type": "int24"
            },
            {
              "internalType": "uint128",
              "name": "liquidity",
              "type": "uint128"
            },
            {
              "internalType": "uint256",
              "name": "premiumOrUrate",
              "type": "uint256"
            }
          ],
          "internalType": "struct LiquidityManager.Liquidity[]",
          "name": "borrowInfo",
          "type": "tuple[]"
        },
        {
          "internalType": "bool",
          "name": "borrowBelow",
          "type": "bool"
        }
      ],
      "name": "getFilledAmount",
      "outputs": [
        {
          "internalType": "uint256",
          "name": "filledAmount",
          "type": "uint256"
        }
      ],
      "stateMutability": "view",
      "type": "function"
    },
    {
      "inputs": [],
      "name": "globalStorage",
      "outputs": [
        {
          "internalType": "contract GlobalStorage",
          "name": "",
          "type": "address"
        }
      ],
      "stateMutability": "view",
      "type": "function"
    },
    {
      "inputs": [],
      "name": "liquidityManager",
      "outputs": [
        {
          "internalType": "contract LiquidityManager",
          "name": "",
          "type": "address"
        }
      ],
      "stateMutability": "view",
      "type": "function"
    },
    {
      "inputs": [],
      "name": "pool",
      "outputs": [
        {
          "internalType": "contract UniswapV3Pool",
          "name": "",
          "type": "address"
        }
      ],
      "stateMutability": "view",
      "type": "function"
    },
    {
      "inputs": [],
      "name": "precision",
      "outputs": [
        {
          "internalType": "uint256",
          "name": "",
          "type": "uint256"
        }
      ],
      "stateMutability": "view",
      "type": "function"
    },
    {
      "inputs": [
        {
          "internalType": "bool",
          "name": "borrowBelow",
          "type": "bool"
        },
        {
          "internalType": "bool",
          "name": "reduceCollateral",
          "type": "bool"
        },
        {
          "internalType": "bool",
          "name": "getCollateralBack",
          "type": "bool"
        },
        {
          "internalType": "uint256",
          "name": "reduceAmount",
          "type": "uint256"
        }
      ],
      "name": "reduceBorrowPosition",
      "outputs": [
        {
          "components": [
            {
              "internalType": "int256",
              "name": "amount0",
              "type": "int256"
            },
            {
              "internalType": "int256",
              "name": "amount1",
              "type": "int256"
            },
            {
              "internalType": "int256",
              "name": "PnL",
              "type": "int256"
            },
            {
              "internalType": "uint256",
              "name": "returnedAmount",
              "type": "uint256"
            },
            {
              "internalType": "uint256",
              "name": "unusedPremium",
              "type": "uint256"
            },
            {
              "internalType": "uint256",
              "name": "premium",
              "type": "uint256"
            }
          ],
          "internalType": "struct ReduceReturn",
          "name": "",
          "type": "tuple"
        }
      ],
      "stateMutability": "nonpayable",
      "type": "function"
    },
    {
      "inputs": [
        {
          "internalType": "int24",
          "name": "tick",
          "type": "int24"
        },
        {
          "internalType": "bool",
          "name": "down",
          "type": "bool"
        }
      ],
      "name": "roundTick",
      "outputs": [
        {
          "internalType": "int24",
          "name": "",
          "type": "int24"
        }
      ],
      "stateMutability": "view",
      "type": "function"
    },
    {
      "inputs": [
        {
          "internalType": "address",
          "name": "ad",
          "type": "address"
        }
      ],
      "name": "setLiquidityManager",
      "outputs": [],
      "stateMutability": "nonpayable",
      "type": "function"
    },
    {
      "inputs": [],
      "name": "tickSpacing",
      "outputs": [
        {
          "internalType": "int24",
          "name": "",
          "type": "int24"
        }
      ],
      "stateMutability": "view",
      "type": "function"
    },
    {
      "inputs": [],
      "name": "token0",
      "outputs": [
        {
          "internalType": "contract ERC20",
          "name": "",
          "type": "address"
        }
      ],
      "stateMutability": "view",
      "type": "function"
    },
    {
      "inputs": [],
      "name": "token1",
      "outputs": [
        {
          "internalType": "contract ERC20",
          "name": "",
          "type": "address"
        }
      ],
      "stateMutability": "view",
      "type": "function"
    },
    {
      "inputs": [
        {
          "internalType": "bool",
          "name": "isToken0",
          "type": "bool"
        },
        {
          "internalType": "address",
          "name": "caller",
          "type": "address"
        },
        {
          "internalType": "address",
          "name": "receiver",
          "type": "address"
        },
        {
          "internalType": "uint256",
          "name": "amount",
          "type": "uint256"
        }
      ],
      "name": "transferToken",
      "outputs": [],
      "stateMutability": "nonpayable",
      "type": "function"
    }
  ],
  "bytecode": {
    "object": "0x6101206040523480156200001257600080fd5b50600080336001600160a01b031663890357306040518163ffffffff1660e01b81526004016040805180830381865afa15801562000054573d6000803e3d6000fd5b505050506040513d601f19601f820116820180604052508101906200007a91906200020a565b6001600160a01b0380831660a08190529082166101005260408051630dfe168160e01b8152905193955091935091630dfe1681916004808201926020929091908290030181865afa158015620000d4573d6000803e3d6000fd5b505050506040513d601f19601f82011682018060405250810190620000fa919062000242565b60a0516001600160a01b031663d21220a76040518163ffffffff1660e01b8152600401602060405180830381865afa1580156200013b573d6000803e3d6000fd5b505050506040513d601f19601f8201168201806040525081019062000161919062000242565b6001600160a01b0390811660e05290811660c05260a051604080516334324e9f60e21b81529051919092169163d0c93a7c9160048083019260209291908290030181865afa158015620001b8573d6000803e3d6000fd5b505050506040513d601f19601f82011682018060405250810190620001de919062000267565b60020b608052506200028c9050565b80516001600160a01b03811681146200020557600080fd5b919050565b600080604083850312156200021e57600080fd5b6200022983620001ed565b91506200023960208401620001ed565b90509250929050565b6000602082840312156200025557600080fd5b6200026082620001ed565b9392505050565b6000602082840312156200027a57600080fd5b81518060020b81146200026057600080fd5b60805160a05160c05160e05161010051614a98620004196000396000818161024c01528181610437015281816111b10152818161131801528181611a6b01526122930152600081816102f0015281816108d001528181610d190152818161176c01528181611d410152818161239f015281816125d60152818161267a0152612ccb01526000818160ff0152818161098901528181610c62015281816116d501528181611ca8015281816124360152818161253d0152818161262c0152612c3a0152600081816101430152818161056e015281816108ff015281816109b801528181610a2901528181610c8f01528181610d4601528181610db701528181611176015281816112a00152818161140c0152818161161801528181611ae601528181611ea30152818161225801526132b40152600081816102c9015281816106ef01528181610774015281816117f80152818161182601528181611864015281816118f20152818161197601528181611b8e01528181611bc601528181612def0152612e3c0152614a986000f3fe608060405234801561001057600080fd5b50600436106100f55760003560e01c80633dc306ee11610097578063a352dcbf11610066578063a352dcbf146102b1578063d0c93a7c146102c4578063d21220a7146102eb578063d3b5dc3b1461031257600080fd5b80633dc306ee146102215780636502072a14610247578063786afbcc1461026e578063997124c61461028f57600080fd5b8063223aa77d116100d3578063223aa77d1461017857806325350f8e146101d757806333827438146101f95780633c1624d41461020c57600080fd5b80630dfe1681146100fa57806316f0115b1461013e578063207b057614610165575b600080fd5b6101217f000000000000000000000000000000000000000000000000000000000000000081565b6040516001600160a01b0390911681526020015b60405180910390f35b6101217f000000000000000000000000000000000000000000000000000000000000000081565b610121610173366004613d6e565b610321565b61018b610186366004613db0565b6103d3565b6040516101359190600060c082019050825182526020830151602083015260408301516040830152606083015160608301526080830151608083015260a083015160a083015292915050565b6101ea6101e5366004613e01565b6113ba565b60405161013593929190613e95565b600054610121906001600160a01b031681565b61021f61021a366004613eba565b6116a7565b005b61023461022f366004613ee6565b6117f0565b60405160029190910b8152602001610135565b6101217f000000000000000000000000000000000000000000000000000000000000000081565b61028161027c366004614093565b611893565b604051908152602001610135565b6102a261029d3660046140d9565b6119f2565b60405161013593929190614227565b61021f6102bf36600461424c565b6124cf565b6102347f000000000000000000000000000000000000000000000000000000000000000081565b6101217f000000000000000000000000000000000000000000000000000000000000000081565b610281670de0b6b3a764000081565b60008061033f6001600160a01b038616670de0b6b3a76400006142a3565b9050600061035585670de0b6b3a76400006142a3565b9050600061036b670de0b6b3a7640000806142a3565b905084156103aa5760006103886103838380866126fc565b6127ae565b90508161039582866142a3565b61039f91906142d0565b9450505050506103cc565b60006103b5836127ae565b9050806103c283866142d0565b61039f91906142a3565b9392505050565b61040c6040518060c001604052806000815260200160008152602001600081526020016000815260200160008152602001600081525090565b610414613c32565b60405163750ff6b560e01b815230600482015233602482015286151560448201527f00000000000000000000000000000000000000000000000000000000000000006001600160a01b03169063750ff6b590606401600060405180830381865afa158015610486573d6000803e3d6000fd5b505050506040513d6000823e601f3d908101601f191682016040526104ae91908101906143b2565b6101608201528415610518576000816101600151606001511180156104dc5750806101600151606001518311155b6105135760405162461bcd60e51b8152602060048201526003602482015262706f7360e81b60448201526064015b60405180910390fd5b61056c565b60008161016001516080015111801561053a5750806101600151608001518311155b61056c5760405162461bcd60e51b8152602060048201526003602482015262706f7360e81b604482015260640161050a565b7f00000000000000000000000000000000000000000000000000000000000000006001600160a01b0316633850c7bd6040518163ffffffff1660e01b815260040160e060405180830381865afa1580156105ca573d6000803e3d6000fd5b505050506040513d601f19601f820116820180604052508101906105ee91906144e9565b5050505060029190910b60a0840152506001600160a01b0390811660808301526101608201516101808101515160608401526000546040516313804b0d60e11b8152921691632700961a9161064591600401614581565b602060405180830381865afa158015610662573d6000803e3d6000fd5b505050506040513d601f19601f820116820180604052508101906106869190614594565b610160820180516001600160801b0390921661010090920191909152516101200151610755906106ed578161016001516101800151600183606001516106cc91906145b1565b815181106106dc576106dc6145c4565b602002602001015160000151612852565b7f000000000000000000000000000000000000000000000000000000000000000082610160015161018001516001846060015161072a91906145b1565b8151811061073a5761073a6145c4565b60200260200101516000015161075091906145da565b612852565b6001600160a01b031660c082015261016081015161012001516107cb577f000000000000000000000000000000000000000000000000000000000000000081610160015161018001516000815181106107b0576107b06145c4565b6020026020010151600001516107c691906145da565b6107f5565b80610160015161018001516000815181106107e8576107e86145c4565b6020026020010151600001515b60020b6101a08201526101608101516101200151610830578060c001516001600160a01b031681608001516001600160a01b0316111561084f565b8060c001516001600160a01b031681608001516001600160a01b031610155b15610ba157841561088a5761087881610160015161018001518261016001516101200151611893565b8152610885818488612b75565b610f07565b828161016001516080015110156108b35760405162461bcd60e51b815260040161050a906145ff565b8515610972576040516323b872dd60e01b81526001600160a01b037f000000000000000000000000000000000000000000000000000000000000000016906323b872dd906109299033907f000000000000000000000000000000000000000000000000000000000000000090889060040161461d565b6020604051808303816000875af1158015610948573d6000803e3d6000fd5b505050506040513d601f19601f8201168201806040525081019061096c9190614641565b50610a27565b6040516323b872dd60e01b81526001600160a01b037f000000000000000000000000000000000000000000000000000000000000000016906323b872dd906109e29033907f000000000000000000000000000000000000000000000000000000000000000090889060040161461d565b6020604051808303816000875af1158015610a01573d6000803e3d6000fd5b505050506040513d601f19601f82011682018060405250810190610a259190614641565b505b7f00000000000000000000000000000000000000000000000000000000000000006001600160a01b031663e9f4fcf38261016001516101800151610a87670de0b6b3a764000085610160015160800151886126fc9092919063ffffffff16565b6040518363ffffffff1660e01b8152600401610aa492919061465e565b600060405180830381600087803b158015610abe57600080fd5b505af1158015610ad2573d6000803e3d6000fd5b50505061016082015160800151610af591508490670de0b6b3a7640000906126fc565b6020820181905261016082015161012081015161018090910151610b2a92610b2590670de0b6b3a76400006145b1565b612d02565b50508315610b7357610b5081610160015161018001518261016001516101200151611893565b80825261016082015160a00151610b73918391610b6d91906145b1565b88612b75565b61016081018051608001805185900390528151905160a00151610b9691906145b1565b610140820152610f07565b8061016001516101200151610bdb57610bbe816101a00151612852565b6001600160a01b031681608001516001600160a01b031611610c02565b610be9816101a00151612852565b6001600160a01b031681608001516001600160a01b0316105b15610ed6578281610160015160a0015110158015610c295750828161016001516060015110155b610c455760405162461bcd60e51b815260040161050a906145ff565b8515610d025760405163a9059cbb60e01b81526001600160a01b037f0000000000000000000000000000000000000000000000000000000000000000169063a9059cbb90610cb9907f0000000000000000000000000000000000000000000000000000000000000000908790600401614680565b6020604051808303816000875af1158015610cd8573d6000803e3d6000fd5b505050506040513d601f19601f82011682018060405250810190610cfc9190614641565b50610db5565b60405163a9059cbb60e01b81526001600160a01b037f0000000000000000000000000000000000000000000000000000000000000000169063a9059cbb90610d70907f0000000000000000000000000000000000000000000000000000000000000000908790600401614680565b6020604051808303816000875af1158015610d8f573d6000803e3d6000fd5b505050506040513d601f19601f82011682018060405250810190610db39190614641565b505b7f00000000000000000000000000000000000000000000000000000000000000006001600160a01b031663e9f4fcf38261016001516101800151610e15670de0b6b3a764000085610160015160600151886126fc9092919063ffffffff16565b6040518363ffffffff1660e01b8152600401610e3292919061465e565b600060405180830381600087803b158015610e4c57600080fd5b505af1158015610e60573d6000803e3d6000fd5b50505061016082015160600151610e8391508490670de0b6b3a7640000906126fc565b6020820181905261016082015161012081015161018090910151610eb392610b2590670de0b6b3a76400006145b1565b50506101608101805160a001805185900390525160600180518490039052610f07565b60405162461bcd60e51b81526020600482015260066024820152652172616e676560d01b604482015260640161050a565b60005461016082015160405163424bf6f160e01b81526001600160a01b039092169163424bf6f191610f3d913390600401614699565b600060405180830381600087803b158015610f5757600080fd5b505af1158015610f6b573d6000803e3d6000fd5b50506000546101608401516040516313804b0d60e11b81526001600160a01b039092169350632700961a9250610fa391600401614581565b602060405180830381865afa158015610fc0573d6000803e3d6000fd5b505050506040513d601f19601f82011682018060405250810190610fe49190614594565b6001600160801b03166040820152610160810151606001511561128c5761016081018051600060e0909101819052815161010001819052815160c0018190525490516101800151604051635b664e4f60e11b81526001600160a01b039092169163b6cc9c9e91611056916004016146c3565b600060405180830381865afa158015611073573d6000803e3d6000fd5b505050506040513d6000823e601f3d908101601f1916820160405261109b91908101906146d6565b610160820180516101809081019290925260005490519182015160a08401516101209093015160405163a02032bf60e01b81526001600160a01b039093169363a02032bf936110ee93929060040161470a565b600060405180830381865afa15801561110b573d6000803e3d6000fd5b505050506040513d6000823e601f3d908101601f191682016040526111339190810190614737565b6101608301805161018001919091526101e08301919091526040805160a08101825233815282516101200151151560208201526001818301526001600160a01b037f000000000000000000000000000000000000000000000000000000000000000081166060830152925160808201529051630850d0e960e01b81527f000000000000000000000000000000000000000000000000000000000000000090921691630850d0e9916111e69160040161477d565b600060405180830381600087803b15801561120057600080fd5b505af1158015611214573d6000803e3d6000fd5b5050600080546101608501516101e0860151604051634cb896f160e11b81526001600160a01b0390931695506399712de294506112559333936004016147d0565b600060405180830381600087803b15801561126f57600080fd5b505af1158015611283573d6000803e3d6000fd5b50505050611377565b604080516080810182526001600160a01b037f0000000000000000000000000000000000000000000000000000000000000000811682523360208301908152610160850151610120015115158385019081526001606085019081529451633a5177df60e01b815293518316600485015290518216602484015251151560448301529151151560648201527f000000000000000000000000000000000000000000000000000000000000000090911690633a5177df90608401600060405180830381600087803b15801561135e57600080fd5b505af1158015611372573d6000803e3d6000fd5b505050505b6040805160c0810182526000808252602082018190528183015261014083015160608201529082015160808201526101e09091015160a082015295945050505050565b6000806060670de0b6b3a764000084116114025760405162461bcd60e51b81526020600482015260096024820152683bb937b733903632bb60b91b604482015260640161050a565b61140a613c32565b7f00000000000000000000000000000000000000000000000000000000000000006001600160a01b0316633850c7bd6040518163ffffffff1660e01b815260040160e060405180830381865afa158015611468573d6000803e3d6000fd5b505050506040513d601f19601f8201168201806040525081019061148c91906144e9565b5050505060029190910b60a0840152506001600160a01b03166080820181905261150b90886114df576114c8670de0b6b3a764000080896126fc565b6114da90670de0b6b3a7640000614807565b611504565b6114f2670de0b6b3a764000080896126fc565b61150490670de0b6b3a76400006145b1565b6000610321565b6001600160a01b0316610180820181905261154d908861153357670ddd2935029d800061153d565b670de444324c2a80005b6001600160401b03166000610321565b6001600160a01b039081166101808301819052600054608084015160405163053ef28b60e01b81528b15156004820152602481019390935283166044830152606482018990529091169063053ef28b90608401600060405180830381865afa1580156115bd573d6000803e3d6000fd5b505050506040513d6000823e601f3d908101601f191682016040526115e5919081019061481a565b6102208401819052600291820b6101c085015291900b6101a0830152604051637c61444d60e01b81526001600160a01b037f00000000000000000000000000000000000000000000000000000000000000001691637c61444d9161165391908b906001908c9060040161487d565b600060405180830381600087803b15801561166d57600080fd5b505af1158015611681573d6000803e3d6000fd5b50505050806101c00151816101a001518261022001519350935093505093509350939050565b600080546001600160a01b0319166001600160a01b0383811691821790925560405163095ea7b360e01b81527f00000000000000000000000000000000000000000000000000000000000000009092169163095ea7b39161170e9160001990600401614680565b6020604051808303816000875af115801561172d573d6000803e3d6000fd5b505050506040513d601f19601f820116820180604052508101906117519190614641565b5060005460405163095ea7b360e01b81526001600160a01b037f000000000000000000000000000000000000000000000000000000000000000081169263095ea7b3926117a992919091169060001990600401614680565b6020604051808303816000875af11580156117c8573d6000803e3d6000fd5b505050506040513d601f19601f820116820180604052508101906117ec9190614641565b5050565b60008061181d7f0000000000000000000000000000000000000000000000000000000000000000856148ac565b90508261185f577f00000000000000000000000000000000000000000000000000000000000000006118508260016145da565b61185a91906148e6565b611889565b6118897f0000000000000000000000000000000000000000000000000000000000000000826148e6565b9150505b92915050565b6000805b83518110156119eb578381815181106118b2576118b26145c4565b6020026020010151602001516001600160801b0316600003156119d9578215611959576119486118ed8583815181106106dc576106dc6145c4565b6119237f000000000000000000000000000000000000000000000000000000000000000087858151811061073a5761073a6145c4565b868481518110611935576119356145c4565b6020026020010151602001516001612ec8565b6119529083614807565b91506119d9565b6119cc6119718583815181106106dc576106dc6145c4565b6119a77f000000000000000000000000000000000000000000000000000000000000000087858151811061073a5761073a6145c4565b8684815181106119b9576119b96145c4565b6020026020010151602001516001612f7f565b6119d69083614807565b91505b806119e381614906565b915050611897565b5092915050565b6119fa613cda565b600080670de0b6b3a76400008510611a3d5760405162461bcd60e51b815260040161050a9060208082526004908201526310b63a3b60e11b604082015260600190565b611a45613c32565b60405163750ff6b560e01b815230600482015233602482015288151560448201526000907f00000000000000000000000000000000000000000000000000000000000000006001600160a01b03169063750ff6b590606401600060405180830381865afa158015611aba573d6000803e3d6000fd5b505050506040513d6000823e601f3d908101601f19168201604052611ae291908101906143b2565b90507f00000000000000000000000000000000000000000000000000000000000000006001600160a01b0316633850c7bd6040518163ffffffff1660e01b815260040160e060405180830381865afa158015611b42573d6000803e3d6000fd5b505050506040513d601f19601f82011682018060405250810190611b6691906144e9565b5050505060029190910b60a0850152506001600160a01b0316608083015288611bc157611bbc7f00000000000000000000000000000000000000000000000000000000000000008360a0015161075091906145da565b611bf4565b611bf47f00000000000000000000000000000000000000000000000000000000000000008360a00151610750919061491f565b6001600160a01b031660c0830152600089611c2157611c1c83608001518460c001518b612ff8565b611c34565b611c3483608001518460c001518b613049565b905060008a611c6957611c6489670de0b6b3a7640000611c5d87608001518860c00151876130a0565b91906126fc565b611c89565b611c8989670de0b6b3a7640000611c5d87608001518860c001518761310a565b90508a15611d2a576040516323b872dd60e01b81526001600160a01b037f000000000000000000000000000000000000000000000000000000000000000016906323b872dd90611ce190339030908f9060040161461d565b6020604051808303816000875af1158015611d00573d6000803e3d6000fd5b505050506040513d601f19601f82011682018060405250810190611d249190614641565b50611dbf565b6040516323b872dd60e01b81526001600160a01b037f000000000000000000000000000000000000000000000000000000000000000016906323b872dd90611d7a90339030908f9060040161461d565b6020604051808303816000875af1158015611d99573d6000803e3d6000fd5b505050506040513d601f19601f82011682018060405250810190611dbd9190614641565b505b8751600003611f1557611dd884608001518a8d15610321565b6001600160a01b039081166101808601819052600054608087015160405163053ef28b60e01b81528f15156004820152602481019390935283166044830152606482018490529091169063053ef28b90608401600060405180830381865afa158015611e48573d6000803e3d6000fd5b505050506040513d6000823e601f3d908101601f19168201604052611e70919081019061481a565b6102208701819052600291820b6101c088015291900b6101a0860152604051637c61444d60e01b81526001600160a01b037f00000000000000000000000000000000000000000000000000000000000000001691637c61444d91611ede91908f90600190879060040161487d565b600060405180830381600087803b158015611ef857600080fd5b505af1158015611f0c573d6000803e3d6000fd5b50505050611f29565b611f208b828a613154565b61022084018890525b611f388461022001518c611893565b8085528a1015611f735760405162461bcd60e51b815260040161050a90602080825260049082015263216c697160e01b604082015260600190565b8351606084018051611f86908390614807565b905250608083018051829190611f9d908390614807565b90525060a0830180518b9190611fb4908390614807565b9052508a151561012084015263ffffffff42811661016085015261014084015116600003611fea5763ffffffff42166101408401525b6101808301515115612196576000546040516313804b0d60e11b81526001600160a01b0390911690632700961a90612026908690600401614581565b602060405180830381865afa158015612043573d6000803e3d6000fd5b505050506040513d601f19601f820116820180604052508101906120679190614594565b6001600160801b031661010084015260005460405163424bf6f160e01b81526001600160a01b039091169063424bf6f1906120a89086903390600401614699565b600060405180830381600087803b1580156120c257600080fd5b505af11580156120d6573d6000803e3d6000fd5b5050600060e086015250506102208401516101808401516120f691613329565b6102208501528a6121165761210f846102200151613902565b6102208501525b600054610220850151604051635b664e4f60e11b81526001600160a01b039092169163b6cc9c9e9161214a916004016146c3565b600060405180830381865afa158015612167573d6000803e3d6000fd5b505050506040513d6000823e601f3d908101601f1916820160405261218f91908101906146d6565b6102208501525b61022084018051610180850152600054905160a086015161012086015160405163a02032bf60e01b81526001600160a01b039094169363a02032bf936121e2939092909160040161470a565b600060405180830381865afa1580156121ff573d6000803e3d6000fd5b505050506040513d6000823e601f3d908101601f191682016040526122279190810190614737565b6101808501526101e08501526040805160a0810182523381528c151560208201526001818301526001600160a01b037f000000000000000000000000000000000000000000000000000000000000000081166060830152608082018690529151630b19e25960e41b81527f00000000000000000000000000000000000000000000000000000000000000009092169163b19e2590916122c89160040161477d565b6000604051808303816000875af11580156122e7573d6000803e3d6000fd5b505050506040513d6000823e601f3d908101601f1916820160405261230f91908101906143b2565b6000546101e08601516040808801519051634cb896f160e11b81529396506001600160a01b03909216926399712de2926123509233928992906004016147d0565b600060405180830381600087803b15801561236a57600080fd5b505af115801561237e573d6000803e3d6000fd5b505050508a1561241f5760405163a9059cbb60e01b81526001600160a01b037f0000000000000000000000000000000000000000000000000000000000000000169063a9059cbb906123d69033908590600401614680565b6020604051808303816000875af11580156123f5573d6000803e3d6000fd5b505050506040513d601f19601f820116820180604052508101906124199190614641565b506124b2565b60405163a9059cbb60e01b81526001600160a01b037f0000000000000000000000000000000000000000000000000000000000000000169063a9059cbb9061246d9033908590600401614680565b6020604051808303816000875af115801561248c573d6000803e3d6000fd5b505050506040513d601f19601f820116820180604052508101906124b09190614641565b505b505060408201516101e09092015190999198509650945050505050565b6000546001600160a01b031633146125115760405162461bcd60e51b8152602060048201526005602482015264042c2eae8d60db1b604482015260640161050a565b6001600160a01b0383161561260f5783156125bf576040516323b872dd60e01b81526001600160a01b037f000000000000000000000000000000000000000000000000000000000000000016906323b872dd906125769086908690869060040161461d565b6020604051808303816000875af1158015612595573d6000803e3d6000fd5b505050506040513d601f19601f820116820180604052508101906125b99190614641565b506126f6565b6040516323b872dd60e01b81526001600160a01b037f000000000000000000000000000000000000000000000000000000000000000016906323b872dd906125769086908690869060040161461d565b83156126635760405163a9059cbb60e01b81526001600160a01b037f0000000000000000000000000000000000000000000000000000000000000000169063a9059cbb906125769085908590600401614680565b60405163a9059cbb60e01b81526001600160a01b037f0000000000000000000000000000000000000000000000000000000000000000169063a9059cbb906126b19085908590600401614680565b6020604051808303816000875af11580156126d0573d6000803e3d6000fd5b505050506040513d601f19601f820116820180604052508101906126f49190614641565b505b50505050565b6000808060001985870985870292508281108382030391505080600003612735576000841161272a57600080fd5b5082900490506103cc565b80841161274157600080fd5b6000848688096000868103871696879004966002600389028118808a02820302808a02820302808a02820302808a02820302808a02820302808a02909103029181900381900460010186841190950394909402919094039290920491909117919091029150509392505050565b60b581600160881b81106127c75760409190911b9060801c5b690100000000000000000081106127e35760209190911b9060401c5b6501000000000081106127fb5760109190911b9060201c5b630100000081106128115760089190911b9060101c5b62010000010260121c80820401600190811c80830401811c80830401811c80830401811c80830401811c80830401811c80830401901c908190048111900390565b60008060008360020b12612869578260020b612871565b8260020b6000035b9050620d89e8811115612897576040516315e4079d60e11b815260040160405180910390fd5b6000816001166000036128ae57600160801b6128c0565b6ffffcb933bd6fad37aa2d162d1a5940015b70ffffffffffffffffffffffffffffffffff16905060028216156128f4576ffff97272373d413259a46990580e213a0260801c5b6004821615612913576ffff2e50f5f656932ef12357cf3c7fdcc0260801c5b6008821615612932576fffe5caca7e10e4e61c3624eaa0941cd00260801c5b6010821615612951576fffcb9843d60f6159c9db58835c9266440260801c5b6020821615612970576fff973b41fa98c081472e6896dfb254c00260801c5b604082161561298f576fff2ea16466c96a3843ec78b326b528610260801c5b60808216156129ae576ffe5dee046a99a2a811c461f1969c30530260801c5b6101008216156129ce576ffcbe86c7900a88aedcffc83b479aa3a40260801c5b6102008216156129ee576ff987a7253ac413176f2b074cf7815e540260801c5b610400821615612a0e576ff3392b0822b70005940c7a398e4b70f30260801c5b610800821615612a2e576fe7159475a2c29b7443b29c7fa6e889d90260801c5b611000821615612a4e576fd097f3bdfd2022b8845ad8f792aa58250260801c5b612000821615612a6e576fa9f746462d870fdf8a65dc1f90e061e50260801c5b614000821615612a8e576f70d869a156d2a1b890bb3df62baf32f70260801c5b618000821615612aae576f31be135f97d08fd981231505542fcfa60260801c5b62010000821615612acf576f09aa508b5b7a84e1c677de54f3e99bc90260801c5b62020000821615612aef576e5d6af8dedb81196699c329225ee6040260801c5b62040000821615612b0e576d2216e584f5fa1ea926041bedfe980260801c5b62080000821615612b2b576b048a170391f7dc42444e8fa20260801c5b60008460020b1315612b4c578060001981612b4857612b486142ba565b0490505b640100000000810615612b60576001612b63565b60005b60ff16602082901c0192505050919050565b8183610160015160a001511015612b9e5760405162461bcd60e51b815260040161050a906145ff565b825161016084015160a001518390031015612be35760405162461bcd60e51b815260206004820152600560248201526410b837b99960d91b604482015260640161050a565b6101608301805160a0018051849003905251606001518210612c06576000612c13565b8183610160015160600151035b610160840151606001528015612cb45760405163a9059cbb60e01b81526001600160a01b037f0000000000000000000000000000000000000000000000000000000000000000169063a9059cbb90612c719033908690600401614680565b6020604051808303816000875af1158015612c90573d6000803e3d6000fd5b505050506040513d601f19601f820116820180604052508101906126f69190614641565b60405163a9059cbb60e01b81526001600160a01b037f0000000000000000000000000000000000000000000000000000000000000000169063a9059cbb90612c719033908690600401614680565b60008060008060005b8651811015612ebd57868181518110612d2657612d266145c4565b6020026020010151602001516001600160801b031660000315612eab57868181518110612d5557612d556145c4565b6020026020010151600001519150612da686670de0b6b3a7640000898481518110612d8257612d826145c4565b6020026020010151602001516001600160801b03166126fc9092919063ffffffff16565b925082878281518110612dbb57612dbb6145c4565b6020908102919091018101516001600160801b039092169101528715612e7a57612e1c612de783612852565b612e146107507f0000000000000000000000000000000000000000000000000000000000000000866145da565b856001612ec8565b612e269086614807565b9450612e69612e3483612852565b612e616107507f0000000000000000000000000000000000000000000000000000000000000000866145da565b856001612f7f565b612e739085614807565b9350612eab565b612e86612e3483612852565b612e909086614807565b9450612e9e612de783612852565b612ea89085614807565b93505b80612eb581614906565b915050612d0b565b505050935093915050565b6000836001600160a01b0316856001600160a01b03161115612ee8579293925b600160601b600160e01b03606084901b166001600160a01b038686038116908716612f1257600080fd5b83612f4857866001600160a01b0316612f358383896001600160a01b03166126fc565b81612f4257612f426142ba565b04612f74565b612f74612f5f8383896001600160a01b03166139e7565b886001600160a01b0316808204910615150190565b979650505050505050565b6000836001600160a01b0316856001600160a01b03161115612f9f579293925b81612fcc57612fc7836001600160801b03168686036001600160a01b0316600160601b6126fc565b612fef565b612fef836001600160801b03168686036001600160a01b0316600160601b6139e7565b95945050505050565b6000826001600160a01b0316846001600160a01b03161115613018579192915b61304161303c83600160601b61302e8888614944565b6001600160a01b03166126fc565b613a27565b949350505050565b6000826001600160a01b0316846001600160a01b03161115613069579192915b600061308c856001600160a01b0316856001600160a01b0316600160601b6126fc565b9050612fef61303c848361302e8989614944565b6000826001600160a01b0316846001600160a01b031611156130c0579192915b6001600160a01b038416613100600160601b600160e01b03606085901b166130e88787614944565b6001600160a01b0316866001600160a01b03166126fc565b61304191906142d0565b6000826001600160a01b0316846001600160a01b0316111561312a579192915b6130416001600160801b0383166131418686614944565b6001600160a01b0316600160601b6126fc565b61315f818415611893565b82146131935760405162461bcd60e51b8152602060048201526003602482015262696e6360e81b604482015260640161050a565b60008054604051631542428b60e31b815282916001600160a01b03169063aa121458906131c49086906004016146c3565b600060405180830381865afa1580156131e1573d6000803e3d6000fd5b505050506040513d6000823e601f3d908101601f191682016040526132099190810190614964565b91509150816132435760405162461bcd60e51b815260040161050a90602080825260049082015263216c697160e01b604082015260600190565b60005b815181101561329c57818181518110613261576132616145c4565b602002602001015184828151811061327b5761327b6145c4565b6020908102919091010151604001528061329481614906565b915050613246565b50604051637c61444d60e01b81526001600160a01b037f00000000000000000000000000000000000000000000000000000000000000001690637c61444d906132f090869089906001908a9060040161487d565b600060405180830381600087803b15801561330a57600080fd5b505af115801561331e573d6000803e3d6000fd5b505050505050505050565b8151815160609190600061333d8284614807565b90506000816001600160401b0381111561335957613359613f1f565b6040519080825280602002602001820160405280156133a457816020015b60408051606081018252600080825260208083018290529282015282526000199092019101816133775790505b50905060008060005b86831080156133bb57508582105b156135935760006134068b85815181106133d7576133d76145c4565b6020026020010151600001518b85815181106133f5576133f56145c4565b602002602001015160000151613a42565b12156134565789838151811061341e5761341e6145c4565b6020026020010151848281518110613438576134386145c4565b6020026020010181905250828061344e90614906565b935050613581565b600061346d8b85815181106133d7576133d76145c4565b13156134bd57888281518110613485576134856145c4565b602002602001015184828151811061349f5761349f6145c4565b602002602001018190525081806134b590614906565b925050613581565b60405180606001604052808b85815181106134da576134da6145c4565b60200260200101516000015160020b81526020018a8481518110613500576135006145c4565b6020026020010151602001518c868151811061351e5761351e6145c4565b6020026020010151602001516135349190614a0b565b6001600160801b031681526020016000815250848281518110613559576135596145c4565b6020026020010181905250828061356f90614906565b935050818061357d90614906565b9250505b8061358b81614906565b9150506133ad565b868310156135f3578983815181106135ad576135ad6145c4565b60200260200101518482815181106135c7576135c76145c4565b602002602001018190525082806135dd90614906565b93505080806135eb90614906565b915050613593565b858210156136535788828151811061360d5761360d6145c4565b6020026020010151848281518110613627576136276145c4565b6020026020010181905250818061363d90614906565b925050808061364b90614906565b9150506135f3565b60008093505b8584101561378d57600061366e856001614807565b93505b8684101561372f5785848151811061368b5761368b6145c4565b60200260200101516000015160020b8686815181106136ac576136ac6145c4565b60200260200101516000015160020b0361371d57600190508584815181106136d6576136d66145c4565b6020026020010151602001518686815181106136f4576136f46145c4565b602002602001015160200181815161370c9190614a0b565b6001600160801b031690525061372f565b8361372781614906565b945050613671565b8061377a57858581518110613746576137466145c4565b6020026020010151868381518110613760576137606145c4565b6020026020010181905250818061377690614906565b9250505b508361378581614906565b945050613659565b8085526137a68560006137a16001856145b1565b613a8b565b6000816001600160401b038111156137c0576137c0613f1f565b60405190808252806020026020018201604052801561380b57816020015b60408051606081018252600080825260208083018290529282015282526000199092019101816137de5790505b5090506000935060005b86518110156138d057868181518110613830576138306145c4565b60200260200101516000015160020b6000148015613874575086818151811061385b5761385b6145c4565b6020026020010151602001516001600160801b03166000145b6138be5786818151811061388a5761388a6145c4565b60200260200101518286815181106138a4576138a46145c4565b602002602001018190525084806138ba90614906565b9550505b806138c881614906565b915050613815565b50816138db81614a2b565b80835292506138f390508160006137a16001866145b1565b9b9a5050505050505050505050565b80516060906000816001600160401b0381111561392157613921613f1f565b60405190808252806020026020018201604052801561396c57816020015b604080516060810182526000808252602080830182905292820152825260001990920191018161393f5790505b5090506000825b600181106139dd57856139876001836145b1565b81518110613997576139976145c4565b60200260200101518383815181106139b1576139b16145c4565b602002602001018190525081806139c790614906565b92505080806139d590614a2b565b915050613973565b5090949350505050565b60006139f48484846126fc565b905060008280613a0657613a066142ba565b84860911156103cc576000198110613a1d57600080fd5b6001019392505050565b806001600160801b0381168114613a3d57600080fd5b919050565b6000808360020b128015613a59575060008260020b125b15613a77578260020b8260020b613a709190614a42565b905061188d565b613a81828461491f565b60020b9392505050565b808210613a9757505050565b6001613aa383836145b1565b11613aad57505050565b81816000856002613abe8486614807565b613ac891906142d0565b81518110613ad857613ad86145c4565b602002602001015190505b818311613c04575b806000015160020b868481518110613b0557613b056145c4565b60200260200101516000015160020b1215613b2c5782613b2481614906565b935050613aeb565b806000015160020b868381518110613b4657613b466145c4565b60200260200101516000015160020b1315613b6d5781613b6581614a2b565b925050613b2c565b818311613bff57858281518110613b8657613b866145c4565b6020026020010151868481518110613ba057613ba06145c4565b6020026020010151878581518110613bba57613bba6145c4565b60200260200101888581518110613bd357613bd36145c4565b6020026020010182905282905250508280613bed90614906565b9350508180613bfb90614a2b565b9250505b613ae3565b81851015613c1757613c17868684613a8b565b83831015613c2a57613c2a868486613a8b565b505050505050565b6040518061024001604052806000815260200160008152602001600081526020016000815260200160006001600160a01b03168152602001600060020b815260200160006001600160a01b0316815260200160008152602001600081526020016000815260200160008152602001613ca8613cda565b81526000602082018190526040820181905260608083018290526080830182905260a083019190915260c09091015290565b604080516101a08101825260008082526020820181905291810182905260608082018390526080820183905260a0820183905260c0820183905260e0820183905261010082018390526101208201839052610140820183905261016082019290925261018081019190915290565b6001600160a01b0381168114613d5d57600080fd5b50565b8015158114613d5d57600080fd5b600080600060608486031215613d8357600080fd5b8335613d8e81613d48565b9250602084013591506040840135613da581613d60565b809150509250925092565b60008060008060808587031215613dc657600080fd5b8435613dd181613d60565b93506020850135613de181613d60565b92506040850135613df181613d60565b9396929550929360600135925050565b600080600060608486031215613e1657600080fd5b8335613e2181613d60565b95602085013595506040909401359392505050565b600081518084526020808501945080840160005b83811015613e8a578151805160020b88526020808201516001600160801b0316908901526040908101519088015260608701965090820190600101613e4a565b509495945050505050565b8360020b81528260020b6020820152606060408201526000612fef6060830184613e36565b600060208284031215613ecc57600080fd5b81356103cc81613d48565b8060020b8114613d5d57600080fd5b60008060408385031215613ef957600080fd5b8235613f0481613ed7565b91506020830135613f1481613d60565b809150509250929050565b634e487b7160e01b600052604160045260246000fd5b604051606081016001600160401b0381118282101715613f5757613f57613f1f565b60405290565b6040516101a081016001600160401b0381118282101715613f5757613f57613f1f565b604051601f8201601f191681016001600160401b0381118282101715613fa857613fa8613f1f565b604052919050565b60006001600160401b03821115613fc957613fc9613f1f565b5060051b60200190565b6001600160801b0381168114613d5d57600080fd5b600082601f830112613ff957600080fd5b8135602061400e61400983613fb0565b613f80565b8281526060928302850182019282820191908785111561402d57600080fd5b8387015b858110156140865781818a0312156140495760008081fd5b614051613f35565b813561405c81613ed7565b81528186013561406b81613fd3565b81870152604082810135908201528452928401928101614031565b5090979650505050505050565b600080604083850312156140a657600080fd5b82356001600160401b038111156140bc57600080fd5b6140c885828601613fe8565b9250506020830135613f1481613d60565b600080600080608085870312156140ef57600080fd5b84356140fa81613d60565b9350602085013592506040850135915060608501356001600160401b0381111561412357600080fd5b61412f87828801613fe8565b91505092959194509250565b80511515825260006101a0602083015161416060208601826001600160a01b03169052565b5060408301516040850152606083015160608501526080830151608085015260a083015160a085015260c08301516141a360c08601826001600160801b03169052565b5060e08301516141be60e08601826001600160801b03169052565b50610100838101516001600160801b031690850152610120808401511515908501526101408084015163ffffffff9081169186019190915261016080850151909116908501526101808084015181860183905261421d83870182613e36565b9695505050505050565b60608152600061423a606083018661413b565b60208301949094525060400152919050565b6000806000806080858703121561426257600080fd5b843561426d81613d60565b9350602085013561427d81613d48565b92506040850135613df181613d48565b634e487b7160e01b600052601160045260246000fd5b808202811582820484141761188d5761188d61428d565b634e487b7160e01b600052601260045260246000fd5b6000826142df576142df6142ba565b500490565b8051613a3d81613d60565b8051613a3d81613d48565b8051613a3d81613fd3565b805163ffffffff81168114613a3d57600080fd5b600082601f83011261432a57600080fd5b8151602061433a61400983613fb0565b8281526060928302850182019282820191908785111561435957600080fd5b8387015b858110156140865781818a0312156143755760008081fd5b61437d613f35565b815161438881613ed7565b81528186015161439781613fd3565b8187015260408281015190820152845292840192810161435d565b6000602082840312156143c457600080fd5b81516001600160401b03808211156143db57600080fd5b908301906101a082860312156143f057600080fd5b6143f8613f5d565b614401836142e4565b815261440f602084016142ef565b602082015260408301516040820152606083015160608201526080830151608082015260a083015160a082015261444860c084016142fa565b60c082015261445960e084016142fa565b60e082015261010061446c8185016142fa565b9082015261012061447e8482016142e4565b90820152610140614490848201614305565b908201526101606144a2848201614305565b9082015261018083810151838111156144ba57600080fd5b6144c688828701614319565b918301919091525095945050505050565b805161ffff81168114613a3d57600080fd5b600080600080600080600060e0888a03121561450457600080fd5b875161450f81613d48565b602089015190975061452081613ed7565b955061452e604089016144d7565b945061453c606089016144d7565b935061454a608089016144d7565b925060a088015160ff8116811461456057600080fd5b60c089015190925061457181613d60565b8091505092959891949750929550565b6020815260006103cc602083018461413b565b6000602082840312156145a657600080fd5b81516103cc81613fd3565b8181038181111561188d5761188d61428d565b634e487b7160e01b600052603260045260246000fd5b600281810b9083900b01627fffff8113627fffff198212171561188d5761188d61428d565b60208082526004908201526321706f7360e01b604082015260600190565b6001600160a01b039384168152919092166020820152604081019190915260600190565b60006020828403121561465357600080fd5b81516103cc81613d60565b6040815260006146716040830185613e36565b90508260208301529392505050565b6001600160a01b03929092168252602082015260400190565b6040815260006146ac604083018561413b565b905060018060a01b03831660208301529392505050565b6020815260006103cc6020830184613e36565b6000602082840312156146e857600080fd5b81516001600160401b038111156146fe57600080fd5b61188984828501614319565b60608152600061471d6060830186613e36565b60029490940b602083015250901515604090910152919050565b6000806040838503121561474a57600080fd5b8251915060208301516001600160401b0381111561476757600080fd5b61477385828601614319565b9150509250929050565b60208152600060018060a01b0380845116602084015260208401511515604084015260408401511515606084015280606085015116608084015250608083015160a08084015261188960c084018261413b565b6001600160a01b03851681526080602082018190526000906147f49083018661413b565b6040830194909452506060015292915050565b8082018082111561188d5761188d61428d565b60008060006060848603121561482f57600080fd5b835161483a81613ed7565b602085015190935061484b81613ed7565b60408501519092506001600160401b0381111561486757600080fd5b61487386828701614319565b9150509250925092565b6080815260006148906080830187613e36565b9415156020830152509115156040830152606090910152919050565b60008160020b8360020b806148c3576148c36142ba565b627fffff198214600019821416156148dd576148dd61428d565b90059392505050565b60008260020b8260020b028060020b91508082146119eb576119eb61428d565b6000600182016149185761491861428d565b5060010190565b600282810b9082900b03627fffff198112627fffff8213171561188d5761188d61428d565b6001600160a01b038281168282160390808211156119eb576119eb61428d565b6000806040838503121561497757600080fd5b825161498281613d60565b809250506020808401516001600160401b038111156149a057600080fd5b8401601f810186136149b157600080fd5b80516149bf61400982613fb0565b81815260059190911b820183019083810190888311156149de57600080fd5b928401925b828410156149fc578351825292840192908401906149e3565b80955050505050509250929050565b6001600160801b038181168382160190808211156119eb576119eb61428d565b600081614a3a57614a3a61428d565b506000190190565b81810360008312801583831316838312821617156119eb576119eb61428d56fea26469706673582212202b0c5b0fd28e67137592406000b783bb2b0140561a5c6e8254d4dbdd6a4282d064736f6c63430008110033",
    "linkReferences": {}
  },
  "methodIdentifiers": {
    "addBorrowPosition(bool,uint256,uint256,(int24,uint128,uint256)[])": "997124c6",
    "applySlippageX96(uint160,uint256,bool)": "207b0576",
    "borrow(bool,uint256,uint256)": "25350f8e",
    "getFilledAmount((int24,uint128,uint256)[],bool)": "786afbcc",
    "globalStorage()": "6502072a",
    "liquidityManager()": "33827438",
    "pool()": "16f0115b",
    "precision()": "d3b5dc3b",
    "reduceBorrowPosition(bool,bool,bool,uint256)": "223aa77d",
    "roundTick(int24,bool)": "3dc306ee",
    "setLiquidityManager(address)": "3c1624d4",
    "tickSpacing()": "d0c93a7c",
    "token0()": "0dfe1681",
    "token1()": "d21220a7",
    "transferToken(bool,address,address,uint256)": "a352dcbf"
  },
  "id": 35
}