{
  "abi": [
    {
      "inputs": [],
      "stateMutability": "nonpayable",
      "type": "constructor"
    },
    {
      "inputs": [],
      "name": "T",
      "type": "error"
    },
    {
      "inputs": [
        {
          "internalType": "bool",
          "name": "borrowBelow",
          "type": "bool"
        },
        {
          "internalType": "uint256",
          "name": "collateralAmount",
          "type": "uint256"
        },
        {
          "internalType": "uint256",
          "name": "ltv",
          "type": "uint256"
        },
        {
          "components": [
            {
              "internalType": "int24",
              "name": "tick",
              "type": "int24"
            },
            {
              "internalType": "uint128",
              "name": "liquidity",
              "type": "uint128"
            },
            {
              "internalType": "uint256",
              "name": "premiumOrUrate",
              "type": "uint256"
            }
          ],
          "internalType": "struct LiquidityManager.Liquidity[]",
          "name": "borrowInfo",
          "type": "tuple[]"
        }
      ],
      "name": "addBorrowPosition",
      "outputs": [
        {
          "components": [
            {
              "internalType": "bool",
              "name": "isBorrow",
              "type": "bool"
            },
            {
              "internalType": "address",
              "name": "pool",
              "type": "address"
            },
            {
              "internalType": "uint256",
              "name": "totalPosition",
              "type": "uint256"
            },
            {
              "internalType": "uint256",
              "name": "totalDebt",
              "type": "uint256"
            },
            {
              "internalType": "uint256",
              "name": "totalDebtInput",
              "type": "uint256"
            },
            {
              "internalType": "uint256",
              "name": "initCollateral",
              "type": "uint256"
            },
            {
              "internalType": "uint128",
              "name": "recentPremium",
              "type": "uint128"
            },
            {
              "internalType": "uint128",
              "name": "totalPremium",
              "type": "uint128"
            },
            {
              "internalType": "uint128",
              "name": "unusedPremium",
              "type": "uint128"
            },
            {
              "internalType": "bool",
              "name": "isToken0",
              "type": "bool"
            },
            {
              "internalType": "uint32",
              "name": "openTime",
              "type": "uint32"
            },
            {
              "internalType": "uint32",
              "name": "repayTime",
              "type": "uint32"
            },
            {
              "components": [
                {
                  "internalType": "int24",
                  "name": "tick",
                  "type": "int24"
                },
                {
                  "internalType": "uint128",
                  "name": "liquidity",
                  "type": "uint128"
                },
                {
                  "internalType": "uint256",
                  "name": "premiumOrUrate",
                  "type": "uint256"
                }
              ],
              "internalType": "struct LiquidityManager.Liquidity[]",
              "name": "borrowInfo",
              "type": "tuple[]"
            }
          ],
          "internalType": "struct GlobalStorage.Position",
          "name": "",
          "type": "tuple"
        },
        {
          "internalType": "uint256",
          "name": "",
          "type": "uint256"
        },
        {
          "internalType": "uint256",
          "name": "",
          "type": "uint256"
        }
      ],
      "stateMutability": "nonpayable",
      "type": "function"
    },
    {
      "inputs": [
        {
          "internalType": "uint160",
          "name": "price",
          "type": "uint160"
        },
        {
          "internalType": "uint256",
          "name": "maxSlippage",
          "type": "uint256"
        },
        {
          "internalType": "bool",
          "name": "down",
          "type": "bool"
        }
      ],
      "name": "applySlippageX96",
      "outputs": [
        {
          "internalType": "uint160",
          "name": "",
          "type": "uint160"
        }
      ],
      "stateMutability": "pure",
      "type": "function"
    },
    {
      "inputs": [
        {
          "internalType": "bool",
          "name": "borrowBelow",
          "type": "bool"
        },
        {
          "internalType": "uint256",
          "name": "amountSpecified",
          "type": "uint256"
        },
        {
          "internalType": "uint256",
          "name": "leverage",
          "type": "uint256"
        }
      ],
      "name": "borrow",
      "outputs": [
        {
          "internalType": "int24",
          "name": "",
          "type": "int24"
        },
        {
          "internalType": "int24",
          "name": "",
          "type": "int24"
        },
        {
          "components": [
            {
              "internalType": "int24",
              "name": "tick",
              "type": "int24"
            },
            {
              "internalType": "uint128",
              "name": "liquidity",
              "type": "uint128"
            },
            {
              "internalType": "uint256",
              "name": "premiumOrUrate",
              "type": "uint256"
            }
          ],
          "internalType": "struct LiquidityManager.Liquidity[]",
          "name": "",
          "type": "tuple[]"
        }
      ],
      "stateMutability": "nonpayable",
      "type": "function"
    },
    {
      "inputs": [
        {
          "components": [
            {
              "internalType": "int24",
              "name": "tick",
              "type": "int24"
            },
            {
              "internalType": "uint128",
              "name": "liquidity",
              "type": "uint128"
            },
            {
              "internalType": "uint256",
              "name": "premiumOrUrate",
              "type": "uint256"
            }
          ],
          "internalType": "struct LiquidityManager.Liquidity[]",
          "name": "borrowInfo",
          "type": "tuple[]"
        },
        {
          "internalType": "bool",
          "name": "borrowBelow",
          "type": "bool"
        }
      ],
      "name": "getFilledAmount",
      "outputs": [
        {
          "internalType": "uint256",
          "name": "filledAmount",
          "type": "uint256"
        }
      ],
      "stateMutability": "view",
      "type": "function"
    },
    {
      "inputs": [],
      "name": "globalStorage",
      "outputs": [
        {
          "internalType": "contract GlobalStorage",
          "name": "",
          "type": "address"
        }
      ],
      "stateMutability": "view",
      "type": "function"
    },
    {
      "inputs": [],
      "name": "liquidityManager",
      "outputs": [
        {
          "internalType": "contract LiquidityManager",
          "name": "",
          "type": "address"
        }
      ],
      "stateMutability": "view",
      "type": "function"
    },
    {
      "inputs": [],
      "name": "pool",
      "outputs": [
        {
          "internalType": "contract UniswapV3Pool",
          "name": "",
          "type": "address"
        }
      ],
      "stateMutability": "view",
      "type": "function"
    },
    {
      "inputs": [],
      "name": "precision",
      "outputs": [
        {
          "internalType": "uint256",
          "name": "",
          "type": "uint256"
        }
      ],
      "stateMutability": "view",
      "type": "function"
    },
    {
      "inputs": [
        {
          "internalType": "bool",
          "name": "borrowBelow",
          "type": "bool"
        },
        {
          "internalType": "bool",
          "name": "reduceCollateral",
          "type": "bool"
        },
        {
          "internalType": "bool",
          "name": "getCollateralBack",
          "type": "bool"
        },
        {
          "internalType": "uint256",
          "name": "reduceAmount",
          "type": "uint256"
        }
      ],
      "name": "reduceBorrowPosition",
      "outputs": [
        {
          "components": [
            {
              "internalType": "int256",
              "name": "amount0",
              "type": "int256"
            },
            {
              "internalType": "int256",
              "name": "amount1",
              "type": "int256"
            },
            {
              "internalType": "int256",
              "name": "PnL",
              "type": "int256"
            },
            {
              "internalType": "uint256",
              "name": "returnedAmount",
              "type": "uint256"
            },
            {
              "internalType": "uint256",
              "name": "unusedPremium",
              "type": "uint256"
            },
            {
              "internalType": "uint256",
              "name": "premium",
              "type": "uint256"
            }
          ],
          "internalType": "struct ReduceReturn",
          "name": "",
          "type": "tuple"
        }
      ],
      "stateMutability": "nonpayable",
      "type": "function"
    },
    {
      "inputs": [
        {
          "internalType": "int24",
          "name": "tick",
          "type": "int24"
        },
        {
          "internalType": "bool",
          "name": "down",
          "type": "bool"
        }
      ],
      "name": "roundTick",
      "outputs": [
        {
          "internalType": "int24",
          "name": "",
          "type": "int24"
        }
      ],
      "stateMutability": "view",
      "type": "function"
    },
    {
      "inputs": [
        {
          "internalType": "address",
          "name": "ad",
          "type": "address"
        }
      ],
      "name": "setLiquidityManager",
      "outputs": [],
      "stateMutability": "nonpayable",
      "type": "function"
    },
    {
      "inputs": [],
      "name": "tickSpacing",
      "outputs": [
        {
          "internalType": "int24",
          "name": "",
          "type": "int24"
        }
      ],
      "stateMutability": "view",
      "type": "function"
    },
    {
      "inputs": [],
      "name": "token0",
      "outputs": [
        {
          "internalType": "contract ERC20",
          "name": "",
          "type": "address"
        }
      ],
      "stateMutability": "view",
      "type": "function"
    },
    {
      "inputs": [],
      "name": "token1",
      "outputs": [
        {
          "internalType": "contract ERC20",
          "name": "",
          "type": "address"
        }
      ],
      "stateMutability": "view",
      "type": "function"
    },
    {
      "inputs": [
        {
          "internalType": "bool",
          "name": "isToken0",
          "type": "bool"
        },
        {
          "internalType": "address",
          "name": "caller",
          "type": "address"
        },
        {
          "internalType": "address",
          "name": "receiver",
          "type": "address"
        },
        {
          "internalType": "uint256",
          "name": "amount",
          "type": "uint256"
        }
      ],
      "name": "transferToken",
      "outputs": [],
      "stateMutability": "nonpayable",
      "type": "function"
    }
  ],
  "bytecode": {
    "object": "0x6101206040523480156200001257600080fd5b50600080336001600160a01b031663890357306040518163ffffffff1660e01b81526004016040805180830381865afa15801562000054573d6000803e3d6000fd5b505050506040513d601f19601f820116820180604052508101906200007a91906200020a565b6001600160a01b0380831660a08190529082166101005260408051630dfe168160e01b8152905193955091935091630dfe1681916004808201926020929091908290030181865afa158015620000d4573d6000803e3d6000fd5b505050506040513d601f19601f82011682018060405250810190620000fa919062000242565b60a0516001600160a01b031663d21220a76040518163ffffffff1660e01b8152600401602060405180830381865afa1580156200013b573d6000803e3d6000fd5b505050506040513d601f19601f8201168201806040525081019062000161919062000242565b6001600160a01b0390811660e05290811660c05260a051604080516334324e9f60e21b81529051919092169163d0c93a7c9160048083019260209291908290030181865afa158015620001b8573d6000803e3d6000fd5b505050506040513d601f19601f82011682018060405250810190620001de919062000267565b60020b608052506200028c9050565b80516001600160a01b03811681146200020557600080fd5b919050565b600080604083850312156200021e57600080fd5b6200022983620001ed565b91506200023960208401620001ed565b90509250929050565b6000602082840312156200025557600080fd5b6200026082620001ed565b9392505050565b6000602082840312156200027a57600080fd5b81518060020b81146200026057600080fd5b60805160a05160c05160e051610100516149f8620004196000396000818161024c0152818161043701528181610ff3015281816110eb015281816118c101526120e90152600081816102f0015281816108d001528181610d08015281816115c201528181611b97015281816121840152818161242e015281816124d20152612b2301526000818160ff0152818161098901528181610c510152818161152b01528181611afe0152818161221b01528181612395015281816124840152612a920152600081816101430152818161056e015281816108ff015281816109b801528181610a2901528181610c7e01528181610d3501528181610da601528181610fb801528181611073015281816112620152818161146e0152818161193c01528181611cf9015281816120ae015261310c0152600081816102c9015281816106ef015281816107740152818161164e0152818161167c015281816116ba01528181611748015281816117cc015281816119e401528181611a1c01528181612c470152612c9401526149f86000f3fe608060405234801561001057600080fd5b50600436106100f55760003560e01c80633dc306ee11610097578063a352dcbf11610066578063a352dcbf146102b1578063d0c93a7c146102c4578063d21220a7146102eb578063d3b5dc3b1461031257600080fd5b80633dc306ee146102215780636502072a14610247578063786afbcc1461026e578063997124c61461028f57600080fd5b8063223aa77d116100d3578063223aa77d1461017857806325350f8e146101d757806333827438146101f95780633c1624d41461020c57600080fd5b80630dfe1681146100fa57806316f0115b1461013e578063207b057614610165575b600080fd5b6101217f000000000000000000000000000000000000000000000000000000000000000081565b6040516001600160a01b0390911681526020015b60405180910390f35b6101217f000000000000000000000000000000000000000000000000000000000000000081565b610121610173366004613c87565b610321565b61018b610186366004613cc9565b6103d3565b6040516101359190600060c082019050825182526020830151602083015260408301516040830152606083015160608301526080830151608083015260a083015160a083015292915050565b6101ea6101e5366004613d1a565b611210565b60405161013593929190613dae565b600054610121906001600160a01b031681565b61021f61021a366004613dd3565b6114fd565b005b61023461022f366004613dff565b611646565b60405160029190910b8152602001610135565b6101217f000000000000000000000000000000000000000000000000000000000000000081565b61028161027c366004613fac565b6116e9565b604051908152602001610135565b6102a261029d366004613ff2565b611848565b60405161013593929190614140565b61021f6102bf366004614165565b612327565b6102347f000000000000000000000000000000000000000000000000000000000000000081565b6101217f000000000000000000000000000000000000000000000000000000000000000081565b610281670de0b6b3a764000081565b60008061033f6001600160a01b038616670de0b6b3a76400006141bc565b9050600061035585670de0b6b3a76400006141bc565b9050600061036b670de0b6b3a7640000806141bc565b905084156103aa576000610388610383838086612554565b612606565b90508161039582866141bc565b61039f91906141e9565b9450505050506103cc565b60006103b583612606565b9050806103c283866141e9565b61039f91906141bc565b9392505050565b61040c6040518060c001604052806000815260200160008152602001600081526020016000815260200160008152602001600081525090565b610414613b4b565b60405163750ff6b560e01b815230600482015233602482015286151560448201527f00000000000000000000000000000000000000000000000000000000000000006001600160a01b03169063750ff6b590606401600060405180830381865afa158015610486573d6000803e3d6000fd5b505050506040513d6000823e601f3d908101601f191682016040526104ae91908101906142cb565b6101608201528415610518576000816101600151606001511180156104dc5750806101600151606001518311155b6105135760405162461bcd60e51b8152602060048201526003602482015262706f7360e81b60448201526064015b60405180910390fd5b61056c565b60008161016001516080015111801561053a5750806101600151608001518311155b61056c5760405162461bcd60e51b8152602060048201526003602482015262706f7360e81b604482015260640161050a565b7f00000000000000000000000000000000000000000000000000000000000000006001600160a01b0316633850c7bd6040518163ffffffff1660e01b815260040160e060405180830381865afa1580156105ca573d6000803e3d6000fd5b505050506040513d601f19601f820116820180604052508101906105ee9190614402565b5050505060029190910b60a0840152506001600160a01b0390811660808301526101608201516101808101515160608401526000546040516313804b0d60e11b8152921691632700961a916106459160040161449a565b602060405180830381865afa158015610662573d6000803e3d6000fd5b505050506040513d601f19601f8201168201806040525081019061068691906144ad565b610160820180516001600160801b0390921661010090920191909152516101200151610755906106ed578161016001516101800151600183606001516106cc91906144ca565b815181106106dc576106dc6144dd565b6020026020010151600001516126aa565b7f000000000000000000000000000000000000000000000000000000000000000082610160015161018001516001846060015161072a91906144ca565b8151811061073a5761073a6144dd565b60200260200101516000015161075091906144f3565b6126aa565b6001600160a01b031660c082015261016081015161012001516107cb577f000000000000000000000000000000000000000000000000000000000000000081610160015161018001516000815181106107b0576107b06144dd565b6020026020010151600001516107c691906144f3565b6107f5565b80610160015161018001516000815181106107e8576107e86144dd565b6020026020010151600001515b60020b6101a08201526101608101516101200151610830578060c001516001600160a01b031681608001516001600160a01b0316111561084f565b8060c001516001600160a01b031681608001516001600160a01b031610155b15610b9057841561088a57610878816101600151610180015182610160015161012001516116e9565b81526108858184886129cd565b610ef6565b828161016001516080015110156108b35760405162461bcd60e51b815260040161050a90614518565b8515610972576040516323b872dd60e01b81526001600160a01b037f000000000000000000000000000000000000000000000000000000000000000016906323b872dd906109299033907f0000000000000000000000000000000000000000000000000000000000000000908890600401614536565b6020604051808303816000875af1158015610948573d6000803e3d6000fd5b505050506040513d601f19601f8201168201806040525081019061096c919061455a565b50610a27565b6040516323b872dd60e01b81526001600160a01b037f000000000000000000000000000000000000000000000000000000000000000016906323b872dd906109e29033907f0000000000000000000000000000000000000000000000000000000000000000908890600401614536565b6020604051808303816000875af1158015610a01573d6000803e3d6000fd5b505050506040513d601f19601f82011682018060405250810190610a25919061455a565b505b7f00000000000000000000000000000000000000000000000000000000000000006001600160a01b031663e9f4fcf38261016001516101800151610a87670de0b6b3a764000085610160015160800151886125549092919063ffffffff16565b6040518363ffffffff1660e01b8152600401610aa4929190614577565b600060405180830381600087803b158015610abe57600080fd5b505af1158015610ad2573d6000803e3d6000fd5b50505061016082015160800151610af591508490670de0b6b3a764000090612554565b6020820181905261016082015161012081015161018090910151610b2a92610b2590670de0b6b3a76400006144ca565b612b5a565b50508315610b7b57610b50816101600151610180015182610160015161012001516116e9565b80825261016082015160a00151610b6791906144ca565b6101408201819052610b7b908290886129cd565b61016081015160800180518490039052610ef6565b8061016001516101200151610bca57610bad816101a001516126aa565b6001600160a01b031681608001516001600160a01b031611610bf1565b610bd8816101a001516126aa565b6001600160a01b031681608001516001600160a01b0316105b15610ec5578281610160015160a0015110158015610c185750828161016001516060015110155b610c345760405162461bcd60e51b815260040161050a90614518565b8515610cf15760405163a9059cbb60e01b81526001600160a01b037f0000000000000000000000000000000000000000000000000000000000000000169063a9059cbb90610ca8907f0000000000000000000000000000000000000000000000000000000000000000908790600401614599565b6020604051808303816000875af1158015610cc7573d6000803e3d6000fd5b505050506040513d601f19601f82011682018060405250810190610ceb919061455a565b50610da4565b60405163a9059cbb60e01b81526001600160a01b037f0000000000000000000000000000000000000000000000000000000000000000169063a9059cbb90610d5f907f0000000000000000000000000000000000000000000000000000000000000000908790600401614599565b6020604051808303816000875af1158015610d7e573d6000803e3d6000fd5b505050506040513d601f19601f82011682018060405250810190610da2919061455a565b505b7f00000000000000000000000000000000000000000000000000000000000000006001600160a01b031663e9f4fcf38261016001516101800151610e04670de0b6b3a764000085610160015160600151886125549092919063ffffffff16565b6040518363ffffffff1660e01b8152600401610e21929190614577565b600060405180830381600087803b158015610e3b57600080fd5b505af1158015610e4f573d6000803e3d6000fd5b50505061016082015160600151610e7291508490670de0b6b3a764000090612554565b6020820181905261016082015161012081015161018090910151610ea292610b2590670de0b6b3a76400006144ca565b50506101608101805160a001805185900390525160600180518490039052610ef6565b60405162461bcd60e51b81526020600482015260066024820152652172616e676560d01b604482015260640161050a565b6000546101608201516040516313804b0d60e11b81526001600160a01b0390921691632700961a91610f2a9160040161449a565b602060405180830381865afa158015610f47573d6000803e3d6000fd5b505050506040513d601f19601f82011682018060405250810190610f6b91906144ad565b6001600160801b03166040820152610160810151606001511561105f576040805160a081018252338152610160830180516101200151151560208301526001828401526001600160a01b037f000000000000000000000000000000000000000000000000000000000000000081166060840152905160808301529151630850d0e960e01b81527f000000000000000000000000000000000000000000000000000000000000000090921691630850d0e991611028916004016145b2565b600060405180830381600087803b15801561104257600080fd5b505af1158015611056573d6000803e3d6000fd5b5050505061114a565b604080516080810182526001600160a01b037f0000000000000000000000000000000000000000000000000000000000000000811682523360208301908152610160850151610120015115158385019081526001606085019081529451633a5177df60e01b815293518316600485015290518216602484015251151560448301529151151560648201527f000000000000000000000000000000000000000000000000000000000000000090911690633a5177df90608401600060405180830381600087803b15801561113157600080fd5b505af1158015611145573d6000803e3d6000fd5b505050505b60005461016082015160208301516040516343f3a7d560e11b81526001600160a01b03909316926387e74faa92611188929091339190600401614605565b6020604051808303816000875af11580156111a7573d6000803e3d6000fd5b505050506040513d601f19601f820116820180604052508101906111cb9190614633565b6101e082019081526040805160c0810182526000808252602082018190529181018290526101409093015160608401529051608083015260a082015295945050505050565b6000806060670de0b6b3a764000084116112585760405162461bcd60e51b81526020600482015260096024820152683bb937b733903632bb60b91b604482015260640161050a565b611260613b4b565b7f00000000000000000000000000000000000000000000000000000000000000006001600160a01b0316633850c7bd6040518163ffffffff1660e01b815260040160e060405180830381865afa1580156112be573d6000803e3d6000fd5b505050506040513d601f19601f820116820180604052508101906112e29190614402565b5050505060029190910b60a0840152506001600160a01b03166080820181905261136190886113355761131e670de0b6b3a76400008089612554565b61133090670de0b6b3a764000061464c565b61135a565b611348670de0b6b3a76400008089612554565b61135a90670de0b6b3a76400006144ca565b6000610321565b6001600160a01b031661018082018190526113a3908861138957670ddd2935029d8000611393565b670de444324c2a80005b6001600160401b03166000610321565b6001600160a01b039081166101808301819052600054608084015160405163053ef28b60e01b81528b15156004820152602481019390935283166044830152606482018990529091169063053ef28b90608401600060405180830381865afa158015611413573d6000803e3d6000fd5b505050506040513d6000823e601f3d908101601f1916820160405261143b919081019061465f565b6102208401819052600291820b6101c085015291900b6101a0830152604051637c61444d60e01b81526001600160a01b037f00000000000000000000000000000000000000000000000000000000000000001691637c61444d916114a991908b906001908c906004016146c2565b600060405180830381600087803b1580156114c357600080fd5b505af11580156114d7573d6000803e3d6000fd5b50505050806101c00151816101a001518261022001519350935093505093509350939050565b600080546001600160a01b0319166001600160a01b0383811691821790925560405163095ea7b360e01b81527f00000000000000000000000000000000000000000000000000000000000000009092169163095ea7b3916115649160001990600401614599565b6020604051808303816000875af1158015611583573d6000803e3d6000fd5b505050506040513d601f19601f820116820180604052508101906115a7919061455a565b5060005460405163095ea7b360e01b81526001600160a01b037f000000000000000000000000000000000000000000000000000000000000000081169263095ea7b3926115ff92919091169060001990600401614599565b6020604051808303816000875af115801561161e573d6000803e3d6000fd5b505050506040513d601f19601f82011682018060405250810190611642919061455a565b5050565b6000806116737f0000000000000000000000000000000000000000000000000000000000000000856146f1565b9050826116b5577f00000000000000000000000000000000000000000000000000000000000000006116a68260016144f3565b6116b0919061472b565b6116df565b6116df7f00000000000000000000000000000000000000000000000000000000000000008261472b565b9150505b92915050565b6000805b835181101561184157838181518110611708576117086144dd565b6020026020010151602001516001600160801b03166000031561182f5782156117af5761179e6117438583815181106106dc576106dc6144dd565b6117797f000000000000000000000000000000000000000000000000000000000000000087858151811061073a5761073a6144dd565b86848151811061178b5761178b6144dd565b6020026020010151602001516001612d20565b6117a8908361464c565b915061182f565b6118226117c78583815181106106dc576106dc6144dd565b6117fd7f000000000000000000000000000000000000000000000000000000000000000087858151811061073a5761073a6144dd565b86848151811061180f5761180f6144dd565b6020026020010151602001516001612dd7565b61182c908361464c565b91505b806118398161474b565b9150506116ed565b5092915050565b611850613bf3565b600080670de0b6b3a764000085106118935760405162461bcd60e51b815260040161050a9060208082526004908201526310b63a3b60e11b604082015260600190565b61189b613b4b565b60405163750ff6b560e01b815230600482015233602482015288151560448201526000907f00000000000000000000000000000000000000000000000000000000000000006001600160a01b03169063750ff6b590606401600060405180830381865afa158015611910573d6000803e3d6000fd5b505050506040513d6000823e601f3d908101601f1916820160405261193891908101906142cb565b90507f00000000000000000000000000000000000000000000000000000000000000006001600160a01b0316633850c7bd6040518163ffffffff1660e01b815260040160e060405180830381865afa158015611998573d6000803e3d6000fd5b505050506040513d601f19601f820116820180604052508101906119bc9190614402565b5050505060029190910b60a0850152506001600160a01b0316608083015288611a1757611a127f00000000000000000000000000000000000000000000000000000000000000008360a0015161075091906144f3565b611a4a565b611a4a7f00000000000000000000000000000000000000000000000000000000000000008360a001516107509190614764565b6001600160a01b031660c0830152600089611a7757611a7283608001518460c001518b612e50565b611a8a565b611a8a83608001518460c001518b612ea1565b905060008a611abf57611aba89670de0b6b3a7640000611ab387608001518860c0015187612ef8565b9190612554565b611adf565b611adf89670de0b6b3a7640000611ab387608001518860c0015187612f62565b90508a15611b80576040516323b872dd60e01b81526001600160a01b037f000000000000000000000000000000000000000000000000000000000000000016906323b872dd90611b3790339030908f90600401614536565b6020604051808303816000875af1158015611b56573d6000803e3d6000fd5b505050506040513d601f19601f82011682018060405250810190611b7a919061455a565b50611c15565b6040516323b872dd60e01b81526001600160a01b037f000000000000000000000000000000000000000000000000000000000000000016906323b872dd90611bd090339030908f90600401614536565b6020604051808303816000875af1158015611bef573d6000803e3d6000fd5b505050506040513d601f19601f82011682018060405250810190611c13919061455a565b505b8751600003611d6b57611c2e84608001518a8d15610321565b6001600160a01b039081166101808601819052600054608087015160405163053ef28b60e01b81528f15156004820152602481019390935283166044830152606482018490529091169063053ef28b90608401600060405180830381865afa158015611c9e573d6000803e3d6000fd5b505050506040513d6000823e601f3d908101601f19168201604052611cc6919081019061465f565b6102208701819052600291820b6101c088015291900b6101a0860152604051637c61444d60e01b81526001600160a01b037f00000000000000000000000000000000000000000000000000000000000000001691637c61444d91611d3491908f9060019087906004016146c2565b600060405180830381600087803b158015611d4e57600080fd5b505af1158015611d62573d6000803e3d6000fd5b50505050611d7f565b611d768b828a612fac565b61022084018890525b611d8e8461022001518c6116e9565b8085528a1015611dc95760405162461bcd60e51b815260040161050a90602080825260049082015263216c697160e01b604082015260600190565b8351606084018051611ddc90839061464c565b905250608083018051829190611df390839061464c565b90525060a0830180518b9190611e0a90839061464c565b9052508a151561012084015263ffffffff42811661016085015261014084015116600003611e405763ffffffff42166101408401525b6101808301515115611fec576000546040516313804b0d60e11b81526001600160a01b0390911690632700961a90611e7c90869060040161449a565b602060405180830381865afa158015611e99573d6000803e3d6000fd5b505050506040513d601f19601f82011682018060405250810190611ebd91906144ad565b6001600160801b031661010084015260005460405163424bf6f160e01b81526001600160a01b039091169063424bf6f190611efe9086903390600401614789565b600060405180830381600087803b158015611f1857600080fd5b505af1158015611f2c573d6000803e3d6000fd5b5050600060e08601525050610220840151610180840151611f4c91613181565b6102208501528a611f6c57611f6584610220015161381b565b6102208501525b600054610220850151604051635b664e4f60e11b81526001600160a01b039092169163b6cc9c9e91611fa0916004016147b3565b600060405180830381865afa158015611fbd573d6000803e3d6000fd5b505050506040513d6000823e601f3d908101601f19168201604052611fe591908101906147c6565b6102208501525b61022084018051610180850152600054905160a086015161012086015160405163a02032bf60e01b81526001600160a01b039094169363a02032bf9361203893909290916004016147fa565b600060405180830381865afa158015612055573d6000803e3d6000fd5b505050506040513d6000823e601f3d908101601f1916820160405261207d9190810190614827565b6101808501526101e08501526040805160a0810182523381528c151560208201526001818301526001600160a01b037f000000000000000000000000000000000000000000000000000000000000000081166060830152608082018690529151630b19e25960e41b81527f00000000000000000000000000000000000000000000000000000000000000009092169163b19e25909161211e916004016145b2565b6000604051808303816000875af115801561213d573d6000803e3d6000fd5b505050506040513d6000823e601f3d908101601f1916820160405261216591908101906142cb565b92508a156122045760405163a9059cbb60e01b81526001600160a01b037f0000000000000000000000000000000000000000000000000000000000000000169063a9059cbb906121bb9033908590600401614599565b6020604051808303816000875af11580156121da573d6000803e3d6000fd5b505050506040513d601f19601f820116820180604052508101906121fe919061455a565b50612297565b60405163a9059cbb60e01b81526001600160a01b037f0000000000000000000000000000000000000000000000000000000000000000169063a9059cbb906122529033908590600401614599565b6020604051808303816000875af1158015612271573d6000803e3d6000fd5b505050506040513d601f19601f82011682018060405250810190612295919061455a565b505b6000546101e08501516040808701519051634cb896f160e11b81526001600160a01b03909316926399712de2926122d69233928992919060040161486d565b600060405180830381600087803b1580156122f057600080fd5b505af1158015612304573d6000803e3d6000fd5b50505060408501516101e090950151939c949b5092995092975050505050505050565b6000546001600160a01b031633146123695760405162461bcd60e51b8152602060048201526005602482015264042c2eae8d60db1b604482015260640161050a565b6001600160a01b03831615612467578315612417576040516323b872dd60e01b81526001600160a01b037f000000000000000000000000000000000000000000000000000000000000000016906323b872dd906123ce90869086908690600401614536565b6020604051808303816000875af11580156123ed573d6000803e3d6000fd5b505050506040513d601f19601f82011682018060405250810190612411919061455a565b5061254e565b6040516323b872dd60e01b81526001600160a01b037f000000000000000000000000000000000000000000000000000000000000000016906323b872dd906123ce90869086908690600401614536565b83156124bb5760405163a9059cbb60e01b81526001600160a01b037f0000000000000000000000000000000000000000000000000000000000000000169063a9059cbb906123ce9085908590600401614599565b60405163a9059cbb60e01b81526001600160a01b037f0000000000000000000000000000000000000000000000000000000000000000169063a9059cbb906125099085908590600401614599565b6020604051808303816000875af1158015612528573d6000803e3d6000fd5b505050506040513d601f19601f8201168201806040525081019061254c919061455a565b505b50505050565b600080806000198587098587029250828110838203039150508060000361258d576000841161258257600080fd5b5082900490506103cc565b80841161259957600080fd5b6000848688096000868103871696879004966002600389028118808a02820302808a02820302808a02820302808a02820302808a02820302808a02909103029181900381900460010186841190950394909402919094039290920491909117919091029150509392505050565b60b581600160881b811061261f5760409190911b9060801c5b6901000000000000000000811061263b5760209190911b9060401c5b6501000000000081106126535760109190911b9060201c5b630100000081106126695760089190911b9060101c5b62010000010260121c80820401600190811c80830401811c80830401811c80830401811c80830401811c80830401811c80830401901c908190048111900390565b60008060008360020b126126c1578260020b6126c9565b8260020b6000035b9050620d89e88111156126ef576040516315e4079d60e11b815260040160405180910390fd5b60008160011660000361270657600160801b612718565b6ffffcb933bd6fad37aa2d162d1a5940015b70ffffffffffffffffffffffffffffffffff169050600282161561274c576ffff97272373d413259a46990580e213a0260801c5b600482161561276b576ffff2e50f5f656932ef12357cf3c7fdcc0260801c5b600882161561278a576fffe5caca7e10e4e61c3624eaa0941cd00260801c5b60108216156127a9576fffcb9843d60f6159c9db58835c9266440260801c5b60208216156127c8576fff973b41fa98c081472e6896dfb254c00260801c5b60408216156127e7576fff2ea16466c96a3843ec78b326b528610260801c5b6080821615612806576ffe5dee046a99a2a811c461f1969c30530260801c5b610100821615612826576ffcbe86c7900a88aedcffc83b479aa3a40260801c5b610200821615612846576ff987a7253ac413176f2b074cf7815e540260801c5b610400821615612866576ff3392b0822b70005940c7a398e4b70f30260801c5b610800821615612886576fe7159475a2c29b7443b29c7fa6e889d90260801c5b6110008216156128a6576fd097f3bdfd2022b8845ad8f792aa58250260801c5b6120008216156128c6576fa9f746462d870fdf8a65dc1f90e061e50260801c5b6140008216156128e6576f70d869a156d2a1b890bb3df62baf32f70260801c5b618000821615612906576f31be135f97d08fd981231505542fcfa60260801c5b62010000821615612927576f09aa508b5b7a84e1c677de54f3e99bc90260801c5b62020000821615612947576e5d6af8dedb81196699c329225ee6040260801c5b62040000821615612966576d2216e584f5fa1ea926041bedfe980260801c5b62080000821615612983576b048a170391f7dc42444e8fa20260801c5b60008460020b13156129a45780600019816129a0576129a06141d3565b0490505b6401000000008106156129b85760016129bb565b60005b60ff16602082901c0192505050919050565b8183610160015160a0015110156129f65760405162461bcd60e51b815260040161050a90614518565b825161016084015160a001518390031015612a3b5760405162461bcd60e51b815260206004820152600560248201526410b837b99960d91b604482015260640161050a565b6101608301805160a0018051849003905251606001518210612a5e576000612a6b565b8183610160015160600151035b610160840151606001528015612b0c5760405163a9059cbb60e01b81526001600160a01b037f0000000000000000000000000000000000000000000000000000000000000000169063a9059cbb90612ac99033908690600401614599565b6020604051808303816000875af1158015612ae8573d6000803e3d6000fd5b505050506040513d601f19601f8201168201806040525081019061254e919061455a565b60405163a9059cbb60e01b81526001600160a01b037f0000000000000000000000000000000000000000000000000000000000000000169063a9059cbb90612ac99033908690600401614599565b60008060008060005b8651811015612d1557868181518110612b7e57612b7e6144dd565b6020026020010151602001516001600160801b031660000315612d0357868181518110612bad57612bad6144dd565b6020026020010151600001519150612bfe86670de0b6b3a7640000898481518110612bda57612bda6144dd565b6020026020010151602001516001600160801b03166125549092919063ffffffff16565b925082878281518110612c1357612c136144dd565b6020908102919091018101516001600160801b039092169101528715612cd257612c74612c3f836126aa565b612c6c6107507f0000000000000000000000000000000000000000000000000000000000000000866144f3565b856001612d20565b612c7e908661464c565b9450612cc1612c8c836126aa565b612cb96107507f0000000000000000000000000000000000000000000000000000000000000000866144f3565b856001612dd7565b612ccb908561464c565b9350612d03565b612cde612c8c836126aa565b612ce8908661464c565b9450612cf6612c3f836126aa565b612d00908561464c565b93505b80612d0d8161474b565b915050612b63565b505050935093915050565b6000836001600160a01b0316856001600160a01b03161115612d40579293925b600160601b600160e01b03606084901b166001600160a01b038686038116908716612d6a57600080fd5b83612da057866001600160a01b0316612d8d8383896001600160a01b0316612554565b81612d9a57612d9a6141d3565b04612dcc565b612dcc612db78383896001600160a01b0316613900565b886001600160a01b0316808204910615150190565b979650505050505050565b6000836001600160a01b0316856001600160a01b03161115612df7579293925b81612e2457612e1f836001600160801b03168686036001600160a01b0316600160601b612554565b612e47565b612e47836001600160801b03168686036001600160a01b0316600160601b613900565b95945050505050565b6000826001600160a01b0316846001600160a01b03161115612e70579192915b612e99612e9483600160601b612e8688886148a4565b6001600160a01b0316612554565b613940565b949350505050565b6000826001600160a01b0316846001600160a01b03161115612ec1579192915b6000612ee4856001600160a01b0316856001600160a01b0316600160601b612554565b9050612e47612e948483612e8689896148a4565b6000826001600160a01b0316846001600160a01b03161115612f18579192915b6001600160a01b038416612f58600160601b600160e01b03606085901b16612f4087876148a4565b6001600160a01b0316866001600160a01b0316612554565b612e9991906141e9565b6000826001600160a01b0316846001600160a01b03161115612f82579192915b612e996001600160801b038316612f9986866148a4565b6001600160a01b0316600160601b612554565b612fb78184156116e9565b8214612feb5760405162461bcd60e51b8152602060048201526003602482015262696e6360e81b604482015260640161050a565b60008054604051631542428b60e31b815282916001600160a01b03169063aa1214589061301c9086906004016147b3565b600060405180830381865afa158015613039573d6000803e3d6000fd5b505050506040513d6000823e601f3d908101601f1916820160405261306191908101906148c4565b915091508161309b5760405162461bcd60e51b815260040161050a90602080825260049082015263216c697160e01b604082015260600190565b60005b81518110156130f4578181815181106130b9576130b96144dd565b60200260200101518482815181106130d3576130d36144dd565b602090810291909101015160400152806130ec8161474b565b91505061309e565b50604051637c61444d60e01b81526001600160a01b037f00000000000000000000000000000000000000000000000000000000000000001690637c61444d9061314890869089906001908a906004016146c2565b600060405180830381600087803b15801561316257600080fd5b505af1158015613176573d6000803e3d6000fd5b505050505050505050565b81518151606091906000613195828461464c565b90506000816001600160401b038111156131b1576131b1613e38565b6040519080825280602002602001820160405280156131fc57816020015b60408051606081018252600080825260208083018290529282015282526000199092019101816131cf5790505b50905060008060005b868310801561321357508582105b156133eb57600061325e8b858151811061322f5761322f6144dd565b6020026020010151600001518b858151811061324d5761324d6144dd565b60200260200101516000015161395b565b12156132ae57898381518110613276576132766144dd565b6020026020010151848281518110613290576132906144dd565b602002602001018190525082806132a69061474b565b9350506133d9565b60006132c58b858151811061322f5761322f6144dd565b1315613315578882815181106132dd576132dd6144dd565b60200260200101518482815181106132f7576132f76144dd565b6020026020010181905250818061330d9061474b565b9250506133d9565b60405180606001604052808b8581518110613332576133326144dd565b60200260200101516000015160020b81526020018a8481518110613358576133586144dd565b6020026020010151602001518c8681518110613376576133766144dd565b60200260200101516020015161338c919061496b565b6001600160801b0316815260200160008152508482815181106133b1576133b16144dd565b602002602001018190525082806133c79061474b565b93505081806133d59061474b565b9250505b806133e38161474b565b915050613205565b8683101561344b57898381518110613405576134056144dd565b602002602001015184828151811061341f5761341f6144dd565b602002602001018190525082806134359061474b565b93505080806134439061474b565b9150506133eb565b858210156134ab57888281518110613465576134656144dd565b602002602001015184828151811061347f5761347f6144dd565b602002602001018190525081806134959061474b565b92505080806134a39061474b565b91505061344b565b60008093505b858410156136315760006134c685600161464c565b93505b868410156135d3578584815181106134e3576134e36144dd565b60200260200101516000015160020b868681518110613504576135046144dd565b60200260200101516000015160020b036135c1576001905085848151811061352e5761352e6144dd565b60200260200101516020015186868151811061354c5761354c6144dd565b6020026020010151602001818151613564919061496b565b6001600160801b03169052508551869086908110613584576135846144dd565b6020026020010151602001518685815181106135a2576135a26144dd565b6020908102919091018101516001600160801b039092169101526135d3565b836135cb8161474b565b9450506134c9565b8061361e578585815181106135ea576135ea6144dd565b6020026020010151868381518110613604576136046144dd565b6020026020010181905250818061361a9061474b565b9250505b50836136298161474b565b9450506134b1565b80855261364a8560006136456001856144ca565b6139a4565b6000816001600160401b0381111561366457613664613e38565b6040519080825280602002602001820160405280156136af57816020015b60408051606081018252600080825260208083018290529282015282526000199092019101816136825790505b5090506000935060005b8651811015613774578681815181106136d4576136d46144dd565b60200260200101516000015160020b600014801561371857508681815181106136ff576136ff6144dd565b6020026020010151602001516001600160801b03166000145b6137625786818151811061372e5761372e6144dd565b6020026020010151828681518110613748576137486144dd565b6020026020010181905250848061375e9061474b565b9550505b8061376c8161474b565b9150506136b9565b50856001875161378491906144ca565b81518110613794576137946144dd565b60200260200101516000015160020b60001480156137e5575085600187516137bc91906144ca565b815181106137cc576137cc6144dd565b6020026020010151602001516001600160801b03166000145b156137fb57816137f48161498b565b9250508181525b61380c8160006136456001866144ca565b9b9a5050505050505050505050565b80516060906000816001600160401b0381111561383a5761383a613e38565b60405190808252806020026020018201604052801561388557816020015b60408051606081018252600080825260208083018290529282015282526000199092019101816138585790505b5090506000825b600181106138f657856138a06001836144ca565b815181106138b0576138b06144dd565b60200260200101518383815181106138ca576138ca6144dd565b602002602001018190525081806138e09061474b565b92505080806138ee9061498b565b91505061388c565b5090949350505050565b600061390d848484612554565b90506000828061391f5761391f6141d3565b84860911156103cc57600019811061393657600080fd5b6001019392505050565b806001600160801b038116811461395657600080fd5b919050565b6000808360020b128015613972575060008260020b125b15613990578260020b8260020b61398991906149a2565b90506116e3565b61399a8284614764565b60020b9392505050565b8082106139b057505050565b60016139bc83836144ca565b116139c657505050565b818160008560026139d7848661464c565b6139e191906141e9565b815181106139f1576139f16144dd565b602002602001015190505b818311613b1d575b806000015160020b868481518110613a1e57613a1e6144dd565b60200260200101516000015160020b1215613a455782613a3d8161474b565b935050613a04565b806000015160020b868381518110613a5f57613a5f6144dd565b60200260200101516000015160020b1315613a865781613a7e8161498b565b925050613a45565b818311613b1857858281518110613a9f57613a9f6144dd565b6020026020010151868481518110613ab957613ab96144dd565b6020026020010151878581518110613ad357613ad36144dd565b60200260200101888581518110613aec57613aec6144dd565b6020026020010182905282905250508280613b069061474b565b9350508180613b149061498b565b9250505b6139fc565b81851015613b3057613b308686846139a4565b83831015613b4357613b438684866139a4565b505050505050565b6040518061024001604052806000815260200160008152602001600081526020016000815260200160006001600160a01b03168152602001600060020b815260200160006001600160a01b0316815260200160008152602001600081526020016000815260200160008152602001613bc1613bf3565b81526000602082018190526040820181905260608083018290526080830182905260a083019190915260c09091015290565b604080516101a08101825260008082526020820181905291810182905260608082018390526080820183905260a0820183905260c0820183905260e0820183905261010082018390526101208201839052610140820183905261016082019290925261018081019190915290565b6001600160a01b0381168114613c7657600080fd5b50565b8015158114613c7657600080fd5b600080600060608486031215613c9c57600080fd5b8335613ca781613c61565b9250602084013591506040840135613cbe81613c79565b809150509250925092565b60008060008060808587031215613cdf57600080fd5b8435613cea81613c79565b93506020850135613cfa81613c79565b92506040850135613d0a81613c79565b9396929550929360600135925050565b600080600060608486031215613d2f57600080fd5b8335613d3a81613c79565b95602085013595506040909401359392505050565b600081518084526020808501945080840160005b83811015613da3578151805160020b88526020808201516001600160801b0316908901526040908101519088015260608701965090820190600101613d63565b509495945050505050565b8360020b81528260020b6020820152606060408201526000612e476060830184613d4f565b600060208284031215613de557600080fd5b81356103cc81613c61565b8060020b8114613c7657600080fd5b60008060408385031215613e1257600080fd5b8235613e1d81613df0565b91506020830135613e2d81613c79565b809150509250929050565b634e487b7160e01b600052604160045260246000fd5b604051606081016001600160401b0381118282101715613e7057613e70613e38565b60405290565b6040516101a081016001600160401b0381118282101715613e7057613e70613e38565b604051601f8201601f191681016001600160401b0381118282101715613ec157613ec1613e38565b604052919050565b60006001600160401b03821115613ee257613ee2613e38565b5060051b60200190565b6001600160801b0381168114613c7657600080fd5b600082601f830112613f1257600080fd5b81356020613f27613f2283613ec9565b613e99565b82815260609283028501820192828201919087851115613f4657600080fd5b8387015b85811015613f9f5781818a031215613f625760008081fd5b613f6a613e4e565b8135613f7581613df0565b815281860135613f8481613eec565b81870152604082810135908201528452928401928101613f4a565b5090979650505050505050565b60008060408385031215613fbf57600080fd5b82356001600160401b03811115613fd557600080fd5b613fe185828601613f01565b9250506020830135613e2d81613c79565b6000806000806080858703121561400857600080fd5b843561401381613c79565b9350602085013592506040850135915060608501356001600160401b0381111561403c57600080fd5b61404887828801613f01565b91505092959194509250565b80511515825260006101a0602083015161407960208601826001600160a01b03169052565b5060408301516040850152606083015160608501526080830151608085015260a083015160a085015260c08301516140bc60c08601826001600160801b03169052565b5060e08301516140d760e08601826001600160801b03169052565b50610100838101516001600160801b031690850152610120808401511515908501526101408084015163ffffffff9081169186019190915261016080850151909116908501526101808084015181860183905261413683870182613d4f565b9695505050505050565b6060815260006141536060830186614054565b60208301949094525060400152919050565b6000806000806080858703121561417b57600080fd5b843561418681613c79565b9350602085013561419681613c61565b92506040850135613d0a81613c61565b634e487b7160e01b600052601160045260246000fd5b80820281158282048414176116e3576116e36141a6565b634e487b7160e01b600052601260045260246000fd5b6000826141f8576141f86141d3565b500490565b805161395681613c79565b805161395681613c61565b805161395681613eec565b805163ffffffff8116811461395657600080fd5b600082601f83011261424357600080fd5b81516020614253613f2283613ec9565b8281526060928302850182019282820191908785111561427257600080fd5b8387015b85811015613f9f5781818a03121561428e5760008081fd5b614296613e4e565b81516142a181613df0565b8152818601516142b081613eec565b81870152604082810151908201528452928401928101614276565b6000602082840312156142dd57600080fd5b81516001600160401b03808211156142f457600080fd5b908301906101a0828603121561430957600080fd5b614311613e76565b61431a836141fd565b815261432860208401614208565b602082015260408301516040820152606083015160608201526080830151608082015260a083015160a082015261436160c08401614213565b60c082015261437260e08401614213565b60e0820152610100614385818501614213565b908201526101206143978482016141fd565b908201526101406143a984820161421e565b908201526101606143bb84820161421e565b9082015261018083810151838111156143d357600080fd5b6143df88828701614232565b918301919091525095945050505050565b805161ffff8116811461395657600080fd5b600080600080600080600060e0888a03121561441d57600080fd5b875161442881613c61565b602089015190975061443981613df0565b9550614447604089016143f0565b9450614455606089016143f0565b9350614463608089016143f0565b925060a088015160ff8116811461447957600080fd5b60c089015190925061448a81613c79565b8091505092959891949750929550565b6020815260006103cc6020830184614054565b6000602082840312156144bf57600080fd5b81516103cc81613eec565b818103818111156116e3576116e36141a6565b634e487b7160e01b600052603260045260246000fd5b600281810b9083900b01627fffff8113627fffff19821217156116e3576116e36141a6565b60208082526004908201526321706f7360e01b604082015260600190565b6001600160a01b039384168152919092166020820152604081019190915260600190565b60006020828403121561456c57600080fd5b81516103cc81613c79565b60408152600061458a6040830185613d4f565b90508260208301529392505050565b6001600160a01b03929092168252602082015260400190565b60208152600060018060a01b0380845116602084015260208401511515604084015260408401511515606084015280606085015116608084015250608083015160a0808401526116df60c0840182614054565b6060815260006146186060830186614054565b6001600160a01b039490941660208301525060400152919050565b60006020828403121561464557600080fd5b5051919050565b808201808211156116e3576116e36141a6565b60008060006060848603121561467457600080fd5b835161467f81613df0565b602085015190935061469081613df0565b60408501519092506001600160401b038111156146ac57600080fd5b6146b886828701614232565b9150509250925092565b6080815260006146d56080830187613d4f565b9415156020830152509115156040830152606090910152919050565b60008160020b8360020b80614708576147086141d3565b627fffff19821460001982141615614722576147226141a6565b90059392505050565b60008260020b8260020b028060020b9150808214611841576118416141a6565b60006001820161475d5761475d6141a6565b5060010190565b600282810b9082900b03627fffff198112627fffff821317156116e3576116e36141a6565b60408152600061479c6040830185614054565b905060018060a01b03831660208301529392505050565b6020815260006103cc6020830184613d4f565b6000602082840312156147d857600080fd5b81516001600160401b038111156147ee57600080fd5b6116df84828501614232565b60608152600061480d6060830186613d4f565b60029490940b602083015250901515604090910152919050565b6000806040838503121561483a57600080fd5b8251915060208301516001600160401b0381111561485757600080fd5b61486385828601614232565b9150509250929050565b6001600160a01b038516815260806020820181905260009061489190830186614054565b6040830194909452506060015292915050565b6001600160a01b03828116828216039080821115611841576118416141a6565b600080604083850312156148d757600080fd5b82516148e281613c79565b809250506020808401516001600160401b0381111561490057600080fd5b8401601f8101861361491157600080fd5b805161491f613f2282613ec9565b81815260059190911b8201830190838101908883111561493e57600080fd5b928401925b8284101561495c57835182529284019290840190614943565b80955050505050509250929050565b6001600160801b03818116838216019080821115611841576118416141a6565b60008161499a5761499a6141a6565b506000190190565b8181036000831280158383131683831282161715611841576118416141a656fea2646970667358221220a5c0508b2d5b749dc156c8102a055f89abbf902b41f6c91e27be9add7a095a7864736f6c63430008110033",
    "linkReferences": {}
  },
  "methodIdentifiers": {
    "addBorrowPosition(bool,uint256,uint256,(int24,uint128,uint256)[])": "997124c6",
    "applySlippageX96(uint160,uint256,bool)": "207b0576",
    "borrow(bool,uint256,uint256)": "25350f8e",
    "getFilledAmount((int24,uint128,uint256)[],bool)": "786afbcc",
    "globalStorage()": "6502072a",
    "liquidityManager()": "33827438",
    "pool()": "16f0115b",
    "precision()": "d3b5dc3b",
    "reduceBorrowPosition(bool,bool,bool,uint256)": "223aa77d",
    "roundTick(int24,bool)": "3dc306ee",
    "setLiquidityManager(address)": "3c1624d4",
    "tickSpacing()": "d0c93a7c",
    "token0()": "0dfe1681",
    "token1()": "d21220a7",
    "transferToken(bool,address,address,uint256)": "a352dcbf"
  },
  "id": 35
}