{
  "abi": [
    {
      "inputs": [],
      "stateMutability": "nonpayable",
      "type": "constructor"
    },
    {
      "inputs": [],
      "name": "T",
      "type": "error"
    },
    {
      "inputs": [],
      "name": "INTEREST_REPLENISH_TIME",
      "outputs": [
        {
          "internalType": "uint256",
          "name": "",
          "type": "uint256"
        }
      ],
      "stateMutability": "view",
      "type": "function"
    },
    {
      "inputs": [
        {
          "internalType": "bool",
          "name": "borrowBelow",
          "type": "bool"
        },
        {
          "internalType": "uint256",
          "name": "collateralAmount",
          "type": "uint256"
        },
        {
          "internalType": "uint256",
          "name": "ltv",
          "type": "uint256"
        },
        {
          "components": [
            {
              "internalType": "int24",
              "name": "tick",
              "type": "int24"
            },
            {
              "internalType": "uint128",
              "name": "liquidity",
              "type": "uint128"
            },
            {
              "internalType": "uint256",
              "name": "premiumOrUrate",
              "type": "uint256"
            }
          ],
          "internalType": "struct LiquidityManager.Liquidity[]",
          "name": "borrowInfo",
          "type": "tuple[]"
        }
      ],
      "name": "addBorrowPosition",
      "outputs": [
        {
          "components": [
            {
              "internalType": "bool",
              "name": "isBorrow",
              "type": "bool"
            },
            {
              "internalType": "address",
              "name": "pool",
              "type": "address"
            },
            {
              "internalType": "uint256",
              "name": "totalPosition",
              "type": "uint256"
            },
            {
              "internalType": "uint256",
              "name": "totalDebt",
              "type": "uint256"
            },
            {
              "internalType": "uint256",
              "name": "totalDebtInput",
              "type": "uint256"
            },
            {
              "internalType": "uint256",
              "name": "initCollateral",
              "type": "uint256"
            },
            {
              "internalType": "uint128",
              "name": "recentPremium",
              "type": "uint128"
            },
            {
              "internalType": "uint128",
              "name": "totalPremium",
              "type": "uint128"
            },
            {
              "internalType": "uint128",
              "name": "unusedPremium",
              "type": "uint128"
            },
            {
              "internalType": "bool",
              "name": "isToken0",
              "type": "bool"
            },
            {
              "internalType": "uint32",
              "name": "openTime",
              "type": "uint32"
            },
            {
              "internalType": "uint32",
              "name": "repayTime",
              "type": "uint32"
            },
            {
              "components": [
                {
                  "internalType": "int24",
                  "name": "tick",
                  "type": "int24"
                },
                {
                  "internalType": "uint128",
                  "name": "liquidity",
                  "type": "uint128"
                },
                {
                  "internalType": "uint256",
                  "name": "premiumOrUrate",
                  "type": "uint256"
                }
              ],
              "internalType": "struct LiquidityManager.Liquidity[]",
              "name": "borrowInfo",
              "type": "tuple[]"
            }
          ],
          "internalType": "struct GlobalStorage.Position",
          "name": "",
          "type": "tuple"
        },
        {
          "internalType": "uint256",
          "name": "",
          "type": "uint256"
        },
        {
          "internalType": "uint256",
          "name": "",
          "type": "uint256"
        }
      ],
      "stateMutability": "nonpayable",
      "type": "function"
    },
    {
      "inputs": [
        {
          "internalType": "uint160",
          "name": "price",
          "type": "uint160"
        },
        {
          "internalType": "uint256",
          "name": "maxSlippage",
          "type": "uint256"
        },
        {
          "internalType": "bool",
          "name": "down",
          "type": "bool"
        }
      ],
      "name": "applySlippageX96",
      "outputs": [
        {
          "internalType": "uint160",
          "name": "",
          "type": "uint160"
        }
      ],
      "stateMutability": "pure",
      "type": "function"
    },
    {
      "inputs": [
        {
          "components": [
            {
              "internalType": "int24",
              "name": "tick",
              "type": "int24"
            },
            {
              "internalType": "uint128",
              "name": "liquidity",
              "type": "uint128"
            },
            {
              "internalType": "uint256",
              "name": "premiumOrUrate",
              "type": "uint256"
            }
          ],
          "internalType": "struct LiquidityManager.Liquidity[]",
          "name": "borrowInfo",
          "type": "tuple[]"
        },
        {
          "internalType": "bool",
          "name": "borrowBelow",
          "type": "bool"
        }
      ],
      "name": "getFilledAmount",
      "outputs": [
        {
          "internalType": "uint256",
          "name": "filledAmount",
          "type": "uint256"
        }
      ],
      "stateMutability": "view",
      "type": "function"
    },
    {
      "inputs": [],
      "name": "globalStorage",
      "outputs": [
        {
          "internalType": "contract GlobalStorage",
          "name": "",
          "type": "address"
        }
      ],
      "stateMutability": "view",
      "type": "function"
    },
    {
      "inputs": [],
      "name": "liquidityManager",
      "outputs": [
        {
          "internalType": "contract LiquidityManager",
          "name": "",
          "type": "address"
        }
      ],
      "stateMutability": "view",
      "type": "function"
    },
    {
      "inputs": [
        {
          "internalType": "address",
          "name": "trader",
          "type": "address"
        },
        {
          "internalType": "bool",
          "name": "isToken0",
          "type": "bool"
        }
      ],
      "name": "payPremium",
      "outputs": [
        {
          "internalType": "uint256",
          "name": "",
          "type": "uint256"
        }
      ],
      "stateMutability": "nonpayable",
      "type": "function"
    },
    {
      "inputs": [],
      "name": "pool",
      "outputs": [
        {
          "internalType": "contract UniswapV3Pool",
          "name": "",
          "type": "address"
        }
      ],
      "stateMutability": "view",
      "type": "function"
    },
    {
      "inputs": [],
      "name": "precision",
      "outputs": [
        {
          "internalType": "uint256",
          "name": "",
          "type": "uint256"
        }
      ],
      "stateMutability": "view",
      "type": "function"
    },
    {
      "inputs": [
        {
          "internalType": "bool",
          "name": "borrowBelow",
          "type": "bool"
        },
        {
          "internalType": "bool",
          "name": "reduceCollateral",
          "type": "bool"
        },
        {
          "internalType": "bool",
          "name": "getCollateralBack",
          "type": "bool"
        },
        {
          "internalType": "uint256",
          "name": "reduceAmount",
          "type": "uint256"
        }
      ],
      "name": "reduceBorrowPosition",
      "outputs": [
        {
          "components": [
            {
              "internalType": "int256",
              "name": "amount0",
              "type": "int256"
            },
            {
              "internalType": "int256",
              "name": "amount1",
              "type": "int256"
            },
            {
              "internalType": "int256",
              "name": "PnL",
              "type": "int256"
            },
            {
              "internalType": "uint256",
              "name": "returnedAmount",
              "type": "uint256"
            },
            {
              "internalType": "uint256",
              "name": "unusedPremium",
              "type": "uint256"
            },
            {
              "internalType": "uint256",
              "name": "premium",
              "type": "uint256"
            }
          ],
          "internalType": "struct ReduceReturn",
          "name": "",
          "type": "tuple"
        }
      ],
      "stateMutability": "nonpayable",
      "type": "function"
    },
    {
      "inputs": [
        {
          "internalType": "int24",
          "name": "tick",
          "type": "int24"
        },
        {
          "internalType": "bool",
          "name": "down",
          "type": "bool"
        }
      ],
      "name": "roundTick",
      "outputs": [
        {
          "internalType": "int24",
          "name": "",
          "type": "int24"
        }
      ],
      "stateMutability": "view",
      "type": "function"
    },
    {
      "inputs": [
        {
          "internalType": "address",
          "name": "ad",
          "type": "address"
        }
      ],
      "name": "setLiquidityManager",
      "outputs": [],
      "stateMutability": "nonpayable",
      "type": "function"
    },
    {
      "inputs": [],
      "name": "tickSpacing",
      "outputs": [
        {
          "internalType": "int24",
          "name": "",
          "type": "int24"
        }
      ],
      "stateMutability": "view",
      "type": "function"
    },
    {
      "inputs": [],
      "name": "token0",
      "outputs": [
        {
          "internalType": "contract ERC20",
          "name": "",
          "type": "address"
        }
      ],
      "stateMutability": "view",
      "type": "function"
    },
    {
      "inputs": [],
      "name": "token1",
      "outputs": [
        {
          "internalType": "contract ERC20",
          "name": "",
          "type": "address"
        }
      ],
      "stateMutability": "view",
      "type": "function"
    }
  ],
  "bytecode": {
    "object": "0x60e06040523480156200001157600080fd5b50600080336001600160a01b031663890357306040518163ffffffff1660e01b81526004016040805180830381865afa15801562000053573d6000803e3d6000fd5b505050506040513d601f19601f8201168201806040525081019062000079919062000231565b600080546001600160a01b038085166001600160a01b03199283168117909355600180549185169190921617905560408051630dfe168160e01b8152905193955091935091630dfe1681916004808201926020929091908290030181865afa158015620000ea573d6000803e3d6000fd5b505050506040513d601f19601f8201168201806040525081019062000110919062000269565b60008054906101000a90046001600160a01b03166001600160a01b031663d21220a76040518163ffffffff1660e01b8152600401602060405180830381865afa15801562000162573d6000803e3d6000fd5b505050506040513d601f19601f8201168201806040525081019062000188919062000269565b6001600160a01b0390811660c05290811660a052600054604080516334324e9f60e21b81529051919092169163d0c93a7c9160048083019260209291908290030181865afa158015620001df573d6000803e3d6000fd5b505050506040513d601f19601f820116820180604052508101906200020591906200028e565b60020b60805250620002b39050565b80516001600160a01b03811681146200022c57600080fd5b919050565b600080604083850312156200024557600080fd5b620002508362000214565b9150620002606020840162000214565b90509250929050565b6000602082840312156200027c57600080fd5b620002878262000214565b9392505050565b600060208284031215620002a157600080fd5b81518060020b81146200028757600080fd5b60805160a05160c0516145916200039f600039600081816102cd0152818161085c01528181610c180152818161175701528181611d45015281816124490152818161267a0152818161273201528181612a530152612aed01526000818160ff015281816108f901528181610b7a015281816116be01528181611ddc015281816123b2015281816127b20152818161286a01528181612b850152612c1f0152600081816102a601528181610678015281816106fd015281816111270152818161115501528181611193015281816113c3015281816114470152818161257201526125bf01526145916000f3fe608060405234801561001057600080fd5b50600436106100f55760003560e01c80633e45c92f116100975780639aa886da116100665780639aa886da14610297578063d0c93a7c146102a1578063d21220a7146102c8578063d3b5dc3b146102ef57600080fd5b80633e45c92f1461022e5780636502072a1461024f578063786afbcc14610262578063997124c61461027557600080fd5b8063223aa77d116100d3578063223aa77d1461016457806333827438146101c35780633c1624d4146101d65780633dc306ee1461020857600080fd5b80630dfe1681146100fa57806316f0115b1461013e578063207b057614610151575b600080fd5b6101217f000000000000000000000000000000000000000000000000000000000000000081565b6040516001600160a01b0390911681526020015b60405180910390f35b600054610121906001600160a01b031681565b61012161015f366004613927565b6102fe565b610177610172366004613969565b610387565b6040516101359190600060c082019050825182526020830151602083015260408301516040830152606083015160608301526080830151608083015260a083015160a083015292915050565b600254610121906001600160a01b031681565b6102066101e43660046139ba565b600280546001600160a01b0319166001600160a01b0392909216919091179055565b005b61021b6102163660046139e6565b61111f565b60405160029190910b8152602001610135565b61024161023c366004613a1f565b6111c2565b604051908152602001610135565b600154610121906001600160a01b031681565b610241610270366004613bb5565b611364565b610288610283366004613bfc565b6114c3565b60405161013593929190613da0565b6102416201518081565b61021b7f000000000000000000000000000000000000000000000000000000000000000081565b6101217f000000000000000000000000000000000000000000000000000000000000000081565b610241670de0b6b3a764000081565b6000816103405761031f61031a84670de0b6b3a7640000613ddb565b611e74565b610331670de0b6b3a764000086613e08565b61033b9190613e2e565b61037d565b670de0b6b3a7640000610369610357828087611f18565b61031a90670de0b6b3a7640000613ddb565b6103739086613e2e565b61037d9190613e08565b90505b9392505050565b6103c06040518060c001604052806000815260200160008152602001600081526020016000815260200160008152602001600081525090565b6103c86137c7565b60015460405163750ff6b560e01b815230600482015233602482015287151560448201526001600160a01b039091169063750ff6b590606401600060405180830381865afa15801561041e573d6000803e3d6000fd5b505050506040513d6000823e601f3d908101601f191682016040526104469190810190613f33565b61016082015284156104b0576000816101600151606001511180156104745750806101600151606001518311155b6104ab5760405162461bcd60e51b8152602060048201526003602482015262706f7360e81b60448201526064015b60405180910390fd5b610504565b6000816101600151608001511180156104d25750806101600151608001518311155b6105045760405162461bcd60e51b8152602060048201526003602482015262706f7360e81b60448201526064016104a2565b60008054906101000a90046001600160a01b03166001600160a01b0316633850c7bd6040518163ffffffff1660e01b815260040160e060405180830381865afa158015610555573d6000803e3d6000fd5b505050506040513d601f19601f82011682018060405250810190610579919061406b565b50505050600291820b60a0850152506001600160a01b03918216608084015261016083015161018081015151606085015290546040516313804b0d60e11b8152921691632700961a916105ce91600401614103565b602060405180830381865afa1580156105eb573d6000803e3d6000fd5b505050506040513d601f19601f8201168201806040525081019061060f9190614116565b610160820180516001600160801b03909216610100909201919091525161012001516106de90610676578161016001516101800151600183606001516106559190614133565b8151811061066557610665614146565b602002602001015160000151611fca565b7f00000000000000000000000000000000000000000000000000000000000000008261016001516101800151600184606001516106b39190614133565b815181106106c3576106c3614146565b6020026020010151600001516106d9919061415c565b611fca565b6001600160a01b031660c08201526101608101516101200151610754577f0000000000000000000000000000000000000000000000000000000000000000816101600151610180015160008151811061073957610739614146565b60200260200101516000015161074f919061415c565b61077e565b806101600151610180015160008151811061077157610771614146565b6020026020010151600001515b60020b6101a082015261016081015161012001516107b9578060c001516001600160a01b031681608001516001600160a01b031611156107d8565b8060c001516001600160a01b031681608001516001600160a01b031610155b15610ab65784156108135761080181610160015161018001518261016001516101200151611364565b815261080e8184886122ed565b610dc7565b8281610160015160800151101561083c5760405162461bcd60e51b81526004016104a290614181565b85156108df576000546040516323b872dd60e01b81526001600160a01b037f00000000000000000000000000000000000000000000000000000000000000008116926323b872dd926108969233921690889060040161419f565b6020604051808303816000875af11580156108b5573d6000803e3d6000fd5b505050506040513d601f19601f820116820180604052508101906108d991906141c3565b50610978565b6000546040516323b872dd60e01b81526001600160a01b037f00000000000000000000000000000000000000000000000000000000000000008116926323b872dd926109339233921690889060040161419f565b6020604051808303816000875af1158015610952573d6000803e3d6000fd5b505050506040513d601f19601f8201168201806040525081019061097691906141c3565b505b6000546101608201516101808101516080909101516001600160a01b039092169163e9f4fcf391906109b5908790670de0b6b3a764000090611f18565b6040518363ffffffff1660e01b81526004016109d29291906141e0565b600060405180830381600087803b1580156109ec57600080fd5b505af1158015610a00573d6000803e3d6000fd5b50505061016082015160800151610a2391508490670de0b6b3a764000090611f18565b6020820181905261016082015161012081015161018090910151610a5892610a5390670de0b6b3a7640000614133565b612485565b50508315610aa157610a7e81610160015161018001518261016001516101200151611364565b80825261016082015160a00151610aa1918391610a9b9190614133565b886122ed565b61016081015160800180518490039052610dc7565b8061016001516101200151610af057610ad3816101a00151611fca565b6001600160a01b031681608001516001600160a01b031611610b17565b610afe816101a00151611fca565b6001600160a01b031681608001516001600160a01b0316105b15610d96578281610160015160a0015110158015610b3e5750828161016001516060015110155b610b5a5760405162461bcd60e51b81526004016104a290614181565b8515610bfe5760005460405163a9059cbb60e01b81526001600160a01b037f000000000000000000000000000000000000000000000000000000000000000081169263a9059cbb92610bb59291909116908790600401614202565b6020604051808303816000875af1158015610bd4573d6000803e3d6000fd5b505050506040513d601f19601f82011682018060405250810190610bf891906141c3565b50610c98565b60005460405163a9059cbb60e01b81526001600160a01b037f000000000000000000000000000000000000000000000000000000000000000081169263a9059cbb92610c539291909116908790600401614202565b6020604051808303816000875af1158015610c72573d6000803e3d6000fd5b505050506040513d601f19601f82011682018060405250810190610c9691906141c3565b505b6000546101608201516101808101516060909101516001600160a01b039092169163e9f4fcf39190610cd5908790670de0b6b3a764000090611f18565b6040518363ffffffff1660e01b8152600401610cf29291906141e0565b600060405180830381600087803b158015610d0c57600080fd5b505af1158015610d20573d6000803e3d6000fd5b50505061016082015160600151610d4391508490670de0b6b3a764000090611f18565b6020820181905261016082015161012081015161018090910151610d7392610a5390670de0b6b3a7640000614133565b50506101608101805160a001805185900390525160600180518490039052610dc7565b60405162461bcd60e51b81526020600482015260066024820152652172616e676560d01b60448201526064016104a2565b610dd581610160015161264b565b6002546101608201516040516313804b0d60e11b81526001600160a01b0390921691632700961a91610e0991600401614103565b602060405180830381865afa158015610e26573d6000803e3d6000fd5b505050506040513d601f19601f82011682018060405250810190610e4a9190614116565b6001600160801b0316604082015261016081015160600151156110495761016081018051600060e0909101819052815161010001819052815160c001819052600180546040805160a08101825233815285516101200151151560208201528082019390935292546001600160a01b039081166060840152935160808301529151630850d0e960e01b81529290911691630850d0e991610eeb9160040161421b565b600060405180830381600087803b158015610f0557600080fd5b505af1158015610f19573d6000803e3d6000fd5b50506002546101608401516101800151604051635b664e4f60e11b81526001600160a01b03909216935063b6cc9c9e9250610f569160040161426e565b600060405180830381865afa158015610f73573d6000803e3d6000fd5b505050506040513d6000823e601f3d908101601f19168201604052610f9b9190810190614281565b610160820180516101809081019290925260025490519091015160a08301516040516308e05f8b60e11b81526001600160a01b03909316926311c0bf1692610fe79290916004016142b6565b602060405180830381865afa158015611004573d6000803e3d6000fd5b505050506040513d601f19601f8201168201806040525081019061102891906142db565b61020082018190526101608201516110449133919060006128a5565b6110dc565b60018054604080516080810182526000546001600160a01b039081168252336020830152610160860151610120015115158284015260608201949094529051633a5177df60e01b81529290911691633a5177df916110a9916004016142f4565b600060405180830381600087803b1580156110c357600080fd5b505af11580156110d7573d6000803e3d6000fd5b505050505b6040805160c0810182526000808252602082018190528183015261014083015160608201529082015160808201526102009091015160a082015295945050505050565b60008061114c7f000000000000000000000000000000000000000000000000000000000000000085614331565b90508261118e577f000000000000000000000000000000000000000000000000000000000000000061117f82600161415c565b611189919061436b565b6111b8565b6111b87f00000000000000000000000000000000000000000000000000000000000000008261436b565b9150505b92915050565b60015460405163750ff6b560e01b81523060048201526001600160a01b0384811660248301528315156044830152600092839291169063750ff6b590606401600060405180830381865afa15801561121e573d6000803e3d6000fd5b505050506040513d6000823e601f3d908101601f191682016040526112469190810190613f33565b905060008060008054906101000a90046001600160a01b03166001600160a01b0316633850c7bd6040518163ffffffff1660e01b815260040160e060405180830381865afa15801561129c573d6000803e3d6000fd5b505050506040513d601f19601f820116820180604052508101906112c0919061406b565b5050505050915091506112d28361264b565b6002546101808401516040516308e05f8b60e11b81526000926001600160a01b0316916311c0bf169161130a919086906004016142b6565b602060405180830381865afa158015611327573d6000803e3d6000fd5b505050506040513d601f19601f8201168201806040525081019061134b91906142db565b905061135a87858360006128a5565b9695505050505050565b6000805b83518110156114bc5783818151811061138357611383614146565b6020026020010151602001516001600160801b0316600003156114aa57821561142a576114196113be85838151811061066557610665614146565b6113f47f00000000000000000000000000000000000000000000000000000000000000008785815181106106c3576106c3614146565b86848151811061140657611406614146565b6020026020010151602001516001612ca2565b611423908361438b565b91506114aa565b61149d61144285838151811061066557610665614146565b6114787f00000000000000000000000000000000000000000000000000000000000000008785815181106106c3576106c3614146565b86848151811061148a5761148a614146565b6020026020010151602001516001612d62565b6114a7908361438b565b91505b806114b48161439e565b915050611368565b5092915050565b6114cb613893565b600080670de0b6b3a7640000851061150e5760405162461bcd60e51b81526004016104a29060208082526004908201526310b63a3b60e11b604082015260600190565b6115166137c7565b60015460405163750ff6b560e01b815230600482015233602482015289151560448201526000916001600160a01b03169063750ff6b590606401600060405180830381865afa15801561156d573d6000803e3d6000fd5b505050506040513d6000823e601f3d908101601f191682016040526115959190810190613f33565b905060008054906101000a90046001600160a01b03166001600160a01b0316633850c7bd6040518163ffffffff1660e01b815260040160e060405180830381865afa1580156115e8573d6000803e3d6000fd5b505050506040513d601f19601f8201168201806040525081019061160c919061406b565b5050505060029190910b60a0850152506001600160a01b031660808301526000896116725761166d670de0b6b3a764000061165385608001516001600160a01b0316612ddb565b6116668c8c670de0b6b3a7640000611f18565b9190611f18565b61169f565b61169f61168b84608001516001600160a01b0316612ddb565b670de0b6b3a76400006116668c8c83611f18565b90508915611740576040516323b872dd60e01b81526001600160a01b037f000000000000000000000000000000000000000000000000000000000000000016906323b872dd906116f790339030908e9060040161419f565b6020604051808303816000875af1158015611716573d6000803e3d6000fd5b505050506040513d601f19601f8201168201806040525081019061173a91906141c3565b506117d5565b6040516323b872dd60e01b81526001600160a01b037f000000000000000000000000000000000000000000000000000000000000000016906323b872dd9061179090339030908e9060040161419f565b6020604051808303816000875af11580156117af573d6000803e3d6000fd5b505050506040513d601f19601f820116820180604052508101906117d391906141c3565b505b8651600003611918576117ee8360800151898c156102fe565b6001600160a01b039081166101808501819052600254608086015160405163053ef28b60e01b81528e15156004820152602481019390935283166044830152606482018490529091169063053ef28b90608401600060405180830381865afa15801561185e573d6000803e3d6000fd5b505050506040513d6000823e601f3d908101601f1916820160405261188691908101906143b7565b61026087018190526101e0870191909152600291820b6101c087015291900b6101a0850152600054604051637c61444d60e01b81526001600160a01b0390911691637c61444d916118e191908e906001908790600401614419565b600060405180830381600087803b1580156118fb57600080fd5b505af115801561190f573d6000803e3d6000fd5b5050505061192c565b6119238a8289612e0c565b61026083018790525b61193b8361026001518b611364565b8084528910156119765760405162461bcd60e51b81526004016104a290602080825260049082015263216c697160e01b604082015260600190565b61016082015163ffffffff1615611a0e57600060e08301526002546040516313804b0d60e11b81526001600160a01b0390911690632700961a906119be908590600401614103565b602060405180830381865afa1580156119db573d6000803e3d6000fd5b505050506040513d601f19601f820116820180604052508101906119ff9190614116565b6001600160801b031660408401525b8251606083018051611a2190839061438b565b905250608082018051829190611a3890839061438b565b90525060a0820180518a9190611a4f90839061438b565b90525089151561012083015263ffffffff42811661016084015261014083015116600003611a855763ffffffff42166101408301525b6101808201515115611b4657610260830151610180830151611aa691612fc9565b61026084015289611ac657611abf836102600151613502565b6102608401525b600254610260840151604051635b664e4f60e11b81526001600160a01b039092169163b6cc9c9e91611afa9160040161426e565b600060405180830381865afa158015611b17573d6000803e3d6000fd5b505050506040513d6000823e601f3d908101601f19168201604052611b3f9190810190614281565b6102608401525b61026083015161018083015260018054604080516080810182526000546001600160a01b0390811682523360208301528e151582840152606082019490945290516346bd036360e01b815292909116916346bd036391611ba8916004016142f4565b6020604051808303816000875af1158015611bc7573d6000803e3d6000fd5b505050506040513d601f19601f82011682018060405250810190611beb91906142db565b50600180546040805160a0810182523381528d15156020820152808201939093526000546001600160a01b039081166060850152608084018690529051630b19e25960e41b815291169163b19e259091611c48919060040161421b565b6000604051808303816000875af1158015611c67573d6000803e3d6000fd5b505050506040513d6000823e601f3d908101601f19168201604052611c8f9190810190613f33565b60025461026085015160a08601516040516308e05f8b60e11b81529395506001600160a01b03909216926311c0bf1692611ccc92916004016142b6565b602060405180830381865afa158015611ce9573d6000803e3d6000fd5b505050506040513d601f19601f82011682018060405250810190611d0d91906142db565b61020084018190526040840151611d289133918591906128a5565b8915611dc55760405163a9059cbb60e01b81526001600160a01b037f0000000000000000000000000000000000000000000000000000000000000000169063a9059cbb90611d7c9033908590600401614202565b6020604051808303816000875af1158015611d9b573d6000803e3d6000fd5b505050506040513d601f19601f82011682018060405250810190611dbf91906141c3565b50611e58565b60405163a9059cbb60e01b81526001600160a01b037f0000000000000000000000000000000000000000000000000000000000000000169063a9059cbb90611e139033908590600401614202565b6020604051808303816000875af1158015611e32573d6000803e3d6000fd5b505050506040513d601f19601f82011682018060405250810190611e5691906141c3565b505b5060408201516102009092015190999198509650945050505050565b60b581600160881b8110611e8d5760409190911b9060801c5b69010000000000000000008110611ea95760209190911b9060401c5b650100000000008110611ec15760109190911b9060201c5b63010000008110611ed75760089190911b9060101c5b62010000010260121c80820401600190811c80830401811c80830401811c80830401811c80830401811c80830401811c80830401901c908190048111900390565b6000808060001985870985870292508281108382030391505080600003611f515760008411611f4657600080fd5b508290049050610380565b808411611f5d57600080fd5b6000848688096000868103871696879004966002600389028118808a02820302808a02820302808a02820302808a02820302808a02820302808a02909103029181900381900460010186841190950394909402919094039290920491909117919091029150509392505050565b60008060008360020b12611fe1578260020b611fe9565b8260020b6000035b9050620d89e881111561200f576040516315e4079d60e11b815260040160405180910390fd5b60008160011660000361202657600160801b612038565b6ffffcb933bd6fad37aa2d162d1a5940015b70ffffffffffffffffffffffffffffffffff169050600282161561206c576ffff97272373d413259a46990580e213a0260801c5b600482161561208b576ffff2e50f5f656932ef12357cf3c7fdcc0260801c5b60088216156120aa576fffe5caca7e10e4e61c3624eaa0941cd00260801c5b60108216156120c9576fffcb9843d60f6159c9db58835c9266440260801c5b60208216156120e8576fff973b41fa98c081472e6896dfb254c00260801c5b6040821615612107576fff2ea16466c96a3843ec78b326b528610260801c5b6080821615612126576ffe5dee046a99a2a811c461f1969c30530260801c5b610100821615612146576ffcbe86c7900a88aedcffc83b479aa3a40260801c5b610200821615612166576ff987a7253ac413176f2b074cf7815e540260801c5b610400821615612186576ff3392b0822b70005940c7a398e4b70f30260801c5b6108008216156121a6576fe7159475a2c29b7443b29c7fa6e889d90260801c5b6110008216156121c6576fd097f3bdfd2022b8845ad8f792aa58250260801c5b6120008216156121e6576fa9f746462d870fdf8a65dc1f90e061e50260801c5b614000821615612206576f70d869a156d2a1b890bb3df62baf32f70260801c5b618000821615612226576f31be135f97d08fd981231505542fcfa60260801c5b62010000821615612247576f09aa508b5b7a84e1c677de54f3e99bc90260801c5b62020000821615612267576e5d6af8dedb81196699c329225ee6040260801c5b62040000821615612286576d2216e584f5fa1ea926041bedfe980260801c5b620800008216156122a3576b048a170391f7dc42444e8fa20260801c5b60008460020b13156122c45780600019816122c0576122c0613df2565b0490505b6401000000008106156122d85760016122db565b60005b60ff16602082901c0192505050919050565b8183610160015160a0015110156123165760405162461bcd60e51b81526004016104a290614181565b825161016084015160a00151839003101561235b5760405162461bcd60e51b815260206004820152600560248201526410b837b99960d91b60448201526064016104a2565b6101608301805160a001805184900390525160600151821061237e57600061238b565b8183610160015160600151035b6101608401516060015280156124325760405163a9059cbb60e01b81526001600160a01b037f0000000000000000000000000000000000000000000000000000000000000000169063a9059cbb906123e99033908690600401614202565b6020604051808303816000875af1158015612408573d6000803e3d6000fd5b505050506040513d601f19601f8201168201806040525081019061242c91906141c3565b50505050565b60405163a9059cbb60e01b81526001600160a01b037f0000000000000000000000000000000000000000000000000000000000000000169063a9059cbb906123e99033908690600401614202565b505050565b60008060008060005b8651811015612640578681815181106124a9576124a9614146565b6020026020010151602001516001600160801b03166000031561262e578681815181106124d8576124d8614146565b602002602001015160000151915061252986670de0b6b3a764000089848151811061250557612505614146565b6020026020010151602001516001600160801b0316611f189092919063ffffffff16565b92508287828151811061253e5761253e614146565b6020908102919091018101516001600160801b0390921691015287156125fd5761259f61256a83611fca565b6125976106d97f00000000000000000000000000000000000000000000000000000000000000008661415c565b856001612ca2565b6125a9908661438b565b94506125ec6125b783611fca565b6125e46106d97f00000000000000000000000000000000000000000000000000000000000000008661415c565b856001612d62565b6125f6908561438b565b935061262e565b6126096125b783611fca565b612613908661438b565b945061262161256a83611fca565b61262b908561438b565b93505b806126388161439e565b91505061248e565b505050935093915050565b60008161010001518260c001516126629190614448565b6001600160801b03169050816101200151156127b0577f00000000000000000000000000000000000000000000000000000000000000006001600160a01b031663a9059cbb338461010001516001600160801b03166040518363ffffffff1660e01b81526004016126d4929190614202565b6020604051808303816000875af11580156126f3573d6000803e3d6000fd5b505050506040513d601f19601f8201168201806040525081019061271791906141c3565b5060005460405163a9059cbb60e01b81526001600160a01b037f000000000000000000000000000000000000000000000000000000000000000081169263a9059cbb9261276d9291909116908590600401614202565b6020604051808303816000875af115801561278c573d6000803e3d6000fd5b505050506040513d601f19601f8201168201806040525081019061248091906141c3565b7f00000000000000000000000000000000000000000000000000000000000000006001600160a01b031663a9059cbb338461010001516001600160801b03166040518363ffffffff1660e01b815260040161280c929190614202565b6020604051808303816000875af115801561282b573d6000803e3d6000fd5b505050506040513d601f19601f8201168201806040525081019061284f91906141c3565b5060005460405163a9059cbb60e01b81526001600160a01b037f000000000000000000000000000000000000000000000000000000000000000081169263a9059cbb9261276d9291909116908590600401614202565b6002546040516313804b0d60e11b81526000916001600160a01b031690632700961a906128d6908790600401614103565b602060405180830381865afa1580156128f3573d6000803e3d6000fd5b505050506040513d601f19601f820116820180604052508101906129179190614116565b600180546040805160e080820183526001600160a01b038b811683526101208b01511515602084015292820194909452600054821660608201526001600160801b0388166080820181905260a082015292880151939450169163d9562ec7919060c0820190612987908890614468565b6001600160801b03169052604080516001600160e01b031960e085901b16815282516001600160a01b0390811660048301526020840151151560248301529183015115156044820152606083015190911660648201526080820151608482015260a082015160a482015260c09091015160c482015260e401600060405180830381600087803b158015612a1957600080fd5b505af1158015612a2d573d6000803e3d6000fd5b5050505083610120015115612b6e576040516323b872dd60e01b81526001600160a01b037f000000000000000000000000000000000000000000000000000000000000000016906323b872dd90612a8c9033903090889060040161419f565b6020604051808303816000875af1158015612aab573d6000803e3d6000fd5b505050506040513d601f19601f82011682018060405250810190612acf91906141c3565b508115612b695760405163a9059cbb60e01b81526001600160a01b037f0000000000000000000000000000000000000000000000000000000000000000169063a9059cbb90612b249033908690600401614202565b6020604051808303816000875af1158015612b43573d6000803e3d6000fd5b505050506040513d601f19601f82011682018060405250810190612b6791906141c3565b505b612c9b565b6040516323b872dd60e01b81526001600160a01b037f000000000000000000000000000000000000000000000000000000000000000016906323b872dd90612bbe9033903090889060040161419f565b6020604051808303816000875af1158015612bdd573d6000803e3d6000fd5b505050506040513d601f19601f82011682018060405250810190612c0191906141c3565b508115612c9b5760405163a9059cbb60e01b81526001600160a01b037f0000000000000000000000000000000000000000000000000000000000000000169063a9059cbb90612c569033908690600401614202565b6020604051808303816000875af1158015612c75573d6000803e3d6000fd5b505050506040513d601f19601f82011682018060405250810190612c9991906141c3565b505b5050505050565b6000836001600160a01b0316856001600160a01b03161115612cc2579293925b6fffffffffffffffffffffffffffffffff60601b606084901b166001600160a01b038686038116908716612cf557600080fd5b83612d2b57866001600160a01b0316612d188383896001600160a01b0316611f18565b81612d2557612d25613df2565b04612d57565b612d57612d428383896001600160a01b03166135e8565b886001600160a01b0316808204910615150190565b979650505050505050565b6000836001600160a01b0316856001600160a01b03161115612d82579293925b81612daf57612daa836001600160801b03168686036001600160a01b0316600160601b611f18565b612dd2565b612dd2836001600160801b03168686036001600160a01b0316600160601b6135e8565b95945050505050565b600060c0612df26001600160a01b03841680613ddb565b612e0490670de0b6b3a7640000613ddb565b901c92915050565b612e17818415611364565b8214612e4b5760405162461bcd60e51b8152602060048201526003602482015262696e6360e81b60448201526064016104a2565b600254604051631542428b60e31b815260009182916001600160a01b039091169063aa12145890612e8090869060040161426e565b600060405180830381865afa158015612e9d573d6000803e3d6000fd5b505050506040513d6000823e601f3d908101601f19168201604052612ec59190810190614488565b9150915081612eff5760405162461bcd60e51b81526004016104a290602080825260049082015263216c697160e01b604082015260600190565b60005b8151811015612f5857818181518110612f1d57612f1d614146565b6020026020010151848281518110612f3757612f37614146565b60209081029190910101516040015280612f508161439e565b915050612f02565b50600054604051637c61444d60e01b81526001600160a01b0390911690637c61444d90612f9090869089906001908a90600401614419565b600060405180830381600087803b158015612faa57600080fd5b505af1158015612fbe573d6000803e3d6000fd5b505050505050505050565b81518151606091906000612fdd828461438b565b905060008167ffffffffffffffff811115612ffa57612ffa613a3d565b60405190808252806020026020018201604052801561304557816020015b60408051606081018252600080825260208083018290529282015282526000199092019101816130185790505b50905060008060005b868310801561305c57508582105b1561325b5788828151811061307357613073614146565b60200260200101516000015160020b8a848151811061309457613094614146565b60200260200101516000015160020b12156130f3578983815181106130bb576130bb614146565b60200260200101518482815181106130d5576130d5614146565b602002602001018190525082806130eb9061439e565b935050613249565b88828151811061310557613105614146565b60200260200101516000015160020b8a848151811061312657613126614146565b60200260200101516000015160020b13156131855788828151811061314d5761314d614146565b602002602001015184828151811061316757613167614146565b6020026020010181905250818061317d9061439e565b925050613249565b60405180606001604052808b85815181106131a2576131a2614146565b60200260200101516000015160020b81526020018a84815181106131c8576131c8614146565b6020026020010151602001518c86815181106131e6576131e6614146565b6020026020010151602001516131fc9190614468565b6001600160801b03168152602001600081525084828151811061322157613221614146565b602002602001018190525082806132379061439e565b93505081806132459061439e565b9250505b806132538161439e565b91505061304e565b868310156132bb5789838151811061327557613275614146565b602002602001015184828151811061328f5761328f614146565b602002602001018190525082806132a59061439e565b93505080806132b39061439e565b91505061325b565b8582101561331b578882815181106132d5576132d5614146565b60200260200101518482815181106132ef576132ef614146565b602002602001018190525081806133059061439e565b92505080806133139061439e565b9150506132bb565b60008093505b8584101561345557600061333685600161438b565b93505b868410156133f75785848151811061335357613353614146565b60200260200101516000015160020b86868151811061337457613374614146565b60200260200101516000015160020b036133e5576001905085848151811061339e5761339e614146565b6020026020010151602001518686815181106133bc576133bc614146565b60200260200101516020018181516133d49190614468565b6001600160801b03169052506133f7565b836133ef8161439e565b945050613339565b806134425785858151811061340e5761340e614146565b602002602001015186838151811061342857613428614146565b6020026020010181905250818061343e9061439e565b9250505b508361344d8161439e565b945050613321565b80855261346e856000613469600185614133565b613628565b60028111156134f357600093505b613487600182614133565b8410156134e2578461349a85600161438b565b815181106134aa576134aa614146565b60200260200101518585815181106134c4576134c4614146565b602002602001018190525083806134da9061439e565b94505061347c565b806134ec81614530565b9150508085525b50929998505050505050505050565b805160609060008167ffffffffffffffff81111561352257613522613a3d565b60405190808252806020026020018201604052801561356d57816020015b60408051606081018252600080825260208083018290529282015282526000199092019101816135405790505b5090506000825b600181106135de5785613588600183614133565b8151811061359857613598614146565b60200260200101518383815181106135b2576135b2614146565b602002602001018190525081806135c89061439e565b92505080806135d690614530565b915050613574565b5090949350505050565b60006135f5848484611f18565b90506000828061360757613607613df2565b848609111561038057600019811061361e57600080fd5b6001019392505050565b80821061363457505050565b60016136408383614133565b1161364a57505050565b8181600085600261365b848661438b565b6136659190614547565b8151811061367557613675614146565b602002602001015190505b8183116137a1575b806000015160020b8684815181106136a2576136a2614146565b60200260200101516000015160020b12156136c957826136c18161439e565b935050613688565b806000015160020b8683815181106136e3576136e3614146565b60200260200101516000015160020b131561370a578161370281614530565b9250506136c9565b81831161379c5785828151811061372357613723614146565b602002602001015186848151811061373d5761373d614146565b602002602001015187858151811061375757613757614146565b6020026020010188858151811061377057613770614146565b602002602001018290528290525050828061378a9061439e565b935050818061379890614530565b9250505b613680565b818510156137b4576137b4868684613628565b83831015612c9957612c99868486613628565b6040518061028001604052806000815260200160008152602001600081526020016000815260200160006001600160a01b03168152602001600060020b815260200160006001600160a01b031681526020016000815260200160008152602001600081526020016000815260200161383d613893565b815260200160006001600160a01b03168152602001600060020b8152602001600060020b8152602001600081526020016000815260200160006001600160801b0316815260200160608152602001606081525090565b604080516101a08101825260008082526020820181905291810182905260608082018390526080820183905260a0820183905260c0820183905260e0820183905261010082018390526101208201839052610140820183905261016082019290925261018081019190915290565b6001600160a01b038116811461391657600080fd5b50565b801515811461391657600080fd5b60008060006060848603121561393c57600080fd5b833561394781613901565b925060208401359150604084013561395e81613919565b809150509250925092565b6000806000806080858703121561397f57600080fd5b843561398a81613919565b9350602085013561399a81613919565b925060408501356139aa81613919565b9396929550929360600135925050565b6000602082840312156139cc57600080fd5b813561038081613901565b8060020b811461391657600080fd5b600080604083850312156139f957600080fd5b8235613a04816139d7565b91506020830135613a1481613919565b809150509250929050565b60008060408385031215613a3257600080fd5b8235613a0481613901565b634e487b7160e01b600052604160045260246000fd5b6040516060810167ffffffffffffffff81118282101715613a7657613a76613a3d565b60405290565b6040516101a0810167ffffffffffffffff81118282101715613a7657613a76613a3d565b604051601f8201601f1916810167ffffffffffffffff81118282101715613ac957613ac9613a3d565b604052919050565b600067ffffffffffffffff821115613aeb57613aeb613a3d565b5060051b60200190565b6001600160801b038116811461391657600080fd5b600082601f830112613b1b57600080fd5b81356020613b30613b2b83613ad1565b613aa0565b82815260609283028501820192828201919087851115613b4f57600080fd5b8387015b85811015613ba85781818a031215613b6b5760008081fd5b613b73613a53565b8135613b7e816139d7565b815281860135613b8d81613af5565b81870152604082810135908201528452928401928101613b53565b5090979650505050505050565b60008060408385031215613bc857600080fd5b823567ffffffffffffffff811115613bdf57600080fd5b613beb85828601613b0a565b9250506020830135613a1481613919565b60008060008060808587031215613c1257600080fd5b8435613c1d81613919565b93506020850135925060408501359150606085013567ffffffffffffffff811115613c4757600080fd5b613c5387828801613b0a565b91505092959194509250565b600081518084526020808501945080840160005b83811015613cb3578151805160020b88526020808201516001600160801b0316908901526040908101519088015260608701965090820190600101613c73565b509495945050505050565b80511515825260006101a06020830151613ce360208601826001600160a01b03169052565b5060408301516040850152606083015160608501526080830151608085015260a083015160a085015260c0830151613d2660c08601826001600160801b03169052565b5060e0830151613d4160e08601826001600160801b03169052565b50610100838101516001600160801b031690850152610120808401511515908501526101408084015163ffffffff9081169186019190915261016080850151909116908501526101808084015181860183905261135a83870182613c5f565b606081526000613db36060830186613cbe565b60208301949094525060400152919050565b634e487b7160e01b600052601160045260246000fd5b80820281158282048414176111bc576111bc613dc5565b634e487b7160e01b600052601260045260246000fd5b60006001600160a01b0383811680613e2257613e22613df2565b92169190910492915050565b6001600160a01b03828116828216818102831692918115828504821417613e5757613e57613dc5565b50505092915050565b8051613e6b81613919565b919050565b8051613e6b81613901565b8051613e6b81613af5565b805163ffffffff81168114613e6b57600080fd5b600082601f830112613eab57600080fd5b81516020613ebb613b2b83613ad1565b82815260609283028501820192828201919087851115613eda57600080fd5b8387015b85811015613ba85781818a031215613ef65760008081fd5b613efe613a53565b8151613f09816139d7565b815281860151613f1881613af5565b81870152604082810151908201528452928401928101613ede565b600060208284031215613f4557600080fd5b815167ffffffffffffffff80821115613f5d57600080fd5b908301906101a08286031215613f7257600080fd5b613f7a613a7c565b613f8383613e60565b8152613f9160208401613e70565b602082015260408301516040820152606083015160608201526080830151608082015260a083015160a0820152613fca60c08401613e7b565b60c0820152613fdb60e08401613e7b565b60e0820152610100613fee818501613e7b565b90820152610120614000848201613e60565b90820152610140614012848201613e86565b90820152610160614024848201613e86565b90820152610180838101518381111561403c57600080fd5b61404888828701613e9a565b918301919091525095945050505050565b805161ffff81168114613e6b57600080fd5b600080600080600080600060e0888a03121561408657600080fd5b875161409181613901565b60208901519097506140a2816139d7565b95506140b060408901614059565b94506140be60608901614059565b93506140cc60808901614059565b925060a088015160ff811681146140e257600080fd5b60c08901519092506140f381613919565b8091505092959891949750929550565b6020815260006103806020830184613cbe565b60006020828403121561412857600080fd5b815161038081613af5565b818103818111156111bc576111bc613dc5565b634e487b7160e01b600052603260045260246000fd5b600281810b9083900b01627fffff8113627fffff19821217156111bc576111bc613dc5565b60208082526004908201526321706f7360e01b604082015260600190565b6001600160a01b039384168152919092166020820152604081019190915260600190565b6000602082840312156141d557600080fd5b815161038081613919565b6040815260006141f36040830185613c5f565b90508260208301529392505050565b6001600160a01b03929092168252602082015260400190565b60208152600060018060a01b0380845116602084015260208401511515604084015260408401511515606084015280606085015116608084015250608083015160a0808401526111b860c0840182613cbe565b6020815260006103806020830184613c5f565b60006020828403121561429357600080fd5b815167ffffffffffffffff8111156142aa57600080fd5b6111b884828501613e9a565b6040815260006142c96040830185613c5f565b90508260020b60208301529392505050565b6000602082840312156142ed57600080fd5b5051919050565b81516001600160a01b03908116825260208084015190911690820152604080830151151590820152606080830151151590820152608081016111bc565b60008160020b8360020b8061434857614348613df2565b627fffff1982146000198214161561436257614362613dc5565b90059392505050565b60008260020b8260020b028060020b91508082146114bc576114bc613dc5565b808201808211156111bc576111bc613dc5565b6000600182016143b0576143b0613dc5565b5060010190565b600080600080608085870312156143cd57600080fd5b84516143d8816139d7565b60208601519094506143e9816139d7565b60408601516060870151919450925067ffffffffffffffff81111561440d57600080fd5b613c5387828801613e9a565b60808152600061442c6080830187613c5f565b9415156020830152509115156040830152606090910152919050565b6001600160801b038281168282160390808211156114bc576114bc613dc5565b6001600160801b038181168382160190808211156114bc576114bc613dc5565b6000806040838503121561449b57600080fd5b82516144a681613919565b8092505060208084015167ffffffffffffffff8111156144c557600080fd5b8401601f810186136144d657600080fd5b80516144e4613b2b82613ad1565b81815260059190911b8201830190838101908883111561450357600080fd5b928401925b8284101561452157835182529284019290840190614508565b80955050505050509250929050565b60008161453f5761453f613dc5565b506000190190565b60008261455657614556613df2565b50049056fea2646970667358221220a5771639314ce3f925d73052ca14b68c34e9bda59ab93cbe12f006c88d107f4764736f6c63430008110033",
    "linkReferences": {}
  },
  "methodIdentifiers": {
    "INTEREST_REPLENISH_TIME()": "9aa886da",
    "addBorrowPosition(bool,uint256,uint256,(int24,uint128,uint256)[])": "997124c6",
    "applySlippageX96(uint160,uint256,bool)": "207b0576",
    "getFilledAmount((int24,uint128,uint256)[],bool)": "786afbcc",
    "globalStorage()": "6502072a",
    "liquidityManager()": "33827438",
    "payPremium(address,bool)": "3e45c92f",
    "pool()": "16f0115b",
    "precision()": "d3b5dc3b",
    "reduceBorrowPosition(bool,bool,bool,uint256)": "223aa77d",
    "roundTick(int24,bool)": "3dc306ee",
    "setLiquidityManager(address)": "3c1624d4",
    "tickSpacing()": "d0c93a7c",
    "token0()": "0dfe1681",
    "token1()": "d21220a7"
  },
  "id": 34
}