{
  "abi": [
    {
      "inputs": [],
      "stateMutability": "nonpayable",
      "type": "constructor"
    },
    {
      "inputs": [],
      "name": "T",
      "type": "error"
    },
    {
      "inputs": [],
      "name": "INTEREST_REPLENISH_TIME",
      "outputs": [
        {
          "internalType": "uint256",
          "name": "",
          "type": "uint256"
        }
      ],
      "stateMutability": "view",
      "type": "function"
    },
    {
      "inputs": [
        {
          "internalType": "bool",
          "name": "borrowBelow",
          "type": "bool"
        },
        {
          "internalType": "uint256",
          "name": "collateralAmount",
          "type": "uint256"
        },
        {
          "internalType": "uint256",
          "name": "ltv",
          "type": "uint256"
        },
        {
          "components": [
            {
              "internalType": "int24",
              "name": "tick",
              "type": "int24"
            },
            {
              "internalType": "uint128",
              "name": "liquidity",
              "type": "uint128"
            },
            {
              "internalType": "uint256",
              "name": "premiumOrUrate",
              "type": "uint256"
            }
          ],
          "internalType": "struct LiquidityManager.Liquidity[]",
          "name": "borrowInfo",
          "type": "tuple[]"
        }
      ],
      "name": "addBorrowPosition",
      "outputs": [
        {
          "components": [
            {
              "internalType": "bool",
              "name": "isBorrow",
              "type": "bool"
            },
            {
              "internalType": "address",
              "name": "pool",
              "type": "address"
            },
            {
              "internalType": "uint256",
              "name": "totalPosition",
              "type": "uint256"
            },
            {
              "internalType": "uint256",
              "name": "totalDebt",
              "type": "uint256"
            },
            {
              "internalType": "uint256",
              "name": "totalDebtInput",
              "type": "uint256"
            },
            {
              "internalType": "uint256",
              "name": "initCollateral",
              "type": "uint256"
            },
            {
              "internalType": "uint128",
              "name": "recentPremium",
              "type": "uint128"
            },
            {
              "internalType": "uint128",
              "name": "totalPremium",
              "type": "uint128"
            },
            {
              "internalType": "uint128",
              "name": "unusedPremium",
              "type": "uint128"
            },
            {
              "internalType": "bool",
              "name": "isToken0",
              "type": "bool"
            },
            {
              "internalType": "uint32",
              "name": "openTime",
              "type": "uint32"
            },
            {
              "internalType": "uint32",
              "name": "repayTime",
              "type": "uint32"
            },
            {
              "components": [
                {
                  "internalType": "int24",
                  "name": "tick",
                  "type": "int24"
                },
                {
                  "internalType": "uint128",
                  "name": "liquidity",
                  "type": "uint128"
                },
                {
                  "internalType": "uint256",
                  "name": "premiumOrUrate",
                  "type": "uint256"
                }
              ],
              "internalType": "struct LiquidityManager.Liquidity[]",
              "name": "borrowInfo",
              "type": "tuple[]"
            }
          ],
          "internalType": "struct GlobalStorage.Position",
          "name": "",
          "type": "tuple"
        },
        {
          "internalType": "uint256",
          "name": "",
          "type": "uint256"
        },
        {
          "internalType": "uint256",
          "name": "",
          "type": "uint256"
        }
      ],
      "stateMutability": "nonpayable",
      "type": "function"
    },
    {
      "inputs": [
        {
          "internalType": "uint160",
          "name": "price",
          "type": "uint160"
        },
        {
          "internalType": "uint256",
          "name": "maxSlippage",
          "type": "uint256"
        },
        {
          "internalType": "bool",
          "name": "down",
          "type": "bool"
        }
      ],
      "name": "applySlippageX96",
      "outputs": [
        {
          "internalType": "uint160",
          "name": "",
          "type": "uint160"
        }
      ],
      "stateMutability": "pure",
      "type": "function"
    },
    {
      "inputs": [
        {
          "components": [
            {
              "internalType": "int24",
              "name": "tick",
              "type": "int24"
            },
            {
              "internalType": "uint128",
              "name": "liquidity",
              "type": "uint128"
            },
            {
              "internalType": "uint256",
              "name": "premiumOrUrate",
              "type": "uint256"
            }
          ],
          "internalType": "struct LiquidityManager.Liquidity[]",
          "name": "borrowInfo",
          "type": "tuple[]"
        },
        {
          "internalType": "bool",
          "name": "borrowBelow",
          "type": "bool"
        }
      ],
      "name": "getFilledAmount",
      "outputs": [
        {
          "internalType": "uint256",
          "name": "filledAmount",
          "type": "uint256"
        }
      ],
      "stateMutability": "view",
      "type": "function"
    },
    {
      "inputs": [],
      "name": "globalStorage",
      "outputs": [
        {
          "internalType": "contract GlobalStorage",
          "name": "",
          "type": "address"
        }
      ],
      "stateMutability": "view",
      "type": "function"
    },
    {
      "inputs": [],
      "name": "liquidityManager",
      "outputs": [
        {
          "internalType": "contract LiquidityManager",
          "name": "",
          "type": "address"
        }
      ],
      "stateMutability": "view",
      "type": "function"
    },
    {
      "inputs": [
        {
          "internalType": "address",
          "name": "trader",
          "type": "address"
        },
        {
          "internalType": "bool",
          "name": "isToken0",
          "type": "bool"
        }
      ],
      "name": "payPremium",
      "outputs": [
        {
          "internalType": "uint256",
          "name": "",
          "type": "uint256"
        }
      ],
      "stateMutability": "nonpayable",
      "type": "function"
    },
    {
      "inputs": [],
      "name": "pool",
      "outputs": [
        {
          "internalType": "contract UniswapV3Pool",
          "name": "",
          "type": "address"
        }
      ],
      "stateMutability": "view",
      "type": "function"
    },
    {
      "inputs": [],
      "name": "precision",
      "outputs": [
        {
          "internalType": "uint256",
          "name": "",
          "type": "uint256"
        }
      ],
      "stateMutability": "view",
      "type": "function"
    },
    {
      "inputs": [
        {
          "internalType": "bool",
          "name": "borrowBelow",
          "type": "bool"
        },
        {
          "internalType": "bool",
          "name": "reduceCollateral",
          "type": "bool"
        },
        {
          "internalType": "bool",
          "name": "getCollateralBack",
          "type": "bool"
        },
        {
          "internalType": "uint256",
          "name": "reduceAmount",
          "type": "uint256"
        }
      ],
      "name": "reduceBorrowPosition",
      "outputs": [
        {
          "components": [
            {
              "internalType": "int256",
              "name": "amount0",
              "type": "int256"
            },
            {
              "internalType": "int256",
              "name": "amount1",
              "type": "int256"
            },
            {
              "internalType": "int256",
              "name": "PnL",
              "type": "int256"
            },
            {
              "internalType": "uint256",
              "name": "returnedAmount",
              "type": "uint256"
            },
            {
              "internalType": "uint256",
              "name": "unusedPremium",
              "type": "uint256"
            },
            {
              "internalType": "uint256",
              "name": "premium",
              "type": "uint256"
            }
          ],
          "internalType": "struct ReduceReturn",
          "name": "",
          "type": "tuple"
        }
      ],
      "stateMutability": "nonpayable",
      "type": "function"
    },
    {
      "inputs": [
        {
          "internalType": "int24",
          "name": "tick",
          "type": "int24"
        },
        {
          "internalType": "bool",
          "name": "down",
          "type": "bool"
        }
      ],
      "name": "roundTick",
      "outputs": [
        {
          "internalType": "int24",
          "name": "",
          "type": "int24"
        }
      ],
      "stateMutability": "view",
      "type": "function"
    },
    {
      "inputs": [
        {
          "internalType": "address",
          "name": "ad",
          "type": "address"
        }
      ],
      "name": "setLiquidityManager",
      "outputs": [],
      "stateMutability": "nonpayable",
      "type": "function"
    },
    {
      "inputs": [],
      "name": "tickSpacing",
      "outputs": [
        {
          "internalType": "int24",
          "name": "",
          "type": "int24"
        }
      ],
      "stateMutability": "view",
      "type": "function"
    },
    {
      "inputs": [],
      "name": "token0",
      "outputs": [
        {
          "internalType": "contract ERC20",
          "name": "",
          "type": "address"
        }
      ],
      "stateMutability": "view",
      "type": "function"
    },
    {
      "inputs": [],
      "name": "token1",
      "outputs": [
        {
          "internalType": "contract ERC20",
          "name": "",
          "type": "address"
        }
      ],
      "stateMutability": "view",
      "type": "function"
    }
  ],
  "bytecode": {
    "object": "0x60e06040523480156200001157600080fd5b50600080336001600160a01b031663890357306040518163ffffffff1660e01b81526004016040805180830381865afa15801562000053573d6000803e3d6000fd5b505050506040513d601f19601f8201168201806040525081019062000079919062000231565b600080546001600160a01b038085166001600160a01b03199283168117909355600180549185169190921617905560408051630dfe168160e01b8152905193955091935091630dfe1681916004808201926020929091908290030181865afa158015620000ea573d6000803e3d6000fd5b505050506040513d601f19601f8201168201806040525081019062000110919062000269565b60008054906101000a90046001600160a01b03166001600160a01b031663d21220a76040518163ffffffff1660e01b8152600401602060405180830381865afa15801562000162573d6000803e3d6000fd5b505050506040513d601f19601f8201168201806040525081019062000188919062000269565b6001600160a01b0390811660c05290811660a052600054604080516334324e9f60e21b81529051919092169163d0c93a7c9160048083019260209291908290030181865afa158015620001df573d6000803e3d6000fd5b505050506040513d601f19601f820116820180604052508101906200020591906200028e565b60020b60805250620002b39050565b80516001600160a01b03811681146200022c57600080fd5b919050565b600080604083850312156200024557600080fd5b620002508362000214565b9150620002606020840162000214565b90509250929050565b6000602082840312156200027c57600080fd5b620002878262000214565b9392505050565b600060208284031215620002a157600080fd5b81518060020b81146200028757600080fd5b60805160a05160c0516148a5620003ad600039600081816102cd0152818161088501528181610c410152818161184201528181611e3001528181612558015281816127890152818161284101528181612b7e0152612c1801526000818160ff0152818161092201528181610ba3015281816117a901528181611ec7015281816124c1015281816128c10152818161297901528181612cb00152612d4a0152600081816102a6015281816106a101528181610726015281816111500152818161117e015281816111bc015281816113ec015281816114700152818161165d015281816116950152818161268101526126ce01526148a56000f3fe608060405234801561001057600080fd5b50600436106100f55760003560e01c80633e45c92f116100975780639aa886da116100665780639aa886da14610297578063d0c93a7c146102a1578063d21220a7146102c8578063d3b5dc3b146102ef57600080fd5b80633e45c92f1461022e5780636502072a1461024f578063786afbcc14610262578063997124c61461027557600080fd5b8063223aa77d116100d3578063223aa77d1461016457806333827438146101c35780633c1624d4146101d65780633dc306ee1461020857600080fd5b80630dfe1681146100fa57806316f0115b1461013e578063207b057614610151575b600080fd5b6101217f000000000000000000000000000000000000000000000000000000000000000081565b6040516001600160a01b0390911681526020015b60405180910390f35b600054610121906001600160a01b031681565b61012161015f366004613bf7565b6102fe565b610177610172366004613c39565b6103b0565b6040516101359190600060c082019050825182526020830151602083015260408301516040830152606083015160608301526080830151608083015260a083015160a083015292915050565b600254610121906001600160a01b031681565b6102066101e4366004613c8a565b600280546001600160a01b0319166001600160a01b0392909216919091179055565b005b61021b610216366004613cb6565b611148565b60405160029190910b8152602001610135565b61024161023c366004613cef565b6111eb565b604051908152602001610135565b600154610121906001600160a01b031681565b610241610270366004613e85565b61138d565b610288610283366004613ecc565b6114ec565b60405161013593929190614070565b6102416201518081565b61021b7f000000000000000000000000000000000000000000000000000000000000000081565b6101217f000000000000000000000000000000000000000000000000000000000000000081565b610241670de0b6b3a764000081565b60008061031c6001600160a01b038616670de0b6b3a76400006140ab565b9050600061033285670de0b6b3a76400006140ab565b90506000610348670de0b6b3a7640000806140ab565b90508415610387576000610365610360838086611f83565b612035565b90508161037282866140ab565b61037c91906140d8565b9450505050506103a9565b600061039283612035565b90508061039f83866140d8565b61037c91906140ab565b9392505050565b6103e96040518060c001604052806000815260200160008152602001600081526020016000815260200160008152602001600081525090565b6103f1613a97565b60015460405163750ff6b560e01b815230600482015233602482015287151560448201526001600160a01b039091169063750ff6b590606401600060405180830381865afa158015610447573d6000803e3d6000fd5b505050506040513d6000823e601f3d908101601f1916820160405261046f91908101906141ba565b61016082015284156104d95760008161016001516060015111801561049d5750806101600151606001518311155b6104d45760405162461bcd60e51b8152602060048201526003602482015262706f7360e81b60448201526064015b60405180910390fd5b61052d565b6000816101600151608001511180156104fb5750806101600151608001518311155b61052d5760405162461bcd60e51b8152602060048201526003602482015262706f7360e81b60448201526064016104cb565b60008054906101000a90046001600160a01b03166001600160a01b0316633850c7bd6040518163ffffffff1660e01b815260040160e060405180830381865afa15801561057e573d6000803e3d6000fd5b505050506040513d601f19601f820116820180604052508101906105a291906142f2565b50505050600291820b60a0850152506001600160a01b03918216608084015261016083015161018081015151606085015290546040516313804b0d60e11b8152921691632700961a916105f79160040161438a565b602060405180830381865afa158015610614573d6000803e3d6000fd5b505050506040513d601f19601f82011682018060405250810190610638919061439d565b610160820180516001600160801b03909216610100909201919091525161012001516107079061069f5781610160015161018001516001836060015161067e91906143ba565b8151811061068e5761068e6143cd565b6020026020010151600001516120d9565b7f00000000000000000000000000000000000000000000000000000000000000008261016001516101800151600184606001516106dc91906143ba565b815181106106ec576106ec6143cd565b60200260200101516000015161070291906143e3565b6120d9565b6001600160a01b031660c0820152610160810151610120015161077d577f00000000000000000000000000000000000000000000000000000000000000008161016001516101800151600081518110610762576107626143cd565b60200260200101516000015161077891906143e3565b6107a7565b806101600151610180015160008151811061079a5761079a6143cd565b6020026020010151600001515b60020b6101a082015261016081015161012001516107e2578060c001516001600160a01b031681608001516001600160a01b03161115610801565b8060c001516001600160a01b031681608001516001600160a01b031610155b15610adf57841561083c5761082a8161016001516101800151826101600151610120015161138d565b81526108378184886123fc565b610df0565b828161016001516080015110156108655760405162461bcd60e51b81526004016104cb90614408565b8515610908576000546040516323b872dd60e01b81526001600160a01b037f00000000000000000000000000000000000000000000000000000000000000008116926323b872dd926108bf92339216908890600401614426565b6020604051808303816000875af11580156108de573d6000803e3d6000fd5b505050506040513d601f19601f82011682018060405250810190610902919061444a565b506109a1565b6000546040516323b872dd60e01b81526001600160a01b037f00000000000000000000000000000000000000000000000000000000000000008116926323b872dd9261095c92339216908890600401614426565b6020604051808303816000875af115801561097b573d6000803e3d6000fd5b505050506040513d601f19601f8201168201806040525081019061099f919061444a565b505b6000546101608201516101808101516080909101516001600160a01b039092169163e9f4fcf391906109de908790670de0b6b3a764000090611f83565b6040518363ffffffff1660e01b81526004016109fb929190614467565b600060405180830381600087803b158015610a1557600080fd5b505af1158015610a29573d6000803e3d6000fd5b50505061016082015160800151610a4c91508490670de0b6b3a764000090611f83565b6020820181905261016082015161012081015161018090910151610a8192610a7c90670de0b6b3a76400006143ba565b612594565b50508315610aca57610aa78161016001516101800151826101600151610120015161138d565b80825261016082015160a00151610aca918391610ac491906143ba565b886123fc565b61016081015160800180518490039052610df0565b8061016001516101200151610b1957610afc816101a001516120d9565b6001600160a01b031681608001516001600160a01b031611610b40565b610b27816101a001516120d9565b6001600160a01b031681608001516001600160a01b0316105b15610dbf578281610160015160a0015110158015610b675750828161016001516060015110155b610b835760405162461bcd60e51b81526004016104cb90614408565b8515610c275760005460405163a9059cbb60e01b81526001600160a01b037f000000000000000000000000000000000000000000000000000000000000000081169263a9059cbb92610bde9291909116908790600401614489565b6020604051808303816000875af1158015610bfd573d6000803e3d6000fd5b505050506040513d601f19601f82011682018060405250810190610c21919061444a565b50610cc1565b60005460405163a9059cbb60e01b81526001600160a01b037f000000000000000000000000000000000000000000000000000000000000000081169263a9059cbb92610c7c9291909116908790600401614489565b6020604051808303816000875af1158015610c9b573d6000803e3d6000fd5b505050506040513d601f19601f82011682018060405250810190610cbf919061444a565b505b6000546101608201516101808101516060909101516001600160a01b039092169163e9f4fcf39190610cfe908790670de0b6b3a764000090611f83565b6040518363ffffffff1660e01b8152600401610d1b929190614467565b600060405180830381600087803b158015610d3557600080fd5b505af1158015610d49573d6000803e3d6000fd5b50505061016082015160600151610d6c91508490670de0b6b3a764000090611f83565b6020820181905261016082015161012081015161018090910151610d9c92610a7c90670de0b6b3a76400006143ba565b50506101608101805160a001805185900390525160600180518490039052610df0565b60405162461bcd60e51b81526020600482015260066024820152652172616e676560d01b60448201526064016104cb565b610dfe81610160015161275a565b6002546101608201516040516313804b0d60e11b81526001600160a01b0390921691632700961a91610e329160040161438a565b602060405180830381865afa158015610e4f573d6000803e3d6000fd5b505050506040513d601f19601f82011682018060405250810190610e73919061439d565b6001600160801b0316604082015261016081015160600151156110725761016081018051600060e0909101819052815161010001819052815160c001819052600180546040805160a08101825233815285516101200151151560208201528082019390935292546001600160a01b039081166060840152935160808301529151630850d0e960e01b81529290911691630850d0e991610f14916004016144a2565b600060405180830381600087803b158015610f2e57600080fd5b505af1158015610f42573d6000803e3d6000fd5b50506002546101608401516101800151604051635b664e4f60e11b81526001600160a01b03909216935063b6cc9c9e9250610f7f916004016144f5565b600060405180830381865afa158015610f9c573d6000803e3d6000fd5b505050506040513d6000823e601f3d908101601f19168201604052610fc49190810190614508565b610160820180516101809081019290925260025490519091015160a08301516040516308e05f8b60e11b81526001600160a01b03909316926311c0bf169261101092909160040161453d565b602060405180830381865afa15801561102d573d6000803e3d6000fd5b505050506040513d601f19601f820116820180604052508101906110519190614562565b610200820181905261016082015161106d9133919060006129b4565b611105565b60018054604080516080810182526000546001600160a01b039081168252336020830152610160860151610120015115158284015260608201949094529051633a5177df60e01b81529290911691633a5177df916110d29160040161457b565b600060405180830381600087803b1580156110ec57600080fd5b505af1158015611100573d6000803e3d6000fd5b505050505b6040805160c0810182526000808252602082018190528183015261014083015160608201529082015160808201526102009091015160a082015295945050505050565b6000806111757f0000000000000000000000000000000000000000000000000000000000000000856145b8565b9050826111b7577f00000000000000000000000000000000000000000000000000000000000000006111a88260016143e3565b6111b291906145f2565b6111e1565b6111e17f0000000000000000000000000000000000000000000000000000000000000000826145f2565b9150505b92915050565b60015460405163750ff6b560e01b81523060048201526001600160a01b0384811660248301528315156044830152600092839291169063750ff6b590606401600060405180830381865afa158015611247573d6000803e3d6000fd5b505050506040513d6000823e601f3d908101601f1916820160405261126f91908101906141ba565b905060008060008054906101000a90046001600160a01b03166001600160a01b0316633850c7bd6040518163ffffffff1660e01b815260040160e060405180830381865afa1580156112c5573d6000803e3d6000fd5b505050506040513d601f19601f820116820180604052508101906112e991906142f2565b5050505050915091506112fb8361275a565b6002546101808401516040516308e05f8b60e11b81526000926001600160a01b0316916311c0bf16916113339190869060040161453d565b602060405180830381865afa158015611350573d6000803e3d6000fd5b505050506040513d601f19601f820116820180604052508101906113749190614562565b905061138387858360006129b4565b9695505050505050565b6000805b83518110156114e5578381815181106113ac576113ac6143cd565b6020026020010151602001516001600160801b0316600003156114d3578215611453576114426113e785838151811061068e5761068e6143cd565b61141d7f00000000000000000000000000000000000000000000000000000000000000008785815181106106ec576106ec6143cd565b86848151811061142f5761142f6143cd565b6020026020010151602001516001612dcd565b61144c9083614612565b91506114d3565b6114c661146b85838151811061068e5761068e6143cd565b6114a17f00000000000000000000000000000000000000000000000000000000000000008785815181106106ec576106ec6143cd565b8684815181106114b3576114b36143cd565b6020026020010151602001516001612e84565b6114d09083614612565b91505b806114dd81614625565b915050611391565b5092915050565b6114f4613b63565b600080670de0b6b3a764000085106115375760405162461bcd60e51b81526004016104cb9060208082526004908201526310b63a3b60e11b604082015260600190565b61153f613a97565b60015460405163750ff6b560e01b815230600482015233602482015289151560448201526000916001600160a01b03169063750ff6b590606401600060405180830381865afa158015611596573d6000803e3d6000fd5b505050506040513d6000823e601f3d908101601f191682016040526115be91908101906141ba565b905060008054906101000a90046001600160a01b03166001600160a01b0316633850c7bd6040518163ffffffff1660e01b815260040160e060405180830381865afa158015611611573d6000803e3d6000fd5b505050506040513d601f19601f8201168201806040525081019061163591906142f2565b5050505060029190910b60a0850152506001600160a01b03166080830152886116905761168b7f00000000000000000000000000000000000000000000000000000000000000008360a0015161070291906143e3565b6116c3565b6116c37f00000000000000000000000000000000000000000000000000000000000000008360a00151610702919061463e565b6001600160a01b031660c08301526000896116f0576116eb83608001518460c001518b612efd565b611703565b61170383608001518460c001518b612f4e565b905060008a6117385761173389670de0b6b3a764000061172c87608001518860c0015187612fa5565b9190611f83565b611758565b61175889670de0b6b3a764000061172c87608001518860c001518761300f565b905061178c6040518060400160405280600f81526020016e185b5bdd5b9d14dc1958da599a5959608a1b815250828c613059565b8a1561182b576040516323b872dd60e01b81526001600160a01b037f000000000000000000000000000000000000000000000000000000000000000016906323b872dd906117e290339030908f90600401614426565b6020604051808303816000875af1158015611801573d6000803e3d6000fd5b505050506040513d601f19601f82011682018060405250810190611825919061444a565b506118c0565b6040516323b872dd60e01b81526001600160a01b037f000000000000000000000000000000000000000000000000000000000000000016906323b872dd9061187b90339030908f90600401614426565b6020604051808303816000875af115801561189a573d6000803e3d6000fd5b505050506040513d601f19601f820116820180604052508101906118be919061444a565b505b8751600003611a03576118d984608001518a8d156102fe565b6001600160a01b039081166101808601819052600254608087015160405163053ef28b60e01b81528f15156004820152602481019390935283166044830152606482018490529091169063053ef28b90608401600060405180830381865afa158015611949573d6000803e3d6000fd5b505050506040513d6000823e601f3d908101601f191682016040526119719190810190614663565b61026088018190526101e0880191909152600291820b6101c088015291900b6101a0860152600054604051637c61444d60e01b81526001600160a01b0390911691637c61444d916119cc91908f9060019087906004016146c5565b600060405180830381600087803b1580156119e657600080fd5b505af11580156119fa573d6000803e3d6000fd5b50505050611a17565b611a0e8b828a6130a0565b61026084018890525b611a268461026001518c61138d565b8085528a1015611a615760405162461bcd60e51b81526004016104cb90602080825260049082015263216c697160e01b604082015260600190565b61016083015163ffffffff1615611af957600060e08401526002546040516313804b0d60e11b81526001600160a01b0390911690632700961a90611aa990869060040161438a565b602060405180830381865afa158015611ac6573d6000803e3d6000fd5b505050506040513d601f19601f82011682018060405250810190611aea919061439d565b6001600160801b031660408501525b8351606084018051611b0c908390614612565b905250608083018051829190611b23908390614612565b90525060a0830180518b9190611b3a908390614612565b9052508a151561012084015263ffffffff42811661016085015261014084015116600003611b705763ffffffff42166101408401525b6101808301515115611c3157610260840151610180840151611b919161325d565b6102608501528a611bb157611baa846102600151613796565b6102608501525b600254610260850151604051635b664e4f60e11b81526001600160a01b039092169163b6cc9c9e91611be5916004016144f5565b600060405180830381865afa158015611c02573d6000803e3d6000fd5b505050506040513d6000823e601f3d908101601f19168201604052611c2a9190810190614508565b6102608501525b61026084015161018084015260018054604080516080810182526000546001600160a01b0390811682523360208301528f151582840152606082019490945290516346bd036360e01b815292909116916346bd036391611c939160040161457b565b6020604051808303816000875af1158015611cb2573d6000803e3d6000fd5b505050506040513d601f19601f82011682018060405250810190611cd69190614562565b50600180546040805160a0810182523381528e15156020820152808201939093526000546001600160a01b039081166060850152608084018790529051630b19e25960e41b815291169163b19e259091611d3391906004016144a2565b6000604051808303816000875af1158015611d52573d6000803e3d6000fd5b505050506040513d6000823e601f3d908101601f19168201604052611d7a91908101906141ba565b60025461026086015160a08701516040516308e05f8b60e11b81529396506001600160a01b03909216926311c0bf1692611db7929160040161453d565b602060405180830381865afa158015611dd4573d6000803e3d6000fd5b505050506040513d601f19601f82011682018060405250810190611df89190614562565b61020085018190526040850151611e139133918691906129b4565b8a15611eb05760405163a9059cbb60e01b81526001600160a01b037f0000000000000000000000000000000000000000000000000000000000000000169063a9059cbb90611e679033908590600401614489565b6020604051808303816000875af1158015611e86573d6000803e3d6000fd5b505050506040513d601f19601f82011682018060405250810190611eaa919061444a565b50611f43565b60405163a9059cbb60e01b81526001600160a01b037f0000000000000000000000000000000000000000000000000000000000000000169063a9059cbb90611efe9033908590600401614489565b6020604051808303816000875af1158015611f1d573d6000803e3d6000fd5b505050506040513d601f19601f82011682018060405250810190611f41919061444a565b505b828460400151611f6f8560800151670de0b6b3a7640000886102000151611f839092919063ffffffff16565b965096509650505050509450945094915050565b6000808060001985870985870292508281108382030391505080600003611fbc5760008411611fb157600080fd5b5082900490506103a9565b808411611fc857600080fd5b6000848688096000868103871696879004966002600389028118808a02820302808a02820302808a02820302808a02820302808a02820302808a02909103029181900381900460010186841190950394909402919094039290920491909117919091029150509392505050565b60b581600160881b811061204e5760409190911b9060801c5b6901000000000000000000811061206a5760209190911b9060401c5b6501000000000081106120825760109190911b9060201c5b630100000081106120985760089190911b9060101c5b62010000010260121c80820401600190811c80830401811c80830401811c80830401811c80830401811c80830401811c80830401901c908190048111900390565b60008060008360020b126120f0578260020b6120f8565b8260020b6000035b9050620d89e881111561211e576040516315e4079d60e11b815260040160405180910390fd5b60008160011660000361213557600160801b612147565b6ffffcb933bd6fad37aa2d162d1a5940015b70ffffffffffffffffffffffffffffffffff169050600282161561217b576ffff97272373d413259a46990580e213a0260801c5b600482161561219a576ffff2e50f5f656932ef12357cf3c7fdcc0260801c5b60088216156121b9576fffe5caca7e10e4e61c3624eaa0941cd00260801c5b60108216156121d8576fffcb9843d60f6159c9db58835c9266440260801c5b60208216156121f7576fff973b41fa98c081472e6896dfb254c00260801c5b6040821615612216576fff2ea16466c96a3843ec78b326b528610260801c5b6080821615612235576ffe5dee046a99a2a811c461f1969c30530260801c5b610100821615612255576ffcbe86c7900a88aedcffc83b479aa3a40260801c5b610200821615612275576ff987a7253ac413176f2b074cf7815e540260801c5b610400821615612295576ff3392b0822b70005940c7a398e4b70f30260801c5b6108008216156122b5576fe7159475a2c29b7443b29c7fa6e889d90260801c5b6110008216156122d5576fd097f3bdfd2022b8845ad8f792aa58250260801c5b6120008216156122f5576fa9f746462d870fdf8a65dc1f90e061e50260801c5b614000821615612315576f70d869a156d2a1b890bb3df62baf32f70260801c5b618000821615612335576f31be135f97d08fd981231505542fcfa60260801c5b62010000821615612356576f09aa508b5b7a84e1c677de54f3e99bc90260801c5b62020000821615612376576e5d6af8dedb81196699c329225ee6040260801c5b62040000821615612395576d2216e584f5fa1ea926041bedfe980260801c5b620800008216156123b2576b048a170391f7dc42444e8fa20260801c5b60008460020b13156123d35780600019816123cf576123cf6140c2565b0490505b6401000000008106156123e75760016123ea565b60005b60ff16602082901c0192505050919050565b8183610160015160a0015110156124255760405162461bcd60e51b81526004016104cb90614408565b825161016084015160a00151839003101561246a5760405162461bcd60e51b815260206004820152600560248201526410b837b99960d91b60448201526064016104cb565b6101608301805160a001805184900390525160600151821061248d57600061249a565b8183610160015160600151035b6101608401516060015280156125415760405163a9059cbb60e01b81526001600160a01b037f0000000000000000000000000000000000000000000000000000000000000000169063a9059cbb906124f89033908690600401614489565b6020604051808303816000875af1158015612517573d6000803e3d6000fd5b505050506040513d601f19601f8201168201806040525081019061253b919061444a565b50505050565b60405163a9059cbb60e01b81526001600160a01b037f0000000000000000000000000000000000000000000000000000000000000000169063a9059cbb906124f89033908690600401614489565b505050565b60008060008060005b865181101561274f578681815181106125b8576125b86143cd565b6020026020010151602001516001600160801b03166000031561273d578681815181106125e7576125e76143cd565b602002602001015160000151915061263886670de0b6b3a7640000898481518110612614576126146143cd565b6020026020010151602001516001600160801b0316611f839092919063ffffffff16565b92508287828151811061264d5761264d6143cd565b6020908102919091018101516001600160801b03909216910152871561270c576126ae612679836120d9565b6126a66107027f0000000000000000000000000000000000000000000000000000000000000000866143e3565b856001612dcd565b6126b89086614612565b94506126fb6126c6836120d9565b6126f36107027f0000000000000000000000000000000000000000000000000000000000000000866143e3565b856001612e84565b6127059085614612565b935061273d565b6127186126c6836120d9565b6127229086614612565b9450612730612679836120d9565b61273a9085614612565b93505b8061274781614625565b91505061259d565b505050935093915050565b60008161010001518260c0015161277191906146f4565b6001600160801b03169050816101200151156128bf577f00000000000000000000000000000000000000000000000000000000000000006001600160a01b031663a9059cbb338461010001516001600160801b03166040518363ffffffff1660e01b81526004016127e3929190614489565b6020604051808303816000875af1158015612802573d6000803e3d6000fd5b505050506040513d601f19601f82011682018060405250810190612826919061444a565b5060005460405163a9059cbb60e01b81526001600160a01b037f000000000000000000000000000000000000000000000000000000000000000081169263a9059cbb9261287c9291909116908590600401614489565b6020604051808303816000875af115801561289b573d6000803e3d6000fd5b505050506040513d601f19601f8201168201806040525081019061258f919061444a565b7f00000000000000000000000000000000000000000000000000000000000000006001600160a01b031663a9059cbb338461010001516001600160801b03166040518363ffffffff1660e01b815260040161291b929190614489565b6020604051808303816000875af115801561293a573d6000803e3d6000fd5b505050506040513d601f19601f8201168201806040525081019061295e919061444a565b5060005460405163a9059cbb60e01b81526001600160a01b037f000000000000000000000000000000000000000000000000000000000000000081169263a9059cbb9261287c9291909116908590600401614489565b6002546040516313804b0d60e11b81526000916001600160a01b031690632700961a906129e590879060040161438a565b602060405180830381865afa158015612a02573d6000803e3d6000fd5b505050506040513d601f19601f82011682018060405250810190612a26919061439d565b6080850151909150612a42908490670de0b6b3a7640000611f83565b600180546040805160e080820183526001600160a01b038b811683526101208b01511515602084015292820194909452600054821660608201526001600160801b0385166080820181905260a082015292880151939650169163d9562ec7919060c0820190612ab2908890614714565b6001600160801b03169052604080516001600160e01b031960e085901b16815282516001600160a01b0390811660048301526020840151151560248301529183015115156044820152606083015190911660648201526080820151608482015260a082015160a482015260c09091015160c482015260e401600060405180830381600087803b158015612b4457600080fd5b505af1158015612b58573d6000803e3d6000fd5b5050505083610120015115612c99576040516323b872dd60e01b81526001600160a01b037f000000000000000000000000000000000000000000000000000000000000000016906323b872dd90612bb790339030908890600401614426565b6020604051808303816000875af1158015612bd6573d6000803e3d6000fd5b505050506040513d601f19601f82011682018060405250810190612bfa919061444a565b508115612c945760405163a9059cbb60e01b81526001600160a01b037f0000000000000000000000000000000000000000000000000000000000000000169063a9059cbb90612c4f9033908690600401614489565b6020604051808303816000875af1158015612c6e573d6000803e3d6000fd5b505050506040513d601f19601f82011682018060405250810190612c92919061444a565b505b612dc6565b6040516323b872dd60e01b81526001600160a01b037f000000000000000000000000000000000000000000000000000000000000000016906323b872dd90612ce990339030908890600401614426565b6020604051808303816000875af1158015612d08573d6000803e3d6000fd5b505050506040513d601f19601f82011682018060405250810190612d2c919061444a565b508115612dc65760405163a9059cbb60e01b81526001600160a01b037f0000000000000000000000000000000000000000000000000000000000000000169063a9059cbb90612d819033908690600401614489565b6020604051808303816000875af1158015612da0573d6000803e3d6000fd5b505050506040513d601f19601f82011682018060405250810190612dc4919061444a565b505b5050505050565b6000836001600160a01b0316856001600160a01b03161115612ded579293925b600160601b600160e01b03606084901b166001600160a01b038686038116908716612e1757600080fd5b83612e4d57866001600160a01b0316612e3a8383896001600160a01b0316611f83565b81612e4757612e476140c2565b04612e79565b612e79612e648383896001600160a01b031661387c565b886001600160a01b0316808204910615150190565b979650505050505050565b6000836001600160a01b0316856001600160a01b03161115612ea4579293925b81612ed157612ecc836001600160801b03168686036001600160a01b0316600160601b611f83565b612ef4565b612ef4836001600160801b03168686036001600160a01b0316600160601b61387c565b95945050505050565b6000826001600160a01b0316846001600160a01b03161115612f1d579192915b612f46612f4183600160601b612f338888614734565b6001600160a01b0316611f83565b6138bc565b949350505050565b6000826001600160a01b0316846001600160a01b03161115612f6e579192915b6000612f91856001600160a01b0316856001600160a01b0316600160601b611f83565b9050612ef4612f418483612f338989614734565b6000826001600160a01b0316846001600160a01b03161115612fc5579192915b6001600160a01b038416613005600160601b600160e01b03606085901b16612fed8787614734565b6001600160a01b0316866001600160a01b0316611f83565b612f4691906140d8565b6000826001600160a01b0316846001600160a01b0316111561302f579192915b612f466001600160801b0383166130468686614734565b6001600160a01b0316600160601b611f83565b61258f83838360405160240161307193929190614754565b60408051601f198184030181529190526020810180516001600160e01b031663969cdd0360e01b1790526138d7565b6130ab81841561138d565b82146130df5760405162461bcd60e51b8152602060048201526003602482015262696e6360e81b60448201526064016104cb565b600254604051631542428b60e31b815260009182916001600160a01b039091169063aa121458906131149086906004016144f5565b600060405180830381865afa158015613131573d6000803e3d6000fd5b505050506040513d6000823e601f3d908101601f1916820160405261315991908101906147b0565b91509150816131935760405162461bcd60e51b81526004016104cb90602080825260049082015263216c697160e01b604082015260600190565b60005b81518110156131ec578181815181106131b1576131b16143cd565b60200260200101518482815181106131cb576131cb6143cd565b602090810291909101015160400152806131e481614625565b915050613196565b50600054604051637c61444d60e01b81526001600160a01b0390911690637c61444d9061322490869089906001908a906004016146c5565b600060405180830381600087803b15801561323e57600080fd5b505af1158015613252573d6000803e3d6000fd5b505050505050505050565b815181516060919060006132718284614612565b905060008167ffffffffffffffff81111561328e5761328e613d0d565b6040519080825280602002602001820160405280156132d957816020015b60408051606081018252600080825260208083018290529282015282526000199092019101816132ac5790505b50905060008060005b86831080156132f057508582105b156134ef57888281518110613307576133076143cd565b60200260200101516000015160020b8a8481518110613328576133286143cd565b60200260200101516000015160020b12156133875789838151811061334f5761334f6143cd565b6020026020010151848281518110613369576133696143cd565b6020026020010181905250828061337f90614625565b9350506134dd565b888281518110613399576133996143cd565b60200260200101516000015160020b8a84815181106133ba576133ba6143cd565b60200260200101516000015160020b1315613419578882815181106133e1576133e16143cd565b60200260200101518482815181106133fb576133fb6143cd565b6020026020010181905250818061341190614625565b9250506134dd565b60405180606001604052808b8581518110613436576134366143cd565b60200260200101516000015160020b81526020018a848151811061345c5761345c6143cd565b6020026020010151602001518c868151811061347a5761347a6143cd565b6020026020010151602001516134909190614714565b6001600160801b0316815260200160008152508482815181106134b5576134b56143cd565b602002602001018190525082806134cb90614625565b93505081806134d990614625565b9250505b806134e781614625565b9150506132e2565b8683101561354f57898381518110613509576135096143cd565b6020026020010151848281518110613523576135236143cd565b6020026020010181905250828061353990614625565b935050808061354790614625565b9150506134ef565b858210156135af57888281518110613569576135696143cd565b6020026020010151848281518110613583576135836143cd565b6020026020010181905250818061359990614625565b92505080806135a790614625565b91505061354f565b60008093505b858410156136e95760006135ca856001614612565b93505b8684101561368b578584815181106135e7576135e76143cd565b60200260200101516000015160020b868681518110613608576136086143cd565b60200260200101516000015160020b036136795760019050858481518110613632576136326143cd565b602002602001015160200151868681518110613650576136506143cd565b60200260200101516020018181516136689190614714565b6001600160801b031690525061368b565b8361368381614625565b9450506135cd565b806136d6578585815181106136a2576136a26143cd565b60200260200101518683815181106136bc576136bc6143cd565b602002602001018190525081806136d290614625565b9250505b50836136e181614625565b9450506135b5565b8085526137028560006136fd6001856143ba565b6138f8565b600281111561378757600093505b61371b6001826143ba565b841015613776578461372e856001614612565b8151811061373e5761373e6143cd565b6020026020010151858581518110613758576137586143cd565b6020026020010181905250838061376e90614625565b945050613710565b8061378081614858565b9150508085525b50929998505050505050505050565b805160609060008167ffffffffffffffff8111156137b6576137b6613d0d565b60405190808252806020026020018201604052801561380157816020015b60408051606081018252600080825260208083018290529282015282526000199092019101816137d45790505b5090506000825b60018110613872578561381c6001836143ba565b8151811061382c5761382c6143cd565b6020026020010151838381518110613846576138466143cd565b6020026020010181905250818061385c90614625565b925050808061386a90614858565b915050613808565b5090949350505050565b6000613889848484611f83565b90506000828061389b5761389b6140c2565b84860911156103a95760001981106138b257600080fd5b6001019392505050565b806001600160801b03811681146138d257600080fd5b919050565b80516a636f6e736f6c652e6c6f67602083016000808483855afa5050505050565b80821061390457505050565b600161391083836143ba565b1161391a57505050565b8181600085600261392b8486614612565b61393591906140d8565b81518110613945576139456143cd565b602002602001015190505b818311613a71575b806000015160020b868481518110613972576139726143cd565b60200260200101516000015160020b1215613999578261399181614625565b935050613958565b806000015160020b8683815181106139b3576139b36143cd565b60200260200101516000015160020b13156139da57816139d281614858565b925050613999565b818311613a6c578582815181106139f3576139f36143cd565b6020026020010151868481518110613a0d57613a0d6143cd565b6020026020010151878581518110613a2757613a276143cd565b60200260200101888581518110613a4057613a406143cd565b6020026020010182905282905250508280613a5a90614625565b9350508180613a6890614858565b9250505b613950565b81851015613a8457613a848686846138f8565b83831015612dc457612dc48684866138f8565b6040518061028001604052806000815260200160008152602001600081526020016000815260200160006001600160a01b03168152602001600060020b815260200160006001600160a01b0316815260200160008152602001600081526020016000815260200160008152602001613b0d613b63565b815260200160006001600160a01b03168152602001600060020b8152602001600060020b8152602001600081526020016000815260200160006001600160801b0316815260200160608152602001606081525090565b604080516101a08101825260008082526020820181905291810182905260608082018390526080820183905260a0820183905260c0820183905260e0820183905261010082018390526101208201839052610140820183905261016082019290925261018081019190915290565b6001600160a01b0381168114613be657600080fd5b50565b8015158114613be657600080fd5b600080600060608486031215613c0c57600080fd5b8335613c1781613bd1565b9250602084013591506040840135613c2e81613be9565b809150509250925092565b60008060008060808587031215613c4f57600080fd5b8435613c5a81613be9565b93506020850135613c6a81613be9565b92506040850135613c7a81613be9565b9396929550929360600135925050565b600060208284031215613c9c57600080fd5b81356103a981613bd1565b8060020b8114613be657600080fd5b60008060408385031215613cc957600080fd5b8235613cd481613ca7565b91506020830135613ce481613be9565b809150509250929050565b60008060408385031215613d0257600080fd5b8235613cd481613bd1565b634e487b7160e01b600052604160045260246000fd5b6040516060810167ffffffffffffffff81118282101715613d4657613d46613d0d565b60405290565b6040516101a0810167ffffffffffffffff81118282101715613d4657613d46613d0d565b604051601f8201601f1916810167ffffffffffffffff81118282101715613d9957613d99613d0d565b604052919050565b600067ffffffffffffffff821115613dbb57613dbb613d0d565b5060051b60200190565b6001600160801b0381168114613be657600080fd5b600082601f830112613deb57600080fd5b81356020613e00613dfb83613da1565b613d70565b82815260609283028501820192828201919087851115613e1f57600080fd5b8387015b85811015613e785781818a031215613e3b5760008081fd5b613e43613d23565b8135613e4e81613ca7565b815281860135613e5d81613dc5565b81870152604082810135908201528452928401928101613e23565b5090979650505050505050565b60008060408385031215613e9857600080fd5b823567ffffffffffffffff811115613eaf57600080fd5b613ebb85828601613dda565b9250506020830135613ce481613be9565b60008060008060808587031215613ee257600080fd5b8435613eed81613be9565b93506020850135925060408501359150606085013567ffffffffffffffff811115613f1757600080fd5b613f2387828801613dda565b91505092959194509250565b600081518084526020808501945080840160005b83811015613f83578151805160020b88526020808201516001600160801b0316908901526040908101519088015260608701965090820190600101613f43565b509495945050505050565b80511515825260006101a06020830151613fb360208601826001600160a01b03169052565b5060408301516040850152606083015160608501526080830151608085015260a083015160a085015260c0830151613ff660c08601826001600160801b03169052565b5060e083015161401160e08601826001600160801b03169052565b50610100838101516001600160801b031690850152610120808401511515908501526101408084015163ffffffff9081169186019190915261016080850151909116908501526101808084015181860183905261138383870182613f2f565b6060815260006140836060830186613f8e565b60208301949094525060400152919050565b634e487b7160e01b600052601160045260246000fd5b80820281158282048414176111e5576111e5614095565b634e487b7160e01b600052601260045260246000fd5b6000826140e7576140e76140c2565b500490565b80516138d281613be9565b80516138d281613bd1565b80516138d281613dc5565b805163ffffffff811681146138d257600080fd5b600082601f83011261413257600080fd5b81516020614142613dfb83613da1565b8281526060928302850182019282820191908785111561416157600080fd5b8387015b85811015613e785781818a03121561417d5760008081fd5b614185613d23565b815161419081613ca7565b81528186015161419f81613dc5565b81870152604082810151908201528452928401928101614165565b6000602082840312156141cc57600080fd5b815167ffffffffffffffff808211156141e457600080fd5b908301906101a082860312156141f957600080fd5b614201613d4c565b61420a836140ec565b8152614218602084016140f7565b602082015260408301516040820152606083015160608201526080830151608082015260a083015160a082015261425160c08401614102565b60c082015261426260e08401614102565b60e0820152610100614275818501614102565b908201526101206142878482016140ec565b9082015261014061429984820161410d565b908201526101606142ab84820161410d565b9082015261018083810151838111156142c357600080fd5b6142cf88828701614121565b918301919091525095945050505050565b805161ffff811681146138d257600080fd5b600080600080600080600060e0888a03121561430d57600080fd5b875161431881613bd1565b602089015190975061432981613ca7565b9550614337604089016142e0565b9450614345606089016142e0565b9350614353608089016142e0565b925060a088015160ff8116811461436957600080fd5b60c089015190925061437a81613be9565b8091505092959891949750929550565b6020815260006103a96020830184613f8e565b6000602082840312156143af57600080fd5b81516103a981613dc5565b818103818111156111e5576111e5614095565b634e487b7160e01b600052603260045260246000fd5b600281810b9083900b01627fffff8113627fffff19821217156111e5576111e5614095565b60208082526004908201526321706f7360e01b604082015260600190565b6001600160a01b039384168152919092166020820152604081019190915260600190565b60006020828403121561445c57600080fd5b81516103a981613be9565b60408152600061447a6040830185613f2f565b90508260208301529392505050565b6001600160a01b03929092168252602082015260400190565b60208152600060018060a01b0380845116602084015260208401511515604084015260408401511515606084015280606085015116608084015250608083015160a0808401526111e160c0840182613f8e565b6020815260006103a96020830184613f2f565b60006020828403121561451a57600080fd5b815167ffffffffffffffff81111561453157600080fd5b6111e184828501614121565b6040815260006145506040830185613f2f565b90508260020b60208301529392505050565b60006020828403121561457457600080fd5b5051919050565b81516001600160a01b03908116825260208084015190911690820152604080830151151590820152606080830151151590820152608081016111e5565b60008160020b8360020b806145cf576145cf6140c2565b627fffff198214600019821416156145e9576145e9614095565b90059392505050565b60008260020b8260020b028060020b91508082146114e5576114e5614095565b808201808211156111e5576111e5614095565b60006001820161463757614637614095565b5060010190565b600282810b9082900b03627fffff198112627fffff821317156111e5576111e5614095565b6000806000806080858703121561467957600080fd5b845161468481613ca7565b602086015190945061469581613ca7565b60408601516060870151919450925067ffffffffffffffff8111156146b957600080fd5b613f2387828801614121565b6080815260006146d86080830187613f2f565b9415156020830152509115156040830152606090910152919050565b6001600160801b038281168282160390808211156114e5576114e5614095565b6001600160801b038181168382160190808211156114e5576114e5614095565b6001600160a01b038281168282160390808211156114e5576114e5614095565b606081526000845180606084015260005b818110156147825760208188018101516080868401015201614765565b506000608082850101526080601f19601f830116840101915050836020830152826040830152949350505050565b600080604083850312156147c357600080fd5b82516147ce81613be9565b8092505060208084015167ffffffffffffffff8111156147ed57600080fd5b8401601f810186136147fe57600080fd5b805161480c613dfb82613da1565b81815260059190911b8201830190838101908883111561482b57600080fd5b928401925b8284101561484957835182529284019290840190614830565b80955050505050509250929050565b60008161486757614867614095565b50600019019056fea26469706673582212209915a0bf1cccbf3edfaa82f66f444b3ff0b989e037bb4b7000b3a8dfae5a745264736f6c63430008110033",
    "linkReferences": {}
  },
  "methodIdentifiers": {
    "INTEREST_REPLENISH_TIME()": "9aa886da",
    "addBorrowPosition(bool,uint256,uint256,(int24,uint128,uint256)[])": "997124c6",
    "applySlippageX96(uint160,uint256,bool)": "207b0576",
    "getFilledAmount((int24,uint128,uint256)[],bool)": "786afbcc",
    "globalStorage()": "6502072a",
    "liquidityManager()": "33827438",
    "payPremium(address,bool)": "3e45c92f",
    "pool()": "16f0115b",
    "precision()": "d3b5dc3b",
    "reduceBorrowPosition(bool,bool,bool,uint256)": "223aa77d",
    "roundTick(int24,bool)": "3dc306ee",
    "setLiquidityManager(address)": "3c1624d4",
    "tickSpacing()": "d0c93a7c",
    "token0()": "0dfe1681",
    "token1()": "d21220a7"
  },
  "id": 35
}