{
  "abi": [
    {
      "inputs": [],
      "stateMutability": "nonpayable",
      "type": "constructor"
    },
    {
      "anonymous": false,
      "inputs": [
        {
          "indexed": true,
          "internalType": "address",
          "name": "owner",
          "type": "address"
        },
        {
          "indexed": true,
          "internalType": "address",
          "name": "approved",
          "type": "address"
        },
        {
          "indexed": true,
          "internalType": "uint256",
          "name": "tokenId",
          "type": "uint256"
        }
      ],
      "name": "Approval",
      "type": "event"
    },
    {
      "anonymous": false,
      "inputs": [
        {
          "indexed": true,
          "internalType": "address",
          "name": "owner",
          "type": "address"
        },
        {
          "indexed": true,
          "internalType": "address",
          "name": "operator",
          "type": "address"
        },
        {
          "indexed": false,
          "internalType": "bool",
          "name": "approved",
          "type": "bool"
        }
      ],
      "name": "ApprovalForAll",
      "type": "event"
    },
    {
      "anonymous": false,
      "inputs": [
        {
          "indexed": true,
          "internalType": "address",
          "name": "from",
          "type": "address"
        },
        {
          "indexed": true,
          "internalType": "address",
          "name": "to",
          "type": "address"
        },
        {
          "indexed": true,
          "internalType": "uint256",
          "name": "tokenId",
          "type": "uint256"
        }
      ],
      "name": "Transfer",
      "type": "event"
    },
    {
      "inputs": [
        {
          "components": [
            {
              "internalType": "address",
              "name": "pool",
              "type": "address"
            },
            {
              "internalType": "address",
              "name": "trader",
              "type": "address"
            },
            {
              "internalType": "bool",
              "name": "isToken0",
              "type": "bool"
            },
            {
              "internalType": "bool",
              "name": "isBorrow",
              "type": "bool"
            }
          ],
          "internalType": "struct GlobalStorage.ActivatePositionParams",
          "name": "params",
          "type": "tuple"
        }
      ],
      "name": "activatePosition",
      "outputs": [
        {
          "internalType": "bytes32",
          "name": "positionId",
          "type": "bytes32"
        }
      ],
      "stateMutability": "nonpayable",
      "type": "function"
    },
    {
      "inputs": [
        {
          "components": [
            {
              "internalType": "address",
              "name": "trader",
              "type": "address"
            },
            {
              "internalType": "bool",
              "name": "isToken0",
              "type": "bool"
            },
            {
              "internalType": "bool",
              "name": "isBorrow",
              "type": "bool"
            },
            {
              "internalType": "address",
              "name": "pool",
              "type": "address"
            },
            {
              "components": [
                {
                  "internalType": "bool",
                  "name": "isBorrow",
                  "type": "bool"
                },
                {
                  "internalType": "address",
                  "name": "pool",
                  "type": "address"
                },
                {
                  "internalType": "uint256",
                  "name": "totalPosition",
                  "type": "uint256"
                },
                {
                  "internalType": "uint256",
                  "name": "totalDebt",
                  "type": "uint256"
                },
                {
                  "internalType": "uint256",
                  "name": "totalDebtInput",
                  "type": "uint256"
                },
                {
                  "internalType": "uint256",
                  "name": "initCollateral",
                  "type": "uint256"
                },
                {
                  "internalType": "uint128",
                  "name": "recentPremium",
                  "type": "uint128"
                },
                {
                  "internalType": "uint128",
                  "name": "totalPremium",
                  "type": "uint128"
                },
                {
                  "internalType": "uint128",
                  "name": "unusedPremium",
                  "type": "uint128"
                },
                {
                  "internalType": "bool",
                  "name": "isToken0",
                  "type": "bool"
                },
                {
                  "internalType": "uint32",
                  "name": "openTime",
                  "type": "uint32"
                },
                {
                  "internalType": "uint32",
                  "name": "repayTime",
                  "type": "uint32"
                },
                {
                  "components": [
                    {
                      "internalType": "int24",
                      "name": "tick",
                      "type": "int24"
                    },
                    {
                      "internalType": "uint128",
                      "name": "liquidity",
                      "type": "uint128"
                    },
                    {
                      "internalType": "uint256",
                      "name": "premiumOrUrate",
                      "type": "uint256"
                    }
                  ],
                  "internalType": "struct LiquidityManager.Liquidity[]",
                  "name": "borrowInfo",
                  "type": "tuple[]"
                }
              ],
              "internalType": "struct GlobalStorage.Position",
              "name": "position",
              "type": "tuple"
            }
          ],
          "internalType": "struct GlobalStorage.UpdatePositionParams",
          "name": "params",
          "type": "tuple"
        }
      ],
      "name": "addPositionUpdate",
      "outputs": [
        {
          "components": [
            {
              "internalType": "bool",
              "name": "isBorrow",
              "type": "bool"
            },
            {
              "internalType": "address",
              "name": "pool",
              "type": "address"
            },
            {
              "internalType": "uint256",
              "name": "totalPosition",
              "type": "uint256"
            },
            {
              "internalType": "uint256",
              "name": "totalDebt",
              "type": "uint256"
            },
            {
              "internalType": "uint256",
              "name": "totalDebtInput",
              "type": "uint256"
            },
            {
              "internalType": "uint256",
              "name": "initCollateral",
              "type": "uint256"
            },
            {
              "internalType": "uint128",
              "name": "recentPremium",
              "type": "uint128"
            },
            {
              "internalType": "uint128",
              "name": "totalPremium",
              "type": "uint128"
            },
            {
              "internalType": "uint128",
              "name": "unusedPremium",
              "type": "uint128"
            },
            {
              "internalType": "bool",
              "name": "isToken0",
              "type": "bool"
            },
            {
              "internalType": "uint32",
              "name": "openTime",
              "type": "uint32"
            },
            {
              "internalType": "uint32",
              "name": "repayTime",
              "type": "uint32"
            },
            {
              "components": [
                {
                  "internalType": "int24",
                  "name": "tick",
                  "type": "int24"
                },
                {
                  "internalType": "uint128",
                  "name": "liquidity",
                  "type": "uint128"
                },
                {
                  "internalType": "uint256",
                  "name": "premiumOrUrate",
                  "type": "uint256"
                }
              ],
              "internalType": "struct LiquidityManager.Liquidity[]",
              "name": "borrowInfo",
              "type": "tuple[]"
            }
          ],
          "internalType": "struct GlobalStorage.Position",
          "name": "position",
          "type": "tuple"
        }
      ],
      "stateMutability": "nonpayable",
      "type": "function"
    },
    {
      "inputs": [
        {
          "internalType": "address",
          "name": "to",
          "type": "address"
        },
        {
          "internalType": "uint256",
          "name": "tokenId",
          "type": "uint256"
        }
      ],
      "name": "approve",
      "outputs": [],
      "stateMutability": "nonpayable",
      "type": "function"
    },
    {
      "inputs": [
        {
          "internalType": "address",
          "name": "owner",
          "type": "address"
        }
      ],
      "name": "balanceOf",
      "outputs": [
        {
          "internalType": "uint256",
          "name": "",
          "type": "uint256"
        }
      ],
      "stateMutability": "view",
      "type": "function"
    },
    {
      "inputs": [],
      "name": "borrowManagerFactory",
      "outputs": [
        {
          "internalType": "contract BorrowManagerFactory",
          "name": "",
          "type": "address"
        }
      ],
      "stateMutability": "view",
      "type": "function"
    },
    {
      "inputs": [
        {
          "internalType": "address",
          "name": "leverageManager",
          "type": "address"
        },
        {
          "internalType": "address",
          "name": "trader",
          "type": "address"
        },
        {
          "internalType": "bool",
          "name": "isToken0",
          "type": "bool"
        }
      ],
      "name": "computeId",
      "outputs": [
        {
          "internalType": "bytes32",
          "name": "tokenId",
          "type": "bytes32"
        }
      ],
      "stateMutability": "view",
      "type": "function"
    },
    {
      "inputs": [
        {
          "internalType": "address",
          "name": "pool",
          "type": "address"
        }
      ],
      "name": "createPoolManagers",
      "outputs": [],
      "stateMutability": "nonpayable",
      "type": "function"
    },
    {
      "inputs": [
        {
          "components": [
            {
              "internalType": "address",
              "name": "pool",
              "type": "address"
            },
            {
              "internalType": "address",
              "name": "trader",
              "type": "address"
            },
            {
              "internalType": "bool",
              "name": "isToken0",
              "type": "bool"
            },
            {
              "internalType": "bool",
              "name": "isBorrow",
              "type": "bool"
            }
          ],
          "internalType": "struct GlobalStorage.DeletePositionParams",
          "name": "params",
          "type": "tuple"
        }
      ],
      "name": "deletePosition",
      "outputs": [],
      "stateMutability": "nonpayable",
      "type": "function"
    },
    {
      "inputs": [
        {
          "internalType": "uint256",
          "name": "tokenId",
          "type": "uint256"
        }
      ],
      "name": "getApproved",
      "outputs": [
        {
          "internalType": "address",
          "name": "",
          "type": "address"
        }
      ],
      "stateMutability": "view",
      "type": "function"
    },
    {
      "inputs": [
        {
          "internalType": "address",
          "name": "manager",
          "type": "address"
        },
        {
          "internalType": "address",
          "name": "trader",
          "type": "address"
        },
        {
          "internalType": "bool",
          "name": "isToken0",
          "type": "bool"
        }
      ],
      "name": "getPosition",
      "outputs": [
        {
          "components": [
            {
              "internalType": "address",
              "name": "token0",
              "type": "address"
            },
            {
              "internalType": "address",
              "name": "token1",
              "type": "address"
            },
            {
              "internalType": "uint24",
              "name": "fee",
              "type": "uint24"
            }
          ],
          "internalType": "struct GlobalStorage.LimitlessKey",
          "name": "key",
          "type": "tuple"
        },
        {
          "components": [
            {
              "internalType": "bool",
              "name": "isBorrow",
              "type": "bool"
            },
            {
              "internalType": "address",
              "name": "pool",
              "type": "address"
            },
            {
              "internalType": "uint256",
              "name": "totalPosition",
              "type": "uint256"
            },
            {
              "internalType": "uint256",
              "name": "totalDebt",
              "type": "uint256"
            },
            {
              "internalType": "uint256",
              "name": "totalDebtInput",
              "type": "uint256"
            },
            {
              "internalType": "uint256",
              "name": "initCollateral",
              "type": "uint256"
            },
            {
              "internalType": "uint128",
              "name": "recentPremium",
              "type": "uint128"
            },
            {
              "internalType": "uint128",
              "name": "totalPremium",
              "type": "uint128"
            },
            {
              "internalType": "uint128",
              "name": "unusedPremium",
              "type": "uint128"
            },
            {
              "internalType": "bool",
              "name": "isToken0",
              "type": "bool"
            },
            {
              "internalType": "uint32",
              "name": "openTime",
              "type": "uint32"
            },
            {
              "internalType": "uint32",
              "name": "repayTime",
              "type": "uint32"
            },
            {
              "components": [
                {
                  "internalType": "int24",
                  "name": "tick",
                  "type": "int24"
                },
                {
                  "internalType": "uint128",
                  "name": "liquidity",
                  "type": "uint128"
                },
                {
                  "internalType": "uint256",
                  "name": "premiumOrUrate",
                  "type": "uint256"
                }
              ],
              "internalType": "struct LiquidityManager.Liquidity[]",
              "name": "borrowInfo",
              "type": "tuple[]"
            }
          ],
          "internalType": "struct GlobalStorage.Position",
          "name": "position",
          "type": "tuple"
        }
      ],
      "stateMutability": "view",
      "type": "function"
    },
    {
      "inputs": [
        {
          "internalType": "uint256",
          "name": "tokenId",
          "type": "uint256"
        }
      ],
      "name": "getPositionFromId",
      "outputs": [
        {
          "components": [
            {
              "internalType": "address",
              "name": "token0",
              "type": "address"
            },
            {
              "internalType": "address",
              "name": "token1",
              "type": "address"
            },
            {
              "internalType": "uint24",
              "name": "fee",
              "type": "uint24"
            }
          ],
          "internalType": "struct GlobalStorage.LimitlessKey",
          "name": "key",
          "type": "tuple"
        },
        {
          "components": [
            {
              "internalType": "bool",
              "name": "isBorrow",
              "type": "bool"
            },
            {
              "internalType": "address",
              "name": "pool",
              "type": "address"
            },
            {
              "internalType": "uint256",
              "name": "totalPosition",
              "type": "uint256"
            },
            {
              "internalType": "uint256",
              "name": "totalDebt",
              "type": "uint256"
            },
            {
              "internalType": "uint256",
              "name": "totalDebtInput",
              "type": "uint256"
            },
            {
              "internalType": "uint256",
              "name": "initCollateral",
              "type": "uint256"
            },
            {
              "internalType": "uint128",
              "name": "recentPremium",
              "type": "uint128"
            },
            {
              "internalType": "uint128",
              "name": "totalPremium",
              "type": "uint128"
            },
            {
              "internalType": "uint128",
              "name": "unusedPremium",
              "type": "uint128"
            },
            {
              "internalType": "bool",
              "name": "isToken0",
              "type": "bool"
            },
            {
              "internalType": "uint32",
              "name": "openTime",
              "type": "uint32"
            },
            {
              "internalType": "uint32",
              "name": "repayTime",
              "type": "uint32"
            },
            {
              "components": [
                {
                  "internalType": "int24",
                  "name": "tick",
                  "type": "int24"
                },
                {
                  "internalType": "uint128",
                  "name": "liquidity",
                  "type": "uint128"
                },
                {
                  "internalType": "uint256",
                  "name": "premiumOrUrate",
                  "type": "uint256"
                }
              ],
              "internalType": "struct LiquidityManager.Liquidity[]",
              "name": "borrowInfo",
              "type": "tuple[]"
            }
          ],
          "internalType": "struct GlobalStorage.Position",
          "name": "position",
          "type": "tuple"
        }
      ],
      "stateMutability": "view",
      "type": "function"
    },
    {
      "inputs": [
        {
          "internalType": "address",
          "name": "_leverageManagerFactory",
          "type": "address"
        },
        {
          "internalType": "address",
          "name": "_liquidityManagerFactory",
          "type": "address"
        },
        {
          "internalType": "address",
          "name": "_borrowManagerFactory",
          "type": "address"
        },
        {
          "internalType": "address",
          "name": "_uniswapV3Factory",
          "type": "address"
        }
      ],
      "name": "initialize",
      "outputs": [],
      "stateMutability": "nonpayable",
      "type": "function"
    },
    {
      "inputs": [
        {
          "internalType": "address",
          "name": "owner",
          "type": "address"
        },
        {
          "internalType": "address",
          "name": "operator",
          "type": "address"
        }
      ],
      "name": "isApprovedForAll",
      "outputs": [
        {
          "internalType": "bool",
          "name": "",
          "type": "bool"
        }
      ],
      "stateMutability": "view",
      "type": "function"
    },
    {
      "inputs": [],
      "name": "leverageManagerFactory",
      "outputs": [
        {
          "internalType": "contract LeverageManagerFactory",
          "name": "",
          "type": "address"
        }
      ],
      "stateMutability": "view",
      "type": "function"
    },
    {
      "inputs": [],
      "name": "liquidityManagerFactory",
      "outputs": [
        {
          "internalType": "contract LiquidityManagerFactory",
          "name": "",
          "type": "address"
        }
      ],
      "stateMutability": "view",
      "type": "function"
    },
    {
      "inputs": [],
      "name": "name",
      "outputs": [
        {
          "internalType": "string",
          "name": "",
          "type": "string"
        }
      ],
      "stateMutability": "view",
      "type": "function"
    },
    {
      "inputs": [
        {
          "internalType": "uint256",
          "name": "tokenId",
          "type": "uint256"
        }
      ],
      "name": "ownerOf",
      "outputs": [
        {
          "internalType": "address",
          "name": "",
          "type": "address"
        }
      ],
      "stateMutability": "view",
      "type": "function"
    },
    {
      "inputs": [
        {
          "internalType": "address",
          "name": "",
          "type": "address"
        }
      ],
      "name": "poolData",
      "outputs": [
        {
          "internalType": "address",
          "name": "leverageManager",
          "type": "address"
        },
        {
          "internalType": "address",
          "name": "liquidityManager",
          "type": "address"
        },
        {
          "internalType": "address",
          "name": "borrowManager",
          "type": "address"
        },
        {
          "internalType": "address",
          "name": "interestManager",
          "type": "address"
        }
      ],
      "stateMutability": "view",
      "type": "function"
    },
    {
      "inputs": [
        {
          "internalType": "address",
          "name": "manager",
          "type": "address"
        },
        {
          "internalType": "address",
          "name": "trader",
          "type": "address"
        },
        {
          "internalType": "bool",
          "name": "isToken0",
          "type": "bool"
        }
      ],
      "name": "positions",
      "outputs": [
        {
          "components": [
            {
              "internalType": "bool",
              "name": "isBorrow",
              "type": "bool"
            },
            {
              "internalType": "address",
              "name": "pool",
              "type": "address"
            },
            {
              "internalType": "uint256",
              "name": "totalPosition",
              "type": "uint256"
            },
            {
              "internalType": "uint256",
              "name": "totalDebt",
              "type": "uint256"
            },
            {
              "internalType": "uint256",
              "name": "totalDebtInput",
              "type": "uint256"
            },
            {
              "internalType": "uint256",
              "name": "initCollateral",
              "type": "uint256"
            },
            {
              "internalType": "uint128",
              "name": "recentPremium",
              "type": "uint128"
            },
            {
              "internalType": "uint128",
              "name": "totalPremium",
              "type": "uint128"
            },
            {
              "internalType": "uint128",
              "name": "unusedPremium",
              "type": "uint128"
            },
            {
              "internalType": "bool",
              "name": "isToken0",
              "type": "bool"
            },
            {
              "internalType": "uint32",
              "name": "openTime",
              "type": "uint32"
            },
            {
              "internalType": "uint32",
              "name": "repayTime",
              "type": "uint32"
            },
            {
              "components": [
                {
                  "internalType": "int24",
                  "name": "tick",
                  "type": "int24"
                },
                {
                  "internalType": "uint128",
                  "name": "liquidity",
                  "type": "uint128"
                },
                {
                  "internalType": "uint256",
                  "name": "premiumOrUrate",
                  "type": "uint256"
                }
              ],
              "internalType": "struct LiquidityManager.Liquidity[]",
              "name": "borrowInfo",
              "type": "tuple[]"
            }
          ],
          "internalType": "struct GlobalStorage.Position",
          "name": "position",
          "type": "tuple"
        }
      ],
      "stateMutability": "view",
      "type": "function"
    },
    {
      "inputs": [
        {
          "components": [
            {
              "internalType": "address",
              "name": "trader",
              "type": "address"
            },
            {
              "internalType": "bool",
              "name": "isToken0",
              "type": "bool"
            },
            {
              "internalType": "bool",
              "name": "isBorrow",
              "type": "bool"
            },
            {
              "internalType": "address",
              "name": "pool",
              "type": "address"
            },
            {
              "internalType": "uint256",
              "name": "recentPremium",
              "type": "uint256"
            },
            {
              "internalType": "uint256",
              "name": "unusedPremium",
              "type": "uint256"
            },
            {
              "internalType": "uint256",
              "name": "totalPremium",
              "type": "uint256"
            }
          ],
          "internalType": "struct GlobalStorage.PremiumUpdateParams",
          "name": "params",
          "type": "tuple"
        }
      ],
      "name": "premiumUpdate",
      "outputs": [],
      "stateMutability": "nonpayable",
      "type": "function"
    },
    {
      "inputs": [
        {
          "components": [
            {
              "internalType": "address",
              "name": "trader",
              "type": "address"
            },
            {
              "internalType": "bool",
              "name": "isToken0",
              "type": "bool"
            },
            {
              "internalType": "bool",
              "name": "isBorrow",
              "type": "bool"
            },
            {
              "internalType": "address",
              "name": "pool",
              "type": "address"
            },
            {
              "components": [
                {
                  "internalType": "bool",
                  "name": "isBorrow",
                  "type": "bool"
                },
                {
                  "internalType": "address",
                  "name": "pool",
                  "type": "address"
                },
                {
                  "internalType": "uint256",
                  "name": "totalPosition",
                  "type": "uint256"
                },
                {
                  "internalType": "uint256",
                  "name": "totalDebt",
                  "type": "uint256"
                },
                {
                  "internalType": "uint256",
                  "name": "totalDebtInput",
                  "type": "uint256"
                },
                {
                  "internalType": "uint256",
                  "name": "initCollateral",
                  "type": "uint256"
                },
                {
                  "internalType": "uint128",
                  "name": "recentPremium",
                  "type": "uint128"
                },
                {
                  "internalType": "uint128",
                  "name": "totalPremium",
                  "type": "uint128"
                },
                {
                  "internalType": "uint128",
                  "name": "unusedPremium",
                  "type": "uint128"
                },
                {
                  "internalType": "bool",
                  "name": "isToken0",
                  "type": "bool"
                },
                {
                  "internalType": "uint32",
                  "name": "openTime",
                  "type": "uint32"
                },
                {
                  "internalType": "uint32",
                  "name": "repayTime",
                  "type": "uint32"
                },
                {
                  "components": [
                    {
                      "internalType": "int24",
                      "name": "tick",
                      "type": "int24"
                    },
                    {
                      "internalType": "uint128",
                      "name": "liquidity",
                      "type": "uint128"
                    },
                    {
                      "internalType": "uint256",
                      "name": "premiumOrUrate",
                      "type": "uint256"
                    }
                  ],
                  "internalType": "struct LiquidityManager.Liquidity[]",
                  "name": "borrowInfo",
                  "type": "tuple[]"
                }
              ],
              "internalType": "struct GlobalStorage.Position",
              "name": "position",
              "type": "tuple"
            }
          ],
          "internalType": "struct GlobalStorage.UpdatePositionParams",
          "name": "params",
          "type": "tuple"
        }
      ],
      "name": "reducePositionUpdate",
      "outputs": [],
      "stateMutability": "nonpayable",
      "type": "function"
    },
    {
      "inputs": [
        {
          "internalType": "address",
          "name": "from",
          "type": "address"
        },
        {
          "internalType": "address",
          "name": "to",
          "type": "address"
        },
        {
          "internalType": "uint256",
          "name": "tokenId",
          "type": "uint256"
        }
      ],
      "name": "safeTransferFrom",
      "outputs": [],
      "stateMutability": "nonpayable",
      "type": "function"
    },
    {
      "inputs": [
        {
          "internalType": "address",
          "name": "from",
          "type": "address"
        },
        {
          "internalType": "address",
          "name": "to",
          "type": "address"
        },
        {
          "internalType": "uint256",
          "name": "tokenId",
          "type": "uint256"
        },
        {
          "internalType": "bytes",
          "name": "data",
          "type": "bytes"
        }
      ],
      "name": "safeTransferFrom",
      "outputs": [],
      "stateMutability": "nonpayable",
      "type": "function"
    },
    {
      "inputs": [
        {
          "internalType": "address",
          "name": "operator",
          "type": "address"
        },
        {
          "internalType": "bool",
          "name": "approved",
          "type": "bool"
        }
      ],
      "name": "setApprovalForAll",
      "outputs": [],
      "stateMutability": "nonpayable",
      "type": "function"
    },
    {
      "inputs": [
        {
          "internalType": "bytes4",
          "name": "interfaceId",
          "type": "bytes4"
        }
      ],
      "name": "supportsInterface",
      "outputs": [
        {
          "internalType": "bool",
          "name": "",
          "type": "bool"
        }
      ],
      "stateMutability": "view",
      "type": "function"
    },
    {
      "inputs": [],
      "name": "symbol",
      "outputs": [
        {
          "internalType": "string",
          "name": "",
          "type": "string"
        }
      ],
      "stateMutability": "view",
      "type": "function"
    },
    {
      "inputs": [
        {
          "internalType": "uint256",
          "name": "index",
          "type": "uint256"
        }
      ],
      "name": "tokenByIndex",
      "outputs": [
        {
          "internalType": "uint256",
          "name": "",
          "type": "uint256"
        }
      ],
      "stateMutability": "view",
      "type": "function"
    },
    {
      "inputs": [
        {
          "internalType": "address",
          "name": "owner",
          "type": "address"
        },
        {
          "internalType": "uint256",
          "name": "index",
          "type": "uint256"
        }
      ],
      "name": "tokenOfOwnerByIndex",
      "outputs": [
        {
          "internalType": "uint256",
          "name": "",
          "type": "uint256"
        }
      ],
      "stateMutability": "view",
      "type": "function"
    },
    {
      "inputs": [
        {
          "internalType": "uint256",
          "name": "tokenId",
          "type": "uint256"
        }
      ],
      "name": "tokenURI",
      "outputs": [
        {
          "internalType": "string",
          "name": "",
          "type": "string"
        }
      ],
      "stateMutability": "view",
      "type": "function"
    },
    {
      "inputs": [],
      "name": "totalSupply",
      "outputs": [
        {
          "internalType": "uint256",
          "name": "",
          "type": "uint256"
        }
      ],
      "stateMutability": "view",
      "type": "function"
    },
    {
      "inputs": [
        {
          "internalType": "address",
          "name": "from",
          "type": "address"
        },
        {
          "internalType": "address",
          "name": "to",
          "type": "address"
        },
        {
          "internalType": "uint256",
          "name": "tokenId",
          "type": "uint256"
        }
      ],
      "name": "transferFrom",
      "outputs": [],
      "stateMutability": "nonpayable",
      "type": "function"
    },
    {
      "inputs": [],
      "name": "uniswapV3Factory",
      "outputs": [
        {
          "internalType": "contract UniswapV3Factory",
          "name": "",
          "type": "address"
        }
      ],
      "stateMutability": "view",
      "type": "function"
    }
  ],
  "bytecode": {
    "object": "0x608060405260016014819055601580546001600160501b03191690911790553480156200002b57600080fd5b506040518060400160405280601d81526020017f4c696d69746c65737320563120506f736974696f6e73204e46542d56300000008152506040518060400160405280600a8152602001694c4d542d56312d504f5360b01b815250816000908162000096919062000153565b506001620000a5828262000153565b5050506200021f565b634e487b7160e01b600052604160045260246000fd5b600181811c90821680620000d957607f821691505b602082108103620000fa57634e487b7160e01b600052602260045260246000fd5b50919050565b601f8211156200014e57600081815260208120601f850160051c81016020861015620001295750805b601f850160051c820191505b818110156200014a5782815560010162000135565b5050505b505050565b81516001600160401b038111156200016f576200016f620000ae565b6200018781620001808454620000c4565b8462000100565b602080601f831160018114620001bf5760008415620001a65750858301515b600019600386901b1c1916600185901b1785556200014a565b600085815260208120601f198616915b82811015620001f057888601518255948401946001909101908401620001cf565b50858210156200020f5787850151600019600388901b60f8161c191681555b5050505050600190811b01905550565b61389b806200022f6000396000f3fe608060405234801561001057600080fd5b50600436106101f05760003560e01c80635fda36d81161010f578063a7283be3116100a2578063c87b56dd11610071578063c87b56dd146104af578063d9562ec7146104c2578063e985e9c5146104d5578063f8c8765e1461051157600080fd5b8063a7283be314610463578063b19e259014610476578063b88d4fde14610489578063b96b83c21461049c57600080fd5b8063750ff6b5116100de578063750ff6b5146104155780638c1395f81461043557806395d89b4114610448578063a22cb4651461045057600080fd5b80635fda36d8146103bb5780636352211e146103dc57806370a08231146103ef578063732de2091461040257600080fd5b80632f745c59116101875780634cbb9938116101565780634cbb99381461036f5780634f6ccce7146103825780635b549182146103955780635bae3c05146103a857600080fd5b80632f745c59146103235780633a5177df1461033657806342842e0e1461034957806346bd03631461035c57600080fd5b8063095ea7b3116101c3578063095ea7b314610272578063136efb7a1461028557806318160ddd146102fe57806323b872dd1461031057600080fd5b806301ffc9a7146101f557806306fdde031461021d578063081812fc146102325780630850d0e91461025d575b600080fd5b610208610203366004612e15565b61056f565b60405190151581526020015b60405180910390f35b61022561059a565b6040516102149190612e82565b610245610240366004612e95565b61062c565b6040516001600160a01b039091168152602001610214565b61027061026b366004612eae565b610653565b005b610270610280366004612efe565b61092c565b6102cb610293366004612f2a565b600a6020526000908152604090208054600182015460028301546003909301546001600160a01b039283169391831692918216911684565b604080516001600160a01b0395861681529385166020850152918416918301919091529091166060820152608001610214565b6008545b604051908152602001610214565b61027061031e366004612f47565b610a41565b610302610331366004612efe565b610a72565b610270610344366004613068565b610b08565b610270610357366004612f47565b610c0f565b61030261036a366004613068565b610c2a565b61030261037d366004613084565b610d32565b610302610390366004612e95565b610d88565b600e54610245906001600160a01b031681565b600d54610245906001600160a01b031681565b6103ce6103c9366004612e95565b610e1b565b604051610214929190613214565b6102456103ea366004612e95565b611115565b6103026103fd366004612f2a565b611175565b600b54610245906001600160a01b031681565b610428610423366004613084565b6111fb565b6040516102149190613253565b6103ce610443366004613084565b61136a565b61022561166c565b61027061045e366004613266565b61167b565b610270610471366004612f2a565b61168a565b610428610484366004612eae565b611b6f565b61027061049736600461329b565b6120b6565b600c54610245906001600160a01b031681565b6102256104bd366004612e95565b6120e8565b6102706104d036600461335f565b61215c565b6102086104e3366004613403565b6001600160a01b03918216600090815260056020908152604080832093909416825291909152205460ff1690565b61027061051f36600461343c565b600c80546001600160a01b039586166001600160a01b031991821617909155600d805494861694821694909417909355600b805492851692841692909217909155600e8054919093169116179055565b60006001600160e01b0319821663780e9d6360e01b1480610594575061059482612267565b92915050565b6060600080546105a990613498565b80601f01602080910402602001604051908101604052809291908181526020018280546105d590613498565b80156106225780601f106105f757610100808354040283529160200191610622565b820191906000526020600020905b81548152906001019060200180831161060557829003601f168201915b5050505050905090565b6000610637826122b7565b506000908152600460205260409020546001600160a01b031690565b6106636080820160608301612f2a565b61067360608301604084016134d2565b8061069a576001600160a01b038281166000908152600a60205260409020541633146106bb565b6001600160a01b038281166000908152600a60205260409020600201541633145b6106e05760405162461bcd60e51b81526004016106d7906134ed565b60405180910390fd5b6000610703336106f36020870187612f2a565b61037d60408801602089016134d2565b90506107126080850185613512565b6107249061010081019060e001613548565b600082815260106020526040902060050180546001600160801b03928316600160801b02921691909117905561075d6080850185613512565b600082815260106020526040908190209101356001909101556107836080850185613512565b6000828152601060205260409020606091909101356002909101556107ab6080850185613512565b60008281526010602052604090206080918201356003909101556107d190850185613512565b600082815260106020526040812060a0929092013560048301556006820180546001600160801b03191690556005820155600701541561082857600081815260106020526040812061082891600790910190612d3a565b60005b6108386080860186613512565b61084790610180810190613565565b905081101561092557600061085f6080870187613512565b61086e90610180810190613565565b8381811061087e5761087e6135b5565b90506060020160200160208101906108969190613548565b6001600160801b031611156109135760008281526010602052604090206007016108c36080870187613512565b6108d290610180810190613565565b838181106108e2576108e26135b5565b83546001810185556000948552602090942060609091029290920192600202909101905061091082826135cb565b50505b8061091d81613658565b91505061082b565b5050505050565b600061093782611115565b9050806001600160a01b0316836001600160a01b0316036109a45760405162461bcd60e51b815260206004820152602160248201527f4552433732313a20617070726f76616c20746f2063757272656e74206f776e656044820152603960f91b60648201526084016106d7565b336001600160a01b03821614806109c057506109c081336104e3565b610a325760405162461bcd60e51b815260206004820152603d60248201527f4552433732313a20617070726f76652063616c6c6572206973206e6f7420746f60448201527f6b656e206f776e6572206f7220617070726f76656420666f7220616c6c00000060648201526084016106d7565b610a3c8383612319565b505050565b610a4b3382612387565b610a675760405162461bcd60e51b81526004016106d790613671565b610a3c838383612406565b6000610a7d83611175565b8210610adf5760405162461bcd60e51b815260206004820152602b60248201527f455243373231456e756d657261626c653a206f776e657220696e646578206f7560448201526a74206f6620626f756e647360a81b60648201526084016106d7565b506001600160a01b03919091166000908152600660209081526040808320938352929052205490565b8051606082015180610b36576001600160a01b038281166000908152600a6020526040902054163314610b57565b6001600160a01b038281166000908152600a60205260409020600201541633145b610b735760405162461bcd60e51b81526004016106d7906134ed565b6000610b883385602001518660400151610d32565b60008181526012602052604081205491925003610ba55750505050565b6000818152601060205260408120600181018290556002810182905560038101829055600481018290556005810182905560068101805478ffffffffffffffff00ffffffffffffffffffffffffffffffff19169055610c0991600790910190612d3a565b50505050565b610a3c838383604051806020016040528060008152506120b6565b60008160000151826060015180610c5d576001600160a01b038281166000908152600a6020526040902054163314610c7e565b6001600160a01b038281166000908152600a60205260409020600201541633145b610c9a5760405162461bcd60e51b81526004016106d7906134ed565b610cad3385602001518660400151610d32565b60008181526012602052604081205491945003610d2b57610cd48460200151601454612577565b60608401516000848152601060209081526040808320805460ff19169415159490941790935560148054835260118252838320879055805487845260129092529282208190559190610d2583613658565b91905055505b5050919050565b6040516bffffffffffffffffffffffff19606085811b8216602084015284901b16603482015281151560f81b60488201526000906049016040516020818303038152906040528051906020012090509392505050565b6000610d9360085490565b8210610df65760405162461bcd60e51b815260206004820152602c60248201527f455243373231456e756d657261626c653a20676c6f62616c20696e646578206f60448201526b7574206f6620626f756e647360a01b60648201526084016106d7565b60088281548110610e0957610e096135b5565b90600052602060002001549050919050565b6040805160608101825260008082526020820181905291810191909152610e40612d5b565b60008381526011602090815260408083205483526010825280832081516101a081018352815460ff808216151583526001600160a01b036101009283900416838701526001840154838601526002840154606084015260038401546080840152600484015460a084015260058401546001600160801b0380821660c0860152600160801b91829004811660e0860152600686015490811693850193909352820416151561012083015263ffffffff600160881b82048116610140840152600160a81b9091041661016082015260078201805484518187028101870190955280855291959294610180870194939192919084015b82821015610f8e57600084815260209081902060408051606081018252600286810290930180549384900b825263010000009093046001600160801b0316818501526001928301549181019190915283529092019101610f33565b5050509152505060208101519091506001600160a01b0316610faf57915091565b6000816020015190506040518060600160405280826001600160a01b0316630dfe16816040518163ffffffff1660e01b8152600401602060405180830381865afa158015611001573d6000803e3d6000fd5b505050506040513d601f19601f8201168201806040525081019061102591906136be565b6001600160a01b03168152602001826001600160a01b031663d21220a76040518163ffffffff1660e01b8152600401602060405180830381865afa158015611071573d6000803e3d6000fd5b505050506040513d601f19601f8201168201806040525081019061109591906136be565b6001600160a01b03168152602001826001600160a01b031663ddca3f436040518163ffffffff1660e01b8152600401602060405180830381865afa1580156110e1573d6000803e3d6000fd5b505050506040513d601f19601f8201168201806040525081019061110591906136db565b62ffffff16815250925050915091565b6000818152600260205260408120546001600160a01b0316806105945760405162461bcd60e51b8152602060048201526018602482015277115490cdcc8c4e881a5b9d985b1a59081d1bdad95b88125160421b60448201526064016106d7565b60006001600160a01b0382166111df5760405162461bcd60e51b815260206004820152602960248201527f4552433732313a2061646472657373207a65726f206973206e6f7420612076616044820152683634b21037bbb732b960b91b60648201526084016106d7565b506001600160a01b031660009081526003602052604090205490565b611203612d5b565b60106000611212868686610d32565b81526020808201929092526040908101600090812082516101a081018452815460ff808216151583526001600160a01b036101009283900416838801526001840154838701526002840154606084015260038401546080840152600484015460a084015260058401546001600160801b0380821660c0860152600160801b91829004811660e0860152600686015490811693850193909352820416151561012083015263ffffffff600160881b82048116610140840152600160a81b9091041661016082015260078201805485518188028101880190965280865291959294610180870194909391929184015b8282101561135a57600084815260209081902060408051606081018252600286810290930180549384900b825263010000009093046001600160801b03168185015260019283015491810191909152835290920191016112ff565b5050509152509095945050505050565b604080516060810182526000808252602082018190529181019190915261138f612d5b565b6010600061139e878787610d32565b81526020808201929092526040908101600090812082516101a081018452815460ff808216151583526001600160a01b036101009283900416838801526001840154838701526002840154606084015260038401546080840152600484015460a084015260058401546001600160801b0380821660c0860152600160801b91829004811660e0860152600686015490811693850193909352820416151561012083015263ffffffff600160881b82048116610140840152600160a81b9091041661016082015260078201805485518188028101880190965280865291959294610180870194909391929184015b828210156114e657600084815260209081902060408051606081018252600286810290930180549384900b825263010000009093046001600160801b031681850152600192830154918101919091528352909201910161148b565b5050509152505060208101519091506001600160a01b031615611664576000816020015190506040518060600160405280826001600160a01b0316630dfe16816040518163ffffffff1660e01b8152600401602060405180830381865afa158015611555573d6000803e3d6000fd5b505050506040513d601f19601f8201168201806040525081019061157991906136be565b6001600160a01b03168152602001826001600160a01b031663d21220a76040518163ffffffff1660e01b8152600401602060405180830381865afa1580156115c5573d6000803e3d6000fd5b505050506040513d601f19601f820116820180604052508101906115e991906136be565b6001600160a01b03168152602001826001600160a01b031663ddca3f436040518163ffffffff1660e01b8152600401602060405180830381865afa158015611635573d6000803e3d6000fd5b505050506040513d601f19601f8201168201806040525081019061165991906136db565b62ffffff1690529250505b935093915050565b6060600180546105a990613498565b611686338383612710565b5050565b6001600160a01b038181166000908152600a6020526040902054161580156116cd57506001600160a01b038181166000908152600a602052604090206001015416155b6117195760405162461bcd60e51b815260206004820152601b60248201527f706f6f6c206d616e616765727320616c7265616479206578697374000000000060448201526064016106d7565b6000816001600160a01b0316630dfe16816040518163ffffffff1660e01b8152600401602060405180830381865afa158015611759573d6000803e3d6000fd5b505050506040513d601f19601f8201168201806040525081019061177d91906136be565b90506000826001600160a01b031663d21220a76040518163ffffffff1660e01b8152600401602060405180830381865afa1580156117bf573d6000803e3d6000fd5b505050506040513d601f19601f820116820180604052508101906117e391906136be565b90506000836001600160a01b031663ddca3f436040518163ffffffff1660e01b8152600401602060405180830381865afa158015611825573d6000803e3d6000fd5b505050506040513d601f19601f8201168201806040525081019061184991906136db565b600c5460405163090ef7f360e31b81526001600160a01b0387811660048301528681166024830152858116604483015262ffffff8416606483015292935060009290911690634877bf98906084016020604051808303816000875af11580156118b6573d6000803e3d6000fd5b505050506040513d601f19601f820116820180604052508101906118da91906136be565b600d5460405163031036eb60e41b81526001600160a01b03888116600483015280841660248301528781166044830152868116606483015262ffffff86166084830152929350600092909116906331036eb09060a4016020604051808303816000875af115801561194f573d6000803e3d6000fd5b505050506040513d601f19601f8201168201806040525081019061197391906136be565b600b54604051637b22ea1160e11b81526001600160a01b0389811660048301528881166024830152878116604483015262ffffff871660648301529293506000929091169063f645d422906084016020604051808303816000875af11580156119e0573d6000803e3d6000fd5b505050506040513d601f19601f82011682018060405250810190611a0491906136be565b604051630f05893560e21b81526001600160a01b03848116600483015291925090841690633c1624d490602401600060405180830381600087803b158015611a4b57600080fd5b505af1158015611a5f573d6000803e3d6000fd5b5050604051630f05893560e21b81526001600160a01b03858116600483015284169250633c1624d49150602401600060405180830381600087803b158015611aa657600080fd5b505af1158015611aba573d6000803e3d6000fd5b5050604051630f05893560e21b81526001600160a01b0385811660048301528a169250633c1624d49150602401600060405180830381600087803b158015611b0157600080fd5b505af1158015611b15573d6000803e3d6000fd5b5050506001600160a01b039788166000908152600a6020526040902080549489166001600160a01b0319958616178155600181018054948a1694861694909417909355506002909101805491909616911617909355505050565b611b77612d5b565b611b876080830160608401612f2a565b611b9760608401604085016134d2565b80611bbe576001600160a01b038281166000908152600a6020526040902054163314611bdf565b6001600160a01b038281166000908152600a60205260409020600201541633145b611bfb5760405162461bcd60e51b81526004016106d7906134ed565b6000611c1e33611c0e6020880188612f2a565b61037d6040890160208a016134d2565b9050611c2d6080860186613512565b611c3f9061010081019060e001613548565b600082815260106020526040902060050180546001600160801b03928316600160801b029216919091179055611c786080860186613512565b60008281526010602052604090819020910135600190910155611c9e6080860186613512565b600082815260106020526040902060609190910135600290910155611cc66080860186613512565b6000828152601060205260409020608091820135600390910155611cec90860186613512565b600082815260106020526040902060a09190910135600490910155611d146080860186613512565b611d2790610140810190610120016134d2565b60008281526010602052604090206006018054911515600160801b0260ff60801b19909216919091179055611d5f6080860186613512565b611d729061016081019061014001613700565b6000828152601060205260409020600601805463ffffffff92909216600160881b0263ffffffff60881b19909216919091179055611db36080860186613512565b611dc69061018081019061016001613700565b6000828152601060205260409020600601805463ffffffff92909216600160a81b0263ffffffff60a81b19909216919091179055611e0a6080860160608701612f2a565b600082815260106020526040902080546001600160a01b039290921661010002610100600160a81b03199092169190911781556007015415611e63576000818152601060205260408120611e6391600790910190612d3a565b60005b611e736080870187613512565b611e8290610180810190613565565b9050811015611f60576000611e9a6080880188613512565b611ea990610180810190613565565b83818110611eb957611eb96135b5565b9050606002016020016020810190611ed19190613548565b6001600160801b03161115611f4e576000828152601060205260409020600701611efe6080880188613512565b611f0d90610180810190613565565b83818110611f1d57611f1d6135b5565b835460018101855560009485526020909420606090910292909201926002029091019050611f4b82826135cb565b50505b80611f5881613658565b915050611e66565b50600081815260106020908152604080832081516101a081018352815460ff808216151583526001600160a01b036101009283900416838701526001840154838601526002840154606084015260038401546080840152600484015460a084015260058401546001600160801b0380821660c0860152600160801b91829004811660e0860152600686015490811693850193909352820416151561012083015263ffffffff600160881b82048116610140840152600160a81b9091041661016082015260078201805484518187028101870190955280855291959294610180870194939192919084015b828210156120a557600084815260209081902060408051606081018252600286810290930180549384900b825263010000009093046001600160801b031681850152600192830154918101919091528352909201910161204a565b505050915250909695505050505050565b6120c03383612387565b6120dc5760405162461bcd60e51b81526004016106d790613671565b610c09848484846127de565b60606120f3826122b7565b600061210a60408051602081019091526000815290565b9050600081511161212a5760405180602001604052806000815250612155565b8061213484612811565b604051602001612145929190613726565b6040516020818303038152906040525b9392505050565b806060015181604001518061218d576001600160a01b038281166000908152600a60205260409020541633146121ae565b6001600160a01b038281166000908152600a60205260409020600201541633145b6121ca5760405162461bcd60e51b81526004016106d7906134ed565b60006121df3385600001518660200151610d32565b6000908152601060205260409020600681018054608087015160a088015178ffffffff0000000000ffffffffffffffffffffffffffffffff19909216600160a81b4263ffffffff16026001600160801b031916176001600160801b039283161790925560c090960151908616600160801b919096160294909417600590940193909355505050565b60006001600160e01b031982166380ac58cd60e01b148061229857506001600160e01b03198216635b5e139f60e01b145b8061059457506301ffc9a760e01b6001600160e01b0319831614610594565b6000818152600260205260409020546001600160a01b03166123165760405162461bcd60e51b8152602060048201526018602482015277115490cdcc8c4e881a5b9d985b1a59081d1bdad95b88125160421b60448201526064016106d7565b50565b600081815260046020526040902080546001600160a01b0319166001600160a01b038416908117909155819061234e82611115565b6001600160a01b03167f8c5be1e5ebec7d5bd14f71427d1e84f3dd0314c0f7b2291e5b200ac8c7c3b92560405160405180910390a45050565b60008061239383611115565b9050806001600160a01b0316846001600160a01b031614806123da57506001600160a01b0380821660009081526005602090815260408083209388168352929052205460ff165b806123fe5750836001600160a01b03166123f38461062c565b6001600160a01b0316145b949350505050565b826001600160a01b031661241982611115565b6001600160a01b03161461243f5760405162461bcd60e51b81526004016106d790613755565b6001600160a01b0382166124a15760405162461bcd60e51b8152602060048201526024808201527f4552433732313a207472616e7366657220746f20746865207a65726f206164646044820152637265737360e01b60648201526084016106d7565b6124ae83838360016128a4565b826001600160a01b03166124c182611115565b6001600160a01b0316146124e75760405162461bcd60e51b81526004016106d790613755565b600081815260046020908152604080832080546001600160a01b03199081169091556001600160a01b0387811680865260038552838620805460001901905590871680865283862080546001019055868652600290945282852080549092168417909155905184937fddf252ad1be2c89b69c2b068fc378daa952ba7f163c4a11628f55a4df523b3ef91a4505050565b6001600160a01b0382166125cd5760405162461bcd60e51b815260206004820181905260248201527f4552433732313a206d696e7420746f20746865207a65726f206164647265737360448201526064016106d7565b6000818152600260205260409020546001600160a01b0316156126325760405162461bcd60e51b815260206004820152601c60248201527f4552433732313a20746f6b656e20616c7265616479206d696e7465640000000060448201526064016106d7565b6126406000838360016128a4565b6000818152600260205260409020546001600160a01b0316156126a55760405162461bcd60e51b815260206004820152601c60248201527f4552433732313a20746f6b656e20616c7265616479206d696e7465640000000060448201526064016106d7565b6001600160a01b038216600081815260036020908152604080832080546001019055848352600290915280822080546001600160a01b0319168417905551839291907fddf252ad1be2c89b69c2b068fc378daa952ba7f163c4a11628f55a4df523b3ef908290a45050565b816001600160a01b0316836001600160a01b0316036127715760405162461bcd60e51b815260206004820152601960248201527f4552433732313a20617070726f766520746f2063616c6c65720000000000000060448201526064016106d7565b6001600160a01b03838116600081815260056020908152604080832094871680845294825291829020805460ff191686151590811790915591519182527f17307eab39ab6107e8899845ad3d59bd9653f200f220920489ca2b5937696c31910160405180910390a3505050565b6127e9848484612406565b6127f5848484846129d1565b610c095760405162461bcd60e51b81526004016106d79061379a565b6060600061281e83612ad2565b600101905060008167ffffffffffffffff81111561283e5761283e612f88565b6040519080825280601f01601f191660200182016040528015612868576020820181803683370190505b5090508181016020015b600019016f181899199a1a9b1b9c1cb0b131b232b360811b600a86061a8153600a850494508461287257509392505050565b60018111156129135760405162461bcd60e51b815260206004820152603560248201527f455243373231456e756d657261626c653a20636f6e7365637574697665207472604482015274185b9cd9995c9cc81b9bdd081cdd5c1c1bdc9d1959605a1b60648201526084016106d7565b816001600160a01b03851661296f5761296a81600880546000838152600960205260408120829055600182018355919091527ff3f7a9fe364faab93b216da50a3214154f22a0a2b415b23a84c8169e8b636ee30155565b612992565b836001600160a01b0316856001600160a01b031614612992576129928582612baa565b6001600160a01b0384166129ae576129a981612c47565b610925565b846001600160a01b0316846001600160a01b031614610925576109258482612cf6565b60006001600160a01b0384163b15612ac757604051630a85bd0160e11b81526001600160a01b0385169063150b7a0290612a159033908990889088906004016137ec565b6020604051808303816000875af1925050508015612a50575060408051601f3d908101601f19168201909252612a4d9181019061381f565b60015b612aad573d808015612a7e576040519150601f19603f3d011682016040523d82523d6000602084013e612a83565b606091505b508051600003612aa55760405162461bcd60e51b81526004016106d79061379a565b805181602001fd5b6001600160e01b031916630a85bd0160e11b1490506123fe565b506001949350505050565b60008072184f03e93ff9f4daa797ed6e38ed64bf6a1f0160401b8310612b115772184f03e93ff9f4daa797ed6e38ed64bf6a1f0160401b830492506040015b6d04ee2d6d415b85acef81000000008310612b3d576d04ee2d6d415b85acef8100000000830492506020015b662386f26fc100008310612b5b57662386f26fc10000830492506010015b6305f5e1008310612b73576305f5e100830492506008015b6127108310612b8757612710830492506004015b60648310612b99576064830492506002015b600a83106105945760010192915050565b60006001612bb784611175565b612bc1919061383c565b600083815260076020526040902054909150808214612c14576001600160a01b03841660009081526006602090815260408083208584528252808320548484528184208190558352600790915290208190555b5060009182526007602090815260408084208490556001600160a01b039094168352600681528383209183525290812055565b600854600090612c599060019061383c565b60008381526009602052604081205460088054939450909284908110612c8157612c816135b5565b906000526020600020015490508060088381548110612ca257612ca26135b5565b6000918252602080832090910192909255828152600990915260408082208490558582528120556008805480612cda57612cda61384f565b6001900381819060005260206000200160009055905550505050565b6000612d0183611175565b6001600160a01b039093166000908152600660209081526040808320868452825280832085905593825260079052919091209190915550565b50805460008255600202906000526020600020908101906123169190612dc9565b604080516101a08101825260008082526020820181905291810182905260608082018390526080820183905260a0820183905260c0820183905260e0820183905261010082018390526101208201839052610140820183905261016082019290925261018081019190915290565b5b80821115612dfb57805472ffffffffffffffffffffffffffffffffffffff1916815560006001820155600201612dca565b5090565b6001600160e01b03198116811461231657600080fd5b600060208284031215612e2757600080fd5b813561215581612dff565b60005b83811015612e4d578181015183820152602001612e35565b50506000910152565b60008151808452612e6e816020860160208601612e32565b601f01601f19169290920160200192915050565b6020815260006121556020830184612e56565b600060208284031215612ea757600080fd5b5035919050565b600060208284031215612ec057600080fd5b813567ffffffffffffffff811115612ed757600080fd5b820160a0818503121561215557600080fd5b6001600160a01b038116811461231657600080fd5b60008060408385031215612f1157600080fd5b8235612f1c81612ee9565b946020939093013593505050565b600060208284031215612f3c57600080fd5b813561215581612ee9565b600080600060608486031215612f5c57600080fd5b8335612f6781612ee9565b92506020840135612f7781612ee9565b929592945050506040919091013590565b634e487b7160e01b600052604160045260246000fd5b604051601f8201601f1916810167ffffffffffffffff81118282101715612fc757612fc7612f88565b604052919050565b80358015158114612fdf57600080fd5b919050565b600060808284031215612ff657600080fd5b6040516080810181811067ffffffffffffffff8211171561301957613019612f88565b604052905080823561302a81612ee9565b8152602083013561303a81612ee9565b602082015261304b60408401612fcf565b604082015261305c60608401612fcf565b60608201525092915050565b60006080828403121561307a57600080fd5b6121558383612fe4565b60008060006060848603121561309957600080fd5b83356130a481612ee9565b925060208401356130b481612ee9565b91506130c260408501612fcf565b90509250925092565b600081518084526020808501945080840160005b8381101561311d578151805160020b8852838101516001600160801b03168489015260409081015190880152606090960195908201906001016130df565b509495945050505050565b80511515825260006101a0602083015161314d60208601826001600160a01b03169052565b5060408301516040850152606083015160608501526080830151608085015260a083015160a085015260c083015161319060c08601826001600160801b03169052565b5060e08301516131ab60e08601826001600160801b03169052565b50610100838101516001600160801b031690850152610120808401511515908501526101408084015163ffffffff9081169186019190915261016080850151909116908501526101808084015181860183905261320a838701826130cb565b9695505050505050565b600060018060a01b038085511683528060208601511660208401525062ffffff6040850151166040830152608060608301526123fe6080830184613128565b6020815260006121556020830184613128565b6000806040838503121561327957600080fd5b823561328481612ee9565b915061329260208401612fcf565b90509250929050565b600080600080608085870312156132b157600080fd5b84356132bc81612ee9565b93506020858101356132cd81612ee9565b935060408601359250606086013567ffffffffffffffff808211156132f157600080fd5b818801915088601f83011261330557600080fd5b81358181111561331757613317612f88565b613329601f8201601f19168501612f9e565b9150808252898482850101111561333f57600080fd5b808484018584013760008482840101525080935050505092959194509250565b600060e0828403121561337157600080fd5b60405160e0810181811067ffffffffffffffff8211171561339457613394612f88565b60405282356133a281612ee9565b81526133b060208401612fcf565b60208201526133c160408401612fcf565b604082015260608301356133d481612ee9565b806060830152506080830135608082015260a083013560a082015260c083013560c08201528091505092915050565b6000806040838503121561341657600080fd5b823561342181612ee9565b9150602083013561343181612ee9565b809150509250929050565b6000806000806080858703121561345257600080fd5b843561345d81612ee9565b9350602085013561346d81612ee9565b9250604085013561347d81612ee9565b9150606085013561348d81612ee9565b939692955090935050565b600181811c908216806134ac57607f821691505b6020821081036134cc57634e487b7160e01b600052602260045260246000fd5b50919050565b6000602082840312156134e457600080fd5b61215582612fcf565b6020808252600b908201526a08585d5d1a1bdc9a5e995960aa1b604082015260600190565b6000823561019e1983360301811261352957600080fd5b9190910192915050565b6001600160801b038116811461231657600080fd5b60006020828403121561355a57600080fd5b813561215581613533565b6000808335601e1984360301811261357c57600080fd5b83018035915067ffffffffffffffff82111561359757600080fd5b60200191506060810236038213156135ae57600080fd5b9250929050565b634e487b7160e01b600052603260045260246000fd5b81358060020b81146135dc57600080fd5b815462ffffff82811662ffffff19831617845560208501356135fd81613533565b72ffffffffffffffffffffffffffffffff0000008160181b168285166cffffffffffffffffffffffffff60981b85161717855550505050604082013560018201555050565b634e487b7160e01b600052601160045260246000fd5b60006001820161366a5761366a613642565b5060010190565b6020808252602d908201527f4552433732313a2063616c6c6572206973206e6f7420746f6b656e206f776e6560408201526c1c881bdc88185c1c1c9bdd9959609a1b606082015260800190565b6000602082840312156136d057600080fd5b815161215581612ee9565b6000602082840312156136ed57600080fd5b815162ffffff8116811461215557600080fd5b60006020828403121561371257600080fd5b813563ffffffff8116811461215557600080fd5b60008351613738818460208801612e32565b83519083019061374c818360208801612e32565b01949350505050565b60208082526025908201527f4552433732313a207472616e736665722066726f6d20696e636f72726563742060408201526437bbb732b960d91b606082015260800190565b60208082526032908201527f4552433732313a207472616e7366657220746f206e6f6e20455243373231526560408201527131b2b4bb32b91034b6b83632b6b2b73a32b960711b606082015260800190565b6001600160a01b038581168252841660208201526040810183905260806060820181905260009061320a90830184612e56565b60006020828403121561383157600080fd5b815161215581612dff565b8181038181111561059457610594613642565b634e487b7160e01b600052603160045260246000fdfea2646970667358221220cc5801f24a35971c9072ab513f3c83bbd6f9d9b4824dd2bb192de606a704ebcc64736f6c63430008110033",
    "linkReferences": {}
  },
  "methodIdentifiers": {
    "activatePosition((address,address,bool,bool))": "46bd0363",
    "addPositionUpdate((address,bool,bool,address,(bool,address,uint256,uint256,uint256,uint256,uint128,uint128,uint128,bool,uint32,uint32,(int24,uint128,uint256)[])))": "b19e2590",
    "approve(address,uint256)": "095ea7b3",
    "balanceOf(address)": "70a08231",
    "borrowManagerFactory()": "732de209",
    "computeId(address,address,bool)": "4cbb9938",
    "createPoolManagers(address)": "a7283be3",
    "deletePosition((address,address,bool,bool))": "3a5177df",
    "getApproved(uint256)": "081812fc",
    "getPosition(address,address,bool)": "8c1395f8",
    "getPositionFromId(uint256)": "5fda36d8",
    "initialize(address,address,address,address)": "f8c8765e",
    "isApprovedForAll(address,address)": "e985e9c5",
    "leverageManagerFactory()": "b96b83c2",
    "liquidityManagerFactory()": "5bae3c05",
    "name()": "06fdde03",
    "ownerOf(uint256)": "6352211e",
    "poolData(address)": "136efb7a",
    "positions(address,address,bool)": "750ff6b5",
    "premiumUpdate((address,bool,bool,address,uint256,uint256,uint256))": "d9562ec7",
    "reducePositionUpdate((address,bool,bool,address,(bool,address,uint256,uint256,uint256,uint256,uint128,uint128,uint128,bool,uint32,uint32,(int24,uint128,uint256)[])))": "0850d0e9",
    "safeTransferFrom(address,address,uint256)": "42842e0e",
    "safeTransferFrom(address,address,uint256,bytes)": "b88d4fde",
    "setApprovalForAll(address,bool)": "a22cb465",
    "supportsInterface(bytes4)": "01ffc9a7",
    "symbol()": "95d89b41",
    "tokenByIndex(uint256)": "4f6ccce7",
    "tokenOfOwnerByIndex(address,uint256)": "2f745c59",
    "tokenURI(uint256)": "c87b56dd",
    "totalSupply()": "18160ddd",
    "transferFrom(address,address,uint256)": "23b872dd",
    "uniswapV3Factory()": "5b549182"
  },
  "id": 36
}