{
  "abi": [
    {
      "inputs": [],
      "stateMutability": "nonpayable",
      "type": "constructor"
    },
    {
      "anonymous": false,
      "inputs": [
        {
          "indexed": true,
          "internalType": "address",
          "name": "owner",
          "type": "address"
        },
        {
          "indexed": true,
          "internalType": "address",
          "name": "approved",
          "type": "address"
        },
        {
          "indexed": true,
          "internalType": "uint256",
          "name": "tokenId",
          "type": "uint256"
        }
      ],
      "name": "Approval",
      "type": "event"
    },
    {
      "anonymous": false,
      "inputs": [
        {
          "indexed": true,
          "internalType": "address",
          "name": "owner",
          "type": "address"
        },
        {
          "indexed": true,
          "internalType": "address",
          "name": "operator",
          "type": "address"
        },
        {
          "indexed": false,
          "internalType": "bool",
          "name": "approved",
          "type": "bool"
        }
      ],
      "name": "ApprovalForAll",
      "type": "event"
    },
    {
      "anonymous": false,
      "inputs": [
        {
          "indexed": true,
          "internalType": "address",
          "name": "from",
          "type": "address"
        },
        {
          "indexed": true,
          "internalType": "address",
          "name": "to",
          "type": "address"
        },
        {
          "indexed": true,
          "internalType": "uint256",
          "name": "tokenId",
          "type": "uint256"
        }
      ],
      "name": "Transfer",
      "type": "event"
    },
    {
      "inputs": [
        {
          "internalType": "address",
          "name": "pool",
          "type": "address"
        },
        {
          "internalType": "address",
          "name": "trader",
          "type": "address"
        },
        {
          "internalType": "bool",
          "name": "isToken0",
          "type": "bool"
        }
      ],
      "name": "activatePosition",
      "outputs": [
        {
          "internalType": "bytes32",
          "name": "positionId",
          "type": "bytes32"
        }
      ],
      "stateMutability": "nonpayable",
      "type": "function"
    },
    {
      "inputs": [
        {
          "components": [
            {
              "internalType": "address",
              "name": "trader",
              "type": "address"
            },
            {
              "internalType": "bool",
              "name": "isToken0",
              "type": "bool"
            },
            {
              "internalType": "address",
              "name": "pool",
              "type": "address"
            },
            {
              "components": [
                {
                  "internalType": "address",
                  "name": "pool",
                  "type": "address"
                },
                {
                  "internalType": "uint256",
                  "name": "totalPosition",
                  "type": "uint256"
                },
                {
                  "internalType": "uint256",
                  "name": "totalDebt",
                  "type": "uint256"
                },
                {
                  "internalType": "uint256",
                  "name": "totalDebtInput",
                  "type": "uint256"
                },
                {
                  "internalType": "uint256",
                  "name": "initCollateral",
                  "type": "uint256"
                },
                {
                  "internalType": "uint128",
                  "name": "recentPremium",
                  "type": "uint128"
                },
                {
                  "internalType": "uint128",
                  "name": "totalPremium",
                  "type": "uint128"
                },
                {
                  "internalType": "uint128",
                  "name": "unusedPremium",
                  "type": "uint128"
                },
                {
                  "internalType": "bool",
                  "name": "isToken0",
                  "type": "bool"
                },
                {
                  "internalType": "uint32",
                  "name": "openTime",
                  "type": "uint32"
                },
                {
                  "internalType": "uint32",
                  "name": "repayTime",
                  "type": "uint32"
                },
                {
                  "components": [
                    {
                      "internalType": "int24",
                      "name": "tick",
                      "type": "int24"
                    },
                    {
                      "internalType": "uint128",
                      "name": "liquidity",
                      "type": "uint128"
                    },
                    {
                      "internalType": "uint256",
                      "name": "premiumOrUrate",
                      "type": "uint256"
                    }
                  ],
                  "internalType": "struct LiquidityManager.Liquidity[]",
                  "name": "borrowInfo",
                  "type": "tuple[]"
                }
              ],
              "internalType": "struct GlobalStorage.Position",
              "name": "position",
              "type": "tuple"
            }
          ],
          "internalType": "struct GlobalStorage.UpdatePositionParams",
          "name": "params",
          "type": "tuple"
        }
      ],
      "name": "addPositionUpdate",
      "outputs": [
        {
          "components": [
            {
              "internalType": "address",
              "name": "pool",
              "type": "address"
            },
            {
              "internalType": "uint256",
              "name": "totalPosition",
              "type": "uint256"
            },
            {
              "internalType": "uint256",
              "name": "totalDebt",
              "type": "uint256"
            },
            {
              "internalType": "uint256",
              "name": "totalDebtInput",
              "type": "uint256"
            },
            {
              "internalType": "uint256",
              "name": "initCollateral",
              "type": "uint256"
            },
            {
              "internalType": "uint128",
              "name": "recentPremium",
              "type": "uint128"
            },
            {
              "internalType": "uint128",
              "name": "totalPremium",
              "type": "uint128"
            },
            {
              "internalType": "uint128",
              "name": "unusedPremium",
              "type": "uint128"
            },
            {
              "internalType": "bool",
              "name": "isToken0",
              "type": "bool"
            },
            {
              "internalType": "uint32",
              "name": "openTime",
              "type": "uint32"
            },
            {
              "internalType": "uint32",
              "name": "repayTime",
              "type": "uint32"
            },
            {
              "components": [
                {
                  "internalType": "int24",
                  "name": "tick",
                  "type": "int24"
                },
                {
                  "internalType": "uint128",
                  "name": "liquidity",
                  "type": "uint128"
                },
                {
                  "internalType": "uint256",
                  "name": "premiumOrUrate",
                  "type": "uint256"
                }
              ],
              "internalType": "struct LiquidityManager.Liquidity[]",
              "name": "borrowInfo",
              "type": "tuple[]"
            }
          ],
          "internalType": "struct GlobalStorage.Position",
          "name": "position",
          "type": "tuple"
        }
      ],
      "stateMutability": "nonpayable",
      "type": "function"
    },
    {
      "inputs": [
        {
          "internalType": "address",
          "name": "to",
          "type": "address"
        },
        {
          "internalType": "uint256",
          "name": "tokenId",
          "type": "uint256"
        }
      ],
      "name": "approve",
      "outputs": [],
      "stateMutability": "nonpayable",
      "type": "function"
    },
    {
      "inputs": [
        {
          "internalType": "address",
          "name": "owner",
          "type": "address"
        }
      ],
      "name": "balanceOf",
      "outputs": [
        {
          "internalType": "uint256",
          "name": "",
          "type": "uint256"
        }
      ],
      "stateMutability": "view",
      "type": "function"
    },
    {
      "inputs": [],
      "name": "borrowManagerFactory",
      "outputs": [
        {
          "internalType": "contract BorrowManagerFactory",
          "name": "",
          "type": "address"
        }
      ],
      "stateMutability": "view",
      "type": "function"
    },
    {
      "inputs": [
        {
          "internalType": "address",
          "name": "leverageManager",
          "type": "address"
        },
        {
          "internalType": "address",
          "name": "trader",
          "type": "address"
        },
        {
          "internalType": "bool",
          "name": "isToken0",
          "type": "bool"
        }
      ],
      "name": "computeId",
      "outputs": [
        {
          "internalType": "bytes32",
          "name": "tokenId",
          "type": "bytes32"
        }
      ],
      "stateMutability": "view",
      "type": "function"
    },
    {
      "inputs": [
        {
          "internalType": "address",
          "name": "pool",
          "type": "address"
        }
      ],
      "name": "createPoolManagers",
      "outputs": [],
      "stateMutability": "nonpayable",
      "type": "function"
    },
    {
      "inputs": [
        {
          "internalType": "address",
          "name": "pool",
          "type": "address"
        },
        {
          "internalType": "address",
          "name": "trader",
          "type": "address"
        },
        {
          "internalType": "bool",
          "name": "isToken0",
          "type": "bool"
        }
      ],
      "name": "deletePosition",
      "outputs": [],
      "stateMutability": "nonpayable",
      "type": "function"
    },
    {
      "inputs": [
        {
          "internalType": "uint256",
          "name": "tokenId",
          "type": "uint256"
        }
      ],
      "name": "getApproved",
      "outputs": [
        {
          "internalType": "address",
          "name": "",
          "type": "address"
        }
      ],
      "stateMutability": "view",
      "type": "function"
    },
    {
      "inputs": [
        {
          "internalType": "uint256",
          "name": "tokenId",
          "type": "uint256"
        }
      ],
      "name": "getPosition",
      "outputs": [
        {
          "components": [
            {
              "internalType": "address",
              "name": "token0",
              "type": "address"
            },
            {
              "internalType": "address",
              "name": "token1",
              "type": "address"
            },
            {
              "internalType": "uint24",
              "name": "fee",
              "type": "uint24"
            }
          ],
          "internalType": "struct GlobalStorage.LimitlessKey",
          "name": "key",
          "type": "tuple"
        },
        {
          "components": [
            {
              "internalType": "address",
              "name": "pool",
              "type": "address"
            },
            {
              "internalType": "uint256",
              "name": "totalPosition",
              "type": "uint256"
            },
            {
              "internalType": "uint256",
              "name": "totalDebt",
              "type": "uint256"
            },
            {
              "internalType": "uint256",
              "name": "totalDebtInput",
              "type": "uint256"
            },
            {
              "internalType": "uint256",
              "name": "initCollateral",
              "type": "uint256"
            },
            {
              "internalType": "uint128",
              "name": "recentPremium",
              "type": "uint128"
            },
            {
              "internalType": "uint128",
              "name": "totalPremium",
              "type": "uint128"
            },
            {
              "internalType": "uint128",
              "name": "unusedPremium",
              "type": "uint128"
            },
            {
              "internalType": "bool",
              "name": "isToken0",
              "type": "bool"
            },
            {
              "internalType": "uint32",
              "name": "openTime",
              "type": "uint32"
            },
            {
              "internalType": "uint32",
              "name": "repayTime",
              "type": "uint32"
            },
            {
              "components": [
                {
                  "internalType": "int24",
                  "name": "tick",
                  "type": "int24"
                },
                {
                  "internalType": "uint128",
                  "name": "liquidity",
                  "type": "uint128"
                },
                {
                  "internalType": "uint256",
                  "name": "premiumOrUrate",
                  "type": "uint256"
                }
              ],
              "internalType": "struct LiquidityManager.Liquidity[]",
              "name": "borrowInfo",
              "type": "tuple[]"
            }
          ],
          "internalType": "struct GlobalStorage.Position",
          "name": "position",
          "type": "tuple"
        }
      ],
      "stateMutability": "view",
      "type": "function"
    },
    {
      "inputs": [
        {
          "internalType": "address",
          "name": "_leverageManagerFactory",
          "type": "address"
        },
        {
          "internalType": "address",
          "name": "_liquidityManagerFactory",
          "type": "address"
        },
        {
          "internalType": "address",
          "name": "_borrowManagerFactory",
          "type": "address"
        },
        {
          "internalType": "address",
          "name": "_uniswapV3Factory",
          "type": "address"
        }
      ],
      "name": "initialize",
      "outputs": [],
      "stateMutability": "nonpayable",
      "type": "function"
    },
    {
      "inputs": [
        {
          "internalType": "address",
          "name": "owner",
          "type": "address"
        },
        {
          "internalType": "address",
          "name": "operator",
          "type": "address"
        }
      ],
      "name": "isApprovedForAll",
      "outputs": [
        {
          "internalType": "bool",
          "name": "",
          "type": "bool"
        }
      ],
      "stateMutability": "view",
      "type": "function"
    },
    {
      "inputs": [],
      "name": "leverageManagerFactory",
      "outputs": [
        {
          "internalType": "contract LeverageManagerFactory",
          "name": "",
          "type": "address"
        }
      ],
      "stateMutability": "view",
      "type": "function"
    },
    {
      "inputs": [],
      "name": "liquidityManagerFactory",
      "outputs": [
        {
          "internalType": "contract LiquidityManagerFactory",
          "name": "",
          "type": "address"
        }
      ],
      "stateMutability": "view",
      "type": "function"
    },
    {
      "inputs": [],
      "name": "name",
      "outputs": [
        {
          "internalType": "string",
          "name": "",
          "type": "string"
        }
      ],
      "stateMutability": "view",
      "type": "function"
    },
    {
      "inputs": [
        {
          "internalType": "uint256",
          "name": "tokenId",
          "type": "uint256"
        }
      ],
      "name": "ownerOf",
      "outputs": [
        {
          "internalType": "address",
          "name": "",
          "type": "address"
        }
      ],
      "stateMutability": "view",
      "type": "function"
    },
    {
      "inputs": [
        {
          "internalType": "address",
          "name": "",
          "type": "address"
        }
      ],
      "name": "poolData",
      "outputs": [
        {
          "internalType": "address",
          "name": "leverageManager",
          "type": "address"
        },
        {
          "internalType": "address",
          "name": "liquidityManager",
          "type": "address"
        },
        {
          "internalType": "address",
          "name": "borrowManager",
          "type": "address"
        },
        {
          "internalType": "address",
          "name": "interestManager",
          "type": "address"
        }
      ],
      "stateMutability": "view",
      "type": "function"
    },
    {
      "inputs": [
        {
          "internalType": "address",
          "name": "leverageManager",
          "type": "address"
        },
        {
          "internalType": "address",
          "name": "trader",
          "type": "address"
        },
        {
          "internalType": "bool",
          "name": "isToken0",
          "type": "bool"
        }
      ],
      "name": "positions",
      "outputs": [
        {
          "components": [
            {
              "internalType": "address",
              "name": "pool",
              "type": "address"
            },
            {
              "internalType": "uint256",
              "name": "totalPosition",
              "type": "uint256"
            },
            {
              "internalType": "uint256",
              "name": "totalDebt",
              "type": "uint256"
            },
            {
              "internalType": "uint256",
              "name": "totalDebtInput",
              "type": "uint256"
            },
            {
              "internalType": "uint256",
              "name": "initCollateral",
              "type": "uint256"
            },
            {
              "internalType": "uint128",
              "name": "recentPremium",
              "type": "uint128"
            },
            {
              "internalType": "uint128",
              "name": "totalPremium",
              "type": "uint128"
            },
            {
              "internalType": "uint128",
              "name": "unusedPremium",
              "type": "uint128"
            },
            {
              "internalType": "bool",
              "name": "isToken0",
              "type": "bool"
            },
            {
              "internalType": "uint32",
              "name": "openTime",
              "type": "uint32"
            },
            {
              "internalType": "uint32",
              "name": "repayTime",
              "type": "uint32"
            },
            {
              "components": [
                {
                  "internalType": "int24",
                  "name": "tick",
                  "type": "int24"
                },
                {
                  "internalType": "uint128",
                  "name": "liquidity",
                  "type": "uint128"
                },
                {
                  "internalType": "uint256",
                  "name": "premiumOrUrate",
                  "type": "uint256"
                }
              ],
              "internalType": "struct LiquidityManager.Liquidity[]",
              "name": "borrowInfo",
              "type": "tuple[]"
            }
          ],
          "internalType": "struct GlobalStorage.Position",
          "name": "position",
          "type": "tuple"
        }
      ],
      "stateMutability": "view",
      "type": "function"
    },
    {
      "inputs": [
        {
          "components": [
            {
              "internalType": "address",
              "name": "trader",
              "type": "address"
            },
            {
              "internalType": "bool",
              "name": "isToken0",
              "type": "bool"
            },
            {
              "internalType": "address",
              "name": "pool",
              "type": "address"
            },
            {
              "internalType": "uint256",
              "name": "recentPremium",
              "type": "uint256"
            },
            {
              "internalType": "uint256",
              "name": "unusedPremium",
              "type": "uint256"
            },
            {
              "internalType": "uint256",
              "name": "totalPremium",
              "type": "uint256"
            }
          ],
          "internalType": "struct GlobalStorage.PremiumUpdateParams",
          "name": "params",
          "type": "tuple"
        }
      ],
      "name": "premiumUpdate",
      "outputs": [],
      "stateMutability": "nonpayable",
      "type": "function"
    },
    {
      "inputs": [
        {
          "components": [
            {
              "internalType": "address",
              "name": "trader",
              "type": "address"
            },
            {
              "internalType": "bool",
              "name": "isToken0",
              "type": "bool"
            },
            {
              "internalType": "address",
              "name": "pool",
              "type": "address"
            },
            {
              "components": [
                {
                  "internalType": "address",
                  "name": "pool",
                  "type": "address"
                },
                {
                  "internalType": "uint256",
                  "name": "totalPosition",
                  "type": "uint256"
                },
                {
                  "internalType": "uint256",
                  "name": "totalDebt",
                  "type": "uint256"
                },
                {
                  "internalType": "uint256",
                  "name": "totalDebtInput",
                  "type": "uint256"
                },
                {
                  "internalType": "uint256",
                  "name": "initCollateral",
                  "type": "uint256"
                },
                {
                  "internalType": "uint128",
                  "name": "recentPremium",
                  "type": "uint128"
                },
                {
                  "internalType": "uint128",
                  "name": "totalPremium",
                  "type": "uint128"
                },
                {
                  "internalType": "uint128",
                  "name": "unusedPremium",
                  "type": "uint128"
                },
                {
                  "internalType": "bool",
                  "name": "isToken0",
                  "type": "bool"
                },
                {
                  "internalType": "uint32",
                  "name": "openTime",
                  "type": "uint32"
                },
                {
                  "internalType": "uint32",
                  "name": "repayTime",
                  "type": "uint32"
                },
                {
                  "components": [
                    {
                      "internalType": "int24",
                      "name": "tick",
                      "type": "int24"
                    },
                    {
                      "internalType": "uint128",
                      "name": "liquidity",
                      "type": "uint128"
                    },
                    {
                      "internalType": "uint256",
                      "name": "premiumOrUrate",
                      "type": "uint256"
                    }
                  ],
                  "internalType": "struct LiquidityManager.Liquidity[]",
                  "name": "borrowInfo",
                  "type": "tuple[]"
                }
              ],
              "internalType": "struct GlobalStorage.Position",
              "name": "position",
              "type": "tuple"
            }
          ],
          "internalType": "struct GlobalStorage.UpdatePositionParams",
          "name": "params",
          "type": "tuple"
        }
      ],
      "name": "reducePositionUpdate",
      "outputs": [],
      "stateMutability": "nonpayable",
      "type": "function"
    },
    {
      "inputs": [
        {
          "internalType": "address",
          "name": "from",
          "type": "address"
        },
        {
          "internalType": "address",
          "name": "to",
          "type": "address"
        },
        {
          "internalType": "uint256",
          "name": "tokenId",
          "type": "uint256"
        }
      ],
      "name": "safeTransferFrom",
      "outputs": [],
      "stateMutability": "nonpayable",
      "type": "function"
    },
    {
      "inputs": [
        {
          "internalType": "address",
          "name": "from",
          "type": "address"
        },
        {
          "internalType": "address",
          "name": "to",
          "type": "address"
        },
        {
          "internalType": "uint256",
          "name": "tokenId",
          "type": "uint256"
        },
        {
          "internalType": "bytes",
          "name": "data",
          "type": "bytes"
        }
      ],
      "name": "safeTransferFrom",
      "outputs": [],
      "stateMutability": "nonpayable",
      "type": "function"
    },
    {
      "inputs": [
        {
          "internalType": "address",
          "name": "operator",
          "type": "address"
        },
        {
          "internalType": "bool",
          "name": "approved",
          "type": "bool"
        }
      ],
      "name": "setApprovalForAll",
      "outputs": [],
      "stateMutability": "nonpayable",
      "type": "function"
    },
    {
      "inputs": [
        {
          "internalType": "bytes4",
          "name": "interfaceId",
          "type": "bytes4"
        }
      ],
      "name": "supportsInterface",
      "outputs": [
        {
          "internalType": "bool",
          "name": "",
          "type": "bool"
        }
      ],
      "stateMutability": "view",
      "type": "function"
    },
    {
      "inputs": [],
      "name": "symbol",
      "outputs": [
        {
          "internalType": "string",
          "name": "",
          "type": "string"
        }
      ],
      "stateMutability": "view",
      "type": "function"
    },
    {
      "inputs": [
        {
          "internalType": "uint256",
          "name": "index",
          "type": "uint256"
        }
      ],
      "name": "tokenByIndex",
      "outputs": [
        {
          "internalType": "uint256",
          "name": "",
          "type": "uint256"
        }
      ],
      "stateMutability": "view",
      "type": "function"
    },
    {
      "inputs": [
        {
          "internalType": "address",
          "name": "owner",
          "type": "address"
        },
        {
          "internalType": "uint256",
          "name": "index",
          "type": "uint256"
        }
      ],
      "name": "tokenOfOwnerByIndex",
      "outputs": [
        {
          "internalType": "uint256",
          "name": "",
          "type": "uint256"
        }
      ],
      "stateMutability": "view",
      "type": "function"
    },
    {
      "inputs": [
        {
          "internalType": "uint256",
          "name": "tokenId",
          "type": "uint256"
        }
      ],
      "name": "tokenURI",
      "outputs": [
        {
          "internalType": "string",
          "name": "",
          "type": "string"
        }
      ],
      "stateMutability": "view",
      "type": "function"
    },
    {
      "inputs": [],
      "name": "totalSupply",
      "outputs": [
        {
          "internalType": "uint256",
          "name": "",
          "type": "uint256"
        }
      ],
      "stateMutability": "view",
      "type": "function"
    },
    {
      "inputs": [
        {
          "internalType": "address",
          "name": "from",
          "type": "address"
        },
        {
          "internalType": "address",
          "name": "to",
          "type": "address"
        },
        {
          "internalType": "uint256",
          "name": "tokenId",
          "type": "uint256"
        }
      ],
      "name": "transferFrom",
      "outputs": [],
      "stateMutability": "nonpayable",
      "type": "function"
    },
    {
      "inputs": [],
      "name": "uniswapV3Factory",
      "outputs": [
        {
          "internalType": "contract UniswapV3Factory",
          "name": "",
          "type": "address"
        }
      ],
      "stateMutability": "view",
      "type": "function"
    }
  ],
  "bytecode": {
    "object": "0x608060405260016014819055601580546001600160501b03191690911790553480156200002b57600080fd5b506040518060400160405280601d81526020017f4c696d69746c65737320563120506f736974696f6e73204e46542d56300000008152506040518060400160405280600a8152602001694c4d542d56312d504f5360b01b815250816000908162000096919062000153565b506001620000a5828262000153565b5050506200021f565b634e487b7160e01b600052604160045260246000fd5b600181811c90821680620000d957607f821691505b602082108103620000fa57634e487b7160e01b600052602260045260246000fd5b50919050565b601f8211156200014e57600081815260208120601f850160051c81016020861015620001295750805b601f850160051c820191505b818110156200014a5782815560010162000135565b5050505b505050565b81516001600160401b038111156200016f576200016f620000ae565b6200018781620001808454620000c4565b8462000100565b602080601f831160018114620001bf5760008415620001a65750858301515b600019600386901b1c1916600185901b1785556200014a565b600085815260208120601f198616915b82811015620001f057888601518255948401946001909101908401620001cf565b50858210156200020f5787850151600019600388901b60f8161c191681555b5050505050600190811b01905550565b6134c0806200022f6000396000f3fe608060405234801561001057600080fd5b50600436106101e55760003560e01c80635bae3c051161010f578063b4db07dd116100a2578063e985e9c511610071578063e985e9c514610483578063eb02c301146104bf578063ebfa2b19146104e0578063f8c8765e146104f357600080fd5b8063b4db07dd14610437578063b88d4fde1461044a578063b96b83c21461045d578063c87b56dd1461047057600080fd5b8063750ff6b5116100de578063750ff6b5146103f657806395d89b4114610409578063a22cb46514610411578063a7283be31461042457600080fd5b80635bae3c05146103aa5780636352211e146103bd57806370a08231146103d0578063732de209146103e357600080fd5b806323b872dd116101875780634472fbfd116101565780634472fbfd1461035e5780634cbb9938146103715780634f6ccce7146103845780635b5491821461039757600080fd5b806323b872dd1461031257806325f31145146103255780632f745c591461033857806342842e0e1461034b57600080fd5b8063095ea7b3116101c3578063095ea7b314610252578063136efb7a1461026757806318160ddd146102e05780631b5219bb146102f257600080fd5b806301ffc9a7146101ea57806306fdde0314610212578063081812fc14610227575b600080fd5b6101fd6101f8366004612af9565b610551565b60405190151581526020015b60405180910390f35b61021a61057c565b6040516102099190612b66565b61023a610235366004612b79565b61060e565b6040516001600160a01b039091168152602001610209565b610265610260366004612ba7565b610635565b005b6102ad610275366004612bd3565b600a6020526000908152604090208054600182015460028301546003909301546001600160a01b039283169391831692918216911684565b604080516001600160a01b0395861681529385166020850152918416918301919091529091166060820152608001610209565b6008545b604051908152602001610209565b610305610300366004612bf0565b61074f565b6040516102099190612d67565b610265610320366004612d7a565b610c93565b610265610333366004612e17565b610cc4565b6102e4610346366004612ba7565b610def565b610265610359366004612d7a565b610e85565b61026561036c366004612eaa565b610ea0565b6102e461037f366004612eaa565b610fbc565b6102e4610392366004612b79565b611012565b600e5461023a906001600160a01b031681565b600d5461023a906001600160a01b031681565b61023a6103cb366004612b79565b6110a5565b6102e46103de366004612bd3565b611105565b600b5461023a906001600160a01b031681565b610305610404366004612eaa565b61118b565b61021a6112ec565b61026561041f366004612ef1565b6112fb565b610265610432366004612bd3565b61130a565b610265610445366004612bf0565b6117ef565b610265610458366004612f26565b611aa3565b600c5461023a906001600160a01b031681565b61021a61047e366004612b79565b611ad5565b6101fd610491366004612fea565b6001600160a01b03918216600090815260056020908152604080832093909416825291909152205460ff1690565b6104d26104cd366004612b79565b611b49565b604051610209929190613023565b6102e46104ee366004612eaa565b611e2b565b610265610501366004613062565b600c80546001600160a01b039586166001600160a01b031991821617909155600d805494861694821694909417909355600b805492851692841692909217909155600e8054919093169116179055565b60006001600160e01b0319821663780e9d6360e01b1480610576575061057682611f24565b92915050565b60606000805461058b906130be565b80601f01602080910402602001604051908101604052809291908181526020018280546105b7906130be565b80156106045780601f106105d957610100808354040283529160200191610604565b820191906000526020600020905b8154815290600101906020018083116105e757829003601f168201915b5050505050905090565b600061061982611f74565b506000908152600460205260409020546001600160a01b031690565b6000610640826110a5565b9050806001600160a01b0316836001600160a01b0316036106b25760405162461bcd60e51b815260206004820152602160248201527f4552433732313a20617070726f76616c20746f2063757272656e74206f776e656044820152603960f91b60648201526084015b60405180910390fd5b336001600160a01b03821614806106ce57506106ce8133610491565b6107405760405162461bcd60e51b815260206004820152603d60248201527f4552433732313a20617070726f76652063616c6c6572206973206e6f7420746f60448201527f6b656e206f776e6572206f7220617070726f76656420666f7220616c6c00000060648201526084016106a9565b61074a8383611fd6565b505050565b6107576129fe565b6107676060830160408401612bd3565b6001600160a01b038181166000908152600a6020526040902054163314806107ab57506001600160a01b038181166000908152600a60205260409020600201541633145b806107d257506001600160a01b038181166000908152600a60205260409020600101541633145b6107ee5760405162461bcd60e51b81526004016106a9906130f2565b6000610811336108016020870187612bd3565b61037f604088016020890161311c565b90506108206060850185613137565b6108319060e081019060c00161316d565b600082815260106020526040902060050180546001600160801b03928316600160801b02921691909117905561086a6060850185613137565b60008281526010602090815260409091209101356001909101556108916060850185613137565b600082815260106020526040908190209101356002909101556108b76060850185613137565b60008281526010602052604090206060918201356003909101556108dd90850185613137565b6000828152601060205260409020608091909101356004909101556109056060850185613137565b610918906101208101906101000161311c565b60008281526010602052604090206006018054911515600160801b0260ff60801b199092169190911790556109506060850185613137565b610963906101408101906101200161318a565b6000828152601060205260409020600601805463ffffffff92909216600160881b0263ffffffff60881b199092169190911790556109a46060850185613137565b6109b7906101608101906101400161318a565b60008281526010602052604090819020600601805463ffffffff93909316600160a81b0263ffffffff60a81b19909316929092179091556109fe9060608601908601612bd3565b600082815260106020526040902080546001600160a01b0319166001600160a01b03929092169190911781556007015415610a50576000818152601060205260408120610a5091600790910190612a91565b60005b610a606060860186613137565b610a6f906101608101906131b0565b9050811015610b4d576000610a876060870187613137565b610a96906101608101906131b0565b83818110610aa657610aa6613200565b9050606002016020016020810190610abe919061316d565b6001600160801b03161115610b3b576000828152601060205260409020600701610aeb6060870187613137565b610afa906101608101906131b0565b83818110610b0a57610b0a613200565b835460018101855560009485526020909420606090910292909201926002029091019050610b388282613216565b50505b80610b45816132a3565b915050610a53565b50600081815260106020908152604080832081516101808101835281546001600160a01b03168152600182015481850152600282015481840152600382015460608201526004820154608082015260058201546001600160801b0380821660a0840152600160801b91829004811660c0840152600684015490811660e084015290810460ff161515610100830152600160881b810463ffffffff908116610120840152600160a81b9091041661014082015260078201805484518187028101870190955280855291959294610160870194939192919084015b82821015610c8157600084815260209081902060408051606081018252600286810290930180549384900b825263010000009093046001600160801b0316818501526001928301549181019190915283529092019101610c26565b50505050815250509250505b50919050565b610c9d3382612044565b610cb95760405162461bcd60e51b81526004016106a9906132bc565b61074a8383836120c3565b6040808201516001600160a01b038082166000908152600a6020529290922054909116331480610d1057506001600160a01b038181166000908152600a60205260409020600201541633145b80610d3757506001600160a01b038181166000908152600a60205260409020600101541633145b610d535760405162461bcd60e51b81526004016106a9906130f2565b6000610d683384600001518560200151610fbc565b60009081526010602052604090206006810180546060860151608087015178ffffffff0000000000ffffffffffffffffffffffffffffffff19909216600160a81b4263ffffffff16026001600160801b031916176001600160801b039283161790925560a090950151908516600160801b9190951602939093176005909301929092555050565b6000610dfa83611105565b8210610e5c5760405162461bcd60e51b815260206004820152602b60248201527f455243373231456e756d657261626c653a206f776e657220696e646578206f7560448201526a74206f6620626f756e647360a81b60648201526084016106a9565b506001600160a01b03919091166000908152600660209081526040808320938352929052205490565b61074a83838360405180602001604052806000815250611aa3565b6001600160a01b038084166000908152600a6020526040902054849116331480610ee657506001600160a01b038181166000908152600a60205260409020600201541633145b80610f0d57506001600160a01b038181166000908152600a60205260409020600101541633145b610f295760405162461bcd60e51b81526004016106a9906130f2565b6000610f36338585610fbc565b60008181526012602052604081205491925003610f535750610fb6565b600081815260106020526040812080546001600160a01b031916815560018101829055600281018290556003810182905560048101829055600581018290556006810180546001600160c81b031916905590610fb26007830182612a91565b5050505b50505050565b6040516bffffffffffffffffffffffff19606085811b8216602084015284901b16603482015281151560f81b60488201526000906049016040516020818303038152906040528051906020012090509392505050565b600061101d60085490565b82106110805760405162461bcd60e51b815260206004820152602c60248201527f455243373231456e756d657261626c653a20676c6f62616c20696e646578206f60448201526b7574206f6620626f756e647360a01b60648201526084016106a9565b6008828154811061109357611093613200565b90600052602060002001549050919050565b6000818152600260205260408120546001600160a01b0316806105765760405162461bcd60e51b8152602060048201526018602482015277115490cdcc8c4e881a5b9d985b1a59081d1bdad95b88125160421b60448201526064016106a9565b60006001600160a01b03821661116f5760405162461bcd60e51b815260206004820152602960248201527f4552433732313a2061646472657373207a65726f206973206e6f7420612076616044820152683634b21037bbb732b960b91b60648201526084016106a9565b506001600160a01b031660009081526003602052604090205490565b6111936129fe565b6000601060006111a4878787610fbc565b81526020808201929092526040908101600090812082516101808101845281546001600160a01b03168152600182015481860152600282015481850152600382015460608201526004820154608082015260058201546001600160801b0380821660a0840152600160801b91829004811660c0840152600684015490811660e084015290810460ff161515610100830152600160881b810463ffffffff908116610120840152600160a81b9091041661014082015260078201805485518188028101880190965280865291959294610160870194909391929184015b828210156112db57600084815260209081902060408051606081018252600286810290930180549384900b825263010000009093046001600160801b0316818501526001928301549181019190915283529092019101611280565b505050915250909695505050505050565b60606001805461058b906130be565b611306338383612234565b5050565b6001600160a01b038181166000908152600a60205260409020541615801561134d57506001600160a01b038181166000908152600a602052604090206001015416155b6113995760405162461bcd60e51b815260206004820152601b60248201527f706f6f6c206d616e616765727320616c7265616479206578697374000000000060448201526064016106a9565b6000816001600160a01b0316630dfe16816040518163ffffffff1660e01b8152600401602060405180830381865afa1580156113d9573d6000803e3d6000fd5b505050506040513d601f19601f820116820180604052508101906113fd9190613309565b90506000826001600160a01b031663d21220a76040518163ffffffff1660e01b8152600401602060405180830381865afa15801561143f573d6000803e3d6000fd5b505050506040513d601f19601f820116820180604052508101906114639190613309565b90506000836001600160a01b031663ddca3f436040518163ffffffff1660e01b8152600401602060405180830381865afa1580156114a5573d6000803e3d6000fd5b505050506040513d601f19601f820116820180604052508101906114c99190613326565b600c5460405163090ef7f360e31b81526001600160a01b0387811660048301528681166024830152858116604483015262ffffff8416606483015292935060009290911690634877bf98906084016020604051808303816000875af1158015611536573d6000803e3d6000fd5b505050506040513d601f19601f8201168201806040525081019061155a9190613309565b600d5460405163031036eb60e41b81526001600160a01b03888116600483015280841660248301528781166044830152868116606483015262ffffff86166084830152929350600092909116906331036eb09060a4016020604051808303816000875af11580156115cf573d6000803e3d6000fd5b505050506040513d601f19601f820116820180604052508101906115f39190613309565b600b54604051637b22ea1160e11b81526001600160a01b0389811660048301528881166024830152878116604483015262ffffff871660648301529293506000929091169063f645d422906084016020604051808303816000875af1158015611660573d6000803e3d6000fd5b505050506040513d601f19601f820116820180604052508101906116849190613309565b604051630f05893560e21b81526001600160a01b03848116600483015291925090841690633c1624d490602401600060405180830381600087803b1580156116cb57600080fd5b505af11580156116df573d6000803e3d6000fd5b5050604051630f05893560e21b81526001600160a01b03858116600483015284169250633c1624d49150602401600060405180830381600087803b15801561172657600080fd5b505af115801561173a573d6000803e3d6000fd5b5050604051630f05893560e21b81526001600160a01b0385811660048301528a169250633c1624d49150602401600060405180830381600087803b15801561178157600080fd5b505af1158015611795573d6000803e3d6000fd5b5050506001600160a01b039788166000908152600a6020526040902080549489166001600160a01b0319958616178155600181018054948a1694861694909417909355506002909101805491909616911617909355505050565b6117ff6060820160408301612bd3565b6001600160a01b038181166000908152600a60205260409020541633148061184357506001600160a01b038181166000908152600a60205260409020600201541633145b8061186a57506001600160a01b038181166000908152600a60205260409020600101541633145b6118865760405162461bcd60e51b81526004016106a9906130f2565b60006118a9336118996020860186612bd3565b61037f604087016020880161311c565b90506118b86060840184613137565b6118c99060e081019060c00161316d565b600082815260106020526040902060050180546001600160801b03928316600160801b0292169190911790556119026060840184613137565b60008281526010602090815260409091209101356001909101556119296060840184613137565b6000828152601060205260409081902091013560029091015561194f6060840184613137565b60008281526010602052604081206060929092013560038301556006820180546001600160801b0319169055600582015560070154156119a65760008181526010602052604081206119a691600790910190612a91565b60005b6119b66060850185613137565b6119c5906101608101906131b0565b9050811015610fb65760006119dd6060860186613137565b6119ec906101608101906131b0565b838181106119fc576119fc613200565b9050606002016020016020810190611a14919061316d565b6001600160801b03161115611a91576000828152601060205260409020600701611a416060860186613137565b611a50906101608101906131b0565b83818110611a6057611a60613200565b835460018101855560009485526020909420606090910292909201926002029091019050611a8e8282613216565b50505b80611a9b816132a3565b9150506119a9565b611aad3383612044565b611ac95760405162461bcd60e51b81526004016106a9906132bc565b610fb684848484612302565b6060611ae082611f74565b6000611af760408051602081019091526000815290565b90506000815111611b175760405180602001604052806000815250611b42565b80611b2184612335565b604051602001611b3292919061334b565b6040516020818303038152906040525b9392505050565b6040805160608101825260008082526020820181905291810191909152611b6e6129fe565b60008381526011602090815260408083205483526010825280832081516101808101835281546001600160a01b03168152600182015481850152600282015481840152600382015460608201526004820154608082015260058201546001600160801b0380821660a0840152600160801b91829004811660c0840152600684015490811660e084015290810460ff161515610100830152600160881b810463ffffffff908116610120840152600160a81b9091041661014082015260078201805484518187028101870190955280855291959294610160870194939192919084015b82821015611cab57600084815260209081902060408051606081018252600286810290930180549384900b825263010000009093046001600160801b0316818501526001928301549181019190915283529092019101611c50565b5050509152505080519091506001600160a01b0316611cc957915091565b80516040805160608101808352630dfe168160e01b9052905181906001600160a01b03841690630dfe1681906064808501916020918187030181865afa158015611d17573d6000803e3d6000fd5b505050506040513d601f19601f82011682018060405250810190611d3b9190613309565b6001600160a01b03168152602001826001600160a01b031663d21220a76040518163ffffffff1660e01b8152600401602060405180830381865afa158015611d87573d6000803e3d6000fd5b505050506040513d601f19601f82011682018060405250810190611dab9190613309565b6001600160a01b03168152602001826001600160a01b031663ddca3f436040518163ffffffff1660e01b8152600401602060405180830381865afa158015611df7573d6000803e3d6000fd5b505050506040513d601f19601f82011682018060405250810190611e1b9190613326565b62ffffff16815250925050915091565b6001600160a01b038084166000908152600a60205260408120549091859116331480611e7357506001600160a01b038181166000908152600a60205260409020600201541633145b80611e9a57506001600160a01b038181166000908152600a60205260409020600101541633145b611eb65760405162461bcd60e51b81526004016106a9906130f2565b611ec1338585610fbc565b60008181526012602052604081205491935003611f1c57611ee4846014546123c8565b6014805460009081526011602090815260408083208690558354868452601290925282208190559190611f16836132a3565b91905055505b509392505050565b60006001600160e01b031982166380ac58cd60e01b1480611f5557506001600160e01b03198216635b5e139f60e01b145b8061057657506301ffc9a760e01b6001600160e01b0319831614610576565b6000818152600260205260409020546001600160a01b0316611fd35760405162461bcd60e51b8152602060048201526018602482015277115490cdcc8c4e881a5b9d985b1a59081d1bdad95b88125160421b60448201526064016106a9565b50565b600081815260046020526040902080546001600160a01b0319166001600160a01b038416908117909155819061200b826110a5565b6001600160a01b03167f8c5be1e5ebec7d5bd14f71427d1e84f3dd0314c0f7b2291e5b200ac8c7c3b92560405160405180910390a45050565b600080612050836110a5565b9050806001600160a01b0316846001600160a01b0316148061209757506001600160a01b0380821660009081526005602090815260408083209388168352929052205460ff165b806120bb5750836001600160a01b03166120b08461060e565b6001600160a01b0316145b949350505050565b826001600160a01b03166120d6826110a5565b6001600160a01b0316146120fc5760405162461bcd60e51b81526004016106a99061337a565b6001600160a01b03821661215e5760405162461bcd60e51b8152602060048201526024808201527f4552433732313a207472616e7366657220746f20746865207a65726f206164646044820152637265737360e01b60648201526084016106a9565b61216b8383836001612561565b826001600160a01b031661217e826110a5565b6001600160a01b0316146121a45760405162461bcd60e51b81526004016106a99061337a565b600081815260046020908152604080832080546001600160a01b03199081169091556001600160a01b0387811680865260038552838620805460001901905590871680865283862080546001019055868652600290945282852080549092168417909155905184937fddf252ad1be2c89b69c2b068fc378daa952ba7f163c4a11628f55a4df523b3ef91a4505050565b816001600160a01b0316836001600160a01b0316036122955760405162461bcd60e51b815260206004820152601960248201527f4552433732313a20617070726f766520746f2063616c6c65720000000000000060448201526064016106a9565b6001600160a01b03838116600081815260056020908152604080832094871680845294825291829020805460ff191686151590811790915591519182527f17307eab39ab6107e8899845ad3d59bd9653f200f220920489ca2b5937696c31910160405180910390a3505050565b61230d8484846120c3565b61231984848484612695565b610fb65760405162461bcd60e51b81526004016106a9906133bf565b6060600061234283612796565b600101905060008167ffffffffffffffff81111561236257612362612dbb565b6040519080825280601f01601f19166020018201604052801561238c576020820181803683370190505b5090508181016020015b600019016f181899199a1a9b1b9c1cb0b131b232b360811b600a86061a8153600a850494508461239657509392505050565b6001600160a01b03821661241e5760405162461bcd60e51b815260206004820181905260248201527f4552433732313a206d696e7420746f20746865207a65726f206164647265737360448201526064016106a9565b6000818152600260205260409020546001600160a01b0316156124835760405162461bcd60e51b815260206004820152601c60248201527f4552433732313a20746f6b656e20616c7265616479206d696e7465640000000060448201526064016106a9565b612491600083836001612561565b6000818152600260205260409020546001600160a01b0316156124f65760405162461bcd60e51b815260206004820152601c60248201527f4552433732313a20746f6b656e20616c7265616479206d696e7465640000000060448201526064016106a9565b6001600160a01b038216600081815260036020908152604080832080546001019055848352600290915280822080546001600160a01b0319168417905551839291907fddf252ad1be2c89b69c2b068fc378daa952ba7f163c4a11628f55a4df523b3ef908290a45050565b60018111156125d05760405162461bcd60e51b815260206004820152603560248201527f455243373231456e756d657261626c653a20636f6e7365637574697665207472604482015274185b9cd9995c9cc81b9bdd081cdd5c1c1bdc9d1959605a1b60648201526084016106a9565b816001600160a01b03851661262c5761262781600880546000838152600960205260408120829055600182018355919091527ff3f7a9fe364faab93b216da50a3214154f22a0a2b415b23a84c8169e8b636ee30155565b61264f565b836001600160a01b0316856001600160a01b03161461264f5761264f858261286e565b6001600160a01b03841661266b576126668161290b565b61268e565b846001600160a01b0316846001600160a01b03161461268e5761268e84826129ba565b5050505050565b60006001600160a01b0384163b1561278b57604051630a85bd0160e11b81526001600160a01b0385169063150b7a02906126d9903390899088908890600401613411565b6020604051808303816000875af1925050508015612714575060408051601f3d908101601f1916820190925261271191810190613444565b60015b612771573d808015612742576040519150601f19603f3d011682016040523d82523d6000602084013e612747565b606091505b5080516000036127695760405162461bcd60e51b81526004016106a9906133bf565b805181602001fd5b6001600160e01b031916630a85bd0160e11b1490506120bb565b506001949350505050565b60008072184f03e93ff9f4daa797ed6e38ed64bf6a1f0160401b83106127d55772184f03e93ff9f4daa797ed6e38ed64bf6a1f0160401b830492506040015b6d04ee2d6d415b85acef81000000008310612801576d04ee2d6d415b85acef8100000000830492506020015b662386f26fc10000831061281f57662386f26fc10000830492506010015b6305f5e1008310612837576305f5e100830492506008015b612710831061284b57612710830492506004015b6064831061285d576064830492506002015b600a83106105765760010192915050565b6000600161287b84611105565b6128859190613461565b6000838152600760205260409020549091508082146128d8576001600160a01b03841660009081526006602090815260408083208584528252808320548484528184208190558352600790915290208190555b5060009182526007602090815260408084208490556001600160a01b039094168352600681528383209183525290812055565b60085460009061291d90600190613461565b6000838152600960205260408120546008805493945090928490811061294557612945613200565b90600052602060002001549050806008838154811061296657612966613200565b600091825260208083209091019290925582815260099091526040808220849055858252812055600880548061299e5761299e613474565b6001900381819060005260206000200160009055905550505050565b60006129c583611105565b6001600160a01b039093166000908152600660209081526040808320868452825280832085905593825260079052919091209190915550565b60405180610180016040528060006001600160a01b031681526020016000815260200160008152602001600081526020016000815260200160006001600160801b0316815260200160006001600160801b0316815260200160006001600160801b03168152602001600015158152602001600063ffffffff168152602001600063ffffffff168152602001606081525090565b5080546000825560020290600052602060002090810190611fd391905b80821115612adf57805472ffffffffffffffffffffffffffffffffffffff1916815560006001820155600201612aae565b5090565b6001600160e01b031981168114611fd357600080fd5b600060208284031215612b0b57600080fd5b8135611b4281612ae3565b60005b83811015612b31578181015183820152602001612b19565b50506000910152565b60008151808452612b52816020860160208601612b16565b601f01601f19169290920160200192915050565b602081526000611b426020830184612b3a565b600060208284031215612b8b57600080fd5b5035919050565b6001600160a01b0381168114611fd357600080fd5b60008060408385031215612bba57600080fd5b8235612bc581612b92565b946020939093013593505050565b600060208284031215612be557600080fd5b8135611b4281612b92565b600060208284031215612c0257600080fd5b813567ffffffffffffffff811115612c1957600080fd5b820160808185031215611b4257600080fd5b600081518084526020808501945080840160005b83811015612c7d578151805160020b8852838101516001600160801b0316848901526040908101519088015260609096019590820190600101612c3f565b509495945050505050565b80516001600160a01b0316825260006101806020830151602085015260408301516040850152606083015160608501526080830151608085015260a0830151612cdc60a08601826001600160801b03169052565b5060c0830151612cf760c08601826001600160801b03169052565b5060e0830151612d1260e08601826001600160801b03169052565b50610100838101511515908501526101208084015163ffffffff90811691860191909152610140808501519091169085015261016080840151818601839052612d5d83870182612c2b565b9695505050505050565b602081526000611b426020830184612c88565b600080600060608486031215612d8f57600080fd5b8335612d9a81612b92565b92506020840135612daa81612b92565b929592945050506040919091013590565b634e487b7160e01b600052604160045260246000fd5b604051601f8201601f1916810167ffffffffffffffff81118282101715612dfa57612dfa612dbb565b604052919050565b80358015158114612e1257600080fd5b919050565b600060c08284031215612e2957600080fd5b60405160c0810181811067ffffffffffffffff82111715612e4c57612e4c612dbb565b6040528235612e5a81612b92565b8152612e6860208401612e02565b60208201526040830135612e7b81612b92565b80604083015250606083013560608201526080830135608082015260a083013560a08201528091505092915050565b600080600060608486031215612ebf57600080fd5b8335612eca81612b92565b92506020840135612eda81612b92565b9150612ee860408501612e02565b90509250925092565b60008060408385031215612f0457600080fd5b8235612f0f81612b92565b9150612f1d60208401612e02565b90509250929050565b60008060008060808587031215612f3c57600080fd5b8435612f4781612b92565b9350602085810135612f5881612b92565b935060408601359250606086013567ffffffffffffffff80821115612f7c57600080fd5b818801915088601f830112612f9057600080fd5b813581811115612fa257612fa2612dbb565b612fb4601f8201601f19168501612dd1565b91508082528984828501011115612fca57600080fd5b808484018584013760008482840101525080935050505092959194509250565b60008060408385031215612ffd57600080fd5b823561300881612b92565b9150602083013561301881612b92565b809150509250929050565b600060018060a01b038085511683528060208601511660208401525062ffffff6040850151166040830152608060608301526120bb6080830184612c88565b6000806000806080858703121561307857600080fd5b843561308381612b92565b9350602085013561309381612b92565b925060408501356130a381612b92565b915060608501356130b381612b92565b939692955090935050565b600181811c908216806130d257607f821691505b602082108103610c8d57634e487b7160e01b600052602260045260246000fd5b60208082526010908201526f10b632bb32b930b3b2a6b0b730b3b2b960811b604082015260600190565b60006020828403121561312e57600080fd5b611b4282612e02565b6000823561017e1983360301811261314e57600080fd5b9190910192915050565b6001600160801b0381168114611fd357600080fd5b60006020828403121561317f57600080fd5b8135611b4281613158565b60006020828403121561319c57600080fd5b813563ffffffff81168114611b4257600080fd5b6000808335601e198436030181126131c757600080fd5b83018035915067ffffffffffffffff8211156131e257600080fd5b60200191506060810236038213156131f957600080fd5b9250929050565b634e487b7160e01b600052603260045260246000fd5b81358060020b811461322757600080fd5b815462ffffff82811662ffffff198316178455602085013561324881613158565b72ffffffffffffffffffffffffffffffff0000008160181b168285166cffffffffffffffffffffffffff60981b85161717855550505050604082013560018201555050565b634e487b7160e01b600052601160045260246000fd5b6000600182016132b5576132b561328d565b5060010190565b6020808252602d908201527f4552433732313a2063616c6c6572206973206e6f7420746f6b656e206f776e6560408201526c1c881bdc88185c1c1c9bdd9959609a1b606082015260800190565b60006020828403121561331b57600080fd5b8151611b4281612b92565b60006020828403121561333857600080fd5b815162ffffff81168114611b4257600080fd5b6000835161335d818460208801612b16565b835190830190613371818360208801612b16565b01949350505050565b60208082526025908201527f4552433732313a207472616e736665722066726f6d20696e636f72726563742060408201526437bbb732b960d91b606082015260800190565b60208082526032908201527f4552433732313a207472616e7366657220746f206e6f6e20455243373231526560408201527131b2b4bb32b91034b6b83632b6b2b73a32b960711b606082015260800190565b6001600160a01b0385811682528416602082015260408101839052608060608201819052600090612d5d90830184612b3a565b60006020828403121561345657600080fd5b8151611b4281612ae3565b818103818111156105765761057661328d565b634e487b7160e01b600052603160045260246000fdfea264697066735822122020ad7049e333f593df4c7d90e292738e8d30f82c60c2fe322e25f7375c9c3e3e64736f6c63430008110033",
    "linkReferences": {}
  },
  "methodIdentifiers": {
    "activatePosition(address,address,bool)": "ebfa2b19",
    "addPositionUpdate((address,bool,address,(address,uint256,uint256,uint256,uint256,uint128,uint128,uint128,bool,uint32,uint32,(int24,uint128,uint256)[])))": "1b5219bb",
    "approve(address,uint256)": "095ea7b3",
    "balanceOf(address)": "70a08231",
    "borrowManagerFactory()": "732de209",
    "computeId(address,address,bool)": "4cbb9938",
    "createPoolManagers(address)": "a7283be3",
    "deletePosition(address,address,bool)": "4472fbfd",
    "getApproved(uint256)": "081812fc",
    "getPosition(uint256)": "eb02c301",
    "initialize(address,address,address,address)": "f8c8765e",
    "isApprovedForAll(address,address)": "e985e9c5",
    "leverageManagerFactory()": "b96b83c2",
    "liquidityManagerFactory()": "5bae3c05",
    "name()": "06fdde03",
    "ownerOf(uint256)": "6352211e",
    "poolData(address)": "136efb7a",
    "positions(address,address,bool)": "750ff6b5",
    "premiumUpdate((address,bool,address,uint256,uint256,uint256))": "25f31145",
    "reducePositionUpdate((address,bool,address,(address,uint256,uint256,uint256,uint256,uint128,uint128,uint128,bool,uint32,uint32,(int24,uint128,uint256)[])))": "b4db07dd",
    "safeTransferFrom(address,address,uint256)": "42842e0e",
    "safeTransferFrom(address,address,uint256,bytes)": "b88d4fde",
    "setApprovalForAll(address,bool)": "a22cb465",
    "supportsInterface(bytes4)": "01ffc9a7",
    "symbol()": "95d89b41",
    "tokenByIndex(uint256)": "4f6ccce7",
    "tokenOfOwnerByIndex(address,uint256)": "2f745c59",
    "tokenURI(uint256)": "c87b56dd",
    "totalSupply()": "18160ddd",
    "transferFrom(address,address,uint256)": "23b872dd",
    "uniswapV3Factory()": "5b549182"
  },
  "id": 35
}