{
  "abi": [
    {
      "inputs": [],
      "stateMutability": "nonpayable",
      "type": "constructor"
    },
    {
      "anonymous": false,
      "inputs": [
        {
          "indexed": true,
          "internalType": "address",
          "name": "owner",
          "type": "address"
        },
        {
          "indexed": true,
          "internalType": "address",
          "name": "approved",
          "type": "address"
        },
        {
          "indexed": true,
          "internalType": "uint256",
          "name": "tokenId",
          "type": "uint256"
        }
      ],
      "name": "Approval",
      "type": "event"
    },
    {
      "anonymous": false,
      "inputs": [
        {
          "indexed": true,
          "internalType": "address",
          "name": "owner",
          "type": "address"
        },
        {
          "indexed": true,
          "internalType": "address",
          "name": "operator",
          "type": "address"
        },
        {
          "indexed": false,
          "internalType": "bool",
          "name": "approved",
          "type": "bool"
        }
      ],
      "name": "ApprovalForAll",
      "type": "event"
    },
    {
      "anonymous": false,
      "inputs": [
        {
          "indexed": true,
          "internalType": "address",
          "name": "from",
          "type": "address"
        },
        {
          "indexed": true,
          "internalType": "address",
          "name": "to",
          "type": "address"
        },
        {
          "indexed": true,
          "internalType": "uint256",
          "name": "tokenId",
          "type": "uint256"
        }
      ],
      "name": "Transfer",
      "type": "event"
    },
    {
      "inputs": [
        {
          "components": [
            {
              "internalType": "address",
              "name": "pool",
              "type": "address"
            },
            {
              "internalType": "address",
              "name": "trader",
              "type": "address"
            },
            {
              "internalType": "bool",
              "name": "isToken0",
              "type": "bool"
            },
            {
              "internalType": "bool",
              "name": "isBorrow",
              "type": "bool"
            }
          ],
          "internalType": "struct GlobalStorage.ActivatePositionParams",
          "name": "params",
          "type": "tuple"
        }
      ],
      "name": "activatePosition",
      "outputs": [
        {
          "internalType": "bytes32",
          "name": "positionId",
          "type": "bytes32"
        }
      ],
      "stateMutability": "nonpayable",
      "type": "function"
    },
    {
      "inputs": [
        {
          "components": [
            {
              "internalType": "address",
              "name": "trader",
              "type": "address"
            },
            {
              "internalType": "bool",
              "name": "isToken0",
              "type": "bool"
            },
            {
              "internalType": "bool",
              "name": "isBorrow",
              "type": "bool"
            },
            {
              "internalType": "address",
              "name": "pool",
              "type": "address"
            },
            {
              "components": [
                {
                  "internalType": "bool",
                  "name": "isBorrow",
                  "type": "bool"
                },
                {
                  "internalType": "address",
                  "name": "pool",
                  "type": "address"
                },
                {
                  "internalType": "uint256",
                  "name": "totalPosition",
                  "type": "uint256"
                },
                {
                  "internalType": "uint256",
                  "name": "totalDebt",
                  "type": "uint256"
                },
                {
                  "internalType": "uint256",
                  "name": "totalDebtInput",
                  "type": "uint256"
                },
                {
                  "internalType": "uint256",
                  "name": "initCollateral",
                  "type": "uint256"
                },
                {
                  "internalType": "uint128",
                  "name": "recentPremium",
                  "type": "uint128"
                },
                {
                  "internalType": "uint128",
                  "name": "totalPremium",
                  "type": "uint128"
                },
                {
                  "internalType": "uint128",
                  "name": "unusedPremium",
                  "type": "uint128"
                },
                {
                  "internalType": "bool",
                  "name": "isToken0",
                  "type": "bool"
                },
                {
                  "internalType": "uint32",
                  "name": "openTime",
                  "type": "uint32"
                },
                {
                  "internalType": "uint32",
                  "name": "repayTime",
                  "type": "uint32"
                },
                {
                  "components": [
                    {
                      "internalType": "int24",
                      "name": "tick",
                      "type": "int24"
                    },
                    {
                      "internalType": "uint128",
                      "name": "liquidity",
                      "type": "uint128"
                    },
                    {
                      "internalType": "uint256",
                      "name": "premiumOrUrate",
                      "type": "uint256"
                    }
                  ],
                  "internalType": "struct LiquidityManager.Liquidity[]",
                  "name": "borrowInfo",
                  "type": "tuple[]"
                }
              ],
              "internalType": "struct GlobalStorage.Position",
              "name": "position",
              "type": "tuple"
            }
          ],
          "internalType": "struct GlobalStorage.UpdatePositionParams",
          "name": "params",
          "type": "tuple"
        }
      ],
      "name": "addPositionUpdate",
      "outputs": [
        {
          "components": [
            {
              "internalType": "bool",
              "name": "isBorrow",
              "type": "bool"
            },
            {
              "internalType": "address",
              "name": "pool",
              "type": "address"
            },
            {
              "internalType": "uint256",
              "name": "totalPosition",
              "type": "uint256"
            },
            {
              "internalType": "uint256",
              "name": "totalDebt",
              "type": "uint256"
            },
            {
              "internalType": "uint256",
              "name": "totalDebtInput",
              "type": "uint256"
            },
            {
              "internalType": "uint256",
              "name": "initCollateral",
              "type": "uint256"
            },
            {
              "internalType": "uint128",
              "name": "recentPremium",
              "type": "uint128"
            },
            {
              "internalType": "uint128",
              "name": "totalPremium",
              "type": "uint128"
            },
            {
              "internalType": "uint128",
              "name": "unusedPremium",
              "type": "uint128"
            },
            {
              "internalType": "bool",
              "name": "isToken0",
              "type": "bool"
            },
            {
              "internalType": "uint32",
              "name": "openTime",
              "type": "uint32"
            },
            {
              "internalType": "uint32",
              "name": "repayTime",
              "type": "uint32"
            },
            {
              "components": [
                {
                  "internalType": "int24",
                  "name": "tick",
                  "type": "int24"
                },
                {
                  "internalType": "uint128",
                  "name": "liquidity",
                  "type": "uint128"
                },
                {
                  "internalType": "uint256",
                  "name": "premiumOrUrate",
                  "type": "uint256"
                }
              ],
              "internalType": "struct LiquidityManager.Liquidity[]",
              "name": "borrowInfo",
              "type": "tuple[]"
            }
          ],
          "internalType": "struct GlobalStorage.Position",
          "name": "position",
          "type": "tuple"
        }
      ],
      "stateMutability": "nonpayable",
      "type": "function"
    },
    {
      "inputs": [
        {
          "internalType": "address",
          "name": "to",
          "type": "address"
        },
        {
          "internalType": "uint256",
          "name": "tokenId",
          "type": "uint256"
        }
      ],
      "name": "approve",
      "outputs": [],
      "stateMutability": "nonpayable",
      "type": "function"
    },
    {
      "inputs": [
        {
          "internalType": "address",
          "name": "owner",
          "type": "address"
        }
      ],
      "name": "balanceOf",
      "outputs": [
        {
          "internalType": "uint256",
          "name": "",
          "type": "uint256"
        }
      ],
      "stateMutability": "view",
      "type": "function"
    },
    {
      "inputs": [],
      "name": "borrowManagerFactory",
      "outputs": [
        {
          "internalType": "contract BorrowManagerFactory",
          "name": "",
          "type": "address"
        }
      ],
      "stateMutability": "view",
      "type": "function"
    },
    {
      "inputs": [
        {
          "internalType": "address",
          "name": "leverageManager",
          "type": "address"
        },
        {
          "internalType": "address",
          "name": "trader",
          "type": "address"
        },
        {
          "internalType": "bool",
          "name": "isToken0",
          "type": "bool"
        }
      ],
      "name": "computeId",
      "outputs": [
        {
          "internalType": "bytes32",
          "name": "tokenId",
          "type": "bytes32"
        }
      ],
      "stateMutability": "view",
      "type": "function"
    },
    {
      "inputs": [
        {
          "internalType": "address",
          "name": "pool",
          "type": "address"
        }
      ],
      "name": "createPoolManagers",
      "outputs": [],
      "stateMutability": "nonpayable",
      "type": "function"
    },
    {
      "inputs": [
        {
          "components": [
            {
              "internalType": "address",
              "name": "pool",
              "type": "address"
            },
            {
              "internalType": "address",
              "name": "trader",
              "type": "address"
            },
            {
              "internalType": "bool",
              "name": "isToken0",
              "type": "bool"
            },
            {
              "internalType": "bool",
              "name": "isBorrow",
              "type": "bool"
            }
          ],
          "internalType": "struct GlobalStorage.DeletePositionParams",
          "name": "params",
          "type": "tuple"
        }
      ],
      "name": "deletePosition",
      "outputs": [],
      "stateMutability": "nonpayable",
      "type": "function"
    },
    {
      "inputs": [
        {
          "internalType": "uint256",
          "name": "tokenId",
          "type": "uint256"
        }
      ],
      "name": "getApproved",
      "outputs": [
        {
          "internalType": "address",
          "name": "",
          "type": "address"
        }
      ],
      "stateMutability": "view",
      "type": "function"
    },
    {
      "inputs": [
        {
          "internalType": "uint256",
          "name": "tokenId",
          "type": "uint256"
        }
      ],
      "name": "getPosition",
      "outputs": [
        {
          "components": [
            {
              "internalType": "address",
              "name": "token0",
              "type": "address"
            },
            {
              "internalType": "address",
              "name": "token1",
              "type": "address"
            },
            {
              "internalType": "uint24",
              "name": "fee",
              "type": "uint24"
            }
          ],
          "internalType": "struct GlobalStorage.LimitlessKey",
          "name": "key",
          "type": "tuple"
        },
        {
          "components": [
            {
              "internalType": "bool",
              "name": "isBorrow",
              "type": "bool"
            },
            {
              "internalType": "address",
              "name": "pool",
              "type": "address"
            },
            {
              "internalType": "uint256",
              "name": "totalPosition",
              "type": "uint256"
            },
            {
              "internalType": "uint256",
              "name": "totalDebt",
              "type": "uint256"
            },
            {
              "internalType": "uint256",
              "name": "totalDebtInput",
              "type": "uint256"
            },
            {
              "internalType": "uint256",
              "name": "initCollateral",
              "type": "uint256"
            },
            {
              "internalType": "uint128",
              "name": "recentPremium",
              "type": "uint128"
            },
            {
              "internalType": "uint128",
              "name": "totalPremium",
              "type": "uint128"
            },
            {
              "internalType": "uint128",
              "name": "unusedPremium",
              "type": "uint128"
            },
            {
              "internalType": "bool",
              "name": "isToken0",
              "type": "bool"
            },
            {
              "internalType": "uint32",
              "name": "openTime",
              "type": "uint32"
            },
            {
              "internalType": "uint32",
              "name": "repayTime",
              "type": "uint32"
            },
            {
              "components": [
                {
                  "internalType": "int24",
                  "name": "tick",
                  "type": "int24"
                },
                {
                  "internalType": "uint128",
                  "name": "liquidity",
                  "type": "uint128"
                },
                {
                  "internalType": "uint256",
                  "name": "premiumOrUrate",
                  "type": "uint256"
                }
              ],
              "internalType": "struct LiquidityManager.Liquidity[]",
              "name": "borrowInfo",
              "type": "tuple[]"
            }
          ],
          "internalType": "struct GlobalStorage.Position",
          "name": "position",
          "type": "tuple"
        }
      ],
      "stateMutability": "view",
      "type": "function"
    },
    {
      "inputs": [
        {
          "internalType": "address",
          "name": "_leverageManagerFactory",
          "type": "address"
        },
        {
          "internalType": "address",
          "name": "_liquidityManagerFactory",
          "type": "address"
        },
        {
          "internalType": "address",
          "name": "_borrowManagerFactory",
          "type": "address"
        },
        {
          "internalType": "address",
          "name": "_uniswapV3Factory",
          "type": "address"
        }
      ],
      "name": "initialize",
      "outputs": [],
      "stateMutability": "nonpayable",
      "type": "function"
    },
    {
      "inputs": [
        {
          "internalType": "address",
          "name": "owner",
          "type": "address"
        },
        {
          "internalType": "address",
          "name": "operator",
          "type": "address"
        }
      ],
      "name": "isApprovedForAll",
      "outputs": [
        {
          "internalType": "bool",
          "name": "",
          "type": "bool"
        }
      ],
      "stateMutability": "view",
      "type": "function"
    },
    {
      "inputs": [],
      "name": "leverageManagerFactory",
      "outputs": [
        {
          "internalType": "contract LeverageManagerFactory",
          "name": "",
          "type": "address"
        }
      ],
      "stateMutability": "view",
      "type": "function"
    },
    {
      "inputs": [],
      "name": "liquidityManagerFactory",
      "outputs": [
        {
          "internalType": "contract LiquidityManagerFactory",
          "name": "",
          "type": "address"
        }
      ],
      "stateMutability": "view",
      "type": "function"
    },
    {
      "inputs": [],
      "name": "name",
      "outputs": [
        {
          "internalType": "string",
          "name": "",
          "type": "string"
        }
      ],
      "stateMutability": "view",
      "type": "function"
    },
    {
      "inputs": [
        {
          "internalType": "uint256",
          "name": "tokenId",
          "type": "uint256"
        }
      ],
      "name": "ownerOf",
      "outputs": [
        {
          "internalType": "address",
          "name": "",
          "type": "address"
        }
      ],
      "stateMutability": "view",
      "type": "function"
    },
    {
      "inputs": [
        {
          "internalType": "address",
          "name": "",
          "type": "address"
        }
      ],
      "name": "poolData",
      "outputs": [
        {
          "internalType": "address",
          "name": "leverageManager",
          "type": "address"
        },
        {
          "internalType": "address",
          "name": "liquidityManager",
          "type": "address"
        },
        {
          "internalType": "address",
          "name": "borrowManager",
          "type": "address"
        },
        {
          "internalType": "address",
          "name": "interestManager",
          "type": "address"
        }
      ],
      "stateMutability": "view",
      "type": "function"
    },
    {
      "inputs": [
        {
          "internalType": "address",
          "name": "manager",
          "type": "address"
        },
        {
          "internalType": "address",
          "name": "trader",
          "type": "address"
        },
        {
          "internalType": "bool",
          "name": "isToken0",
          "type": "bool"
        }
      ],
      "name": "positions",
      "outputs": [
        {
          "components": [
            {
              "internalType": "bool",
              "name": "isBorrow",
              "type": "bool"
            },
            {
              "internalType": "address",
              "name": "pool",
              "type": "address"
            },
            {
              "internalType": "uint256",
              "name": "totalPosition",
              "type": "uint256"
            },
            {
              "internalType": "uint256",
              "name": "totalDebt",
              "type": "uint256"
            },
            {
              "internalType": "uint256",
              "name": "totalDebtInput",
              "type": "uint256"
            },
            {
              "internalType": "uint256",
              "name": "initCollateral",
              "type": "uint256"
            },
            {
              "internalType": "uint128",
              "name": "recentPremium",
              "type": "uint128"
            },
            {
              "internalType": "uint128",
              "name": "totalPremium",
              "type": "uint128"
            },
            {
              "internalType": "uint128",
              "name": "unusedPremium",
              "type": "uint128"
            },
            {
              "internalType": "bool",
              "name": "isToken0",
              "type": "bool"
            },
            {
              "internalType": "uint32",
              "name": "openTime",
              "type": "uint32"
            },
            {
              "internalType": "uint32",
              "name": "repayTime",
              "type": "uint32"
            },
            {
              "components": [
                {
                  "internalType": "int24",
                  "name": "tick",
                  "type": "int24"
                },
                {
                  "internalType": "uint128",
                  "name": "liquidity",
                  "type": "uint128"
                },
                {
                  "internalType": "uint256",
                  "name": "premiumOrUrate",
                  "type": "uint256"
                }
              ],
              "internalType": "struct LiquidityManager.Liquidity[]",
              "name": "borrowInfo",
              "type": "tuple[]"
            }
          ],
          "internalType": "struct GlobalStorage.Position",
          "name": "position",
          "type": "tuple"
        }
      ],
      "stateMutability": "view",
      "type": "function"
    },
    {
      "inputs": [
        {
          "components": [
            {
              "internalType": "address",
              "name": "trader",
              "type": "address"
            },
            {
              "internalType": "bool",
              "name": "isToken0",
              "type": "bool"
            },
            {
              "internalType": "bool",
              "name": "isBorrow",
              "type": "bool"
            },
            {
              "internalType": "address",
              "name": "pool",
              "type": "address"
            },
            {
              "internalType": "uint256",
              "name": "recentPremium",
              "type": "uint256"
            },
            {
              "internalType": "uint256",
              "name": "unusedPremium",
              "type": "uint256"
            },
            {
              "internalType": "uint256",
              "name": "totalPremium",
              "type": "uint256"
            }
          ],
          "internalType": "struct GlobalStorage.PremiumUpdateParams",
          "name": "params",
          "type": "tuple"
        }
      ],
      "name": "premiumUpdate",
      "outputs": [],
      "stateMutability": "nonpayable",
      "type": "function"
    },
    {
      "inputs": [
        {
          "components": [
            {
              "internalType": "address",
              "name": "trader",
              "type": "address"
            },
            {
              "internalType": "bool",
              "name": "isToken0",
              "type": "bool"
            },
            {
              "internalType": "bool",
              "name": "isBorrow",
              "type": "bool"
            },
            {
              "internalType": "address",
              "name": "pool",
              "type": "address"
            },
            {
              "components": [
                {
                  "internalType": "bool",
                  "name": "isBorrow",
                  "type": "bool"
                },
                {
                  "internalType": "address",
                  "name": "pool",
                  "type": "address"
                },
                {
                  "internalType": "uint256",
                  "name": "totalPosition",
                  "type": "uint256"
                },
                {
                  "internalType": "uint256",
                  "name": "totalDebt",
                  "type": "uint256"
                },
                {
                  "internalType": "uint256",
                  "name": "totalDebtInput",
                  "type": "uint256"
                },
                {
                  "internalType": "uint256",
                  "name": "initCollateral",
                  "type": "uint256"
                },
                {
                  "internalType": "uint128",
                  "name": "recentPremium",
                  "type": "uint128"
                },
                {
                  "internalType": "uint128",
                  "name": "totalPremium",
                  "type": "uint128"
                },
                {
                  "internalType": "uint128",
                  "name": "unusedPremium",
                  "type": "uint128"
                },
                {
                  "internalType": "bool",
                  "name": "isToken0",
                  "type": "bool"
                },
                {
                  "internalType": "uint32",
                  "name": "openTime",
                  "type": "uint32"
                },
                {
                  "internalType": "uint32",
                  "name": "repayTime",
                  "type": "uint32"
                },
                {
                  "components": [
                    {
                      "internalType": "int24",
                      "name": "tick",
                      "type": "int24"
                    },
                    {
                      "internalType": "uint128",
                      "name": "liquidity",
                      "type": "uint128"
                    },
                    {
                      "internalType": "uint256",
                      "name": "premiumOrUrate",
                      "type": "uint256"
                    }
                  ],
                  "internalType": "struct LiquidityManager.Liquidity[]",
                  "name": "borrowInfo",
                  "type": "tuple[]"
                }
              ],
              "internalType": "struct GlobalStorage.Position",
              "name": "position",
              "type": "tuple"
            }
          ],
          "internalType": "struct GlobalStorage.UpdatePositionParams",
          "name": "params",
          "type": "tuple"
        }
      ],
      "name": "reducePositionUpdate",
      "outputs": [],
      "stateMutability": "nonpayable",
      "type": "function"
    },
    {
      "inputs": [
        {
          "internalType": "address",
          "name": "from",
          "type": "address"
        },
        {
          "internalType": "address",
          "name": "to",
          "type": "address"
        },
        {
          "internalType": "uint256",
          "name": "tokenId",
          "type": "uint256"
        }
      ],
      "name": "safeTransferFrom",
      "outputs": [],
      "stateMutability": "nonpayable",
      "type": "function"
    },
    {
      "inputs": [
        {
          "internalType": "address",
          "name": "from",
          "type": "address"
        },
        {
          "internalType": "address",
          "name": "to",
          "type": "address"
        },
        {
          "internalType": "uint256",
          "name": "tokenId",
          "type": "uint256"
        },
        {
          "internalType": "bytes",
          "name": "data",
          "type": "bytes"
        }
      ],
      "name": "safeTransferFrom",
      "outputs": [],
      "stateMutability": "nonpayable",
      "type": "function"
    },
    {
      "inputs": [
        {
          "internalType": "address",
          "name": "operator",
          "type": "address"
        },
        {
          "internalType": "bool",
          "name": "approved",
          "type": "bool"
        }
      ],
      "name": "setApprovalForAll",
      "outputs": [],
      "stateMutability": "nonpayable",
      "type": "function"
    },
    {
      "inputs": [
        {
          "internalType": "bytes4",
          "name": "interfaceId",
          "type": "bytes4"
        }
      ],
      "name": "supportsInterface",
      "outputs": [
        {
          "internalType": "bool",
          "name": "",
          "type": "bool"
        }
      ],
      "stateMutability": "view",
      "type": "function"
    },
    {
      "inputs": [],
      "name": "symbol",
      "outputs": [
        {
          "internalType": "string",
          "name": "",
          "type": "string"
        }
      ],
      "stateMutability": "view",
      "type": "function"
    },
    {
      "inputs": [
        {
          "internalType": "uint256",
          "name": "index",
          "type": "uint256"
        }
      ],
      "name": "tokenByIndex",
      "outputs": [
        {
          "internalType": "uint256",
          "name": "",
          "type": "uint256"
        }
      ],
      "stateMutability": "view",
      "type": "function"
    },
    {
      "inputs": [
        {
          "internalType": "address",
          "name": "owner",
          "type": "address"
        },
        {
          "internalType": "uint256",
          "name": "index",
          "type": "uint256"
        }
      ],
      "name": "tokenOfOwnerByIndex",
      "outputs": [
        {
          "internalType": "uint256",
          "name": "",
          "type": "uint256"
        }
      ],
      "stateMutability": "view",
      "type": "function"
    },
    {
      "inputs": [
        {
          "internalType": "uint256",
          "name": "tokenId",
          "type": "uint256"
        }
      ],
      "name": "tokenURI",
      "outputs": [
        {
          "internalType": "string",
          "name": "",
          "type": "string"
        }
      ],
      "stateMutability": "view",
      "type": "function"
    },
    {
      "inputs": [],
      "name": "totalSupply",
      "outputs": [
        {
          "internalType": "uint256",
          "name": "",
          "type": "uint256"
        }
      ],
      "stateMutability": "view",
      "type": "function"
    },
    {
      "inputs": [
        {
          "internalType": "address",
          "name": "from",
          "type": "address"
        },
        {
          "internalType": "address",
          "name": "to",
          "type": "address"
        },
        {
          "internalType": "uint256",
          "name": "tokenId",
          "type": "uint256"
        }
      ],
      "name": "transferFrom",
      "outputs": [],
      "stateMutability": "nonpayable",
      "type": "function"
    },
    {
      "inputs": [],
      "name": "uniswapV3Factory",
      "outputs": [
        {
          "internalType": "contract UniswapV3Factory",
          "name": "",
          "type": "address"
        }
      ],
      "stateMutability": "view",
      "type": "function"
    }
  ],
  "bytecode": {
    "object": "0x608060405260016014819055601580546001600160501b03191690911790553480156200002b57600080fd5b506040518060400160405280601d81526020017f4c696d69746c65737320563120506f736974696f6e73204e46542d56300000008152506040518060400160405280600a8152602001694c4d542d56312d504f5360b01b815250816000908162000096919062000153565b506001620000a5828262000153565b5050506200021f565b634e487b7160e01b600052604160045260246000fd5b600181811c90821680620000d957607f821691505b602082108103620000fa57634e487b7160e01b600052602260045260246000fd5b50919050565b601f8211156200014e57600081815260208120601f850160051c81016020861015620001295750805b601f850160051c820191505b818110156200014a5782815560010162000135565b5050505b505050565b81516001600160401b038111156200016f576200016f620000ae565b6200018781620001808454620000c4565b8462000100565b602080601f831160018114620001bf5760008415620001a65750858301515b600019600386901b1c1916600185901b1785556200014a565b600085815260208120601f198616915b82811015620001f057888601518255948401946001909101908401620001cf565b50858210156200020f5787850151600019600388901b60f8161c191681555b5050505050600190811b01905550565b613544806200022f6000396000f3fe608060405234801561001057600080fd5b50600436106101e55760003560e01c80635bae3c051161010f578063b19e2590116100a2578063d9562ec711610071578063d9562ec714610483578063e985e9c514610496578063eb02c301146104d2578063f8c8765e146104f357600080fd5b8063b19e259014610437578063b88d4fde1461044a578063b96b83c21461045d578063c87b56dd1461047057600080fd5b8063750ff6b5116100de578063750ff6b5146103e957806395d89b4114610409578063a22cb46514610411578063a7283be31461042457600080fd5b80635bae3c051461039d5780636352211e146103b057806370a08231146103c3578063732de209146103d657600080fd5b806323b872dd1161018757806346bd03631161015657806346bd0363146103515780634cbb9938146103645780634f6ccce7146103775780635b5491821461038a57600080fd5b806323b872dd146103055780632f745c59146103185780633a5177df1461032b57806342842e0e1461033e57600080fd5b80630850d0e9116101c35780630850d0e914610252578063095ea7b314610267578063136efb7a1461027a57806318160ddd146102f357600080fd5b806301ffc9a7146101ea57806306fdde0314610212578063081812fc14610227575b600080fd5b6101fd6101f8366004612abe565b610551565b60405190151581526020015b60405180910390f35b61021a61057c565b6040516102099190612b2b565b61023a610235366004612b3e565b61060e565b6040516001600160a01b039091168152602001610209565b610265610260366004612b57565b610635565b005b610265610275366004612ba7565b6108e8565b6102c0610288366004612bd3565b600a6020526000908152604090208054600182015460028301546003909301546001600160a01b039283169391831692918216911684565b604080516001600160a01b0395861681529385166020850152918416918301919091529091166060820152608001610209565b6008545b604051908152602001610209565b610265610313366004612bf0565b6109fd565b6102f7610326366004612ba7565b610a2e565b610265610339366004612d11565b610ac4565b61026561034c366004612bf0565b610bcb565b6102f761035f366004612d11565b610be6565b6102f7610372366004612d2d565b610cee565b6102f7610385366004612b3e565b610d44565b600e5461023a906001600160a01b031681565b600d5461023a906001600160a01b031681565b61023a6103be366004612b3e565b610dd7565b6102f76103d1366004612bd3565b610e37565b600b5461023a906001600160a01b031681565b6103fc6103f7366004612d2d565b610ebd565b6040516102099190612ebd565b61021a61102f565b61026561041f366004612ed0565b61103e565b610265610432366004612bd3565b61104d565b6103fc610445366004612b57565b611532565b610265610458366004612f05565b611a65565b600c5461023a906001600160a01b031681565b61021a61047e366004612b3e565b611a97565b610265610491366004612fc9565b611b0b565b6101fd6104a436600461306d565b6001600160a01b03918216600090815260056020908152604080832093909416825291909152205460ff1690565b6104e56104e0366004612b3e565b611c16565b6040516102099291906130a6565b6102656105013660046130e5565b600c80546001600160a01b039586166001600160a01b031991821617909155600d805494861694821694909417909355600b805492851692841692909217909155600e8054919093169116179055565b60006001600160e01b0319821663780e9d6360e01b1480610576575061057682611f10565b92915050565b60606000805461058b90613141565b80601f01602080910402602001604051908101604052809291908181526020018280546105b790613141565b80156106045780601f106105d957610100808354040283529160200191610604565b820191906000526020600020905b8154815290600101906020018083116105e757829003601f168201915b5050505050905090565b600061061982611f60565b506000908152600460205260409020546001600160a01b031690565b6106456080820160608301612bd3565b610655606083016040840161317b565b8061067c576001600160a01b038281166000908152600a602052604090205416331461069d565b6001600160a01b038281166000908152600a60205260409020600201541633145b6106c25760405162461bcd60e51b81526004016106b990613196565b60405180910390fd5b60006106e5336106d56020870187612bd3565b610372604088016020890161317b565b90506106f460808501856131bb565b6107069061010081019060e0016131f1565b600082815260106020526040902060050180546001600160801b03928316600160801b02921691909117905561073f60808501856131bb565b6000828152601060205260409081902091013560019091015561076560808501856131bb565b60008281526010602052604090206060919091013560029091015561078d60808501856131bb565b60008281526010602052604081206080929092013560038301556006820180546001600160801b0319169055600582015560070154156107e45760008181526010602052604081206107e4916007909101906129e3565b60005b6107f460808601866131bb565b6108039061018081019061320e565b90508110156108e157600061081b60808701876131bb565b61082a9061018081019061320e565b8381811061083a5761083a61325e565b905060600201602001602081019061085291906131f1565b6001600160801b031611156108cf57600082815260106020526040902060070161087f60808701876131bb565b61088e9061018081019061320e565b8381811061089e5761089e61325e565b8354600181018555600094855260209094206060909102929092019260020290910190506108cc8282613274565b50505b806108d981613301565b9150506107e7565b5050505050565b60006108f382610dd7565b9050806001600160a01b0316836001600160a01b0316036109605760405162461bcd60e51b815260206004820152602160248201527f4552433732313a20617070726f76616c20746f2063757272656e74206f776e656044820152603960f91b60648201526084016106b9565b336001600160a01b038216148061097c575061097c81336104a4565b6109ee5760405162461bcd60e51b815260206004820152603d60248201527f4552433732313a20617070726f76652063616c6c6572206973206e6f7420746f60448201527f6b656e206f776e6572206f7220617070726f76656420666f7220616c6c00000060648201526084016106b9565b6109f88383611fc2565b505050565b610a073382612030565b610a235760405162461bcd60e51b81526004016106b99061331a565b6109f88383836120af565b6000610a3983610e37565b8210610a9b5760405162461bcd60e51b815260206004820152602b60248201527f455243373231456e756d657261626c653a206f776e657220696e646578206f7560448201526a74206f6620626f756e647360a81b60648201526084016106b9565b506001600160a01b03919091166000908152600660209081526040808320938352929052205490565b8051606082015180610af2576001600160a01b038281166000908152600a6020526040902054163314610b13565b6001600160a01b038281166000908152600a60205260409020600201541633145b610b2f5760405162461bcd60e51b81526004016106b990613196565b6000610b443385602001518660400151610cee565b60008181526012602052604081205491925003610b615750505050565b6000818152601060205260408120600181018290556002810182905560038101829055600481018290556005810182905560068101805478ffffffffffffffff00ffffffffffffffffffffffffffffffff19169055610bc5916007909101906129e3565b50505050565b6109f883838360405180602001604052806000815250611a65565b60008160000151826060015180610c19576001600160a01b038281166000908152600a6020526040902054163314610c3a565b6001600160a01b038281166000908152600a60205260409020600201541633145b610c565760405162461bcd60e51b81526004016106b990613196565b610c693385602001518660400151610cee565b60008181526012602052604081205491945003610ce757610c908460200151601454612220565b60608401516000848152601060209081526040808320805460ff19169415159490941790935560148054835260118252838320879055805487845260129092529282208190559190610ce183613301565b91905055505b5050919050565b6040516bffffffffffffffffffffffff19606085811b8216602084015284901b16603482015281151560f81b60488201526000906049016040516020818303038152906040528051906020012090509392505050565b6000610d4f60085490565b8210610db25760405162461bcd60e51b815260206004820152602c60248201527f455243373231456e756d657261626c653a20676c6f62616c20696e646578206f60448201526b7574206f6620626f756e647360a01b60648201526084016106b9565b60088281548110610dc557610dc561325e565b90600052602060002001549050919050565b6000818152600260205260408120546001600160a01b0316806105765760405162461bcd60e51b8152602060048201526018602482015277115490cdcc8c4e881a5b9d985b1a59081d1bdad95b88125160421b60448201526064016106b9565b60006001600160a01b038216610ea15760405162461bcd60e51b815260206004820152602960248201527f4552433732313a2061646472657373207a65726f206973206e6f7420612076616044820152683634b21037bbb732b960b91b60648201526084016106b9565b506001600160a01b031660009081526003602052604090205490565b610ec5612a04565b600060106000610ed6878787610cee565b81526020808201929092526040908101600090812082516101a081018452815460ff808216151583526001600160a01b036101009283900416838801526001840154838701526002840154606084015260038401546080840152600484015460a084015260058401546001600160801b0380821660c0860152600160801b91829004811660e0860152600686015490811693850193909352820416151561012083015263ffffffff600160881b82048116610140840152600160a81b9091041661016082015260078201805485518188028101880190965280865291959294610180870194909391929184015b8282101561101e57600084815260209081902060408051606081018252600286810290930180549384900b825263010000009093046001600160801b0316818501526001928301549181019190915283529092019101610fc3565b505050915250909695505050505050565b60606001805461058b90613141565b6110493383836123b9565b5050565b6001600160a01b038181166000908152600a60205260409020541615801561109057506001600160a01b038181166000908152600a602052604090206001015416155b6110dc5760405162461bcd60e51b815260206004820152601b60248201527f706f6f6c206d616e616765727320616c7265616479206578697374000000000060448201526064016106b9565b6000816001600160a01b0316630dfe16816040518163ffffffff1660e01b8152600401602060405180830381865afa15801561111c573d6000803e3d6000fd5b505050506040513d601f19601f820116820180604052508101906111409190613367565b90506000826001600160a01b031663d21220a76040518163ffffffff1660e01b8152600401602060405180830381865afa158015611182573d6000803e3d6000fd5b505050506040513d601f19601f820116820180604052508101906111a69190613367565b90506000836001600160a01b031663ddca3f436040518163ffffffff1660e01b8152600401602060405180830381865afa1580156111e8573d6000803e3d6000fd5b505050506040513d601f19601f8201168201806040525081019061120c9190613384565b600c5460405163090ef7f360e31b81526001600160a01b0387811660048301528681166024830152858116604483015262ffffff8416606483015292935060009290911690634877bf98906084016020604051808303816000875af1158015611279573d6000803e3d6000fd5b505050506040513d601f19601f8201168201806040525081019061129d9190613367565b600d5460405163031036eb60e41b81526001600160a01b03888116600483015280841660248301528781166044830152868116606483015262ffffff86166084830152929350600092909116906331036eb09060a4016020604051808303816000875af1158015611312573d6000803e3d6000fd5b505050506040513d601f19601f820116820180604052508101906113369190613367565b600b54604051637b22ea1160e11b81526001600160a01b0389811660048301528881166024830152878116604483015262ffffff871660648301529293506000929091169063f645d422906084016020604051808303816000875af11580156113a3573d6000803e3d6000fd5b505050506040513d601f19601f820116820180604052508101906113c79190613367565b604051630f05893560e21b81526001600160a01b03848116600483015291925090841690633c1624d490602401600060405180830381600087803b15801561140e57600080fd5b505af1158015611422573d6000803e3d6000fd5b5050604051630f05893560e21b81526001600160a01b03858116600483015284169250633c1624d49150602401600060405180830381600087803b15801561146957600080fd5b505af115801561147d573d6000803e3d6000fd5b5050604051630f05893560e21b81526001600160a01b0385811660048301528a169250633c1624d49150602401600060405180830381600087803b1580156114c457600080fd5b505af11580156114d8573d6000803e3d6000fd5b5050506001600160a01b039788166000908152600a6020526040902080549489166001600160a01b0319958616178155600181018054948a1694861694909417909355506002909101805491909616911617909355505050565b61153a612a04565b61154a6080830160608401612bd3565b61155a606084016040850161317b565b80611581576001600160a01b038281166000908152600a60205260409020541633146115a2565b6001600160a01b038281166000908152600a60205260409020600201541633145b6115be5760405162461bcd60e51b81526004016106b990613196565b60006115e1336115d16020880188612bd3565b6103726040890160208a0161317b565b90506115f060808601866131bb565b6116029061010081019060e0016131f1565b600082815260106020526040902060050180546001600160801b03928316600160801b02921691909117905561163b60808601866131bb565b6000828152601060205260409081902091013560019091015561166160808601866131bb565b60008281526010602052604090206060919091013560029091015561168960808601866131bb565b60008281526010602052604090206080918201356003909101556116af908601866131bb565b600082815260106020526040902060a091909101356004909101556116d760808601866131bb565b6116ea906101408101906101200161317b565b60008281526010602052604090206006018054911515600160801b0260ff60801b1990921691909117905561172260808601866131bb565b61173590610160810190610140016133a9565b6000828152601060205260409020600601805463ffffffff92909216600160881b0263ffffffff60881b1990921691909117905561177660808601866131bb565b61178990610180810190610160016133a9565b6000828152601060205260409020600601805463ffffffff92909216600160a81b0263ffffffff60a81b199092169190911790556117cd6080860160608701612bd3565b600082815260106020526040902080546001600160a01b039290921661010002610100600160a81b03199092169190911781556007015415611826576000818152601060205260408120611826916007909101906129e3565b60005b61183660808701876131bb565b6118459061018081019061320e565b905081101561192357600061185d60808801886131bb565b61186c9061018081019061320e565b8381811061187c5761187c61325e565b905060600201602001602081019061189491906131f1565b6001600160801b031611156119115760008281526010602052604090206007016118c160808801886131bb565b6118d09061018081019061320e565b838181106118e0576118e061325e565b83546001810185556000948552602090942060609091029290920192600202909101905061190e8282613274565b50505b8061191b81613301565b915050611829565b50600081815260106020908152604080832081516101a081018352815460ff808216151583526001600160a01b036101009283900416838701526001840154838601526002840154606084015260038401546080840152600484015460a084015260058401546001600160801b0380821660c0860152600160801b91829004811660e0860152600686015490811693850193909352820416151561012083015263ffffffff600160881b82048116610140840152600160a81b909104166101608201526007820180548451818702810187019095528085529195929461018087019493919291908401821561101e57600084815260209081902060408051606081018252600286810290930180549384900b825263010000009093046001600160801b0316818501526001928301549181019190915283529092019101610fc3565b611a6f3383612030565b611a8b5760405162461bcd60e51b81526004016106b99061331a565b610bc584848484612487565b6060611aa282611f60565b6000611ab960408051602081019091526000815290565b90506000815111611ad95760405180602001604052806000815250611b04565b80611ae3846124ba565b604051602001611af49291906133cf565b6040516020818303038152906040525b9392505050565b8060600151816040015180611b3c576001600160a01b038281166000908152600a6020526040902054163314611b5d565b6001600160a01b038281166000908152600a60205260409020600201541633145b611b795760405162461bcd60e51b81526004016106b990613196565b6000611b8e3385600001518660200151610cee565b6000908152601060205260409020600681018054608087015160a088015178ffffffff0000000000ffffffffffffffffffffffffffffffff19909216600160a81b4263ffffffff16026001600160801b031916176001600160801b039283161790925560c090960151908616600160801b919096160294909417600590940193909355505050565b6040805160608101825260008082526020820181905291810191909152611c3b612a04565b60008381526011602090815260408083205483526010825280832081516101a081018352815460ff808216151583526001600160a01b036101009283900416838701526001840154838601526002840154606084015260038401546080840152600484015460a084015260058401546001600160801b0380821660c0860152600160801b91829004811660e0860152600686015490811693850193909352820416151561012083015263ffffffff600160881b82048116610140840152600160a81b9091041661016082015260078201805484518187028101870190955280855291959294610180870194939192919084015b82821015611d8957600084815260209081902060408051606081018252600286810290930180549384900b825263010000009093046001600160801b0316818501526001928301549181019190915283529092019101611d2e565b5050509152505060208101519091506001600160a01b0316611daa57915091565b6000816020015190506040518060600160405280826001600160a01b0316630dfe16816040518163ffffffff1660e01b8152600401602060405180830381865afa158015611dfc573d6000803e3d6000fd5b505050506040513d601f19601f82011682018060405250810190611e209190613367565b6001600160a01b03168152602001826001600160a01b031663d21220a76040518163ffffffff1660e01b8152600401602060405180830381865afa158015611e6c573d6000803e3d6000fd5b505050506040513d601f19601f82011682018060405250810190611e909190613367565b6001600160a01b03168152602001826001600160a01b031663ddca3f436040518163ffffffff1660e01b8152600401602060405180830381865afa158015611edc573d6000803e3d6000fd5b505050506040513d601f19601f82011682018060405250810190611f009190613384565b62ffffff16815250925050915091565b60006001600160e01b031982166380ac58cd60e01b1480611f4157506001600160e01b03198216635b5e139f60e01b145b8061057657506301ffc9a760e01b6001600160e01b0319831614610576565b6000818152600260205260409020546001600160a01b0316611fbf5760405162461bcd60e51b8152602060048201526018602482015277115490cdcc8c4e881a5b9d985b1a59081d1bdad95b88125160421b60448201526064016106b9565b50565b600081815260046020526040902080546001600160a01b0319166001600160a01b0384169081179091558190611ff782610dd7565b6001600160a01b03167f8c5be1e5ebec7d5bd14f71427d1e84f3dd0314c0f7b2291e5b200ac8c7c3b92560405160405180910390a45050565b60008061203c83610dd7565b9050806001600160a01b0316846001600160a01b0316148061208357506001600160a01b0380821660009081526005602090815260408083209388168352929052205460ff165b806120a75750836001600160a01b031661209c8461060e565b6001600160a01b0316145b949350505050565b826001600160a01b03166120c282610dd7565b6001600160a01b0316146120e85760405162461bcd60e51b81526004016106b9906133fe565b6001600160a01b03821661214a5760405162461bcd60e51b8152602060048201526024808201527f4552433732313a207472616e7366657220746f20746865207a65726f206164646044820152637265737360e01b60648201526084016106b9565b612157838383600161254d565b826001600160a01b031661216a82610dd7565b6001600160a01b0316146121905760405162461bcd60e51b81526004016106b9906133fe565b600081815260046020908152604080832080546001600160a01b03199081169091556001600160a01b0387811680865260038552838620805460001901905590871680865283862080546001019055868652600290945282852080549092168417909155905184937fddf252ad1be2c89b69c2b068fc378daa952ba7f163c4a11628f55a4df523b3ef91a4505050565b6001600160a01b0382166122765760405162461bcd60e51b815260206004820181905260248201527f4552433732313a206d696e7420746f20746865207a65726f206164647265737360448201526064016106b9565b6000818152600260205260409020546001600160a01b0316156122db5760405162461bcd60e51b815260206004820152601c60248201527f4552433732313a20746f6b656e20616c7265616479206d696e7465640000000060448201526064016106b9565b6122e960008383600161254d565b6000818152600260205260409020546001600160a01b03161561234e5760405162461bcd60e51b815260206004820152601c60248201527f4552433732313a20746f6b656e20616c7265616479206d696e7465640000000060448201526064016106b9565b6001600160a01b038216600081815260036020908152604080832080546001019055848352600290915280822080546001600160a01b0319168417905551839291907fddf252ad1be2c89b69c2b068fc378daa952ba7f163c4a11628f55a4df523b3ef908290a45050565b816001600160a01b0316836001600160a01b03160361241a5760405162461bcd60e51b815260206004820152601960248201527f4552433732313a20617070726f766520746f2063616c6c65720000000000000060448201526064016106b9565b6001600160a01b03838116600081815260056020908152604080832094871680845294825291829020805460ff191686151590811790915591519182527f17307eab39ab6107e8899845ad3d59bd9653f200f220920489ca2b5937696c31910160405180910390a3505050565b6124928484846120af565b61249e8484848461267a565b610bc55760405162461bcd60e51b81526004016106b990613443565b606060006124c78361277b565b600101905060008167ffffffffffffffff8111156124e7576124e7612c31565b6040519080825280601f01601f191660200182016040528015612511576020820181803683370190505b5090508181016020015b600019016f181899199a1a9b1b9c1cb0b131b232b360811b600a86061a8153600a850494508461251b57509392505050565b60018111156125bc5760405162461bcd60e51b815260206004820152603560248201527f455243373231456e756d657261626c653a20636f6e7365637574697665207472604482015274185b9cd9995c9cc81b9bdd081cdd5c1c1bdc9d1959605a1b60648201526084016106b9565b816001600160a01b0385166126185761261381600880546000838152600960205260408120829055600182018355919091527ff3f7a9fe364faab93b216da50a3214154f22a0a2b415b23a84c8169e8b636ee30155565b61263b565b836001600160a01b0316856001600160a01b03161461263b5761263b8582612853565b6001600160a01b03841661265757612652816128f0565b6108e1565b846001600160a01b0316846001600160a01b0316146108e1576108e1848261299f565b60006001600160a01b0384163b1561277057604051630a85bd0160e11b81526001600160a01b0385169063150b7a02906126be903390899088908890600401613495565b6020604051808303816000875af19250505080156126f9575060408051601f3d908101601f191682019092526126f6918101906134c8565b60015b612756573d808015612727576040519150601f19603f3d011682016040523d82523d6000602084013e61272c565b606091505b50805160000361274e5760405162461bcd60e51b81526004016106b990613443565b805181602001fd5b6001600160e01b031916630a85bd0160e11b1490506120a7565b506001949350505050565b60008072184f03e93ff9f4daa797ed6e38ed64bf6a1f0160401b83106127ba5772184f03e93ff9f4daa797ed6e38ed64bf6a1f0160401b830492506040015b6d04ee2d6d415b85acef810000000083106127e6576d04ee2d6d415b85acef8100000000830492506020015b662386f26fc10000831061280457662386f26fc10000830492506010015b6305f5e100831061281c576305f5e100830492506008015b612710831061283057612710830492506004015b60648310612842576064830492506002015b600a83106105765760010192915050565b6000600161286084610e37565b61286a91906134e5565b6000838152600760205260409020549091508082146128bd576001600160a01b03841660009081526006602090815260408083208584528252808320548484528184208190558352600790915290208190555b5060009182526007602090815260408084208490556001600160a01b039094168352600681528383209183525290812055565b600854600090612902906001906134e5565b6000838152600960205260408120546008805493945090928490811061292a5761292a61325e565b90600052602060002001549050806008838154811061294b5761294b61325e565b6000918252602080832090910192909255828152600990915260408082208490558582528120556008805480612983576129836134f8565b6001900381819060005260206000200160009055905550505050565b60006129aa83610e37565b6001600160a01b039093166000908152600660209081526040808320868452825280832085905593825260079052919091209190915550565b5080546000825560020290600052602060002090810190611fbf9190612a72565b604080516101a08101825260008082526020820181905291810182905260608082018390526080820183905260a0820183905260c0820183905260e0820183905261010082018390526101208201839052610140820183905261016082019290925261018081019190915290565b5b80821115612aa457805472ffffffffffffffffffffffffffffffffffffff1916815560006001820155600201612a73565b5090565b6001600160e01b031981168114611fbf57600080fd5b600060208284031215612ad057600080fd5b8135611b0481612aa8565b60005b83811015612af6578181015183820152602001612ade565b50506000910152565b60008151808452612b17816020860160208601612adb565b601f01601f19169290920160200192915050565b602081526000611b046020830184612aff565b600060208284031215612b5057600080fd5b5035919050565b600060208284031215612b6957600080fd5b813567ffffffffffffffff811115612b8057600080fd5b820160a08185031215611b0457600080fd5b6001600160a01b0381168114611fbf57600080fd5b60008060408385031215612bba57600080fd5b8235612bc581612b92565b946020939093013593505050565b600060208284031215612be557600080fd5b8135611b0481612b92565b600080600060608486031215612c0557600080fd5b8335612c1081612b92565b92506020840135612c2081612b92565b929592945050506040919091013590565b634e487b7160e01b600052604160045260246000fd5b604051601f8201601f1916810167ffffffffffffffff81118282101715612c7057612c70612c31565b604052919050565b80358015158114612c8857600080fd5b919050565b600060808284031215612c9f57600080fd5b6040516080810181811067ffffffffffffffff82111715612cc257612cc2612c31565b6040529050808235612cd381612b92565b81526020830135612ce381612b92565b6020820152612cf460408401612c78565b6040820152612d0560608401612c78565b60608201525092915050565b600060808284031215612d2357600080fd5b611b048383612c8d565b600080600060608486031215612d4257600080fd5b8335612d4d81612b92565b92506020840135612d5d81612b92565b9150612d6b60408501612c78565b90509250925092565b600081518084526020808501945080840160005b83811015612dc6578151805160020b8852838101516001600160801b0316848901526040908101519088015260609096019590820190600101612d88565b509495945050505050565b80511515825260006101a06020830151612df660208601826001600160a01b03169052565b5060408301516040850152606083015160608501526080830151608085015260a083015160a085015260c0830151612e3960c08601826001600160801b03169052565b5060e0830151612e5460e08601826001600160801b03169052565b50610100838101516001600160801b031690850152610120808401511515908501526101408084015163ffffffff90811691860191909152610160808501519091169085015261018080840151818601839052612eb383870182612d74565b9695505050505050565b602081526000611b046020830184612dd1565b60008060408385031215612ee357600080fd5b8235612eee81612b92565b9150612efc60208401612c78565b90509250929050565b60008060008060808587031215612f1b57600080fd5b8435612f2681612b92565b9350602085810135612f3781612b92565b935060408601359250606086013567ffffffffffffffff80821115612f5b57600080fd5b818801915088601f830112612f6f57600080fd5b813581811115612f8157612f81612c31565b612f93601f8201601f19168501612c47565b91508082528984828501011115612fa957600080fd5b808484018584013760008482840101525080935050505092959194509250565b600060e08284031215612fdb57600080fd5b60405160e0810181811067ffffffffffffffff82111715612ffe57612ffe612c31565b604052823561300c81612b92565b815261301a60208401612c78565b602082015261302b60408401612c78565b6040820152606083013561303e81612b92565b806060830152506080830135608082015260a083013560a082015260c083013560c08201528091505092915050565b6000806040838503121561308057600080fd5b823561308b81612b92565b9150602083013561309b81612b92565b809150509250929050565b600060018060a01b038085511683528060208601511660208401525062ffffff6040850151166040830152608060608301526120a76080830184612dd1565b600080600080608085870312156130fb57600080fd5b843561310681612b92565b9350602085013561311681612b92565b9250604085013561312681612b92565b9150606085013561313681612b92565b939692955090935050565b600181811c9082168061315557607f821691505b60208210810361317557634e487b7160e01b600052602260045260246000fd5b50919050565b60006020828403121561318d57600080fd5b611b0482612c78565b6020808252600b908201526a08585d5d1a1bdc9a5e995960aa1b604082015260600190565b6000823561019e198336030181126131d257600080fd5b9190910192915050565b6001600160801b0381168114611fbf57600080fd5b60006020828403121561320357600080fd5b8135611b04816131dc565b6000808335601e1984360301811261322557600080fd5b83018035915067ffffffffffffffff82111561324057600080fd5b602001915060608102360382131561325757600080fd5b9250929050565b634e487b7160e01b600052603260045260246000fd5b81358060020b811461328557600080fd5b815462ffffff82811662ffffff19831617845560208501356132a6816131dc565b72ffffffffffffffffffffffffffffffff0000008160181b168285166cffffffffffffffffffffffffff60981b85161717855550505050604082013560018201555050565b634e487b7160e01b600052601160045260246000fd5b600060018201613313576133136132eb565b5060010190565b6020808252602d908201527f4552433732313a2063616c6c6572206973206e6f7420746f6b656e206f776e6560408201526c1c881bdc88185c1c1c9bdd9959609a1b606082015260800190565b60006020828403121561337957600080fd5b8151611b0481612b92565b60006020828403121561339657600080fd5b815162ffffff81168114611b0457600080fd5b6000602082840312156133bb57600080fd5b813563ffffffff81168114611b0457600080fd5b600083516133e1818460208801612adb565b8351908301906133f5818360208801612adb565b01949350505050565b60208082526025908201527f4552433732313a207472616e736665722066726f6d20696e636f72726563742060408201526437bbb732b960d91b606082015260800190565b60208082526032908201527f4552433732313a207472616e7366657220746f206e6f6e20455243373231526560408201527131b2b4bb32b91034b6b83632b6b2b73a32b960711b606082015260800190565b6001600160a01b0385811682528416602082015260408101839052608060608201819052600090612eb390830184612aff565b6000602082840312156134da57600080fd5b8151611b0481612aa8565b81810381811115610576576105766132eb565b634e487b7160e01b600052603160045260246000fdfea2646970667358221220523aefacb7e4c9f77f79efb5b32046e388bef9a19a4adf6b8e28db125203372f64736f6c63430008110033",
    "linkReferences": {}
  },
  "methodIdentifiers": {
    "activatePosition((address,address,bool,bool))": "46bd0363",
    "addPositionUpdate((address,bool,bool,address,(bool,address,uint256,uint256,uint256,uint256,uint128,uint128,uint128,bool,uint32,uint32,(int24,uint128,uint256)[])))": "b19e2590",
    "approve(address,uint256)": "095ea7b3",
    "balanceOf(address)": "70a08231",
    "borrowManagerFactory()": "732de209",
    "computeId(address,address,bool)": "4cbb9938",
    "createPoolManagers(address)": "a7283be3",
    "deletePosition((address,address,bool,bool))": "3a5177df",
    "getApproved(uint256)": "081812fc",
    "getPosition(uint256)": "eb02c301",
    "initialize(address,address,address,address)": "f8c8765e",
    "isApprovedForAll(address,address)": "e985e9c5",
    "leverageManagerFactory()": "b96b83c2",
    "liquidityManagerFactory()": "5bae3c05",
    "name()": "06fdde03",
    "ownerOf(uint256)": "6352211e",
    "poolData(address)": "136efb7a",
    "positions(address,address,bool)": "750ff6b5",
    "premiumUpdate((address,bool,bool,address,uint256,uint256,uint256))": "d9562ec7",
    "reducePositionUpdate((address,bool,bool,address,(bool,address,uint256,uint256,uint256,uint256,uint128,uint128,uint128,bool,uint32,uint32,(int24,uint128,uint256)[])))": "0850d0e9",
    "safeTransferFrom(address,address,uint256)": "42842e0e",
    "safeTransferFrom(address,address,uint256,bytes)": "b88d4fde",
    "setApprovalForAll(address,bool)": "a22cb465",
    "supportsInterface(bytes4)": "01ffc9a7",
    "symbol()": "95d89b41",
    "tokenByIndex(uint256)": "4f6ccce7",
    "tokenOfOwnerByIndex(address,uint256)": "2f745c59",
    "tokenURI(uint256)": "c87b56dd",
    "totalSupply()": "18160ddd",
    "transferFrom(address,address,uint256)": "23b872dd",
    "uniswapV3Factory()": "5b549182"
  },
  "id": 35
}