{
  "_format": "hh-sol-artifact-1",
  "contractName": "GlobalStorage",
  "sourceName": "src/GlobalStorage.sol",
  "abi": [
    {
      "inputs": [],
      "stateMutability": "nonpayable",
      "type": "constructor"
    },
    {
      "inputs": [
        {
          "internalType": "address",
          "name": "tokenA",
          "type": "address"
        },
        {
          "internalType": "address",
          "name": "tokenB",
          "type": "address"
        },
        {
          "internalType": "uint24",
          "name": "fee",
          "type": "uint24"
        }
      ],
      "name": "createFull",
      "outputs": [
        {
          "internalType": "address",
          "name": "pool",
          "type": "address"
        }
      ],
      "stateMutability": "nonpayable",
      "type": "function"
    },
    {
      "inputs": [
        {
          "internalType": "address",
          "name": "pool",
          "type": "address"
        }
      ],
      "name": "createPoolManagers",
      "outputs": [],
      "stateMutability": "nonpayable",
      "type": "function"
    },
    {
      "inputs": [
        {
          "internalType": "address",
          "name": "_leverageManagerFactory",
          "type": "address"
        },
        {
          "internalType": "address",
          "name": "_liquidityManagerFactory",
          "type": "address"
        },
        {
          "internalType": "address",
          "name": "_uniswapV3Factory",
          "type": "address"
        }
      ],
      "name": "initialize",
      "outputs": [],
      "stateMutability": "nonpayable",
      "type": "function"
    },
    {
      "inputs": [],
      "name": "leverageManagerFactory",
      "outputs": [
        {
          "internalType": "contract LeverageManagerFactory",
          "name": "",
          "type": "address"
        }
      ],
      "stateMutability": "view",
      "type": "function"
    },
    {
      "inputs": [],
      "name": "liquidityManagerFactory",
      "outputs": [
        {
          "internalType": "contract LiquidityManagerFactory",
          "name": "",
          "type": "address"
        }
      ],
      "stateMutability": "view",
      "type": "function"
    },
    {
      "inputs": [
        {
          "internalType": "address",
          "name": "",
          "type": "address"
        }
      ],
      "name": "poolData",
      "outputs": [
        {
          "internalType": "address",
          "name": "leverageManager",
          "type": "address"
        },
        {
          "internalType": "address",
          "name": "liquidityManager",
          "type": "address"
        },
        {
          "internalType": "address",
          "name": "interestManager",
          "type": "address"
        }
      ],
      "stateMutability": "view",
      "type": "function"
    },
    {
      "inputs": [],
      "name": "uniswapV3Factory",
      "outputs": [
        {
          "internalType": "contract UniswapV3Factory",
          "name": "",
          "type": "address"
        }
      ],
      "stateMutability": "view",
      "type": "function"
    }
  ],
  "bytecode": "0x608060405234801561001057600080fd5b506104f2806100206000396000f3fe608060405234801561001057600080fd5b506004361061007d5760003560e01c8063a2934fe61161005b578063a2934fe61461012b578063a7283be31461013e578063b96b83c214610153578063c0c53b8b1461016657600080fd5b8063136efb7a146100825780635b549182146100ed5780635bae3c0514610118575b600080fd5b6100be6100903660046103ef565b6000602081905290815260409020805460018201546002909201546001600160a01b03918216928216911683565b604080516001600160a01b03948516815292841660208401529216918101919091526060015b60405180910390f35b600354610100906001600160a01b031681565b6040516001600160a01b0390911681526020016100e4565b600254610100906001600160a01b031681565b61010061013936600461040c565b6101b3565b61015161014c3660046103ef565b610249565b005b600154610100906001600160a01b031681565b61015161017436600461045f565b600180546001600160a01b039485166001600160a01b031991821617909155600280549385169382169390931790925560038054919093169116179055565b60035460405163a167129560e01b81526001600160a01b038581166004830152848116602483015262ffffff84166044830152600092169063a1671295906064016020604051808303816000875af1158015610213573d6000803e3d6000fd5b505050506040513d601f19601f82011682018060405250810190610237919061049f565b905061024281610249565b9392505050565b600154604051630da9d0e560e01b81526001600160a01b0383811660048301526000921690630da9d0e5906024016020604051808303816000875af1158015610296573d6000803e3d6000fd5b505050506040513d601f19601f820116820180604052508101906102ba919061049f565b600254604051635e77755d60e11b81526001600160a01b03858116600483015280841660248301529293506000929091169063bceeeaba906044016020604051808303816000875af1158015610314573d6000803e3d6000fd5b505050506040513d601f19601f82011682018060405250810190610338919061049f565b604051630f05893560e21b81526001600160a01b03808316600483015291925090831690633c1624d490602401600060405180830381600087803b15801561037f57600080fd5b505af1158015610393573d6000803e3d6000fd5b5050506001600160a01b03938416600090815260208190526040902080549385166001600160a01b0319948516178155600101805492909416919092161790915550565b6001600160a01b03811681146103ec57600080fd5b50565b60006020828403121561040157600080fd5b8135610242816103d7565b60008060006060848603121561042157600080fd5b833561042c816103d7565b9250602084013561043c816103d7565b9150604084013562ffffff8116811461045457600080fd5b809150509250925092565b60008060006060848603121561047457600080fd5b833561047f816103d7565b9250602084013561048f816103d7565b91506040840135610454816103d7565b6000602082840312156104b157600080fd5b8151610242816103d756fea2646970667358221220879df1340a400d9426816133ab9f5f6adb69c27fd5d1c39672032915fa65217464736f6c63430008120033",
  "linkReferences": {},
  "deployedLinkReferences": {}
}