{
  "abi": [
    {
      "inputs": [],
      "stateMutability": "nonpayable",
      "type": "constructor"
    },
    {
      "anonymous": false,
      "inputs": [
        {
          "indexed": true,
          "internalType": "address",
          "name": "owner",
          "type": "address"
        },
        {
          "indexed": true,
          "internalType": "address",
          "name": "approved",
          "type": "address"
        },
        {
          "indexed": true,
          "internalType": "uint256",
          "name": "tokenId",
          "type": "uint256"
        }
      ],
      "name": "Approval",
      "type": "event"
    },
    {
      "anonymous": false,
      "inputs": [
        {
          "indexed": true,
          "internalType": "address",
          "name": "owner",
          "type": "address"
        },
        {
          "indexed": true,
          "internalType": "address",
          "name": "operator",
          "type": "address"
        },
        {
          "indexed": false,
          "internalType": "bool",
          "name": "approved",
          "type": "bool"
        }
      ],
      "name": "ApprovalForAll",
      "type": "event"
    },
    {
      "anonymous": false,
      "inputs": [
        {
          "indexed": true,
          "internalType": "address",
          "name": "from",
          "type": "address"
        },
        {
          "indexed": true,
          "internalType": "address",
          "name": "to",
          "type": "address"
        },
        {
          "indexed": true,
          "internalType": "uint256",
          "name": "tokenId",
          "type": "uint256"
        }
      ],
      "name": "Transfer",
      "type": "event"
    },
    {
      "inputs": [
        {
          "components": [
            {
              "internalType": "address",
              "name": "trader",
              "type": "address"
            },
            {
              "internalType": "bool",
              "name": "isToken0",
              "type": "bool"
            },
            {
              "internalType": "bool",
              "name": "isBorrow",
              "type": "bool"
            },
            {
              "internalType": "address",
              "name": "pool",
              "type": "address"
            },
            {
              "components": [
                {
                  "internalType": "bool",
                  "name": "isBorrow",
                  "type": "bool"
                },
                {
                  "internalType": "address",
                  "name": "pool",
                  "type": "address"
                },
                {
                  "internalType": "uint256",
                  "name": "totalPosition",
                  "type": "uint256"
                },
                {
                  "internalType": "uint256",
                  "name": "totalDebt",
                  "type": "uint256"
                },
                {
                  "internalType": "uint256",
                  "name": "totalDebtInput",
                  "type": "uint256"
                },
                {
                  "internalType": "uint256",
                  "name": "initCollateral",
                  "type": "uint256"
                },
                {
                  "internalType": "uint128",
                  "name": "recentPremium",
                  "type": "uint128"
                },
                {
                  "internalType": "uint128",
                  "name": "totalPremium",
                  "type": "uint128"
                },
                {
                  "internalType": "uint128",
                  "name": "unusedPremium",
                  "type": "uint128"
                },
                {
                  "internalType": "bool",
                  "name": "isToken0",
                  "type": "bool"
                },
                {
                  "internalType": "uint32",
                  "name": "openTime",
                  "type": "uint32"
                },
                {
                  "internalType": "uint32",
                  "name": "repayTime",
                  "type": "uint32"
                },
                {
                  "components": [
                    {
                      "internalType": "int24",
                      "name": "tick",
                      "type": "int24"
                    },
                    {
                      "internalType": "uint128",
                      "name": "liquidity",
                      "type": "uint128"
                    },
                    {
                      "internalType": "uint256",
                      "name": "premiumOrUrate",
                      "type": "uint256"
                    }
                  ],
                  "internalType": "struct LiquidityManager.Liquidity[]",
                  "name": "borrowInfo",
                  "type": "tuple[]"
                }
              ],
              "internalType": "struct GlobalStorage.Position",
              "name": "position",
              "type": "tuple"
            }
          ],
          "internalType": "struct GlobalStorage.UpdatePositionParams",
          "name": "params",
          "type": "tuple"
        }
      ],
      "name": "addPositionUpdate",
      "outputs": [
        {
          "components": [
            {
              "internalType": "bool",
              "name": "isBorrow",
              "type": "bool"
            },
            {
              "internalType": "address",
              "name": "pool",
              "type": "address"
            },
            {
              "internalType": "uint256",
              "name": "totalPosition",
              "type": "uint256"
            },
            {
              "internalType": "uint256",
              "name": "totalDebt",
              "type": "uint256"
            },
            {
              "internalType": "uint256",
              "name": "totalDebtInput",
              "type": "uint256"
            },
            {
              "internalType": "uint256",
              "name": "initCollateral",
              "type": "uint256"
            },
            {
              "internalType": "uint128",
              "name": "recentPremium",
              "type": "uint128"
            },
            {
              "internalType": "uint128",
              "name": "totalPremium",
              "type": "uint128"
            },
            {
              "internalType": "uint128",
              "name": "unusedPremium",
              "type": "uint128"
            },
            {
              "internalType": "bool",
              "name": "isToken0",
              "type": "bool"
            },
            {
              "internalType": "uint32",
              "name": "openTime",
              "type": "uint32"
            },
            {
              "internalType": "uint32",
              "name": "repayTime",
              "type": "uint32"
            },
            {
              "components": [
                {
                  "internalType": "int24",
                  "name": "tick",
                  "type": "int24"
                },
                {
                  "internalType": "uint128",
                  "name": "liquidity",
                  "type": "uint128"
                },
                {
                  "internalType": "uint256",
                  "name": "premiumOrUrate",
                  "type": "uint256"
                }
              ],
              "internalType": "struct LiquidityManager.Liquidity[]",
              "name": "borrowInfo",
              "type": "tuple[]"
            }
          ],
          "internalType": "struct GlobalStorage.Position",
          "name": "position",
          "type": "tuple"
        }
      ],
      "stateMutability": "nonpayable",
      "type": "function"
    },
    {
      "inputs": [
        {
          "internalType": "address",
          "name": "to",
          "type": "address"
        },
        {
          "internalType": "uint256",
          "name": "tokenId",
          "type": "uint256"
        }
      ],
      "name": "approve",
      "outputs": [],
      "stateMutability": "nonpayable",
      "type": "function"
    },
    {
      "inputs": [
        {
          "internalType": "address",
          "name": "owner",
          "type": "address"
        }
      ],
      "name": "balanceOf",
      "outputs": [
        {
          "internalType": "uint256",
          "name": "",
          "type": "uint256"
        }
      ],
      "stateMutability": "view",
      "type": "function"
    },
    {
      "inputs": [],
      "name": "borrowManagerFactory",
      "outputs": [
        {
          "internalType": "contract BorrowManagerFactory",
          "name": "",
          "type": "address"
        }
      ],
      "stateMutability": "view",
      "type": "function"
    },
    {
      "inputs": [
        {
          "internalType": "address",
          "name": "leverageManager",
          "type": "address"
        },
        {
          "internalType": "address",
          "name": "trader",
          "type": "address"
        },
        {
          "internalType": "bool",
          "name": "isToken0",
          "type": "bool"
        }
      ],
      "name": "computeId",
      "outputs": [
        {
          "internalType": "bytes32",
          "name": "tokenId",
          "type": "bytes32"
        }
      ],
      "stateMutability": "view",
      "type": "function"
    },
    {
      "inputs": [
        {
          "internalType": "address",
          "name": "pool",
          "type": "address"
        }
      ],
      "name": "createPoolManagers",
      "outputs": [],
      "stateMutability": "nonpayable",
      "type": "function"
    },
    {
      "inputs": [
        {
          "components": [
            {
              "internalType": "address",
              "name": "pool",
              "type": "address"
            },
            {
              "internalType": "address",
              "name": "trader",
              "type": "address"
            },
            {
              "internalType": "bool",
              "name": "isToken0",
              "type": "bool"
            },
            {
              "internalType": "bool",
              "name": "isBorrow",
              "type": "bool"
            }
          ],
          "internalType": "struct GlobalStorage.DeletePositionParams",
          "name": "params",
          "type": "tuple"
        }
      ],
      "name": "deletePosition",
      "outputs": [],
      "stateMutability": "nonpayable",
      "type": "function"
    },
    {
      "inputs": [
        {
          "internalType": "uint256",
          "name": "tokenId",
          "type": "uint256"
        }
      ],
      "name": "getApproved",
      "outputs": [
        {
          "internalType": "address",
          "name": "",
          "type": "address"
        }
      ],
      "stateMutability": "view",
      "type": "function"
    },
    {
      "inputs": [
        {
          "internalType": "address",
          "name": "manager",
          "type": "address"
        },
        {
          "internalType": "address",
          "name": "trader",
          "type": "address"
        },
        {
          "internalType": "bool",
          "name": "isToken0",
          "type": "bool"
        }
      ],
      "name": "getPosition",
      "outputs": [
        {
          "components": [
            {
              "internalType": "address",
              "name": "token0",
              "type": "address"
            },
            {
              "internalType": "address",
              "name": "token1",
              "type": "address"
            },
            {
              "internalType": "uint24",
              "name": "fee",
              "type": "uint24"
            }
          ],
          "internalType": "struct GlobalStorage.LimitlessKey",
          "name": "key",
          "type": "tuple"
        },
        {
          "components": [
            {
              "internalType": "bool",
              "name": "isBorrow",
              "type": "bool"
            },
            {
              "internalType": "address",
              "name": "pool",
              "type": "address"
            },
            {
              "internalType": "uint256",
              "name": "totalPosition",
              "type": "uint256"
            },
            {
              "internalType": "uint256",
              "name": "totalDebt",
              "type": "uint256"
            },
            {
              "internalType": "uint256",
              "name": "totalDebtInput",
              "type": "uint256"
            },
            {
              "internalType": "uint256",
              "name": "initCollateral",
              "type": "uint256"
            },
            {
              "internalType": "uint128",
              "name": "recentPremium",
              "type": "uint128"
            },
            {
              "internalType": "uint128",
              "name": "totalPremium",
              "type": "uint128"
            },
            {
              "internalType": "uint128",
              "name": "unusedPremium",
              "type": "uint128"
            },
            {
              "internalType": "bool",
              "name": "isToken0",
              "type": "bool"
            },
            {
              "internalType": "uint32",
              "name": "openTime",
              "type": "uint32"
            },
            {
              "internalType": "uint32",
              "name": "repayTime",
              "type": "uint32"
            },
            {
              "components": [
                {
                  "internalType": "int24",
                  "name": "tick",
                  "type": "int24"
                },
                {
                  "internalType": "uint128",
                  "name": "liquidity",
                  "type": "uint128"
                },
                {
                  "internalType": "uint256",
                  "name": "premiumOrUrate",
                  "type": "uint256"
                }
              ],
              "internalType": "struct LiquidityManager.Liquidity[]",
              "name": "borrowInfo",
              "type": "tuple[]"
            }
          ],
          "internalType": "struct GlobalStorage.Position",
          "name": "position",
          "type": "tuple"
        }
      ],
      "stateMutability": "view",
      "type": "function"
    },
    {
      "inputs": [
        {
          "internalType": "uint256",
          "name": "tokenId",
          "type": "uint256"
        }
      ],
      "name": "getPositionFromId",
      "outputs": [
        {
          "components": [
            {
              "internalType": "address",
              "name": "token0",
              "type": "address"
            },
            {
              "internalType": "address",
              "name": "token1",
              "type": "address"
            },
            {
              "internalType": "uint24",
              "name": "fee",
              "type": "uint24"
            }
          ],
          "internalType": "struct GlobalStorage.LimitlessKey",
          "name": "key",
          "type": "tuple"
        },
        {
          "components": [
            {
              "internalType": "bool",
              "name": "isBorrow",
              "type": "bool"
            },
            {
              "internalType": "address",
              "name": "pool",
              "type": "address"
            },
            {
              "internalType": "uint256",
              "name": "totalPosition",
              "type": "uint256"
            },
            {
              "internalType": "uint256",
              "name": "totalDebt",
              "type": "uint256"
            },
            {
              "internalType": "uint256",
              "name": "totalDebtInput",
              "type": "uint256"
            },
            {
              "internalType": "uint256",
              "name": "initCollateral",
              "type": "uint256"
            },
            {
              "internalType": "uint128",
              "name": "recentPremium",
              "type": "uint128"
            },
            {
              "internalType": "uint128",
              "name": "totalPremium",
              "type": "uint128"
            },
            {
              "internalType": "uint128",
              "name": "unusedPremium",
              "type": "uint128"
            },
            {
              "internalType": "bool",
              "name": "isToken0",
              "type": "bool"
            },
            {
              "internalType": "uint32",
              "name": "openTime",
              "type": "uint32"
            },
            {
              "internalType": "uint32",
              "name": "repayTime",
              "type": "uint32"
            },
            {
              "components": [
                {
                  "internalType": "int24",
                  "name": "tick",
                  "type": "int24"
                },
                {
                  "internalType": "uint128",
                  "name": "liquidity",
                  "type": "uint128"
                },
                {
                  "internalType": "uint256",
                  "name": "premiumOrUrate",
                  "type": "uint256"
                }
              ],
              "internalType": "struct LiquidityManager.Liquidity[]",
              "name": "borrowInfo",
              "type": "tuple[]"
            }
          ],
          "internalType": "struct GlobalStorage.Position",
          "name": "position",
          "type": "tuple"
        }
      ],
      "stateMutability": "view",
      "type": "function"
    },
    {
      "inputs": [
        {
          "internalType": "address",
          "name": "_leverageManagerFactory",
          "type": "address"
        },
        {
          "internalType": "address",
          "name": "_liquidityManagerFactory",
          "type": "address"
        },
        {
          "internalType": "address",
          "name": "_borrowManagerFactory",
          "type": "address"
        },
        {
          "internalType": "address",
          "name": "_uniswapV3Factory",
          "type": "address"
        }
      ],
      "name": "initialize",
      "outputs": [],
      "stateMutability": "nonpayable",
      "type": "function"
    },
    {
      "inputs": [
        {
          "internalType": "address",
          "name": "owner",
          "type": "address"
        },
        {
          "internalType": "address",
          "name": "operator",
          "type": "address"
        }
      ],
      "name": "isApprovedForAll",
      "outputs": [
        {
          "internalType": "bool",
          "name": "",
          "type": "bool"
        }
      ],
      "stateMutability": "view",
      "type": "function"
    },
    {
      "inputs": [],
      "name": "leverageManagerFactory",
      "outputs": [
        {
          "internalType": "contract LeverageManagerFactory",
          "name": "",
          "type": "address"
        }
      ],
      "stateMutability": "view",
      "type": "function"
    },
    {
      "inputs": [],
      "name": "liquidityManagerFactory",
      "outputs": [
        {
          "internalType": "contract LiquidityManagerFactory",
          "name": "",
          "type": "address"
        }
      ],
      "stateMutability": "view",
      "type": "function"
    },
    {
      "inputs": [],
      "name": "name",
      "outputs": [
        {
          "internalType": "string",
          "name": "",
          "type": "string"
        }
      ],
      "stateMutability": "view",
      "type": "function"
    },
    {
      "inputs": [
        {
          "internalType": "uint256",
          "name": "tokenId",
          "type": "uint256"
        }
      ],
      "name": "ownerOf",
      "outputs": [
        {
          "internalType": "address",
          "name": "",
          "type": "address"
        }
      ],
      "stateMutability": "view",
      "type": "function"
    },
    {
      "inputs": [
        {
          "internalType": "address",
          "name": "",
          "type": "address"
        }
      ],
      "name": "poolData",
      "outputs": [
        {
          "internalType": "address",
          "name": "leverageManager",
          "type": "address"
        },
        {
          "internalType": "address",
          "name": "liquidityManager",
          "type": "address"
        },
        {
          "internalType": "address",
          "name": "borrowManager",
          "type": "address"
        },
        {
          "internalType": "address",
          "name": "interestManager",
          "type": "address"
        }
      ],
      "stateMutability": "view",
      "type": "function"
    },
    {
      "inputs": [
        {
          "internalType": "address",
          "name": "manager",
          "type": "address"
        },
        {
          "internalType": "address",
          "name": "trader",
          "type": "address"
        },
        {
          "internalType": "bool",
          "name": "isToken0",
          "type": "bool"
        }
      ],
      "name": "positions",
      "outputs": [
        {
          "components": [
            {
              "internalType": "bool",
              "name": "isBorrow",
              "type": "bool"
            },
            {
              "internalType": "address",
              "name": "pool",
              "type": "address"
            },
            {
              "internalType": "uint256",
              "name": "totalPosition",
              "type": "uint256"
            },
            {
              "internalType": "uint256",
              "name": "totalDebt",
              "type": "uint256"
            },
            {
              "internalType": "uint256",
              "name": "totalDebtInput",
              "type": "uint256"
            },
            {
              "internalType": "uint256",
              "name": "initCollateral",
              "type": "uint256"
            },
            {
              "internalType": "uint128",
              "name": "recentPremium",
              "type": "uint128"
            },
            {
              "internalType": "uint128",
              "name": "totalPremium",
              "type": "uint128"
            },
            {
              "internalType": "uint128",
              "name": "unusedPremium",
              "type": "uint128"
            },
            {
              "internalType": "bool",
              "name": "isToken0",
              "type": "bool"
            },
            {
              "internalType": "uint32",
              "name": "openTime",
              "type": "uint32"
            },
            {
              "internalType": "uint32",
              "name": "repayTime",
              "type": "uint32"
            },
            {
              "components": [
                {
                  "internalType": "int24",
                  "name": "tick",
                  "type": "int24"
                },
                {
                  "internalType": "uint128",
                  "name": "liquidity",
                  "type": "uint128"
                },
                {
                  "internalType": "uint256",
                  "name": "premiumOrUrate",
                  "type": "uint256"
                }
              ],
              "internalType": "struct LiquidityManager.Liquidity[]",
              "name": "borrowInfo",
              "type": "tuple[]"
            }
          ],
          "internalType": "struct GlobalStorage.Position",
          "name": "position",
          "type": "tuple"
        }
      ],
      "stateMutability": "view",
      "type": "function"
    },
    {
      "inputs": [
        {
          "components": [
            {
              "internalType": "address",
              "name": "trader",
              "type": "address"
            },
            {
              "internalType": "bool",
              "name": "isToken0",
              "type": "bool"
            },
            {
              "internalType": "bool",
              "name": "isBorrow",
              "type": "bool"
            },
            {
              "internalType": "address",
              "name": "pool",
              "type": "address"
            },
            {
              "internalType": "uint256",
              "name": "recentPremium",
              "type": "uint256"
            },
            {
              "internalType": "uint256",
              "name": "unusedPremium",
              "type": "uint256"
            },
            {
              "internalType": "uint256",
              "name": "totalPremium",
              "type": "uint256"
            }
          ],
          "internalType": "struct GlobalStorage.PremiumUpdateParams",
          "name": "params",
          "type": "tuple"
        }
      ],
      "name": "premiumUpdate",
      "outputs": [],
      "stateMutability": "nonpayable",
      "type": "function"
    },
    {
      "inputs": [
        {
          "components": [
            {
              "internalType": "address",
              "name": "trader",
              "type": "address"
            },
            {
              "internalType": "bool",
              "name": "isToken0",
              "type": "bool"
            },
            {
              "internalType": "bool",
              "name": "isBorrow",
              "type": "bool"
            },
            {
              "internalType": "address",
              "name": "pool",
              "type": "address"
            },
            {
              "internalType": "uint256",
              "name": "recentPremium",
              "type": "uint256"
            },
            {
              "internalType": "uint256",
              "name": "unusedPremium",
              "type": "uint256"
            },
            {
              "internalType": "uint256",
              "name": "totalPremium",
              "type": "uint256"
            },
            {
              "components": [
                {
                  "internalType": "int24",
                  "name": "tick",
                  "type": "int24"
                },
                {
                  "internalType": "uint128",
                  "name": "liquidity",
                  "type": "uint128"
                },
                {
                  "internalType": "uint256",
                  "name": "premiumOrUrate",
                  "type": "uint256"
                }
              ],
              "internalType": "struct LiquidityManager.Liquidity[]",
              "name": "borrowInfo",
              "type": "tuple[]"
            }
          ],
          "internalType": "struct GlobalStorage.PremiumUpdateParams_",
          "name": "params",
          "type": "tuple"
        }
      ],
      "name": "premiumUpdate_",
      "outputs": [],
      "stateMutability": "nonpayable",
      "type": "function"
    },
    {
      "inputs": [
        {
          "components": [
            {
              "internalType": "address",
              "name": "trader",
              "type": "address"
            },
            {
              "internalType": "bool",
              "name": "isToken0",
              "type": "bool"
            },
            {
              "internalType": "bool",
              "name": "isBorrow",
              "type": "bool"
            },
            {
              "internalType": "address",
              "name": "pool",
              "type": "address"
            },
            {
              "components": [
                {
                  "internalType": "bool",
                  "name": "isBorrow",
                  "type": "bool"
                },
                {
                  "internalType": "address",
                  "name": "pool",
                  "type": "address"
                },
                {
                  "internalType": "uint256",
                  "name": "totalPosition",
                  "type": "uint256"
                },
                {
                  "internalType": "uint256",
                  "name": "totalDebt",
                  "type": "uint256"
                },
                {
                  "internalType": "uint256",
                  "name": "totalDebtInput",
                  "type": "uint256"
                },
                {
                  "internalType": "uint256",
                  "name": "initCollateral",
                  "type": "uint256"
                },
                {
                  "internalType": "uint128",
                  "name": "recentPremium",
                  "type": "uint128"
                },
                {
                  "internalType": "uint128",
                  "name": "totalPremium",
                  "type": "uint128"
                },
                {
                  "internalType": "uint128",
                  "name": "unusedPremium",
                  "type": "uint128"
                },
                {
                  "internalType": "bool",
                  "name": "isToken0",
                  "type": "bool"
                },
                {
                  "internalType": "uint32",
                  "name": "openTime",
                  "type": "uint32"
                },
                {
                  "internalType": "uint32",
                  "name": "repayTime",
                  "type": "uint32"
                },
                {
                  "components": [
                    {
                      "internalType": "int24",
                      "name": "tick",
                      "type": "int24"
                    },
                    {
                      "internalType": "uint128",
                      "name": "liquidity",
                      "type": "uint128"
                    },
                    {
                      "internalType": "uint256",
                      "name": "premiumOrUrate",
                      "type": "uint256"
                    }
                  ],
                  "internalType": "struct LiquidityManager.Liquidity[]",
                  "name": "borrowInfo",
                  "type": "tuple[]"
                }
              ],
              "internalType": "struct GlobalStorage.Position",
              "name": "position",
              "type": "tuple"
            }
          ],
          "internalType": "struct GlobalStorage.UpdatePositionParams",
          "name": "params",
          "type": "tuple"
        }
      ],
      "name": "reducePositionUpdate",
      "outputs": [],
      "stateMutability": "nonpayable",
      "type": "function"
    },
    {
      "inputs": [
        {
          "internalType": "address",
          "name": "from",
          "type": "address"
        },
        {
          "internalType": "address",
          "name": "to",
          "type": "address"
        },
        {
          "internalType": "uint256",
          "name": "tokenId",
          "type": "uint256"
        }
      ],
      "name": "safeTransferFrom",
      "outputs": [],
      "stateMutability": "nonpayable",
      "type": "function"
    },
    {
      "inputs": [
        {
          "internalType": "address",
          "name": "from",
          "type": "address"
        },
        {
          "internalType": "address",
          "name": "to",
          "type": "address"
        },
        {
          "internalType": "uint256",
          "name": "tokenId",
          "type": "uint256"
        },
        {
          "internalType": "bytes",
          "name": "data",
          "type": "bytes"
        }
      ],
      "name": "safeTransferFrom",
      "outputs": [],
      "stateMutability": "nonpayable",
      "type": "function"
    },
    {
      "inputs": [
        {
          "internalType": "address",
          "name": "operator",
          "type": "address"
        },
        {
          "internalType": "bool",
          "name": "approved",
          "type": "bool"
        }
      ],
      "name": "setApprovalForAll",
      "outputs": [],
      "stateMutability": "nonpayable",
      "type": "function"
    },
    {
      "inputs": [
        {
          "internalType": "bytes4",
          "name": "interfaceId",
          "type": "bytes4"
        }
      ],
      "name": "supportsInterface",
      "outputs": [
        {
          "internalType": "bool",
          "name": "",
          "type": "bool"
        }
      ],
      "stateMutability": "view",
      "type": "function"
    },
    {
      "inputs": [],
      "name": "symbol",
      "outputs": [
        {
          "internalType": "string",
          "name": "",
          "type": "string"
        }
      ],
      "stateMutability": "view",
      "type": "function"
    },
    {
      "inputs": [
        {
          "internalType": "uint256",
          "name": "index",
          "type": "uint256"
        }
      ],
      "name": "tokenByIndex",
      "outputs": [
        {
          "internalType": "uint256",
          "name": "",
          "type": "uint256"
        }
      ],
      "stateMutability": "view",
      "type": "function"
    },
    {
      "inputs": [
        {
          "internalType": "address",
          "name": "owner",
          "type": "address"
        },
        {
          "internalType": "uint256",
          "name": "index",
          "type": "uint256"
        }
      ],
      "name": "tokenOfOwnerByIndex",
      "outputs": [
        {
          "internalType": "uint256",
          "name": "",
          "type": "uint256"
        }
      ],
      "stateMutability": "view",
      "type": "function"
    },
    {
      "inputs": [
        {
          "internalType": "uint256",
          "name": "tokenId",
          "type": "uint256"
        }
      ],
      "name": "tokenURI",
      "outputs": [
        {
          "internalType": "string",
          "name": "",
          "type": "string"
        }
      ],
      "stateMutability": "view",
      "type": "function"
    },
    {
      "inputs": [],
      "name": "totalSupply",
      "outputs": [
        {
          "internalType": "uint256",
          "name": "",
          "type": "uint256"
        }
      ],
      "stateMutability": "view",
      "type": "function"
    },
    {
      "inputs": [
        {
          "internalType": "address",
          "name": "from",
          "type": "address"
        },
        {
          "internalType": "address",
          "name": "to",
          "type": "address"
        },
        {
          "internalType": "uint256",
          "name": "tokenId",
          "type": "uint256"
        }
      ],
      "name": "transferFrom",
      "outputs": [],
      "stateMutability": "nonpayable",
      "type": "function"
    },
    {
      "inputs": [],
      "name": "uniswapV3Factory",
      "outputs": [
        {
          "internalType": "contract UniswapV3Factory",
          "name": "",
          "type": "address"
        }
      ],
      "stateMutability": "view",
      "type": "function"
    }
  ],
  "bytecode": {
    "object": "0x608060405260016014819055601580546001600160501b03191690911790553480156200002b57600080fd5b506040518060400160405280601d81526020017f4c696d69746c65737320563120506f736974696f6e73204e46542d56300000008152506040518060400160405280600a8152602001694c4d542d56312d504f5360b01b815250816000908162000096919062000153565b506001620000a5828262000153565b5050506200021f565b634e487b7160e01b600052604160045260246000fd5b600181811c90821680620000d957607f821691505b602082108103620000fa57634e487b7160e01b600052602260045260246000fd5b50919050565b601f8211156200014e57600081815260208120601f850160051c81016020861015620001295750805b601f850160051c820191505b818110156200014a5782815560010162000135565b5050505b505050565b81516001600160401b038111156200016f576200016f620000ae565b6200018781620001808454620000c4565b8462000100565b602080601f831160018114620001bf5760008415620001a65750858301515b600019600386901b1c1916600185901b1785556200014a565b600085815260208120601f198616915b82811015620001f057888601518255948401946001909101908401620001cf565b50858210156200020f5787850151600019600388901b60f8161c191681555b5050505050600190811b01905550565b613cc2806200022f6000396000f3fe608060405234801561001057600080fd5b50600436106101f05760003560e01c80635fda36d81161010f578063a7283be3116100a2578063c87b56dd11610071578063c87b56dd146104af578063d9562ec7146104c2578063e985e9c5146104d5578063f8c8765e1461051157600080fd5b8063a7283be314610463578063b19e259014610476578063b88d4fde14610489578063b96b83c21461049c57600080fd5b8063750ff6b5116100de578063750ff6b5146104155780638c1395f81461043557806395d89b4114610448578063a22cb4651461045057600080fd5b80635fda36d8146103bb5780636352211e146103dc57806370a08231146103ef578063732de2091461040257600080fd5b80632f745c59116101875780634cbb9938116101565780634cbb99381461036f5780634f6ccce7146103825780635b549182146103955780635bae3c05146103a857600080fd5b80632f745c59146103235780633a5177df1461033657806342842e0e1461034957806349615b521461035c57600080fd5b8063095ea7b3116101c3578063095ea7b314610272578063136efb7a1461028557806318160ddd146102fe57806323b872dd1461031057600080fd5b806301ffc9a7146101f557806306fdde031461021d578063081812fc146102325780630850d0e91461025d575b600080fd5b61020861020336600461306a565b61056f565b60405190151581526020015b60405180910390f35b61022561059a565b60405161021491906130d7565b6102456102403660046130ea565b61062c565b6040516001600160a01b039091168152602001610214565b61027061026b366004613103565b610653565b005b610270610280366004613163565b610943565b6102cb61029336600461318f565b600a6020526000908152604090208054600182015460028301546003909301546001600160a01b039283169391831692918216911684565b604080516001600160a01b0395861681529385166020850152918416918301919091529091166060820152608001610214565b6008545b604051908152602001610214565b61027061031e3660046131ac565b610a58565b610302610331366004613163565b610a89565b610270610344366004613291565b610b1f565b6102706103573660046131ac565b610c22565b61027061036a3660046133f6565b610c3d565b61030261037d3660046134c6565b610e50565b6103026103903660046130ea565b610ea6565b600e54610245906001600160a01b031681565b600d54610245906001600160a01b031681565b6103ce6103c93660046130ea565b610f39565b604051610214929190613656565b6102456103ea3660046130ea565b611233565b6103026103fd36600461318f565b611293565b600b54610245906001600160a01b031681565b6104286104233660046134c6565b611319565b6040516102149190613695565b6103ce6104433660046134c6565b611488565b61022561178a565b61027061045e3660046136a8565b611799565b61027061047136600461318f565b6117a8565b610428610484366004613103565b611c93565b6102706104973660046136dd565b612286565b600c54610245906001600160a01b031681565b6102256104bd3660046130ea565b6122b8565b6102706104d03660046137a1565b61232c565b6102086104e3366004613845565b6001600160a01b03918216600090815260056020908152604080832093909416825291909152205460ff1690565b61027061051f36600461387e565b600c80546001600160a01b039586166001600160a01b031991821617909155600d805494861694821694909417909355600b805492851692841692909217909155600e8054919093169116179055565b60006001600160e01b0319821663780e9d6360e01b148061059457506105948261242c565b92915050565b6060600080546105a9906138da565b80601f01602080910402602001604051908101604052809291908181526020018280546105d5906138da565b80156106225780601f106105f757610100808354040283529160200191610622565b820191906000526020600020905b81548152906001019060200180831161060557829003601f168201915b5050505050905090565b60006106378261247c565b506000908152600460205260409020546001600160a01b031690565b610663608082016060830161318f565b6106736060830160408401613914565b6001600160a01b038281166000908152600a6020526040902060020154163314806106b757506001600160a01b038281166000908152600a60205260409020541633145b6106dc5760405162461bcd60e51b81526004016106d39061392f565b60405180910390fd5b60006106ff336106ef602087018761318f565b61037d6040880160208901613914565b905061070e6080850185613954565b6107209061010081019060e001613975565b600082815260106020526040902060050180546001600160801b03928316600160801b0292169190911790556107596080850185613954565b6000828152601060205260409081902091013560019091015561077f6080850185613954565b6000828152601060205260409020606091909101356002909101556107a76080850185613954565b60008281526010602052604090206080918201356003909101556107cd90850185613954565b600082815260106020526040812060a0929092013560048301556006820180546005840192909255600168ffffffff000000000160801b0319909116600160a81b4263ffffffff1602179055600701541561083f57600081815260106020526040812061083f91600790910190612f9b565b60005b61084f6080860186613954565b61085e90610180810190613992565b905081101561093c5760006108766080870187613954565b61088590610180810190613992565b83818110610895576108956139e2565b90506060020160200160208101906108ad9190613975565b6001600160801b0316111561092a5760008281526010602052604090206007016108da6080870187613954565b6108e990610180810190613992565b838181106108f9576108f96139e2565b83546001810185556000948552602090942060609091029290920192600202909101905061092782826139f8565b50505b8061093481613a7f565b915050610842565b5050505050565b600061094e82611233565b9050806001600160a01b0316836001600160a01b0316036109bb5760405162461bcd60e51b815260206004820152602160248201527f4552433732313a20617070726f76616c20746f2063757272656e74206f776e656044820152603960f91b60648201526084016106d3565b336001600160a01b03821614806109d757506109d781336104e3565b610a495760405162461bcd60e51b815260206004820152603d60248201527f4552433732313a20617070726f76652063616c6c6572206973206e6f7420746f60448201527f6b656e206f776e6572206f7220617070726f76656420666f7220616c6c00000060648201526084016106d3565b610a5383836124de565b505050565b610a62338261254c565b610a7e5760405162461bcd60e51b81526004016106d390613a98565b610a538383836125cb565b6000610a9483611293565b8210610af65760405162461bcd60e51b815260206004820152602b60248201527f455243373231456e756d657261626c653a206f776e657220696e646578206f7560448201526a74206f6620626f756e647360a81b60648201526084016106d3565b506001600160a01b03919091166000908152600660209081526040808320938352929052205490565b805160608201516001600160a01b038083166000908152600a602052604090206002015416331480610b6a57506001600160a01b038281166000908152600a60205260409020541633145b610b865760405162461bcd60e51b81526004016106d39061392f565b6000610b9b3385602001518660400151610e50565b60008181526012602052604081205491925003610bb85750505050565b6000818152601060205260408120600181018290556002810182905560038101829055600481018290556005810182905560068101805478ffffffffffffffff00ffffffffffffffffffffffffffffffff19169055610c1c91600790910190612f9b565b50505050565b610a5383838360405180602001604052806000815250612286565b60608101516001600160a01b038082166000908152600a6020526040902060010154163314610c7e5760405162461bcd60e51b81526004016106d39061392f565b60008260400151610cae5760608301516001600160a01b039081166000908152600a602052604090205416610cd2565b60608301516001600160a01b039081166000908152600a6020526040902060020154165b90506000610ce98285600001518660200151610e50565b6000818152601060205260409020600681018054608088015160a08901516001600160801b039081166001600160801b031963ffffffff4216600160a81b0216600168ffffffff000000000160801b0319909416939093179290921790925560c08801518116600160801b02911617600582015560078101549192509015610d7957610d79600782016000612f9b565b60005b8560e0015151811015610e485760008660e001518281518110610da157610da16139e2565b6020026020010151602001516001600160801b03161115610e3657816007018660e001518281518110610dd657610dd66139e2565b60209081029190910181015182546001818101855560009485529383902082516002909202018054938301516001600160801b03166301000000026001600160981b031990941662ffffff90921691909117929092178255604001519101555b80610e4081613a7f565b915050610d7c565b505050505050565b6040516bffffffffffffffffffffffff19606085811b8216602084015284901b16603482015281151560f81b60488201526000906049016040516020818303038152906040528051906020012090509392505050565b6000610eb160085490565b8210610f145760405162461bcd60e51b815260206004820152602c60248201527f455243373231456e756d657261626c653a20676c6f62616c20696e646578206f60448201526b7574206f6620626f756e647360a01b60648201526084016106d3565b60088281548110610f2757610f276139e2565b90600052602060002001549050919050565b6040805160608101825260008082526020820181905291810191909152610f5e612fbc565b60008381526011602090815260408083205483526010825280832081516101a081018352815460ff808216151583526001600160a01b036101009283900416838701526001840154838601526002840154606084015260038401546080840152600484015460a084015260058401546001600160801b0380821660c0860152600160801b91829004811660e0860152600686015490811693850193909352820416151561012083015263ffffffff600160881b82048116610140840152600160a81b9091041661016082015260078201805484518187028101870190955280855291959294610180870194939192919084015b828210156110ac57600084815260209081902060408051606081018252600286810290930180549384900b825263010000009093046001600160801b0316818501526001928301549181019190915283529092019101611051565b5050509152505060208101519091506001600160a01b03166110cd57915091565b6000816020015190506040518060600160405280826001600160a01b0316630dfe16816040518163ffffffff1660e01b8152600401602060405180830381865afa15801561111f573d6000803e3d6000fd5b505050506040513d601f19601f820116820180604052508101906111439190613ae5565b6001600160a01b03168152602001826001600160a01b031663d21220a76040518163ffffffff1660e01b8152600401602060405180830381865afa15801561118f573d6000803e3d6000fd5b505050506040513d601f19601f820116820180604052508101906111b39190613ae5565b6001600160a01b03168152602001826001600160a01b031663ddca3f436040518163ffffffff1660e01b8152600401602060405180830381865afa1580156111ff573d6000803e3d6000fd5b505050506040513d601f19601f820116820180604052508101906112239190613b02565b62ffffff16815250925050915091565b6000818152600260205260408120546001600160a01b0316806105945760405162461bcd60e51b8152602060048201526018602482015277115490cdcc8c4e881a5b9d985b1a59081d1bdad95b88125160421b60448201526064016106d3565b60006001600160a01b0382166112fd5760405162461bcd60e51b815260206004820152602960248201527f4552433732313a2061646472657373207a65726f206973206e6f7420612076616044820152683634b21037bbb732b960b91b60648201526084016106d3565b506001600160a01b031660009081526003602052604090205490565b611321612fbc565b60106000611330868686610e50565b81526020808201929092526040908101600090812082516101a081018452815460ff808216151583526001600160a01b036101009283900416838801526001840154838701526002840154606084015260038401546080840152600484015460a084015260058401546001600160801b0380821660c0860152600160801b91829004811660e0860152600686015490811693850193909352820416151561012083015263ffffffff600160881b82048116610140840152600160a81b9091041661016082015260078201805485518188028101880190965280865291959294610180870194909391929184015b8282101561147857600084815260209081902060408051606081018252600286810290930180549384900b825263010000009093046001600160801b031681850152600192830154918101919091528352909201910161141d565b5050509152509095945050505050565b60408051606081018252600080825260208201819052918101919091526114ad612fbc565b601060006114bc878787610e50565b81526020808201929092526040908101600090812082516101a081018452815460ff808216151583526001600160a01b036101009283900416838801526001840154838701526002840154606084015260038401546080840152600484015460a084015260058401546001600160801b0380821660c0860152600160801b91829004811660e0860152600686015490811693850193909352820416151561012083015263ffffffff600160881b82048116610140840152600160a81b9091041661016082015260078201805485518188028101880190965280865291959294610180870194909391929184015b8282101561160457600084815260209081902060408051606081018252600286810290930180549384900b825263010000009093046001600160801b03168185015260019283015491810191909152835290920191016115a9565b5050509152505060208101519091506001600160a01b031615611782576000816020015190506040518060600160405280826001600160a01b0316630dfe16816040518163ffffffff1660e01b8152600401602060405180830381865afa158015611673573d6000803e3d6000fd5b505050506040513d601f19601f820116820180604052508101906116979190613ae5565b6001600160a01b03168152602001826001600160a01b031663d21220a76040518163ffffffff1660e01b8152600401602060405180830381865afa1580156116e3573d6000803e3d6000fd5b505050506040513d601f19601f820116820180604052508101906117079190613ae5565b6001600160a01b03168152602001826001600160a01b031663ddca3f436040518163ffffffff1660e01b8152600401602060405180830381865afa158015611753573d6000803e3d6000fd5b505050506040513d601f19601f820116820180604052508101906117779190613b02565b62ffffff1690529250505b935093915050565b6060600180546105a9906138da565b6117a433838361273c565b5050565b6001600160a01b038181166000908152600a6020526040902054161580156117eb57506001600160a01b038181166000908152600a602052604090206001015416155b6118375760405162461bcd60e51b815260206004820152601b60248201527f706f6f6c206d616e616765727320616c7265616479206578697374000000000060448201526064016106d3565b6000816001600160a01b0316630dfe16816040518163ffffffff1660e01b8152600401602060405180830381865afa158015611877573d6000803e3d6000fd5b505050506040513d601f19601f8201168201806040525081019061189b9190613ae5565b90506000826001600160a01b031663d21220a76040518163ffffffff1660e01b8152600401602060405180830381865afa1580156118dd573d6000803e3d6000fd5b505050506040513d601f19601f820116820180604052508101906119019190613ae5565b90506000836001600160a01b031663ddca3f436040518163ffffffff1660e01b8152600401602060405180830381865afa158015611943573d6000803e3d6000fd5b505050506040513d601f19601f820116820180604052508101906119679190613b02565b600c5460405163090ef7f360e31b81526001600160a01b0387811660048301528681166024830152858116604483015262ffffff8416606483015292935060009290911690634877bf98906084016020604051808303816000875af11580156119d4573d6000803e3d6000fd5b505050506040513d601f19601f820116820180604052508101906119f89190613ae5565b600b54604051637b22ea1160e11b81526001600160a01b0388811660048301528781166024830152868116604483015262ffffff861660648301529293506000929091169063f645d422906084016020604051808303816000875af1158015611a65573d6000803e3d6000fd5b505050506040513d601f19601f82011682018060405250810190611a899190613ae5565b600d54604051637382a68f60e01b81526001600160a01b038981166004830152858116602483015280841660448301528881166064830152878116608483015262ffffff871660a483015292935060009290911690637382a68f9060c4016020604051808303816000875af1158015611b06573d6000803e3d6000fd5b505050506040513d601f19601f82011682018060405250810190611b2a9190613ae5565b604051630f05893560e21b81526001600160a01b03808316600483015291925090841690633c1624d490602401600060405180830381600087803b158015611b7157600080fd5b505af1158015611b85573d6000803e3d6000fd5b5050604051630f05893560e21b81526001600160a01b03848116600483015285169250633c1624d49150602401600060405180830381600087803b158015611bcc57600080fd5b505af1158015611be0573d6000803e3d6000fd5b5050604051630f05893560e21b81526001600160a01b0384811660048301528a169250633c1624d49150602401600060405180830381600087803b158015611c2757600080fd5b505af1158015611c3b573d6000803e3d6000fd5b5050506001600160a01b039788166000908152600a6020526040902080549489166001600160a01b0319958616178155600181018054938a169386169390931790925550600201805491909616911617909355505050565b611c9b612fbc565b611cab608083016060840161318f565b611cbb6060840160408501613914565b6001600160a01b038281166000908152600a602052604090206002015416331480611cff57506001600160a01b038281166000908152600a60205260409020541633145b611d1b5760405162461bcd60e51b81526004016106d39061392f565b611d9a6040518060800160405280866060016020810190611d3c919061318f565b6001600160a01b03168152602090810190611d599088018861318f565b6001600160a01b03168152602001866020016020810190611d7a9190613914565b15158152602001611d916060880160408901613914565b1515905261280a565b506000611dbe33611dae602088018861318f565b61037d6040890160208a01613914565b9050611dcd6080860186613954565b611ddf9061010081019060e001613975565b600082815260106020526040902060050180546001600160801b03928316600160801b029216919091179055611e186080860186613954565b60008281526010602052604090819020910135600190910155611e3e6080860186613954565b600082815260106020526040902060609190910135600290910155611e666080860186613954565b6000828152601060205260409020608091820135600390910155611e8c90860186613954565b600082815260106020526040902060a09190910135600490910155611eb46080860186613954565b611ec79061014081019061012001613914565b60008281526010602052604090206006018054911515600160801b0260ff60801b19909216919091179055611eff6080860186613954565b611f129061016081019061014001613b27565b6000828152601060205260409020600601805463ffffffff92909216600160881b0263ffffffff60881b19909216919091179055611f536080860186613954565b611f669061018081019061016001613b27565b6000828152601060205260409020600601805463ffffffff92909216600160a81b0263ffffffff60a81b19909216919091179055611faa608086016060870161318f565b6000828152601060205260409081902080546001600160a01b039390931661010002610100600160a81b031990931692909217909155611ff09060608701908701613914565b6000828152601060205260409020805460ff1916911515919091178155600701541561203357600081815260106020526040812061203391600790910190612f9b565b60005b6120436080870187613954565b61205290610180810190613992565b905081101561213057600061206a6080880188613954565b61207990610180810190613992565b83818110612089576120896139e2565b90506060020160200160208101906120a19190613975565b6001600160801b0316111561211e5760008281526010602052604090206007016120ce6080880188613954565b6120dd90610180810190613992565b838181106120ed576120ed6139e2565b83546001810185556000948552602090942060609091029290920192600202909101905061211b82826139f8565b50505b8061212881613a7f565b915050612036565b50600081815260106020908152604080832081516101a081018352815460ff808216151583526001600160a01b036101009283900416838701526001840154838601526002840154606084015260038401546080840152600484015460a084015260058401546001600160801b0380821660c0860152600160801b91829004811660e0860152600686015490811693850193909352820416151561012083015263ffffffff600160881b82048116610140840152600160a81b9091041661016082015260078201805484518187028101870190955280855291959294610180870194939192919084015b8282101561227557600084815260209081902060408051606081018252600286810290930180549384900b825263010000009093046001600160801b031681850152600192830154918101919091528352909201910161221a565b505050915250909695505050505050565b612290338361254c565b6122ac5760405162461bcd60e51b81526004016106d390613a98565b610c1c848484846128a6565b60606122c38261247c565b60006122da60408051602081019091526000815290565b905060008151116122fa5760405180602001604052806000815250612325565b80612304846128d9565b604051602001612315929190613b4d565b6040516020818303038152906040525b9392505050565b60608101516040808301516001600160a01b038084166000908152600a602052929092206002015490911633148061237d57506001600160a01b038281166000908152600a60205260409020541633145b6123995760405162461bcd60e51b81526004016106d39061392f565b60006123ae3385600001518660200151610e50565b6000908152601060205260409020600681018054608087015160a0880151600168ffffffff000000000160801b0319909216600160a81b4263ffffffff16026001600160801b031916176001600160801b039283161790925560c090960151908616600160801b919096160294909417600590940193909355505050565b60006001600160e01b031982166380ac58cd60e01b148061245d57506001600160e01b03198216635b5e139f60e01b145b8061059457506301ffc9a760e01b6001600160e01b0319831614610594565b6000818152600260205260409020546001600160a01b03166124db5760405162461bcd60e51b8152602060048201526018602482015277115490cdcc8c4e881a5b9d985b1a59081d1bdad95b88125160421b60448201526064016106d3565b50565b600081815260046020526040902080546001600160a01b0319166001600160a01b038416908117909155819061251382611233565b6001600160a01b03167f8c5be1e5ebec7d5bd14f71427d1e84f3dd0314c0f7b2291e5b200ac8c7c3b92560405160405180910390a45050565b60008061255883611233565b9050806001600160a01b0316846001600160a01b0316148061259f57506001600160a01b0380821660009081526005602090815260408083209388168352929052205460ff165b806125c35750836001600160a01b03166125b88461062c565b6001600160a01b0316145b949350505050565b826001600160a01b03166125de82611233565b6001600160a01b0316146126045760405162461bcd60e51b81526004016106d390613b7c565b6001600160a01b0382166126665760405162461bcd60e51b8152602060048201526024808201527f4552433732313a207472616e7366657220746f20746865207a65726f206164646044820152637265737360e01b60648201526084016106d3565b612673838383600161296c565b826001600160a01b031661268682611233565b6001600160a01b0316146126ac5760405162461bcd60e51b81526004016106d390613b7c565b600081815260046020908152604080832080546001600160a01b03199081169091556001600160a01b0387811680865260038552838620805460001901905590871680865283862080546001019055868652600290945282852080549092168417909155905184937fddf252ad1be2c89b69c2b068fc378daa952ba7f163c4a11628f55a4df523b3ef91a4505050565b816001600160a01b0316836001600160a01b03160361279d5760405162461bcd60e51b815260206004820152601960248201527f4552433732313a20617070726f766520746f2063616c6c65720000000000000060448201526064016106d3565b6001600160a01b03838116600081815260056020908152604080832094871680845294825291829020805460ff191686151590811790915591519182527f17307eab39ab6107e8899845ad3d59bd9653f200f220920489ca2b5937696c31910160405180910390a3505050565b600061281f3383602001518460400151610e50565b6000818152601260205260409020549091501561283b57919050565b61284b8260200151601454612a99565b60608201516000828152601060209081526040808320805460ff1916941515949094179093556014805483526011825283832085905580548584526012909252928220819055919061289c83613a7f565b9190505550919050565b6128b18484846125cb565b6128bd84848484612c32565b610c1c5760405162461bcd60e51b81526004016106d390613bc1565b606060006128e683612d33565b600101905060008167ffffffffffffffff811115612906576129066131ed565b6040519080825280601f01601f191660200182016040528015612930576020820181803683370190505b5090508181016020015b600019016f181899199a1a9b1b9c1cb0b131b232b360811b600a86061a8153600a850494508461293a57509392505050565b60018111156129db5760405162461bcd60e51b815260206004820152603560248201527f455243373231456e756d657261626c653a20636f6e7365637574697665207472604482015274185b9cd9995c9cc81b9bdd081cdd5c1c1bdc9d1959605a1b60648201526084016106d3565b816001600160a01b038516612a3757612a3281600880546000838152600960205260408120829055600182018355919091527ff3f7a9fe364faab93b216da50a3214154f22a0a2b415b23a84c8169e8b636ee30155565b612a5a565b836001600160a01b0316856001600160a01b031614612a5a57612a5a8582612e0b565b6001600160a01b038416612a7657612a7181612ea8565b61093c565b846001600160a01b0316846001600160a01b03161461093c5761093c8482612f57565b6001600160a01b038216612aef5760405162461bcd60e51b815260206004820181905260248201527f4552433732313a206d696e7420746f20746865207a65726f206164647265737360448201526064016106d3565b6000818152600260205260409020546001600160a01b031615612b545760405162461bcd60e51b815260206004820152601c60248201527f4552433732313a20746f6b656e20616c7265616479206d696e7465640000000060448201526064016106d3565b612b6260008383600161296c565b6000818152600260205260409020546001600160a01b031615612bc75760405162461bcd60e51b815260206004820152601c60248201527f4552433732313a20746f6b656e20616c7265616479206d696e7465640000000060448201526064016106d3565b6001600160a01b038216600081815260036020908152604080832080546001019055848352600290915280822080546001600160a01b0319168417905551839291907fddf252ad1be2c89b69c2b068fc378daa952ba7f163c4a11628f55a4df523b3ef908290a45050565b60006001600160a01b0384163b15612d2857604051630a85bd0160e11b81526001600160a01b0385169063150b7a0290612c76903390899088908890600401613c13565b6020604051808303816000875af1925050508015612cb1575060408051601f3d908101601f19168201909252612cae91810190613c46565b60015b612d0e573d808015612cdf576040519150601f19603f3d011682016040523d82523d6000602084013e612ce4565b606091505b508051600003612d065760405162461bcd60e51b81526004016106d390613bc1565b805181602001fd5b6001600160e01b031916630a85bd0160e11b1490506125c3565b506001949350505050565b60008072184f03e93ff9f4daa797ed6e38ed64bf6a1f0160401b8310612d725772184f03e93ff9f4daa797ed6e38ed64bf6a1f0160401b830492506040015b6d04ee2d6d415b85acef81000000008310612d9e576d04ee2d6d415b85acef8100000000830492506020015b662386f26fc100008310612dbc57662386f26fc10000830492506010015b6305f5e1008310612dd4576305f5e100830492506008015b6127108310612de857612710830492506004015b60648310612dfa576064830492506002015b600a83106105945760010192915050565b60006001612e1884611293565b612e229190613c63565b600083815260076020526040902054909150808214612e75576001600160a01b03841660009081526006602090815260408083208584528252808320548484528184208190558352600790915290208190555b5060009182526007602090815260408084208490556001600160a01b039094168352600681528383209183525290812055565b600854600090612eba90600190613c63565b60008381526009602052604081205460088054939450909284908110612ee257612ee26139e2565b906000526020600020015490508060088381548110612f0357612f036139e2565b6000918252602080832090910192909255828152600990915260408082208490558582528120556008805480612f3b57612f3b613c76565b6001900381819060005260206000200160009055905550505050565b6000612f6283611293565b6001600160a01b039093166000908152600660209081526040808320868452825280832085905593825260079052919091209190915550565b50805460008255600202906000526020600020908101906124db919061302a565b604080516101a08101825260008082526020820181905291810182905260608082018390526080820183905260a0820183905260c0820183905260e0820183905261010082018390526101208201839052610140820183905261016082019290925261018081019190915290565b5b808211156130505780546001600160981b03191681556000600182015560020161302b565b5090565b6001600160e01b0319811681146124db57600080fd5b60006020828403121561307c57600080fd5b813561232581613054565b60005b838110156130a257818101518382015260200161308a565b50506000910152565b600081518084526130c3816020860160208601613087565b601f01601f19169290920160200192915050565b60208152600061232560208301846130ab565b6000602082840312156130fc57600080fd5b5035919050565b60006020828403121561311557600080fd5b813567ffffffffffffffff81111561312c57600080fd5b820160a0818503121561232557600080fd5b6001600160a01b03811681146124db57600080fd5b803561315e8161313e565b919050565b6000806040838503121561317657600080fd5b82356131818161313e565b946020939093013593505050565b6000602082840312156131a157600080fd5b81356123258161313e565b6000806000606084860312156131c157600080fd5b83356131cc8161313e565b925060208401356131dc8161313e565b929592945050506040919091013590565b634e487b7160e01b600052604160045260246000fd5b6040516060810167ffffffffffffffff81118282101715613226576132266131ed565b60405290565b604051610100810167ffffffffffffffff81118282101715613226576132266131ed565b604051601f8201601f1916810167ffffffffffffffff81118282101715613279576132796131ed565b604052919050565b8035801515811461315e57600080fd5b6000608082840312156132a357600080fd5b6040516080810181811067ffffffffffffffff821117156132c6576132c66131ed565b60405282356132d48161313e565b815260208301356132e48161313e565b60208201526132f560408401613281565b604082015261330660608401613281565b60608201529392505050565b8060020b81146124db57600080fd5b6001600160801b03811681146124db57600080fd5b600082601f83011261334757600080fd5b8135602067ffffffffffffffff821115613363576133636131ed565b613371818360051b01613250565b8281526060928302850182019282820191908785111561339057600080fd5b8387015b858110156133e95781818a0312156133ac5760008081fd5b6133b4613203565b81356133bf81613312565b8152818601356133ce81613321565b81870152604082810135908201528452928401928101613394565b5090979650505050505050565b60006020828403121561340857600080fd5b813567ffffffffffffffff8082111561342057600080fd5b90830190610100828603121561343557600080fd5b61343d61322c565b61344683613153565b815261345460208401613281565b602082015261346560408401613281565b604082015261347660608401613153565b60608201526080830135608082015260a083013560a082015260c083013560c082015260e0830135828111156134ab57600080fd5b6134b787828601613336565b60e08301525095945050505050565b6000806000606084860312156134db57600080fd5b83356134e68161313e565b925060208401356134f68161313e565b915061350460408501613281565b90509250925092565b600081518084526020808501945080840160005b8381101561355f578151805160020b8852838101516001600160801b0316848901526040908101519088015260609096019590820190600101613521565b509495945050505050565b80511515825260006101a0602083015161358f60208601826001600160a01b03169052565b5060408301516040850152606083015160608501526080830151608085015260a083015160a085015260c08301516135d260c08601826001600160801b03169052565b5060e08301516135ed60e08601826001600160801b03169052565b50610100838101516001600160801b031690850152610120808401511515908501526101408084015163ffffffff9081169186019190915261016080850151909116908501526101808084015181860183905261364c8387018261350d565b9695505050505050565b600060018060a01b038085511683528060208601511660208401525062ffffff6040850151166040830152608060608301526125c3608083018461356a565b602081526000612325602083018461356a565b600080604083850312156136bb57600080fd5b82356136c68161313e565b91506136d460208401613281565b90509250929050565b600080600080608085870312156136f357600080fd5b84356136fe8161313e565b935060208581013561370f8161313e565b935060408601359250606086013567ffffffffffffffff8082111561373357600080fd5b818801915088601f83011261374757600080fd5b813581811115613759576137596131ed565b61376b601f8201601f19168501613250565b9150808252898482850101111561378157600080fd5b808484018584013760008482840101525080935050505092959194509250565b600060e082840312156137b357600080fd5b60405160e0810181811067ffffffffffffffff821117156137d6576137d66131ed565b60405282356137e48161313e565b81526137f260208401613281565b602082015261380360408401613281565b604082015260608301356138168161313e565b806060830152506080830135608082015260a083013560a082015260c083013560c08201528091505092915050565b6000806040838503121561385857600080fd5b82356138638161313e565b915060208301356138738161313e565b809150509250929050565b6000806000806080858703121561389457600080fd5b843561389f8161313e565b935060208501356138af8161313e565b925060408501356138bf8161313e565b915060608501356138cf8161313e565b939692955090935050565b600181811c908216806138ee57607f821691505b60208210810361390e57634e487b7160e01b600052602260045260246000fd5b50919050565b60006020828403121561392657600080fd5b61232582613281565b6020808252600b908201526a08585d5d1a1bdc9a5e995960aa1b604082015260600190565b6000823561019e1983360301811261396b57600080fd5b9190910192915050565b60006020828403121561398757600080fd5b813561232581613321565b6000808335601e198436030181126139a957600080fd5b83018035915067ffffffffffffffff8211156139c457600080fd5b60200191506060810236038213156139db57600080fd5b9250929050565b634e487b7160e01b600052603260045260246000fd5b8135613a0381613312565b815462ffffff82811662ffffff1983161784556020850135613a2481613321565b72ffffffffffffffffffffffffffffffff0000008160181b168285166cffffffffffffffffffffffffff60981b85161717855550505050604082013560018201555050565b634e487b7160e01b600052601160045260246000fd5b600060018201613a9157613a91613a69565b5060010190565b6020808252602d908201527f4552433732313a2063616c6c6572206973206e6f7420746f6b656e206f776e6560408201526c1c881bdc88185c1c1c9bdd9959609a1b606082015260800190565b600060208284031215613af757600080fd5b81516123258161313e565b600060208284031215613b1457600080fd5b815162ffffff8116811461232557600080fd5b600060208284031215613b3957600080fd5b813563ffffffff8116811461232557600080fd5b60008351613b5f818460208801613087565b835190830190613b73818360208801613087565b01949350505050565b60208082526025908201527f4552433732313a207472616e736665722066726f6d20696e636f72726563742060408201526437bbb732b960d91b606082015260800190565b60208082526032908201527f4552433732313a207472616e7366657220746f206e6f6e20455243373231526560408201527131b2b4bb32b91034b6b83632b6b2b73a32b960711b606082015260800190565b6001600160a01b038581168252841660208201526040810183905260806060820181905260009061364c908301846130ab565b600060208284031215613c5857600080fd5b815161232581613054565b8181038181111561059457610594613a69565b634e487b7160e01b600052603160045260246000fdfea26469706673582212207fead071868f3e0a31c041bc2dec550b065bc3a1ae39df213f875f196e47c6bb64736f6c63430008110033",
    "linkReferences": {}
  },
  "methodIdentifiers": {
    "addPositionUpdate((address,bool,bool,address,(bool,address,uint256,uint256,uint256,uint256,uint128,uint128,uint128,bool,uint32,uint32,(int24,uint128,uint256)[])))": "b19e2590",
    "approve(address,uint256)": "095ea7b3",
    "balanceOf(address)": "70a08231",
    "borrowManagerFactory()": "732de209",
    "computeId(address,address,bool)": "4cbb9938",
    "createPoolManagers(address)": "a7283be3",
    "deletePosition((address,address,bool,bool))": "3a5177df",
    "getApproved(uint256)": "081812fc",
    "getPosition(address,address,bool)": "8c1395f8",
    "getPositionFromId(uint256)": "5fda36d8",
    "initialize(address,address,address,address)": "f8c8765e",
    "isApprovedForAll(address,address)": "e985e9c5",
    "leverageManagerFactory()": "b96b83c2",
    "liquidityManagerFactory()": "5bae3c05",
    "name()": "06fdde03",
    "ownerOf(uint256)": "6352211e",
    "poolData(address)": "136efb7a",
    "positions(address,address,bool)": "750ff6b5",
    "premiumUpdate((address,bool,bool,address,uint256,uint256,uint256))": "d9562ec7",
    "premiumUpdate_((address,bool,bool,address,uint256,uint256,uint256,(int24,uint128,uint256)[]))": "49615b52",
    "reducePositionUpdate((address,bool,bool,address,(bool,address,uint256,uint256,uint256,uint256,uint128,uint128,uint128,bool,uint32,uint32,(int24,uint128,uint256)[])))": "0850d0e9",
    "safeTransferFrom(address,address,uint256)": "42842e0e",
    "safeTransferFrom(address,address,uint256,bytes)": "b88d4fde",
    "setApprovalForAll(address,bool)": "a22cb465",
    "supportsInterface(bytes4)": "01ffc9a7",
    "symbol()": "95d89b41",
    "tokenByIndex(uint256)": "4f6ccce7",
    "tokenOfOwnerByIndex(address,uint256)": "2f745c59",
    "tokenURI(uint256)": "c87b56dd",
    "totalSupply()": "18160ddd",
    "transferFrom(address,address,uint256)": "23b872dd",
    "uniswapV3Factory()": "5b549182"
  },
  "id": 36
}