{
  "abi": [
    {
      "inputs": [],
      "stateMutability": "nonpayable",
      "type": "constructor"
    },
    {
      "anonymous": false,
      "inputs": [
        {
          "indexed": true,
          "internalType": "address",
          "name": "owner",
          "type": "address"
        },
        {
          "indexed": true,
          "internalType": "address",
          "name": "approved",
          "type": "address"
        },
        {
          "indexed": true,
          "internalType": "uint256",
          "name": "tokenId",
          "type": "uint256"
        }
      ],
      "name": "Approval",
      "type": "event"
    },
    {
      "anonymous": false,
      "inputs": [
        {
          "indexed": true,
          "internalType": "address",
          "name": "owner",
          "type": "address"
        },
        {
          "indexed": true,
          "internalType": "address",
          "name": "operator",
          "type": "address"
        },
        {
          "indexed": false,
          "internalType": "bool",
          "name": "approved",
          "type": "bool"
        }
      ],
      "name": "ApprovalForAll",
      "type": "event"
    },
    {
      "anonymous": false,
      "inputs": [
        {
          "indexed": true,
          "internalType": "address",
          "name": "from",
          "type": "address"
        },
        {
          "indexed": true,
          "internalType": "address",
          "name": "to",
          "type": "address"
        },
        {
          "indexed": true,
          "internalType": "uint256",
          "name": "tokenId",
          "type": "uint256"
        }
      ],
      "name": "Transfer",
      "type": "event"
    },
    {
      "inputs": [
        {
          "internalType": "address",
          "name": "pool",
          "type": "address"
        },
        {
          "internalType": "address",
          "name": "trader",
          "type": "address"
        },
        {
          "internalType": "bool",
          "name": "isToken0",
          "type": "bool"
        }
      ],
      "name": "activatePosition",
      "outputs": [
        {
          "internalType": "bytes32",
          "name": "positionId",
          "type": "bytes32"
        }
      ],
      "stateMutability": "nonpayable",
      "type": "function"
    },
    {
      "inputs": [
        {
          "components": [
            {
              "internalType": "address",
              "name": "trader",
              "type": "address"
            },
            {
              "internalType": "bool",
              "name": "isToken0",
              "type": "bool"
            },
            {
              "internalType": "address",
              "name": "pool",
              "type": "address"
            },
            {
              "components": [
                {
                  "internalType": "address",
                  "name": "pool",
                  "type": "address"
                },
                {
                  "internalType": "uint256",
                  "name": "totalPosition",
                  "type": "uint256"
                },
                {
                  "internalType": "uint256",
                  "name": "totalDebt",
                  "type": "uint256"
                },
                {
                  "internalType": "uint256",
                  "name": "totalDebtInput",
                  "type": "uint256"
                },
                {
                  "internalType": "uint256",
                  "name": "initCollateral",
                  "type": "uint256"
                },
                {
                  "internalType": "uint256",
                  "name": "creationPrice",
                  "type": "uint256"
                },
                {
                  "internalType": "uint128",
                  "name": "recentPremium",
                  "type": "uint128"
                },
                {
                  "internalType": "uint128",
                  "name": "totalPremium",
                  "type": "uint128"
                },
                {
                  "internalType": "uint128",
                  "name": "unusedPremium",
                  "type": "uint128"
                },
                {
                  "internalType": "bool",
                  "name": "isToken0",
                  "type": "bool"
                },
                {
                  "internalType": "uint32",
                  "name": "openTime",
                  "type": "uint32"
                },
                {
                  "internalType": "uint32",
                  "name": "repayTime",
                  "type": "uint32"
                },
                {
                  "components": [
                    {
                      "internalType": "int24",
                      "name": "tick",
                      "type": "int24"
                    },
                    {
                      "internalType": "uint128",
                      "name": "liquidity",
                      "type": "uint128"
                    },
                    {
                      "internalType": "uint256",
                      "name": "premiumOrUrate",
                      "type": "uint256"
                    }
                  ],
                  "internalType": "struct LiquidityManager.Liquidity[]",
                  "name": "borrowInfo",
                  "type": "tuple[]"
                }
              ],
              "internalType": "struct GlobalStorage.Position",
              "name": "position",
              "type": "tuple"
            }
          ],
          "internalType": "struct GlobalStorage.UpdatePositionParams",
          "name": "params",
          "type": "tuple"
        }
      ],
      "name": "addPositionUpdate",
      "outputs": [
        {
          "components": [
            {
              "internalType": "address",
              "name": "pool",
              "type": "address"
            },
            {
              "internalType": "uint256",
              "name": "totalPosition",
              "type": "uint256"
            },
            {
              "internalType": "uint256",
              "name": "totalDebt",
              "type": "uint256"
            },
            {
              "internalType": "uint256",
              "name": "totalDebtInput",
              "type": "uint256"
            },
            {
              "internalType": "uint256",
              "name": "initCollateral",
              "type": "uint256"
            },
            {
              "internalType": "uint256",
              "name": "creationPrice",
              "type": "uint256"
            },
            {
              "internalType": "uint128",
              "name": "recentPremium",
              "type": "uint128"
            },
            {
              "internalType": "uint128",
              "name": "totalPremium",
              "type": "uint128"
            },
            {
              "internalType": "uint128",
              "name": "unusedPremium",
              "type": "uint128"
            },
            {
              "internalType": "bool",
              "name": "isToken0",
              "type": "bool"
            },
            {
              "internalType": "uint32",
              "name": "openTime",
              "type": "uint32"
            },
            {
              "internalType": "uint32",
              "name": "repayTime",
              "type": "uint32"
            },
            {
              "components": [
                {
                  "internalType": "int24",
                  "name": "tick",
                  "type": "int24"
                },
                {
                  "internalType": "uint128",
                  "name": "liquidity",
                  "type": "uint128"
                },
                {
                  "internalType": "uint256",
                  "name": "premiumOrUrate",
                  "type": "uint256"
                }
              ],
              "internalType": "struct LiquidityManager.Liquidity[]",
              "name": "borrowInfo",
              "type": "tuple[]"
            }
          ],
          "internalType": "struct GlobalStorage.Position",
          "name": "position",
          "type": "tuple"
        }
      ],
      "stateMutability": "nonpayable",
      "type": "function"
    },
    {
      "inputs": [
        {
          "internalType": "address",
          "name": "to",
          "type": "address"
        },
        {
          "internalType": "uint256",
          "name": "tokenId",
          "type": "uint256"
        }
      ],
      "name": "approve",
      "outputs": [],
      "stateMutability": "nonpayable",
      "type": "function"
    },
    {
      "inputs": [
        {
          "internalType": "address",
          "name": "owner",
          "type": "address"
        }
      ],
      "name": "balanceOf",
      "outputs": [
        {
          "internalType": "uint256",
          "name": "",
          "type": "uint256"
        }
      ],
      "stateMutability": "view",
      "type": "function"
    },
    {
      "inputs": [
        {
          "internalType": "address",
          "name": "leverageManager",
          "type": "address"
        },
        {
          "internalType": "address",
          "name": "trader",
          "type": "address"
        },
        {
          "internalType": "bool",
          "name": "isToken0",
          "type": "bool"
        }
      ],
      "name": "computeId",
      "outputs": [
        {
          "internalType": "bytes32",
          "name": "tokenId",
          "type": "bytes32"
        }
      ],
      "stateMutability": "view",
      "type": "function"
    },
    {
      "inputs": [
        {
          "internalType": "address",
          "name": "tokenA",
          "type": "address"
        },
        {
          "internalType": "address",
          "name": "tokenB",
          "type": "address"
        },
        {
          "internalType": "uint24",
          "name": "fee",
          "type": "uint24"
        }
      ],
      "name": "createFull",
      "outputs": [
        {
          "internalType": "address",
          "name": "pool",
          "type": "address"
        }
      ],
      "stateMutability": "nonpayable",
      "type": "function"
    },
    {
      "inputs": [
        {
          "internalType": "address",
          "name": "pool",
          "type": "address"
        }
      ],
      "name": "createPoolManagers",
      "outputs": [],
      "stateMutability": "nonpayable",
      "type": "function"
    },
    {
      "inputs": [
        {
          "internalType": "address",
          "name": "pool",
          "type": "address"
        },
        {
          "internalType": "address",
          "name": "trader",
          "type": "address"
        },
        {
          "internalType": "bool",
          "name": "isToken0",
          "type": "bool"
        }
      ],
      "name": "deletePosition",
      "outputs": [],
      "stateMutability": "nonpayable",
      "type": "function"
    },
    {
      "inputs": [
        {
          "internalType": "uint256",
          "name": "tokenId",
          "type": "uint256"
        }
      ],
      "name": "getApproved",
      "outputs": [
        {
          "internalType": "address",
          "name": "",
          "type": "address"
        }
      ],
      "stateMutability": "view",
      "type": "function"
    },
    {
      "inputs": [
        {
          "internalType": "uint256",
          "name": "tokenId",
          "type": "uint256"
        }
      ],
      "name": "getPosition",
      "outputs": [
        {
          "components": [
            {
              "internalType": "address",
              "name": "token0",
              "type": "address"
            },
            {
              "internalType": "address",
              "name": "token1",
              "type": "address"
            },
            {
              "internalType": "uint24",
              "name": "fee",
              "type": "uint24"
            }
          ],
          "internalType": "struct GlobalStorage.LimitlessKey",
          "name": "key",
          "type": "tuple"
        },
        {
          "components": [
            {
              "internalType": "address",
              "name": "pool",
              "type": "address"
            },
            {
              "internalType": "uint256",
              "name": "totalPosition",
              "type": "uint256"
            },
            {
              "internalType": "uint256",
              "name": "totalDebt",
              "type": "uint256"
            },
            {
              "internalType": "uint256",
              "name": "totalDebtInput",
              "type": "uint256"
            },
            {
              "internalType": "uint256",
              "name": "initCollateral",
              "type": "uint256"
            },
            {
              "internalType": "uint256",
              "name": "creationPrice",
              "type": "uint256"
            },
            {
              "internalType": "uint128",
              "name": "recentPremium",
              "type": "uint128"
            },
            {
              "internalType": "uint128",
              "name": "totalPremium",
              "type": "uint128"
            },
            {
              "internalType": "uint128",
              "name": "unusedPremium",
              "type": "uint128"
            },
            {
              "internalType": "bool",
              "name": "isToken0",
              "type": "bool"
            },
            {
              "internalType": "uint32",
              "name": "openTime",
              "type": "uint32"
            },
            {
              "internalType": "uint32",
              "name": "repayTime",
              "type": "uint32"
            },
            {
              "components": [
                {
                  "internalType": "int24",
                  "name": "tick",
                  "type": "int24"
                },
                {
                  "internalType": "uint128",
                  "name": "liquidity",
                  "type": "uint128"
                },
                {
                  "internalType": "uint256",
                  "name": "premiumOrUrate",
                  "type": "uint256"
                }
              ],
              "internalType": "struct LiquidityManager.Liquidity[]",
              "name": "borrowInfo",
              "type": "tuple[]"
            }
          ],
          "internalType": "struct GlobalStorage.Position",
          "name": "position",
          "type": "tuple"
        }
      ],
      "stateMutability": "view",
      "type": "function"
    },
    {
      "inputs": [
        {
          "internalType": "address",
          "name": "_leverageManagerFactory",
          "type": "address"
        },
        {
          "internalType": "address",
          "name": "_liquidityManagerFactory",
          "type": "address"
        },
        {
          "internalType": "address",
          "name": "_uniswapV3Factory",
          "type": "address"
        }
      ],
      "name": "initialize",
      "outputs": [],
      "stateMutability": "nonpayable",
      "type": "function"
    },
    {
      "inputs": [
        {
          "internalType": "address",
          "name": "owner",
          "type": "address"
        },
        {
          "internalType": "address",
          "name": "operator",
          "type": "address"
        }
      ],
      "name": "isApprovedForAll",
      "outputs": [
        {
          "internalType": "bool",
          "name": "",
          "type": "bool"
        }
      ],
      "stateMutability": "view",
      "type": "function"
    },
    {
      "inputs": [],
      "name": "leverageManagerFactory",
      "outputs": [
        {
          "internalType": "contract LeverageManagerFactory",
          "name": "",
          "type": "address"
        }
      ],
      "stateMutability": "view",
      "type": "function"
    },
    {
      "inputs": [],
      "name": "liquidityManagerFactory",
      "outputs": [
        {
          "internalType": "contract LiquidityManagerFactory",
          "name": "",
          "type": "address"
        }
      ],
      "stateMutability": "view",
      "type": "function"
    },
    {
      "inputs": [],
      "name": "name",
      "outputs": [
        {
          "internalType": "string",
          "name": "",
          "type": "string"
        }
      ],
      "stateMutability": "view",
      "type": "function"
    },
    {
      "inputs": [
        {
          "internalType": "uint256",
          "name": "tokenId",
          "type": "uint256"
        }
      ],
      "name": "ownerOf",
      "outputs": [
        {
          "internalType": "address",
          "name": "",
          "type": "address"
        }
      ],
      "stateMutability": "view",
      "type": "function"
    },
    {
      "inputs": [
        {
          "internalType": "address",
          "name": "",
          "type": "address"
        }
      ],
      "name": "poolData",
      "outputs": [
        {
          "internalType": "address",
          "name": "leverageManager",
          "type": "address"
        },
        {
          "internalType": "address",
          "name": "liquidityManager",
          "type": "address"
        },
        {
          "internalType": "address",
          "name": "interestManager",
          "type": "address"
        }
      ],
      "stateMutability": "view",
      "type": "function"
    },
    {
      "inputs": [
        {
          "internalType": "address",
          "name": "leverageManager",
          "type": "address"
        },
        {
          "internalType": "address",
          "name": "trader",
          "type": "address"
        },
        {
          "internalType": "bool",
          "name": "isToken0",
          "type": "bool"
        }
      ],
      "name": "positions",
      "outputs": [
        {
          "components": [
            {
              "internalType": "address",
              "name": "pool",
              "type": "address"
            },
            {
              "internalType": "uint256",
              "name": "totalPosition",
              "type": "uint256"
            },
            {
              "internalType": "uint256",
              "name": "totalDebt",
              "type": "uint256"
            },
            {
              "internalType": "uint256",
              "name": "totalDebtInput",
              "type": "uint256"
            },
            {
              "internalType": "uint256",
              "name": "initCollateral",
              "type": "uint256"
            },
            {
              "internalType": "uint256",
              "name": "creationPrice",
              "type": "uint256"
            },
            {
              "internalType": "uint128",
              "name": "recentPremium",
              "type": "uint128"
            },
            {
              "internalType": "uint128",
              "name": "totalPremium",
              "type": "uint128"
            },
            {
              "internalType": "uint128",
              "name": "unusedPremium",
              "type": "uint128"
            },
            {
              "internalType": "bool",
              "name": "isToken0",
              "type": "bool"
            },
            {
              "internalType": "uint32",
              "name": "openTime",
              "type": "uint32"
            },
            {
              "internalType": "uint32",
              "name": "repayTime",
              "type": "uint32"
            },
            {
              "components": [
                {
                  "internalType": "int24",
                  "name": "tick",
                  "type": "int24"
                },
                {
                  "internalType": "uint128",
                  "name": "liquidity",
                  "type": "uint128"
                },
                {
                  "internalType": "uint256",
                  "name": "premiumOrUrate",
                  "type": "uint256"
                }
              ],
              "internalType": "struct LiquidityManager.Liquidity[]",
              "name": "borrowInfo",
              "type": "tuple[]"
            }
          ],
          "internalType": "struct GlobalStorage.Position",
          "name": "position",
          "type": "tuple"
        }
      ],
      "stateMutability": "view",
      "type": "function"
    },
    {
      "inputs": [
        {
          "components": [
            {
              "internalType": "address",
              "name": "trader",
              "type": "address"
            },
            {
              "internalType": "bool",
              "name": "isToken0",
              "type": "bool"
            },
            {
              "internalType": "address",
              "name": "pool",
              "type": "address"
            },
            {
              "internalType": "uint256",
              "name": "recentPremium",
              "type": "uint256"
            },
            {
              "internalType": "uint256",
              "name": "unusedPremium",
              "type": "uint256"
            },
            {
              "internalType": "uint256",
              "name": "totalPremium",
              "type": "uint256"
            }
          ],
          "internalType": "struct GlobalStorage.PremiumUpdateParams",
          "name": "params",
          "type": "tuple"
        }
      ],
      "name": "premiumUpdate",
      "outputs": [],
      "stateMutability": "nonpayable",
      "type": "function"
    },
    {
      "inputs": [
        {
          "components": [
            {
              "internalType": "address",
              "name": "trader",
              "type": "address"
            },
            {
              "internalType": "bool",
              "name": "isToken0",
              "type": "bool"
            },
            {
              "internalType": "address",
              "name": "pool",
              "type": "address"
            },
            {
              "components": [
                {
                  "internalType": "address",
                  "name": "pool",
                  "type": "address"
                },
                {
                  "internalType": "uint256",
                  "name": "totalPosition",
                  "type": "uint256"
                },
                {
                  "internalType": "uint256",
                  "name": "totalDebt",
                  "type": "uint256"
                },
                {
                  "internalType": "uint256",
                  "name": "totalDebtInput",
                  "type": "uint256"
                },
                {
                  "internalType": "uint256",
                  "name": "initCollateral",
                  "type": "uint256"
                },
                {
                  "internalType": "uint256",
                  "name": "creationPrice",
                  "type": "uint256"
                },
                {
                  "internalType": "uint128",
                  "name": "recentPremium",
                  "type": "uint128"
                },
                {
                  "internalType": "uint128",
                  "name": "totalPremium",
                  "type": "uint128"
                },
                {
                  "internalType": "uint128",
                  "name": "unusedPremium",
                  "type": "uint128"
                },
                {
                  "internalType": "bool",
                  "name": "isToken0",
                  "type": "bool"
                },
                {
                  "internalType": "uint32",
                  "name": "openTime",
                  "type": "uint32"
                },
                {
                  "internalType": "uint32",
                  "name": "repayTime",
                  "type": "uint32"
                },
                {
                  "components": [
                    {
                      "internalType": "int24",
                      "name": "tick",
                      "type": "int24"
                    },
                    {
                      "internalType": "uint128",
                      "name": "liquidity",
                      "type": "uint128"
                    },
                    {
                      "internalType": "uint256",
                      "name": "premiumOrUrate",
                      "type": "uint256"
                    }
                  ],
                  "internalType": "struct LiquidityManager.Liquidity[]",
                  "name": "borrowInfo",
                  "type": "tuple[]"
                }
              ],
              "internalType": "struct GlobalStorage.Position",
              "name": "position",
              "type": "tuple"
            }
          ],
          "internalType": "struct GlobalStorage.UpdatePositionParams",
          "name": "params",
          "type": "tuple"
        }
      ],
      "name": "reducePositionUpdate",
      "outputs": [],
      "stateMutability": "nonpayable",
      "type": "function"
    },
    {
      "inputs": [
        {
          "internalType": "address",
          "name": "from",
          "type": "address"
        },
        {
          "internalType": "address",
          "name": "to",
          "type": "address"
        },
        {
          "internalType": "uint256",
          "name": "tokenId",
          "type": "uint256"
        }
      ],
      "name": "safeTransferFrom",
      "outputs": [],
      "stateMutability": "nonpayable",
      "type": "function"
    },
    {
      "inputs": [
        {
          "internalType": "address",
          "name": "from",
          "type": "address"
        },
        {
          "internalType": "address",
          "name": "to",
          "type": "address"
        },
        {
          "internalType": "uint256",
          "name": "tokenId",
          "type": "uint256"
        },
        {
          "internalType": "bytes",
          "name": "data",
          "type": "bytes"
        }
      ],
      "name": "safeTransferFrom",
      "outputs": [],
      "stateMutability": "nonpayable",
      "type": "function"
    },
    {
      "inputs": [
        {
          "internalType": "address",
          "name": "operator",
          "type": "address"
        },
        {
          "internalType": "bool",
          "name": "approved",
          "type": "bool"
        }
      ],
      "name": "setApprovalForAll",
      "outputs": [],
      "stateMutability": "nonpayable",
      "type": "function"
    },
    {
      "inputs": [
        {
          "internalType": "bytes4",
          "name": "interfaceId",
          "type": "bytes4"
        }
      ],
      "name": "supportsInterface",
      "outputs": [
        {
          "internalType": "bool",
          "name": "",
          "type": "bool"
        }
      ],
      "stateMutability": "view",
      "type": "function"
    },
    {
      "inputs": [],
      "name": "symbol",
      "outputs": [
        {
          "internalType": "string",
          "name": "",
          "type": "string"
        }
      ],
      "stateMutability": "view",
      "type": "function"
    },
    {
      "inputs": [
        {
          "internalType": "uint256",
          "name": "index",
          "type": "uint256"
        }
      ],
      "name": "tokenByIndex",
      "outputs": [
        {
          "internalType": "uint256",
          "name": "",
          "type": "uint256"
        }
      ],
      "stateMutability": "view",
      "type": "function"
    },
    {
      "inputs": [
        {
          "internalType": "address",
          "name": "owner",
          "type": "address"
        },
        {
          "internalType": "uint256",
          "name": "index",
          "type": "uint256"
        }
      ],
      "name": "tokenOfOwnerByIndex",
      "outputs": [
        {
          "internalType": "uint256",
          "name": "",
          "type": "uint256"
        }
      ],
      "stateMutability": "view",
      "type": "function"
    },
    {
      "inputs": [
        {
          "internalType": "uint256",
          "name": "tokenId",
          "type": "uint256"
        }
      ],
      "name": "tokenURI",
      "outputs": [
        {
          "internalType": "string",
          "name": "",
          "type": "string"
        }
      ],
      "stateMutability": "view",
      "type": "function"
    },
    {
      "inputs": [],
      "name": "totalSupply",
      "outputs": [
        {
          "internalType": "uint256",
          "name": "",
          "type": "uint256"
        }
      ],
      "stateMutability": "view",
      "type": "function"
    },
    {
      "inputs": [
        {
          "internalType": "address",
          "name": "from",
          "type": "address"
        },
        {
          "internalType": "address",
          "name": "to",
          "type": "address"
        },
        {
          "internalType": "uint256",
          "name": "tokenId",
          "type": "uint256"
        }
      ],
      "name": "transferFrom",
      "outputs": [],
      "stateMutability": "nonpayable",
      "type": "function"
    },
    {
      "inputs": [],
      "name": "uniswapV3Factory",
      "outputs": [
        {
          "internalType": "contract UniswapV3Factory",
          "name": "",
          "type": "address"
        }
      ],
      "stateMutability": "view",
      "type": "function"
    }
  ],
  "bytecode": {
    "object": "0x608060405260016013819055601480546001600160501b03191690911790553480156200002b57600080fd5b506040518060400160405280601d81526020017f4c696d69746c65737320563120506f736974696f6e73204e46542d56300000008152506040518060400160405280600a8152602001694c4d542d56312d504f5360b01b815250816000908162000096919062000153565b506001620000a5828262000153565b5050506200021f565b634e487b7160e01b600052604160045260246000fd5b600181811c90821680620000d957607f821691505b602082108103620000fa57634e487b7160e01b600052602260045260246000fd5b50919050565b601f8211156200014e57600081815260208120601f850160051c81016020861015620001295750805b601f850160051c820191505b818110156200014a5782815560010162000135565b5050505b505050565b81516001600160401b038111156200016f576200016f620000ae565b6200018781620001808454620000c4565b8462000100565b602080601f831160018114620001bf5760008415620001a65750858301515b600019600386901b1c1916600185901b1785556200014a565b600085815260208120601f198616915b82811015620001f057888601518255948401946001909101908401620001cf565b50858210156200020f5787850151600019600388901b60f8161c191681555b5050505050600190811b01905550565b6133e2806200022f6000396000f3fe608060405234801561001057600080fd5b50600436106101e55760003560e01c80636352211e1161010f578063b88d4fde116100a2578063c8dc789611610071578063c8dc7896146104aa578063e985e9c5146104bd578063eb02c301146104f9578063ebfa2b191461051a57600080fd5b8063b88d4fde14610424578063b96b83c214610437578063c0c53b8b1461044a578063c87b56dd1461049757600080fd5b806395d89b41116100de57806395d89b41146103e3578063a22cb465146103eb578063a2934fe6146103fe578063a7283be31461041157600080fd5b80636352211e1461038a57806370a082311461039d578063750ff6b5146103b0578063801f6adc146103d057600080fd5b806325f31145116101875780634cbb9938116101565780634cbb99381461033e5780634f6ccce7146103515780635b549182146103645780635bae3c051461037757600080fd5b806325f31145146102f25780632f745c591461030557806342842e0e146103185780634472fbfd1461032b57600080fd5b8063095ea7b3116101c3578063095ea7b314610252578063136efb7a1461026757806318160ddd146102cd57806323b872dd146102df57600080fd5b806301ffc9a7146101ea57806306fdde0314610212578063081812fc14610227575b600080fd5b6101fd6101f83660046129e0565b61052d565b60405190151581526020015b60405180910390f35b61021a610558565b6040516102099190612a4d565b61023a610235366004612a60565b6105ea565b6040516001600160a01b039091168152602001610209565b610265610260366004612a8e565b610611565b005b6102a3610275366004612aba565b600a602052600090815260409020805460018201546002909201546001600160a01b03918216928216911683565b604080516001600160a01b0394851681529284166020840152921691810191909152606001610209565b6008545b604051908152602001610209565b6102656102ed366004612ad7565b61072b565b610265610300366004612b74565b61075c565b6102d1610313366004612a8e565b610839565b610265610326366004612ad7565b6108cf565b610265610339366004612c07565b6108ea565b6102d161034c366004612c07565b6109d7565b6102d161035f366004612a60565b610a2e565b600d5461023a906001600160a01b031681565b600c5461023a906001600160a01b031681565b61023a610398366004612a60565b610ac1565b6102d16103ab366004612aba565b610b21565b6103c36103be366004612c07565b610ba7565b6040516102099190612d8d565b6103c36103de366004612da0565b610d13565b61021a611240565b6102656103f9366004612ddb565b61124f565b61023a61040c366004612e21565b61125e565b61026561041f366004612aba565b6112e9565b610265610432366004612e6c565b6116cf565b600b5461023a906001600160a01b031681565b610265610458366004612f30565b600b80546001600160a01b039485166001600160a01b031991821617909155600c805493851693821693909317909255600d8054919093169116179055565b61021a6104a5366004612a60565b611701565b6102656104b8366004612da0565b611774565b6101fd6104cb366004612f70565b6001600160a01b03918216600090815260056020908152604080832093909416825291909152205460ff1690565b61050c610507366004612a60565b6119db565b604051610209929190612fa9565b6102d1610528366004612c07565b611cb8565b60006001600160e01b0319821663780e9d6360e01b1480610552575061055282611d63565b92915050565b60606000805461056790612fe8565b80601f016020809104026020016040519081016040528092919081815260200182805461059390612fe8565b80156105e05780601f106105b5576101008083540402835291602001916105e0565b820191906000526020600020905b8154815290600101906020018083116105c357829003601f168201915b5050505050905090565b60006105f582611db3565b506000908152600460205260409020546001600160a01b031690565b600061061c82610ac1565b9050806001600160a01b0316836001600160a01b03160361068e5760405162461bcd60e51b815260206004820152602160248201527f4552433732313a20617070726f76616c20746f2063757272656e74206f776e656044820152603960f91b60648201526084015b60405180910390fd5b336001600160a01b03821614806106aa57506106aa81336104cb565b61071c5760405162461bcd60e51b815260206004820152603d60248201527f4552433732313a20617070726f76652063616c6c6572206973206e6f7420746f60448201527f6b656e206f776e6572206f7220617070726f76656420666f7220616c6c0000006064820152608401610685565b6107268383611e15565b505050565b6107353382611e83565b6107515760405162461bcd60e51b81526004016106859061301c565b610726838383611f02565b6040808201516001600160a01b038082166000908152600a6020529290922054909116331461079d5760405162461bcd60e51b815260040161068590613069565b60006107b233846000015185602001516109d7565b6000908152600f602052604090206007810180546060860151608087015178ffffffff0000000000ffffffffffffffffffffffffffffffff19909216600160a81b4263ffffffff16026001600160801b031916176001600160801b039283161790925560a090950151908516600160801b9190951602939093176006909301929092555050565b600061084483610b21565b82106108a65760405162461bcd60e51b815260206004820152602b60248201527f455243373231456e756d657261626c653a206f776e657220696e646578206f7560448201526a74206f6620626f756e647360a81b6064820152608401610685565b506001600160a01b03919091166000908152600660209081526040808320938352929052205490565b610726838383604051806020016040528060008152506116cf565b6001600160a01b038084166000908152600a602052604090205484911633146109255760405162461bcd60e51b815260040161068590613069565b60006109323385856109d7565b6000818152601160205260408120549192500361094f57506109d1565b6000818152600f6020526040812080546001600160a01b03191681556001810182905560028101829055600381018290556004810182905560058101829055600681018290556007810180546001600160c81b0319169055906109b560088301826128d9565b50506000818152601160205260409020546109cf90612073565b505b50505050565b6040516bffffffffffffffffffffffff19606085811b8216602084015284901b16603482015281151560f81b60488201526000906049016040516020818303038152906040528051906020012090505b9392505050565b6000610a3960085490565b8210610a9c5760405162461bcd60e51b815260206004820152602c60248201527f455243373231456e756d657261626c653a20676c6f62616c20696e646578206f60448201526b7574206f6620626f756e647360a01b6064820152608401610685565b60088281548110610aaf57610aaf613093565b90600052602060002001549050919050565b6000818152600260205260408120546001600160a01b0316806105525760405162461bcd60e51b8152602060048201526018602482015277115490cdcc8c4e881a5b9d985b1a59081d1bdad95b88125160421b6044820152606401610685565b60006001600160a01b038216610b8b5760405162461bcd60e51b815260206004820152602960248201527f4552433732313a2061646472657373207a65726f206973206e6f7420612076616044820152683634b21037bbb732b960b91b6064820152608401610685565b506001600160a01b031660009081526003602052604090205490565b610baf6128fa565b6000600f6000610bc08787876109d7565b81526020808201929092526040908101600090812082516101a08101845281546001600160a01b031681526001820154818601526002820154818501526003820154606082015260048201546080820152600582015460a082015260068201546001600160801b0380821660c0840152600160801b91829004811660e0840152600784015490811661010084015290810460ff161515610120830152600160881b810463ffffffff908116610140840152600160a81b9091041661016082015260088201805485518188028101880190965280865291959294610180870194909391929184015b82821015610d0257600084815260209081902060408051606081018252600286810290930180549384900b825263010000009093046001600160801b0316818501526001928301549181019190915283529092019101610ca7565b505050915250909695505050505050565b610d1b6128fa565b610d2b6060830160408401612aba565b6001600160a01b038181166000908152600a6020526040902054163314610d645760405162461bcd60e51b815260040161068590613069565b6000610d8733610d776020870187612aba565b61034c60408801602089016130a9565b9050610d9660608501856130c4565b610da89061010081019060e0016130fa565b6000828152600f6020526040902060060180546001600160801b03928316600160801b029216919091179055610de160608501856130c4565b6000828152600f60209081526040909120910135600190910155610e0860608501856130c4565b6000828152600f602052604090819020910135600290910155610e2e60608501856130c4565b6000828152600f60205260409020606091820135600390910155610e54908501856130c4565b6000828152600f6020526040902060809190910135600490910155610e7c60608501856130c4565b610e8f90610140810190610120016130a9565b6000828152600f602052604090206007018054911515600160801b0260ff60801b19909216919091179055610ec760608501856130c4565b610eda9061016081019061014001613117565b6000828152600f60205260409020600701805463ffffffff92909216600160881b0263ffffffff60881b19909216919091179055610f1b60608501856130c4565b610f2e9061018081019061016001613117565b6000828152600f60205260409020600701805463ffffffff92909216600160a81b0263ffffffff60a81b19909216919091179055610f6f60608501856130c4565b60a00135600f600083815260200190815260200160002060050181905550836040016020810190610fa09190612aba565b6000828152600f6020526040902080546001600160a01b0319166001600160a01b03929092169190911781556008015415610ff2576000818152600f60205260408120610ff2916008909101906128d9565b60005b61100260608601866130c4565b6110119061018081019061313d565b90508110156110ef57600061102960608701876130c4565b6110389061018081019061313d565b8381811061104857611048613093565b905060600201602001602081019061106091906130fa565b6001600160801b031611156110dd576000828152600f6020526040902060080161108d60608701876130c4565b61109c9061018081019061313d565b838181106110ac576110ac613093565b8354600181018555600094855260209094206060909102929092019260020290910190506110da828261318d565b50505b806110e78161321a565b915050610ff5565b506000818152600f6020908152604080832081516101a08101835281546001600160a01b031681526001820154818501526002820154818401526003820154606082015260048201546080820152600582015460a082015260068201546001600160801b0380821660c0840152600160801b91829004811660e0840152600784015490811661010084015290810460ff161515610120830152600160881b810463ffffffff908116610140840152600160a81b9091041661016082015260088201805484518187028101870190955280855291959294610180870194939192919084015b8282101561122e57600084815260209081902060408051606081018252600286810290930180549384900b825263010000009093046001600160801b03168185015260019283015491810191909152835290920191016111d3565b50505050815250509250505b50919050565b60606001805461056790612fe8565b61125a338383612116565b5050565b600d5460405163a167129560e01b81526001600160a01b038581166004830152848116602483015262ffffff84166044830152600092169063a1671295906064016020604051808303816000875af11580156112be573d6000803e3d6000fd5b505050506040513d601f19601f820116820180604052508101906112e29190613233565b9050610a27815b6001600160a01b038181166000908152600a60205260409020541615801561132c57506001600160a01b038181166000908152600a602052604090206001015416155b6113785760405162461bcd60e51b815260206004820152601b60248201527f706f6f6c206d616e616765727320616c726561647920657869737400000000006044820152606401610685565b6000816001600160a01b0316630dfe16816040518163ffffffff1660e01b8152600401602060405180830381865afa1580156113b8573d6000803e3d6000fd5b505050506040513d601f19601f820116820180604052508101906113dc9190613233565b90506000826001600160a01b031663d21220a76040518163ffffffff1660e01b8152600401602060405180830381865afa15801561141e573d6000803e3d6000fd5b505050506040513d601f19601f820116820180604052508101906114429190613233565b90506000836001600160a01b031663ddca3f436040518163ffffffff1660e01b8152600401602060405180830381865afa158015611484573d6000803e3d6000fd5b505050506040513d601f19601f820116820180604052508101906114a89190613250565b600b5460405163090ef7f360e31b81526001600160a01b0387811660048301528681166024830152858116604483015262ffffff8416606483015292935060009290911690634877bf98906084016020604051808303816000875af1158015611515573d6000803e3d6000fd5b505050506040513d601f19601f820116820180604052508101906115399190613233565b600c5460405163031036eb60e41b81526001600160a01b03888116600483015280841660248301528781166044830152868116606483015262ffffff86166084830152929350600092909116906331036eb09060a4016020604051808303816000875af11580156115ae573d6000803e3d6000fd5b505050506040513d601f19601f820116820180604052508101906115d29190613233565b604051630f05893560e21b81526001600160a01b03808316600483015291925090831690633c1624d490602401600060405180830381600087803b15801561161957600080fd5b505af115801561162d573d6000803e3d6000fd5b5050604051630f05893560e21b81526001600160a01b03848116600483015289169250633c1624d49150602401600060405180830381600087803b15801561167457600080fd5b505af1158015611688573d6000803e3d6000fd5b5050506001600160a01b039687166000908152600a6020526040902080549388166001600160a01b0319948516178155600101805492909716919092161790945550505050565b6116d93383611e83565b6116f55760405162461bcd60e51b81526004016106859061301c565b6109d1848484846121e4565b606061170c82611db3565b600061172360408051602081019091526000815290565b905060008151116117435760405180602001604052806000815250610a27565b8061174d84612217565b60405160200161175e92919061326d565b6040516020818303038152906040529392505050565b6117846060820160408301612aba565b6001600160a01b038181166000908152600a60205260409020541633146117bd5760405162461bcd60e51b815260040161068590613069565b60006117e0336117d06020860186612aba565b61034c60408701602088016130a9565b90506117ef60608401846130c4565b6118019061010081019060e0016130fa565b6000828152600f6020526040902060060180546001600160801b03928316600160801b02921691909117905561183a60608401846130c4565b6000828152600f6020908152604090912091013560019091015561186160608401846130c4565b6000828152600f60205260409081902091013560029091015561188760608401846130c4565b6000828152600f602052604081206060929092013560038301556007820180546001600160801b0319169055600682015560080154156118de576000818152600f602052604081206118de916008909101906128d9565b60005b6118ee60608501856130c4565b6118fd9061018081019061313d565b90508110156109d157600061191560608601866130c4565b6119249061018081019061313d565b8381811061193457611934613093565b905060600201602001602081019061194c91906130fa565b6001600160801b031611156119c9576000828152600f6020526040902060080161197960608601866130c4565b6119889061018081019061313d565b8381811061199857611998613093565b8354600181018555600094855260209094206060909102929092019260020290910190506119c6828261318d565b50505b806119d38161321a565b9150506118e1565b6040805160608101825260008082526020820181905291810191909152611a006128fa565b6000838152601060209081526040808320548352600f825280832081516101a08101835281546001600160a01b031681526001820154818501526002820154818401526003820154606082015260048201546080820152600582015460a082015260068201546001600160801b0380821660c0840152600160801b91829004811660e0840152600784015490811661010084015290810460ff161515610120830152600160881b810463ffffffff908116610140840152600160a81b9091041661016082015260088201805484518187028101870190955280855291959294610180870194939192919084015b82821015611b4857600084815260209081902060408051606081018252600286810290930180549384900b825263010000009093046001600160801b0316818501526001928301549181019190915283529092019101611aed565b505050508152505090506000816000015190506040518060600160405280826001600160a01b0316630dfe16816040518163ffffffff1660e01b8152600401602060405180830381865afa158015611ba4573d6000803e3d6000fd5b505050506040513d601f19601f82011682018060405250810190611bc89190613233565b6001600160a01b03168152602001826001600160a01b031663d21220a76040518163ffffffff1660e01b8152600401602060405180830381865afa158015611c14573d6000803e3d6000fd5b505050506040513d601f19601f82011682018060405250810190611c389190613233565b6001600160a01b03168152602001826001600160a01b031663ddca3f436040518163ffffffff1660e01b8152600401602060405180830381865afa158015611c84573d6000803e3d6000fd5b505050506040513d601f19601f82011682018060405250810190611ca89190613250565b62ffffff16815250925050915091565b6001600160a01b038084166000908152600a602052604081205490918591163314611cf55760405162461bcd60e51b815260040161068590613069565b611d003385856109d7565b60008181526011602052604081205491935003611d5b57611d23846013546122aa565b6013805460009081526010602090815260408083208690558354868452601190925282208190559190611d558361321a565b91905055505b509392505050565b60006001600160e01b031982166380ac58cd60e01b1480611d9457506001600160e01b03198216635b5e139f60e01b145b8061055257506301ffc9a760e01b6001600160e01b0319831614610552565b6000818152600260205260409020546001600160a01b0316611e125760405162461bcd60e51b8152602060048201526018602482015277115490cdcc8c4e881a5b9d985b1a59081d1bdad95b88125160421b6044820152606401610685565b50565b600081815260046020526040902080546001600160a01b0319166001600160a01b0384169081179091558190611e4a82610ac1565b6001600160a01b03167f8c5be1e5ebec7d5bd14f71427d1e84f3dd0314c0f7b2291e5b200ac8c7c3b92560405160405180910390a45050565b600080611e8f83610ac1565b9050806001600160a01b0316846001600160a01b03161480611ed657506001600160a01b0380821660009081526005602090815260408083209388168352929052205460ff165b80611efa5750836001600160a01b0316611eef846105ea565b6001600160a01b0316145b949350505050565b826001600160a01b0316611f1582610ac1565b6001600160a01b031614611f3b5760405162461bcd60e51b81526004016106859061329c565b6001600160a01b038216611f9d5760405162461bcd60e51b8152602060048201526024808201527f4552433732313a207472616e7366657220746f20746865207a65726f206164646044820152637265737360e01b6064820152608401610685565b611faa8383836001612443565b826001600160a01b0316611fbd82610ac1565b6001600160a01b031614611fe35760405162461bcd60e51b81526004016106859061329c565b600081815260046020908152604080832080546001600160a01b03199081169091556001600160a01b0387811680865260038552838620805460001901905590871680865283862080546001019055868652600290945282852080549092168417909155905184937fddf252ad1be2c89b69c2b068fc378daa952ba7f163c4a11628f55a4df523b3ef91a4505050565b600061207e82610ac1565b905061208e816000846001612443565b61209782610ac1565b600083815260046020908152604080832080546001600160a01b03199081169091556001600160a01b0385168085526003845282852080546000190190558785526002909352818420805490911690555192935084927fddf252ad1be2c89b69c2b068fc378daa952ba7f163c4a11628f55a4df523b3ef908390a45050565b816001600160a01b0316836001600160a01b0316036121775760405162461bcd60e51b815260206004820152601960248201527f4552433732313a20617070726f766520746f2063616c6c6572000000000000006044820152606401610685565b6001600160a01b03838116600081815260056020908152604080832094871680845294825291829020805460ff191686151590811790915591519182527f17307eab39ab6107e8899845ad3d59bd9653f200f220920489ca2b5937696c31910160405180910390a3505050565b6121ef848484611f02565b6121fb84848484612570565b6109d15760405162461bcd60e51b8152600401610685906132e1565b6060600061222483612671565b600101905060008167ffffffffffffffff81111561224457612244612b18565b6040519080825280601f01601f19166020018201604052801561226e576020820181803683370190505b5090508181016020015b600019016f181899199a1a9b1b9c1cb0b131b232b360811b600a86061a8153600a850494508461227857509392505050565b6001600160a01b0382166123005760405162461bcd60e51b815260206004820181905260248201527f4552433732313a206d696e7420746f20746865207a65726f20616464726573736044820152606401610685565b6000818152600260205260409020546001600160a01b0316156123655760405162461bcd60e51b815260206004820152601c60248201527f4552433732313a20746f6b656e20616c7265616479206d696e746564000000006044820152606401610685565b612373600083836001612443565b6000818152600260205260409020546001600160a01b0316156123d85760405162461bcd60e51b815260206004820152601c60248201527f4552433732313a20746f6b656e20616c7265616479206d696e746564000000006044820152606401610685565b6001600160a01b038216600081815260036020908152604080832080546001019055848352600290915280822080546001600160a01b0319168417905551839291907fddf252ad1be2c89b69c2b068fc378daa952ba7f163c4a11628f55a4df523b3ef908290a45050565b60018111156124b25760405162461bcd60e51b815260206004820152603560248201527f455243373231456e756d657261626c653a20636f6e7365637574697665207472604482015274185b9cd9995c9cc81b9bdd081cdd5c1c1bdc9d1959605a1b6064820152608401610685565b816001600160a01b03851661250e5761250981600880546000838152600960205260408120829055600182018355919091527ff3f7a9fe364faab93b216da50a3214154f22a0a2b415b23a84c8169e8b636ee30155565b612531565b836001600160a01b0316856001600160a01b031614612531576125318582612749565b6001600160a01b03841661254d57612548816127e6565b6109cf565b846001600160a01b0316846001600160a01b0316146109cf576109cf8482612895565b60006001600160a01b0384163b1561266657604051630a85bd0160e11b81526001600160a01b0385169063150b7a02906125b4903390899088908890600401613333565b6020604051808303816000875af19250505080156125ef575060408051601f3d908101601f191682019092526125ec91810190613366565b60015b61264c573d80801561261d576040519150601f19603f3d011682016040523d82523d6000602084013e612622565b606091505b5080516000036126445760405162461bcd60e51b8152600401610685906132e1565b805181602001fd5b6001600160e01b031916630a85bd0160e11b149050611efa565b506001949350505050565b60008072184f03e93ff9f4daa797ed6e38ed64bf6a1f0160401b83106126b05772184f03e93ff9f4daa797ed6e38ed64bf6a1f0160401b830492506040015b6d04ee2d6d415b85acef810000000083106126dc576d04ee2d6d415b85acef8100000000830492506020015b662386f26fc1000083106126fa57662386f26fc10000830492506010015b6305f5e1008310612712576305f5e100830492506008015b612710831061272657612710830492506004015b60648310612738576064830492506002015b600a83106105525760010192915050565b6000600161275684610b21565b6127609190613383565b6000838152600760205260409020549091508082146127b3576001600160a01b03841660009081526006602090815260408083208584528252808320548484528184208190558352600790915290208190555b5060009182526007602090815260408084208490556001600160a01b039094168352600681528383209183525290812055565b6008546000906127f890600190613383565b6000838152600960205260408120546008805493945090928490811061282057612820613093565b90600052602060002001549050806008838154811061284157612841613093565b600091825260208083209091019290925582815260099091526040808220849055858252812055600880548061287957612879613396565b6001900381819060005260206000200160009055905550505050565b60006128a083610b21565b6001600160a01b039093166000908152600660209081526040808320868452825280832085905593825260079052919091209190915550565b5080546000825560020290600052602060002090810190611e129190612994565b604051806101a0016040528060006001600160a01b03168152602001600081526020016000815260200160008152602001600081526020016000815260200160006001600160801b0316815260200160006001600160801b0316815260200160006001600160801b03168152602001600015158152602001600063ffffffff168152602001600063ffffffff168152602001606081525090565b5b808211156129c657805472ffffffffffffffffffffffffffffffffffffff1916815560006001820155600201612995565b5090565b6001600160e01b031981168114611e1257600080fd5b6000602082840312156129f257600080fd5b8135610a27816129ca565b60005b83811015612a18578181015183820152602001612a00565b50506000910152565b60008151808452612a398160208601602086016129fd565b601f01601f19169290920160200192915050565b602081526000610a276020830184612a21565b600060208284031215612a7257600080fd5b5035919050565b6001600160a01b0381168114611e1257600080fd5b60008060408385031215612aa157600080fd5b8235612aac81612a79565b946020939093013593505050565b600060208284031215612acc57600080fd5b8135610a2781612a79565b600080600060608486031215612aec57600080fd5b8335612af781612a79565b92506020840135612b0781612a79565b929592945050506040919091013590565b634e487b7160e01b600052604160045260246000fd5b604051601f8201601f1916810167ffffffffffffffff81118282101715612b5757612b57612b18565b604052919050565b80358015158114612b6f57600080fd5b919050565b600060c08284031215612b8657600080fd5b60405160c0810181811067ffffffffffffffff82111715612ba957612ba9612b18565b6040528235612bb781612a79565b8152612bc560208401612b5f565b60208201526040830135612bd881612a79565b80604083015250606083013560608201526080830135608082015260a083013560a08201528091505092915050565b600080600060608486031215612c1c57600080fd5b8335612c2781612a79565b92506020840135612c3781612a79565b9150612c4560408501612b5f565b90509250925092565b600081518084526020808501945080840160005b83811015612ca0578151805160020b8852838101516001600160801b0316848901526040908101519088015260609096019590820190600101612c62565b509495945050505050565b80516001600160a01b0316825260006101a06020830151602085015260408301516040850152606083015160608501526080830151608085015260a083015160a085015260c0830151612d0960c08601826001600160801b03169052565b5060e0830151612d2460e08601826001600160801b03169052565b50610100838101516001600160801b031690850152610120808401511515908501526101408084015163ffffffff90811691860191909152610160808501519091169085015261018080840151818601839052612d8383870182612c4e565b9695505050505050565b602081526000610a276020830184612cab565b600060208284031215612db257600080fd5b813567ffffffffffffffff811115612dc957600080fd5b820160808185031215610a2757600080fd5b60008060408385031215612dee57600080fd5b8235612df981612a79565b9150612e0760208401612b5f565b90509250929050565b62ffffff81168114611e1257600080fd5b600080600060608486031215612e3657600080fd5b8335612e4181612a79565b92506020840135612e5181612a79565b91506040840135612e6181612e10565b809150509250925092565b60008060008060808587031215612e8257600080fd5b8435612e8d81612a79565b9350602085810135612e9e81612a79565b935060408601359250606086013567ffffffffffffffff80821115612ec257600080fd5b818801915088601f830112612ed657600080fd5b813581811115612ee857612ee8612b18565b612efa601f8201601f19168501612b2e565b91508082528984828501011115612f1057600080fd5b808484018584013760008482840101525080935050505092959194509250565b600080600060608486031215612f4557600080fd5b8335612f5081612a79565b92506020840135612f6081612a79565b91506040840135612e6181612a79565b60008060408385031215612f8357600080fd5b8235612f8e81612a79565b91506020830135612f9e81612a79565b809150509250929050565b600060018060a01b038085511683528060208601511660208401525062ffffff604085015116604083015260806060830152611efa6080830184612cab565b600181811c90821680612ffc57607f821691505b60208210810361123a57634e487b7160e01b600052602260045260246000fd5b6020808252602d908201527f4552433732313a2063616c6c6572206973206e6f7420746f6b656e206f776e6560408201526c1c881bdc88185c1c1c9bdd9959609a1b606082015260800190565b60208082526010908201526f10b632bb32b930b3b2a6b0b730b3b2b960811b604082015260600190565b634e487b7160e01b600052603260045260246000fd5b6000602082840312156130bb57600080fd5b610a2782612b5f565b6000823561019e198336030181126130db57600080fd5b9190910192915050565b6001600160801b0381168114611e1257600080fd5b60006020828403121561310c57600080fd5b8135610a27816130e5565b60006020828403121561312957600080fd5b813563ffffffff81168114610a2757600080fd5b6000808335601e1984360301811261315457600080fd5b83018035915067ffffffffffffffff82111561316f57600080fd5b602001915060608102360382131561318657600080fd5b9250929050565b81358060020b811461319e57600080fd5b815462ffffff82811662ffffff19831617845560208501356131bf816130e5565b72ffffffffffffffffffffffffffffffff0000008160181b168285166cffffffffffffffffffffffffff60981b85161717855550505050604082013560018201555050565b634e487b7160e01b600052601160045260246000fd5b60006001820161322c5761322c613204565b5060010190565b60006020828403121561324557600080fd5b8151610a2781612a79565b60006020828403121561326257600080fd5b8151610a2781612e10565b6000835161327f8184602088016129fd565b8351908301906132938183602088016129fd565b01949350505050565b60208082526025908201527f4552433732313a207472616e736665722066726f6d20696e636f72726563742060408201526437bbb732b960d91b606082015260800190565b60208082526032908201527f4552433732313a207472616e7366657220746f206e6f6e20455243373231526560408201527131b2b4bb32b91034b6b83632b6b2b73a32b960711b606082015260800190565b6001600160a01b0385811682528416602082015260408101839052608060608201819052600090612d8390830184612a21565b60006020828403121561337857600080fd5b8151610a27816129ca565b8181038181111561055257610552613204565b634e487b7160e01b600052603160045260246000fdfea26469706673582212204cb1aa47e0d38f69ff71e0f7eae2fce77b1cc1621bce1e9a13b04f7113c0bffa64736f6c63430008110033",
    "linkReferences": {}
  },
  "methodIdentifiers": {
    "activatePosition(address,address,bool)": "ebfa2b19",
    "addPositionUpdate((address,bool,address,(address,uint256,uint256,uint256,uint256,uint256,uint128,uint128,uint128,bool,uint32,uint32,(int24,uint128,uint256)[])))": "801f6adc",
    "approve(address,uint256)": "095ea7b3",
    "balanceOf(address)": "70a08231",
    "computeId(address,address,bool)": "4cbb9938",
    "createFull(address,address,uint24)": "a2934fe6",
    "createPoolManagers(address)": "a7283be3",
    "deletePosition(address,address,bool)": "4472fbfd",
    "getApproved(uint256)": "081812fc",
    "getPosition(uint256)": "eb02c301",
    "initialize(address,address,address)": "c0c53b8b",
    "isApprovedForAll(address,address)": "e985e9c5",
    "leverageManagerFactory()": "b96b83c2",
    "liquidityManagerFactory()": "5bae3c05",
    "name()": "06fdde03",
    "ownerOf(uint256)": "6352211e",
    "poolData(address)": "136efb7a",
    "positions(address,address,bool)": "750ff6b5",
    "premiumUpdate((address,bool,address,uint256,uint256,uint256))": "25f31145",
    "reducePositionUpdate((address,bool,address,(address,uint256,uint256,uint256,uint256,uint256,uint128,uint128,uint128,bool,uint32,uint32,(int24,uint128,uint256)[])))": "c8dc7896",
    "safeTransferFrom(address,address,uint256)": "42842e0e",
    "safeTransferFrom(address,address,uint256,bytes)": "b88d4fde",
    "setApprovalForAll(address,bool)": "a22cb465",
    "supportsInterface(bytes4)": "01ffc9a7",
    "symbol()": "95d89b41",
    "tokenByIndex(uint256)": "4f6ccce7",
    "tokenOfOwnerByIndex(address,uint256)": "2f745c59",
    "tokenURI(uint256)": "c87b56dd",
    "totalSupply()": "18160ddd",
    "transferFrom(address,address,uint256)": "23b872dd",
    "uniswapV3Factory()": "5b549182"
  },
  "id": 34
}