{
  "abi": [
    {
      "inputs": [],
      "stateMutability": "nonpayable",
      "type": "constructor"
    },
    {
      "anonymous": false,
      "inputs": [
        {
          "indexed": true,
          "internalType": "address",
          "name": "owner",
          "type": "address"
        },
        {
          "indexed": true,
          "internalType": "address",
          "name": "approved",
          "type": "address"
        },
        {
          "indexed": true,
          "internalType": "uint256",
          "name": "tokenId",
          "type": "uint256"
        }
      ],
      "name": "Approval",
      "type": "event"
    },
    {
      "anonymous": false,
      "inputs": [
        {
          "indexed": true,
          "internalType": "address",
          "name": "owner",
          "type": "address"
        },
        {
          "indexed": true,
          "internalType": "address",
          "name": "operator",
          "type": "address"
        },
        {
          "indexed": false,
          "internalType": "bool",
          "name": "approved",
          "type": "bool"
        }
      ],
      "name": "ApprovalForAll",
      "type": "event"
    },
    {
      "anonymous": false,
      "inputs": [
        {
          "indexed": true,
          "internalType": "address",
          "name": "from",
          "type": "address"
        },
        {
          "indexed": true,
          "internalType": "address",
          "name": "to",
          "type": "address"
        },
        {
          "indexed": true,
          "internalType": "uint256",
          "name": "tokenId",
          "type": "uint256"
        }
      ],
      "name": "Transfer",
      "type": "event"
    },
    {
      "inputs": [
        {
          "components": [
            {
              "internalType": "uint256",
              "name": "tokenId",
              "type": "uint256"
            },
            {
              "internalType": "address",
              "name": "pool",
              "type": "address"
            },
            {
              "components": [
                {
                  "internalType": "uint80",
                  "name": "limitlessId",
                  "type": "uint80"
                },
                {
                  "internalType": "uint256",
                  "name": "totalPosition",
                  "type": "uint256"
                },
                {
                  "internalType": "uint256",
                  "name": "totalDebt",
                  "type": "uint256"
                },
                {
                  "internalType": "uint256",
                  "name": "totalDebtInput",
                  "type": "uint256"
                },
                {
                  "internalType": "uint256",
                  "name": "initCollateral",
                  "type": "uint256"
                },
                {
                  "internalType": "uint256",
                  "name": "creationPrice",
                  "type": "uint256"
                },
                {
                  "internalType": "uint128",
                  "name": "recentPremium",
                  "type": "uint128"
                },
                {
                  "internalType": "uint128",
                  "name": "totalPremium",
                  "type": "uint128"
                },
                {
                  "internalType": "uint128",
                  "name": "unusedPremium",
                  "type": "uint128"
                },
                {
                  "internalType": "bool",
                  "name": "isToken0",
                  "type": "bool"
                },
                {
                  "internalType": "uint32",
                  "name": "openTime",
                  "type": "uint32"
                },
                {
                  "internalType": "uint32",
                  "name": "repayTime",
                  "type": "uint32"
                },
                {
                  "components": [
                    {
                      "internalType": "int24",
                      "name": "tick",
                      "type": "int24"
                    },
                    {
                      "internalType": "uint128",
                      "name": "liquidity",
                      "type": "uint128"
                    }
                  ],
                  "internalType": "struct LiquidityManager.Liquidity[]",
                  "name": "borrowInfo",
                  "type": "tuple[]"
                }
              ],
              "internalType": "struct GlobalStorage.Position",
              "name": "position",
              "type": "tuple"
            }
          ],
          "internalType": "struct GlobalStorage.UpdatePositionParams",
          "name": "params",
          "type": "tuple"
        }
      ],
      "name": "addPositionUpdate",
      "outputs": [
        {
          "components": [
            {
              "internalType": "uint80",
              "name": "limitlessId",
              "type": "uint80"
            },
            {
              "internalType": "uint256",
              "name": "totalPosition",
              "type": "uint256"
            },
            {
              "internalType": "uint256",
              "name": "totalDebt",
              "type": "uint256"
            },
            {
              "internalType": "uint256",
              "name": "totalDebtInput",
              "type": "uint256"
            },
            {
              "internalType": "uint256",
              "name": "initCollateral",
              "type": "uint256"
            },
            {
              "internalType": "uint256",
              "name": "creationPrice",
              "type": "uint256"
            },
            {
              "internalType": "uint128",
              "name": "recentPremium",
              "type": "uint128"
            },
            {
              "internalType": "uint128",
              "name": "totalPremium",
              "type": "uint128"
            },
            {
              "internalType": "uint128",
              "name": "unusedPremium",
              "type": "uint128"
            },
            {
              "internalType": "bool",
              "name": "isToken0",
              "type": "bool"
            },
            {
              "internalType": "uint32",
              "name": "openTime",
              "type": "uint32"
            },
            {
              "internalType": "uint32",
              "name": "repayTime",
              "type": "uint32"
            },
            {
              "components": [
                {
                  "internalType": "int24",
                  "name": "tick",
                  "type": "int24"
                },
                {
                  "internalType": "uint128",
                  "name": "liquidity",
                  "type": "uint128"
                }
              ],
              "internalType": "struct LiquidityManager.Liquidity[]",
              "name": "borrowInfo",
              "type": "tuple[]"
            }
          ],
          "internalType": "struct GlobalStorage.Position",
          "name": "position",
          "type": "tuple"
        }
      ],
      "stateMutability": "nonpayable",
      "type": "function"
    },
    {
      "inputs": [
        {
          "internalType": "address",
          "name": "to",
          "type": "address"
        },
        {
          "internalType": "uint256",
          "name": "tokenId",
          "type": "uint256"
        }
      ],
      "name": "approve",
      "outputs": [],
      "stateMutability": "nonpayable",
      "type": "function"
    },
    {
      "inputs": [
        {
          "internalType": "address",
          "name": "owner",
          "type": "address"
        }
      ],
      "name": "balanceOf",
      "outputs": [
        {
          "internalType": "uint256",
          "name": "",
          "type": "uint256"
        }
      ],
      "stateMutability": "view",
      "type": "function"
    },
    {
      "inputs": [
        {
          "components": [
            {
              "internalType": "uint256",
              "name": "tokenId",
              "type": "uint256"
            },
            {
              "internalType": "address",
              "name": "trader",
              "type": "address"
            },
            {
              "internalType": "address",
              "name": "pool",
              "type": "address"
            }
          ],
          "internalType": "struct GlobalStorage.BurnParams",
          "name": "params",
          "type": "tuple"
        }
      ],
      "name": "burn",
      "outputs": [],
      "stateMutability": "nonpayable",
      "type": "function"
    },
    {
      "inputs": [
        {
          "internalType": "address",
          "name": "tokenA",
          "type": "address"
        },
        {
          "internalType": "address",
          "name": "tokenB",
          "type": "address"
        },
        {
          "internalType": "uint24",
          "name": "fee",
          "type": "uint24"
        }
      ],
      "name": "createFull",
      "outputs": [
        {
          "internalType": "address",
          "name": "pool",
          "type": "address"
        }
      ],
      "stateMutability": "nonpayable",
      "type": "function"
    },
    {
      "inputs": [
        {
          "internalType": "address",
          "name": "pool",
          "type": "address"
        }
      ],
      "name": "createPoolManagers",
      "outputs": [],
      "stateMutability": "nonpayable",
      "type": "function"
    },
    {
      "inputs": [
        {
          "components": [
            {
              "internalType": "uint256",
              "name": "tokenId",
              "type": "uint256"
            },
            {
              "internalType": "address",
              "name": "pool",
              "type": "address"
            }
          ],
          "internalType": "struct GlobalStorage.DeletePositionParams",
          "name": "params",
          "type": "tuple"
        }
      ],
      "name": "deletePosition",
      "outputs": [],
      "stateMutability": "nonpayable",
      "type": "function"
    },
    {
      "inputs": [
        {
          "internalType": "uint256",
          "name": "tokenId",
          "type": "uint256"
        }
      ],
      "name": "getApproved",
      "outputs": [
        {
          "internalType": "address",
          "name": "",
          "type": "address"
        }
      ],
      "stateMutability": "view",
      "type": "function"
    },
    {
      "inputs": [
        {
          "internalType": "uint256",
          "name": "tokenId",
          "type": "uint256"
        }
      ],
      "name": "getPosition",
      "outputs": [
        {
          "components": [
            {
              "internalType": "uint80",
              "name": "limitlessId",
              "type": "uint80"
            },
            {
              "internalType": "uint256",
              "name": "totalPosition",
              "type": "uint256"
            },
            {
              "internalType": "uint256",
              "name": "totalDebt",
              "type": "uint256"
            },
            {
              "internalType": "uint256",
              "name": "totalDebtInput",
              "type": "uint256"
            },
            {
              "internalType": "uint256",
              "name": "initCollateral",
              "type": "uint256"
            },
            {
              "internalType": "uint256",
              "name": "creationPrice",
              "type": "uint256"
            },
            {
              "internalType": "uint128",
              "name": "recentPremium",
              "type": "uint128"
            },
            {
              "internalType": "uint128",
              "name": "totalPremium",
              "type": "uint128"
            },
            {
              "internalType": "uint128",
              "name": "unusedPremium",
              "type": "uint128"
            },
            {
              "internalType": "bool",
              "name": "isToken0",
              "type": "bool"
            },
            {
              "internalType": "uint32",
              "name": "openTime",
              "type": "uint32"
            },
            {
              "internalType": "uint32",
              "name": "repayTime",
              "type": "uint32"
            },
            {
              "components": [
                {
                  "internalType": "int24",
                  "name": "tick",
                  "type": "int24"
                },
                {
                  "internalType": "uint128",
                  "name": "liquidity",
                  "type": "uint128"
                }
              ],
              "internalType": "struct LiquidityManager.Liquidity[]",
              "name": "borrowInfo",
              "type": "tuple[]"
            }
          ],
          "internalType": "struct GlobalStorage.Position",
          "name": "",
          "type": "tuple"
        }
      ],
      "stateMutability": "view",
      "type": "function"
    },
    {
      "inputs": [
        {
          "internalType": "address",
          "name": "_leverageManagerFactory",
          "type": "address"
        },
        {
          "internalType": "address",
          "name": "_liquidityManagerFactory",
          "type": "address"
        },
        {
          "internalType": "address",
          "name": "_uniswapV3Factory",
          "type": "address"
        }
      ],
      "name": "initialize",
      "outputs": [],
      "stateMutability": "nonpayable",
      "type": "function"
    },
    {
      "inputs": [
        {
          "internalType": "address",
          "name": "owner",
          "type": "address"
        },
        {
          "internalType": "address",
          "name": "operator",
          "type": "address"
        }
      ],
      "name": "isApprovedForAll",
      "outputs": [
        {
          "internalType": "bool",
          "name": "",
          "type": "bool"
        }
      ],
      "stateMutability": "view",
      "type": "function"
    },
    {
      "inputs": [],
      "name": "leverageManagerFactory",
      "outputs": [
        {
          "internalType": "contract LeverageManagerFactory",
          "name": "",
          "type": "address"
        }
      ],
      "stateMutability": "view",
      "type": "function"
    },
    {
      "inputs": [],
      "name": "liquidityManagerFactory",
      "outputs": [
        {
          "internalType": "contract LiquidityManagerFactory",
          "name": "",
          "type": "address"
        }
      ],
      "stateMutability": "view",
      "type": "function"
    },
    {
      "inputs": [
        {
          "components": [
            {
              "internalType": "address",
              "name": "pool",
              "type": "address"
            },
            {
              "internalType": "address",
              "name": "token0",
              "type": "address"
            },
            {
              "internalType": "address",
              "name": "token1",
              "type": "address"
            },
            {
              "internalType": "address",
              "name": "trader",
              "type": "address"
            }
          ],
          "internalType": "struct GlobalStorage.MintParams",
          "name": "params",
          "type": "tuple"
        }
      ],
      "name": "mint",
      "outputs": [
        {
          "internalType": "uint256",
          "name": "tokenId",
          "type": "uint256"
        }
      ],
      "stateMutability": "nonpayable",
      "type": "function"
    },
    {
      "inputs": [],
      "name": "name",
      "outputs": [
        {
          "internalType": "string",
          "name": "",
          "type": "string"
        }
      ],
      "stateMutability": "view",
      "type": "function"
    },
    {
      "inputs": [
        {
          "internalType": "uint256",
          "name": "tokenId",
          "type": "uint256"
        }
      ],
      "name": "ownerOf",
      "outputs": [
        {
          "internalType": "address",
          "name": "",
          "type": "address"
        }
      ],
      "stateMutability": "view",
      "type": "function"
    },
    {
      "inputs": [
        {
          "internalType": "address",
          "name": "",
          "type": "address"
        }
      ],
      "name": "poolData",
      "outputs": [
        {
          "internalType": "address",
          "name": "leverageManager",
          "type": "address"
        },
        {
          "internalType": "address",
          "name": "liquidityManager",
          "type": "address"
        },
        {
          "internalType": "address",
          "name": "interestManager",
          "type": "address"
        }
      ],
      "stateMutability": "view",
      "type": "function"
    },
    {
      "inputs": [
        {
          "internalType": "uint256",
          "name": "_tokenId",
          "type": "uint256"
        }
      ],
      "name": "positions",
      "outputs": [
        {
          "components": [
            {
              "internalType": "address",
              "name": "token0",
              "type": "address"
            },
            {
              "internalType": "address",
              "name": "token1",
              "type": "address"
            },
            {
              "internalType": "uint24",
              "name": "fee",
              "type": "uint24"
            }
          ],
          "internalType": "struct ComputeAddress.LimitlessKey",
          "name": "key",
          "type": "tuple"
        },
        {
          "components": [
            {
              "internalType": "uint80",
              "name": "limitlessId",
              "type": "uint80"
            },
            {
              "internalType": "uint256",
              "name": "totalPosition",
              "type": "uint256"
            },
            {
              "internalType": "uint256",
              "name": "totalDebt",
              "type": "uint256"
            },
            {
              "internalType": "uint256",
              "name": "totalDebtInput",
              "type": "uint256"
            },
            {
              "internalType": "uint256",
              "name": "initCollateral",
              "type": "uint256"
            },
            {
              "internalType": "uint256",
              "name": "creationPrice",
              "type": "uint256"
            },
            {
              "internalType": "uint128",
              "name": "recentPremium",
              "type": "uint128"
            },
            {
              "internalType": "uint128",
              "name": "totalPremium",
              "type": "uint128"
            },
            {
              "internalType": "uint128",
              "name": "unusedPremium",
              "type": "uint128"
            },
            {
              "internalType": "bool",
              "name": "isToken0",
              "type": "bool"
            },
            {
              "internalType": "uint32",
              "name": "openTime",
              "type": "uint32"
            },
            {
              "internalType": "uint32",
              "name": "repayTime",
              "type": "uint32"
            },
            {
              "components": [
                {
                  "internalType": "int24",
                  "name": "tick",
                  "type": "int24"
                },
                {
                  "internalType": "uint128",
                  "name": "liquidity",
                  "type": "uint128"
                }
              ],
              "internalType": "struct LiquidityManager.Liquidity[]",
              "name": "borrowInfo",
              "type": "tuple[]"
            }
          ],
          "internalType": "struct GlobalStorage.Position",
          "name": "position",
          "type": "tuple"
        }
      ],
      "stateMutability": "view",
      "type": "function"
    },
    {
      "inputs": [
        {
          "components": [
            {
              "internalType": "uint256",
              "name": "tokenId",
              "type": "uint256"
            },
            {
              "internalType": "address",
              "name": "pool",
              "type": "address"
            },
            {
              "internalType": "uint256",
              "name": "recentPremium",
              "type": "uint256"
            },
            {
              "internalType": "uint256",
              "name": "unusedPremium",
              "type": "uint256"
            },
            {
              "internalType": "uint256",
              "name": "totalPremium",
              "type": "uint256"
            }
          ],
          "internalType": "struct GlobalStorage.PremiumUpdateParams",
          "name": "params",
          "type": "tuple"
        }
      ],
      "name": "premiumUpdate",
      "outputs": [],
      "stateMutability": "nonpayable",
      "type": "function"
    },
    {
      "inputs": [
        {
          "components": [
            {
              "internalType": "uint256",
              "name": "tokenId",
              "type": "uint256"
            },
            {
              "internalType": "address",
              "name": "pool",
              "type": "address"
            },
            {
              "components": [
                {
                  "internalType": "uint80",
                  "name": "limitlessId",
                  "type": "uint80"
                },
                {
                  "internalType": "uint256",
                  "name": "totalPosition",
                  "type": "uint256"
                },
                {
                  "internalType": "uint256",
                  "name": "totalDebt",
                  "type": "uint256"
                },
                {
                  "internalType": "uint256",
                  "name": "totalDebtInput",
                  "type": "uint256"
                },
                {
                  "internalType": "uint256",
                  "name": "initCollateral",
                  "type": "uint256"
                },
                {
                  "internalType": "uint256",
                  "name": "creationPrice",
                  "type": "uint256"
                },
                {
                  "internalType": "uint128",
                  "name": "recentPremium",
                  "type": "uint128"
                },
                {
                  "internalType": "uint128",
                  "name": "totalPremium",
                  "type": "uint128"
                },
                {
                  "internalType": "uint128",
                  "name": "unusedPremium",
                  "type": "uint128"
                },
                {
                  "internalType": "bool",
                  "name": "isToken0",
                  "type": "bool"
                },
                {
                  "internalType": "uint32",
                  "name": "openTime",
                  "type": "uint32"
                },
                {
                  "internalType": "uint32",
                  "name": "repayTime",
                  "type": "uint32"
                },
                {
                  "components": [
                    {
                      "internalType": "int24",
                      "name": "tick",
                      "type": "int24"
                    },
                    {
                      "internalType": "uint128",
                      "name": "liquidity",
                      "type": "uint128"
                    }
                  ],
                  "internalType": "struct LiquidityManager.Liquidity[]",
                  "name": "borrowInfo",
                  "type": "tuple[]"
                }
              ],
              "internalType": "struct GlobalStorage.Position",
              "name": "position",
              "type": "tuple"
            }
          ],
          "internalType": "struct GlobalStorage.UpdatePositionParams",
          "name": "params",
          "type": "tuple"
        }
      ],
      "name": "reducePositionUpdate",
      "outputs": [],
      "stateMutability": "nonpayable",
      "type": "function"
    },
    {
      "inputs": [
        {
          "internalType": "address",
          "name": "from",
          "type": "address"
        },
        {
          "internalType": "address",
          "name": "to",
          "type": "address"
        },
        {
          "internalType": "uint256",
          "name": "tokenId",
          "type": "uint256"
        }
      ],
      "name": "safeTransferFrom",
      "outputs": [],
      "stateMutability": "nonpayable",
      "type": "function"
    },
    {
      "inputs": [
        {
          "internalType": "address",
          "name": "from",
          "type": "address"
        },
        {
          "internalType": "address",
          "name": "to",
          "type": "address"
        },
        {
          "internalType": "uint256",
          "name": "tokenId",
          "type": "uint256"
        },
        {
          "internalType": "bytes",
          "name": "data",
          "type": "bytes"
        }
      ],
      "name": "safeTransferFrom",
      "outputs": [],
      "stateMutability": "nonpayable",
      "type": "function"
    },
    {
      "inputs": [
        {
          "internalType": "address",
          "name": "operator",
          "type": "address"
        },
        {
          "internalType": "bool",
          "name": "approved",
          "type": "bool"
        }
      ],
      "name": "setApprovalForAll",
      "outputs": [],
      "stateMutability": "nonpayable",
      "type": "function"
    },
    {
      "inputs": [
        {
          "internalType": "bytes4",
          "name": "interfaceId",
          "type": "bytes4"
        }
      ],
      "name": "supportsInterface",
      "outputs": [
        {
          "internalType": "bool",
          "name": "",
          "type": "bool"
        }
      ],
      "stateMutability": "view",
      "type": "function"
    },
    {
      "inputs": [],
      "name": "symbol",
      "outputs": [
        {
          "internalType": "string",
          "name": "",
          "type": "string"
        }
      ],
      "stateMutability": "view",
      "type": "function"
    },
    {
      "inputs": [
        {
          "internalType": "uint256",
          "name": "index",
          "type": "uint256"
        }
      ],
      "name": "tokenByIndex",
      "outputs": [
        {
          "internalType": "uint256",
          "name": "",
          "type": "uint256"
        }
      ],
      "stateMutability": "view",
      "type": "function"
    },
    {
      "inputs": [
        {
          "internalType": "address",
          "name": "owner",
          "type": "address"
        },
        {
          "internalType": "uint256",
          "name": "index",
          "type": "uint256"
        }
      ],
      "name": "tokenOfOwnerByIndex",
      "outputs": [
        {
          "internalType": "uint256",
          "name": "",
          "type": "uint256"
        }
      ],
      "stateMutability": "view",
      "type": "function"
    },
    {
      "inputs": [
        {
          "internalType": "uint256",
          "name": "tokenId",
          "type": "uint256"
        }
      ],
      "name": "tokenURI",
      "outputs": [
        {
          "internalType": "string",
          "name": "",
          "type": "string"
        }
      ],
      "stateMutability": "view",
      "type": "function"
    },
    {
      "inputs": [],
      "name": "totalSupply",
      "outputs": [
        {
          "internalType": "uint256",
          "name": "",
          "type": "uint256"
        }
      ],
      "stateMutability": "view",
      "type": "function"
    },
    {
      "inputs": [
        {
          "internalType": "address",
          "name": "from",
          "type": "address"
        },
        {
          "internalType": "address",
          "name": "to",
          "type": "address"
        },
        {
          "internalType": "uint256",
          "name": "tokenId",
          "type": "uint256"
        }
      ],
      "name": "transferFrom",
      "outputs": [],
      "stateMutability": "nonpayable",
      "type": "function"
    },
    {
      "inputs": [],
      "name": "uniswapV3Factory",
      "outputs": [
        {
          "internalType": "contract UniswapV3Factory",
          "name": "",
          "type": "address"
        }
      ],
      "stateMutability": "view",
      "type": "function"
    }
  ],
  "bytecode": {
    "object": "0x608060405260016011819055601280546001600160501b03191690911790553480156200002b57600080fd5b506040518060400160405280601d81526020017f4c696d69746c65737320563120506f736974696f6e73204e46542d56300000008152506040518060400160405280600a8152602001694c4d542d56312d504f5360b01b815250816000908162000096919062000153565b506001620000a5828262000153565b5050506200021f565b634e487b7160e01b600052604160045260246000fd5b600181811c90821680620000d957607f821691505b602082108103620000fa57634e487b7160e01b600052602260045260246000fd5b50919050565b601f8211156200014e57600081815260208120601f850160051c81016020861015620001295750805b601f850160051c820191505b818110156200014a5782815560010162000135565b5050505b505050565b81516001600160401b038111156200016f576200016f620000ae565b6200018781620001808454620000c4565b8462000100565b602080601f831160018114620001bf5760008415620001a65750858301515b600019600386901b1c1916600185901b1785556200014a565b600085815260208120601f198616915b82811015620001f057888601518255948401946001909101908401620001cf565b50858210156200020f5787850151600019600388901b60f8161c191681555b5050505050600190811b01905550565b613476806200022f6000396000f3fe608060405234801561001057600080fd5b50600436106101e55760003560e01c80636352211e1161010f578063a7283be3116100a2578063c87b56dd11610071578063c87b56dd146104ab578063cefaf201146104be578063e985e9c5146104de578063eb02c3011461051a57600080fd5b8063a7283be314610425578063b88d4fde14610438578063b96b83c21461044b578063c0c53b8b1461045e57600080fd5b806395d89b41116100de57806395d89b41146103d657806399fbab88146103de578063a22cb465146103ff578063a2934fe61461041257600080fd5b80636352211e1461038a57806370a082311461039d57806386e4a4ee146103b05780638d6370b2146103c357600080fd5b8063296e8f871161018757806342842e0e1161015657806342842e0e1461033e5780634f6ccce7146103515780635b549182146103645780635bae3c051461037757600080fd5b8063296e8f87146102f25780632f745c5914610305578063328cc9fc146103185780633e7f171c1461032b57600080fd5b8063095ea7b3116101c3578063095ea7b314610252578063136efb7a1461026757806318160ddd146102cd57806323b872dd146102df57600080fd5b806301ffc9a7146101ea57806306fdde0314610212578063081812fc14610227575b600080fd5b6101fd6101f8366004612a81565b61052d565b60405190151581526020015b60405180910390f35b61021a610558565b6040516102099190612aee565b61023a610235366004612b01565b6105ea565b6040516001600160a01b039091168152602001610209565b610265610260366004612b2f565b610611565b005b6102a3610275366004612b5b565b600a602052600090815260409020805460018201546002909201546001600160a01b03918216928216911683565b604080516001600160a01b0394851681529284166020840152921691810191909152606001610209565b6008545b604051908152602001610209565b6102656102ed366004612b78565b61072b565b610265610300366004612bcb565b61075c565b6102d1610313366004612b2f565b610882565b610265610326366004612be7565b610918565b610265610339366004612c63565b610b6e565b61026561034c366004612b78565b610c54565b6102d161035f366004612b01565b610c6f565b600d5461023a906001600160a01b031681565b600c5461023a906001600160a01b031681565b61023a610398366004612b01565b610d02565b6102d16103ab366004612b5b565b610d62565b6102656103be366004612cdc565b610de8565b6102d16103d1366004612cee565b610e31565b61021a610fdd565b6103f16103ec366004612b01565b610fec565b604051610209929190612e34565b61026561040d366004612e88565b6111a6565b61023a610420366004612ece565b6111b5565b610265610433366004612b5b565b61124b565b610265610446366004612f19565b611631565b600b5461023a906001600160a01b031681565b61026561046c366004612fdd565b600b80546001600160a01b039485166001600160a01b031991821617909155600c805493851693821693909317909255600d8054919093169116179055565b61021a6104b9366004612b01565b611663565b6104d16104cc366004612be7565b6116d6565b604051610209919061301d565b6101fd6104ec366004613030565b6001600160a01b03918216600090815260056020908152604080832093909416825291909152205460ff1690565b6104d1610528366004612b01565b611b90565b60006001600160e01b0319821663780e9d6360e01b1480610552575061055282611cd3565b92915050565b60606000805461056790613069565b80601f016020809104026020016040519081016040528092919081815260200182805461059390613069565b80156105e05780601f106105b5576101008083540402835291602001916105e0565b820191906000526020600020905b8154815290600101906020018083116105c357829003601f168201915b5050505050905090565b60006105f582611d23565b506000908152600460205260409020546001600160a01b031690565b600061061c82610d02565b9050806001600160a01b0316836001600160a01b03160361068e5760405162461bcd60e51b815260206004820152602160248201527f4552433732313a20617070726f76616c20746f2063757272656e74206f776e656044820152603960f91b60648201526084015b60405180910390fd5b336001600160a01b03821614806106aa57506106aa81336104ec565b61071c5760405162461bcd60e51b815260206004820152603d60248201527f4552433732313a20617070726f76652063616c6c6572206973206e6f7420746f60448201527f6b656e206f776e6572206f7220617070726f76656420666f7220616c6c0000006064820152608401610685565b6107268383611d85565b505050565b6107353382611df3565b6107515760405162461bcd60e51b81526004016106859061309d565b610726838383611e72565b61076c6060820160408301612b5b565b6001600160a01b038181166000908152600a60205260409020541633146107a55760405162461bcd60e51b8152600401610685906130ea565b6107b56040830160208401612b5b565b6001600160a01b03166107c88335610d02565b6001600160a01b0316146108075760405162461bcd60e51b815260206004820152600660248201526510b7bbb732b960d11b6044820152606401610685565b6108118235611fe3565b81356000908152600e60205260408120805469ffffffffffffffffffff191681556001810182905560028101829055600381018290556004810182905560058101829055600681018290556007810180546001600160c81b03191690559061087c6008830182612990565b50505050565b600061088d83610d62565b82106108ef5760405162461bcd60e51b815260206004820152602b60248201527f455243373231456e756d657261626c653a206f776e657220696e646578206f7560448201526a74206f6620626f756e647360a81b6064820152608401610685565b506001600160a01b03919091166000908152600660209081526040808320938352929052205490565b6109286040820160208301612b5b565b6001600160a01b038181166000908152600a60205260409020541633146109615760405162461bcd60e51b8152600401610685906130ea565b61096e6040830183613114565b6109809061010081019060e00161314a565b82356000908152600e60205260409081902060060180546001600160801b03938416600160801b029316929092179091556109bd90830183613114565b82356000908152600e60209081526040918290209201356001909201919091556109e990830183613114565b82356000908152600e60205260409081902091810135600290920191909155610a1490830183613114565b82356000908152600e602052604081206060929092013560038301556007820180546001600160801b031916905560068201556008015415610a6f5781356000908152600e60205260408120610a6f91600890910190612990565b60005b610a7f6040840184613114565b610a8e90610180810190613167565b9050811015610726576000610aa66040850185613114565b610ab590610180810190613167565b83818110610ac557610ac56131b8565b9050604002016020016020810190610add919061314a565b6001600160801b03161115610b5c5782356000908152600e60205260409081902060080190610b0e90850185613114565b610b1d90610180810190613167565b83818110610b2d57610b2d6131b8565b83546001810185556000948552602090942060409091029290920192919091019050610b5982826131ce565b50505b80610b6681613247565b915050610a72565b6020808201516001600160a01b038082166000908152600a9093526040909220549091163314610bb05760405162461bcd60e51b8152600401610685906130ea565b5080516000908152600e60205260408082206007908101805463ffffffff60a81b1916600160a81b4263ffffffff16021790558184015184518452828420600690810180546001600160801b03199081166001600160801b03948516179091556060870151875187528587209094018054909116938316939093179092556080850151945184529190922090910180548216600160801b9390921692909202179055565b61072683838360405180602001604052806000815250611631565b6000610c7a60085490565b8210610cdd5760405162461bcd60e51b815260206004820152602c60248201527f455243373231456e756d657261626c653a20676c6f62616c20696e646578206f60448201526b7574206f6620626f756e647360a01b6064820152608401610685565b60088281548110610cf057610cf06131b8565b90600052602060002001549050919050565b6000818152600260205260408120546001600160a01b0316806105525760405162461bcd60e51b8152602060048201526018602482015277115490cdcc8c4e881a5b9d985b1a59081d1bdad95b88125160421b6044820152606401610685565b60006001600160a01b038216610dcc5760405162461bcd60e51b815260206004820152602960248201527f4552433732313a2061646472657373207a65726f206973206e6f7420612076616044820152683634b21037bbb732b960b91b6064820152608401610685565b506001600160a01b031660009081526003602052604090205490565b610df86040820160208301612b5b565b6001600160a01b038181166000908152600a60205260409020541633146108075760405162461bcd60e51b8152600401610685906130ea565b6000610e406020830183612b5b565b6001600160a01b038181166000908152600a6020526040902054163314610e795760405162461bcd60e51b8152600401610685906130ea565b6011549150610e99610e916080850160608601612b5b565b601154612086565b6000610ea86020850185612b5b565b90506000610f95600a82610ebf6020890189612b5b565b6001600160a01b039081168252602080830193909352604091820160002054825160608101845291169290918291610efb918b01908b01612b5b565b6001600160a01b03168152602001610f1960608a0160408b01612b5b565b6001600160a01b03168152602001856001600160a01b031663ddca3f436040518163ffffffff1660e01b8152600401602060405180830381865afa158015610f65573d6000803e3d6000fd5b505050506040513d601f19601f82011682018060405250810190610f899190613260565b62ffffff1690526120a0565b6000858152600e60205260408120805469ffffffffffffffffffff19166001600160501b0384161790556011805492935090610fd083613247565b9190505550505050919050565b60606001805461056790613069565b60408051606081018252600080825260208201819052918101919091526110116129ae565b6000838152600e6020908152604080832081516101a08101835281546001600160501b031681526001820154818501526002820154818401526003820154606082015260048201546080820152600582015460a082015260068201546001600160801b0380821660c0840152600160801b91829004811660e0840152600784015490811661010084015290810460ff161515610120830152600160881b810463ffffffff908116610140840152600160a81b9091041661016082015260088201805484518187028101870190955280855291949293610180860193909290879084015b8282101561113e5760008481526020908190206040805180820190915290840154600281900b8252630100000090046001600160801b0316818301528252600190920191016110f4565b5050509152505080516001600160501b03166000908152600f6020908152604091829020825160608101845281546001600160a01b03908116825260019092015491821692810192909252600160a01b900462ffffff16918101919091529590945092505050565b6111b1338383612193565b5050565b600d5460405163a167129560e01b81526001600160a01b038581166004830152848116602483015262ffffff84166044830152600092169063a1671295906064016020604051808303816000875af1158015611215573d6000803e3d6000fd5b505050506040513d601f19601f82011682018060405250810190611239919061327d565b90506112448161124b565b9392505050565b6001600160a01b038181166000908152600a60205260409020541615801561128e57506001600160a01b038181166000908152600a602052604090206001015416155b6112da5760405162461bcd60e51b815260206004820152601b60248201527f706f6f6c206d616e616765727320616c726561647920657869737400000000006044820152606401610685565b6000816001600160a01b0316630dfe16816040518163ffffffff1660e01b8152600401602060405180830381865afa15801561131a573d6000803e3d6000fd5b505050506040513d601f19601f8201168201806040525081019061133e919061327d565b90506000826001600160a01b031663d21220a76040518163ffffffff1660e01b8152600401602060405180830381865afa158015611380573d6000803e3d6000fd5b505050506040513d601f19601f820116820180604052508101906113a4919061327d565b90506000836001600160a01b031663ddca3f436040518163ffffffff1660e01b8152600401602060405180830381865afa1580156113e6573d6000803e3d6000fd5b505050506040513d601f19601f8201168201806040525081019061140a9190613260565b600b5460405163090ef7f360e31b81526001600160a01b0387811660048301528681166024830152858116604483015262ffffff8416606483015292935060009290911690634877bf98906084016020604051808303816000875af1158015611477573d6000803e3d6000fd5b505050506040513d601f19601f8201168201806040525081019061149b919061327d565b600c5460405163031036eb60e41b81526001600160a01b03888116600483015280841660248301528781166044830152868116606483015262ffffff86166084830152929350600092909116906331036eb09060a4016020604051808303816000875af1158015611510573d6000803e3d6000fd5b505050506040513d601f19601f82011682018060405250810190611534919061327d565b604051630f05893560e21b81526001600160a01b03808316600483015291925090831690633c1624d490602401600060405180830381600087803b15801561157b57600080fd5b505af115801561158f573d6000803e3d6000fd5b5050604051630f05893560e21b81526001600160a01b03848116600483015289169250633c1624d49150602401600060405180830381600087803b1580156115d657600080fd5b505af11580156115ea573d6000803e3d6000fd5b5050506001600160a01b039687166000908152600a6020526040902080549388166001600160a01b0319948516178155600101805492909716919092161790945550505050565b61163b3383611df3565b6116575760405162461bcd60e51b81526004016106859061309d565b61087c84848484612261565b606061166e82611d23565b600061168560408051602081019091526000815290565b905060008151116116a55760405180602001604052806000815250611244565b806116af84612294565b6040516020016116c092919061329a565b6040516020818303038152906040529392505050565b6116de6129ae565b6116ee6040830160208401612b5b565b6001600160a01b038181166000908152600a60205260409020541633146117275760405162461bcd60e51b8152600401610685906130ea565b6117346040840184613114565b6117469061010081019060e00161314a565b83356000908152600e60205260409081902060060180546001600160801b03938416600160801b0293169290921790915561178390840184613114565b83356000908152600e60209081526040918290209201356001909201919091556117af90840184613114565b83356000908152600e602052604090819020918101356002909201919091556117da90840184613114565b83356000908152600e6020526040908190206060929092013560039092019190915561180890840184613114565b83356000908152600e6020526040908190206080929092013560049092019190915561183690840184613114565b61184990610140810190610120016132c9565b83356000908152600e6020526040908190206007018054921515600160801b0260ff60801b199093169290921790915561188590840184613114565b61189890610160810190610140016132e4565b83356000908152600e602052604090819020600701805463ffffffff93909316600160881b0263ffffffff60881b19909316929092179091556118dd90840184613114565b6118f090610180810190610160016132e4565b83356000908152600e6020526040902060078101805463ffffffff93909316600160a81b0263ffffffff60a81b199093169290921790915560080154156119505782356000908152600e6020526040812061195091600890910190612990565b60005b6119606040850185613114565b61196f90610180810190613167565b9050811015611a4f5760006119876040860186613114565b61199690610180810190613167565b838181106119a6576119a66131b8565b90506040020160200160208101906119be919061314a565b6001600160801b03161115611a3d5783356000908152600e602052604090819020600801906119ef90860186613114565b6119fe90610180810190613167565b83818110611a0e57611a0e6131b8565b83546001810185556000948552602090942060409091029290920192919091019050611a3a82826131ce565b50505b80611a4781613247565b915050611953565b5082356000908152600e6020908152604080832081516101a08101835281546001600160501b031681526001820154818501526002820154818401526003820154606082015260048201546080820152600582015460a082015260068201546001600160801b0380821660c0840152600160801b91829004811660e0840152600784015490811661010084015290810460ff161515610120830152600160881b810463ffffffff908116610140840152600160a81b9091041661016082015260088201805484518187028101870190955280855291959294610180870194939192919084015b82821015611b7f5760008481526020908190206040805180820190915290840154600281900b8252630100000090046001600160801b031681830152825260019092019101611b35565b505050508152505091505b50919050565b611b986129ae565b6000828152600e6020908152604080832081516101a08101835281546001600160501b031681526001820154818501526002820154818401526003820154606082015260048201546080820152600582015460a082015260068201546001600160801b0380821660c0840152600160801b91829004811660e0840152600784015490811661010084015290810460ff161515610120830152600160881b810463ffffffff908116610140840152600160a81b9091041661016082015260088201805484518187028101870190955280855291959294610180870194939192919084015b82821015611cc55760008481526020908190206040805180820190915290840154600281900b8252630100000090046001600160801b031681830152825260019092019101611c7b565b505050915250909392505050565b60006001600160e01b031982166380ac58cd60e01b1480611d0457506001600160e01b03198216635b5e139f60e01b145b8061055257506301ffc9a760e01b6001600160e01b0319831614610552565b6000818152600260205260409020546001600160a01b0316611d825760405162461bcd60e51b8152602060048201526018602482015277115490cdcc8c4e881a5b9d985b1a59081d1bdad95b88125160421b6044820152606401610685565b50565b600081815260046020526040902080546001600160a01b0319166001600160a01b0384169081179091558190611dba82610d02565b6001600160a01b03167f8c5be1e5ebec7d5bd14f71427d1e84f3dd0314c0f7b2291e5b200ac8c7c3b92560405160405180910390a45050565b600080611dff83610d02565b9050806001600160a01b0316846001600160a01b03161480611e4657506001600160a01b0380821660009081526005602090815260408083209388168352929052205460ff165b80611e6a5750836001600160a01b0316611e5f846105ea565b6001600160a01b0316145b949350505050565b826001600160a01b0316611e8582610d02565b6001600160a01b031614611eab5760405162461bcd60e51b81526004016106859061330a565b6001600160a01b038216611f0d5760405162461bcd60e51b8152602060048201526024808201527f4552433732313a207472616e7366657220746f20746865207a65726f206164646044820152637265737360e01b6064820152608401610685565b611f1a8383836001612327565b826001600160a01b0316611f2d82610d02565b6001600160a01b031614611f535760405162461bcd60e51b81526004016106859061330a565b600081815260046020908152604080832080546001600160a01b03199081169091556001600160a01b0387811680865260038552838620805460001901905590871680865283862080546001019055868652600290945282852080549092168417909155905184937fddf252ad1be2c89b69c2b068fc378daa952ba7f163c4a11628f55a4df523b3ef91a4505050565b6000611fee82610d02565b9050611ffe816000846001612327565b61200782610d02565b600083815260046020908152604080832080546001600160a01b03199081169091556001600160a01b0385168085526003845282852080546000190190558785526002909352818420805490911690555192935084927fddf252ad1be2c89b69c2b068fc378daa952ba7f163c4a11628f55a4df523b3ef908390a45050565b6111b182826040518060200160405280600081525061245b565b6001600160a01b0382166000908152601060205260408120546001600160501b03169081900361055257601280546001600160501b03169060006120e38361334f565b82546101009290920a6001600160501b038181021990931691831602179091556001600160a01b039485166000908152601060209081526040808320805469ffffffffffffffffffff19169486169485179055928252600f815290829020855181546001600160a01b031916908816178155908501516001919091018054959092015195166001600160b81b031990941693909317600160a01b62ffffff90951694909402939093179091555090565b816001600160a01b0316836001600160a01b0316036121f45760405162461bcd60e51b815260206004820152601960248201527f4552433732313a20617070726f766520746f2063616c6c6572000000000000006044820152606401610685565b6001600160a01b03838116600081815260056020908152604080832094871680845294825291829020805460ff191686151590811790915591519182527f17307eab39ab6107e8899845ad3d59bd9653f200f220920489ca2b5937696c31910160405180910390a3505050565b61226c848484611e72565b6122788484848461248e565b61087c5760405162461bcd60e51b815260040161068590613375565b606060006122a18361258f565b600101905060008167ffffffffffffffff8111156122c1576122c1612c1c565b6040519080825280601f01601f1916602001820160405280156122eb576020820181803683370190505b5090508181016020015b600019016f181899199a1a9b1b9c1cb0b131b232b360811b600a86061a8153600a85049450846122f557509392505050565b60018111156123965760405162461bcd60e51b815260206004820152603560248201527f455243373231456e756d657261626c653a20636f6e7365637574697665207472604482015274185b9cd9995c9cc81b9bdd081cdd5c1c1bdc9d1959605a1b6064820152608401610685565b816001600160a01b0385166123f2576123ed81600880546000838152600960205260408120829055600182018355919091527ff3f7a9fe364faab93b216da50a3214154f22a0a2b415b23a84c8169e8b636ee30155565b612415565b836001600160a01b0316856001600160a01b031614612415576124158582612667565b6001600160a01b0384166124315761242c81612704565b612454565b846001600160a01b0316846001600160a01b0316146124545761245484826127b3565b5050505050565b61246583836127f7565b612472600084848461248e565b6107265760405162461bcd60e51b815260040161068590613375565b60006001600160a01b0384163b1561258457604051630a85bd0160e11b81526001600160a01b0385169063150b7a02906124d29033908990889088906004016133c7565b6020604051808303816000875af192505050801561250d575060408051601f3d908101601f1916820190925261250a918101906133fa565b60015b61256a573d80801561253b576040519150601f19603f3d011682016040523d82523d6000602084013e612540565b606091505b5080516000036125625760405162461bcd60e51b815260040161068590613375565b805181602001fd5b6001600160e01b031916630a85bd0160e11b149050611e6a565b506001949350505050565b60008072184f03e93ff9f4daa797ed6e38ed64bf6a1f0160401b83106125ce5772184f03e93ff9f4daa797ed6e38ed64bf6a1f0160401b830492506040015b6d04ee2d6d415b85acef810000000083106125fa576d04ee2d6d415b85acef8100000000830492506020015b662386f26fc10000831061261857662386f26fc10000830492506010015b6305f5e1008310612630576305f5e100830492506008015b612710831061264457612710830492506004015b60648310612656576064830492506002015b600a83106105525760010192915050565b6000600161267484610d62565b61267e9190613417565b6000838152600760205260409020549091508082146126d1576001600160a01b03841660009081526006602090815260408083208584528252808320548484528184208190558352600790915290208190555b5060009182526007602090815260408084208490556001600160a01b039094168352600681528383209183525290812055565b60085460009061271690600190613417565b6000838152600960205260408120546008805493945090928490811061273e5761273e6131b8565b90600052602060002001549050806008838154811061275f5761275f6131b8565b60009182526020808320909101929092558281526009909152604080822084905585825281205560088054806127975761279761342a565b6001900381819060005260206000200160009055905550505050565b60006127be83610d62565b6001600160a01b039093166000908152600660209081526040808320868452825280832085905593825260079052919091209190915550565b6001600160a01b03821661284d5760405162461bcd60e51b815260206004820181905260248201527f4552433732313a206d696e7420746f20746865207a65726f20616464726573736044820152606401610685565b6000818152600260205260409020546001600160a01b0316156128b25760405162461bcd60e51b815260206004820152601c60248201527f4552433732313a20746f6b656e20616c7265616479206d696e746564000000006044820152606401610685565b6128c0600083836001612327565b6000818152600260205260409020546001600160a01b0316156129255760405162461bcd60e51b815260206004820152601c60248201527f4552433732313a20746f6b656e20616c7265616479206d696e746564000000006044820152606401610685565b6001600160a01b038216600081815260036020908152604080832080546001019055848352600290915280822080546001600160a01b0319168417905551839291907fddf252ad1be2c89b69c2b068fc378daa952ba7f163c4a11628f55a4df523b3ef908290a45050565b5080546000825590600052602060002090810190611d829190612a48565b604051806101a0016040528060006001600160501b03168152602001600081526020016000815260200160008152602001600081526020016000815260200160006001600160801b0316815260200160006001600160801b0316815260200160006001600160801b03168152602001600015158152602001600063ffffffff168152602001600063ffffffff168152602001606081525090565b5b80821115612a675780546001600160981b0319168155600101612a49565b5090565b6001600160e01b031981168114611d8257600080fd5b600060208284031215612a9357600080fd5b813561124481612a6b565b60005b83811015612ab9578181015183820152602001612aa1565b50506000910152565b60008151808452612ada816020860160208601612a9e565b601f01601f19169290920160200192915050565b6020815260006112446020830184612ac2565b600060208284031215612b1357600080fd5b5035919050565b6001600160a01b0381168114611d8257600080fd5b60008060408385031215612b4257600080fd5b8235612b4d81612b1a565b946020939093013593505050565b600060208284031215612b6d57600080fd5b813561124481612b1a565b600080600060608486031215612b8d57600080fd5b8335612b9881612b1a565b92506020840135612ba881612b1a565b929592945050506040919091013590565b600060608284031215611b8a57600080fd5b600060608284031215612bdd57600080fd5b6112448383612bb9565b600060208284031215612bf957600080fd5b813567ffffffffffffffff811115612c1057600080fd5b611e6a84828501612bb9565b634e487b7160e01b600052604160045260246000fd5b604051601f8201601f1916810167ffffffffffffffff81118282101715612c5b57612c5b612c1c565b604052919050565b600060a08284031215612c7557600080fd5b60405160a0810181811067ffffffffffffffff82111715612c9857612c98612c1c565b604052823581526020830135612cad81612b1a565b806020830152506040830135604082015260608301356060820152608083013560808201528091505092915050565b600060408284031215611b8a57600080fd5b600060808284031215611b8a57600080fd5b600081518084526020808501945080840160005b83811015612d47578151805160020b88528301516001600160801b03168388015260409096019590820190600101612d14565b509495945050505050565b80516001600160501b0316825260006101a06020830151602085015260408301516040850152606083015160608501526080830151608085015260a083015160a085015260c0830151612db060c08601826001600160801b03169052565b5060e0830151612dcb60e08601826001600160801b03169052565b50610100838101516001600160801b031690850152610120808401511515908501526101408084015163ffffffff90811691860191909152610160808501519091169085015261018080840151818601839052612e2a83870182612d00565b9695505050505050565b600060018060a01b038085511683528060208601511660208401525062ffffff604085015116604083015260806060830152611e6a6080830184612d52565b80358015158114612e8357600080fd5b919050565b60008060408385031215612e9b57600080fd5b8235612ea681612b1a565b9150612eb460208401612e73565b90509250929050565b62ffffff81168114611d8257600080fd5b600080600060608486031215612ee357600080fd5b8335612eee81612b1a565b92506020840135612efe81612b1a565b91506040840135612f0e81612ebd565b809150509250925092565b60008060008060808587031215612f2f57600080fd5b8435612f3a81612b1a565b9350602085810135612f4b81612b1a565b935060408601359250606086013567ffffffffffffffff80821115612f6f57600080fd5b818801915088601f830112612f8357600080fd5b813581811115612f9557612f95612c1c565b612fa7601f8201601f19168501612c32565b91508082528984828501011115612fbd57600080fd5b808484018584013760008482840101525080935050505092959194509250565b600080600060608486031215612ff257600080fd5b8335612ffd81612b1a565b9250602084013561300d81612b1a565b91506040840135612f0e81612b1a565b6020815260006112446020830184612d52565b6000806040838503121561304357600080fd5b823561304e81612b1a565b9150602083013561305e81612b1a565b809150509250929050565b600181811c9082168061307d57607f821691505b602082108103611b8a57634e487b7160e01b600052602260045260246000fd5b6020808252602d908201527f4552433732313a2063616c6c6572206973206e6f7420746f6b656e206f776e6560408201526c1c881bdc88185c1c1c9bdd9959609a1b606082015260800190565b60208082526010908201526f10b632bb32b930b3b2a6b0b730b3b2b960811b604082015260600190565b6000823561019e1983360301811261312b57600080fd5b9190910192915050565b6001600160801b0381168114611d8257600080fd5b60006020828403121561315c57600080fd5b813561124481613135565b6000808335601e1984360301811261317e57600080fd5b83018035915067ffffffffffffffff82111561319957600080fd5b6020019150600681901b36038213156131b157600080fd5b9250929050565b634e487b7160e01b600052603260045260246000fd5b81358060020b81146131df57600080fd5b815462ffffff82811662ffffff198316178455602085013561320081613135565b72ffffffffffffffffffffffffffffffff00000060189190911b1692166001600160981b0319919091161717905550565b634e487b7160e01b600052601160045260246000fd5b60006001820161325957613259613231565b5060010190565b60006020828403121561327257600080fd5b815161124481612ebd565b60006020828403121561328f57600080fd5b815161124481612b1a565b600083516132ac818460208801612a9e565b8351908301906132c0818360208801612a9e565b01949350505050565b6000602082840312156132db57600080fd5b61124482612e73565b6000602082840312156132f657600080fd5b813563ffffffff8116811461124457600080fd5b60208082526025908201527f4552433732313a207472616e736665722066726f6d20696e636f72726563742060408201526437bbb732b960d91b606082015260800190565b60006001600160501b0380831681810361336b5761336b613231565b6001019392505050565b60208082526032908201527f4552433732313a207472616e7366657220746f206e6f6e20455243373231526560408201527131b2b4bb32b91034b6b83632b6b2b73a32b960711b606082015260800190565b6001600160a01b0385811682528416602082015260408101839052608060608201819052600090612e2a90830184612ac2565b60006020828403121561340c57600080fd5b815161124481612a6b565b8181038181111561055257610552613231565b634e487b7160e01b600052603160045260246000fdfea264697066735822122057996a21f6c8fe7e9ad838b78be55098f66f6e049441ed3d1d437119625faf8564736f6c63430008110033",
    "linkReferences": {}
  },
  "methodIdentifiers": {
    "addPositionUpdate((uint256,address,(uint80,uint256,uint256,uint256,uint256,uint256,uint128,uint128,uint128,bool,uint32,uint32,(int24,uint128)[])))": "cefaf201",
    "approve(address,uint256)": "095ea7b3",
    "balanceOf(address)": "70a08231",
    "burn((uint256,address,address))": "296e8f87",
    "createFull(address,address,uint24)": "a2934fe6",
    "createPoolManagers(address)": "a7283be3",
    "deletePosition((uint256,address))": "86e4a4ee",
    "getApproved(uint256)": "081812fc",
    "getPosition(uint256)": "eb02c301",
    "initialize(address,address,address)": "c0c53b8b",
    "isApprovedForAll(address,address)": "e985e9c5",
    "leverageManagerFactory()": "b96b83c2",
    "liquidityManagerFactory()": "5bae3c05",
    "mint((address,address,address,address))": "8d6370b2",
    "name()": "06fdde03",
    "ownerOf(uint256)": "6352211e",
    "poolData(address)": "136efb7a",
    "positions(uint256)": "99fbab88",
    "premiumUpdate((uint256,address,uint256,uint256,uint256))": "3e7f171c",
    "reducePositionUpdate((uint256,address,(uint80,uint256,uint256,uint256,uint256,uint256,uint128,uint128,uint128,bool,uint32,uint32,(int24,uint128)[])))": "328cc9fc",
    "safeTransferFrom(address,address,uint256)": "42842e0e",
    "safeTransferFrom(address,address,uint256,bytes)": "b88d4fde",
    "setApprovalForAll(address,bool)": "a22cb465",
    "supportsInterface(bytes4)": "01ffc9a7",
    "symbol()": "95d89b41",
    "tokenByIndex(uint256)": "4f6ccce7",
    "tokenOfOwnerByIndex(address,uint256)": "2f745c59",
    "tokenURI(uint256)": "c87b56dd",
    "totalSupply()": "18160ddd",
    "transferFrom(address,address,uint256)": "23b872dd",
    "uniswapV3Factory()": "5b549182"
  },
  "id": 34
}