{
  "abi": [
    {
      "inputs": [
        {
          "internalType": "address",
          "name": "_pool",
          "type": "address"
        }
      ],
      "stateMutability": "nonpayable",
      "type": "constructor"
    },
    {
      "inputs": [],
      "name": "R",
      "type": "error"
    },
    {
      "inputs": [],
      "name": "T",
      "type": "error"
    },
    {
      "inputs": [],
      "name": "INTEREST_REPLENISH_TIME",
      "outputs": [
        {
          "internalType": "uint256",
          "name": "",
          "type": "uint256"
        }
      ],
      "stateMutability": "view",
      "type": "function"
    },
    {
      "inputs": [
        {
          "internalType": "uint160",
          "name": "price",
          "type": "uint160"
        },
        {
          "internalType": "uint256",
          "name": "maxSlippage",
          "type": "uint256"
        },
        {
          "internalType": "bool",
          "name": "down",
          "type": "bool"
        }
      ],
      "name": "applySlippageX96",
      "outputs": [
        {
          "internalType": "uint160",
          "name": "",
          "type": "uint160"
        }
      ],
      "stateMutability": "pure",
      "type": "function"
    },
    {
      "inputs": [
        {
          "internalType": "bool",
          "name": "zeroForOne",
          "type": "bool"
        },
        {
          "internalType": "int256",
          "name": "amountSpecified",
          "type": "int256"
        },
        {
          "internalType": "uint256",
          "name": "leverage",
          "type": "uint256"
        }
      ],
      "name": "borrow",
      "outputs": [
        {
          "internalType": "uint160",
          "name": "",
          "type": "uint160"
        },
        {
          "internalType": "uint160",
          "name": "",
          "type": "uint160"
        },
        {
          "internalType": "uint128",
          "name": "",
          "type": "uint128"
        },
        {
          "internalType": "uint256",
          "name": "",
          "type": "uint256"
        }
      ],
      "stateMutability": "nonpayable",
      "type": "function"
    },
    {
      "inputs": [],
      "name": "closeMaxSlippage",
      "outputs": [
        {
          "internalType": "uint256",
          "name": "",
          "type": "uint256"
        }
      ],
      "stateMutability": "view",
      "type": "function"
    },
    {
      "inputs": [
        {
          "internalType": "uint256",
          "name": "nonce",
          "type": "uint256"
        },
        {
          "internalType": "address",
          "name": "trader",
          "type": "address"
        },
        {
          "internalType": "uint256",
          "name": "userSpecifiedSlippage",
          "type": "uint256"
        }
      ],
      "name": "closePosition",
      "outputs": [
        {
          "internalType": "int256",
          "name": "",
          "type": "int256"
        },
        {
          "internalType": "int256",
          "name": "",
          "type": "int256"
        }
      ],
      "stateMutability": "nonpayable",
      "type": "function"
    },
    {
      "inputs": [
        {
          "internalType": "uint256",
          "name": "traderFund",
          "type": "uint256"
        },
        {
          "internalType": "uint256",
          "name": "maxSlippage",
          "type": "uint256"
        },
        {
          "internalType": "uint256",
          "name": "borrowAmount",
          "type": "uint256"
        },
        {
          "internalType": "bool",
          "name": "isLong",
          "type": "bool"
        }
      ],
      "name": "createLevPosition",
      "outputs": [
        {
          "components": [
            {
              "internalType": "uint256",
              "name": "totalPosition",
              "type": "uint256"
            },
            {
              "internalType": "uint256",
              "name": "totalDebt",
              "type": "uint256"
            },
            {
              "internalType": "uint256",
              "name": "totalDebtInput",
              "type": "uint256"
            },
            {
              "internalType": "uint256",
              "name": "initCollateral",
              "type": "uint256"
            },
            {
              "internalType": "uint256",
              "name": "cumulativePremium",
              "type": "uint256"
            },
            {
              "internalType": "int24",
              "name": "creationTick",
              "type": "int24"
            },
            {
              "internalType": "uint128",
              "name": "borrowedLiq",
              "type": "uint128"
            },
            {
              "internalType": "bool",
              "name": "isToken0",
              "type": "bool"
            },
            {
              "internalType": "uint32",
              "name": "openTime",
              "type": "uint32"
            },
            {
              "internalType": "uint32",
              "name": "repayTime",
              "type": "uint32"
            },
            {
              "internalType": "int24",
              "name": "borrowStartTick",
              "type": "int24"
            },
            {
              "internalType": "int24",
              "name": "borrowFinishTick",
              "type": "int24"
            }
          ],
          "internalType": "struct LeverageManager.Position",
          "name": "",
          "type": "tuple"
        },
        {
          "internalType": "uint256",
          "name": "",
          "type": "uint256"
        },
        {
          "internalType": "uint256",
          "name": "",
          "type": "uint256"
        }
      ],
      "stateMutability": "nonpayable",
      "type": "function"
    },
    {
      "inputs": [
        {
          "internalType": "address",
          "name": "trader",
          "type": "address"
        }
      ],
      "name": "getAllPositions",
      "outputs": [
        {
          "components": [
            {
              "internalType": "uint256",
              "name": "totalPosition",
              "type": "uint256"
            },
            {
              "internalType": "uint256",
              "name": "totalDebt",
              "type": "uint256"
            },
            {
              "internalType": "uint256",
              "name": "totalDebtInput",
              "type": "uint256"
            },
            {
              "internalType": "uint256",
              "name": "initCollateral",
              "type": "uint256"
            },
            {
              "internalType": "uint256",
              "name": "cumulativePremium",
              "type": "uint256"
            },
            {
              "internalType": "int24",
              "name": "creationTick",
              "type": "int24"
            },
            {
              "internalType": "uint128",
              "name": "borrowedLiq",
              "type": "uint128"
            },
            {
              "internalType": "bool",
              "name": "isToken0",
              "type": "bool"
            },
            {
              "internalType": "uint32",
              "name": "openTime",
              "type": "uint32"
            },
            {
              "internalType": "uint32",
              "name": "repayTime",
              "type": "uint32"
            },
            {
              "internalType": "int24",
              "name": "borrowStartTick",
              "type": "int24"
            },
            {
              "internalType": "int24",
              "name": "borrowFinishTick",
              "type": "int24"
            }
          ],
          "internalType": "struct LeverageManager.Position[]",
          "name": "",
          "type": "tuple[]"
        }
      ],
      "stateMutability": "view",
      "type": "function"
    },
    {
      "inputs": [
        {
          "internalType": "int24",
          "name": "curTick",
          "type": "int24"
        },
        {
          "internalType": "bool",
          "name": "zeroForOne",
          "type": "bool"
        },
        {
          "internalType": "uint128",
          "name": "liquidity",
          "type": "uint128"
        }
      ],
      "name": "getNextTick",
      "outputs": [
        {
          "internalType": "int24",
          "name": "",
          "type": "int24"
        },
        {
          "internalType": "bool",
          "name": "",
          "type": "bool"
        }
      ],
      "stateMutability": "view",
      "type": "function"
    },
    {
      "inputs": [
        {
          "internalType": "address",
          "name": "trader",
          "type": "address"
        },
        {
          "internalType": "uint256",
          "name": "nonce",
          "type": "uint256"
        }
      ],
      "name": "getPosition",
      "outputs": [
        {
          "components": [
            {
              "internalType": "uint256",
              "name": "totalPosition",
              "type": "uint256"
            },
            {
              "internalType": "uint256",
              "name": "totalDebt",
              "type": "uint256"
            },
            {
              "internalType": "uint256",
              "name": "totalDebtInput",
              "type": "uint256"
            },
            {
              "internalType": "uint256",
              "name": "initCollateral",
              "type": "uint256"
            },
            {
              "internalType": "uint256",
              "name": "cumulativePremium",
              "type": "uint256"
            },
            {
              "internalType": "int24",
              "name": "creationTick",
              "type": "int24"
            },
            {
              "internalType": "uint128",
              "name": "borrowedLiq",
              "type": "uint128"
            },
            {
              "internalType": "bool",
              "name": "isToken0",
              "type": "bool"
            },
            {
              "internalType": "uint32",
              "name": "openTime",
              "type": "uint32"
            },
            {
              "internalType": "uint32",
              "name": "repayTime",
              "type": "uint32"
            },
            {
              "internalType": "int24",
              "name": "borrowStartTick",
              "type": "int24"
            },
            {
              "internalType": "int24",
              "name": "borrowFinishTick",
              "type": "int24"
            }
          ],
          "internalType": "struct LeverageManager.Position",
          "name": "",
          "type": "tuple"
        }
      ],
      "stateMutability": "view",
      "type": "function"
    },
    {
      "inputs": [
        {
          "internalType": "address",
          "name": "trader",
          "type": "address"
        }
      ],
      "name": "getUserTokenIds",
      "outputs": [
        {
          "internalType": "uint256[]",
          "name": "",
          "type": "uint256[]"
        }
      ],
      "stateMutability": "view",
      "type": "function"
    },
    {
      "inputs": [
        {
          "internalType": "address",
          "name": "trader",
          "type": "address"
        },
        {
          "internalType": "uint256",
          "name": "nonce",
          "type": "uint256"
        }
      ],
      "name": "isLiquidatable",
      "outputs": [
        {
          "internalType": "bool",
          "name": "",
          "type": "bool"
        }
      ],
      "stateMutability": "view",
      "type": "function"
    },
    {
      "inputs": [],
      "name": "liquidityManager",
      "outputs": [
        {
          "internalType": "contract LiquidityManager",
          "name": "",
          "type": "address"
        }
      ],
      "stateMutability": "view",
      "type": "function"
    },
    {
      "inputs": [],
      "name": "nonce",
      "outputs": [
        {
          "internalType": "uint256",
          "name": "",
          "type": "uint256"
        }
      ],
      "stateMutability": "view",
      "type": "function"
    },
    {
      "inputs": [
        {
          "internalType": "address",
          "name": "trader",
          "type": "address"
        },
        {
          "internalType": "uint256",
          "name": "nonce",
          "type": "uint256"
        }
      ],
      "name": "payPremium",
      "outputs": [
        {
          "internalType": "uint256",
          "name": "",
          "type": "uint256"
        }
      ],
      "stateMutability": "nonpayable",
      "type": "function"
    },
    {
      "inputs": [
        {
          "internalType": "int24",
          "name": "borrowStartTick",
          "type": "int24"
        },
        {
          "internalType": "int24",
          "name": "borrowFinishTick",
          "type": "int24"
        },
        {
          "internalType": "uint256",
          "name": "rate",
          "type": "uint256"
        },
        {
          "internalType": "uint256",
          "name": "borrowedAmount",
          "type": "uint256"
        },
        {
          "internalType": "bool",
          "name": "isToken0",
          "type": "bool"
        },
        {
          "internalType": "uint256[]",
          "name": "liquidities",
          "type": "uint256[]"
        }
      ],
      "name": "payPremiumToPool",
      "outputs": [
        {
          "internalType": "uint256",
          "name": "premium",
          "type": "uint256"
        }
      ],
      "stateMutability": "nonpayable",
      "type": "function"
    },
    {
      "inputs": [],
      "name": "pool",
      "outputs": [
        {
          "internalType": "contract UniswapV3Pool",
          "name": "",
          "type": "address"
        }
      ],
      "stateMutability": "view",
      "type": "function"
    },
    {
      "inputs": [
        {
          "internalType": "bytes32",
          "name": "",
          "type": "bytes32"
        }
      ],
      "name": "positions",
      "outputs": [
        {
          "internalType": "uint256",
          "name": "totalPosition",
          "type": "uint256"
        },
        {
          "internalType": "uint256",
          "name": "totalDebt",
          "type": "uint256"
        },
        {
          "internalType": "uint256",
          "name": "totalDebtInput",
          "type": "uint256"
        },
        {
          "internalType": "uint256",
          "name": "initCollateral",
          "type": "uint256"
        },
        {
          "internalType": "uint256",
          "name": "cumulativePremium",
          "type": "uint256"
        },
        {
          "internalType": "int24",
          "name": "creationTick",
          "type": "int24"
        },
        {
          "internalType": "uint128",
          "name": "borrowedLiq",
          "type": "uint128"
        },
        {
          "internalType": "bool",
          "name": "isToken0",
          "type": "bool"
        },
        {
          "internalType": "uint32",
          "name": "openTime",
          "type": "uint32"
        },
        {
          "internalType": "uint32",
          "name": "repayTime",
          "type": "uint32"
        },
        {
          "internalType": "int24",
          "name": "borrowStartTick",
          "type": "int24"
        },
        {
          "internalType": "int24",
          "name": "borrowFinishTick",
          "type": "int24"
        }
      ],
      "stateMutability": "view",
      "type": "function"
    },
    {
      "inputs": [],
      "name": "precision",
      "outputs": [
        {
          "internalType": "uint256",
          "name": "",
          "type": "uint256"
        }
      ],
      "stateMutability": "view",
      "type": "function"
    },
    {
      "inputs": [
        {
          "internalType": "int24",
          "name": "tick",
          "type": "int24"
        },
        {
          "internalType": "bool",
          "name": "down",
          "type": "bool"
        }
      ],
      "name": "roundTick",
      "outputs": [
        {
          "internalType": "int24",
          "name": "",
          "type": "int24"
        }
      ],
      "stateMutability": "view",
      "type": "function"
    },
    {
      "inputs": [
        {
          "internalType": "address",
          "name": "ad",
          "type": "address"
        }
      ],
      "name": "setLiquidityManager",
      "outputs": [],
      "stateMutability": "nonpayable",
      "type": "function"
    },
    {
      "inputs": [],
      "name": "tickSpacing",
      "outputs": [
        {
          "internalType": "int24",
          "name": "",
          "type": "int24"
        }
      ],
      "stateMutability": "view",
      "type": "function"
    },
    {
      "inputs": [],
      "name": "token0",
      "outputs": [
        {
          "internalType": "contract ERC20",
          "name": "",
          "type": "address"
        }
      ],
      "stateMutability": "view",
      "type": "function"
    },
    {
      "inputs": [],
      "name": "token1",
      "outputs": [
        {
          "internalType": "contract ERC20",
          "name": "",
          "type": "address"
        }
      ],
      "stateMutability": "view",
      "type": "function"
    },
    {
      "inputs": [
        {
          "internalType": "uint256",
          "name": "amount0Owed",
          "type": "uint256"
        },
        {
          "internalType": "uint256",
          "name": "amount1Owed",
          "type": "uint256"
        },
        {
          "internalType": "bytes",
          "name": "data",
          "type": "bytes"
        }
      ],
      "name": "uniswapV3MintCallback",
      "outputs": [],
      "stateMutability": "nonpayable",
      "type": "function"
    },
    {
      "inputs": [
        {
          "internalType": "int256",
          "name": "amount0Delta",
          "type": "int256"
        },
        {
          "internalType": "int256",
          "name": "amount1Delta",
          "type": "int256"
        },
        {
          "internalType": "bytes",
          "name": "data",
          "type": "bytes"
        }
      ],
      "name": "uniswapV3SwapCallback",
      "outputs": [],
      "stateMutability": "nonpayable",
      "type": "function"
    },
    {
      "inputs": [
        {
          "internalType": "address",
          "name": "",
          "type": "address"
        },
        {
          "internalType": "uint256",
          "name": "",
          "type": "uint256"
        }
      ],
      "name": "userpositions",
      "outputs": [
        {
          "internalType": "uint256",
          "name": "",
          "type": "uint256"
        }
      ],
      "stateMutability": "view",
      "type": "function"
    }
  ],
  "bytecode": {
    "object": "0x60e06040523480156200001157600080fd5b5060405162005bcb38038062005bcb8339810160408190526200003491620001c8565b600080546001600160a01b0319166001600160a01b03831690811790915560408051630dfe168160e01b81529051630dfe1681916004808201926020929091908290030181865afa1580156200008e573d6000803e3d6000fd5b505050506040513d601f19601f82011682018060405250810190620000b49190620001c8565b60008054906101000a90046001600160a01b03166001600160a01b031663d21220a76040518163ffffffff1660e01b8152600401602060405180830381865afa15801562000106573d6000803e3d6000fd5b505050506040513d601f19601f820116820180604052508101906200012c9190620001c8565b6001600160a01b0390811660c05290811660a052600054604080516334324e9f60e21b81529051919092169163d0c93a7c9160048083019260209291908290030181865afa15801562000183573d6000803e3d6000fd5b505050506040513d601f19601f82011682018060405250810190620001a99190620001fa565b600290810b608052670de7d1b0f0f1000060045560019055506200021f565b600060208284031215620001db57600080fd5b81516001600160a01b0381168114620001f357600080fd5b9392505050565b6000602082840312156200020d57600080fd5b81518060020b8114620001f357600080fd5b60805160a05160c0516158aa62000321600039600081816104fd01528181611f85015281816125790152818161264a01528181612bd901528181612fbb0152818161326f015281816132e10152818161352f0152613ab20152600081816101980152818161201e015281816124f1015281816126e701528181612b45015281816133dc0152818161344e015281816135550152613a1b0152600081816104d6015281816107200152818161074e0152818161078c01528181610db001528181610e26015281816111fa0152818161125101528181611815015281816118a501528181611afa01528181611b8d01528181611bbd0152611bfb01526158aa6000f3fe608060405234801561001057600080fd5b506004361061018e5760003560e01c806392ddf23c116100de578063d0c93a7c11610097578063d3b5dc3b11610071578063d3b5dc3b14610532578063d8b83f3a14610541578063fa461e3314610569578063fb11e9691461057c57600080fd5b8063d0c93a7c146104d1578063d21220a7146104f8578063d34879971461051f57600080fd5b806392ddf23c14610456578063946e986c146104765780639aa886da14610498578063a9de6d6c146104a2578063affed0e0146104b5578063bc2704bf146104be57600080fd5b80633dc306ee1161014b578063514ea4bf11610125578063514ea4bf146102f757806354d771e6146103ff5780636ef83ef71461042057806380753d271461042957600080fd5b80633dc306ee146102625780633fdfb2aa1461028857806340f6ea54146102ab57600080fd5b80630dfe16811461019357806316f0115b146101d7578063207b0576146101ea57806333827438146101fd5780633adbb5af146102105780633c1624d414610230575b600080fd5b6101ba7f000000000000000000000000000000000000000000000000000000000000000081565b6040516001600160a01b0390911681526020015b60405180910390f35b6000546101ba906001600160a01b031681565b6101ba6101f83660046149ee565b61059c565b6001546101ba906001600160a01b031681565b61022361021e366004614a30565b61061e565b6040516101ce9190614b20565b61026061023e366004614b2f565b600180546001600160a01b0319166001600160a01b0392909216919091179055565b005b610275610270366004614b5b565b610718565b60405160029190910b81526020016101ce565b61029b610296366004614a30565b6107b9565b60405190151581526020016101ce565b6102be6102b9366004614b94565b6108c4565b604080516001600160a01b0395861681529490931660208501526001600160801b039091169183019190915260608201526080016101ce565b610389610305366004614bc9565b60036020819052600091825260409091208054600182015460028084015494840154600485015460058601546006909601549496939593949193909281810b926001600160801b0363010000008404169260ff600160981b8204169263ffffffff600160a01b8304811693600160c01b840490911692600160e01b9004820b910b8c565b604080519c8d5260208d019b909b52998b019890985260608a01969096526080890194909452600292830b60a08901526001600160801b0390911660c0880152151560e087015263ffffffff918216610100870152911661012085015290810b6101408401520b610160820152610180016101ce565b61041261040d366004614a30565b611aac565b6040519081526020016101ce565b61041260045481565b61043c610437366004614bf7565b611add565b6040805160029390930b83529015156020830152016101ce565b610469610464366004614b2f565b611c60565b6040516101ce9190614c72565b610489610484366004614c85565b611ccc565b6040516101ce93929190614cc6565b6104126201518081565b6104126104b0366004614d79565b612613565b61041260025481565b6104126104cc366004614a30565b6127da565b6102757f000000000000000000000000000000000000000000000000000000000000000081565b6101ba7f000000000000000000000000000000000000000000000000000000000000000081565b61026061052d366004614ea2565b612b1d565b610412670de0b6b3a764000081565b61055461054f366004614ef4565b612c5d565b604080519283526020830191909152016101ce565b610260610577366004614ea2565b6139e6565b61058f61058a366004614b2f565b613af0565b6040516101ce9190614f2c565b6000816105d757670de0b6b3a76400006105be6105b98583614f91565b613c14565b6105c89086614fa8565b6105d29190614ff0565b610614565b670de0b6b3a76400006106006105ee828087613cb8565b6105b990670de0b6b3a7640000614f91565b61060a9086614fa8565b6106149190614ff0565b90505b9392505050565b61062661485e565b60036000848460405160200161063d929190615016565b60408051601f19818403018152918152815160209283012083528282019390935290820160002082516101808101845281548152600182015492810192909252600280820154938301939093526003810154606083015260048101546080830152600581015480840b60a08401526001600160801b03630100000082041660c084015260ff600160981b820416151560e084015263ffffffff600160a01b82048116610100850152600160c01b820416610120840152600160e01b9004830b6101408301526006015490910b61016082015290505b92915050565b6000806107457f000000000000000000000000000000000000000000000000000000000000000085615038565b905082610787577f0000000000000000000000000000000000000000000000000000000000000000610778826001615072565b6107829190615097565b6107b1565b6107b17f000000000000000000000000000000000000000000000000000000000000000082615097565b949350505050565b6000806003600085856040516020016107d3929190615016565b60408051601f19818403018152918152815160209283012083528282019390935290820160002082516101808101845281548152600182015492810192909252600280820154938301939093526003810154606083015260048101546080830152600581015480840b60a08401526001600160801b03630100000082041660c084015260ff600160981b820416151560e084015263ffffffff600160a01b82048116610100850152600160c01b8204166101208401819052600160e01b909104840b61014084015260069091015490920b61016082015291506108ba9062015180906150be565b4211949350505050565b6000806000806108d26148c2565b670de0b6b3a7640000861161091f5760405162461bcd60e51b815260206004820152600e60248201526d77726f6e67206c6576657261676560901b60448201526064015b60405180910390fd5b60008054906101000a90046001600160a01b03166001600160a01b0316633850c7bd6040518163ffffffff1660e01b815260040160e060405180830381865afa158015610970573d6000803e3d6000fd5b505050506040513d601f19601f8201168201806040525081019061099491906150e3565b5050505060029190910b6080840152506001600160a01b031660608201819052610a1390896109e7576109d0670de0b6b3a7640000808a613cb8565b6109e290670de0b6b3a76400006150be565b610a0c565b6109fa670de0b6b3a7640000808a613cb8565b610a0c90670de0b6b3a764000061517b565b600061059c565b6001600160a01b031661018082019081526040805180820190915260088152676c6576657261676560c01b60208201529051610a5d91908890610a5590613d6a565b60020b61406f565b610a92610a778261018001516001600160a01b03166140bb565b610a8d83606001516001600160a01b03166140bb565b6140ec565b610ac5604051806040016040528060088152602001676c6576657261676560c01b81525087610a55846101800151613d6a565b610adf610a778261018001516001600160a01b03166140bb565b60008054906101000a90046001600160a01b03166001600160a01b0316631a6865026040518163ffffffff1660e01b8152600401602060405180830381865afa158015610b30573d6000803e3d6000fd5b505050506040513d601f19601f82011682018060405250810190610b54919061518e565b6001600160801b03166102a082018190526080820151610b75918a90611add565b5060020b6102008201819052610b8a90614136565b8160e001906001600160a01b031690816001600160a01b03168152505060006040518060c00160405280600060ff168152602001836102a001516001600160801b031681526020014263ffffffff168152602001600060060b815260200160006001600160a01b0316815260200160001515815250905060006040518060e001604052808a8152602001600081526020018460e001516001600160a01b0316815260200184610200015160020b81526020016000815260200160006001600160801b0316815260200183602001516001600160801b0316815250905060008060009054906101000a90046001600160a01b03166001600160a01b031663ddc96b4a83606001516040518263ffffffff1660e01b8152600401610cb5919060029190910b815260200190565b602060405180830381865afa158015610cd2573d6000803e3d6000fd5b505050506040513d601f19601f82011682018060405250810190610cf691906151ab565b600054606084015160405163c504ae6560e01b815260029190910b60048201529192506001600160a01b03169063c504ae6590602401602060405180830381865afa158015610d49573d6000803e3d6000fd5b505050506040513d601f19601f82011682018060405250810190610d6d91906151ab565b610d7790826151ce565b90508a15610d8b57610d8881615204565b90505b610d998260c0015182614459565b6001600160801b031660c0830152508915610e24577f0000000000000000000000000000000000000000000000000000000000000000610de7610de0856101800151613d6a565b6001610718565b610df7610de08660e00151613d6a565b610e01919061522a565b610e0b9190615038565b610e16906001615072565b60020b6101a0840152610e8f565b7f0000000000000000000000000000000000000000000000000000000000000000610e55610de08560e00151613d6a565b610e66610de0866101800151613d6a565b610e70919061522a565b610e7a9190615038565b610e85906002615072565b60020b6101a08401525b6000836101a001516001600160401b03811115610eae57610eae614ce8565b604051908082528060200260200182016040528015610f0057816020015b604080516080810182526000808252602080830182905292820181905260608201528252600019909201910181610ecc5790505b509050600160009054906101000a90046001600160a01b03166001600160a01b031663826054b882848e8861018001516040518563ffffffff1660e01b8152600401610f4f949392919061524f565b600060405180830381865afa158015610f6c573d6000803e3d6000fd5b505050506040513d6000823e601f3d908101601f19168201604052610f9491908101906153eb565b81519093509091506000908b908290610faf9060019061517b565b905060008190506000610fc486516002614519565b90505b858381518110610fd957610fd96154da565b60200260200101516040015185610ff091906150be565b945080610ffd848461517b565b6110089060016150be565b0361104e578385101561107c57858281518110611027576110276154da565b6020026020010151604001518561103e919061517b565b945061104b60018361517b565b91505b8215801561105b57508385105b1561106a57600019925061107c565b82611074816154f0565b935050610fc7565b8260001981146111885760005b600161109584876150be565b61109f919061517b565b82116110ea578782815181106110b7576110b76154da565b602002602001015160400151816110ce91906150be565b9050858110156110ea57816110e281615507565b925050611089565b506000815b85811061113b57888181518110611108576111086154da565b6020026020010151604001518261111f91906150be565b91508682101561113b5780611133816154f0565b9150506110ef565b945084805b83811161118457898181518110611159576111596154da565b6020026020010151604001516000036111725760001996505b8061117c81615507565b915050611140565b5050505b60001984036111ae576000806000809d509d509d509d5050505050505050505050611aa3565b866000815181106111c1576111c16154da565b60200260200101516000015160020b876001815181106111e3576111e36154da565b60200260200101516000015160020b121561124f577f000000000000000000000000000000000000000000000000000000000000000087858151811061122b5761122b6154da565b6020026020010151600001516112419190615072565b60020b6101c08b01526112a2565b7f0000000000000000000000000000000000000000000000000000000000000000878581518110611282576112826154da565b602002602001015160000151611298919061522a565b60020b6101c08b01525b8681815181106112b4576112b46154da565b60209081029190910101515160020b6101e08b0152836112d58260016150be565b6112df919061517b565b6102608b0181905260009081906001600160401b0381111561130357611303614ce8565b60405190808252806020026020018201604052801561132c578160200160208202803683370190505b5090506113556040518060400160405280600381526020016234963560e91b815250878561406f565b82861161146b5788868151811061136e5761136e6154da565b6020026020010151606001518c6102400181815161138c91906150be565b90525088518990879081106113a3576113a36154da565b6020026020010151602001516001600160801b03168183815181106113ca576113ca6154da565b60200260200101818152505061144c6040518060400160405280600e81526020016d7574696c2f6c697175696469747960901b8152508d6102400151838581518110611418576114186154da565b60200260200101518c8a81518110611432576114326154da565b6020026020010151602001516001600160801b0316614530565b6114576001836150be565b91508561146381615507565b965050611355565b6102e08c0152506102408a015115611498578961026001518a61024001516114939190615520565b61149b565b60005b8a6102400181815250505050505050506115016040518060400160405280601981526020017f626f72726f772073746172742066696e6973682c207574696c00000000000000815250856101c0015160020b866101e0015160020b876102400151614530565b8a6115305761152b611517856101c00151614136565b611525866101e00151614136565b8c61457f565b611555565b611555611541856101c00151614136565b61154f866101e00151614136565b8c6145f2565b6001600160801b031660a085018190526000546101c086015160405163657badc360e11b815260029190910b6004820152600f9290920b60248301528c1560448301526001600160a01b03169063caf75b8690606401600060405180830381600087803b1580156115c557600080fd5b505af11580156115d9573d6000803e3d6000fd5b50506000546101e087015160a088015160405163657badc360e11b815260029290920b6004830152600f0b60248201528e151560448201526001600160a01b03909116925063caf75b869150606401600060405180830381600087803b15801561164257600080fd5b505af1158015611656573d6000803e3d6000fd5b50506000546101c08701516101e088015160a089015160405163c9de624f60e01b8152600293840b60048201529190920b60248201526001600160801b0390911660448201528e151560648201526001600160a01b03909116925063c9de624f9150608401600060405180830381600087803b1580156116d557600080fd5b505af11580156116e9573d6000803e3d6000fd5b5050505061172560405180604001604052806009815260200168626f72726f776c697160b81b8152508560a001516001600160801b0316614628565b6000546101c08501516040516322e24ce960e01b815260029190910b60048201526001600160a01b03909116906322e24ce990602401600060405180830381600087803b15801561177557600080fd5b505af1158015611789573d6000803e3d6000fd5b50506000546101e08701516040516322e24ce960e01b815260029190910b60048201526001600160a01b0390911692506322e24ce99150602401600060405180830381600087803b1580156117dd57600080fd5b505af11580156117f1573d6000803e3d6000fd5b50506000546101c087015160405163b4718f9360e01b8152600291820b60048201527f000000000000000000000000000000000000000000000000000000000000000090910b60248201526001600160a01b03909116925063b4718f939150604401600060405180830381600087803b15801561186d57600080fd5b505af1158015611881573d6000803e3d6000fd5b50506000546101e087015160405163b4718f9360e01b8152600291820b60048201527f000000000000000000000000000000000000000000000000000000000000000090910b60248201526001600160a01b03909116925063b4718f939150604401600060405180830381600087803b1580156118fd57600080fd5b505af1158015611911573d6000803e3d6000fd5b5050600054604051631b195bbf60e21b81528e15156004820152602481018e90526001600160a01b039091169250636c656efc9150604401600060405180830381600087803b15801561196357600080fd5b505af1158015611977573d6000803e3d6000fd5b505060015460808701516101e08801516101c08901516001600160a01b0390931694506341c22c58935090916002916119af91615072565b6119b99190615038565b6102408801516040516001600160e01b031960e086901b168152600293840b60048201529190920b60248201528e1515604482015260648101919091526084016020604051808303816000875af1158015611a18573d6000803e3d6000fd5b505050506040513d601f19601f82011682018060405250810190611a3c9190615534565b84610280018181525050611a68846101c00151856101e001518661028001518d8f896102e00151612613565b6102808501526101e0840151611a7d90614136565b611a8b856101c00151614136565b8560a001518661028001519750975097509750505050505b93509350935093565b60056020528160005260406000208181548110611ac857600080fd5b90600052602060002001600091509150505481565b60008054604051633bcb373960e21b8152600286810b60048301527f0000000000000000000000000000000000000000000000000000000000000000900b602482015284151560448201528291829182916001600160a01b03169063ef2cdce4906064016040805180830381865afa158015611b5d573d6000803e3d6000fd5b505050506040513d601f19601f82011682018060405250810190611b81919061554d565b90925090506000611bb27f000000000000000000000000000000000000000000000000000000000000000089615038565b9050600087611bf6577f0000000000000000000000000000000000000000000000000000000000000000611be7836001615072565b611bf19190615097565b611c20565b611c207f000000000000000000000000000000000000000000000000000000000000000083615097565b90508060020b8460020b14611c4d576001600160801b03871615611c4d57945060019350611c5892505050565b509193506000925050505b935093915050565b6001600160a01b038116600090815260056020908152604091829020805483518184028101840190945280845260609392830182828015611cc057602002820191906000526020600020905b815481526020019060010190808311611cac575b50505050509050919050565b611cd461485e565b600080611cdf6148c2565b60008054906101000a90046001600160a01b03166001600160a01b0316633850c7bd6040518163ffffffff1660e01b815260040160e060405180830381865afa158015611d30573d6000803e3d6000fd5b505050506040513d601f19601f82011682018060405250810190611d5491906150e3565b5050505060029190910b6080840152506001600160a01b03166060820152611d9585876102b9670de0b6b3a76400008c611d8e81856150be565b9190613cb8565b6102808501526001600160801b031660a08401526001600160a01b0390811660e08401521660c08201819052600003611e3a57604080516101808101825260008082526020808301829052928201819052606082018190526080820181905260a0820181905260c0820181905260e082018190526101008201819052610120820181905261014082018190526101608201529082015191519094509092509050612609565b6002611e498260c001516140bb565b611e568360e001516140bb565b611e6091906150be565b611e6a9190615520565b8152600085611e9157611e8c8260e001518360c001518460a00151600161466d565b611eaa565b611eaa8260e001518360c001518460a0015160016146dd565b905085611ed757611ed2670de0b6b3a7640000611eca84606001516140bb565b839190613cb8565b611ef7565b611ef7611ee783606001516140bb565b8290670de0b6b3a7640000613cb8565b602083018181528891611f0b90839061517b565b9052506020820151611f2b90670de0b6b3a764000090611d8e8a826150be565b826040018181525050611f686040518060400160405280600d81526020016c747261646572206d696e70617960981b8152508a846020015161406f565b8515612007576040516323b872dd60e01b81526001600160a01b037f000000000000000000000000000000000000000000000000000000000000000016906323b872dd90611fbe90339030908e9060040161557c565b6020604051808303816000875af1158015611fdd573d6000803e3d6000fd5b505050506040513d601f19601f8201168201806040525081019061200191906155a0565b5061209c565b6040516323b872dd60e01b81526001600160a01b037f000000000000000000000000000000000000000000000000000000000000000016906323b872dd9061205790339030908e9060040161557c565b6020604051808303816000875af1158015612076573d6000803e3d6000fd5b505050506040513d601f19601f8201168201806040525081019061209a91906155a0565b505b604080513060208201526000910160408051601f198184030181529190526000549091506001600160a01b031663128acb083089156120db8c8f6150be565b6120eb88606001518f8e1561059c565b866040518663ffffffff1660e01b815260040161210c959493929190615603565b60408051808303816000875af115801561212a573d6000803e3d6000fd5b505050506040513d601f19601f8201168201806040525081019061214e919061563e565b6101408501526101208401526000805460408051633850c7bd60e01b815290516001600160a01b0390921691633850c7bd9160048082019260e0929091908290030181865afa1580156121a5573d6000803e3d6000fd5b505050506040513d601f19601f820116820180604052508101906121c991906150e3565b505050505050905061220960405180604001604052806007815260200166616d6f756e747360c81b81525085610120015161220390615662565b8561406f565b60006040518061018001604052808a6122305786610140015161222b90615662565b61223f565b86610120015161223f90615662565b81526020018581526020018b81526020018d81526020018661028001518152602001866080015160020b81526020018660a001516001600160801b031681526020018a151581526020014263ffffffff1681526020014263ffffffff1681526020016122ae8760e00151613d6a565b60020b81526020016122c38760c00151613d6a565b600290810b9091523360008181526005602090815260408083208554815460018101835591855283852090910155935493519495508594600394929361230d939092909101615016565b60408051808303601f19018152918152815160209283012083528282019390935290820160009081208451815591840151600183015591830151600280830191909155606084015160038301556080840151600483015560a084015160058301805460c087015160e08801516101008901516101208a01516101408b015162ffffff97881672ffffffffffffffffffffffffffffffffffffff199096169590951763010000006001600160801b03909516949094029390931764ffffffffff60981b1916600160981b9215159290920263ffffffff60a01b191691909117600160a01b63ffffffff928316021766ffffffffffffff60c01b1916600160c01b919092160262ffffff60e01b191617600160e01b91841691909102179055610160909401516006909201805462ffffff191692909416919091179092558154919061245683615507565b9190505550612493604051806040016040528060088152602001673837b9b4ba34b7b760c11b8152508260e001518360000151846020015161479d565b6124ac816040015182610100015163ffffffff166140ec565b60408051808201825260168152753130b630b731b29037b3103632bb1036b0b730b3b2b960511b602082015290516370a0823160e01b81523060048201526125f191907f00000000000000000000000000000000000000000000000000000000000000006001600160a01b0316906370a0823190602401602060405180830381865afa158015612540573d6000803e3d6000fd5b505050506040513d601f19601f820116820180604052508101906125649190615534565b6040516370a0823160e01b81523060048201527f00000000000000000000000000000000000000000000000000000000000000006001600160a01b0316906370a0823190602401602060405180830381865afa1580156125c8573d6000803e3d6000fd5b505050506040513d601f19601f820116820180604052508101906125ec9190615534565b61406f565b80856020015186610280015197509750975050505050505b9450945094915050565b60006126288585670de0b6b3a7640000613cb8565b905082156126cd576000546040516323b872dd60e01b81526001600160a01b037f00000000000000000000000000000000000000000000000000000000000000008116926323b872dd926126849233921690869060040161557c565b6020604051808303816000875af11580156126a3573d6000803e3d6000fd5b505050506040513d601f19601f820116820180604052508101906126c791906155a0565b50612766565b6000546040516323b872dd60e01b81526001600160a01b037f00000000000000000000000000000000000000000000000000000000000000008116926323b872dd926127219233921690869060040161557c565b6020604051808303816000875af1158015612740573d6000803e3d6000fd5b505050506040513d601f19601f8201168201806040525081019061276491906155a0565b505b600054604051630772d80760e51b81526001600160a01b039091169063ee5b00e09061279e908a908a90869088908a9060040161567e565b600060405180830381600087803b1580156127b857600080fd5b505af11580156127cc573d6000803e3d6000fd5b505050509695505050505050565b6000806003600085856040516020016127f4929190615016565b604051602081830303815290604052805190602001208152602001908152602001600020905060008060008054906101000a90046001600160a01b03166001600160a01b0316633850c7bd6040518163ffffffff1660e01b815260040160e060405180830381865afa15801561286e573d6000803e3d6000fd5b505050506040513d601f19601f8201168201806040525081019061289291906150e3565b505050505091509150600080600160009054906101000a90046001600160a01b03166001600160a01b031663b4dfbed1858560008054906101000a90046001600160a01b03166001600160a01b0316631a6865026040518163ffffffff1660e01b8152600401602060405180830381865afa158015612915573d6000803e3d6000fd5b505050506040513d601f19601f82011682018060405250810190612939919061518e565b60058a015460068b015460405160e087901b6001600160e01b03191681526001600160a01b039095166004860152600293840b60248601526001600160801b039092166044850152600160e01b9004820b6064840152900b608482015260a401600060405180830381865afa1580156129b6573d6000803e3d6000fd5b505050506040513d6000823e601f3d908101601f191682016040526129de91908101906156bd565b600154600688015460058901549395509193506000926001600160a01b03909116916341c22c58918791600291612a2091830b90600160e01b9004830b615072565b612a2a9190615038565b60058a015460405160e085901b6001600160e01b0319168152600293840b60048201529190920b6024820152600160981b90910460ff1615156044820152606481018690526084016020604051808303816000875af1158015612a91573d6000803e3d6000fd5b505050506040513d601f19601f82011682018060405250810190612ab59190615534565b600587015460068801546002808a0154939450612aee93600160e01b8404820b939290910b91859190600160981b900460ff1687612613565b50600595909501805463ffffffff60c01b1916600160c01b4263ffffffff160217905550929695505050505050565b6000612b2b82840184614b2f565b6040516323b872dd60e01b81529091506001600160a01b037f000000000000000000000000000000000000000000000000000000000000000016906323b872dd90612b7e90849033908a9060040161557c565b6020604051808303816000875af1158015612b9d573d6000803e3d6000fd5b505050506040513d601f19601f82011682018060405250810190612bc191906155a0565b506040516323b872dd60e01b81526001600160a01b037f000000000000000000000000000000000000000000000000000000000000000016906323b872dd90612c129084903390899060040161557c565b6020604051808303816000875af1158015612c31573d6000803e3d6000fd5b505050506040513d601f19601f82011682018060405250810190612c5591906155a0565b505050505050565b600080670de7d1b0f0f10000612c716148c2565b600360008789604051602001612c88929190615016565b60408051601f19818403018152918152815160209283012083528282019390935290820160009081208351610180810185528154815260018201549381019390935260028082015484860152600382015460608501526004808301546080860152600583015480830b60a08701526001600160801b03630100000082041660c087015260ff600160981b820416151560e08088019190915263ffffffff600160a01b83048116610100890152600160c01b830416610120880152600160e01b909104830b61014087015260069093015490910b6101608086019190915286019390935290548351633850c7bd60e01b815293516001600160a01b0390911693633850c7bd938181019392918290030181865afa158015612dac573d6000803e3d6000fd5b505050506040513d601f19601f82011682018060405250810190612dd091906150e3565b5050505060029190910b6080840152506001600160a01b031660608201526101608101516101400151612e1790612e0690614136565b8383610160015160e001511561059c565b6001600160a01b0316610100820190815260408051808201909152601a81527f736c697070616765207469636b2063757272656e74207469636b00000000000060208201529051612e7c9190612e6c90613d6a565b60020b836080015160020b61406f565b600081610160015160e00151612eb0578161010001516001600160a01b031682606001516001600160a01b03161115612ed0565b8161010001516001600160a01b031682606001516001600160a01b031610155b9050600082610160015160e00151612f1257612ef58361016001516101600151614136565b6001600160a01b031683606001516001600160a01b031611612f3e565b612f258361016001516101600151614136565b6001600160a01b031683606001516001600160a01b0316105b90508115613517576040805130602082015260009101604051602081830303815290604052905087600003612f71578497505b60408051808201825260148152733130b630b731b29030b732103837b9b4ba34b7b760611b60208201526101608601515191516370a0823160e01b815230600482015261305392907f00000000000000000000000000000000000000000000000000000000000000006001600160a01b0316906370a0823190602401602060405180830381865afa15801561300a573d6000803e3d6000fd5b505050506040513d601f19601f8201168201806040525081019061302e9190615534565b61304e61304989606001518e8b610160015160e0015161059c565b6140bb565b614530565b60005461016085015160e0810151905160608701516001600160a01b039093169263128acb089230929091613089908e8461059c565b866040518663ffffffff1660e01b81526004016130aa959493929190615603565b60408051808303816000875af11580156130c8573d6000803e3d6000fd5b505050506040513d601f19601f820116820180604052508101906130ec919061563e565b6101408601526101208501526000805460408051633850c7bd60e01b815290516001600160a01b0390921691633850c7bd9160048082019260e0929091908290030181865afa158015613143573d6000803e3d6000fd5b505050506040513d601f19601f8201168201806040525081019061316791906150e3565b505050505091505084610160015160e00151156131d757846101600151610140015160020b8160020b12156131d25760405162461bcd60e51b8152602060048201526011602482015270747261646520626f756e64206661696c3160781b6044820152606401610916565b61322b565b846101600151610140015160020b8160020b131561322b5760405162461bcd60e51b8152602060048201526011602482015270747261646520626f756e64206661696c3160781b6044820152606401610916565b84610160015160e00151156133a757600054610160860151604090810151905163a9059cbb60e01b81526001600160a01b03928316600482015260248101919091527f00000000000000000000000000000000000000000000000000000000000000009091169063a9059cbb906044016020604051808303816000875af11580156132ba573d6000803e3d6000fd5b505050506040513d601f19601f820116820180604052508101906132de91906155a0565b507f00000000000000000000000000000000000000000000000000000000000000006001600160a01b031663a9059cbb8b8761016001516040015188610140015161332890615662565b613332919061517b565b6040516001600160e01b031960e085901b1681526001600160a01b03909216600483015260248201526044016020604051808303816000875af115801561337d573d6000803e3d6000fd5b505050506040513d601f19601f820116820180604052508101906133a191906155a0565b50613510565b600054610160860151604090810151905163a9059cbb60e01b81526001600160a01b03928316600482015260248101919091527f00000000000000000000000000000000000000000000000000000000000000009091169063a9059cbb906044016020604051808303816000875af1158015613427573d6000803e3d6000fd5b505050506040513d601f19601f8201168201806040525081019061344b91906155a0565b507f00000000000000000000000000000000000000000000000000000000000000006001600160a01b031663a9059cbb8b8761016001516040015188610120015161349590615662565b61349f919061517b565b6040516001600160e01b031960e085901b1681526001600160a01b03909216600483015260248201526044016020604051808303816000875af11580156134ea573d6000803e3d6000fd5b505050506040513d601f19601f8201168201806040525081019061350e91906155a0565b505b50506136ce565b801561369257600083610160015160e00151613553577f0000000000000000000000000000000000000000000000000000000000000000613575565b7f00000000000000000000000000000000000000000000000000000000000000005b6000546101608601516020015160405163a9059cbb60e01b81526001600160a01b039283166004820152602481019190915291925082169063a9059cbb906044016020604051808303816000875af11580156135d5573d6000803e3d6000fd5b505050506040513d601f19601f820116820180604052508101906135f991906155a0565b50610160840151602081015190516001600160a01b0383169163a9059cbb918c916136239161517b565b6040516001600160e01b031960e085901b1681526001600160a01b03909216600483015260248201526044016020604051808303816000875af115801561366e573d6000803e3d6000fd5b505050506040513d601f19601f8201168201806040525081019061351091906155a0565b60405162461bcd60e51b81526020600482015260116024820152703a3930b232903137bab732103330b4b61960791b6044820152606401610916565b60005461016084015161014081015160c082015160e09092015160405163657badc360e11b815260029290920b6004830152600f9290920b602482015290151560448201526001600160a01b039091169063caf75b8690606401600060405180830381600087803b15801561374257600080fd5b505af1158015613756573d6000803e3d6000fd5b5050600054610160868101519081015160c082015160e09092015160405163657badc360e11b815260029290920b6004830152600f9290920b6024820152901560448201526001600160a01b03909116925063caf75b869150606401600060405180830381600087803b1580156137cc57600080fd5b505af11580156137e0573d6000803e3d6000fd5b5050505060036000338b6040516020016137fb929190615016565b60408051601f198184030181529181528151602092830120835282820193909352908201600090812081815560018101829055600281018290556003810182905560048101829055600580820180546001600160f81b03191690556006909101805462ffffff191690556001600160a01b038c168252825282812080548451818502810185019095528085529193929091908301828280156138bc57602002820191906000526020600020905b8154815260200190600101908083116138a8575b5050505050905060005b81518110156139c8578a8282815181106138e2576138e26154da565b6020026020010151036139b6576001600160a01b038a16600090815260056020526040902082516139159060019061517b565b81548110613925576139256154da565b9060005260206000200154600560008c6001600160a01b03166001600160a01b031681526020019081526020016000208281548110613966576139666154da565b60009182526020808320909101929092556001600160a01b038c16815260059091526040902080548061399b5761399b615759565b600190038181906000526020600020016000905590556139c8565b806139c081615507565b9150506138c6565b50836101200151846101400151965096505050505050935093915050565b60006139f482840184614b2f565b90506000851315613a965760405163a9059cbb60e01b8152336004820152602481018690527f00000000000000000000000000000000000000000000000000000000000000006001600160a01b03169063a9059cbb906044016020604051808303816000875af1158015613a6c573d6000803e3d6000fd5b505050506040513d601f19601f82011682018060405250810190613a9091906155a0565b50613ae9565b60405163a9059cbb60e01b8152336004820152602481018590527f00000000000000000000000000000000000000000000000000000000000000006001600160a01b03169063a9059cbb90604401612c12565b5050505050565b6001600160a01b0381166000908152600560209081526040808320805482518185028101850190935280835260609493830182828015613b4f57602002820191906000526020600020905b815481526020019060010190808311613b3b575b50505050509050600081516001600160401b03811115613b7157613b71614ce8565b604051908082528060200260200182016040528015613baa57816020015b613b9761485e565b815260200190600190039081613b8f5790505b50905060005b8251811015613c0c57613bdc85848381518110613bcf57613bcf6154da565b602002602001015161061e565b828281518110613bee57613bee6154da565b60200260200101819052508080613c0490615507565b915050613bb0565b509392505050565b60b581600160881b8110613c2d5760409190911b9060801c5b69010000000000000000008110613c495760209190911b9060401c5b650100000000008110613c615760109190911b9060201c5b63010000008110613c775760089190911b9060101c5b62010000010260121c80820401600190811c80830401811c80830401811c80830401811c80830401811c80830401811c80830401901c908190048111900390565b6000808060001985870985870292508281108382030391505080600003613cf15760008411613ce657600080fd5b508290049050610617565b808411613cfd57600080fd5b6000848688096000868103871696879004966002600389028118808a02820302808a02820302808a02820302808a02820302808a02820302808a02909103029181900381900460010186841190950394909402919094039290920491909117919091029150509392505050565b60006401000276a36001600160a01b03831610801590613da6575073fffd8963efd1fc6a506488495d951d5263988d266001600160a01b038316105b613dc3576040516324c070df60e11b815260040160405180910390fd5b640100000000600160c01b03602083901b166001600160801b03811160071b81811c6001600160401b03811160061b90811c63ffffffff811160051b90811c61ffff811160041b90811c60ff8111600390811b91821c600f811160021b90811c918211600190811b92831c97908811961790941790921717909117171760808110613e5657607f810383901c9150613e60565b80607f0383901b91505b908002607f81811c60ff83811c9190911c800280831c81831c1c800280841c81841c1c800280851c81851c1c800280861c81861c1c800280871c81871c1c800280881c81881c1c800280891c81891c1c8002808a1c818a1c1c8002808b1c818b1c1c8002808c1c818c1c1c8002808d1c818d1c1c8002808e1c9c81901c9c909c1c80029c8d901c9e9d607f198f0160401b60c09190911c678000000000000000161760c19b909b1c674000000000000000169a909a1760c29990991c672000000000000000169890981760c39790971c671000000000000000169690961760c49590951c670800000000000000169490941760c59390931c670400000000000000169290921760c69190911c670200000000000000161760c79190911c670100000000000000161760c89190911c6680000000000000161760c99190911c6640000000000000161760ca9190911c6620000000000000161760cb9190911c6610000000000000161760cc9190911c6608000000000000161760cd9190911c66040000000000001617693627a301d71055774c8581026f028f6481ab7f045a5af012a19d003aa9198101608090811d906fdb2df09e81959a81455e260799a0632f8301901d600281810b9083900b1461406057886001600160a01b031661404582614136565b6001600160a01b0316111561405a5781614062565b80614062565b815b9998505050505050505050565b6140b68383836040516024016140879392919061576f565b60408051601f198184030181529190526020810180516001600160e01b031663969cdd0360e01b1790526147e2565b505050565b600060c06140d26001600160a01b03841680614f91565b6140e490670de0b6b3a7640000614f91565b901c92915050565b60405160248101839052604481018290526141329060640160408051601f198184030181529190526020810180516001600160e01b031662d81ed360e71b1790526147e2565b5050565b60008060008360020b1261414d578260020b614155565b8260020b6000035b9050620d89e881111561417b576040516315e4079d60e11b815260040160405180910390fd5b60008160011660000361419257600160801b6141a4565b6ffffcb933bd6fad37aa2d162d1a5940015b70ffffffffffffffffffffffffffffffffff16905060028216156141d8576ffff97272373d413259a46990580e213a0260801c5b60048216156141f7576ffff2e50f5f656932ef12357cf3c7fdcc0260801c5b6008821615614216576fffe5caca7e10e4e61c3624eaa0941cd00260801c5b6010821615614235576fffcb9843d60f6159c9db58835c9266440260801c5b6020821615614254576fff973b41fa98c081472e6896dfb254c00260801c5b6040821615614273576fff2ea16466c96a3843ec78b326b528610260801c5b6080821615614292576ffe5dee046a99a2a811c461f1969c30530260801c5b6101008216156142b2576ffcbe86c7900a88aedcffc83b479aa3a40260801c5b6102008216156142d2576ff987a7253ac413176f2b074cf7815e540260801c5b6104008216156142f2576ff3392b0822b70005940c7a398e4b70f30260801c5b610800821615614312576fe7159475a2c29b7443b29c7fa6e889d90260801c5b611000821615614332576fd097f3bdfd2022b8845ad8f792aa58250260801c5b612000821615614352576fa9f746462d870fdf8a65dc1f90e061e50260801c5b614000821615614372576f70d869a156d2a1b890bb3df62baf32f70260801c5b618000821615614392576f31be135f97d08fd981231505542fcfa60260801c5b620100008216156143b3576f09aa508b5b7a84e1c677de54f3e99bc90260801c5b620200008216156143d3576e5d6af8dedb81196699c329225ee6040260801c5b620400008216156143f2576d2216e584f5fa1ea926041bedfe980260801c5b6208000082161561440f576b048a170391f7dc42444e8fa20260801c5b60008460020b131561443057806000198161442c5761442c614fda565b0490505b640100000000810615614444576001614447565b60005b60ff16602082901c0192505050919050565b60008082600f0b12156144c6576001600160801b03831661447983615204565b6144839085615794565b9150816001600160801b0316106144c15760405162461bcd60e51b81526020600482015260026024820152614c5360f01b6044820152606401610916565b610712565b6001600160801b0383166144da83856157b4565b9150816001600160801b031610156107125760405162461bcd60e51b81526020600482015260026024820152614c4160f01b6044820152606401610916565b6000818311156145295781610617565b5090919050565b6145798484848460405160240161454a94939291906157d4565b60408051601f198184030181529190526020810180516001600160e01b03166304772b3360e11b1790526147e2565b50505050565b6000826001600160a01b0316846001600160a01b0316111561459f579192915b60006145c2856001600160a01b0316856001600160a01b0316600160601b613cb8565b90506145e96145e484836145d68989615803565b6001600160a01b0316613cb8565b614803565b95945050505050565b6000826001600160a01b0316846001600160a01b03161115614612579192915b6106146145e483600160601b6145d68888615803565b614132828260405160240161463e929190615823565b60408051601f198184030181529190526020810180516001600160e01b03166309710a9d60e41b1790526147e2565b6000836001600160a01b0316856001600160a01b0316111561468d579293925b816146ba576146b5836001600160801b03168686036001600160a01b0316600160601b613cb8565b6145e9565b6145e9836001600160801b03168686036001600160a01b0316600160601b61481e565b6000836001600160a01b0316856001600160a01b031611156146fd579293925b6fffffffffffffffffffffffffffffffff60601b606084901b166001600160a01b03868603811690871661473057600080fd5b8361476657866001600160a01b03166147538383896001600160a01b0316613cb8565b8161476057614760614fda565b04614792565b61479261477d8383896001600160a01b031661481e565b886001600160a01b0316808204910615150190565b979650505050505050565b614579848484846040516024016147b79493929190615845565b60408051601f198184030181529190526020810180516001600160e01b0316630bb7fe0760e31b1790525b80516a636f6e736f6c652e6c6f67602083016000808483855afa5050505050565b806001600160801b038116811461481957600080fd5b919050565b600061482b848484613cb8565b90506000828061483d5761483d614fda565b848609111561061757600019811061485457600080fd5b6001019392505050565b6040805161018081018252600080825260208201819052918101829052606081018290526080810182905260a0810182905260c0810182905260e0810182905261010081018290526101208101829052610140810182905261016081019190915290565b60405180610300016040528060008152602001600081526020016000815260200160006001600160a01b03168152602001600060020b815260200160006001600160801b0316815260200160006001600160a01b0316815260200160006001600160a01b0316815260200160006001600160a01b03168152602001600081526020016000815260200161495361485e565b815260200160006001600160a01b0316815260200160008152602001600060020b8152602001600060020b8152602001600060020b81526020016000815260200160008152602001600081526020016000815260200160006001600160801b0316815260200160608152602001606081525090565b6001600160a01b03811681146149dd57600080fd5b50565b80151581146149dd57600080fd5b600080600060608486031215614a0357600080fd5b8335614a0e816149c8565b9250602084013591506040840135614a25816149e0565b809150509250925092565b60008060408385031215614a4357600080fd5b8235614a4e816149c8565b946020939093013593505050565b805182526020810151602083015260408101516040830152606081015160608301526080810151608083015260a0810151614a9c60a084018260020b9052565b5060c0810151614ab760c08401826001600160801b03169052565b5060e0810151614acb60e084018215159052565b506101008181015163ffffffff81168483015250506101208181015163ffffffff811684830152505061014080820151614b098285018260020b9052565b5050610160808201516145798285018260020b9052565b61018081016107128284614a5c565b600060208284031215614b4157600080fd5b8135610617816149c8565b8060020b81146149dd57600080fd5b60008060408385031215614b6e57600080fd5b8235614b7981614b4c565b91506020830135614b89816149e0565b809150509250929050565b600080600060608486031215614ba957600080fd5b8335614bb4816149e0565b95602085013595506040909401359392505050565b600060208284031215614bdb57600080fd5b5035919050565b6001600160801b03811681146149dd57600080fd5b600080600060608486031215614c0c57600080fd5b8335614c1781614b4c565b92506020840135614c27816149e0565b91506040840135614a2581614be2565b600081518084526020808501945080840160005b83811015614c6757815187529582019590820190600101614c4b565b509495945050505050565b6020815260006106176020830184614c37565b60008060008060808587031215614c9b57600080fd5b8435935060208501359250604085013591506060850135614cbb816149e0565b939692955090935050565b6101c08101614cd58286614a5c565b6101808201939093526101a00152919050565b634e487b7160e01b600052604160045260246000fd5b604051608081016001600160401b0381118282101715614d2057614d20614ce8565b60405290565b604051601f8201601f191681016001600160401b0381118282101715614d4e57614d4e614ce8565b604052919050565b60006001600160401b03821115614d6f57614d6f614ce8565b5060051b60200190565b60008060008060008060c08789031215614d9257600080fd5b8635614d9d81614b4c565b9550602087810135614dae81614b4c565b955060408801359450606088013593506080880135614dcc816149e0565b925060a08801356001600160401b03811115614de757600080fd5b8801601f81018a13614df857600080fd5b8035614e0b614e0682614d56565b614d26565b81815260059190911b8201830190838101908c831115614e2a57600080fd5b928401925b82841015614e4857833582529284019290840190614e2f565b80955050505050509295509295509295565b60008083601f840112614e6c57600080fd5b5081356001600160401b03811115614e8357600080fd5b602083019150836020828501011115614e9b57600080fd5b9250929050565b60008060008060608587031215614eb857600080fd5b843593506020850135925060408501356001600160401b03811115614edc57600080fd5b614ee887828801614e5a565b95989497509550505050565b600080600060608486031215614f0957600080fd5b833592506020840135614f1b816149c8565b929592945050506040919091013590565b6020808252825182820181905260009190848201906040850190845b81811015614f6f57614f5b838551614a5c565b928401926101809290920191600101614f48565b50909695505050505050565b634e487b7160e01b600052601160045260246000fd5b808202811582820484141761071257610712614f7b565b6001600160a01b03828116828216818102831692918115828504821417614fd157614fd1614f7b565b50505092915050565b634e487b7160e01b600052601260045260246000fd5b60006001600160a01b038381168061500a5761500a614fda565b92169190910492915050565b60609290921b6bffffffffffffffffffffffff19168252601482015260340190565b60008160020b8360020b8061504f5761504f614fda565b627fffff1982146000198214161561506957615069614f7b565b90059392505050565b600281810b9083900b01627fffff8113627fffff198212171561071257610712614f7b565b60008260020b8260020b028060020b91508082146150b7576150b7614f7b565b5092915050565b8082018082111561071257610712614f7b565b805161ffff8116811461481957600080fd5b600080600080600080600060e0888a0312156150fe57600080fd5b8751615109816149c8565b602089015190975061511a81614b4c565b9550615128604089016150d1565b9450615136606089016150d1565b9350615144608089016150d1565b925060a088015160ff8116811461515a57600080fd5b60c089015190925061516b816149e0565b8091505092959891949750929550565b8181038181111561071257610712614f7b565b6000602082840312156151a057600080fd5b815161061781614be2565b6000602082840312156151bd57600080fd5b815180600f0b811461061757600080fd5b600f82810b9082900b036f7fffffffffffffffffffffffffffffff19811260016001607f1b038213171561071257610712614f7b565b600081600f0b60016001607f1b0319810361522157615221614f7b565b60000392915050565b600282810b9082900b03627fffff198112627fffff8213171561071257610712614f7b565b6101408082528551908201819052600090610160830190602090818901845b828110156152b6578151805160020b8652848101516001600160801b03168587015260408082015190870152606090810151908601526080909401939083019060010161526e565b50505081925061531f8185018880518252602080820151908301526040808201516001600160a01b03169083015260608082015160020b908301526080808201519083015260a0808201516001600160801b039081169184019190915260c09182015116910152565b50508315156101008301526001600160a01b03831661012083015295945050505050565b600060e0828403121561535557600080fd5b60405160e081018181106001600160401b038211171561537757615377614ce8565b80604052508091508251815260208301516020820152604083015161539b816149c8565b604082015260608301516153ae81614b4c565b60608201526080838101519082015260a08301516153cb81614be2565b60a082015260c08301516153de81614be2565b60c0919091015292915050565b60008061010083850312156153ff57600080fd5b82516001600160401b0381111561541557600080fd5b8301601f8101851361542657600080fd5b80516020615436614e0683614d56565b82815260079290921b8301810191818101908884111561545557600080fd5b938201935b838510156154be576080858a0312156154735760008081fd5b61547b614cfe565b855161548681614b4c565b81528584015161549581614be2565b81850152604086810151908201526060808701519082015282526080909401939082019061545a565b95506154ce905087878301615343565b93505050509250929050565b634e487b7160e01b600052603260045260246000fd5b6000816154ff576154ff614f7b565b506000190190565b60006001820161551957615519614f7b565b5060010190565b60008261552f5761552f614fda565b500490565b60006020828403121561554657600080fd5b5051919050565b6000806040838503121561556057600080fd5b825161556b81614b4c565b6020840151909250614b89816149e0565b6001600160a01b039384168152919092166020820152604081019190915260600190565b6000602082840312156155b257600080fd5b8151610617816149e0565b6000815180845260005b818110156155e3576020818501810151868301820152016155c7565b506000602082860101526020601f19601f83011685010191505092915050565b6001600160a01b0386811682528515156020830152604082018590528316606082015260a060808201819052600090614792908301846155bd565b6000806040838503121561565157600080fd5b505080516020909101519092909150565b6000600160ff1b820161567757615677614f7b565b5060000390565b8560020b81528460020b602082015283604082015260a0606082015260006156a960a0830185614c37565b905082151560808301529695505050505050565b600080604083850312156156d057600080fd5b825191506020808401516001600160401b038111156156ee57600080fd5b8401601f810186136156ff57600080fd5b805161570d614e0682614d56565b81815260059190911b8201830190838101908883111561572c57600080fd5b928401925b8284101561574a57835182529284019290840190615731565b80955050505050509250929050565b634e487b7160e01b600052603160045260246000fd5b60608152600061578260608301866155bd565b60208301949094525060400152919050565b6001600160801b038281168282160390808211156150b7576150b7614f7b565b6001600160801b038181168382160190808211156150b7576150b7614f7b565b6080815260006157e760808301876155bd565b6020830195909552506040810192909252606090910152919050565b6001600160a01b038281168282160390808211156150b7576150b7614f7b565b60408152600061583660408301856155bd565b90508260208301529392505050565b60808152600061585860808301876155bd565b941515602083015250604081019290925260609091015291905056fea2646970667358221220922eb70772edf1ef6f13b3b414102d15ed39ca8cc2309c4560f485e9ce92fab064736f6c63430008110033",
    "linkReferences": {}
  },
  "methodIdentifiers": {
    "INTEREST_REPLENISH_TIME()": "9aa886da",
    "applySlippageX96(uint160,uint256,bool)": "207b0576",
    "borrow(bool,int256,uint256)": "40f6ea54",
    "closeMaxSlippage()": "6ef83ef7",
    "closePosition(uint256,address,uint256)": "d8b83f3a",
    "createLevPosition(uint256,uint256,uint256,bool)": "946e986c",
    "getAllPositions(address)": "fb11e969",
    "getNextTick(int24,bool,uint128)": "80753d27",
    "getPosition(address,uint256)": "3adbb5af",
    "getUserTokenIds(address)": "92ddf23c",
    "isLiquidatable(address,uint256)": "3fdfb2aa",
    "liquidityManager()": "33827438",
    "nonce()": "affed0e0",
    "payPremium(address,uint256)": "bc2704bf",
    "payPremiumToPool(int24,int24,uint256,uint256,bool,uint256[])": "a9de6d6c",
    "pool()": "16f0115b",
    "positions(bytes32)": "514ea4bf",
    "precision()": "d3b5dc3b",
    "roundTick(int24,bool)": "3dc306ee",
    "setLiquidityManager(address)": "3c1624d4",
    "tickSpacing()": "d0c93a7c",
    "token0()": "0dfe1681",
    "token1()": "d21220a7",
    "uniswapV3MintCallback(uint256,uint256,bytes)": "d3487997",
    "uniswapV3SwapCallback(int256,int256,bytes)": "fa461e33",
    "userpositions(address,uint256)": "54d771e6"
  },
  "id": 23
}