{
  "abi": [
    {
      "inputs": [],
      "stateMutability": "nonpayable",
      "type": "constructor"
    },
    {
      "inputs": [],
      "name": "T",
      "type": "error"
    },
    {
      "inputs": [],
      "name": "INTEREST_REPLENISH_TIME",
      "outputs": [
        {
          "internalType": "uint256",
          "name": "",
          "type": "uint256"
        }
      ],
      "stateMutability": "view",
      "type": "function"
    },
    {
      "inputs": [
        {
          "internalType": "uint256",
          "name": "traderFund",
          "type": "uint256"
        },
        {
          "internalType": "uint256",
          "name": "maxSlippage",
          "type": "uint256"
        },
        {
          "internalType": "uint256",
          "name": "borrowAmount",
          "type": "uint256"
        },
        {
          "internalType": "bool",
          "name": "isToken0",
          "type": "bool"
        }
      ],
      "name": "addPosition",
      "outputs": [
        {
          "components": [
            {
              "internalType": "address",
              "name": "pool",
              "type": "address"
            },
            {
              "internalType": "uint256",
              "name": "totalPosition",
              "type": "uint256"
            },
            {
              "internalType": "uint256",
              "name": "totalDebt",
              "type": "uint256"
            },
            {
              "internalType": "uint256",
              "name": "totalDebtInput",
              "type": "uint256"
            },
            {
              "internalType": "uint256",
              "name": "initCollateral",
              "type": "uint256"
            },
            {
              "internalType": "uint256",
              "name": "creationPrice",
              "type": "uint256"
            },
            {
              "internalType": "uint128",
              "name": "recentPremium",
              "type": "uint128"
            },
            {
              "internalType": "uint128",
              "name": "totalPremium",
              "type": "uint128"
            },
            {
              "internalType": "uint128",
              "name": "unusedPremium",
              "type": "uint128"
            },
            {
              "internalType": "bool",
              "name": "isToken0",
              "type": "bool"
            },
            {
              "internalType": "uint32",
              "name": "openTime",
              "type": "uint32"
            },
            {
              "internalType": "uint32",
              "name": "repayTime",
              "type": "uint32"
            },
            {
              "components": [
                {
                  "internalType": "int24",
                  "name": "tick",
                  "type": "int24"
                },
                {
                  "internalType": "uint128",
                  "name": "liquidity",
                  "type": "uint128"
                },
                {
                  "internalType": "uint256",
                  "name": "premiumOrUrate",
                  "type": "uint256"
                }
              ],
              "internalType": "struct LiquidityManager.Liquidity[]",
              "name": "borrowInfo",
              "type": "tuple[]"
            }
          ],
          "internalType": "struct GlobalStorage.Position",
          "name": "",
          "type": "tuple"
        },
        {
          "internalType": "uint256",
          "name": "",
          "type": "uint256"
        },
        {
          "internalType": "uint256",
          "name": "",
          "type": "uint256"
        }
      ],
      "stateMutability": "nonpayable",
      "type": "function"
    },
    {
      "inputs": [
        {
          "internalType": "uint256",
          "name": "traderFund",
          "type": "uint256"
        },
        {
          "internalType": "uint256",
          "name": "maxSlippage",
          "type": "uint256"
        },
        {
          "internalType": "uint256",
          "name": "borrowAmount",
          "type": "uint256"
        },
        {
          "internalType": "bool",
          "name": "isToken0",
          "type": "bool"
        },
        {
          "components": [
            {
              "internalType": "int24",
              "name": "tick",
              "type": "int24"
            },
            {
              "internalType": "uint128",
              "name": "liquidity",
              "type": "uint128"
            },
            {
              "internalType": "uint256",
              "name": "premiumOrUrate",
              "type": "uint256"
            }
          ],
          "internalType": "struct LiquidityManager.Liquidity[]",
          "name": "borrowInfo",
          "type": "tuple[]"
        }
      ],
      "name": "addPositionSpecfied",
      "outputs": [
        {
          "components": [
            {
              "internalType": "address",
              "name": "pool",
              "type": "address"
            },
            {
              "internalType": "uint256",
              "name": "totalPosition",
              "type": "uint256"
            },
            {
              "internalType": "uint256",
              "name": "totalDebt",
              "type": "uint256"
            },
            {
              "internalType": "uint256",
              "name": "totalDebtInput",
              "type": "uint256"
            },
            {
              "internalType": "uint256",
              "name": "initCollateral",
              "type": "uint256"
            },
            {
              "internalType": "uint256",
              "name": "creationPrice",
              "type": "uint256"
            },
            {
              "internalType": "uint128",
              "name": "recentPremium",
              "type": "uint128"
            },
            {
              "internalType": "uint128",
              "name": "totalPremium",
              "type": "uint128"
            },
            {
              "internalType": "uint128",
              "name": "unusedPremium",
              "type": "uint128"
            },
            {
              "internalType": "bool",
              "name": "isToken0",
              "type": "bool"
            },
            {
              "internalType": "uint32",
              "name": "openTime",
              "type": "uint32"
            },
            {
              "internalType": "uint32",
              "name": "repayTime",
              "type": "uint32"
            },
            {
              "components": [
                {
                  "internalType": "int24",
                  "name": "tick",
                  "type": "int24"
                },
                {
                  "internalType": "uint128",
                  "name": "liquidity",
                  "type": "uint128"
                },
                {
                  "internalType": "uint256",
                  "name": "premiumOrUrate",
                  "type": "uint256"
                }
              ],
              "internalType": "struct LiquidityManager.Liquidity[]",
              "name": "borrowInfo",
              "type": "tuple[]"
            }
          ],
          "internalType": "struct GlobalStorage.Position",
          "name": "",
          "type": "tuple"
        },
        {
          "internalType": "uint256",
          "name": "",
          "type": "uint256"
        },
        {
          "internalType": "uint256",
          "name": "",
          "type": "uint256"
        }
      ],
      "stateMutability": "nonpayable",
      "type": "function"
    },
    {
      "inputs": [
        {
          "internalType": "uint160",
          "name": "price",
          "type": "uint160"
        },
        {
          "internalType": "uint256",
          "name": "maxSlippage",
          "type": "uint256"
        },
        {
          "internalType": "bool",
          "name": "down",
          "type": "bool"
        }
      ],
      "name": "applySlippageX96",
      "outputs": [
        {
          "internalType": "uint160",
          "name": "",
          "type": "uint160"
        }
      ],
      "stateMutability": "pure",
      "type": "function"
    },
    {
      "inputs": [
        {
          "internalType": "bool",
          "name": "borrowBelow",
          "type": "bool"
        },
        {
          "internalType": "uint256",
          "name": "amountSpecified",
          "type": "uint256"
        },
        {
          "internalType": "uint256",
          "name": "leverage",
          "type": "uint256"
        }
      ],
      "name": "borrow",
      "outputs": [
        {
          "internalType": "int24",
          "name": "",
          "type": "int24"
        },
        {
          "internalType": "int24",
          "name": "",
          "type": "int24"
        },
        {
          "components": [
            {
              "internalType": "int24",
              "name": "tick",
              "type": "int24"
            },
            {
              "internalType": "uint128",
              "name": "liquidity",
              "type": "uint128"
            },
            {
              "internalType": "uint256",
              "name": "premiumOrUrate",
              "type": "uint256"
            }
          ],
          "internalType": "struct LiquidityManager.Liquidity[]",
          "name": "",
          "type": "tuple[]"
        },
        {
          "internalType": "uint256",
          "name": "",
          "type": "uint256"
        }
      ],
      "stateMutability": "nonpayable",
      "type": "function"
    },
    {
      "inputs": [],
      "name": "closeMaxSlippage",
      "outputs": [
        {
          "internalType": "uint256",
          "name": "",
          "type": "uint256"
        }
      ],
      "stateMutability": "view",
      "type": "function"
    },
    {
      "inputs": [
        {
          "internalType": "address",
          "name": "trader",
          "type": "address"
        },
        {
          "internalType": "bool",
          "name": "isToken0",
          "type": "bool"
        },
        {
          "internalType": "uint256",
          "name": "userSpecifiedSlippage",
          "type": "uint256"
        }
      ],
      "name": "closePosition",
      "outputs": [
        {
          "components": [
            {
              "internalType": "int256",
              "name": "amount0",
              "type": "int256"
            },
            {
              "internalType": "int256",
              "name": "amount1",
              "type": "int256"
            },
            {
              "internalType": "int256",
              "name": "PnL",
              "type": "int256"
            },
            {
              "internalType": "uint256",
              "name": "returnedAmount",
              "type": "uint256"
            },
            {
              "internalType": "uint256",
              "name": "unusedPremium",
              "type": "uint256"
            },
            {
              "internalType": "uint256",
              "name": "premium",
              "type": "uint256"
            }
          ],
          "internalType": "struct ReduceReturn",
          "name": "",
          "type": "tuple"
        }
      ],
      "stateMutability": "nonpayable",
      "type": "function"
    },
    {
      "inputs": [
        {
          "components": [
            {
              "internalType": "int24",
              "name": "tick",
              "type": "int24"
            },
            {
              "internalType": "uint128",
              "name": "liquidity",
              "type": "uint128"
            },
            {
              "internalType": "uint256",
              "name": "premiumOrUrate",
              "type": "uint256"
            }
          ],
          "internalType": "struct LiquidityManager.Liquidity[]",
          "name": "borrowInfo",
          "type": "tuple[]"
        },
        {
          "internalType": "bool",
          "name": "borrowBelow",
          "type": "bool"
        }
      ],
      "name": "getFilledAmount",
      "outputs": [
        {
          "internalType": "uint256",
          "name": "filledAmount",
          "type": "uint256"
        }
      ],
      "stateMutability": "view",
      "type": "function"
    },
    {
      "inputs": [],
      "name": "getNewPremiumQuote",
      "outputs": [
        {
          "internalType": "uint256",
          "name": "",
          "type": "uint256"
        }
      ],
      "stateMutability": "view",
      "type": "function"
    },
    {
      "inputs": [],
      "name": "globalStorage",
      "outputs": [
        {
          "internalType": "contract GlobalStorage",
          "name": "",
          "type": "address"
        }
      ],
      "stateMutability": "view",
      "type": "function"
    },
    {
      "inputs": [],
      "name": "liquidityManager",
      "outputs": [
        {
          "internalType": "contract LiquidityManager",
          "name": "",
          "type": "address"
        }
      ],
      "stateMutability": "view",
      "type": "function"
    },
    {
      "inputs": [],
      "name": "nonce",
      "outputs": [
        {
          "internalType": "uint256",
          "name": "",
          "type": "uint256"
        }
      ],
      "stateMutability": "view",
      "type": "function"
    },
    {
      "inputs": [],
      "name": "pool",
      "outputs": [
        {
          "internalType": "contract UniswapV3Pool",
          "name": "",
          "type": "address"
        }
      ],
      "stateMutability": "view",
      "type": "function"
    },
    {
      "inputs": [],
      "name": "precision",
      "outputs": [
        {
          "internalType": "uint256",
          "name": "",
          "type": "uint256"
        }
      ],
      "stateMutability": "view",
      "type": "function"
    },
    {
      "inputs": [
        {
          "internalType": "bool",
          "name": "isToken0",
          "type": "bool"
        },
        {
          "internalType": "uint256",
          "name": "userSpecifiedSlippage",
          "type": "uint256"
        },
        {
          "internalType": "uint256",
          "name": "reduceAmount",
          "type": "uint256"
        }
      ],
      "name": "reducePosition",
      "outputs": [
        {
          "components": [
            {
              "internalType": "int256",
              "name": "amount0",
              "type": "int256"
            },
            {
              "internalType": "int256",
              "name": "amount1",
              "type": "int256"
            },
            {
              "internalType": "int256",
              "name": "PnL",
              "type": "int256"
            },
            {
              "internalType": "uint256",
              "name": "returnedAmount",
              "type": "uint256"
            },
            {
              "internalType": "uint256",
              "name": "unusedPremium",
              "type": "uint256"
            },
            {
              "internalType": "uint256",
              "name": "premium",
              "type": "uint256"
            }
          ],
          "internalType": "struct ReduceReturn",
          "name": "",
          "type": "tuple"
        }
      ],
      "stateMutability": "nonpayable",
      "type": "function"
    },
    {
      "inputs": [
        {
          "internalType": "int24",
          "name": "tick",
          "type": "int24"
        },
        {
          "internalType": "bool",
          "name": "down",
          "type": "bool"
        }
      ],
      "name": "roundTick",
      "outputs": [
        {
          "internalType": "int24",
          "name": "",
          "type": "int24"
        }
      ],
      "stateMutability": "view",
      "type": "function"
    },
    {
      "inputs": [
        {
          "internalType": "address",
          "name": "ad",
          "type": "address"
        }
      ],
      "name": "setLiquidityManager",
      "outputs": [],
      "stateMutability": "nonpayable",
      "type": "function"
    },
    {
      "inputs": [],
      "name": "tickSpacing",
      "outputs": [
        {
          "internalType": "int24",
          "name": "",
          "type": "int24"
        }
      ],
      "stateMutability": "view",
      "type": "function"
    },
    {
      "inputs": [],
      "name": "token0",
      "outputs": [
        {
          "internalType": "contract ERC20",
          "name": "",
          "type": "address"
        }
      ],
      "stateMutability": "view",
      "type": "function"
    },
    {
      "inputs": [],
      "name": "token1",
      "outputs": [
        {
          "internalType": "contract ERC20",
          "name": "",
          "type": "address"
        }
      ],
      "stateMutability": "view",
      "type": "function"
    },
    {
      "inputs": [
        {
          "internalType": "int256",
          "name": "amount0Delta",
          "type": "int256"
        },
        {
          "internalType": "int256",
          "name": "amount1Delta",
          "type": "int256"
        },
        {
          "internalType": "bytes",
          "name": "data",
          "type": "bytes"
        }
      ],
      "name": "uniswapV3SwapCallback",
      "outputs": [],
      "stateMutability": "nonpayable",
      "type": "function"
    }
  ],
  "bytecode": {
    "object": "0x60e06040523480156200001157600080fd5b50600080336001600160a01b031663890357306040518163ffffffff1660e01b81526004016040805180830381865afa15801562000053573d6000803e3d6000fd5b505050506040513d601f19601f8201168201806040525081019062000079919062000240565b600080546001600160a01b038085166001600160a01b03199283168117909355600280549185169190921617905560408051630dfe168160e01b8152905193955091935091630dfe1681916004808201926020929091908290030181865afa158015620000ea573d6000803e3d6000fd5b505050506040513d601f19601f8201168201806040525081019062000110919062000278565b60008054906101000a90046001600160a01b03166001600160a01b031663d21220a76040518163ffffffff1660e01b8152600401602060405180830381865afa15801562000162573d6000803e3d6000fd5b505050506040513d601f19601f8201168201806040525081019062000188919062000278565b6001600160a01b0390811660c05290811660a052600054604080516334324e9f60e21b81529051919092169163d0c93a7c9160048083019260209291908290030181865afa158015620001df573d6000803e3d6000fd5b505050506040513d601f19601f820116820180604052508101906200020591906200029d565b60020b6080525050670de7d1b0f0f1000060035560018055620002c2565b80516001600160a01b03811681146200023b57600080fd5b919050565b600080604083850312156200025457600080fd5b6200025f8362000223565b91506200026f6020840162000223565b90509250929050565b6000602082840312156200028b57600080fd5b620002968262000223565b9392505050565b600060208284031215620002b057600080fd5b81518060020b81146200029657600080fd5b60805160a05160c05161573c620003ee6000396000818161034d01528181610c2d01528181610e510152818161219f015281816122690152818161257701528181612f420152818161308801528181613e5001528181613ee4015281816141e5015261428401526000818161017f01528181610b9601528181610eeb015281816123ae015281816124780152818161259d01528181612d2201528181612fef01528181613f3201528181613fc60152614328015260008181610326015281816107f9015281816108270152818161086501528181610904015281816109a301528181611c2301528181611ca601528181611d1a01528181611f7d01528181612763015281816127ed0152818161290c015281816129f40152818161444b0152614498015261573c6000f3fe608060405234801561001057600080fd5b50600436106101375760003560e01c80636502072a116100b8578063affed0e01161007c578063affed0e014610318578063d0c93a7c14610321578063d21220a714610348578063d3b5dc3b1461036f578063deff1bdc1461037e578063fa461e331461039157600080fd5b80636502072a146102805780636ef83ef714610293578063786afbcc1461029c5780637ea9843b146102af5780639aa886da1461030e57600080fd5b806325350f8e116100ff57806325350f8e146101df57806333827438146102025780633c1624d4146102155780633cd7bca7146102475780633dc306ee1461025a57600080fd5b806308abb6d31461013c5780630d3401ee146101585780630dfe16811461017a57806316f0115b146101b9578063207b0576146101cc575b600080fd5b66071afd498d00005b6040519081526020015b60405180910390f35b61016b610166366004614a63565b6103a4565b60405161014f93929190614c10565b6101a17f000000000000000000000000000000000000000000000000000000000000000081565b6040516001600160a01b03909116815260200161014f565b6000546101a1906001600160a01b031681565b6101a16101da366004614c4a565b6103fb565b6101f26101ed366004614c8c565b610484565b60405161014f9493929190614cc1565b6004546101a1906001600160a01b031681565b610245610223366004614cf7565b600480546001600160a01b0319166001600160a01b0392909216919091179055565b005b61016b610255366004614d14565b610763565b61026d610268366004614d55565b6107f1565b60405160029190910b815260200161014f565b6002546101a1906001600160a01b031681565b61014560035481565b6101456102aa366004614d8e565b610894565b6102c26102bd366004614dd4565b610a1f565b60405161014f9190600060c082019050825182526020830151602083015260408301516040830152606083015160608301526080830151608083015260a083015160a083015292915050565b6101456201518081565b61014560015481565b61026d7f000000000000000000000000000000000000000000000000000000000000000081565b6101a17f000000000000000000000000000000000000000000000000000000000000000081565b610145670de0b6b3a764000081565b6102c261038c366004614c8c565b610acb565b61024561039f366004614e15565b610b66565b6103ac614733565b6000806103ea6040518060a001604052808a81526020018981526020018881526020018715158152602001336001600160a01b031681525085610cb0565b925092509250955095509592505050565b60008161043d5761041c61041784670de0b6b3a7640000614eaa565b61150f565b61042e670de0b6b3a764000086614ed7565b6104389190614efd565b61047a565b670de0b6b3a76400006104666104548280876115b3565b61041790670de0b6b3a7640000614eaa565b6104709086614efd565b61047a9190614ed7565b90505b9392505050565b60008060606000670de0b6b3a764000085116104d35760405162461bcd60e51b81526020600482015260096024820152683bb937b733903632bb60b91b60448201526064015b60405180910390fd5b6104db6147cd565b60008054906101000a90046001600160a01b03166001600160a01b0316633850c7bd6040518163ffffffff1660e01b815260040160e060405180830381865afa15801561052c573d6000803e3d6000fd5b505050506040513d601f19601f820116820180604052508101906105509190614f51565b5050505060029190910b60a0840152506001600160a01b0316608082018190526105cf90896105a35761058c670de0b6b3a7640000808a6115b3565b61059e90670de0b6b3a7640000614fe9565b6105c8565b6105b6670de0b6b3a7640000808a6115b3565b6105c890670de0b6b3a7640000614ffc565b60006103fb565b6001600160a01b0316610180820181905261061190896105f757670ddd2935029d8000610601565b670de444324c2a80005b6001600160401b031660006103fb565b6001600160a01b03908116610180830181905260048054608085015160405163053ef28b60e01b81528d15159381019390935260248301939093529183166044820152606481018a905291169063053ef28b90608401600060405180830381865afa158015610684573d6000803e3d6000fd5b505050506040513d6000823e601f3d908101601f191682016040526106ac91908101906150b3565b61026085018190526101e0850191909152600291820b6101c085015291900b6101a0830152600054604051637c61444d60e01b81526001600160a01b0390911691637c61444d9161070791908c906001908d90600401615120565b600060405180830381600087803b15801561072157600080fd5b505af1158015610735573d6000803e3d6000fd5b50505050806101c00151816101a00151826102600151836101e0015194509450945094505093509350935093565b61076b614733565b6040805160a08101825286815260208082018790528183018690528415156060830152336080830152825160008082529181019093529182916107e191836107db565b60408051606081018252600080825260208083018290529282015282526000199092019101816107ae5790505b50610cb0565b9250925092509450945094915050565b60008061081e7f00000000000000000000000000000000000000000000000000000000000000008561514f565b905082610860577f0000000000000000000000000000000000000000000000000000000000000000610851826001615189565b61085b91906151ae565b61088a565b61088a7f0000000000000000000000000000000000000000000000000000000000000000826151ae565b9150505b92915050565b6000805b8351811015610a18578381815181106108b3576108b36151ce565b6020026020010151602001516001600160801b031660000315610a06578215610986576109756108ff8583815181106108ee576108ee6151ce565b602002602001015160000151611665565b6109507f0000000000000000000000000000000000000000000000000000000000000000878581518110610935576109356151ce565b60200260200101516000015161094b9190615189565b611665565b868481518110610962576109626151ce565b6020026020010151602001516001611988565b61097f9083614fe9565b9150610a06565b6109f961099e8583815181106108ee576108ee6151ce565b6109d47f0000000000000000000000000000000000000000000000000000000000000000878581518110610935576109356151ce565b8684815181106109e6576109e66151ce565b6020026020010151602001516001611a3f565b610a039083614fe9565b91505b80610a10816151e4565b915050610898565b5092915050565b610a27614899565b610a2f6147cd565b60025460405163750ff6b560e01b81526001600160a01b039091169063750ff6b590610a63903090899089906004016151fd565b600060405180830381865afa158015610a80573d6000803e3d6000fd5b505050506040513d6000823e601f3d908101601f19168201604052610aa89190810190615240565b610160820181905260200151610ac2908690859084611aaf565b95945050505050565b610ad3614899565b610adb6147cd565b60025460405163750ff6b560e01b81526001600160a01b039091169063750ff6b590610b0f90309033908a906004016151fd565b600060405180830381865afa158015610b2c573d6000803e3d6000fd5b505050506040513d6000823e601f3d908101601f19168201604052610b549190810190615240565b610160820152610ac233858584611aaf565b6000610b7482840184614cf7565b90506000851315610c165760405163a9059cbb60e01b81526001600160a01b037f0000000000000000000000000000000000000000000000000000000000000000169063a9059cbb90610bcd903390899060040161535e565b6020604051808303816000875af1158015610bec573d6000803e3d6000fd5b505050506040513d601f19601f82011682018060405250810190610c109190615377565b50610ca9565b60405163a9059cbb60e01b81526001600160a01b037f0000000000000000000000000000000000000000000000000000000000000000169063a9059cbb90610c64903390889060040161535e565b6020604051808303816000875af1158015610c83573d6000803e3d6000fd5b505050506040513d601f19601f82011682018060405250810190610ca79190615377565b505b5050505050565b610cb8614733565b600080610cc36147cd565b6002546080870151606088015160405163750ff6b560e01b81526000936001600160a01b03169263750ff6b592610d0092309291906004016151fd565b600060405180830381865afa158015610d1d573d6000803e3d6000fd5b505050506040513d6000823e601f3d908101601f19168201604052610d459190810190615240565b61014081015190915063ffffffff1615610da05786606001511515816101200151151514610da05760405162461bcd60e51b81526020600482015260086024820152676469666620706f7360c01b60448201526064016104ca565b8551600003610dfd57606087015160408801518851610dda9291906101ed90670de0b6b3a764000090610dd38185614fe9565b91906115b3565b6101e0860152610260850152600290810b6101a08501520b6101c0830152610e19565b610e1087606001518860400151886134d8565b61026082018690525b610e2c8261026001518860600151610894565b8252606087015115610ed25786516040516323b872dd60e01b81526001600160a01b037f000000000000000000000000000000000000000000000000000000000000000016916323b872dd91610e89913391309190600401615394565b6020604051808303816000875af1158015610ea8573d6000803e3d6000fd5b505050506040513d601f19601f82011682018060405250810190610ecc9190615377565b50610f68565b86516040516323b872dd60e01b81526001600160a01b037f000000000000000000000000000000000000000000000000000000000000000016916323b872dd91610f23913391309190600401615394565b6020604051808303816000875af1158015610f42573d6000803e3d6000fd5b505050506040513d601f19601f82011682018060405250810190610f669190615377565b505b60008054906101000a90046001600160a01b03166001600160a01b0316633850c7bd6040518163ffffffff1660e01b815260040160e060405180830381865afa158015610fb9573d6000803e3d6000fd5b505050506040513d601f19601f82011682018060405250810190610fdd9190614f51565b5050505060029190910b60a0850152506001600160a01b039081166080840152600054606089015160408a01518a51929093169263128acb08923092159161102491614fe9565b61103c87608001518d602001518e60600151156103fb565b60408051306020820152016040516020818303038152906040526040518663ffffffff1660e01b81526004016110769594939291906153fe565b60408051808303816000875af1158015611094573d6000803e3d6000fd5b505050506040513d601f19601f820116820180604052508101906110b89190615439565b61010084015260e0830152606087015180156110e15750815160e08301516110df9061545d565b105b8061110757508660600151158015611107575081516101008301516111059061545d565b105b1561113d5760405162461bcd60e51b81526004016104ca90602080825260049082015263216c697160e01b604082015260600190565b61016081015163ffffffff161561116d57600060e082015261115e81613692565b6001600160801b031660408301525b86606001511561119e578160e001516111859061545d565b816020018181516111969190614fe9565b9052506111c2565b8161010001516111ad9061545d565b816020018181516111be9190614fe9565b9052505b81516040820180516111d5908390614fe9565b90525060408701516060820180516111ee908390614fe9565b9052508651608082018051611204908390614fe9565b9052506060870151151561012082015263ffffffff4281166101608301526101408201511660000361123e5763ffffffff42166101408201525b61018081015151156113035761026082015161018082015161125f916136ef565b61026083015260608701516112835761127c826102600151613c27565b6102608301525b60048054610260840151604051635b664e4f60e11b81526001600160a01b039092169263b6cc9c9e926112b7929101615479565b600060405180830381865afa1580156112d4573d6000803e3d6000fd5b505050506040513d6000823e601f3d908101601f191682016040526112fc919081019061548c565b6102608301525b610260820151610180820152600254600054608089015160608a015160405163ebfa2b1960e01b81526001600160a01b039485169463ebfa2b199461134f9491169290916004016151fd565b6020604051808303816000875af115801561136e573d6000803e3d6000fd5b505050506040513d601f19601f8201168201806040525081019061139291906154c0565b5060025460408051608080820183528a01516001600160a01b0390811682526060808c01511515602084015260005482168385015282018590529151632007dab760e21b8152919092169163801f6adc916113f091906004016154d9565b6000604051808303816000875af115801561140f573d6000803e3d6000fd5b505050506040513d6000823e601f3d908101601f191682016040526114379190810190615240565b6004805461026085015160a08601516040516308e05f8b60e11b81529495506001600160a01b03909216936311c0bf1693611473939101615520565b602060405180830381865afa158015611490573d6000803e3d6000fd5b505050506040513d601f19601f820116820180604052508101906114b491906154c0565b61020083015260608101516114d990670de0b6b3a764000066071afd498d0000610dd3565b6102008301819052608088015160408401516114f6928491613d0c565b6040820151610200909201519097919650945092505050565b60b581600160881b81106115285760409190911b9060801c5b690100000000000000000081106115445760209190911b9060401c5b65010000000000811061155c5760109190911b9060201c5b630100000081106115725760089190911b9060101c5b62010000010260121c80820401600190811c80830401811c80830401811c80830401811c80830401811c80830401811c80830401901c908190048111900390565b60008080600019858709858702925082811083820303915050806000036115ec57600084116115e157600080fd5b50829004905061047d565b8084116115f857600080fd5b6000848688096000868103871696879004966002600389028118808a02820302808a02820302808a02820302808a02820302808a02820302808a02909103029181900381900460010186841190950394909402919094039290920491909117919091029150509392505050565b60008060008360020b1261167c578260020b611684565b8260020b6000035b9050620d89e88111156116aa576040516315e4079d60e11b815260040160405180910390fd5b6000816001166000036116c157600160801b6116d3565b6ffffcb933bd6fad37aa2d162d1a5940015b70ffffffffffffffffffffffffffffffffff1690506002821615611707576ffff97272373d413259a46990580e213a0260801c5b6004821615611726576ffff2e50f5f656932ef12357cf3c7fdcc0260801c5b6008821615611745576fffe5caca7e10e4e61c3624eaa0941cd00260801c5b6010821615611764576fffcb9843d60f6159c9db58835c9266440260801c5b6020821615611783576fff973b41fa98c081472e6896dfb254c00260801c5b60408216156117a2576fff2ea16466c96a3843ec78b326b528610260801c5b60808216156117c1576ffe5dee046a99a2a811c461f1969c30530260801c5b6101008216156117e1576ffcbe86c7900a88aedcffc83b479aa3a40260801c5b610200821615611801576ff987a7253ac413176f2b074cf7815e540260801c5b610400821615611821576ff3392b0822b70005940c7a398e4b70f30260801c5b610800821615611841576fe7159475a2c29b7443b29c7fa6e889d90260801c5b611000821615611861576fd097f3bdfd2022b8845ad8f792aa58250260801c5b612000821615611881576fa9f746462d870fdf8a65dc1f90e061e50260801c5b6140008216156118a1576f70d869a156d2a1b890bb3df62baf32f70260801c5b6180008216156118c1576f31be135f97d08fd981231505542fcfa60260801c5b620100008216156118e2576f09aa508b5b7a84e1c677de54f3e99bc90260801c5b62020000821615611902576e5d6af8dedb81196699c329225ee6040260801c5b62040000821615611921576d2216e584f5fa1ea926041bedfe980260801c5b6208000082161561193e576b048a170391f7dc42444e8fa20260801c5b60008460020b131561195f57806000198161195b5761195b614ec1565b0490505b640100000000810615611973576001611976565b60005b60ff16602082901c0192505050919050565b6000836001600160a01b0316856001600160a01b031611156119a8579293925b600160601b600160e01b03606084901b166001600160a01b0386860381169087166119d257600080fd5b83611a0857866001600160a01b03166119f58383896001600160a01b03166115b3565b81611a0257611a02614ec1565b04611a34565b611a34611a1f8383896001600160a01b0316613ffd565b886001600160a01b0316808204910615150190565b979650505050505050565b6000836001600160a01b0316856001600160a01b03161115611a5f579293925b81611a8c57611a87836001600160801b03168686036001600160a01b0316600160601b6115b3565b610ac2565b610ac2836001600160801b03168686036001600160a01b0316600160601b613ffd565b611ab7614899565b600082610160015160200151118015611ad95750816101600151602001518311155b611b0b5760405162461bcd60e51b8152602060048201526003602482015262706f7360e81b60448201526064016104ca565b60008054906101000a90046001600160a01b03166001600160a01b0316633850c7bd6040518163ffffffff1660e01b815260040160e060405180830381865afa158015611b5c573d6000803e3d6000fd5b505050506040513d601f19601f82011682018060405250810190611b809190614f51565b5050505060029190910b60a0850152506001600160a01b03166080830152610160820151610180810151516060840152611bb990613692565b6101608301516001600160801b039091166101009091015260045460ff600160a01b90910416611c7357611c6e8261016001516101200151611c2157826101600151610180015160018460600151611c119190614ffc565b815181106108ee576108ee6151ce565b7f0000000000000000000000000000000000000000000000000000000000000000836101600151610180015160018560600151611c5e9190614ffc565b81518110610935576109356151ce565b611cfb565b611cfb611ce18361016001516101200151611ca457836101600151610180015160018560600151611c119190614ffc565b7f0000000000000000000000000000000000000000000000000000000000000000846101600151610180015160018660600151611c5e9190614ffc565b670de444324c2a80008461016001516101200151156103fb565b6001600160a01b031660c08301526101608201516101200151611d71577f00000000000000000000000000000000000000000000000000000000000000008261016001516101800151600081518110611d5657611d566151ce565b602002602001015160000151611d6c9190615189565b611d9b565b8161016001516101800151600081518110611d8e57611d8e6151ce565b6020026020010151600001515b60020b6101a083015261016082015160200151611dc3908490670de0b6b3a7640000906115b3565b60208301526101608201516101200151611dfa578160c001516001600160a01b031682608001516001600160a01b03161115611e19565b8160c001516001600160a01b031682608001516001600160a01b031610155b156124fe57600054610160830151610120015160808401516001600160a01b039092169163128acb089130918790611e52908a846103fb565b60408051306020820152016040516020818303038152906040526040518663ffffffff1660e01b8152600401611e8c9594939291906153fe565b60408051808303816000875af1158015611eaa573d6000803e3d6000fd5b505050506040513d601f19601f82011682018060405250810190611ece9190615439565b61010084015260e0830152600454600160a01b900460ff16156120a35760008060009054906101000a90046001600160a01b03166001600160a01b0316633850c7bd6040518163ffffffff1660e01b815260040160e060405180830381865afa158015611f3f573d6000803e3d6000fd5b505050506040513d601f19601f82011682018060405250810190611f639190614f51565b505050505091505082610160015161012001511561202c577f0000000000000000000000000000000000000000000000000000000000000000836101600151610180015160018560600151611fb89190614ffc565b81518110611fc857611fc86151ce565b602002602001015160000151611fde9190615189565b60020b8160020b12156120275760405162461bcd60e51b8152602060048201526011602482015270747261646520626f756e64206661696c3160781b60448201526064016104ca565b6120a1565b8261016001516101800151600184606001516120489190614ffc565b81518110612058576120586151ce565b60200260200101516000015160020b8160020b13156120a15760405162461bcd60e51b81526020600482015260056024820152646661696c3160d81b60448201526064016104ca565b505b6020820151610160830151606001516000916120c89190670de0b6b3a76400006115b3565b90508261016001516101200151156122ed578083610160015161010001516001600160801b03168461010001516120fe9061545d565b6121089190614fe9565b10156121265760405162461bcd60e51b81526004016104ca90615545565b8261010001516121359061545d565b8110612166576101008084015161016085015190910180519183016001600160801b0392831603909116905261224f565b808361010001516121769061545d565b6121809190615563565b610120840181905260405163a9059cbb60e01b81526001600160a01b037f0000000000000000000000000000000000000000000000000000000000000000169163a9059cbb916121d4918a9160040161535e565b6020604051808303816000875af11580156121f3573d6000803e3d6000fd5b505050506040513d601f19601f820116820180604052508101906122179190615377565b5060208301516101608401516080015161223991670de0b6b3a76400006115b3565b836101200181815161224b9190615563565b9052505b60005460405163a9059cbb60e01b81526001600160a01b037f000000000000000000000000000000000000000000000000000000000000000081169263a9059cbb926122a4929190911690859060040161535e565b6020604051808303816000875af11580156122c3573d6000803e3d6000fd5b505050506040513d601f19601f820116820180604052508101906122e79190615377565b506124f8565b8083610160015161010001516001600160801b03168460e001516123109061545d565b61231a9190614fe9565b10156123385760405162461bcd60e51b81526004016104ca90615545565b8260e001516123469061545d565b81106123765760e08301516101608401516101000180519183016001600160801b0392831603909116905261245e565b808360e001516123859061545d565b61238f9190615563565b610120840181905260405163a9059cbb60e01b81526001600160a01b037f0000000000000000000000000000000000000000000000000000000000000000169163a9059cbb916123e3918a9160040161535e565b6020604051808303816000875af1158015612402573d6000803e3d6000fd5b505050506040513d601f19601f820116820180604052508101906124269190615377565b5060208301516101608401516080015161244891670de0b6b3a76400006115b3565b836101200181815161245a9190615563565b9052505b60005460405163a9059cbb60e01b81526001600160a01b037f000000000000000000000000000000000000000000000000000000000000000081169263a9059cbb926124b3929190911690859060040161535e565b6020604051808303816000875af11580156124d2573d6000803e3d6000fd5b505050506040513d601f19601f820116820180604052508101906124f69190615377565b505b5061310a565b81610160015161012001516125385761251b826101a00151611665565b6001600160a01b031682608001516001600160a01b03161161255f565b612546826101a00151611665565b6001600160a01b031682608001516001600160a01b0316105b15612704576000826101600151610120015161259b577f00000000000000000000000000000000000000000000000000000000000000006125bd565b7f00000000000000000000000000000000000000000000000000000000000000005b6020840151610160850151604001519192506000916125e491670de0b6b3a76400006115b3565b9050836101600151608001516125f99061545d565b6101208501526126098186614ffc565b61014085015260005460405163a9059cbb60e01b81526001600160a01b038481169263a9059cbb926126439290911690859060040161535e565b6020604051808303816000875af1158015612662573d6000803e3d6000fd5b505050506040513d601f19601f820116820180604052508101906126869190615377565b5061014084015160405163a9059cbb60e01b81526001600160a01b0384169163a9059cbb916126b9918b9160040161535e565b6020604051808303816000875af11580156126d8573d6000803e3d6000fd5b505050506040513d601f19601f820116820180604052508101906126fc9190615377565b50505061310a565b60008060005b846101600151610180015151811015612a80578460a0015160020b85610160015161018001518281518110612741576127416151ce565b60200260200101516000015160020b131580156127b957508460a0015160020b7f00000000000000000000000000000000000000000000000000000000000000008661016001516101800151838151811061279e5761279e6151ce565b6020026020010151600001516127b49190615189565b60020b135b156128a25760008061287e87608001516127e8896101600151610180015186815181106108ee576108ee6151ce565b6128287f00000000000000000000000000000000000000000000000000000000000000008b610160015161018001518881518110610935576109356151ce565b6128798b60200151670de0b6b3a76400008d610160015161018001518a81518110612855576128556151ce565b6020026020010151602001516001600160801b03166115b39092919063ffffffff16565b61403d565b909250905061288d8286614fe9565b94506128998185614fe9565b93505050612a6e565b6128b18560a0015160016107f1565b60020b856101600151610180015182815181106128d0576128d06151ce565b60200260200101516000015160020b121561298a57612979612907866101600151610180015183815181106108ee576108ee6151ce565b6129477f000000000000000000000000000000000000000000000000000000000000000088610160015161018001518581518110610935576109356151ce565b6129748860200151670de0b6b3a76400008a610160015161018001518781518110612855576128556151ce565b6140d9565b6129839083614fe9565b9150612a6e565b6129998560a0015160006107f1565b60020b856101600151610180015182815181106129b8576129b86151ce565b60200260200101516000015160020b1315612a6e57612a616129ef866101600151610180015183815181106108ee576108ee6151ce565b612a2f7f000000000000000000000000000000000000000000000000000000000000000088610160015161018001518581518110610935576109356151ce565b612a5c8860200151670de0b6b3a76400008a610160015161018001518781518110612855576128556151ce565b614123565b612a6b9084614fe9565b92505b80612a78816151e4565b91505061270a565b5060005461016085015161012001516001600160a01b039091169063128acb0890309080612ab657612ab18661545d565b612abf565b612abf8561545d565b612ad889608001518c8b610160015161012001516103fb565b60408051306020820152016040516020818303038152906040526040518663ffffffff1660e01b8152600401612b129594939291906153fe565b60408051808303816000875af1158015612b30573d6000803e3d6000fd5b505050506040513d601f19601f82011682018060405250810190612b549190615439565b61010086015260e0850152610160840151610120015115612da05760e0840151612b7e9086614ffc565b821115612ce8576000612ba18560800151888761016001516101200151156103fb565b905060008060008054906101000a90046001600160a01b03166001600160a01b031663128acb08308961016001516101200151158a60e001518c612be59190614ffc565b612bef908a614ffc565b612bf89061545d565b604080513060208201528991016040516020818303038152906040526040518663ffffffff1660e01b8152600401612c349594939291906153fe565b60408051808303816000875af1158015612c52573d6000803e3d6000fd5b505050506040513d601f19601f82011682018060405250810190612c769190615439565b915091508087610160015161010001516001600160801b03161015612cad5760405162461bcd60e51b81526004016104ca90615545565b610160870180516101000180516001600160801b039081168490031690525160800151612cd99061545d565b61012088015250612fbc915050565b818460e0015186612cf99190614ffc565b612d039190614ffc565b610140850181905260405163a9059cbb60e01b81526001600160a01b037f0000000000000000000000000000000000000000000000000000000000000000169163a9059cbb91612d57918b9160040161535e565b6020604051808303816000875af1158015612d76573d6000803e3d6000fd5b505050506040513d601f19601f82011682018060405250810190612d9a9190615377565b50612fbc565b610100840151612db09086614ffc565b811115612f07576000612dd38560800151888761016001516101200151156103fb565b905060008060008054906101000a90046001600160a01b03166001600160a01b031663128acb08308961016001516101200151158a61010001518c612e189190614ffc565b612e229089614ffc565b612e2b9061545d565b604080513060208201528991016040516020818303038152906040526040518663ffffffff1660e01b8152600401612e679594939291906153fe565b60408051808303816000875af1158015612e85573d6000803e3d6000fd5b505050506040513d601f19601f82011682018060405250810190612ea99190615439565b915091508187610160015161010001516001600160801b03161015612ee05760405162461bcd60e51b81526004016104ca90615545565b506101608601516101000180516001600160801b0390811692909203909116905250612fbc565b8084610100015186612f199190614ffc565b612f239190614ffc565b610140850181905260405163a9059cbb60e01b81526001600160a01b037f0000000000000000000000000000000000000000000000000000000000000000169163a9059cbb91612f77918b9160040161535e565b6020604051808303816000875af1158015612f96573d6000803e3d6000fd5b505050506040513d601f19601f82011682018060405250810190612fba9190615377565b505b83610160015160800151612fcf9061545d565b61012085015260005460405163a9059cbb60e01b81526001600160a01b037f000000000000000000000000000000000000000000000000000000000000000081169263a9059cbb9261302a929190911690869060040161535e565b6020604051808303816000875af1158015613049573d6000803e3d6000fd5b505050506040513d601f19601f8201168201806040525081019061306d9190615377565b5060005460405163a9059cbb60e01b81526001600160a01b037f000000000000000000000000000000000000000000000000000000000000000081169263a9059cbb926130c3929190911690859060040161535e565b6020604051808303816000875af11580156130e2573d6000803e3d6000fd5b505050506040513d601f19601f820116820180604052508101906131069190615377565b5050505b6000546101608301516101800151602084015160405163e9f4fcf360e01b81526001600160a01b039093169263e9f4fcf39261314a929091600401615583565b600060405180830381600087803b15801561316457600080fd5b505af1158015613178573d6000803e3d6000fd5b5050505061318a82610160015161418d565b6101608201516101008101516001600160801b03166040840152602001518310156134155761016082018051600060e0909101819052815161010001819052815160c001525160200180518491906131e3908390614ffc565b90525061016082015161012081015161018090910151602084015161321b92919061321690670de0b6b3a7640000614ffc565b614382565b6101608401805160608082019390935260409081019390935260025483516080810185526001600160a01b038a811682528351610120015115156020830152600054811682870152925193810193909352925163646e3c4b60e11b815292169163c8dc78969161328d916004016154d9565b600060405180830381600087803b1580156132a757600080fd5b505af11580156132bb573d6000803e3d6000fd5b5050600480546101608601516101800151604051635b664e4f60e11b81526001600160a01b03909216945063b6cc9c9e93506132f992909101615479565b600060405180830381865afa158015613316573d6000803e3d6000fd5b505050506040513d6000823e601f3d908101601f1916820160405261333e919081019061548c565b61016083018051610180908101929092526004805491519092015160a08501516040516308e05f8b60e11b81526001600160a01b03909316936311c0bf169361338993929101615520565b602060405180830381865afa1580156133a6573d6000803e3d6000fd5b505050506040513d601f19601f820116820180604052508101906133ca91906154c0565b610200830152610160820151606001516133f490670de0b6b3a764000066071afd498d0000610dd3565b6102008301819052610160830151613410918791906000613d0c565b61348a565b6002546000546101608401516101200151604051634472fbfd60e01b81526001600160a01b0393841693634472fbfd93613457939116918a91906004016151fd565b600060405180830381600087803b15801561347157600080fd5b505af1158015613485573d6000803e3d6000fd5b505050505b506040805160c08101825260e08301518152610100830151602082015261012083015181830152610140830151606082015290820151608082015261020082015160a0820152949350505050565b6134e3818415610894565b82146135175760405162461bcd60e51b8152602060048201526003602482015262696e6360e81b60448201526064016104ca565b60048054604051631542428b60e31b815260009283926001600160a01b03169163aa1214589161354991879101615479565b600060405180830381865afa158015613566573d6000803e3d6000fd5b505050506040513d6000823e601f3d908101601f1916820160405261358e91908101906155a5565b91509150816135c85760405162461bcd60e51b81526004016104ca90602080825260049082015263216c697160e01b604082015260600190565b60005b8151811015613621578181815181106135e6576135e66151ce565b6020026020010151848281518110613600576136006151ce565b60209081029190910101516040015280613619816151e4565b9150506135cb565b50600054604051637c61444d60e01b81526001600160a01b0390911690637c61444d9061365990869089906001908a90600401615120565b600060405180830381600087803b15801561367357600080fd5b505af1158015613687573d6000803e3d6000fd5b505050505050505050565b6000806136dc6136bf670de0b6b3a76400006201518086610160015163ffffffff1642610dd39190614ffc565b60c08501516001600160801b031690670de0b6b3a76400006115b3565b90508083610100015161047d919061564c565b815181516060919060006137038284614fe9565b90506000816001600160401b0381111561371f5761371f6148e0565b60405190808252806020026020018201604052801561376a57816020015b604080516060810182526000808252602080830182905292820152825260001990920191018161373d5790505b50905060008060005b868310801561378157508582105b1561398057888281518110613798576137986151ce565b60200260200101516000015160020b8a84815181106137b9576137b96151ce565b60200260200101516000015160020b1215613818578983815181106137e0576137e06151ce565b60200260200101518482815181106137fa576137fa6151ce565b60200260200101819052508280613810906151e4565b93505061396e565b88828151811061382a5761382a6151ce565b60200260200101516000015160020b8a848151811061384b5761384b6151ce565b60200260200101516000015160020b13156138aa57888281518110613872576138726151ce565b602002602001015184828151811061388c5761388c6151ce565b602002602001018190525081806138a2906151e4565b92505061396e565b60405180606001604052808b85815181106138c7576138c76151ce565b60200260200101516000015160020b81526020018a84815181106138ed576138ed6151ce565b6020026020010151602001518c868151811061390b5761390b6151ce565b602002602001015160200151613921919061566c565b6001600160801b031681526020016000815250848281518110613946576139466151ce565b6020026020010181905250828061395c906151e4565b935050818061396a906151e4565b9250505b80613978816151e4565b915050613773565b868310156139e05789838151811061399a5761399a6151ce565b60200260200101518482815181106139b4576139b46151ce565b602002602001018190525082806139ca906151e4565b93505080806139d8906151e4565b915050613980565b85821015613a40578882815181106139fa576139fa6151ce565b6020026020010151848281518110613a1457613a146151ce565b60200260200101819052508180613a2a906151e4565b9250508080613a38906151e4565b9150506139e0565b60008093505b85841015613b7a576000613a5b856001614fe9565b93505b86841015613b1c57858481518110613a7857613a786151ce565b60200260200101516000015160020b868681518110613a9957613a996151ce565b60200260200101516000015160020b03613b0a5760019050858481518110613ac357613ac36151ce565b602002602001015160200151868681518110613ae157613ae16151ce565b6020026020010151602001818151613af9919061566c565b6001600160801b0316905250613b1c565b83613b14816151e4565b945050613a5e565b80613b6757858581518110613b3357613b336151ce565b6020026020010151868381518110613b4d57613b4d6151ce565b60200260200101819052508180613b63906151e4565b9250505b5083613b72816151e4565b945050613a46565b808552613b93856000613b8e600185614ffc565b614524565b6002811115613c1857600093505b613bac600182614ffc565b841015613c075784613bbf856001614fe9565b81518110613bcf57613bcf6151ce565b6020026020010151858581518110613be957613be96151ce565b60200260200101819052508380613bff906151e4565b945050613ba1565b80613c118161568c565b9150508085525b50929998505050505050505050565b80516060906000816001600160401b03811115613c4657613c466148e0565b604051908082528060200260200182016040528015613c9157816020015b6040805160608101825260008082526020808301829052928201528252600019909201910181613c645790505b5090506000825b60018110613d025785613cac600183614ffc565b81518110613cbc57613cbc6151ce565b6020026020010151838381518110613cd657613cd66151ce565b60200260200101819052508180613cec906151e4565b9250508080613cfa9061568c565b915050613c98565b5090949350505050565b6000613d1784613692565b6002546040805160c0810182526001600160a01b038981168252610120890151151560208301526000548116928201929092526001600160801b038716606082015292935016906325f311459060808101613d72858861566c565b6001600160801b03168152602001868860e00151613d90919061566c565b6001600160801b03169052604080516001600160e01b031960e085901b16815282516001600160a01b039081166004830152602084015115156024830152918301519091166044820152606082015160648201526080820151608482015260a09091015160a482015260c401600060405180830381600087803b158015613e1657600080fd5b505af1158015613e2a573d6000803e3d6000fd5b5050505083610120015115613f1b576040516323b872dd60e01b81526001600160a01b037f000000000000000000000000000000000000000000000000000000000000000016906323b872dd90613e8990339030908890600401615394565b6020604051808303816000875af1158015613ea8573d6000803e3d6000fd5b505050506040513d601f19601f82011682018060405250810190613ecc9190615377565b5060405163a9059cbb60e01b81526001600160a01b037f0000000000000000000000000000000000000000000000000000000000000000169063a9059cbb90610bcd903390869060040161535e565b6040516323b872dd60e01b81526001600160a01b037f000000000000000000000000000000000000000000000000000000000000000016906323b872dd90613f6b90339030908890600401615394565b6020604051808303816000875af1158015613f8a573d6000803e3d6000fd5b505050506040513d601f19601f82011682018060405250810190613fae9190615377565b5060405163a9059cbb60e01b81526001600160a01b037f0000000000000000000000000000000000000000000000000000000000000000169063a9059cbb90610c64903390869060040161535e565b600061400a8484846115b3565b90506000828061401c5761401c614ec1565b848609111561047d57600019811061403357600080fd5b6001019392505050565b600080836001600160a01b0316856001600160a01b0316111561405e579293925b846001600160a01b0316866001600160a01b03161161408957614082858585614123565b91506140d0565b836001600160a01b0316866001600160a01b031610156140c2576140ae868585614123565b91506140bb8587856140d9565b90506140d0565b6140cd8585856140d9565b90505b94509492505050565b6000826001600160a01b0316846001600160a01b031611156140f9579192915b61047a6001600160801b03831661411086866156a3565b6001600160a01b0316600160601b6115b3565b6000826001600160a01b0316846001600160a01b03161115614143579192915b6001600160a01b038416614183600160601b600160e01b03606085901b1661416b87876156a3565b6001600160a01b0316866001600160a01b03166115b3565b61047a91906156c3565b6040805180820182526009815268726566756e64696e6760b81b602082015260e083015161010084015192516370a0823160e01b8152306004820152614255936001600160801b039283169216906001600160a01b037f000000000000000000000000000000000000000000000000000000000000000016906370a0823190602401602060405180830381865afa15801561422c573d6000803e3d6000fd5b505050506040513d601f19601f8201168201806040525081019061425091906154c0565b6146c3565b60008161010001518260e0015161426c919061564c565b6001600160801b0316905081610120015115614326577f00000000000000000000000000000000000000000000000000000000000000006001600160a01b031663a9059cbb338461010001516001600160801b03166040518363ffffffff1660e01b81526004016142de92919061535e565b6020604051808303816000875af11580156142fd573d6000803e3d6000fd5b505050506040513d601f19601f820116820180604052508101906143219190615377565b505050565b7f00000000000000000000000000000000000000000000000000000000000000006001600160a01b031663a9059cbb338461010001516001600160801b03166040518363ffffffff1660e01b81526004016142de92919061535e565b60008060008060005b8651811015614519578681815181106143a6576143a66151ce565b6020026020010151602001516001600160801b031660000315614507578681815181106143d5576143d56151ce565b602002602001015160000151915061440286670de0b6b3a7640000898481518110612855576128556151ce565b925082878281518110614417576144176151ce565b6020908102919091018101516001600160801b0390921691015287156144d65761447861444383611665565b61447061094b7f000000000000000000000000000000000000000000000000000000000000000086615189565b856001611988565b6144829086614fe9565b94506144c561449083611665565b6144bd61094b7f000000000000000000000000000000000000000000000000000000000000000086615189565b856001611a3f565b6144cf9085614fe9565b9350614507565b6144e261449083611665565b6144ec9086614fe9565b94506144fa61444383611665565b6145049085614fe9565b93505b80614511816151e4565b91505061438b565b505050935093915050565b80821061453057505050565b600161453c8383614ffc565b1161454657505050565b818160008560026145578486614fe9565b61456191906156c3565b81518110614571576145716151ce565b602002602001015190505b81831161469d575b806000015160020b86848151811061459e5761459e6151ce565b60200260200101516000015160020b12156145c557826145bd816151e4565b935050614584565b806000015160020b8683815181106145df576145df6151ce565b60200260200101516000015160020b131561460657816145fe8161568c565b9250506145c5565b8183116146985785828151811061461f5761461f6151ce565b6020026020010151868481518110614639576146396151ce565b6020026020010151878581518110614653576146536151ce565b6020026020010188858151811061466c5761466c6151ce565b6020026020010182905282905250508280614686906151e4565b93505081806146949061568c565b9250505b61457c565b818510156146b0576146b0868684614524565b83831015610ca757610ca7868486614524565b61470c848484846040516024016146dd94939291906156d7565b60408051601f198184030181529190526020810180516001600160e01b03166304772b3360e11b179052614712565b50505050565b80516a636f6e736f6c652e6c6f67602083016000808483855afa5050505050565b604051806101a0016040528060006001600160a01b03168152602001600081526020016000815260200160008152602001600081526020016000815260200160006001600160801b0316815260200160006001600160801b0316815260200160006001600160801b03168152602001600015158152602001600063ffffffff168152602001600063ffffffff168152602001606081525090565b6040518061028001604052806000815260200160008152602001600081526020016000815260200160006001600160a01b03168152602001600060020b815260200160006001600160a01b0316815260200160008152602001600081526020016000815260200160008152602001614843614733565b815260200160006001600160a01b03168152602001600060020b8152602001600060020b8152602001600081526020016000815260200160006001600160801b0316815260200160608152602001606081525090565b6040518060c001604052806000815260200160008152602001600081526020016000815260200160008152602001600081525090565b80151581146148dd57600080fd5b50565b634e487b7160e01b600052604160045260246000fd5b604051606081016001600160401b0381118282101715614918576149186148e0565b60405290565b6040516101a081016001600160401b0381118282101715614918576149186148e0565b604051601f8201601f191681016001600160401b0381118282101715614969576149696148e0565b604052919050565b60006001600160401b0382111561498a5761498a6148e0565b5060051b60200190565b8060020b81146148dd57600080fd5b6001600160801b03811681146148dd57600080fd5b600082601f8301126149c957600080fd5b813560206149de6149d983614971565b614941565b828152606092830285018201928282019190878511156149fd57600080fd5b8387015b85811015614a565781818a031215614a195760008081fd5b614a216148f6565b8135614a2c81614994565b815281860135614a3b816149a3565b81870152604082810135908201528452928401928101614a01565b5090979650505050505050565b600080600080600060a08688031215614a7b57600080fd5b8535945060208601359350604086013592506060860135614a9b816148cf565b915060808601356001600160401b03811115614ab657600080fd5b614ac2888289016149b8565b9150509295509295909350565b600081518084526020808501945080840160005b83811015614b23578151805160020b88526020808201516001600160801b0316908901526040908101519088015260608701965090820190600101614ae3565b509495945050505050565b80516001600160a01b0316825260006101a06020830151602085015260408301516040850152606083015160608501526080830151608085015260a083015160a085015260c0830151614b8c60c08601826001600160801b03169052565b5060e0830151614ba760e08601826001600160801b03169052565b50610100838101516001600160801b031690850152610120808401511515908501526101408084015163ffffffff90811691860191909152610160808501519091169085015261018080840151818601839052614c0683870182614acf565b9695505050505050565b606081526000614c236060830186614b2e565b60208301949094525060400152919050565b6001600160a01b03811681146148dd57600080fd5b600080600060608486031215614c5f57600080fd5b8335614c6a81614c35565b9250602084013591506040840135614c81816148cf565b809150509250925092565b600080600060608486031215614ca157600080fd5b8335614cac816148cf565b95602085013595506040909401359392505050565b8460020b81528360020b6020820152608060408201526000614ce66080830185614acf565b905082606083015295945050505050565b600060208284031215614d0957600080fd5b813561047d81614c35565b60008060008060808587031215614d2a57600080fd5b8435935060208501359250604085013591506060850135614d4a816148cf565b939692955090935050565b60008060408385031215614d6857600080fd5b8235614d7381614994565b91506020830135614d83816148cf565b809150509250929050565b60008060408385031215614da157600080fd5b82356001600160401b03811115614db757600080fd5b614dc3858286016149b8565b9250506020830135614d83816148cf565b600080600060608486031215614de957600080fd5b8335614df481614c35565b92506020840135614e04816148cf565b929592945050506040919091013590565b60008060008060608587031215614e2b57600080fd5b843593506020850135925060408501356001600160401b0380821115614e5057600080fd5b818701915087601f830112614e6457600080fd5b813581811115614e7357600080fd5b886020828501011115614e8557600080fd5b95989497505060200194505050565b634e487b7160e01b600052601160045260246000fd5b808202811582820484141761088e5761088e614e94565b634e487b7160e01b600052601260045260246000fd5b60006001600160a01b0383811680614ef157614ef1614ec1565b92169190910492915050565b6001600160a01b03828116828216818102831692918115828504821417614f2657614f26614e94565b50505092915050565b805161ffff81168114614f4157600080fd5b919050565b8051614f41816148cf565b600080600080600080600060e0888a031215614f6c57600080fd5b8751614f7781614c35565b6020890151909750614f8881614994565b9550614f9660408901614f2f565b9450614fa460608901614f2f565b9350614fb260808901614f2f565b925060a088015160ff81168114614fc857600080fd5b60c0890151909250614fd9816148cf565b8091505092959891949750929550565b8082018082111561088e5761088e614e94565b8181038181111561088e5761088e614e94565b8051614f41816149a3565b600082601f83011261502b57600080fd5b8151602061503b6149d983614971565b8281526060928302850182019282820191908785111561505a57600080fd5b8387015b85811015614a565781818a0312156150765760008081fd5b61507e6148f6565b815161508981614994565b815281860151615098816149a3565b8187015260408281015190820152845292840192810161505e565b600080600080608085870312156150c957600080fd5b84516150d481614994565b60208601519094506150e581614994565b6040860151606087015191945092506001600160401b0381111561510857600080fd5b6151148782880161501a565b91505092959194509250565b6080815260006151336080830187614acf565b9415156020830152509115156040830152606090910152919050565b60008160020b8360020b8061516657615166614ec1565b627fffff1982146000198214161561518057615180614e94565b90059392505050565b600281810b9083900b01627fffff8113627fffff198212171561088e5761088e614e94565b60008260020b8260020b028060020b9150808214610a1857610a18614e94565b634e487b7160e01b600052603260045260246000fd5b6000600182016151f6576151f6614e94565b5060010190565b6001600160a01b039384168152919092166020820152901515604082015260600190565b8051614f4181614c35565b805163ffffffff81168114614f4157600080fd5b60006020828403121561525257600080fd5b81516001600160401b038082111561526957600080fd5b908301906101a0828603121561527e57600080fd5b61528661491e565b61528f83615221565b81526020830151602082015260408301516040820152606083015160608201526080830151608082015260a083015160a08201526152cf60c0840161500f565b60c08201526152e060e0840161500f565b60e08201526101006152f381850161500f565b90820152610120615305848201614f46565b9082015261014061531784820161522c565b9082015261016061532984820161522c565b90820152610180838101518381111561534157600080fd5b61534d8882870161501a565b918301919091525095945050505050565b6001600160a01b03929092168252602082015260400190565b60006020828403121561538957600080fd5b815161047d816148cf565b6001600160a01b039384168152919092166020820152604081019190915260600190565b6000815180845260005b818110156153de576020818501810151868301820152016153c2565b506000602082860101526020601f19601f83011685010191505092915050565b6001600160a01b0386811682528515156020830152604082018590528316606082015260a060808201819052600090611a34908301846153b8565b6000806040838503121561544c57600080fd5b505080516020909101519092909150565b6000600160ff1b820161547257615472614e94565b5060000390565b60208152600061047d6020830184614acf565b60006020828403121561549e57600080fd5b81516001600160401b038111156154b457600080fd5b61088a8482850161501a565b6000602082840312156154d257600080fd5b5051919050565b60208152600060018060a01b0380845116602084015260208401511515604084015280604085015116606084015250606083015160808084015261088a60a0840182614b2e565b6040815260006155336040830185614acf565b90508260020b60208301529392505050565b60208082526004908201526319985a5b60e21b604082015260600190565b8181036000831280158383131683831282161715610a1857610a18614e94565b6040815260006155966040830185614acf565b90508260208301529392505050565b600080604083850312156155b857600080fd5b82516155c3816148cf565b809250506020808401516001600160401b038111156155e157600080fd5b8401601f810186136155f257600080fd5b80516156006149d982614971565b81815260059190911b8201830190838101908883111561561f57600080fd5b928401925b8284101561563d57835182529284019290840190615624565b80955050505050509250929050565b6001600160801b03828116828216039080821115610a1857610a18614e94565b6001600160801b03818116838216019080821115610a1857610a18614e94565b60008161569b5761569b614e94565b506000190190565b6001600160a01b03828116828216039080821115610a1857610a18614e94565b6000826156d2576156d2614ec1565b500490565b6080815260006156ea60808301876153b8565b602083019590955250604081019290925260609091015291905056fea264697066735822122096c0fac5b573f1491e40f2619f83c7e6e3e8c9644b0a17df69011b514a670a4264736f6c63430008110033",
    "linkReferences": {}
  },
  "methodIdentifiers": {
    "INTEREST_REPLENISH_TIME()": "9aa886da",
    "addPosition(uint256,uint256,uint256,bool)": "3cd7bca7",
    "addPositionSpecfied(uint256,uint256,uint256,bool,(int24,uint128,uint256)[])": "0d3401ee",
    "applySlippageX96(uint160,uint256,bool)": "207b0576",
    "borrow(bool,uint256,uint256)": "25350f8e",
    "closeMaxSlippage()": "6ef83ef7",
    "closePosition(address,bool,uint256)": "7ea9843b",
    "getFilledAmount((int24,uint128,uint256)[],bool)": "786afbcc",
    "getNewPremiumQuote()": "08abb6d3",
    "globalStorage()": "6502072a",
    "liquidityManager()": "33827438",
    "nonce()": "affed0e0",
    "pool()": "16f0115b",
    "precision()": "d3b5dc3b",
    "reducePosition(bool,uint256,uint256)": "deff1bdc",
    "roundTick(int24,bool)": "3dc306ee",
    "setLiquidityManager(address)": "3c1624d4",
    "tickSpacing()": "d0c93a7c",
    "token0()": "0dfe1681",
    "token1()": "d21220a7",
    "uniswapV3SwapCallback(int256,int256,bytes)": "fa461e33"
  },
  "id": 35
}