{
  "abi": [
    {
      "inputs": [
        {
          "internalType": "address",
          "name": "_pool",
          "type": "address"
        }
      ],
      "stateMutability": "nonpayable",
      "type": "constructor"
    },
    {
      "inputs": [],
      "name": "R",
      "type": "error"
    },
    {
      "inputs": [],
      "name": "T",
      "type": "error"
    },
    {
      "inputs": [],
      "name": "INTEREST_REPLENISH_TIME",
      "outputs": [
        {
          "internalType": "uint256",
          "name": "",
          "type": "uint256"
        }
      ],
      "stateMutability": "view",
      "type": "function"
    },
    {
      "inputs": [
        {
          "internalType": "uint160",
          "name": "price",
          "type": "uint160"
        },
        {
          "internalType": "uint256",
          "name": "maxSlippage",
          "type": "uint256"
        },
        {
          "internalType": "bool",
          "name": "down",
          "type": "bool"
        }
      ],
      "name": "applySlippageX96",
      "outputs": [
        {
          "internalType": "uint160",
          "name": "",
          "type": "uint160"
        }
      ],
      "stateMutability": "pure",
      "type": "function"
    },
    {
      "inputs": [
        {
          "internalType": "bool",
          "name": "zeroForOne",
          "type": "bool"
        },
        {
          "internalType": "int256",
          "name": "amountSpecified",
          "type": "int256"
        },
        {
          "internalType": "uint256",
          "name": "leverage",
          "type": "uint256"
        }
      ],
      "name": "borrow",
      "outputs": [
        {
          "internalType": "uint160",
          "name": "",
          "type": "uint160"
        },
        {
          "internalType": "uint160",
          "name": "",
          "type": "uint160"
        },
        {
          "internalType": "uint128",
          "name": "",
          "type": "uint128"
        },
        {
          "internalType": "uint256",
          "name": "",
          "type": "uint256"
        }
      ],
      "stateMutability": "nonpayable",
      "type": "function"
    },
    {
      "inputs": [],
      "name": "closeMaxSlippage",
      "outputs": [
        {
          "internalType": "uint256",
          "name": "",
          "type": "uint256"
        }
      ],
      "stateMutability": "view",
      "type": "function"
    },
    {
      "inputs": [
        {
          "internalType": "uint256",
          "name": "nonce",
          "type": "uint256"
        },
        {
          "internalType": "address",
          "name": "trader",
          "type": "address"
        },
        {
          "internalType": "uint256",
          "name": "userSpecifiedSlippage",
          "type": "uint256"
        }
      ],
      "name": "closePosition",
      "outputs": [
        {
          "internalType": "int256",
          "name": "",
          "type": "int256"
        },
        {
          "internalType": "int256",
          "name": "",
          "type": "int256"
        }
      ],
      "stateMutability": "nonpayable",
      "type": "function"
    },
    {
      "inputs": [
        {
          "internalType": "uint256",
          "name": "traderFund",
          "type": "uint256"
        },
        {
          "internalType": "uint256",
          "name": "maxSlippage",
          "type": "uint256"
        },
        {
          "internalType": "uint256",
          "name": "borrowAmount",
          "type": "uint256"
        },
        {
          "internalType": "bool",
          "name": "isLong",
          "type": "bool"
        }
      ],
      "name": "createLevPosition",
      "outputs": [
        {
          "components": [
            {
              "internalType": "uint256",
              "name": "totalPosition",
              "type": "uint256"
            },
            {
              "internalType": "uint256",
              "name": "totalDebt",
              "type": "uint256"
            },
            {
              "internalType": "uint256",
              "name": "totalDebtInput",
              "type": "uint256"
            },
            {
              "internalType": "int24",
              "name": "creationTick",
              "type": "int24"
            },
            {
              "internalType": "uint128",
              "name": "borrowedLiq",
              "type": "uint128"
            },
            {
              "internalType": "bool",
              "name": "isToken0",
              "type": "bool"
            },
            {
              "internalType": "uint32",
              "name": "openTime",
              "type": "uint32"
            },
            {
              "internalType": "uint32",
              "name": "repayTime",
              "type": "uint32"
            },
            {
              "internalType": "int24",
              "name": "borrowStartTick",
              "type": "int24"
            },
            {
              "internalType": "int24",
              "name": "borrowFinishTick",
              "type": "int24"
            }
          ],
          "internalType": "struct LeverageManager.Position",
          "name": "",
          "type": "tuple"
        },
        {
          "internalType": "uint256",
          "name": "",
          "type": "uint256"
        },
        {
          "internalType": "uint256",
          "name": "",
          "type": "uint256"
        }
      ],
      "stateMutability": "nonpayable",
      "type": "function"
    },
    {
      "inputs": [
        {
          "internalType": "address",
          "name": "trader",
          "type": "address"
        }
      ],
      "name": "getAllPositions",
      "outputs": [
        {
          "components": [
            {
              "internalType": "uint256",
              "name": "totalPosition",
              "type": "uint256"
            },
            {
              "internalType": "uint256",
              "name": "totalDebt",
              "type": "uint256"
            },
            {
              "internalType": "uint256",
              "name": "totalDebtInput",
              "type": "uint256"
            },
            {
              "internalType": "int24",
              "name": "creationTick",
              "type": "int24"
            },
            {
              "internalType": "uint128",
              "name": "borrowedLiq",
              "type": "uint128"
            },
            {
              "internalType": "bool",
              "name": "isToken0",
              "type": "bool"
            },
            {
              "internalType": "uint32",
              "name": "openTime",
              "type": "uint32"
            },
            {
              "internalType": "uint32",
              "name": "repayTime",
              "type": "uint32"
            },
            {
              "internalType": "int24",
              "name": "borrowStartTick",
              "type": "int24"
            },
            {
              "internalType": "int24",
              "name": "borrowFinishTick",
              "type": "int24"
            }
          ],
          "internalType": "struct LeverageManager.Position[]",
          "name": "",
          "type": "tuple[]"
        }
      ],
      "stateMutability": "view",
      "type": "function"
    },
    {
      "inputs": [
        {
          "internalType": "int24",
          "name": "curTick",
          "type": "int24"
        },
        {
          "internalType": "bool",
          "name": "zeroForOne",
          "type": "bool"
        },
        {
          "internalType": "uint128",
          "name": "liquidity",
          "type": "uint128"
        }
      ],
      "name": "getNextTick",
      "outputs": [
        {
          "internalType": "int24",
          "name": "",
          "type": "int24"
        },
        {
          "internalType": "bool",
          "name": "",
          "type": "bool"
        }
      ],
      "stateMutability": "view",
      "type": "function"
    },
    {
      "inputs": [
        {
          "internalType": "address",
          "name": "trader",
          "type": "address"
        },
        {
          "internalType": "uint256",
          "name": "nonce",
          "type": "uint256"
        }
      ],
      "name": "getPosition",
      "outputs": [
        {
          "components": [
            {
              "internalType": "uint256",
              "name": "totalPosition",
              "type": "uint256"
            },
            {
              "internalType": "uint256",
              "name": "totalDebt",
              "type": "uint256"
            },
            {
              "internalType": "uint256",
              "name": "totalDebtInput",
              "type": "uint256"
            },
            {
              "internalType": "int24",
              "name": "creationTick",
              "type": "int24"
            },
            {
              "internalType": "uint128",
              "name": "borrowedLiq",
              "type": "uint128"
            },
            {
              "internalType": "bool",
              "name": "isToken0",
              "type": "bool"
            },
            {
              "internalType": "uint32",
              "name": "openTime",
              "type": "uint32"
            },
            {
              "internalType": "uint32",
              "name": "repayTime",
              "type": "uint32"
            },
            {
              "internalType": "int24",
              "name": "borrowStartTick",
              "type": "int24"
            },
            {
              "internalType": "int24",
              "name": "borrowFinishTick",
              "type": "int24"
            }
          ],
          "internalType": "struct LeverageManager.Position",
          "name": "",
          "type": "tuple"
        }
      ],
      "stateMutability": "view",
      "type": "function"
    },
    {
      "inputs": [
        {
          "internalType": "address",
          "name": "trader",
          "type": "address"
        },
        {
          "internalType": "uint256",
          "name": "nonce",
          "type": "uint256"
        }
      ],
      "name": "isLiquidatable",
      "outputs": [
        {
          "internalType": "bool",
          "name": "",
          "type": "bool"
        }
      ],
      "stateMutability": "view",
      "type": "function"
    },
    {
      "inputs": [],
      "name": "liquidityManager",
      "outputs": [
        {
          "internalType": "contract LiquidityManager",
          "name": "",
          "type": "address"
        }
      ],
      "stateMutability": "view",
      "type": "function"
    },
    {
      "inputs": [],
      "name": "nonce",
      "outputs": [
        {
          "internalType": "uint256",
          "name": "",
          "type": "uint256"
        }
      ],
      "stateMutability": "view",
      "type": "function"
    },
    {
      "inputs": [
        {
          "internalType": "address",
          "name": "trader",
          "type": "address"
        },
        {
          "internalType": "uint256",
          "name": "nonce",
          "type": "uint256"
        }
      ],
      "name": "payPremium",
      "outputs": [
        {
          "internalType": "uint256",
          "name": "",
          "type": "uint256"
        }
      ],
      "stateMutability": "nonpayable",
      "type": "function"
    },
    {
      "inputs": [
        {
          "internalType": "int24",
          "name": "borrowStartTick",
          "type": "int24"
        },
        {
          "internalType": "int24",
          "name": "borrowFinishTick",
          "type": "int24"
        },
        {
          "internalType": "uint256",
          "name": "rate",
          "type": "uint256"
        },
        {
          "internalType": "uint256",
          "name": "borrowedAmount",
          "type": "uint256"
        },
        {
          "internalType": "bool",
          "name": "isToken0",
          "type": "bool"
        },
        {
          "internalType": "uint256[]",
          "name": "liquidities",
          "type": "uint256[]"
        }
      ],
      "name": "payPremiumToPool",
      "outputs": [
        {
          "internalType": "uint256",
          "name": "premium",
          "type": "uint256"
        }
      ],
      "stateMutability": "nonpayable",
      "type": "function"
    },
    {
      "inputs": [],
      "name": "pool",
      "outputs": [
        {
          "internalType": "contract UniswapV3Pool",
          "name": "",
          "type": "address"
        }
      ],
      "stateMutability": "view",
      "type": "function"
    },
    {
      "inputs": [
        {
          "internalType": "bytes32",
          "name": "",
          "type": "bytes32"
        }
      ],
      "name": "positions",
      "outputs": [
        {
          "internalType": "uint256",
          "name": "totalPosition",
          "type": "uint256"
        },
        {
          "internalType": "uint256",
          "name": "totalDebt",
          "type": "uint256"
        },
        {
          "internalType": "uint256",
          "name": "totalDebtInput",
          "type": "uint256"
        },
        {
          "internalType": "int24",
          "name": "creationTick",
          "type": "int24"
        },
        {
          "internalType": "uint128",
          "name": "borrowedLiq",
          "type": "uint128"
        },
        {
          "internalType": "bool",
          "name": "isToken0",
          "type": "bool"
        },
        {
          "internalType": "uint32",
          "name": "openTime",
          "type": "uint32"
        },
        {
          "internalType": "uint32",
          "name": "repayTime",
          "type": "uint32"
        },
        {
          "internalType": "int24",
          "name": "borrowStartTick",
          "type": "int24"
        },
        {
          "internalType": "int24",
          "name": "borrowFinishTick",
          "type": "int24"
        }
      ],
      "stateMutability": "view",
      "type": "function"
    },
    {
      "inputs": [],
      "name": "precision",
      "outputs": [
        {
          "internalType": "uint256",
          "name": "",
          "type": "uint256"
        }
      ],
      "stateMutability": "view",
      "type": "function"
    },
    {
      "inputs": [
        {
          "internalType": "int24",
          "name": "tick",
          "type": "int24"
        },
        {
          "internalType": "bool",
          "name": "down",
          "type": "bool"
        }
      ],
      "name": "roundTick",
      "outputs": [
        {
          "internalType": "int24",
          "name": "",
          "type": "int24"
        }
      ],
      "stateMutability": "view",
      "type": "function"
    },
    {
      "inputs": [
        {
          "internalType": "address",
          "name": "ad",
          "type": "address"
        }
      ],
      "name": "setLiquidityManager",
      "outputs": [],
      "stateMutability": "nonpayable",
      "type": "function"
    },
    {
      "inputs": [],
      "name": "tickSpacing",
      "outputs": [
        {
          "internalType": "int24",
          "name": "",
          "type": "int24"
        }
      ],
      "stateMutability": "view",
      "type": "function"
    },
    {
      "inputs": [],
      "name": "token0",
      "outputs": [
        {
          "internalType": "contract ERC20",
          "name": "",
          "type": "address"
        }
      ],
      "stateMutability": "view",
      "type": "function"
    },
    {
      "inputs": [],
      "name": "token1",
      "outputs": [
        {
          "internalType": "contract ERC20",
          "name": "",
          "type": "address"
        }
      ],
      "stateMutability": "view",
      "type": "function"
    },
    {
      "inputs": [
        {
          "internalType": "uint256",
          "name": "amount0Owed",
          "type": "uint256"
        },
        {
          "internalType": "uint256",
          "name": "amount1Owed",
          "type": "uint256"
        },
        {
          "internalType": "bytes",
          "name": "data",
          "type": "bytes"
        }
      ],
      "name": "uniswapV3MintCallback",
      "outputs": [],
      "stateMutability": "nonpayable",
      "type": "function"
    },
    {
      "inputs": [
        {
          "internalType": "int256",
          "name": "amount0Delta",
          "type": "int256"
        },
        {
          "internalType": "int256",
          "name": "amount1Delta",
          "type": "int256"
        },
        {
          "internalType": "bytes",
          "name": "data",
          "type": "bytes"
        }
      ],
      "name": "uniswapV3SwapCallback",
      "outputs": [],
      "stateMutability": "nonpayable",
      "type": "function"
    },
    {
      "inputs": [
        {
          "internalType": "address",
          "name": "",
          "type": "address"
        },
        {
          "internalType": "uint256",
          "name": "",
          "type": "uint256"
        }
      ],
      "name": "userpositions",
      "outputs": [
        {
          "internalType": "uint256",
          "name": "",
          "type": "uint256"
        }
      ],
      "stateMutability": "view",
      "type": "function"
    }
  ],
  "bytecode": {
    "object": "0x60e06040523480156200001157600080fd5b50604051620059a5380380620059a58339810160408190526200003491620001c8565b600080546001600160a01b0319166001600160a01b03831690811790915560408051630dfe168160e01b81529051630dfe1681916004808201926020929091908290030181865afa1580156200008e573d6000803e3d6000fd5b505050506040513d601f19601f82011682018060405250810190620000b49190620001c8565b60008054906101000a90046001600160a01b03166001600160a01b031663d21220a76040518163ffffffff1660e01b8152600401602060405180830381865afa15801562000106573d6000803e3d6000fd5b505050506040513d601f19601f820116820180604052508101906200012c9190620001c8565b6001600160a01b0390811660c05290811660a052600054604080516334324e9f60e21b81529051919092169163d0c93a7c9160048083019260209291908290030181865afa15801562000183573d6000803e3d6000fd5b505050506040513d601f19601f82011682018060405250810190620001a99190620001fa565b600290810b608052670de7d1b0f0f1000060045560019055506200021f565b600060208284031215620001db57600080fd5b81516001600160a01b0381168114620001f357600080fd5b9392505050565b6000602082840312156200020d57600080fd5b81518060020b8114620001f357600080fd5b60805160a05160c05161568462000321600039600081816104a401528181611c2c01528181612514015281816125e501528181612b770152818161320301528181613275015281816134c301526138c001526000818161017d01528181611cc50152818161248c0152818161268201528181612ae301528181612f4f01528181613370015281816133e2015281816134e9015261382901526000818161047d015281816106b1015281816106df0152818161071d01528181610d4c01528181610dc201528181611196015281816111ed015281816117b10152818161184101528181611a9601528181611b2901528181611b590152611b9701526156846000f3fe608060405234801561001057600080fd5b50600436106101735760003560e01c806380753d27116100de578063d0c93a7c11610097578063d3b5dc3b11610071578063d3b5dc3b146104d9578063d8b83f3a146104e8578063fa461e3314610510578063fb11e9691461052357600080fd5b8063d0c93a7c14610478578063d21220a71461049f578063d3487997146104c657600080fd5b806380753d27146103f0578063946e986c1461041d5780639aa886da1461043f578063a9de6d6c14610449578063affed0e01461045c578063bc2704bf1461046557600080fd5b80633dc306ee116101305780633dc306ee146102475780633fdfb2aa1461026d57806340f6ea5414610290578063514ea4bf146102dc57806354d771e6146103c65780636ef83ef7146103e757600080fd5b80630dfe16811461017857806316f0115b146101bc578063207b0576146101cf57806333827438146101e25780633adbb5af146101f55780633c1624d414610215575b600080fd5b61019f7f000000000000000000000000000000000000000000000000000000000000000081565b6040516001600160a01b0390911681526020015b60405180910390f35b60005461019f906001600160a01b031681565b61019f6101dd3660046147ec565b610543565b60015461019f906001600160a01b031681565b61020861020336600461482e565b6105c5565b6040516101b39190614912565b610245610223366004614921565b600180546001600160a01b0319166001600160a01b0392909216919091179055565b005b61025a61025536600461494d565b6106a9565b60405160029190910b81526020016101b3565b61028061027b36600461482e565b61074a565b60405190151581526020016101b3565b6102a361029e366004614986565b61083f565b604080516001600160a01b0395861681529490931660208501526001600160801b039091169183019190915260608201526080016101b3565b6103626102ea3660046149bb565b6003602081905260009182526040909120805460018201546002808401549484015460049094015492949193919282820b926001600160801b0363010000008204169260ff600160981b8304169263ffffffff600160a01b8404811693600160c01b810490911692600160e01b909104810b91900b8a565b604080519a8b5260208b019990995297890196909652600294850b60608901526001600160801b03909316608088015290151560a087015263ffffffff90811660c08701521660e085015290810b6101008401520b610120820152610140016101b3565b6103d96103d436600461482e565b611a48565b6040519081526020016101b3565b6103d960045481565b6104036103fe3660046149e9565b611a79565b6040805160029390930b83529015156020830152016101b3565b61043061042b366004614a29565b611bfc565b6040516101b393929190614a6a565b6103d96201518081565b6103d9610457366004614b1d565b6125ae565b6103d960025481565b6103d961047336600461482e565b612775565b61025a7f000000000000000000000000000000000000000000000000000000000000000081565b61019f7f000000000000000000000000000000000000000000000000000000000000000081565b6102456104d4366004614c46565b612abb565b6103d9670de0b6b3a764000081565b6104fb6104f6366004614c98565b612bfb565b604080519283526020830191909152016101b3565b61024561051e366004614c46565b6137f4565b610536610531366004614921565b6138fe565b6040516101b39190614cd0565b60008161057e57670de0b6b3a76400006105656105608583614d35565b613a22565b61056f9086614d4c565b6105799190614d94565b6105bb565b670de0b6b3a76400006105a7610595828087613ac6565b61056090670de0b6b3a7640000614d35565b6105b19086614d4c565b6105bb9190614d94565b90505b9392505050565b6105cd61466c565b6003600084846040516020016105e4929190614dba565b60408051601f1981840301815291815281516020928301208352828201939093529082016000208251610140810184528154815260018201549281019290925260028082015493830193909352600381015480840b60608401526001600160801b036301000000820416608084015260ff600160981b820416151560a084015263ffffffff600160a01b8204811660c0850152600160c01b82041660e0840152600160e01b9004830b6101008301526004015490910b61012082015290505b92915050565b6000806106d67f000000000000000000000000000000000000000000000000000000000000000085614ddc565b905082610718577f0000000000000000000000000000000000000000000000000000000000000000610709826001614e16565b6107139190614e3b565b610742565b6107427f000000000000000000000000000000000000000000000000000000000000000082614e3b565b949350505050565b600080600360008585604051602001610764929190614dba565b60408051601f1981840301815291815281516020928301208352828201939093529082016000208251610140810184528154815260018201549281019290925260028082015493830193909352600381015480840b60608401526001600160801b036301000000820416608084015260ff600160981b820416151560a084015263ffffffff600160a01b8204811660c0850152600160c01b82041660e08401819052600160e01b909104840b61010084015260049091015490920b6101208201529150610835906201518090614e62565b4211949350505050565b60008060008061084d6146c0565b670de0b6b3a7640000861161089a5760405162461bcd60e51b815260206004820152600e60248201526d77726f6e67206c6576657261676560901b60448201526064015b60405180910390fd5b60008054906101000a90046001600160a01b03166001600160a01b0316633850c7bd6040518163ffffffff1660e01b815260040160e060405180830381865afa1580156108eb573d6000803e3d6000fd5b505050506040513d601f19601f8201168201806040525081019061090f9190614e87565b5050505060029190910b6080840152506001600160a01b03166060820181905261098e90896109625761094b670de0b6b3a7640000808a613ac6565b61095d90670de0b6b3a7640000614e62565b610987565b610975670de0b6b3a7640000808a613ac6565b61098790670de0b6b3a7640000614f1f565b6000610543565b6001600160a01b031661018082019081526040805180820190915260088152676c6576657261676560c01b602082015290516109d8919088906109d090613b78565b60020b613e7d565b610a0d6109f28261018001516001600160a01b0316613ec9565b610a0883606001516001600160a01b0316613ec9565b613efa565b610a1f8161018001516004548a610543565b6001600160a01b031661018082019081526040805180820190915260088152676c6576657261676560c01b60208201529051610a61919088906109d090613b78565b610a7b6109f28261018001516001600160a01b0316613ec9565b60008054906101000a90046001600160a01b03166001600160a01b0316631a6865026040518163ffffffff1660e01b8152600401602060405180830381865afa158015610acc573d6000803e3d6000fd5b505050506040513d601f19601f82011682018060405250810190610af09190614f32565b6001600160801b03166102a082018190526080820151610b11918a90611a79565b5060020b6102008201819052610b2690613f44565b8160e001906001600160a01b031690816001600160a01b03168152505060006040518060c00160405280600060ff168152602001836102a001516001600160801b031681526020014263ffffffff168152602001600060060b815260200160006001600160a01b0316815260200160001515815250905060006040518060e001604052808a8152602001600081526020018460e001516001600160a01b0316815260200184610200015160020b81526020016000815260200160006001600160801b0316815260200183602001516001600160801b0316815250905060008060009054906101000a90046001600160a01b03166001600160a01b031663ddc96b4a83606001516040518263ffffffff1660e01b8152600401610c51919060029190910b815260200190565b602060405180830381865afa158015610c6e573d6000803e3d6000fd5b505050506040513d601f19601f82011682018060405250810190610c929190614f4f565b600054606084015160405163c504ae6560e01b815260029190910b60048201529192506001600160a01b03169063c504ae6590602401602060405180830381865afa158015610ce5573d6000803e3d6000fd5b505050506040513d601f19601f82011682018060405250810190610d099190614f4f565b610d139082614f72565b90508a15610d2757610d2481614fa8565b90505b610d358260c0015182614267565b6001600160801b031660c0830152508915610dc0577f0000000000000000000000000000000000000000000000000000000000000000610d83610d7c856101800151613b78565b60016106a9565b610d93610d7c8660e00151613b78565b610d9d9190614fce565b610da79190614ddc565b610db2906001614e16565b60020b6101a0840152610e2b565b7f0000000000000000000000000000000000000000000000000000000000000000610df1610d7c8560e00151613b78565b610e02610d7c866101800151613b78565b610e0c9190614fce565b610e169190614ddc565b610e21906002614e16565b60020b6101a08401525b6000836101a001516001600160401b03811115610e4a57610e4a614a8c565b604051908082528060200260200182016040528015610e9c57816020015b604080516080810182526000808252602080830182905292820181905260608201528252600019909201910181610e685790505b509050600160009054906101000a90046001600160a01b03166001600160a01b031663826054b882848e8861018001516040518563ffffffff1660e01b8152600401610eeb9493929190614ff3565b600060405180830381865afa158015610f08573d6000803e3d6000fd5b505050506040513d6000823e601f3d908101601f19168201604052610f30919081019061518f565b81519093509091506000908b908290610f4b90600190614f1f565b905060008190506000610f6086516002614327565b90505b858381518110610f7557610f7561527e565b60200260200101516040015185610f8c9190614e62565b945080610f998484614f1f565b610fa4906001614e62565b03610fea578385101561101857858281518110610fc357610fc361527e565b60200260200101516040015185610fda9190614f1f565b9450610fe7600183614f1f565b91505b82158015610ff757508385105b15611006576000199250611018565b8261101081615294565b935050610f63565b8260001981146111245760005b60016110318487614e62565b61103b9190614f1f565b8211611086578782815181106110535761105361527e565b6020026020010151604001518161106a9190614e62565b905085811015611086578161107e816152ab565b925050611025565b506000815b8581106110d7578881815181106110a4576110a461527e565b602002602001015160400151826110bb9190614e62565b9150868210156110d757806110cf81615294565b91505061108b565b945084805b838111611120578981815181106110f5576110f561527e565b60200260200101516040015160000361110e5760001996505b80611118816152ab565b9150506110dc565b5050505b600019840361114a576000806000809d509d509d509d5050505050505050505050611a3f565b8660008151811061115d5761115d61527e565b60200260200101516000015160020b8760018151811061117f5761117f61527e565b60200260200101516000015160020b12156111eb577f00000000000000000000000000000000000000000000000000000000000000008785815181106111c7576111c761527e565b6020026020010151600001516111dd9190614e16565b60020b6101c08b015261123e565b7f000000000000000000000000000000000000000000000000000000000000000087858151811061121e5761121e61527e565b6020026020010151600001516112349190614fce565b60020b6101c08b01525b8681815181106112505761125061527e565b60209081029190910101515160020b6101e08b015283611271826001614e62565b61127b9190614f1f565b6102608b0181905260009081906001600160401b0381111561129f5761129f614a8c565b6040519080825280602002602001820160405280156112c8578160200160208202803683370190505b5090506112f16040518060400160405280600381526020016234963560e91b8152508785613e7d565b8286116114075788868151811061130a5761130a61527e565b6020026020010151606001518c610240018181516113289190614e62565b905250885189908790811061133f5761133f61527e565b6020026020010151602001516001600160801b03168183815181106113665761136661527e565b6020026020010181815250506113e86040518060400160405280600e81526020016d7574696c2f6c697175696469747960901b8152508d61024001518385815181106113b4576113b461527e565b60200260200101518c8a815181106113ce576113ce61527e565b6020026020010151602001516001600160801b031661433e565b6113f3600183614e62565b9150856113ff816152ab565b9650506112f1565b6102e08c0152506102408a015115611434578961026001518a610240015161142f91906152c4565b611437565b60005b8a61024001818152505050505050505061149d6040518060400160405280601981526020017f626f72726f772073746172742066696e6973682c207574696c00000000000000815250856101c0015160020b866101e0015160020b87610240015161433e565b8a6114cc576114c76114b3856101c00151613f44565b6114c1866101e00151613f44565b8c61438d565b6114f1565b6114f16114dd856101c00151613f44565b6114eb866101e00151613f44565b8c614400565b6001600160801b031660a085018190526000546101c086015160405163657badc360e11b815260029190910b6004820152600f9290920b60248301528c1560448301526001600160a01b03169063caf75b8690606401600060405180830381600087803b15801561156157600080fd5b505af1158015611575573d6000803e3d6000fd5b50506000546101e087015160a088015160405163657badc360e11b815260029290920b6004830152600f0b60248201528e151560448201526001600160a01b03909116925063caf75b869150606401600060405180830381600087803b1580156115de57600080fd5b505af11580156115f2573d6000803e3d6000fd5b50506000546101c08701516101e088015160a089015160405163c9de624f60e01b8152600293840b60048201529190920b60248201526001600160801b0390911660448201528e151560648201526001600160a01b03909116925063c9de624f9150608401600060405180830381600087803b15801561167157600080fd5b505af1158015611685573d6000803e3d6000fd5b505050506116c160405180604001604052806009815260200168626f72726f776c697160b81b8152508560a001516001600160801b0316614436565b6000546101c08501516040516322e24ce960e01b815260029190910b60048201526001600160a01b03909116906322e24ce990602401600060405180830381600087803b15801561171157600080fd5b505af1158015611725573d6000803e3d6000fd5b50506000546101e08701516040516322e24ce960e01b815260029190910b60048201526001600160a01b0390911692506322e24ce99150602401600060405180830381600087803b15801561177957600080fd5b505af115801561178d573d6000803e3d6000fd5b50506000546101c087015160405163b4718f9360e01b8152600291820b60048201527f000000000000000000000000000000000000000000000000000000000000000090910b60248201526001600160a01b03909116925063b4718f939150604401600060405180830381600087803b15801561180957600080fd5b505af115801561181d573d6000803e3d6000fd5b50506000546101e087015160405163b4718f9360e01b8152600291820b60048201527f000000000000000000000000000000000000000000000000000000000000000090910b60248201526001600160a01b03909116925063b4718f939150604401600060405180830381600087803b15801561189957600080fd5b505af11580156118ad573d6000803e3d6000fd5b5050600054604051631b195bbf60e21b81528e15156004820152602481018e90526001600160a01b039091169250636c656efc9150604401600060405180830381600087803b1580156118ff57600080fd5b505af1158015611913573d6000803e3d6000fd5b505060015460808701516101e08801516101c08901516001600160a01b0390931694506341c22c589350909160029161194b91614e16565b6119559190614ddc565b6102408801516040516001600160e01b031960e086901b168152600293840b60048201529190920b60248201528e1515604482015260648101919091526084016020604051808303816000875af11580156119b4573d6000803e3d6000fd5b505050506040513d601f19601f820116820180604052508101906119d891906152d8565b84610280018181525050611a04846101c00151856101e001518661028001518d8f896102e001516125ae565b6102808501526101e0840151611a1990613f44565b611a27856101c00151613f44565b8560a001518661028001519750975097509750505050505b93509350935093565b60056020528160005260406000208181548110611a6457600080fd5b90600052602060002001600091509150505481565b60008054604051633bcb373960e21b8152600286810b60048301527f0000000000000000000000000000000000000000000000000000000000000000900b602482015284151560448201528291829182916001600160a01b03169063ef2cdce4906064016040805180830381865afa158015611af9573d6000803e3d6000fd5b505050506040513d601f19601f82011682018060405250810190611b1d91906152f1565b90925090506000611b4e7f000000000000000000000000000000000000000000000000000000000000000089614ddc565b9050600087611b92577f0000000000000000000000000000000000000000000000000000000000000000611b83836001614e16565b611b8d9190614e3b565b611bbc565b611bbc7f000000000000000000000000000000000000000000000000000000000000000083614e3b565b90508060020b8460020b14611be9576001600160801b03871615611be957945060019350611bf492505050565b509193506000925050505b935093915050565b611c0461466c565b600080611c0f6146c0565b8415611cae576040516323b872dd60e01b81526001600160a01b037f000000000000000000000000000000000000000000000000000000000000000016906323b872dd90611c6590339030908d90600401615320565b6020604051808303816000875af1158015611c84573d6000803e3d6000fd5b505050506040513d601f19601f82011682018060405250810190611ca89190615344565b50611d43565b6040516323b872dd60e01b81526001600160a01b037f000000000000000000000000000000000000000000000000000000000000000016906323b872dd90611cfe90339030908d90600401615320565b6020604051808303816000875af1158015611d1d573d6000803e3d6000fd5b505050506040513d601f19601f82011682018060405250810190611d419190615344565b505b60008054906101000a90046001600160a01b03166001600160a01b0316633850c7bd6040518163ffffffff1660e01b815260040160e060405180830381865afa158015611d94573d6000803e3d6000fd5b505050506040513d601f19601f82011682018060405250810190611db89190614e87565b5050505060029190910b6080840152506001600160a01b03166060820152611df9858761029e670de0b6b3a76400008c611df28185614e62565b9190613ac6565b6102808501526001600160801b031660a08401526001600160a01b0390811660e08401521660c08201819052600003611e8e57604080516101408101825260008082526020808301829052928201819052606082018190526080820181905260a0820181905260c0820181905260e08201819052610100820181905261012082015290820151915190945090925090506125a4565b6002611e9d8260c00151613ec9565b611eaa8360e00151613ec9565b611eb49190614e62565b611ebe91906152c4565b8152600085611ee557611ee08260e001518360c001518460a00151600161447b565b611efe565b611efe8260e001518360c001518460a0015160016144eb565b905085611f3857611f3388670de0b6b3a7640000611df2670de0b6b3a7640000611f2b8760600151613ec9565b869190613ac6565b611f65565b611f6588670de0b6b3a7640000611df2611f558660600151613ec9565b8590670de0b6b3a7640000613ac6565b602083018181528891611f79908390614f1f565b9052506020820151611f9990670de0b6b3a764000090611df28a82614e62565b6040830152602082015189101561200d5750604080516101408101825260008082526020808301829052928201819052606082018190526080820181905260a0820181905260c0820181905260e08201819052610100820181905261012082015290820151915190945090925090506125a4565b81602001518910156120315760405162461bcd60e51b815260040161089190615361565b604080513060208201526000910160408051601f198184030181529190526000549091506001600160a01b031663128acb083089156120708c8f614e62565b61208088606001518f8e15610543565b866040518663ffffffff1660e01b81526004016120a19594939291906153c5565b60408051808303816000875af11580156120bf573d6000803e3d6000fd5b505050506040513d601f19601f820116820180604052508101906120e39190615400565b6101408501526101208401526000805460408051633850c7bd60e01b815290516001600160a01b0390921691633850c7bd9160048082019260e0929091908290030181865afa15801561213a573d6000803e3d6000fd5b505050506040513d601f19601f8201168201806040525081019061215e9190614e87565b5050505050509050871561219e578284610120015161217c90615424565b116121995760405162461bcd60e51b815260040161089190615361565b6121cb565b828461014001516121ae90615424565b116121cb5760405162461bcd60e51b815260040161089190615361565b60006040518061014001604052808a6121f2578661014001516121ed90615424565b612201565b86610120015161220190615424565b81526020018581526020018b8152602001866080015160020b81526020018660a001516001600160801b031681526020018a151581526020014263ffffffff168152602001600063ffffffff1681526020016122608760e00151613b78565b60020b81526020016122758760c00151613b78565b600290810b909152336000818152600560209081526040808320855481546001810183559185528385209091015593549351949550859460039492936122bf939092909101614dba565b60408051808303601f190181529181528151602092830120835282820193909352908201600090812084518155918401516001830155918301516002808301919091556060840151600383018054608087015160a088015160c089015160e08a01516101008b015162ffffff97881672ffffffffffffffffffffffffffffffffffffff199096169590951763010000006001600160801b03909516949094029390931764ffffffffff60981b1916600160981b9215159290920263ffffffff60a01b191691909117600160a01b63ffffffff928316021766ffffffffffffff60c01b1916600160c01b919092160262ffffff60e01b191617600160e01b91841691909102179055610120909401516004909201805462ffffff19169290941691909117909255815491906123f2836152ab565b919050555061242f604051806040016040528060088152602001673837b9b4ba34b7b760c11b8152508260a00151836000015184602001516145ab565b61244781604001518260c0015163ffffffff16613efa565b60408051808201825260168152753130b630b731b29037b3103632bb1036b0b730b3b2b960511b602082015290516370a0823160e01b815230600482015261258c91907f00000000000000000000000000000000000000000000000000000000000000006001600160a01b0316906370a0823190602401602060405180830381865afa1580156124db573d6000803e3d6000fd5b505050506040513d601f19601f820116820180604052508101906124ff91906152d8565b6040516370a0823160e01b81523060048201527f00000000000000000000000000000000000000000000000000000000000000006001600160a01b0316906370a0823190602401602060405180830381865afa158015612563573d6000803e3d6000fd5b505050506040513d601f19601f8201168201806040525081019061258791906152d8565b613e7d565b80856020015186610280015197509750975050505050505b9450945094915050565b60006125c38585670de0b6b3a7640000613ac6565b90508215612668576000546040516323b872dd60e01b81526001600160a01b037f00000000000000000000000000000000000000000000000000000000000000008116926323b872dd9261261f92339216908690600401615320565b6020604051808303816000875af115801561263e573d6000803e3d6000fd5b505050506040513d601f19601f820116820180604052508101906126629190615344565b50612701565b6000546040516323b872dd60e01b81526001600160a01b037f00000000000000000000000000000000000000000000000000000000000000008116926323b872dd926126bc92339216908690600401615320565b6020604051808303816000875af11580156126db573d6000803e3d6000fd5b505050506040513d601f19601f820116820180604052508101906126ff9190615344565b505b600054604051630772d80760e51b81526001600160a01b039091169063ee5b00e090612739908a908a90869088908a90600401615440565b600060405180830381600087803b15801561275357600080fd5b505af1158015612767573d6000803e3d6000fd5b505050509695505050505050565b60008060036000858560405160200161278f929190614dba565b604051602081830303815290604052805190602001208152602001908152602001600020905060008060008054906101000a90046001600160a01b03166001600160a01b0316633850c7bd6040518163ffffffff1660e01b815260040160e060405180830381865afa158015612809573d6000803e3d6000fd5b505050506040513d601f19601f8201168201806040525081019061282d9190614e87565b505050505091509150600080600160009054906101000a90046001600160a01b03166001600160a01b031663b4dfbed1858560008054906101000a90046001600160a01b03166001600160a01b0316631a6865026040518163ffffffff1660e01b8152600401602060405180830381865afa1580156128b0573d6000803e3d6000fd5b505050506040513d601f19601f820116820180604052508101906128d49190614f32565b60038a01546004808c015460405160e088901b6001600160e01b03191681526001600160a01b0390961691860191909152600293840b60248601526001600160801b039092166044850152600160e01b9004820b6064840152900b608482015260a401600060405180830381865afa158015612954573d6000803e3d6000fd5b505050506040513d6000823e601f3d908101601f1916820160405261297c91908101906154ad565b600154600488015460038901549395509193506000926001600160a01b03909116916341c22c589187916002916129be91830b90600160e01b9004830b614e16565b6129c89190614ddc565b60038a015460405160e085901b6001600160e01b0319168152600293840b60048201529190920b6024820152600160981b90910460ff1615156044820152606481018690526084016020604051808303816000875af1158015612a2f573d6000803e3d6000fd5b505050506040513d601f19601f82011682018060405250810190612a5391906152d8565b600387015460048801546002808a0154939450612a8c93600160e01b8404820b939290910b91859190600160981b900460ff16876125ae565b50600395909501805463ffffffff60c01b1916600160c01b4263ffffffff160217905550929695505050505050565b6000612ac982840184614921565b6040516323b872dd60e01b81529091506001600160a01b037f000000000000000000000000000000000000000000000000000000000000000016906323b872dd90612b1c90849033908a90600401615320565b6020604051808303816000875af1158015612b3b573d6000803e3d6000fd5b505050506040513d601f19601f82011682018060405250810190612b5f9190615344565b506040516323b872dd60e01b81526001600160a01b037f000000000000000000000000000000000000000000000000000000000000000016906323b872dd90612bb090849033908990600401615320565b6020604051808303816000875af1158015612bcf573d6000803e3d6000fd5b505050506040513d601f19601f82011682018060405250810190612bf39190615344565b505050505050565b6004546000908190612c0b6146c0565b600360008789604051602001612c22929190614dba565b60408051601f1981840301815291815281516020928301208352828201939093529082016000208251610140810184528154815260018201549281019290925260028082015493830193909352600381015480840b60608401526001600160801b036301000000820416608084015260ff600160981b820416151560a0840190815263ffffffff600160a01b8304811660c0860152600160c01b83041660e0850152600160e01b909104840b61010084015260049091015490920b61012082015261016083015251156136655760008054906101000a90046001600160a01b03166001600160a01b0316633850c7bd6040518163ffffffff1660e01b815260040160e060405180830381865afa158015612d40573d6000803e3d6000fd5b505050506040513d601f19601f82011682018060405250810190612d649190614e87565b5050505060029190910b6080840152506001600160a01b031660608201526101608101516101000151612dab90612d9a90613f44565b8383610160015160a0015115610543565b6001600160a01b0316610100820190815260408051808201909152601a81527f736c697070616765207469636b2063757272656e74207469636b00000000000060208201529051612e109190612e0090613b78565b60020b836080015160020b613e7d565b600081610160015160a00151612e44578161010001516001600160a01b031682606001516001600160a01b03161115612e64565b8161010001516001600160a01b031682606001516001600160a01b031610155b9050600082610160015160a00151612ea657612e898361016001516101200151613f44565b6001600160a01b031683606001516001600160a01b031611612ed2565b612eb98361016001516101200151613f44565b6001600160a01b031683606001516001600160a01b0316105b905081156134ab576040805130602082015260009101604051602081830303815290604052905087600003612f05578497505b60408051808201825260148152733130b630b731b29030b732103837b9b4ba34b7b760611b60208201526101608601515191516370a0823160e01b8152306004820152612fe792907f00000000000000000000000000000000000000000000000000000000000000006001600160a01b0316906370a0823190602401602060405180830381865afa158015612f9e573d6000803e3d6000fd5b505050506040513d601f19601f82011682018060405250810190612fc291906152d8565b612fe2612fdd89606001518e8b610160015160a00151610543565b613ec9565b61433e565b60005461016085015160a0810151905160608701516001600160a01b039093169263128acb08923092909161301d908e84610543565b866040518663ffffffff1660e01b815260040161303e9594939291906153c5565b60408051808303816000875af115801561305c573d6000803e3d6000fd5b505050506040513d601f19601f820116820180604052508101906130809190615400565b6101408601526101208501526000805460408051633850c7bd60e01b815290516001600160a01b0390921691633850c7bd9160048082019260e0929091908290030181865afa1580156130d7573d6000803e3d6000fd5b505050506040513d601f19601f820116820180604052508101906130fb9190614e87565b505050505091505084610160015160a001511561316b57846101600151610100015160020b8160020b12156131665760405162461bcd60e51b8152602060048201526011602482015270747261646520626f756e64206661696c3160781b6044820152606401610891565b6131bf565b846101600151610100015160020b8160020b13156131bf5760405162461bcd60e51b8152602060048201526011602482015270747261646520626f756e64206661696c3160781b6044820152606401610891565b84610160015160a001511561333b57600054610160860151604090810151905163a9059cbb60e01b81526001600160a01b03928316600482015260248101919091527f00000000000000000000000000000000000000000000000000000000000000009091169063a9059cbb906044016020604051808303816000875af115801561324e573d6000803e3d6000fd5b505050506040513d601f19601f820116820180604052508101906132729190615344565b507f00000000000000000000000000000000000000000000000000000000000000006001600160a01b031663a9059cbb8b876101600151604001518861014001516132bc90615424565b6132c69190614f1f565b6040516001600160e01b031960e085901b1681526001600160a01b03909216600483015260248201526044016020604051808303816000875af1158015613311573d6000803e3d6000fd5b505050506040513d601f19601f820116820180604052508101906133359190615344565b506134a4565b600054610160860151604090810151905163a9059cbb60e01b81526001600160a01b03928316600482015260248101919091527f00000000000000000000000000000000000000000000000000000000000000009091169063a9059cbb906044016020604051808303816000875af11580156133bb573d6000803e3d6000fd5b505050506040513d601f19601f820116820180604052508101906133df9190615344565b507f00000000000000000000000000000000000000000000000000000000000000006001600160a01b031663a9059cbb8b8761016001516040015188610120015161342990615424565b6134339190614f1f565b6040516001600160e01b031960e085901b1681526001600160a01b03909216600483015260248201526044016020604051808303816000875af115801561347e573d6000803e3d6000fd5b505050506040513d601f19601f820116820180604052508101906134a29190615344565b505b5050613662565b801561362657600083610160015160a001516134e7577f0000000000000000000000000000000000000000000000000000000000000000613509565b7f00000000000000000000000000000000000000000000000000000000000000005b6000546101608601516020015160405163a9059cbb60e01b81526001600160a01b039283166004820152602481019190915291925082169063a9059cbb906044016020604051808303816000875af1158015613569573d6000803e3d6000fd5b505050506040513d601f19601f8201168201806040525081019061358d9190615344565b50610160840151602081015190516001600160a01b0383169163a9059cbb918c916135b791614f1f565b6040516001600160e01b031960e085901b1681526001600160a01b03909216600483015260248201526044016020604051808303816000875af1158015613602573d6000803e3d6000fd5b505050506040513d601f19601f820116820180604052508101906134a49190615344565b60405162461bcd60e51b81526020600482015260116024820152703a3930b232903137bab732103330b4b61960791b6044820152606401610891565b50505b60005461016082015161010081015160809091015160405163657badc360e11b815260029290920b6004830152600f0b6024820152600160448201526001600160a01b039091169063caf75b8690606401600060405180830381600087803b1580156136d057600080fd5b505af11580156136e4573d6000803e3d6000fd5b50506000805461016085015161012081015160809091015160405163657badc360e11b815260029290920b6004830152600f0b602482015260448101929092526001600160a01b0316925063caf75b869150606401600060405180830381600087803b15801561375357600080fd5b505af1158015613767573d6000803e3d6000fd5b50505050600360003389604051602001613782929190614dba565b60408051808303601f1901815291815281516020928301208352908201929092520160009081208181556001810182905560028101919091556003810180546001600160f81b0319169055600401805462ffffff19169055610120810151610140909101519097909650945050505050565b600061380282840184614921565b905060008513156138a45760405163a9059cbb60e01b8152336004820152602481018690527f00000000000000000000000000000000000000000000000000000000000000006001600160a01b03169063a9059cbb906044016020604051808303816000875af115801561387a573d6000803e3d6000fd5b505050506040513d601f19601f8201168201806040525081019061389e9190615344565b506138f7565b60405163a9059cbb60e01b8152336004820152602481018590527f00000000000000000000000000000000000000000000000000000000000000006001600160a01b03169063a9059cbb90604401612bb0565b5050505050565b6001600160a01b038116600090815260056020908152604080832080548251818502810185019093528083526060949383018282801561395d57602002820191906000526020600020905b815481526020019060010190808311613949575b50505050509050600081516001600160401b0381111561397f5761397f614a8c565b6040519080825280602002602001820160405280156139b857816020015b6139a561466c565b81526020019060019003908161399d5790505b50905060005b8251811015613a1a576139ea858483815181106139dd576139dd61527e565b60200260200101516105c5565b8282815181106139fc576139fc61527e565b60200260200101819052508080613a12906152ab565b9150506139be565b509392505050565b60b581600160881b8110613a3b5760409190911b9060801c5b69010000000000000000008110613a575760209190911b9060401c5b650100000000008110613a6f5760109190911b9060201c5b63010000008110613a855760089190911b9060101c5b62010000010260121c80820401600190811c80830401811c80830401811c80830401811c80830401811c80830401811c80830401901c908190048111900390565b6000808060001985870985870292508281108382030391505080600003613aff5760008411613af457600080fd5b5082900490506105be565b808411613b0b57600080fd5b6000848688096000868103871696879004966002600389028118808a02820302808a02820302808a02820302808a02820302808a02820302808a02909103029181900381900460010186841190950394909402919094039290920491909117919091029150509392505050565b60006401000276a36001600160a01b03831610801590613bb4575073fffd8963efd1fc6a506488495d951d5263988d266001600160a01b038316105b613bd1576040516324c070df60e11b815260040160405180910390fd5b640100000000600160c01b03602083901b166001600160801b03811160071b81811c6001600160401b03811160061b90811c63ffffffff811160051b90811c61ffff811160041b90811c60ff8111600390811b91821c600f811160021b90811c918211600190811b92831c97908811961790941790921717909117171760808110613c6457607f810383901c9150613c6e565b80607f0383901b91505b908002607f81811c60ff83811c9190911c800280831c81831c1c800280841c81841c1c800280851c81851c1c800280861c81861c1c800280871c81871c1c800280881c81881c1c800280891c81891c1c8002808a1c818a1c1c8002808b1c818b1c1c8002808c1c818c1c1c8002808d1c818d1c1c8002808e1c9c81901c9c909c1c80029c8d901c9e9d607f198f0160401b60c09190911c678000000000000000161760c19b909b1c674000000000000000169a909a1760c29990991c672000000000000000169890981760c39790971c671000000000000000169690961760c49590951c670800000000000000169490941760c59390931c670400000000000000169290921760c69190911c670200000000000000161760c79190911c670100000000000000161760c89190911c6680000000000000161760c99190911c6640000000000000161760ca9190911c6620000000000000161760cb9190911c6610000000000000161760cc9190911c6608000000000000161760cd9190911c66040000000000001617693627a301d71055774c8581026f028f6481ab7f045a5af012a19d003aa9198101608090811d906fdb2df09e81959a81455e260799a0632f8301901d600281810b9083900b14613e6e57886001600160a01b0316613e5382613f44565b6001600160a01b03161115613e685781613e70565b80613e70565b815b9998505050505050505050565b613ec4838383604051602401613e9593929190615549565b60408051601f198184030181529190526020810180516001600160e01b031663969cdd0360e01b1790526145f0565b505050565b600060c0613ee06001600160a01b03841680614d35565b613ef290670de0b6b3a7640000614d35565b901c92915050565b6040516024810183905260448101829052613f409060640160408051601f198184030181529190526020810180516001600160e01b031662d81ed360e71b1790526145f0565b5050565b60008060008360020b12613f5b578260020b613f63565b8260020b6000035b9050620d89e8811115613f89576040516315e4079d60e11b815260040160405180910390fd5b600081600116600003613fa057600160801b613fb2565b6ffffcb933bd6fad37aa2d162d1a5940015b70ffffffffffffffffffffffffffffffffff1690506002821615613fe6576ffff97272373d413259a46990580e213a0260801c5b6004821615614005576ffff2e50f5f656932ef12357cf3c7fdcc0260801c5b6008821615614024576fffe5caca7e10e4e61c3624eaa0941cd00260801c5b6010821615614043576fffcb9843d60f6159c9db58835c9266440260801c5b6020821615614062576fff973b41fa98c081472e6896dfb254c00260801c5b6040821615614081576fff2ea16466c96a3843ec78b326b528610260801c5b60808216156140a0576ffe5dee046a99a2a811c461f1969c30530260801c5b6101008216156140c0576ffcbe86c7900a88aedcffc83b479aa3a40260801c5b6102008216156140e0576ff987a7253ac413176f2b074cf7815e540260801c5b610400821615614100576ff3392b0822b70005940c7a398e4b70f30260801c5b610800821615614120576fe7159475a2c29b7443b29c7fa6e889d90260801c5b611000821615614140576fd097f3bdfd2022b8845ad8f792aa58250260801c5b612000821615614160576fa9f746462d870fdf8a65dc1f90e061e50260801c5b614000821615614180576f70d869a156d2a1b890bb3df62baf32f70260801c5b6180008216156141a0576f31be135f97d08fd981231505542fcfa60260801c5b620100008216156141c1576f09aa508b5b7a84e1c677de54f3e99bc90260801c5b620200008216156141e1576e5d6af8dedb81196699c329225ee6040260801c5b62040000821615614200576d2216e584f5fa1ea926041bedfe980260801c5b6208000082161561421d576b048a170391f7dc42444e8fa20260801c5b60008460020b131561423e57806000198161423a5761423a614d7e565b0490505b640100000000810615614252576001614255565b60005b60ff16602082901c0192505050919050565b60008082600f0b12156142d4576001600160801b03831661428783614fa8565b614291908561556e565b9150816001600160801b0316106142cf5760405162461bcd60e51b81526020600482015260026024820152614c5360f01b6044820152606401610891565b6106a3565b6001600160801b0383166142e8838561558e565b9150816001600160801b031610156106a35760405162461bcd60e51b81526020600482015260026024820152614c4160f01b6044820152606401610891565b60008183111561433757816105be565b5090919050565b6143878484848460405160240161435894939291906155ae565b60408051601f198184030181529190526020810180516001600160e01b03166304772b3360e11b1790526145f0565b50505050565b6000826001600160a01b0316846001600160a01b031611156143ad579192915b60006143d0856001600160a01b0316856001600160a01b0316600160601b613ac6565b90506143f76143f284836143e489896155dd565b6001600160a01b0316613ac6565b614611565b95945050505050565b6000826001600160a01b0316846001600160a01b03161115614420579192915b6105bb6143f283600160601b6143e488886155dd565b613f40828260405160240161444c9291906155fd565b60408051601f198184030181529190526020810180516001600160e01b03166309710a9d60e41b1790526145f0565b6000836001600160a01b0316856001600160a01b0316111561449b579293925b816144c8576144c3836001600160801b03168686036001600160a01b0316600160601b613ac6565b6143f7565b6143f7836001600160801b03168686036001600160a01b0316600160601b61462c565b6000836001600160a01b0316856001600160a01b0316111561450b579293925b6fffffffffffffffffffffffffffffffff60601b606084901b166001600160a01b03868603811690871661453e57600080fd5b8361457457866001600160a01b03166145618383896001600160a01b0316613ac6565b8161456e5761456e614d7e565b046145a0565b6145a061458b8383896001600160a01b031661462c565b886001600160a01b0316808204910615150190565b979650505050505050565b614387848484846040516024016145c5949392919061561f565b60408051601f198184030181529190526020810180516001600160e01b0316630bb7fe0760e31b1790525b80516a636f6e736f6c652e6c6f67602083016000808483855afa5050505050565b806001600160801b038116811461462757600080fd5b919050565b6000614639848484613ac6565b90506000828061464b5761464b614d7e565b84860911156105be57600019811061466257600080fd5b6001019392505050565b6040805161014081018252600080825260208201819052918101829052606081018290526080810182905260a0810182905260c0810182905260e08101829052610100810182905261012081019190915290565b60405180610300016040528060008152602001600081526020016000815260200160006001600160a01b03168152602001600060020b815260200160006001600160801b0316815260200160006001600160a01b0316815260200160006001600160a01b0316815260200160006001600160a01b03168152602001600081526020016000815260200161475161466c565b815260200160006001600160a01b0316815260200160008152602001600060020b8152602001600060020b8152602001600060020b81526020016000815260200160008152602001600081526020016000815260200160006001600160801b0316815260200160608152602001606081525090565b6001600160a01b03811681146147db57600080fd5b50565b80151581146147db57600080fd5b60008060006060848603121561480157600080fd5b833561480c816147c6565b9250602084013591506040840135614823816147de565b809150509250925092565b6000806040838503121561484157600080fd5b823561484c816147c6565b946020939093013593505050565b8051825260208101516020830152604081015160408301526060810151614886606084018260020b9052565b5060808101516148a160808401826001600160801b03169052565b5060a08101516148b560a084018215159052565b5060c08101516148cd60c084018263ffffffff169052565b5060e08101516148e560e084018263ffffffff169052565b50610100808201516148fb8285018260020b9052565b5050610120808201516143878285018260020b9052565b61014081016106a3828461485a565b60006020828403121561493357600080fd5b81356105be816147c6565b8060020b81146147db57600080fd5b6000806040838503121561496057600080fd5b823561496b8161493e565b9150602083013561497b816147de565b809150509250929050565b60008060006060848603121561499b57600080fd5b83356149a6816147de565b95602085013595506040909401359392505050565b6000602082840312156149cd57600080fd5b5035919050565b6001600160801b03811681146147db57600080fd5b6000806000606084860312156149fe57600080fd5b8335614a098161493e565b92506020840135614a19816147de565b91506040840135614823816149d4565b60008060008060808587031215614a3f57600080fd5b8435935060208501359250604085013591506060850135614a5f816147de565b939692955090935050565b6101808101614a79828661485a565b6101408201939093526101600152919050565b634e487b7160e01b600052604160045260246000fd5b604051608081016001600160401b0381118282101715614ac457614ac4614a8c565b60405290565b604051601f8201601f191681016001600160401b0381118282101715614af257614af2614a8c565b604052919050565b60006001600160401b03821115614b1357614b13614a8c565b5060051b60200190565b60008060008060008060c08789031215614b3657600080fd5b8635614b418161493e565b9550602087810135614b528161493e565b955060408801359450606088013593506080880135614b70816147de565b925060a08801356001600160401b03811115614b8b57600080fd5b8801601f81018a13614b9c57600080fd5b8035614baf614baa82614afa565b614aca565b81815260059190911b8201830190838101908c831115614bce57600080fd5b928401925b82841015614bec57833582529284019290840190614bd3565b80955050505050509295509295509295565b60008083601f840112614c1057600080fd5b5081356001600160401b03811115614c2757600080fd5b602083019150836020828501011115614c3f57600080fd5b9250929050565b60008060008060608587031215614c5c57600080fd5b843593506020850135925060408501356001600160401b03811115614c8057600080fd5b614c8c87828801614bfe565b95989497509550505050565b600080600060608486031215614cad57600080fd5b833592506020840135614cbf816147c6565b929592945050506040919091013590565b6020808252825182820181905260009190848201906040850190845b81811015614d1357614cff83855161485a565b928401926101409290920191600101614cec565b50909695505050505050565b634e487b7160e01b600052601160045260246000fd5b80820281158282048414176106a3576106a3614d1f565b6001600160a01b03828116828216818102831692918115828504821417614d7557614d75614d1f565b50505092915050565b634e487b7160e01b600052601260045260246000fd5b60006001600160a01b0383811680614dae57614dae614d7e565b92169190910492915050565b60609290921b6bffffffffffffffffffffffff19168252601482015260340190565b60008160020b8360020b80614df357614df3614d7e565b627fffff19821460001982141615614e0d57614e0d614d1f565b90059392505050565b600281810b9083900b01627fffff8113627fffff19821217156106a3576106a3614d1f565b60008260020b8260020b028060020b9150808214614e5b57614e5b614d1f565b5092915050565b808201808211156106a3576106a3614d1f565b805161ffff8116811461462757600080fd5b600080600080600080600060e0888a031215614ea257600080fd5b8751614ead816147c6565b6020890151909750614ebe8161493e565b9550614ecc60408901614e75565b9450614eda60608901614e75565b9350614ee860808901614e75565b925060a088015160ff81168114614efe57600080fd5b60c0890151909250614f0f816147de565b8091505092959891949750929550565b818103818111156106a3576106a3614d1f565b600060208284031215614f4457600080fd5b81516105be816149d4565b600060208284031215614f6157600080fd5b815180600f0b81146105be57600080fd5b600f82810b9082900b036f7fffffffffffffffffffffffffffffff19811260016001607f1b03821317156106a3576106a3614d1f565b600081600f0b60016001607f1b03198103614fc557614fc5614d1f565b60000392915050565b600282810b9082900b03627fffff198112627fffff821317156106a3576106a3614d1f565b6101408082528551908201819052600090610160830190602090818901845b8281101561505a578151805160020b8652848101516001600160801b031685870152604080820151908701526060908101519086015260809094019390830190600101615012565b5050508192506150c38185018880518252602080820151908301526040808201516001600160a01b03169083015260608082015160020b908301526080808201519083015260a0808201516001600160801b039081169184019190915260c09182015116910152565b50508315156101008301526001600160a01b03831661012083015295945050505050565b600060e082840312156150f957600080fd5b60405160e081018181106001600160401b038211171561511b5761511b614a8c565b80604052508091508251815260208301516020820152604083015161513f816147c6565b604082015260608301516151528161493e565b60608201526080838101519082015260a083015161516f816149d4565b60a082015260c0830151615182816149d4565b60c0919091015292915050565b60008061010083850312156151a357600080fd5b82516001600160401b038111156151b957600080fd5b8301601f810185136151ca57600080fd5b805160206151da614baa83614afa565b82815260079290921b830181019181810190888411156151f957600080fd5b938201935b83851015615262576080858a0312156152175760008081fd5b61521f614aa2565b855161522a8161493e565b815285840151615239816149d4565b8185015260408681015190820152606080870151908201528252608090940193908201906151fe565b95506152729050878783016150e7565b93505050509250929050565b634e487b7160e01b600052603260045260246000fd5b6000816152a3576152a3614d1f565b506000190190565b6000600182016152bd576152bd614d1f565b5060010190565b6000826152d3576152d3614d7e565b500490565b6000602082840312156152ea57600080fd5b5051919050565b6000806040838503121561530457600080fd5b825161530f8161493e565b602084015190925061497b816147de565b6001600160a01b039384168152919092166020820152604081019190915260600190565b60006020828403121561535657600080fd5b81516105be816147de565b6020808252600490820152630858dbdb60e21b604082015260600190565b6000815180845260005b818110156153a557602081850181015186830182015201615389565b506000602082860101526020601f19601f83011685010191505092915050565b6001600160a01b0386811682528515156020830152604082018590528316606082015260a0608082018190526000906145a09083018461537f565b6000806040838503121561541357600080fd5b505080516020909101519092909150565b6000600160ff1b820161543957615439614d1f565b5060000390565b600060a082018760020b835260208760020b8185015286604085015260a0606085015281865180845260c086019150828801935060005b8181101561549357845183529383019391830191600101615477565b505080935050505082151560808301529695505050505050565b600080604083850312156154c057600080fd5b825191506020808401516001600160401b038111156154de57600080fd5b8401601f810186136154ef57600080fd5b80516154fd614baa82614afa565b81815260059190911b8201830190838101908883111561551c57600080fd5b928401925b8284101561553a57835182529284019290840190615521565b80955050505050509250929050565b60608152600061555c606083018661537f565b60208301949094525060400152919050565b6001600160801b03828116828216039080821115614e5b57614e5b614d1f565b6001600160801b03818116838216019080821115614e5b57614e5b614d1f565b6080815260006155c1608083018761537f565b6020830195909552506040810192909252606090910152919050565b6001600160a01b03828116828216039080821115614e5b57614e5b614d1f565b604081526000615610604083018561537f565b90508260208301529392505050565b608081526000615632608083018761537f565b941515602083015250604081019290925260609091015291905056fea264697066735822122031e227114cbe122cc172f214f4462359766993ea099e302e2d3ba282e99d7ebd64736f6c63430008110033",
    "linkReferences": {}
  },
  "methodIdentifiers": {
    "INTEREST_REPLENISH_TIME()": "9aa886da",
    "applySlippageX96(uint160,uint256,bool)": "207b0576",
    "borrow(bool,int256,uint256)": "40f6ea54",
    "closeMaxSlippage()": "6ef83ef7",
    "closePosition(uint256,address,uint256)": "d8b83f3a",
    "createLevPosition(uint256,uint256,uint256,bool)": "946e986c",
    "getAllPositions(address)": "fb11e969",
    "getNextTick(int24,bool,uint128)": "80753d27",
    "getPosition(address,uint256)": "3adbb5af",
    "isLiquidatable(address,uint256)": "3fdfb2aa",
    "liquidityManager()": "33827438",
    "nonce()": "affed0e0",
    "payPremium(address,uint256)": "bc2704bf",
    "payPremiumToPool(int24,int24,uint256,uint256,bool,uint256[])": "a9de6d6c",
    "pool()": "16f0115b",
    "positions(bytes32)": "514ea4bf",
    "precision()": "d3b5dc3b",
    "roundTick(int24,bool)": "3dc306ee",
    "setLiquidityManager(address)": "3c1624d4",
    "tickSpacing()": "d0c93a7c",
    "token0()": "0dfe1681",
    "token1()": "d21220a7",
    "uniswapV3MintCallback(uint256,uint256,bytes)": "d3487997",
    "uniswapV3SwapCallback(int256,int256,bytes)": "fa461e33",
    "userpositions(address,uint256)": "54d771e6"
  },
  "id": 23
}