{
  "abi": [
    {
      "inputs": [],
      "stateMutability": "nonpayable",
      "type": "constructor"
    },
    {
      "inputs": [],
      "name": "T",
      "type": "error"
    },
    {
      "inputs": [
        {
          "internalType": "uint256",
          "name": "traderFund",
          "type": "uint256"
        },
        {
          "internalType": "uint256",
          "name": "maxSlippage",
          "type": "uint256"
        },
        {
          "internalType": "uint256",
          "name": "borrowAmount",
          "type": "uint256"
        },
        {
          "internalType": "bool",
          "name": "isToken0",
          "type": "bool"
        }
      ],
      "name": "addPosition",
      "outputs": [
        {
          "components": [
            {
              "internalType": "bool",
              "name": "isBorrow",
              "type": "bool"
            },
            {
              "internalType": "address",
              "name": "pool",
              "type": "address"
            },
            {
              "internalType": "uint256",
              "name": "totalPosition",
              "type": "uint256"
            },
            {
              "internalType": "uint256",
              "name": "totalDebt",
              "type": "uint256"
            },
            {
              "internalType": "uint256",
              "name": "totalDebtInput",
              "type": "uint256"
            },
            {
              "internalType": "uint256",
              "name": "initCollateral",
              "type": "uint256"
            },
            {
              "internalType": "uint128",
              "name": "recentPremium",
              "type": "uint128"
            },
            {
              "internalType": "uint128",
              "name": "totalPremium",
              "type": "uint128"
            },
            {
              "internalType": "uint128",
              "name": "unusedPremium",
              "type": "uint128"
            },
            {
              "internalType": "bool",
              "name": "isToken0",
              "type": "bool"
            },
            {
              "internalType": "uint32",
              "name": "openTime",
              "type": "uint32"
            },
            {
              "internalType": "uint32",
              "name": "repayTime",
              "type": "uint32"
            },
            {
              "components": [
                {
                  "internalType": "int24",
                  "name": "tick",
                  "type": "int24"
                },
                {
                  "internalType": "uint128",
                  "name": "liquidity",
                  "type": "uint128"
                },
                {
                  "internalType": "uint256",
                  "name": "premiumOrUrate",
                  "type": "uint256"
                }
              ],
              "internalType": "struct LiquidityManager.Liquidity[]",
              "name": "borrowInfo",
              "type": "tuple[]"
            }
          ],
          "internalType": "struct GlobalStorage.Position",
          "name": "",
          "type": "tuple"
        },
        {
          "internalType": "uint256",
          "name": "",
          "type": "uint256"
        },
        {
          "internalType": "uint256",
          "name": "",
          "type": "uint256"
        }
      ],
      "stateMutability": "nonpayable",
      "type": "function"
    },
    {
      "inputs": [
        {
          "internalType": "uint256",
          "name": "traderFund",
          "type": "uint256"
        },
        {
          "internalType": "uint256",
          "name": "maxSlippage",
          "type": "uint256"
        },
        {
          "internalType": "uint256",
          "name": "borrowAmount",
          "type": "uint256"
        },
        {
          "internalType": "bool",
          "name": "isToken0",
          "type": "bool"
        },
        {
          "components": [
            {
              "internalType": "int24",
              "name": "tick",
              "type": "int24"
            },
            {
              "internalType": "uint128",
              "name": "liquidity",
              "type": "uint128"
            },
            {
              "internalType": "uint256",
              "name": "premiumOrUrate",
              "type": "uint256"
            }
          ],
          "internalType": "struct LiquidityManager.Liquidity[]",
          "name": "borrowInfo",
          "type": "tuple[]"
        }
      ],
      "name": "addPositionSpecfied",
      "outputs": [
        {
          "components": [
            {
              "internalType": "bool",
              "name": "isBorrow",
              "type": "bool"
            },
            {
              "internalType": "address",
              "name": "pool",
              "type": "address"
            },
            {
              "internalType": "uint256",
              "name": "totalPosition",
              "type": "uint256"
            },
            {
              "internalType": "uint256",
              "name": "totalDebt",
              "type": "uint256"
            },
            {
              "internalType": "uint256",
              "name": "totalDebtInput",
              "type": "uint256"
            },
            {
              "internalType": "uint256",
              "name": "initCollateral",
              "type": "uint256"
            },
            {
              "internalType": "uint128",
              "name": "recentPremium",
              "type": "uint128"
            },
            {
              "internalType": "uint128",
              "name": "totalPremium",
              "type": "uint128"
            },
            {
              "internalType": "uint128",
              "name": "unusedPremium",
              "type": "uint128"
            },
            {
              "internalType": "bool",
              "name": "isToken0",
              "type": "bool"
            },
            {
              "internalType": "uint32",
              "name": "openTime",
              "type": "uint32"
            },
            {
              "internalType": "uint32",
              "name": "repayTime",
              "type": "uint32"
            },
            {
              "components": [
                {
                  "internalType": "int24",
                  "name": "tick",
                  "type": "int24"
                },
                {
                  "internalType": "uint128",
                  "name": "liquidity",
                  "type": "uint128"
                },
                {
                  "internalType": "uint256",
                  "name": "premiumOrUrate",
                  "type": "uint256"
                }
              ],
              "internalType": "struct LiquidityManager.Liquidity[]",
              "name": "borrowInfo",
              "type": "tuple[]"
            }
          ],
          "internalType": "struct GlobalStorage.Position",
          "name": "",
          "type": "tuple"
        },
        {
          "internalType": "uint256",
          "name": "",
          "type": "uint256"
        },
        {
          "internalType": "uint256",
          "name": "",
          "type": "uint256"
        }
      ],
      "stateMutability": "nonpayable",
      "type": "function"
    },
    {
      "inputs": [
        {
          "internalType": "uint160",
          "name": "price",
          "type": "uint160"
        },
        {
          "internalType": "uint256",
          "name": "maxSlippage",
          "type": "uint256"
        },
        {
          "internalType": "bool",
          "name": "down",
          "type": "bool"
        }
      ],
      "name": "applySlippageX96",
      "outputs": [
        {
          "internalType": "uint160",
          "name": "",
          "type": "uint160"
        }
      ],
      "stateMutability": "pure",
      "type": "function"
    },
    {
      "inputs": [
        {
          "internalType": "bool",
          "name": "borrowBelow",
          "type": "bool"
        },
        {
          "internalType": "uint256",
          "name": "amountSpecified",
          "type": "uint256"
        },
        {
          "internalType": "uint256",
          "name": "leverage",
          "type": "uint256"
        }
      ],
      "name": "borrow",
      "outputs": [
        {
          "internalType": "int24",
          "name": "",
          "type": "int24"
        },
        {
          "internalType": "int24",
          "name": "",
          "type": "int24"
        },
        {
          "components": [
            {
              "internalType": "int24",
              "name": "tick",
              "type": "int24"
            },
            {
              "internalType": "uint128",
              "name": "liquidity",
              "type": "uint128"
            },
            {
              "internalType": "uint256",
              "name": "premiumOrUrate",
              "type": "uint256"
            }
          ],
          "internalType": "struct LiquidityManager.Liquidity[]",
          "name": "",
          "type": "tuple[]"
        },
        {
          "internalType": "uint256",
          "name": "",
          "type": "uint256"
        }
      ],
      "stateMutability": "nonpayable",
      "type": "function"
    },
    {
      "inputs": [],
      "name": "closeMaxSlippage",
      "outputs": [
        {
          "internalType": "uint256",
          "name": "",
          "type": "uint256"
        }
      ],
      "stateMutability": "view",
      "type": "function"
    },
    {
      "inputs": [
        {
          "components": [
            {
              "internalType": "int24",
              "name": "tick",
              "type": "int24"
            },
            {
              "internalType": "uint128",
              "name": "liquidity",
              "type": "uint128"
            },
            {
              "internalType": "uint256",
              "name": "premiumOrUrate",
              "type": "uint256"
            }
          ],
          "internalType": "struct LiquidityManager.Liquidity[]",
          "name": "borrowInfo",
          "type": "tuple[]"
        },
        {
          "internalType": "bool",
          "name": "borrowBelow",
          "type": "bool"
        }
      ],
      "name": "getFilledAmount",
      "outputs": [
        {
          "internalType": "uint256",
          "name": "filledAmount",
          "type": "uint256"
        }
      ],
      "stateMutability": "view",
      "type": "function"
    },
    {
      "inputs": [],
      "name": "globalStorage",
      "outputs": [
        {
          "internalType": "contract GlobalStorage",
          "name": "",
          "type": "address"
        }
      ],
      "stateMutability": "view",
      "type": "function"
    },
    {
      "inputs": [],
      "name": "liquidityManager",
      "outputs": [
        {
          "internalType": "contract LiquidityManager",
          "name": "",
          "type": "address"
        }
      ],
      "stateMutability": "view",
      "type": "function"
    },
    {
      "inputs": [
        {
          "internalType": "address",
          "name": "trader",
          "type": "address"
        },
        {
          "internalType": "bool",
          "name": "isToken0",
          "type": "bool"
        }
      ],
      "name": "payPremium",
      "outputs": [
        {
          "internalType": "uint256",
          "name": "",
          "type": "uint256"
        }
      ],
      "stateMutability": "nonpayable",
      "type": "function"
    },
    {
      "inputs": [],
      "name": "pool",
      "outputs": [
        {
          "internalType": "contract UniswapV3Pool",
          "name": "",
          "type": "address"
        }
      ],
      "stateMutability": "view",
      "type": "function"
    },
    {
      "inputs": [],
      "name": "precision",
      "outputs": [
        {
          "internalType": "uint256",
          "name": "",
          "type": "uint256"
        }
      ],
      "stateMutability": "view",
      "type": "function"
    },
    {
      "inputs": [
        {
          "internalType": "bool",
          "name": "isToken0",
          "type": "bool"
        },
        {
          "internalType": "uint256",
          "name": "userSpecifiedSlippage",
          "type": "uint256"
        },
        {
          "internalType": "uint256",
          "name": "reduceAmount",
          "type": "uint256"
        }
      ],
      "name": "reducePosition",
      "outputs": [
        {
          "components": [
            {
              "internalType": "int256",
              "name": "amount0",
              "type": "int256"
            },
            {
              "internalType": "int256",
              "name": "amount1",
              "type": "int256"
            },
            {
              "internalType": "int256",
              "name": "PnL",
              "type": "int256"
            },
            {
              "internalType": "uint256",
              "name": "returnedAmount",
              "type": "uint256"
            },
            {
              "internalType": "uint256",
              "name": "unusedPremium",
              "type": "uint256"
            },
            {
              "internalType": "uint256",
              "name": "premium",
              "type": "uint256"
            }
          ],
          "internalType": "struct ReduceReturn",
          "name": "",
          "type": "tuple"
        }
      ],
      "stateMutability": "nonpayable",
      "type": "function"
    },
    {
      "inputs": [
        {
          "internalType": "int24",
          "name": "tick",
          "type": "int24"
        },
        {
          "internalType": "bool",
          "name": "down",
          "type": "bool"
        }
      ],
      "name": "roundTick",
      "outputs": [
        {
          "internalType": "int24",
          "name": "",
          "type": "int24"
        }
      ],
      "stateMutability": "view",
      "type": "function"
    },
    {
      "inputs": [
        {
          "internalType": "address",
          "name": "ad",
          "type": "address"
        }
      ],
      "name": "setLiquidityManager",
      "outputs": [],
      "stateMutability": "nonpayable",
      "type": "function"
    },
    {
      "inputs": [],
      "name": "tickSpacing",
      "outputs": [
        {
          "internalType": "int24",
          "name": "",
          "type": "int24"
        }
      ],
      "stateMutability": "view",
      "type": "function"
    },
    {
      "inputs": [],
      "name": "token0",
      "outputs": [
        {
          "internalType": "contract ERC20",
          "name": "",
          "type": "address"
        }
      ],
      "stateMutability": "view",
      "type": "function"
    },
    {
      "inputs": [],
      "name": "token1",
      "outputs": [
        {
          "internalType": "contract ERC20",
          "name": "",
          "type": "address"
        }
      ],
      "stateMutability": "view",
      "type": "function"
    },
    {
      "inputs": [
        {
          "internalType": "int256",
          "name": "amount0Delta",
          "type": "int256"
        },
        {
          "internalType": "int256",
          "name": "amount1Delta",
          "type": "int256"
        },
        {
          "internalType": "bytes",
          "name": "data",
          "type": "bytes"
        }
      ],
      "name": "uniswapV3SwapCallback",
      "outputs": [],
      "stateMutability": "nonpayable",
      "type": "function"
    }
  ],
  "bytecode": {
    "object": "0x60e06040523480156200001157600080fd5b50600080336001600160a01b031663890357306040518163ffffffff1660e01b81526004016040805180830381865afa15801562000053573d6000803e3d6000fd5b505050506040513d601f19601f820116820180604052508101906200007991906200023e565b600080546001600160a01b038085166001600160a01b03199283168117909355600180549185169190921617905560408051630dfe168160e01b8152905193955091935091630dfe1681916004808201926020929091908290030181865afa158015620000ea573d6000803e3d6000fd5b505050506040513d601f19601f8201168201806040525081019062000110919062000276565b60008054906101000a90046001600160a01b03166001600160a01b031663d21220a76040518163ffffffff1660e01b8152600401602060405180830381865afa15801562000162573d6000803e3d6000fd5b505050506040513d601f19601f8201168201806040525081019062000188919062000276565b6001600160a01b0390811660c05290811660a052600054604080516334324e9f60e21b81529051919092169163d0c93a7c9160048083019260209291908290030181865afa158015620001df573d6000803e3d6000fd5b505050506040513d601f19601f820116820180604052508101906200020591906200029b565b600290810b608052670de7d1b0f0f10000905550620002c09050565b80516001600160a01b03811681146200023957600080fd5b919050565b600080604083850312156200025257600080fd5b6200025d8362000221565b91506200026d6020840162000221565b90509250929050565b6000602082840312156200028957600080fd5b620002948262000221565b9392505050565b600060208284031215620002ae57600080fd5b81518060020b81146200029457600080fd5b60805160a05160c0516158f6620003ec600039600081816102c801528181610d4f01528181610f7f015281816118720152818161192a01528181611c6b01528181611d050152818161295401528181612a1e01528181612d2c015281816136f7015261383d01526000818161014b01528181610cb801528181611019015281816119af01528181611a6701528181611d5801528181611df201528181612b6301528181612c2d01528181612d52015281816134d701526137a40152600081816102a1015281816107e6015281816108140152818161085201528181610a9301528181610b3201528181612465015281816124cf0152818161273201528181612f1801528181612fa2015281816130c1015281816131a90152818161472c015261477901526158f66000f3fe608060405234801561001057600080fd5b50600436106101165760003560e01c80633e45c92f116100a2578063d0c93a7c11610071578063d0c93a7c1461029c578063d21220a7146102c3578063d3b5dc3b146102ea578063deff1bdc146102f9578063fa461e331461035857600080fd5b80633e45c92f1461024c5780636502072a1461026d5780636ef83ef714610280578063786afbcc1461028957600080fd5b806325350f8e116100e957806325350f8e146101ab57806333827438146101ce5780633c1624d4146101e15780633cd7bca7146102135780633dc306ee1461022657600080fd5b80630d3401ee1461011b5780630dfe16811461014657806316f0115b14610185578063207b057614610198575b600080fd5b61012e610129366004614c72565b61036b565b60405161013d93929190614e1f565b60405180910390f35b61016d7f000000000000000000000000000000000000000000000000000000000000000081565b6040516001600160a01b03909116815260200161013d565b60005461016d906001600160a01b031681565b61016d6101a6366004614e59565b6103c2565b6101be6101b9366004614e9b565b610474565b60405161013d9493929190614ed0565b60035461016d906001600160a01b031681565b6102116101ef366004614f06565b600380546001600160a01b0319166001600160a01b0392909216919091179055565b005b61012e610221366004614f23565b610750565b610239610234366004614f64565b6107de565b60405160029190910b815260200161013d565b61025f61025a366004614f9d565b610881565b60405190815260200161013d565b60015461016d906001600160a01b031681565b61025f60025481565b61025f610297366004614fbb565b610a23565b6102397f000000000000000000000000000000000000000000000000000000000000000081565b61016d7f000000000000000000000000000000000000000000000000000000000000000081565b61025f670de0b6b3a764000081565b61030c610307366004614e9b565b610bae565b60405161013d9190600060c082019050825182526020830151602083015260408301516040830152606083015160608301526080830151608083015260a083015160a083015292915050565b610211610366366004615001565b610c88565b6103736149a4565b6000806103b16040518060a001604052808a81526020018981526020018881526020018715158152602001336001600160a01b031681525085610dd2565b925092509250955095509592505050565b6000806103e06001600160a01b038616670de0b6b3a7640000615096565b905060006103f685670de0b6b3a7640000615096565b9050600061040c670de0b6b3a764000080615096565b9050841561044b5760006104296104248380866116ed565b61179f565b9050816104368286615096565b61044091906150c3565b94505050505061046d565b60006104568361179f565b90508061046383866150c3565b6104409190615096565b9392505050565b60008060606000670de0b6b3a764000085116104c35760405162461bcd60e51b81526020600482015260096024820152683bb937b733903632bb60b91b60448201526064015b60405180910390fd5b6104cb614a12565b60008054906101000a90046001600160a01b03166001600160a01b0316633850c7bd6040518163ffffffff1660e01b815260040160e060405180830381865afa15801561051c573d6000803e3d6000fd5b505050506040513d601f19601f8201168201806040525081019061054091906150f9565b5050505060029190910b60a0840152506001600160a01b0316608082018190526105bf90896105935761057c670de0b6b3a7640000808a6116ed565b61058e90670de0b6b3a7640000615191565b6105b8565b6105a6670de0b6b3a7640000808a6116ed565b6105b890670de0b6b3a76400006151a4565b60006103c2565b6001600160a01b0316610180820181905261060190896105e757670ddd2935029d80006105f1565b670de444324c2a80005b6001600160401b031660006103c2565b6001600160a01b039081166101808301819052600354608084015160405163053ef28b60e01b81528c15156004820152602481019390935283166044830152606482018a90529091169063053ef28b90608401600060405180830381865afa158015610671573d6000803e3d6000fd5b505050506040513d6000823e601f3d908101601f19168201604052610699919081019061525b565b61026085018190526101e0850191909152600291820b6101c085015291900b6101a0830152600054604051637c61444d60e01b81526001600160a01b0390911691637c61444d916106f491908c906001908d906004016152c8565b600060405180830381600087803b15801561070e57600080fd5b505af1158015610722573d6000803e3d6000fd5b50505050806101c00151816101a00151826102600151836101e0015194509450945094505093509350935093565b6107586149a4565b6040805160a08101825286815260208082018790528183018690528415156060830152336080830152825160008082529181019093529182916107ce91836107c8565b604080516060810182526000808252602080830182905292820152825260001990920191018161079b5790505b50610dd2565b9250925092509450945094915050565b60008061080b7f0000000000000000000000000000000000000000000000000000000000000000856152f7565b90508261084d577f000000000000000000000000000000000000000000000000000000000000000061083e826001615331565b6108489190615356565b610877565b6108777f000000000000000000000000000000000000000000000000000000000000000082615356565b9150505b92915050565b60015460405163750ff6b560e01b81523060048201526001600160a01b0384811660248301528315156044830152600092839291169063750ff6b590606401600060405180830381865afa1580156108dd573d6000803e3d6000fd5b505050506040513d6000823e601f3d908101601f191682016040526109059190810190615395565b905060008060008054906101000a90046001600160a01b03166001600160a01b0316633850c7bd6040518163ffffffff1660e01b815260040160e060405180830381865afa15801561095b573d6000803e3d6000fd5b505050506040513d601f19601f8201168201806040525081019061097f91906150f9565b50505050509150915061099183611843565b6003546101808401516040516308e05f8b60e11b81526000926001600160a01b0316916311c0bf16916109c9919086906004016154ba565b602060405180830381865afa1580156109e6573d6000803e3d6000fd5b505050506040513d601f19601f82011682018060405250810190610a0a91906154df565b9050610a198785836000611aa2565b9695505050505050565b6000805b8351811015610ba757838181518110610a4257610a426154f8565b6020026020010151602001516001600160801b031660000315610b95578215610b1557610b04610a8e858381518110610a7d57610a7d6154f8565b602002602001015160000151611e29565b610adf7f0000000000000000000000000000000000000000000000000000000000000000878581518110610ac457610ac46154f8565b602002602001015160000151610ada9190615331565b611e29565b868481518110610af157610af16154f8565b602002602001015160200151600161214c565b610b0e9083615191565b9150610b95565b610b88610b2d858381518110610a7d57610a7d6154f8565b610b637f0000000000000000000000000000000000000000000000000000000000000000878581518110610ac457610ac46154f8565b868481518110610b7557610b756154f8565b6020026020010151602001516001612203565b610b929083615191565b91505b80610b9f8161550e565b915050610a27565b5092915050565b610be76040518060c001604052806000815260200160008152602001600081526020016000815260200160008152602001600081525090565b610bef614a12565b60015460405163750ff6b560e01b815230600482015233602482015286151560448201526001600160a01b039091169063750ff6b590606401600060405180830381865afa158015610c45573d6000803e3d6000fd5b505050506040513d6000823e601f3d908101601f19168201604052610c6d9190810190615395565b610160820152610c7f33858584612273565b95945050505050565b6000610c9682840184614f06565b90506000851315610d385760405163a9059cbb60e01b81526001600160a01b037f0000000000000000000000000000000000000000000000000000000000000000169063a9059cbb90610cef9033908990600401615527565b6020604051808303816000875af1158015610d0e573d6000803e3d6000fd5b505050506040513d601f19601f82011682018060405250810190610d329190615540565b50610dcb565b60405163a9059cbb60e01b81526001600160a01b037f0000000000000000000000000000000000000000000000000000000000000000169063a9059cbb90610d869033908890600401615527565b6020604051808303816000875af1158015610da5573d6000803e3d6000fd5b505050506040513d601f19601f82011682018060405250810190610dc99190615540565b505b5050505050565b610dda6149a4565b600080610de5614a12565b6001546080870151606088015160405163750ff6b560e01b81523060048201526001600160a01b0392831660248201529015156044820152600092919091169063750ff6b590606401600060405180830381865afa158015610e4b573d6000803e3d6000fd5b505050506040513d6000823e601f3d908101601f19168201604052610e739190810190615395565b61014081015190915063ffffffff1615610ece5786606001511515816101200151151514610ece5760405162461bcd60e51b81526020600482015260086024820152676469666620706f7360c01b60448201526064016104ba565b8551600003610f2b57606087015160408801518851610f089291906101b990670de0b6b3a764000090610f018185615191565b91906116ed565b6101e0860152610260850152600290810b6101a08501520b6101c0830152610f47565b610f3e8760600151886040015188613cf1565b61026082018690525b610f5a8261026001518860600151610a23565b82526060870151156110005786516040516323b872dd60e01b81526001600160a01b037f000000000000000000000000000000000000000000000000000000000000000016916323b872dd91610fb791339130919060040161555d565b6020604051808303816000875af1158015610fd6573d6000803e3d6000fd5b505050506040513d601f19601f82011682018060405250810190610ffa9190615540565b50611096565b86516040516323b872dd60e01b81526001600160a01b037f000000000000000000000000000000000000000000000000000000000000000016916323b872dd9161105191339130919060040161555d565b6020604051808303816000875af1158015611070573d6000803e3d6000fd5b505050506040513d601f19601f820116820180604052508101906110949190615540565b505b60008054906101000a90046001600160a01b03166001600160a01b0316633850c7bd6040518163ffffffff1660e01b815260040160e060405180830381865afa1580156110e7573d6000803e3d6000fd5b505050506040513d601f19601f8201168201806040525081019061110b91906150f9565b5050505060029190910b60a0850152506001600160a01b039081166080840152600054606089015160408a01518a51929093169263128acb08923092159161115291615191565b61116a87608001518d602001518e60600151156103c2565b60408051306020820152016040516020818303038152906040526040518663ffffffff1660e01b81526004016111a4959493929190615581565b60408051808303816000875af11580156111c2573d6000803e3d6000fd5b505050506040513d601f19601f820116820180604052508101906111e691906155fb565b61010084015260e08301526060870151801561120f5750815160e083015161120d9061561f565b105b8061123557508660600151158015611235575081516101008301516112339061561f565b105b1561126b5760405162461bcd60e51b81526004016104ba90602080825260049082015263216c697160e01b604082015260600190565b61016081015163ffffffff161561131c576003546040516313804b0d60e11b81526001600160a01b0390911690632700961a906112ac90849060040161563b565b602060405180830381865afa1580156112c9573d6000803e3d6000fd5b505050506040513d601f19601f820116820180604052508101906112ed919061564e565b6001600160801b031661010082015261130581611843565b600060c08201819052610100820181905260e08201525b86606001511561134d578160e001516113349061561f565b816040018181516113459190615191565b905250611371565b81610100015161135c9061561f565b8160400181815161136d9190615191565b9052505b8151606082018051611384908390615191565b905250604087015160808201805161139d908390615191565b905250865160a0820180516113b3908390615191565b9052506060870151151561012082015263ffffffff428116610160830152610140820151166000036113ed5763ffffffff42166101408201525b61018081015151156114b25761026082015161018082015161140e91613eae565b61026083015260608701516114325761142b8261026001516143e6565b6102608301525b600354610260830151604051635b664e4f60e11b81526001600160a01b039092169163b6cc9c9e916114669160040161566b565b600060405180830381865afa158015611483573d6000803e3d6000fd5b505050506040513d6000823e601f3d908101601f191682016040526114ab919081019061567e565b6102608301525b6102608201516101808201526001546040805160808082018352600080546001600160a01b039081168452918c0151821660208401526060808d015115158486015283015291516346bd036360e01b815291909216916346bd03639161151b91906004016156b2565b6020604051808303816000875af115801561153a573d6000803e3d6000fd5b505050506040513d601f19601f8201168201806040525081019061155e91906154df565b506001546040805160a0810182526080808b01516001600160a01b0390811683526060808d0151151560208501526000848601819052548216908401529082018590529151630b19e25960e41b8152919092169163b19e2590916115c591906004016156ef565b6000604051808303816000875af11580156115e4573d6000803e3d6000fd5b505050506040513d6000823e601f3d908101601f1916820160405261160c9190810190615395565b60035461026084015160a08501516040516308e05f8b60e11b81529394506001600160a01b03909216926311c0bf169261164992916004016154ba565b602060405180830381865afa158015611666573d6000803e3d6000fd5b505050506040513d601f19601f8201168201806040525081019061168a91906154df565b6102008301819052608088015160408401516116a7928491611aa2565b808161010001516116d48360800151670de0b6b3a76400008661020001516116ed9092919063ffffffff16565b9196506001600160801b03169450925050509250925092565b6000808060001985870985870292508281108382030391505080600003611726576000841161171b57600080fd5b50829004905061046d565b80841161173257600080fd5b6000848688096000868103871696879004966002600389028118808a02820302808a02820302808a02820302808a02820302808a02820302808a02909103029181900381900460010186841190950394909402919094039290920491909117919091029150509392505050565b60b581600160881b81106117b85760409190911b9060801c5b690100000000000000000081106117d45760209190911b9060401c5b6501000000000081106117ec5760109190911b9060201c5b630100000081106118025760089190911b9060101c5b62010000010260121c80820401600190811c80830401811c80830401811c80830401811c80830401811c80830401811c80830401901c908190048111900390565b60008161010001518260c0015161185a9190615742565b6001600160801b03169050816101200151156119ad577f00000000000000000000000000000000000000000000000000000000000000006001600160a01b031663a9059cbb338461010001516001600160801b03166040518363ffffffff1660e01b81526004016118cc929190615527565b6020604051808303816000875af11580156118eb573d6000803e3d6000fd5b505050506040513d601f19601f8201168201806040525081019061190f9190615540565b5060005460405163a9059cbb60e01b81526001600160a01b037f000000000000000000000000000000000000000000000000000000000000000081169263a9059cbb926119659291909116908590600401615527565b6020604051808303816000875af1158015611984573d6000803e3d6000fd5b505050506040513d601f19601f820116820180604052508101906119a89190615540565b505050565b7f00000000000000000000000000000000000000000000000000000000000000006001600160a01b031663a9059cbb338461010001516001600160801b03166040518363ffffffff1660e01b8152600401611a09929190615527565b6020604051808303816000875af1158015611a28573d6000803e3d6000fd5b505050506040513d601f19601f82011682018060405250810190611a4c9190615540565b5060005460405163a9059cbb60e01b81526001600160a01b037f000000000000000000000000000000000000000000000000000000000000000081169263a9059cbb926119659291909116908590600401615527565b6003546040516313804b0d60e11b81526000916001600160a01b031690632700961a90611ad390879060040161563b565b602060405180830381865afa158015611af0573d6000803e3d6000fd5b505050506040513d601f19601f82011682018060405250810190611b14919061564e565b6080850151909150611b30908490670de0b6b3a76400006116ed565b6001546040805160e080820183526001600160a01b038a811683526101208a01511515602084015260009383018490529254831660608301526001600160801b0385166080830181905260a083015288015193965091169163d9562ec7919060c0820190611b9f908890615762565b6001600160801b03169052604080516001600160e01b031960e085901b16815282516001600160a01b0390811660048301526020840151151560248301529183015115156044820152606083015190911660648201526080820151608482015260a082015160a482015260c09091015160c482015260e401600060405180830381600087803b158015611c3157600080fd5b505af1158015611c45573d6000803e3d6000fd5b5050505083610120015115611d41576040516323b872dd60e01b81526001600160a01b037f000000000000000000000000000000000000000000000000000000000000000016906323b872dd90611ca49033903090889060040161555d565b6020604051808303816000875af1158015611cc3573d6000803e3d6000fd5b505050506040513d601f19601f82011682018060405250810190611ce79190615540565b508115611d3c5760405163a9059cbb60e01b81526001600160a01b037f0000000000000000000000000000000000000000000000000000000000000000169063a9059cbb90610cef9033908690600401615527565b610dcb565b6040516323b872dd60e01b81526001600160a01b037f000000000000000000000000000000000000000000000000000000000000000016906323b872dd90611d919033903090889060040161555d565b6020604051808303816000875af1158015611db0573d6000803e3d6000fd5b505050506040513d601f19601f82011682018060405250810190611dd49190615540565b508115610dcb5760405163a9059cbb60e01b81526001600160a01b037f0000000000000000000000000000000000000000000000000000000000000000169063a9059cbb90610d869033908690600401615527565b60008060008360020b12611e40578260020b611e48565b8260020b6000035b9050620d89e8811115611e6e576040516315e4079d60e11b815260040160405180910390fd5b600081600116600003611e8557600160801b611e97565b6ffffcb933bd6fad37aa2d162d1a5940015b70ffffffffffffffffffffffffffffffffff1690506002821615611ecb576ffff97272373d413259a46990580e213a0260801c5b6004821615611eea576ffff2e50f5f656932ef12357cf3c7fdcc0260801c5b6008821615611f09576fffe5caca7e10e4e61c3624eaa0941cd00260801c5b6010821615611f28576fffcb9843d60f6159c9db58835c9266440260801c5b6020821615611f47576fff973b41fa98c081472e6896dfb254c00260801c5b6040821615611f66576fff2ea16466c96a3843ec78b326b528610260801c5b6080821615611f85576ffe5dee046a99a2a811c461f1969c30530260801c5b610100821615611fa5576ffcbe86c7900a88aedcffc83b479aa3a40260801c5b610200821615611fc5576ff987a7253ac413176f2b074cf7815e540260801c5b610400821615611fe5576ff3392b0822b70005940c7a398e4b70f30260801c5b610800821615612005576fe7159475a2c29b7443b29c7fa6e889d90260801c5b611000821615612025576fd097f3bdfd2022b8845ad8f792aa58250260801c5b612000821615612045576fa9f746462d870fdf8a65dc1f90e061e50260801c5b614000821615612065576f70d869a156d2a1b890bb3df62baf32f70260801c5b618000821615612085576f31be135f97d08fd981231505542fcfa60260801c5b620100008216156120a6576f09aa508b5b7a84e1c677de54f3e99bc90260801c5b620200008216156120c6576e5d6af8dedb81196699c329225ee6040260801c5b620400008216156120e5576d2216e584f5fa1ea926041bedfe980260801c5b62080000821615612102576b048a170391f7dc42444e8fa20260801c5b60008460020b131561212357806000198161211f5761211f6150ad565b0490505b64010000000081061561213757600161213a565b60005b60ff16602082901c0192505050919050565b6000836001600160a01b0316856001600160a01b0316111561216c579293925b600160601b600160e01b03606084901b166001600160a01b03868603811690871661219657600080fd5b836121cc57866001600160a01b03166121b98383896001600160a01b03166116ed565b816121c6576121c66150ad565b046121f8565b6121f86121e38383896001600160a01b03166144cb565b886001600160a01b0316808204910615150190565b979650505050505050565b6000836001600160a01b0316856001600160a01b03161115612223579293925b816122505761224b836001600160801b03168686036001600160a01b0316600160601b6116ed565b610c7f565b610c7f836001600160801b03168686036001600160a01b0316600160601b6144cb565b6122ac6040518060c001604052806000815260200160008152602001600081526020016000815260200160008152602001600081525090565b6000826101600151604001511180156122ce5750816101600151604001518311155b6123005760405162461bcd60e51b8152602060048201526003602482015262706f7360e81b60448201526064016104ba565b60008054906101000a90046001600160a01b03166001600160a01b0316633850c7bd6040518163ffffffff1660e01b815260040160e060405180830381865afa158015612351573d6000803e3d6000fd5b505050506040513d601f19601f8201168201806040525081019061237591906150f9565b5050505060029190910b60a0850152506001600160a01b0390811660808401526101608301516101808101515160608501526003546040516313804b0d60e11b8152921691632700961a916123cc9160040161563b565b602060405180830381865afa1580156123e9573d6000803e3d6000fd5b505050506040513d601f19601f8201168201806040525081019061240d919061564e565b610160830180516001600160801b03909216610100909201919091525161012001516124b0906124635782610160015161018001516001846060015161245391906151a4565b81518110610a7d57610a7d6154f8565b7f00000000000000000000000000000000000000000000000000000000000000008361016001516101800151600185606001516124a091906151a4565b81518110610ac457610ac46154f8565b6001600160a01b031660c08301526101608201516101200151612526577f0000000000000000000000000000000000000000000000000000000000000000826101600151610180015160008151811061250b5761250b6154f8565b6020026020010151600001516125219190615331565b612550565b8161016001516101800151600081518110612543576125436154f8565b6020026020010151600001515b60020b6101a083015261016082015160400151612578908490670de0b6b3a7640000906116ed565b602083015261016082015161012001516125af578160c001516001600160a01b031682608001516001600160a01b031611156125ce565b8160c001516001600160a01b031682608001516001600160a01b031610155b15612cb357600054610160830151610120015160808401516001600160a01b039092169163128acb089130918790612607908a846103c2565b60408051306020820152016040516020818303038152906040526040518663ffffffff1660e01b8152600401612641959493929190615581565b60408051808303816000875af115801561265f573d6000803e3d6000fd5b505050506040513d601f19601f8201168201806040525081019061268391906155fb565b61010084015260e0830152600354600160a01b900460ff16156128585760008060009054906101000a90046001600160a01b03166001600160a01b0316633850c7bd6040518163ffffffff1660e01b815260040160e060405180830381865afa1580156126f4573d6000803e3d6000fd5b505050506040513d601f19601f8201168201806040525081019061271891906150f9565b50505050509150508261016001516101200151156127e1577f000000000000000000000000000000000000000000000000000000000000000083610160015161018001516001856060015161276d91906151a4565b8151811061277d5761277d6154f8565b6020026020010151600001516127939190615331565b60020b8160020b12156127dc5760405162461bcd60e51b8152602060048201526011602482015270747261646520626f756e64206661696c3160781b60448201526064016104ba565b612856565b8261016001516101800151600184606001516127fd91906151a4565b8151811061280d5761280d6154f8565b60200260200101516000015160020b8160020b13156128565760405162461bcd60e51b81526020600482015260056024820152646661696c3160d81b60448201526064016104ba565b505b60208201516101608301516080015160009161287d9190670de0b6b3a76400006116ed565b9050826101600151610120015115612aa2578083610160015161010001516001600160801b03168461010001516128b39061561f565b6128bd9190615191565b10156128db5760405162461bcd60e51b81526004016104ba90615782565b8261010001516128ea9061561f565b811061291b576101008084015161016085015190910180519183016001600160801b03928316039091169052612a04565b8083610100015161292b9061561f565b61293591906157a0565b610120840181905260405163a9059cbb60e01b81526001600160a01b037f0000000000000000000000000000000000000000000000000000000000000000169163a9059cbb91612989918a91600401615527565b6020604051808303816000875af11580156129a8573d6000803e3d6000fd5b505050506040513d601f19601f820116820180604052508101906129cc9190615540565b50602083015161016084015160a001516129ee91670de0b6b3a76400006116ed565b8361012001818151612a0091906157a0565b9052505b60005460405163a9059cbb60e01b81526001600160a01b037f000000000000000000000000000000000000000000000000000000000000000081169263a9059cbb92612a599291909116908590600401615527565b6020604051808303816000875af1158015612a78573d6000803e3d6000fd5b505050506040513d601f19601f82011682018060405250810190612a9c9190615540565b50612cad565b8083610160015161010001516001600160801b03168460e00151612ac59061561f565b612acf9190615191565b1015612aed5760405162461bcd60e51b81526004016104ba90615782565b8260e00151612afb9061561f565b8110612b2b5760e08301516101608401516101000180519183016001600160801b03928316039091169052612c13565b808360e00151612b3a9061561f565b612b4491906157a0565b610120840181905260405163a9059cbb60e01b81526001600160a01b037f0000000000000000000000000000000000000000000000000000000000000000169163a9059cbb91612b98918a91600401615527565b6020604051808303816000875af1158015612bb7573d6000803e3d6000fd5b505050506040513d601f19601f82011682018060405250810190612bdb9190615540565b50602083015161016084015160a00151612bfd91670de0b6b3a76400006116ed565b8361012001818151612c0f91906157a0565b9052505b60005460405163a9059cbb60e01b81526001600160a01b037f000000000000000000000000000000000000000000000000000000000000000081169263a9059cbb92612c689291909116908590600401615527565b6020604051808303816000875af1158015612c87573d6000803e3d6000fd5b505050506040513d601f19601f82011682018060405250810190612cab9190615540565b505b506138bf565b8161016001516101200151612ced57612cd0826101a00151611e29565b6001600160a01b031682608001516001600160a01b031611612d14565b612cfb826101a00151611e29565b6001600160a01b031682608001516001600160a01b0316105b15612eb95760008261016001516101200151612d50577f0000000000000000000000000000000000000000000000000000000000000000612d72565b7f00000000000000000000000000000000000000000000000000000000000000005b602084015161016085015160600151919250600091612d9991670de0b6b3a76400006116ed565b905083610160015160a00151612dae9061561f565b610120850152612dbe81866151a4565b61014085015260005460405163a9059cbb60e01b81526001600160a01b038481169263a9059cbb92612df892909116908590600401615527565b6020604051808303816000875af1158015612e17573d6000803e3d6000fd5b505050506040513d601f19601f82011682018060405250810190612e3b9190615540565b5061014084015160405163a9059cbb60e01b81526001600160a01b0384169163a9059cbb91612e6e918b91600401615527565b6020604051808303816000875af1158015612e8d573d6000803e3d6000fd5b505050506040513d601f19601f82011682018060405250810190612eb19190615540565b5050506138bf565b60008060005b846101600151610180015151811015613235578460a0015160020b85610160015161018001518281518110612ef657612ef66154f8565b60200260200101516000015160020b13158015612f6e57508460a0015160020b7f000000000000000000000000000000000000000000000000000000000000000086610160015161018001518381518110612f5357612f536154f8565b602002602001015160000151612f699190615331565b60020b135b15613057576000806130338760800151612f9d89610160015161018001518681518110610a7d57610a7d6154f8565b612fdd7f00000000000000000000000000000000000000000000000000000000000000008b610160015161018001518881518110610ac457610ac46154f8565b61302e8b60200151670de0b6b3a76400008d610160015161018001518a8151811061300a5761300a6154f8565b6020026020010151602001516001600160801b03166116ed9092919063ffffffff16565b61450b565b90925090506130428286615191565b945061304e8185615191565b93505050613223565b6130668560a0015160016107de565b60020b85610160015161018001518281518110613085576130856154f8565b60200260200101516000015160020b121561313f5761312e6130bc86610160015161018001518381518110610a7d57610a7d6154f8565b6130fc7f000000000000000000000000000000000000000000000000000000000000000088610160015161018001518581518110610ac457610ac46154f8565b6131298860200151670de0b6b3a76400008a61016001516101800151878151811061300a5761300a6154f8565b6145a7565b6131389083615191565b9150613223565b61314e8560a0015160006107de565b60020b8561016001516101800151828151811061316d5761316d6154f8565b60200260200101516000015160020b1315613223576132166131a486610160015161018001518381518110610a7d57610a7d6154f8565b6131e47f000000000000000000000000000000000000000000000000000000000000000088610160015161018001518581518110610ac457610ac46154f8565b6132118860200151670de0b6b3a76400008a61016001516101800151878151811061300a5761300a6154f8565b6145f9565b6132209084615191565b92505b8061322d8161550e565b915050612ebf565b5060005461016085015161012001516001600160a01b039091169063128acb089030908061326b576132668661561f565b613274565b6132748561561f565b61328d89608001518c8b610160015161012001516103c2565b60408051306020820152016040516020818303038152906040526040518663ffffffff1660e01b81526004016132c7959493929190615581565b60408051808303816000875af11580156132e5573d6000803e3d6000fd5b505050506040513d601f19601f8201168201806040525081019061330991906155fb565b61010086015260e08501526101608401516101200151156135555760e084015161333390866151a4565b82111561349d5760006133568560800151888761016001516101200151156103c2565b905060008060008054906101000a90046001600160a01b03166001600160a01b031663128acb08308961016001516101200151158a60e001518c61339a91906151a4565b6133a4908a6151a4565b6133ad9061561f565b604080513060208201528991016040516020818303038152906040526040518663ffffffff1660e01b81526004016133e9959493929190615581565b60408051808303816000875af1158015613407573d6000803e3d6000fd5b505050506040513d601f19601f8201168201806040525081019061342b91906155fb565b915091508087610160015161010001516001600160801b031610156134625760405162461bcd60e51b81526004016104ba90615782565b610160870180516101000180516001600160801b039081168490031690525160a0015161348e9061561f565b61012088015250613771915050565b818460e00151866134ae91906151a4565b6134b891906151a4565b610140850181905260405163a9059cbb60e01b81526001600160a01b037f0000000000000000000000000000000000000000000000000000000000000000169163a9059cbb9161350c918b91600401615527565b6020604051808303816000875af115801561352b573d6000803e3d6000fd5b505050506040513d601f19601f8201168201806040525081019061354f9190615540565b50613771565b61010084015161356590866151a4565b8111156136bc5760006135888560800151888761016001516101200151156103c2565b905060008060008054906101000a90046001600160a01b03166001600160a01b031663128acb08308961016001516101200151158a61010001518c6135cd91906151a4565b6135d790896151a4565b6135e09061561f565b604080513060208201528991016040516020818303038152906040526040518663ffffffff1660e01b815260040161361c959493929190615581565b60408051808303816000875af115801561363a573d6000803e3d6000fd5b505050506040513d601f19601f8201168201806040525081019061365e91906155fb565b915091508187610160015161010001516001600160801b031610156136955760405162461bcd60e51b81526004016104ba90615782565b506101608601516101000180516001600160801b0390811692909203909116905250613771565b80846101000151866136ce91906151a4565b6136d891906151a4565b610140850181905260405163a9059cbb60e01b81526001600160a01b037f0000000000000000000000000000000000000000000000000000000000000000169163a9059cbb9161372c918b91600401615527565b6020604051808303816000875af115801561374b573d6000803e3d6000fd5b505050506040513d601f19601f8201168201806040525081019061376f9190615540565b505b83610160015160a001516137849061561f565b61012085015260005460405163a9059cbb60e01b81526001600160a01b037f000000000000000000000000000000000000000000000000000000000000000081169263a9059cbb926137df9291909116908690600401615527565b6020604051808303816000875af11580156137fe573d6000803e3d6000fd5b505050506040513d601f19601f820116820180604052508101906138229190615540565b5060005460405163a9059cbb60e01b81526001600160a01b037f000000000000000000000000000000000000000000000000000000000000000081169263a9059cbb926138789291909116908590600401615527565b6020604051808303816000875af1158015613897573d6000803e3d6000fd5b505050506040513d601f19601f820116820180604052508101906138bb9190615540565b5050505b6000546101608301516101800151602084015160405163e9f4fcf360e01b81526001600160a01b039093169263e9f4fcf3926138ff9290916004016157c0565b600060405180830381600087803b15801561391957600080fd5b505af115801561392d573d6000803e3d6000fd5b5050505061393f826101600151611843565b6101608201516101008101516001600160801b03166040808501919091520151831015613be55761016082018051600060e0909101819052815161010001819052815160c0015251604001805184919061399a9083906151a4565b9052506101608201516101208101516101809091015160208401516139d29291906139cd90670de0b6b3a76400006151a4565b614663565b6101608401516080810191909152606001526020820151613a18906139ff90670de0b6b3a76400006151a4565b61016084015160a0015190670de0b6b3a76400006116ed565b6101608301805160a0908101929092526001546040805193840181526001600160a01b0389811685528351610120015115156020860152600085830181905254811660608601529251608085015251630850d0e960e01b8152911691630850d0e991613a8791906004016156ef565b600060405180830381600087803b158015613aa157600080fd5b505af1158015613ab5573d6000803e3d6000fd5b50506003546101608501516101800151604051635b664e4f60e11b81526001600160a01b03909216935063b6cc9c9e9250613af29160040161566b565b600060405180830381865afa158015613b0f573d6000803e3d6000fd5b505050506040513d6000823e601f3d908101601f19168201604052613b37919081019061567e565b610160830180516101809081019290925260035490519091015160a08401516040516308e05f8b60e11b81526001600160a01b03909316926311c0bf1692613b839290916004016154ba565b602060405180830381865afa158015613ba0573d6000803e3d6000fd5b505050506040513d601f19601f82011682018060405250810190613bc491906154df565b6102008301819052610160830151613be0918791906000611aa2565b613c7b565b60015460408051608081018252600080546001600160a01b0390811683528981166020840152610160870151610120015115158385015260608301919091529151633a5177df60e01b81529190921691633a5177df91613c4891906004016156b2565b600060405180830381600087803b158015613c6257600080fd5b505af1158015613c76573d6000803e3d6000fd5b505050505b6040518060c001604052808360e00151815260200183610100015181526020018361012001518152602001836101400151815260200183604001518152602001613ce684610160015160800151670de0b6b3a76400008661020001516116ed9092919063ffffffff16565b905295945050505050565b613cfc818415610a23565b8214613d305760405162461bcd60e51b8152602060048201526003602482015262696e6360e81b60448201526064016104ba565b600354604051631542428b60e31b815260009182916001600160a01b039091169063aa12145890613d6590869060040161566b565b600060405180830381865afa158015613d82573d6000803e3d6000fd5b505050506040513d6000823e601f3d908101601f19168201604052613daa91908101906157e2565b9150915081613de45760405162461bcd60e51b81526004016104ba90602080825260049082015263216c697160e01b604082015260600190565b60005b8151811015613e3d57818181518110613e0257613e026154f8565b6020026020010151848281518110613e1c57613e1c6154f8565b60209081029190910101516040015280613e358161550e565b915050613de7565b50600054604051637c61444d60e01b81526001600160a01b0390911690637c61444d90613e7590869089906001908a906004016152c8565b600060405180830381600087803b158015613e8f57600080fd5b505af1158015613ea3573d6000803e3d6000fd5b505050505050505050565b81518151606091906000613ec28284615191565b90506000816001600160401b03811115613ede57613ede614aef565b604051908082528060200260200182016040528015613f2957816020015b6040805160608101825260008082526020808301829052928201528252600019909201910181613efc5790505b50905060008060005b8683108015613f4057508582105b1561413f57888281518110613f5757613f576154f8565b60200260200101516000015160020b8a8481518110613f7857613f786154f8565b60200260200101516000015160020b1215613fd757898381518110613f9f57613f9f6154f8565b6020026020010151848281518110613fb957613fb96154f8565b60200260200101819052508280613fcf9061550e565b93505061412d565b888281518110613fe957613fe96154f8565b60200260200101516000015160020b8a848151811061400a5761400a6154f8565b60200260200101516000015160020b131561406957888281518110614031576140316154f8565b602002602001015184828151811061404b5761404b6154f8565b602002602001018190525081806140619061550e565b92505061412d565b60405180606001604052808b8581518110614086576140866154f8565b60200260200101516000015160020b81526020018a84815181106140ac576140ac6154f8565b6020026020010151602001518c86815181106140ca576140ca6154f8565b6020026020010151602001516140e09190615762565b6001600160801b031681526020016000815250848281518110614105576141056154f8565b6020026020010181905250828061411b9061550e565b93505081806141299061550e565b9250505b806141378161550e565b915050613f32565b8683101561419f57898381518110614159576141596154f8565b6020026020010151848281518110614173576141736154f8565b602002602001018190525082806141899061550e565b93505080806141979061550e565b91505061413f565b858210156141ff578882815181106141b9576141b96154f8565b60200260200101518482815181106141d3576141d36154f8565b602002602001018190525081806141e99061550e565b92505080806141f79061550e565b91505061419f565b60008093505b8584101561433957600061421a856001615191565b93505b868410156142db57858481518110614237576142376154f8565b60200260200101516000015160020b868681518110614258576142586154f8565b60200260200101516000015160020b036142c95760019050858481518110614282576142826154f8565b6020026020010151602001518686815181106142a0576142a06154f8565b60200260200101516020018181516142b89190615762565b6001600160801b03169052506142db565b836142d38161550e565b94505061421d565b80614326578585815181106142f2576142f26154f8565b602002602001015186838151811061430c5761430c6154f8565b602002602001018190525081806143229061550e565b9250505b50836143318161550e565b945050614205565b80855261435285600061434d6001856151a4565b614805565b60028111156143d757600093505b61436b6001826151a4565b8410156143c6578461437e856001615191565b8151811061438e5761438e6154f8565b60200260200101518585815181106143a8576143a86154f8565b602002602001018190525083806143be9061550e565b945050614360565b806143d081615889565b9150508085525b50929998505050505050505050565b80516060906000816001600160401b0381111561440557614405614aef565b60405190808252806020026020018201604052801561445057816020015b60408051606081018252600080825260208083018290529282015282526000199092019101816144235790505b5090506000825b600181106144c1578561446b6001836151a4565b8151811061447b5761447b6154f8565b6020026020010151838381518110614495576144956154f8565b602002602001018190525081806144ab9061550e565b92505080806144b990615889565b915050614457565b5090949350505050565b60006144d88484846116ed565b9050600082806144ea576144ea6150ad565b848609111561046d57600019811061450157600080fd5b6001019392505050565b600080836001600160a01b0316856001600160a01b0316111561452c579293925b846001600160a01b0316866001600160a01b031611614557576145508585856145f9565b915061459e565b836001600160a01b0316866001600160a01b031610156145905761457c8685856145f9565b91506145898587856145a7565b905061459e565b61459b8585856145a7565b90505b94509492505050565b6000826001600160a01b0316846001600160a01b031611156145c7579192915b6145f16001600160801b0383166145de86866158a0565b6001600160a01b0316600160601b6116ed565b949350505050565b6000826001600160a01b0316846001600160a01b03161115614619579192915b6001600160a01b038416614659600160601b600160e01b03606085901b1661464187876158a0565b6001600160a01b0316866001600160a01b03166116ed565b6145f191906150c3565b60008060008060005b86518110156147fa57868181518110614687576146876154f8565b6020026020010151602001516001600160801b0316600003156147e8578681815181106146b6576146b66154f8565b60200260200101516000015191506146e386670de0b6b3a764000089848151811061300a5761300a6154f8565b9250828782815181106146f8576146f86154f8565b6020908102919091018101516001600160801b0390921691015287156147b75761475961472483611e29565b614751610ada7f000000000000000000000000000000000000000000000000000000000000000086615331565b85600161214c565b6147639086615191565b94506147a661477183611e29565b61479e610ada7f000000000000000000000000000000000000000000000000000000000000000086615331565b856001612203565b6147b09085615191565b93506147e8565b6147c361477183611e29565b6147cd9086615191565b94506147db61472483611e29565b6147e59085615191565b93505b806147f28161550e565b91505061466c565b505050935093915050565b80821061481157505050565b600161481d83836151a4565b1161482757505050565b818160008560026148388486615191565b61484291906150c3565b81518110614852576148526154f8565b602002602001015190505b81831161497e575b806000015160020b86848151811061487f5761487f6154f8565b60200260200101516000015160020b12156148a6578261489e8161550e565b935050614865565b806000015160020b8683815181106148c0576148c06154f8565b60200260200101516000015160020b13156148e757816148df81615889565b9250506148a6565b81831161497957858281518110614900576149006154f8565b602002602001015186848151811061491a5761491a6154f8565b6020026020010151878581518110614934576149346154f8565b6020026020010188858151811061494d5761494d6154f8565b60200260200101829052829052505082806149679061550e565b935050818061497590615889565b9250505b61485d565b8185101561499157614991868684614805565b83831015610dc957610dc9868486614805565b604080516101a08101825260008082526020820181905291810182905260608082018390526080820183905260a0820183905260c0820183905260e0820183905261010082018390526101208201839052610140820183905261016082019290925261018081019190915290565b6040518061028001604052806000815260200160008152602001600081526020016000815260200160006001600160a01b03168152602001600060020b815260200160006001600160a01b0316815260200160008152602001600081526020016000815260200160008152602001614a886149a4565b815260200160006001600160a01b03168152602001600060020b8152602001600060020b8152602001600081526020016000815260200160006001600160801b0316815260200160608152602001606081525090565b8015158114614aec57600080fd5b50565b634e487b7160e01b600052604160045260246000fd5b604051606081016001600160401b0381118282101715614b2757614b27614aef565b60405290565b6040516101a081016001600160401b0381118282101715614b2757614b27614aef565b604051601f8201601f191681016001600160401b0381118282101715614b7857614b78614aef565b604052919050565b60006001600160401b03821115614b9957614b99614aef565b5060051b60200190565b8060020b8114614aec57600080fd5b6001600160801b0381168114614aec57600080fd5b600082601f830112614bd857600080fd5b81356020614bed614be883614b80565b614b50565b82815260609283028501820192828201919087851115614c0c57600080fd5b8387015b85811015614c655781818a031215614c285760008081fd5b614c30614b05565b8135614c3b81614ba3565b815281860135614c4a81614bb2565b81870152604082810135908201528452928401928101614c10565b5090979650505050505050565b600080600080600060a08688031215614c8a57600080fd5b8535945060208601359350604086013592506060860135614caa81614ade565b915060808601356001600160401b03811115614cc557600080fd5b614cd188828901614bc7565b9150509295509295909350565b600081518084526020808501945080840160005b83811015614d32578151805160020b88526020808201516001600160801b0316908901526040908101519088015260608701965090820190600101614cf2565b509495945050505050565b80511515825260006101a06020830151614d6260208601826001600160a01b03169052565b5060408301516040850152606083015160608501526080830151608085015260a083015160a085015260c0830151614da560c08601826001600160801b03169052565b5060e0830151614dc060e08601826001600160801b03169052565b50610100838101516001600160801b031690850152610120808401511515908501526101408084015163ffffffff90811691860191909152610160808501519091169085015261018080840151818601839052610a1983870182614cde565b606081526000614e326060830186614d3d565b60208301949094525060400152919050565b6001600160a01b0381168114614aec57600080fd5b600080600060608486031215614e6e57600080fd5b8335614e7981614e44565b9250602084013591506040840135614e9081614ade565b809150509250925092565b600080600060608486031215614eb057600080fd5b8335614ebb81614ade565b95602085013595506040909401359392505050565b8460020b81528360020b6020820152608060408201526000614ef56080830185614cde565b905082606083015295945050505050565b600060208284031215614f1857600080fd5b813561046d81614e44565b60008060008060808587031215614f3957600080fd5b8435935060208501359250604085013591506060850135614f5981614ade565b939692955090935050565b60008060408385031215614f7757600080fd5b8235614f8281614ba3565b91506020830135614f9281614ade565b809150509250929050565b60008060408385031215614fb057600080fd5b8235614f8281614e44565b60008060408385031215614fce57600080fd5b82356001600160401b03811115614fe457600080fd5b614ff085828601614bc7565b9250506020830135614f9281614ade565b6000806000806060858703121561501757600080fd5b843593506020850135925060408501356001600160401b038082111561503c57600080fd5b818701915087601f83011261505057600080fd5b81358181111561505f57600080fd5b88602082850101111561507157600080fd5b95989497505060200194505050565b634e487b7160e01b600052601160045260246000fd5b808202811582820484141761087b5761087b615080565b634e487b7160e01b600052601260045260246000fd5b6000826150d2576150d26150ad565b500490565b805161ffff811681146150e957600080fd5b919050565b80516150e981614ade565b600080600080600080600060e0888a03121561511457600080fd5b875161511f81614e44565b602089015190975061513081614ba3565b955061513e604089016150d7565b945061514c606089016150d7565b935061515a608089016150d7565b925060a088015160ff8116811461517057600080fd5b60c089015190925061518181614ade565b8091505092959891949750929550565b8082018082111561087b5761087b615080565b8181038181111561087b5761087b615080565b80516150e981614bb2565b600082601f8301126151d357600080fd5b815160206151e3614be883614b80565b8281526060928302850182019282820191908785111561520257600080fd5b8387015b85811015614c655781818a03121561521e5760008081fd5b615226614b05565b815161523181614ba3565b81528186015161524081614bb2565b81870152604082810151908201528452928401928101615206565b6000806000806080858703121561527157600080fd5b845161527c81614ba3565b602086015190945061528d81614ba3565b6040860151606087015191945092506001600160401b038111156152b057600080fd5b6152bc878288016151c2565b91505092959194509250565b6080815260006152db6080830187614cde565b9415156020830152509115156040830152606090910152919050565b60008160020b8360020b8061530e5761530e6150ad565b627fffff1982146000198214161561532857615328615080565b90059392505050565b600281810b9083900b01627fffff8113627fffff198212171561087b5761087b615080565b60008260020b8260020b028060020b9150808214610ba757610ba7615080565b80516150e981614e44565b805163ffffffff811681146150e957600080fd5b6000602082840312156153a757600080fd5b81516001600160401b03808211156153be57600080fd5b908301906101a082860312156153d357600080fd5b6153db614b2d565b6153e4836150ee565b81526153f260208401615376565b602082015260408301516040820152606083015160608201526080830151608082015260a083015160a082015261542b60c084016151b7565b60c082015261543c60e084016151b7565b60e082015261010061544f8185016151b7565b908201526101206154618482016150ee565b90820152610140615473848201615381565b90820152610160615485848201615381565b90820152610180838101518381111561549d57600080fd5b6154a9888287016151c2565b918301919091525095945050505050565b6040815260006154cd6040830185614cde565b90508260020b60208301529392505050565b6000602082840312156154f157600080fd5b5051919050565b634e487b7160e01b600052603260045260246000fd5b60006001820161552057615520615080565b5060010190565b6001600160a01b03929092168252602082015260400190565b60006020828403121561555257600080fd5b815161046d81614ade565b6001600160a01b039384168152919092166020820152604081019190915260600190565b600060018060a01b038088168352602087151581850152866040850152818616606085015260a06080850152845191508160a085015260005b828110156155d65785810182015185820160c0015281016155ba565b5050600060c0828501015260c0601f19601f8301168401019150509695505050505050565b6000806040838503121561560e57600080fd5b505080516020909101519092909150565b6000600160ff1b820161563457615634615080565b5060000390565b60208152600061046d6020830184614d3d565b60006020828403121561566057600080fd5b815161046d81614bb2565b60208152600061046d6020830184614cde565b60006020828403121561569057600080fd5b81516001600160401b038111156156a657600080fd5b610877848285016151c2565b81516001600160a01b039081168252602080840151909116908201526040808301511515908201526060808301511515908201526080810161087b565b60208152600060018060a01b0380845116602084015260208401511515604084015260408401511515606084015280606085015116608084015250608083015160a08084015261087760c0840182614d3d565b6001600160801b03828116828216039080821115610ba757610ba7615080565b6001600160801b03818116838216019080821115610ba757610ba7615080565b60208082526004908201526319985a5b60e21b604082015260600190565b8181036000831280158383131683831282161715610ba757610ba7615080565b6040815260006157d36040830185614cde565b90508260208301529392505050565b600080604083850312156157f557600080fd5b825161580081614ade565b809250506020808401516001600160401b0381111561581e57600080fd5b8401601f8101861361582f57600080fd5b805161583d614be882614b80565b81815260059190911b8201830190838101908883111561585c57600080fd5b928401925b8284101561587a57835182529284019290840190615861565b80955050505050509250929050565b60008161589857615898615080565b506000190190565b6001600160a01b03828116828216039080821115610ba757610ba761508056fea2646970667358221220c727cfc1c3db0d62bd6ac47ee8aed89eb90265c0ceedace0992b7b73c479d26564736f6c63430008110033",
    "linkReferences": {}
  },
  "methodIdentifiers": {
    "addPosition(uint256,uint256,uint256,bool)": "3cd7bca7",
    "addPositionSpecfied(uint256,uint256,uint256,bool,(int24,uint128,uint256)[])": "0d3401ee",
    "applySlippageX96(uint160,uint256,bool)": "207b0576",
    "borrow(bool,uint256,uint256)": "25350f8e",
    "closeMaxSlippage()": "6ef83ef7",
    "getFilledAmount((int24,uint128,uint256)[],bool)": "786afbcc",
    "globalStorage()": "6502072a",
    "liquidityManager()": "33827438",
    "payPremium(address,bool)": "3e45c92f",
    "pool()": "16f0115b",
    "precision()": "d3b5dc3b",
    "reducePosition(bool,uint256,uint256)": "deff1bdc",
    "roundTick(int24,bool)": "3dc306ee",
    "setLiquidityManager(address)": "3c1624d4",
    "tickSpacing()": "d0c93a7c",
    "token0()": "0dfe1681",
    "token1()": "d21220a7",
    "uniswapV3SwapCallback(int256,int256,bytes)": "fa461e33"
  },
  "id": 37
}