{
  "abi": [
    {
      "inputs": [],
      "stateMutability": "nonpayable",
      "type": "constructor"
    },
    {
      "inputs": [],
      "name": "T",
      "type": "error"
    },
    {
      "inputs": [
        {
          "internalType": "uint256",
          "name": "traderFund",
          "type": "uint256"
        },
        {
          "internalType": "uint256",
          "name": "maxSlippage",
          "type": "uint256"
        },
        {
          "internalType": "uint256",
          "name": "borrowAmount",
          "type": "uint256"
        },
        {
          "internalType": "bool",
          "name": "isToken0",
          "type": "bool"
        }
      ],
      "name": "addPosition",
      "outputs": [
        {
          "components": [
            {
              "internalType": "address",
              "name": "pool",
              "type": "address"
            },
            {
              "internalType": "uint256",
              "name": "totalPosition",
              "type": "uint256"
            },
            {
              "internalType": "uint256",
              "name": "totalDebt",
              "type": "uint256"
            },
            {
              "internalType": "uint256",
              "name": "totalDebtInput",
              "type": "uint256"
            },
            {
              "internalType": "uint256",
              "name": "initCollateral",
              "type": "uint256"
            },
            {
              "internalType": "uint128",
              "name": "recentPremium",
              "type": "uint128"
            },
            {
              "internalType": "uint128",
              "name": "totalPremium",
              "type": "uint128"
            },
            {
              "internalType": "uint128",
              "name": "unusedPremium",
              "type": "uint128"
            },
            {
              "internalType": "bool",
              "name": "isToken0",
              "type": "bool"
            },
            {
              "internalType": "uint32",
              "name": "openTime",
              "type": "uint32"
            },
            {
              "internalType": "uint32",
              "name": "repayTime",
              "type": "uint32"
            },
            {
              "components": [
                {
                  "internalType": "int24",
                  "name": "tick",
                  "type": "int24"
                },
                {
                  "internalType": "uint128",
                  "name": "liquidity",
                  "type": "uint128"
                },
                {
                  "internalType": "uint256",
                  "name": "premiumOrUrate",
                  "type": "uint256"
                }
              ],
              "internalType": "struct LiquidityManager.Liquidity[]",
              "name": "borrowInfo",
              "type": "tuple[]"
            }
          ],
          "internalType": "struct GlobalStorage.Position",
          "name": "",
          "type": "tuple"
        },
        {
          "internalType": "uint256",
          "name": "",
          "type": "uint256"
        },
        {
          "internalType": "uint256",
          "name": "",
          "type": "uint256"
        }
      ],
      "stateMutability": "nonpayable",
      "type": "function"
    },
    {
      "inputs": [
        {
          "internalType": "uint256",
          "name": "traderFund",
          "type": "uint256"
        },
        {
          "internalType": "uint256",
          "name": "maxSlippage",
          "type": "uint256"
        },
        {
          "internalType": "uint256",
          "name": "borrowAmount",
          "type": "uint256"
        },
        {
          "internalType": "bool",
          "name": "isToken0",
          "type": "bool"
        },
        {
          "components": [
            {
              "internalType": "int24",
              "name": "tick",
              "type": "int24"
            },
            {
              "internalType": "uint128",
              "name": "liquidity",
              "type": "uint128"
            },
            {
              "internalType": "uint256",
              "name": "premiumOrUrate",
              "type": "uint256"
            }
          ],
          "internalType": "struct LiquidityManager.Liquidity[]",
          "name": "borrowInfo",
          "type": "tuple[]"
        }
      ],
      "name": "addPositionSpecfied",
      "outputs": [
        {
          "components": [
            {
              "internalType": "address",
              "name": "pool",
              "type": "address"
            },
            {
              "internalType": "uint256",
              "name": "totalPosition",
              "type": "uint256"
            },
            {
              "internalType": "uint256",
              "name": "totalDebt",
              "type": "uint256"
            },
            {
              "internalType": "uint256",
              "name": "totalDebtInput",
              "type": "uint256"
            },
            {
              "internalType": "uint256",
              "name": "initCollateral",
              "type": "uint256"
            },
            {
              "internalType": "uint128",
              "name": "recentPremium",
              "type": "uint128"
            },
            {
              "internalType": "uint128",
              "name": "totalPremium",
              "type": "uint128"
            },
            {
              "internalType": "uint128",
              "name": "unusedPremium",
              "type": "uint128"
            },
            {
              "internalType": "bool",
              "name": "isToken0",
              "type": "bool"
            },
            {
              "internalType": "uint32",
              "name": "openTime",
              "type": "uint32"
            },
            {
              "internalType": "uint32",
              "name": "repayTime",
              "type": "uint32"
            },
            {
              "components": [
                {
                  "internalType": "int24",
                  "name": "tick",
                  "type": "int24"
                },
                {
                  "internalType": "uint128",
                  "name": "liquidity",
                  "type": "uint128"
                },
                {
                  "internalType": "uint256",
                  "name": "premiumOrUrate",
                  "type": "uint256"
                }
              ],
              "internalType": "struct LiquidityManager.Liquidity[]",
              "name": "borrowInfo",
              "type": "tuple[]"
            }
          ],
          "internalType": "struct GlobalStorage.Position",
          "name": "",
          "type": "tuple"
        },
        {
          "internalType": "uint256",
          "name": "",
          "type": "uint256"
        },
        {
          "internalType": "uint256",
          "name": "",
          "type": "uint256"
        }
      ],
      "stateMutability": "nonpayable",
      "type": "function"
    },
    {
      "inputs": [
        {
          "internalType": "uint160",
          "name": "price",
          "type": "uint160"
        },
        {
          "internalType": "uint256",
          "name": "maxSlippage",
          "type": "uint256"
        },
        {
          "internalType": "bool",
          "name": "down",
          "type": "bool"
        }
      ],
      "name": "applySlippageX96",
      "outputs": [
        {
          "internalType": "uint160",
          "name": "",
          "type": "uint160"
        }
      ],
      "stateMutability": "pure",
      "type": "function"
    },
    {
      "inputs": [
        {
          "internalType": "bool",
          "name": "borrowBelow",
          "type": "bool"
        },
        {
          "internalType": "uint256",
          "name": "amountSpecified",
          "type": "uint256"
        },
        {
          "internalType": "uint256",
          "name": "leverage",
          "type": "uint256"
        }
      ],
      "name": "borrow",
      "outputs": [
        {
          "internalType": "int24",
          "name": "",
          "type": "int24"
        },
        {
          "internalType": "int24",
          "name": "",
          "type": "int24"
        },
        {
          "components": [
            {
              "internalType": "int24",
              "name": "tick",
              "type": "int24"
            },
            {
              "internalType": "uint128",
              "name": "liquidity",
              "type": "uint128"
            },
            {
              "internalType": "uint256",
              "name": "premiumOrUrate",
              "type": "uint256"
            }
          ],
          "internalType": "struct LiquidityManager.Liquidity[]",
          "name": "",
          "type": "tuple[]"
        },
        {
          "internalType": "uint256",
          "name": "",
          "type": "uint256"
        }
      ],
      "stateMutability": "nonpayable",
      "type": "function"
    },
    {
      "inputs": [],
      "name": "closeMaxSlippage",
      "outputs": [
        {
          "internalType": "uint256",
          "name": "",
          "type": "uint256"
        }
      ],
      "stateMutability": "view",
      "type": "function"
    },
    {
      "inputs": [
        {
          "internalType": "address",
          "name": "trader",
          "type": "address"
        },
        {
          "internalType": "bool",
          "name": "isToken0",
          "type": "bool"
        },
        {
          "internalType": "uint256",
          "name": "userSpecifiedSlippage",
          "type": "uint256"
        }
      ],
      "name": "closePosition",
      "outputs": [
        {
          "components": [
            {
              "internalType": "int256",
              "name": "amount0",
              "type": "int256"
            },
            {
              "internalType": "int256",
              "name": "amount1",
              "type": "int256"
            },
            {
              "internalType": "int256",
              "name": "PnL",
              "type": "int256"
            },
            {
              "internalType": "uint256",
              "name": "returnedAmount",
              "type": "uint256"
            },
            {
              "internalType": "uint256",
              "name": "unusedPremium",
              "type": "uint256"
            },
            {
              "internalType": "uint256",
              "name": "premium",
              "type": "uint256"
            }
          ],
          "internalType": "struct ReduceReturn",
          "name": "",
          "type": "tuple"
        }
      ],
      "stateMutability": "nonpayable",
      "type": "function"
    },
    {
      "inputs": [
        {
          "components": [
            {
              "internalType": "int24",
              "name": "tick",
              "type": "int24"
            },
            {
              "internalType": "uint128",
              "name": "liquidity",
              "type": "uint128"
            },
            {
              "internalType": "uint256",
              "name": "premiumOrUrate",
              "type": "uint256"
            }
          ],
          "internalType": "struct LiquidityManager.Liquidity[]",
          "name": "borrowInfo",
          "type": "tuple[]"
        },
        {
          "internalType": "bool",
          "name": "borrowBelow",
          "type": "bool"
        }
      ],
      "name": "getFilledAmount",
      "outputs": [
        {
          "internalType": "uint256",
          "name": "filledAmount",
          "type": "uint256"
        }
      ],
      "stateMutability": "view",
      "type": "function"
    },
    {
      "inputs": [],
      "name": "globalStorage",
      "outputs": [
        {
          "internalType": "contract GlobalStorage",
          "name": "",
          "type": "address"
        }
      ],
      "stateMutability": "view",
      "type": "function"
    },
    {
      "inputs": [],
      "name": "liquidityManager",
      "outputs": [
        {
          "internalType": "contract LiquidityManager",
          "name": "",
          "type": "address"
        }
      ],
      "stateMutability": "view",
      "type": "function"
    },
    {
      "inputs": [
        {
          "internalType": "address",
          "name": "trader",
          "type": "address"
        },
        {
          "internalType": "bool",
          "name": "isToken0",
          "type": "bool"
        }
      ],
      "name": "payPremium",
      "outputs": [
        {
          "internalType": "uint256",
          "name": "",
          "type": "uint256"
        }
      ],
      "stateMutability": "nonpayable",
      "type": "function"
    },
    {
      "inputs": [],
      "name": "pool",
      "outputs": [
        {
          "internalType": "contract UniswapV3Pool",
          "name": "",
          "type": "address"
        }
      ],
      "stateMutability": "view",
      "type": "function"
    },
    {
      "inputs": [],
      "name": "precision",
      "outputs": [
        {
          "internalType": "uint256",
          "name": "",
          "type": "uint256"
        }
      ],
      "stateMutability": "view",
      "type": "function"
    },
    {
      "inputs": [
        {
          "internalType": "bool",
          "name": "isToken0",
          "type": "bool"
        },
        {
          "internalType": "uint256",
          "name": "userSpecifiedSlippage",
          "type": "uint256"
        },
        {
          "internalType": "uint256",
          "name": "reduceAmount",
          "type": "uint256"
        }
      ],
      "name": "reducePosition",
      "outputs": [
        {
          "components": [
            {
              "internalType": "int256",
              "name": "amount0",
              "type": "int256"
            },
            {
              "internalType": "int256",
              "name": "amount1",
              "type": "int256"
            },
            {
              "internalType": "int256",
              "name": "PnL",
              "type": "int256"
            },
            {
              "internalType": "uint256",
              "name": "returnedAmount",
              "type": "uint256"
            },
            {
              "internalType": "uint256",
              "name": "unusedPremium",
              "type": "uint256"
            },
            {
              "internalType": "uint256",
              "name": "premium",
              "type": "uint256"
            }
          ],
          "internalType": "struct ReduceReturn",
          "name": "",
          "type": "tuple"
        }
      ],
      "stateMutability": "nonpayable",
      "type": "function"
    },
    {
      "inputs": [
        {
          "internalType": "int24",
          "name": "tick",
          "type": "int24"
        },
        {
          "internalType": "bool",
          "name": "down",
          "type": "bool"
        }
      ],
      "name": "roundTick",
      "outputs": [
        {
          "internalType": "int24",
          "name": "",
          "type": "int24"
        }
      ],
      "stateMutability": "view",
      "type": "function"
    },
    {
      "inputs": [
        {
          "internalType": "address",
          "name": "ad",
          "type": "address"
        }
      ],
      "name": "setLiquidityManager",
      "outputs": [],
      "stateMutability": "nonpayable",
      "type": "function"
    },
    {
      "inputs": [],
      "name": "tickSpacing",
      "outputs": [
        {
          "internalType": "int24",
          "name": "",
          "type": "int24"
        }
      ],
      "stateMutability": "view",
      "type": "function"
    },
    {
      "inputs": [],
      "name": "token0",
      "outputs": [
        {
          "internalType": "contract ERC20",
          "name": "",
          "type": "address"
        }
      ],
      "stateMutability": "view",
      "type": "function"
    },
    {
      "inputs": [],
      "name": "token1",
      "outputs": [
        {
          "internalType": "contract ERC20",
          "name": "",
          "type": "address"
        }
      ],
      "stateMutability": "view",
      "type": "function"
    },
    {
      "inputs": [
        {
          "internalType": "int256",
          "name": "amount0Delta",
          "type": "int256"
        },
        {
          "internalType": "int256",
          "name": "amount1Delta",
          "type": "int256"
        },
        {
          "internalType": "bytes",
          "name": "data",
          "type": "bytes"
        }
      ],
      "name": "uniswapV3SwapCallback",
      "outputs": [],
      "stateMutability": "nonpayable",
      "type": "function"
    }
  ],
  "bytecode": {
    "object": "0x60e06040523480156200001157600080fd5b50600080336001600160a01b031663890357306040518163ffffffff1660e01b81526004016040805180830381865afa15801562000053573d6000803e3d6000fd5b505050506040513d601f19601f820116820180604052508101906200007991906200023e565b600080546001600160a01b038085166001600160a01b03199283168117909355600180549185169190921617905560408051630dfe168160e01b8152905193955091935091630dfe1681916004808201926020929091908290030181865afa158015620000ea573d6000803e3d6000fd5b505050506040513d601f19601f8201168201806040525081019062000110919062000276565b60008054906101000a90046001600160a01b03166001600160a01b031663d21220a76040518163ffffffff1660e01b8152600401602060405180830381865afa15801562000162573d6000803e3d6000fd5b505050506040513d601f19601f8201168201806040525081019062000188919062000276565b6001600160a01b0390811660c05290811660a052600054604080516334324e9f60e21b81529051919092169163d0c93a7c9160048083019260209291908290030181865afa158015620001df573d6000803e3d6000fd5b505050506040513d601f19601f820116820180604052508101906200020591906200029b565b600290810b608052670de7d1b0f0f10000905550620002c09050565b80516001600160a01b03811681146200023957600080fd5b919050565b600080604083850312156200025257600080fd5b6200025d8362000221565b91506200026d6020840162000221565b90509250929050565b6000602082840312156200028957600080fd5b620002948262000221565b9392505050565b600060208284031215620002ae57600080fd5b81518060020b81146200029457600080fd5b60805160a05160c05161591a620003f36000396000818161033201528181610dd401528181610ff8015281816118a00152818161195701528181611c6a01528181611d04015281816129bd01528181612a8701528181612d940152818161375f01526138a501526000818161015601528181610d3d01528181611092015281816119dc01528181611a9301528181611d5701528181611df101528181612bcb01528181612c9501528181612dba01528181613541015261380c01526000818161030b01528181610804015281816108320152818161087001528181610aab01528181610b4a01528181612443015281816124c60152818161253a0152818161279d01528181612f800152818161300a0152818161312901528181613211015281816146f80152614745015261591a6000f3fe608060405234801561001057600080fd5b50600436106101215760003560e01c80633e45c92f116100ad578063d0c93a7c11610071578063d0c93a7c14610306578063d21220a71461032d578063d3b5dc3b14610354578063deff1bdc14610363578063fa461e331461037657600080fd5b80633e45c92f146102575780636502072a146102785780636ef83ef71461028b578063786afbcc146102945780637ea9843b146102a757600080fd5b806325350f8e116100f457806325350f8e146101b657806333827438146101d95780633c1624d4146101ec5780633cd7bca71461021e5780633dc306ee1461023157600080fd5b80630d3401ee146101265780630dfe16811461015157806316f0115b14610190578063207b0576146101a3575b600080fd5b610139610134366004614c99565b610389565b60405161014893929190614e39565b60405180910390f35b6101787f000000000000000000000000000000000000000000000000000000000000000081565b6040516001600160a01b039091168152602001610148565b600054610178906001600160a01b031681565b6101786101b1366004614e73565b6103e0565b6101c96101c4366004614eb5565b610492565b6040516101489493929190614eea565b600354610178906001600160a01b031681565b61021c6101fa366004614f20565b600380546001600160a01b0319166001600160a01b0392909216919091179055565b005b61013961022c366004614f3d565b61076e565b61024461023f366004614f7e565b6107fc565b60405160029190910b8152602001610148565b61026a610265366004614fb7565b61089f565b604051908152602001610148565b600154610178906001600160a01b031681565b61026a60025481565b61026a6102a2366004614fd5565b610a3b565b6102ba6102b536600461501b565b610bc6565b6040516101489190600060c082019050825182526020830151602083015260408301516040830152606083015160608301526080830151608083015260a083015160a083015292915050565b6102447f000000000000000000000000000000000000000000000000000000000000000081565b6101787f000000000000000000000000000000000000000000000000000000000000000081565b61026a670de0b6b3a764000081565b6102ba610371366004614eb5565b610c72565b61021c61038436600461505c565b610d0d565b610391614970565b6000806103cf6040518060a001604052808a81526020018981526020018881526020018715158152602001336001600160a01b031681525085610e57565b925092509250955095509592505050565b6000806103fe6001600160a01b038616670de0b6b3a76400006150f1565b9050600061041485670de0b6b3a76400006150f1565b9050600061042a670de0b6b3a7640000806150f1565b9050841561046957600061044761044283808661171c565b6117ce565b90508161045482866150f1565b61045e919061511e565b94505050505061048b565b6000610474836117ce565b905080610481838661511e565b61045e91906150f1565b9392505050565b60008060606000670de0b6b3a764000085116104e15760405162461bcd60e51b81526020600482015260096024820152683bb937b733903632bb60b91b60448201526064015b60405180910390fd5b6104e9614a03565b60008054906101000a90046001600160a01b03166001600160a01b0316633850c7bd6040518163ffffffff1660e01b815260040160e060405180830381865afa15801561053a573d6000803e3d6000fd5b505050506040513d601f19601f8201168201806040525081019061055e9190615154565b5050505060029190910b60a0840152506001600160a01b0316608082018190526105dd90896105b15761059a670de0b6b3a7640000808a61171c565b6105ac90670de0b6b3a76400006151ec565b6105d6565b6105c4670de0b6b3a7640000808a61171c565b6105d690670de0b6b3a76400006151ff565b60006103e0565b6001600160a01b0316610180820181905261061f908961060557670ddd2935029d800061060f565b670de444324c2a80005b6001600160401b031660006103e0565b6001600160a01b039081166101808301819052600354608084015160405163053ef28b60e01b81528c15156004820152602481019390935283166044830152606482018a90529091169063053ef28b90608401600060405180830381865afa15801561068f573d6000803e3d6000fd5b505050506040513d6000823e601f3d908101601f191682016040526106b791908101906152b6565b61026085018190526101e0850191909152600291820b6101c085015291900b6101a0830152600054604051637c61444d60e01b81526001600160a01b0390911691637c61444d9161071291908c906001908d90600401615323565b600060405180830381600087803b15801561072c57600080fd5b505af1158015610740573d6000803e3d6000fd5b50505050806101c00151816101a00151826102600151836101e0015194509450945094505093509350935093565b610776614970565b6040805160a08101825286815260208082018790528183018690528415156060830152336080830152825160008082529181019093529182916107ec91836107e6565b60408051606081018252600080825260208083018290529282015282526000199092019101816107b95790505b50610e57565b9250925092509450945094915050565b6000806108297f000000000000000000000000000000000000000000000000000000000000000085615352565b90508261086b577f000000000000000000000000000000000000000000000000000000000000000061085c82600161538c565b61086691906153b1565b610895565b6108957f0000000000000000000000000000000000000000000000000000000000000000826153b1565b9150505b92915050565b60015460405163750ff6b560e01b815260009182916001600160a01b039091169063750ff6b5906108d8903090889088906004016153d1565b600060405180830381865afa1580156108f5573d6000803e3d6000fd5b505050506040513d6000823e601f3d908101601f1916820160405261091d9190810190615414565b905060008060008054906101000a90046001600160a01b03166001600160a01b0316633850c7bd6040518163ffffffff1660e01b815260040160e060405180830381865afa158015610973573d6000803e3d6000fd5b505050506040513d601f19601f820116820180604052508101906109979190615154565b5050505050915091506109a983611872565b6003546101608401516040516308e05f8b60e11b81526000926001600160a01b0316916311c0bf16916109e191908690600401615527565b602060405180830381865afa1580156109fe573d6000803e3d6000fd5b505050506040513d601f19601f82011682018060405250810190610a22919061554c565b9050610a318785836000611ace565b9695505050505050565b6000805b8351811015610bbf57838181518110610a5a57610a5a615565565b6020026020010151602001516001600160801b031660000315610bad578215610b2d57610b1c610aa6858381518110610a9557610a95615565565b602002602001015160000151611e28565b610af77f0000000000000000000000000000000000000000000000000000000000000000878581518110610adc57610adc615565565b602002602001015160000151610af2919061538c565b611e28565b868481518110610b0957610b09615565565b602002602001015160200151600161214b565b610b2690836151ec565b9150610bad565b610ba0610b45858381518110610a9557610a95615565565b610b7b7f0000000000000000000000000000000000000000000000000000000000000000878581518110610adc57610adc615565565b868481518110610b8d57610b8d615565565b6020026020010151602001516001612202565b610baa90836151ec565b91505b80610bb78161557b565b915050610a3f565b5092915050565b610bce614acf565b610bd6614a03565b60015460405163750ff6b560e01b81526001600160a01b039091169063750ff6b590610c0a903090899089906004016153d1565b600060405180830381865afa158015610c27573d6000803e3d6000fd5b505050506040513d6000823e601f3d908101601f19168201604052610c4f9190810190615414565b610160820181905260200151610c69908690859084612272565b95945050505050565b610c7a614acf565b610c82614a03565b60015460405163750ff6b560e01b81526001600160a01b039091169063750ff6b590610cb690309033908a906004016153d1565b600060405180830381865afa158015610cd3573d6000803e3d6000fd5b505050506040513d6000823e601f3d908101601f19168201604052610cfb9190810190615414565b610160820152610c6933858584612272565b6000610d1b82840184614f20565b90506000851315610dbd5760405163a9059cbb60e01b81526001600160a01b037f0000000000000000000000000000000000000000000000000000000000000000169063a9059cbb90610d749033908990600401615594565b6020604051808303816000875af1158015610d93573d6000803e3d6000fd5b505050506040513d601f19601f82011682018060405250810190610db791906155ad565b50610e50565b60405163a9059cbb60e01b81526001600160a01b037f0000000000000000000000000000000000000000000000000000000000000000169063a9059cbb90610e0b9033908890600401615594565b6020604051808303816000875af1158015610e2a573d6000803e3d6000fd5b505050506040513d601f19601f82011682018060405250810190610e4e91906155ad565b505b5050505050565b610e5f614970565b600080610e6a614a03565b6001546080870151606088015160405163750ff6b560e01b81526000936001600160a01b03169263750ff6b592610ea792309291906004016153d1565b600060405180830381865afa158015610ec4573d6000803e3d6000fd5b505050506040513d6000823e601f3d908101601f19168201604052610eec9190810190615414565b61012081015190915063ffffffff1615610f475786606001511515816101000151151514610f475760405162461bcd60e51b81526020600482015260086024820152676469666620706f7360c01b60448201526064016104d8565b8551600003610fa457606087015160408801518851610f819291906101c490670de0b6b3a764000090610f7a81856151ec565b919061171c565b6101e0860152610260850152600290810b6101a08501520b6101c0830152610fc0565b610fb78760600151886040015188613cbd565b61026082018690525b610fd38261026001518860600151610a3b565b82526060870151156110795786516040516323b872dd60e01b81526001600160a01b037f000000000000000000000000000000000000000000000000000000000000000016916323b872dd916110309133913091906004016155ca565b6020604051808303816000875af115801561104f573d6000803e3d6000fd5b505050506040513d601f19601f8201168201806040525081019061107391906155ad565b5061110f565b86516040516323b872dd60e01b81526001600160a01b037f000000000000000000000000000000000000000000000000000000000000000016916323b872dd916110ca9133913091906004016155ca565b6020604051808303816000875af11580156110e9573d6000803e3d6000fd5b505050506040513d601f19601f8201168201806040525081019061110d91906155ad565b505b60008054906101000a90046001600160a01b03166001600160a01b0316633850c7bd6040518163ffffffff1660e01b815260040160e060405180830381865afa158015611160573d6000803e3d6000fd5b505050506040513d601f19601f820116820180604052508101906111849190615154565b5050505060029190910b60a0850152506001600160a01b039081166080840152600054606089015160408a01518a51929093169263128acb0892309215916111cb916151ec565b6111e387608001518d602001518e60600151156103e0565b60408051306020820152016040516020818303038152906040526040518663ffffffff1660e01b815260040161121d9594939291906155ee565b60408051808303816000875af115801561123b573d6000803e3d6000fd5b505050506040513d601f19601f8201168201806040525081019061125f9190615668565b61010084015260e0830152606087015180156112885750815160e08301516112869061568c565b105b806112ae575086606001511580156112ae575081516101008301516112ac9061568c565b105b156112e45760405162461bcd60e51b81526004016104d890602080825260049082015263216c697160e01b604082015260600190565b61014081015163ffffffff161561139357600354604051634684e05b60e01b81526001600160a01b0390911690634684e05b906113259084906004016156a8565b602060405180830381865afa158015611342573d6000803e3d6000fd5b505050506040513d601f19601f8201168201806040525081019061136691906156bb565b6001600160801b031660e082015261137d81611872565b600060a0820181905260e0820181905260c08201525b8660600151156113c4578160e001516113ab9061568c565b816020018181516113bc91906151ec565b9052506113e8565b8161010001516113d39061568c565b816020018181516113e491906151ec565b9052505b81516040820180516113fb9083906151ec565b90525060408701516060820180516114149083906151ec565b905250865160808201805161142a9083906151ec565b9052506060870151151561010082015263ffffffff428116610140830152610120820151166000036114645763ffffffff42166101208201525b61016081015151156115295761026082015161016082015161148591613e7a565b61026083015260608701516114a9576114a28261026001516143b2565b6102608301525b600354610260830151604051635b664e4f60e11b81526001600160a01b039092169163b6cc9c9e916114dd916004016156d8565b600060405180830381865afa1580156114fa573d6000803e3d6000fd5b505050506040513d6000823e601f3d908101601f1916820160405261152291908101906156eb565b6102608301525b610260820151610160820152600154600054608089015160608a015160405163ebfa2b1960e01b81526001600160a01b039485169463ebfa2b19946115759491169290916004016153d1565b6020604051808303816000875af1158015611594573d6000803e3d6000fd5b505050506040513d601f19601f820116820180604052508101906115b8919061554c565b5060015460408051608080820183528a01516001600160a01b0390811682526060808c01511515602084015260005482168385015282018590529151631b5219bb60e01b81529190921691631b5219bb91611616919060040161571f565b6000604051808303816000875af1158015611635573d6000803e3d6000fd5b505050506040513d6000823e601f3d908101601f1916820160405261165d9190810190615414565b60035461026084015160a08501516040516308e05f8b60e11b81529394506001600160a01b03909216926311c0bf169261169a9291600401615527565b602060405180830381865afa1580156116b7573d6000803e3d6000fd5b505050506040513d601f19601f820116820180604052508101906116db919061554c565b6102008301819052608088015160408401516116f8928491611ace565b60e0810151610200929092015190976001600160801b039092169650945092505050565b6000808060001985870985870292508281108382030391505080600003611755576000841161174a57600080fd5b50829004905061048b565b80841161176157600080fd5b6000848688096000868103871696879004966002600389028118808a02820302808a02820302808a02820302808a02820302808a02820302808a02909103029181900381900460010186841190950394909402919094039290920491909117919091029150509392505050565b60b581600160881b81106117e75760409190911b9060801c5b690100000000000000000081106118035760209190911b9060401c5b65010000000000811061181b5760109190911b9060201c5b630100000081106118315760089190911b9060101c5b62010000010260121c80820401600190811c80830401811c80830401811c80830401811c80830401811c80830401811c80830401901c908190048111900390565b60008160e001518260a001516118889190615766565b6001600160801b03169050816101000151156119da577f00000000000000000000000000000000000000000000000000000000000000006001600160a01b031663a9059cbb338460e001516001600160801b03166040518363ffffffff1660e01b81526004016118f9929190615594565b6020604051808303816000875af1158015611918573d6000803e3d6000fd5b505050506040513d601f19601f8201168201806040525081019061193c91906155ad565b5060005460405163a9059cbb60e01b81526001600160a01b037f000000000000000000000000000000000000000000000000000000000000000081169263a9059cbb926119929291909116908590600401615594565b6020604051808303816000875af11580156119b1573d6000803e3d6000fd5b505050506040513d601f19601f820116820180604052508101906119d591906155ad565b505050565b7f00000000000000000000000000000000000000000000000000000000000000006001600160a01b031663a9059cbb338460e001516001600160801b03166040518363ffffffff1660e01b8152600401611a35929190615594565b6020604051808303816000875af1158015611a54573d6000803e3d6000fd5b505050506040513d601f19601f82011682018060405250810190611a7891906155ad565b5060005460405163a9059cbb60e01b81526001600160a01b037f000000000000000000000000000000000000000000000000000000000000000081169263a9059cbb926119929291909116908590600401615594565b600354604051634684e05b60e01b81526000916001600160a01b031690634684e05b90611aff9087906004016156a8565b602060405180830381865afa158015611b1c573d6000803e3d6000fd5b505050506040513d601f19601f82011682018060405250810190611b4091906156bb565b6001546040805160c080820183526001600160a01b038a811683526101008a0151151560208401526000548116938301939093526001600160801b0388166060830181905260808301528801519394509116916325f31145919060a0820190611baa908890615786565b6001600160801b03169052604080516001600160e01b031960e085901b16815282516001600160a01b039081166004830152602084015115156024830152918301519091166044820152606082015160648201526080820151608482015260a09091015160a482015260c401600060405180830381600087803b158015611c3057600080fd5b505af1158015611c44573d6000803e3d6000fd5b5050505083610100015115611d40576040516323b872dd60e01b81526001600160a01b037f000000000000000000000000000000000000000000000000000000000000000016906323b872dd90611ca3903390309088906004016155ca565b6020604051808303816000875af1158015611cc2573d6000803e3d6000fd5b505050506040513d601f19601f82011682018060405250810190611ce691906155ad565b508115611d3b5760405163a9059cbb60e01b81526001600160a01b037f0000000000000000000000000000000000000000000000000000000000000000169063a9059cbb90610d749033908690600401615594565b610e50565b6040516323b872dd60e01b81526001600160a01b037f000000000000000000000000000000000000000000000000000000000000000016906323b872dd90611d90903390309088906004016155ca565b6020604051808303816000875af1158015611daf573d6000803e3d6000fd5b505050506040513d601f19601f82011682018060405250810190611dd391906155ad565b508115610e505760405163a9059cbb60e01b81526001600160a01b037f0000000000000000000000000000000000000000000000000000000000000000169063a9059cbb90610e0b9033908690600401615594565b60008060008360020b12611e3f578260020b611e47565b8260020b6000035b9050620d89e8811115611e6d576040516315e4079d60e11b815260040160405180910390fd5b600081600116600003611e8457600160801b611e96565b6ffffcb933bd6fad37aa2d162d1a5940015b70ffffffffffffffffffffffffffffffffff1690506002821615611eca576ffff97272373d413259a46990580e213a0260801c5b6004821615611ee9576ffff2e50f5f656932ef12357cf3c7fdcc0260801c5b6008821615611f08576fffe5caca7e10e4e61c3624eaa0941cd00260801c5b6010821615611f27576fffcb9843d60f6159c9db58835c9266440260801c5b6020821615611f46576fff973b41fa98c081472e6896dfb254c00260801c5b6040821615611f65576fff2ea16466c96a3843ec78b326b528610260801c5b6080821615611f84576ffe5dee046a99a2a811c461f1969c30530260801c5b610100821615611fa4576ffcbe86c7900a88aedcffc83b479aa3a40260801c5b610200821615611fc4576ff987a7253ac413176f2b074cf7815e540260801c5b610400821615611fe4576ff3392b0822b70005940c7a398e4b70f30260801c5b610800821615612004576fe7159475a2c29b7443b29c7fa6e889d90260801c5b611000821615612024576fd097f3bdfd2022b8845ad8f792aa58250260801c5b612000821615612044576fa9f746462d870fdf8a65dc1f90e061e50260801c5b614000821615612064576f70d869a156d2a1b890bb3df62baf32f70260801c5b618000821615612084576f31be135f97d08fd981231505542fcfa60260801c5b620100008216156120a5576f09aa508b5b7a84e1c677de54f3e99bc90260801c5b620200008216156120c5576e5d6af8dedb81196699c329225ee6040260801c5b620400008216156120e4576d2216e584f5fa1ea926041bedfe980260801c5b62080000821615612101576b048a170391f7dc42444e8fa20260801c5b60008460020b131561212257806000198161211e5761211e615108565b0490505b640100000000810615612136576001612139565b60005b60ff16602082901c0192505050919050565b6000836001600160a01b0316856001600160a01b0316111561216b579293925b600160601b600160e01b03606084901b166001600160a01b03868603811690871661219557600080fd5b836121cb57866001600160a01b03166121b88383896001600160a01b031661171c565b816121c5576121c5615108565b046121f7565b6121f76121e28383896001600160a01b0316614497565b886001600160a01b0316808204910615150190565b979650505050505050565b6000836001600160a01b0316856001600160a01b03161115612222579293925b8161224f5761224a836001600160801b03168686036001600160a01b0316600160601b61171c565b610c69565b610c69836001600160801b03168686036001600160a01b0316600160601b614497565b61227a614acf565b60008261016001516020015111801561229c5750816101600151602001518311155b6122ce5760405162461bcd60e51b8152602060048201526003602482015262706f7360e81b60448201526064016104d8565b60008054906101000a90046001600160a01b03166001600160a01b0316633850c7bd6040518163ffffffff1660e01b815260040160e060405180830381865afa15801561231f573d6000803e3d6000fd5b505050506040513d601f19601f820116820180604052508101906123439190615154565b5050505060029190910b60a0850152506001600160a01b0390811660808401526101608084015190810151516060850152600354604051634684e05b60e01b8152921691634684e05b91612399916004016156a8565b602060405180830381865afa1580156123b6573d6000803e3d6000fd5b505050506040513d601f19601f820116820180604052508101906123da91906156bb565b6101608301516001600160801b0390911660e09091015260035460ff600160a01b909104166124935761248e82610160015161010001516124415782610160015161016001516001846060015161243191906151ff565b81518110610a9557610a95615565565b7f000000000000000000000000000000000000000000000000000000000000000083610160015161016001516001856060015161247e91906151ff565b81518110610adc57610adc615565565b61251b565b61251b61250183610160015161010001516124c45783610160015161016001516001856060015161243191906151ff565b7f000000000000000000000000000000000000000000000000000000000000000084610160015161016001516001866060015161247e91906151ff565b670de444324c2a80008461016001516101000151156103e0565b6001600160a01b031660c08301526101608201516101000151612591577f0000000000000000000000000000000000000000000000000000000000000000826101600151610160015160008151811061257657612576615565565b60200260200101516000015161258c919061538c565b6125bb565b81610160015161016001516000815181106125ae576125ae615565565b6020026020010151600001515b60020b6101a0830152610160820151602001516125e3908490670de0b6b3a76400009061171c565b6020830152610160820151610100015161261a578160c001516001600160a01b031682608001516001600160a01b03161115612639565b8160c001516001600160a01b031682608001516001600160a01b031610155b15612d1b57600054610160830151610100015160808401516001600160a01b039092169163128acb089130918790612672908a846103e0565b60408051306020820152016040516020818303038152906040526040518663ffffffff1660e01b81526004016126ac9594939291906155ee565b60408051808303816000875af11580156126ca573d6000803e3d6000fd5b505050506040513d601f19601f820116820180604052508101906126ee9190615668565b61010084015260e0830152600354600160a01b900460ff16156128c35760008060009054906101000a90046001600160a01b03166001600160a01b0316633850c7bd6040518163ffffffff1660e01b815260040160e060405180830381865afa15801561275f573d6000803e3d6000fd5b505050506040513d601f19601f820116820180604052508101906127839190615154565b505050505091505082610160015161010001511561284c577f00000000000000000000000000000000000000000000000000000000000000008361016001516101600151600185606001516127d891906151ff565b815181106127e8576127e8615565565b6020026020010151600001516127fe919061538c565b60020b8160020b12156128475760405162461bcd60e51b8152602060048201526011602482015270747261646520626f756e64206661696c3160781b60448201526064016104d8565b6128c1565b82610160015161016001516001846060015161286891906151ff565b8151811061287857612878615565565b60200260200101516000015160020b8160020b13156128c15760405162461bcd60e51b81526020600482015260056024820152646661696c3160d81b60448201526064016104d8565b505b6020820151610160830151606001516000916128e89190670de0b6b3a764000061171c565b9050826101600151610100015115612b0b578083610160015160e001516001600160801b031684610100015161291d9061568c565b61292791906151ec565b10156129455760405162461bcd60e51b81526004016104d8906157a6565b8261010001516129549061568c565b81106129845761010083015161016084015160e00180519183016001600160801b03928316039091169052612a6d565b808361010001516129949061568c565b61299e91906157c4565b610120840181905260405163a9059cbb60e01b81526001600160a01b037f0000000000000000000000000000000000000000000000000000000000000000169163a9059cbb916129f2918a91600401615594565b6020604051808303816000875af1158015612a11573d6000803e3d6000fd5b505050506040513d601f19601f82011682018060405250810190612a3591906155ad565b50602083015161016084015160800151612a5791670de0b6b3a764000061171c565b8361012001818151612a6991906157c4565b9052505b60005460405163a9059cbb60e01b81526001600160a01b037f000000000000000000000000000000000000000000000000000000000000000081169263a9059cbb92612ac29291909116908590600401615594565b6020604051808303816000875af1158015612ae1573d6000803e3d6000fd5b505050506040513d601f19601f82011682018060405250810190612b0591906155ad565b50612d15565b8083610160015160e001516001600160801b03168460e00151612b2d9061568c565b612b3791906151ec565b1015612b555760405162461bcd60e51b81526004016104d8906157a6565b8260e00151612b639061568c565b8110612b935760e08084015161016085015190910180519183016001600160801b03928316039091169052612c7b565b808360e00151612ba29061568c565b612bac91906157c4565b610120840181905260405163a9059cbb60e01b81526001600160a01b037f0000000000000000000000000000000000000000000000000000000000000000169163a9059cbb91612c00918a91600401615594565b6020604051808303816000875af1158015612c1f573d6000803e3d6000fd5b505050506040513d601f19601f82011682018060405250810190612c4391906155ad565b50602083015161016084015160800151612c6591670de0b6b3a764000061171c565b8361012001818151612c7791906157c4565b9052505b60005460405163a9059cbb60e01b81526001600160a01b037f000000000000000000000000000000000000000000000000000000000000000081169263a9059cbb92612cd09291909116908590600401615594565b6020604051808303816000875af1158015612cef573d6000803e3d6000fd5b505050506040513d601f19601f82011682018060405250810190612d1391906155ad565b505b50613927565b8161016001516101000151612d5557612d38826101a00151611e28565b6001600160a01b031682608001516001600160a01b031611612d7c565b612d63826101a00151611e28565b6001600160a01b031682608001516001600160a01b0316105b15612f215760008261016001516101000151612db8577f0000000000000000000000000000000000000000000000000000000000000000612dda565b7f00000000000000000000000000000000000000000000000000000000000000005b602084015161016085015160400151919250600091612e0191670de0b6b3a764000061171c565b905083610160015160800151612e169061568c565b610120850152612e2681866151ff565b61014085015260005460405163a9059cbb60e01b81526001600160a01b038481169263a9059cbb92612e6092909116908590600401615594565b6020604051808303816000875af1158015612e7f573d6000803e3d6000fd5b505050506040513d601f19601f82011682018060405250810190612ea391906155ad565b5061014084015160405163a9059cbb60e01b81526001600160a01b0384169163a9059cbb91612ed6918b91600401615594565b6020604051808303816000875af1158015612ef5573d6000803e3d6000fd5b505050506040513d601f19601f82011682018060405250810190612f1991906155ad565b505050613927565b60008060005b84610160015161016001515181101561329d578460a0015160020b85610160015161016001518281518110612f5e57612f5e615565565b60200260200101516000015160020b13158015612fd657508460a0015160020b7f000000000000000000000000000000000000000000000000000000000000000086610160015161016001518381518110612fbb57612fbb615565565b602002602001015160000151612fd1919061538c565b60020b135b156130bf5760008061309b876080015161300589610160015161016001518681518110610a9557610a95615565565b6130457f00000000000000000000000000000000000000000000000000000000000000008b610160015161016001518881518110610adc57610adc615565565b6130968b60200151670de0b6b3a76400008d610160015161016001518a8151811061307257613072615565565b6020026020010151602001516001600160801b031661171c9092919063ffffffff16565b6144d7565b90925090506130aa82866151ec565b94506130b681856151ec565b9350505061328b565b6130ce8560a0015160016107fc565b60020b856101600151610160015182815181106130ed576130ed615565565b60200260200101516000015160020b12156131a75761319661312486610160015161016001518381518110610a9557610a95615565565b6131647f000000000000000000000000000000000000000000000000000000000000000088610160015161016001518581518110610adc57610adc615565565b6131918860200151670de0b6b3a76400008a61016001516101600151878151811061307257613072615565565b614573565b6131a090836151ec565b915061328b565b6131b68560a0015160006107fc565b60020b856101600151610160015182815181106131d5576131d5615565565b60200260200101516000015160020b131561328b5761327e61320c86610160015161016001518381518110610a9557610a95615565565b61324c7f000000000000000000000000000000000000000000000000000000000000000088610160015161016001518581518110610adc57610adc615565565b6132798860200151670de0b6b3a76400008a61016001516101600151878151811061307257613072615565565b6145c5565b61328890846151ec565b92505b806132958161557b565b915050612f27565b5060005461016085015161010001516001600160a01b039091169063128acb08903090806132d3576132ce8661568c565b6132dc565b6132dc8561568c565b6132f589608001518c8b610160015161010001516103e0565b60408051306020820152016040516020818303038152906040526040518663ffffffff1660e01b815260040161332f9594939291906155ee565b60408051808303816000875af115801561334d573d6000803e3d6000fd5b505050506040513d601f19601f820116820180604052508101906133719190615668565b6101008087019190915260e08601919091526101608501510151156135bf5760e084015161339f90866151ff565b8211156135075760006133c28560800151888761016001516101000151156103e0565b905060008060008054906101000a90046001600160a01b03166001600160a01b031663128acb08308961016001516101000151158a60e001518c61340691906151ff565b613410908a6151ff565b6134199061568c565b604080513060208201528991016040516020818303038152906040526040518663ffffffff1660e01b81526004016134559594939291906155ee565b60408051808303816000875af1158015613473573d6000803e3d6000fd5b505050506040513d601f19601f820116820180604052508101906134979190615668565b915091508087610160015160e001516001600160801b031610156134cd5760405162461bcd60e51b81526004016104d8906157a6565b6101608701805160e00180516001600160801b0390811684900316905251608001516134f89061568c565b610120880152506137d9915050565b818460e001518661351891906151ff565b61352291906151ff565b610140850181905260405163a9059cbb60e01b81526001600160a01b037f0000000000000000000000000000000000000000000000000000000000000000169163a9059cbb91613576918b91600401615594565b6020604051808303816000875af1158015613595573d6000803e3d6000fd5b505050506040513d601f19601f820116820180604052508101906135b991906155ad565b506137d9565b6101008401516135cf90866151ff565b8111156137245760006135f28560800151888761016001516101000151156103e0565b905060008060008054906101000a90046001600160a01b03166001600160a01b031663128acb08308961016001516101000151158a61010001518c61363791906151ff565b61364190896151ff565b61364a9061568c565b604080513060208201528991016040516020818303038152906040526040518663ffffffff1660e01b81526004016136869594939291906155ee565b60408051808303816000875af11580156136a4573d6000803e3d6000fd5b505050506040513d601f19601f820116820180604052508101906136c89190615668565b915091508187610160015160e001516001600160801b031610156136fe5760405162461bcd60e51b81526004016104d8906157a6565b5061016086015160e00180516001600160801b03908116929092039091169052506137d9565b808461010001518661373691906151ff565b61374091906151ff565b610140850181905260405163a9059cbb60e01b81526001600160a01b037f0000000000000000000000000000000000000000000000000000000000000000169163a9059cbb91613794918b91600401615594565b6020604051808303816000875af11580156137b3573d6000803e3d6000fd5b505050506040513d601f19601f820116820180604052508101906137d791906155ad565b505b836101600151608001516137ec9061568c565b61012085015260005460405163a9059cbb60e01b81526001600160a01b037f000000000000000000000000000000000000000000000000000000000000000081169263a9059cbb926138479291909116908690600401615594565b6020604051808303816000875af1158015613866573d6000803e3d6000fd5b505050506040513d601f19601f8201168201806040525081019061388a91906155ad565b5060005460405163a9059cbb60e01b81526001600160a01b037f000000000000000000000000000000000000000000000000000000000000000081169263a9059cbb926138e09291909116908590600401615594565b6020604051808303816000875af11580156138ff573d6000803e3d6000fd5b505050506040513d601f19601f8201168201806040525081019061392391906155ad565b5050505b600054610160808401510151602084015160405163e9f4fcf360e01b81526001600160a01b039093169263e9f4fcf3926139659290916004016157e4565b600060405180830381600087803b15801561397f57600080fd5b505af1158015613993573d6000803e3d6000fd5b505050506139a5826101600151611872565b61016082015160e08101516001600160801b0316604084015260200151831015613bfa5761016082018051600060c0909101819052815160e001819052815160a001525160200180518491906139fc9083906151ff565b905250610160808301516101008101519101516020840151613a31929190613a2c90670de0b6b3a76400006151ff565b61462f565b6101608401805160608082019390935260409081019390935260015483516080810185526001600160a01b038a811682528351610100015115156020830152600054811682870152925193810193909352925163b4db07dd60e01b815292169163b4db07dd91613aa39160040161571f565b600060405180830381600087803b158015613abd57600080fd5b505af1158015613ad1573d6000803e3d6000fd5b5050600354610160808601510151604051635b664e4f60e11b81526001600160a01b03909216935063b6cc9c9e9250613b0c916004016156d8565b600060405180830381865afa158015613b29573d6000803e3d6000fd5b505050506040513d6000823e601f3d908101601f19168201604052613b5191908101906156eb565b61016080840180518201929092526003549151015160a08401516040516308e05f8b60e11b81526001600160a01b03909316926311c0bf1692613b98929091600401615527565b602060405180830381865afa158015613bb5573d6000803e3d6000fd5b505050506040513d601f19601f82011682018060405250810190613bd9919061554c565b6102008301819052610160830151613bf5918791906000611ace565b613c6f565b6001546000546101608401516101000151604051634472fbfd60e01b81526001600160a01b0393841693634472fbfd93613c3c939116918a91906004016153d1565b600060405180830381600087803b158015613c5657600080fd5b505af1158015613c6a573d6000803e3d6000fd5b505050505b506040805160c08101825260e08301518152610100830151602082015261012083015181830152610140830151606082015290820151608082015261020082015160a0820152949350505050565b613cc8818415610a3b565b8214613cfc5760405162461bcd60e51b8152602060048201526003602482015262696e6360e81b60448201526064016104d8565b600354604051631542428b60e31b815260009182916001600160a01b039091169063aa12145890613d319086906004016156d8565b600060405180830381865afa158015613d4e573d6000803e3d6000fd5b505050506040513d6000823e601f3d908101601f19168201604052613d769190810190615806565b9150915081613db05760405162461bcd60e51b81526004016104d890602080825260049082015263216c697160e01b604082015260600190565b60005b8151811015613e0957818181518110613dce57613dce615565565b6020026020010151848281518110613de857613de8615565565b60209081029190910101516040015280613e018161557b565b915050613db3565b50600054604051637c61444d60e01b81526001600160a01b0390911690637c61444d90613e4190869089906001908a90600401615323565b600060405180830381600087803b158015613e5b57600080fd5b505af1158015613e6f573d6000803e3d6000fd5b505050505050505050565b81518151606091906000613e8e82846151ec565b90506000816001600160401b03811115613eaa57613eaa614b16565b604051908082528060200260200182016040528015613ef557816020015b6040805160608101825260008082526020808301829052928201528252600019909201910181613ec85790505b50905060008060005b8683108015613f0c57508582105b1561410b57888281518110613f2357613f23615565565b60200260200101516000015160020b8a8481518110613f4457613f44615565565b60200260200101516000015160020b1215613fa357898381518110613f6b57613f6b615565565b6020026020010151848281518110613f8557613f85615565565b60200260200101819052508280613f9b9061557b565b9350506140f9565b888281518110613fb557613fb5615565565b60200260200101516000015160020b8a8481518110613fd657613fd6615565565b60200260200101516000015160020b131561403557888281518110613ffd57613ffd615565565b602002602001015184828151811061401757614017615565565b6020026020010181905250818061402d9061557b565b9250506140f9565b60405180606001604052808b858151811061405257614052615565565b60200260200101516000015160020b81526020018a848151811061407857614078615565565b6020026020010151602001518c868151811061409657614096615565565b6020026020010151602001516140ac9190615786565b6001600160801b0316815260200160008152508482815181106140d1576140d1615565565b602002602001018190525082806140e79061557b565b93505081806140f59061557b565b9250505b806141038161557b565b915050613efe565b8683101561416b5789838151811061412557614125615565565b602002602001015184828151811061413f5761413f615565565b602002602001018190525082806141559061557b565b93505080806141639061557b565b91505061410b565b858210156141cb5788828151811061418557614185615565565b602002602001015184828151811061419f5761419f615565565b602002602001018190525081806141b59061557b565b92505080806141c39061557b565b91505061416b565b60008093505b858410156143055760006141e68560016151ec565b93505b868410156142a75785848151811061420357614203615565565b60200260200101516000015160020b86868151811061422457614224615565565b60200260200101516000015160020b03614295576001905085848151811061424e5761424e615565565b60200260200101516020015186868151811061426c5761426c615565565b60200260200101516020018181516142849190615786565b6001600160801b03169052506142a7565b8361429f8161557b565b9450506141e9565b806142f2578585815181106142be576142be615565565b60200260200101518683815181106142d8576142d8615565565b602002602001018190525081806142ee9061557b565b9250505b50836142fd8161557b565b9450506141d1565b80855261431e8560006143196001856151ff565b6147d1565b60028111156143a357600093505b6143376001826151ff565b841015614392578461434a8560016151ec565b8151811061435a5761435a615565565b602002602001015185858151811061437457614374615565565b6020026020010181905250838061438a9061557b565b94505061432c565b8061439c816158ad565b9150508085525b50929998505050505050505050565b80516060906000816001600160401b038111156143d1576143d1614b16565b60405190808252806020026020018201604052801561441c57816020015b60408051606081018252600080825260208083018290529282015282526000199092019101816143ef5790505b5090506000825b6001811061448d57856144376001836151ff565b8151811061444757614447615565565b602002602001015183838151811061446157614461615565565b602002602001018190525081806144779061557b565b9250508080614485906158ad565b915050614423565b5090949350505050565b60006144a484848461171c565b9050600082806144b6576144b6615108565b848609111561048b5760001981106144cd57600080fd5b6001019392505050565b600080836001600160a01b0316856001600160a01b031611156144f8579293925b846001600160a01b0316866001600160a01b0316116145235761451c8585856145c5565b915061456a565b836001600160a01b0316866001600160a01b0316101561455c576145488685856145c5565b9150614555858785614573565b905061456a565b614567858585614573565b90505b94509492505050565b6000826001600160a01b0316846001600160a01b03161115614593579192915b6145bd6001600160801b0383166145aa86866158c4565b6001600160a01b0316600160601b61171c565b949350505050565b6000826001600160a01b0316846001600160a01b031611156145e5579192915b6001600160a01b038416614625600160601b600160e01b03606085901b1661460d87876158c4565b6001600160a01b0316866001600160a01b031661171c565b6145bd919061511e565b60008060008060005b86518110156147c65786818151811061465357614653615565565b6020026020010151602001516001600160801b0316600003156147b45786818151811061468257614682615565565b60200260200101516000015191506146af86670de0b6b3a764000089848151811061307257613072615565565b9250828782815181106146c4576146c4615565565b6020908102919091018101516001600160801b039092169101528715614783576147256146f083611e28565b61471d610af27f00000000000000000000000000000000000000000000000000000000000000008661538c565b85600161214b565b61472f90866151ec565b945061477261473d83611e28565b61476a610af27f00000000000000000000000000000000000000000000000000000000000000008661538c565b856001612202565b61477c90856151ec565b93506147b4565b61478f61473d83611e28565b61479990866151ec565b94506147a76146f083611e28565b6147b190856151ec565b93505b806147be8161557b565b915050614638565b505050935093915050565b8082106147dd57505050565b60016147e983836151ff565b116147f357505050565b8181600085600261480484866151ec565b61480e919061511e565b8151811061481e5761481e615565565b602002602001015190505b81831161494a575b806000015160020b86848151811061484b5761484b615565565b60200260200101516000015160020b1215614872578261486a8161557b565b935050614831565b806000015160020b86838151811061488c5761488c615565565b60200260200101516000015160020b13156148b357816148ab816158ad565b925050614872565b818311614945578582815181106148cc576148cc615565565b60200260200101518684815181106148e6576148e6615565565b602002602001015187858151811061490057614900615565565b6020026020010188858151811061491957614919615565565b60200260200101829052829052505082806149339061557b565b9350508180614941906158ad565b9250505b614829565b8185101561495d5761495d8686846147d1565b83831015610e4e57610e4e8684866147d1565b60405180610180016040528060006001600160a01b031681526020016000815260200160008152602001600081526020016000815260200160006001600160801b0316815260200160006001600160801b0316815260200160006001600160801b03168152602001600015158152602001600063ffffffff168152602001600063ffffffff168152602001606081525090565b6040518061028001604052806000815260200160008152602001600081526020016000815260200160006001600160a01b03168152602001600060020b815260200160006001600160a01b0316815260200160008152602001600081526020016000815260200160008152602001614a79614970565b815260200160006001600160a01b03168152602001600060020b8152602001600060020b8152602001600081526020016000815260200160006001600160801b0316815260200160608152602001606081525090565b6040518060c001604052806000815260200160008152602001600081526020016000815260200160008152602001600081525090565b8015158114614b1357600080fd5b50565b634e487b7160e01b600052604160045260246000fd5b604051606081016001600160401b0381118282101715614b4e57614b4e614b16565b60405290565b60405161018081016001600160401b0381118282101715614b4e57614b4e614b16565b604051601f8201601f191681016001600160401b0381118282101715614b9f57614b9f614b16565b604052919050565b60006001600160401b03821115614bc057614bc0614b16565b5060051b60200190565b8060020b8114614b1357600080fd5b6001600160801b0381168114614b1357600080fd5b600082601f830112614bff57600080fd5b81356020614c14614c0f83614ba7565b614b77565b82815260609283028501820192828201919087851115614c3357600080fd5b8387015b85811015614c8c5781818a031215614c4f5760008081fd5b614c57614b2c565b8135614c6281614bca565b815281860135614c7181614bd9565b81870152604082810135908201528452928401928101614c37565b5090979650505050505050565b600080600080600060a08688031215614cb157600080fd5b8535945060208601359350604086013592506060860135614cd181614b05565b915060808601356001600160401b03811115614cec57600080fd5b614cf888828901614bee565b9150509295509295909350565b600081518084526020808501945080840160005b83811015614d59578151805160020b88526020808201516001600160801b0316908901526040908101519088015260608701965090820190600101614d19565b509495945050505050565b80516001600160a01b0316825260006101806020830151602085015260408301516040850152606083015160608501526080830151608085015260a0830151614db860a08601826001600160801b03169052565b5060c0830151614dd360c08601826001600160801b03169052565b5060e0830151614dee60e08601826001600160801b03169052565b50610100838101511515908501526101208084015163ffffffff90811691860191909152610140808501519091169085015261016080840151818601839052610a3183870182614d05565b606081526000614e4c6060830186614d64565b60208301949094525060400152919050565b6001600160a01b0381168114614b1357600080fd5b600080600060608486031215614e8857600080fd5b8335614e9381614e5e565b9250602084013591506040840135614eaa81614b05565b809150509250925092565b600080600060608486031215614eca57600080fd5b8335614ed581614b05565b95602085013595506040909401359392505050565b8460020b81528360020b6020820152608060408201526000614f0f6080830185614d05565b905082606083015295945050505050565b600060208284031215614f3257600080fd5b813561048b81614e5e565b60008060008060808587031215614f5357600080fd5b8435935060208501359250604085013591506060850135614f7381614b05565b939692955090935050565b60008060408385031215614f9157600080fd5b8235614f9c81614bca565b91506020830135614fac81614b05565b809150509250929050565b60008060408385031215614fca57600080fd5b8235614f9c81614e5e565b60008060408385031215614fe857600080fd5b82356001600160401b03811115614ffe57600080fd5b61500a85828601614bee565b9250506020830135614fac81614b05565b60008060006060848603121561503057600080fd5b833561503b81614e5e565b9250602084013561504b81614b05565b929592945050506040919091013590565b6000806000806060858703121561507257600080fd5b843593506020850135925060408501356001600160401b038082111561509757600080fd5b818701915087601f8301126150ab57600080fd5b8135818111156150ba57600080fd5b8860208285010111156150cc57600080fd5b95989497505060200194505050565b634e487b7160e01b600052601160045260246000fd5b8082028115828204841417610899576108996150db565b634e487b7160e01b600052601260045260246000fd5b60008261512d5761512d615108565b500490565b805161ffff8116811461514457600080fd5b919050565b805161514481614b05565b600080600080600080600060e0888a03121561516f57600080fd5b875161517a81614e5e565b602089015190975061518b81614bca565b955061519960408901615132565b94506151a760608901615132565b93506151b560808901615132565b925060a088015160ff811681146151cb57600080fd5b60c08901519092506151dc81614b05565b8091505092959891949750929550565b80820180821115610899576108996150db565b81810381811115610899576108996150db565b805161514481614bd9565b600082601f83011261522e57600080fd5b8151602061523e614c0f83614ba7565b8281526060928302850182019282820191908785111561525d57600080fd5b8387015b85811015614c8c5781818a0312156152795760008081fd5b615281614b2c565b815161528c81614bca565b81528186015161529b81614bd9565b81870152604082810151908201528452928401928101615261565b600080600080608085870312156152cc57600080fd5b84516152d781614bca565b60208601519094506152e881614bca565b6040860151606087015191945092506001600160401b0381111561530b57600080fd5b6153178782880161521d565b91505092959194509250565b6080815260006153366080830187614d05565b9415156020830152509115156040830152606090910152919050565b60008160020b8360020b8061536957615369615108565b627fffff19821460001982141615615383576153836150db565b90059392505050565b600281810b9083900b01627fffff8113627fffff1982121715610899576108996150db565b60008260020b8260020b028060020b9150808214610bbf57610bbf6150db565b6001600160a01b039384168152919092166020820152901515604082015260600190565b805161514481614e5e565b805163ffffffff8116811461514457600080fd5b60006020828403121561542657600080fd5b81516001600160401b038082111561543d57600080fd5b90830190610180828603121561545257600080fd5b61545a614b54565b615463836153f5565b81526020830151602082015260408301516040820152606083015160608201526080830151608082015261549960a08401615212565b60a08201526154aa60c08401615212565b60c08201526154bb60e08401615212565b60e08201526101006154ce818501615149565b908201526101206154e0848201615400565b908201526101406154f2848201615400565b90820152610160838101518381111561550a57600080fd5b6155168882870161521d565b918301919091525095945050505050565b60408152600061553a6040830185614d05565b90508260020b60208301529392505050565b60006020828403121561555e57600080fd5b5051919050565b634e487b7160e01b600052603260045260246000fd5b60006001820161558d5761558d6150db565b5060010190565b6001600160a01b03929092168252602082015260400190565b6000602082840312156155bf57600080fd5b815161048b81614b05565b6001600160a01b039384168152919092166020820152604081019190915260600190565b600060018060a01b038088168352602087151581850152866040850152818616606085015260a06080850152845191508160a085015260005b828110156156435785810182015185820160c001528101615627565b5050600060c0828501015260c0601f19601f8301168401019150509695505050505050565b6000806040838503121561567b57600080fd5b505080516020909101519092909150565b6000600160ff1b82016156a1576156a16150db565b5060000390565b60208152600061048b6020830184614d64565b6000602082840312156156cd57600080fd5b815161048b81614bd9565b60208152600061048b6020830184614d05565b6000602082840312156156fd57600080fd5b81516001600160401b0381111561571357600080fd5b6108958482850161521d565b60208152600060018060a01b0380845116602084015260208401511515604084015280604085015116606084015250606083015160808084015261089560a0840182614d64565b6001600160801b03828116828216039080821115610bbf57610bbf6150db565b6001600160801b03818116838216019080821115610bbf57610bbf6150db565b60208082526004908201526319985a5b60e21b604082015260600190565b8181036000831280158383131683831282161715610bbf57610bbf6150db565b6040815260006157f76040830185614d05565b90508260208301529392505050565b6000806040838503121561581957600080fd5b825161582481614b05565b809250506020808401516001600160401b0381111561584257600080fd5b8401601f8101861361585357600080fd5b8051615861614c0f82614ba7565b81815260059190911b8201830190838101908883111561588057600080fd5b928401925b8284101561589e57835182529284019290840190615885565b80955050505050509250929050565b6000816158bc576158bc6150db565b506000190190565b6001600160a01b03828116828216039080821115610bbf57610bbf6150db56fea26469706673582212204c935afd2a6c3a2ba7539a5b801f7054ebce88acb7678844cfd71f7947a8b06264736f6c63430008110033",
    "linkReferences": {}
  },
  "methodIdentifiers": {
    "addPosition(uint256,uint256,uint256,bool)": "3cd7bca7",
    "addPositionSpecfied(uint256,uint256,uint256,bool,(int24,uint128,uint256)[])": "0d3401ee",
    "applySlippageX96(uint160,uint256,bool)": "207b0576",
    "borrow(bool,uint256,uint256)": "25350f8e",
    "closeMaxSlippage()": "6ef83ef7",
    "closePosition(address,bool,uint256)": "7ea9843b",
    "getFilledAmount((int24,uint128,uint256)[],bool)": "786afbcc",
    "globalStorage()": "6502072a",
    "liquidityManager()": "33827438",
    "payPremium(address,bool)": "3e45c92f",
    "pool()": "16f0115b",
    "precision()": "d3b5dc3b",
    "reducePosition(bool,uint256,uint256)": "deff1bdc",
    "roundTick(int24,bool)": "3dc306ee",
    "setLiquidityManager(address)": "3c1624d4",
    "tickSpacing()": "d0c93a7c",
    "token0()": "0dfe1681",
    "token1()": "d21220a7",
    "uniswapV3SwapCallback(int256,int256,bytes)": "fa461e33"
  },
  "id": 36
}