{
  "abi": [
    {
      "inputs": [],
      "stateMutability": "nonpayable",
      "type": "constructor"
    },
    {
      "inputs": [],
      "name": "T",
      "type": "error"
    },
    {
      "inputs": [
        {
          "internalType": "uint256",
          "name": "traderFund",
          "type": "uint256"
        },
        {
          "internalType": "uint256",
          "name": "maxSlippage",
          "type": "uint256"
        },
        {
          "internalType": "uint256",
          "name": "borrowAmount",
          "type": "uint256"
        },
        {
          "internalType": "bool",
          "name": "isToken0",
          "type": "bool"
        }
      ],
      "name": "addPosition",
      "outputs": [
        {
          "components": [
            {
              "internalType": "bool",
              "name": "isBorrow",
              "type": "bool"
            },
            {
              "internalType": "address",
              "name": "pool",
              "type": "address"
            },
            {
              "internalType": "uint256",
              "name": "totalPosition",
              "type": "uint256"
            },
            {
              "internalType": "uint256",
              "name": "totalDebt",
              "type": "uint256"
            },
            {
              "internalType": "uint256",
              "name": "totalDebtInput",
              "type": "uint256"
            },
            {
              "internalType": "uint256",
              "name": "initCollateral",
              "type": "uint256"
            },
            {
              "internalType": "uint128",
              "name": "recentPremium",
              "type": "uint128"
            },
            {
              "internalType": "uint128",
              "name": "totalPremium",
              "type": "uint128"
            },
            {
              "internalType": "uint128",
              "name": "unusedPremium",
              "type": "uint128"
            },
            {
              "internalType": "bool",
              "name": "isToken0",
              "type": "bool"
            },
            {
              "internalType": "uint32",
              "name": "openTime",
              "type": "uint32"
            },
            {
              "internalType": "uint32",
              "name": "repayTime",
              "type": "uint32"
            },
            {
              "components": [
                {
                  "internalType": "int24",
                  "name": "tick",
                  "type": "int24"
                },
                {
                  "internalType": "uint128",
                  "name": "liquidity",
                  "type": "uint128"
                },
                {
                  "internalType": "uint256",
                  "name": "premiumOrUrate",
                  "type": "uint256"
                }
              ],
              "internalType": "struct LiquidityManager.Liquidity[]",
              "name": "borrowInfo",
              "type": "tuple[]"
            }
          ],
          "internalType": "struct GlobalStorage.Position",
          "name": "",
          "type": "tuple"
        },
        {
          "internalType": "uint256",
          "name": "",
          "type": "uint256"
        },
        {
          "internalType": "uint256",
          "name": "",
          "type": "uint256"
        }
      ],
      "stateMutability": "nonpayable",
      "type": "function"
    },
    {
      "inputs": [
        {
          "internalType": "uint256",
          "name": "traderFund",
          "type": "uint256"
        },
        {
          "internalType": "uint256",
          "name": "maxSlippage",
          "type": "uint256"
        },
        {
          "internalType": "uint256",
          "name": "borrowAmount",
          "type": "uint256"
        },
        {
          "internalType": "bool",
          "name": "isToken0",
          "type": "bool"
        },
        {
          "components": [
            {
              "internalType": "int24",
              "name": "tick",
              "type": "int24"
            },
            {
              "internalType": "uint128",
              "name": "liquidity",
              "type": "uint128"
            },
            {
              "internalType": "uint256",
              "name": "premiumOrUrate",
              "type": "uint256"
            }
          ],
          "internalType": "struct LiquidityManager.Liquidity[]",
          "name": "borrowInfo",
          "type": "tuple[]"
        }
      ],
      "name": "addPositionSpecfied",
      "outputs": [
        {
          "components": [
            {
              "internalType": "bool",
              "name": "isBorrow",
              "type": "bool"
            },
            {
              "internalType": "address",
              "name": "pool",
              "type": "address"
            },
            {
              "internalType": "uint256",
              "name": "totalPosition",
              "type": "uint256"
            },
            {
              "internalType": "uint256",
              "name": "totalDebt",
              "type": "uint256"
            },
            {
              "internalType": "uint256",
              "name": "totalDebtInput",
              "type": "uint256"
            },
            {
              "internalType": "uint256",
              "name": "initCollateral",
              "type": "uint256"
            },
            {
              "internalType": "uint128",
              "name": "recentPremium",
              "type": "uint128"
            },
            {
              "internalType": "uint128",
              "name": "totalPremium",
              "type": "uint128"
            },
            {
              "internalType": "uint128",
              "name": "unusedPremium",
              "type": "uint128"
            },
            {
              "internalType": "bool",
              "name": "isToken0",
              "type": "bool"
            },
            {
              "internalType": "uint32",
              "name": "openTime",
              "type": "uint32"
            },
            {
              "internalType": "uint32",
              "name": "repayTime",
              "type": "uint32"
            },
            {
              "components": [
                {
                  "internalType": "int24",
                  "name": "tick",
                  "type": "int24"
                },
                {
                  "internalType": "uint128",
                  "name": "liquidity",
                  "type": "uint128"
                },
                {
                  "internalType": "uint256",
                  "name": "premiumOrUrate",
                  "type": "uint256"
                }
              ],
              "internalType": "struct LiquidityManager.Liquidity[]",
              "name": "borrowInfo",
              "type": "tuple[]"
            }
          ],
          "internalType": "struct GlobalStorage.Position",
          "name": "",
          "type": "tuple"
        },
        {
          "internalType": "uint256",
          "name": "",
          "type": "uint256"
        },
        {
          "internalType": "uint256",
          "name": "",
          "type": "uint256"
        }
      ],
      "stateMutability": "nonpayable",
      "type": "function"
    },
    {
      "inputs": [
        {
          "internalType": "uint160",
          "name": "price",
          "type": "uint160"
        },
        {
          "internalType": "uint256",
          "name": "maxSlippage",
          "type": "uint256"
        },
        {
          "internalType": "bool",
          "name": "down",
          "type": "bool"
        }
      ],
      "name": "applySlippageX96",
      "outputs": [
        {
          "internalType": "uint160",
          "name": "",
          "type": "uint160"
        }
      ],
      "stateMutability": "pure",
      "type": "function"
    },
    {
      "inputs": [
        {
          "internalType": "bool",
          "name": "borrowBelow",
          "type": "bool"
        },
        {
          "internalType": "uint256",
          "name": "amountSpecified",
          "type": "uint256"
        },
        {
          "internalType": "uint256",
          "name": "leverage",
          "type": "uint256"
        }
      ],
      "name": "borrow",
      "outputs": [
        {
          "internalType": "int24",
          "name": "",
          "type": "int24"
        },
        {
          "internalType": "int24",
          "name": "",
          "type": "int24"
        },
        {
          "components": [
            {
              "internalType": "int24",
              "name": "tick",
              "type": "int24"
            },
            {
              "internalType": "uint128",
              "name": "liquidity",
              "type": "uint128"
            },
            {
              "internalType": "uint256",
              "name": "premiumOrUrate",
              "type": "uint256"
            }
          ],
          "internalType": "struct LiquidityManager.Liquidity[]",
          "name": "",
          "type": "tuple[]"
        }
      ],
      "stateMutability": "nonpayable",
      "type": "function"
    },
    {
      "inputs": [
        {
          "components": [
            {
              "internalType": "int24",
              "name": "tick",
              "type": "int24"
            },
            {
              "internalType": "uint128",
              "name": "liquidity",
              "type": "uint128"
            },
            {
              "internalType": "uint256",
              "name": "premiumOrUrate",
              "type": "uint256"
            }
          ],
          "internalType": "struct LiquidityManager.Liquidity[]",
          "name": "borrowInfo",
          "type": "tuple[]"
        },
        {
          "internalType": "bool",
          "name": "borrowBelow",
          "type": "bool"
        }
      ],
      "name": "getFilledAmount",
      "outputs": [
        {
          "internalType": "uint256",
          "name": "filledAmount",
          "type": "uint256"
        }
      ],
      "stateMutability": "view",
      "type": "function"
    },
    {
      "inputs": [],
      "name": "globalStorage",
      "outputs": [
        {
          "internalType": "contract GlobalStorage",
          "name": "",
          "type": "address"
        }
      ],
      "stateMutability": "view",
      "type": "function"
    },
    {
      "inputs": [],
      "name": "liquidityManager",
      "outputs": [
        {
          "internalType": "contract LiquidityManager",
          "name": "",
          "type": "address"
        }
      ],
      "stateMutability": "view",
      "type": "function"
    },
    {
      "inputs": [],
      "name": "pool",
      "outputs": [
        {
          "internalType": "contract UniswapV3Pool",
          "name": "",
          "type": "address"
        }
      ],
      "stateMutability": "view",
      "type": "function"
    },
    {
      "inputs": [],
      "name": "precision",
      "outputs": [
        {
          "internalType": "uint256",
          "name": "",
          "type": "uint256"
        }
      ],
      "stateMutability": "view",
      "type": "function"
    },
    {
      "inputs": [
        {
          "internalType": "bool",
          "name": "isToken0",
          "type": "bool"
        },
        {
          "internalType": "uint256",
          "name": "userSpecifiedSlippage",
          "type": "uint256"
        },
        {
          "internalType": "uint256",
          "name": "reduceAmount",
          "type": "uint256"
        }
      ],
      "name": "reducePosition",
      "outputs": [
        {
          "components": [
            {
              "internalType": "int256",
              "name": "amount0",
              "type": "int256"
            },
            {
              "internalType": "int256",
              "name": "amount1",
              "type": "int256"
            },
            {
              "internalType": "int256",
              "name": "PnL",
              "type": "int256"
            },
            {
              "internalType": "uint256",
              "name": "returnedAmount",
              "type": "uint256"
            },
            {
              "internalType": "uint256",
              "name": "unusedPremium",
              "type": "uint256"
            },
            {
              "internalType": "uint256",
              "name": "premium",
              "type": "uint256"
            }
          ],
          "internalType": "struct ReduceReturn",
          "name": "",
          "type": "tuple"
        }
      ],
      "stateMutability": "nonpayable",
      "type": "function"
    },
    {
      "inputs": [
        {
          "internalType": "int24",
          "name": "tick",
          "type": "int24"
        },
        {
          "internalType": "bool",
          "name": "down",
          "type": "bool"
        }
      ],
      "name": "roundTick",
      "outputs": [
        {
          "internalType": "int24",
          "name": "",
          "type": "int24"
        }
      ],
      "stateMutability": "view",
      "type": "function"
    },
    {
      "inputs": [
        {
          "internalType": "address",
          "name": "ad",
          "type": "address"
        }
      ],
      "name": "setLiquidityManager",
      "outputs": [],
      "stateMutability": "nonpayable",
      "type": "function"
    },
    {
      "inputs": [],
      "name": "tickSpacing",
      "outputs": [
        {
          "internalType": "int24",
          "name": "",
          "type": "int24"
        }
      ],
      "stateMutability": "view",
      "type": "function"
    },
    {
      "inputs": [],
      "name": "token0",
      "outputs": [
        {
          "internalType": "contract ERC20",
          "name": "",
          "type": "address"
        }
      ],
      "stateMutability": "view",
      "type": "function"
    },
    {
      "inputs": [],
      "name": "token1",
      "outputs": [
        {
          "internalType": "contract ERC20",
          "name": "",
          "type": "address"
        }
      ],
      "stateMutability": "view",
      "type": "function"
    },
    {
      "inputs": [
        {
          "internalType": "bool",
          "name": "isToken0",
          "type": "bool"
        },
        {
          "internalType": "address",
          "name": "caller",
          "type": "address"
        },
        {
          "internalType": "address",
          "name": "receiver",
          "type": "address"
        },
        {
          "internalType": "uint256",
          "name": "amount",
          "type": "uint256"
        }
      ],
      "name": "transferToken",
      "outputs": [],
      "stateMutability": "nonpayable",
      "type": "function"
    },
    {
      "inputs": [
        {
          "internalType": "int256",
          "name": "amount0Delta",
          "type": "int256"
        },
        {
          "internalType": "int256",
          "name": "amount1Delta",
          "type": "int256"
        },
        {
          "internalType": "bytes",
          "name": "data",
          "type": "bytes"
        }
      ],
      "name": "uniswapV3SwapCallback",
      "outputs": [],
      "stateMutability": "nonpayable",
      "type": "function"
    }
  ],
  "bytecode": {
    "object": "0x6101206040523480156200001257600080fd5b50600080336001600160a01b031663890357306040518163ffffffff1660e01b81526004016040805180830381865afa15801562000054573d6000803e3d6000fd5b505050506040513d601f19601f820116820180604052508101906200007a91906200020a565b6001600160a01b0380831660a08190529082166101005260408051630dfe168160e01b8152905193955091935091630dfe1681916004808201926020929091908290030181865afa158015620000d4573d6000803e3d6000fd5b505050506040513d601f19601f82011682018060405250810190620000fa919062000242565b60a0516001600160a01b031663d21220a76040518163ffffffff1660e01b8152600401602060405180830381865afa1580156200013b573d6000803e3d6000fd5b505050506040513d601f19601f8201168201806040525081019062000161919062000242565b6001600160a01b0390811660e05290811660c05260a051604080516334324e9f60e21b81529051919092169163d0c93a7c9160048083019260209291908290030181865afa158015620001b8573d6000803e3d6000fd5b505050506040513d601f19601f82011682018060405250810190620001de919062000267565b60020b608052506200028c9050565b80516001600160a01b03811681146200020557600080fd5b919050565b600080604083850312156200021e57600080fd5b6200022983620001ed565b91506200023960208401620001ed565b90509250929050565b6000602082840312156200025557600080fd5b6200026082620001ed565b9392505050565b6000602082840312156200027a57600080fd5b81518060020b81146200026057600080fd5b60805160a05160c05160e051610100516156f9620004606000396000818161023c01528181610df20152818161101a015281816117dd0152818161378001526138e90152600081816102be0152818161082101528181610c6801528181610d0c01528181610f4b01528181611136015281816123d70152818161249e015281816127e10152818161320201526133750152600081816101400152818161078a01528181610bcf01528181610cbe01528181610eb4015281816111d0015281816125ff015281816126c60152818161280701528181612fd501526132c301526000818161017f015281816104c1015281816106cd0152818161124f015281816112fd015281816117a401528181611f2101528181612201015281816124cb015281816126f3015281816128b601528181612d3301528181612e610152818161308d015281816132f0015281816133a20152818161343a015281816137450152818161386f0152613af60152600081816102970152818161093b01528181610969015281816109a701528181610a4601528181610ae501528181612091015281816120fb01528181612a0001528181612a8a01528181612ba901528181612c910152818161448a01526144d701526156f96000f3fe608060405234801561001057600080fd5b506004361061010b5760003560e01c80633dc306ee116100a2578063d0c93a7c11610071578063d0c93a7c14610292578063d21220a7146102b9578063d3b5dc3b146102e0578063deff1bdc146102ef578063fa461e331461034e57600080fd5b80633dc306ee146102115780636502072a14610237578063786afbcc1461025e578063a352dcbf1461027f57600080fd5b806325350f8e116100de57806325350f8e146101b457806333827438146101d65780633c1624d4146101e95780633cd7bca7146101fe57600080fd5b80630d3401ee146101105780630dfe16811461013b57806316f0115b1461017a578063207b0576146101a1575b600080fd5b61012361011e3660046149f5565b610361565b60405161013293929190614bac565b60405180910390f35b6101627f000000000000000000000000000000000000000000000000000000000000000081565b6040516001600160a01b039091168152602001610132565b6101627f000000000000000000000000000000000000000000000000000000000000000081565b6101626101af366004614be6565b6103b8565b6101c76101c2366004614c28565b61046a565b60405161013293929190614c5d565b600054610162906001600160a01b031681565b6101fc6101f7366004614c82565b61075c565b005b61012361020c366004614c9f565b6108a5565b61022461021f366004614ce0565b610933565b60405160029190910b8152602001610132565b6101627f000000000000000000000000000000000000000000000000000000000000000081565b61027161026c366004614d19565b6109d6565b604051908152602001610132565b6101fc61028d366004614d5f565b610b61565b6102247f000000000000000000000000000000000000000000000000000000000000000081565b6101627f000000000000000000000000000000000000000000000000000000000000000081565b610271670de0b6b3a764000081565b6103026102fd366004614c28565b610d8e565b6040516101329190600060c082019050825182526020830151602083015260408301516040830152606083015160608301526080830151608083015260a083015160a083015292915050565b6101fc61035c366004614db0565b610e84565b61036961474b565b6000806103a76040518060a001604052808a81526020018981526020018881526020018715158152602001336001600160a01b031681525085610fcd565b925092509250955095509592505050565b6000806103d66001600160a01b038616670de0b6b3a7640000614e45565b905060006103ec85670de0b6b3a7640000614e45565b90506000610402670de0b6b3a764000080614e45565b9050841561044157600061041f61041a8380866118f2565b6119a4565b90508161042c8286614e45565b6104369190614e72565b945050505050610463565b600061044c836119a4565b9050806104598386614e72565b6104369190614e45565b9392505050565b6000806060670de0b6b3a764000084116104b75760405162461bcd60e51b81526020600482015260096024820152683bb937b733903632bb60b91b60448201526064015b60405180910390fd5b6104bf6147b9565b7f00000000000000000000000000000000000000000000000000000000000000006001600160a01b0316633850c7bd6040518163ffffffff1660e01b815260040160e060405180830381865afa15801561051d573d6000803e3d6000fd5b505050506040513d601f19601f820116820180604052508101906105419190614ea8565b5050505060029190910b60a0840152506001600160a01b0316608082018190526105c090886105945761057d670de0b6b3a764000080896118f2565b61058f90670de0b6b3a7640000614f40565b6105b9565b6105a7670de0b6b3a764000080896118f2565b6105b990670de0b6b3a7640000614f53565b60006103b8565b6001600160a01b0316610180820181905261060290886105e857670ddd2935029d80006105f2565b670de444324c2a80005b6001600160401b031660006103b8565b6001600160a01b039081166101808301819052600054608084015160405163053ef28b60e01b81528b15156004820152602481019390935283166044830152606482018990529091169063053ef28b90608401600060405180830381865afa158015610672573d6000803e3d6000fd5b505050506040513d6000823e601f3d908101601f1916820160405261069a919081019061500a565b6102208401819052600291820b6101c085015291900b6101a0830152604051637c61444d60e01b81526001600160a01b037f00000000000000000000000000000000000000000000000000000000000000001691637c61444d9161070891908b906001908c9060040161506d565b600060405180830381600087803b15801561072257600080fd5b505af1158015610736573d6000803e3d6000fd5b50505050806101c00151816101a001518261022001519350935093505093509350939050565b600080546001600160a01b0319166001600160a01b0383811691821790925560405163095ea7b360e01b81527f00000000000000000000000000000000000000000000000000000000000000009092169163095ea7b3916107c3916000199060040161509c565b6020604051808303816000875af11580156107e2573d6000803e3d6000fd5b505050506040513d601f19601f8201168201806040525081019061080691906150b5565b5060005460405163095ea7b360e01b81526001600160a01b037f000000000000000000000000000000000000000000000000000000000000000081169263095ea7b39261085e9291909116906000199060040161509c565b6020604051808303816000875af115801561087d573d6000803e3d6000fd5b505050506040513d601f19601f820116820180604052508101906108a191906150b5565b5050565b6108ad61474b565b6040805160a0810182528681526020808201879052818301869052841515606083015233608083015282516000808252918101909352918291610923918361091d565b60408051606081018252600080825260208083018290529282015282526000199092019101816108f05790505b50610fcd565b9250925092509450945094915050565b6000806109607f0000000000000000000000000000000000000000000000000000000000000000856150d2565b9050826109a2577f000000000000000000000000000000000000000000000000000000000000000061099382600161510c565b61099d9190615131565b6109cc565b6109cc7f000000000000000000000000000000000000000000000000000000000000000082615131565b9150505b92915050565b6000805b8351811015610b5a578381815181106109f5576109f5615151565b6020026020010151602001516001600160801b031660000315610b48578215610ac857610ab7610a41858381518110610a3057610a30615151565b602002602001015160000151611a48565b610a927f0000000000000000000000000000000000000000000000000000000000000000878581518110610a7757610a77615151565b602002602001015160000151610a8d919061510c565b611a48565b868481518110610aa457610aa4615151565b6020026020010151602001516001611d6b565b610ac19083614f40565b9150610b48565b610b3b610ae0858381518110610a3057610a30615151565b610b167f0000000000000000000000000000000000000000000000000000000000000000878581518110610a7757610a77615151565b868481518110610b2857610b28615151565b6020026020010151602001516001611e22565b610b459083614f40565b91505b80610b5281615167565b9150506109da565b5092915050565b6000546001600160a01b03163314610ba35760405162461bcd60e51b8152602060048201526005602482015264042c2eae8d60db1b60448201526064016104ae565b6001600160a01b03831615610ca1578315610c51576040516323b872dd60e01b81526001600160a01b037f000000000000000000000000000000000000000000000000000000000000000016906323b872dd90610c0890869086908690600401615180565b6020604051808303816000875af1158015610c27573d6000803e3d6000fd5b505050506040513d601f19601f82011682018060405250810190610c4b91906150b5565b50610d88565b6040516323b872dd60e01b81526001600160a01b037f000000000000000000000000000000000000000000000000000000000000000016906323b872dd90610c0890869086908690600401615180565b8315610cf55760405163a9059cbb60e01b81526001600160a01b037f0000000000000000000000000000000000000000000000000000000000000000169063a9059cbb90610c08908590859060040161509c565b60405163a9059cbb60e01b81526001600160a01b037f0000000000000000000000000000000000000000000000000000000000000000169063a9059cbb90610d43908590859060040161509c565b6020604051808303816000875af1158015610d62573d6000803e3d6000fd5b505050506040513d601f19601f82011682018060405250810190610d8691906150b5565b505b50505050565b610dc76040518060c001604052806000815260200160008152602001600081526020016000815260200160008152602001600081525090565b610dcf6147b9565b60405163750ff6b560e01b815230600482015233602482015285151560448201527f00000000000000000000000000000000000000000000000000000000000000006001600160a01b03169063750ff6b590606401600060405180830381865afa158015610e41573d6000803e3d6000fd5b505050506040513d6000823e601f3d908101601f19168201604052610e6991908101906151c3565b610160820152610e7b33858584611e92565b95945050505050565b6000610e9282840184614c82565b90506000851315610f345760405163a9059cbb60e01b81526001600160a01b037f0000000000000000000000000000000000000000000000000000000000000000169063a9059cbb90610eeb903390899060040161509c565b6020604051808303816000875af1158015610f0a573d6000803e3d6000fd5b505050506040513d601f19601f82011682018060405250810190610f2e91906150b5565b50610d86565b60405163a9059cbb60e01b81526001600160a01b037f0000000000000000000000000000000000000000000000000000000000000000169063a9059cbb90610f82903390889060040161509c565b6020604051808303816000875af1158015610fa1573d6000803e3d6000fd5b505050506040513d601f19601f82011682018060405250810190610fc591906150b5565b505050505050565b610fd561474b565b600080610fe06147b9565b6080860151606087015160405163750ff6b560e01b81523060048201526001600160a01b03928316602482015290151560448201526000917f0000000000000000000000000000000000000000000000000000000000000000169063750ff6b590606401600060405180830381865afa158015611061573d6000803e3d6000fd5b505050506040513d6000823e601f3d908101601f1916820160405261108991908101906151c3565b905085516000036110e2576060870151604088015188516110c59291906101c290670de0b6b3a7640000906110be8185614f40565b91906118f2565b610220850152600290810b6101a08501520b6101c08301526110fe565b6110f58760600151886040015188613996565b61022082018690525b61111182610220015188606001516109d6565b82526060870151156111b75786516040516323b872dd60e01b81526001600160a01b037f000000000000000000000000000000000000000000000000000000000000000016916323b872dd9161116e913391309190600401615180565b6020604051808303816000875af115801561118d573d6000803e3d6000fd5b505050506040513d601f19601f820116820180604052508101906111b191906150b5565b5061124d565b86516040516323b872dd60e01b81526001600160a01b037f000000000000000000000000000000000000000000000000000000000000000016916323b872dd91611208913391309190600401615180565b6020604051808303816000875af1158015611227573d6000803e3d6000fd5b505050506040513d601f19601f8201168201806040525081019061124b91906150b5565b505b7f00000000000000000000000000000000000000000000000000000000000000006001600160a01b0316633850c7bd6040518163ffffffff1660e01b815260040160e060405180830381865afa1580156112ab573d6000803e3d6000fd5b505050506040513d601f19601f820116820180604052508101906112cf9190614ea8565b5050505060029190910b60a0850152506001600160a01b0390811660808401526060880151604089015189517f00000000000000000000000000000000000000000000000000000000000000009093169263128acb089230929015916113359190614f40565b61134d87608001518d602001518e60600151156103b8565b60408051306020820152016040516020818303038152906040526040518663ffffffff1660e01b81526004016113879594939291906152e8565b60408051808303816000875af11580156113a5573d6000803e3d6000fd5b505050506040513d601f19601f820116820180604052508101906113c99190615362565b61010084015260e0830152606087015180156113f25750815160e08301516113f090615386565b105b80611418575086606001511580156114185750815161010083015161141690615386565b105b1561144e5760405162461bcd60e51b81526004016104ae90602080825260049082015263216c697160e01b604082015260600190565b86606001511561147f578160e0015161146690615386565b816040018181516114779190614f40565b9052506114a3565b81610100015161148e90615386565b8160400181815161149f9190614f40565b9052505b81516060820180516114b6908390614f40565b90525060408701516080820180516114cf908390614f40565b905250865160a0820180516114e5908390614f40565b9052506060870151151561012082015263ffffffff4281166101608301526101408201511660000361151f5763ffffffff42166101408201525b61018081015151156116de576000546040516313804b0d60e11b81526001600160a01b0390911690632700961a9061155b9084906004016153a2565b602060405180830381865afa158015611578573d6000803e3d6000fd5b505050506040513d601f19601f8201168201806040525081019061159c91906153b5565b6001600160801b031661010082015260005460405163424bf6f160e01b81526001600160a01b039091169063424bf6f1906115dd90849033906004016153d2565b600060405180830381600087803b1580156115f757600080fd5b505af115801561160b573d6000803e3d6000fd5b5050600060c08401819052610100840181905260e0840152505061022082015161018082015161163a91613b6b565b610220830152606087015161165e57611657826102200151614144565b6102208301525b600054610220830151604051635b664e4f60e11b81526001600160a01b039092169163b6cc9c9e91611692916004016153fc565b600060405180830381865afa1580156116af573d6000803e3d6000fd5b505050506040513d6000823e601f3d908101601f191682016040526116d7919081019061540f565b6102208301525b60005461022083015160a084015161012084015160405163a02032bf60e01b81526001600160a01b039094169363a02032bf936117219390929091600401615443565b600060405180830381865afa15801561173e573d6000803e3d6000fd5b505050506040513d6000823e601f3d908101601f191682016040526117669190810190615470565b6101808301526101e08301526040805160a0810182526080898101516001600160a01b0390811683526060808c0151151560208501526000848601527f00000000000000000000000000000000000000000000000000000000000000008216908401529082018490529151630b19e25960e41b81527f00000000000000000000000000000000000000000000000000000000000000009092169163b19e259091611812916004016154b6565b6000604051808303816000875af1158015611831573d6000803e3d6000fd5b505050506040513d6000823e601f3d908101601f1916820160405261185991908101906151c3565b6000805460808a01516101e0860151604051634cb896f160e11b81529495506001600160a01b03909216936399712de29361189b938792909190600401615509565b600060405180830381600087803b1580156118b557600080fd5b505af11580156118c9573d6000803e3d6000fd5b505050506101008101516101e0929092015190976001600160801b039092169650945092505050565b600080806000198587098587029250828110838203039150508060000361192b576000841161192057600080fd5b508290049050610463565b80841161193757600080fd5b6000848688096000868103871696879004966002600389028118808a02820302808a02820302808a02820302808a02820302808a02820302808a02909103029181900381900460010186841190950394909402919094039290920491909117919091029150509392505050565b60b581600160881b81106119bd5760409190911b9060801c5b690100000000000000000081106119d95760209190911b9060401c5b6501000000000081106119f15760109190911b9060201c5b63010000008110611a075760089190911b9060101c5b62010000010260121c80820401600190811c80830401811c80830401811c80830401811c80830401811c80830401811c80830401901c908190048111900390565b60008060008360020b12611a5f578260020b611a67565b8260020b6000035b9050620d89e8811115611a8d576040516315e4079d60e11b815260040160405180910390fd5b600081600116600003611aa457600160801b611ab6565b6ffffcb933bd6fad37aa2d162d1a5940015b70ffffffffffffffffffffffffffffffffff1690506002821615611aea576ffff97272373d413259a46990580e213a0260801c5b6004821615611b09576ffff2e50f5f656932ef12357cf3c7fdcc0260801c5b6008821615611b28576fffe5caca7e10e4e61c3624eaa0941cd00260801c5b6010821615611b47576fffcb9843d60f6159c9db58835c9266440260801c5b6020821615611b66576fff973b41fa98c081472e6896dfb254c00260801c5b6040821615611b85576fff2ea16466c96a3843ec78b326b528610260801c5b6080821615611ba4576ffe5dee046a99a2a811c461f1969c30530260801c5b610100821615611bc4576ffcbe86c7900a88aedcffc83b479aa3a40260801c5b610200821615611be4576ff987a7253ac413176f2b074cf7815e540260801c5b610400821615611c04576ff3392b0822b70005940c7a398e4b70f30260801c5b610800821615611c24576fe7159475a2c29b7443b29c7fa6e889d90260801c5b611000821615611c44576fd097f3bdfd2022b8845ad8f792aa58250260801c5b612000821615611c64576fa9f746462d870fdf8a65dc1f90e061e50260801c5b614000821615611c84576f70d869a156d2a1b890bb3df62baf32f70260801c5b618000821615611ca4576f31be135f97d08fd981231505542fcfa60260801c5b62010000821615611cc5576f09aa508b5b7a84e1c677de54f3e99bc90260801c5b62020000821615611ce5576e5d6af8dedb81196699c329225ee6040260801c5b62040000821615611d04576d2216e584f5fa1ea926041bedfe980260801c5b62080000821615611d21576b048a170391f7dc42444e8fa20260801c5b60008460020b1315611d42578060001981611d3e57611d3e614e5c565b0490505b640100000000810615611d56576001611d59565b60005b60ff16602082901c0192505050919050565b6000836001600160a01b0316856001600160a01b03161115611d8b579293925b600160601b600160e01b03606084901b166001600160a01b038686038116908716611db557600080fd5b83611deb57866001600160a01b0316611dd88383896001600160a01b03166118f2565b81611de557611de5614e5c565b04611e17565b611e17611e028383896001600160a01b0316614229565b886001600160a01b0316808204910615150190565b979650505050505050565b6000836001600160a01b0316856001600160a01b03161115611e42579293925b81611e6f57611e6a836001600160801b03168686036001600160a01b0316600160601b6118f2565b610e7b565b610e7b836001600160801b03168686036001600160a01b0316600160601b614229565b611ecb6040518060c001604052806000815260200160008152602001600081526020016000815260200160008152602001600081525090565b600082610160015160400151118015611eed5750816101600151604001518311155b611f1f5760405162461bcd60e51b8152602060048201526003602482015262706f7360e81b60448201526064016104ae565b7f00000000000000000000000000000000000000000000000000000000000000006001600160a01b0316633850c7bd6040518163ffffffff1660e01b815260040160e060405180830381865afa158015611f7d573d6000803e3d6000fd5b505050506040513d601f19601f82011682018060405250810190611fa19190614ea8565b5050505060029190910b60a0850152506001600160a01b0390811660808401526101608301516101808101515160608501526000546040516313804b0d60e11b8152921691632700961a91611ff8916004016153a2565b602060405180830381865afa158015612015573d6000803e3d6000fd5b505050506040513d601f19601f8201168201806040525081019061203991906153b5565b610160830180516001600160801b03909216610100909201919091525161012001516120dc9061208f5782610160015161018001516001846060015161207f9190614f53565b81518110610a3057610a30615151565b7f00000000000000000000000000000000000000000000000000000000000000008361016001516101800151600185606001516120cc9190614f53565b81518110610a7757610a77615151565b6001600160a01b031660c08301526101608201516101200151612152577f0000000000000000000000000000000000000000000000000000000000000000826101600151610180015160008151811061213757612137615151565b60200260200101516000015161214d919061510c565b61217c565b816101600151610180015160008151811061216f5761216f615151565b6020026020010151600001515b60020b6101a0830152610160820151604001516121a4908490670de0b6b3a7640000906118f2565b602083015261016082015161012001516121db578160c001516001600160a01b031682608001516001600160a01b031611156121fa565b8160c001516001600160a01b031682608001516001600160a01b031610155b15612768577f00000000000000000000000000000000000000000000000000000000000000006001600160a01b031663128acb083084610160015161012001518661225487608001518a89610160015161012001516103b8565b60408051306020820152016040516020818303038152906040526040518663ffffffff1660e01b815260040161228e9594939291906152e8565b60408051808303816000875af11580156122ac573d6000803e3d6000fd5b505050506040513d601f19601f820116820180604052508101906122d09190615362565b61010084015260e08301526020820151610160830151608001516000916123009190670de0b6b3a76400006118f2565b905082610160015161012001511561253e578083610160015161010001516001600160801b031684610100015161233690615386565b6123409190614f40565b101561235e5760405162461bcd60e51b81526004016104ae90615540565b82610100015161236d90615386565b811061239e576101008084015161016085015190910180519183016001600160801b03928316039091169052612487565b808361010001516123ae90615386565b6123b8919061555e565b610120840181905260405163a9059cbb60e01b81526001600160a01b037f0000000000000000000000000000000000000000000000000000000000000000169163a9059cbb9161240c918a9160040161509c565b6020604051808303816000875af115801561242b573d6000803e3d6000fd5b505050506040513d601f19601f8201168201806040525081019061244f91906150b5565b50602083015161016084015160a0015161247191670de0b6b3a76400006118f2565b8361012001818151612483919061555e565b9052505b60405163a9059cbb60e01b81526001600160a01b037f0000000000000000000000000000000000000000000000000000000000000000169063a9059cbb906124f5907f000000000000000000000000000000000000000000000000000000000000000090859060040161509c565b6020604051808303816000875af1158015612514573d6000803e3d6000fd5b505050506040513d601f19601f8201168201806040525081019061253891906150b5565b50612762565b8083610160015161010001516001600160801b03168460e0015161256190615386565b61256b9190614f40565b10156125895760405162461bcd60e51b81526004016104ae90615540565b8260e0015161259790615386565b81106125c75760e08301516101608401516101000180519183016001600160801b039283160390911690526126af565b808360e001516125d690615386565b6125e0919061555e565b610120840181905260405163a9059cbb60e01b81526001600160a01b037f0000000000000000000000000000000000000000000000000000000000000000169163a9059cbb91612634918a9160040161509c565b6020604051808303816000875af1158015612653573d6000803e3d6000fd5b505050506040513d601f19601f8201168201806040525081019061267791906150b5565b50602083015161016084015160a0015161269991670de0b6b3a76400006118f2565b83610120018181516126ab919061555e565b9052505b60405163a9059cbb60e01b81526001600160a01b037f0000000000000000000000000000000000000000000000000000000000000000169063a9059cbb9061271d907f000000000000000000000000000000000000000000000000000000000000000090859060040161509c565b6020604051808303816000875af115801561273c573d6000803e3d6000fd5b505050506040513d601f19601f8201168201806040525081019061276091906150b5565b505b50613413565b81610160015161012001516127a257612785826101a00151611a48565b6001600160a01b031682608001516001600160a01b0316116127c9565b6127b0826101a00151611a48565b6001600160a01b031682608001516001600160a01b0316105b156129a15760008261016001516101200151612805577f0000000000000000000000000000000000000000000000000000000000000000612827565b7f00000000000000000000000000000000000000000000000000000000000000005b60208401516101608501516060015191925060009161284e91670de0b6b3a76400006118f2565b602085015161016086015160a001519192506128739190670de0b6b3a76400006118f2565b61287c90615386565b61012085015261288c8186614f53565b61014085015260405163a9059cbb60e01b81526001600160a01b0383169063a9059cbb906128e0907f000000000000000000000000000000000000000000000000000000000000000090859060040161509c565b6020604051808303816000875af11580156128ff573d6000803e3d6000fd5b505050506040513d601f19601f8201168201806040525081019061292391906150b5565b5061014084015160405163a9059cbb60e01b81526001600160a01b0384169163a9059cbb91612956918b9160040161509c565b6020604051808303816000875af1158015612975573d6000803e3d6000fd5b505050506040513d601f19601f8201168201806040525081019061299991906150b5565b505050613413565b60008060005b846101600151610180015151811015612d1d578460a0015160020b856101600151610180015182815181106129de576129de615151565b60200260200101516000015160020b13158015612a5657508460a0015160020b7f000000000000000000000000000000000000000000000000000000000000000086610160015161018001518381518110612a3b57612a3b615151565b602002602001015160000151612a51919061510c565b60020b135b15612b3f57600080612b1b8760800151612a8589610160015161018001518681518110610a3057610a30615151565b612ac57f00000000000000000000000000000000000000000000000000000000000000008b610160015161018001518881518110610a7757610a77615151565b612b168b60200151670de0b6b3a76400008d610160015161018001518a81518110612af257612af2615151565b6020026020010151602001516001600160801b03166118f29092919063ffffffff16565b614269565b9092509050612b2a8286614f40565b9450612b368185614f40565b93505050612d0b565b612b4e8560a001516001610933565b60020b85610160015161018001518281518110612b6d57612b6d615151565b60200260200101516000015160020b1215612c2757612c16612ba486610160015161018001518381518110610a3057610a30615151565b612be47f000000000000000000000000000000000000000000000000000000000000000088610160015161018001518581518110610a7757610a77615151565b612c118860200151670de0b6b3a76400008a610160015161018001518781518110612af257612af2615151565b614305565b612c209083614f40565b9150612d0b565b612c368560a001516000610933565b60020b85610160015161018001518281518110612c5557612c55615151565b60200260200101516000015160020b1315612d0b57612cfe612c8c86610160015161018001518381518110610a3057610a30615151565b612ccc7f000000000000000000000000000000000000000000000000000000000000000088610160015161018001518581518110610a7757610a77615151565b612cf98860200151670de0b6b3a76400008a610160015161018001518781518110612af257612af2615151565b614357565b612d089084614f40565b92505b80612d1581615167565b9150506129a7565b5061016084015161012001516001600160a01b037f0000000000000000000000000000000000000000000000000000000000000000169063128acb0890309080612d6f57612d6a86615386565b612d78565b612d7885615386565b612d9189608001518c8b610160015161012001516103b8565b60408051306020820152016040516020818303038152906040526040518663ffffffff1660e01b8152600401612dcb9594939291906152e8565b60408051808303816000875af1158015612de9573d6000803e3d6000fd5b505050506040513d601f19601f82011682018060405250810190612e0d9190615362565b61010086015260e08501526101608401516101200151156130535760e0840151612e379086614f53565b821115612f9b576000612e5a8560800151888761016001516101200151156103b8565b90506000807f00000000000000000000000000000000000000000000000000000000000000006001600160a01b031663128acb08308961016001516101200151158a60e001518c612eab9190614f53565b612eb5908a614f53565b612ebe90615386565b604080513060208201528991016040516020818303038152906040526040518663ffffffff1660e01b8152600401612efa9594939291906152e8565b60408051808303816000875af1158015612f18573d6000803e3d6000fd5b505050506040513d601f19601f82011682018060405250810190612f3c9190615362565b915091508087610160015161010001516001600160801b03161015612f735760405162461bcd60e51b81526004016104ae90615540565b6101608701516101000180516001600160801b039081169290920390911690525061327c9050565b818460e0015186612fac9190614f53565b612fb69190614f53565b610140850181905260405163a9059cbb60e01b81526001600160a01b037f0000000000000000000000000000000000000000000000000000000000000000169163a9059cbb9161300a918b9160040161509c565b6020604051808303816000875af1158015613029573d6000803e3d6000fd5b505050506040513d601f19601f8201168201806040525081019061304d91906150b5565b5061327c565b6101008401516130639086614f53565b8111156131c75760006130868560800151888761016001516101200151156103b8565b90506000807f00000000000000000000000000000000000000000000000000000000000000006001600160a01b031663128acb08308961016001516101200151158a61010001518c6130d89190614f53565b6130e29089614f53565b6130eb90615386565b604080513060208201528991016040516020818303038152906040526040518663ffffffff1660e01b81526004016131279594939291906152e8565b60408051808303816000875af1158015613145573d6000803e3d6000fd5b505050506040513d601f19601f820116820180604052508101906131699190615362565b915091508187610160015161010001516001600160801b031610156131a05760405162461bcd60e51b81526004016104ae90615540565b506101608601516101000180516001600160801b039081169290920390911690525061327c565b80846101000151866131d99190614f53565b6131e39190614f53565b610140850181905260405163a9059cbb60e01b81526001600160a01b037f0000000000000000000000000000000000000000000000000000000000000000169163a9059cbb91613237918b9160040161509c565b6020604051808303816000875af1158015613256573d6000803e3d6000fd5b505050506040513d601f19601f8201168201806040525081019061327a91906150b5565b505b602084015161016085015160a0015161329d91670de0b6b3a76400006118f2565b6132a690615386565b61012085015260405163a9059cbb60e01b81526001600160a01b037f0000000000000000000000000000000000000000000000000000000000000000169063a9059cbb9061331a907f000000000000000000000000000000000000000000000000000000000000000090869060040161509c565b6020604051808303816000875af1158015613339573d6000803e3d6000fd5b505050506040513d601f19601f8201168201806040525081019061335d91906150b5565b5060405163a9059cbb60e01b81526001600160a01b037f0000000000000000000000000000000000000000000000000000000000000000169063a9059cbb906133cc907f000000000000000000000000000000000000000000000000000000000000000090859060040161509c565b6020604051808303816000875af11580156133eb573d6000803e3d6000fd5b505050506040513d601f19601f8201168201806040525081019061340f91906150b5565b5050505b6101608201516101800151602083015160405163e9f4fcf360e01b81526001600160a01b037f0000000000000000000000000000000000000000000000000000000000000000169263e9f4fcf39261346d9260040161557e565b600060405180830381600087803b15801561348757600080fd5b505af115801561349b573d6000803e3d6000fd5b505060005461016085015160405163424bf6f160e01b81526001600160a01b03909216935063424bf6f192506134d59133906004016153d2565b600060405180830381600087803b1580156134ef57600080fd5b505af1158015613503573d6000803e3d6000fd5b505050506101608201516101008101516001600160801b0316604080850191909152015183101561385b5761016082018051600060e0909101819052815161010001819052815160c00152516040018051849190613562908390614f53565b90525061016082015161012081015161018090910151602084015161359a92919061359590670de0b6b3a7640000614f53565b6143c1565b61016084015160808101919091526060015260208201516135e0906135c790670de0b6b3a7640000614f53565b61016084015160a0015190670de0b6b3a76400006118f2565b6101608301805160a0019190915260005490516101800151604051635b664e4f60e11b81526001600160a01b039092169163b6cc9c9e91613623916004016153fc565b600060405180830381865afa158015613640573d6000803e3d6000fd5b505050506040513d6000823e601f3d908101601f19168201604052613668919081019061540f565b610160830180516101809081019290925260005490519182015160a08501516101209093015160405163a02032bf60e01b81526001600160a01b039093169363a02032bf936136bb939290600401615443565b600060405180830381865afa1580156136d8573d6000803e3d6000fd5b505050506040513d6000823e601f3d908101601f191682016040526137009190810190615470565b6101608401805161018001919091526101e08401919091526040805160a0810182526001600160a01b03888116825283516101200151151560208301526000828401527f000000000000000000000000000000000000000000000000000000000000000081166060830152925160808201529051630850d0e960e01b81527f000000000000000000000000000000000000000000000000000000000000000090921691630850d0e9916137b5916004016154b6565b600060405180830381600087803b1580156137cf57600080fd5b505af11580156137e3573d6000803e3d6000fd5b5050600080546101608601516101e0870151604051634cb896f160e11b81526001600160a01b0390931695506399712de29450613824938b93600401615509565b600060405180830381600087803b15801561383e57600080fd5b505af1158015613852573d6000803e3d6000fd5b50505050613948565b604080516080810182526001600160a01b037f00000000000000000000000000000000000000000000000000000000000000008116825287811660208301908152610160860151610120015115158385019081526000606085019081529451633a5177df60e01b815293518316600485015290518216602484015251151560448301529151151560648201527f000000000000000000000000000000000000000000000000000000000000000090911690633a5177df90608401600060405180830381600087803b15801561392f57600080fd5b505af1158015613943573d6000803e3d6000fd5b505050505b506040805160c08101825260e0830151815261010083015160208201526101208301518183015261014083015160608201529082015160808201526101e082015160a0820152949350505050565b6139a18184156109d6565b82146139d55760405162461bcd60e51b8152602060048201526003602482015262696e6360e81b60448201526064016104ae565b60008054604051631542428b60e31b815282916001600160a01b03169063aa12145890613a069086906004016153fc565b600060405180830381865afa158015613a23573d6000803e3d6000fd5b505050506040513d6000823e601f3d908101601f19168201604052613a4b91908101906155a0565b9150915081613a855760405162461bcd60e51b81526004016104ae90602080825260049082015263216c697160e01b604082015260600190565b60005b8151811015613ade57818181518110613aa357613aa3615151565b6020026020010151848281518110613abd57613abd615151565b60209081029190910101516040015280613ad681615167565b915050613a88565b50604051637c61444d60e01b81526001600160a01b037f00000000000000000000000000000000000000000000000000000000000000001690637c61444d90613b3290869089906001908a9060040161506d565b600060405180830381600087803b158015613b4c57600080fd5b505af1158015613b60573d6000803e3d6000fd5b505050505050505050565b81518151606091906000613b7f8284614f40565b90506000816001600160401b03811115613b9b57613b9b614872565b604051908082528060200260200182016040528015613be657816020015b6040805160608101825260008082526020808301829052928201528252600019909201910181613bb95790505b50905060008060005b8683108015613bfd57508582105b15613dd5576000613c488b8581518110613c1957613c19615151565b6020026020010151600001518b8581518110613c3757613c37615151565b602002602001015160000151614563565b1215613c9857898381518110613c6057613c60615151565b6020026020010151848281518110613c7a57613c7a615151565b60200260200101819052508280613c9090615167565b935050613dc3565b6000613caf8b8581518110613c1957613c19615151565b1315613cff57888281518110613cc757613cc7615151565b6020026020010151848281518110613ce157613ce1615151565b60200260200101819052508180613cf790615167565b925050613dc3565b60405180606001604052808b8581518110613d1c57613d1c615151565b60200260200101516000015160020b81526020018a8481518110613d4257613d42615151565b6020026020010151602001518c8681518110613d6057613d60615151565b602002602001015160200151613d769190615647565b6001600160801b031681526020016000815250848281518110613d9b57613d9b615151565b60200260200101819052508280613db190615167565b9350508180613dbf90615167565b9250505b80613dcd81615167565b915050613bef565b86831015613e3557898381518110613def57613def615151565b6020026020010151848281518110613e0957613e09615151565b60200260200101819052508280613e1f90615167565b9350508080613e2d90615167565b915050613dd5565b85821015613e9557888281518110613e4f57613e4f615151565b6020026020010151848281518110613e6957613e69615151565b60200260200101819052508180613e7f90615167565b9250508080613e8d90615167565b915050613e35565b60008093505b85841015613fcf576000613eb0856001614f40565b93505b86841015613f7157858481518110613ecd57613ecd615151565b60200260200101516000015160020b868681518110613eee57613eee615151565b60200260200101516000015160020b03613f5f5760019050858481518110613f1857613f18615151565b602002602001015160200151868681518110613f3657613f36615151565b6020026020010151602001818151613f4e9190615647565b6001600160801b0316905250613f71565b83613f6981615167565b945050613eb3565b80613fbc57858581518110613f8857613f88615151565b6020026020010151868381518110613fa257613fa2615151565b60200260200101819052508180613fb890615167565b9250505b5083613fc781615167565b945050613e9b565b808552613fe8856000613fe3600185614f53565b6145ac565b6000816001600160401b0381111561400257614002614872565b60405190808252806020026020018201604052801561404d57816020015b60408051606081018252600080825260208083018290529282015282526000199092019101816140205790505b5090506000935060005b86518110156141125786818151811061407257614072615151565b60200260200101516000015160020b60001480156140b6575086818151811061409d5761409d615151565b6020026020010151602001516001600160801b03166000145b614100578681815181106140cc576140cc615151565b60200260200101518286815181106140e6576140e6615151565b602002602001018190525084806140fc90615167565b9550505b8061410a81615167565b915050614057565b508161411d81615667565b80835292506141359050816000613fe3600186614f53565b9b9a5050505050505050505050565b80516060906000816001600160401b0381111561416357614163614872565b6040519080825280602002602001820160405280156141ae57816020015b60408051606081018252600080825260208083018290529282015282526000199092019101816141815790505b5090506000825b6001811061421f57856141c9600183614f53565b815181106141d9576141d9615151565b60200260200101518383815181106141f3576141f3615151565b6020026020010181905250818061420990615167565b925050808061421790615667565b9150506141b5565b5090949350505050565b60006142368484846118f2565b90506000828061424857614248614e5c565b848609111561046357600019811061425f57600080fd5b6001019392505050565b600080836001600160a01b0316856001600160a01b0316111561428a579293925b846001600160a01b0316866001600160a01b0316116142b5576142ae858585614357565b91506142fc565b836001600160a01b0316866001600160a01b031610156142ee576142da868585614357565b91506142e7858785614305565b90506142fc565b6142f9858585614305565b90505b94509492505050565b6000826001600160a01b0316846001600160a01b03161115614325579192915b61434f6001600160801b03831661433c868661567e565b6001600160a01b0316600160601b6118f2565b949350505050565b6000826001600160a01b0316846001600160a01b03161115614377579192915b6001600160a01b0384166143b7600160601b600160e01b03606085901b1661439f878761567e565b6001600160a01b0316866001600160a01b03166118f2565b61434f9190614e72565b60008060008060005b8651811015614558578681815181106143e5576143e5615151565b6020026020010151602001516001600160801b0316600003156145465786818151811061441457614414615151565b602002602001015160000151915061444186670de0b6b3a7640000898481518110612af257612af2615151565b92508287828151811061445657614456615151565b6020908102919091018101516001600160801b039092169101528715614515576144b761448283611a48565b6144af610a8d7f00000000000000000000000000000000000000000000000000000000000000008661510c565b856001611d6b565b6144c19086614f40565b94506145046144cf83611a48565b6144fc610a8d7f00000000000000000000000000000000000000000000000000000000000000008661510c565b856001611e22565b61450e9085614f40565b9350614546565b6145216144cf83611a48565b61452b9086614f40565b945061453961448283611a48565b6145439085614f40565b93505b8061455081615167565b9150506143ca565b505050935093915050565b6000808360020b12801561457a575060008260020b125b15614598578260020b8260020b614591919061555e565b90506109d0565b6145a2828461569e565b60020b9392505050565b8082106145b857505050565b60016145c48383614f53565b116145ce57505050565b818160008560026145df8486614f40565b6145e99190614e72565b815181106145f9576145f9615151565b602002602001015190505b818311614725575b806000015160020b86848151811061462657614626615151565b60200260200101516000015160020b121561464d578261464581615167565b93505061460c565b806000015160020b86838151811061466757614667615151565b60200260200101516000015160020b131561468e578161468681615667565b92505061464d565b818311614720578582815181106146a7576146a7615151565b60200260200101518684815181106146c1576146c1615151565b60200260200101518785815181106146db576146db615151565b602002602001018885815181106146f4576146f4615151565b602002602001018290528290525050828061470e90615167565b935050818061471c90615667565b9250505b614604565b81851015614738576147388686846145ac565b83831015610fc557610fc58684866145ac565b604080516101a08101825260008082526020820181905291810182905260608082018390526080820183905260a0820183905260c0820183905260e0820183905261010082018390526101208201839052610140820183905261016082019290925261018081019190915290565b6040518061024001604052806000815260200160008152602001600081526020016000815260200160006001600160a01b03168152602001600060020b815260200160006001600160a01b031681526020016000815260200160008152602001600081526020016000815260200161482f61474b565b81526000602082018190526040820181905260608083018290526080830182905260a083019190915260c09091015290565b801515811461486f57600080fd5b50565b634e487b7160e01b600052604160045260246000fd5b604051606081016001600160401b03811182821017156148aa576148aa614872565b60405290565b6040516101a081016001600160401b03811182821017156148aa576148aa614872565b604051601f8201601f191681016001600160401b03811182821017156148fb576148fb614872565b604052919050565b60006001600160401b0382111561491c5761491c614872565b5060051b60200190565b8060020b811461486f57600080fd5b6001600160801b038116811461486f57600080fd5b600082601f83011261495b57600080fd5b8135602061497061496b83614903565b6148d3565b8281526060928302850182019282820191908785111561498f57600080fd5b8387015b858110156149e85781818a0312156149ab5760008081fd5b6149b3614888565b81356149be81614926565b8152818601356149cd81614935565b81870152604082810135908201528452928401928101614993565b5090979650505050505050565b600080600080600060a08688031215614a0d57600080fd5b8535945060208601359350604086013592506060860135614a2d81614861565b915060808601356001600160401b03811115614a4857600080fd5b614a548882890161494a565b9150509295509295909350565b600081518084526020808501945080840160005b83811015614ab5578151805160020b88526020808201516001600160801b0316908901526040908101519088015260608701965090820190600101614a75565b509495945050505050565b80511515825260006101a06020830151614ae560208601826001600160a01b03169052565b5060408301516040850152606083015160608501526080830151608085015260a083015160a085015260c0830151614b2860c08601826001600160801b03169052565b5060e0830151614b4360e08601826001600160801b03169052565b50610100838101516001600160801b031690850152610120808401511515908501526101408084015163ffffffff90811691860191909152610160808501519091169085015261018080840151818601839052614ba283870182614a61565b9695505050505050565b606081526000614bbf6060830186614ac0565b60208301949094525060400152919050565b6001600160a01b038116811461486f57600080fd5b600080600060608486031215614bfb57600080fd5b8335614c0681614bd1565b9250602084013591506040840135614c1d81614861565b809150509250925092565b600080600060608486031215614c3d57600080fd5b8335614c4881614861565b95602085013595506040909401359392505050565b8360020b81528260020b6020820152606060408201526000610e7b6060830184614a61565b600060208284031215614c9457600080fd5b813561046381614bd1565b60008060008060808587031215614cb557600080fd5b8435935060208501359250604085013591506060850135614cd581614861565b939692955090935050565b60008060408385031215614cf357600080fd5b8235614cfe81614926565b91506020830135614d0e81614861565b809150509250929050565b60008060408385031215614d2c57600080fd5b82356001600160401b03811115614d4257600080fd5b614d4e8582860161494a565b9250506020830135614d0e81614861565b60008060008060808587031215614d7557600080fd5b8435614d8081614861565b93506020850135614d9081614bd1565b92506040850135614da081614bd1565b9396929550929360600135925050565b60008060008060608587031215614dc657600080fd5b843593506020850135925060408501356001600160401b0380821115614deb57600080fd5b818701915087601f830112614dff57600080fd5b813581811115614e0e57600080fd5b886020828501011115614e2057600080fd5b95989497505060200194505050565b634e487b7160e01b600052601160045260246000fd5b80820281158282048414176109d0576109d0614e2f565b634e487b7160e01b600052601260045260246000fd5b600082614e8157614e81614e5c565b500490565b805161ffff81168114614e9857600080fd5b919050565b8051614e9881614861565b600080600080600080600060e0888a031215614ec357600080fd5b8751614ece81614bd1565b6020890151909750614edf81614926565b9550614eed60408901614e86565b9450614efb60608901614e86565b9350614f0960808901614e86565b925060a088015160ff81168114614f1f57600080fd5b60c0890151909250614f3081614861565b8091505092959891949750929550565b808201808211156109d0576109d0614e2f565b818103818111156109d0576109d0614e2f565b8051614e9881614935565b600082601f830112614f8257600080fd5b81516020614f9261496b83614903565b82815260609283028501820192828201919087851115614fb157600080fd5b8387015b858110156149e85781818a031215614fcd5760008081fd5b614fd5614888565b8151614fe081614926565b815281860151614fef81614935565b81870152604082810151908201528452928401928101614fb5565b60008060006060848603121561501f57600080fd5b835161502a81614926565b602085015190935061503b81614926565b60408501519092506001600160401b0381111561505757600080fd5b61506386828701614f71565b9150509250925092565b6080815260006150806080830187614a61565b9415156020830152509115156040830152606090910152919050565b6001600160a01b03929092168252602082015260400190565b6000602082840312156150c757600080fd5b815161046381614861565b60008160020b8360020b806150e9576150e9614e5c565b627fffff1982146000198214161561510357615103614e2f565b90059392505050565b600281810b9083900b01627fffff8113627fffff19821217156109d0576109d0614e2f565b60008260020b8260020b028060020b9150808214610b5a57610b5a614e2f565b634e487b7160e01b600052603260045260246000fd5b60006001820161517957615179614e2f565b5060010190565b6001600160a01b039384168152919092166020820152604081019190915260600190565b8051614e9881614bd1565b805163ffffffff81168114614e9857600080fd5b6000602082840312156151d557600080fd5b81516001600160401b03808211156151ec57600080fd5b908301906101a0828603121561520157600080fd5b6152096148b0565b61521283614e9d565b8152615220602084016151a4565b602082015260408301516040820152606083015160608201526080830151608082015260a083015160a082015261525960c08401614f66565b60c082015261526a60e08401614f66565b60e082015261010061527d818501614f66565b9082015261012061528f848201614e9d565b908201526101406152a18482016151af565b908201526101606152b38482016151af565b9082015261018083810151838111156152cb57600080fd5b6152d788828701614f71565b918301919091525095945050505050565b600060018060a01b038088168352602087151581850152866040850152818616606085015260a06080850152845191508160a085015260005b8281101561533d5785810182015185820160c001528101615321565b5050600060c0828501015260c0601f19601f8301168401019150509695505050505050565b6000806040838503121561537557600080fd5b505080516020909101519092909150565b6000600160ff1b820161539b5761539b614e2f565b5060000390565b6020815260006104636020830184614ac0565b6000602082840312156153c757600080fd5b815161046381614935565b6040815260006153e56040830185614ac0565b905060018060a01b03831660208301529392505050565b6020815260006104636020830184614a61565b60006020828403121561542157600080fd5b81516001600160401b0381111561543757600080fd5b6109cc84828501614f71565b6060815260006154566060830186614a61565b60029490940b602083015250901515604090910152919050565b6000806040838503121561548357600080fd5b8251915060208301516001600160401b038111156154a057600080fd5b6154ac85828601614f71565b9150509250929050565b60208152600060018060a01b0380845116602084015260208401511515604084015260408401511515606084015280606085015116608084015250608083015160a0808401526109cc60c0840182614ac0565b6001600160a01b038516815260806020820181905260009061552d90830186614ac0565b6040830194909452506060015292915050565b60208082526004908201526319985a5b60e21b604082015260600190565b8181036000831280158383131683831282161715610b5a57610b5a614e2f565b6040815260006155916040830185614a61565b90508260208301529392505050565b600080604083850312156155b357600080fd5b82516155be81614861565b809250506020808401516001600160401b038111156155dc57600080fd5b8401601f810186136155ed57600080fd5b80516155fb61496b82614903565b81815260059190911b8201830190838101908883111561561a57600080fd5b928401925b828410156156385783518252928401929084019061561f565b80955050505050509250929050565b6001600160801b03818116838216019080821115610b5a57610b5a614e2f565b60008161567657615676614e2f565b506000190190565b6001600160a01b03828116828216039080821115610b5a57610b5a614e2f565b600282810b9082900b03627fffff198112627fffff821317156109d0576109d0614e2f56fea26469706673582212202665255f9bb0b1af2bb24cc20f894e15d046f8418e7b2ae34a23a8bc3679499064736f6c63430008110033",
    "linkReferences": {}
  },
  "methodIdentifiers": {
    "addPosition(uint256,uint256,uint256,bool)": "3cd7bca7",
    "addPositionSpecfied(uint256,uint256,uint256,bool,(int24,uint128,uint256)[])": "0d3401ee",
    "applySlippageX96(uint160,uint256,bool)": "207b0576",
    "borrow(bool,uint256,uint256)": "25350f8e",
    "getFilledAmount((int24,uint128,uint256)[],bool)": "786afbcc",
    "globalStorage()": "6502072a",
    "liquidityManager()": "33827438",
    "pool()": "16f0115b",
    "precision()": "d3b5dc3b",
    "reducePosition(bool,uint256,uint256)": "deff1bdc",
    "roundTick(int24,bool)": "3dc306ee",
    "setLiquidityManager(address)": "3c1624d4",
    "tickSpacing()": "d0c93a7c",
    "token0()": "0dfe1681",
    "token1()": "d21220a7",
    "transferToken(bool,address,address,uint256)": "a352dcbf",
    "uniswapV3SwapCallback(int256,int256,bytes)": "fa461e33"
  },
  "id": 37
}