{
  "abi": [
    {
      "inputs": [],
      "stateMutability": "nonpayable",
      "type": "constructor"
    },
    {
      "inputs": [],
      "name": "T",
      "type": "error"
    },
    {
      "inputs": [
        {
          "internalType": "uint256",
          "name": "traderFund",
          "type": "uint256"
        },
        {
          "internalType": "uint256",
          "name": "maxSlippage",
          "type": "uint256"
        },
        {
          "internalType": "uint256",
          "name": "borrowAmount",
          "type": "uint256"
        },
        {
          "internalType": "bool",
          "name": "isToken0",
          "type": "bool"
        }
      ],
      "name": "addPosition",
      "outputs": [
        {
          "components": [
            {
              "internalType": "bool",
              "name": "isBorrow",
              "type": "bool"
            },
            {
              "internalType": "address",
              "name": "pool",
              "type": "address"
            },
            {
              "internalType": "uint256",
              "name": "totalPosition",
              "type": "uint256"
            },
            {
              "internalType": "uint256",
              "name": "totalDebt",
              "type": "uint256"
            },
            {
              "internalType": "uint256",
              "name": "totalDebtInput",
              "type": "uint256"
            },
            {
              "internalType": "uint256",
              "name": "initCollateral",
              "type": "uint256"
            },
            {
              "internalType": "uint128",
              "name": "recentPremium",
              "type": "uint128"
            },
            {
              "internalType": "uint128",
              "name": "totalPremium",
              "type": "uint128"
            },
            {
              "internalType": "uint128",
              "name": "unusedPremium",
              "type": "uint128"
            },
            {
              "internalType": "bool",
              "name": "isToken0",
              "type": "bool"
            },
            {
              "internalType": "uint32",
              "name": "openTime",
              "type": "uint32"
            },
            {
              "internalType": "uint32",
              "name": "repayTime",
              "type": "uint32"
            },
            {
              "components": [
                {
                  "internalType": "int24",
                  "name": "tick",
                  "type": "int24"
                },
                {
                  "internalType": "uint128",
                  "name": "liquidity",
                  "type": "uint128"
                },
                {
                  "internalType": "uint256",
                  "name": "premiumOrUrate",
                  "type": "uint256"
                }
              ],
              "internalType": "struct LiquidityManager.Liquidity[]",
              "name": "borrowInfo",
              "type": "tuple[]"
            }
          ],
          "internalType": "struct GlobalStorage.Position",
          "name": "",
          "type": "tuple"
        },
        {
          "internalType": "uint256",
          "name": "",
          "type": "uint256"
        },
        {
          "internalType": "uint256",
          "name": "",
          "type": "uint256"
        }
      ],
      "stateMutability": "nonpayable",
      "type": "function"
    },
    {
      "inputs": [
        {
          "internalType": "uint256",
          "name": "traderFund",
          "type": "uint256"
        },
        {
          "internalType": "uint256",
          "name": "maxSlippage",
          "type": "uint256"
        },
        {
          "internalType": "uint256",
          "name": "borrowAmount",
          "type": "uint256"
        },
        {
          "internalType": "bool",
          "name": "isToken0",
          "type": "bool"
        },
        {
          "components": [
            {
              "internalType": "int24",
              "name": "tick",
              "type": "int24"
            },
            {
              "internalType": "uint128",
              "name": "liquidity",
              "type": "uint128"
            },
            {
              "internalType": "uint256",
              "name": "premiumOrUrate",
              "type": "uint256"
            }
          ],
          "internalType": "struct LiquidityManager.Liquidity[]",
          "name": "borrowInfo",
          "type": "tuple[]"
        }
      ],
      "name": "addPositionSpecfied",
      "outputs": [
        {
          "components": [
            {
              "internalType": "bool",
              "name": "isBorrow",
              "type": "bool"
            },
            {
              "internalType": "address",
              "name": "pool",
              "type": "address"
            },
            {
              "internalType": "uint256",
              "name": "totalPosition",
              "type": "uint256"
            },
            {
              "internalType": "uint256",
              "name": "totalDebt",
              "type": "uint256"
            },
            {
              "internalType": "uint256",
              "name": "totalDebtInput",
              "type": "uint256"
            },
            {
              "internalType": "uint256",
              "name": "initCollateral",
              "type": "uint256"
            },
            {
              "internalType": "uint128",
              "name": "recentPremium",
              "type": "uint128"
            },
            {
              "internalType": "uint128",
              "name": "totalPremium",
              "type": "uint128"
            },
            {
              "internalType": "uint128",
              "name": "unusedPremium",
              "type": "uint128"
            },
            {
              "internalType": "bool",
              "name": "isToken0",
              "type": "bool"
            },
            {
              "internalType": "uint32",
              "name": "openTime",
              "type": "uint32"
            },
            {
              "internalType": "uint32",
              "name": "repayTime",
              "type": "uint32"
            },
            {
              "components": [
                {
                  "internalType": "int24",
                  "name": "tick",
                  "type": "int24"
                },
                {
                  "internalType": "uint128",
                  "name": "liquidity",
                  "type": "uint128"
                },
                {
                  "internalType": "uint256",
                  "name": "premiumOrUrate",
                  "type": "uint256"
                }
              ],
              "internalType": "struct LiquidityManager.Liquidity[]",
              "name": "borrowInfo",
              "type": "tuple[]"
            }
          ],
          "internalType": "struct GlobalStorage.Position",
          "name": "",
          "type": "tuple"
        },
        {
          "internalType": "uint256",
          "name": "",
          "type": "uint256"
        },
        {
          "internalType": "uint256",
          "name": "",
          "type": "uint256"
        }
      ],
      "stateMutability": "nonpayable",
      "type": "function"
    },
    {
      "inputs": [
        {
          "internalType": "uint160",
          "name": "price",
          "type": "uint160"
        },
        {
          "internalType": "uint256",
          "name": "maxSlippage",
          "type": "uint256"
        },
        {
          "internalType": "bool",
          "name": "down",
          "type": "bool"
        }
      ],
      "name": "applySlippageX96",
      "outputs": [
        {
          "internalType": "uint160",
          "name": "",
          "type": "uint160"
        }
      ],
      "stateMutability": "pure",
      "type": "function"
    },
    {
      "inputs": [
        {
          "internalType": "bool",
          "name": "borrowBelow",
          "type": "bool"
        },
        {
          "internalType": "uint256",
          "name": "amountSpecified",
          "type": "uint256"
        },
        {
          "internalType": "uint256",
          "name": "leverage",
          "type": "uint256"
        }
      ],
      "name": "borrow",
      "outputs": [
        {
          "internalType": "int24",
          "name": "",
          "type": "int24"
        },
        {
          "internalType": "int24",
          "name": "",
          "type": "int24"
        },
        {
          "components": [
            {
              "internalType": "int24",
              "name": "tick",
              "type": "int24"
            },
            {
              "internalType": "uint128",
              "name": "liquidity",
              "type": "uint128"
            },
            {
              "internalType": "uint256",
              "name": "premiumOrUrate",
              "type": "uint256"
            }
          ],
          "internalType": "struct LiquidityManager.Liquidity[]",
          "name": "",
          "type": "tuple[]"
        }
      ],
      "stateMutability": "nonpayable",
      "type": "function"
    },
    {
      "inputs": [
        {
          "components": [
            {
              "internalType": "int24",
              "name": "tick",
              "type": "int24"
            },
            {
              "internalType": "uint128",
              "name": "liquidity",
              "type": "uint128"
            },
            {
              "internalType": "uint256",
              "name": "premiumOrUrate",
              "type": "uint256"
            }
          ],
          "internalType": "struct LiquidityManager.Liquidity[]",
          "name": "borrowInfo",
          "type": "tuple[]"
        },
        {
          "internalType": "bool",
          "name": "borrowBelow",
          "type": "bool"
        }
      ],
      "name": "getFilledAmount",
      "outputs": [
        {
          "internalType": "uint256",
          "name": "filledAmount",
          "type": "uint256"
        }
      ],
      "stateMutability": "view",
      "type": "function"
    },
    {
      "inputs": [],
      "name": "globalStorage",
      "outputs": [
        {
          "internalType": "contract GlobalStorage",
          "name": "",
          "type": "address"
        }
      ],
      "stateMutability": "view",
      "type": "function"
    },
    {
      "inputs": [],
      "name": "liquidityManager",
      "outputs": [
        {
          "internalType": "contract LiquidityManager",
          "name": "",
          "type": "address"
        }
      ],
      "stateMutability": "view",
      "type": "function"
    },
    {
      "inputs": [],
      "name": "pool",
      "outputs": [
        {
          "internalType": "contract UniswapV3Pool",
          "name": "",
          "type": "address"
        }
      ],
      "stateMutability": "view",
      "type": "function"
    },
    {
      "inputs": [],
      "name": "precision",
      "outputs": [
        {
          "internalType": "uint256",
          "name": "",
          "type": "uint256"
        }
      ],
      "stateMutability": "view",
      "type": "function"
    },
    {
      "inputs": [
        {
          "internalType": "bool",
          "name": "isToken0",
          "type": "bool"
        },
        {
          "internalType": "uint256",
          "name": "userSpecifiedSlippage",
          "type": "uint256"
        },
        {
          "internalType": "uint256",
          "name": "reduceAmount",
          "type": "uint256"
        }
      ],
      "name": "reducePosition",
      "outputs": [
        {
          "components": [
            {
              "internalType": "int256",
              "name": "amount0",
              "type": "int256"
            },
            {
              "internalType": "int256",
              "name": "amount1",
              "type": "int256"
            },
            {
              "internalType": "int256",
              "name": "PnL",
              "type": "int256"
            },
            {
              "internalType": "uint256",
              "name": "returnedAmount",
              "type": "uint256"
            },
            {
              "internalType": "uint256",
              "name": "unusedPremium",
              "type": "uint256"
            },
            {
              "internalType": "uint256",
              "name": "premium",
              "type": "uint256"
            }
          ],
          "internalType": "struct ReduceReturn",
          "name": "",
          "type": "tuple"
        }
      ],
      "stateMutability": "nonpayable",
      "type": "function"
    },
    {
      "inputs": [
        {
          "internalType": "int24",
          "name": "tick",
          "type": "int24"
        },
        {
          "internalType": "bool",
          "name": "down",
          "type": "bool"
        }
      ],
      "name": "roundTick",
      "outputs": [
        {
          "internalType": "int24",
          "name": "",
          "type": "int24"
        }
      ],
      "stateMutability": "view",
      "type": "function"
    },
    {
      "inputs": [
        {
          "internalType": "address",
          "name": "ad",
          "type": "address"
        }
      ],
      "name": "setLiquidityManager",
      "outputs": [],
      "stateMutability": "nonpayable",
      "type": "function"
    },
    {
      "inputs": [],
      "name": "tickSpacing",
      "outputs": [
        {
          "internalType": "int24",
          "name": "",
          "type": "int24"
        }
      ],
      "stateMutability": "view",
      "type": "function"
    },
    {
      "inputs": [],
      "name": "token0",
      "outputs": [
        {
          "internalType": "contract ERC20",
          "name": "",
          "type": "address"
        }
      ],
      "stateMutability": "view",
      "type": "function"
    },
    {
      "inputs": [],
      "name": "token1",
      "outputs": [
        {
          "internalType": "contract ERC20",
          "name": "",
          "type": "address"
        }
      ],
      "stateMutability": "view",
      "type": "function"
    },
    {
      "inputs": [
        {
          "internalType": "bool",
          "name": "isToken0",
          "type": "bool"
        },
        {
          "internalType": "address",
          "name": "caller",
          "type": "address"
        },
        {
          "internalType": "address",
          "name": "receiver",
          "type": "address"
        },
        {
          "internalType": "uint256",
          "name": "amount",
          "type": "uint256"
        }
      ],
      "name": "transferToken",
      "outputs": [],
      "stateMutability": "nonpayable",
      "type": "function"
    },
    {
      "inputs": [
        {
          "internalType": "int256",
          "name": "amount0Delta",
          "type": "int256"
        },
        {
          "internalType": "int256",
          "name": "amount1Delta",
          "type": "int256"
        },
        {
          "internalType": "bytes",
          "name": "data",
          "type": "bytes"
        }
      ],
      "name": "uniswapV3SwapCallback",
      "outputs": [],
      "stateMutability": "nonpayable",
      "type": "function"
    }
  ],
  "bytecode": {
    "object": "0x6101206040523480156200001257600080fd5b50600080336001600160a01b031663890357306040518163ffffffff1660e01b81526004016040805180830381865afa15801562000054573d6000803e3d6000fd5b505050506040513d601f19601f820116820180604052508101906200007a91906200020a565b6001600160a01b0380831660a08190529082166101005260408051630dfe168160e01b8152905193955091935091630dfe1681916004808201926020929091908290030181865afa158015620000d4573d6000803e3d6000fd5b505050506040513d601f19601f82011682018060405250810190620000fa919062000242565b60a0516001600160a01b031663d21220a76040518163ffffffff1660e01b8152600401602060405180830381865afa1580156200013b573d6000803e3d6000fd5b505050506040513d601f19601f8201168201806040525081019062000161919062000242565b6001600160a01b0390811660e05290811660c05260a051604080516334324e9f60e21b81529051919092169163d0c93a7c9160048083019260209291908290030181865afa158015620001b8573d6000803e3d6000fd5b505050506040513d601f19601f82011682018060405250810190620001de919062000267565b60020b608052506200028c9050565b80516001600160a01b03811681146200020557600080fd5b919050565b600080604083850312156200021e57600080fd5b6200022983620001ed565b91506200023960208401620001ed565b90509250929050565b6000602082840312156200025557600080fd5b6200026082620001ed565b9392505050565b6000602082840312156200027a57600080fd5b81518060020b81146200026057600080fd5b60805160a05160c05160e0516101005161564c620004606000396000818161023c01528181610df20152818161101a015281816117c7015281816135b401526136af0152600081816102be0152818161082101528181610c6801528181610d0c01528181610f4b01528181611136015281816123d001528181612497015281816127da015281816131fb015261336e0152600081816101400152818161078a01528181610bcf01528181610cbe01528181610eb4015281816111d0015281816125f8015281816126bf0152818161280001528181612fce01526132bc01526000818161017f015281816104c1015281816106cd0152818161124f015281816112fd0152818161178e01528181611f0b015281816121fa015281816124c4015281816126ec015281816128af01528181612d2c01528181612e5a01528181613086015281816132e90152818161339b015281816134330152818161357a0152818161363501526139410152600081816102970152818161093b01528181610969015281816109a701528181610a4601528181610ae50152818161207b015281816120e5015281816129f901528181612a8301528181612ba201528181612c8a0152818161439601526143e3015261564c6000f3fe608060405234801561001057600080fd5b506004361061010b5760003560e01c80633dc306ee116100a2578063d0c93a7c11610071578063d0c93a7c14610292578063d21220a7146102b9578063d3b5dc3b146102e0578063deff1bdc146102ef578063fa461e331461034e57600080fd5b80633dc306ee146102115780636502072a14610237578063786afbcc1461025e578063a352dcbf1461027f57600080fd5b806325350f8e116100de57806325350f8e146101b457806333827438146101d65780633c1624d4146101e95780633cd7bca7146101fe57600080fd5b80630d3401ee146101105780630dfe16811461013b57806316f0115b1461017a578063207b0576146101a1575b600080fd5b61012361011e366004614901565b610361565b60405161013293929190614ab8565b60405180910390f35b6101627f000000000000000000000000000000000000000000000000000000000000000081565b6040516001600160a01b039091168152602001610132565b6101627f000000000000000000000000000000000000000000000000000000000000000081565b6101626101af366004614af2565b6103b8565b6101c76101c2366004614b34565b61046a565b60405161013293929190614b69565b600054610162906001600160a01b031681565b6101fc6101f7366004614b8e565b61075c565b005b61012361020c366004614bab565b6108a5565b61022461021f366004614bec565b610933565b60405160029190910b8152602001610132565b6101627f000000000000000000000000000000000000000000000000000000000000000081565b61027161026c366004614c25565b6109d6565b604051908152602001610132565b6101fc61028d366004614c6b565b610b61565b6102247f000000000000000000000000000000000000000000000000000000000000000081565b6101627f000000000000000000000000000000000000000000000000000000000000000081565b610271670de0b6b3a764000081565b6103026102fd366004614b34565b610d8e565b6040516101329190600060c082019050825182526020830151602083015260408301516040830152606083015160608301526080830151608083015260a083015160a083015292915050565b6101fc61035c366004614cbc565b610e84565b610369614657565b6000806103a76040518060a001604052808a81526020018981526020018881526020018715158152602001336001600160a01b031681525085610fcd565b925092509250955095509592505050565b6000806103d66001600160a01b038616670de0b6b3a7640000614d51565b905060006103ec85670de0b6b3a7640000614d51565b90506000610402670de0b6b3a764000080614d51565b9050841561044157600061041f61041a8380866118dc565b61198e565b90508161042c8286614d51565b6104369190614d7e565b945050505050610463565b600061044c8361198e565b9050806104598386614d7e565b6104369190614d51565b9392505050565b6000806060670de0b6b3a764000084116104b75760405162461bcd60e51b81526020600482015260096024820152683bb937b733903632bb60b91b60448201526064015b60405180910390fd5b6104bf6146c5565b7f00000000000000000000000000000000000000000000000000000000000000006001600160a01b0316633850c7bd6040518163ffffffff1660e01b815260040160e060405180830381865afa15801561051d573d6000803e3d6000fd5b505050506040513d601f19601f820116820180604052508101906105419190614db4565b5050505060029190910b60a0840152506001600160a01b0316608082018190526105c090886105945761057d670de0b6b3a764000080896118dc565b61058f90670de0b6b3a7640000614e4c565b6105b9565b6105a7670de0b6b3a764000080896118dc565b6105b990670de0b6b3a7640000614e5f565b60006103b8565b6001600160a01b0316610180820181905261060290886105e857670ddd2935029d80006105f2565b670de444324c2a80005b6001600160401b031660006103b8565b6001600160a01b039081166101808301819052600054608084015160405163053ef28b60e01b81528b15156004820152602481019390935283166044830152606482018990529091169063053ef28b90608401600060405180830381865afa158015610672573d6000803e3d6000fd5b505050506040513d6000823e601f3d908101601f1916820160405261069a9190810190614f16565b6102208401819052600291820b6101c085015291900b6101a0830152604051637c61444d60e01b81526001600160a01b037f00000000000000000000000000000000000000000000000000000000000000001691637c61444d9161070891908b906001908c90600401614f79565b600060405180830381600087803b15801561072257600080fd5b505af1158015610736573d6000803e3d6000fd5b50505050806101c00151816101a001518261022001519350935093505093509350939050565b600080546001600160a01b0319166001600160a01b0383811691821790925560405163095ea7b360e01b81527f00000000000000000000000000000000000000000000000000000000000000009092169163095ea7b3916107c39160001990600401614fa8565b6020604051808303816000875af11580156107e2573d6000803e3d6000fd5b505050506040513d601f19601f820116820180604052508101906108069190614fc1565b5060005460405163095ea7b360e01b81526001600160a01b037f000000000000000000000000000000000000000000000000000000000000000081169263095ea7b39261085e92919091169060001990600401614fa8565b6020604051808303816000875af115801561087d573d6000803e3d6000fd5b505050506040513d601f19601f820116820180604052508101906108a19190614fc1565b5050565b6108ad614657565b6040805160a0810182528681526020808201879052818301869052841515606083015233608083015282516000808252918101909352918291610923918361091d565b60408051606081018252600080825260208083018290529282015282526000199092019101816108f05790505b50610fcd565b9250925092509450945094915050565b6000806109607f000000000000000000000000000000000000000000000000000000000000000085614fde565b9050826109a2577f0000000000000000000000000000000000000000000000000000000000000000610993826001615018565b61099d919061503d565b6109cc565b6109cc7f00000000000000000000000000000000000000000000000000000000000000008261503d565b9150505b92915050565b6000805b8351811015610b5a578381815181106109f5576109f561505d565b6020026020010151602001516001600160801b031660000315610b48578215610ac857610ab7610a41858381518110610a3057610a3061505d565b602002602001015160000151611a32565b610a927f0000000000000000000000000000000000000000000000000000000000000000878581518110610a7757610a7761505d565b602002602001015160000151610a8d9190615018565b611a32565b868481518110610aa457610aa461505d565b6020026020010151602001516001611d55565b610ac19083614e4c565b9150610b48565b610b3b610ae0858381518110610a3057610a3061505d565b610b167f0000000000000000000000000000000000000000000000000000000000000000878581518110610a7757610a7761505d565b868481518110610b2857610b2861505d565b6020026020010151602001516001611e0c565b610b459083614e4c565b91505b80610b5281615073565b9150506109da565b5092915050565b6000546001600160a01b03163314610ba35760405162461bcd60e51b8152602060048201526005602482015264042c2eae8d60db1b60448201526064016104ae565b6001600160a01b03831615610ca1578315610c51576040516323b872dd60e01b81526001600160a01b037f000000000000000000000000000000000000000000000000000000000000000016906323b872dd90610c089086908690869060040161508c565b6020604051808303816000875af1158015610c27573d6000803e3d6000fd5b505050506040513d601f19601f82011682018060405250810190610c4b9190614fc1565b50610d88565b6040516323b872dd60e01b81526001600160a01b037f000000000000000000000000000000000000000000000000000000000000000016906323b872dd90610c089086908690869060040161508c565b8315610cf55760405163a9059cbb60e01b81526001600160a01b037f0000000000000000000000000000000000000000000000000000000000000000169063a9059cbb90610c089085908590600401614fa8565b60405163a9059cbb60e01b81526001600160a01b037f0000000000000000000000000000000000000000000000000000000000000000169063a9059cbb90610d439085908590600401614fa8565b6020604051808303816000875af1158015610d62573d6000803e3d6000fd5b505050506040513d601f19601f82011682018060405250810190610d869190614fc1565b505b50505050565b610dc76040518060c001604052806000815260200160008152602001600081526020016000815260200160008152602001600081525090565b610dcf6146c5565b60405163750ff6b560e01b815230600482015233602482015285151560448201527f00000000000000000000000000000000000000000000000000000000000000006001600160a01b03169063750ff6b590606401600060405180830381865afa158015610e41573d6000803e3d6000fd5b505050506040513d6000823e601f3d908101601f19168201604052610e6991908101906150cf565b610160820152610e7b33858584611e7c565b95945050505050565b6000610e9282840184614b8e565b90506000851315610f345760405163a9059cbb60e01b81526001600160a01b037f0000000000000000000000000000000000000000000000000000000000000000169063a9059cbb90610eeb9033908990600401614fa8565b6020604051808303816000875af1158015610f0a573d6000803e3d6000fd5b505050506040513d601f19601f82011682018060405250810190610f2e9190614fc1565b50610d86565b60405163a9059cbb60e01b81526001600160a01b037f0000000000000000000000000000000000000000000000000000000000000000169063a9059cbb90610f829033908890600401614fa8565b6020604051808303816000875af1158015610fa1573d6000803e3d6000fd5b505050506040513d601f19601f82011682018060405250810190610fc59190614fc1565b505050505050565b610fd5614657565b600080610fe06146c5565b6080860151606087015160405163750ff6b560e01b81523060048201526001600160a01b03928316602482015290151560448201526000917f0000000000000000000000000000000000000000000000000000000000000000169063750ff6b590606401600060405180830381865afa158015611061573d6000803e3d6000fd5b505050506040513d6000823e601f3d908101601f1916820160405261108991908101906150cf565b905085516000036110e2576060870151604088015188516110c59291906101c290670de0b6b3a7640000906110be8185614e4c565b91906118dc565b610220850152600290810b6101a08501520b6101c08301526110fe565b6110f587606001518860400151886137e1565b61022082018690525b61111182610220015188606001516109d6565b82526060870151156111b75786516040516323b872dd60e01b81526001600160a01b037f000000000000000000000000000000000000000000000000000000000000000016916323b872dd9161116e91339130919060040161508c565b6020604051808303816000875af115801561118d573d6000803e3d6000fd5b505050506040513d601f19601f820116820180604052508101906111b19190614fc1565b5061124d565b86516040516323b872dd60e01b81526001600160a01b037f000000000000000000000000000000000000000000000000000000000000000016916323b872dd9161120891339130919060040161508c565b6020604051808303816000875af1158015611227573d6000803e3d6000fd5b505050506040513d601f19601f8201168201806040525081019061124b9190614fc1565b505b7f00000000000000000000000000000000000000000000000000000000000000006001600160a01b0316633850c7bd6040518163ffffffff1660e01b815260040160e060405180830381865afa1580156112ab573d6000803e3d6000fd5b505050506040513d601f19601f820116820180604052508101906112cf9190614db4565b5050505060029190910b60a0850152506001600160a01b0390811660808401526060880151604089015189517f00000000000000000000000000000000000000000000000000000000000000009093169263128acb089230929015916113359190614e4c565b61134d87608001518d602001518e60600151156103b8565b60408051306020820152016040516020818303038152906040526040518663ffffffff1660e01b81526004016113879594939291906151f4565b60408051808303816000875af11580156113a5573d6000803e3d6000fd5b505050506040513d601f19601f820116820180604052508101906113c9919061526e565b61010084015260e0830152606087015180156113f25750815160e08301516113f090615292565b105b80611418575086606001511580156114185750815161010083015161141690615292565b105b1561144e5760405162461bcd60e51b81526004016104ae90602080825260049082015263216c697160e01b604082015260600190565b86606001511561147f578160e0015161146690615292565b816040018181516114779190614e4c565b9052506114a3565b81610100015161148e90615292565b8160400181815161149f9190614e4c565b9052505b81516060820180516114b6908390614e4c565b90525060408701516080820180516114cf908390614e4c565b905250865160a0820180516114e5908390614e4c565b9052506060870151151561012082015263ffffffff4281166101608301526101408201511660000361151f5763ffffffff42166101408201525b61018081015151156116c8576000546040516313804b0d60e11b81526001600160a01b0390911690632700961a9061155b9084906004016152ae565b602060405180830381865afa158015611578573d6000803e3d6000fd5b505050506040513d601f19601f8201168201806040525081019061159c91906152c1565b6001600160801b031661010082015260005460405163424bf6f160e01b81526001600160a01b039091169063424bf6f1906115dd90849033906004016152de565b600060405180830381600087803b1580156115f757600080fd5b505af115801561160b573d6000803e3d6000fd5b50505050610220820151610180820151611624916139b6565b610220830152606087015161164857611641826102200151614050565b6102208301525b600054610220830151604051635b664e4f60e11b81526001600160a01b039092169163b6cc9c9e9161167c91600401615308565b600060405180830381865afa158015611699573d6000803e3d6000fd5b505050506040513d6000823e601f3d908101601f191682016040526116c1919081019061531b565b6102208301525b60005461022083015160a084015161012084015160405163a02032bf60e01b81526001600160a01b039094169363a02032bf9361170b939092909160040161534f565b600060405180830381865afa158015611728573d6000803e3d6000fd5b505050506040513d6000823e601f3d908101601f19168201604052611750919081019061537c565b6101808301526101e08301526040805160a0810182526080898101516001600160a01b0390811683526060808c0151151560208501526000848601527f00000000000000000000000000000000000000000000000000000000000000008216908401529082018490529151630b19e25960e41b81527f00000000000000000000000000000000000000000000000000000000000000009092169163b19e2590916117fc916004016153c2565b6000604051808303816000875af115801561181b573d6000803e3d6000fd5b505050506040513d6000823e601f3d908101601f1916820160405261184391908101906150cf565b6000805460808a01516101e0860151604051634cb896f160e11b81529495506001600160a01b03909216936399712de293611885938792909190600401615415565b600060405180830381600087803b15801561189f57600080fd5b505af11580156118b3573d6000803e3d6000fd5b505050506101008101516101e0929092015190976001600160801b039092169650945092505050565b6000808060001985870985870292508281108382030391505080600003611915576000841161190a57600080fd5b508290049050610463565b80841161192157600080fd5b6000848688096000868103871696879004966002600389028118808a02820302808a02820302808a02820302808a02820302808a02820302808a02909103029181900381900460010186841190950394909402919094039290920491909117919091029150509392505050565b60b581600160881b81106119a75760409190911b9060801c5b690100000000000000000081106119c35760209190911b9060401c5b6501000000000081106119db5760109190911b9060201c5b630100000081106119f15760089190911b9060101c5b62010000010260121c80820401600190811c80830401811c80830401811c80830401811c80830401811c80830401811c80830401901c908190048111900390565b60008060008360020b12611a49578260020b611a51565b8260020b6000035b9050620d89e8811115611a77576040516315e4079d60e11b815260040160405180910390fd5b600081600116600003611a8e57600160801b611aa0565b6ffffcb933bd6fad37aa2d162d1a5940015b70ffffffffffffffffffffffffffffffffff1690506002821615611ad4576ffff97272373d413259a46990580e213a0260801c5b6004821615611af3576ffff2e50f5f656932ef12357cf3c7fdcc0260801c5b6008821615611b12576fffe5caca7e10e4e61c3624eaa0941cd00260801c5b6010821615611b31576fffcb9843d60f6159c9db58835c9266440260801c5b6020821615611b50576fff973b41fa98c081472e6896dfb254c00260801c5b6040821615611b6f576fff2ea16466c96a3843ec78b326b528610260801c5b6080821615611b8e576ffe5dee046a99a2a811c461f1969c30530260801c5b610100821615611bae576ffcbe86c7900a88aedcffc83b479aa3a40260801c5b610200821615611bce576ff987a7253ac413176f2b074cf7815e540260801c5b610400821615611bee576ff3392b0822b70005940c7a398e4b70f30260801c5b610800821615611c0e576fe7159475a2c29b7443b29c7fa6e889d90260801c5b611000821615611c2e576fd097f3bdfd2022b8845ad8f792aa58250260801c5b612000821615611c4e576fa9f746462d870fdf8a65dc1f90e061e50260801c5b614000821615611c6e576f70d869a156d2a1b890bb3df62baf32f70260801c5b618000821615611c8e576f31be135f97d08fd981231505542fcfa60260801c5b62010000821615611caf576f09aa508b5b7a84e1c677de54f3e99bc90260801c5b62020000821615611ccf576e5d6af8dedb81196699c329225ee6040260801c5b62040000821615611cee576d2216e584f5fa1ea926041bedfe980260801c5b62080000821615611d0b576b048a170391f7dc42444e8fa20260801c5b60008460020b1315611d2c578060001981611d2857611d28614d68565b0490505b640100000000810615611d40576001611d43565b60005b60ff16602082901c0192505050919050565b6000836001600160a01b0316856001600160a01b03161115611d75579293925b600160601b600160e01b03606084901b166001600160a01b038686038116908716611d9f57600080fd5b83611dd557866001600160a01b0316611dc28383896001600160a01b03166118dc565b81611dcf57611dcf614d68565b04611e01565b611e01611dec8383896001600160a01b0316614135565b886001600160a01b0316808204910615150190565b979650505050505050565b6000836001600160a01b0316856001600160a01b03161115611e2c579293925b81611e5957611e54836001600160801b03168686036001600160a01b0316600160601b6118dc565b610e7b565b610e7b836001600160801b03168686036001600160a01b0316600160601b614135565b611eb56040518060c001604052806000815260200160008152602001600081526020016000815260200160008152602001600081525090565b600082610160015160400151118015611ed75750816101600151604001518311155b611f095760405162461bcd60e51b8152602060048201526003602482015262706f7360e81b60448201526064016104ae565b7f00000000000000000000000000000000000000000000000000000000000000006001600160a01b0316633850c7bd6040518163ffffffff1660e01b815260040160e060405180830381865afa158015611f67573d6000803e3d6000fd5b505050506040513d601f19601f82011682018060405250810190611f8b9190614db4565b5050505060029190910b60a0850152506001600160a01b0390811660808401526101608301516101808101515160608501526000546040516313804b0d60e11b8152921691632700961a91611fe2916004016152ae565b602060405180830381865afa158015611fff573d6000803e3d6000fd5b505050506040513d601f19601f8201168201806040525081019061202391906152c1565b610160830180516001600160801b03909216610100909201919091525161012001516120c690612079578261016001516101800151600184606001516120699190614e5f565b81518110610a3057610a3061505d565b7f00000000000000000000000000000000000000000000000000000000000000008361016001516101800151600185606001516120b69190614e5f565b81518110610a7757610a7761505d565b6001600160a01b031660c0830152610160820151610120015161214b577f00000000000000000000000000000000000000000000000000000000000000008261016001516101800151600184606001516121209190614e5f565b815181106121305761213061505d565b6020026020010151600001516121469190615018565b612175565b81610160015161018001516000815181106121685761216861505d565b6020026020010151600001515b60020b6101a08301526101608201516040015161219d908490670de0b6b3a7640000906118dc565b602083015261016082015161012001516121d4578160c001516001600160a01b031682608001516001600160a01b031611156121f3565b8160c001516001600160a01b031682608001516001600160a01b031610155b15612761577f00000000000000000000000000000000000000000000000000000000000000006001600160a01b031663128acb083084610160015161012001518661224d87608001518a89610160015161012001516103b8565b60408051306020820152016040516020818303038152906040526040518663ffffffff1660e01b81526004016122879594939291906151f4565b60408051808303816000875af11580156122a5573d6000803e3d6000fd5b505050506040513d601f19601f820116820180604052508101906122c9919061526e565b61010084015260e08301526020820151610160830151608001516000916122f99190670de0b6b3a76400006118dc565b9050826101600151610120015115612537578083610160015161010001516001600160801b031684610100015161232f90615292565b6123399190614e4c565b10156123575760405162461bcd60e51b81526004016104ae9061544c565b82610100015161236690615292565b8110612397576101008084015161016085015190910180519183016001600160801b03928316039091169052612480565b808361010001516123a790615292565b6123b1919061546a565b610120840181905260405163a9059cbb60e01b81526001600160a01b037f0000000000000000000000000000000000000000000000000000000000000000169163a9059cbb91612405918a91600401614fa8565b6020604051808303816000875af1158015612424573d6000803e3d6000fd5b505050506040513d601f19601f820116820180604052508101906124489190614fc1565b50602083015161016084015160a0015161246a91670de0b6b3a76400006118dc565b836101200181815161247c919061546a565b9052505b60405163a9059cbb60e01b81526001600160a01b037f0000000000000000000000000000000000000000000000000000000000000000169063a9059cbb906124ee907f0000000000000000000000000000000000000000000000000000000000000000908590600401614fa8565b6020604051808303816000875af115801561250d573d6000803e3d6000fd5b505050506040513d601f19601f820116820180604052508101906125319190614fc1565b5061275b565b8083610160015161010001516001600160801b03168460e0015161255a90615292565b6125649190614e4c565b10156125825760405162461bcd60e51b81526004016104ae9061544c565b8260e0015161259090615292565b81106125c05760e08301516101608401516101000180519183016001600160801b039283160390911690526126a8565b808360e001516125cf90615292565b6125d9919061546a565b610120840181905260405163a9059cbb60e01b81526001600160a01b037f0000000000000000000000000000000000000000000000000000000000000000169163a9059cbb9161262d918a91600401614fa8565b6020604051808303816000875af115801561264c573d6000803e3d6000fd5b505050506040513d601f19601f820116820180604052508101906126709190614fc1565b50602083015161016084015160a0015161269291670de0b6b3a76400006118dc565b83610120018181516126a4919061546a565b9052505b60405163a9059cbb60e01b81526001600160a01b037f0000000000000000000000000000000000000000000000000000000000000000169063a9059cbb90612716907f0000000000000000000000000000000000000000000000000000000000000000908590600401614fa8565b6020604051808303816000875af1158015612735573d6000803e3d6000fd5b505050506040513d601f19601f820116820180604052508101906127599190614fc1565b505b5061340c565b816101600151610120015161279b5761277e826101a00151611a32565b6001600160a01b031682608001516001600160a01b0316116127c2565b6127a9826101a00151611a32565b6001600160a01b031682608001516001600160a01b0316105b1561299a57600082610160015161012001516127fe577f0000000000000000000000000000000000000000000000000000000000000000612820565b7f00000000000000000000000000000000000000000000000000000000000000005b60208401516101608501516060015191925060009161284791670de0b6b3a76400006118dc565b602085015161016086015160a0015191925061286c9190670de0b6b3a76400006118dc565b61287590615292565b6101208501526128858186614e5f565b61014085015260405163a9059cbb60e01b81526001600160a01b0383169063a9059cbb906128d9907f0000000000000000000000000000000000000000000000000000000000000000908590600401614fa8565b6020604051808303816000875af11580156128f8573d6000803e3d6000fd5b505050506040513d601f19601f8201168201806040525081019061291c9190614fc1565b5061014084015160405163a9059cbb60e01b81526001600160a01b0384169163a9059cbb9161294f918b91600401614fa8565b6020604051808303816000875af115801561296e573d6000803e3d6000fd5b505050506040513d601f19601f820116820180604052508101906129929190614fc1565b50505061340c565b60008060005b846101600151610180015151811015612d16578460a0015160020b856101600151610180015182815181106129d7576129d761505d565b60200260200101516000015160020b13158015612a4f57508460a0015160020b7f000000000000000000000000000000000000000000000000000000000000000086610160015161018001518381518110612a3457612a3461505d565b602002602001015160000151612a4a9190615018565b60020b135b15612b3857600080612b148760800151612a7e89610160015161018001518681518110610a3057610a3061505d565b612abe7f00000000000000000000000000000000000000000000000000000000000000008b610160015161018001518881518110610a7757610a7761505d565b612b0f8b60200151670de0b6b3a76400008d610160015161018001518a81518110612aeb57612aeb61505d565b6020026020010151602001516001600160801b03166118dc9092919063ffffffff16565b614175565b9092509050612b238286614e4c565b9450612b2f8185614e4c565b93505050612d04565b612b478560a001516001610933565b60020b85610160015161018001518281518110612b6657612b6661505d565b60200260200101516000015160020b1215612c2057612c0f612b9d86610160015161018001518381518110610a3057610a3061505d565b612bdd7f000000000000000000000000000000000000000000000000000000000000000088610160015161018001518581518110610a7757610a7761505d565b612c0a8860200151670de0b6b3a76400008a610160015161018001518781518110612aeb57612aeb61505d565b614211565b612c199083614e4c565b9150612d04565b612c2f8560a001516000610933565b60020b85610160015161018001518281518110612c4e57612c4e61505d565b60200260200101516000015160020b1315612d0457612cf7612c8586610160015161018001518381518110610a3057610a3061505d565b612cc57f000000000000000000000000000000000000000000000000000000000000000088610160015161018001518581518110610a7757610a7761505d565b612cf28860200151670de0b6b3a76400008a610160015161018001518781518110612aeb57612aeb61505d565b614263565b612d019084614e4c565b92505b80612d0e81615073565b9150506129a0565b5061016084015161012001516001600160a01b037f0000000000000000000000000000000000000000000000000000000000000000169063128acb0890309080612d6857612d6386615292565b612d71565b612d7185615292565b612d8a89608001518c8b610160015161012001516103b8565b60408051306020820152016040516020818303038152906040526040518663ffffffff1660e01b8152600401612dc49594939291906151f4565b60408051808303816000875af1158015612de2573d6000803e3d6000fd5b505050506040513d601f19601f82011682018060405250810190612e06919061526e565b61010086015260e085015261016084015161012001511561304c5760e0840151612e309086614e5f565b821115612f94576000612e538560800151888761016001516101200151156103b8565b90506000807f00000000000000000000000000000000000000000000000000000000000000006001600160a01b031663128acb08308961016001516101200151158a60e001518c612ea49190614e5f565b612eae908a614e5f565b612eb790615292565b604080513060208201528991016040516020818303038152906040526040518663ffffffff1660e01b8152600401612ef39594939291906151f4565b60408051808303816000875af1158015612f11573d6000803e3d6000fd5b505050506040513d601f19601f82011682018060405250810190612f35919061526e565b915091508087610160015161010001516001600160801b03161015612f6c5760405162461bcd60e51b81526004016104ae9061544c565b6101608701516101000180516001600160801b03908116929092039091169052506132759050565b818460e0015186612fa59190614e5f565b612faf9190614e5f565b610140850181905260405163a9059cbb60e01b81526001600160a01b037f0000000000000000000000000000000000000000000000000000000000000000169163a9059cbb91613003918b91600401614fa8565b6020604051808303816000875af1158015613022573d6000803e3d6000fd5b505050506040513d601f19601f820116820180604052508101906130469190614fc1565b50613275565b61010084015161305c9086614e5f565b8111156131c057600061307f8560800151888761016001516101200151156103b8565b90506000807f00000000000000000000000000000000000000000000000000000000000000006001600160a01b031663128acb08308961016001516101200151158a61010001518c6130d19190614e5f565b6130db9089614e5f565b6130e490615292565b604080513060208201528991016040516020818303038152906040526040518663ffffffff1660e01b81526004016131209594939291906151f4565b60408051808303816000875af115801561313e573d6000803e3d6000fd5b505050506040513d601f19601f82011682018060405250810190613162919061526e565b915091508187610160015161010001516001600160801b031610156131995760405162461bcd60e51b81526004016104ae9061544c565b506101608601516101000180516001600160801b0390811692909203909116905250613275565b80846101000151866131d29190614e5f565b6131dc9190614e5f565b610140850181905260405163a9059cbb60e01b81526001600160a01b037f0000000000000000000000000000000000000000000000000000000000000000169163a9059cbb91613230918b91600401614fa8565b6020604051808303816000875af115801561324f573d6000803e3d6000fd5b505050506040513d601f19601f820116820180604052508101906132739190614fc1565b505b602084015161016085015160a0015161329691670de0b6b3a76400006118dc565b61329f90615292565b61012085015260405163a9059cbb60e01b81526001600160a01b037f0000000000000000000000000000000000000000000000000000000000000000169063a9059cbb90613313907f0000000000000000000000000000000000000000000000000000000000000000908690600401614fa8565b6020604051808303816000875af1158015613332573d6000803e3d6000fd5b505050506040513d601f19601f820116820180604052508101906133569190614fc1565b5060405163a9059cbb60e01b81526001600160a01b037f0000000000000000000000000000000000000000000000000000000000000000169063a9059cbb906133c5907f0000000000000000000000000000000000000000000000000000000000000000908590600401614fa8565b6020604051808303816000875af11580156133e4573d6000803e3d6000fd5b505050506040513d601f19601f820116820180604052508101906134089190614fc1565b5050505b6101608201516101800151602083015160405163e9f4fcf360e01b81526001600160a01b037f0000000000000000000000000000000000000000000000000000000000000000169263e9f4fcf3926134669260040161548a565b600060405180830381600087803b15801561348057600080fd5b505af1158015613494573d6000803e3d6000fd5b505050508161016001516040015183101561362157828261016001516040018181516134c09190614e5f565b9052506101608201516101208101516101809091015160208401516134f89291906134f390670de0b6b3a7640000614e5f565b6142cd565b610160840151608081019190915260600152602082015161353e9061352590670de0b6b3a7640000614e5f565b61016084015160a0015190670de0b6b3a76400006118dc565b6101608301805160a0908101929092526040805192830181526001600160a01b03888116845282516101200151151560208501526000848301527f0000000000000000000000000000000000000000000000000000000000000000811660608501529151608084015251630850d0e960e01b81527f000000000000000000000000000000000000000000000000000000000000000090911691630850d0e9916135ea91906004016153c2565b600060405180830381600087803b15801561360457600080fd5b505af1158015613618573d6000803e3d6000fd5b5050505061370e565b604080516080810182526001600160a01b037f00000000000000000000000000000000000000000000000000000000000000008116825287811660208301908152610160860151610120015115158385019081526000606085019081529451633a5177df60e01b815293518316600485015290518216602484015251151560448301529151151560648201527f000000000000000000000000000000000000000000000000000000000000000090911690633a5177df90608401600060405180830381600087803b1580156136f557600080fd5b505af1158015613709573d6000803e3d6000fd5b505050505b60005461016083015160208401516040516343f3a7d560e11b81526001600160a01b03909316926387e74faa9261374c9290918a91906004016154ac565b6020604051808303816000875af115801561376b573d6000803e3d6000fd5b505050506040513d601f19601f8201168201806040525081019061378f91906154da565b6101e083019081526040805160c08101825260e0850151815261010085015160208201526101208501519181019190915261014090930151606084015251608083015250600060a08201529392505050565b6137ec8184156109d6565b82146138205760405162461bcd60e51b8152602060048201526003602482015262696e6360e81b60448201526064016104ae565b60008054604051631542428b60e31b815282916001600160a01b03169063aa12145890613851908690600401615308565b600060405180830381865afa15801561386e573d6000803e3d6000fd5b505050506040513d6000823e601f3d908101601f1916820160405261389691908101906154f3565b91509150816138d05760405162461bcd60e51b81526004016104ae90602080825260049082015263216c697160e01b604082015260600190565b60005b8151811015613929578181815181106138ee576138ee61505d565b60200260200101518482815181106139085761390861505d565b6020908102919091010151604001528061392181615073565b9150506138d3565b50604051637c61444d60e01b81526001600160a01b037f00000000000000000000000000000000000000000000000000000000000000001690637c61444d9061397d90869089906001908a90600401614f79565b600060405180830381600087803b15801561399757600080fd5b505af11580156139ab573d6000803e3d6000fd5b505050505050505050565b815181516060919060006139ca8284614e4c565b90506000816001600160401b038111156139e6576139e661477e565b604051908082528060200260200182016040528015613a3157816020015b6040805160608101825260008082526020808301829052928201528252600019909201910181613a045790505b50905060008060005b8683108015613a4857508582105b15613c20576000613a938b8581518110613a6457613a6461505d565b6020026020010151600001518b8581518110613a8257613a8261505d565b60200260200101516000015161446f565b1215613ae357898381518110613aab57613aab61505d565b6020026020010151848281518110613ac557613ac561505d565b60200260200101819052508280613adb90615073565b935050613c0e565b6000613afa8b8581518110613a6457613a6461505d565b1315613b4a57888281518110613b1257613b1261505d565b6020026020010151848281518110613b2c57613b2c61505d565b60200260200101819052508180613b4290615073565b925050613c0e565b60405180606001604052808b8581518110613b6757613b6761505d565b60200260200101516000015160020b81526020018a8481518110613b8d57613b8d61505d565b6020026020010151602001518c8681518110613bab57613bab61505d565b602002602001015160200151613bc1919061559a565b6001600160801b031681526020016000815250848281518110613be657613be661505d565b60200260200101819052508280613bfc90615073565b9350508180613c0a90615073565b9250505b80613c1881615073565b915050613a3a565b86831015613c8057898381518110613c3a57613c3a61505d565b6020026020010151848281518110613c5457613c5461505d565b60200260200101819052508280613c6a90615073565b9350508080613c7890615073565b915050613c20565b85821015613ce057888281518110613c9a57613c9a61505d565b6020026020010151848281518110613cb457613cb461505d565b60200260200101819052508180613cca90615073565b9250508080613cd890615073565b915050613c80565b60008093505b85841015613e66576000613cfb856001614e4c565b93505b86841015613e0857858481518110613d1857613d1861505d565b60200260200101516000015160020b868681518110613d3957613d3961505d565b60200260200101516000015160020b03613df65760019050858481518110613d6357613d6361505d565b602002602001015160200151868681518110613d8157613d8161505d565b6020026020010151602001818151613d99919061559a565b6001600160801b03169052508551869086908110613db957613db961505d565b602002602001015160200151868581518110613dd757613dd761505d565b6020908102919091018101516001600160801b03909216910152613e08565b83613e0081615073565b945050613cfe565b80613e5357858581518110613e1f57613e1f61505d565b6020026020010151868381518110613e3957613e3961505d565b60200260200101819052508180613e4f90615073565b9250505b5083613e5e81615073565b945050613ce6565b808552613e7f856000613e7a600185614e5f565b6144b8565b6000816001600160401b03811115613e9957613e9961477e565b604051908082528060200260200182016040528015613ee457816020015b6040805160608101825260008082526020808301829052928201528252600019909201910181613eb75790505b5090506000935060005b8651811015613fa957868181518110613f0957613f0961505d565b60200260200101516000015160020b6000148015613f4d5750868181518110613f3457613f3461505d565b6020026020010151602001516001600160801b03166000145b613f9757868181518110613f6357613f6361505d565b6020026020010151828681518110613f7d57613f7d61505d565b60200260200101819052508480613f9390615073565b9550505b80613fa181615073565b915050613eee565b508560018751613fb99190614e5f565b81518110613fc957613fc961505d565b60200260200101516000015160020b600014801561401a57508560018751613ff19190614e5f565b815181106140015761400161505d565b6020026020010151602001516001600160801b03166000145b156140305781614029816155ba565b9250508181525b614041816000613e7a600186614e5f565b9b9a5050505050505050505050565b80516060906000816001600160401b0381111561406f5761406f61477e565b6040519080825280602002602001820160405280156140ba57816020015b604080516060810182526000808252602080830182905292820152825260001990920191018161408d5790505b5090506000825b6001811061412b57856140d5600183614e5f565b815181106140e5576140e561505d565b60200260200101518383815181106140ff576140ff61505d565b6020026020010181905250818061411590615073565b9250508080614123906155ba565b9150506140c1565b5090949350505050565b60006141428484846118dc565b90506000828061415457614154614d68565b848609111561046357600019811061416b57600080fd5b6001019392505050565b600080836001600160a01b0316856001600160a01b03161115614196579293925b846001600160a01b0316866001600160a01b0316116141c1576141ba858585614263565b9150614208565b836001600160a01b0316866001600160a01b031610156141fa576141e6868585614263565b91506141f3858785614211565b9050614208565b614205858585614211565b90505b94509492505050565b6000826001600160a01b0316846001600160a01b03161115614231579192915b61425b6001600160801b03831661424886866155d1565b6001600160a01b0316600160601b6118dc565b949350505050565b6000826001600160a01b0316846001600160a01b03161115614283579192915b6001600160a01b0384166142c3600160601b600160e01b03606085901b166142ab87876155d1565b6001600160a01b0316866001600160a01b03166118dc565b61425b9190614d7e565b60008060008060005b8651811015614464578681815181106142f1576142f161505d565b6020026020010151602001516001600160801b031660000315614452578681815181106143205761432061505d565b602002602001015160000151915061434d86670de0b6b3a7640000898481518110612aeb57612aeb61505d565b9250828782815181106143625761436261505d565b6020908102919091018101516001600160801b039092169101528715614421576143c361438e83611a32565b6143bb610a8d7f000000000000000000000000000000000000000000000000000000000000000086615018565b856001611d55565b6143cd9086614e4c565b94506144106143db83611a32565b614408610a8d7f000000000000000000000000000000000000000000000000000000000000000086615018565b856001611e0c565b61441a9085614e4c565b9350614452565b61442d6143db83611a32565b6144379086614e4c565b945061444561438e83611a32565b61444f9085614e4c565b93505b8061445c81615073565b9150506142d6565b505050935093915050565b6000808360020b128015614486575060008260020b125b156144a4578260020b8260020b61449d919061546a565b90506109d0565b6144ae82846155f1565b60020b9392505050565b8082106144c457505050565b60016144d08383614e5f565b116144da57505050565b818160008560026144eb8486614e4c565b6144f59190614d7e565b815181106145055761450561505d565b602002602001015190505b818311614631575b806000015160020b8684815181106145325761453261505d565b60200260200101516000015160020b1215614559578261455181615073565b935050614518565b806000015160020b8683815181106145735761457361505d565b60200260200101516000015160020b131561459a5781614592816155ba565b925050614559565b81831161462c578582815181106145b3576145b361505d565b60200260200101518684815181106145cd576145cd61505d565b60200260200101518785815181106145e7576145e761505d565b602002602001018885815181106146005761460061505d565b602002602001018290528290525050828061461a90615073565b9350508180614628906155ba565b9250505b614510565b81851015614644576146448686846144b8565b83831015610fc557610fc58684866144b8565b604080516101a08101825260008082526020820181905291810182905260608082018390526080820183905260a0820183905260c0820183905260e0820183905261010082018390526101208201839052610140820183905261016082019290925261018081019190915290565b6040518061024001604052806000815260200160008152602001600081526020016000815260200160006001600160a01b03168152602001600060020b815260200160006001600160a01b031681526020016000815260200160008152602001600081526020016000815260200161473b614657565b81526000602082018190526040820181905260608083018290526080830182905260a083019190915260c09091015290565b801515811461477b57600080fd5b50565b634e487b7160e01b600052604160045260246000fd5b604051606081016001600160401b03811182821017156147b6576147b661477e565b60405290565b6040516101a081016001600160401b03811182821017156147b6576147b661477e565b604051601f8201601f191681016001600160401b03811182821017156148075761480761477e565b604052919050565b60006001600160401b038211156148285761482861477e565b5060051b60200190565b8060020b811461477b57600080fd5b6001600160801b038116811461477b57600080fd5b600082601f83011261486757600080fd5b8135602061487c6148778361480f565b6147df565b8281526060928302850182019282820191908785111561489b57600080fd5b8387015b858110156148f45781818a0312156148b75760008081fd5b6148bf614794565b81356148ca81614832565b8152818601356148d981614841565b8187015260408281013590820152845292840192810161489f565b5090979650505050505050565b600080600080600060a0868803121561491957600080fd5b85359450602086013593506040860135925060608601356149398161476d565b915060808601356001600160401b0381111561495457600080fd5b61496088828901614856565b9150509295509295909350565b600081518084526020808501945080840160005b838110156149c1578151805160020b88526020808201516001600160801b0316908901526040908101519088015260608701965090820190600101614981565b509495945050505050565b80511515825260006101a060208301516149f160208601826001600160a01b03169052565b5060408301516040850152606083015160608501526080830151608085015260a083015160a085015260c0830151614a3460c08601826001600160801b03169052565b5060e0830151614a4f60e08601826001600160801b03169052565b50610100838101516001600160801b031690850152610120808401511515908501526101408084015163ffffffff90811691860191909152610160808501519091169085015261018080840151818601839052614aae8387018261496d565b9695505050505050565b606081526000614acb60608301866149cc565b60208301949094525060400152919050565b6001600160a01b038116811461477b57600080fd5b600080600060608486031215614b0757600080fd5b8335614b1281614add565b9250602084013591506040840135614b298161476d565b809150509250925092565b600080600060608486031215614b4957600080fd5b8335614b548161476d565b95602085013595506040909401359392505050565b8360020b81528260020b6020820152606060408201526000610e7b606083018461496d565b600060208284031215614ba057600080fd5b813561046381614add565b60008060008060808587031215614bc157600080fd5b8435935060208501359250604085013591506060850135614be18161476d565b939692955090935050565b60008060408385031215614bff57600080fd5b8235614c0a81614832565b91506020830135614c1a8161476d565b809150509250929050565b60008060408385031215614c3857600080fd5b82356001600160401b03811115614c4e57600080fd5b614c5a85828601614856565b9250506020830135614c1a8161476d565b60008060008060808587031215614c8157600080fd5b8435614c8c8161476d565b93506020850135614c9c81614add565b92506040850135614cac81614add565b9396929550929360600135925050565b60008060008060608587031215614cd257600080fd5b843593506020850135925060408501356001600160401b0380821115614cf757600080fd5b818701915087601f830112614d0b57600080fd5b813581811115614d1a57600080fd5b886020828501011115614d2c57600080fd5b95989497505060200194505050565b634e487b7160e01b600052601160045260246000fd5b80820281158282048414176109d0576109d0614d3b565b634e487b7160e01b600052601260045260246000fd5b600082614d8d57614d8d614d68565b500490565b805161ffff81168114614da457600080fd5b919050565b8051614da48161476d565b600080600080600080600060e0888a031215614dcf57600080fd5b8751614dda81614add565b6020890151909750614deb81614832565b9550614df960408901614d92565b9450614e0760608901614d92565b9350614e1560808901614d92565b925060a088015160ff81168114614e2b57600080fd5b60c0890151909250614e3c8161476d565b8091505092959891949750929550565b808201808211156109d0576109d0614d3b565b818103818111156109d0576109d0614d3b565b8051614da481614841565b600082601f830112614e8e57600080fd5b81516020614e9e6148778361480f565b82815260609283028501820192828201919087851115614ebd57600080fd5b8387015b858110156148f45781818a031215614ed95760008081fd5b614ee1614794565b8151614eec81614832565b815281860151614efb81614841565b81870152604082810151908201528452928401928101614ec1565b600080600060608486031215614f2b57600080fd5b8351614f3681614832565b6020850151909350614f4781614832565b60408501519092506001600160401b03811115614f6357600080fd5b614f6f86828701614e7d565b9150509250925092565b608081526000614f8c608083018761496d565b9415156020830152509115156040830152606090910152919050565b6001600160a01b03929092168252602082015260400190565b600060208284031215614fd357600080fd5b81516104638161476d565b60008160020b8360020b80614ff557614ff5614d68565b627fffff1982146000198214161561500f5761500f614d3b565b90059392505050565b600281810b9083900b01627fffff8113627fffff19821217156109d0576109d0614d3b565b60008260020b8260020b028060020b9150808214610b5a57610b5a614d3b565b634e487b7160e01b600052603260045260246000fd5b60006001820161508557615085614d3b565b5060010190565b6001600160a01b039384168152919092166020820152604081019190915260600190565b8051614da481614add565b805163ffffffff81168114614da457600080fd5b6000602082840312156150e157600080fd5b81516001600160401b03808211156150f857600080fd5b908301906101a0828603121561510d57600080fd5b6151156147bc565b61511e83614da9565b815261512c602084016150b0565b602082015260408301516040820152606083015160608201526080830151608082015260a083015160a082015261516560c08401614e72565b60c082015261517660e08401614e72565b60e0820152610100615189818501614e72565b9082015261012061519b848201614da9565b908201526101406151ad8482016150bb565b908201526101606151bf8482016150bb565b9082015261018083810151838111156151d757600080fd5b6151e388828701614e7d565b918301919091525095945050505050565b600060018060a01b038088168352602087151581850152866040850152818616606085015260a06080850152845191508160a085015260005b828110156152495785810182015185820160c00152810161522d565b5050600060c0828501015260c0601f19601f8301168401019150509695505050505050565b6000806040838503121561528157600080fd5b505080516020909101519092909150565b6000600160ff1b82016152a7576152a7614d3b565b5060000390565b60208152600061046360208301846149cc565b6000602082840312156152d357600080fd5b815161046381614841565b6040815260006152f160408301856149cc565b905060018060a01b03831660208301529392505050565b602081526000610463602083018461496d565b60006020828403121561532d57600080fd5b81516001600160401b0381111561534357600080fd5b6109cc84828501614e7d565b606081526000615362606083018661496d565b60029490940b602083015250901515604090910152919050565b6000806040838503121561538f57600080fd5b8251915060208301516001600160401b038111156153ac57600080fd5b6153b885828601614e7d565b9150509250929050565b60208152600060018060a01b0380845116602084015260208401511515604084015260408401511515606084015280606085015116608084015250608083015160a0808401526109cc60c08401826149cc565b6001600160a01b0385168152608060208201819052600090615439908301866149cc565b6040830194909452506060015292915050565b60208082526004908201526319985a5b60e21b604082015260600190565b8181036000831280158383131683831282161715610b5a57610b5a614d3b565b60408152600061549d604083018561496d565b90508260208301529392505050565b6060815260006154bf60608301866149cc565b6001600160a01b039490941660208301525060400152919050565b6000602082840312156154ec57600080fd5b5051919050565b6000806040838503121561550657600080fd5b82516155118161476d565b809250506020808401516001600160401b0381111561552f57600080fd5b8401601f8101861361554057600080fd5b805161554e6148778261480f565b81815260059190911b8201830190838101908883111561556d57600080fd5b928401925b8284101561558b57835182529284019290840190615572565b80955050505050509250929050565b6001600160801b03818116838216019080821115610b5a57610b5a614d3b565b6000816155c9576155c9614d3b565b506000190190565b6001600160a01b03828116828216039080821115610b5a57610b5a614d3b565b600282810b9082900b03627fffff198112627fffff821317156109d0576109d0614d3b56fea26469706673582212203f7392ff2bf033fea4c4c26bdcd3b98821c91c63aff6891347e1ae094c33d81d64736f6c63430008110033",
    "linkReferences": {}
  },
  "methodIdentifiers": {
    "addPosition(uint256,uint256,uint256,bool)": "3cd7bca7",
    "addPositionSpecfied(uint256,uint256,uint256,bool,(int24,uint128,uint256)[])": "0d3401ee",
    "applySlippageX96(uint160,uint256,bool)": "207b0576",
    "borrow(bool,uint256,uint256)": "25350f8e",
    "getFilledAmount((int24,uint128,uint256)[],bool)": "786afbcc",
    "globalStorage()": "6502072a",
    "liquidityManager()": "33827438",
    "pool()": "16f0115b",
    "precision()": "d3b5dc3b",
    "reducePosition(bool,uint256,uint256)": "deff1bdc",
    "roundTick(int24,bool)": "3dc306ee",
    "setLiquidityManager(address)": "3c1624d4",
    "tickSpacing()": "d0c93a7c",
    "token0()": "0dfe1681",
    "token1()": "d21220a7",
    "transferToken(bool,address,address,uint256)": "a352dcbf",
    "uniswapV3SwapCallback(int256,int256,bytes)": "fa461e33"
  },
  "id": 37
}