{
  "abi": [
    {
      "inputs": [
        {
          "internalType": "string",
          "name": "_name",
          "type": "string"
        },
        {
          "internalType": "string",
          "name": "_symbol",
          "type": "string"
        },
        {
          "internalType": "contract UniswapV3Pool",
          "name": "_pool",
          "type": "address"
        }
      ],
      "stateMutability": "nonpayable",
      "type": "constructor"
    },
    {
      "inputs": [],
      "name": "R",
      "type": "error"
    },
    {
      "inputs": [],
      "name": "T",
      "type": "error"
    },
    {
      "inputs": [],
      "name": "INTEREST_REPLENISH_TIME",
      "outputs": [
        {
          "internalType": "uint256",
          "name": "",
          "type": "uint256"
        }
      ],
      "stateMutability": "view",
      "type": "function"
    },
    {
      "inputs": [
        {
          "internalType": "uint160",
          "name": "price",
          "type": "uint160"
        },
        {
          "internalType": "uint256",
          "name": "maxSlippage",
          "type": "uint256"
        },
        {
          "internalType": "bool",
          "name": "down",
          "type": "bool"
        }
      ],
      "name": "applySlippageX96",
      "outputs": [
        {
          "internalType": "uint160",
          "name": "",
          "type": "uint160"
        }
      ],
      "stateMutability": "pure",
      "type": "function"
    },
    {
      "inputs": [
        {
          "internalType": "bool",
          "name": "zeroForOne",
          "type": "bool"
        },
        {
          "internalType": "int256",
          "name": "amountSpecified",
          "type": "int256"
        },
        {
          "internalType": "uint256",
          "name": "leverage",
          "type": "uint256"
        }
      ],
      "name": "borrow",
      "outputs": [
        {
          "internalType": "uint160",
          "name": "",
          "type": "uint160"
        },
        {
          "internalType": "uint160",
          "name": "",
          "type": "uint160"
        },
        {
          "internalType": "uint128",
          "name": "",
          "type": "uint128"
        },
        {
          "internalType": "uint256",
          "name": "",
          "type": "uint256"
        }
      ],
      "stateMutability": "nonpayable",
      "type": "function"
    },
    {
      "inputs": [],
      "name": "closeMaxSlippage",
      "outputs": [
        {
          "internalType": "uint256",
          "name": "",
          "type": "uint256"
        }
      ],
      "stateMutability": "view",
      "type": "function"
    },
    {
      "inputs": [
        {
          "internalType": "uint256",
          "name": "nonce",
          "type": "uint256"
        },
        {
          "internalType": "address",
          "name": "trader",
          "type": "address"
        },
        {
          "internalType": "uint256",
          "name": "userSpecifiedSlippage",
          "type": "uint256"
        }
      ],
      "name": "closePosition",
      "outputs": [],
      "stateMutability": "nonpayable",
      "type": "function"
    },
    {
      "inputs": [
        {
          "internalType": "uint256",
          "name": "traderFund",
          "type": "uint256"
        },
        {
          "internalType": "uint256",
          "name": "maxSlippage",
          "type": "uint256"
        },
        {
          "internalType": "uint256",
          "name": "borrowAmount",
          "type": "uint256"
        },
        {
          "internalType": "bool",
          "name": "isLong",
          "type": "bool"
        }
      ],
      "name": "createLevPosition",
      "outputs": [
        {
          "components": [
            {
              "internalType": "uint256",
              "name": "totalPosition",
              "type": "uint256"
            },
            {
              "internalType": "uint256",
              "name": "totalDebt",
              "type": "uint256"
            },
            {
              "internalType": "uint256",
              "name": "totalDebtInput",
              "type": "uint256"
            },
            {
              "internalType": "int24",
              "name": "creationTick",
              "type": "int24"
            },
            {
              "internalType": "uint128",
              "name": "borrowedLiq",
              "type": "uint128"
            },
            {
              "internalType": "bool",
              "name": "isToken0",
              "type": "bool"
            },
            {
              "internalType": "uint32",
              "name": "openTime",
              "type": "uint32"
            },
            {
              "internalType": "uint32",
              "name": "repayTime",
              "type": "uint32"
            },
            {
              "internalType": "int24",
              "name": "borrowStartTick",
              "type": "int24"
            },
            {
              "internalType": "int24",
              "name": "borrowFinishTick",
              "type": "int24"
            }
          ],
          "internalType": "struct LeverageManager.Position",
          "name": "",
          "type": "tuple"
        },
        {
          "internalType": "uint256",
          "name": "",
          "type": "uint256"
        },
        {
          "internalType": "uint256",
          "name": "",
          "type": "uint256"
        }
      ],
      "stateMutability": "nonpayable",
      "type": "function"
    },
    {
      "inputs": [
        {
          "internalType": "int24",
          "name": "curTick",
          "type": "int24"
        },
        {
          "internalType": "bool",
          "name": "zeroForOne",
          "type": "bool"
        },
        {
          "internalType": "uint128",
          "name": "liquidity",
          "type": "uint128"
        }
      ],
      "name": "getNextTick",
      "outputs": [
        {
          "internalType": "int24",
          "name": "",
          "type": "int24"
        },
        {
          "internalType": "bool",
          "name": "",
          "type": "bool"
        }
      ],
      "stateMutability": "view",
      "type": "function"
    },
    {
      "inputs": [
        {
          "internalType": "address",
          "name": "trader",
          "type": "address"
        },
        {
          "internalType": "uint256",
          "name": "nonce",
          "type": "uint256"
        }
      ],
      "name": "getPosition",
      "outputs": [
        {
          "components": [
            {
              "internalType": "uint256",
              "name": "totalPosition",
              "type": "uint256"
            },
            {
              "internalType": "uint256",
              "name": "totalDebt",
              "type": "uint256"
            },
            {
              "internalType": "uint256",
              "name": "totalDebtInput",
              "type": "uint256"
            },
            {
              "internalType": "int24",
              "name": "creationTick",
              "type": "int24"
            },
            {
              "internalType": "uint128",
              "name": "borrowedLiq",
              "type": "uint128"
            },
            {
              "internalType": "bool",
              "name": "isToken0",
              "type": "bool"
            },
            {
              "internalType": "uint32",
              "name": "openTime",
              "type": "uint32"
            },
            {
              "internalType": "uint32",
              "name": "repayTime",
              "type": "uint32"
            },
            {
              "internalType": "int24",
              "name": "borrowStartTick",
              "type": "int24"
            },
            {
              "internalType": "int24",
              "name": "borrowFinishTick",
              "type": "int24"
            }
          ],
          "internalType": "struct LeverageManager.Position",
          "name": "",
          "type": "tuple"
        }
      ],
      "stateMutability": "view",
      "type": "function"
    },
    {
      "inputs": [
        {
          "internalType": "address",
          "name": "trader",
          "type": "address"
        },
        {
          "internalType": "uint256",
          "name": "nonce",
          "type": "uint256"
        }
      ],
      "name": "isLiquidatable",
      "outputs": [
        {
          "internalType": "bool",
          "name": "",
          "type": "bool"
        }
      ],
      "stateMutability": "view",
      "type": "function"
    },
    {
      "inputs": [],
      "name": "liquidityManager",
      "outputs": [
        {
          "internalType": "contract LiquidityManager",
          "name": "",
          "type": "address"
        }
      ],
      "stateMutability": "view",
      "type": "function"
    },
    {
      "inputs": [],
      "name": "nonce",
      "outputs": [
        {
          "internalType": "uint256",
          "name": "",
          "type": "uint256"
        }
      ],
      "stateMutability": "view",
      "type": "function"
    },
    {
      "inputs": [
        {
          "internalType": "address",
          "name": "trader",
          "type": "address"
        },
        {
          "internalType": "uint256",
          "name": "nonce",
          "type": "uint256"
        }
      ],
      "name": "payPremium",
      "outputs": [
        {
          "internalType": "uint256",
          "name": "",
          "type": "uint256"
        }
      ],
      "stateMutability": "nonpayable",
      "type": "function"
    },
    {
      "inputs": [
        {
          "internalType": "int24",
          "name": "borrowStartTick",
          "type": "int24"
        },
        {
          "internalType": "int24",
          "name": "borrowFinishTick",
          "type": "int24"
        },
        {
          "internalType": "uint256",
          "name": "rate",
          "type": "uint256"
        },
        {
          "internalType": "uint256",
          "name": "borrowedAmount",
          "type": "uint256"
        },
        {
          "internalType": "bool",
          "name": "isToken0",
          "type": "bool"
        },
        {
          "internalType": "uint256[]",
          "name": "liquidities",
          "type": "uint256[]"
        }
      ],
      "name": "payPremiumToPool",
      "outputs": [
        {
          "internalType": "uint256",
          "name": "premium",
          "type": "uint256"
        }
      ],
      "stateMutability": "nonpayable",
      "type": "function"
    },
    {
      "inputs": [],
      "name": "pool",
      "outputs": [
        {
          "internalType": "contract UniswapV3Pool",
          "name": "",
          "type": "address"
        }
      ],
      "stateMutability": "view",
      "type": "function"
    },
    {
      "inputs": [
        {
          "internalType": "bytes32",
          "name": "",
          "type": "bytes32"
        }
      ],
      "name": "positions",
      "outputs": [
        {
          "internalType": "uint256",
          "name": "totalPosition",
          "type": "uint256"
        },
        {
          "internalType": "uint256",
          "name": "totalDebt",
          "type": "uint256"
        },
        {
          "internalType": "uint256",
          "name": "totalDebtInput",
          "type": "uint256"
        },
        {
          "internalType": "int24",
          "name": "creationTick",
          "type": "int24"
        },
        {
          "internalType": "uint128",
          "name": "borrowedLiq",
          "type": "uint128"
        },
        {
          "internalType": "bool",
          "name": "isToken0",
          "type": "bool"
        },
        {
          "internalType": "uint32",
          "name": "openTime",
          "type": "uint32"
        },
        {
          "internalType": "uint32",
          "name": "repayTime",
          "type": "uint32"
        },
        {
          "internalType": "int24",
          "name": "borrowStartTick",
          "type": "int24"
        },
        {
          "internalType": "int24",
          "name": "borrowFinishTick",
          "type": "int24"
        }
      ],
      "stateMutability": "view",
      "type": "function"
    },
    {
      "inputs": [],
      "name": "precision",
      "outputs": [
        {
          "internalType": "uint256",
          "name": "",
          "type": "uint256"
        }
      ],
      "stateMutability": "view",
      "type": "function"
    },
    {
      "inputs": [
        {
          "internalType": "int24",
          "name": "tick",
          "type": "int24"
        },
        {
          "internalType": "bool",
          "name": "down",
          "type": "bool"
        }
      ],
      "name": "roundTick",
      "outputs": [
        {
          "internalType": "int24",
          "name": "",
          "type": "int24"
        }
      ],
      "stateMutability": "view",
      "type": "function"
    },
    {
      "inputs": [
        {
          "internalType": "address",
          "name": "ad",
          "type": "address"
        }
      ],
      "name": "setLiquidityManager",
      "outputs": [],
      "stateMutability": "nonpayable",
      "type": "function"
    },
    {
      "inputs": [],
      "name": "tickSpacing",
      "outputs": [
        {
          "internalType": "int24",
          "name": "",
          "type": "int24"
        }
      ],
      "stateMutability": "view",
      "type": "function"
    },
    {
      "inputs": [],
      "name": "token0",
      "outputs": [
        {
          "internalType": "contract ERC20",
          "name": "",
          "type": "address"
        }
      ],
      "stateMutability": "view",
      "type": "function"
    },
    {
      "inputs": [],
      "name": "token1",
      "outputs": [
        {
          "internalType": "contract ERC20",
          "name": "",
          "type": "address"
        }
      ],
      "stateMutability": "view",
      "type": "function"
    },
    {
      "inputs": [
        {
          "internalType": "uint256",
          "name": "amount0Owed",
          "type": "uint256"
        },
        {
          "internalType": "uint256",
          "name": "amount1Owed",
          "type": "uint256"
        },
        {
          "internalType": "bytes",
          "name": "data",
          "type": "bytes"
        }
      ],
      "name": "uniswapV3MintCallback",
      "outputs": [],
      "stateMutability": "nonpayable",
      "type": "function"
    },
    {
      "inputs": [
        {
          "internalType": "int256",
          "name": "amount0Delta",
          "type": "int256"
        },
        {
          "internalType": "int256",
          "name": "amount1Delta",
          "type": "int256"
        },
        {
          "internalType": "bytes",
          "name": "data",
          "type": "bytes"
        }
      ],
      "name": "uniswapV3SwapCallback",
      "outputs": [],
      "stateMutability": "nonpayable",
      "type": "function"
    }
  ],
  "bytecode": {
    "object": "0x60e06040523480156200001157600080fd5b5060405162005cc138038062005cc18339810160408190526200003491620002a9565b600080546001600160a01b0319166001600160a01b03831690811790915560408051630dfe168160e01b81529051630dfe1681916004808201926020929091908290030181865afa1580156200008e573d6000803e3d6000fd5b505050506040513d601f19601f82011682018060405250810190620000b4919062000329565b60008054906101000a90046001600160a01b03166001600160a01b031663d21220a76040518163ffffffff1660e01b8152600401602060405180830381865afa15801562000106573d6000803e3d6000fd5b505050506040513d601f19601f820116820180604052508101906200012c919062000329565b6001600160a01b0390811660c05290811660a052600054604080516334324e9f60e21b81529051919092169163d0c93a7c9160048083019260209291908290030181865afa15801562000183573d6000803e3d6000fd5b505050506040513d601f19601f82011682018060405250810190620001a9919062000350565b600290810b608052670de7d1b0f0f10000600455600190555062000375915050565b634e487b7160e01b600052604160045260246000fd5b600082601f830112620001f357600080fd5b81516001600160401b0380821115620002105762000210620001cb565b604051601f8301601f19908116603f011681019082821181831017156200023b576200023b620001cb565b816040528381526020925086838588010111156200025857600080fd5b600091505b838210156200027c57858201830151818301840152908201906200025d565b600093810190920192909252949350505050565b6001600160a01b0381168114620002a657600080fd5b50565b600080600060608486031215620002bf57600080fd5b83516001600160401b0380821115620002d757600080fd5b620002e587838801620001e1565b94506020860151915080821115620002fc57600080fd5b506200030b86828701620001e1565b92505060408401516200031e8162000290565b809150509250925092565b6000602082840312156200033c57600080fd5b8151620003498162000290565b9392505050565b6000602082840312156200036357600080fd5b81518060020b81146200034957600080fd5b60805160a05160c05161584a620004776000396000818161046b01528181611ac2015281816127f7015281816128ba01528181612e4c01528181613543015281816135b5015281816138030152613bed01526000818161015701528181611b5b0152818161276f0152818161295701528181612db80152818161321f015281816136b001528181613722015281816138290152613b560152600081816104440152818161064301528181610674015281816106ae01528181610c1101528181610c870152818161105c015281816110b301528181611678015281816117080152818161192c015281816119bf015281816119ef0152611a2d015261584a6000f3fe608060405234801561001057600080fd5b506004361061014d5760003560e01c806380753d27116100c3578063d0c93a7c1161007c578063d0c93a7c1461043f578063d21220a714610466578063d34879971461048d578063d3b5dc3b146104a0578063d8b83f3a146104af578063fa461e33146104c257600080fd5b806380753d27146103b7578063946e986c146103e45780639aa886da14610406578063a9de6d6c14610410578063affed0e014610423578063bc2704bf1461042c57600080fd5b80633c1624d4116101155780633c1624d4146101ef5780633dc306ee146102215780633fdfb2aa1461024757806340f6ea541461026a578063514ea4bf146102b65780636ef83ef7146103a057600080fd5b80630dfe16811461015257806316f0115b14610196578063207b0576146101a957806333827438146101bc5780633adbb5af146101cf575b600080fd5b6101797f000000000000000000000000000000000000000000000000000000000000000081565b6040516001600160a01b0390911681526020015b60405180910390f35b600054610179906001600160a01b031681565b6101796101b73660046149f8565b6104d5565b600154610179906001600160a01b031681565b6101e26101dd366004614a3a565b610557565b60405161018d9190614b1e565b61021f6101fd366004614b2d565b600180546001600160a01b0319166001600160a01b0392909216919091179055565b005b61023461022f366004614b59565b61063b565b60405160029190910b815260200161018d565b61025a610255366004614a3a565b6106db565b604051901515815260200161018d565b61027d610278366004614b92565b6107d0565b604080516001600160a01b0395861681529490931660208501526001600160801b0390911691830191909152606082015260800161018d565b61033c6102c4366004614bc7565b6003602081905260009182526040909120805460018201546002808401549484015460049094015492949193919282820b926001600160801b0363010000008204169260ff600160981b8304169263ffffffff600160a01b8404811693600160c01b810490911692600160e01b909104810b91900b8a565b604080519a8b5260208b019990995297890196909652600294850b60608901526001600160801b03909316608088015290151560a087015263ffffffff90811660c08701521660e085015290810b6101008401520b6101208201526101400161018d565b6103a960045481565b60405190815260200161018d565b6103ca6103c5366004614bf5565b61190f565b6040805160029390930b835290151560208301520161018d565b6103f76103f2366004614c35565b611a92565b60405161018d93929190614c76565b6103a96201518081565b6103a961041e366004614d2c565b612891565b6103a960025481565b6103a961043a366004614a3a565b612a4a565b6102347f000000000000000000000000000000000000000000000000000000000000000081565b6101797f000000000000000000000000000000000000000000000000000000000000000081565b61021f61049b366004614e57565b612d90565b6103a9670de0b6b3a764000081565b61021f6104bd366004614eaa565b612ed0565b61021f6104d0366004614e57565b613b21565b60008161051057670de0b6b3a76400006104f76104f28583614ef8565b613c2b565b6105019086614f0f565b61050b9190614f57565b61054d565b670de0b6b3a7640000610539610527828087613ccf565b6104f290670de0b6b3a7640000614ef8565b6105439086614f0f565b61054d9190614f57565b90505b9392505050565b61055f614878565b600360008484604051602001610576929190614f7d565b60408051601f1981840301815291815281516020928301208352828201939093529082016000208251610140810184528154815260018201549281019290925260028082015493830193909352600381015480840b60608401526001600160801b036301000000820416608084015260ff600160981b820416151560a084015263ffffffff600160a01b8204811660c0850152600160c01b82041660e0840152600160e01b9004830b6101008301526004015490910b61012082015290505b92915050565b6000806106687f000000000000000000000000000000000000000000000000000000000000000085614f9f565b9050826106a95761069a7f00000000000000000000000000000000000000000000000000000000000000006001614fd9565b6106a49082614ffe565b6106d3565b6106d37f000000000000000000000000000000000000000000000000000000000000000082614ffe565b949350505050565b6000806003600085856040516020016106f5929190614f7d565b60408051601f1981840301815291815281516020928301208352828201939093529082016000208251610140810184528154815260018201549281019290925260028082015493830193909352600381015480840b60608401526001600160801b036301000000820416608084015260ff600160981b820416151560a084015263ffffffff600160a01b8204811660c0850152600160c01b82041660e08401819052600160e01b909104840b61010084015260049091015490920b61012082015291506107c6906201518090615025565b4211949350505050565b6000806000806107de6148cc565b670de0b6b3a7640000861161082b5760405162461bcd60e51b815260206004820152600e60248201526d77726f6e67206c6576657261676560901b60448201526064015b60405180910390fd5b60008054906101000a90046001600160a01b03166001600160a01b0316633850c7bd6040518163ffffffff1660e01b815260040160e060405180830381865afa15801561087c573d6000803e3d6000fd5b505050506040513d601f19601f820116820180604052508101906108a0919061504a565b5050505060029190910b6080840152506001600160a01b03166060820181905261091f90896108f3576108dc670de0b6b3a7640000808a613ccf565b6108ee90670de0b6b3a7640000615025565b610918565b610906670de0b6b3a7640000808a613ccf565b61091890670de0b6b3a76400006150e2565b60006104d5565b6001600160a01b0316610180820181905260045461093e91908a6104d5565b6001600160a01b0390811661018083015260005460408051630d34328160e11b815290519190921691631a6865029160048083019260209291908290030181865afa158015610991573d6000803e3d6000fd5b505050506040513d601f19601f820116820180604052508101906109b591906150f5565b6001600160801b03166102a0820181905260808201516109d6918a9061190f565b5060020b61020082018190526109eb90613d81565b8160e001906001600160a01b031690816001600160a01b03168152505060006040518060c00160405280600060ff168152602001836102a001516001600160801b031681526020014263ffffffff168152602001600060060b815260200160006001600160a01b0316815260200160001515815250905060006040518060e001604052808a8152602001600081526020018460e001516001600160a01b0316815260200184610200015160020b81526020016000815260200160006001600160801b0316815260200183602001516001600160801b0316815250905060008060009054906101000a90046001600160a01b03166001600160a01b031663ddc96b4a83606001516040518263ffffffff1660e01b8152600401610b16919060029190910b815260200190565b602060405180830381865afa158015610b33573d6000803e3d6000fd5b505050506040513d601f19601f82011682018060405250810190610b579190615112565b600054606084015160405163c504ae6560e01b815260029190910b60048201529192506001600160a01b03169063c504ae6590602401602060405180830381865afa158015610baa573d6000803e3d6000fd5b505050506040513d601f19601f82011682018060405250810190610bce9190615112565b610bd89082615135565b90508a15610bec57610be98161516b565b90505b610bfa8260c00151826140a4565b6001600160801b031660c0830152508915610c85577f0000000000000000000000000000000000000000000000000000000000000000610c48610c41856101800151614164565b600161063b565b610c58610c418660e00151614164565b610c629190615191565b610c6c9190614f9f565b610c77906001614fd9565b60020b6101a0840152610cf0565b7f0000000000000000000000000000000000000000000000000000000000000000610cb6610c418560e00151614164565b610cc7610c41866101800151614164565b610cd19190615191565b610cdb9190614f9f565b610ce6906002614fd9565b60020b6101a08401525b6000836101a0015167ffffffffffffffff811115610d1057610d10614c98565b604051908082528060200260200182016040528015610d6257816020015b604080516080810182526000808252602080830182905292820181905260608201528252600019909201910181610d2e5790505b509050600160009054906101000a90046001600160a01b03166001600160a01b031663826054b882848e8861018001516040518563ffffffff1660e01b8152600401610db194939291906151b6565b600060405180830381865afa158015610dce573d6000803e3d6000fd5b505050506040513d6000823e601f3d908101601f19168201604052610df69190810190615353565b81519093509091506000908b908290610e11906001906150e2565b905060008190506000610e268651600261446a565b90505b858381518110610e3b57610e3b615443565b60200260200101516040015185610e529190615025565b945080610e5f84846150e2565b610e6a906001615025565b03610eb05783851015610ede57858281518110610e8957610e89615443565b60200260200101516040015185610ea091906150e2565b9450610ead6001836150e2565b91505b82158015610ebd57508385105b15610ecc576000199250610ede565b82610ed681615459565b935050610e29565b826000198114610fea5760005b6001610ef78487615025565b610f0191906150e2565b8211610f4c57878281518110610f1957610f19615443565b60200260200101516040015181610f309190615025565b905085811015610f4c5781610f4481615470565b925050610eeb565b506000815b858110610f9d57888181518110610f6a57610f6a615443565b60200260200101516040015182610f819190615025565b915086821015610f9d5780610f9581615459565b915050610f51565b945084805b838111610fe657898181518110610fbb57610fbb615443565b602002602001015160400151600003610fd45760001996505b80610fde81615470565b915050610fa2565b5050505b6000198403611010576000806000809d509d509d509d5050505050505050505050611906565b8660008151811061102357611023615443565b60200260200101516000015160020b8760018151811061104557611045615443565b60200260200101516000015160020b12156110b1577f000000000000000000000000000000000000000000000000000000000000000087858151811061108d5761108d615443565b6020026020010151600001516110a39190614fd9565b60020b6101c08b0152611104565b7f00000000000000000000000000000000000000000000000000000000000000008785815181106110e4576110e4615443565b6020026020010151600001516110fa9190615191565b60020b6101c08b01525b86818151811061111657611116615443565b60209081029190910101515160020b6101e08b015283611137826001615025565b61114191906150e2565b6102608b01819052600090819067ffffffffffffffff81111561116657611166614c98565b60405190808252806020026020018201604052801561118f578160200160208202803683370190505b5090506111b86040518060400160405280600381526020016234963560e91b8152508785614481565b8286116112ce578886815181106111d1576111d1615443565b6020026020010151606001518c610240018181516111ef9190615025565b905250885189908790811061120657611206615443565b6020026020010151602001516001600160801b031681838151811061122d5761122d615443565b6020026020010181815250506112af6040518060400160405280600e81526020016d7574696c2f6c697175696469747960901b8152508d610240015183858151811061127b5761127b615443565b60200260200101518c8a8151811061129557611295615443565b6020026020010151602001516001600160801b03166144cd565b6112ba600183615025565b9150856112c681615470565b9650506111b8565b6102e08c0152506102408a0151156112fb578961026001518a61024001516112f69190615489565b6112fe565b60005b8a6102400181815250505050505050506113646040518060400160405280601981526020017f626f72726f772073746172742066696e6973682c207574696c00000000000000815250856101c0015160020b866101e0015160020b8761024001516144cd565b8a6113935761138e61137a856101c00151613d81565b611388866101e00151613d81565b8c61451c565b6113b8565b6113b86113a4856101c00151613d81565b6113b2866101e00151613d81565b8c61458f565b6001600160801b031660a085018190526000546101c086015160405163657badc360e11b815260029190910b6004820152600f9290920b60248301528c1560448301526001600160a01b03169063caf75b8690606401600060405180830381600087803b15801561142857600080fd5b505af115801561143c573d6000803e3d6000fd5b50506000546101e087015160a088015160405163657badc360e11b815260029290920b6004830152600f0b60248201528e151560448201526001600160a01b03909116925063caf75b869150606401600060405180830381600087803b1580156114a557600080fd5b505af11580156114b9573d6000803e3d6000fd5b50506000546101c08701516101e088015160a089015160405163c9de624f60e01b8152600293840b60048201529190920b60248201526001600160801b0390911660448201528e151560648201526001600160a01b03909116925063c9de624f9150608401600060405180830381600087803b15801561153857600080fd5b505af115801561154c573d6000803e3d6000fd5b5050505061158860405180604001604052806009815260200168626f72726f776c697160b81b8152508560a001516001600160801b03166145c5565b6000546101c08501516040516322e24ce960e01b815260029190910b60048201526001600160a01b03909116906322e24ce990602401600060405180830381600087803b1580156115d857600080fd5b505af11580156115ec573d6000803e3d6000fd5b50506000546101e08701516040516322e24ce960e01b815260029190910b60048201526001600160a01b0390911692506322e24ce99150602401600060405180830381600087803b15801561164057600080fd5b505af1158015611654573d6000803e3d6000fd5b50506000546101c087015160405163b4718f9360e01b8152600291820b60048201527f000000000000000000000000000000000000000000000000000000000000000090910b60248201526001600160a01b03909116925063b4718f939150604401600060405180830381600087803b1580156116d057600080fd5b505af11580156116e4573d6000803e3d6000fd5b50506000546101e087015160405163b4718f9360e01b8152600291820b60048201527f000000000000000000000000000000000000000000000000000000000000000090910b60248201526001600160a01b03909116925063b4718f939150604401600060405180830381600087803b15801561176057600080fd5b505af1158015611774573d6000803e3d6000fd5b5050600054604051631b195bbf60e21b81528e15156004820152602481018e90526001600160a01b039091169250636c656efc9150604401600060405180830381600087803b1580156117c657600080fd5b505af11580156117da573d6000803e3d6000fd5b505060015460808701516101e08801516101c08901516001600160a01b0390931694506341c22c589350909160029161181291614fd9565b61181c9190614f9f565b6102408801516040516001600160e01b031960e086901b168152600293840b60048201529190920b60248201528e1515604482015260648101919091526084016020604051808303816000875af115801561187b573d6000803e3d6000fd5b505050506040513d601f19601f8201168201806040525081019061189f919061549d565b846102800181815250506118cb846101c00151856101e001518661028001518d8f896102e00151612891565b6102808501526101e08401516118e090613d81565b6118ee856101c00151613d81565b8560a001518661028001519750975097509750505050505b93509350935093565b60008054604051633bcb373960e21b8152600286810b60048301527f0000000000000000000000000000000000000000000000000000000000000000900b602482015284151560448201528291829182916001600160a01b03169063ef2cdce4906064016040805180830381865afa15801561198f573d6000803e3d6000fd5b505050506040513d601f19601f820116820180604052508101906119b391906154b6565b909250905060006119e47f000000000000000000000000000000000000000000000000000000000000000089614f9f565b9050600087611a28577f0000000000000000000000000000000000000000000000000000000000000000611a19836001614fd9565b611a239190614ffe565b611a52565b611a527f000000000000000000000000000000000000000000000000000000000000000083614ffe565b90508060020b8460020b14611a7f576001600160801b03871615611a7f57945060019350611a8a92505050565b509193506000925050505b935093915050565b611a9a614878565b600080611aa56148cc565b8415611b44576040516323b872dd60e01b81526001600160a01b037f000000000000000000000000000000000000000000000000000000000000000016906323b872dd90611afb90339030908d906004016154e5565b6020604051808303816000875af1158015611b1a573d6000803e3d6000fd5b505050506040513d601f19601f82011682018060405250810190611b3e9190615509565b50611bd9565b6040516323b872dd60e01b81526001600160a01b037f000000000000000000000000000000000000000000000000000000000000000016906323b872dd90611b9490339030908d906004016154e5565b6020604051808303816000875af1158015611bb3573d6000803e3d6000fd5b505050506040513d601f19601f82011682018060405250810190611bd79190615509565b505b60008054906101000a90046001600160a01b03166001600160a01b0316633850c7bd6040518163ffffffff1660e01b815260040160e060405180830381865afa158015611c2a573d6000803e3d6000fd5b505050506040513d601f19601f82011682018060405250810190611c4e919061504a565b5050505060029190910b6080840152506001600160a01b03166060820152611c8f8587610278670de0b6b3a76400008c611c888185615025565b9190613ccf565b6102808501526001600160801b031660a08401526001600160a01b0390811660e08401521660c08201819052600003611d2457604080516101408101825260008082526020808301829052928201819052606082018190526080820181905260a0820181905260c0820181905260e0820181905261010082018190526101208201529082015191519094509092509050612887565b60c081015160405163c9fcbf0160e01b81526001600160a01b03909116600482015260029073__$fa75ba005dbcb3b05f8f4519f566ca63ec$__9063c9fcbf0190602401602060405180830381865af4158015611d85573d6000803e3d6000fd5b505050506040513d601f19601f82011682018060405250810190611da9919061549d565b60e083015160405163c9fcbf0160e01b81526001600160a01b03909116600482015273__$fa75ba005dbcb3b05f8f4519f566ca63ec$__9063c9fcbf0190602401602060405180830381865af4158015611e07573d6000803e3d6000fd5b505050506040513d601f19601f82011682018060405250810190611e2b919061549d565b611e359190615025565b611e3f9190615489565b8152600085611e6657611e618260e001518360c001518460a00151600161460e565b611e7f565b611e7f8260e001518360c001518460a00151600161467e565b905085611f2b57606082015160405163c9fcbf0160e01b81526001600160a01b039091166004820152611f26908990670de0b6b3a764000090611c8890829073__$fa75ba005dbcb3b05f8f4519f566ca63ec$__9063c9fcbf0190602401602060405180830381865af4158015611efa573d6000803e3d6000fd5b505050506040513d601f19601f82011682018060405250810190611f1e919061549d565b869190613ccf565b611fd1565b606082015160405163c9fcbf0160e01b81526001600160a01b039091166004820152611fd1908990670de0b6b3a764000090611c889073__$fa75ba005dbcb3b05f8f4519f566ca63ec$__9063c9fcbf0190602401602060405180830381865af4158015611f9d573d6000803e3d6000fd5b505050506040513d601f19601f82011682018060405250810190611fc1919061549d565b8590670de0b6b3a7640000613ccf565b602083018181528891611fe59083906150e2565b905250602082015161200590670de0b6b3a764000090611c888a82615025565b604083015260208201518910156120795750604080516101408101825260008082526020808301829052928201819052606082018190526080820181905260a0820181905260c0820181905260e0820181905261010082018190526101208201529082015191519094509092509050612887565b816020015189101561209d5760405162461bcd60e51b815260040161082290615526565b60408051808201909152600f81526e70726963657320736c69707061676560881b602082015261233c90670de0b6b3a76400006120dd6104f28c83614ef8565b85606001516120ec9190614f0f565b6120f69190614f57565b60405163c9fcbf0160e01b81526001600160a01b03909116600482015273__$fa75ba005dbcb3b05f8f4519f566ca63ec$__9063c9fcbf0190602401602060405180830381865af415801561214f573d6000803e3d6000fd5b505050506040513d601f19601f82011682018060405250810190612173919061549d565b606085015160405163c9fcbf0160e01b81526001600160a01b03909116600482015273__$fa75ba005dbcb3b05f8f4519f566ca63ec$__9063c9fcbf0190602401602060405180830381865af41580156121d1573d6000803e3d6000fd5b505050506040513d601f19601f820116820180604052508101906121f5919061549d565b606086015160405163c9fcbf0160e01b81526001600160a01b0390911660048201526123379073__$fa75ba005dbcb3b05f8f4519f566ca63ec$__9063c9fcbf0190602401602060405180830381865af4158015612257573d6000803e3d6000fd5b505050506040513d601f19601f8201168201806040525081019061227b919061549d565b670de0b6b3a764000061229b8f670de0b6b3a76400006104f29190614ef8565b89606001516122aa9190614f0f565b6122b49190614f57565b60405163c9fcbf0160e01b81526001600160a01b03909116600482015273__$fa75ba005dbcb3b05f8f4519f566ca63ec$__9063c9fcbf0190602401602060405180830381865af415801561230d573d6000803e3d6000fd5b505050506040513d601f19601f82011682018060405250810190612331919061549d565b9061473e565b6144cd565b604080513060208201526000910160408051601f198184030181529190526000549091506001600160a01b031663128acb0830891561237b8c8f615025565b61238b88606001518f8e156104d5565b866040518663ffffffff1660e01b81526004016123ac95949392919061558a565b60408051808303816000875af11580156123ca573d6000803e3d6000fd5b505050506040513d601f19601f820116820180604052508101906123ee91906155c5565b6101408501526101208401526000805460408051633850c7bd60e01b815290516001600160a01b0390921691633850c7bd9160048082019260e0929091908290030181865afa158015612445573d6000803e3d6000fd5b505050506040513d601f19601f82011682018060405250810190612469919061504a565b505050505050905087156124a95782846101200151612487906155e9565b116124a45760405162461bcd60e51b815260040161082290615526565b6124d6565b828461014001516124b9906155e9565b116124d65760405162461bcd60e51b815260040161082290615526565b60006040518061014001604052808a6124fd578661014001516124f8906155e9565b61250c565b86610120015161250c906155e9565b81526020018581526020018b8152602001866080015160020b81526020018660a001516001600160801b031681526020018a151581526020014263ffffffff168152602001600063ffffffff16815260200161256b8760e00151614164565b60020b81526020016125808760c00151614164565b60020b81525090508060036000336002546040516020016125a2929190614f7d565b60408051808303601f190181529181528151602092830120835282820193909352908201600090812084518155918401516001830155918301516002808301919091556060840151600383018054608087015160a088015160c089015160e08a01516101008b015162ffffff97881672ffffffffffffffffffffffffffffffffffffff199096169590951763010000006001600160801b03909516949094029390931764ffffffffff60981b1916600160981b9215159290920263ffffffff60a01b191691909117600160a01b63ffffffff928316021766ffffffffffffff60c01b1916600160c01b919092160262ffffff60e01b191617600160e01b91841691909102179055610120909401516004909201805462ffffff19169290941691909117909255815491906126d583615470565b9190505550612712604051806040016040528060088152602001673837b9b4ba34b7b760c11b8152508260a0015183600001518460200151614753565b61272a81604001518260c0015163ffffffff1661479c565b60408051808201825260168152753130b630b731b29037b3103632bb1036b0b730b3b2b960511b602082015290516370a0823160e01b815230600482015261286f91907f00000000000000000000000000000000000000000000000000000000000000006001600160a01b0316906370a0823190602401602060405180830381865afa1580156127be573d6000803e3d6000fd5b505050506040513d601f19601f820116820180604052508101906127e2919061549d565b6040516370a0823160e01b81523060048201527f00000000000000000000000000000000000000000000000000000000000000006001600160a01b0316906370a0823190602401602060405180830381865afa158015612846573d6000803e3d6000fd5b505050506040513d601f19601f8201168201806040525081019061286a919061549d565b614481565b80856020015186610280015197509750975050505050505b9450945094915050565b67016345785d8a0000821561293d576000546040516323b872dd60e01b81526001600160a01b037f00000000000000000000000000000000000000000000000000000000000000008116926323b872dd926128f4923392169086906004016154e5565b6020604051808303816000875af1158015612913573d6000803e3d6000fd5b505050506040513d601f19601f820116820180604052508101906129379190615509565b506129d6565b6000546040516323b872dd60e01b81526001600160a01b037f00000000000000000000000000000000000000000000000000000000000000008116926323b872dd92612991923392169086906004016154e5565b6020604051808303816000875af11580156129b0573d6000803e3d6000fd5b505050506040513d601f19601f820116820180604052508101906129d49190615509565b505b600054604051630772d80760e51b81526001600160a01b039091169063ee5b00e090612a0e908a908a90869088908a90600401615605565b600060405180830381600087803b158015612a2857600080fd5b505af1158015612a3c573d6000803e3d6000fd5b505050509695505050505050565b600080600360008585604051602001612a64929190614f7d565b604051602081830303815290604052805190602001208152602001908152602001600020905060008060008054906101000a90046001600160a01b03166001600160a01b0316633850c7bd6040518163ffffffff1660e01b815260040160e060405180830381865afa158015612ade573d6000803e3d6000fd5b505050506040513d601f19601f82011682018060405250810190612b02919061504a565b505050505091509150600080600160009054906101000a90046001600160a01b03166001600160a01b031663b4dfbed1858560008054906101000a90046001600160a01b03166001600160a01b0316631a6865026040518163ffffffff1660e01b8152600401602060405180830381865afa158015612b85573d6000803e3d6000fd5b505050506040513d601f19601f82011682018060405250810190612ba991906150f5565b60038a01546004808c015460405160e088901b6001600160e01b03191681526001600160a01b0390961691860191909152600293840b60248601526001600160801b039092166044850152600160e01b9004820b6064840152900b608482015260a401600060405180830381865afa158015612c29573d6000803e3d6000fd5b505050506040513d6000823e601f3d908101601f19168201604052612c519190810190615672565b600154600488015460038901549395509193506000926001600160a01b03909116916341c22c58918791600291612c9391830b90600160e01b9004830b614fd9565b612c9d9190614f9f565b60038a015460405160e085901b6001600160e01b0319168152600293840b60048201529190920b6024820152600160981b90910460ff1615156044820152606481018690526084016020604051808303816000875af1158015612d04573d6000803e3d6000fd5b505050506040513d601f19601f82011682018060405250810190612d28919061549d565b600387015460048801546002808a0154939450612d6193600160e01b8404820b939290910b91859190600160981b900460ff1687612891565b50600395909501805463ffffffff60c01b1916600160c01b4263ffffffff160217905550929695505050505050565b6000612d9e82840184614b2d565b6040516323b872dd60e01b81529091506001600160a01b037f000000000000000000000000000000000000000000000000000000000000000016906323b872dd90612df190849033908a906004016154e5565b6020604051808303816000875af1158015612e10573d6000803e3d6000fd5b505050506040513d601f19601f82011682018060405250810190612e349190615509565b506040516323b872dd60e01b81526001600160a01b037f000000000000000000000000000000000000000000000000000000000000000016906323b872dd90612e85908490339089906004016154e5565b6020604051808303816000875af1158015612ea4573d6000803e3d6000fd5b505050506040513d601f19601f82011682018060405250810190612ec89190615509565b505050505050565b600454612edb6148cc565b600360008587604051602001612ef2929190614f7d565b60408051601f1981840301815291815281516020928301208352828201939093529082016000208251610140810184528154815260018201549281019290925260028082015493830193909352600381015480840b60608401526001600160801b036301000000820416608084015260ff600160981b820416151560a0840190815263ffffffff600160a01b8304811660c0860152600160c01b83041660e0850152600160e01b909104840b61010084015260049091015490920b61012082015261016083015251156139a55760008054906101000a90046001600160a01b03166001600160a01b0316633850c7bd6040518163ffffffff1660e01b815260040160e060405180830381865afa158015613010573d6000803e3d6000fd5b505050506040513d601f19601f82011682018060405250810190613034919061504a565b5050505060029190910b6080840152506001600160a01b03166060820152610160810151610100015161307b9061306a90613d81565b8383610160015160a00151156104d5565b6001600160a01b0316610100820190815260408051808201909152601a81527f736c697070616765207469636b2063757272656e74207469636b000000000000602082015290516130e091906130d090614164565b60020b836080015160020b614481565b600081610160015160a00151613114578161010001516001600160a01b031682606001516001600160a01b03161115613134565b8161010001516001600160a01b031682606001516001600160a01b031610155b9050600082610160015160a00151613176576131598361016001516101200151613d81565b6001600160a01b031683606001516001600160a01b0316116131a2565b6131898361016001516101200151613d81565b6001600160a01b031683606001516001600160a01b0316105b905081156137eb5760408051306020820152600091016040516020818303038152906040529050856000036131d5578495505b60408051808201825260148152733130b630b731b29030b732103837b9b4ba34b7b760611b60208201526101608601515191516370a0823160e01b815230600482015261332792907f00000000000000000000000000000000000000000000000000000000000000006001600160a01b0316906370a0823190602401602060405180830381865afa15801561326e573d6000803e3d6000fd5b505050506040513d601f19601f82011682018060405250810190613292919061549d565b6132aa88606001518b8a610160015160a001516104d5565b60405163c9fcbf0160e01b81526001600160a01b03909116600482015273__$fa75ba005dbcb3b05f8f4519f566ca63ec$__9063c9fcbf0190602401602060405180830381865af4158015613303573d6000803e3d6000fd5b505050506040513d601f19601f82011682018060405250810190612337919061549d565b60005461016085015160a0810151905160608701516001600160a01b039093169263128acb08923092909161335d908c846104d5565b866040518663ffffffff1660e01b815260040161337e95949392919061558a565b60408051808303816000875af115801561339c573d6000803e3d6000fd5b505050506040513d601f19601f820116820180604052508101906133c091906155c5565b6101408601526101208501526000805460408051633850c7bd60e01b815290516001600160a01b0390921691633850c7bd9160048082019260e0929091908290030181865afa158015613417573d6000803e3d6000fd5b505050506040513d601f19601f8201168201806040525081019061343b919061504a565b505050505091505084610160015160a00151156134ab57846101600151610100015160020b8160020b12156134a65760405162461bcd60e51b8152602060048201526011602482015270747261646520626f756e64206661696c3160781b6044820152606401610822565b6134ff565b846101600151610100015160020b8160020b13156134ff5760405162461bcd60e51b8152602060048201526011602482015270747261646520626f756e64206661696c3160781b6044820152606401610822565b84610160015160a001511561367b57600054610160860151604090810151905163a9059cbb60e01b81526001600160a01b03928316600482015260248101919091527f00000000000000000000000000000000000000000000000000000000000000009091169063a9059cbb906044016020604051808303816000875af115801561358e573d6000803e3d6000fd5b505050506040513d601f19601f820116820180604052508101906135b29190615509565b507f00000000000000000000000000000000000000000000000000000000000000006001600160a01b031663a9059cbb89876101600151604001518861014001516135fc906155e9565b61360691906150e2565b6040516001600160e01b031960e085901b1681526001600160a01b03909216600483015260248201526044016020604051808303816000875af1158015613651573d6000803e3d6000fd5b505050506040513d601f19601f820116820180604052508101906136759190615509565b506137e4565b600054610160860151604090810151905163a9059cbb60e01b81526001600160a01b03928316600482015260248101919091527f00000000000000000000000000000000000000000000000000000000000000009091169063a9059cbb906044016020604051808303816000875af11580156136fb573d6000803e3d6000fd5b505050506040513d601f19601f8201168201806040525081019061371f9190615509565b507f00000000000000000000000000000000000000000000000000000000000000006001600160a01b031663a9059cbb8987610160015160400151886101200151613769906155e9565b61377391906150e2565b6040516001600160e01b031960e085901b1681526001600160a01b03909216600483015260248201526044016020604051808303816000875af11580156137be573d6000803e3d6000fd5b505050506040513d601f19601f820116820180604052508101906137e29190615509565b505b50506139a2565b801561396657600083610160015160a00151613827577f0000000000000000000000000000000000000000000000000000000000000000613849565b7f00000000000000000000000000000000000000000000000000000000000000005b6000546101608601516020015160405163a9059cbb60e01b81526001600160a01b039283166004820152602481019190915291925082169063a9059cbb906044016020604051808303816000875af11580156138a9573d6000803e3d6000fd5b505050506040513d601f19601f820116820180604052508101906138cd9190615509565b50610160840151602081015190516001600160a01b0383169163a9059cbb918a916138f7916150e2565b6040516001600160e01b031960e085901b1681526001600160a01b03909216600483015260248201526044016020604051808303816000875af1158015613942573d6000803e3d6000fd5b505050506040513d601f19601f820116820180604052508101906137e49190615509565b60405162461bcd60e51b81526020600482015260116024820152703a3930b232903137bab732103330b4b61960791b6044820152606401610822565b50505b60005461016082015161010081015160809091015160405163657badc360e11b815260029290920b6004830152600f0b6024820152600160448201526001600160a01b039091169063caf75b8690606401600060405180830381600087803b158015613a1057600080fd5b505af1158015613a24573d6000803e3d6000fd5b50506000805461016085015161012081015160809091015160405163657badc360e11b815260029290920b6004830152600f0b602482015260448101929092526001600160a01b0316925063caf75b869150606401600060405180830381600087803b158015613a9357600080fd5b505af1158015613aa7573d6000803e3d6000fd5b50505050600360003387604051602001613ac2929190614f7d565b60408051601f1981840301815291815281516020928301208352908201929092520160009081208181556001810182905560028101919091556003810180546001600160f81b0319169055600401805462ffffff191690555050505050565b6000613b2f82840184614b2d565b90506000851315613bd15760405163a9059cbb60e01b8152336004820152602481018690527f00000000000000000000000000000000000000000000000000000000000000006001600160a01b03169063a9059cbb906044016020604051808303816000875af1158015613ba7573d6000803e3d6000fd5b505050506040513d601f19601f82011682018060405250810190613bcb9190615509565b50613c24565b60405163a9059cbb60e01b8152336004820152602481018590527f00000000000000000000000000000000000000000000000000000000000000006001600160a01b03169063a9059cbb90604401612e85565b5050505050565b60b581600160881b8110613c445760409190911b9060801c5b69010000000000000000008110613c605760209190911b9060401c5b650100000000008110613c785760109190911b9060201c5b63010000008110613c8e5760089190911b9060101c5b62010000010260121c80820401600190811c80830401811c80830401811c80830401811c80830401811c80830401811c80830401901c908190048111900390565b6000808060001985870985870292508281108382030391505080600003613d085760008411613cfd57600080fd5b508290049050610550565b808411613d1457600080fd5b6000848688096000868103871696879004966002600389028118808a02820302808a02820302808a02820302808a02820302808a02820302808a02909103029181900381900460010186841190950394909402919094039290920491909117919091029150509392505050565b60008060008360020b12613d98578260020b613da0565b8260020b6000035b9050620d89e8811115613dc6576040516315e4079d60e11b815260040160405180910390fd5b600081600116600003613ddd57600160801b613def565b6ffffcb933bd6fad37aa2d162d1a5940015b70ffffffffffffffffffffffffffffffffff1690506002821615613e23576ffff97272373d413259a46990580e213a0260801c5b6004821615613e42576ffff2e50f5f656932ef12357cf3c7fdcc0260801c5b6008821615613e61576fffe5caca7e10e4e61c3624eaa0941cd00260801c5b6010821615613e80576fffcb9843d60f6159c9db58835c9266440260801c5b6020821615613e9f576fff973b41fa98c081472e6896dfb254c00260801c5b6040821615613ebe576fff2ea16466c96a3843ec78b326b528610260801c5b6080821615613edd576ffe5dee046a99a2a811c461f1969c30530260801c5b610100821615613efd576ffcbe86c7900a88aedcffc83b479aa3a40260801c5b610200821615613f1d576ff987a7253ac413176f2b074cf7815e540260801c5b610400821615613f3d576ff3392b0822b70005940c7a398e4b70f30260801c5b610800821615613f5d576fe7159475a2c29b7443b29c7fa6e889d90260801c5b611000821615613f7d576fd097f3bdfd2022b8845ad8f792aa58250260801c5b612000821615613f9d576fa9f746462d870fdf8a65dc1f90e061e50260801c5b614000821615613fbd576f70d869a156d2a1b890bb3df62baf32f70260801c5b618000821615613fdd576f31be135f97d08fd981231505542fcfa60260801c5b62010000821615613ffe576f09aa508b5b7a84e1c677de54f3e99bc90260801c5b6202000082161561401e576e5d6af8dedb81196699c329225ee6040260801c5b6204000082161561403d576d2216e584f5fa1ea926041bedfe980260801c5b6208000082161561405a576b048a170391f7dc42444e8fa20260801c5b60008460020b131561407b57806000198161407757614077614f41565b0490505b64010000000081061561408f576001614092565b60005b60ff16602082901c0192505050919050565b60008082600f0b1215614111576001600160801b0383166140c48361516b565b6140ce908561570f565b9150816001600160801b03161061410c5760405162461bcd60e51b81526020600482015260026024820152614c5360f01b6044820152606401610822565b610635565b6001600160801b038316614125838561572f565b9150816001600160801b031610156106355760405162461bcd60e51b81526020600482015260026024820152614c4160f01b6044820152606401610822565b60006401000276a36001600160a01b038316108015906141a0575073fffd8963efd1fc6a506488495d951d5263988d266001600160a01b038316105b6141bd576040516324c070df60e11b815260040160405180910390fd5b640100000000600160c01b03602083901b166001600160801b03811160071b81811c67ffffffffffffffff811160061b90811c63ffffffff811160051b90811c61ffff811160041b90811c60ff8111600390811b91821c600f811160021b90811c918211600190811b92831c9790881196179094179092171790911717176080811061425157607f810383901c915061425b565b80607f0383901b91505b908002607f81811c60ff83811c9190911c800280831c81831c1c800280841c81841c1c800280851c81851c1c800280861c81861c1c800280871c81871c1c800280881c81881c1c800280891c81891c1c8002808a1c818a1c1c8002808b1c818b1c1c8002808c1c818c1c1c8002808d1c818d1c1c8002808e1c9c81901c9c909c1c80029c8d901c9e9d607f198f0160401b60c09190911c678000000000000000161760c19b909b1c674000000000000000169a909a1760c29990991c672000000000000000169890981760c39790971c671000000000000000169690961760c49590951c670800000000000000169490941760c59390931c670400000000000000169290921760c69190911c670200000000000000161760c79190911c670100000000000000161760c89190911c6680000000000000161760c99190911c6640000000000000161760ca9190911c6620000000000000161760cb9190911c6610000000000000161760cc9190911c6608000000000000161760cd9190911c66040000000000001617693627a301d71055774c8581026f028f6481ab7f045a5af012a19d003aa9198101608090811d906fdb2df09e81959a81455e260799a0632f8301901d600281810b9083900b1461445b57886001600160a01b031661444082613d81565b6001600160a01b03161115614455578161445d565b8061445d565b815b9998505050505050505050565b60008183111561447a5781610550565b5090919050565b6144c88383836040516024016144999392919061574f565b60408051601f198184030181529190526020810180516001600160e01b031663969cdd0360e01b1790526147de565b505050565b614516848484846040516024016144e79493929190615774565b60408051601f198184030181529190526020810180516001600160e01b03166304772b3360e11b1790526147de565b50505050565b6000826001600160a01b0316846001600160a01b0316111561453c579192915b600061455f856001600160a01b0316856001600160a01b0316600160601b613ccf565b9050614586614581848361457389896157a3565b6001600160a01b0316613ccf565b6147ff565b95945050505050565b6000826001600160a01b0316846001600160a01b031611156145af579192915b61054d61458183600160601b61457388886157a3565b61460a82826040516024016145db9291906157c3565b60408051601f198184030181529190526020810180516001600160e01b03166309710a9d60e41b1790526147de565b5050565b6000836001600160a01b0316856001600160a01b0316111561462e579293925b8161465b57614656836001600160801b03168686036001600160a01b0316600160601b613ccf565b614586565b614586836001600160801b03168686036001600160a01b0316600160601b61481a565b6000836001600160a01b0316856001600160a01b0316111561469e579293925b6fffffffffffffffffffffffffffffffff60601b606084901b166001600160a01b0386860381169087166146d157600080fd5b8361470757866001600160a01b03166146f48383896001600160a01b0316613ccf565b8161470157614701614f41565b04614733565b61473361471e8383896001600160a01b031661481a565b886001600160a01b0316808204910615150190565b979650505050505050565b600061055083670de0b6b3a76400008461485a565b6145168484848460405160240161476d94939291906157e5565b60408051601f198184030181529190526020810180516001600160e01b0316630bb7fe0760e31b1790526147de565b604051602481018390526044810182905261460a9060640160408051601f198184030181529190526020810180516001600160e01b031662d81ed360e71b1790525b80516a636f6e736f6c652e6c6f67602083016000808483855afa5050505050565b806001600160801b038116811461481557600080fd5b919050565b6000614827848484613ccf565b90506000828061483957614839614f41565b848609111561055057600019811061485057600080fd5b6001019392505050565b600082600019048411830215820261487157600080fd5b5091020490565b6040805161014081018252600080825260208201819052918101829052606081018290526080810182905260a0810182905260c0810182905260e08101829052610100810182905261012081019190915290565b60405180610300016040528060008152602001600081526020016000815260200160006001600160a01b03168152602001600060020b815260200160006001600160801b0316815260200160006001600160a01b0316815260200160006001600160a01b0316815260200160006001600160a01b03168152602001600081526020016000815260200161495d614878565b815260200160006001600160a01b0316815260200160008152602001600060020b8152602001600060020b8152602001600060020b81526020016000815260200160008152602001600081526020016000815260200160006001600160801b0316815260200160608152602001606081525090565b6001600160a01b03811681146149e757600080fd5b50565b80151581146149e757600080fd5b600080600060608486031215614a0d57600080fd5b8335614a18816149d2565b9250602084013591506040840135614a2f816149ea565b809150509250925092565b60008060408385031215614a4d57600080fd5b8235614a58816149d2565b946020939093013593505050565b8051825260208101516020830152604081015160408301526060810151614a92606084018260020b9052565b506080810151614aad60808401826001600160801b03169052565b5060a0810151614ac160a084018215159052565b5060c0810151614ad960c084018263ffffffff169052565b5060e0810151614af160e084018263ffffffff169052565b5061010080820151614b078285018260020b9052565b5050610120808201516145168285018260020b9052565b61014081016106358284614a66565b600060208284031215614b3f57600080fd5b8135610550816149d2565b8060020b81146149e757600080fd5b60008060408385031215614b6c57600080fd5b8235614b7781614b4a565b91506020830135614b87816149ea565b809150509250929050565b600080600060608486031215614ba757600080fd5b8335614bb2816149ea565b95602085013595506040909401359392505050565b600060208284031215614bd957600080fd5b5035919050565b6001600160801b03811681146149e757600080fd5b600080600060608486031215614c0a57600080fd5b8335614c1581614b4a565b92506020840135614c25816149ea565b91506040840135614a2f81614be0565b60008060008060808587031215614c4b57600080fd5b8435935060208501359250604085013591506060850135614c6b816149ea565b939692955090935050565b6101808101614c858286614a66565b6101408201939093526101600152919050565b634e487b7160e01b600052604160045260246000fd5b6040516080810167ffffffffffffffff81118282101715614cd157614cd1614c98565b60405290565b604051601f8201601f1916810167ffffffffffffffff81118282101715614d0057614d00614c98565b604052919050565b600067ffffffffffffffff821115614d2257614d22614c98565b5060051b60200190565b60008060008060008060c08789031215614d4557600080fd5b8635614d5081614b4a565b9550602087810135614d6181614b4a565b955060408801359450606088013593506080880135614d7f816149ea565b925060a088013567ffffffffffffffff811115614d9b57600080fd5b8801601f81018a13614dac57600080fd5b8035614dbf614dba82614d08565b614cd7565b81815260059190911b8201830190838101908c831115614dde57600080fd5b928401925b82841015614dfc57833582529284019290840190614de3565b80955050505050509295509295509295565b60008083601f840112614e2057600080fd5b50813567ffffffffffffffff811115614e3857600080fd5b602083019150836020828501011115614e5057600080fd5b9250929050565b60008060008060608587031215614e6d57600080fd5b8435935060208501359250604085013567ffffffffffffffff811115614e9257600080fd5b614e9e87828801614e0e565b95989497509550505050565b600080600060608486031215614ebf57600080fd5b833592506020840135614ed1816149d2565b929592945050506040919091013590565b634e487b7160e01b600052601160045260246000fd5b808202811582820484141761063557610635614ee2565b6001600160a01b03828116828216818102831692918115828504821417614f3857614f38614ee2565b50505092915050565b634e487b7160e01b600052601260045260246000fd5b60006001600160a01b0383811680614f7157614f71614f41565b92169190910492915050565b60609290921b6bffffffffffffffffffffffff19168252601482015260340190565b60008160020b8360020b80614fb657614fb6614f41565b627fffff19821460001982141615614fd057614fd0614ee2565b90059392505050565b600281810b9083900b01627fffff8113627fffff198212171561063557610635614ee2565b60008260020b8260020b028060020b915080821461501e5761501e614ee2565b5092915050565b8082018082111561063557610635614ee2565b805161ffff8116811461481557600080fd5b600080600080600080600060e0888a03121561506557600080fd5b8751615070816149d2565b602089015190975061508181614b4a565b955061508f60408901615038565b945061509d60608901615038565b93506150ab60808901615038565b925060a088015160ff811681146150c157600080fd5b60c08901519092506150d2816149ea565b8091505092959891949750929550565b8181038181111561063557610635614ee2565b60006020828403121561510757600080fd5b815161055081614be0565b60006020828403121561512457600080fd5b815180600f0b811461055057600080fd5b600f82810b9082900b036f7fffffffffffffffffffffffffffffff19811260016001607f1b038213171561063557610635614ee2565b600081600f0b60016001607f1b0319810361518857615188614ee2565b60000392915050565b600282810b9082900b03627fffff198112627fffff8213171561063557610635614ee2565b6101408082528551908201819052600090610160830190602090818901845b8281101561521d578151805160020b8652848101516001600160801b0316858701526040808201519087015260609081015190860152608090940193908301906001016151d5565b5050508192506152868185018880518252602080820151908301526040808201516001600160a01b03169083015260608082015160020b908301526080808201519083015260a0808201516001600160801b039081169184019190915260c09182015116910152565b50508315156101008301526001600160a01b03831661012083015295945050505050565b600060e082840312156152bc57600080fd5b60405160e0810181811067ffffffffffffffff821117156152df576152df614c98565b806040525080915082518152602083015160208201526040830151615303816149d2565b6040820152606083015161531681614b4a565b60608201526080838101519082015260a083015161533381614be0565b60a082015260c083015161534681614be0565b60c0919091015292915050565b600080610100838503121561536757600080fd5b825167ffffffffffffffff81111561537e57600080fd5b8301601f8101851361538f57600080fd5b8051602061539f614dba83614d08565b82815260079290921b830181019181810190888411156153be57600080fd5b938201935b83851015615427576080858a0312156153dc5760008081fd5b6153e4614cae565b85516153ef81614b4a565b8152858401516153fe81614be0565b8185015260408681015190820152606080870151908201528252608090940193908201906153c3565b95506154379050878783016152aa565b93505050509250929050565b634e487b7160e01b600052603260045260246000fd5b60008161546857615468614ee2565b506000190190565b60006001820161548257615482614ee2565b5060010190565b60008261549857615498614f41565b500490565b6000602082840312156154af57600080fd5b5051919050565b600080604083850312156154c957600080fd5b82516154d481614b4a565b6020840151909250614b87816149ea565b6001600160a01b039384168152919092166020820152604081019190915260600190565b60006020828403121561551b57600080fd5b8151610550816149ea565b6020808252600490820152630858dbdb60e21b604082015260600190565b6000815180845260005b8181101561556a5760208185018101518683018201520161554e565b506000602082860101526020601f19601f83011685010191505092915050565b6001600160a01b0386811682528515156020830152604082018590528316606082015260a06080820181905260009061473390830184615544565b600080604083850312156155d857600080fd5b505080516020909101519092909150565b6000600160ff1b82016155fe576155fe614ee2565b5060000390565b600060a082018760020b835260208760020b8185015286604085015260a0606085015281865180845260c086019150828801935060005b818110156156585784518352938301939183019160010161563c565b505080935050505082151560808301529695505050505050565b6000806040838503121561568557600080fd5b8251915060208084015167ffffffffffffffff8111156156a457600080fd5b8401601f810186136156b557600080fd5b80516156c3614dba82614d08565b81815260059190911b820183019083810190888311156156e257600080fd5b928401925b82841015615700578351825292840192908401906156e7565b80955050505050509250929050565b6001600160801b0382811682821603908082111561501e5761501e614ee2565b6001600160801b0381811683821601908082111561501e5761501e614ee2565b6060815260006157626060830186615544565b60208301949094525060400152919050565b6080815260006157876080830187615544565b6020830195909552506040810192909252606090910152919050565b6001600160a01b0382811682821603908082111561501e5761501e614ee2565b6040815260006157d66040830185615544565b90508260208301529392505050565b6080815260006157f86080830187615544565b941515602083015250604081019290925260609091015291905056fea264697066735822122037756d38e7783ca45fc123cc39872b6eb087639d22d4e933b92a86567e54055d64736f6c63430008110033",
    "linkReferences": {
      "src/periphery/LiquidityAmounts.sol": {
        "LiquidityAmounts": [
          {
            "start": 8642,
            "length": 20
          },
          {
            "start": 8772,
            "length": 20
          },
          {
            "start": 9015,
            "length": 20
          },
          {
            "start": 9178,
            "length": 20
          },
          {
            "start": 9612,
            "length": 20
          },
          {
            "start": 9742,
            "length": 20
          },
          {
            "start": 9876,
            "length": 20
          },
          {
            "start": 10058,
            "length": 20
          },
          {
            "start": 14144,
            "length": 20
          }
        ]
      }
    }
  },
  "methodIdentifiers": {
    "INTEREST_REPLENISH_TIME()": "9aa886da",
    "applySlippageX96(uint160,uint256,bool)": "207b0576",
    "borrow(bool,int256,uint256)": "40f6ea54",
    "closeMaxSlippage()": "6ef83ef7",
    "closePosition(uint256,address,uint256)": "d8b83f3a",
    "createLevPosition(uint256,uint256,uint256,bool)": "946e986c",
    "getNextTick(int24,bool,uint128)": "80753d27",
    "getPosition(address,uint256)": "3adbb5af",
    "isLiquidatable(address,uint256)": "3fdfb2aa",
    "liquidityManager()": "33827438",
    "nonce()": "affed0e0",
    "payPremium(address,uint256)": "bc2704bf",
    "payPremiumToPool(int24,int24,uint256,uint256,bool,uint256[])": "a9de6d6c",
    "pool()": "16f0115b",
    "positions(bytes32)": "514ea4bf",
    "precision()": "d3b5dc3b",
    "roundTick(int24,bool)": "3dc306ee",
    "setLiquidityManager(address)": "3c1624d4",
    "tickSpacing()": "d0c93a7c",
    "token0()": "0dfe1681",
    "token1()": "d21220a7",
    "uniswapV3MintCallback(uint256,uint256,bytes)": "d3487997",
    "uniswapV3SwapCallback(int256,int256,bytes)": "fa461e33"
  },
  "id": 23
}