{
  "abi": [
    {
      "inputs": [
        {
          "internalType": "address",
          "name": "_pool",
          "type": "address"
        },
        {
          "internalType": "address",
          "name": "_globalStorage",
          "type": "address"
        }
      ],
      "stateMutability": "nonpayable",
      "type": "constructor"
    },
    {
      "inputs": [],
      "name": "T",
      "type": "error"
    },
    {
      "inputs": [],
      "name": "INTEREST_REPLENISH_TIME",
      "outputs": [
        {
          "internalType": "uint256",
          "name": "",
          "type": "uint256"
        }
      ],
      "stateMutability": "view",
      "type": "function"
    },
    {
      "inputs": [
        {
          "internalType": "uint256",
          "name": "traderFund",
          "type": "uint256"
        },
        {
          "internalType": "uint256",
          "name": "maxSlippage",
          "type": "uint256"
        },
        {
          "internalType": "uint256",
          "name": "borrowAmount",
          "type": "uint256"
        },
        {
          "internalType": "bool",
          "name": "isLong",
          "type": "bool"
        },
        {
          "internalType": "uint256",
          "name": "nonceSpecified",
          "type": "uint256"
        }
      ],
      "name": "addPosition",
      "outputs": [
        {
          "components": [
            {
              "internalType": "uint80",
              "name": "limitlessId",
              "type": "uint80"
            },
            {
              "internalType": "uint256",
              "name": "totalPosition",
              "type": "uint256"
            },
            {
              "internalType": "uint256",
              "name": "totalDebt",
              "type": "uint256"
            },
            {
              "internalType": "uint256",
              "name": "totalDebtInput",
              "type": "uint256"
            },
            {
              "internalType": "uint256",
              "name": "initCollateral",
              "type": "uint256"
            },
            {
              "internalType": "uint256",
              "name": "creationPrice",
              "type": "uint256"
            },
            {
              "internalType": "uint128",
              "name": "recentPremium",
              "type": "uint128"
            },
            {
              "internalType": "uint128",
              "name": "totalPremium",
              "type": "uint128"
            },
            {
              "internalType": "uint128",
              "name": "unusedPremium",
              "type": "uint128"
            },
            {
              "internalType": "bool",
              "name": "isToken0",
              "type": "bool"
            },
            {
              "internalType": "uint32",
              "name": "openTime",
              "type": "uint32"
            },
            {
              "internalType": "uint32",
              "name": "repayTime",
              "type": "uint32"
            },
            {
              "components": [
                {
                  "internalType": "int24",
                  "name": "tick",
                  "type": "int24"
                },
                {
                  "internalType": "uint128",
                  "name": "liquidity",
                  "type": "uint128"
                }
              ],
              "internalType": "struct LiquidityManager.Liquidity[]",
              "name": "borrowInfo",
              "type": "tuple[]"
            }
          ],
          "internalType": "struct GlobalStorage.Position",
          "name": "",
          "type": "tuple"
        },
        {
          "internalType": "uint256",
          "name": "",
          "type": "uint256"
        },
        {
          "internalType": "uint256",
          "name": "",
          "type": "uint256"
        }
      ],
      "stateMutability": "nonpayable",
      "type": "function"
    },
    {
      "inputs": [
        {
          "internalType": "uint256",
          "name": "traderFund",
          "type": "uint256"
        },
        {
          "internalType": "uint256",
          "name": "maxSlippage",
          "type": "uint256"
        },
        {
          "internalType": "uint256",
          "name": "borrowAmount",
          "type": "uint256"
        },
        {
          "internalType": "bool",
          "name": "isLong",
          "type": "bool"
        },
        {
          "internalType": "uint256",
          "name": "nonceSpecified",
          "type": "uint256"
        },
        {
          "components": [
            {
              "internalType": "int24",
              "name": "tick",
              "type": "int24"
            },
            {
              "internalType": "uint128",
              "name": "liquidity",
              "type": "uint128"
            }
          ],
          "internalType": "struct LiquidityManager.Liquidity[]",
          "name": "borrowInfo",
          "type": "tuple[]"
        }
      ],
      "name": "addPositionSpecfied",
      "outputs": [
        {
          "components": [
            {
              "internalType": "uint80",
              "name": "limitlessId",
              "type": "uint80"
            },
            {
              "internalType": "uint256",
              "name": "totalPosition",
              "type": "uint256"
            },
            {
              "internalType": "uint256",
              "name": "totalDebt",
              "type": "uint256"
            },
            {
              "internalType": "uint256",
              "name": "totalDebtInput",
              "type": "uint256"
            },
            {
              "internalType": "uint256",
              "name": "initCollateral",
              "type": "uint256"
            },
            {
              "internalType": "uint256",
              "name": "creationPrice",
              "type": "uint256"
            },
            {
              "internalType": "uint128",
              "name": "recentPremium",
              "type": "uint128"
            },
            {
              "internalType": "uint128",
              "name": "totalPremium",
              "type": "uint128"
            },
            {
              "internalType": "uint128",
              "name": "unusedPremium",
              "type": "uint128"
            },
            {
              "internalType": "bool",
              "name": "isToken0",
              "type": "bool"
            },
            {
              "internalType": "uint32",
              "name": "openTime",
              "type": "uint32"
            },
            {
              "internalType": "uint32",
              "name": "repayTime",
              "type": "uint32"
            },
            {
              "components": [
                {
                  "internalType": "int24",
                  "name": "tick",
                  "type": "int24"
                },
                {
                  "internalType": "uint128",
                  "name": "liquidity",
                  "type": "uint128"
                }
              ],
              "internalType": "struct LiquidityManager.Liquidity[]",
              "name": "borrowInfo",
              "type": "tuple[]"
            }
          ],
          "internalType": "struct GlobalStorage.Position",
          "name": "",
          "type": "tuple"
        },
        {
          "internalType": "uint256",
          "name": "",
          "type": "uint256"
        },
        {
          "internalType": "uint256",
          "name": "",
          "type": "uint256"
        }
      ],
      "stateMutability": "nonpayable",
      "type": "function"
    },
    {
      "inputs": [
        {
          "internalType": "uint160",
          "name": "price",
          "type": "uint160"
        },
        {
          "internalType": "uint256",
          "name": "maxSlippage",
          "type": "uint256"
        },
        {
          "internalType": "bool",
          "name": "down",
          "type": "bool"
        }
      ],
      "name": "applySlippageX96",
      "outputs": [
        {
          "internalType": "uint160",
          "name": "",
          "type": "uint160"
        }
      ],
      "stateMutability": "pure",
      "type": "function"
    },
    {
      "inputs": [
        {
          "internalType": "bool",
          "name": "borrowBelow",
          "type": "bool"
        },
        {
          "internalType": "uint256",
          "name": "amountSpecified",
          "type": "uint256"
        },
        {
          "internalType": "uint256",
          "name": "leverage",
          "type": "uint256"
        }
      ],
      "name": "borrow",
      "outputs": [
        {
          "internalType": "int24",
          "name": "",
          "type": "int24"
        },
        {
          "internalType": "int24",
          "name": "",
          "type": "int24"
        },
        {
          "components": [
            {
              "internalType": "int24",
              "name": "tick",
              "type": "int24"
            },
            {
              "internalType": "uint128",
              "name": "liquidity",
              "type": "uint128"
            }
          ],
          "internalType": "struct LiquidityManager.Liquidity[]",
          "name": "",
          "type": "tuple[]"
        },
        {
          "internalType": "uint256",
          "name": "",
          "type": "uint256"
        }
      ],
      "stateMutability": "nonpayable",
      "type": "function"
    },
    {
      "inputs": [],
      "name": "closeMaxSlippage",
      "outputs": [
        {
          "internalType": "uint256",
          "name": "",
          "type": "uint256"
        }
      ],
      "stateMutability": "view",
      "type": "function"
    },
    {
      "inputs": [
        {
          "internalType": "uint256",
          "name": "nonce",
          "type": "uint256"
        },
        {
          "internalType": "address",
          "name": "trader",
          "type": "address"
        },
        {
          "internalType": "uint256",
          "name": "userSpecifiedSlippage",
          "type": "uint256"
        }
      ],
      "name": "closePosition",
      "outputs": [
        {
          "components": [
            {
              "internalType": "int256",
              "name": "amount0",
              "type": "int256"
            },
            {
              "internalType": "int256",
              "name": "amount1",
              "type": "int256"
            },
            {
              "internalType": "int256",
              "name": "PnL",
              "type": "int256"
            },
            {
              "internalType": "uint256",
              "name": "returnedAmount",
              "type": "uint256"
            },
            {
              "internalType": "uint256",
              "name": "unusedPremium",
              "type": "uint256"
            },
            {
              "internalType": "uint256",
              "name": "premium",
              "type": "uint256"
            }
          ],
          "internalType": "struct ReduceReturn",
          "name": "",
          "type": "tuple"
        }
      ],
      "stateMutability": "nonpayable",
      "type": "function"
    },
    {
      "inputs": [
        {
          "internalType": "uint256",
          "name": "traderFund",
          "type": "uint256"
        },
        {
          "internalType": "uint256",
          "name": "maxSlippage",
          "type": "uint256"
        },
        {
          "internalType": "uint256",
          "name": "borrowAmount",
          "type": "uint256"
        },
        {
          "internalType": "bool",
          "name": "isLong",
          "type": "bool"
        }
      ],
      "name": "createLevPosition",
      "outputs": [
        {
          "components": [
            {
              "internalType": "uint80",
              "name": "limitlessId",
              "type": "uint80"
            },
            {
              "internalType": "uint256",
              "name": "totalPosition",
              "type": "uint256"
            },
            {
              "internalType": "uint256",
              "name": "totalDebt",
              "type": "uint256"
            },
            {
              "internalType": "uint256",
              "name": "totalDebtInput",
              "type": "uint256"
            },
            {
              "internalType": "uint256",
              "name": "initCollateral",
              "type": "uint256"
            },
            {
              "internalType": "uint256",
              "name": "creationPrice",
              "type": "uint256"
            },
            {
              "internalType": "uint128",
              "name": "recentPremium",
              "type": "uint128"
            },
            {
              "internalType": "uint128",
              "name": "totalPremium",
              "type": "uint128"
            },
            {
              "internalType": "uint128",
              "name": "unusedPremium",
              "type": "uint128"
            },
            {
              "internalType": "bool",
              "name": "isToken0",
              "type": "bool"
            },
            {
              "internalType": "uint32",
              "name": "openTime",
              "type": "uint32"
            },
            {
              "internalType": "uint32",
              "name": "repayTime",
              "type": "uint32"
            },
            {
              "components": [
                {
                  "internalType": "int24",
                  "name": "tick",
                  "type": "int24"
                },
                {
                  "internalType": "uint128",
                  "name": "liquidity",
                  "type": "uint128"
                }
              ],
              "internalType": "struct LiquidityManager.Liquidity[]",
              "name": "borrowInfo",
              "type": "tuple[]"
            }
          ],
          "internalType": "struct GlobalStorage.Position",
          "name": "",
          "type": "tuple"
        },
        {
          "internalType": "uint256",
          "name": "",
          "type": "uint256"
        },
        {
          "internalType": "uint256",
          "name": "",
          "type": "uint256"
        }
      ],
      "stateMutability": "nonpayable",
      "type": "function"
    },
    {
      "inputs": [
        {
          "components": [
            {
              "internalType": "int24",
              "name": "tick",
              "type": "int24"
            },
            {
              "internalType": "uint128",
              "name": "liquidity",
              "type": "uint128"
            }
          ],
          "internalType": "struct LiquidityManager.Liquidity[]",
          "name": "borrowInfo",
          "type": "tuple[]"
        },
        {
          "internalType": "bool",
          "name": "borrowBelow",
          "type": "bool"
        }
      ],
      "name": "getFilledAmount",
      "outputs": [
        {
          "internalType": "uint256",
          "name": "filledAmount",
          "type": "uint256"
        }
      ],
      "stateMutability": "view",
      "type": "function"
    },
    {
      "inputs": [],
      "name": "getNewPremiumQuote",
      "outputs": [
        {
          "internalType": "uint256",
          "name": "",
          "type": "uint256"
        }
      ],
      "stateMutability": "view",
      "type": "function"
    },
    {
      "inputs": [
        {
          "internalType": "uint256",
          "name": "nonce",
          "type": "uint256"
        }
      ],
      "name": "getPosition",
      "outputs": [
        {
          "components": [
            {
              "internalType": "uint80",
              "name": "limitlessId",
              "type": "uint80"
            },
            {
              "internalType": "uint256",
              "name": "totalPosition",
              "type": "uint256"
            },
            {
              "internalType": "uint256",
              "name": "totalDebt",
              "type": "uint256"
            },
            {
              "internalType": "uint256",
              "name": "totalDebtInput",
              "type": "uint256"
            },
            {
              "internalType": "uint256",
              "name": "initCollateral",
              "type": "uint256"
            },
            {
              "internalType": "uint256",
              "name": "creationPrice",
              "type": "uint256"
            },
            {
              "internalType": "uint128",
              "name": "recentPremium",
              "type": "uint128"
            },
            {
              "internalType": "uint128",
              "name": "totalPremium",
              "type": "uint128"
            },
            {
              "internalType": "uint128",
              "name": "unusedPremium",
              "type": "uint128"
            },
            {
              "internalType": "bool",
              "name": "isToken0",
              "type": "bool"
            },
            {
              "internalType": "uint32",
              "name": "openTime",
              "type": "uint32"
            },
            {
              "internalType": "uint32",
              "name": "repayTime",
              "type": "uint32"
            },
            {
              "components": [
                {
                  "internalType": "int24",
                  "name": "tick",
                  "type": "int24"
                },
                {
                  "internalType": "uint128",
                  "name": "liquidity",
                  "type": "uint128"
                }
              ],
              "internalType": "struct LiquidityManager.Liquidity[]",
              "name": "borrowInfo",
              "type": "tuple[]"
            }
          ],
          "internalType": "struct GlobalStorage.Position",
          "name": "",
          "type": "tuple"
        }
      ],
      "stateMutability": "view",
      "type": "function"
    },
    {
      "inputs": [
        {
          "components": [
            {
              "internalType": "uint80",
              "name": "limitlessId",
              "type": "uint80"
            },
            {
              "internalType": "uint256",
              "name": "totalPosition",
              "type": "uint256"
            },
            {
              "internalType": "uint256",
              "name": "totalDebt",
              "type": "uint256"
            },
            {
              "internalType": "uint256",
              "name": "totalDebtInput",
              "type": "uint256"
            },
            {
              "internalType": "uint256",
              "name": "initCollateral",
              "type": "uint256"
            },
            {
              "internalType": "uint256",
              "name": "creationPrice",
              "type": "uint256"
            },
            {
              "internalType": "uint128",
              "name": "recentPremium",
              "type": "uint128"
            },
            {
              "internalType": "uint128",
              "name": "totalPremium",
              "type": "uint128"
            },
            {
              "internalType": "uint128",
              "name": "unusedPremium",
              "type": "uint128"
            },
            {
              "internalType": "bool",
              "name": "isToken0",
              "type": "bool"
            },
            {
              "internalType": "uint32",
              "name": "openTime",
              "type": "uint32"
            },
            {
              "internalType": "uint32",
              "name": "repayTime",
              "type": "uint32"
            },
            {
              "components": [
                {
                  "internalType": "int24",
                  "name": "tick",
                  "type": "int24"
                },
                {
                  "internalType": "uint128",
                  "name": "liquidity",
                  "type": "uint128"
                }
              ],
              "internalType": "struct LiquidityManager.Liquidity[]",
              "name": "borrowInfo",
              "type": "tuple[]"
            }
          ],
          "internalType": "struct GlobalStorage.Position",
          "name": "position",
          "type": "tuple"
        }
      ],
      "name": "getRemainingPremium",
      "outputs": [
        {
          "internalType": "uint128",
          "name": "",
          "type": "uint128"
        }
      ],
      "stateMutability": "view",
      "type": "function"
    },
    {
      "inputs": [],
      "name": "globalStorage",
      "outputs": [
        {
          "internalType": "contract GlobalStorage",
          "name": "",
          "type": "address"
        }
      ],
      "stateMutability": "view",
      "type": "function"
    },
    {
      "inputs": [],
      "name": "liquidityManager",
      "outputs": [
        {
          "internalType": "contract LiquidityManager",
          "name": "",
          "type": "address"
        }
      ],
      "stateMutability": "view",
      "type": "function"
    },
    {
      "inputs": [],
      "name": "nonce",
      "outputs": [
        {
          "internalType": "uint256",
          "name": "",
          "type": "uint256"
        }
      ],
      "stateMutability": "view",
      "type": "function"
    },
    {
      "inputs": [],
      "name": "pool",
      "outputs": [
        {
          "internalType": "contract UniswapV3Pool",
          "name": "",
          "type": "address"
        }
      ],
      "stateMutability": "view",
      "type": "function"
    },
    {
      "inputs": [],
      "name": "precision",
      "outputs": [
        {
          "internalType": "uint256",
          "name": "",
          "type": "uint256"
        }
      ],
      "stateMutability": "view",
      "type": "function"
    },
    {
      "inputs": [
        {
          "internalType": "uint256",
          "name": "nonce",
          "type": "uint256"
        },
        {
          "internalType": "address",
          "name": "trader",
          "type": "address"
        },
        {
          "internalType": "uint256",
          "name": "userSpecifiedSlippage",
          "type": "uint256"
        },
        {
          "internalType": "uint256",
          "name": "reduceAmount",
          "type": "uint256"
        }
      ],
      "name": "reducePosition",
      "outputs": [
        {
          "components": [
            {
              "internalType": "int256",
              "name": "amount0",
              "type": "int256"
            },
            {
              "internalType": "int256",
              "name": "amount1",
              "type": "int256"
            },
            {
              "internalType": "int256",
              "name": "PnL",
              "type": "int256"
            },
            {
              "internalType": "uint256",
              "name": "returnedAmount",
              "type": "uint256"
            },
            {
              "internalType": "uint256",
              "name": "unusedPremium",
              "type": "uint256"
            },
            {
              "internalType": "uint256",
              "name": "premium",
              "type": "uint256"
            }
          ],
          "internalType": "struct ReduceReturn",
          "name": "",
          "type": "tuple"
        }
      ],
      "stateMutability": "nonpayable",
      "type": "function"
    },
    {
      "inputs": [
        {
          "internalType": "int24",
          "name": "tick",
          "type": "int24"
        },
        {
          "internalType": "bool",
          "name": "down",
          "type": "bool"
        }
      ],
      "name": "roundTick",
      "outputs": [
        {
          "internalType": "int24",
          "name": "",
          "type": "int24"
        }
      ],
      "stateMutability": "view",
      "type": "function"
    },
    {
      "inputs": [
        {
          "internalType": "address",
          "name": "ad",
          "type": "address"
        }
      ],
      "name": "setLiquidityManager",
      "outputs": [],
      "stateMutability": "nonpayable",
      "type": "function"
    },
    {
      "inputs": [],
      "name": "tickSpacing",
      "outputs": [
        {
          "internalType": "int24",
          "name": "",
          "type": "int24"
        }
      ],
      "stateMutability": "view",
      "type": "function"
    },
    {
      "inputs": [],
      "name": "token0",
      "outputs": [
        {
          "internalType": "contract ERC20",
          "name": "",
          "type": "address"
        }
      ],
      "stateMutability": "view",
      "type": "function"
    },
    {
      "inputs": [],
      "name": "token1",
      "outputs": [
        {
          "internalType": "contract ERC20",
          "name": "",
          "type": "address"
        }
      ],
      "stateMutability": "view",
      "type": "function"
    },
    {
      "inputs": [
        {
          "internalType": "int256",
          "name": "amount0Delta",
          "type": "int256"
        },
        {
          "internalType": "int256",
          "name": "amount1Delta",
          "type": "int256"
        },
        {
          "internalType": "bytes",
          "name": "data",
          "type": "bytes"
        }
      ],
      "name": "uniswapV3SwapCallback",
      "outputs": [],
      "stateMutability": "nonpayable",
      "type": "function"
    }
  ],
  "bytecode": {
    "object": "0x60e06040523480156200001157600080fd5b5060405162005a5d38038062005a5d8339810160408190526200003491620001f4565b600080546001600160a01b038085166001600160a01b03199283168117909355600280549185169190921617905560408051630dfe168160e01b81529051630dfe1681916004808201926020929091908290030181865afa1580156200009e573d6000803e3d6000fd5b505050506040513d601f19601f82011682018060405250810190620000c491906200022c565b60008054906101000a90046001600160a01b03166001600160a01b031663d21220a76040518163ffffffff1660e01b8152600401602060405180830381865afa15801562000116573d6000803e3d6000fd5b505050506040513d601f19601f820116820180604052508101906200013c91906200022c565b6001600160a01b0390811660c05290811660a052600054604080516334324e9f60e21b81529051919092169163d0c93a7c9160048083019260209291908290030181865afa15801562000193573d6000803e3d6000fd5b505050506040513d601f19601f82011682018060405250810190620001b9919062000251565b60020b6080525050670de7d1b0f0f100006003556001805562000276565b80516001600160a01b0381168114620001ef57600080fd5b919050565b600080604083850312156200020857600080fd5b6200021383620001d7565b91506200022360208401620001d7565b90509250929050565b6000602082840312156200023f57600080fd5b6200024a82620001d7565b9392505050565b6000602082840312156200026457600080fd5b81518060020b81146200024a57600080fd5b60805160a05160c0516156bb620003a26000396000818161039901528181610dc50152818161112e0152818161165b01528181611efb01528181611fc5015281816122d301528181612c9e01528181612de401528181613d0901528181613f590152613ff801526000818161017e01528181610d2e015281816111c8015281816116310152818161210a015281816121d4015281816122f901528181612a7e01528181612d4b01528181613d62015261409c0152600081816103720152818161084601528181610874015281816108b201528181610ac401528181610b630152818161197f01528181611a0201528181611a7601528181611cd9015281816124bf015281816125490152818161266801528181612750015281816141bf015261420c01526156bb6000f3fe608060405234801561001057600080fd5b50600436106101585760003560e01c80636ef83ef7116100c3578063d21220a71161007c578063d21220a714610394578063d3b5dc3b146103bb578063d6ffc34f146103ca578063d8b83f3a146103dd578063eb02c301146103f0578063fa461e331461041057600080fd5b80636ef83ef71461032b578063787223c414610334578063946e986c146103475780639aa886da1461035a578063affed0e014610364578063d0c93a7c1461036d57600080fd5b806327ab28681161011557806327ab286814610223578063338274381461024e5780633c1624d4146102615780633dc306ee146102935780635a2b399f146102b95780636502072a1461031857600080fd5b806308abb6d31461015d5780630dfe16811461017957806316f0115b146101b8578063207b0576146101cb57806320e34f8a146101de57806325350f8e14610200575b600080fd5b66071afd498d00005b6040519081526020015b60405180910390f35b6101a07f000000000000000000000000000000000000000000000000000000000000000081565b6040516001600160a01b039091168152602001610170565b6000546101a0906001600160a01b031681565b6101a06101d93660046146b5565b610423565b6101f16101ec36600461487b565b6104ac565b60405161017093929190614a25565b61021361020e366004614a4a565b6104fb565b6040516101709493929190614acf565b610236610231366004614b45565b6107da565b6040516001600160801b039091168152602001610170565b6004546101a0906001600160a01b031681565b61029161026f366004614c63565b600480546001600160a01b0319166001600160a01b0392909216919091179055565b005b6102a66102a1366004614c80565b61083e565b60405160029190910b8152602001610170565b6102cc6102c7366004614cb9565b6108e1565b6040516101709190600060c082019050825182526020830151602083015260408301516040830152606083015160608301526080830151608083015260a083015160a083015292915050565b6002546101a0906001600160a01b031681565b61016660035481565b6101f1610342366004614cf6565b61097f565b6101f1610355366004614d3f565b610a2b565b6101666201518081565b61016660015481565b6102a67f000000000000000000000000000000000000000000000000000000000000000081565b6101a07f000000000000000000000000000000000000000000000000000000000000000081565b610166670de0b6b3a764000081565b6101666103d8366004614d80565b610a54565b6102cc6103eb366004614dc6565b610bdf565b6104036103fe366004614dfe565b610c85565b6040516101709190614e17565b61029161041e366004614e2a565b610cfe565b6000816104655761044461043f84670de0b6b3a7640000614ebf565b610e48565b610456670de0b6b3a764000086614eec565b6104609190614f12565b6104a2565b670de0b6b3a764000061048e61047c828087610eec565b61043f90670de0b6b3a7640000614ebf565b6104989086614f12565b6104a29190614eec565b90505b9392505050565b6104b46144e7565b6000806104e96040518060a001604052808b81526020018a815260200189815260200188151581526020018781525085610f9e565b92509250925096509650969350505050565b60008060606000670de0b6b3a7640000851161054a5760405162461bcd60e51b81526020600482015260096024820152683bb937b733903632bb60b91b60448201526064015b60405180910390fd5b610552614584565b60008054906101000a90046001600160a01b03166001600160a01b0316633850c7bd6040518163ffffffff1660e01b815260040160e060405180830381865afa1580156105a3573d6000803e3d6000fd5b505050506040513d601f19601f820116820180604052508101906105c79190614f61565b5050505060029190910b60a0840152506001600160a01b031660808201819052610646908961061a57610603670de0b6b3a7640000808a610eec565b61061590670de0b6b3a7640000614ff9565b61063f565b61062d670de0b6b3a7640000808a610eec565b61063f90670de0b6b3a764000061500c565b6000610423565b6001600160a01b03166101808201819052610688908961066e57670ddd2935029d8000610678565b670de444324c2a80005b6001600160401b03166000610423565b6001600160a01b03908116610180830181905260048054608085015160405163053ef28b60e01b81528d15159381019390935260248301939093529183166044820152606481018a905291169063053ef28b90608401600060405180830381865afa1580156106fb573d6000803e3d6000fd5b505050506040513d6000823e601f3d908101601f1916820160405261072391908101906150bb565b61024085018190526101e0850191909152600291820b6101c085015291900b6101a083015260005460405163368bf74b60e01b81526001600160a01b039091169163368bf74b9161077e91908c906001908d90600401615128565b600060405180830381600087803b15801561079857600080fd5b505af11580156107ac573d6000803e3d6000fd5b50505050806101c00151816101a00151826102400151836101e0015194509450945094505093509350935093565b60008061082b61080e670de0b6b3a76400006201518086610160015163ffffffff1642610807919061500c565b9190610eec565b60c08501516001600160801b031690670de0b6b3a7640000610eec565b9050808361010001516104a59190615157565b60008061086b7f000000000000000000000000000000000000000000000000000000000000000085615177565b9050826108ad577f000000000000000000000000000000000000000000000000000000000000000061089e8260016151b1565b6108a891906151d6565b6108d7565b6108d77f0000000000000000000000000000000000000000000000000000000000000000826151d6565b9150505b92915050565b6108e9614649565b6108f1614584565b60025460405163eb02c30160e01b8152600481018890526001600160a01b039091169063eb02c30190602401600060405180830381865afa15801561093a573d6000803e3d6000fd5b505050506040513d6000823e601f3d908101601f19168201604052610962919081019061520c565b610160820152610975868686868561180b565b9695505050505050565b6109876144e7565b600080610a1a6040518060a001604052808a815260200189815260200188815260200187151581526020018681525060006001600160401b038111156109cf576109cf6146f7565b604051908082528060200260200182016040528015610a1457816020015b60408051808201909152600080825260208201528152602001906001900390816109ed5790505b50610f9e565b925092509250955095509592505050565b610a336144e7565b600080610a4487878787600061097f565b9250925092509450945094915050565b6000805b8351811015610bd857838181518110610a7357610a73615319565b6020026020010151602001516001600160801b031660000315610bc6578215610b4657610b35610abf858381518110610aae57610aae615319565b60200260200101516000015161311c565b610b107f0000000000000000000000000000000000000000000000000000000000000000878581518110610af557610af5615319565b602002602001015160000151610b0b91906151b1565b61311c565b868481518110610b2257610b22615319565b602002602001015160200151600161343f565b610b3f9083614ff9565b9150610bc6565b610bb9610b5e858381518110610aae57610aae615319565b610b947f0000000000000000000000000000000000000000000000000000000000000000878581518110610af557610af5615319565b868481518110610ba657610ba6615319565b60200260200101516020015160016134f6565b610bc39083614ff9565b91505b80610bd08161532f565b915050610a58565b5092915050565b610be7614649565b610bef614584565b60025460405163eb02c30160e01b8152600481018790526001600160a01b039091169063eb02c30190602401600060405180830381865afa158015610c38573d6000803e3d6000fd5b505050506040513d6000823e601f3d908101601f19168201604052610c60919081019061520c565b610160820181905260200151610c7c908690869086908561180b565b95945050505050565b610c8d6144e7565b60025460405163eb02c30160e01b8152600481018490526001600160a01b039091169063eb02c30190602401600060405180830381865afa158015610cd6573d6000803e3d6000fd5b505050506040513d6000823e601f3d908101601f191682016040526108db919081019061520c565b6000610d0c82840184614c63565b90506000851315610dae5760405163a9059cbb60e01b81526001600160a01b037f0000000000000000000000000000000000000000000000000000000000000000169063a9059cbb90610d659033908990600401615348565b6020604051808303816000875af1158015610d84573d6000803e3d6000fd5b505050506040513d601f19601f82011682018060405250810190610da89190615361565b50610e41565b60405163a9059cbb60e01b81526001600160a01b037f0000000000000000000000000000000000000000000000000000000000000000169063a9059cbb90610dfc9033908890600401615348565b6020604051808303816000875af1158015610e1b573d6000803e3d6000fd5b505050506040513d601f19601f82011682018060405250810190610e3f9190615361565b505b5050505050565b60b581600160881b8110610e615760409190911b9060801c5b69010000000000000000008110610e7d5760209190911b9060401c5b650100000000008110610e955760109190911b9060201c5b63010000008110610eab5760089190911b9060101c5b62010000010260121c80820401600190811c80830401811c80830401811c80830401811c80830401811c80830401811c80830401901c908190048111900390565b6000808060001985870985870292508281108382030391505080600003610f255760008411610f1a57600080fd5b5082900490506104a5565b808411610f3157600080fd5b6000848688096000868103871696879004966002600389028118808a02820302808a02820302808a02820302808a02820302808a02820302808a02909103029181900381900460010186841190950394909402919094039290920491909117919091029150509392505050565b610fa66144e7565b600080610fb1614584565b600254608087015160405163eb02c30160e01b815260048101919091526000916001600160a01b03169063eb02c30190602401600060405180830381865afa158015611001573d6000803e3d6000fd5b505050506040513d6000823e601f3d908101601f19168201604052611029919081019061520c565b9050866080015160001461107e578660600151151581610120015115151461107e5760405162461bcd60e51b81526020600482015260086024820152676469666620706f7360c01b6044820152606401610541565b85516000036110d4576060870151604088015188516110b192919061020e90670de0b6b3a7640000906108078185614ff9565b6101e0860152610240850152600290810b6101a08501520b6101c08301526110f6565b6110e78760600151886040015188613566565b6101e083015261024082018690525b6111098261024001518860600151610a54565b82526060870151156111af5786516040516323b872dd60e01b81526001600160a01b037f000000000000000000000000000000000000000000000000000000000000000016916323b872dd9161116691339130919060040161537e565b6020604051808303816000875af1158015611185573d6000803e3d6000fd5b505050506040513d601f19601f820116820180604052508101906111a99190615361565b50611245565b86516040516323b872dd60e01b81526001600160a01b037f000000000000000000000000000000000000000000000000000000000000000016916323b872dd9161120091339130919060040161537e565b6020604051808303816000875af115801561121f573d6000803e3d6000fd5b505050506040513d601f19601f820116820180604052508101906112439190615361565b505b60008054906101000a90046001600160a01b03166001600160a01b0316633850c7bd6040518163ffffffff1660e01b815260040160e060405180830381865afa158015611296573d6000803e3d6000fd5b505050506040513d601f19601f820116820180604052508101906112ba9190614f61565b5050505060029190910b60a0850152506001600160a01b039081166080840152600054606089015160408a01518a51929093169263128acb08923092159161130191614ff9565b61131987608001518d602001518e6060015115610423565b60408051306020820152016040516020818303038152906040526040518663ffffffff1660e01b81526004016113539594939291906153e8565b60408051808303816000875af1158015611371573d6000803e3d6000fd5b505050506040513d601f19601f820116820180604052508101906113959190615423565b61010084015260e0830152606087015180156113be5750815160e08301516113bc90615447565b105b806113e4575086606001511580156113e4575081516101008301516113e290615447565b105b1561141a5760405162461bcd60e51b815260040161054190602080825260049082015263216c697160e01b604082015260600190565b61016081015163ffffffff161561144a57600060e082015261143b816107da565b6001600160801b031660408301525b86606001511561147b578160e0015161146290615447565b816020018181516114739190614ff9565b90525061149f565b81610100015161148a90615447565b8160200181815161149b9190614ff9565b9052505b81516040820180516114b2908390614ff9565b90525060408701516060820180516114cb908390614ff9565b90525086516080820180516114e1908390614ff9565b9052506060870151151561012082015261014081015163ffffffff166000036115125763ffffffff42166101408201525b63ffffffff421661016082015261018081015151156115e457610240820151610180820151611540916136c6565b61024083015260608701516115d757610240820151604051631b493af760e31b815273__$d82b7f2c3dbc3f26ef63785197b63be88d$__9163da49d7b89161158b9190600401615463565b600060405180830381865af41580156115a8573d6000803e3d6000fd5b505050506040513d6000823e601f3d908101601f191682016040526115d091908101906154c6565b6102408301525b60606101808201526115fa565b600180549060006115f48361532f565b91905055505b610240820151610180820152608087015160000361170e57600254604080516080810182526000546001600160a01b0390811682527f00000000000000000000000000000000000000000000000000000000000000008116602083019081527f00000000000000000000000000000000000000000000000000000000000000008216838501908152336060850190815294516346b1b85960e11b81529351831660048501529051821660248401525181166044830152915182166064820152911690638d6370b2906084016020604051808303816000875af11580156116e4573d6000803e3d6000fd5b505050506040513d601f19601f8201168201806040525081019061170891906154fa565b60808801525b6002546040805160608101825260808a015181526000546001600160a01b039081166020830152818301859052915163cefaf20160e01b8152919092169163cefaf2019161175f9190600401615513565b6000604051808303816000875af115801561177e573d6000803e3d6000fd5b505050506040513d6000823e601f3d908101601f191682016040526117a6919081019061520c565b90506117c78160600151670de0b6b3a764000061080766071afd498d000090565b6102008301819052608088015160408401516117e4928491613bf1565b80600083604001518461020001516117fc919061500c565b94509450945050509250925092565b611813614649565b6000826101600151602001511180156118355750816101600151602001518311155b6118675760405162461bcd60e51b8152602060048201526003602482015262706f7360e81b6044820152606401610541565b60008054906101000a90046001600160a01b03166001600160a01b0316633850c7bd6040518163ffffffff1660e01b815260040160e060405180830381865afa1580156118b8573d6000803e3d6000fd5b505050506040513d601f19601f820116820180604052508101906118dc9190614f61565b5050505060029190910b60a0850152506001600160a01b03166080830152610160820151610180810151516060840152611915906107da565b6101608301516001600160801b039091166101009091015260045460ff600160a01b909104166119cf576119ca826101600151610120015161197d5782610160015161018001516001846060015161196d919061500c565b81518110610aae57610aae615319565b7f00000000000000000000000000000000000000000000000000000000000000008361016001516101800151600185606001516119ba919061500c565b81518110610af557610af5615319565b611a57565b611a57611a3d8361016001516101200151611a005783610160015161018001516001856060015161196d919061500c565b7f00000000000000000000000000000000000000000000000000000000000000008461016001516101800151600186606001516119ba919061500c565b670de444324c2a8000846101600151610120015115610423565b6001600160a01b031660c08301526101608201516101200151611acd577f00000000000000000000000000000000000000000000000000000000000000008261016001516101800151600081518110611ab257611ab2615319565b602002602001015160000151611ac891906151b1565b611af7565b8161016001516101800151600081518110611aea57611aea615319565b6020026020010151600001515b60020b6101a083015261016082015160200151611b1f908490670de0b6b3a764000090610eec565b60208301526101608201516101200151611b56578160c001516001600160a01b031682608001516001600160a01b03161115611b75565b8160c001516001600160a01b031682608001516001600160a01b031610155b1561225a57600054610160830151610120015160808401516001600160a01b039092169163128acb089130918790611bae908a84610423565b60408051306020820152016040516020818303038152906040526040518663ffffffff1660e01b8152600401611be89594939291906153e8565b60408051808303816000875af1158015611c06573d6000803e3d6000fd5b505050506040513d601f19601f82011682018060405250810190611c2a9190615423565b61010084015260e0830152600454600160a01b900460ff1615611dff5760008060009054906101000a90046001600160a01b03166001600160a01b0316633850c7bd6040518163ffffffff1660e01b815260040160e060405180830381865afa158015611c9b573d6000803e3d6000fd5b505050506040513d601f19601f82011682018060405250810190611cbf9190614f61565b5050505050915050826101600151610120015115611d88577f0000000000000000000000000000000000000000000000000000000000000000836101600151610180015160018560600151611d14919061500c565b81518110611d2457611d24615319565b602002602001015160000151611d3a91906151b1565b60020b8160020b1215611d835760405162461bcd60e51b8152602060048201526011602482015270747261646520626f756e64206661696c3160781b6044820152606401610541565b611dfd565b826101600151610180015160018460600151611da4919061500c565b81518110611db457611db4615319565b60200260200101516000015160020b8160020b1315611dfd5760405162461bcd60e51b81526020600482015260056024820152646661696c3160d81b6044820152606401610541565b505b602082015161016083015160600151600091611e249190670de0b6b3a7640000610eec565b9050826101600151610120015115612049578083610160015161010001516001600160801b0316846101000151611e5a90615447565b611e649190614ff9565b1015611e825760405162461bcd60e51b81526004016105419061554a565b826101000151611e9190615447565b8110611ec2576101008084015161016085015190910180519183016001600160801b03928316039091169052611fab565b80836101000151611ed290615447565b611edc9190615568565b610120840181905260405163a9059cbb60e01b81526001600160a01b037f0000000000000000000000000000000000000000000000000000000000000000169163a9059cbb91611f30918a91600401615348565b6020604051808303816000875af1158015611f4f573d6000803e3d6000fd5b505050506040513d601f19601f82011682018060405250810190611f739190615361565b50602083015161016084015160800151611f9591670de0b6b3a7640000610eec565b8361012001818151611fa79190615568565b9052505b60005460405163a9059cbb60e01b81526001600160a01b037f000000000000000000000000000000000000000000000000000000000000000081169263a9059cbb926120009291909116908590600401615348565b6020604051808303816000875af115801561201f573d6000803e3d6000fd5b505050506040513d601f19601f820116820180604052508101906120439190615361565b50612254565b8083610160015161010001516001600160801b03168460e0015161206c90615447565b6120769190614ff9565b10156120945760405162461bcd60e51b81526004016105419061554a565b8260e001516120a290615447565b81106120d25760e08301516101608401516101000180519183016001600160801b039283160390911690526121ba565b808360e001516120e190615447565b6120eb9190615568565b610120840181905260405163a9059cbb60e01b81526001600160a01b037f0000000000000000000000000000000000000000000000000000000000000000169163a9059cbb9161213f918a91600401615348565b6020604051808303816000875af115801561215e573d6000803e3d6000fd5b505050506040513d601f19601f820116820180604052508101906121829190615361565b506020830151610160840151608001516121a491670de0b6b3a7640000610eec565b83610120018181516121b69190615568565b9052505b60005460405163a9059cbb60e01b81526001600160a01b037f000000000000000000000000000000000000000000000000000000000000000081169263a9059cbb9261220f9291909116908590600401615348565b6020604051808303816000875af115801561222e573d6000803e3d6000fd5b505050506040513d601f19601f820116820180604052508101906122529190615361565b505b50612e66565b816101600151610120015161229457612277826101a0015161311c565b6001600160a01b031682608001516001600160a01b0316116122bb565b6122a2826101a0015161311c565b6001600160a01b031682608001516001600160a01b0316105b1561246057600082610160015161012001516122f7577f0000000000000000000000000000000000000000000000000000000000000000612319565b7f00000000000000000000000000000000000000000000000000000000000000005b60208401516101608501516040015191925060009161234091670de0b6b3a7640000610eec565b90508361016001516080015161235590615447565b610120850152612365818661500c565b61014085015260005460405163a9059cbb60e01b81526001600160a01b038481169263a9059cbb9261239f92909116908590600401615348565b6020604051808303816000875af11580156123be573d6000803e3d6000fd5b505050506040513d601f19601f820116820180604052508101906123e29190615361565b5061014084015160405163a9059cbb60e01b81526001600160a01b0384169163a9059cbb91612415918b91600401615348565b6020604051808303816000875af1158015612434573d6000803e3d6000fd5b505050506040513d601f19601f820116820180604052508101906124589190615361565b505050612e66565b60008060005b8461016001516101800151518110156127dc578460a0015160020b8561016001516101800151828151811061249d5761249d615319565b60200260200101516000015160020b1315801561251557508460a0015160020b7f0000000000000000000000000000000000000000000000000000000000000000866101600151610180015183815181106124fa576124fa615319565b60200260200101516000015161251091906151b1565b60020b135b156125fe576000806125da876080015161254489610160015161018001518681518110610aae57610aae615319565b6125847f00000000000000000000000000000000000000000000000000000000000000008b610160015161018001518881518110610af557610af5615319565b6125d58b60200151670de0b6b3a76400008d610160015161018001518a815181106125b1576125b1615319565b6020026020010151602001516001600160801b0316610eec9092919063ffffffff16565b613db1565b90925090506125e98286614ff9565b94506125f58185614ff9565b935050506127ca565b61260d8560a00151600161083e565b60020b8561016001516101800151828151811061262c5761262c615319565b60200260200101516000015160020b12156126e6576126d561266386610160015161018001518381518110610aae57610aae615319565b6126a37f000000000000000000000000000000000000000000000000000000000000000088610160015161018001518581518110610af557610af5615319565b6126d08860200151670de0b6b3a76400008a6101600151610180015187815181106125b1576125b1615319565b613e4d565b6126df9083614ff9565b91506127ca565b6126f58560a00151600061083e565b60020b8561016001516101800151828151811061271457612714615319565b60200260200101516000015160020b13156127ca576127bd61274b86610160015161018001518381518110610aae57610aae615319565b61278b7f000000000000000000000000000000000000000000000000000000000000000088610160015161018001518581518110610af557610af5615319565b6127b88860200151670de0b6b3a76400008a6101600151610180015187815181106125b1576125b1615319565b613e97565b6127c79084614ff9565b92505b806127d48161532f565b915050612466565b5060005461016085015161012001516001600160a01b039091169063128acb08903090806128125761280d86615447565b61281b565b61281b85615447565b61283489608001518c8b61016001516101200151610423565b60408051306020820152016040516020818303038152906040526040518663ffffffff1660e01b815260040161286e9594939291906153e8565b60408051808303816000875af115801561288c573d6000803e3d6000fd5b505050506040513d601f19601f820116820180604052508101906128b09190615423565b61010086015260e0850152610160840151610120015115612afc5760e08401516128da908661500c565b821115612a445760006128fd856080015188876101600151610120015115610423565b905060008060008054906101000a90046001600160a01b03166001600160a01b031663128acb08308961016001516101200151158a60e001518c612941919061500c565b61294b908a61500c565b61295490615447565b604080513060208201528991016040516020818303038152906040526040518663ffffffff1660e01b81526004016129909594939291906153e8565b60408051808303816000875af11580156129ae573d6000803e3d6000fd5b505050506040513d601f19601f820116820180604052508101906129d29190615423565b915091508087610160015161010001516001600160801b03161015612a095760405162461bcd60e51b81526004016105419061554a565b610160870180516101000180516001600160801b039081168490031690525160800151612a3590615447565b61012088015250612d18915050565b818460e0015186612a55919061500c565b612a5f919061500c565b610140850181905260405163a9059cbb60e01b81526001600160a01b037f0000000000000000000000000000000000000000000000000000000000000000169163a9059cbb91612ab3918b91600401615348565b6020604051808303816000875af1158015612ad2573d6000803e3d6000fd5b505050506040513d601f19601f82011682018060405250810190612af69190615361565b50612d18565b610100840151612b0c908661500c565b811115612c63576000612b2f856080015188876101600151610120015115610423565b905060008060008054906101000a90046001600160a01b03166001600160a01b031663128acb08308961016001516101200151158a61010001518c612b74919061500c565b612b7e908961500c565b612b8790615447565b604080513060208201528991016040516020818303038152906040526040518663ffffffff1660e01b8152600401612bc39594939291906153e8565b60408051808303816000875af1158015612be1573d6000803e3d6000fd5b505050506040513d601f19601f82011682018060405250810190612c059190615423565b915091508187610160015161010001516001600160801b03161015612c3c5760405162461bcd60e51b81526004016105419061554a565b506101608601516101000180516001600160801b0390811692909203909116905250612d18565b8084610100015186612c75919061500c565b612c7f919061500c565b610140850181905260405163a9059cbb60e01b81526001600160a01b037f0000000000000000000000000000000000000000000000000000000000000000169163a9059cbb91612cd3918b91600401615348565b6020604051808303816000875af1158015612cf2573d6000803e3d6000fd5b505050506040513d601f19601f82011682018060405250810190612d169190615361565b505b83610160015160800151612d2b90615447565b61012085015260005460405163a9059cbb60e01b81526001600160a01b037f000000000000000000000000000000000000000000000000000000000000000081169263a9059cbb92612d869291909116908690600401615348565b6020604051808303816000875af1158015612da5573d6000803e3d6000fd5b505050506040513d601f19601f82011682018060405250810190612dc99190615361565b5060005460405163a9059cbb60e01b81526001600160a01b037f000000000000000000000000000000000000000000000000000000000000000081169263a9059cbb92612e1f9291909116908590600401615348565b6020604051808303816000875af1158015612e3e573d6000803e3d6000fd5b505050506040513d601f19601f82011682018060405250810190612e629190615361565b5050505b60005461016083015161018001516020840151604051630a13717f60e41b81526001600160a01b039093169263a13717f092612ea6929091600401615588565b600060405180830381600087803b158015612ec057600080fd5b505af1158015612ed4573d6000803e3d6000fd5b50505050612ee6826101600151613f01565b6101608201516101008101516001600160801b031660408401526020015183101561304e5761016082018051600060e0909101819052815161010001819052815160c00152516020018051849190612f3f90839061500c565b905250610160820151610120810151610180909101516020840151612f77929190612f7290670de0b6b3a764000061500c565b6140f6565b61016084018051606080820193909352604090810193909352600254835192830184528983526000546001600160a01b0390811660208501529151838501529251630ca3327f60e21b815292169163328cc9fc91612fd791600401615513565b600060405180830381600087803b158015612ff157600080fd5b505af1158015613005573d6000803e3d6000fd5b5050505061302d82610160015160600151670de0b6b3a764000061080766071afd498d000090565b6102008301819052610160830151613049918891906000613bf1565b6130cd565b6002546040805180820182528881526000546001600160a01b03908116602083019081529251634372527760e11b8152915160048301529151821660248201529116906386e4a4ee90604401600060405180830381600087803b1580156130b457600080fd5b505af11580156130c8573d6000803e3d6000fd5b505050505b506040805160c08101825260e08301518152610100830151602082015261012083015181830152610140830151606082015290820151608082015261020082015160a082015295945050505050565b60008060008360020b12613133578260020b61313b565b8260020b6000035b9050620d89e8811115613161576040516315e4079d60e11b815260040160405180910390fd5b60008160011660000361317857600160801b61318a565b6ffffcb933bd6fad37aa2d162d1a5940015b70ffffffffffffffffffffffffffffffffff16905060028216156131be576ffff97272373d413259a46990580e213a0260801c5b60048216156131dd576ffff2e50f5f656932ef12357cf3c7fdcc0260801c5b60088216156131fc576fffe5caca7e10e4e61c3624eaa0941cd00260801c5b601082161561321b576fffcb9843d60f6159c9db58835c9266440260801c5b602082161561323a576fff973b41fa98c081472e6896dfb254c00260801c5b6040821615613259576fff2ea16466c96a3843ec78b326b528610260801c5b6080821615613278576ffe5dee046a99a2a811c461f1969c30530260801c5b610100821615613298576ffcbe86c7900a88aedcffc83b479aa3a40260801c5b6102008216156132b8576ff987a7253ac413176f2b074cf7815e540260801c5b6104008216156132d8576ff3392b0822b70005940c7a398e4b70f30260801c5b6108008216156132f8576fe7159475a2c29b7443b29c7fa6e889d90260801c5b611000821615613318576fd097f3bdfd2022b8845ad8f792aa58250260801c5b612000821615613338576fa9f746462d870fdf8a65dc1f90e061e50260801c5b614000821615613358576f70d869a156d2a1b890bb3df62baf32f70260801c5b618000821615613378576f31be135f97d08fd981231505542fcfa60260801c5b62010000821615613399576f09aa508b5b7a84e1c677de54f3e99bc90260801c5b620200008216156133b9576e5d6af8dedb81196699c329225ee6040260801c5b620400008216156133d8576d2216e584f5fa1ea926041bedfe980260801c5b620800008216156133f5576b048a170391f7dc42444e8fa20260801c5b60008460020b131561341657806000198161341257613412614ed6565b0490505b64010000000081061561342a57600161342d565b60005b60ff16602082901c0192505050919050565b6000836001600160a01b0316856001600160a01b0316111561345f579293925b600160601b600160e01b03606084901b166001600160a01b03868603811690871661348957600080fd5b836134bf57866001600160a01b03166134ac8383896001600160a01b0316610eec565b816134b9576134b9614ed6565b046134eb565b6134eb6134d68383896001600160a01b0316614298565b886001600160a01b0316808204910615150190565b979650505050505050565b6000836001600160a01b0316856001600160a01b03161115613516579293925b816135435761353e836001600160801b03168686036001600160a01b0316600160601b610eec565b610c7c565b610c7c836001600160801b03168686036001600160a01b0316600160601b614298565b6000613573828515610a54565b83146135a75760405162461bcd60e51b8152602060048201526003602482015262696e6360e81b6044820152606401610541565b6004805460405163079bf17f60e01b815260009283926001600160a01b03169163079bf17f916135d9918891016155aa565b6040805180830381865afa1580156135f5573d6000803e3d6000fd5b505050506040513d601f19601f8201168201806040525081019061361991906155bd565b91509150816136535760405162461bcd60e51b815260040161054190602080825260049082015263216c697160e01b604082015260600190565b60005460405163368bf74b60e01b81526001600160a01b039091169063368bf74b9061368a9087908a906001908b90600401615128565b600060405180830381600087803b1580156136a457600080fd5b505af11580156136b8573d6000803e3d6000fd5b509298975050505050505050565b815181516060919060006136da8284614ff9565b90506000816001600160401b038111156136f6576136f66146f7565b60405190808252806020026020018201604052801561373b57816020015b60408051808201909152600080825260208201528152602001906001900390816137145790505b50905060008060005b868310801561375257508582105b1561394a5788828151811061376957613769615319565b60200260200101516000015160020b8a848151811061378a5761378a615319565b60200260200101516000015160020b12156137e9578983815181106137b1576137b1615319565b60200260200101518482815181106137cb576137cb615319565b602002602001018190525082806137e19061532f565b935050613938565b8882815181106137fb576137fb615319565b60200260200101516000015160020b8a848151811061381c5761381c615319565b60200260200101516000015160020b131561387b5788828151811061384357613843615319565b602002602001015184828151811061385d5761385d615319565b602002602001018190525081806138739061532f565b925050613938565b60405180604001604052808b858151811061389857613898615319565b60200260200101516000015160020b81526020018a84815181106138be576138be615319565b6020026020010151602001518c86815181106138dc576138dc615319565b6020026020010151602001516138f291906155eb565b6001600160801b031681525084828151811061391057613910615319565b602002602001018190525082806139269061532f565b93505081806139349061532f565b9250505b806139428161532f565b915050613744565b868310156139aa5789838151811061396457613964615319565b602002602001015184828151811061397e5761397e615319565b602002602001018190525082806139949061532f565b93505080806139a29061532f565b91505061394a565b85821015613a0a578882815181106139c4576139c4615319565b60200260200101518482815181106139de576139de615319565b602002602001018190525081806139f49061532f565b9250508080613a029061532f565b9150506139aa565b60008093505b85841015613b44576000613a25856001614ff9565b93505b86841015613ae657858481518110613a4257613a42615319565b60200260200101516000015160020b868681518110613a6357613a63615319565b60200260200101516000015160020b03613ad45760019050858481518110613a8d57613a8d615319565b602002602001015160200151868681518110613aab57613aab615319565b6020026020010151602001818151613ac391906155eb565b6001600160801b0316905250613ae6565b83613ade8161532f565b945050613a28565b80613b3157858581518110613afd57613afd615319565b6020026020010151868381518110613b1757613b17615319565b60200260200101819052508180613b2d9061532f565b9250505b5083613b3c8161532f565b945050613a10565b808552613b5d856000613b5860018561500c565b6142d8565b6002811115613be257600093505b613b7660018261500c565b841015613bd15784613b89856001614ff9565b81518110613b9957613b99615319565b6020026020010151858581518110613bb357613bb3615319565b60200260200101819052508380613bc99061532f565b945050613b6b565b80613bdb8161560b565b9150508085525b50929998505050505050505050565b6000613bfc846107da565b6002546040805160a0810182528881526000546001600160a01b0390811660208301526001600160801b038816928201929092529293501690633e7f171c9060608101613c4985886155eb565b6001600160801b03168152602001868860e00151613c6791906155eb565b6001600160801b03169052604080516001600160e01b031960e085901b1681528251600482015260208301516001600160a01b0316602482015290820151604482015260608201516064820152608090910151608482015260a401600060405180830381600087803b158015613cdc57600080fd5b505af1158015613cf0573d6000803e3d6000fd5b5050505083610120015115613d58576001600160a01b037f0000000000000000000000000000000000000000000000000000000000000000166323b872dd3330613d3a868861500c565b6040518463ffffffff1660e01b8152600401610d659392919061537e565b6001600160a01b037f0000000000000000000000000000000000000000000000000000000000000000166323b872dd3330613d93868861500c565b6040518463ffffffff1660e01b8152600401610dfc9392919061537e565b600080836001600160a01b0316856001600160a01b03161115613dd2579293925b846001600160a01b0316866001600160a01b031611613dfd57613df6858585613e97565b9150613e44565b836001600160a01b0316866001600160a01b03161015613e3657613e22868585613e97565b9150613e2f858785613e4d565b9050613e44565b613e41858585613e4d565b90505b94509492505050565b6000826001600160a01b0316846001600160a01b03161115613e6d579192915b6104a26001600160801b038316613e848686615622565b6001600160a01b0316600160601b610eec565b6000826001600160a01b0316846001600160a01b03161115613eb7579192915b6001600160a01b038416613ef7600160601b600160e01b03606085901b16613edf8787615622565b6001600160a01b0316866001600160a01b0316610eec565b6104a29190615642565b6040805180820182526009815268726566756e64696e6760b81b602082015260e083015161010084015192516370a0823160e01b8152306004820152613fc9936001600160801b039283169216906001600160a01b037f000000000000000000000000000000000000000000000000000000000000000016906370a0823190602401602060405180830381865afa158015613fa0573d6000803e3d6000fd5b505050506040513d601f19601f82011682018060405250810190613fc491906154fa565b614477565b60008161010001518260e00151613fe09190615157565b6001600160801b031690508161012001511561409a577f00000000000000000000000000000000000000000000000000000000000000006001600160a01b031663a9059cbb338461010001516001600160801b03166040518363ffffffff1660e01b8152600401614052929190615348565b6020604051808303816000875af1158015614071573d6000803e3d6000fd5b505050506040513d601f19601f820116820180604052508101906140959190615361565b505050565b7f00000000000000000000000000000000000000000000000000000000000000006001600160a01b031663a9059cbb338461010001516001600160801b03166040518363ffffffff1660e01b8152600401614052929190615348565b60008060008060005b865181101561428d5786818151811061411a5761411a615319565b6020026020010151602001516001600160801b03166000031561427b5786818151811061414957614149615319565b602002602001015160000151915061417686670de0b6b3a76400008984815181106125b1576125b1615319565b92508287828151811061418b5761418b615319565b6020908102919091018101516001600160801b03909216910152871561424a576141ec6141b78361311c565b6141e4610b0b7f0000000000000000000000000000000000000000000000000000000000000000866151b1565b85600161343f565b6141f69086614ff9565b94506142396142048361311c565b614231610b0b7f0000000000000000000000000000000000000000000000000000000000000000866151b1565b8560016134f6565b6142439085614ff9565b935061427b565b6142566142048361311c565b6142609086614ff9565b945061426e6141b78361311c565b6142789085614ff9565b93505b806142858161532f565b9150506140ff565b505050935093915050565b60006142a5848484610eec565b9050600082806142b7576142b7614ed6565b84860911156104a55760001981106142ce57600080fd5b6001019392505050565b8082106142e457505050565b60016142f0838361500c565b116142fa57505050565b8181600085600261430b8486614ff9565b6143159190615642565b8151811061432557614325615319565b602002602001015190505b818311614451575b806000015160020b86848151811061435257614352615319565b60200260200101516000015160020b121561437957826143718161532f565b935050614338565b806000015160020b86838151811061439357614393615319565b60200260200101516000015160020b13156143ba57816143b28161560b565b925050614379565b81831161444c578582815181106143d3576143d3615319565b60200260200101518684815181106143ed576143ed615319565b602002602001015187858151811061440757614407615319565b6020026020010188858151811061442057614420615319565b602002602001018290528290525050828061443a9061532f565b93505081806144489061560b565b9250505b614330565b81851015614464576144648686846142d8565b83831015610e3f57610e3f8684866142d8565b6144c0848484846040516024016144919493929190615656565b60408051601f198184030181529190526020810180516001600160e01b03166304772b3360e11b1790526144c6565b50505050565b80516a636f6e736f6c652e6c6f67602083016000808483855afa5050505050565b604051806101a00160405280600069ffffffffffffffffffff168152602001600081526020016000815260200160008152602001600081526020016000815260200160006001600160801b0316815260200160006001600160801b0316815260200160006001600160801b03168152602001600015158152602001600063ffffffff168152602001600063ffffffff168152602001606081525090565b6040518061026001604052806000815260200160008152602001600081526020016000815260200160006001600160a01b03168152602001600060020b815260200160006001600160a01b03168152602001600081526020016000815260200160008152602001600081526020016145fa6144e7565b815260200160006001600160a01b03168152602001600060020b8152602001600060020b8152602001600081526020016000815260200160006001600160801b03168152602001606081525090565b6040518060c001604052806000815260200160008152602001600081526020016000815260200160008152602001600081525090565b6001600160a01b038116811461469457600080fd5b50565b801515811461469457600080fd5b80356146b081614697565b919050565b6000806000606084860312156146ca57600080fd5b83356146d58161467f565b92506020840135915060408401356146ec81614697565b809150509250925092565b634e487b7160e01b600052604160045260246000fd5b604080519081016001600160401b038111828210171561472f5761472f6146f7565b60405290565b6040516101a081016001600160401b038111828210171561472f5761472f6146f7565b604051601f8201601f191681016001600160401b0381118282101715614780576147806146f7565b604052919050565b60006001600160401b038211156147a1576147a16146f7565b5060051b60200190565b8060020b811461469457600080fd5b6001600160801b038116811461469457600080fd5b80356146b0816147ba565b600082601f8301126147eb57600080fd5b813560206148006147fb83614788565b614758565b82815260069290921b8401810191818101908684111561481f57600080fd5b8286015b84811015614870576040818903121561483c5760008081fd5b61484461470d565b813561484f816147ab565b81528185013561485e816147ba565b81860152835291830191604001614823565b509695505050505050565b60008060008060008060c0878903121561489457600080fd5b86359550602087013594506040870135935060608701356148b481614697565b92506080870135915060a08701356001600160401b038111156148d657600080fd5b6148e289828a016147da565b9150509295509295509295565b600081518084526020808501945080840160005b8381101561493f5761492c878351805160020b82526020908101516001600160801b0316910152565b6040969096019590820190600101614903565b509495945050505050565b805169ffffffffffffffffffff16825260006101a06020830151602085015260408301516040850152606083015160608501526080830151608085015260a083015160a085015260c08301516149ab60c08601826001600160801b03169052565b5060e08301516149c660e08601826001600160801b03169052565b50610100838101516001600160801b031690850152610120808401511515908501526101408084015163ffffffff90811691860191909152610160808501519091169085015261018080840151818601839052610975838701826148ef565b606081526000614a38606083018661494a565b60208301949094525060400152919050565b600080600060608486031215614a5f57600080fd5b8335614a6a81614697565b95602085013595506040909401359392505050565b600081518084526020808501945080840160005b8381101561493f57614abc878351805160020b82526020908101516001600160801b0316910152565b6040969096019590820190600101614a93565b8460020b81528360020b6020820152608060408201526000614af46080830185614a7f565b905082606083015295945050505050565b69ffffffffffffffffffff8116811461469457600080fd5b80356146b081614b05565b63ffffffff8116811461469457600080fd5b80356146b081614b28565b600060208284031215614b5757600080fd5b81356001600160401b0380821115614b6e57600080fd5b908301906101a08286031215614b8357600080fd5b614b8b614735565b614b9483614b1d565b81526020830135602082015260408301356040820152606083013560608201526080830135608082015260a083013560a0820152614bd460c084016147cf565b60c0820152614be560e084016147cf565b60e0820152610100614bf88185016147cf565b90820152610120614c0a8482016146a5565b90820152610140614c1c848201614b3a565b90820152610160614c2e848201614b3a565b908201526101808381013583811115614c4657600080fd5b614c52888287016147da565b918301919091525095945050505050565b600060208284031215614c7557600080fd5b81356104a58161467f565b60008060408385031215614c9357600080fd5b8235614c9e816147ab565b91506020830135614cae81614697565b809150509250929050565b60008060008060808587031215614ccf57600080fd5b843593506020850135614ce18161467f565b93969395505050506040820135916060013590565b600080600080600060a08688031215614d0e57600080fd5b8535945060208601359350604086013592506060860135614d2e81614697565b949793965091946080013592915050565b60008060008060808587031215614d5557600080fd5b8435935060208501359250604085013591506060850135614d7581614697565b939692955090935050565b60008060408385031215614d9357600080fd5b82356001600160401b03811115614da957600080fd5b614db5858286016147da565b9250506020830135614cae81614697565b600080600060608486031215614ddb57600080fd5b833592506020840135614ded8161467f565b929592945050506040919091013590565b600060208284031215614e1057600080fd5b5035919050565b6020815260006104a5602083018461494a565b60008060008060608587031215614e4057600080fd5b843593506020850135925060408501356001600160401b0380821115614e6557600080fd5b818701915087601f830112614e7957600080fd5b813581811115614e8857600080fd5b886020828501011115614e9a57600080fd5b95989497505060200194505050565b634e487b7160e01b600052601160045260246000fd5b80820281158282048414176108db576108db614ea9565b634e487b7160e01b600052601260045260246000fd5b60006001600160a01b0383811680614f0657614f06614ed6565b92169190910492915050565b6001600160a01b03828116828216818102831692918115828504821417614f3b57614f3b614ea9565b50505092915050565b805161ffff811681146146b057600080fd5b80516146b081614697565b600080600080600080600060e0888a031215614f7c57600080fd5b8751614f878161467f565b6020890151909750614f98816147ab565b9550614fa660408901614f44565b9450614fb460608901614f44565b9350614fc260808901614f44565b925060a088015160ff81168114614fd857600080fd5b60c0890151909250614fe981614697565b8091505092959891949750929550565b808201808211156108db576108db614ea9565b818103818111156108db576108db614ea9565b80516146b0816147ba565b600082601f83011261503b57600080fd5b8151602061504b6147fb83614788565b82815260069290921b8401810191818101908684111561506a57600080fd5b8286015b8481101561487057604081890312156150875760008081fd5b61508f61470d565b815161509a816147ab565b8152818501516150a9816147ba565b8186015283529183019160400161506e565b600080600080608085870312156150d157600080fd5b84516150dc816147ab565b60208601519094506150ed816147ab565b6040860151606087015191945092506001600160401b0381111561511057600080fd5b61511c8782880161502a565b91505092959194509250565b60808152600061513b6080830187614a7f565b9415156020830152509115156040830152606090910152919050565b6001600160801b03828116828216039080821115610bd857610bd8614ea9565b60008160020b8360020b8061518e5761518e614ed6565b627fffff198214600019821416156151a8576151a8614ea9565b90059392505050565b600281810b9083900b01627fffff8113627fffff19821217156108db576108db614ea9565b60008260020b8260020b028060020b9150808214610bd857610bd8614ea9565b80516146b081614b05565b80516146b081614b28565b60006020828403121561521e57600080fd5b81516001600160401b038082111561523557600080fd5b908301906101a0828603121561524a57600080fd5b615252614735565b61525b836151f6565b81526020830151602082015260408301516040820152606083015160608201526080830151608082015260a083015160a082015261529b60c0840161501f565b60c08201526152ac60e0840161501f565b60e08201526101006152bf81850161501f565b908201526101206152d1848201614f56565b908201526101406152e3848201615201565b908201526101606152f5848201615201565b90820152610180838101518381111561530d57600080fd5b614c528882870161502a565b634e487b7160e01b600052603260045260246000fd5b60006001820161534157615341614ea9565b5060010190565b6001600160a01b03929092168252602082015260400190565b60006020828403121561537357600080fd5b81516104a581614697565b6001600160a01b039384168152919092166020820152604081019190915260600190565b6000815180845260005b818110156153c8576020818501810151868301820152016153ac565b506000602082860101526020601f19601f83011685010191505092915050565b6001600160a01b0386811682528515156020830152604082018590528316606082015260a0608082018190526000906134eb908301846153a2565b6000806040838503121561543657600080fd5b505080516020909101519092909150565b6000600160ff1b820161545c5761545c614ea9565b5060000390565b602080825282518282018190526000919060409081850190868401855b828110156154b9576154a9848351805160020b82526020908101516001600160801b0316910152565b9284019290850190600101615480565b5091979650505050505050565b6000602082840312156154d857600080fd5b81516001600160401b038111156154ee57600080fd5b6108d78482850161502a565b60006020828403121561550c57600080fd5b5051919050565b602081528151602082015260018060a01b036020830151166040820152600060408301516060808401526108d7608084018261494a565b60208082526004908201526319985a5b60e21b604082015260600190565b8181036000831280158383131683831282161715610bd857610bd8614ea9565b60408152600061559b6040830185614a7f565b90508260208301529392505050565b6020815260006104a56020830184614a7f565b600080604083850312156155d057600080fd5b82516155db81614697565b6020939093015192949293505050565b6001600160801b03818116838216019080821115610bd857610bd8614ea9565b60008161561a5761561a614ea9565b506000190190565b6001600160a01b03828116828216039080821115610bd857610bd8614ea9565b60008261565157615651614ed6565b500490565b60808152600061566960808301876153a2565b602083019590955250604081019290925260609091015291905056fea2646970667358221220be0d4a8189b47308899e88ab132be28409a5090f9e6a1dfa5694e5bd3c1e24cd64736f6c63430008110033",
    "linkReferences": {
      "src/libraries/MergeLib.sol": {
        "MergeLib": [
          {
            "start": 6406,
            "length": 20
          }
        ]
      }
    }
  },
  "methodIdentifiers": {
    "INTEREST_REPLENISH_TIME()": "9aa886da",
    "addPosition(uint256,uint256,uint256,bool,uint256)": "787223c4",
    "addPositionSpecfied(uint256,uint256,uint256,bool,uint256,(int24,uint128)[])": "20e34f8a",
    "applySlippageX96(uint160,uint256,bool)": "207b0576",
    "borrow(bool,uint256,uint256)": "25350f8e",
    "closeMaxSlippage()": "6ef83ef7",
    "closePosition(uint256,address,uint256)": "d8b83f3a",
    "createLevPosition(uint256,uint256,uint256,bool)": "946e986c",
    "getFilledAmount((int24,uint128)[],bool)": "d6ffc34f",
    "getNewPremiumQuote()": "08abb6d3",
    "getPosition(uint256)": "eb02c301",
    "getRemainingPremium((uint80,uint256,uint256,uint256,uint256,uint256,uint128,uint128,uint128,bool,uint32,uint32,(int24,uint128)[]))": "27ab2868",
    "globalStorage()": "6502072a",
    "liquidityManager()": "33827438",
    "nonce()": "affed0e0",
    "pool()": "16f0115b",
    "precision()": "d3b5dc3b",
    "reducePosition(uint256,address,uint256,uint256)": "5a2b399f",
    "roundTick(int24,bool)": "3dc306ee",
    "setLiquidityManager(address)": "3c1624d4",
    "tickSpacing()": "d0c93a7c",
    "token0()": "0dfe1681",
    "token1()": "d21220a7",
    "uniswapV3SwapCallback(int256,int256,bytes)": "fa461e33"
  },
  "id": 35
}