{
  "abi": [
    {
      "inputs": [],
      "stateMutability": "nonpayable",
      "type": "constructor"
    },
    {
      "inputs": [],
      "name": "T",
      "type": "error"
    },
    {
      "inputs": [],
      "name": "INTEREST_REPLENISH_TIME",
      "outputs": [
        {
          "internalType": "uint256",
          "name": "",
          "type": "uint256"
        }
      ],
      "stateMutability": "view",
      "type": "function"
    },
    {
      "inputs": [
        {
          "internalType": "uint256",
          "name": "traderFund",
          "type": "uint256"
        },
        {
          "internalType": "uint256",
          "name": "maxSlippage",
          "type": "uint256"
        },
        {
          "internalType": "uint256",
          "name": "borrowAmount",
          "type": "uint256"
        },
        {
          "internalType": "bool",
          "name": "isToken0",
          "type": "bool"
        }
      ],
      "name": "addPosition",
      "outputs": [
        {
          "components": [
            {
              "internalType": "address",
              "name": "pool",
              "type": "address"
            },
            {
              "internalType": "uint256",
              "name": "totalPosition",
              "type": "uint256"
            },
            {
              "internalType": "uint256",
              "name": "totalDebt",
              "type": "uint256"
            },
            {
              "internalType": "uint256",
              "name": "totalDebtInput",
              "type": "uint256"
            },
            {
              "internalType": "uint256",
              "name": "initCollateral",
              "type": "uint256"
            },
            {
              "internalType": "uint128",
              "name": "recentPremium",
              "type": "uint128"
            },
            {
              "internalType": "uint128",
              "name": "totalPremium",
              "type": "uint128"
            },
            {
              "internalType": "uint128",
              "name": "unusedPremium",
              "type": "uint128"
            },
            {
              "internalType": "bool",
              "name": "isToken0",
              "type": "bool"
            },
            {
              "internalType": "uint32",
              "name": "openTime",
              "type": "uint32"
            },
            {
              "internalType": "uint32",
              "name": "repayTime",
              "type": "uint32"
            },
            {
              "components": [
                {
                  "internalType": "int24",
                  "name": "tick",
                  "type": "int24"
                },
                {
                  "internalType": "uint128",
                  "name": "liquidity",
                  "type": "uint128"
                },
                {
                  "internalType": "uint256",
                  "name": "premiumOrUrate",
                  "type": "uint256"
                }
              ],
              "internalType": "struct LiquidityManager.Liquidity[]",
              "name": "borrowInfo",
              "type": "tuple[]"
            }
          ],
          "internalType": "struct GlobalStorage.Position",
          "name": "",
          "type": "tuple"
        },
        {
          "internalType": "uint256",
          "name": "",
          "type": "uint256"
        },
        {
          "internalType": "uint256",
          "name": "",
          "type": "uint256"
        }
      ],
      "stateMutability": "nonpayable",
      "type": "function"
    },
    {
      "inputs": [
        {
          "internalType": "uint256",
          "name": "traderFund",
          "type": "uint256"
        },
        {
          "internalType": "uint256",
          "name": "maxSlippage",
          "type": "uint256"
        },
        {
          "internalType": "uint256",
          "name": "borrowAmount",
          "type": "uint256"
        },
        {
          "internalType": "bool",
          "name": "isToken0",
          "type": "bool"
        },
        {
          "components": [
            {
              "internalType": "int24",
              "name": "tick",
              "type": "int24"
            },
            {
              "internalType": "uint128",
              "name": "liquidity",
              "type": "uint128"
            },
            {
              "internalType": "uint256",
              "name": "premiumOrUrate",
              "type": "uint256"
            }
          ],
          "internalType": "struct LiquidityManager.Liquidity[]",
          "name": "borrowInfo",
          "type": "tuple[]"
        }
      ],
      "name": "addPositionSpecfied",
      "outputs": [
        {
          "components": [
            {
              "internalType": "address",
              "name": "pool",
              "type": "address"
            },
            {
              "internalType": "uint256",
              "name": "totalPosition",
              "type": "uint256"
            },
            {
              "internalType": "uint256",
              "name": "totalDebt",
              "type": "uint256"
            },
            {
              "internalType": "uint256",
              "name": "totalDebtInput",
              "type": "uint256"
            },
            {
              "internalType": "uint256",
              "name": "initCollateral",
              "type": "uint256"
            },
            {
              "internalType": "uint128",
              "name": "recentPremium",
              "type": "uint128"
            },
            {
              "internalType": "uint128",
              "name": "totalPremium",
              "type": "uint128"
            },
            {
              "internalType": "uint128",
              "name": "unusedPremium",
              "type": "uint128"
            },
            {
              "internalType": "bool",
              "name": "isToken0",
              "type": "bool"
            },
            {
              "internalType": "uint32",
              "name": "openTime",
              "type": "uint32"
            },
            {
              "internalType": "uint32",
              "name": "repayTime",
              "type": "uint32"
            },
            {
              "components": [
                {
                  "internalType": "int24",
                  "name": "tick",
                  "type": "int24"
                },
                {
                  "internalType": "uint128",
                  "name": "liquidity",
                  "type": "uint128"
                },
                {
                  "internalType": "uint256",
                  "name": "premiumOrUrate",
                  "type": "uint256"
                }
              ],
              "internalType": "struct LiquidityManager.Liquidity[]",
              "name": "borrowInfo",
              "type": "tuple[]"
            }
          ],
          "internalType": "struct GlobalStorage.Position",
          "name": "",
          "type": "tuple"
        },
        {
          "internalType": "uint256",
          "name": "",
          "type": "uint256"
        },
        {
          "internalType": "uint256",
          "name": "",
          "type": "uint256"
        }
      ],
      "stateMutability": "nonpayable",
      "type": "function"
    },
    {
      "inputs": [
        {
          "internalType": "uint160",
          "name": "price",
          "type": "uint160"
        },
        {
          "internalType": "uint256",
          "name": "maxSlippage",
          "type": "uint256"
        },
        {
          "internalType": "bool",
          "name": "down",
          "type": "bool"
        }
      ],
      "name": "applySlippageX96",
      "outputs": [
        {
          "internalType": "uint160",
          "name": "",
          "type": "uint160"
        }
      ],
      "stateMutability": "pure",
      "type": "function"
    },
    {
      "inputs": [
        {
          "internalType": "bool",
          "name": "borrowBelow",
          "type": "bool"
        },
        {
          "internalType": "uint256",
          "name": "amountSpecified",
          "type": "uint256"
        },
        {
          "internalType": "uint256",
          "name": "leverage",
          "type": "uint256"
        }
      ],
      "name": "borrow",
      "outputs": [
        {
          "internalType": "int24",
          "name": "",
          "type": "int24"
        },
        {
          "internalType": "int24",
          "name": "",
          "type": "int24"
        },
        {
          "components": [
            {
              "internalType": "int24",
              "name": "tick",
              "type": "int24"
            },
            {
              "internalType": "uint128",
              "name": "liquidity",
              "type": "uint128"
            },
            {
              "internalType": "uint256",
              "name": "premiumOrUrate",
              "type": "uint256"
            }
          ],
          "internalType": "struct LiquidityManager.Liquidity[]",
          "name": "",
          "type": "tuple[]"
        },
        {
          "internalType": "uint256",
          "name": "",
          "type": "uint256"
        }
      ],
      "stateMutability": "nonpayable",
      "type": "function"
    },
    {
      "inputs": [],
      "name": "closeMaxSlippage",
      "outputs": [
        {
          "internalType": "uint256",
          "name": "",
          "type": "uint256"
        }
      ],
      "stateMutability": "view",
      "type": "function"
    },
    {
      "inputs": [
        {
          "internalType": "address",
          "name": "trader",
          "type": "address"
        },
        {
          "internalType": "bool",
          "name": "isToken0",
          "type": "bool"
        },
        {
          "internalType": "uint256",
          "name": "userSpecifiedSlippage",
          "type": "uint256"
        }
      ],
      "name": "closePosition",
      "outputs": [
        {
          "components": [
            {
              "internalType": "int256",
              "name": "amount0",
              "type": "int256"
            },
            {
              "internalType": "int256",
              "name": "amount1",
              "type": "int256"
            },
            {
              "internalType": "int256",
              "name": "PnL",
              "type": "int256"
            },
            {
              "internalType": "uint256",
              "name": "returnedAmount",
              "type": "uint256"
            },
            {
              "internalType": "uint256",
              "name": "unusedPremium",
              "type": "uint256"
            },
            {
              "internalType": "uint256",
              "name": "premium",
              "type": "uint256"
            }
          ],
          "internalType": "struct ReduceReturn",
          "name": "",
          "type": "tuple"
        }
      ],
      "stateMutability": "nonpayable",
      "type": "function"
    },
    {
      "inputs": [
        {
          "components": [
            {
              "internalType": "int24",
              "name": "tick",
              "type": "int24"
            },
            {
              "internalType": "uint128",
              "name": "liquidity",
              "type": "uint128"
            },
            {
              "internalType": "uint256",
              "name": "premiumOrUrate",
              "type": "uint256"
            }
          ],
          "internalType": "struct LiquidityManager.Liquidity[]",
          "name": "borrowInfo",
          "type": "tuple[]"
        },
        {
          "internalType": "bool",
          "name": "borrowBelow",
          "type": "bool"
        }
      ],
      "name": "getFilledAmount",
      "outputs": [
        {
          "internalType": "uint256",
          "name": "filledAmount",
          "type": "uint256"
        }
      ],
      "stateMutability": "view",
      "type": "function"
    },
    {
      "inputs": [],
      "name": "getNewPremiumQuote",
      "outputs": [
        {
          "internalType": "uint256",
          "name": "",
          "type": "uint256"
        }
      ],
      "stateMutability": "view",
      "type": "function"
    },
    {
      "inputs": [],
      "name": "globalStorage",
      "outputs": [
        {
          "internalType": "contract GlobalStorage",
          "name": "",
          "type": "address"
        }
      ],
      "stateMutability": "view",
      "type": "function"
    },
    {
      "inputs": [],
      "name": "liquidityManager",
      "outputs": [
        {
          "internalType": "contract LiquidityManager",
          "name": "",
          "type": "address"
        }
      ],
      "stateMutability": "view",
      "type": "function"
    },
    {
      "inputs": [
        {
          "internalType": "address",
          "name": "trader",
          "type": "address"
        },
        {
          "internalType": "bool",
          "name": "isToken0",
          "type": "bool"
        }
      ],
      "name": "payPremium",
      "outputs": [
        {
          "internalType": "uint256",
          "name": "",
          "type": "uint256"
        }
      ],
      "stateMutability": "nonpayable",
      "type": "function"
    },
    {
      "inputs": [],
      "name": "pool",
      "outputs": [
        {
          "internalType": "contract UniswapV3Pool",
          "name": "",
          "type": "address"
        }
      ],
      "stateMutability": "view",
      "type": "function"
    },
    {
      "inputs": [],
      "name": "precision",
      "outputs": [
        {
          "internalType": "uint256",
          "name": "",
          "type": "uint256"
        }
      ],
      "stateMutability": "view",
      "type": "function"
    },
    {
      "inputs": [
        {
          "internalType": "bool",
          "name": "isToken0",
          "type": "bool"
        },
        {
          "internalType": "uint256",
          "name": "userSpecifiedSlippage",
          "type": "uint256"
        },
        {
          "internalType": "uint256",
          "name": "reduceAmount",
          "type": "uint256"
        }
      ],
      "name": "reducePosition",
      "outputs": [
        {
          "components": [
            {
              "internalType": "int256",
              "name": "amount0",
              "type": "int256"
            },
            {
              "internalType": "int256",
              "name": "amount1",
              "type": "int256"
            },
            {
              "internalType": "int256",
              "name": "PnL",
              "type": "int256"
            },
            {
              "internalType": "uint256",
              "name": "returnedAmount",
              "type": "uint256"
            },
            {
              "internalType": "uint256",
              "name": "unusedPremium",
              "type": "uint256"
            },
            {
              "internalType": "uint256",
              "name": "premium",
              "type": "uint256"
            }
          ],
          "internalType": "struct ReduceReturn",
          "name": "",
          "type": "tuple"
        }
      ],
      "stateMutability": "nonpayable",
      "type": "function"
    },
    {
      "inputs": [
        {
          "internalType": "int24",
          "name": "tick",
          "type": "int24"
        },
        {
          "internalType": "bool",
          "name": "down",
          "type": "bool"
        }
      ],
      "name": "roundTick",
      "outputs": [
        {
          "internalType": "int24",
          "name": "",
          "type": "int24"
        }
      ],
      "stateMutability": "view",
      "type": "function"
    },
    {
      "inputs": [
        {
          "internalType": "address",
          "name": "ad",
          "type": "address"
        }
      ],
      "name": "setLiquidityManager",
      "outputs": [],
      "stateMutability": "nonpayable",
      "type": "function"
    },
    {
      "inputs": [],
      "name": "tickSpacing",
      "outputs": [
        {
          "internalType": "int24",
          "name": "",
          "type": "int24"
        }
      ],
      "stateMutability": "view",
      "type": "function"
    },
    {
      "inputs": [],
      "name": "token0",
      "outputs": [
        {
          "internalType": "contract ERC20",
          "name": "",
          "type": "address"
        }
      ],
      "stateMutability": "view",
      "type": "function"
    },
    {
      "inputs": [],
      "name": "token1",
      "outputs": [
        {
          "internalType": "contract ERC20",
          "name": "",
          "type": "address"
        }
      ],
      "stateMutability": "view",
      "type": "function"
    },
    {
      "inputs": [
        {
          "internalType": "int256",
          "name": "amount0Delta",
          "type": "int256"
        },
        {
          "internalType": "int256",
          "name": "amount1Delta",
          "type": "int256"
        },
        {
          "internalType": "bytes",
          "name": "data",
          "type": "bytes"
        }
      ],
      "name": "uniswapV3SwapCallback",
      "outputs": [],
      "stateMutability": "nonpayable",
      "type": "function"
    }
  ],
  "bytecode": {
    "object": "0x60e06040523480156200001157600080fd5b50600080336001600160a01b031663890357306040518163ffffffff1660e01b81526004016040805180830381865afa15801562000053573d6000803e3d6000fd5b505050506040513d601f19601f820116820180604052508101906200007991906200023e565b600080546001600160a01b038085166001600160a01b03199283168117909355600180549185169190921617905560408051630dfe168160e01b8152905193955091935091630dfe1681916004808201926020929091908290030181865afa158015620000ea573d6000803e3d6000fd5b505050506040513d601f19601f8201168201806040525081019062000110919062000276565b60008054906101000a90046001600160a01b03166001600160a01b031663d21220a76040518163ffffffff1660e01b8152600401602060405180830381865afa15801562000162573d6000803e3d6000fd5b505050506040513d601f19601f8201168201806040525081019062000188919062000276565b6001600160a01b0390811660c05290811660a052600054604080516334324e9f60e21b81529051919092169163d0c93a7c9160048083019260209291908290030181865afa158015620001df573d6000803e3d6000fd5b505050506040513d601f19601f820116820180604052508101906200020591906200029b565b600290810b608052670de7d1b0f0f10000905550620002c09050565b80516001600160a01b03811681146200023957600080fd5b919050565b600080604083850312156200025257600080fd5b6200025d8362000221565b91506200026d6020840162000221565b90509250929050565b6000602082840312156200028957600080fd5b620002948262000221565b9392505050565b600060208284031215620002ae57600080fd5b81518060020b81146200029457600080fd5b60805160a05160c051615997620003ec6000396000818161035701528181610dcb01528181610fef01528181611a0001528181611a9a015281816127530152818161281d01528181612b2a015281816134f50152818161363b0152818161441401526144b201526000818161017f01528181610d340152818161108901528181611aed01528181611b870152818161296101528181612a2b01528181612b50015281816132d7015281816135a20152614555015260008181610330015281816108000152818161082e0152818161086c01528181610aa201528181610b41015281816121d90152818161225c015281816122d00152818161253301528181612d1601528181612da001528181612ebf01528181612fa70152818161467701526146c401526159976000f3fe608060405234801561001057600080fd5b50600436106101375760003560e01c80633e45c92f116100b85780639aa886da1161007c5780639aa886da14610321578063d0c93a7c1461032b578063d21220a714610352578063d3b5dc3b14610379578063deff1bdc14610388578063fa461e331461039b57600080fd5b80633e45c92f146102805780636502072a146102935780636ef83ef7146102a6578063786afbcc146102af5780637ea9843b146102c257600080fd5b806325350f8e116100ff57806325350f8e146101df57806333827438146102025780633c1624d4146102155780633cd7bca7146102475780633dc306ee1461025a57600080fd5b806308abb6d31461013c5780630d3401ee146101585780630dfe16811461017a57806316f0115b146101b9578063207b0576146101cc575b600080fd5b66071afd498d00005b6040519081526020015b60405180910390f35b61016b610166366004614c88565b6103ae565b60405161014f93929190614e28565b6101a17f000000000000000000000000000000000000000000000000000000000000000081565b6040516001600160a01b03909116815260200161014f565b6000546101a1906001600160a01b031681565b6101a16101da366004614e62565b610405565b6101f26101ed366004614ea4565b61048e565b60405161014f9493929190614ed9565b6003546101a1906001600160a01b031681565b610245610223366004614f0f565b600380546001600160a01b0319166001600160a01b0392909216919091179055565b005b61016b610255366004614f2c565b61076a565b61026d610268366004614f6d565b6107f8565b60405160029190910b815260200161014f565b61014561028e366004614fa6565b61089b565b6001546101a1906001600160a01b031681565b61014560025481565b6101456102bd366004614fc4565b610a32565b6102d56102d036600461500a565b610bbd565b60405161014f9190600060c082019050825182526020830151602083015260408301516040830152606083015160608301526080830151608083015260a083015160a083015292915050565b6101456201518081565b61026d7f000000000000000000000000000000000000000000000000000000000000000081565b6101a17f000000000000000000000000000000000000000000000000000000000000000081565b610145670de0b6b3a764000081565b6102d5610396366004614ea4565b610c69565b6102456103a936600461504b565b610d04565b6103b661495f565b6000806103f46040518060a001604052808a81526020018981526020018881526020018715158152602001336001600160a01b031681525085610e4e565b925092509250955095509592505050565b6000816104475761042661042184670de0b6b3a76400006150e0565b6116ff565b610438670de0b6b3a76400008661510d565b6104429190615133565b610484565b670de0b6b3a764000061047061045e8280876117a3565b61042190670de0b6b3a76400006150e0565b61047a9086615133565b610484919061510d565b90505b9392505050565b60008060606000670de0b6b3a764000085116104dd5760405162461bcd60e51b81526020600482015260096024820152683bb937b733903632bb60b91b60448201526064015b60405180910390fd5b6104e56149f2565b60008054906101000a90046001600160a01b03166001600160a01b0316633850c7bd6040518163ffffffff1660e01b815260040160e060405180830381865afa158015610536573d6000803e3d6000fd5b505050506040513d601f19601f8201168201806040525081019061055a9190615187565b5050505060029190910b60a0840152506001600160a01b0316608082018190526105d990896105ad57610596670de0b6b3a7640000808a6117a3565b6105a890670de0b6b3a764000061521f565b6105d2565b6105c0670de0b6b3a7640000808a6117a3565b6105d290670de0b6b3a7640000615232565b6000610405565b6001600160a01b0316610180820181905261061b908961060157670ddd2935029d800061060b565b670de444324c2a80005b6001600160401b03166000610405565b6001600160a01b039081166101808301819052600354608084015160405163053ef28b60e01b81528c15156004820152602481019390935283166044830152606482018a90529091169063053ef28b90608401600060405180830381865afa15801561068b573d6000803e3d6000fd5b505050506040513d6000823e601f3d908101601f191682016040526106b391908101906152e9565b61026085018190526101e0850191909152600291820b6101c085015291900b6101a0830152600054604051637c61444d60e01b81526001600160a01b0390911691637c61444d9161070e91908c906001908d90600401615356565b600060405180830381600087803b15801561072857600080fd5b505af115801561073c573d6000803e3d6000fd5b50505050806101c00151816101a00151826102600151836101e0015194509450945094505093509350935093565b61077261495f565b6040805160a08101825286815260208082018790528183018690528415156060830152336080830152825160008082529181019093529182916107e891836107e2565b60408051606081018252600080825260208083018290529282015282526000199092019101816107b55790505b50610e4e565b9250925092509450945094915050565b6000806108257f000000000000000000000000000000000000000000000000000000000000000085615385565b905082610867577f00000000000000000000000000000000000000000000000000000000000000006108588260016153bf565b61086291906153e4565b610891565b6108917f0000000000000000000000000000000000000000000000000000000000000000826153e4565b9150505b92915050565b60015460405163750ff6b560e01b815260009182916001600160a01b039091169063750ff6b5906108d490309088908890600401615404565b600060405180830381865afa1580156108f1573d6000803e3d6000fd5b505050506040513d6000823e601f3d908101601f191682016040526109199190810190615447565b905060008060008054906101000a90046001600160a01b03166001600160a01b0316633850c7bd6040518163ffffffff1660e01b815260040160e060405180830381865afa15801561096f573d6000803e3d6000fd5b505050506040513d601f19601f820116820180604052508101906109939190615187565b50506003546101608901516040516308e05f8b60e11b81529698509496506000956001600160a01b03909116946311c0bf1694506109d893509150869060040161555a565b602060405180830381865afa1580156109f5573d6000803e3d6000fd5b505050506040513d601f19601f82011682018060405250810190610a19919061557f565b9050610a288785836000611855565b9695505050505050565b6000805b8351811015610bb657838181518110610a5157610a51615598565b6020026020010151602001516001600160801b031660000315610ba4578215610b2457610b13610a9d858381518110610a8c57610a8c615598565b602002602001015160000151611bbe565b610aee7f0000000000000000000000000000000000000000000000000000000000000000878581518110610ad357610ad3615598565b602002602001015160000151610ae991906153bf565b611bbe565b868481518110610b0057610b00615598565b6020026020010151602001516001611ee1565b610b1d908361521f565b9150610ba4565b610b97610b3c858381518110610a8c57610a8c615598565b610b727f0000000000000000000000000000000000000000000000000000000000000000878581518110610ad357610ad3615598565b868481518110610b8457610b84615598565b6020026020010151602001516001611f98565b610ba1908361521f565b91505b80610bae816155ae565b915050610a36565b5092915050565b610bc5614abe565b610bcd6149f2565b60015460405163750ff6b560e01b81526001600160a01b039091169063750ff6b590610c0190309089908990600401615404565b600060405180830381865afa158015610c1e573d6000803e3d6000fd5b505050506040513d6000823e601f3d908101601f19168201604052610c469190810190615447565b610160820181905260200151610c60908690859084612008565b95945050505050565b610c71614abe565b610c796149f2565b60015460405163750ff6b560e01b81526001600160a01b039091169063750ff6b590610cad90309033908a90600401615404565b600060405180830381865afa158015610cca573d6000803e3d6000fd5b505050506040513d6000823e601f3d908101601f19168201604052610cf29190810190615447565b610160820152610c6033858584612008565b6000610d1282840184614f0f565b90506000851315610db45760405163a9059cbb60e01b81526001600160a01b037f0000000000000000000000000000000000000000000000000000000000000000169063a9059cbb90610d6b90339089906004016155c7565b6020604051808303816000875af1158015610d8a573d6000803e3d6000fd5b505050506040513d601f19601f82011682018060405250810190610dae91906155e0565b50610e47565b60405163a9059cbb60e01b81526001600160a01b037f0000000000000000000000000000000000000000000000000000000000000000169063a9059cbb90610e0290339088906004016155c7565b6020604051808303816000875af1158015610e21573d6000803e3d6000fd5b505050506040513d601f19601f82011682018060405250810190610e4591906155e0565b505b5050505050565b610e5661495f565b600080610e616149f2565b6001546080870151606088015160405163750ff6b560e01b81526000936001600160a01b03169263750ff6b592610e9e9230929190600401615404565b600060405180830381865afa158015610ebb573d6000803e3d6000fd5b505050506040513d6000823e601f3d908101601f19168201604052610ee39190810190615447565b61012081015190915063ffffffff1615610f3e5786606001511515816101000151151514610f3e5760405162461bcd60e51b81526020600482015260086024820152676469666620706f7360c01b60448201526064016104d4565b8551600003610f9b57606087015160408801518851610f789291906101ed90670de0b6b3a764000090610f71818561521f565b91906117a3565b6101e0860152610260850152600290810b6101a08501520b6101c0830152610fb7565b610fae8760600151886040015188613a53565b61026082018690525b610fca8261026001518860600151610a32565b82526060870151156110705786516040516323b872dd60e01b81526001600160a01b037f000000000000000000000000000000000000000000000000000000000000000016916323b872dd916110279133913091906004016155fd565b6020604051808303816000875af1158015611046573d6000803e3d6000fd5b505050506040513d601f19601f8201168201806040525081019061106a91906155e0565b50611106565b86516040516323b872dd60e01b81526001600160a01b037f000000000000000000000000000000000000000000000000000000000000000016916323b872dd916110c19133913091906004016155fd565b6020604051808303816000875af11580156110e0573d6000803e3d6000fd5b505050506040513d601f19601f8201168201806040525081019061110491906155e0565b505b60008054906101000a90046001600160a01b03166001600160a01b0316633850c7bd6040518163ffffffff1660e01b815260040160e060405180830381865afa158015611157573d6000803e3d6000fd5b505050506040513d601f19601f8201168201806040525081019061117b9190615187565b5050505060029190910b60a0850152506001600160a01b039081166080840152600054606089015160408a01518a51929093169263128acb0892309215916111c29161521f565b6111da87608001518d602001518e6060015115610405565b60408051306020820152016040516020818303038152906040526040518663ffffffff1660e01b8152600401611214959493929190615667565b60408051808303816000875af1158015611232573d6000803e3d6000fd5b505050506040513d601f19601f8201168201806040525081019061125691906156a2565b61010084015260e08301526060870151801561127f5750815160e083015161127d906156c6565b105b806112a5575086606001511580156112a5575081516101008301516112a3906156c6565b105b156112db5760405162461bcd60e51b81526004016104d490602080825260049082015263216c697160e01b604082015260600190565b61014081015163ffffffff161561138157600354604051634684e05b60e01b81526001600160a01b0390911690634684e05b9061131c9084906004016156e2565b602060405180830381865afa158015611339573d6000803e3d6000fd5b505050506040513d601f19601f8201168201806040525081019061135d91906156f5565b6001600160801b03166040830152600060a0820181905260e0820181905260c08201525b8660600151156113b2578160e00151611399906156c6565b816020018181516113aa919061521f565b9052506113d6565b8161010001516113c1906156c6565b816020018181516113d2919061521f565b9052505b81516040820180516113e990839061521f565b905250604087015160608201805161140290839061521f565b905250865160808201805161141890839061521f565b9052506060870151151561010082015263ffffffff428116610140830152610120820151166000036114525763ffffffff42166101208201525b61016081015151156115175761026082015161016082015161147391613c10565b610260830152606087015161149757611490826102600151614148565b6102608301525b600354610260830151604051635b664e4f60e11b81526001600160a01b039092169163b6cc9c9e916114cb91600401615712565b600060405180830381865afa1580156114e8573d6000803e3d6000fd5b505050506040513d6000823e601f3d908101601f191682016040526115109190810190615725565b6102608301525b610260820151610160820152600154600054608089015160608a015160405163ebfa2b1960e01b81526001600160a01b039485169463ebfa2b1994611563949116929091600401615404565b6020604051808303816000875af1158015611582573d6000803e3d6000fd5b505050506040513d601f19601f820116820180604052508101906115a6919061557f565b5060015460408051608080820183528a01516001600160a01b0390811682526060808c01511515602084015260005482168385015282018590529151631b5219bb60e01b81529190921691631b5219bb916116049190600401615759565b6000604051808303816000875af1158015611623573d6000803e3d6000fd5b505050506040513d6000823e601f3d908101601f1916820160405261164b9190810190615447565b60035461026084015160a08501516040516308e05f8b60e11b81529394506001600160a01b03909216926311c0bf1692611688929160040161555a565b602060405180830381865afa1580156116a5573d6000803e3d6000fd5b505050506040513d601f19601f820116820180604052508101906116c9919061557f565b6102008301819052608088015160408401516116e6928491611855565b6040820151610200909201519097919650945092505050565b60b581600160881b81106117185760409190911b9060801c5b690100000000000000000081106117345760209190911b9060401c5b65010000000000811061174c5760109190911b9060201c5b630100000081106117625760089190911b9060101c5b62010000010260121c80820401600190811c80830401811c80830401811c80830401811c80830401811c80830401811c80830401901c908190048111900390565b60008080600019858709858702925082811083820303915050806000036117dc57600084116117d157600080fd5b508290049050610487565b8084116117e857600080fd5b6000848688096000868103871696879004966002600389028118808a02820302808a02820302808a02820302808a02820302808a02820302808a02909103029181900381900460010186841190950394909402919094039290920491909117919091029150509392505050565b600354604051634684e05b60e01b81526000916001600160a01b031690634684e05b906118869087906004016156e2565b602060405180830381865afa1580156118a3573d6000803e3d6000fd5b505050506040513d601f19601f820116820180604052508101906118c791906156f5565b6001546040805160c0810182526001600160a01b038981168252610100890151151560208301526000548116928201929092526001600160801b038716606082015292935016906325f31145906080810161192285886157a0565b6001600160801b03168152602001868860c0015161194091906157a0565b6001600160801b03169052604080516001600160e01b031960e085901b16815282516001600160a01b039081166004830152602084015115156024830152918301519091166044820152606082015160648201526080820151608482015260a09091015160a482015260c401600060405180830381600087803b1580156119c657600080fd5b505af11580156119da573d6000803e3d6000fd5b5050505083610100015115611ad6576040516323b872dd60e01b81526001600160a01b037f000000000000000000000000000000000000000000000000000000000000000016906323b872dd90611a39903390309088906004016155fd565b6020604051808303816000875af1158015611a58573d6000803e3d6000fd5b505050506040513d601f19601f82011682018060405250810190611a7c91906155e0565b508115611ad15760405163a9059cbb60e01b81526001600160a01b037f0000000000000000000000000000000000000000000000000000000000000000169063a9059cbb90610d6b90339086906004016155c7565b610e47565b6040516323b872dd60e01b81526001600160a01b037f000000000000000000000000000000000000000000000000000000000000000016906323b872dd90611b26903390309088906004016155fd565b6020604051808303816000875af1158015611b45573d6000803e3d6000fd5b505050506040513d601f19601f82011682018060405250810190611b6991906155e0565b508115610e475760405163a9059cbb60e01b81526001600160a01b037f0000000000000000000000000000000000000000000000000000000000000000169063a9059cbb90610e0290339086906004016155c7565b60008060008360020b12611bd5578260020b611bdd565b8260020b6000035b9050620d89e8811115611c03576040516315e4079d60e11b815260040160405180910390fd5b600081600116600003611c1a57600160801b611c2c565b6ffffcb933bd6fad37aa2d162d1a5940015b70ffffffffffffffffffffffffffffffffff1690506002821615611c60576ffff97272373d413259a46990580e213a0260801c5b6004821615611c7f576ffff2e50f5f656932ef12357cf3c7fdcc0260801c5b6008821615611c9e576fffe5caca7e10e4e61c3624eaa0941cd00260801c5b6010821615611cbd576fffcb9843d60f6159c9db58835c9266440260801c5b6020821615611cdc576fff973b41fa98c081472e6896dfb254c00260801c5b6040821615611cfb576fff2ea16466c96a3843ec78b326b528610260801c5b6080821615611d1a576ffe5dee046a99a2a811c461f1969c30530260801c5b610100821615611d3a576ffcbe86c7900a88aedcffc83b479aa3a40260801c5b610200821615611d5a576ff987a7253ac413176f2b074cf7815e540260801c5b610400821615611d7a576ff3392b0822b70005940c7a398e4b70f30260801c5b610800821615611d9a576fe7159475a2c29b7443b29c7fa6e889d90260801c5b611000821615611dba576fd097f3bdfd2022b8845ad8f792aa58250260801c5b612000821615611dda576fa9f746462d870fdf8a65dc1f90e061e50260801c5b614000821615611dfa576f70d869a156d2a1b890bb3df62baf32f70260801c5b618000821615611e1a576f31be135f97d08fd981231505542fcfa60260801c5b62010000821615611e3b576f09aa508b5b7a84e1c677de54f3e99bc90260801c5b62020000821615611e5b576e5d6af8dedb81196699c329225ee6040260801c5b62040000821615611e7a576d2216e584f5fa1ea926041bedfe980260801c5b62080000821615611e97576b048a170391f7dc42444e8fa20260801c5b60008460020b1315611eb8578060001981611eb457611eb46150f7565b0490505b640100000000810615611ecc576001611ecf565b60005b60ff16602082901c0192505050919050565b6000836001600160a01b0316856001600160a01b03161115611f01579293925b600160601b600160e01b03606084901b166001600160a01b038686038116908716611f2b57600080fd5b83611f6157866001600160a01b0316611f4e8383896001600160a01b03166117a3565b81611f5b57611f5b6150f7565b04611f8d565b611f8d611f788383896001600160a01b031661422d565b886001600160a01b0316808204910615150190565b979650505050505050565b6000836001600160a01b0316856001600160a01b03161115611fb8579293925b81611fe557611fe0836001600160801b03168686036001600160a01b0316600160601b6117a3565b610c60565b610c60836001600160801b03168686036001600160a01b0316600160601b61422d565b612010614abe565b6000826101600151602001511180156120325750816101600151602001518311155b6120645760405162461bcd60e51b8152602060048201526003602482015262706f7360e81b60448201526064016104d4565b60008054906101000a90046001600160a01b03166001600160a01b0316633850c7bd6040518163ffffffff1660e01b815260040160e060405180830381865afa1580156120b5573d6000803e3d6000fd5b505050506040513d601f19601f820116820180604052508101906120d99190615187565b5050505060029190910b60a0850152506001600160a01b0390811660808401526101608084015190810151516060850152600354604051634684e05b60e01b8152921691634684e05b9161212f916004016156e2565b602060405180830381865afa15801561214c573d6000803e3d6000fd5b505050506040513d601f19601f8201168201806040525081019061217091906156f5565b6101608301516001600160801b0390911660e09091015260035460ff600160a01b909104166122295761222482610160015161010001516121d7578261016001516101600151600184606001516121c79190615232565b81518110610a8c57610a8c615598565b7f00000000000000000000000000000000000000000000000000000000000000008361016001516101600151600185606001516122149190615232565b81518110610ad357610ad3615598565b6122b1565b6122b1612297836101600151610100015161225a578361016001516101600151600185606001516121c79190615232565b7f00000000000000000000000000000000000000000000000000000000000000008461016001516101600151600186606001516122149190615232565b670de444324c2a8000846101600151610100015115610405565b6001600160a01b031660c08301526101608201516101000151612327577f0000000000000000000000000000000000000000000000000000000000000000826101600151610160015160008151811061230c5761230c615598565b60200260200101516000015161232291906153bf565b612351565b816101600151610160015160008151811061234457612344615598565b6020026020010151600001515b60020b6101a083015261016082015160200151612379908490670de0b6b3a7640000906117a3565b602083015261016082015161010001516123b0578160c001516001600160a01b031682608001516001600160a01b031611156123cf565b8160c001516001600160a01b031682608001516001600160a01b031610155b15612ab157600054610160830151610100015160808401516001600160a01b039092169163128acb089130918790612408908a84610405565b60408051306020820152016040516020818303038152906040526040518663ffffffff1660e01b8152600401612442959493929190615667565b60408051808303816000875af1158015612460573d6000803e3d6000fd5b505050506040513d601f19601f8201168201806040525081019061248491906156a2565b61010084015260e0830152600354600160a01b900460ff16156126595760008060009054906101000a90046001600160a01b03166001600160a01b0316633850c7bd6040518163ffffffff1660e01b815260040160e060405180830381865afa1580156124f5573d6000803e3d6000fd5b505050506040513d601f19601f820116820180604052508101906125199190615187565b50505050509150508261016001516101000151156125e2577f000000000000000000000000000000000000000000000000000000000000000083610160015161016001516001856060015161256e9190615232565b8151811061257e5761257e615598565b60200260200101516000015161259491906153bf565b60020b8160020b12156125dd5760405162461bcd60e51b8152602060048201526011602482015270747261646520626f756e64206661696c3160781b60448201526064016104d4565b612657565b8261016001516101600151600184606001516125fe9190615232565b8151811061260e5761260e615598565b60200260200101516000015160020b8160020b13156126575760405162461bcd60e51b81526020600482015260056024820152646661696c3160d81b60448201526064016104d4565b505b60208201516101608301516060015160009161267e9190670de0b6b3a76400006117a3565b90508261016001516101000151156128a1578083610160015160e001516001600160801b03168461010001516126b3906156c6565b6126bd919061521f565b10156126db5760405162461bcd60e51b81526004016104d4906157c0565b8261010001516126ea906156c6565b811061271a5761010083015161016084015160e00180519183016001600160801b03928316039091169052612803565b8083610100015161272a906156c6565b61273491906157de565b610120840181905260405163a9059cbb60e01b81526001600160a01b037f0000000000000000000000000000000000000000000000000000000000000000169163a9059cbb91612788918a916004016155c7565b6020604051808303816000875af11580156127a7573d6000803e3d6000fd5b505050506040513d601f19601f820116820180604052508101906127cb91906155e0565b506020830151610160840151608001516127ed91670de0b6b3a76400006117a3565b83610120018181516127ff91906157de565b9052505b60005460405163a9059cbb60e01b81526001600160a01b037f000000000000000000000000000000000000000000000000000000000000000081169263a9059cbb9261285892919091169085906004016155c7565b6020604051808303816000875af1158015612877573d6000803e3d6000fd5b505050506040513d601f19601f8201168201806040525081019061289b91906155e0565b50612aab565b8083610160015160e001516001600160801b03168460e001516128c3906156c6565b6128cd919061521f565b10156128eb5760405162461bcd60e51b81526004016104d4906157c0565b8260e001516128f9906156c6565b81106129295760e08084015161016085015190910180519183016001600160801b03928316039091169052612a11565b808360e00151612938906156c6565b61294291906157de565b610120840181905260405163a9059cbb60e01b81526001600160a01b037f0000000000000000000000000000000000000000000000000000000000000000169163a9059cbb91612996918a916004016155c7565b6020604051808303816000875af11580156129b5573d6000803e3d6000fd5b505050506040513d601f19601f820116820180604052508101906129d991906155e0565b506020830151610160840151608001516129fb91670de0b6b3a76400006117a3565b8361012001818151612a0d91906157de565b9052505b60005460405163a9059cbb60e01b81526001600160a01b037f000000000000000000000000000000000000000000000000000000000000000081169263a9059cbb92612a6692919091169085906004016155c7565b6020604051808303816000875af1158015612a85573d6000803e3d6000fd5b505050506040513d601f19601f82011682018060405250810190612aa991906155e0565b505b506136bd565b8161016001516101000151612aeb57612ace826101a00151611bbe565b6001600160a01b031682608001516001600160a01b031611612b12565b612af9826101a00151611bbe565b6001600160a01b031682608001516001600160a01b0316105b15612cb75760008261016001516101000151612b4e577f0000000000000000000000000000000000000000000000000000000000000000612b70565b7f00000000000000000000000000000000000000000000000000000000000000005b602084015161016085015160400151919250600091612b9791670de0b6b3a76400006117a3565b905083610160015160800151612bac906156c6565b610120850152612bbc8186615232565b61014085015260005460405163a9059cbb60e01b81526001600160a01b038481169263a9059cbb92612bf6929091169085906004016155c7565b6020604051808303816000875af1158015612c15573d6000803e3d6000fd5b505050506040513d601f19601f82011682018060405250810190612c3991906155e0565b5061014084015160405163a9059cbb60e01b81526001600160a01b0384169163a9059cbb91612c6c918b916004016155c7565b6020604051808303816000875af1158015612c8b573d6000803e3d6000fd5b505050506040513d601f19601f82011682018060405250810190612caf91906155e0565b5050506136bd565b60008060005b846101600151610160015151811015613033578460a0015160020b85610160015161016001518281518110612cf457612cf4615598565b60200260200101516000015160020b13158015612d6c57508460a0015160020b7f000000000000000000000000000000000000000000000000000000000000000086610160015161016001518381518110612d5157612d51615598565b602002602001015160000151612d6791906153bf565b60020b135b15612e5557600080612e318760800151612d9b89610160015161016001518681518110610a8c57610a8c615598565b612ddb7f00000000000000000000000000000000000000000000000000000000000000008b610160015161016001518881518110610ad357610ad3615598565b612e2c8b60200151670de0b6b3a76400008d610160015161016001518a81518110612e0857612e08615598565b6020026020010151602001516001600160801b03166117a39092919063ffffffff16565b61426d565b9092509050612e40828661521f565b9450612e4c818561521f565b93505050613021565b612e648560a0015160016107f8565b60020b85610160015161016001518281518110612e8357612e83615598565b60200260200101516000015160020b1215612f3d57612f2c612eba86610160015161016001518381518110610a8c57610a8c615598565b612efa7f000000000000000000000000000000000000000000000000000000000000000088610160015161016001518581518110610ad357610ad3615598565b612f278860200151670de0b6b3a76400008a610160015161016001518781518110612e0857612e08615598565b614309565b612f36908361521f565b9150613021565b612f4c8560a0015160006107f8565b60020b85610160015161016001518281518110612f6b57612f6b615598565b60200260200101516000015160020b131561302157613014612fa286610160015161016001518381518110610a8c57610a8c615598565b612fe27f000000000000000000000000000000000000000000000000000000000000000088610160015161016001518581518110610ad357610ad3615598565b61300f8860200151670de0b6b3a76400008a610160015161016001518781518110612e0857612e08615598565b614353565b61301e908461521f565b92505b8061302b816155ae565b915050612cbd565b5060005461016085015161010001516001600160a01b039091169063128acb089030908061306957613064866156c6565b613072565b613072856156c6565b61308b89608001518c8b61016001516101000151610405565b60408051306020820152016040516020818303038152906040526040518663ffffffff1660e01b81526004016130c5959493929190615667565b60408051808303816000875af11580156130e3573d6000803e3d6000fd5b505050506040513d601f19601f8201168201806040525081019061310791906156a2565b6101008087019190915260e08601919091526101608501510151156133555760e08401516131359086615232565b82111561329d576000613158856080015188876101600151610100015115610405565b905060008060008054906101000a90046001600160a01b03166001600160a01b031663128acb08308961016001516101000151158a60e001518c61319c9190615232565b6131a6908a615232565b6131af906156c6565b604080513060208201528991016040516020818303038152906040526040518663ffffffff1660e01b81526004016131eb959493929190615667565b60408051808303816000875af1158015613209573d6000803e3d6000fd5b505050506040513d601f19601f8201168201806040525081019061322d91906156a2565b915091508087610160015160e001516001600160801b031610156132635760405162461bcd60e51b81526004016104d4906157c0565b6101608701805160e00180516001600160801b03908116849003169052516080015161328e906156c6565b6101208801525061356f915050565b818460e00151866132ae9190615232565b6132b89190615232565b610140850181905260405163a9059cbb60e01b81526001600160a01b037f0000000000000000000000000000000000000000000000000000000000000000169163a9059cbb9161330c918b916004016155c7565b6020604051808303816000875af115801561332b573d6000803e3d6000fd5b505050506040513d601f19601f8201168201806040525081019061334f91906155e0565b5061356f565b6101008401516133659086615232565b8111156134ba576000613388856080015188876101600151610100015115610405565b905060008060008054906101000a90046001600160a01b03166001600160a01b031663128acb08308961016001516101000151158a61010001518c6133cd9190615232565b6133d79089615232565b6133e0906156c6565b604080513060208201528991016040516020818303038152906040526040518663ffffffff1660e01b815260040161341c959493929190615667565b60408051808303816000875af115801561343a573d6000803e3d6000fd5b505050506040513d601f19601f8201168201806040525081019061345e91906156a2565b915091508187610160015160e001516001600160801b031610156134945760405162461bcd60e51b81526004016104d4906157c0565b5061016086015160e00180516001600160801b039081169290920390911690525061356f565b80846101000151866134cc9190615232565b6134d69190615232565b610140850181905260405163a9059cbb60e01b81526001600160a01b037f0000000000000000000000000000000000000000000000000000000000000000169163a9059cbb9161352a918b916004016155c7565b6020604051808303816000875af1158015613549573d6000803e3d6000fd5b505050506040513d601f19601f8201168201806040525081019061356d91906155e0565b505b83610160015160800151613582906156c6565b61012085015260005460405163a9059cbb60e01b81526001600160a01b037f000000000000000000000000000000000000000000000000000000000000000081169263a9059cbb926135dd92919091169086906004016155c7565b6020604051808303816000875af11580156135fc573d6000803e3d6000fd5b505050506040513d601f19601f8201168201806040525081019061362091906155e0565b5060005460405163a9059cbb60e01b81526001600160a01b037f000000000000000000000000000000000000000000000000000000000000000081169263a9059cbb9261367692919091169085906004016155c7565b6020604051808303816000875af1158015613695573d6000803e3d6000fd5b505050506040513d601f19601f820116820180604052508101906136b991906155e0565b5050505b600054610160808401510151602084015160405163e9f4fcf360e01b81526001600160a01b039093169263e9f4fcf3926136fb9290916004016157fe565b600060405180830381600087803b15801561371557600080fd5b505af1158015613729573d6000803e3d6000fd5b5050505061373b8261016001516143bd565b61016082015160e08101516001600160801b03166040840152602001518310156139905761016082018051600060c0909101819052815160e001819052815160a00152516020018051849190613792908390615232565b9052506101608083015161010081015191015160208401516137c79291906137c290670de0b6b3a7640000615232565b6145ae565b6101608401805160608082019390935260409081019390935260015483516080810185526001600160a01b038a811682528351610100015115156020830152600054811682870152925193810193909352925163b4db07dd60e01b815292169163b4db07dd9161383991600401615759565b600060405180830381600087803b15801561385357600080fd5b505af1158015613867573d6000803e3d6000fd5b5050600354610160808601510151604051635b664e4f60e11b81526001600160a01b03909216935063b6cc9c9e92506138a291600401615712565b600060405180830381865afa1580156138bf573d6000803e3d6000fd5b505050506040513d6000823e601f3d908101601f191682016040526138e79190810190615725565b61016080840180518201929092526003549151015160a08401516040516308e05f8b60e11b81526001600160a01b03909316926311c0bf169261392e92909160040161555a565b602060405180830381865afa15801561394b573d6000803e3d6000fd5b505050506040513d601f19601f8201168201806040525081019061396f919061557f565b610200830181905261016083015161398b918791906000611855565b613a05565b6001546000546101608401516101000151604051634472fbfd60e01b81526001600160a01b0393841693634472fbfd936139d2939116918a9190600401615404565b600060405180830381600087803b1580156139ec57600080fd5b505af1158015613a00573d6000803e3d6000fd5b505050505b506040805160c08101825260e08301518152610100830151602082015261012083015181830152610140830151606082015290820151608082015261020082015160a0820152949350505050565b613a5e818415610a32565b8214613a925760405162461bcd60e51b8152602060048201526003602482015262696e6360e81b60448201526064016104d4565b600354604051631542428b60e31b815260009182916001600160a01b039091169063aa12145890613ac7908690600401615712565b600060405180830381865afa158015613ae4573d6000803e3d6000fd5b505050506040513d6000823e601f3d908101601f19168201604052613b0c9190810190615820565b9150915081613b465760405162461bcd60e51b81526004016104d490602080825260049082015263216c697160e01b604082015260600190565b60005b8151811015613b9f57818181518110613b6457613b64615598565b6020026020010151848281518110613b7e57613b7e615598565b60209081029190910101516040015280613b97816155ae565b915050613b49565b50600054604051637c61444d60e01b81526001600160a01b0390911690637c61444d90613bd790869089906001908a90600401615356565b600060405180830381600087803b158015613bf157600080fd5b505af1158015613c05573d6000803e3d6000fd5b505050505050505050565b81518151606091906000613c24828461521f565b90506000816001600160401b03811115613c4057613c40614b05565b604051908082528060200260200182016040528015613c8b57816020015b6040805160608101825260008082526020808301829052928201528252600019909201910181613c5e5790505b50905060008060005b8683108015613ca257508582105b15613ea157888281518110613cb957613cb9615598565b60200260200101516000015160020b8a8481518110613cda57613cda615598565b60200260200101516000015160020b1215613d3957898381518110613d0157613d01615598565b6020026020010151848281518110613d1b57613d1b615598565b60200260200101819052508280613d31906155ae565b935050613e8f565b888281518110613d4b57613d4b615598565b60200260200101516000015160020b8a8481518110613d6c57613d6c615598565b60200260200101516000015160020b1315613dcb57888281518110613d9357613d93615598565b6020026020010151848281518110613dad57613dad615598565b60200260200101819052508180613dc3906155ae565b925050613e8f565b60405180606001604052808b8581518110613de857613de8615598565b60200260200101516000015160020b81526020018a8481518110613e0e57613e0e615598565b6020026020010151602001518c8681518110613e2c57613e2c615598565b602002602001015160200151613e4291906157a0565b6001600160801b031681526020016000815250848281518110613e6757613e67615598565b60200260200101819052508280613e7d906155ae565b9350508180613e8b906155ae565b9250505b80613e99816155ae565b915050613c94565b86831015613f0157898381518110613ebb57613ebb615598565b6020026020010151848281518110613ed557613ed5615598565b60200260200101819052508280613eeb906155ae565b9350508080613ef9906155ae565b915050613ea1565b85821015613f6157888281518110613f1b57613f1b615598565b6020026020010151848281518110613f3557613f35615598565b60200260200101819052508180613f4b906155ae565b9250508080613f59906155ae565b915050613f01565b60008093505b8584101561409b576000613f7c85600161521f565b93505b8684101561403d57858481518110613f9957613f99615598565b60200260200101516000015160020b868681518110613fba57613fba615598565b60200260200101516000015160020b0361402b5760019050858481518110613fe457613fe4615598565b60200260200101516020015186868151811061400257614002615598565b602002602001015160200181815161401a91906157a0565b6001600160801b031690525061403d565b83614035816155ae565b945050613f7f565b806140885785858151811061405457614054615598565b602002602001015186838151811061406e5761406e615598565b60200260200101819052508180614084906155ae565b9250505b5083614093816155ae565b945050613f67565b8085526140b48560006140af600185615232565b614750565b600281111561413957600093505b6140cd600182615232565b84101561412857846140e085600161521f565b815181106140f0576140f0615598565b602002602001015185858151811061410a5761410a615598565b60200260200101819052508380614120906155ae565b9450506140c2565b80614132816158c7565b9150508085525b50929998505050505050505050565b80516060906000816001600160401b0381111561416757614167614b05565b6040519080825280602002602001820160405280156141b257816020015b60408051606081018252600080825260208083018290529282015282526000199092019101816141855790505b5090506000825b6001811061422357856141cd600183615232565b815181106141dd576141dd615598565b60200260200101518383815181106141f7576141f7615598565b6020026020010181905250818061420d906155ae565b925050808061421b906158c7565b9150506141b9565b5090949350505050565b600061423a8484846117a3565b90506000828061424c5761424c6150f7565b848609111561048757600019811061426357600080fd5b6001019392505050565b600080836001600160a01b0316856001600160a01b0316111561428e579293925b846001600160a01b0316866001600160a01b0316116142b9576142b2858585614353565b9150614300565b836001600160a01b0316866001600160a01b031610156142f2576142de868585614353565b91506142eb858785614309565b9050614300565b6142fd858585614309565b90505b94509492505050565b6000826001600160a01b0316846001600160a01b03161115614329579192915b6104846001600160801b03831661434086866158de565b6001600160a01b0316600160601b6117a3565b6000826001600160a01b0316846001600160a01b03161115614373579192915b6001600160a01b0384166143b3600160601b600160e01b03606085901b1661439b87876158de565b6001600160a01b0316866001600160a01b03166117a3565b61048491906158fe565b6040805180820182526009815268726566756e64696e6760b81b602082015260c083015160e084015192516370a0823160e01b8152306004820152614484936001600160801b039283169216906001600160a01b037f000000000000000000000000000000000000000000000000000000000000000016906370a0823190602401602060405180830381865afa15801561445b573d6000803e3d6000fd5b505050506040513d601f19601f8201168201806040525081019061447f919061557f565b6148ef565b60008160e001518260c0015161449a9190615912565b6001600160801b0316905081610100015115614553577f00000000000000000000000000000000000000000000000000000000000000006001600160a01b031663a9059cbb338460e001516001600160801b03166040518363ffffffff1660e01b815260040161450b9291906155c7565b6020604051808303816000875af115801561452a573d6000803e3d6000fd5b505050506040513d601f19601f8201168201806040525081019061454e91906155e0565b505050565b7f00000000000000000000000000000000000000000000000000000000000000006001600160a01b031663a9059cbb338460e001516001600160801b03166040518363ffffffff1660e01b815260040161450b9291906155c7565b60008060008060005b8651811015614745578681815181106145d2576145d2615598565b6020026020010151602001516001600160801b0316600003156147335786818151811061460157614601615598565b602002602001015160000151915061462e86670de0b6b3a7640000898481518110612e0857612e08615598565b92508287828151811061464357614643615598565b6020908102919091018101516001600160801b039092169101528715614702576146a461466f83611bbe565b61469c610ae97f0000000000000000000000000000000000000000000000000000000000000000866153bf565b856001611ee1565b6146ae908661521f565b94506146f16146bc83611bbe565b6146e9610ae97f0000000000000000000000000000000000000000000000000000000000000000866153bf565b856001611f98565b6146fb908561521f565b9350614733565b61470e6146bc83611bbe565b614718908661521f565b945061472661466f83611bbe565b614730908561521f565b93505b8061473d816155ae565b9150506145b7565b505050935093915050565b80821061475c57505050565b60016147688383615232565b1161477257505050565b81816000856002614783848661521f565b61478d91906158fe565b8151811061479d5761479d615598565b602002602001015190505b8183116148c9575b806000015160020b8684815181106147ca576147ca615598565b60200260200101516000015160020b12156147f157826147e9816155ae565b9350506147b0565b806000015160020b86838151811061480b5761480b615598565b60200260200101516000015160020b1315614832578161482a816158c7565b9250506147f1565b8183116148c45785828151811061484b5761484b615598565b602002602001015186848151811061486557614865615598565b602002602001015187858151811061487f5761487f615598565b6020026020010188858151811061489857614898615598565b60200260200101829052829052505082806148b2906155ae565b93505081806148c0906158c7565b9250505b6147a8565b818510156148dc576148dc868684614750565b83831015610e4557610e45868486614750565b614938848484846040516024016149099493929190615932565b60408051601f198184030181529190526020810180516001600160e01b03166304772b3360e11b17905261493e565b50505050565b80516a636f6e736f6c652e6c6f67602083016000808483855afa5050505050565b60405180610180016040528060006001600160a01b031681526020016000815260200160008152602001600081526020016000815260200160006001600160801b0316815260200160006001600160801b0316815260200160006001600160801b03168152602001600015158152602001600063ffffffff168152602001600063ffffffff168152602001606081525090565b6040518061028001604052806000815260200160008152602001600081526020016000815260200160006001600160a01b03168152602001600060020b815260200160006001600160a01b0316815260200160008152602001600081526020016000815260200160008152602001614a6861495f565b815260200160006001600160a01b03168152602001600060020b8152602001600060020b8152602001600081526020016000815260200160006001600160801b0316815260200160608152602001606081525090565b6040518060c001604052806000815260200160008152602001600081526020016000815260200160008152602001600081525090565b8015158114614b0257600080fd5b50565b634e487b7160e01b600052604160045260246000fd5b604051606081016001600160401b0381118282101715614b3d57614b3d614b05565b60405290565b60405161018081016001600160401b0381118282101715614b3d57614b3d614b05565b604051601f8201601f191681016001600160401b0381118282101715614b8e57614b8e614b05565b604052919050565b60006001600160401b03821115614baf57614baf614b05565b5060051b60200190565b8060020b8114614b0257600080fd5b6001600160801b0381168114614b0257600080fd5b600082601f830112614bee57600080fd5b81356020614c03614bfe83614b96565b614b66565b82815260609283028501820192828201919087851115614c2257600080fd5b8387015b85811015614c7b5781818a031215614c3e5760008081fd5b614c46614b1b565b8135614c5181614bb9565b815281860135614c6081614bc8565b81870152604082810135908201528452928401928101614c26565b5090979650505050505050565b600080600080600060a08688031215614ca057600080fd5b8535945060208601359350604086013592506060860135614cc081614af4565b915060808601356001600160401b03811115614cdb57600080fd5b614ce788828901614bdd565b9150509295509295909350565b600081518084526020808501945080840160005b83811015614d48578151805160020b88526020808201516001600160801b0316908901526040908101519088015260608701965090820190600101614d08565b509495945050505050565b80516001600160a01b0316825260006101806020830151602085015260408301516040850152606083015160608501526080830151608085015260a0830151614da760a08601826001600160801b03169052565b5060c0830151614dc260c08601826001600160801b03169052565b5060e0830151614ddd60e08601826001600160801b03169052565b50610100838101511515908501526101208084015163ffffffff90811691860191909152610140808501519091169085015261016080840151818601839052610a2883870182614cf4565b606081526000614e3b6060830186614d53565b60208301949094525060400152919050565b6001600160a01b0381168114614b0257600080fd5b600080600060608486031215614e7757600080fd5b8335614e8281614e4d565b9250602084013591506040840135614e9981614af4565b809150509250925092565b600080600060608486031215614eb957600080fd5b8335614ec481614af4565b95602085013595506040909401359392505050565b8460020b81528360020b6020820152608060408201526000614efe6080830185614cf4565b905082606083015295945050505050565b600060208284031215614f2157600080fd5b813561048781614e4d565b60008060008060808587031215614f4257600080fd5b8435935060208501359250604085013591506060850135614f6281614af4565b939692955090935050565b60008060408385031215614f8057600080fd5b8235614f8b81614bb9565b91506020830135614f9b81614af4565b809150509250929050565b60008060408385031215614fb957600080fd5b8235614f8b81614e4d565b60008060408385031215614fd757600080fd5b82356001600160401b03811115614fed57600080fd5b614ff985828601614bdd565b9250506020830135614f9b81614af4565b60008060006060848603121561501f57600080fd5b833561502a81614e4d565b9250602084013561503a81614af4565b929592945050506040919091013590565b6000806000806060858703121561506157600080fd5b843593506020850135925060408501356001600160401b038082111561508657600080fd5b818701915087601f83011261509a57600080fd5b8135818111156150a957600080fd5b8860208285010111156150bb57600080fd5b95989497505060200194505050565b634e487b7160e01b600052601160045260246000fd5b8082028115828204841417610895576108956150ca565b634e487b7160e01b600052601260045260246000fd5b60006001600160a01b0383811680615127576151276150f7565b92169190910492915050565b6001600160a01b0382811682821681810283169291811582850482141761515c5761515c6150ca565b50505092915050565b805161ffff8116811461517757600080fd5b919050565b805161517781614af4565b600080600080600080600060e0888a0312156151a257600080fd5b87516151ad81614e4d565b60208901519097506151be81614bb9565b95506151cc60408901615165565b94506151da60608901615165565b93506151e860808901615165565b925060a088015160ff811681146151fe57600080fd5b60c089015190925061520f81614af4565b8091505092959891949750929550565b80820180821115610895576108956150ca565b81810381811115610895576108956150ca565b805161517781614bc8565b600082601f83011261526157600080fd5b81516020615271614bfe83614b96565b8281526060928302850182019282820191908785111561529057600080fd5b8387015b85811015614c7b5781818a0312156152ac5760008081fd5b6152b4614b1b565b81516152bf81614bb9565b8152818601516152ce81614bc8565b81870152604082810151908201528452928401928101615294565b600080600080608085870312156152ff57600080fd5b845161530a81614bb9565b602086015190945061531b81614bb9565b6040860151606087015191945092506001600160401b0381111561533e57600080fd5b61534a87828801615250565b91505092959194509250565b6080815260006153696080830187614cf4565b9415156020830152509115156040830152606090910152919050565b60008160020b8360020b8061539c5761539c6150f7565b627fffff198214600019821416156153b6576153b66150ca565b90059392505050565b600281810b9083900b01627fffff8113627fffff1982121715610895576108956150ca565b60008260020b8260020b028060020b9150808214610bb657610bb66150ca565b6001600160a01b039384168152919092166020820152901515604082015260600190565b805161517781614e4d565b805163ffffffff8116811461517757600080fd5b60006020828403121561545957600080fd5b81516001600160401b038082111561547057600080fd5b90830190610180828603121561548557600080fd5b61548d614b43565b61549683615428565b8152602083015160208201526040830151604082015260608301516060820152608083015160808201526154cc60a08401615245565b60a08201526154dd60c08401615245565b60c08201526154ee60e08401615245565b60e082015261010061550181850161517c565b90820152610120615513848201615433565b90820152610140615525848201615433565b90820152610160838101518381111561553d57600080fd5b61554988828701615250565b918301919091525095945050505050565b60408152600061556d6040830185614cf4565b90508260020b60208301529392505050565b60006020828403121561559157600080fd5b5051919050565b634e487b7160e01b600052603260045260246000fd5b6000600182016155c0576155c06150ca565b5060010190565b6001600160a01b03929092168252602082015260400190565b6000602082840312156155f257600080fd5b815161048781614af4565b6001600160a01b039384168152919092166020820152604081019190915260600190565b6000815180845260005b818110156156475760208185018101518683018201520161562b565b506000602082860101526020601f19601f83011685010191505092915050565b6001600160a01b0386811682528515156020830152604082018590528316606082015260a060808201819052600090611f8d90830184615621565b600080604083850312156156b557600080fd5b505080516020909101519092909150565b6000600160ff1b82016156db576156db6150ca565b5060000390565b6020815260006104876020830184614d53565b60006020828403121561570757600080fd5b815161048781614bc8565b6020815260006104876020830184614cf4565b60006020828403121561573757600080fd5b81516001600160401b0381111561574d57600080fd5b61089184828501615250565b60208152600060018060a01b0380845116602084015260208401511515604084015280604085015116606084015250606083015160808084015261089160a0840182614d53565b6001600160801b03818116838216019080821115610bb657610bb66150ca565b60208082526004908201526319985a5b60e21b604082015260600190565b8181036000831280158383131683831282161715610bb657610bb66150ca565b6040815260006158116040830185614cf4565b90508260208301529392505050565b6000806040838503121561583357600080fd5b825161583e81614af4565b809250506020808401516001600160401b0381111561585c57600080fd5b8401601f8101861361586d57600080fd5b805161587b614bfe82614b96565b81815260059190911b8201830190838101908883111561589a57600080fd5b928401925b828410156158b85783518252928401929084019061589f565b80955050505050509250929050565b6000816158d6576158d66150ca565b506000190190565b6001600160a01b03828116828216039080821115610bb657610bb66150ca565b60008261590d5761590d6150f7565b500490565b6001600160801b03828116828216039080821115610bb657610bb66150ca565b6080815260006159456080830187615621565b602083019590955250604081019290925260609091015291905056fea2646970667358221220232a6a4b03c773ce6a41daf8e9af9c2d8ccc3445520f506e08dc5768af9d44a564736f6c63430008110033",
    "linkReferences": {}
  },
  "methodIdentifiers": {
    "INTEREST_REPLENISH_TIME()": "9aa886da",
    "addPosition(uint256,uint256,uint256,bool)": "3cd7bca7",
    "addPositionSpecfied(uint256,uint256,uint256,bool,(int24,uint128,uint256)[])": "0d3401ee",
    "applySlippageX96(uint160,uint256,bool)": "207b0576",
    "borrow(bool,uint256,uint256)": "25350f8e",
    "closeMaxSlippage()": "6ef83ef7",
    "closePosition(address,bool,uint256)": "7ea9843b",
    "getFilledAmount((int24,uint128,uint256)[],bool)": "786afbcc",
    "getNewPremiumQuote()": "08abb6d3",
    "globalStorage()": "6502072a",
    "liquidityManager()": "33827438",
    "payPremium(address,bool)": "3e45c92f",
    "pool()": "16f0115b",
    "precision()": "d3b5dc3b",
    "reducePosition(bool,uint256,uint256)": "deff1bdc",
    "roundTick(int24,bool)": "3dc306ee",
    "setLiquidityManager(address)": "3c1624d4",
    "tickSpacing()": "d0c93a7c",
    "token0()": "0dfe1681",
    "token1()": "d21220a7",
    "uniswapV3SwapCallback(int256,int256,bytes)": "fa461e33"
  },
  "id": 36
}