{
  "_format": "hh-sol-artifact-1",
  "contractName": "LeverageManager",
  "sourceName": "src/LeverageManager.sol",
  "abi": [
    {
      "inputs": [
        {
          "internalType": "address",
          "name": "_pool",
          "type": "address"
        }
      ],
      "stateMutability": "nonpayable",
      "type": "constructor"
    },
    {
      "inputs": [],
      "name": "R",
      "type": "error"
    },
    {
      "inputs": [],
      "name": "T",
      "type": "error"
    },
    {
      "inputs": [],
      "name": "INTEREST_REPLENISH_TIME",
      "outputs": [
        {
          "internalType": "uint256",
          "name": "",
          "type": "uint256"
        }
      ],
      "stateMutability": "view",
      "type": "function"
    },
    {
      "inputs": [
        {
          "internalType": "uint160",
          "name": "price",
          "type": "uint160"
        },
        {
          "internalType": "uint256",
          "name": "maxSlippage",
          "type": "uint256"
        },
        {
          "internalType": "bool",
          "name": "down",
          "type": "bool"
        }
      ],
      "name": "applySlippageX96",
      "outputs": [
        {
          "internalType": "uint160",
          "name": "",
          "type": "uint160"
        }
      ],
      "stateMutability": "pure",
      "type": "function"
    },
    {
      "inputs": [
        {
          "internalType": "bool",
          "name": "zeroForOne",
          "type": "bool"
        },
        {
          "internalType": "int256",
          "name": "amountSpecified",
          "type": "int256"
        },
        {
          "internalType": "uint256",
          "name": "leverage",
          "type": "uint256"
        }
      ],
      "name": "borrow",
      "outputs": [
        {
          "internalType": "uint160",
          "name": "",
          "type": "uint160"
        },
        {
          "internalType": "uint160",
          "name": "",
          "type": "uint160"
        },
        {
          "internalType": "uint128",
          "name": "",
          "type": "uint128"
        },
        {
          "internalType": "uint256",
          "name": "",
          "type": "uint256"
        }
      ],
      "stateMutability": "nonpayable",
      "type": "function"
    },
    {
      "inputs": [],
      "name": "closeMaxSlippage",
      "outputs": [
        {
          "internalType": "uint256",
          "name": "",
          "type": "uint256"
        }
      ],
      "stateMutability": "view",
      "type": "function"
    },
    {
      "inputs": [
        {
          "internalType": "uint256",
          "name": "nonce",
          "type": "uint256"
        },
        {
          "internalType": "address",
          "name": "trader",
          "type": "address"
        },
        {
          "internalType": "uint256",
          "name": "userSpecifiedSlippage",
          "type": "uint256"
        }
      ],
      "name": "closePosition",
      "outputs": [],
      "stateMutability": "nonpayable",
      "type": "function"
    },
    {
      "inputs": [
        {
          "internalType": "uint256",
          "name": "traderFund",
          "type": "uint256"
        },
        {
          "internalType": "uint256",
          "name": "maxSlippage",
          "type": "uint256"
        },
        {
          "internalType": "uint256",
          "name": "borrowAmount",
          "type": "uint256"
        },
        {
          "internalType": "bool",
          "name": "isLong",
          "type": "bool"
        }
      ],
      "name": "createLevPosition",
      "outputs": [
        {
          "components": [
            {
              "internalType": "uint256",
              "name": "totalPosition",
              "type": "uint256"
            },
            {
              "internalType": "uint256",
              "name": "totalDebt",
              "type": "uint256"
            },
            {
              "internalType": "uint256",
              "name": "totalDebtInput",
              "type": "uint256"
            },
            {
              "internalType": "int24",
              "name": "creationTick",
              "type": "int24"
            },
            {
              "internalType": "uint128",
              "name": "borrowedLiq",
              "type": "uint128"
            },
            {
              "internalType": "bool",
              "name": "isToken0",
              "type": "bool"
            },
            {
              "internalType": "uint32",
              "name": "openTime",
              "type": "uint32"
            },
            {
              "internalType": "uint32",
              "name": "repayTime",
              "type": "uint32"
            },
            {
              "internalType": "int24",
              "name": "borrowStartTick",
              "type": "int24"
            },
            {
              "internalType": "int24",
              "name": "borrowFinishTick",
              "type": "int24"
            }
          ],
          "internalType": "struct LeverageManager.Position",
          "name": "",
          "type": "tuple"
        },
        {
          "internalType": "uint256",
          "name": "",
          "type": "uint256"
        },
        {
          "internalType": "uint256",
          "name": "",
          "type": "uint256"
        }
      ],
      "stateMutability": "nonpayable",
      "type": "function"
    },
    {
      "inputs": [
        {
          "internalType": "int24",
          "name": "curTick",
          "type": "int24"
        },
        {
          "internalType": "bool",
          "name": "zeroForOne",
          "type": "bool"
        },
        {
          "internalType": "uint128",
          "name": "liquidity",
          "type": "uint128"
        }
      ],
      "name": "getNextTick",
      "outputs": [
        {
          "internalType": "int24",
          "name": "",
          "type": "int24"
        },
        {
          "internalType": "bool",
          "name": "",
          "type": "bool"
        }
      ],
      "stateMutability": "view",
      "type": "function"
    },
    {
      "inputs": [
        {
          "internalType": "address",
          "name": "trader",
          "type": "address"
        },
        {
          "internalType": "uint256",
          "name": "nonce",
          "type": "uint256"
        }
      ],
      "name": "getPosition",
      "outputs": [
        {
          "components": [
            {
              "internalType": "uint256",
              "name": "totalPosition",
              "type": "uint256"
            },
            {
              "internalType": "uint256",
              "name": "totalDebt",
              "type": "uint256"
            },
            {
              "internalType": "uint256",
              "name": "totalDebtInput",
              "type": "uint256"
            },
            {
              "internalType": "int24",
              "name": "creationTick",
              "type": "int24"
            },
            {
              "internalType": "uint128",
              "name": "borrowedLiq",
              "type": "uint128"
            },
            {
              "internalType": "bool",
              "name": "isToken0",
              "type": "bool"
            },
            {
              "internalType": "uint32",
              "name": "openTime",
              "type": "uint32"
            },
            {
              "internalType": "uint32",
              "name": "repayTime",
              "type": "uint32"
            },
            {
              "internalType": "int24",
              "name": "borrowStartTick",
              "type": "int24"
            },
            {
              "internalType": "int24",
              "name": "borrowFinishTick",
              "type": "int24"
            }
          ],
          "internalType": "struct LeverageManager.Position",
          "name": "",
          "type": "tuple"
        }
      ],
      "stateMutability": "view",
      "type": "function"
    },
    {
      "inputs": [
        {
          "internalType": "address",
          "name": "trader",
          "type": "address"
        },
        {
          "internalType": "uint256",
          "name": "nonce",
          "type": "uint256"
        }
      ],
      "name": "isLiquidatable",
      "outputs": [
        {
          "internalType": "bool",
          "name": "",
          "type": "bool"
        }
      ],
      "stateMutability": "view",
      "type": "function"
    },
    {
      "inputs": [],
      "name": "liquidityManager",
      "outputs": [
        {
          "internalType": "contract LiquidityManager",
          "name": "",
          "type": "address"
        }
      ],
      "stateMutability": "view",
      "type": "function"
    },
    {
      "inputs": [],
      "name": "nonce",
      "outputs": [
        {
          "internalType": "uint256",
          "name": "",
          "type": "uint256"
        }
      ],
      "stateMutability": "view",
      "type": "function"
    },
    {
      "inputs": [
        {
          "internalType": "address",
          "name": "trader",
          "type": "address"
        },
        {
          "internalType": "uint256",
          "name": "nonce",
          "type": "uint256"
        }
      ],
      "name": "payPremium",
      "outputs": [
        {
          "internalType": "uint256",
          "name": "",
          "type": "uint256"
        }
      ],
      "stateMutability": "nonpayable",
      "type": "function"
    },
    {
      "inputs": [
        {
          "internalType": "int24",
          "name": "borrowStartTick",
          "type": "int24"
        },
        {
          "internalType": "int24",
          "name": "borrowFinishTick",
          "type": "int24"
        },
        {
          "internalType": "uint256",
          "name": "rate",
          "type": "uint256"
        },
        {
          "internalType": "uint256",
          "name": "borrowedAmount",
          "type": "uint256"
        },
        {
          "internalType": "bool",
          "name": "isToken0",
          "type": "bool"
        },
        {
          "internalType": "uint256[]",
          "name": "liquidities",
          "type": "uint256[]"
        }
      ],
      "name": "payPremiumToPool",
      "outputs": [
        {
          "internalType": "uint256",
          "name": "premium",
          "type": "uint256"
        }
      ],
      "stateMutability": "nonpayable",
      "type": "function"
    },
    {
      "inputs": [],
      "name": "pool",
      "outputs": [
        {
          "internalType": "contract UniswapV3Pool",
          "name": "",
          "type": "address"
        }
      ],
      "stateMutability": "view",
      "type": "function"
    },
    {
      "inputs": [
        {
          "internalType": "bytes32",
          "name": "",
          "type": "bytes32"
        }
      ],
      "name": "positions",
      "outputs": [
        {
          "internalType": "uint256",
          "name": "totalPosition",
          "type": "uint256"
        },
        {
          "internalType": "uint256",
          "name": "totalDebt",
          "type": "uint256"
        },
        {
          "internalType": "uint256",
          "name": "totalDebtInput",
          "type": "uint256"
        },
        {
          "internalType": "int24",
          "name": "creationTick",
          "type": "int24"
        },
        {
          "internalType": "uint128",
          "name": "borrowedLiq",
          "type": "uint128"
        },
        {
          "internalType": "bool",
          "name": "isToken0",
          "type": "bool"
        },
        {
          "internalType": "uint32",
          "name": "openTime",
          "type": "uint32"
        },
        {
          "internalType": "uint32",
          "name": "repayTime",
          "type": "uint32"
        },
        {
          "internalType": "int24",
          "name": "borrowStartTick",
          "type": "int24"
        },
        {
          "internalType": "int24",
          "name": "borrowFinishTick",
          "type": "int24"
        }
      ],
      "stateMutability": "view",
      "type": "function"
    },
    {
      "inputs": [],
      "name": "precision",
      "outputs": [
        {
          "internalType": "uint256",
          "name": "",
          "type": "uint256"
        }
      ],
      "stateMutability": "view",
      "type": "function"
    },
    {
      "inputs": [
        {
          "internalType": "int24",
          "name": "tick",
          "type": "int24"
        },
        {
          "internalType": "bool",
          "name": "down",
          "type": "bool"
        }
      ],
      "name": "roundTick",
      "outputs": [
        {
          "internalType": "int24",
          "name": "",
          "type": "int24"
        }
      ],
      "stateMutability": "view",
      "type": "function"
    },
    {
      "inputs": [
        {
          "internalType": "address",
          "name": "ad",
          "type": "address"
        }
      ],
      "name": "setLiquidityManager",
      "outputs": [],
      "stateMutability": "nonpayable",
      "type": "function"
    },
    {
      "inputs": [],
      "name": "tickSpacing",
      "outputs": [
        {
          "internalType": "int24",
          "name": "",
          "type": "int24"
        }
      ],
      "stateMutability": "view",
      "type": "function"
    },
    {
      "inputs": [],
      "name": "token0",
      "outputs": [
        {
          "internalType": "contract ERC20",
          "name": "",
          "type": "address"
        }
      ],
      "stateMutability": "view",
      "type": "function"
    },
    {
      "inputs": [],
      "name": "token1",
      "outputs": [
        {
          "internalType": "contract ERC20",
          "name": "",
          "type": "address"
        }
      ],
      "stateMutability": "view",
      "type": "function"
    },
    {
      "inputs": [
        {
          "internalType": "uint256",
          "name": "amount0Owed",
          "type": "uint256"
        },
        {
          "internalType": "uint256",
          "name": "amount1Owed",
          "type": "uint256"
        },
        {
          "internalType": "bytes",
          "name": "data",
          "type": "bytes"
        }
      ],
      "name": "uniswapV3MintCallback",
      "outputs": [],
      "stateMutability": "nonpayable",
      "type": "function"
    },
    {
      "inputs": [
        {
          "internalType": "int256",
          "name": "amount0Delta",
          "type": "int256"
        },
        {
          "internalType": "int256",
          "name": "amount1Delta",
          "type": "int256"
        },
        {
          "internalType": "bytes",
          "name": "data",
          "type": "bytes"
        }
      ],
      "name": "uniswapV3SwapCallback",
      "outputs": [],
      "stateMutability": "nonpayable",
      "type": "function"
    }
  ],
  "bytecode": "0x60e06040523480156200001157600080fd5b5060405162005685380380620056858339810160408190526200003491620001c8565b600080546001600160a01b0319166001600160a01b03831690811790915560408051630dfe168160e01b81529051630dfe1681916004808201926020929091908290030181865afa1580156200008e573d6000803e3d6000fd5b505050506040513d601f19601f82011682018060405250810190620000b49190620001c8565b60008054906101000a90046001600160a01b03166001600160a01b031663d21220a76040518163ffffffff1660e01b8152600401602060405180830381865afa15801562000106573d6000803e3d6000fd5b505050506040513d601f19601f820116820180604052508101906200012c9190620001c8565b6001600160a01b0390811660c05290811660a052600054604080516334324e9f60e21b81529051919092169163d0c93a7c9160048083019260209291908290030181865afa15801562000183573d6000803e3d6000fd5b505050506040513d601f19601f82011682018060405250810190620001a99190620001fa565b600290810b608052670de7d1b0f0f1000060045560019055506200021f565b600060208284031215620001db57600080fd5b81516001600160a01b0381168114620001f357600080fd5b9392505050565b6000602082840312156200020d57600080fd5b81518060020b8114620001f357600080fd5b60805160a05160c051615364620003216000396000818161046b01528181611ac30152818161238301528181612446015281816129d80152818161305f015281816130d10152818161331f015261370901526000818161015701528181611b5c015281816122fb015281816124e30152818161294401528181612dab015281816131cc0152818161323e0152818161334501526136720152600081816104440152818161064301528181610671015281816106af01528181610c1201528181610c880152818161105d015281816110b401528181611679015281816117090152818161192d015281816119c0015281816119f00152611a2e01526153646000f3fe608060405234801561001057600080fd5b506004361061014d5760003560e01c806380753d27116100c3578063d0c93a7c1161007c578063d0c93a7c1461043f578063d21220a714610466578063d34879971461048d578063d3b5dc3b146104a0578063d8b83f3a146104af578063fa461e33146104c257600080fd5b806380753d27146103b7578063946e986c146103e45780639aa886da14610406578063a9de6d6c14610410578063affed0e014610423578063bc2704bf1461042c57600080fd5b80633c1624d4116101155780633c1624d4146101ef5780633dc306ee146102215780633fdfb2aa1461024757806340f6ea541461026a578063514ea4bf146102b65780636ef83ef7146103a057600080fd5b80630dfe16811461015257806316f0115b14610196578063207b0576146101a957806333827438146101bc5780633adbb5af146101cf575b600080fd5b6101797f000000000000000000000000000000000000000000000000000000000000000081565b6040516001600160a01b0390911681526020015b60405180910390f35b600054610179906001600160a01b031681565b6101796101b7366004614512565b6104d5565b600154610179906001600160a01b031681565b6101e26101dd366004614554565b610557565b60405161018d9190614638565b61021f6101fd366004614647565b600180546001600160a01b0319166001600160a01b0392909216919091179055565b005b61023461022f366004614673565b61063b565b60405160029190910b815260200161018d565b61025a610255366004614554565b6106dc565b604051901515815260200161018d565b61027d6102783660046146ac565b6107d1565b604080516001600160a01b0395861681529490931660208501526001600160801b0390911691830191909152606082015260800161018d565b61033c6102c43660046146e1565b6003602081905260009182526040909120805460018201546002808401549484015460049094015492949193919282820b926001600160801b0363010000008204169260ff600160981b8304169263ffffffff600160a01b8404811693600160c01b810490911692600160e01b909104810b91900b8a565b604080519a8b5260208b019990995297890196909652600294850b60608901526001600160801b03909316608088015290151560a087015263ffffffff90811660c08701521660e085015290810b6101008401520b6101208201526101400161018d565b6103a960045481565b60405190815260200161018d565b6103ca6103c536600461470f565b611910565b6040805160029390930b835290151560208301520161018d565b6103f76103f236600461474f565b611a93565b60405161018d93929190614790565b6103a96201518081565b6103a961041e366004614846565b61241d565b6103a960025481565b6103a961043a366004614554565b6125d6565b6102347f000000000000000000000000000000000000000000000000000000000000000081565b6101797f000000000000000000000000000000000000000000000000000000000000000081565b61021f61049b366004614971565b61291c565b6103a9670de0b6b3a764000081565b61021f6104bd3660046149c4565b612a5c565b61021f6104d0366004614971565b61363d565b60008161051057670de0b6b3a76400006104f76104f28583614a12565b613747565b6105019086614a29565b61050b9190614a71565b61054d565b670de0b6b3a76400006105396105278280876137eb565b6104f290670de0b6b3a7640000614a12565b6105439086614a29565b61054d9190614a71565b90505b9392505050565b61055f614392565b600360008484604051602001610576929190614a97565b60408051601f1981840301815291815281516020928301208352828201939093529082016000208251610140810184528154815260018201549281019290925260028082015493830193909352600381015480840b60608401526001600160801b036301000000820416608084015260ff600160981b820416151560a084015263ffffffff600160a01b8204811660c0850152600160c01b82041660e0840152600160e01b9004830b6101008301526004015490910b61012082015290505b92915050565b6000806106687f000000000000000000000000000000000000000000000000000000000000000085614ab9565b9050826106aa577f000000000000000000000000000000000000000000000000000000000000000061069b826001614af3565b6106a59190614b18565b6106d4565b6106d47f000000000000000000000000000000000000000000000000000000000000000082614b18565b949350505050565b6000806003600085856040516020016106f6929190614a97565b60408051601f1981840301815291815281516020928301208352828201939093529082016000208251610140810184528154815260018201549281019290925260028082015493830193909352600381015480840b60608401526001600160801b036301000000820416608084015260ff600160981b820416151560a084015263ffffffff600160a01b8204811660c0850152600160c01b82041660e08401819052600160e01b909104840b61010084015260049091015490920b61012082015291506107c7906201518090614b3f565b4211949350505050565b6000806000806107df6143e6565b670de0b6b3a7640000861161082c5760405162461bcd60e51b815260206004820152600e60248201526d77726f6e67206c6576657261676560901b60448201526064015b60405180910390fd5b60008054906101000a90046001600160a01b03166001600160a01b0316633850c7bd6040518163ffffffff1660e01b815260040160e060405180830381865afa15801561087d573d6000803e3d6000fd5b505050506040513d601f19601f820116820180604052508101906108a19190614b64565b5050505060029190910b6080840152506001600160a01b03166060820181905261092090896108f4576108dd670de0b6b3a7640000808a6137eb565b6108ef90670de0b6b3a7640000614b3f565b610919565b610907670de0b6b3a7640000808a6137eb565b61091990670de0b6b3a7640000614bfc565b60006104d5565b6001600160a01b0316610180820181905260045461093f91908a6104d5565b6001600160a01b0390811661018083015260005460408051630d34328160e11b815290519190921691631a6865029160048083019260209291908290030181865afa158015610992573d6000803e3d6000fd5b505050506040513d601f19601f820116820180604052508101906109b69190614c0f565b6001600160801b03166102a0820181905260808201516109d7918a90611910565b5060020b61020082018190526109ec9061389d565b8160e001906001600160a01b031690816001600160a01b03168152505060006040518060c00160405280600060ff168152602001836102a001516001600160801b031681526020014263ffffffff168152602001600060060b815260200160006001600160a01b0316815260200160001515815250905060006040518060e001604052808a8152602001600081526020018460e001516001600160a01b0316815260200184610200015160020b81526020016000815260200160006001600160801b0316815260200183602001516001600160801b0316815250905060008060009054906101000a90046001600160a01b03166001600160a01b031663ddc96b4a83606001516040518263ffffffff1660e01b8152600401610b17919060029190910b815260200190565b602060405180830381865afa158015610b34573d6000803e3d6000fd5b505050506040513d601f19601f82011682018060405250810190610b589190614c2c565b600054606084015160405163c504ae6560e01b815260029190910b60048201529192506001600160a01b03169063c504ae6590602401602060405180830381865afa158015610bab573d6000803e3d6000fd5b505050506040513d601f19601f82011682018060405250810190610bcf9190614c2c565b610bd99082614c4f565b90508a15610bed57610bea81614c85565b90505b610bfb8260c0015182613bc0565b6001600160801b031660c0830152508915610c86577f0000000000000000000000000000000000000000000000000000000000000000610c49610c42856101800151613c80565b600161063b565b610c59610c428660e00151613c80565b610c639190614cab565b610c6d9190614ab9565b610c78906001614af3565b60020b6101a0840152610cf1565b7f0000000000000000000000000000000000000000000000000000000000000000610cb7610c428560e00151613c80565b610cc8610c42866101800151613c80565b610cd29190614cab565b610cdc9190614ab9565b610ce7906002614af3565b60020b6101a08401525b6000836101a0015167ffffffffffffffff811115610d1157610d116147b2565b604051908082528060200260200182016040528015610d6357816020015b604080516080810182526000808252602080830182905292820181905260608201528252600019909201910181610d2f5790505b509050600160009054906101000a90046001600160a01b03166001600160a01b031663826054b882848e8861018001516040518563ffffffff1660e01b8152600401610db29493929190614cd0565b600060405180830381865afa158015610dcf573d6000803e3d6000fd5b505050506040513d6000823e601f3d908101601f19168201604052610df79190810190614e6d565b81519093509091506000908b908290610e1290600190614bfc565b905060008190506000610e2786516002613f86565b90505b858381518110610e3c57610e3c614f5d565b60200260200101516040015185610e539190614b3f565b945080610e608484614bfc565b610e6b906001614b3f565b03610eb15783851015610edf57858281518110610e8a57610e8a614f5d565b60200260200101516040015185610ea19190614bfc565b9450610eae600183614bfc565b91505b82158015610ebe57508385105b15610ecd576000199250610edf565b82610ed781614f73565b935050610e2a565b826000198114610feb5760005b6001610ef88487614b3f565b610f029190614bfc565b8211610f4d57878281518110610f1a57610f1a614f5d565b60200260200101516040015181610f319190614b3f565b905085811015610f4d5781610f4581614f8a565b925050610eec565b506000815b858110610f9e57888181518110610f6b57610f6b614f5d565b60200260200101516040015182610f829190614b3f565b915086821015610f9e5780610f9681614f73565b915050610f52565b945084805b838111610fe757898181518110610fbc57610fbc614f5d565b602002602001015160400151600003610fd55760001996505b80610fdf81614f8a565b915050610fa3565b5050505b6000198403611011576000806000809d509d509d509d5050505050505050505050611907565b8660008151811061102457611024614f5d565b60200260200101516000015160020b8760018151811061104657611046614f5d565b60200260200101516000015160020b12156110b2577f000000000000000000000000000000000000000000000000000000000000000087858151811061108e5761108e614f5d565b6020026020010151600001516110a49190614af3565b60020b6101c08b0152611105565b7f00000000000000000000000000000000000000000000000000000000000000008785815181106110e5576110e5614f5d565b6020026020010151600001516110fb9190614cab565b60020b6101c08b01525b86818151811061111757611117614f5d565b60209081029190910101515160020b6101e08b015283611138826001614b3f565b6111429190614bfc565b6102608b01819052600090819067ffffffffffffffff811115611167576111676147b2565b604051908082528060200260200182016040528015611190578160200160208202803683370190505b5090506111b96040518060400160405280600381526020016234963560e91b8152508785613f9d565b8286116112cf578886815181106111d2576111d2614f5d565b6020026020010151606001518c610240018181516111f09190614b3f565b905250885189908790811061120757611207614f5d565b6020026020010151602001516001600160801b031681838151811061122e5761122e614f5d565b6020026020010181815250506112b06040518060400160405280600e81526020016d7574696c2f6c697175696469747960901b8152508d610240015183858151811061127c5761127c614f5d565b60200260200101518c8a8151811061129657611296614f5d565b6020026020010151602001516001600160801b0316613fe9565b6112bb600183614b3f565b9150856112c781614f8a565b9650506111b9565b6102e08c0152506102408a0151156112fc578961026001518a61024001516112f79190614fa3565b6112ff565b60005b8a6102400181815250505050505050506113656040518060400160405280601981526020017f626f72726f772073746172742066696e6973682c207574696c00000000000000815250856101c0015160020b866101e0015160020b876102400151613fe9565b8a6113945761138f61137b856101c0015161389d565b611389866101e0015161389d565b8c614038565b6113b9565b6113b96113a5856101c0015161389d565b6113b3866101e0015161389d565b8c6140ab565b6001600160801b031660a085018190526000546101c086015160405163657badc360e11b815260029190910b6004820152600f9290920b60248301528c1560448301526001600160a01b03169063caf75b8690606401600060405180830381600087803b15801561142957600080fd5b505af115801561143d573d6000803e3d6000fd5b50506000546101e087015160a088015160405163657badc360e11b815260029290920b6004830152600f0b60248201528e151560448201526001600160a01b03909116925063caf75b869150606401600060405180830381600087803b1580156114a657600080fd5b505af11580156114ba573d6000803e3d6000fd5b50506000546101c08701516101e088015160a089015160405163c9de624f60e01b8152600293840b60048201529190920b60248201526001600160801b0390911660448201528e151560648201526001600160a01b03909116925063c9de624f9150608401600060405180830381600087803b15801561153957600080fd5b505af115801561154d573d6000803e3d6000fd5b5050505061158960405180604001604052806009815260200168626f72726f776c697160b81b8152508560a001516001600160801b03166140e1565b6000546101c08501516040516322e24ce960e01b815260029190910b60048201526001600160a01b03909116906322e24ce990602401600060405180830381600087803b1580156115d957600080fd5b505af11580156115ed573d6000803e3d6000fd5b50506000546101e08701516040516322e24ce960e01b815260029190910b60048201526001600160a01b0390911692506322e24ce99150602401600060405180830381600087803b15801561164157600080fd5b505af1158015611655573d6000803e3d6000fd5b50506000546101c087015160405163b4718f9360e01b8152600291820b60048201527f000000000000000000000000000000000000000000000000000000000000000090910b60248201526001600160a01b03909116925063b4718f939150604401600060405180830381600087803b1580156116d157600080fd5b505af11580156116e5573d6000803e3d6000fd5b50506000546101e087015160405163b4718f9360e01b8152600291820b60048201527f000000000000000000000000000000000000000000000000000000000000000090910b60248201526001600160a01b03909116925063b4718f939150604401600060405180830381600087803b15801561176157600080fd5b505af1158015611775573d6000803e3d6000fd5b5050600054604051631b195bbf60e21b81528e15156004820152602481018e90526001600160a01b039091169250636c656efc9150604401600060405180830381600087803b1580156117c757600080fd5b505af11580156117db573d6000803e3d6000fd5b505060015460808701516101e08801516101c08901516001600160a01b0390931694506341c22c589350909160029161181391614af3565b61181d9190614ab9565b6102408801516040516001600160e01b031960e086901b168152600293840b60048201529190920b60248201528e1515604482015260648101919091526084016020604051808303816000875af115801561187c573d6000803e3d6000fd5b505050506040513d601f19601f820116820180604052508101906118a09190614fb7565b846102800181815250506118cc846101c00151856101e001518661028001518d8f896102e0015161241d565b6102808501526101e08401516118e19061389d565b6118ef856101c0015161389d565b8560a001518661028001519750975097509750505050505b93509350935093565b60008054604051633bcb373960e21b8152600286810b60048301527f0000000000000000000000000000000000000000000000000000000000000000900b602482015284151560448201528291829182916001600160a01b03169063ef2cdce4906064016040805180830381865afa158015611990573d6000803e3d6000fd5b505050506040513d601f19601f820116820180604052508101906119b49190614fd0565b909250905060006119e57f000000000000000000000000000000000000000000000000000000000000000089614ab9565b9050600087611a29577f0000000000000000000000000000000000000000000000000000000000000000611a1a836001614af3565b611a249190614b18565b611a53565b611a537f000000000000000000000000000000000000000000000000000000000000000083614b18565b90508060020b8460020b14611a80576001600160801b03871615611a8057945060019350611a8b92505050565b509193506000925050505b935093915050565b611a9b614392565b600080611aa66143e6565b8415611b45576040516323b872dd60e01b81526001600160a01b037f000000000000000000000000000000000000000000000000000000000000000016906323b872dd90611afc90339030908d90600401614fff565b6020604051808303816000875af1158015611b1b573d6000803e3d6000fd5b505050506040513d601f19601f82011682018060405250810190611b3f9190615023565b50611bda565b6040516323b872dd60e01b81526001600160a01b037f000000000000000000000000000000000000000000000000000000000000000016906323b872dd90611b9590339030908d90600401614fff565b6020604051808303816000875af1158015611bb4573d6000803e3d6000fd5b505050506040513d601f19601f82011682018060405250810190611bd89190615023565b505b60008054906101000a90046001600160a01b03166001600160a01b0316633850c7bd6040518163ffffffff1660e01b815260040160e060405180830381865afa158015611c2b573d6000803e3d6000fd5b505050506040513d601f19601f82011682018060405250810190611c4f9190614b64565b5050505060029190910b6080840152506001600160a01b03166060820152611c908587610278670de0b6b3a76400008c611c898185614b3f565b91906137eb565b6102808501526001600160801b031660a08401526001600160a01b0390811660e08401521660c08201819052600003611d2557604080516101408101825260008082526020808301829052928201819052606082018190526080820181905260a0820181905260c0820181905260e0820181905261010082018190526101208201529082015191519094509092509050612413565b6002611d348260c0015161412a565b611d418360e0015161412a565b611d4b9190614b3f565b611d559190614fa3565b8152600085611d7c57611d778260e001518360c001518460a00151600161415b565b611d95565b611d958260e001518360c001518460a0015160016141cb565b905085611dcf57611dca88670de0b6b3a7640000611c89670de0b6b3a7640000611dc2876060015161412a565b8691906137eb565b611dfc565b611dfc88670de0b6b3a7640000611c89611dec866060015161412a565b8590670de0b6b3a76400006137eb565b602083018181528891611e10908390614bfc565b9052506020820151611e3090670de0b6b3a764000090611c898a82614b3f565b60408301526020820151891015611ea45750604080516101408101825260008082526020808301829052928201819052606082018190526080820181905260a0820181905260c0820181905260e0820181905261010082018190526101208201529082015191519094509092509050612413565b8160200151891015611ec85760405162461bcd60e51b815260040161082390615040565b604080513060208201526000910160408051601f198184030181529190526000549091506001600160a01b031663128acb08308915611f078c8f614b3f565b611f1788606001518f8e156104d5565b866040518663ffffffff1660e01b8152600401611f389594939291906150a4565b60408051808303816000875af1158015611f56573d6000803e3d6000fd5b505050506040513d601f19601f82011682018060405250810190611f7a91906150df565b6101408501526101208401526000805460408051633850c7bd60e01b815290516001600160a01b0390921691633850c7bd9160048082019260e0929091908290030181865afa158015611fd1573d6000803e3d6000fd5b505050506040513d601f19601f82011682018060405250810190611ff59190614b64565b50505050505090508715612035578284610120015161201390615103565b116120305760405162461bcd60e51b815260040161082390615040565b612062565b8284610140015161204590615103565b116120625760405162461bcd60e51b815260040161082390615040565b60006040518061014001604052808a6120895786610140015161208490615103565b612098565b86610120015161209890615103565b81526020018581526020018b8152602001866080015160020b81526020018660a001516001600160801b031681526020018a151581526020014263ffffffff168152602001600063ffffffff1681526020016120f78760e00151613c80565b60020b815260200161210c8760c00151613c80565b60020b815250905080600360003360025460405160200161212e929190614a97565b60408051808303601f190181529181528151602092830120835282820193909352908201600090812084518155918401516001830155918301516002808301919091556060840151600383018054608087015160a088015160c089015160e08a01516101008b015162ffffff97881672ffffffffffffffffffffffffffffffffffffff199096169590951763010000006001600160801b03909516949094029390931764ffffffffff60981b1916600160981b9215159290920263ffffffff60a01b191691909117600160a01b63ffffffff928316021766ffffffffffffff60c01b1916600160c01b919092160262ffffff60e01b191617600160e01b91841691909102179055610120909401516004909201805462ffffff191692909416919091179092558154919061226183614f8a565b919050555061229e604051806040016040528060088152602001673837b9b4ba34b7b760c11b8152508260a001518360000151846020015161428b565b6122b681604001518260c0015163ffffffff166142d4565b60408051808201825260168152753130b630b731b29037b3103632bb1036b0b730b3b2b960511b602082015290516370a0823160e01b81523060048201526123fb91907f00000000000000000000000000000000000000000000000000000000000000006001600160a01b0316906370a0823190602401602060405180830381865afa15801561234a573d6000803e3d6000fd5b505050506040513d601f19601f8201168201806040525081019061236e9190614fb7565b6040516370a0823160e01b81523060048201527f00000000000000000000000000000000000000000000000000000000000000006001600160a01b0316906370a0823190602401602060405180830381865afa1580156123d2573d6000803e3d6000fd5b505050506040513d601f19601f820116820180604052508101906123f69190614fb7565b613f9d565b80856020015186610280015197509750975050505050505b9450945094915050565b67016345785d8a000082156124c9576000546040516323b872dd60e01b81526001600160a01b037f00000000000000000000000000000000000000000000000000000000000000008116926323b872dd9261248092339216908690600401614fff565b6020604051808303816000875af115801561249f573d6000803e3d6000fd5b505050506040513d601f19601f820116820180604052508101906124c39190615023565b50612562565b6000546040516323b872dd60e01b81526001600160a01b037f00000000000000000000000000000000000000000000000000000000000000008116926323b872dd9261251d92339216908690600401614fff565b6020604051808303816000875af115801561253c573d6000803e3d6000fd5b505050506040513d601f19601f820116820180604052508101906125609190615023565b505b600054604051630772d80760e51b81526001600160a01b039091169063ee5b00e09061259a908a908a90869088908a9060040161511f565b600060405180830381600087803b1580156125b457600080fd5b505af11580156125c8573d6000803e3d6000fd5b505050509695505050505050565b6000806003600085856040516020016125f0929190614a97565b604051602081830303815290604052805190602001208152602001908152602001600020905060008060008054906101000a90046001600160a01b03166001600160a01b0316633850c7bd6040518163ffffffff1660e01b815260040160e060405180830381865afa15801561266a573d6000803e3d6000fd5b505050506040513d601f19601f8201168201806040525081019061268e9190614b64565b505050505091509150600080600160009054906101000a90046001600160a01b03166001600160a01b031663b4dfbed1858560008054906101000a90046001600160a01b03166001600160a01b0316631a6865026040518163ffffffff1660e01b8152600401602060405180830381865afa158015612711573d6000803e3d6000fd5b505050506040513d601f19601f820116820180604052508101906127359190614c0f565b60038a01546004808c015460405160e088901b6001600160e01b03191681526001600160a01b0390961691860191909152600293840b60248601526001600160801b039092166044850152600160e01b9004820b6064840152900b608482015260a401600060405180830381865afa1580156127b5573d6000803e3d6000fd5b505050506040513d6000823e601f3d908101601f191682016040526127dd919081019061518c565b600154600488015460038901549395509193506000926001600160a01b03909116916341c22c5891879160029161281f91830b90600160e01b9004830b614af3565b6128299190614ab9565b60038a015460405160e085901b6001600160e01b0319168152600293840b60048201529190920b6024820152600160981b90910460ff1615156044820152606481018690526084016020604051808303816000875af1158015612890573d6000803e3d6000fd5b505050506040513d601f19601f820116820180604052508101906128b49190614fb7565b600387015460048801546002808a01549394506128ed93600160e01b8404820b939290910b91859190600160981b900460ff168761241d565b50600395909501805463ffffffff60c01b1916600160c01b4263ffffffff160217905550929695505050505050565b600061292a82840184614647565b6040516323b872dd60e01b81529091506001600160a01b037f000000000000000000000000000000000000000000000000000000000000000016906323b872dd9061297d90849033908a90600401614fff565b6020604051808303816000875af115801561299c573d6000803e3d6000fd5b505050506040513d601f19601f820116820180604052508101906129c09190615023565b506040516323b872dd60e01b81526001600160a01b037f000000000000000000000000000000000000000000000000000000000000000016906323b872dd90612a1190849033908990600401614fff565b6020604051808303816000875af1158015612a30573d6000803e3d6000fd5b505050506040513d601f19601f82011682018060405250810190612a549190615023565b505050505050565b600454612a676143e6565b600360008587604051602001612a7e929190614a97565b60408051601f1981840301815291815281516020928301208352828201939093529082016000208251610140810184528154815260018201549281019290925260028082015493830193909352600381015480840b60608401526001600160801b036301000000820416608084015260ff600160981b820416151560a0840190815263ffffffff600160a01b8304811660c0860152600160c01b83041660e0850152600160e01b909104840b61010084015260049091015490920b61012082015261016083015251156134c15760008054906101000a90046001600160a01b03166001600160a01b0316633850c7bd6040518163ffffffff1660e01b815260040160e060405180830381865afa158015612b9c573d6000803e3d6000fd5b505050506040513d601f19601f82011682018060405250810190612bc09190614b64565b5050505060029190910b6080840152506001600160a01b031660608201526101608101516101000151612c0790612bf69061389d565b8383610160015160a00151156104d5565b6001600160a01b0316610100820190815260408051808201909152601a81527f736c697070616765207469636b2063757272656e74207469636b00000000000060208201529051612c6c9190612c5c90613c80565b60020b836080015160020b613f9d565b600081610160015160a00151612ca0578161010001516001600160a01b031682606001516001600160a01b03161115612cc0565b8161010001516001600160a01b031682606001516001600160a01b031610155b9050600082610160015160a00151612d0257612ce5836101600151610120015161389d565b6001600160a01b031683606001516001600160a01b031611612d2e565b612d15836101600151610120015161389d565b6001600160a01b031683606001516001600160a01b0316105b90508115613307576040805130602082015260009101604051602081830303815290604052905085600003612d61578495505b60408051808201825260148152733130b630b731b29030b732103837b9b4ba34b7b760611b60208201526101608601515191516370a0823160e01b8152306004820152612e4392907f00000000000000000000000000000000000000000000000000000000000000006001600160a01b0316906370a0823190602401602060405180830381865afa158015612dfa573d6000803e3d6000fd5b505050506040513d601f19601f82011682018060405250810190612e1e9190614fb7565b612e3e612e3989606001518c8b610160015160a001516104d5565b61412a565b613fe9565b60005461016085015160a0810151905160608701516001600160a01b039093169263128acb089230929091612e79908c846104d5565b866040518663ffffffff1660e01b8152600401612e9a9594939291906150a4565b60408051808303816000875af1158015612eb8573d6000803e3d6000fd5b505050506040513d601f19601f82011682018060405250810190612edc91906150df565b6101408601526101208501526000805460408051633850c7bd60e01b815290516001600160a01b0390921691633850c7bd9160048082019260e0929091908290030181865afa158015612f33573d6000803e3d6000fd5b505050506040513d601f19601f82011682018060405250810190612f579190614b64565b505050505091505084610160015160a0015115612fc757846101600151610100015160020b8160020b1215612fc25760405162461bcd60e51b8152602060048201526011602482015270747261646520626f756e64206661696c3160781b6044820152606401610823565b61301b565b846101600151610100015160020b8160020b131561301b5760405162461bcd60e51b8152602060048201526011602482015270747261646520626f756e64206661696c3160781b6044820152606401610823565b84610160015160a001511561319757600054610160860151604090810151905163a9059cbb60e01b81526001600160a01b03928316600482015260248101919091527f00000000000000000000000000000000000000000000000000000000000000009091169063a9059cbb906044016020604051808303816000875af11580156130aa573d6000803e3d6000fd5b505050506040513d601f19601f820116820180604052508101906130ce9190615023565b507f00000000000000000000000000000000000000000000000000000000000000006001600160a01b031663a9059cbb898761016001516040015188610140015161311890615103565b6131229190614bfc565b6040516001600160e01b031960e085901b1681526001600160a01b03909216600483015260248201526044016020604051808303816000875af115801561316d573d6000803e3d6000fd5b505050506040513d601f19601f820116820180604052508101906131919190615023565b50613300565b600054610160860151604090810151905163a9059cbb60e01b81526001600160a01b03928316600482015260248101919091527f00000000000000000000000000000000000000000000000000000000000000009091169063a9059cbb906044016020604051808303816000875af1158015613217573d6000803e3d6000fd5b505050506040513d601f19601f8201168201806040525081019061323b9190615023565b507f00000000000000000000000000000000000000000000000000000000000000006001600160a01b031663a9059cbb898761016001516040015188610120015161328590615103565b61328f9190614bfc565b6040516001600160e01b031960e085901b1681526001600160a01b03909216600483015260248201526044016020604051808303816000875af11580156132da573d6000803e3d6000fd5b505050506040513d601f19601f820116820180604052508101906132fe9190615023565b505b50506134be565b801561348257600083610160015160a00151613343577f0000000000000000000000000000000000000000000000000000000000000000613365565b7f00000000000000000000000000000000000000000000000000000000000000005b6000546101608601516020015160405163a9059cbb60e01b81526001600160a01b039283166004820152602481019190915291925082169063a9059cbb906044016020604051808303816000875af11580156133c5573d6000803e3d6000fd5b505050506040513d601f19601f820116820180604052508101906133e99190615023565b50610160840151602081015190516001600160a01b0383169163a9059cbb918a9161341391614bfc565b6040516001600160e01b031960e085901b1681526001600160a01b03909216600483015260248201526044016020604051808303816000875af115801561345e573d6000803e3d6000fd5b505050506040513d601f19601f820116820180604052508101906133009190615023565b60405162461bcd60e51b81526020600482015260116024820152703a3930b232903137bab732103330b4b61960791b6044820152606401610823565b50505b60005461016082015161010081015160809091015160405163657badc360e11b815260029290920b6004830152600f0b6024820152600160448201526001600160a01b039091169063caf75b8690606401600060405180830381600087803b15801561352c57600080fd5b505af1158015613540573d6000803e3d6000fd5b50506000805461016085015161012081015160809091015160405163657badc360e11b815260029290920b6004830152600f0b602482015260448101929092526001600160a01b0316925063caf75b869150606401600060405180830381600087803b1580156135af57600080fd5b505af11580156135c3573d6000803e3d6000fd5b505050506003600033876040516020016135de929190614a97565b60408051601f1981840301815291815281516020928301208352908201929092520160009081208181556001810182905560028101919091556003810180546001600160f81b0319169055600401805462ffffff191690555050505050565b600061364b82840184614647565b905060008513156136ed5760405163a9059cbb60e01b8152336004820152602481018690527f00000000000000000000000000000000000000000000000000000000000000006001600160a01b03169063a9059cbb906044016020604051808303816000875af11580156136c3573d6000803e3d6000fd5b505050506040513d601f19601f820116820180604052508101906136e79190615023565b50613740565b60405163a9059cbb60e01b8152336004820152602481018590527f00000000000000000000000000000000000000000000000000000000000000006001600160a01b03169063a9059cbb90604401612a11565b5050505050565b60b581600160881b81106137605760409190911b9060801c5b6901000000000000000000811061377c5760209190911b9060401c5b6501000000000081106137945760109190911b9060201c5b630100000081106137aa5760089190911b9060101c5b62010000010260121c80820401600190811c80830401811c80830401811c80830401811c80830401811c80830401811c80830401901c908190048111900390565b6000808060001985870985870292508281108382030391505080600003613824576000841161381957600080fd5b508290049050610550565b80841161383057600080fd5b6000848688096000868103871696879004966002600389028118808a02820302808a02820302808a02820302808a02820302808a02820302808a02909103029181900381900460010186841190950394909402919094039290920491909117919091029150509392505050565b60008060008360020b126138b4578260020b6138bc565b8260020b6000035b9050620d89e88111156138e2576040516315e4079d60e11b815260040160405180910390fd5b6000816001166000036138f957600160801b61390b565b6ffffcb933bd6fad37aa2d162d1a5940015b70ffffffffffffffffffffffffffffffffff169050600282161561393f576ffff97272373d413259a46990580e213a0260801c5b600482161561395e576ffff2e50f5f656932ef12357cf3c7fdcc0260801c5b600882161561397d576fffe5caca7e10e4e61c3624eaa0941cd00260801c5b601082161561399c576fffcb9843d60f6159c9db58835c9266440260801c5b60208216156139bb576fff973b41fa98c081472e6896dfb254c00260801c5b60408216156139da576fff2ea16466c96a3843ec78b326b528610260801c5b60808216156139f9576ffe5dee046a99a2a811c461f1969c30530260801c5b610100821615613a19576ffcbe86c7900a88aedcffc83b479aa3a40260801c5b610200821615613a39576ff987a7253ac413176f2b074cf7815e540260801c5b610400821615613a59576ff3392b0822b70005940c7a398e4b70f30260801c5b610800821615613a79576fe7159475a2c29b7443b29c7fa6e889d90260801c5b611000821615613a99576fd097f3bdfd2022b8845ad8f792aa58250260801c5b612000821615613ab9576fa9f746462d870fdf8a65dc1f90e061e50260801c5b614000821615613ad9576f70d869a156d2a1b890bb3df62baf32f70260801c5b618000821615613af9576f31be135f97d08fd981231505542fcfa60260801c5b62010000821615613b1a576f09aa508b5b7a84e1c677de54f3e99bc90260801c5b62020000821615613b3a576e5d6af8dedb81196699c329225ee6040260801c5b62040000821615613b59576d2216e584f5fa1ea926041bedfe980260801c5b62080000821615613b76576b048a170391f7dc42444e8fa20260801c5b60008460020b1315613b97578060001981613b9357613b93614a5b565b0490505b640100000000810615613bab576001613bae565b60005b60ff16602082901c0192505050919050565b60008082600f0b1215613c2d576001600160801b038316613be083614c85565b613bea9085615229565b9150816001600160801b031610613c285760405162461bcd60e51b81526020600482015260026024820152614c5360f01b6044820152606401610823565b610635565b6001600160801b038316613c418385615249565b9150816001600160801b031610156106355760405162461bcd60e51b81526020600482015260026024820152614c4160f01b6044820152606401610823565b60006401000276a36001600160a01b03831610801590613cbc575073fffd8963efd1fc6a506488495d951d5263988d266001600160a01b038316105b613cd9576040516324c070df60e11b815260040160405180910390fd5b640100000000600160c01b03602083901b166001600160801b03811160071b81811c67ffffffffffffffff811160061b90811c63ffffffff811160051b90811c61ffff811160041b90811c60ff8111600390811b91821c600f811160021b90811c918211600190811b92831c97908811961790941790921717909117171760808110613d6d57607f810383901c9150613d77565b80607f0383901b91505b908002607f81811c60ff83811c9190911c800280831c81831c1c800280841c81841c1c800280851c81851c1c800280861c81861c1c800280871c81871c1c800280881c81881c1c800280891c81891c1c8002808a1c818a1c1c8002808b1c818b1c1c8002808c1c818c1c1c8002808d1c818d1c1c8002808e1c9c81901c9c909c1c80029c8d901c9e9d607f198f0160401b60c09190911c678000000000000000161760c19b909b1c674000000000000000169a909a1760c29990991c672000000000000000169890981760c39790971c671000000000000000169690961760c49590951c670800000000000000169490941760c59390931c670400000000000000169290921760c69190911c670200000000000000161760c79190911c670100000000000000161760c89190911c6680000000000000161760c99190911c6640000000000000161760ca9190911c6620000000000000161760cb9190911c6610000000000000161760cc9190911c6608000000000000161760cd9190911c66040000000000001617693627a301d71055774c8581026f028f6481ab7f045a5af012a19d003aa9198101608090811d906fdb2df09e81959a81455e260799a0632f8301901d600281810b9083900b14613f7757886001600160a01b0316613f5c8261389d565b6001600160a01b03161115613f715781613f79565b80613f79565b815b9998505050505050505050565b600081831115613f965781610550565b5090919050565b613fe4838383604051602401613fb593929190615269565b60408051601f198184030181529190526020810180516001600160e01b031663969cdd0360e01b179052614316565b505050565b61403284848484604051602401614003949392919061528e565b60408051601f198184030181529190526020810180516001600160e01b03166304772b3360e11b179052614316565b50505050565b6000826001600160a01b0316846001600160a01b03161115614058579192915b600061407b856001600160a01b0316856001600160a01b0316600160601b6137eb565b90506140a261409d848361408f89896152bd565b6001600160a01b03166137eb565b614337565b95945050505050565b6000826001600160a01b0316846001600160a01b031611156140cb579192915b61054d61409d83600160601b61408f88886152bd565b61412682826040516024016140f79291906152dd565b60408051601f198184030181529190526020810180516001600160e01b03166309710a9d60e41b179052614316565b5050565b600060c06141416001600160a01b03841680614a12565b61415390670de0b6b3a7640000614a12565b901c92915050565b6000836001600160a01b0316856001600160a01b0316111561417b579293925b816141a8576141a3836001600160801b03168686036001600160a01b0316600160601b6137eb565b6140a2565b6140a2836001600160801b03168686036001600160a01b0316600160601b614352565b6000836001600160a01b0316856001600160a01b031611156141eb579293925b6fffffffffffffffffffffffffffffffff60601b606084901b166001600160a01b03868603811690871661421e57600080fd5b8361425457866001600160a01b03166142418383896001600160a01b03166137eb565b8161424e5761424e614a5b565b04614280565b61428061426b8383896001600160a01b0316614352565b886001600160a01b0316808204910615150190565b979650505050505050565b614032848484846040516024016142a594939291906152ff565b60408051601f198184030181529190526020810180516001600160e01b0316630bb7fe0760e31b179052614316565b60405160248101839052604481018290526141269060640160408051601f198184030181529190526020810180516001600160e01b031662d81ed360e71b1790525b80516a636f6e736f6c652e6c6f67602083016000808483855afa5050505050565b806001600160801b038116811461434d57600080fd5b919050565b600061435f8484846137eb565b90506000828061437157614371614a5b565b848609111561055057600019811061438857600080fd5b6001019392505050565b6040805161014081018252600080825260208201819052918101829052606081018290526080810182905260a0810182905260c0810182905260e08101829052610100810182905261012081019190915290565b60405180610300016040528060008152602001600081526020016000815260200160006001600160a01b03168152602001600060020b815260200160006001600160801b0316815260200160006001600160a01b0316815260200160006001600160a01b0316815260200160006001600160a01b031681526020016000815260200160008152602001614477614392565b815260200160006001600160a01b0316815260200160008152602001600060020b8152602001600060020b8152602001600060020b81526020016000815260200160008152602001600081526020016000815260200160006001600160801b0316815260200160608152602001606081525090565b6001600160a01b038116811461450157600080fd5b50565b801515811461450157600080fd5b60008060006060848603121561452757600080fd5b8335614532816144ec565b925060208401359150604084013561454981614504565b809150509250925092565b6000806040838503121561456757600080fd5b8235614572816144ec565b946020939093013593505050565b80518252602081015160208301526040810151604083015260608101516145ac606084018260020b9052565b5060808101516145c760808401826001600160801b03169052565b5060a08101516145db60a084018215159052565b5060c08101516145f360c084018263ffffffff169052565b5060e081015161460b60e084018263ffffffff169052565b50610100808201516146218285018260020b9052565b5050610120808201516140328285018260020b9052565b61014081016106358284614580565b60006020828403121561465957600080fd5b8135610550816144ec565b8060020b811461450157600080fd5b6000806040838503121561468657600080fd5b823561469181614664565b915060208301356146a181614504565b809150509250929050565b6000806000606084860312156146c157600080fd5b83356146cc81614504565b95602085013595506040909401359392505050565b6000602082840312156146f357600080fd5b5035919050565b6001600160801b038116811461450157600080fd5b60008060006060848603121561472457600080fd5b833561472f81614664565b9250602084013561473f81614504565b91506040840135614549816146fa565b6000806000806080858703121561476557600080fd5b843593506020850135925060408501359150606085013561478581614504565b939692955090935050565b610180810161479f8286614580565b6101408201939093526101600152919050565b634e487b7160e01b600052604160045260246000fd5b6040516080810167ffffffffffffffff811182821017156147eb576147eb6147b2565b60405290565b604051601f8201601f1916810167ffffffffffffffff8111828210171561481a5761481a6147b2565b604052919050565b600067ffffffffffffffff82111561483c5761483c6147b2565b5060051b60200190565b60008060008060008060c0878903121561485f57600080fd5b863561486a81614664565b955060208781013561487b81614664565b95506040880135945060608801359350608088013561489981614504565b925060a088013567ffffffffffffffff8111156148b557600080fd5b8801601f81018a136148c657600080fd5b80356148d96148d482614822565b6147f1565b81815260059190911b8201830190838101908c8311156148f857600080fd5b928401925b82841015614916578335825292840192908401906148fd565b80955050505050509295509295509295565b60008083601f84011261493a57600080fd5b50813567ffffffffffffffff81111561495257600080fd5b60208301915083602082850101111561496a57600080fd5b9250929050565b6000806000806060858703121561498757600080fd5b8435935060208501359250604085013567ffffffffffffffff8111156149ac57600080fd5b6149b887828801614928565b95989497509550505050565b6000806000606084860312156149d957600080fd5b8335925060208401356149eb816144ec565b929592945050506040919091013590565b634e487b7160e01b600052601160045260246000fd5b8082028115828204841417610635576106356149fc565b6001600160a01b03828116828216818102831692918115828504821417614a5257614a526149fc565b50505092915050565b634e487b7160e01b600052601260045260246000fd5b60006001600160a01b0383811680614a8b57614a8b614a5b565b92169190910492915050565b60609290921b6bffffffffffffffffffffffff19168252601482015260340190565b60008160020b8360020b80614ad057614ad0614a5b565b627fffff19821460001982141615614aea57614aea6149fc565b90059392505050565b600281810b9083900b01627fffff8113627fffff1982121715610635576106356149fc565b60008260020b8260020b028060020b9150808214614b3857614b386149fc565b5092915050565b80820180821115610635576106356149fc565b805161ffff8116811461434d57600080fd5b600080600080600080600060e0888a031215614b7f57600080fd5b8751614b8a816144ec565b6020890151909750614b9b81614664565b9550614ba960408901614b52565b9450614bb760608901614b52565b9350614bc560808901614b52565b925060a088015160ff81168114614bdb57600080fd5b60c0890151909250614bec81614504565b8091505092959891949750929550565b81810381811115610635576106356149fc565b600060208284031215614c2157600080fd5b8151610550816146fa565b600060208284031215614c3e57600080fd5b815180600f0b811461055057600080fd5b600f82810b9082900b036f7fffffffffffffffffffffffffffffff19811260016001607f1b0382131715610635576106356149fc565b600081600f0b60016001607f1b03198103614ca257614ca26149fc565b60000392915050565b600282810b9082900b03627fffff198112627fffff82131715610635576106356149fc565b6101408082528551908201819052600090610160830190602090818901845b82811015614d37578151805160020b8652848101516001600160801b031685870152604080820151908701526060908101519086015260809094019390830190600101614cef565b505050819250614da08185018880518252602080820151908301526040808201516001600160a01b03169083015260608082015160020b908301526080808201519083015260a0808201516001600160801b039081169184019190915260c09182015116910152565b50508315156101008301526001600160a01b03831661012083015295945050505050565b600060e08284031215614dd657600080fd5b60405160e0810181811067ffffffffffffffff82111715614df957614df96147b2565b806040525080915082518152602083015160208201526040830151614e1d816144ec565b60408201526060830151614e3081614664565b60608201526080838101519082015260a0830151614e4d816146fa565b60a082015260c0830151614e60816146fa565b60c0919091015292915050565b6000806101008385031215614e8157600080fd5b825167ffffffffffffffff811115614e9857600080fd5b8301601f81018513614ea957600080fd5b80516020614eb96148d483614822565b82815260079290921b83018101918181019088841115614ed857600080fd5b938201935b83851015614f41576080858a031215614ef65760008081fd5b614efe6147c8565b8551614f0981614664565b815285840151614f18816146fa565b818501526040868101519082015260608087015190820152825260809094019390820190614edd565b9550614f51905087878301614dc4565b93505050509250929050565b634e487b7160e01b600052603260045260246000fd5b600081614f8257614f826149fc565b506000190190565b600060018201614f9c57614f9c6149fc565b5060010190565b600082614fb257614fb2614a5b565b500490565b600060208284031215614fc957600080fd5b5051919050565b60008060408385031215614fe357600080fd5b8251614fee81614664565b60208401519092506146a181614504565b6001600160a01b039384168152919092166020820152604081019190915260600190565b60006020828403121561503557600080fd5b815161055081614504565b6020808252600490820152630858dbdb60e21b604082015260600190565b6000815180845260005b8181101561508457602081850181015186830182015201615068565b506000602082860101526020601f19601f83011685010191505092915050565b6001600160a01b0386811682528515156020830152604082018590528316606082015260a0608082018190526000906142809083018461505e565b600080604083850312156150f257600080fd5b505080516020909101519092909150565b6000600160ff1b8201615118576151186149fc565b5060000390565b600060a082018760020b835260208760020b8185015286604085015260a0606085015281865180845260c086019150828801935060005b8181101561517257845183529383019391830191600101615156565b505080935050505082151560808301529695505050505050565b6000806040838503121561519f57600080fd5b8251915060208084015167ffffffffffffffff8111156151be57600080fd5b8401601f810186136151cf57600080fd5b80516151dd6148d482614822565b81815260059190911b820183019083810190888311156151fc57600080fd5b928401925b8284101561521a57835182529284019290840190615201565b80955050505050509250929050565b6001600160801b03828116828216039080821115614b3857614b386149fc565b6001600160801b03818116838216019080821115614b3857614b386149fc565b60608152600061527c606083018661505e565b60208301949094525060400152919050565b6080815260006152a1608083018761505e565b6020830195909552506040810192909252606090910152919050565b6001600160a01b03828116828216039080821115614b3857614b386149fc565b6040815260006152f0604083018561505e565b90508260208301529392505050565b608081526000615312608083018761505e565b941515602083015250604081019290925260609091015291905056fea2646970667358221220a495f2732ee841c07b03ff4ecd784de72396b84180cfe3b55a326e7ae574a50664736f6c63430008120033",
  "linkReferences": {},
  "deployedLinkReferences": {}
}