{
  "abi": [
    {
      "inputs": [],
      "stateMutability": "nonpayable",
      "type": "constructor"
    },
    {
      "inputs": [],
      "name": "T",
      "type": "error"
    },
    {
      "inputs": [],
      "name": "INTEREST_REPLENISH_TIME",
      "outputs": [
        {
          "internalType": "uint256",
          "name": "",
          "type": "uint256"
        }
      ],
      "stateMutability": "view",
      "type": "function"
    },
    {
      "inputs": [
        {
          "internalType": "uint256",
          "name": "traderFund",
          "type": "uint256"
        },
        {
          "internalType": "uint256",
          "name": "maxSlippage",
          "type": "uint256"
        },
        {
          "internalType": "uint256",
          "name": "borrowAmount",
          "type": "uint256"
        },
        {
          "internalType": "bool",
          "name": "isToken0",
          "type": "bool"
        }
      ],
      "name": "addPosition",
      "outputs": [
        {
          "components": [
            {
              "internalType": "address",
              "name": "pool",
              "type": "address"
            },
            {
              "internalType": "uint256",
              "name": "totalPosition",
              "type": "uint256"
            },
            {
              "internalType": "uint256",
              "name": "totalDebt",
              "type": "uint256"
            },
            {
              "internalType": "uint256",
              "name": "totalDebtInput",
              "type": "uint256"
            },
            {
              "internalType": "uint256",
              "name": "initCollateral",
              "type": "uint256"
            },
            {
              "internalType": "uint128",
              "name": "recentPremium",
              "type": "uint128"
            },
            {
              "internalType": "uint128",
              "name": "totalPremium",
              "type": "uint128"
            },
            {
              "internalType": "uint128",
              "name": "unusedPremium",
              "type": "uint128"
            },
            {
              "internalType": "bool",
              "name": "isToken0",
              "type": "bool"
            },
            {
              "internalType": "uint32",
              "name": "openTime",
              "type": "uint32"
            },
            {
              "internalType": "uint32",
              "name": "repayTime",
              "type": "uint32"
            },
            {
              "components": [
                {
                  "internalType": "int24",
                  "name": "tick",
                  "type": "int24"
                },
                {
                  "internalType": "uint128",
                  "name": "liquidity",
                  "type": "uint128"
                },
                {
                  "internalType": "uint256",
                  "name": "premiumOrUrate",
                  "type": "uint256"
                }
              ],
              "internalType": "struct LiquidityManager.Liquidity[]",
              "name": "borrowInfo",
              "type": "tuple[]"
            }
          ],
          "internalType": "struct GlobalStorage.Position",
          "name": "",
          "type": "tuple"
        },
        {
          "internalType": "uint256",
          "name": "",
          "type": "uint256"
        },
        {
          "internalType": "uint256",
          "name": "",
          "type": "uint256"
        }
      ],
      "stateMutability": "nonpayable",
      "type": "function"
    },
    {
      "inputs": [
        {
          "internalType": "uint256",
          "name": "traderFund",
          "type": "uint256"
        },
        {
          "internalType": "uint256",
          "name": "maxSlippage",
          "type": "uint256"
        },
        {
          "internalType": "uint256",
          "name": "borrowAmount",
          "type": "uint256"
        },
        {
          "internalType": "bool",
          "name": "isToken0",
          "type": "bool"
        },
        {
          "components": [
            {
              "internalType": "int24",
              "name": "tick",
              "type": "int24"
            },
            {
              "internalType": "uint128",
              "name": "liquidity",
              "type": "uint128"
            },
            {
              "internalType": "uint256",
              "name": "premiumOrUrate",
              "type": "uint256"
            }
          ],
          "internalType": "struct LiquidityManager.Liquidity[]",
          "name": "borrowInfo",
          "type": "tuple[]"
        }
      ],
      "name": "addPositionSpecfied",
      "outputs": [
        {
          "components": [
            {
              "internalType": "address",
              "name": "pool",
              "type": "address"
            },
            {
              "internalType": "uint256",
              "name": "totalPosition",
              "type": "uint256"
            },
            {
              "internalType": "uint256",
              "name": "totalDebt",
              "type": "uint256"
            },
            {
              "internalType": "uint256",
              "name": "totalDebtInput",
              "type": "uint256"
            },
            {
              "internalType": "uint256",
              "name": "initCollateral",
              "type": "uint256"
            },
            {
              "internalType": "uint128",
              "name": "recentPremium",
              "type": "uint128"
            },
            {
              "internalType": "uint128",
              "name": "totalPremium",
              "type": "uint128"
            },
            {
              "internalType": "uint128",
              "name": "unusedPremium",
              "type": "uint128"
            },
            {
              "internalType": "bool",
              "name": "isToken0",
              "type": "bool"
            },
            {
              "internalType": "uint32",
              "name": "openTime",
              "type": "uint32"
            },
            {
              "internalType": "uint32",
              "name": "repayTime",
              "type": "uint32"
            },
            {
              "components": [
                {
                  "internalType": "int24",
                  "name": "tick",
                  "type": "int24"
                },
                {
                  "internalType": "uint128",
                  "name": "liquidity",
                  "type": "uint128"
                },
                {
                  "internalType": "uint256",
                  "name": "premiumOrUrate",
                  "type": "uint256"
                }
              ],
              "internalType": "struct LiquidityManager.Liquidity[]",
              "name": "borrowInfo",
              "type": "tuple[]"
            }
          ],
          "internalType": "struct GlobalStorage.Position",
          "name": "",
          "type": "tuple"
        },
        {
          "internalType": "uint256",
          "name": "",
          "type": "uint256"
        },
        {
          "internalType": "uint256",
          "name": "",
          "type": "uint256"
        }
      ],
      "stateMutability": "nonpayable",
      "type": "function"
    },
    {
      "inputs": [
        {
          "internalType": "uint160",
          "name": "price",
          "type": "uint160"
        },
        {
          "internalType": "uint256",
          "name": "maxSlippage",
          "type": "uint256"
        },
        {
          "internalType": "bool",
          "name": "down",
          "type": "bool"
        }
      ],
      "name": "applySlippageX96",
      "outputs": [
        {
          "internalType": "uint160",
          "name": "",
          "type": "uint160"
        }
      ],
      "stateMutability": "pure",
      "type": "function"
    },
    {
      "inputs": [
        {
          "internalType": "bool",
          "name": "borrowBelow",
          "type": "bool"
        },
        {
          "internalType": "uint256",
          "name": "amountSpecified",
          "type": "uint256"
        },
        {
          "internalType": "uint256",
          "name": "leverage",
          "type": "uint256"
        }
      ],
      "name": "borrow",
      "outputs": [
        {
          "internalType": "int24",
          "name": "",
          "type": "int24"
        },
        {
          "internalType": "int24",
          "name": "",
          "type": "int24"
        },
        {
          "components": [
            {
              "internalType": "int24",
              "name": "tick",
              "type": "int24"
            },
            {
              "internalType": "uint128",
              "name": "liquidity",
              "type": "uint128"
            },
            {
              "internalType": "uint256",
              "name": "premiumOrUrate",
              "type": "uint256"
            }
          ],
          "internalType": "struct LiquidityManager.Liquidity[]",
          "name": "",
          "type": "tuple[]"
        },
        {
          "internalType": "uint256",
          "name": "",
          "type": "uint256"
        }
      ],
      "stateMutability": "nonpayable",
      "type": "function"
    },
    {
      "inputs": [],
      "name": "closeMaxSlippage",
      "outputs": [
        {
          "internalType": "uint256",
          "name": "",
          "type": "uint256"
        }
      ],
      "stateMutability": "view",
      "type": "function"
    },
    {
      "inputs": [
        {
          "internalType": "address",
          "name": "trader",
          "type": "address"
        },
        {
          "internalType": "bool",
          "name": "isToken0",
          "type": "bool"
        },
        {
          "internalType": "uint256",
          "name": "userSpecifiedSlippage",
          "type": "uint256"
        }
      ],
      "name": "closePosition",
      "outputs": [
        {
          "components": [
            {
              "internalType": "int256",
              "name": "amount0",
              "type": "int256"
            },
            {
              "internalType": "int256",
              "name": "amount1",
              "type": "int256"
            },
            {
              "internalType": "int256",
              "name": "PnL",
              "type": "int256"
            },
            {
              "internalType": "uint256",
              "name": "returnedAmount",
              "type": "uint256"
            },
            {
              "internalType": "uint256",
              "name": "unusedPremium",
              "type": "uint256"
            },
            {
              "internalType": "uint256",
              "name": "premium",
              "type": "uint256"
            }
          ],
          "internalType": "struct ReduceReturn",
          "name": "",
          "type": "tuple"
        }
      ],
      "stateMutability": "nonpayable",
      "type": "function"
    },
    {
      "inputs": [
        {
          "components": [
            {
              "internalType": "int24",
              "name": "tick",
              "type": "int24"
            },
            {
              "internalType": "uint128",
              "name": "liquidity",
              "type": "uint128"
            },
            {
              "internalType": "uint256",
              "name": "premiumOrUrate",
              "type": "uint256"
            }
          ],
          "internalType": "struct LiquidityManager.Liquidity[]",
          "name": "borrowInfo",
          "type": "tuple[]"
        },
        {
          "internalType": "bool",
          "name": "borrowBelow",
          "type": "bool"
        }
      ],
      "name": "getFilledAmount",
      "outputs": [
        {
          "internalType": "uint256",
          "name": "filledAmount",
          "type": "uint256"
        }
      ],
      "stateMutability": "view",
      "type": "function"
    },
    {
      "inputs": [],
      "name": "getNewPremiumQuote",
      "outputs": [
        {
          "internalType": "uint256",
          "name": "",
          "type": "uint256"
        }
      ],
      "stateMutability": "view",
      "type": "function"
    },
    {
      "inputs": [],
      "name": "globalStorage",
      "outputs": [
        {
          "internalType": "contract GlobalStorage",
          "name": "",
          "type": "address"
        }
      ],
      "stateMutability": "view",
      "type": "function"
    },
    {
      "inputs": [],
      "name": "liquidityManager",
      "outputs": [
        {
          "internalType": "contract LiquidityManager",
          "name": "",
          "type": "address"
        }
      ],
      "stateMutability": "view",
      "type": "function"
    },
    {
      "inputs": [],
      "name": "pool",
      "outputs": [
        {
          "internalType": "contract UniswapV3Pool",
          "name": "",
          "type": "address"
        }
      ],
      "stateMutability": "view",
      "type": "function"
    },
    {
      "inputs": [],
      "name": "precision",
      "outputs": [
        {
          "internalType": "uint256",
          "name": "",
          "type": "uint256"
        }
      ],
      "stateMutability": "view",
      "type": "function"
    },
    {
      "inputs": [
        {
          "internalType": "bool",
          "name": "isToken0",
          "type": "bool"
        },
        {
          "internalType": "uint256",
          "name": "userSpecifiedSlippage",
          "type": "uint256"
        },
        {
          "internalType": "uint256",
          "name": "reduceAmount",
          "type": "uint256"
        }
      ],
      "name": "reducePosition",
      "outputs": [
        {
          "components": [
            {
              "internalType": "int256",
              "name": "amount0",
              "type": "int256"
            },
            {
              "internalType": "int256",
              "name": "amount1",
              "type": "int256"
            },
            {
              "internalType": "int256",
              "name": "PnL",
              "type": "int256"
            },
            {
              "internalType": "uint256",
              "name": "returnedAmount",
              "type": "uint256"
            },
            {
              "internalType": "uint256",
              "name": "unusedPremium",
              "type": "uint256"
            },
            {
              "internalType": "uint256",
              "name": "premium",
              "type": "uint256"
            }
          ],
          "internalType": "struct ReduceReturn",
          "name": "",
          "type": "tuple"
        }
      ],
      "stateMutability": "nonpayable",
      "type": "function"
    },
    {
      "inputs": [
        {
          "internalType": "int24",
          "name": "tick",
          "type": "int24"
        },
        {
          "internalType": "bool",
          "name": "down",
          "type": "bool"
        }
      ],
      "name": "roundTick",
      "outputs": [
        {
          "internalType": "int24",
          "name": "",
          "type": "int24"
        }
      ],
      "stateMutability": "view",
      "type": "function"
    },
    {
      "inputs": [
        {
          "internalType": "address",
          "name": "ad",
          "type": "address"
        }
      ],
      "name": "setLiquidityManager",
      "outputs": [],
      "stateMutability": "nonpayable",
      "type": "function"
    },
    {
      "inputs": [],
      "name": "tickSpacing",
      "outputs": [
        {
          "internalType": "int24",
          "name": "",
          "type": "int24"
        }
      ],
      "stateMutability": "view",
      "type": "function"
    },
    {
      "inputs": [],
      "name": "token0",
      "outputs": [
        {
          "internalType": "contract ERC20",
          "name": "",
          "type": "address"
        }
      ],
      "stateMutability": "view",
      "type": "function"
    },
    {
      "inputs": [],
      "name": "token1",
      "outputs": [
        {
          "internalType": "contract ERC20",
          "name": "",
          "type": "address"
        }
      ],
      "stateMutability": "view",
      "type": "function"
    },
    {
      "inputs": [
        {
          "internalType": "int256",
          "name": "amount0Delta",
          "type": "int256"
        },
        {
          "internalType": "int256",
          "name": "amount1Delta",
          "type": "int256"
        },
        {
          "internalType": "bytes",
          "name": "data",
          "type": "bytes"
        }
      ],
      "name": "uniswapV3SwapCallback",
      "outputs": [],
      "stateMutability": "nonpayable",
      "type": "function"
    }
  ],
  "bytecode": {
    "object": "0x60e06040523480156200001157600080fd5b50600080336001600160a01b031663890357306040518163ffffffff1660e01b81526004016040805180830381865afa15801562000053573d6000803e3d6000fd5b505050506040513d601f19601f820116820180604052508101906200007991906200023e565b600080546001600160a01b038085166001600160a01b03199283168117909355600180549185169190921617905560408051630dfe168160e01b8152905193955091935091630dfe1681916004808201926020929091908290030181865afa158015620000ea573d6000803e3d6000fd5b505050506040513d601f19601f8201168201806040525081019062000110919062000276565b60008054906101000a90046001600160a01b03166001600160a01b031663d21220a76040518163ffffffff1660e01b8152600401602060405180830381865afa15801562000162573d6000803e3d6000fd5b505050506040513d601f19601f8201168201806040525081019062000188919062000276565b6001600160a01b0390811660c05290811660a052600054604080516334324e9f60e21b81529051919092169163d0c93a7c9160048083019260209291908290030181865afa158015620001df573d6000803e3d6000fd5b505050506040513d601f19601f820116820180604052508101906200020591906200029b565b600290810b608052670de7d1b0f0f10000905550620002c09050565b80516001600160a01b03811681146200023957600080fd5b919050565b600080604083850312156200025257600080fd5b6200025d8362000221565b91506200026d6020840162000221565b90509250929050565b6000602082840312156200028957600080fd5b620002948262000221565b9392505050565b600060208284031215620002ae57600080fd5b81518060020b81146200029457600080fd5b60805160a05160c0516157fe620003ec6000396000818161033901528181610c1601528181610e3a0152818161224c015281816123160152818161262301528181612fee0152818161313401528181613efb01528181613f8f0152818161428f015261432d01526000818161017401528181610b7f01528181610ed40152818161245a015281816125240152818161264901528181612dd00152818161309b01528181613fdd0152818161407101526143d0015260008181610312015281816107e2015281816108100152818161084e015281816108ed0152818161098c01528181611cd201528181611d5501528181611dc90152818161202c0152818161280f01528181612899015281816129b801528181612aa0015281816144f2015261453f01526157fe6000f3fe608060405234801561001057600080fd5b506004361061012c5760003560e01c80636502072a116100ad578063d0c93a7c11610071578063d0c93a7c1461030d578063d21220a714610334578063d3b5dc3b1461035b578063deff1bdc1461036a578063fa461e331461037d57600080fd5b80636502072a146102755780636ef83ef714610288578063786afbcc146102915780637ea9843b146102a45780639aa886da1461030357600080fd5b806325350f8e116100f457806325350f8e146101d457806333827438146101f75780633c1624d41461020a5780633cd7bca71461023c5780633dc306ee1461024f57600080fd5b806308abb6d3146101315780630d3401ee1461014d5780630dfe16811461016f57806316f0115b146101ae578063207b0576146101c1575b600080fd5b66071afd498d00005b6040519081526020015b60405180910390f35b61016061015b366004614b03565b610390565b60405161014493929190614cad565b6101967f000000000000000000000000000000000000000000000000000000000000000081565b6040516001600160a01b039091168152602001610144565b600054610196906001600160a01b031681565b6101966101cf366004614ce7565b6103e7565b6101e76101e2366004614d29565b610470565b6040516101449493929190614d5e565b600354610196906001600160a01b031681565b61023a610218366004614d94565b600380546001600160a01b0319166001600160a01b0392909216919091179055565b005b61016061024a366004614db1565b61074c565b61026261025d366004614df2565b6107da565b60405160029190910b8152602001610144565b600154610196906001600160a01b031681565b61013a60025481565b61013a61029f366004614e2b565b61087d565b6102b76102b2366004614e71565b610a08565b6040516101449190600060c082019050825182526020830151602083015260408301516040830152606083015160608301526080830151608083015260a083015160a083015292915050565b61013a6201518081565b6102627f000000000000000000000000000000000000000000000000000000000000000081565b6101967f000000000000000000000000000000000000000000000000000000000000000081565b61013a670de0b6b3a764000081565b6102b7610378366004614d29565b610ab4565b61023a61038b366004614eb2565b610b4f565b6103986147da565b6000806103d66040518060a001604052808a81526020018981526020018881526020018715158152602001336001600160a01b031681525085610c99565b925092509250955095509592505050565b6000816104295761040861040384670de0b6b3a7640000614f47565b611561565b61041a670de0b6b3a764000086614f74565b6104249190614f9a565b610466565b670de0b6b3a7640000610452610440828087611605565b61040390670de0b6b3a7640000614f47565b61045c9086614f9a565b6104669190614f74565b90505b9392505050565b60008060606000670de0b6b3a764000085116104bf5760405162461bcd60e51b81526020600482015260096024820152683bb937b733903632bb60b91b60448201526064015b60405180910390fd5b6104c761486d565b60008054906101000a90046001600160a01b03166001600160a01b0316633850c7bd6040518163ffffffff1660e01b815260040160e060405180830381865afa158015610518573d6000803e3d6000fd5b505050506040513d601f19601f8201168201806040525081019061053c9190614fee565b5050505060029190910b60a0840152506001600160a01b0316608082018190526105bb908961058f57610578670de0b6b3a7640000808a611605565b61058a90670de0b6b3a7640000615086565b6105b4565b6105a2670de0b6b3a7640000808a611605565b6105b490670de0b6b3a7640000615099565b60006103e7565b6001600160a01b031661018082018190526105fd90896105e357670ddd2935029d80006105ed565b670de444324c2a80005b6001600160401b031660006103e7565b6001600160a01b039081166101808301819052600354608084015160405163053ef28b60e01b81528c15156004820152602481019390935283166044830152606482018a90529091169063053ef28b90608401600060405180830381865afa15801561066d573d6000803e3d6000fd5b505050506040513d6000823e601f3d908101601f191682016040526106959190810190615150565b61026085018190526101e0850191909152600291820b6101c085015291900b6101a0830152600054604051637c61444d60e01b81526001600160a01b0390911691637c61444d916106f091908c906001908d906004016151bd565b600060405180830381600087803b15801561070a57600080fd5b505af115801561071e573d6000803e3d6000fd5b50505050806101c00151816101a00151826102600151836101e0015194509450945094505093509350935093565b6107546147da565b6040805160a08101825286815260208082018790528183018690528415156060830152336080830152825160008082529181019093529182916107ca91836107c4565b60408051606081018252600080825260208083018290529282015282526000199092019101816107975790505b50610c99565b9250925092509450945094915050565b6000806108077f0000000000000000000000000000000000000000000000000000000000000000856151ec565b905082610849577f000000000000000000000000000000000000000000000000000000000000000061083a826001615226565b610844919061524b565b610873565b6108737f00000000000000000000000000000000000000000000000000000000000000008261524b565b9150505b92915050565b6000805b8351811015610a015783818151811061089c5761089c61526b565b6020026020010151602001516001600160801b0316600003156109ef57821561096f5761095e6108e88583815181106108d7576108d761526b565b6020026020010151600001516116b7565b6109397f000000000000000000000000000000000000000000000000000000000000000087858151811061091e5761091e61526b565b6020026020010151600001516109349190615226565b6116b7565b86848151811061094b5761094b61526b565b60200260200101516020015160016119da565b6109689083615086565b91506109ef565b6109e26109878583815181106108d7576108d761526b565b6109bd7f000000000000000000000000000000000000000000000000000000000000000087858151811061091e5761091e61526b565b8684815181106109cf576109cf61526b565b6020026020010151602001516001611a91565b6109ec9083615086565b91505b806109f981615281565b915050610881565b5092915050565b610a10614939565b610a1861486d565b60015460405163750ff6b560e01b81526001600160a01b039091169063750ff6b590610a4c9030908990899060040161529a565b600060405180830381865afa158015610a69573d6000803e3d6000fd5b505050506040513d6000823e601f3d908101601f19168201604052610a9191908101906152dd565b610160820181905260200151610aab908690859084611b01565b95945050505050565b610abc614939565b610ac461486d565b60015460405163750ff6b560e01b81526001600160a01b039091169063750ff6b590610af890309033908a9060040161529a565b600060405180830381865afa158015610b15573d6000803e3d6000fd5b505050506040513d6000823e601f3d908101601f19168201604052610b3d91908101906152dd565b610160820152610aab33858584611b01565b6000610b5d82840184614d94565b90506000851315610bff5760405163a9059cbb60e01b81526001600160a01b037f0000000000000000000000000000000000000000000000000000000000000000169063a9059cbb90610bb690339089906004016153f0565b6020604051808303816000875af1158015610bd5573d6000803e3d6000fd5b505050506040513d601f19601f82011682018060405250810190610bf99190615409565b50610c92565b60405163a9059cbb60e01b81526001600160a01b037f0000000000000000000000000000000000000000000000000000000000000000169063a9059cbb90610c4d90339088906004016153f0565b6020604051808303816000875af1158015610c6c573d6000803e3d6000fd5b505050506040513d601f19601f82011682018060405250810190610c909190615409565b505b5050505050565b610ca16147da565b600080610cac61486d565b6001546080870151606088015160405163750ff6b560e01b81526000936001600160a01b03169263750ff6b592610ce9923092919060040161529a565b600060405180830381865afa158015610d06573d6000803e3d6000fd5b505050506040513d6000823e601f3d908101601f19168201604052610d2e91908101906152dd565b61012081015190915063ffffffff1615610d895786606001511515816101000151151514610d895760405162461bcd60e51b81526020600482015260086024820152676469666620706f7360c01b60448201526064016104b6565b8551600003610de657606087015160408801518851610dc39291906101e290670de0b6b3a764000090610dbc8185615086565b9190611605565b6101e0860152610260850152600290810b6101a08501520b6101c0830152610e02565b610df98760600151886040015188613576565b61026082018690525b610e15826102600151886060015161087d565b8252606087015115610ebb5786516040516323b872dd60e01b81526001600160a01b037f000000000000000000000000000000000000000000000000000000000000000016916323b872dd91610e72913391309190600401615426565b6020604051808303816000875af1158015610e91573d6000803e3d6000fd5b505050506040513d601f19601f82011682018060405250810190610eb59190615409565b50610f51565b86516040516323b872dd60e01b81526001600160a01b037f000000000000000000000000000000000000000000000000000000000000000016916323b872dd91610f0c913391309190600401615426565b6020604051808303816000875af1158015610f2b573d6000803e3d6000fd5b505050506040513d601f19601f82011682018060405250810190610f4f9190615409565b505b60008054906101000a90046001600160a01b03166001600160a01b0316633850c7bd6040518163ffffffff1660e01b815260040160e060405180830381865afa158015610fa2573d6000803e3d6000fd5b505050506040513d601f19601f82011682018060405250810190610fc69190614fee565b5050505060029190910b60a0850152506001600160a01b039081166080840152600054606089015160408a01518a51929093169263128acb08923092159161100d91615086565b61102587608001518d602001518e60600151156103e7565b60408051306020820152016040516020818303038152906040526040518663ffffffff1660e01b815260040161105f959493929190615490565b60408051808303816000875af115801561107d573d6000803e3d6000fd5b505050506040513d601f19601f820116820180604052508101906110a191906154cb565b61010084015260e0830152606087015180156110ca5750815160e08301516110c8906154ef565b105b806110f0575086606001511580156110f0575081516101008301516110ee906154ef565b105b156111265760405162461bcd60e51b81526004016104b690602080825260049082015263216c697160e01b604082015260600190565b61014081015163ffffffff16156111be57600060c0820152600354604051634684e05b60e01b81526001600160a01b0390911690634684e05b9061116e90849060040161550b565b602060405180830381865afa15801561118b573d6000803e3d6000fd5b505050506040513d601f19601f820116820180604052508101906111af919061551e565b6001600160801b031660408301525b8660600151156111ef578160e001516111d6906154ef565b816020018181516111e79190615086565b905250611213565b8161010001516111fe906154ef565b8160200181815161120f9190615086565b9052505b8151604082018051611226908390615086565b905250604087015160608201805161123f908390615086565b9052508651608082018051611255908390615086565b9052506060870151151561010082015263ffffffff4281166101408301526101208201511660000361128f5763ffffffff42166101208201525b6101608101515115611354576102608201516101608201516112b091613733565b61026083015260608701516112d4576112cd826102600151613c6b565b6102608301525b600354610260830151604051635b664e4f60e11b81526001600160a01b039092169163b6cc9c9e916113089160040161553b565b600060405180830381865afa158015611325573d6000803e3d6000fd5b505050506040513d6000823e601f3d908101601f1916820160405261134d919081019061554e565b6102608301525b610260820151610160820152600154600054608089015160608a015160405163ebfa2b1960e01b81526001600160a01b039485169463ebfa2b19946113a094911692909160040161529a565b6020604051808303816000875af11580156113bf573d6000803e3d6000fd5b505050506040513d601f19601f820116820180604052508101906113e39190615582565b5060015460408051608080820183528a01516001600160a01b0390811682526060808c01511515602084015260005482168385015282018590529151631b5219bb60e01b81529190921691631b5219bb91611441919060040161559b565b6000604051808303816000875af1158015611460573d6000803e3d6000fd5b505050506040513d6000823e601f3d908101601f1916820160405261148891908101906152dd565b60035461026084015160a08501516040516308e05f8b60e11b81529394506001600160a01b03909216926311c0bf16926114c592916004016155e2565b602060405180830381865afa1580156114e2573d6000803e3d6000fd5b505050506040513d601f19601f820116820180604052508101906115069190615582565b610200830152606081015161152b90670de0b6b3a764000066071afd498d0000610dbc565b610200830181905260808801516040840151611548928491613d50565b6040820151610200909201519097919650945092505050565b60b581600160881b811061157a5760409190911b9060801c5b690100000000000000000081106115965760209190911b9060401c5b6501000000000081106115ae5760109190911b9060201c5b630100000081106115c45760089190911b9060101c5b62010000010260121c80820401600190811c80830401811c80830401811c80830401811c80830401811c80830401811c80830401901c908190048111900390565b600080806000198587098587029250828110838203039150508060000361163e576000841161163357600080fd5b508290049050610469565b80841161164a57600080fd5b6000848688096000868103871696879004966002600389028118808a02820302808a02820302808a02820302808a02820302808a02820302808a02909103029181900381900460010186841190950394909402919094039290920491909117919091029150509392505050565b60008060008360020b126116ce578260020b6116d6565b8260020b6000035b9050620d89e88111156116fc576040516315e4079d60e11b815260040160405180910390fd5b60008160011660000361171357600160801b611725565b6ffffcb933bd6fad37aa2d162d1a5940015b70ffffffffffffffffffffffffffffffffff1690506002821615611759576ffff97272373d413259a46990580e213a0260801c5b6004821615611778576ffff2e50f5f656932ef12357cf3c7fdcc0260801c5b6008821615611797576fffe5caca7e10e4e61c3624eaa0941cd00260801c5b60108216156117b6576fffcb9843d60f6159c9db58835c9266440260801c5b60208216156117d5576fff973b41fa98c081472e6896dfb254c00260801c5b60408216156117f4576fff2ea16466c96a3843ec78b326b528610260801c5b6080821615611813576ffe5dee046a99a2a811c461f1969c30530260801c5b610100821615611833576ffcbe86c7900a88aedcffc83b479aa3a40260801c5b610200821615611853576ff987a7253ac413176f2b074cf7815e540260801c5b610400821615611873576ff3392b0822b70005940c7a398e4b70f30260801c5b610800821615611893576fe7159475a2c29b7443b29c7fa6e889d90260801c5b6110008216156118b3576fd097f3bdfd2022b8845ad8f792aa58250260801c5b6120008216156118d3576fa9f746462d870fdf8a65dc1f90e061e50260801c5b6140008216156118f3576f70d869a156d2a1b890bb3df62baf32f70260801c5b618000821615611913576f31be135f97d08fd981231505542fcfa60260801c5b62010000821615611934576f09aa508b5b7a84e1c677de54f3e99bc90260801c5b62020000821615611954576e5d6af8dedb81196699c329225ee6040260801c5b62040000821615611973576d2216e584f5fa1ea926041bedfe980260801c5b62080000821615611990576b048a170391f7dc42444e8fa20260801c5b60008460020b13156119b15780600019816119ad576119ad614f5e565b0490505b6401000000008106156119c55760016119c8565b60005b60ff16602082901c0192505050919050565b6000836001600160a01b0316856001600160a01b031611156119fa579293925b600160601b600160e01b03606084901b166001600160a01b038686038116908716611a2457600080fd5b83611a5a57866001600160a01b0316611a478383896001600160a01b0316611605565b81611a5457611a54614f5e565b04611a86565b611a86611a718383896001600160a01b03166140a8565b886001600160a01b0316808204910615150190565b979650505050505050565b6000836001600160a01b0316856001600160a01b03161115611ab1579293925b81611ade57611ad9836001600160801b03168686036001600160a01b0316600160601b611605565b610aab565b610aab836001600160801b03168686036001600160a01b0316600160601b6140a8565b611b09614939565b600082610160015160200151118015611b2b5750816101600151602001518311155b611b5d5760405162461bcd60e51b8152602060048201526003602482015262706f7360e81b60448201526064016104b6565b60008054906101000a90046001600160a01b03166001600160a01b0316633850c7bd6040518163ffffffff1660e01b815260040160e060405180830381865afa158015611bae573d6000803e3d6000fd5b505050506040513d601f19601f82011682018060405250810190611bd29190614fee565b5050505060029190910b60a0850152506001600160a01b0390811660808401526101608084015190810151516060850152600354604051634684e05b60e01b8152921691634684e05b91611c289160040161550b565b602060405180830381865afa158015611c45573d6000803e3d6000fd5b505050506040513d601f19601f82011682018060405250810190611c69919061551e565b6101608301516001600160801b0390911660e09091015260035460ff600160a01b90910416611d2257611d1d8261016001516101000151611cd057826101600151610160015160018460600151611cc09190615099565b815181106108d7576108d761526b565b7f0000000000000000000000000000000000000000000000000000000000000000836101600151610160015160018560600151611d0d9190615099565b8151811061091e5761091e61526b565b611daa565b611daa611d908361016001516101000151611d5357836101600151610160015160018560600151611cc09190615099565b7f0000000000000000000000000000000000000000000000000000000000000000846101600151610160015160018660600151611d0d9190615099565b670de444324c2a80008461016001516101000151156103e7565b6001600160a01b031660c08301526101608201516101000151611e20577f00000000000000000000000000000000000000000000000000000000000000008261016001516101600151600081518110611e0557611e0561526b565b602002602001015160000151611e1b9190615226565b611e4a565b8161016001516101600151600081518110611e3d57611e3d61526b565b6020026020010151600001515b60020b6101a083015261016082015160200151611e72908490670de0b6b3a764000090611605565b60208301526101608201516101000151611ea9578160c001516001600160a01b031682608001516001600160a01b03161115611ec8565b8160c001516001600160a01b031682608001516001600160a01b031610155b156125aa57600054610160830151610100015160808401516001600160a01b039092169163128acb089130918790611f01908a846103e7565b60408051306020820152016040516020818303038152906040526040518663ffffffff1660e01b8152600401611f3b959493929190615490565b60408051808303816000875af1158015611f59573d6000803e3d6000fd5b505050506040513d601f19601f82011682018060405250810190611f7d91906154cb565b61010084015260e0830152600354600160a01b900460ff16156121525760008060009054906101000a90046001600160a01b03166001600160a01b0316633850c7bd6040518163ffffffff1660e01b815260040160e060405180830381865afa158015611fee573d6000803e3d6000fd5b505050506040513d601f19601f820116820180604052508101906120129190614fee565b50505050509150508261016001516101000151156120db577f00000000000000000000000000000000000000000000000000000000000000008361016001516101600151600185606001516120679190615099565b815181106120775761207761526b565b60200260200101516000015161208d9190615226565b60020b8160020b12156120d65760405162461bcd60e51b8152602060048201526011602482015270747261646520626f756e64206661696c3160781b60448201526064016104b6565b612150565b8261016001516101600151600184606001516120f79190615099565b815181106121075761210761526b565b60200260200101516000015160020b8160020b13156121505760405162461bcd60e51b81526020600482015260056024820152646661696c3160d81b60448201526064016104b6565b505b6020820151610160830151606001516000916121779190670de0b6b3a7640000611605565b905082610160015161010001511561239a578083610160015160e001516001600160801b03168461010001516121ac906154ef565b6121b69190615086565b10156121d45760405162461bcd60e51b81526004016104b690615607565b8261010001516121e3906154ef565b81106122135761010083015161016084015160e00180519183016001600160801b039283160390911690526122fc565b80836101000151612223906154ef565b61222d9190615625565b610120840181905260405163a9059cbb60e01b81526001600160a01b037f0000000000000000000000000000000000000000000000000000000000000000169163a9059cbb91612281918a916004016153f0565b6020604051808303816000875af11580156122a0573d6000803e3d6000fd5b505050506040513d601f19601f820116820180604052508101906122c49190615409565b506020830151610160840151608001516122e691670de0b6b3a7640000611605565b83610120018181516122f89190615625565b9052505b60005460405163a9059cbb60e01b81526001600160a01b037f000000000000000000000000000000000000000000000000000000000000000081169263a9059cbb9261235192919091169085906004016153f0565b6020604051808303816000875af1158015612370573d6000803e3d6000fd5b505050506040513d601f19601f820116820180604052508101906123949190615409565b506125a4565b8083610160015160e001516001600160801b03168460e001516123bc906154ef565b6123c69190615086565b10156123e45760405162461bcd60e51b81526004016104b690615607565b8260e001516123f2906154ef565b81106124225760e08084015161016085015190910180519183016001600160801b0392831603909116905261250a565b808360e00151612431906154ef565b61243b9190615625565b610120840181905260405163a9059cbb60e01b81526001600160a01b037f0000000000000000000000000000000000000000000000000000000000000000169163a9059cbb9161248f918a916004016153f0565b6020604051808303816000875af11580156124ae573d6000803e3d6000fd5b505050506040513d601f19601f820116820180604052508101906124d29190615409565b506020830151610160840151608001516124f491670de0b6b3a7640000611605565b83610120018181516125069190615625565b9052505b60005460405163a9059cbb60e01b81526001600160a01b037f000000000000000000000000000000000000000000000000000000000000000081169263a9059cbb9261255f92919091169085906004016153f0565b6020604051808303816000875af115801561257e573d6000803e3d6000fd5b505050506040513d601f19601f820116820180604052508101906125a29190615409565b505b506131b6565b81610160015161010001516125e4576125c7826101a001516116b7565b6001600160a01b031682608001516001600160a01b03161161260b565b6125f2826101a001516116b7565b6001600160a01b031682608001516001600160a01b0316105b156127b05760008261016001516101000151612647577f0000000000000000000000000000000000000000000000000000000000000000612669565b7f00000000000000000000000000000000000000000000000000000000000000005b60208401516101608501516040015191925060009161269091670de0b6b3a7640000611605565b9050836101600151608001516126a5906154ef565b6101208501526126b58186615099565b61014085015260005460405163a9059cbb60e01b81526001600160a01b038481169263a9059cbb926126ef929091169085906004016153f0565b6020604051808303816000875af115801561270e573d6000803e3d6000fd5b505050506040513d601f19601f820116820180604052508101906127329190615409565b5061014084015160405163a9059cbb60e01b81526001600160a01b0384169163a9059cbb91612765918b916004016153f0565b6020604051808303816000875af1158015612784573d6000803e3d6000fd5b505050506040513d601f19601f820116820180604052508101906127a89190615409565b5050506131b6565b60008060005b846101600151610160015151811015612b2c578460a0015160020b856101600151610160015182815181106127ed576127ed61526b565b60200260200101516000015160020b1315801561286557508460a0015160020b7f00000000000000000000000000000000000000000000000000000000000000008661016001516101600151838151811061284a5761284a61526b565b6020026020010151600001516128609190615226565b60020b135b1561294e5760008061292a8760800151612894896101600151610160015186815181106108d7576108d761526b565b6128d47f00000000000000000000000000000000000000000000000000000000000000008b61016001516101600151888151811061091e5761091e61526b565b6129258b60200151670de0b6b3a76400008d610160015161016001518a815181106129015761290161526b565b6020026020010151602001516001600160801b03166116059092919063ffffffff16565b6140e8565b90925090506129398286615086565b94506129458185615086565b93505050612b1a565b61295d8560a0015160016107da565b60020b8561016001516101600151828151811061297c5761297c61526b565b60200260200101516000015160020b1215612a3657612a256129b3866101600151610160015183815181106108d7576108d761526b565b6129f37f00000000000000000000000000000000000000000000000000000000000000008861016001516101600151858151811061091e5761091e61526b565b612a208860200151670de0b6b3a76400008a6101600151610160015187815181106129015761290161526b565b614184565b612a2f9083615086565b9150612b1a565b612a458560a0015160006107da565b60020b85610160015161016001518281518110612a6457612a6461526b565b60200260200101516000015160020b1315612b1a57612b0d612a9b866101600151610160015183815181106108d7576108d761526b565b612adb7f00000000000000000000000000000000000000000000000000000000000000008861016001516101600151858151811061091e5761091e61526b565b612b088860200151670de0b6b3a76400008a6101600151610160015187815181106129015761290161526b565b6141ce565b612b179084615086565b92505b80612b2481615281565b9150506127b6565b5060005461016085015161010001516001600160a01b039091169063128acb0890309080612b6257612b5d866154ef565b612b6b565b612b6b856154ef565b612b8489608001518c8b610160015161010001516103e7565b60408051306020820152016040516020818303038152906040526040518663ffffffff1660e01b8152600401612bbe959493929190615490565b60408051808303816000875af1158015612bdc573d6000803e3d6000fd5b505050506040513d601f19601f82011682018060405250810190612c0091906154cb565b6101008087019190915260e0860191909152610160850151015115612e4e5760e0840151612c2e9086615099565b821115612d96576000612c518560800151888761016001516101000151156103e7565b905060008060008054906101000a90046001600160a01b03166001600160a01b031663128acb08308961016001516101000151158a60e001518c612c959190615099565b612c9f908a615099565b612ca8906154ef565b604080513060208201528991016040516020818303038152906040526040518663ffffffff1660e01b8152600401612ce4959493929190615490565b60408051808303816000875af1158015612d02573d6000803e3d6000fd5b505050506040513d601f19601f82011682018060405250810190612d2691906154cb565b915091508087610160015160e001516001600160801b03161015612d5c5760405162461bcd60e51b81526004016104b690615607565b6101608701805160e00180516001600160801b039081168490031690525160800151612d87906154ef565b61012088015250613068915050565b818460e0015186612da79190615099565b612db19190615099565b610140850181905260405163a9059cbb60e01b81526001600160a01b037f0000000000000000000000000000000000000000000000000000000000000000169163a9059cbb91612e05918b916004016153f0565b6020604051808303816000875af1158015612e24573d6000803e3d6000fd5b505050506040513d601f19601f82011682018060405250810190612e489190615409565b50613068565b610100840151612e5e9086615099565b811115612fb3576000612e818560800151888761016001516101000151156103e7565b905060008060008054906101000a90046001600160a01b03166001600160a01b031663128acb08308961016001516101000151158a61010001518c612ec69190615099565b612ed09089615099565b612ed9906154ef565b604080513060208201528991016040516020818303038152906040526040518663ffffffff1660e01b8152600401612f15959493929190615490565b60408051808303816000875af1158015612f33573d6000803e3d6000fd5b505050506040513d601f19601f82011682018060405250810190612f5791906154cb565b915091508187610160015160e001516001600160801b03161015612f8d5760405162461bcd60e51b81526004016104b690615607565b5061016086015160e00180516001600160801b0390811692909203909116905250613068565b8084610100015186612fc59190615099565b612fcf9190615099565b610140850181905260405163a9059cbb60e01b81526001600160a01b037f0000000000000000000000000000000000000000000000000000000000000000169163a9059cbb91613023918b916004016153f0565b6020604051808303816000875af1158015613042573d6000803e3d6000fd5b505050506040513d601f19601f820116820180604052508101906130669190615409565b505b8361016001516080015161307b906154ef565b61012085015260005460405163a9059cbb60e01b81526001600160a01b037f000000000000000000000000000000000000000000000000000000000000000081169263a9059cbb926130d692919091169086906004016153f0565b6020604051808303816000875af11580156130f5573d6000803e3d6000fd5b505050506040513d601f19601f820116820180604052508101906131199190615409565b5060005460405163a9059cbb60e01b81526001600160a01b037f000000000000000000000000000000000000000000000000000000000000000081169263a9059cbb9261316f92919091169085906004016153f0565b6020604051808303816000875af115801561318e573d6000803e3d6000fd5b505050506040513d601f19601f820116820180604052508101906131b29190615409565b5050505b600054610160808401510151602084015160405163e9f4fcf360e01b81526001600160a01b039093169263e9f4fcf3926131f4929091600401615645565b600060405180830381600087803b15801561320e57600080fd5b505af1158015613222573d6000803e3d6000fd5b50505050613234826101600151614238565b61016082015160e08101516001600160801b03166040840152602001518310156134b35761016082018051600060c0909101819052815160e001819052815160a0015251602001805184919061328b908390615099565b9052506101608083015161010081015191015160208401516132c09291906132bb90670de0b6b3a7640000615099565b614429565b6101608401805160608082019390935260409081019390935260015483516080810185526001600160a01b038a811682528351610100015115156020830152600054811682870152925193810193909352925163b4db07dd60e01b815292169163b4db07dd916133329160040161559b565b600060405180830381600087803b15801561334c57600080fd5b505af1158015613360573d6000803e3d6000fd5b5050600354610160808601510151604051635b664e4f60e11b81526001600160a01b03909216935063b6cc9c9e925061339b9160040161553b565b600060405180830381865afa1580156133b8573d6000803e3d6000fd5b505050506040513d6000823e601f3d908101601f191682016040526133e0919081019061554e565b61016080840180518201929092526003549151015160a08401516040516308e05f8b60e11b81526001600160a01b03909316926311c0bf16926134279290916004016155e2565b602060405180830381865afa158015613444573d6000803e3d6000fd5b505050506040513d601f19601f820116820180604052508101906134689190615582565b6102008301526101608201516060015161349290670de0b6b3a764000066071afd498d0000610dbc565b61020083018190526101608301516134ae918791906000613d50565b613528565b6001546000546101608401516101000151604051634472fbfd60e01b81526001600160a01b0393841693634472fbfd936134f5939116918a919060040161529a565b600060405180830381600087803b15801561350f57600080fd5b505af1158015613523573d6000803e3d6000fd5b505050505b506040805160c08101825260e08301518152610100830151602082015261012083015181830152610140830151606082015290820151608082015261020082015160a0820152949350505050565b61358181841561087d565b82146135b55760405162461bcd60e51b8152602060048201526003602482015262696e6360e81b60448201526064016104b6565b600354604051631542428b60e31b815260009182916001600160a01b039091169063aa121458906135ea90869060040161553b565b600060405180830381865afa158015613607573d6000803e3d6000fd5b505050506040513d6000823e601f3d908101601f1916820160405261362f9190810190615667565b91509150816136695760405162461bcd60e51b81526004016104b690602080825260049082015263216c697160e01b604082015260600190565b60005b81518110156136c2578181815181106136875761368761526b565b60200260200101518482815181106136a1576136a161526b565b602090810291909101015160400152806136ba81615281565b91505061366c565b50600054604051637c61444d60e01b81526001600160a01b0390911690637c61444d906136fa90869089906001908a906004016151bd565b600060405180830381600087803b15801561371457600080fd5b505af1158015613728573d6000803e3d6000fd5b505050505050505050565b815181516060919060006137478284615086565b90506000816001600160401b0381111561376357613763614980565b6040519080825280602002602001820160405280156137ae57816020015b60408051606081018252600080825260208083018290529282015282526000199092019101816137815790505b50905060008060005b86831080156137c557508582105b156139c4578882815181106137dc576137dc61526b565b60200260200101516000015160020b8a84815181106137fd576137fd61526b565b60200260200101516000015160020b121561385c578983815181106138245761382461526b565b602002602001015184828151811061383e5761383e61526b565b6020026020010181905250828061385490615281565b9350506139b2565b88828151811061386e5761386e61526b565b60200260200101516000015160020b8a848151811061388f5761388f61526b565b60200260200101516000015160020b13156138ee578882815181106138b6576138b661526b565b60200260200101518482815181106138d0576138d061526b565b602002602001018190525081806138e690615281565b9250506139b2565b60405180606001604052808b858151811061390b5761390b61526b565b60200260200101516000015160020b81526020018a84815181106139315761393161526b565b6020026020010151602001518c868151811061394f5761394f61526b565b602002602001015160200151613965919061570e565b6001600160801b03168152602001600081525084828151811061398a5761398a61526b565b602002602001018190525082806139a090615281565b93505081806139ae90615281565b9250505b806139bc81615281565b9150506137b7565b86831015613a24578983815181106139de576139de61526b565b60200260200101518482815181106139f8576139f861526b565b60200260200101819052508280613a0e90615281565b9350508080613a1c90615281565b9150506139c4565b85821015613a8457888281518110613a3e57613a3e61526b565b6020026020010151848281518110613a5857613a5861526b565b60200260200101819052508180613a6e90615281565b9250508080613a7c90615281565b915050613a24565b60008093505b85841015613bbe576000613a9f856001615086565b93505b86841015613b6057858481518110613abc57613abc61526b565b60200260200101516000015160020b868681518110613add57613add61526b565b60200260200101516000015160020b03613b4e5760019050858481518110613b0757613b0761526b565b602002602001015160200151868681518110613b2557613b2561526b565b6020026020010151602001818151613b3d919061570e565b6001600160801b0316905250613b60565b83613b5881615281565b945050613aa2565b80613bab57858581518110613b7757613b7761526b565b6020026020010151868381518110613b9157613b9161526b565b60200260200101819052508180613ba790615281565b9250505b5083613bb681615281565b945050613a8a565b808552613bd7856000613bd2600185615099565b6145cb565b6002811115613c5c57600093505b613bf0600182615099565b841015613c4b5784613c03856001615086565b81518110613c1357613c1361526b565b6020026020010151858581518110613c2d57613c2d61526b565b60200260200101819052508380613c4390615281565b945050613be5565b80613c558161572e565b9150508085525b50929998505050505050505050565b80516060906000816001600160401b03811115613c8a57613c8a614980565b604051908082528060200260200182016040528015613cd557816020015b6040805160608101825260008082526020808301829052928201528252600019909201910181613ca85790505b5090506000825b60018110613d465785613cf0600183615099565b81518110613d0057613d0061526b565b6020026020010151838381518110613d1a57613d1a61526b565b60200260200101819052508180613d3090615281565b9250508080613d3e9061572e565b915050613cdc565b5090949350505050565b600354604051634684e05b60e01b81526000916001600160a01b031690634684e05b90613d8190879060040161550b565b602060405180830381865afa158015613d9e573d6000803e3d6000fd5b505050506040513d601f19601f82011682018060405250810190613dc2919061551e565b6001546040805160c0810182526001600160a01b038981168252610100890151151560208301526000548116928201929092526001600160801b038716606082015292935016906325f311459060808101613e1d858861570e565b6001600160801b03168152602001868860c00151613e3b919061570e565b6001600160801b03169052604080516001600160e01b031960e085901b16815282516001600160a01b039081166004830152602084015115156024830152918301519091166044820152606082015160648201526080820151608482015260a09091015160a482015260c401600060405180830381600087803b158015613ec157600080fd5b505af1158015613ed5573d6000803e3d6000fd5b5050505083610100015115613fc6576040516323b872dd60e01b81526001600160a01b037f000000000000000000000000000000000000000000000000000000000000000016906323b872dd90613f3490339030908890600401615426565b6020604051808303816000875af1158015613f53573d6000803e3d6000fd5b505050506040513d601f19601f82011682018060405250810190613f779190615409565b5060405163a9059cbb60e01b81526001600160a01b037f0000000000000000000000000000000000000000000000000000000000000000169063a9059cbb90610bb690339086906004016153f0565b6040516323b872dd60e01b81526001600160a01b037f000000000000000000000000000000000000000000000000000000000000000016906323b872dd9061401690339030908890600401615426565b6020604051808303816000875af1158015614035573d6000803e3d6000fd5b505050506040513d601f19601f820116820180604052508101906140599190615409565b5060405163a9059cbb60e01b81526001600160a01b037f0000000000000000000000000000000000000000000000000000000000000000169063a9059cbb90610c4d90339086906004016153f0565b60006140b5848484611605565b9050600082806140c7576140c7614f5e565b84860911156104695760001981106140de57600080fd5b6001019392505050565b600080836001600160a01b0316856001600160a01b03161115614109579293925b846001600160a01b0316866001600160a01b0316116141345761412d8585856141ce565b915061417b565b836001600160a01b0316866001600160a01b0316101561416d576141598685856141ce565b9150614166858785614184565b905061417b565b614178858585614184565b90505b94509492505050565b6000826001600160a01b0316846001600160a01b031611156141a4579192915b6104666001600160801b0383166141bb8686615745565b6001600160a01b0316600160601b611605565b6000826001600160a01b0316846001600160a01b031611156141ee579192915b6001600160a01b03841661422e600160601b600160e01b03606085901b166142168787615745565b6001600160a01b0316866001600160a01b0316611605565b6104669190615765565b6040805180820182526009815268726566756e64696e6760b81b602082015260c083015160e084015192516370a0823160e01b81523060048201526142ff936001600160801b039283169216906001600160a01b037f000000000000000000000000000000000000000000000000000000000000000016906370a0823190602401602060405180830381865afa1580156142d6573d6000803e3d6000fd5b505050506040513d601f19601f820116820180604052508101906142fa9190615582565b61476a565b60008160e001518260c001516143159190615779565b6001600160801b03169050816101000151156143ce577f00000000000000000000000000000000000000000000000000000000000000006001600160a01b031663a9059cbb338460e001516001600160801b03166040518363ffffffff1660e01b81526004016143869291906153f0565b6020604051808303816000875af11580156143a5573d6000803e3d6000fd5b505050506040513d601f19601f820116820180604052508101906143c99190615409565b505050565b7f00000000000000000000000000000000000000000000000000000000000000006001600160a01b031663a9059cbb338460e001516001600160801b03166040518363ffffffff1660e01b81526004016143869291906153f0565b60008060008060005b86518110156145c05786818151811061444d5761444d61526b565b6020026020010151602001516001600160801b0316600003156145ae5786818151811061447c5761447c61526b565b60200260200101516000015191506144a986670de0b6b3a76400008984815181106129015761290161526b565b9250828782815181106144be576144be61526b565b6020908102919091018101516001600160801b03909216910152871561457d5761451f6144ea836116b7565b6145176109347f000000000000000000000000000000000000000000000000000000000000000086615226565b8560016119da565b6145299086615086565b945061456c614537836116b7565b6145646109347f000000000000000000000000000000000000000000000000000000000000000086615226565b856001611a91565b6145769085615086565b93506145ae565b614589614537836116b7565b6145939086615086565b94506145a16144ea836116b7565b6145ab9085615086565b93505b806145b881615281565b915050614432565b505050935093915050565b8082106145d757505050565b60016145e38383615099565b116145ed57505050565b818160008560026145fe8486615086565b6146089190615765565b815181106146185761461861526b565b602002602001015190505b818311614744575b806000015160020b8684815181106146455761464561526b565b60200260200101516000015160020b121561466c578261466481615281565b93505061462b565b806000015160020b8683815181106146865761468661526b565b60200260200101516000015160020b13156146ad57816146a58161572e565b92505061466c565b81831161473f578582815181106146c6576146c661526b565b60200260200101518684815181106146e0576146e061526b565b60200260200101518785815181106146fa576146fa61526b565b602002602001018885815181106147135761471361526b565b602002602001018290528290525050828061472d90615281565b935050818061473b9061572e565b9250505b614623565b81851015614757576147578686846145cb565b83831015610c9057610c908684866145cb565b6147b3848484846040516024016147849493929190615799565b60408051601f198184030181529190526020810180516001600160e01b03166304772b3360e11b1790526147b9565b50505050565b80516a636f6e736f6c652e6c6f67602083016000808483855afa5050505050565b60405180610180016040528060006001600160a01b031681526020016000815260200160008152602001600081526020016000815260200160006001600160801b0316815260200160006001600160801b0316815260200160006001600160801b03168152602001600015158152602001600063ffffffff168152602001600063ffffffff168152602001606081525090565b6040518061028001604052806000815260200160008152602001600081526020016000815260200160006001600160a01b03168152602001600060020b815260200160006001600160a01b03168152602001600081526020016000815260200160008152602001600081526020016148e36147da565b815260200160006001600160a01b03168152602001600060020b8152602001600060020b8152602001600081526020016000815260200160006001600160801b0316815260200160608152602001606081525090565b6040518060c001604052806000815260200160008152602001600081526020016000815260200160008152602001600081525090565b801515811461497d57600080fd5b50565b634e487b7160e01b600052604160045260246000fd5b604051606081016001600160401b03811182821017156149b8576149b8614980565b60405290565b60405161018081016001600160401b03811182821017156149b8576149b8614980565b604051601f8201601f191681016001600160401b0381118282101715614a0957614a09614980565b604052919050565b60006001600160401b03821115614a2a57614a2a614980565b5060051b60200190565b8060020b811461497d57600080fd5b6001600160801b038116811461497d57600080fd5b600082601f830112614a6957600080fd5b81356020614a7e614a7983614a11565b6149e1565b82815260609283028501820192828201919087851115614a9d57600080fd5b8387015b85811015614af65781818a031215614ab95760008081fd5b614ac1614996565b8135614acc81614a34565b815281860135614adb81614a43565b81870152604082810135908201528452928401928101614aa1565b5090979650505050505050565b600080600080600060a08688031215614b1b57600080fd5b8535945060208601359350604086013592506060860135614b3b8161496f565b915060808601356001600160401b03811115614b5657600080fd5b614b6288828901614a58565b9150509295509295909350565b600081518084526020808501945080840160005b83811015614bc3578151805160020b88526020808201516001600160801b0316908901526040908101519088015260608701965090820190600101614b83565b509495945050505050565b80516001600160a01b0316825260006101806020830151602085015260408301516040850152606083015160608501526080830151608085015260a0830151614c2260a08601826001600160801b03169052565b5060c0830151614c3d60c08601826001600160801b03169052565b5060e0830151614c5860e08601826001600160801b03169052565b50610100838101511515908501526101208084015163ffffffff90811691860191909152610140808501519091169085015261016080840151818601839052614ca383870182614b6f565b9695505050505050565b606081526000614cc06060830186614bce565b60208301949094525060400152919050565b6001600160a01b038116811461497d57600080fd5b600080600060608486031215614cfc57600080fd5b8335614d0781614cd2565b9250602084013591506040840135614d1e8161496f565b809150509250925092565b600080600060608486031215614d3e57600080fd5b8335614d498161496f565b95602085013595506040909401359392505050565b8460020b81528360020b6020820152608060408201526000614d836080830185614b6f565b905082606083015295945050505050565b600060208284031215614da657600080fd5b813561046981614cd2565b60008060008060808587031215614dc757600080fd5b8435935060208501359250604085013591506060850135614de78161496f565b939692955090935050565b60008060408385031215614e0557600080fd5b8235614e1081614a34565b91506020830135614e208161496f565b809150509250929050565b60008060408385031215614e3e57600080fd5b82356001600160401b03811115614e5457600080fd5b614e6085828601614a58565b9250506020830135614e208161496f565b600080600060608486031215614e8657600080fd5b8335614e9181614cd2565b92506020840135614ea18161496f565b929592945050506040919091013590565b60008060008060608587031215614ec857600080fd5b843593506020850135925060408501356001600160401b0380821115614eed57600080fd5b818701915087601f830112614f0157600080fd5b813581811115614f1057600080fd5b886020828501011115614f2257600080fd5b95989497505060200194505050565b634e487b7160e01b600052601160045260246000fd5b808202811582820484141761087757610877614f31565b634e487b7160e01b600052601260045260246000fd5b60006001600160a01b0383811680614f8e57614f8e614f5e565b92169190910492915050565b6001600160a01b03828116828216818102831692918115828504821417614fc357614fc3614f31565b50505092915050565b805161ffff81168114614fde57600080fd5b919050565b8051614fde8161496f565b600080600080600080600060e0888a03121561500957600080fd5b875161501481614cd2565b602089015190975061502581614a34565b955061503360408901614fcc565b945061504160608901614fcc565b935061504f60808901614fcc565b925060a088015160ff8116811461506557600080fd5b60c08901519092506150768161496f565b8091505092959891949750929550565b8082018082111561087757610877614f31565b8181038181111561087757610877614f31565b8051614fde81614a43565b600082601f8301126150c857600080fd5b815160206150d8614a7983614a11565b828152606092830285018201928282019190878511156150f757600080fd5b8387015b85811015614af65781818a0312156151135760008081fd5b61511b614996565b815161512681614a34565b81528186015161513581614a43565b818701526040828101519082015284529284019281016150fb565b6000806000806080858703121561516657600080fd5b845161517181614a34565b602086015190945061518281614a34565b6040860151606087015191945092506001600160401b038111156151a557600080fd5b6151b1878288016150b7565b91505092959194509250565b6080815260006151d06080830187614b6f565b9415156020830152509115156040830152606090910152919050565b60008160020b8360020b8061520357615203614f5e565b627fffff1982146000198214161561521d5761521d614f31565b90059392505050565b600281810b9083900b01627fffff8113627fffff198212171561087757610877614f31565b60008260020b8260020b028060020b9150808214610a0157610a01614f31565b634e487b7160e01b600052603260045260246000fd5b60006001820161529357615293614f31565b5060010190565b6001600160a01b039384168152919092166020820152901515604082015260600190565b8051614fde81614cd2565b805163ffffffff81168114614fde57600080fd5b6000602082840312156152ef57600080fd5b81516001600160401b038082111561530657600080fd5b90830190610180828603121561531b57600080fd5b6153236149be565b61532c836152be565b81526020830151602082015260408301516040820152606083015160608201526080830151608082015261536260a084016150ac565b60a082015261537360c084016150ac565b60c082015261538460e084016150ac565b60e0820152610100615397818501614fe3565b908201526101206153a98482016152c9565b908201526101406153bb8482016152c9565b9082015261016083810151838111156153d357600080fd5b6153df888287016150b7565b918301919091525095945050505050565b6001600160a01b03929092168252602082015260400190565b60006020828403121561541b57600080fd5b81516104698161496f565b6001600160a01b039384168152919092166020820152604081019190915260600190565b6000815180845260005b8181101561547057602081850181015186830182015201615454565b506000602082860101526020601f19601f83011685010191505092915050565b6001600160a01b0386811682528515156020830152604082018590528316606082015260a060808201819052600090611a869083018461544a565b600080604083850312156154de57600080fd5b505080516020909101519092909150565b6000600160ff1b820161550457615504614f31565b5060000390565b6020815260006104696020830184614bce565b60006020828403121561553057600080fd5b815161046981614a43565b6020815260006104696020830184614b6f565b60006020828403121561556057600080fd5b81516001600160401b0381111561557657600080fd5b610873848285016150b7565b60006020828403121561559457600080fd5b5051919050565b60208152600060018060a01b0380845116602084015260208401511515604084015280604085015116606084015250606083015160808084015261087360a0840182614bce565b6040815260006155f56040830185614b6f565b90508260020b60208301529392505050565b60208082526004908201526319985a5b60e21b604082015260600190565b8181036000831280158383131683831282161715610a0157610a01614f31565b6040815260006156586040830185614b6f565b90508260208301529392505050565b6000806040838503121561567a57600080fd5b82516156858161496f565b809250506020808401516001600160401b038111156156a357600080fd5b8401601f810186136156b457600080fd5b80516156c2614a7982614a11565b81815260059190911b820183019083810190888311156156e157600080fd5b928401925b828410156156ff578351825292840192908401906156e6565b80955050505050509250929050565b6001600160801b03818116838216019080821115610a0157610a01614f31565b60008161573d5761573d614f31565b506000190190565b6001600160a01b03828116828216039080821115610a0157610a01614f31565b60008261577457615774614f5e565b500490565b6001600160801b03828116828216039080821115610a0157610a01614f31565b6080815260006157ac608083018761544a565b602083019590955250604081019290925260609091015291905056fea2646970667358221220a5aea5e12016466564dcdb605c56b56806fb394859134c4d469f367e0cfb41c464736f6c63430008110033",
    "linkReferences": {}
  },
  "methodIdentifiers": {
    "INTEREST_REPLENISH_TIME()": "9aa886da",
    "addPosition(uint256,uint256,uint256,bool)": "3cd7bca7",
    "addPositionSpecfied(uint256,uint256,uint256,bool,(int24,uint128,uint256)[])": "0d3401ee",
    "applySlippageX96(uint160,uint256,bool)": "207b0576",
    "borrow(bool,uint256,uint256)": "25350f8e",
    "closeMaxSlippage()": "6ef83ef7",
    "closePosition(address,bool,uint256)": "7ea9843b",
    "getFilledAmount((int24,uint128,uint256)[],bool)": "786afbcc",
    "getNewPremiumQuote()": "08abb6d3",
    "globalStorage()": "6502072a",
    "liquidityManager()": "33827438",
    "pool()": "16f0115b",
    "precision()": "d3b5dc3b",
    "reducePosition(bool,uint256,uint256)": "deff1bdc",
    "roundTick(int24,bool)": "3dc306ee",
    "setLiquidityManager(address)": "3c1624d4",
    "tickSpacing()": "d0c93a7c",
    "token0()": "0dfe1681",
    "token1()": "d21220a7",
    "uniswapV3SwapCallback(int256,int256,bytes)": "fa461e33"
  },
  "id": 36
}