{
  "abi": [
    {
      "inputs": [],
      "stateMutability": "nonpayable",
      "type": "constructor"
    },
    {
      "inputs": [],
      "name": "T",
      "type": "error"
    },
    {
      "inputs": [
        {
          "internalType": "uint256",
          "name": "traderFund",
          "type": "uint256"
        },
        {
          "internalType": "uint256",
          "name": "maxSlippage",
          "type": "uint256"
        },
        {
          "internalType": "uint256",
          "name": "borrowAmount",
          "type": "uint256"
        },
        {
          "internalType": "bool",
          "name": "isToken0",
          "type": "bool"
        }
      ],
      "name": "addPosition",
      "outputs": [
        {
          "components": [
            {
              "internalType": "bool",
              "name": "isBorrow",
              "type": "bool"
            },
            {
              "internalType": "address",
              "name": "pool",
              "type": "address"
            },
            {
              "internalType": "uint256",
              "name": "totalPosition",
              "type": "uint256"
            },
            {
              "internalType": "uint256",
              "name": "totalDebt",
              "type": "uint256"
            },
            {
              "internalType": "uint256",
              "name": "totalDebtInput",
              "type": "uint256"
            },
            {
              "internalType": "uint256",
              "name": "initCollateral",
              "type": "uint256"
            },
            {
              "internalType": "uint128",
              "name": "recentPremium",
              "type": "uint128"
            },
            {
              "internalType": "uint128",
              "name": "totalPremium",
              "type": "uint128"
            },
            {
              "internalType": "uint128",
              "name": "unusedPremium",
              "type": "uint128"
            },
            {
              "internalType": "bool",
              "name": "isToken0",
              "type": "bool"
            },
            {
              "internalType": "uint32",
              "name": "openTime",
              "type": "uint32"
            },
            {
              "internalType": "uint32",
              "name": "repayTime",
              "type": "uint32"
            },
            {
              "components": [
                {
                  "internalType": "int24",
                  "name": "tick",
                  "type": "int24"
                },
                {
                  "internalType": "uint128",
                  "name": "liquidity",
                  "type": "uint128"
                },
                {
                  "internalType": "uint256",
                  "name": "premiumOrUrate",
                  "type": "uint256"
                }
              ],
              "internalType": "struct LiquidityManager.Liquidity[]",
              "name": "borrowInfo",
              "type": "tuple[]"
            }
          ],
          "internalType": "struct GlobalStorage.Position",
          "name": "",
          "type": "tuple"
        },
        {
          "internalType": "uint256",
          "name": "",
          "type": "uint256"
        },
        {
          "internalType": "uint256",
          "name": "",
          "type": "uint256"
        }
      ],
      "stateMutability": "nonpayable",
      "type": "function"
    },
    {
      "inputs": [
        {
          "internalType": "uint256",
          "name": "traderFund",
          "type": "uint256"
        },
        {
          "internalType": "uint256",
          "name": "maxSlippage",
          "type": "uint256"
        },
        {
          "internalType": "uint256",
          "name": "borrowAmount",
          "type": "uint256"
        },
        {
          "internalType": "bool",
          "name": "isToken0",
          "type": "bool"
        },
        {
          "components": [
            {
              "internalType": "int24",
              "name": "tick",
              "type": "int24"
            },
            {
              "internalType": "uint128",
              "name": "liquidity",
              "type": "uint128"
            },
            {
              "internalType": "uint256",
              "name": "premiumOrUrate",
              "type": "uint256"
            }
          ],
          "internalType": "struct LiquidityManager.Liquidity[]",
          "name": "borrowInfo",
          "type": "tuple[]"
        }
      ],
      "name": "addPositionSpecfied",
      "outputs": [
        {
          "components": [
            {
              "internalType": "bool",
              "name": "isBorrow",
              "type": "bool"
            },
            {
              "internalType": "address",
              "name": "pool",
              "type": "address"
            },
            {
              "internalType": "uint256",
              "name": "totalPosition",
              "type": "uint256"
            },
            {
              "internalType": "uint256",
              "name": "totalDebt",
              "type": "uint256"
            },
            {
              "internalType": "uint256",
              "name": "totalDebtInput",
              "type": "uint256"
            },
            {
              "internalType": "uint256",
              "name": "initCollateral",
              "type": "uint256"
            },
            {
              "internalType": "uint128",
              "name": "recentPremium",
              "type": "uint128"
            },
            {
              "internalType": "uint128",
              "name": "totalPremium",
              "type": "uint128"
            },
            {
              "internalType": "uint128",
              "name": "unusedPremium",
              "type": "uint128"
            },
            {
              "internalType": "bool",
              "name": "isToken0",
              "type": "bool"
            },
            {
              "internalType": "uint32",
              "name": "openTime",
              "type": "uint32"
            },
            {
              "internalType": "uint32",
              "name": "repayTime",
              "type": "uint32"
            },
            {
              "components": [
                {
                  "internalType": "int24",
                  "name": "tick",
                  "type": "int24"
                },
                {
                  "internalType": "uint128",
                  "name": "liquidity",
                  "type": "uint128"
                },
                {
                  "internalType": "uint256",
                  "name": "premiumOrUrate",
                  "type": "uint256"
                }
              ],
              "internalType": "struct LiquidityManager.Liquidity[]",
              "name": "borrowInfo",
              "type": "tuple[]"
            }
          ],
          "internalType": "struct GlobalStorage.Position",
          "name": "",
          "type": "tuple"
        },
        {
          "internalType": "uint256",
          "name": "",
          "type": "uint256"
        },
        {
          "internalType": "uint256",
          "name": "",
          "type": "uint256"
        }
      ],
      "stateMutability": "nonpayable",
      "type": "function"
    },
    {
      "inputs": [
        {
          "internalType": "uint160",
          "name": "price",
          "type": "uint160"
        },
        {
          "internalType": "uint256",
          "name": "maxSlippage",
          "type": "uint256"
        },
        {
          "internalType": "bool",
          "name": "down",
          "type": "bool"
        }
      ],
      "name": "applySlippageX96",
      "outputs": [
        {
          "internalType": "uint160",
          "name": "",
          "type": "uint160"
        }
      ],
      "stateMutability": "pure",
      "type": "function"
    },
    {
      "inputs": [
        {
          "internalType": "bool",
          "name": "borrowBelow",
          "type": "bool"
        },
        {
          "internalType": "uint256",
          "name": "amountSpecified",
          "type": "uint256"
        },
        {
          "internalType": "uint256",
          "name": "leverage",
          "type": "uint256"
        }
      ],
      "name": "borrow",
      "outputs": [
        {
          "internalType": "int24",
          "name": "",
          "type": "int24"
        },
        {
          "internalType": "int24",
          "name": "",
          "type": "int24"
        },
        {
          "components": [
            {
              "internalType": "int24",
              "name": "tick",
              "type": "int24"
            },
            {
              "internalType": "uint128",
              "name": "liquidity",
              "type": "uint128"
            },
            {
              "internalType": "uint256",
              "name": "premiumOrUrate",
              "type": "uint256"
            }
          ],
          "internalType": "struct LiquidityManager.Liquidity[]",
          "name": "",
          "type": "tuple[]"
        },
        {
          "internalType": "uint256",
          "name": "",
          "type": "uint256"
        }
      ],
      "stateMutability": "nonpayable",
      "type": "function"
    },
    {
      "inputs": [],
      "name": "closeMaxSlippage",
      "outputs": [
        {
          "internalType": "uint256",
          "name": "",
          "type": "uint256"
        }
      ],
      "stateMutability": "view",
      "type": "function"
    },
    {
      "inputs": [
        {
          "components": [
            {
              "internalType": "int24",
              "name": "tick",
              "type": "int24"
            },
            {
              "internalType": "uint128",
              "name": "liquidity",
              "type": "uint128"
            },
            {
              "internalType": "uint256",
              "name": "premiumOrUrate",
              "type": "uint256"
            }
          ],
          "internalType": "struct LiquidityManager.Liquidity[]",
          "name": "borrowInfo",
          "type": "tuple[]"
        },
        {
          "internalType": "bool",
          "name": "borrowBelow",
          "type": "bool"
        }
      ],
      "name": "getFilledAmount",
      "outputs": [
        {
          "internalType": "uint256",
          "name": "filledAmount",
          "type": "uint256"
        }
      ],
      "stateMutability": "view",
      "type": "function"
    },
    {
      "inputs": [],
      "name": "globalStorage",
      "outputs": [
        {
          "internalType": "contract GlobalStorage",
          "name": "",
          "type": "address"
        }
      ],
      "stateMutability": "view",
      "type": "function"
    },
    {
      "inputs": [],
      "name": "liquidityManager",
      "outputs": [
        {
          "internalType": "contract LiquidityManager",
          "name": "",
          "type": "address"
        }
      ],
      "stateMutability": "view",
      "type": "function"
    },
    {
      "inputs": [
        {
          "internalType": "address",
          "name": "trader",
          "type": "address"
        },
        {
          "internalType": "bool",
          "name": "isToken0",
          "type": "bool"
        }
      ],
      "name": "payPremium",
      "outputs": [
        {
          "internalType": "uint256",
          "name": "",
          "type": "uint256"
        }
      ],
      "stateMutability": "nonpayable",
      "type": "function"
    },
    {
      "inputs": [],
      "name": "pool",
      "outputs": [
        {
          "internalType": "contract UniswapV3Pool",
          "name": "",
          "type": "address"
        }
      ],
      "stateMutability": "view",
      "type": "function"
    },
    {
      "inputs": [],
      "name": "precision",
      "outputs": [
        {
          "internalType": "uint256",
          "name": "",
          "type": "uint256"
        }
      ],
      "stateMutability": "view",
      "type": "function"
    },
    {
      "inputs": [
        {
          "internalType": "bool",
          "name": "isToken0",
          "type": "bool"
        },
        {
          "internalType": "uint256",
          "name": "userSpecifiedSlippage",
          "type": "uint256"
        },
        {
          "internalType": "uint256",
          "name": "reduceAmount",
          "type": "uint256"
        }
      ],
      "name": "reducePosition",
      "outputs": [
        {
          "components": [
            {
              "internalType": "int256",
              "name": "amount0",
              "type": "int256"
            },
            {
              "internalType": "int256",
              "name": "amount1",
              "type": "int256"
            },
            {
              "internalType": "int256",
              "name": "PnL",
              "type": "int256"
            },
            {
              "internalType": "uint256",
              "name": "returnedAmount",
              "type": "uint256"
            },
            {
              "internalType": "uint256",
              "name": "unusedPremium",
              "type": "uint256"
            },
            {
              "internalType": "uint256",
              "name": "premium",
              "type": "uint256"
            }
          ],
          "internalType": "struct ReduceReturn",
          "name": "",
          "type": "tuple"
        }
      ],
      "stateMutability": "nonpayable",
      "type": "function"
    },
    {
      "inputs": [
        {
          "internalType": "int24",
          "name": "tick",
          "type": "int24"
        },
        {
          "internalType": "bool",
          "name": "down",
          "type": "bool"
        }
      ],
      "name": "roundTick",
      "outputs": [
        {
          "internalType": "int24",
          "name": "",
          "type": "int24"
        }
      ],
      "stateMutability": "view",
      "type": "function"
    },
    {
      "inputs": [
        {
          "internalType": "address",
          "name": "ad",
          "type": "address"
        }
      ],
      "name": "setLiquidityManager",
      "outputs": [],
      "stateMutability": "nonpayable",
      "type": "function"
    },
    {
      "inputs": [],
      "name": "tickSpacing",
      "outputs": [
        {
          "internalType": "int24",
          "name": "",
          "type": "int24"
        }
      ],
      "stateMutability": "view",
      "type": "function"
    },
    {
      "inputs": [],
      "name": "token0",
      "outputs": [
        {
          "internalType": "contract ERC20",
          "name": "",
          "type": "address"
        }
      ],
      "stateMutability": "view",
      "type": "function"
    },
    {
      "inputs": [],
      "name": "token1",
      "outputs": [
        {
          "internalType": "contract ERC20",
          "name": "",
          "type": "address"
        }
      ],
      "stateMutability": "view",
      "type": "function"
    },
    {
      "inputs": [
        {
          "internalType": "int256",
          "name": "amount0Delta",
          "type": "int256"
        },
        {
          "internalType": "int256",
          "name": "amount1Delta",
          "type": "int256"
        },
        {
          "internalType": "bytes",
          "name": "data",
          "type": "bytes"
        }
      ],
      "name": "uniswapV3SwapCallback",
      "outputs": [],
      "stateMutability": "nonpayable",
      "type": "function"
    }
  ],
  "bytecode": {
    "object": "0x60e06040523480156200001157600080fd5b50600080336001600160a01b031663890357306040518163ffffffff1660e01b81526004016040805180830381865afa15801562000053573d6000803e3d6000fd5b505050506040513d601f19601f820116820180604052508101906200007991906200023e565b600080546001600160a01b038085166001600160a01b03199283168117909355600180549185169190921617905560408051630dfe168160e01b8152905193955091935091630dfe1681916004808201926020929091908290030181865afa158015620000ea573d6000803e3d6000fd5b505050506040513d601f19601f8201168201806040525081019062000110919062000276565b60008054906101000a90046001600160a01b03166001600160a01b031663d21220a76040518163ffffffff1660e01b8152600401602060405180830381865afa15801562000162573d6000803e3d6000fd5b505050506040513d601f19601f8201168201806040525081019062000188919062000276565b6001600160a01b0390811660c05290811660a052600054604080516334324e9f60e21b81529051919092169163d0c93a7c9160048083019260209291908290030181865afa158015620001df573d6000803e3d6000fd5b505050506040513d601f19601f820116820180604052508101906200020591906200029b565b600290810b608052670de7d1b0f0f10000905550620002c09050565b80516001600160a01b03811681146200023957600080fd5b919050565b600080604083850312156200025257600080fd5b6200025d8362000221565b91506200026d6020840162000221565b90509250929050565b6000602082840312156200028957600080fd5b620002948262000221565b9392505050565b600060208284031215620002ae57600080fd5b81518060020b81146200029457600080fd5b60805160a05160c0516158fa620003f3600039600081816102c801528181610d4f01528181610f7f015281816118510152818161190901528181611c2e01528181611cc8015281816129b601528181612a8001528181612d8e01528181613759015261389f01526000818161014b01528181610cb8015281816110190152818161198e01528181611a4601528181611d1b01528181611db501528181612bc501528181612c8f01528181612db40152818161353901526138060152600081816102a1015281816107e6015281816108140152818161085201528181610a9301528181610b320152818161243a015281816124bd015281816125310152818161279401528181612f7a01528181613004015281816131230152818161320b01528181614730015261477d01526158fa6000f3fe608060405234801561001057600080fd5b50600436106101165760003560e01c80633e45c92f116100a2578063d0c93a7c11610071578063d0c93a7c1461029c578063d21220a7146102c3578063d3b5dc3b146102ea578063deff1bdc146102f9578063fa461e331461035857600080fd5b80633e45c92f1461024c5780636502072a1461026d5780636ef83ef714610280578063786afbcc1461028957600080fd5b806325350f8e116100e957806325350f8e146101ab57806333827438146101ce5780633c1624d4146101e15780633cd7bca7146102135780633dc306ee1461022657600080fd5b80630d3401ee1461011b5780630dfe16811461014657806316f0115b14610185578063207b057614610198575b600080fd5b61012e610129366004614c76565b61036b565b60405161013d93929190614e23565b60405180910390f35b61016d7f000000000000000000000000000000000000000000000000000000000000000081565b6040516001600160a01b03909116815260200161013d565b60005461016d906001600160a01b031681565b61016d6101a6366004614e5d565b6103c2565b6101be6101b9366004614e9f565b610474565b60405161013d9493929190614ed4565b60035461016d906001600160a01b031681565b6102116101ef366004614f0a565b600380546001600160a01b0319166001600160a01b0392909216919091179055565b005b61012e610221366004614f27565b610750565b610239610234366004614f68565b6107de565b60405160029190910b815260200161013d565b61025f61025a366004614fa1565b610881565b60405190815260200161013d565b60015461016d906001600160a01b031681565b61025f60025481565b61025f610297366004614fbf565b610a23565b6102397f000000000000000000000000000000000000000000000000000000000000000081565b61016d7f000000000000000000000000000000000000000000000000000000000000000081565b61025f670de0b6b3a764000081565b61030c610307366004614e9f565b610bae565b60405161013d9190600060c082019050825182526020830151602083015260408301516040830152606083015160608301526080830151608083015260a083015160a083015292915050565b610211610366366004615005565b610c88565b6103736149a8565b6000806103b16040518060a001604052808a81526020018981526020018881526020018715158152602001336001600160a01b031681525085610dd2565b925092509250955095509592505050565b6000806103e06001600160a01b038616670de0b6b3a764000061509a565b905060006103f685670de0b6b3a764000061509a565b9050600061040c670de0b6b3a76400008061509a565b9050841561044b5760006104296104248380866116cc565b61177e565b905081610436828661509a565b61044091906150c7565b94505050505061046d565b60006104568361177e565b90508061046383866150c7565b610440919061509a565b9392505050565b60008060606000670de0b6b3a764000085116104c35760405162461bcd60e51b81526020600482015260096024820152683bb937b733903632bb60b91b60448201526064015b60405180910390fd5b6104cb614a16565b60008054906101000a90046001600160a01b03166001600160a01b0316633850c7bd6040518163ffffffff1660e01b815260040160e060405180830381865afa15801561051c573d6000803e3d6000fd5b505050506040513d601f19601f8201168201806040525081019061054091906150fd565b5050505060029190910b60a0840152506001600160a01b0316608082018190526105bf90896105935761057c670de0b6b3a7640000808a6116cc565b61058e90670de0b6b3a7640000615195565b6105b8565b6105a6670de0b6b3a7640000808a6116cc565b6105b890670de0b6b3a76400006151a8565b60006103c2565b6001600160a01b0316610180820181905261060190896105e757670ddd2935029d80006105f1565b670de444324c2a80005b6001600160401b031660006103c2565b6001600160a01b039081166101808301819052600354608084015160405163053ef28b60e01b81528c15156004820152602481019390935283166044830152606482018a90529091169063053ef28b90608401600060405180830381865afa158015610671573d6000803e3d6000fd5b505050506040513d6000823e601f3d908101601f19168201604052610699919081019061525f565b61026085018190526101e0850191909152600291820b6101c085015291900b6101a0830152600054604051637c61444d60e01b81526001600160a01b0390911691637c61444d916106f491908c906001908d906004016152cc565b600060405180830381600087803b15801561070e57600080fd5b505af1158015610722573d6000803e3d6000fd5b50505050806101c00151816101a00151826102600151836101e0015194509450945094505093509350935093565b6107586149a8565b6040805160a08101825286815260208082018790528183018690528415156060830152336080830152825160008082529181019093529182916107ce91836107c8565b604080516060810182526000808252602080830182905292820152825260001990920191018161079b5790505b50610dd2565b9250925092509450945094915050565b60008061080b7f0000000000000000000000000000000000000000000000000000000000000000856152fb565b90508261084d577f000000000000000000000000000000000000000000000000000000000000000061083e826001615335565b610848919061535a565b610877565b6108777f00000000000000000000000000000000000000000000000000000000000000008261535a565b9150505b92915050565b60015460405163750ff6b560e01b81523060048201526001600160a01b0384811660248301528315156044830152600092839291169063750ff6b590606401600060405180830381865afa1580156108dd573d6000803e3d6000fd5b505050506040513d6000823e601f3d908101601f191682016040526109059190810190615399565b905060008060008054906101000a90046001600160a01b03166001600160a01b0316633850c7bd6040518163ffffffff1660e01b815260040160e060405180830381865afa15801561095b573d6000803e3d6000fd5b505050506040513d601f19601f8201168201806040525081019061097f91906150fd565b50505050509150915061099183611822565b6003546101808401516040516308e05f8b60e11b81526000926001600160a01b0316916311c0bf16916109c9919086906004016154be565b602060405180830381865afa1580156109e6573d6000803e3d6000fd5b505050506040513d601f19601f82011682018060405250810190610a0a91906154e3565b9050610a198785836000611a81565b9695505050505050565b6000805b8351811015610ba757838181518110610a4257610a426154fc565b6020026020010151602001516001600160801b031660000315610b95578215610b1557610b04610a8e858381518110610a7d57610a7d6154fc565b602002602001015160000151611dec565b610adf7f0000000000000000000000000000000000000000000000000000000000000000878581518110610ac457610ac46154fc565b602002602001015160000151610ada9190615335565b611dec565b868481518110610af157610af16154fc565b602002602001015160200151600161210f565b610b0e9083615195565b9150610b95565b610b88610b2d858381518110610a7d57610a7d6154fc565b610b637f0000000000000000000000000000000000000000000000000000000000000000878581518110610ac457610ac46154fc565b868481518110610b7557610b756154fc565b60200260200101516020015160016121c6565b610b929083615195565b91505b80610b9f81615512565b915050610a27565b5092915050565b610be76040518060c001604052806000815260200160008152602001600081526020016000815260200160008152602001600081525090565b610bef614a16565b60015460405163750ff6b560e01b815230600482015233602482015286151560448201526001600160a01b039091169063750ff6b590606401600060405180830381865afa158015610c45573d6000803e3d6000fd5b505050506040513d6000823e601f3d908101601f19168201604052610c6d9190810190615399565b610160820152610c7f33858584612236565b95945050505050565b6000610c9682840184614f0a565b90506000851315610d385760405163a9059cbb60e01b81526001600160a01b037f0000000000000000000000000000000000000000000000000000000000000000169063a9059cbb90610cef903390899060040161552b565b6020604051808303816000875af1158015610d0e573d6000803e3d6000fd5b505050506040513d601f19601f82011682018060405250810190610d329190615544565b50610dcb565b60405163a9059cbb60e01b81526001600160a01b037f0000000000000000000000000000000000000000000000000000000000000000169063a9059cbb90610d86903390889060040161552b565b6020604051808303816000875af1158015610da5573d6000803e3d6000fd5b505050506040513d601f19601f82011682018060405250810190610dc99190615544565b505b5050505050565b610dda6149a8565b600080610de5614a16565b6001546080870151606088015160405163750ff6b560e01b81523060048201526001600160a01b0392831660248201529015156044820152600092919091169063750ff6b590606401600060405180830381865afa158015610e4b573d6000803e3d6000fd5b505050506040513d6000823e601f3d908101601f19168201604052610e739190810190615399565b61014081015190915063ffffffff1615610ece5786606001511515816101200151151514610ece5760405162461bcd60e51b81526020600482015260086024820152676469666620706f7360c01b60448201526064016104ba565b8551600003610f2b57606087015160408801518851610f089291906101b990670de0b6b3a764000090610f018185615195565b91906116cc565b6101e0860152610260850152600290810b6101a08501520b6101c0830152610f47565b610f3e8760600151886040015188613cf5565b61026082018690525b610f5a8261026001518860600151610a23565b82526060870151156110005786516040516323b872dd60e01b81526001600160a01b037f000000000000000000000000000000000000000000000000000000000000000016916323b872dd91610fb7913391309190600401615561565b6020604051808303816000875af1158015610fd6573d6000803e3d6000fd5b505050506040513d601f19601f82011682018060405250810190610ffa9190615544565b50611096565b86516040516323b872dd60e01b81526001600160a01b037f000000000000000000000000000000000000000000000000000000000000000016916323b872dd91611051913391309190600401615561565b6020604051808303816000875af1158015611070573d6000803e3d6000fd5b505050506040513d601f19601f820116820180604052508101906110949190615544565b505b60008054906101000a90046001600160a01b03166001600160a01b0316633850c7bd6040518163ffffffff1660e01b815260040160e060405180830381865afa1580156110e7573d6000803e3d6000fd5b505050506040513d601f19601f8201168201806040525081019061110b91906150fd565b5050505060029190910b60a0850152506001600160a01b039081166080840152600054606089015160408a01518a51929093169263128acb08923092159161115291615195565b61116a87608001518d602001518e60600151156103c2565b60408051306020820152016040516020818303038152906040526040518663ffffffff1660e01b81526004016111a4959493929190615585565b60408051808303816000875af11580156111c2573d6000803e3d6000fd5b505050506040513d601f19601f820116820180604052508101906111e691906155ff565b61010084015260e08301526060870151801561120f5750815160e083015161120d90615623565b105b80611235575086606001511580156112355750815161010083015161123390615623565b105b1561126b5760405162461bcd60e51b81526004016104ba90602080825260049082015263216c697160e01b604082015260600190565b61016081015163ffffffff161561131c576003546040516313804b0d60e11b81526001600160a01b0390911690632700961a906112ac90849060040161563f565b602060405180830381865afa1580156112c9573d6000803e3d6000fd5b505050506040513d601f19601f820116820180604052508101906112ed9190615652565b6001600160801b031661010082015261130581611822565b600060c08201819052610100820181905260e08201525b86606001511561134d578160e0015161133490615623565b816040018181516113459190615195565b905250611371565b81610100015161135c90615623565b8160400181815161136d9190615195565b9052505b8151606082018051611384908390615195565b905250604087015160808201805161139d908390615195565b905250865160a0820180516113b3908390615195565b9052506060870151151561012082015263ffffffff428116610160830152610140820151166000036113ed5763ffffffff42166101408201525b61018081015151156114b25761026082015161018082015161140e91613eb2565b61026083015260608701516114325761142b8261026001516143ea565b6102608301525b600354610260830151604051635b664e4f60e11b81526001600160a01b039092169163b6cc9c9e916114669160040161566f565b600060405180830381865afa158015611483573d6000803e3d6000fd5b505050506040513d6000823e601f3d908101601f191682016040526114ab9190810190615682565b6102608301525b6102608201516101808201526001546040805160808082018352600080546001600160a01b039081168452918c0151821660208401526060808d015115158486015283015291516346bd036360e01b815291909216916346bd03639161151b91906004016156b6565b6020604051808303816000875af115801561153a573d6000803e3d6000fd5b505050506040513d601f19601f8201168201806040525081019061155e91906154e3565b506001546040805160a0810182526080808b01516001600160a01b0390811683526060808d0151151560208501526000848601819052548216908401529082018590529151630b19e25960e41b8152919092169163b19e2590916115c591906004016156f3565b6000604051808303816000875af11580156115e4573d6000803e3d6000fd5b505050506040513d6000823e601f3d908101601f1916820160405261160c9190810190615399565b60035461026084015160a08501516040516308e05f8b60e11b81529394506001600160a01b03909216926311c0bf169261164992916004016154be565b602060405180830381865afa158015611666573d6000803e3d6000fd5b505050506040513d601f19601f8201168201806040525081019061168a91906154e3565b6102008301819052608088015160408401516116a7928491611a81565b610100810151610200929092015190976001600160801b039092169650945092505050565b600080806000198587098587029250828110838203039150508060000361170557600084116116fa57600080fd5b50829004905061046d565b80841161171157600080fd5b6000848688096000868103871696879004966002600389028118808a02820302808a02820302808a02820302808a02820302808a02820302808a02909103029181900381900460010186841190950394909402919094039290920491909117919091029150509392505050565b60b581600160881b81106117975760409190911b9060801c5b690100000000000000000081106117b35760209190911b9060401c5b6501000000000081106117cb5760109190911b9060201c5b630100000081106117e15760089190911b9060101c5b62010000010260121c80820401600190811c80830401811c80830401811c80830401811c80830401811c80830401811c80830401901c908190048111900390565b60008161010001518260c001516118399190615746565b6001600160801b031690508161012001511561198c577f00000000000000000000000000000000000000000000000000000000000000006001600160a01b031663a9059cbb338461010001516001600160801b03166040518363ffffffff1660e01b81526004016118ab92919061552b565b6020604051808303816000875af11580156118ca573d6000803e3d6000fd5b505050506040513d601f19601f820116820180604052508101906118ee9190615544565b5060005460405163a9059cbb60e01b81526001600160a01b037f000000000000000000000000000000000000000000000000000000000000000081169263a9059cbb92611944929190911690859060040161552b565b6020604051808303816000875af1158015611963573d6000803e3d6000fd5b505050506040513d601f19601f820116820180604052508101906119879190615544565b505050565b7f00000000000000000000000000000000000000000000000000000000000000006001600160a01b031663a9059cbb338461010001516001600160801b03166040518363ffffffff1660e01b81526004016119e892919061552b565b6020604051808303816000875af1158015611a07573d6000803e3d6000fd5b505050506040513d601f19601f82011682018060405250810190611a2b9190615544565b5060005460405163a9059cbb60e01b81526001600160a01b037f000000000000000000000000000000000000000000000000000000000000000081169263a9059cbb92611944929190911690859060040161552b565b6003546040516313804b0d60e11b81526000916001600160a01b031690632700961a90611ab290879060040161563f565b602060405180830381865afa158015611acf573d6000803e3d6000fd5b505050506040513d601f19601f82011682018060405250810190611af39190615652565b6001546040805160e080820183526001600160a01b038a811683526101208a01511515602084015260009383018490529254831660608301526001600160801b0388166080830181905260a083015288015193945091169163d9562ec7919060c0820190611b62908890615766565b6001600160801b03169052604080516001600160e01b031960e085901b16815282516001600160a01b0390811660048301526020840151151560248301529183015115156044820152606083015190911660648201526080820151608482015260a082015160a482015260c09091015160c482015260e401600060405180830381600087803b158015611bf457600080fd5b505af1158015611c08573d6000803e3d6000fd5b5050505083610120015115611d04576040516323b872dd60e01b81526001600160a01b037f000000000000000000000000000000000000000000000000000000000000000016906323b872dd90611c6790339030908890600401615561565b6020604051808303816000875af1158015611c86573d6000803e3d6000fd5b505050506040513d601f19601f82011682018060405250810190611caa9190615544565b508115611cff5760405163a9059cbb60e01b81526001600160a01b037f0000000000000000000000000000000000000000000000000000000000000000169063a9059cbb90610cef903390869060040161552b565b610dcb565b6040516323b872dd60e01b81526001600160a01b037f000000000000000000000000000000000000000000000000000000000000000016906323b872dd90611d5490339030908890600401615561565b6020604051808303816000875af1158015611d73573d6000803e3d6000fd5b505050506040513d601f19601f82011682018060405250810190611d979190615544565b508115610dcb5760405163a9059cbb60e01b81526001600160a01b037f0000000000000000000000000000000000000000000000000000000000000000169063a9059cbb90610d86903390869060040161552b565b60008060008360020b12611e03578260020b611e0b565b8260020b6000035b9050620d89e8811115611e31576040516315e4079d60e11b815260040160405180910390fd5b600081600116600003611e4857600160801b611e5a565b6ffffcb933bd6fad37aa2d162d1a5940015b70ffffffffffffffffffffffffffffffffff1690506002821615611e8e576ffff97272373d413259a46990580e213a0260801c5b6004821615611ead576ffff2e50f5f656932ef12357cf3c7fdcc0260801c5b6008821615611ecc576fffe5caca7e10e4e61c3624eaa0941cd00260801c5b6010821615611eeb576fffcb9843d60f6159c9db58835c9266440260801c5b6020821615611f0a576fff973b41fa98c081472e6896dfb254c00260801c5b6040821615611f29576fff2ea16466c96a3843ec78b326b528610260801c5b6080821615611f48576ffe5dee046a99a2a811c461f1969c30530260801c5b610100821615611f68576ffcbe86c7900a88aedcffc83b479aa3a40260801c5b610200821615611f88576ff987a7253ac413176f2b074cf7815e540260801c5b610400821615611fa8576ff3392b0822b70005940c7a398e4b70f30260801c5b610800821615611fc8576fe7159475a2c29b7443b29c7fa6e889d90260801c5b611000821615611fe8576fd097f3bdfd2022b8845ad8f792aa58250260801c5b612000821615612008576fa9f746462d870fdf8a65dc1f90e061e50260801c5b614000821615612028576f70d869a156d2a1b890bb3df62baf32f70260801c5b618000821615612048576f31be135f97d08fd981231505542fcfa60260801c5b62010000821615612069576f09aa508b5b7a84e1c677de54f3e99bc90260801c5b62020000821615612089576e5d6af8dedb81196699c329225ee6040260801c5b620400008216156120a8576d2216e584f5fa1ea926041bedfe980260801c5b620800008216156120c5576b048a170391f7dc42444e8fa20260801c5b60008460020b13156120e65780600019816120e2576120e26150b1565b0490505b6401000000008106156120fa5760016120fd565b60005b60ff16602082901c0192505050919050565b6000836001600160a01b0316856001600160a01b0316111561212f579293925b600160601b600160e01b03606084901b166001600160a01b03868603811690871661215957600080fd5b8361218f57866001600160a01b031661217c8383896001600160a01b03166116cc565b81612189576121896150b1565b046121bb565b6121bb6121a68383896001600160a01b03166144cf565b886001600160a01b0316808204910615150190565b979650505050505050565b6000836001600160a01b0316856001600160a01b031611156121e6579293925b816122135761220e836001600160801b03168686036001600160a01b0316600160601b6116cc565b610c7f565b610c7f836001600160801b03168686036001600160a01b0316600160601b6144cf565b61226f6040518060c001604052806000815260200160008152602001600081526020016000815260200160008152602001600081525090565b6000826101600151604001511180156122915750816101600151604001518311155b6122c35760405162461bcd60e51b8152602060048201526003602482015262706f7360e81b60448201526064016104ba565b60008054906101000a90046001600160a01b03166001600160a01b0316633850c7bd6040518163ffffffff1660e01b815260040160e060405180830381865afa158015612314573d6000803e3d6000fd5b505050506040513d601f19601f8201168201806040525081019061233891906150fd565b5050505060029190910b60a0850152506001600160a01b0390811660808401526101608301516101808101515160608501526003546040516313804b0d60e11b8152921691632700961a9161238f9160040161563f565b602060405180830381865afa1580156123ac573d6000803e3d6000fd5b505050506040513d601f19601f820116820180604052508101906123d09190615652565b6101608301516001600160801b039091166101009091015260035460ff600160a01b9091041661248a5761248582610160015161012001516124385782610160015161018001516001846060015161242891906151a8565b81518110610a7d57610a7d6154fc565b7f000000000000000000000000000000000000000000000000000000000000000083610160015161018001516001856060015161247591906151a8565b81518110610ac457610ac46154fc565b612512565b6125126124f883610160015161012001516124bb5783610160015161018001516001856060015161242891906151a8565b7f000000000000000000000000000000000000000000000000000000000000000084610160015161018001516001866060015161247591906151a8565b670de444324c2a80008461016001516101200151156103c2565b6001600160a01b031660c08301526101608201516101200151612588577f0000000000000000000000000000000000000000000000000000000000000000826101600151610180015160008151811061256d5761256d6154fc565b6020026020010151600001516125839190615335565b6125b2565b81610160015161018001516000815181106125a5576125a56154fc565b6020026020010151600001515b60020b6101a0830152610160820151604001516125da908490670de0b6b3a7640000906116cc565b60208301526101608201516101200151612611578160c001516001600160a01b031682608001516001600160a01b03161115612630565b8160c001516001600160a01b031682608001516001600160a01b031610155b15612d1557600054610160830151610120015160808401516001600160a01b039092169163128acb089130918790612669908a846103c2565b60408051306020820152016040516020818303038152906040526040518663ffffffff1660e01b81526004016126a3959493929190615585565b60408051808303816000875af11580156126c1573d6000803e3d6000fd5b505050506040513d601f19601f820116820180604052508101906126e591906155ff565b61010084015260e0830152600354600160a01b900460ff16156128ba5760008060009054906101000a90046001600160a01b03166001600160a01b0316633850c7bd6040518163ffffffff1660e01b815260040160e060405180830381865afa158015612756573d6000803e3d6000fd5b505050506040513d601f19601f8201168201806040525081019061277a91906150fd565b5050505050915050826101600151610120015115612843577f00000000000000000000000000000000000000000000000000000000000000008361016001516101800151600185606001516127cf91906151a8565b815181106127df576127df6154fc565b6020026020010151600001516127f59190615335565b60020b8160020b121561283e5760405162461bcd60e51b8152602060048201526011602482015270747261646520626f756e64206661696c3160781b60448201526064016104ba565b6128b8565b82610160015161018001516001846060015161285f91906151a8565b8151811061286f5761286f6154fc565b60200260200101516000015160020b8160020b13156128b85760405162461bcd60e51b81526020600482015260056024820152646661696c3160d81b60448201526064016104ba565b505b6020820151610160830151608001516000916128df9190670de0b6b3a76400006116cc565b9050826101600151610120015115612b04578083610160015161010001516001600160801b031684610100015161291590615623565b61291f9190615195565b101561293d5760405162461bcd60e51b81526004016104ba90615786565b82610100015161294c90615623565b811061297d576101008084015161016085015190910180519183016001600160801b03928316039091169052612a66565b8083610100015161298d90615623565b61299791906157a4565b610120840181905260405163a9059cbb60e01b81526001600160a01b037f0000000000000000000000000000000000000000000000000000000000000000169163a9059cbb916129eb918a9160040161552b565b6020604051808303816000875af1158015612a0a573d6000803e3d6000fd5b505050506040513d601f19601f82011682018060405250810190612a2e9190615544565b50602083015161016084015160a00151612a5091670de0b6b3a76400006116cc565b8361012001818151612a6291906157a4565b9052505b60005460405163a9059cbb60e01b81526001600160a01b037f000000000000000000000000000000000000000000000000000000000000000081169263a9059cbb92612abb929190911690859060040161552b565b6020604051808303816000875af1158015612ada573d6000803e3d6000fd5b505050506040513d601f19601f82011682018060405250810190612afe9190615544565b50612d0f565b8083610160015161010001516001600160801b03168460e00151612b2790615623565b612b319190615195565b1015612b4f5760405162461bcd60e51b81526004016104ba90615786565b8260e00151612b5d90615623565b8110612b8d5760e08301516101608401516101000180519183016001600160801b03928316039091169052612c75565b808360e00151612b9c90615623565b612ba691906157a4565b610120840181905260405163a9059cbb60e01b81526001600160a01b037f0000000000000000000000000000000000000000000000000000000000000000169163a9059cbb91612bfa918a9160040161552b565b6020604051808303816000875af1158015612c19573d6000803e3d6000fd5b505050506040513d601f19601f82011682018060405250810190612c3d9190615544565b50602083015161016084015160a00151612c5f91670de0b6b3a76400006116cc565b8361012001818151612c7191906157a4565b9052505b60005460405163a9059cbb60e01b81526001600160a01b037f000000000000000000000000000000000000000000000000000000000000000081169263a9059cbb92612cca929190911690859060040161552b565b6020604051808303816000875af1158015612ce9573d6000803e3d6000fd5b505050506040513d601f19601f82011682018060405250810190612d0d9190615544565b505b50613921565b8161016001516101200151612d4f57612d32826101a00151611dec565b6001600160a01b031682608001516001600160a01b031611612d76565b612d5d826101a00151611dec565b6001600160a01b031682608001516001600160a01b0316105b15612f1b5760008261016001516101200151612db2577f0000000000000000000000000000000000000000000000000000000000000000612dd4565b7f00000000000000000000000000000000000000000000000000000000000000005b602084015161016085015160600151919250600091612dfb91670de0b6b3a76400006116cc565b905083610160015160a00151612e1090615623565b610120850152612e2081866151a8565b61014085015260005460405163a9059cbb60e01b81526001600160a01b038481169263a9059cbb92612e5a9290911690859060040161552b565b6020604051808303816000875af1158015612e79573d6000803e3d6000fd5b505050506040513d601f19601f82011682018060405250810190612e9d9190615544565b5061014084015160405163a9059cbb60e01b81526001600160a01b0384169163a9059cbb91612ed0918b9160040161552b565b6020604051808303816000875af1158015612eef573d6000803e3d6000fd5b505050506040513d601f19601f82011682018060405250810190612f139190615544565b505050613921565b60008060005b846101600151610180015151811015613297578460a0015160020b85610160015161018001518281518110612f5857612f586154fc565b60200260200101516000015160020b13158015612fd057508460a0015160020b7f000000000000000000000000000000000000000000000000000000000000000086610160015161018001518381518110612fb557612fb56154fc565b602002602001015160000151612fcb9190615335565b60020b135b156130b9576000806130958760800151612fff89610160015161018001518681518110610a7d57610a7d6154fc565b61303f7f00000000000000000000000000000000000000000000000000000000000000008b610160015161018001518881518110610ac457610ac46154fc565b6130908b60200151670de0b6b3a76400008d610160015161018001518a8151811061306c5761306c6154fc565b6020026020010151602001516001600160801b03166116cc9092919063ffffffff16565b61450f565b90925090506130a48286615195565b94506130b08185615195565b93505050613285565b6130c88560a0015160016107de565b60020b856101600151610180015182815181106130e7576130e76154fc565b60200260200101516000015160020b12156131a15761319061311e86610160015161018001518381518110610a7d57610a7d6154fc565b61315e7f000000000000000000000000000000000000000000000000000000000000000088610160015161018001518581518110610ac457610ac46154fc565b61318b8860200151670de0b6b3a76400008a61016001516101800151878151811061306c5761306c6154fc565b6145ab565b61319a9083615195565b9150613285565b6131b08560a0015160006107de565b60020b856101600151610180015182815181106131cf576131cf6154fc565b60200260200101516000015160020b13156132855761327861320686610160015161018001518381518110610a7d57610a7d6154fc565b6132467f000000000000000000000000000000000000000000000000000000000000000088610160015161018001518581518110610ac457610ac46154fc565b6132738860200151670de0b6b3a76400008a61016001516101800151878151811061306c5761306c6154fc565b6145fd565b6132829084615195565b92505b8061328f81615512565b915050612f21565b5060005461016085015161012001516001600160a01b039091169063128acb08903090806132cd576132c886615623565b6132d6565b6132d685615623565b6132ef89608001518c8b610160015161012001516103c2565b60408051306020820152016040516020818303038152906040526040518663ffffffff1660e01b8152600401613329959493929190615585565b60408051808303816000875af1158015613347573d6000803e3d6000fd5b505050506040513d601f19601f8201168201806040525081019061336b91906155ff565b61010086015260e08501526101608401516101200151156135b75760e084015161339590866151a8565b8211156134ff5760006133b88560800151888761016001516101200151156103c2565b905060008060008054906101000a90046001600160a01b03166001600160a01b031663128acb08308961016001516101200151158a60e001518c6133fc91906151a8565b613406908a6151a8565b61340f90615623565b604080513060208201528991016040516020818303038152906040526040518663ffffffff1660e01b815260040161344b959493929190615585565b60408051808303816000875af1158015613469573d6000803e3d6000fd5b505050506040513d601f19601f8201168201806040525081019061348d91906155ff565b915091508087610160015161010001516001600160801b031610156134c45760405162461bcd60e51b81526004016104ba90615786565b610160870180516101000180516001600160801b039081168490031690525160a001516134f090615623565b610120880152506137d3915050565b818460e001518661351091906151a8565b61351a91906151a8565b610140850181905260405163a9059cbb60e01b81526001600160a01b037f0000000000000000000000000000000000000000000000000000000000000000169163a9059cbb9161356e918b9160040161552b565b6020604051808303816000875af115801561358d573d6000803e3d6000fd5b505050506040513d601f19601f820116820180604052508101906135b19190615544565b506137d3565b6101008401516135c790866151a8565b81111561371e5760006135ea8560800151888761016001516101200151156103c2565b905060008060008054906101000a90046001600160a01b03166001600160a01b031663128acb08308961016001516101200151158a61010001518c61362f91906151a8565b61363990896151a8565b61364290615623565b604080513060208201528991016040516020818303038152906040526040518663ffffffff1660e01b815260040161367e959493929190615585565b60408051808303816000875af115801561369c573d6000803e3d6000fd5b505050506040513d601f19601f820116820180604052508101906136c091906155ff565b915091508187610160015161010001516001600160801b031610156136f75760405162461bcd60e51b81526004016104ba90615786565b506101608601516101000180516001600160801b03908116929092039091169052506137d3565b808461010001518661373091906151a8565b61373a91906151a8565b610140850181905260405163a9059cbb60e01b81526001600160a01b037f0000000000000000000000000000000000000000000000000000000000000000169163a9059cbb9161378e918b9160040161552b565b6020604051808303816000875af11580156137ad573d6000803e3d6000fd5b505050506040513d601f19601f820116820180604052508101906137d19190615544565b505b83610160015160a001516137e690615623565b61012085015260005460405163a9059cbb60e01b81526001600160a01b037f000000000000000000000000000000000000000000000000000000000000000081169263a9059cbb92613841929190911690869060040161552b565b6020604051808303816000875af1158015613860573d6000803e3d6000fd5b505050506040513d601f19601f820116820180604052508101906138849190615544565b5060005460405163a9059cbb60e01b81526001600160a01b037f000000000000000000000000000000000000000000000000000000000000000081169263a9059cbb926138da929190911690859060040161552b565b6020604051808303816000875af11580156138f9573d6000803e3d6000fd5b505050506040513d601f19601f8201168201806040525081019061391d9190615544565b5050505b6000546101608301516101800151602084015160405163e9f4fcf360e01b81526001600160a01b039093169263e9f4fcf3926139619290916004016157c4565b600060405180830381600087803b15801561397b57600080fd5b505af115801561398f573d6000803e3d6000fd5b505050506139a1826101600151611822565b6101608201516101008101516001600160801b03166040808501919091520151831015613c115761016082018051600060e0909101819052815161010001819052815160c001525160400180518491906139fc9083906151a8565b905250610160820151610120810151610180909101516020840151613a34929190613a2f90670de0b6b3a76400006151a8565b614667565b610160840180516080808201939093526060908101939093526001546040805160a0810182526001600160a01b038b8116825284516101200151151560208301526000828401819052548116968201969096529251938301939093529151630850d0e960e01b81529290911691630850d0e991613ab3916004016156f3565b600060405180830381600087803b158015613acd57600080fd5b505af1158015613ae1573d6000803e3d6000fd5b50506003546101608501516101800151604051635b664e4f60e11b81526001600160a01b03909216935063b6cc9c9e9250613b1e9160040161566f565b600060405180830381865afa158015613b3b573d6000803e3d6000fd5b505050506040513d6000823e601f3d908101601f19168201604052613b639190810190615682565b610160830180516101809081019290925260035490519091015160a08401516040516308e05f8b60e11b81526001600160a01b03909316926311c0bf1692613baf9290916004016154be565b602060405180830381865afa158015613bcc573d6000803e3d6000fd5b505050506040513d601f19601f82011682018060405250810190613bf091906154e3565b6102008301819052610160830151613c0c918791906000611a81565b613ca7565b60015460408051608081018252600080546001600160a01b0390811683528981166020840152610160870151610120015115158385015260608301919091529151633a5177df60e01b81529190921691633a5177df91613c7491906004016156b6565b600060405180830381600087803b158015613c8e57600080fd5b505af1158015613ca2573d6000803e3d6000fd5b505050505b506040805160c08101825260e08301518152610100830151602082015261012083015181830152610140830151606082015290820151608082015261020082015160a0820152949350505050565b613d00818415610a23565b8214613d345760405162461bcd60e51b8152602060048201526003602482015262696e6360e81b60448201526064016104ba565b600354604051631542428b60e31b815260009182916001600160a01b039091169063aa12145890613d6990869060040161566f565b600060405180830381865afa158015613d86573d6000803e3d6000fd5b505050506040513d6000823e601f3d908101601f19168201604052613dae91908101906157e6565b9150915081613de85760405162461bcd60e51b81526004016104ba90602080825260049082015263216c697160e01b604082015260600190565b60005b8151811015613e4157818181518110613e0657613e066154fc565b6020026020010151848281518110613e2057613e206154fc565b60209081029190910101516040015280613e3981615512565b915050613deb565b50600054604051637c61444d60e01b81526001600160a01b0390911690637c61444d90613e7990869089906001908a906004016152cc565b600060405180830381600087803b158015613e9357600080fd5b505af1158015613ea7573d6000803e3d6000fd5b505050505050505050565b81518151606091906000613ec68284615195565b90506000816001600160401b03811115613ee257613ee2614af3565b604051908082528060200260200182016040528015613f2d57816020015b6040805160608101825260008082526020808301829052928201528252600019909201910181613f005790505b50905060008060005b8683108015613f4457508582105b1561414357888281518110613f5b57613f5b6154fc565b60200260200101516000015160020b8a8481518110613f7c57613f7c6154fc565b60200260200101516000015160020b1215613fdb57898381518110613fa357613fa36154fc565b6020026020010151848281518110613fbd57613fbd6154fc565b60200260200101819052508280613fd390615512565b935050614131565b888281518110613fed57613fed6154fc565b60200260200101516000015160020b8a848151811061400e5761400e6154fc565b60200260200101516000015160020b131561406d57888281518110614035576140356154fc565b602002602001015184828151811061404f5761404f6154fc565b6020026020010181905250818061406590615512565b925050614131565b60405180606001604052808b858151811061408a5761408a6154fc565b60200260200101516000015160020b81526020018a84815181106140b0576140b06154fc565b6020026020010151602001518c86815181106140ce576140ce6154fc565b6020026020010151602001516140e49190615766565b6001600160801b031681526020016000815250848281518110614109576141096154fc565b6020026020010181905250828061411f90615512565b935050818061412d90615512565b9250505b8061413b81615512565b915050613f36565b868310156141a35789838151811061415d5761415d6154fc565b6020026020010151848281518110614177576141776154fc565b6020026020010181905250828061418d90615512565b935050808061419b90615512565b915050614143565b85821015614203578882815181106141bd576141bd6154fc565b60200260200101518482815181106141d7576141d76154fc565b602002602001018190525081806141ed90615512565b92505080806141fb90615512565b9150506141a3565b60008093505b8584101561433d57600061421e856001615195565b93505b868410156142df5785848151811061423b5761423b6154fc565b60200260200101516000015160020b86868151811061425c5761425c6154fc565b60200260200101516000015160020b036142cd5760019050858481518110614286576142866154fc565b6020026020010151602001518686815181106142a4576142a46154fc565b60200260200101516020018181516142bc9190615766565b6001600160801b03169052506142df565b836142d781615512565b945050614221565b8061432a578585815181106142f6576142f66154fc565b6020026020010151868381518110614310576143106154fc565b6020026020010181905250818061432690615512565b9250505b508361433581615512565b945050614209565b8085526143568560006143516001856151a8565b614809565b60028111156143db57600093505b61436f6001826151a8565b8410156143ca5784614382856001615195565b81518110614392576143926154fc565b60200260200101518585815181106143ac576143ac6154fc565b602002602001018190525083806143c290615512565b945050614364565b806143d48161588d565b9150508085525b50929998505050505050505050565b80516060906000816001600160401b0381111561440957614409614af3565b60405190808252806020026020018201604052801561445457816020015b60408051606081018252600080825260208083018290529282015282526000199092019101816144275790505b5090506000825b600181106144c5578561446f6001836151a8565b8151811061447f5761447f6154fc565b6020026020010151838381518110614499576144996154fc565b602002602001018190525081806144af90615512565b92505080806144bd9061588d565b91505061445b565b5090949350505050565b60006144dc8484846116cc565b9050600082806144ee576144ee6150b1565b848609111561046d57600019811061450557600080fd5b6001019392505050565b600080836001600160a01b0316856001600160a01b03161115614530579293925b846001600160a01b0316866001600160a01b03161161455b576145548585856145fd565b91506145a2565b836001600160a01b0316866001600160a01b03161015614594576145808685856145fd565b915061458d8587856145ab565b90506145a2565b61459f8585856145ab565b90505b94509492505050565b6000826001600160a01b0316846001600160a01b031611156145cb579192915b6145f56001600160801b0383166145e286866158a4565b6001600160a01b0316600160601b6116cc565b949350505050565b6000826001600160a01b0316846001600160a01b0316111561461d579192915b6001600160a01b03841661465d600160601b600160e01b03606085901b1661464587876158a4565b6001600160a01b0316866001600160a01b03166116cc565b6145f591906150c7565b60008060008060005b86518110156147fe5786818151811061468b5761468b6154fc565b6020026020010151602001516001600160801b0316600003156147ec578681815181106146ba576146ba6154fc565b60200260200101516000015191506146e786670de0b6b3a764000089848151811061306c5761306c6154fc565b9250828782815181106146fc576146fc6154fc565b6020908102919091018101516001600160801b0390921691015287156147bb5761475d61472883611dec565b614755610ada7f000000000000000000000000000000000000000000000000000000000000000086615335565b85600161210f565b6147679086615195565b94506147aa61477583611dec565b6147a2610ada7f000000000000000000000000000000000000000000000000000000000000000086615335565b8560016121c6565b6147b49085615195565b93506147ec565b6147c761477583611dec565b6147d19086615195565b94506147df61472883611dec565b6147e99085615195565b93505b806147f681615512565b915050614670565b505050935093915050565b80821061481557505050565b600161482183836151a8565b1161482b57505050565b8181600085600261483c8486615195565b61484691906150c7565b81518110614856576148566154fc565b602002602001015190505b818311614982575b806000015160020b868481518110614883576148836154fc565b60200260200101516000015160020b12156148aa57826148a281615512565b935050614869565b806000015160020b8683815181106148c4576148c46154fc565b60200260200101516000015160020b13156148eb57816148e38161588d565b9250506148aa565b81831161497d57858281518110614904576149046154fc565b602002602001015186848151811061491e5761491e6154fc565b6020026020010151878581518110614938576149386154fc565b60200260200101888581518110614951576149516154fc565b602002602001018290528290525050828061496b90615512565b93505081806149799061588d565b9250505b614861565b8185101561499557614995868684614809565b83831015610dc957610dc9868486614809565b604080516101a08101825260008082526020820181905291810182905260608082018390526080820183905260a0820183905260c0820183905260e0820183905261010082018390526101208201839052610140820183905261016082019290925261018081019190915290565b6040518061028001604052806000815260200160008152602001600081526020016000815260200160006001600160a01b03168152602001600060020b815260200160006001600160a01b0316815260200160008152602001600081526020016000815260200160008152602001614a8c6149a8565b815260200160006001600160a01b03168152602001600060020b8152602001600060020b8152602001600081526020016000815260200160006001600160801b0316815260200160608152602001606081525090565b8015158114614af057600080fd5b50565b634e487b7160e01b600052604160045260246000fd5b604051606081016001600160401b0381118282101715614b2b57614b2b614af3565b60405290565b6040516101a081016001600160401b0381118282101715614b2b57614b2b614af3565b604051601f8201601f191681016001600160401b0381118282101715614b7c57614b7c614af3565b604052919050565b60006001600160401b03821115614b9d57614b9d614af3565b5060051b60200190565b8060020b8114614af057600080fd5b6001600160801b0381168114614af057600080fd5b600082601f830112614bdc57600080fd5b81356020614bf1614bec83614b84565b614b54565b82815260609283028501820192828201919087851115614c1057600080fd5b8387015b85811015614c695781818a031215614c2c5760008081fd5b614c34614b09565b8135614c3f81614ba7565b815281860135614c4e81614bb6565b81870152604082810135908201528452928401928101614c14565b5090979650505050505050565b600080600080600060a08688031215614c8e57600080fd5b8535945060208601359350604086013592506060860135614cae81614ae2565b915060808601356001600160401b03811115614cc957600080fd5b614cd588828901614bcb565b9150509295509295909350565b600081518084526020808501945080840160005b83811015614d36578151805160020b88526020808201516001600160801b0316908901526040908101519088015260608701965090820190600101614cf6565b509495945050505050565b80511515825260006101a06020830151614d6660208601826001600160a01b03169052565b5060408301516040850152606083015160608501526080830151608085015260a083015160a085015260c0830151614da960c08601826001600160801b03169052565b5060e0830151614dc460e08601826001600160801b03169052565b50610100838101516001600160801b031690850152610120808401511515908501526101408084015163ffffffff90811691860191909152610160808501519091169085015261018080840151818601839052610a1983870182614ce2565b606081526000614e366060830186614d41565b60208301949094525060400152919050565b6001600160a01b0381168114614af057600080fd5b600080600060608486031215614e7257600080fd5b8335614e7d81614e48565b9250602084013591506040840135614e9481614ae2565b809150509250925092565b600080600060608486031215614eb457600080fd5b8335614ebf81614ae2565b95602085013595506040909401359392505050565b8460020b81528360020b6020820152608060408201526000614ef96080830185614ce2565b905082606083015295945050505050565b600060208284031215614f1c57600080fd5b813561046d81614e48565b60008060008060808587031215614f3d57600080fd5b8435935060208501359250604085013591506060850135614f5d81614ae2565b939692955090935050565b60008060408385031215614f7b57600080fd5b8235614f8681614ba7565b91506020830135614f9681614ae2565b809150509250929050565b60008060408385031215614fb457600080fd5b8235614f8681614e48565b60008060408385031215614fd257600080fd5b82356001600160401b03811115614fe857600080fd5b614ff485828601614bcb565b9250506020830135614f9681614ae2565b6000806000806060858703121561501b57600080fd5b843593506020850135925060408501356001600160401b038082111561504057600080fd5b818701915087601f83011261505457600080fd5b81358181111561506357600080fd5b88602082850101111561507557600080fd5b95989497505060200194505050565b634e487b7160e01b600052601160045260246000fd5b808202811582820484141761087b5761087b615084565b634e487b7160e01b600052601260045260246000fd5b6000826150d6576150d66150b1565b500490565b805161ffff811681146150ed57600080fd5b919050565b80516150ed81614ae2565b600080600080600080600060e0888a03121561511857600080fd5b875161512381614e48565b602089015190975061513481614ba7565b9550615142604089016150db565b9450615150606089016150db565b935061515e608089016150db565b925060a088015160ff8116811461517457600080fd5b60c089015190925061518581614ae2565b8091505092959891949750929550565b8082018082111561087b5761087b615084565b8181038181111561087b5761087b615084565b80516150ed81614bb6565b600082601f8301126151d757600080fd5b815160206151e7614bec83614b84565b8281526060928302850182019282820191908785111561520657600080fd5b8387015b85811015614c695781818a0312156152225760008081fd5b61522a614b09565b815161523581614ba7565b81528186015161524481614bb6565b8187015260408281015190820152845292840192810161520a565b6000806000806080858703121561527557600080fd5b845161528081614ba7565b602086015190945061529181614ba7565b6040860151606087015191945092506001600160401b038111156152b457600080fd5b6152c0878288016151c6565b91505092959194509250565b6080815260006152df6080830187614ce2565b9415156020830152509115156040830152606090910152919050565b60008160020b8360020b80615312576153126150b1565b627fffff1982146000198214161561532c5761532c615084565b90059392505050565b600281810b9083900b01627fffff8113627fffff198212171561087b5761087b615084565b60008260020b8260020b028060020b9150808214610ba757610ba7615084565b80516150ed81614e48565b805163ffffffff811681146150ed57600080fd5b6000602082840312156153ab57600080fd5b81516001600160401b03808211156153c257600080fd5b908301906101a082860312156153d757600080fd5b6153df614b31565b6153e8836150f2565b81526153f66020840161537a565b602082015260408301516040820152606083015160608201526080830151608082015260a083015160a082015261542f60c084016151bb565b60c082015261544060e084016151bb565b60e08201526101006154538185016151bb565b908201526101206154658482016150f2565b90820152610140615477848201615385565b90820152610160615489848201615385565b9082015261018083810151838111156154a157600080fd5b6154ad888287016151c6565b918301919091525095945050505050565b6040815260006154d16040830185614ce2565b90508260020b60208301529392505050565b6000602082840312156154f557600080fd5b5051919050565b634e487b7160e01b600052603260045260246000fd5b60006001820161552457615524615084565b5060010190565b6001600160a01b03929092168252602082015260400190565b60006020828403121561555657600080fd5b815161046d81614ae2565b6001600160a01b039384168152919092166020820152604081019190915260600190565b600060018060a01b038088168352602087151581850152866040850152818616606085015260a06080850152845191508160a085015260005b828110156155da5785810182015185820160c0015281016155be565b5050600060c0828501015260c0601f19601f8301168401019150509695505050505050565b6000806040838503121561561257600080fd5b505080516020909101519092909150565b6000600160ff1b820161563857615638615084565b5060000390565b60208152600061046d6020830184614d41565b60006020828403121561566457600080fd5b815161046d81614bb6565b60208152600061046d6020830184614ce2565b60006020828403121561569457600080fd5b81516001600160401b038111156156aa57600080fd5b610877848285016151c6565b81516001600160a01b039081168252602080840151909116908201526040808301511515908201526060808301511515908201526080810161087b565b60208152600060018060a01b0380845116602084015260208401511515604084015260408401511515606084015280606085015116608084015250608083015160a08084015261087760c0840182614d41565b6001600160801b03828116828216039080821115610ba757610ba7615084565b6001600160801b03818116838216019080821115610ba757610ba7615084565b60208082526004908201526319985a5b60e21b604082015260600190565b8181036000831280158383131683831282161715610ba757610ba7615084565b6040815260006157d76040830185614ce2565b90508260208301529392505050565b600080604083850312156157f957600080fd5b825161580481614ae2565b809250506020808401516001600160401b0381111561582257600080fd5b8401601f8101861361583357600080fd5b8051615841614bec82614b84565b81815260059190911b8201830190838101908883111561586057600080fd5b928401925b8284101561587e57835182529284019290840190615865565b80955050505050509250929050565b60008161589c5761589c615084565b506000190190565b6001600160a01b03828116828216039080821115610ba757610ba761508456fea2646970667358221220ef21cb01f42b92f6c1d9d887c0174ba73f1dc06899212956b4d7431d8f16570c64736f6c63430008110033",
    "linkReferences": {}
  },
  "methodIdentifiers": {
    "addPosition(uint256,uint256,uint256,bool)": "3cd7bca7",
    "addPositionSpecfied(uint256,uint256,uint256,bool,(int24,uint128,uint256)[])": "0d3401ee",
    "applySlippageX96(uint160,uint256,bool)": "207b0576",
    "borrow(bool,uint256,uint256)": "25350f8e",
    "closeMaxSlippage()": "6ef83ef7",
    "getFilledAmount((int24,uint128,uint256)[],bool)": "786afbcc",
    "globalStorage()": "6502072a",
    "liquidityManager()": "33827438",
    "payPremium(address,bool)": "3e45c92f",
    "pool()": "16f0115b",
    "precision()": "d3b5dc3b",
    "reducePosition(bool,uint256,uint256)": "deff1bdc",
    "roundTick(int24,bool)": "3dc306ee",
    "setLiquidityManager(address)": "3c1624d4",
    "tickSpacing()": "d0c93a7c",
    "token0()": "0dfe1681",
    "token1()": "d21220a7",
    "uniswapV3SwapCallback(int256,int256,bytes)": "fa461e33"
  },
  "id": 36
}