{
  "abi": [
    {
      "inputs": [
        {
          "internalType": "address",
          "name": "_pool",
          "type": "address"
        }
      ],
      "stateMutability": "nonpayable",
      "type": "constructor"
    },
    {
      "inputs": [],
      "name": "R",
      "type": "error"
    },
    {
      "inputs": [],
      "name": "T",
      "type": "error"
    },
    {
      "inputs": [],
      "name": "INTEREST_REPLENISH_TIME",
      "outputs": [
        {
          "internalType": "uint256",
          "name": "",
          "type": "uint256"
        }
      ],
      "stateMutability": "view",
      "type": "function"
    },
    {
      "inputs": [
        {
          "internalType": "uint160",
          "name": "price",
          "type": "uint160"
        },
        {
          "internalType": "uint256",
          "name": "maxSlippage",
          "type": "uint256"
        },
        {
          "internalType": "bool",
          "name": "down",
          "type": "bool"
        }
      ],
      "name": "applySlippageX96",
      "outputs": [
        {
          "internalType": "uint160",
          "name": "",
          "type": "uint160"
        }
      ],
      "stateMutability": "pure",
      "type": "function"
    },
    {
      "inputs": [
        {
          "internalType": "bool",
          "name": "zeroForOne",
          "type": "bool"
        },
        {
          "internalType": "int256",
          "name": "amountSpecified",
          "type": "int256"
        },
        {
          "internalType": "uint256",
          "name": "leverage",
          "type": "uint256"
        }
      ],
      "name": "borrow",
      "outputs": [
        {
          "internalType": "uint160",
          "name": "",
          "type": "uint160"
        },
        {
          "internalType": "uint160",
          "name": "",
          "type": "uint160"
        },
        {
          "internalType": "uint128",
          "name": "",
          "type": "uint128"
        },
        {
          "internalType": "uint256",
          "name": "",
          "type": "uint256"
        }
      ],
      "stateMutability": "nonpayable",
      "type": "function"
    },
    {
      "inputs": [],
      "name": "closeMaxSlippage",
      "outputs": [
        {
          "internalType": "uint256",
          "name": "",
          "type": "uint256"
        }
      ],
      "stateMutability": "view",
      "type": "function"
    },
    {
      "inputs": [
        {
          "internalType": "uint256",
          "name": "nonce",
          "type": "uint256"
        },
        {
          "internalType": "address",
          "name": "trader",
          "type": "address"
        },
        {
          "internalType": "uint256",
          "name": "userSpecifiedSlippage",
          "type": "uint256"
        }
      ],
      "name": "closePosition",
      "outputs": [
        {
          "internalType": "int256",
          "name": "",
          "type": "int256"
        },
        {
          "internalType": "int256",
          "name": "",
          "type": "int256"
        }
      ],
      "stateMutability": "nonpayable",
      "type": "function"
    },
    {
      "inputs": [
        {
          "internalType": "uint256",
          "name": "traderFund",
          "type": "uint256"
        },
        {
          "internalType": "uint256",
          "name": "maxSlippage",
          "type": "uint256"
        },
        {
          "internalType": "uint256",
          "name": "borrowAmount",
          "type": "uint256"
        },
        {
          "internalType": "bool",
          "name": "isLong",
          "type": "bool"
        }
      ],
      "name": "createLevPosition",
      "outputs": [
        {
          "components": [
            {
              "internalType": "uint256",
              "name": "totalPosition",
              "type": "uint256"
            },
            {
              "internalType": "uint256",
              "name": "totalDebt",
              "type": "uint256"
            },
            {
              "internalType": "uint256",
              "name": "totalDebtInput",
              "type": "uint256"
            },
            {
              "internalType": "uint256",
              "name": "initCollateral",
              "type": "uint256"
            },
            {
              "internalType": "uint256",
              "name": "recentPremium",
              "type": "uint256"
            },
            {
              "internalType": "int24",
              "name": "creationTick",
              "type": "int24"
            },
            {
              "internalType": "uint128",
              "name": "borrowedLiq",
              "type": "uint128"
            },
            {
              "internalType": "bool",
              "name": "isToken0",
              "type": "bool"
            },
            {
              "internalType": "uint32",
              "name": "openTime",
              "type": "uint32"
            },
            {
              "internalType": "uint32",
              "name": "repayTime",
              "type": "uint32"
            },
            {
              "internalType": "int24",
              "name": "borrowStartTick",
              "type": "int24"
            },
            {
              "internalType": "int24",
              "name": "borrowFinishTick",
              "type": "int24"
            }
          ],
          "internalType": "struct LeverageManager.Position",
          "name": "",
          "type": "tuple"
        },
        {
          "internalType": "uint256",
          "name": "",
          "type": "uint256"
        },
        {
          "internalType": "uint256",
          "name": "",
          "type": "uint256"
        }
      ],
      "stateMutability": "nonpayable",
      "type": "function"
    },
    {
      "inputs": [
        {
          "internalType": "address",
          "name": "trader",
          "type": "address"
        }
      ],
      "name": "getAllPositions",
      "outputs": [
        {
          "components": [
            {
              "internalType": "uint256",
              "name": "totalPosition",
              "type": "uint256"
            },
            {
              "internalType": "uint256",
              "name": "totalDebt",
              "type": "uint256"
            },
            {
              "internalType": "uint256",
              "name": "totalDebtInput",
              "type": "uint256"
            },
            {
              "internalType": "uint256",
              "name": "initCollateral",
              "type": "uint256"
            },
            {
              "internalType": "uint256",
              "name": "recentPremium",
              "type": "uint256"
            },
            {
              "internalType": "int24",
              "name": "creationTick",
              "type": "int24"
            },
            {
              "internalType": "uint128",
              "name": "borrowedLiq",
              "type": "uint128"
            },
            {
              "internalType": "bool",
              "name": "isToken0",
              "type": "bool"
            },
            {
              "internalType": "uint32",
              "name": "openTime",
              "type": "uint32"
            },
            {
              "internalType": "uint32",
              "name": "repayTime",
              "type": "uint32"
            },
            {
              "internalType": "int24",
              "name": "borrowStartTick",
              "type": "int24"
            },
            {
              "internalType": "int24",
              "name": "borrowFinishTick",
              "type": "int24"
            }
          ],
          "internalType": "struct LeverageManager.Position[]",
          "name": "",
          "type": "tuple[]"
        }
      ],
      "stateMutability": "view",
      "type": "function"
    },
    {
      "inputs": [
        {
          "internalType": "int24",
          "name": "curTick",
          "type": "int24"
        },
        {
          "internalType": "bool",
          "name": "zeroForOne",
          "type": "bool"
        },
        {
          "internalType": "uint128",
          "name": "liquidity",
          "type": "uint128"
        }
      ],
      "name": "getNextTick",
      "outputs": [
        {
          "internalType": "int24",
          "name": "",
          "type": "int24"
        },
        {
          "internalType": "bool",
          "name": "",
          "type": "bool"
        }
      ],
      "stateMutability": "view",
      "type": "function"
    },
    {
      "inputs": [
        {
          "internalType": "address",
          "name": "trader",
          "type": "address"
        },
        {
          "internalType": "uint256",
          "name": "nonce",
          "type": "uint256"
        }
      ],
      "name": "getPosition",
      "outputs": [
        {
          "components": [
            {
              "internalType": "uint256",
              "name": "totalPosition",
              "type": "uint256"
            },
            {
              "internalType": "uint256",
              "name": "totalDebt",
              "type": "uint256"
            },
            {
              "internalType": "uint256",
              "name": "totalDebtInput",
              "type": "uint256"
            },
            {
              "internalType": "uint256",
              "name": "initCollateral",
              "type": "uint256"
            },
            {
              "internalType": "uint256",
              "name": "recentPremium",
              "type": "uint256"
            },
            {
              "internalType": "int24",
              "name": "creationTick",
              "type": "int24"
            },
            {
              "internalType": "uint128",
              "name": "borrowedLiq",
              "type": "uint128"
            },
            {
              "internalType": "bool",
              "name": "isToken0",
              "type": "bool"
            },
            {
              "internalType": "uint32",
              "name": "openTime",
              "type": "uint32"
            },
            {
              "internalType": "uint32",
              "name": "repayTime",
              "type": "uint32"
            },
            {
              "internalType": "int24",
              "name": "borrowStartTick",
              "type": "int24"
            },
            {
              "internalType": "int24",
              "name": "borrowFinishTick",
              "type": "int24"
            }
          ],
          "internalType": "struct LeverageManager.Position",
          "name": "",
          "type": "tuple"
        }
      ],
      "stateMutability": "view",
      "type": "function"
    },
    {
      "inputs": [
        {
          "internalType": "address",
          "name": "trader",
          "type": "address"
        },
        {
          "internalType": "uint256",
          "name": "nonce",
          "type": "uint256"
        }
      ],
      "name": "isLiquidatable",
      "outputs": [
        {
          "internalType": "bool",
          "name": "",
          "type": "bool"
        }
      ],
      "stateMutability": "view",
      "type": "function"
    },
    {
      "inputs": [],
      "name": "liquidityManager",
      "outputs": [
        {
          "internalType": "contract LiquidityManager",
          "name": "",
          "type": "address"
        }
      ],
      "stateMutability": "view",
      "type": "function"
    },
    {
      "inputs": [],
      "name": "nonce",
      "outputs": [
        {
          "internalType": "uint256",
          "name": "",
          "type": "uint256"
        }
      ],
      "stateMutability": "view",
      "type": "function"
    },
    {
      "inputs": [
        {
          "internalType": "address",
          "name": "trader",
          "type": "address"
        },
        {
          "internalType": "uint256",
          "name": "nonce",
          "type": "uint256"
        }
      ],
      "name": "payPremium",
      "outputs": [
        {
          "internalType": "uint256",
          "name": "",
          "type": "uint256"
        }
      ],
      "stateMutability": "nonpayable",
      "type": "function"
    },
    {
      "inputs": [
        {
          "internalType": "int24",
          "name": "borrowStartTick",
          "type": "int24"
        },
        {
          "internalType": "int24",
          "name": "borrowFinishTick",
          "type": "int24"
        },
        {
          "internalType": "uint256",
          "name": "rate",
          "type": "uint256"
        },
        {
          "internalType": "uint256",
          "name": "borrowedAmount",
          "type": "uint256"
        },
        {
          "internalType": "bool",
          "name": "isToken0",
          "type": "bool"
        },
        {
          "internalType": "uint256[]",
          "name": "liquidities",
          "type": "uint256[]"
        }
      ],
      "name": "payPremiumToPool",
      "outputs": [
        {
          "internalType": "uint256",
          "name": "premium",
          "type": "uint256"
        }
      ],
      "stateMutability": "nonpayable",
      "type": "function"
    },
    {
      "inputs": [],
      "name": "pool",
      "outputs": [
        {
          "internalType": "contract UniswapV3Pool",
          "name": "",
          "type": "address"
        }
      ],
      "stateMutability": "view",
      "type": "function"
    },
    {
      "inputs": [
        {
          "internalType": "bytes32",
          "name": "",
          "type": "bytes32"
        }
      ],
      "name": "positions",
      "outputs": [
        {
          "internalType": "uint256",
          "name": "totalPosition",
          "type": "uint256"
        },
        {
          "internalType": "uint256",
          "name": "totalDebt",
          "type": "uint256"
        },
        {
          "internalType": "uint256",
          "name": "totalDebtInput",
          "type": "uint256"
        },
        {
          "internalType": "uint256",
          "name": "initCollateral",
          "type": "uint256"
        },
        {
          "internalType": "uint256",
          "name": "recentPremium",
          "type": "uint256"
        },
        {
          "internalType": "int24",
          "name": "creationTick",
          "type": "int24"
        },
        {
          "internalType": "uint128",
          "name": "borrowedLiq",
          "type": "uint128"
        },
        {
          "internalType": "bool",
          "name": "isToken0",
          "type": "bool"
        },
        {
          "internalType": "uint32",
          "name": "openTime",
          "type": "uint32"
        },
        {
          "internalType": "uint32",
          "name": "repayTime",
          "type": "uint32"
        },
        {
          "internalType": "int24",
          "name": "borrowStartTick",
          "type": "int24"
        },
        {
          "internalType": "int24",
          "name": "borrowFinishTick",
          "type": "int24"
        }
      ],
      "stateMutability": "view",
      "type": "function"
    },
    {
      "inputs": [],
      "name": "precision",
      "outputs": [
        {
          "internalType": "uint256",
          "name": "",
          "type": "uint256"
        }
      ],
      "stateMutability": "view",
      "type": "function"
    },
    {
      "inputs": [
        {
          "internalType": "int24",
          "name": "tick",
          "type": "int24"
        },
        {
          "internalType": "bool",
          "name": "down",
          "type": "bool"
        }
      ],
      "name": "roundTick",
      "outputs": [
        {
          "internalType": "int24",
          "name": "",
          "type": "int24"
        }
      ],
      "stateMutability": "view",
      "type": "function"
    },
    {
      "inputs": [
        {
          "internalType": "address",
          "name": "ad",
          "type": "address"
        }
      ],
      "name": "setLiquidityManager",
      "outputs": [],
      "stateMutability": "nonpayable",
      "type": "function"
    },
    {
      "inputs": [],
      "name": "tickSpacing",
      "outputs": [
        {
          "internalType": "int24",
          "name": "",
          "type": "int24"
        }
      ],
      "stateMutability": "view",
      "type": "function"
    },
    {
      "inputs": [],
      "name": "token0",
      "outputs": [
        {
          "internalType": "contract ERC20",
          "name": "",
          "type": "address"
        }
      ],
      "stateMutability": "view",
      "type": "function"
    },
    {
      "inputs": [],
      "name": "token1",
      "outputs": [
        {
          "internalType": "contract ERC20",
          "name": "",
          "type": "address"
        }
      ],
      "stateMutability": "view",
      "type": "function"
    },
    {
      "inputs": [
        {
          "internalType": "uint256",
          "name": "amount0Owed",
          "type": "uint256"
        },
        {
          "internalType": "uint256",
          "name": "amount1Owed",
          "type": "uint256"
        },
        {
          "internalType": "bytes",
          "name": "data",
          "type": "bytes"
        }
      ],
      "name": "uniswapV3MintCallback",
      "outputs": [],
      "stateMutability": "nonpayable",
      "type": "function"
    },
    {
      "inputs": [
        {
          "internalType": "int256",
          "name": "amount0Delta",
          "type": "int256"
        },
        {
          "internalType": "int256",
          "name": "amount1Delta",
          "type": "int256"
        },
        {
          "internalType": "bytes",
          "name": "data",
          "type": "bytes"
        }
      ],
      "name": "uniswapV3SwapCallback",
      "outputs": [],
      "stateMutability": "nonpayable",
      "type": "function"
    },
    {
      "inputs": [
        {
          "internalType": "address",
          "name": "",
          "type": "address"
        },
        {
          "internalType": "uint256",
          "name": "",
          "type": "uint256"
        }
      ],
      "name": "userpositions",
      "outputs": [
        {
          "internalType": "uint256",
          "name": "",
          "type": "uint256"
        }
      ],
      "stateMutability": "view",
      "type": "function"
    }
  ],
  "bytecode": {
    "object": "0x60e06040523480156200001157600080fd5b506040516200599d3803806200599d8339810160408190526200003491620001c8565b600080546001600160a01b0319166001600160a01b03831690811790915560408051630dfe168160e01b81529051630dfe1681916004808201926020929091908290030181865afa1580156200008e573d6000803e3d6000fd5b505050506040513d601f19601f82011682018060405250810190620000b49190620001c8565b60008054906101000a90046001600160a01b03166001600160a01b031663d21220a76040518163ffffffff1660e01b8152600401602060405180830381865afa15801562000106573d6000803e3d6000fd5b505050506040513d601f19601f820116820180604052508101906200012c9190620001c8565b6001600160a01b0390811660c05290811660a052600054604080516334324e9f60e21b81529051919092169163d0c93a7c9160048083019260209291908290030181865afa15801562000183573d6000803e3d6000fd5b505050506040513d601f19601f82011682018060405250810190620001a99190620001fa565b600290810b608052670de7d1b0f0f1000060045560019055506200021f565b600060208284031215620001db57600080fd5b81516001600160a01b0381168114620001f357600080fd5b9392505050565b6000602082840312156200020d57600080fd5b81518060020b8114620001f357600080fd5b60805160a05160c05161567c62000321600039600081816104c201528181611ede015281816124d2015281816125a301528181612b4a01528181612f2c015281816131e001528181613252015281816134a001526138ba01526000818161017d01528181611f770152818161244a0152818161264001528181612ab60152818161334d015281816133bf015281816134c6015261382301526000818161049b015281816106e5015281816107130152818161075101528181610d7501528181610deb015281816111bf01528181611216015281816117da0152818161186a01528181611abf01528181611b5201528181611b820152611bc0015261567c6000f3fe608060405234801561001057600080fd5b50600436106101735760003560e01c806380753d27116100de578063d0c93a7c11610097578063d3b5dc3b11610071578063d3b5dc3b146104f7578063d8b83f3a14610506578063fa461e331461052e578063fb11e9691461054157600080fd5b8063d0c93a7c14610496578063d21220a7146104bd578063d3487997146104e457600080fd5b806380753d271461040e578063946e986c1461043b5780639aa886da1461045d578063a9de6d6c14610467578063affed0e01461047a578063bc2704bf1461048357600080fd5b80633dc306ee116101305780633dc306ee146102475780633fdfb2aa1461026d57806340f6ea5414610290578063514ea4bf146102dc57806354d771e6146103e45780636ef83ef71461040557600080fd5b80630dfe16811461017857806316f0115b146101bc578063207b0576146101cf57806333827438146101e25780633adbb5af146101f55780633c1624d414610215575b600080fd5b61019f7f000000000000000000000000000000000000000000000000000000000000000081565b6040516001600160a01b0390911681526020015b60405180910390f35b60005461019f906001600160a01b031681565b61019f6101dd3660046147f6565b610561565b60015461019f906001600160a01b031681565b610208610203366004614838565b6105e3565b6040516101b39190614928565b610245610223366004614937565b600180546001600160a01b0319166001600160a01b0392909216919091179055565b005b61025a610255366004614963565b6106dd565b60405160029190910b81526020016101b3565b61028061027b366004614838565b61077e565b60405190151581526020016101b3565b6102a361029e36600461499c565b610889565b604080516001600160a01b0395861681529490931660208501526001600160801b039091169183019190915260608201526080016101b3565b61036e6102ea3660046149d1565b60036020819052600091825260409091208054600182015460028084015494840154600485015460058601546006909601549496939593949193909281810b926001600160801b0363010000008404169260ff600160981b8204169263ffffffff600160a01b8304811693600160c01b840490911692600160e01b9004820b910b8c565b604080519c8d5260208d019b909b52998b019890985260608a01969096526080890194909452600292830b60a08901526001600160801b0390911660c0880152151560e087015263ffffffff918216610100870152911661012085015290810b6101408401520b610160820152610180016101b3565b6103f76103f2366004614838565b611a71565b6040519081526020016101b3565b6103f760045481565b61042161041c3660046149ff565b611aa2565b6040805160029390930b83529015156020830152016101b3565b61044e610449366004614a3f565b611c25565b6040516101b393929190614a80565b6103f76201518081565b6103f7610475366004614b33565b61256c565b6103f760025481565b6103f7610491366004614838565b612733565b61025a7f000000000000000000000000000000000000000000000000000000000000000081565b61019f7f000000000000000000000000000000000000000000000000000000000000000081565b6102456104f2366004614c5c565b612a8e565b6103f7670de0b6b3a764000081565b610519610514366004614cae565b612bce565b604080519283526020830191909152016101b3565b61024561053c366004614c5c565b6137ee565b61055461054f366004614937565b6138f8565b6040516101b39190614ce6565b60008161059c57670de0b6b3a764000061058361057e8583614d4b565b613a1c565b61058d9086614d62565b6105979190614daa565b6105d9565b670de0b6b3a76400006105c56105b3828087613ac0565b61057e90670de0b6b3a7640000614d4b565b6105cf9086614d62565b6105d99190614daa565b90505b9392505050565b6105eb614666565b600360008484604051602001610602929190614dd0565b60408051601f19818403018152918152815160209283012083528282019390935290820160002082516101808101845281548152600182015492810192909252600280820154938301939093526003810154606083015260048101546080830152600581015480840b60a08401526001600160801b03630100000082041660c084015260ff600160981b820416151560e084015263ffffffff600160a01b82048116610100850152600160c01b820416610120840152600160e01b9004830b6101408301526006015490910b61016082015290505b92915050565b60008061070a7f000000000000000000000000000000000000000000000000000000000000000085614df2565b90508261074c577f000000000000000000000000000000000000000000000000000000000000000061073d826001614e2c565b6107479190614e51565b610776565b6107767f000000000000000000000000000000000000000000000000000000000000000082614e51565b949350505050565b600080600360008585604051602001610798929190614dd0565b60408051601f19818403018152918152815160209283012083528282019390935290820160002082516101808101845281548152600182015492810192909252600280820154938301939093526003810154606083015260048101546080830152600581015480840b60a08401526001600160801b03630100000082041660c084015260ff600160981b820416151560e084015263ffffffff600160a01b82048116610100850152600160c01b8204166101208401819052600160e01b909104840b61014084015260069091015490920b610160820152915061087f906201518090614e78565b4211949350505050565b6000806000806108976146ca565b670de0b6b3a764000086116108e45760405162461bcd60e51b815260206004820152600e60248201526d77726f6e67206c6576657261676560901b60448201526064015b60405180910390fd5b60008054906101000a90046001600160a01b03166001600160a01b0316633850c7bd6040518163ffffffff1660e01b815260040160e060405180830381865afa158015610935573d6000803e3d6000fd5b505050506040513d601f19601f820116820180604052508101906109599190614e9d565b5050505060029190910b6080840152506001600160a01b0316606082018190526109d890896109ac57610995670de0b6b3a7640000808a613ac0565b6109a790670de0b6b3a7640000614e78565b6109d1565b6109bf670de0b6b3a7640000808a613ac0565b6109d190670de0b6b3a7640000614f35565b6000610561565b6001600160a01b031661018082019081526040805180820190915260088152676c6576657261676560c01b60208201529051610a2291908890610a1a90613b72565b60020b613e77565b610a57610a3c8261018001516001600160a01b0316613ec3565b610a5283606001516001600160a01b0316613ec3565b613ef4565b610a8a604051806040016040528060088152602001676c6576657261676560c01b81525087610a1a846101800151613b72565b610aa4610a3c8261018001516001600160a01b0316613ec3565b60008054906101000a90046001600160a01b03166001600160a01b0316631a6865026040518163ffffffff1660e01b8152600401602060405180830381865afa158015610af5573d6000803e3d6000fd5b505050506040513d601f19601f82011682018060405250810190610b199190614f48565b6001600160801b03166102a082018190526080820151610b3a918a90611aa2565b5060020b6102008201819052610b4f90613f3e565b8160e001906001600160a01b031690816001600160a01b03168152505060006040518060c00160405280600060ff168152602001836102a001516001600160801b031681526020014263ffffffff168152602001600060060b815260200160006001600160a01b0316815260200160001515815250905060006040518060e001604052808a8152602001600081526020018460e001516001600160a01b0316815260200184610200015160020b81526020016000815260200160006001600160801b0316815260200183602001516001600160801b0316815250905060008060009054906101000a90046001600160a01b03166001600160a01b031663ddc96b4a83606001516040518263ffffffff1660e01b8152600401610c7a919060029190910b815260200190565b602060405180830381865afa158015610c97573d6000803e3d6000fd5b505050506040513d601f19601f82011682018060405250810190610cbb9190614f65565b600054606084015160405163c504ae6560e01b815260029190910b60048201529192506001600160a01b03169063c504ae6590602401602060405180830381865afa158015610d0e573d6000803e3d6000fd5b505050506040513d601f19601f82011682018060405250810190610d329190614f65565b610d3c9082614f88565b90508a15610d5057610d4d81614fbe565b90505b610d5e8260c0015182614261565b6001600160801b031660c0830152508915610de9577f0000000000000000000000000000000000000000000000000000000000000000610dac610da5856101800151613b72565b60016106dd565b610dbc610da58660e00151613b72565b610dc69190614fe4565b610dd09190614df2565b610ddb906001614e2c565b60020b6101a0840152610e54565b7f0000000000000000000000000000000000000000000000000000000000000000610e1a610da58560e00151613b72565b610e2b610da5866101800151613b72565b610e359190614fe4565b610e3f9190614df2565b610e4a906002614e2c565b60020b6101a08401525b6000836101a001516001600160401b03811115610e7357610e73614aa2565b604051908082528060200260200182016040528015610ec557816020015b604080516080810182526000808252602080830182905292820181905260608201528252600019909201910181610e915790505b509050600160009054906101000a90046001600160a01b03166001600160a01b031663826054b882848e8861018001516040518563ffffffff1660e01b8152600401610f149493929190615009565b600060405180830381865afa158015610f31573d6000803e3d6000fd5b505050506040513d6000823e601f3d908101601f19168201604052610f5991908101906151a5565b81519093509091506000908b908290610f7490600190614f35565b905060008190506000610f8986516002614321565b90505b858381518110610f9e57610f9e615294565b60200260200101516040015185610fb59190614e78565b945080610fc28484614f35565b610fcd906001614e78565b03611013578385101561104157858281518110610fec57610fec615294565b602002602001015160400151856110039190614f35565b9450611010600183614f35565b91505b8215801561102057508385105b1561102f576000199250611041565b82611039816152aa565b935050610f8c565b82600019811461114d5760005b600161105a8487614e78565b6110649190614f35565b82116110af5787828151811061107c5761107c615294565b602002602001015160400151816110939190614e78565b9050858110156110af57816110a7816152c1565b92505061104e565b506000815b858110611100578881815181106110cd576110cd615294565b602002602001015160400151826110e49190614e78565b91508682101561110057806110f8816152aa565b9150506110b4565b945084805b8381116111495789818151811061111e5761111e615294565b6020026020010151604001516000036111375760001996505b80611141816152c1565b915050611105565b5050505b6000198403611173576000806000809d509d509d509d5050505050505050505050611a68565b8660008151811061118657611186615294565b60200260200101516000015160020b876001815181106111a8576111a8615294565b60200260200101516000015160020b1215611214577f00000000000000000000000000000000000000000000000000000000000000008785815181106111f0576111f0615294565b6020026020010151600001516112069190614e2c565b60020b6101c08b0152611267565b7f000000000000000000000000000000000000000000000000000000000000000087858151811061124757611247615294565b60200260200101516000015161125d9190614fe4565b60020b6101c08b01525b86818151811061127957611279615294565b60209081029190910101515160020b6101e08b01528361129a826001614e78565b6112a49190614f35565b6102608b0181905260009081906001600160401b038111156112c8576112c8614aa2565b6040519080825280602002602001820160405280156112f1578160200160208202803683370190505b50905061131a6040518060400160405280600381526020016234963560e91b8152508785613e77565b8286116114305788868151811061133357611333615294565b6020026020010151606001518c610240018181516113519190614e78565b905250885189908790811061136857611368615294565b6020026020010151602001516001600160801b031681838151811061138f5761138f615294565b6020026020010181815250506114116040518060400160405280600e81526020016d7574696c2f6c697175696469747960901b8152508d61024001518385815181106113dd576113dd615294565b60200260200101518c8a815181106113f7576113f7615294565b6020026020010151602001516001600160801b0316614338565b61141c600183614e78565b915085611428816152c1565b96505061131a565b6102e08c0152506102408a01511561145d578961026001518a610240015161145891906152da565b611460565b60005b8a6102400181815250505050505050506114c66040518060400160405280601981526020017f626f72726f772073746172742066696e6973682c207574696c00000000000000815250856101c0015160020b866101e0015160020b876102400151614338565b8a6114f5576114f06114dc856101c00151613f3e565b6114ea866101e00151613f3e565b8c614387565b61151a565b61151a611506856101c00151613f3e565b611514866101e00151613f3e565b8c6143fa565b6001600160801b031660a085018190526000546101c086015160405163657badc360e11b815260029190910b6004820152600f9290920b60248301528c1560448301526001600160a01b03169063caf75b8690606401600060405180830381600087803b15801561158a57600080fd5b505af115801561159e573d6000803e3d6000fd5b50506000546101e087015160a088015160405163657badc360e11b815260029290920b6004830152600f0b60248201528e151560448201526001600160a01b03909116925063caf75b869150606401600060405180830381600087803b15801561160757600080fd5b505af115801561161b573d6000803e3d6000fd5b50506000546101c08701516101e088015160a089015160405163c9de624f60e01b8152600293840b60048201529190920b60248201526001600160801b0390911660448201528e151560648201526001600160a01b03909116925063c9de624f9150608401600060405180830381600087803b15801561169a57600080fd5b505af11580156116ae573d6000803e3d6000fd5b505050506116ea60405180604001604052806009815260200168626f72726f776c697160b81b8152508560a001516001600160801b0316614430565b6000546101c08501516040516322e24ce960e01b815260029190910b60048201526001600160a01b03909116906322e24ce990602401600060405180830381600087803b15801561173a57600080fd5b505af115801561174e573d6000803e3d6000fd5b50506000546101e08701516040516322e24ce960e01b815260029190910b60048201526001600160a01b0390911692506322e24ce99150602401600060405180830381600087803b1580156117a257600080fd5b505af11580156117b6573d6000803e3d6000fd5b50506000546101c087015160405163b4718f9360e01b8152600291820b60048201527f000000000000000000000000000000000000000000000000000000000000000090910b60248201526001600160a01b03909116925063b4718f939150604401600060405180830381600087803b15801561183257600080fd5b505af1158015611846573d6000803e3d6000fd5b50506000546101e087015160405163b4718f9360e01b8152600291820b60048201527f000000000000000000000000000000000000000000000000000000000000000090910b60248201526001600160a01b03909116925063b4718f939150604401600060405180830381600087803b1580156118c257600080fd5b505af11580156118d6573d6000803e3d6000fd5b5050600054604051631b195bbf60e21b81528e15156004820152602481018e90526001600160a01b039091169250636c656efc9150604401600060405180830381600087803b15801561192857600080fd5b505af115801561193c573d6000803e3d6000fd5b505060015460808701516101e08801516101c08901516001600160a01b0390931694506341c22c589350909160029161197491614e2c565b61197e9190614df2565b6102408801516040516001600160e01b031960e086901b168152600293840b60048201529190920b60248201528e1515604482015260648101919091526084016020604051808303816000875af11580156119dd573d6000803e3d6000fd5b505050506040513d601f19601f82011682018060405250810190611a0191906152ee565b84610280018181525050611a2d846101c00151856101e001518661028001518d8f896102e0015161256c565b6102808501526101e0840151611a4290613f3e565b611a50856101c00151613f3e565b8560a001518661028001519750975097509750505050505b93509350935093565b60056020528160005260406000208181548110611a8d57600080fd5b90600052602060002001600091509150505481565b60008054604051633bcb373960e21b8152600286810b60048301527f0000000000000000000000000000000000000000000000000000000000000000900b602482015284151560448201528291829182916001600160a01b03169063ef2cdce4906064016040805180830381865afa158015611b22573d6000803e3d6000fd5b505050506040513d601f19601f82011682018060405250810190611b469190615307565b90925090506000611b777f000000000000000000000000000000000000000000000000000000000000000089614df2565b9050600087611bbb577f0000000000000000000000000000000000000000000000000000000000000000611bac836001614e2c565b611bb69190614e51565b611be5565b611be57f000000000000000000000000000000000000000000000000000000000000000083614e51565b90508060020b8460020b14611c12576001600160801b03871615611c1257945060019350611c1d92505050565b509193506000925050505b935093915050565b611c2d614666565b600080611c386146ca565b60008054906101000a90046001600160a01b03166001600160a01b0316633850c7bd6040518163ffffffff1660e01b815260040160e060405180830381865afa158015611c89573d6000803e3d6000fd5b505050506040513d601f19601f82011682018060405250810190611cad9190614e9d565b5050505060029190910b6080840152506001600160a01b03166060820152611cee858761029e670de0b6b3a76400008c611ce78185614e78565b9190613ac0565b6102808501526001600160801b031660a08401526001600160a01b0390811660e08401521660c08201819052600003611d9357604080516101808101825260008082526020808301829052928201819052606082018190526080820181905260a0820181905260c0820181905260e082018190526101008201819052610120820181905261014082018190526101608201529082015191519094509092509050612562565b6002611da28260c00151613ec3565b611daf8360e00151613ec3565b611db99190614e78565b611dc391906152da565b8152600085611dea57611de58260e001518360c001518460a001516001614475565b611e03565b611e038260e001518360c001518460a0015160016144e5565b905085611e3057611e2b670de0b6b3a7640000611e238460600151613ec3565b839190613ac0565b611e50565b611e50611e408360600151613ec3565b8290670de0b6b3a7640000613ac0565b602083018181528891611e64908390614f35565b9052506020820151611e8490670de0b6b3a764000090611ce78a82614e78565b826040018181525050611ec16040518060400160405280600d81526020016c747261646572206d696e70617960981b8152508a8460200151613e77565b8515611f60576040516323b872dd60e01b81526001600160a01b037f000000000000000000000000000000000000000000000000000000000000000016906323b872dd90611f1790339030908e90600401615336565b6020604051808303816000875af1158015611f36573d6000803e3d6000fd5b505050506040513d601f19601f82011682018060405250810190611f5a919061535a565b50611ff5565b6040516323b872dd60e01b81526001600160a01b037f000000000000000000000000000000000000000000000000000000000000000016906323b872dd90611fb090339030908e90600401615336565b6020604051808303816000875af1158015611fcf573d6000803e3d6000fd5b505050506040513d601f19601f82011682018060405250810190611ff3919061535a565b505b604080513060208201526000910160408051601f198184030181529190526000549091506001600160a01b031663128acb083089156120348c8f614e78565b61204488606001518f8e15610561565b866040518663ffffffff1660e01b81526004016120659594939291906153bd565b60408051808303816000875af1158015612083573d6000803e3d6000fd5b505050506040513d601f19601f820116820180604052508101906120a791906153f8565b6101408501526101208401526000805460408051633850c7bd60e01b815290516001600160a01b0390921691633850c7bd9160048082019260e0929091908290030181865afa1580156120fe573d6000803e3d6000fd5b505050506040513d601f19601f820116820180604052508101906121229190614e9d565b505050505050905061216260405180604001604052806007815260200166616d6f756e747360c81b81525085610120015161215c9061541c565b85613e77565b60006040518061018001604052808a612189578661014001516121849061541c565b612198565b8661012001516121989061541c565b81526020018581526020018b81526020018d81526020018661028001518152602001866080015160020b81526020018660a001516001600160801b031681526020018a151581526020014263ffffffff1681526020014263ffffffff1681526020016122078760e00151613b72565b60020b815260200161221c8760c00151613b72565b600290810b90915233600081815260056020908152604080832085548154600181018355918552838520909101559354935194955085946003949293612266939092909101614dd0565b60408051808303601f19018152918152815160209283012083528282019390935290820160009081208451815591840151600183015591830151600280830191909155606084015160038301556080840151600483015560a084015160058301805460c087015160e08801516101008901516101208a01516101408b015162ffffff97881672ffffffffffffffffffffffffffffffffffffff199096169590951763010000006001600160801b03909516949094029390931764ffffffffff60981b1916600160981b9215159290920263ffffffff60a01b191691909117600160a01b63ffffffff928316021766ffffffffffffff60c01b1916600160c01b919092160262ffffff60e01b191617600160e01b91841691909102179055610160909401516006909201805462ffffff19169290941691909117909255815491906123af836152c1565b91905055506123ec604051806040016040528060088152602001673837b9b4ba34b7b760c11b8152508260e00151836000015184602001516145a5565b612405816040015182610100015163ffffffff16613ef4565b60408051808201825260168152753130b630b731b29037b3103632bb1036b0b730b3b2b960511b602082015290516370a0823160e01b815230600482015261254a91907f00000000000000000000000000000000000000000000000000000000000000006001600160a01b0316906370a0823190602401602060405180830381865afa158015612499573d6000803e3d6000fd5b505050506040513d601f19601f820116820180604052508101906124bd91906152ee565b6040516370a0823160e01b81523060048201527f00000000000000000000000000000000000000000000000000000000000000006001600160a01b0316906370a0823190602401602060405180830381865afa158015612521573d6000803e3d6000fd5b505050506040513d601f19601f8201168201806040525081019061254591906152ee565b613e77565b80856020015186610280015197509750975050505050505b9450945094915050565b60006125818585670de0b6b3a7640000613ac0565b90508215612626576000546040516323b872dd60e01b81526001600160a01b037f00000000000000000000000000000000000000000000000000000000000000008116926323b872dd926125dd92339216908690600401615336565b6020604051808303816000875af11580156125fc573d6000803e3d6000fd5b505050506040513d601f19601f82011682018060405250810190612620919061535a565b506126bf565b6000546040516323b872dd60e01b81526001600160a01b037f00000000000000000000000000000000000000000000000000000000000000008116926323b872dd9261267a92339216908690600401615336565b6020604051808303816000875af1158015612699573d6000803e3d6000fd5b505050506040513d601f19601f820116820180604052508101906126bd919061535a565b505b600054604051630772d80760e51b81526001600160a01b039091169063ee5b00e0906126f7908a908a90869088908a90600401615438565b600060405180830381600087803b15801561271157600080fd5b505af1158015612725573d6000803e3d6000fd5b505050509695505050505050565b60008060036000858560405160200161274d929190614dd0565b604051602081830303815290604052805190602001208152602001908152602001600020905060008060008054906101000a90046001600160a01b03166001600160a01b0316633850c7bd6040518163ffffffff1660e01b815260040160e060405180830381865afa1580156127c7573d6000803e3d6000fd5b505050506040513d601f19601f820116820180604052508101906127eb9190614e9d565b505050505091509150600080600160009054906101000a90046001600160a01b03166001600160a01b031663b4dfbed1858560008054906101000a90046001600160a01b03166001600160a01b0316631a6865026040518163ffffffff1660e01b8152600401602060405180830381865afa15801561286e573d6000803e3d6000fd5b505050506040513d601f19601f820116820180604052508101906128929190614f48565b60058a015460068b015460405160e087901b6001600160e01b03191681526001600160a01b039095166004860152600293840b60248601526001600160801b039092166044850152600160e01b9004820b6064840152900b608482015260a401600060405180830381865afa15801561290f573d6000803e3d6000fd5b505050506040513d6000823e601f3d908101601f1916820160405261293791908101906154a5565b600154600688015460058901549395509193506000926001600160a01b03909116916341c22c5891879160029161297991830b90600160e01b9004830b614e2c565b6129839190614df2565b60058a015460405160e085901b6001600160e01b0319168152600293840b60048201529190920b6024820152600160981b90910460ff1615156044820152606481018690526084016020604051808303816000875af11580156129ea573d6000803e3d6000fd5b505050506040513d601f19601f82011682018060405250810190612a0e91906152ee565b600587015460068801546002808a0154939450600093612a5093600160e01b8104830b9390920b9166071afd498d00009190600160981b900460ff168861256c565b60058801805463ffffffff60c01b1916600160c01b4263ffffffff16021790556004909701969096555066071afd498d000098975050505050505050565b6000612a9c82840184614937565b6040516323b872dd60e01b81529091506001600160a01b037f000000000000000000000000000000000000000000000000000000000000000016906323b872dd90612aef90849033908a90600401615336565b6020604051808303816000875af1158015612b0e573d6000803e3d6000fd5b505050506040513d601f19601f82011682018060405250810190612b32919061535a565b506040516323b872dd60e01b81526001600160a01b037f000000000000000000000000000000000000000000000000000000000000000016906323b872dd90612b8390849033908990600401615336565b6020604051808303816000875af1158015612ba2573d6000803e3d6000fd5b505050506040513d601f19601f82011682018060405250810190612bc6919061535a565b505050505050565b600080670de7d1b0f0f10000612be26146ca565b600360008789604051602001612bf9929190614dd0565b60408051601f19818403018152918152815160209283012083528282019390935290820160009081208351610180810185528154815260018201549381019390935260028082015484860152600382015460608501526004808301546080860152600583015480830b60a08701526001600160801b03630100000082041660c087015260ff600160981b820416151560e08088019190915263ffffffff600160a01b83048116610100890152600160c01b830416610120880152600160e01b909104830b61014087015260069093015490910b6101608086019190915286019390935290548351633850c7bd60e01b815293516001600160a01b0390911693633850c7bd938181019392918290030181865afa158015612d1d573d6000803e3d6000fd5b505050506040513d601f19601f82011682018060405250810190612d419190614e9d565b5050505060029190910b6080840152506001600160a01b031660608201526101608101516101400151612d8890612d7790613f3e565b8383610160015160e0015115610561565b6001600160a01b0316610100820190815260408051808201909152601a81527f736c697070616765207469636b2063757272656e74207469636b00000000000060208201529051612ded9190612ddd90613b72565b60020b836080015160020b613e77565b600081610160015160e00151612e21578161010001516001600160a01b031682606001516001600160a01b03161115612e41565b8161010001516001600160a01b031682606001516001600160a01b031610155b9050600082610160015160e00151612e8357612e668361016001516101600151613f3e565b6001600160a01b031683606001516001600160a01b031611612eaf565b612e968361016001516101600151613f3e565b6001600160a01b031683606001516001600160a01b0316105b90508115613488576040805130602082015260009101604051602081830303815290604052905087600003612ee2578497505b60408051808201825260148152733130b630b731b29030b732103837b9b4ba34b7b760611b60208201526101608601515191516370a0823160e01b8152306004820152612fc492907f00000000000000000000000000000000000000000000000000000000000000006001600160a01b0316906370a0823190602401602060405180830381865afa158015612f7b573d6000803e3d6000fd5b505050506040513d601f19601f82011682018060405250810190612f9f91906152ee565b612fbf612fba89606001518e8b610160015160e00151610561565b613ec3565b614338565b60005461016085015160e0810151905160608701516001600160a01b039093169263128acb089230929091612ffa908e84610561565b866040518663ffffffff1660e01b815260040161301b9594939291906153bd565b60408051808303816000875af1158015613039573d6000803e3d6000fd5b505050506040513d601f19601f8201168201806040525081019061305d91906153f8565b6101408601526101208501526000805460408051633850c7bd60e01b815290516001600160a01b0390921691633850c7bd9160048082019260e0929091908290030181865afa1580156130b4573d6000803e3d6000fd5b505050506040513d601f19601f820116820180604052508101906130d89190614e9d565b505050505091505084610160015160e001511561314857846101600151610140015160020b8160020b12156131435760405162461bcd60e51b8152602060048201526011602482015270747261646520626f756e64206661696c3160781b60448201526064016108db565b61319c565b846101600151610140015160020b8160020b131561319c5760405162461bcd60e51b8152602060048201526011602482015270747261646520626f756e64206661696c3160781b60448201526064016108db565b84610160015160e001511561331857600054610160860151604090810151905163a9059cbb60e01b81526001600160a01b03928316600482015260248101919091527f00000000000000000000000000000000000000000000000000000000000000009091169063a9059cbb906044016020604051808303816000875af115801561322b573d6000803e3d6000fd5b505050506040513d601f19601f8201168201806040525081019061324f919061535a565b507f00000000000000000000000000000000000000000000000000000000000000006001600160a01b031663a9059cbb8b876101600151604001518861014001516132999061541c565b6132a39190614f35565b6040516001600160e01b031960e085901b1681526001600160a01b03909216600483015260248201526044016020604051808303816000875af11580156132ee573d6000803e3d6000fd5b505050506040513d601f19601f82011682018060405250810190613312919061535a565b50613481565b600054610160860151604090810151905163a9059cbb60e01b81526001600160a01b03928316600482015260248101919091527f00000000000000000000000000000000000000000000000000000000000000009091169063a9059cbb906044016020604051808303816000875af1158015613398573d6000803e3d6000fd5b505050506040513d601f19601f820116820180604052508101906133bc919061535a565b507f00000000000000000000000000000000000000000000000000000000000000006001600160a01b031663a9059cbb8b876101600151604001518861012001516134069061541c565b6134109190614f35565b6040516001600160e01b031960e085901b1681526001600160a01b03909216600483015260248201526044016020604051808303816000875af115801561345b573d6000803e3d6000fd5b505050506040513d601f19601f8201168201806040525081019061347f919061535a565b505b505061363f565b801561360357600083610160015160e001516134c4577f00000000000000000000000000000000000000000000000000000000000000006134e6565b7f00000000000000000000000000000000000000000000000000000000000000005b6000546101608601516020015160405163a9059cbb60e01b81526001600160a01b039283166004820152602481019190915291925082169063a9059cbb906044016020604051808303816000875af1158015613546573d6000803e3d6000fd5b505050506040513d601f19601f8201168201806040525081019061356a919061535a565b50610160840151602081015190516001600160a01b0383169163a9059cbb918c9161359491614f35565b6040516001600160e01b031960e085901b1681526001600160a01b03909216600483015260248201526044016020604051808303816000875af11580156135df573d6000803e3d6000fd5b505050506040513d601f19601f82011682018060405250810190613481919061535a565b60405162461bcd60e51b81526020600482015260116024820152703a3930b232903137bab732103330b4b61960791b60448201526064016108db565b60005461016084015161014081015160c082015160e09092015160405163657badc360e11b815260029290920b6004830152600f9290920b602482015290151560448201526001600160a01b039091169063caf75b8690606401600060405180830381600087803b1580156136b357600080fd5b505af11580156136c7573d6000803e3d6000fd5b5050600054610160868101519081015160c082015160e09092015160405163657badc360e11b815260029290920b6004830152600f9290920b6024820152901560448201526001600160a01b03909116925063caf75b869150606401600060405180830381600087803b15801561373d57600080fd5b505af1158015613751573d6000803e3d6000fd5b5050505060036000338b60405160200161376c929190614dd0565b60408051808303601f19018152918152815160209283012083529082019290925201600090812081815560018101829055600281018290556003810182905560048101919091556005810180546001600160f81b0319169055600601805462ffffff191690555050610120810151610140909101519097909650945050505050565b60006137fc82840184614937565b9050600085131561389e5760405163a9059cbb60e01b8152336004820152602481018690527f00000000000000000000000000000000000000000000000000000000000000006001600160a01b03169063a9059cbb906044016020604051808303816000875af1158015613874573d6000803e3d6000fd5b505050506040513d601f19601f82011682018060405250810190613898919061535a565b506138f1565b60405163a9059cbb60e01b8152336004820152602481018590527f00000000000000000000000000000000000000000000000000000000000000006001600160a01b03169063a9059cbb90604401612b83565b5050505050565b6001600160a01b038116600090815260056020908152604080832080548251818502810185019093528083526060949383018282801561395757602002820191906000526020600020905b815481526020019060010190808311613943575b50505050509050600081516001600160401b0381111561397957613979614aa2565b6040519080825280602002602001820160405280156139b257816020015b61399f614666565b8152602001906001900390816139975790505b50905060005b8251811015613a14576139e4858483815181106139d7576139d7615294565b60200260200101516105e3565b8282815181106139f6576139f6615294565b60200260200101819052508080613a0c906152c1565b9150506139b8565b509392505050565b60b581600160881b8110613a355760409190911b9060801c5b69010000000000000000008110613a515760209190911b9060401c5b650100000000008110613a695760109190911b9060201c5b63010000008110613a7f5760089190911b9060101c5b62010000010260121c80820401600190811c80830401811c80830401811c80830401811c80830401811c80830401811c80830401901c908190048111900390565b6000808060001985870985870292508281108382030391505080600003613af95760008411613aee57600080fd5b5082900490506105dc565b808411613b0557600080fd5b6000848688096000868103871696879004966002600389028118808a02820302808a02820302808a02820302808a02820302808a02820302808a02909103029181900381900460010186841190950394909402919094039290920491909117919091029150509392505050565b60006401000276a36001600160a01b03831610801590613bae575073fffd8963efd1fc6a506488495d951d5263988d266001600160a01b038316105b613bcb576040516324c070df60e11b815260040160405180910390fd5b640100000000600160c01b03602083901b166001600160801b03811160071b81811c6001600160401b03811160061b90811c63ffffffff811160051b90811c61ffff811160041b90811c60ff8111600390811b91821c600f811160021b90811c918211600190811b92831c97908811961790941790921717909117171760808110613c5e57607f810383901c9150613c68565b80607f0383901b91505b908002607f81811c60ff83811c9190911c800280831c81831c1c800280841c81841c1c800280851c81851c1c800280861c81861c1c800280871c81871c1c800280881c81881c1c800280891c81891c1c8002808a1c818a1c1c8002808b1c818b1c1c8002808c1c818c1c1c8002808d1c818d1c1c8002808e1c9c81901c9c909c1c80029c8d901c9e9d607f198f0160401b60c09190911c678000000000000000161760c19b909b1c674000000000000000169a909a1760c29990991c672000000000000000169890981760c39790971c671000000000000000169690961760c49590951c670800000000000000169490941760c59390931c670400000000000000169290921760c69190911c670200000000000000161760c79190911c670100000000000000161760c89190911c6680000000000000161760c99190911c6640000000000000161760ca9190911c6620000000000000161760cb9190911c6610000000000000161760cc9190911c6608000000000000161760cd9190911c66040000000000001617693627a301d71055774c8581026f028f6481ab7f045a5af012a19d003aa9198101608090811d906fdb2df09e81959a81455e260799a0632f8301901d600281810b9083900b14613e6857886001600160a01b0316613e4d82613f3e565b6001600160a01b03161115613e625781613e6a565b80613e6a565b815b9998505050505050505050565b613ebe838383604051602401613e8f93929190615541565b60408051601f198184030181529190526020810180516001600160e01b031663969cdd0360e01b1790526145ea565b505050565b600060c0613eda6001600160a01b03841680614d4b565b613eec90670de0b6b3a7640000614d4b565b901c92915050565b6040516024810183905260448101829052613f3a9060640160408051601f198184030181529190526020810180516001600160e01b031662d81ed360e71b1790526145ea565b5050565b60008060008360020b12613f55578260020b613f5d565b8260020b6000035b9050620d89e8811115613f83576040516315e4079d60e11b815260040160405180910390fd5b600081600116600003613f9a57600160801b613fac565b6ffffcb933bd6fad37aa2d162d1a5940015b70ffffffffffffffffffffffffffffffffff1690506002821615613fe0576ffff97272373d413259a46990580e213a0260801c5b6004821615613fff576ffff2e50f5f656932ef12357cf3c7fdcc0260801c5b600882161561401e576fffe5caca7e10e4e61c3624eaa0941cd00260801c5b601082161561403d576fffcb9843d60f6159c9db58835c9266440260801c5b602082161561405c576fff973b41fa98c081472e6896dfb254c00260801c5b604082161561407b576fff2ea16466c96a3843ec78b326b528610260801c5b608082161561409a576ffe5dee046a99a2a811c461f1969c30530260801c5b6101008216156140ba576ffcbe86c7900a88aedcffc83b479aa3a40260801c5b6102008216156140da576ff987a7253ac413176f2b074cf7815e540260801c5b6104008216156140fa576ff3392b0822b70005940c7a398e4b70f30260801c5b61080082161561411a576fe7159475a2c29b7443b29c7fa6e889d90260801c5b61100082161561413a576fd097f3bdfd2022b8845ad8f792aa58250260801c5b61200082161561415a576fa9f746462d870fdf8a65dc1f90e061e50260801c5b61400082161561417a576f70d869a156d2a1b890bb3df62baf32f70260801c5b61800082161561419a576f31be135f97d08fd981231505542fcfa60260801c5b620100008216156141bb576f09aa508b5b7a84e1c677de54f3e99bc90260801c5b620200008216156141db576e5d6af8dedb81196699c329225ee6040260801c5b620400008216156141fa576d2216e584f5fa1ea926041bedfe980260801c5b62080000821615614217576b048a170391f7dc42444e8fa20260801c5b60008460020b131561423857806000198161423457614234614d94565b0490505b64010000000081061561424c57600161424f565b60005b60ff16602082901c0192505050919050565b60008082600f0b12156142ce576001600160801b03831661428183614fbe565b61428b9085615566565b9150816001600160801b0316106142c95760405162461bcd60e51b81526020600482015260026024820152614c5360f01b60448201526064016108db565b6106d7565b6001600160801b0383166142e28385615586565b9150816001600160801b031610156106d75760405162461bcd60e51b81526020600482015260026024820152614c4160f01b60448201526064016108db565b60008183111561433157816105dc565b5090919050565b6143818484848460405160240161435294939291906155a6565b60408051601f198184030181529190526020810180516001600160e01b03166304772b3360e11b1790526145ea565b50505050565b6000826001600160a01b0316846001600160a01b031611156143a7579192915b60006143ca856001600160a01b0316856001600160a01b0316600160601b613ac0565b90506143f16143ec84836143de89896155d5565b6001600160a01b0316613ac0565b61460b565b95945050505050565b6000826001600160a01b0316846001600160a01b0316111561441a579192915b6105d96143ec83600160601b6143de88886155d5565b613f3a82826040516024016144469291906155f5565b60408051601f198184030181529190526020810180516001600160e01b03166309710a9d60e41b1790526145ea565b6000836001600160a01b0316856001600160a01b03161115614495579293925b816144c2576144bd836001600160801b03168686036001600160a01b0316600160601b613ac0565b6143f1565b6143f1836001600160801b03168686036001600160a01b0316600160601b614626565b6000836001600160a01b0316856001600160a01b03161115614505579293925b6fffffffffffffffffffffffffffffffff60601b606084901b166001600160a01b03868603811690871661453857600080fd5b8361456e57866001600160a01b031661455b8383896001600160a01b0316613ac0565b8161456857614568614d94565b0461459a565b61459a6145858383896001600160a01b0316614626565b886001600160a01b0316808204910615150190565b979650505050505050565b614381848484846040516024016145bf9493929190615617565b60408051601f198184030181529190526020810180516001600160e01b0316630bb7fe0760e31b1790525b80516a636f6e736f6c652e6c6f67602083016000808483855afa5050505050565b806001600160801b038116811461462157600080fd5b919050565b6000614633848484613ac0565b90506000828061464557614645614d94565b84860911156105dc57600019811061465c57600080fd5b6001019392505050565b6040805161018081018252600080825260208201819052918101829052606081018290526080810182905260a0810182905260c0810182905260e0810182905261010081018290526101208101829052610140810182905261016081019190915290565b60405180610300016040528060008152602001600081526020016000815260200160006001600160a01b03168152602001600060020b815260200160006001600160801b0316815260200160006001600160a01b0316815260200160006001600160a01b0316815260200160006001600160a01b03168152602001600081526020016000815260200161475b614666565b815260200160006001600160a01b0316815260200160008152602001600060020b8152602001600060020b8152602001600060020b81526020016000815260200160008152602001600081526020016000815260200160006001600160801b0316815260200160608152602001606081525090565b6001600160a01b03811681146147e557600080fd5b50565b80151581146147e557600080fd5b60008060006060848603121561480b57600080fd5b8335614816816147d0565b925060208401359150604084013561482d816147e8565b809150509250925092565b6000806040838503121561484b57600080fd5b8235614856816147d0565b946020939093013593505050565b805182526020810151602083015260408101516040830152606081015160608301526080810151608083015260a08101516148a460a084018260020b9052565b5060c08101516148bf60c08401826001600160801b03169052565b5060e08101516148d360e084018215159052565b506101008181015163ffffffff81168483015250506101208181015163ffffffff8116848301525050610140808201516149118285018260020b9052565b5050610160808201516143818285018260020b9052565b61018081016106d78284614864565b60006020828403121561494957600080fd5b81356105dc816147d0565b8060020b81146147e557600080fd5b6000806040838503121561497657600080fd5b823561498181614954565b91506020830135614991816147e8565b809150509250929050565b6000806000606084860312156149b157600080fd5b83356149bc816147e8565b95602085013595506040909401359392505050565b6000602082840312156149e357600080fd5b5035919050565b6001600160801b03811681146147e557600080fd5b600080600060608486031215614a1457600080fd5b8335614a1f81614954565b92506020840135614a2f816147e8565b9150604084013561482d816149ea565b60008060008060808587031215614a5557600080fd5b8435935060208501359250604085013591506060850135614a75816147e8565b939692955090935050565b6101c08101614a8f8286614864565b6101808201939093526101a00152919050565b634e487b7160e01b600052604160045260246000fd5b604051608081016001600160401b0381118282101715614ada57614ada614aa2565b60405290565b604051601f8201601f191681016001600160401b0381118282101715614b0857614b08614aa2565b604052919050565b60006001600160401b03821115614b2957614b29614aa2565b5060051b60200190565b60008060008060008060c08789031215614b4c57600080fd5b8635614b5781614954565b9550602087810135614b6881614954565b955060408801359450606088013593506080880135614b86816147e8565b925060a08801356001600160401b03811115614ba157600080fd5b8801601f81018a13614bb257600080fd5b8035614bc5614bc082614b10565b614ae0565b81815260059190911b8201830190838101908c831115614be457600080fd5b928401925b82841015614c0257833582529284019290840190614be9565b80955050505050509295509295509295565b60008083601f840112614c2657600080fd5b5081356001600160401b03811115614c3d57600080fd5b602083019150836020828501011115614c5557600080fd5b9250929050565b60008060008060608587031215614c7257600080fd5b843593506020850135925060408501356001600160401b03811115614c9657600080fd5b614ca287828801614c14565b95989497509550505050565b600080600060608486031215614cc357600080fd5b833592506020840135614cd5816147d0565b929592945050506040919091013590565b6020808252825182820181905260009190848201906040850190845b81811015614d2957614d15838551614864565b928401926101809290920191600101614d02565b50909695505050505050565b634e487b7160e01b600052601160045260246000fd5b80820281158282048414176106d7576106d7614d35565b6001600160a01b03828116828216818102831692918115828504821417614d8b57614d8b614d35565b50505092915050565b634e487b7160e01b600052601260045260246000fd5b60006001600160a01b0383811680614dc457614dc4614d94565b92169190910492915050565b60609290921b6bffffffffffffffffffffffff19168252601482015260340190565b60008160020b8360020b80614e0957614e09614d94565b627fffff19821460001982141615614e2357614e23614d35565b90059392505050565b600281810b9083900b01627fffff8113627fffff19821217156106d7576106d7614d35565b60008260020b8260020b028060020b9150808214614e7157614e71614d35565b5092915050565b808201808211156106d7576106d7614d35565b805161ffff8116811461462157600080fd5b600080600080600080600060e0888a031215614eb857600080fd5b8751614ec3816147d0565b6020890151909750614ed481614954565b9550614ee260408901614e8b565b9450614ef060608901614e8b565b9350614efe60808901614e8b565b925060a088015160ff81168114614f1457600080fd5b60c0890151909250614f25816147e8565b8091505092959891949750929550565b818103818111156106d7576106d7614d35565b600060208284031215614f5a57600080fd5b81516105dc816149ea565b600060208284031215614f7757600080fd5b815180600f0b81146105dc57600080fd5b600f82810b9082900b036f7fffffffffffffffffffffffffffffff19811260016001607f1b03821317156106d7576106d7614d35565b600081600f0b60016001607f1b03198103614fdb57614fdb614d35565b60000392915050565b600282810b9082900b03627fffff198112627fffff821317156106d7576106d7614d35565b6101408082528551908201819052600090610160830190602090818901845b82811015615070578151805160020b8652848101516001600160801b031685870152604080820151908701526060908101519086015260809094019390830190600101615028565b5050508192506150d98185018880518252602080820151908301526040808201516001600160a01b03169083015260608082015160020b908301526080808201519083015260a0808201516001600160801b039081169184019190915260c09182015116910152565b50508315156101008301526001600160a01b03831661012083015295945050505050565b600060e0828403121561510f57600080fd5b60405160e081018181106001600160401b038211171561513157615131614aa2565b806040525080915082518152602083015160208201526040830151615155816147d0565b6040820152606083015161516881614954565b60608201526080838101519082015260a0830151615185816149ea565b60a082015260c0830151615198816149ea565b60c0919091015292915050565b60008061010083850312156151b957600080fd5b82516001600160401b038111156151cf57600080fd5b8301601f810185136151e057600080fd5b805160206151f0614bc083614b10565b82815260079290921b8301810191818101908884111561520f57600080fd5b938201935b83851015615278576080858a03121561522d5760008081fd5b615235614ab8565b855161524081614954565b81528584015161524f816149ea565b818501526040868101519082015260608087015190820152825260809094019390820190615214565b95506152889050878783016150fd565b93505050509250929050565b634e487b7160e01b600052603260045260246000fd5b6000816152b9576152b9614d35565b506000190190565b6000600182016152d3576152d3614d35565b5060010190565b6000826152e9576152e9614d94565b500490565b60006020828403121561530057600080fd5b5051919050565b6000806040838503121561531a57600080fd5b825161532581614954565b6020840151909250614991816147e8565b6001600160a01b039384168152919092166020820152604081019190915260600190565b60006020828403121561536c57600080fd5b81516105dc816147e8565b6000815180845260005b8181101561539d57602081850181015186830182015201615381565b506000602082860101526020601f19601f83011685010191505092915050565b6001600160a01b0386811682528515156020830152604082018590528316606082015260a06080820181905260009061459a90830184615377565b6000806040838503121561540b57600080fd5b505080516020909101519092909150565b6000600160ff1b820161543157615431614d35565b5060000390565b600060a082018760020b835260208760020b8185015286604085015260a0606085015281865180845260c086019150828801935060005b8181101561548b5784518352938301939183019160010161546f565b505080935050505082151560808301529695505050505050565b600080604083850312156154b857600080fd5b825191506020808401516001600160401b038111156154d657600080fd5b8401601f810186136154e757600080fd5b80516154f5614bc082614b10565b81815260059190911b8201830190838101908883111561551457600080fd5b928401925b8284101561553257835182529284019290840190615519565b80955050505050509250929050565b6060815260006155546060830186615377565b60208301949094525060400152919050565b6001600160801b03828116828216039080821115614e7157614e71614d35565b6001600160801b03818116838216019080821115614e7157614e71614d35565b6080815260006155b96080830187615377565b6020830195909552506040810192909252606090910152919050565b6001600160a01b03828116828216039080821115614e7157614e71614d35565b6040815260006156086040830185615377565b90508260208301529392505050565b60808152600061562a6080830187615377565b941515602083015250604081019290925260609091015291905056fea26469706673582212201cb84e0adef91ee27731bd9aaa0bba3725d3a8e2ec0064eba7260fe7aeec1b7764736f6c63430008110033",
    "linkReferences": {}
  },
  "methodIdentifiers": {
    "INTEREST_REPLENISH_TIME()": "9aa886da",
    "applySlippageX96(uint160,uint256,bool)": "207b0576",
    "borrow(bool,int256,uint256)": "40f6ea54",
    "closeMaxSlippage()": "6ef83ef7",
    "closePosition(uint256,address,uint256)": "d8b83f3a",
    "createLevPosition(uint256,uint256,uint256,bool)": "946e986c",
    "getAllPositions(address)": "fb11e969",
    "getNextTick(int24,bool,uint128)": "80753d27",
    "getPosition(address,uint256)": "3adbb5af",
    "isLiquidatable(address,uint256)": "3fdfb2aa",
    "liquidityManager()": "33827438",
    "nonce()": "affed0e0",
    "payPremium(address,uint256)": "bc2704bf",
    "payPremiumToPool(int24,int24,uint256,uint256,bool,uint256[])": "a9de6d6c",
    "pool()": "16f0115b",
    "positions(bytes32)": "514ea4bf",
    "precision()": "d3b5dc3b",
    "roundTick(int24,bool)": "3dc306ee",
    "setLiquidityManager(address)": "3c1624d4",
    "tickSpacing()": "d0c93a7c",
    "token0()": "0dfe1681",
    "token1()": "d21220a7",
    "uniswapV3MintCallback(uint256,uint256,bytes)": "d3487997",
    "uniswapV3SwapCallback(int256,int256,bytes)": "fa461e33",
    "userpositions(address,uint256)": "54d771e6"
  },
  "id": 23
}