{
  "abi": [
    {
      "inputs": [],
      "stateMutability": "nonpayable",
      "type": "constructor"
    },
    {
      "inputs": [],
      "name": "R",
      "type": "error"
    },
    {
      "inputs": [],
      "name": "T",
      "type": "error"
    },
    {
      "inputs": [],
      "name": "borrowManager",
      "outputs": [
        {
          "internalType": "address",
          "name": "",
          "type": "address"
        }
      ],
      "stateMutability": "view",
      "type": "function"
    },
    {
      "inputs": [
        {
          "internalType": "int24",
          "name": "borrowStartTick",
          "type": "int24"
        },
        {
          "internalType": "int24",
          "name": "finishTick",
          "type": "int24"
        },
        {
          "internalType": "bool",
          "name": "borrowBelow",
          "type": "bool"
        }
      ],
      "name": "checkBorrowRange",
      "outputs": [
        {
          "internalType": "bool",
          "name": "",
          "type": "bool"
        }
      ],
      "stateMutability": "view",
      "type": "function"
    },
    {
      "inputs": [
        {
          "internalType": "int24",
          "name": "startTick",
          "type": "int24"
        },
        {
          "internalType": "int24",
          "name": "endTick",
          "type": "int24"
        },
        {
          "internalType": "uint128",
          "name": "withdrawingLiquidity",
          "type": "uint128"
        }
      ],
      "name": "checkLiquidity",
      "outputs": [
        {
          "internalType": "uint256",
          "name": "",
          "type": "uint256"
        }
      ],
      "stateMutability": "view",
      "type": "function"
    },
    {
      "inputs": [
        {
          "components": [
            {
              "internalType": "int24",
              "name": "tick",
              "type": "int24"
            },
            {
              "internalType": "uint128",
              "name": "liquidity",
              "type": "uint128"
            },
            {
              "internalType": "uint256",
              "name": "premiumOrUrate",
              "type": "uint256"
            }
          ],
          "internalType": "struct LiquidityManager.Liquidity[]",
          "name": "borrowInfo",
          "type": "tuple[]"
        }
      ],
      "name": "checkSolvency",
      "outputs": [
        {
          "internalType": "bool",
          "name": "",
          "type": "bool"
        },
        {
          "internalType": "uint256[]",
          "name": "",
          "type": "uint256[]"
        }
      ],
      "stateMutability": "view",
      "type": "function"
    },
    {
      "inputs": [
        {
          "internalType": "int24",
          "name": "tick",
          "type": "int24"
        }
      ],
      "name": "getLiqMinusBorrow",
      "outputs": [
        {
          "internalType": "uint128",
          "name": "",
          "type": "uint128"
        }
      ],
      "stateMutability": "view",
      "type": "function"
    },
    {
      "inputs": [
        {
          "components": [
            {
              "internalType": "int24",
              "name": "tick",
              "type": "int24"
            },
            {
              "internalType": "uint128",
              "name": "liquidity",
              "type": "uint128"
            },
            {
              "internalType": "uint256",
              "name": "premiumOrUrate",
              "type": "uint256"
            }
          ],
          "internalType": "struct LiquidityManager.Liquidity[]",
          "name": "liquidities",
          "type": "tuple[]"
        },
        {
          "internalType": "int24",
          "name": "curTick",
          "type": "int24"
        },
        {
          "internalType": "bool",
          "name": "borrowBelow",
          "type": "bool"
        }
      ],
      "name": "getNewPremiumQuotes",
      "outputs": [
        {
          "internalType": "uint256",
          "name": "",
          "type": "uint256"
        },
        {
          "components": [
            {
              "internalType": "int24",
              "name": "tick",
              "type": "int24"
            },
            {
              "internalType": "uint128",
              "name": "liquidity",
              "type": "uint128"
            },
            {
              "internalType": "uint256",
              "name": "premiumOrUrate",
              "type": "uint256"
            }
          ],
          "internalType": "struct LiquidityManager.Liquidity[]",
          "name": "",
          "type": "tuple[]"
        }
      ],
      "stateMutability": "view",
      "type": "function"
    },
    {
      "inputs": [
        {
          "internalType": "int24",
          "name": "lowerTick",
          "type": "int24"
        },
        {
          "internalType": "int24",
          "name": "upperTick",
          "type": "int24"
        }
      ],
      "name": "getPremiumGrowthInside",
      "outputs": [
        {
          "internalType": "uint256",
          "name": "",
          "type": "uint256"
        },
        {
          "internalType": "uint256",
          "name": "",
          "type": "uint256"
        }
      ],
      "stateMutability": "view",
      "type": "function"
    },
    {
      "inputs": [
        {
          "components": [
            {
              "internalType": "bool",
              "name": "isBorrow",
              "type": "bool"
            },
            {
              "internalType": "address",
              "name": "pool",
              "type": "address"
            },
            {
              "internalType": "uint256",
              "name": "totalPosition",
              "type": "uint256"
            },
            {
              "internalType": "uint256",
              "name": "totalDebt",
              "type": "uint256"
            },
            {
              "internalType": "uint256",
              "name": "totalDebtInput",
              "type": "uint256"
            },
            {
              "internalType": "uint256",
              "name": "initCollateral",
              "type": "uint256"
            },
            {
              "internalType": "uint128",
              "name": "recentPremium",
              "type": "uint128"
            },
            {
              "internalType": "uint128",
              "name": "totalPremium",
              "type": "uint128"
            },
            {
              "internalType": "uint128",
              "name": "unusedPremium",
              "type": "uint128"
            },
            {
              "internalType": "bool",
              "name": "isToken0",
              "type": "bool"
            },
            {
              "internalType": "uint32",
              "name": "openTime",
              "type": "uint32"
            },
            {
              "internalType": "uint32",
              "name": "repayTime",
              "type": "uint32"
            },
            {
              "components": [
                {
                  "internalType": "int24",
                  "name": "tick",
                  "type": "int24"
                },
                {
                  "internalType": "uint128",
                  "name": "liquidity",
                  "type": "uint128"
                },
                {
                  "internalType": "uint256",
                  "name": "premiumOrUrate",
                  "type": "uint256"
                }
              ],
              "internalType": "struct LiquidityManager.Liquidity[]",
              "name": "borrowInfo",
              "type": "tuple[]"
            }
          ],
          "internalType": "struct GlobalStorage.Position",
          "name": "position",
          "type": "tuple"
        },
        {
          "internalType": "address",
          "name": "borrower",
          "type": "address"
        }
      ],
      "name": "getPremiumRefund",
      "outputs": [],
      "stateMutability": "nonpayable",
      "type": "function"
    },
    {
      "inputs": [
        {
          "components": [
            {
              "internalType": "bool",
              "name": "isBorrow",
              "type": "bool"
            },
            {
              "internalType": "address",
              "name": "pool",
              "type": "address"
            },
            {
              "internalType": "uint256",
              "name": "totalPosition",
              "type": "uint256"
            },
            {
              "internalType": "uint256",
              "name": "totalDebt",
              "type": "uint256"
            },
            {
              "internalType": "uint256",
              "name": "totalDebtInput",
              "type": "uint256"
            },
            {
              "internalType": "uint256",
              "name": "initCollateral",
              "type": "uint256"
            },
            {
              "internalType": "uint128",
              "name": "recentPremium",
              "type": "uint128"
            },
            {
              "internalType": "uint128",
              "name": "totalPremium",
              "type": "uint128"
            },
            {
              "internalType": "uint128",
              "name": "unusedPremium",
              "type": "uint128"
            },
            {
              "internalType": "bool",
              "name": "isToken0",
              "type": "bool"
            },
            {
              "internalType": "uint32",
              "name": "openTime",
              "type": "uint32"
            },
            {
              "internalType": "uint32",
              "name": "repayTime",
              "type": "uint32"
            },
            {
              "components": [
                {
                  "internalType": "int24",
                  "name": "tick",
                  "type": "int24"
                },
                {
                  "internalType": "uint128",
                  "name": "liquidity",
                  "type": "uint128"
                },
                {
                  "internalType": "uint256",
                  "name": "premiumOrUrate",
                  "type": "uint256"
                }
              ],
              "internalType": "struct LiquidityManager.Liquidity[]",
              "name": "borrowInfo",
              "type": "tuple[]"
            }
          ],
          "internalType": "struct GlobalStorage.Position",
          "name": "position",
          "type": "tuple"
        },
        {
          "internalType": "address",
          "name": "borrower",
          "type": "address"
        },
        {
          "internalType": "uint256",
          "name": "percentageClosed",
          "type": "uint256"
        }
      ],
      "name": "getRefundAndpayToPool",
      "outputs": [
        {
          "internalType": "uint256",
          "name": "",
          "type": "uint256"
        }
      ],
      "stateMutability": "nonpayable",
      "type": "function"
    },
    {
      "inputs": [
        {
          "components": [
            {
              "internalType": "bool",
              "name": "isBorrow",
              "type": "bool"
            },
            {
              "internalType": "address",
              "name": "pool",
              "type": "address"
            },
            {
              "internalType": "uint256",
              "name": "totalPosition",
              "type": "uint256"
            },
            {
              "internalType": "uint256",
              "name": "totalDebt",
              "type": "uint256"
            },
            {
              "internalType": "uint256",
              "name": "totalDebtInput",
              "type": "uint256"
            },
            {
              "internalType": "uint256",
              "name": "initCollateral",
              "type": "uint256"
            },
            {
              "internalType": "uint128",
              "name": "recentPremium",
              "type": "uint128"
            },
            {
              "internalType": "uint128",
              "name": "totalPremium",
              "type": "uint128"
            },
            {
              "internalType": "uint128",
              "name": "unusedPremium",
              "type": "uint128"
            },
            {
              "internalType": "bool",
              "name": "isToken0",
              "type": "bool"
            },
            {
              "internalType": "uint32",
              "name": "openTime",
              "type": "uint32"
            },
            {
              "internalType": "uint32",
              "name": "repayTime",
              "type": "uint32"
            },
            {
              "components": [
                {
                  "internalType": "int24",
                  "name": "tick",
                  "type": "int24"
                },
                {
                  "internalType": "uint128",
                  "name": "liquidity",
                  "type": "uint128"
                },
                {
                  "internalType": "uint256",
                  "name": "premiumOrUrate",
                  "type": "uint256"
                }
              ],
              "internalType": "struct LiquidityManager.Liquidity[]",
              "name": "borrowInfo",
              "type": "tuple[]"
            }
          ],
          "internalType": "struct GlobalStorage.Position",
          "name": "position",
          "type": "tuple"
        }
      ],
      "name": "getRemainingPremium",
      "outputs": [
        {
          "internalType": "uint128",
          "name": "",
          "type": "uint128"
        }
      ],
      "stateMutability": "view",
      "type": "function"
    },
    {
      "inputs": [
        {
          "components": [
            {
              "internalType": "int24",
              "name": "tick",
              "type": "int24"
            },
            {
              "internalType": "uint128",
              "name": "liquidity",
              "type": "uint128"
            },
            {
              "internalType": "uint256",
              "name": "premiumOrUrate",
              "type": "uint256"
            }
          ],
          "internalType": "struct LiquidityManager.Liquidity[]",
          "name": "borrowInfo",
          "type": "tuple[]"
        }
      ],
      "name": "getURates",
      "outputs": [
        {
          "components": [
            {
              "internalType": "int24",
              "name": "tick",
              "type": "int24"
            },
            {
              "internalType": "uint128",
              "name": "liquidity",
              "type": "uint128"
            },
            {
              "internalType": "uint256",
              "name": "premiumOrUrate",
              "type": "uint256"
            }
          ],
          "internalType": "struct LiquidityManager.Liquidity[]",
          "name": "",
          "type": "tuple[]"
        }
      ],
      "stateMutability": "view",
      "type": "function"
    },
    {
      "inputs": [],
      "name": "globalStorage",
      "outputs": [
        {
          "internalType": "contract GlobalStorage",
          "name": "",
          "type": "address"
        }
      ],
      "stateMutability": "view",
      "type": "function"
    },
    {
      "inputs": [
        {
          "internalType": "bool",
          "name": "borrowBelow",
          "type": "bool"
        },
        {
          "internalType": "uint160",
          "name": "strikePriceX160",
          "type": "uint160"
        },
        {
          "internalType": "uint160",
          "name": "finishPriceX160",
          "type": "uint160"
        },
        {
          "internalType": "uint256",
          "name": "borrowAmount",
          "type": "uint256"
        }
      ],
      "name": "indexLiquidities",
      "outputs": [
        {
          "internalType": "int24",
          "name": "",
          "type": "int24"
        },
        {
          "internalType": "int24",
          "name": "",
          "type": "int24"
        },
        {
          "components": [
            {
              "internalType": "int24",
              "name": "tick",
              "type": "int24"
            },
            {
              "internalType": "uint128",
              "name": "liquidity",
              "type": "uint128"
            },
            {
              "internalType": "uint256",
              "name": "premiumOrUrate",
              "type": "uint256"
            }
          ],
          "internalType": "struct LiquidityManager.Liquidity[]",
          "name": "",
          "type": "tuple[]"
        }
      ],
      "stateMutability": "view",
      "type": "function"
    },
    {
      "inputs": [],
      "name": "leverageManager",
      "outputs": [
        {
          "internalType": "address",
          "name": "",
          "type": "address"
        }
      ],
      "stateMutability": "view",
      "type": "function"
    },
    {
      "inputs": [],
      "name": "numticks",
      "outputs": [
        {
          "internalType": "uint256",
          "name": "",
          "type": "uint256"
        }
      ],
      "stateMutability": "view",
      "type": "function"
    },
    {
      "inputs": [
        {
          "internalType": "address",
          "name": "trader",
          "type": "address"
        },
        {
          "internalType": "bool",
          "name": "isBorrow",
          "type": "bool"
        },
        {
          "internalType": "bool",
          "name": "isToken0",
          "type": "bool"
        }
      ],
      "name": "payPremium",
      "outputs": [
        {
          "internalType": "uint256",
          "name": "",
          "type": "uint256"
        },
        {
          "internalType": "uint256",
          "name": "",
          "type": "uint256"
        }
      ],
      "stateMutability": "nonpayable",
      "type": "function"
    },
    {
      "inputs": [
        {
          "components": [
            {
              "internalType": "int24",
              "name": "tick",
              "type": "int24"
            },
            {
              "internalType": "uint128",
              "name": "liquidity",
              "type": "uint128"
            },
            {
              "internalType": "uint256",
              "name": "premiumOrUrate",
              "type": "uint256"
            }
          ],
          "internalType": "struct LiquidityManager.Liquidity[]",
          "name": "liquidities",
          "type": "tuple[]"
        },
        {
          "internalType": "uint256",
          "name": "percentagePaid",
          "type": "uint256"
        },
        {
          "internalType": "bool",
          "name": "borrowBelow",
          "type": "bool"
        }
      ],
      "name": "payPremiumToPool",
      "outputs": [
        {
          "internalType": "uint256",
          "name": "premium",
          "type": "uint256"
        }
      ],
      "stateMutability": "nonpayable",
      "type": "function"
    },
    {
      "inputs": [],
      "name": "pool",
      "outputs": [
        {
          "internalType": "contract UniswapV3Pool",
          "name": "",
          "type": "address"
        }
      ],
      "stateMutability": "view",
      "type": "function"
    },
    {
      "inputs": [],
      "name": "precision",
      "outputs": [
        {
          "internalType": "uint256",
          "name": "",
          "type": "uint256"
        }
      ],
      "stateMutability": "view",
      "type": "function"
    },
    {
      "inputs": [
        {
          "internalType": "int24",
          "name": "tick",
          "type": "int24"
        }
      ],
      "name": "queryLiquidity",
      "outputs": [
        {
          "internalType": "uint128",
          "name": "",
          "type": "uint128"
        }
      ],
      "stateMutability": "view",
      "type": "function"
    },
    {
      "inputs": [
        {
          "internalType": "int24",
          "name": "tick",
          "type": "int24"
        }
      ],
      "name": "queryPremium",
      "outputs": [
        {
          "internalType": "uint256",
          "name": "",
          "type": "uint256"
        },
        {
          "internalType": "uint256",
          "name": "",
          "type": "uint256"
        }
      ],
      "stateMutability": "view",
      "type": "function"
    },
    {
      "inputs": [
        {
          "internalType": "int24",
          "name": "tick",
          "type": "int24"
        },
        {
          "internalType": "bool",
          "name": "down",
          "type": "bool"
        }
      ],
      "name": "roundTick",
      "outputs": [
        {
          "internalType": "int24",
          "name": "",
          "type": "int24"
        }
      ],
      "stateMutability": "view",
      "type": "function"
    },
    {
      "inputs": [
        {
          "internalType": "int24",
          "name": "strikeTick",
          "type": "int24"
        },
        {
          "internalType": "bool",
          "name": "borrowBelow",
          "type": "bool"
        }
      ],
      "name": "roundTickToBorrow",
      "outputs": [
        {
          "internalType": "int24",
          "name": "rounded",
          "type": "int24"
        }
      ],
      "stateMutability": "view",
      "type": "function"
    },
    {
      "inputs": [],
      "name": "tickSpacing",
      "outputs": [
        {
          "internalType": "int24",
          "name": "",
          "type": "int24"
        }
      ],
      "stateMutability": "view",
      "type": "function"
    },
    {
      "inputs": [],
      "name": "token0",
      "outputs": [
        {
          "internalType": "contract ERC20",
          "name": "",
          "type": "address"
        }
      ],
      "stateMutability": "view",
      "type": "function"
    },
    {
      "inputs": [],
      "name": "token1",
      "outputs": [
        {
          "internalType": "contract ERC20",
          "name": "",
          "type": "address"
        }
      ],
      "stateMutability": "view",
      "type": "function"
    },
    {
      "inputs": [
        {
          "components": [
            {
              "internalType": "bool",
              "name": "isBorrow",
              "type": "bool"
            },
            {
              "internalType": "address",
              "name": "pool",
              "type": "address"
            },
            {
              "internalType": "uint256",
              "name": "totalPosition",
              "type": "uint256"
            },
            {
              "internalType": "uint256",
              "name": "totalDebt",
              "type": "uint256"
            },
            {
              "internalType": "uint256",
              "name": "totalDebtInput",
              "type": "uint256"
            },
            {
              "internalType": "uint256",
              "name": "initCollateral",
              "type": "uint256"
            },
            {
              "internalType": "uint128",
              "name": "recentPremium",
              "type": "uint128"
            },
            {
              "internalType": "uint128",
              "name": "totalPremium",
              "type": "uint128"
            },
            {
              "internalType": "uint128",
              "name": "unusedPremium",
              "type": "uint128"
            },
            {
              "internalType": "bool",
              "name": "isToken0",
              "type": "bool"
            },
            {
              "internalType": "uint32",
              "name": "openTime",
              "type": "uint32"
            },
            {
              "internalType": "uint32",
              "name": "repayTime",
              "type": "uint32"
            },
            {
              "components": [
                {
                  "internalType": "int24",
                  "name": "tick",
                  "type": "int24"
                },
                {
                  "internalType": "uint128",
                  "name": "liquidity",
                  "type": "uint128"
                },
                {
                  "internalType": "uint256",
                  "name": "premiumOrUrate",
                  "type": "uint256"
                }
              ],
              "internalType": "struct LiquidityManager.Liquidity[]",
              "name": "borrowInfo",
              "type": "tuple[]"
            }
          ],
          "internalType": "struct GlobalStorage.Position",
          "name": "position",
          "type": "tuple"
        },
        {
          "internalType": "address",
          "name": "borrower",
          "type": "address"
        },
        {
          "internalType": "uint256",
          "name": "newPremium",
          "type": "uint256"
        }
      ],
      "name": "updateAndRefundPremium",
      "outputs": [],
      "stateMutability": "nonpayable",
      "type": "function"
    },
    {
      "inputs": [
        {
          "internalType": "int24",
          "name": "tickLower",
          "type": "int24"
        },
        {
          "internalType": "int24",
          "name": "tickUpper",
          "type": "int24"
        },
        {
          "internalType": "int128",
          "name": "liq",
          "type": "int128"
        }
      ],
      "name": "updateBorrowTreeLiq",
      "outputs": [],
      "stateMutability": "nonpayable",
      "type": "function"
    },
    {
      "inputs": [
        {
          "internalType": "int24",
          "name": "tickLower",
          "type": "int24"
        },
        {
          "internalType": "int24",
          "name": "tickUpper",
          "type": "int24"
        },
        {
          "internalType": "int128",
          "name": "liq",
          "type": "int128"
        }
      ],
      "name": "updateLiquidityTreeLiq",
      "outputs": [],
      "stateMutability": "nonpayable",
      "type": "function"
    },
    {
      "inputs": [
        {
          "internalType": "address",
          "name": "trader",
          "type": "address"
        },
        {
          "components": [
            {
              "internalType": "bool",
              "name": "isBorrow",
              "type": "bool"
            },
            {
              "internalType": "address",
              "name": "pool",
              "type": "address"
            },
            {
              "internalType": "uint256",
              "name": "totalPosition",
              "type": "uint256"
            },
            {
              "internalType": "uint256",
              "name": "totalDebt",
              "type": "uint256"
            },
            {
              "internalType": "uint256",
              "name": "totalDebtInput",
              "type": "uint256"
            },
            {
              "internalType": "uint256",
              "name": "initCollateral",
              "type": "uint256"
            },
            {
              "internalType": "uint128",
              "name": "recentPremium",
              "type": "uint128"
            },
            {
              "internalType": "uint128",
              "name": "totalPremium",
              "type": "uint128"
            },
            {
              "internalType": "uint128",
              "name": "unusedPremium",
              "type": "uint128"
            },
            {
              "internalType": "bool",
              "name": "isToken0",
              "type": "bool"
            },
            {
              "internalType": "uint32",
              "name": "openTime",
              "type": "uint32"
            },
            {
              "internalType": "uint32",
              "name": "repayTime",
              "type": "uint32"
            },
            {
              "components": [
                {
                  "internalType": "int24",
                  "name": "tick",
                  "type": "int24"
                },
                {
                  "internalType": "uint128",
                  "name": "liquidity",
                  "type": "uint128"
                },
                {
                  "internalType": "uint256",
                  "name": "premiumOrUrate",
                  "type": "uint256"
                }
              ],
              "internalType": "struct LiquidityManager.Liquidity[]",
              "name": "borrowInfo",
              "type": "tuple[]"
            }
          ],
          "internalType": "struct GlobalStorage.Position",
          "name": "position",
          "type": "tuple"
        },
        {
          "internalType": "uint256",
          "name": "premium",
          "type": "uint256"
        },
        {
          "internalType": "uint256",
          "name": "prevRemainingPremium",
          "type": "uint256"
        }
      ],
      "name": "updatePremiumState",
      "outputs": [],
      "stateMutability": "nonpayable",
      "type": "function"
    }
  ],
  "bytecode": {
    "object": "0x6101806040523480156200001257600080fd5b50600080600080336001600160a01b031663890357306040518163ffffffff1660e01b8152600401608060405180830381865afa15801562000058573d6000803e3d6000fd5b505050506040513d601f19601f820116820180604052508101906200007e91906200023a565b9350935093509350836001600160a01b0316610100816001600160a01b031681525050610100516001600160a01b0316630dfe16816040518163ffffffff1660e01b8152600401602060405180830381865afa158015620000e3573d6000803e3d6000fd5b505050506040513d601f19601f8201168201806040525081019062000109919062000297565b610100516001600160a01b031663d21220a76040518163ffffffff1660e01b8152600401602060405180830381865afa1580156200014b573d6000803e3d6000fd5b505050506040513d601f19601f8201168201806040525081019062000171919062000297565b6001600160a01b03908116610140529081166101205261010051604080516334324e9f60e21b81529051919092169163d0c93a7c9160048083019260209291908290030181865afa158015620001cb573d6000803e3d6000fd5b505050506040513d601f19601f82011682018060405250810190620001f19190620002bc565b60020b6080526001600160a01b0391821660c052811660e0521661016052506202b52e60a052620002e1565b80516001600160a01b03811681146200023557600080fd5b919050565b600080600080608085870312156200025157600080fd5b6200025c856200021d565b93506200026c602086016200021d565b92506200027c604086016200021d565b91506200028c606086016200021d565b905092959194509250565b600060208284031215620002aa57600080fd5b620002b5826200021d565b9392505050565b600060208284031215620002cf57600080fd5b81518060020b8114620002b557600080fd5b60805160a05160c05160e0516101005161012051610140516101605161544e620005546000396000818161037f0152818161170801528181611df1015281816121270152612c630152600081816104c901526122a801526000818161025901526123d60152600081816102c301528181610d38015281816110990152818161119801528181611497015281816116a90152818161187b015281816119df01528181611c6201528181611d5301528181611e54015281816120cb01528181612692015281816128b401528181612d0a015281816135600152613c0a0152600081816103e001528181610f2a01528181610fd0015281816115b40152818161165a01528181611a8101528181611ba7015281816121c10152612c0e0152600081816103b901528181610ef801528181610faa015281816115820152818161163401528181611a4f01528181611b810152818161219b01528181612273015281816123a10152612be80152600081816104ff0152818161124101528181611273015281816112a7015281816112de01528181611fe50152818161204601528181612a5a01528181612a8c01528181612ae501528181612b490152612de80152600081816104a201528181610572015281816105be015281816106ef01528181610739015281816108590152818161088e01528181610a1801528181610c8801528181610cc701528181610e5c01528181610e8a01528181610ec801528181611414015281816114670152818161152701528181611fc10152818161202201528181612497015281816129dd01528181612ac101528181612b25015281816134fe0152818161358c0152613c39015261544e6000f3fe608060405234801561001057600080fd5b50600436106101da5760003560e01c806381fd6c0211610104578063b6cc9c9e116100a2578063d9ba333a11610071578063d9ba333a146104fa578063f0ff1f3314610521578063f26c498a14610544578063f28016141461055757600080fd5b8063b6cc9c9e1461047d578063d0c93a7c1461049d578063d21220a7146104c4578063d3b5dc3b146104eb57600080fd5b80638e6be33f116100de5780638e6be33f1461041557806399712de214610428578063a02032bf1461043b578063aa1214581461045c57600080fd5b806381fd6c02146103b4578063829057e3146103db57806387e74faa1461040257600080fd5b80632700961a1161017c578063464869a71161014b578063464869a71461034657806347ca56f0146103595780636502072a1461037a5780636ec8a672146103a157600080fd5b80632700961a146102f85780633dc306ee1461030b578063424bf6f11461031e57806345b25e041461033357600080fd5b80630dfe1681116101b85780630dfe168114610254578063156582611461029357806316f0115b146102be5780631b58485e146102e557600080fd5b806303a4e843146101df578063053ef28b1461020c5780630da286511461022e575b600080fd5b6101f26101ed36600461459d565b61056a565b604080519283526020830191909152015b60405180910390f35b61021f61021a366004614604565b610610565b604051610203939291906146b4565b61024161023c3660046146d9565b610c72565b60405160029190910b8152602001610203565b61027b7f000000000000000000000000000000000000000000000000000000000000000081565b6040516001600160a01b039091168152602001610203565b6102a66102a1366004614707565b610cfa565b6040516001600160801b039091168152602001610203565b61027b7f000000000000000000000000000000000000000000000000000000000000000081565b6102a66102f3366004614707565b610db7565b6102a66103063660046149c9565b610dcb565b6102416103193660046146d9565b610e54565b61033161032c3660046149fd565b610eed565b005b610331610341366004614a43565b61123a565b6101f2610354366004614707565b61139f565b61036c610367366004614a95565b6113d3565b604051908152602001610203565b61027b7f000000000000000000000000000000000000000000000000000000000000000081565b6103316103af366004614ad5565b611577565b61027b7f000000000000000000000000000000000000000000000000000000000000000081565b61027b7f000000000000000000000000000000000000000000000000000000000000000081565b61036c610410366004614ad5565b611a42565b61036c610423366004614b2e565b611f3d565b610331610436366004614b7d565b61209c565b61044e610449366004614bdc565b61244b565b604051610203929190614c34565b61046f61046a366004614c4d565b6125bf565b604051610203929190614c81565b61049061048b366004614c4d565b6127f3565b6040516102039190614cc4565b6102417f000000000000000000000000000000000000000000000000000000000000000081565b61027b7f000000000000000000000000000000000000000000000000000000000000000081565b61036c670de0b6b3a764000081565b61036c7f000000000000000000000000000000000000000000000000000000000000000081565b61053461052f366004614cd7565b6129c6565b6040519015158152602001610203565b610331610552366004614a43565b612a53565b6101f2610565366004614d07565b612bdc565b6000806105b97f000000000000000000000000000000000000000000000000000000000000000060020b61059d86612de1565b6105a79190614d4d565b6105b085612de1565b60029190612e11565b6106057f000000000000000000000000000000000000000000000000000000000000000060020b6105e987612de1565b6105f39190614d4d565b6105fc86612de1565b60039190612e11565b915091509250929050565b600080606061061d614512565b61062687612e69565b60020b815261063486612e69565b60020b602082018190526106519061064c908a610e54565b61316e565b9550610661816000015189610c72565b60020b80825260e0820181905261067790613491565b61068a8160e0015182602001518a6129c6565b6106c85760405162461bcd60e51b81526004016106bf90602080825260049082015263216c697160e01b604082015260600190565b60405180910390fd5b6106d58160e00151612de1565b60408201526106e6818960006134d9565b600088610737577f000000000000000000000000000000000000000000000000000000000000000061071c83602001518b610e54565b83516107289190614d60565b6107329190614d9b565b61077f565b7f0000000000000000000000000000000000000000000000000000000000000000826000015161076b84602001518c610e54565b6107759190614d60565b61077f9190614d9b565b905060008160020b6001600160401b0381111561079e5761079e614724565b6040519080825280602002602001820160405280156107e957816020015b60408051606081018252600080825260208083018290529282015282526000199092019101816107bc5790505b50905060005b60008811806108145750886001600160a01b03168460c001516001600160a01b031614155b15610c58576040805160e081018252600080825260208201819052918101829052606081018290526080810182905260a0810182905260c08101919091528b61088c577f00000000000000000000000000000000000000000000000000000000000000008560e001516108879190614d60565b6108bc565b7f00000000000000000000000000000000000000000000000000000000000000008560e001516108bc9190614dd5565b60020b602082018190526108cf9061316e565b6001600160a01b0316606082015260c085015160808601519092506001600160801b03166000036109095780606001516000806000610980565b6109808560c001518d6109435782606001516001600160a01b03168c6001600160a01b03161161093d57826060015161096c565b8b61096c565b82606001516001600160a01b03168c6001600160a01b03161061096a57826060015161096c565b8b5b87608001516001600160ff1b0360006137e5565b5060a0840152608083019081526001600160a01b0390911660c08701525115610b7e576109ea670de0b6b3a76400008660a001516001600160801b031687608001516001600160801b03166109d59190614dfa565b60a08801516001600160801b031691906139d7565b83866101a0015181518110610a0157610a01614e0d565b602002602001015160400181815250508b610a4b577f00000000000000000000000000000000000000000000000000000000000000008560e00151610a469190614d60565b610a51565b8460e001515b83866101a0015181518110610a6857610a68614e0d565b602090810291909101015160029190910b90528b610aaa57610aa582826060015183608001518c1015610a9b578b613a89565b8360800151613a89565b610acf565b610acf82826060015183608001518c1015610ac5578b613afc565b8360800151613afc565b83866101a0015181518110610ae657610ae6614e0d565b6020026020010151602001906001600160801b031690816001600160801b031681525050610b3a856080015184876101a0015181518110610b2957610b29614e0d565b602002602001015160200151613b32565b83866101a0015181518110610b5157610b51614e0d565b6020908102919091018101516001600160801b039092169101526101a085018051610b7b90614e23565b90525b8060800151891015610b91576000610ba0565b6080810151610ba0908a614d4d565b9850881580610bc45750896001600160a01b03168560c001516001600160a01b0316145b15610c4157610bf96040518060400160405280600e81526020016d189bdc9c9bddd959185b5bdd5b9d60921b8152508a613b5b565b8815610c305760405162461bcd60e51b81526004016106bf90602080825260049082015263216c697160e01b604082015260600190565b6020015160020b60e0850152610c58565b610c528582602001518e6000613ba4565b506107ef565b50825160e090930151929a92995097509095505050505050565b6000610c7f836001610e54565b9050610cac60027f0000000000000000000000000000000000000000000000000000000000000000614d9b565b610cb69082614dd5565b60020b8360020b12610cf157610cec7f000000000000000000000000000000000000000000000000000000000000000082614dd5565b610cf3565b805b9392505050565b600080610d11610d0984612de1565b600090613e0e565b6040516320dddaaf60e21b8152600285900b60048201529091506000906001600160a01b037f000000000000000000000000000000000000000000000000000000000000000016906383776abc90602401602060405180830381865afa158015610d7f573d6000803e3d6000fd5b505050506040513d601f19601f82011682018060405250810190610da39190614e47565b9050610daf8183614e64565b949350505050565b6000610dc5610d0983612de1565b92915050565b600080610e1c610dff670de0b6b3a76400006201518086610160015163ffffffff1642610df89190614d4d565b91906139d7565b60c08501516001600160801b031690670de0b6b3a76400006139d7565b9050806001600160801b03168361010001516001600160801b031611610e43576000610cf3565b80836101000151610cf39190614e64565b600080610e817f000000000000000000000000000000000000000000000000000000000000000085614d9b565b905082610ec3577f0000000000000000000000000000000000000000000000000000000000000000610eb4826001614dd5565b610ebe9190614e8b565b610daf565b610daf7f000000000000000000000000000000000000000000000000000000000000000082614e8b565b336001600160a01b037f0000000000000000000000000000000000000000000000000000000000000000161480610f4c5750336001600160a01b037f000000000000000000000000000000000000000000000000000000000000000016145b80610f5f5750336001600160a01b038216145b610f7b5760405162461bcd60e51b81526004016106bf90614eab565b60008261010001518360c00151610f929190614e64565b6001600160801b0316905060008360000151610fce577f0000000000000000000000000000000000000000000000000000000000000000610ff0565b7f00000000000000000000000000000000000000000000000000000000000000005b9050836101200151156110fa57806001600160a01b031663a352dcbf600080868861010001516001600160801b03166040518563ffffffff1660e01b815260040161103e9493929190614eca565b600060405180830381600087803b15801561105857600080fd5b505af115801561106c573d6000803e3d6000fd5b505060405163a352dcbf60e01b81526001600160a01b038416925063a352dcbf91506110c39060009081907f0000000000000000000000000000000000000000000000000000000000000000908890600401614eca565b600060405180830381600087803b1580156110dd57600080fd5b505af11580156110f1573d6000803e3d6000fd5b505050506111f5565b806001600160a01b031663a352dcbf60016000868861010001516001600160801b03166040518563ffffffff1660e01b815260040161113c9493929190614eca565b600060405180830381600087803b15801561115657600080fd5b505af115801561116a573d6000803e3d6000fd5b505060405163a352dcbf60e01b81526001600160a01b038416925063a352dcbf91506111c2906001906000907f0000000000000000000000000000000000000000000000000000000000000000908890600401614eca565b600060405180830381600087803b1580156111dc57600080fd5b505af11580156111f0573d6000803e3d6000fd5b505050505b611233846101800151611228670de0b6b3a76400008760c001516001600160801b0316866139d79092919063ffffffff16565b866101200151611f3d565b5050505050565b600061126a7f0000000000000000000000000000000000000000000000000000000000000000600286900b614ef1565b9050600061129c7f0000000000000000000000000000000000000000000000000000000000000000600286900b614ef1565b90506112cb600483857f0000000000000000000000000000000000000000000000000000000000000000613e40565b611302816112d885614f19565b600491907f0000000000000000000000000000000000000000000000000000000000000000613e40565b600285900b60009081526005602052604081208054859290611328908490600f0b614f3f565b82546001600160801b039182166101009390930a928302919092021990911617905550600284900b60009081526005602052604081208054859290611371908490600f0b614f6c565b92506101000a8154816001600160801b030219169083600f0b6001600160801b031602179055505050505050565b6000806113b66113ae84612de1565b600290613e94565b6113ca6113c285612de1565b600390613e94565b91509150915091565b60006113dd614512565b6113e8856001610e54565b60020b60e082018190526113fb90612de1565b604082015261140c816001856134d9565b60005b6114397f000000000000000000000000000000000000000000000000000000000000000086614d60565b60020b8260e0015160020b136115255760e0820151604051633bcb373960e21b8152600291820b60048201527f000000000000000000000000000000000000000000000000000000000000000090910b6024820152600060448201527f00000000000000000000000000000000000000000000000000000000000000006001600160a01b03169063ef2cdce4906064016040805180830381865afa1580156114e5573d6000803e3d6000fd5b505050506040513d601f19601f820116820180604052508101906115099190614fa4565b15156101c084015290506115208282600187613ba4565b61140f565b7f00000000000000000000000000000000000000000000000000000000000000006115508787614d60565b61155a9190614d9b565b60020b82610160015161156d9190614fd3565b9695505050505050565b336001600160a01b037f00000000000000000000000000000000000000000000000000000000000000001614806115d65750336001600160a01b037f000000000000000000000000000000000000000000000000000000000000000016145b806115e95750336001600160a01b038316145b6116055760405162461bcd60e51b81526004016106bf90614eab565b60008361010001518460c0015161161c9190614e64565b6001600160801b0316905060008460000151611658577f000000000000000000000000000000000000000000000000000000000000000061167a565b7f00000000000000000000000000000000000000000000000000000000000000005b60408051610100810182526001600160a01b0387811682526101208901511515602083015288511515828401527f0000000000000000000000000000000000000000000000000000000000000000811660608301526001600160801b0387166080830181905260a0830181905260c083015261018089015160e083015291516324b0ada960e11b81529293507f0000000000000000000000000000000000000000000000000000000000000000909116916349615b529161173d91600401615060565b600060405180830381600087803b15801561175757600080fd5b505af115801561176b573d6000803e3d6000fd5b50505050846101200151156118dc57806001600160a01b031663a352dcbf600080878961010001516001600160801b03166040518563ffffffff1660e01b81526004016117bb9493929190614eca565b600060405180830381600087803b1580156117d557600080fd5b505af11580156117e9573d6000803e3d6000fd5b505060405163a352dcbf60e01b81526001600160a01b038416925063a352dcbf915061182090600090889086908990600401614eca565b600060405180830381600087803b15801561183a57600080fd5b505af115801561184e573d6000803e3d6000fd5b505060405163a352dcbf60e01b81526001600160a01b038416925063a352dcbf91506118a59060009081907f0000000000000000000000000000000000000000000000000000000000000000908890600401614eca565b600060405180830381600087803b1580156118bf57600080fd5b505af11580156118d3573d6000803e3d6000fd5b50505050611233565b806001600160a01b031663a352dcbf60016000878961010001516001600160801b03166040518563ffffffff1660e01b815260040161191e9493929190614eca565b600060405180830381600087803b15801561193857600080fd5b505af115801561194c573d6000803e3d6000fd5b505060405163a352dcbf60e01b81526001600160a01b038416925063a352dcbf915061198390600190889086908990600401614eca565b600060405180830381600087803b15801561199d57600080fd5b505af11580156119b1573d6000803e3d6000fd5b505060405163a352dcbf60e01b81526001600160a01b038416925063a352dcbf9150611a09906001906000907f0000000000000000000000000000000000000000000000000000000000000000908890600401614eca565b600060405180830381600087803b158015611a2357600080fd5b505af1158015611a37573d6000803e3d6000fd5b505050505050505050565b6000336001600160a01b037f0000000000000000000000000000000000000000000000000000000000000000161480611aa35750336001600160a01b037f000000000000000000000000000000000000000000000000000000000000000016145b80611ab65750336001600160a01b038416145b611ad25760405162461bcd60e51b81526004016106bf90614eab565b6000611b39611b16670de0b6b3a76400008760c001516001600160801b03168861010001518960c00151611b069190614e64565b6001600160801b031691906139d7565b60c0870151670de0b6b3a764000090610df8906001600160801b031687836139d7565b9050600081611b6885670de0b6b3a76400008960c001516001600160801b03166139d79092919063ffffffff16565b611b729190614d4d565b905060008660000151611ba5577f0000000000000000000000000000000000000000000000000000000000000000611bc7565b7f00000000000000000000000000000000000000000000000000000000000000005b905086610120015115611cc35760405163a352dcbf60e01b81526001600160a01b0382169063a352dcbf90611c079060009081908b908890600401614eca565b600060405180830381600087803b158015611c2157600080fd5b505af1158015611c35573d6000803e3d6000fd5b505060405163a352dcbf60e01b81526001600160a01b038416925063a352dcbf9150611c8c9060009081907f0000000000000000000000000000000000000000000000000000000000000000908990600401614eca565b600060405180830381600087803b158015611ca657600080fd5b505af1158015611cba573d6000803e3d6000fd5b50505050611db0565b60405163a352dcbf60e01b81526001600160a01b0382169063a352dcbf90611cf7906001906000908b908890600401614eca565b600060405180830381600087803b158015611d1157600080fd5b505af1158015611d25573d6000803e3d6000fd5b505060405163a352dcbf60e01b81526001600160a01b038416925063a352dcbf9150611d7d906001906000907f0000000000000000000000000000000000000000000000000000000000000000908990600401614eca565b600060405180830381600087803b158015611d9757600080fd5b505af1158015611dab573d6000803e3d6000fd5b505050505b611dee876101800151611de3670de0b6b3a76400008a60c001516001600160801b0316876139d79092919063ffffffff16565b896101200151611f3d565b507f00000000000000000000000000000000000000000000000000000000000000006001600160a01b03166322fbef02604051806101000160405280896001600160a01b031681526020018a6101200151151581526020018a60000151151581526020017f00000000000000000000000000000000000000000000000000000000000000006001600160a01b03168152602001611eb589670de0b6b3a7640000611e989190614d4d565b60c08d01516001600160801b031690670de0b6b3a76400006139d7565b815260006020820181905260408201526101808b0151606090910152611ee388670de0b6b3a7640000614d4d565b6040518363ffffffff1660e01b8152600401611f00929190615073565b600060405180830381600087803b158015611f1a57600080fd5b505af1158015611f2e573d6000803e3d6000fd5b50939998505050505050505050565b6000806000805b865181101561209257611f73878281518110611f6257611f62614e0d565b602002602001015160000151612de1565b9250611faf86670de0b6b3a7640000898481518110611f9457611f94614e0d565b6020026020010151604001516139d79092919063ffffffff16565b915084156120185761201383836120097f000000000000000000000000000000000000000000000000000000000000000060020b7f0000000000000000000000000000000000000000000000000000000000000000615095565b6003929190613ec3565b612074565b612074838361206a7f000000000000000000000000000000000000000000000000000000000000000060020b7f0000000000000000000000000000000000000000000000000000000000000000615095565b6002929190613ec3565b61207e8285614dfa565b93508061208a81614e23565b915050611f44565b5050509392505050565b60408051610100810182526001600160a01b0386811682526101208601511515602083015285511515828401527f0000000000000000000000000000000000000000000000000000000000000000811660608301526001600160801b0385166080830181905260a0830181905260c083015261018086015160e083015291516324b0ada960e11b81527f0000000000000000000000000000000000000000000000000000000000000000909216916349615b529161215c91600401615060565b600060405180830381600087803b15801561217657600080fd5b505af115801561218a573d6000803e3d6000fd5b50505050600083600001516121bf577f00000000000000000000000000000000000000000000000000000000000000006121e1565b7f00000000000000000000000000000000000000000000000000000000000000005b90508361012001511561231c5760405163a352dcbf60e01b81526001600160a01b0382169063a352dcbf9061222190600090899086908990600401614eca565b600060405180830381600087803b15801561223b57600080fd5b505af115801561224f573d6000803e3d6000fd5b505050506000821115612317576040516323b872dd60e01b81526001600160a01b037f000000000000000000000000000000000000000000000000000000000000000081166004830152336024830152604482018490527f000000000000000000000000000000000000000000000000000000000000000016906323b872dd906064016020604051808303816000875af11580156122f1573d6000803e3d6000fd5b505050506040513d601f19601f8201168201806040525081019061231591906150ac565b505b611233565b60405163a352dcbf60e01b81526001600160a01b0382169063a352dcbf9061234f90600190899086908990600401614eca565b600060405180830381600087803b15801561236957600080fd5b505af115801561237d573d6000803e3d6000fd5b505050506000821115611233576040516323b872dd60e01b81526001600160a01b037f000000000000000000000000000000000000000000000000000000000000000081166004830152336024830152604482018490527f000000000000000000000000000000000000000000000000000000000000000016906323b872dd906064016020604051808303816000875af115801561241f573d6000803e3d6000fd5b505050506040513d601f19601f8201168201806040525081019061244391906150ac565b505050505050565b600060606000806000806000805b8a518110156125b15766071afd498d000091506124928b828151811061248157612481614e0d565b60200260200101516000015161316e565b6124de7f00000000000000000000000000000000000000000000000000000000000000008d84815181106124c8576124c8614e0d565b60200260200101516000015161064c9190614dd5565b9095509350886125155761251085858d84815181106124ff576124ff614e0d565b602002602001015160200151613eed565b61253d565b61253d85858d848151811061252c5761252c614e0d565b602002602001015160200151613f57565b92506125528284670de0b6b3a76400006139d7565b8b828151811061256457612564614e0d565b602002602001015160400181815250508a818151811061258657612586614e0d565b6020026020010151604001518661259d9190614dfa565b9550806125a981614e23565b915050612459565b509399975050505050505050565b6000606060008351116126015760405162461bcd60e51b815260206004820152600a602482015269656d70747920696e666f60b01b60448201526064016106bf565b600080600085516001600160401b0381111561261f5761261f614724565b604051908082528060200260200182016040528015612648578160200160208202803683370190505b50905060005b86518110156127e55761266f610d09888381518110611f6257611f62614e0d565b9350836001600160801b031660000361269057506000969095509350505050565b7f00000000000000000000000000000000000000000000000000000000000000006001600160a01b03166383776abc8883815181106126d1576126d1614e0d565b6020026020010151600001516040518263ffffffff1660e01b8152600401612702919060029190910b815260200190565b602060405180830381865afa15801561271f573d6000803e3d6000fd5b505050506040513d601f19601f820116820180604052508101906127439190614e47565b92506127656001600160801b0380851690670de0b6b3a76400009087166139d7565b82828151811061277757612777614e0d565b60200260200101818152505086818151811061279557612795614e0d565b602002602001015160200151836127ac91906150c9565b6001600160801b0316846001600160801b031610156127d357506000969095509350505050565b806127dd81614e23565b91505061264e565b506001969095509350505050565b606060008251116128335760405162461bcd60e51b815260206004820152600a602482015269656d70747920696e666f60b01b60448201526064016106bf565b600080600084516001600160401b0381111561285157612851614724565b60405190808252806020026020018201604052801561287a578160200160208202803683370190505b50905060005b85518110156129bc576128a1610d09878381518110611f6257611f62614e0d565b93506001600160801b038416156129aa577f00000000000000000000000000000000000000000000000000000000000000006001600160a01b03166383776abc8783815181106128f3576128f3614e0d565b6020026020010151600001516040518263ffffffff1660e01b8152600401612924919060029190910b815260200190565b602060405180830381865afa158015612941573d6000803e3d6000fd5b505050506040513d601f19601f820116820180604052508101906129659190614e47565b92506129876001600160801b0380851690670de0b6b3a76400009087166139d7565b86828151811061299957612999614e0d565b602002602001015160400181815250505b806129b481614e23565b915050612880565b5093949350505050565b6000806129d4846001610e54565b90506000612a027f000000000000000000000000000000000000000000000000000000000000000083614dd5565b90508315612a2f578160020b8660020b12158015612a2557508060020b8660020b125b1592505050610cf3565b8160020b8660020b138015612a2557508060020b8660020b13151592505050610cf3565b6000612a837f0000000000000000000000000000000000000000000000000000000000000000600286900b614ef1565b90506000612ab57f0000000000000000000000000000000000000000000000000000000000000000600286900b614ef1565b9050612b138284612b097f000000000000000000000000000000000000000000000000000000000000000060020b7f0000000000000000000000000000000000000000000000000000000000000000615095565b6000929190613e40565b612b6d81612b2085614f19565b612b097f000000000000000000000000000000000000000000000000000000000000000060020b7f0000000000000000000000000000000000000000000000000000000000000000615095565b600285900b60009081526001602052604081208054859290612b93908490600f0b614f3f565b82546001600160801b039182166101009390930a928302919092021990911617905550600284900b60009081526001602052604081208054859290611371908490600f0b614f6c565b600080600084612c0c577f0000000000000000000000000000000000000000000000000000000000000000612c2e565b7f00000000000000000000000000000000000000000000000000000000000000005b60405163750ff6b560e01b81526001600160a01b038083166004830152888116602483015286151560448301529192506000917f0000000000000000000000000000000000000000000000000000000000000000169063750ff6b590606401600060405180830381865afa158015612caa573d6000803e3d6000fd5b505050506040513d6000823e601f3d908101601f19168201604052612cd29190810190615198565b9050612cdd81610dcb565b6001600160801b0316610100820152612cf68188610eed565b612d048161018001516127f3565b506000807f00000000000000000000000000000000000000000000000000000000000000006001600160a01b0316633850c7bd6040518163ffffffff1660e01b815260040160e060405180830381865afa158015612d66573d6000803e3d6000fd5b505050506040513d601f19601f82011682018060405250810190612d8a91906152cf565b5050505050915091506000612daa8461018001518386610120015161244b565b6101808601529050612dbf8a8583600061209c565b61010090930151929550506001600160801b0390911692505050935093915050565b6000610dc57f0000000000000000000000000000000000000000000000000000000000000000600284900b614ef1565b6000818310612e4b5760405162461bcd60e51b81526004016106bf90602080825260049082015263349f1eb560e11b604082015260600190565b612e558484613e94565b612e5f8584613e94565b610daf9190614d4d565b60006401000276a36001600160a01b03831610801590612ea5575073fffd8963efd1fc6a506488495d951d5263988d266001600160a01b038316105b612ec2576040516324c070df60e11b815260040160405180910390fd5b640100000000600160c01b03602083901b166001600160801b03811160071b81811c6001600160401b03811160061b90811c63ffffffff811160051b90811c61ffff811160041b90811c60ff8111600390811b91821c600f811160021b90811c918211600190811b92831c97908811961790941790921717909117171760808110612f5557607f810383901c9150612f5f565b80607f0383901b91505b908002607f81811c60ff83811c9190911c800280831c81831c1c800280841c81841c1c800280851c81851c1c800280861c81861c1c800280871c81871c1c800280881c81881c1c800280891c81891c1c8002808a1c818a1c1c8002808b1c818b1c1c8002808c1c818c1c1c8002808d1c818d1c1c8002808e1c9c81901c9c909c1c80029c8d901c9e9d607f198f0160401b60c09190911c678000000000000000161760c19b909b1c674000000000000000169a909a1760c29990991c672000000000000000169890981760c39790971c671000000000000000169690961760c49590951c670800000000000000169490941760c59390931c670400000000000000169290921760c69190911c670200000000000000161760c79190911c670100000000000000161760c89190911c6680000000000000161760c99190911c6640000000000000161760ca9190911c6620000000000000161760cb9190911c6610000000000000161760cc9190911c6608000000000000161760cd9190911c66040000000000001617693627a301d71055774c8581026f028f6481ab7f045a5af012a19d003aa9198101608090811d906fdb2df09e81959a81455e260799a0632f8301901d600281810b9083900b1461315f57886001600160a01b03166131448261316e565b6001600160a01b031611156131595781613161565b80613161565b815b9998505050505050505050565b60008060008360020b12613185578260020b61318d565b8260020b6000035b9050620d89e88111156131b3576040516315e4079d60e11b815260040160405180910390fd5b6000816001166000036131ca57600160801b6131dc565b6ffffcb933bd6fad37aa2d162d1a5940015b70ffffffffffffffffffffffffffffffffff1690506002821615613210576ffff97272373d413259a46990580e213a0260801c5b600482161561322f576ffff2e50f5f656932ef12357cf3c7fdcc0260801c5b600882161561324e576fffe5caca7e10e4e61c3624eaa0941cd00260801c5b601082161561326d576fffcb9843d60f6159c9db58835c9266440260801c5b602082161561328c576fff973b41fa98c081472e6896dfb254c00260801c5b60408216156132ab576fff2ea16466c96a3843ec78b326b528610260801c5b60808216156132ca576ffe5dee046a99a2a811c461f1969c30530260801c5b6101008216156132ea576ffcbe86c7900a88aedcffc83b479aa3a40260801c5b61020082161561330a576ff987a7253ac413176f2b074cf7815e540260801c5b61040082161561332a576ff3392b0822b70005940c7a398e4b70f30260801c5b61080082161561334a576fe7159475a2c29b7443b29c7fa6e889d90260801c5b61100082161561336a576fd097f3bdfd2022b8845ad8f792aa58250260801c5b61200082161561338a576fa9f746462d870fdf8a65dc1f90e061e50260801c5b6140008216156133aa576f70d869a156d2a1b890bb3df62baf32f70260801c5b6180008216156133ca576f31be135f97d08fd981231505542fcfa60260801c5b620100008216156133eb576f09aa508b5b7a84e1c677de54f3e99bc90260801c5b6202000082161561340b576e5d6af8dedb81196699c329225ee6040260801c5b6204000082161561342a576d2216e584f5fa1ea926041bedfe980260801c5b62080000821615613447576b048a170391f7dc42444e8fa20260801c5b60008460020b131561346857806000198161346457613464614d85565b0490505b64010000000081061561347c57600161347f565b60005b60ff16602082901c0192505050919050565b6134d6816040516024016134a791815260200190565b60408051601f198184030181529190526020810180516001600160e01b0316634e0c1d1d60e01b179052613fa1565b50565b6134e68360e0015161316e565b6001600160a01b031660c084015261354182613534577f000000000000000000000000000000000000000000000000000000000000000060020b846040015161352f9190614d4d565b610d09565b8360400151600090613e0e565b6001600160801b03166060840181905260808401526001600160a01b037f0000000000000000000000000000000000000000000000000000000000000000166383776abc836135bf577f00000000000000000000000000000000000000000000000000000000000000008560e001516135ba9190614d60565b6135c5565b8460e001515b6040516001600160e01b031960e084901b16815260029190910b6004820152602401602060405180830381865afa158015613604573d6000803e3d6000fd5b505050506040513d601f19601f820116820180604052508101906136289190614e47565b6001600160801b031660a084015260408051808201909152601781527f2d2d2d2d73746172742d2d2d2c20637572207469636b3a000000000000000000602082015261367390613fc2565b613683836020015160020b613491565b6136dd6040518060400160405280602081526020017f6c69717569646974792f626f72726f7765644c69717569646974792f7469636b81525084608001516001600160801b03168560a001516001600160801b0316614005565b6136ed8360e0015160020b613491565b8260a00151836080018181516137039190614e64565b6001600160801b03908116909152821615801591506137375750806001600160801b031683608001516001600160801b0316105b156137705760405162461bcd60e51b815260206004820152600960248201526821776974686472617760b81b60448201526064016106bf565b60808301516001600160801b0316156137e0576137ca670de0b6b3a76400008460a001516001600160801b031685608001516001600160801b03166137b59190614dfa565b60a08601516001600160801b031691906139d7565b83610160018181516137dc9190614dfa565b9052505b505050565b60008080806001600160a01b03808916908a16101581871280159061386a57600061381e8989620f42400362ffffff16620f42406139d7565b905082613837576138328c8c8c600161404c565b613844565b6138448b8d8c60016140bc565b9550858110613855578a9650613864565b6138618c8b8386614173565b96505b506138b4565b816138815761387c8b8b8b60006140bc565b61388e565b61388e8a8c8b600061404c565b93508388600003106138a2578995506138b4565b6138b18b8a8a600003856141bf565b95505b6001600160a01b038a8116908716148215613917578080156138d35750815b6138e9576138e4878d8c60016140bc565b6138eb565b855b95508080156138f8575081155b61390e57613909878d8c600061404c565b613910565b845b9450613961565b8080156139215750815b613937576139328c888c600161404c565b613939565b855b9550808015613946575081155b61395c576139578c888c60006140bc565b61395e565b845b94505b8115801561397157508860000385115b1561397d578860000394505b81801561399c57508a6001600160a01b0316876001600160a01b031614155b156139ab5785890393506139c8565b6139c5868962ffffff168a620f42400362ffffff1661420b565b93505b50505095509550955095915050565b6000808060001985870985870292508281108382030391505080600003613a105760008411613a0557600080fd5b508290049050610cf3565b808411613a1c57600080fd5b6000848688096000868103871696879004966002600389028118808a02820302808a02820302808a02820302808a02820302808a02820302808a02909103029181900381900460010186841190950394909402919094039290920491909117919091029150509392505050565b6000826001600160a01b0316846001600160a01b03161115613aa9579192915b6000613acc856001600160a01b0316856001600160a01b0316600160601b6139d7565b9050613af3613aee8483613ae08989615367565b6001600160a01b03166139d7565b61424b565b95945050505050565b6000826001600160a01b0316846001600160a01b03161115613b1c579192915b610daf613aee83600160601b613ae08888615367565b6000816001600160801b0316836001600160801b03161115613b545781610cf3565b5090919050565b613ba08282604051602401613b719291906153cd565b60408051601f198184030181529190526020810180516001600160e01b03166309710a9d60e41b179052613fa1565b5050565b600283900b600090815260016020526040902054600f0b61010085015281613bdf57836101000151613bd590614f19565b600f0b6101008501525b613bf28460600151856101000151614266565b6001600160801b031660608501526001600160a01b037f0000000000000000000000000000000000000000000000000000000000000000166383776abc83613c6357613c5e7f000000000000000000000000000000000000000000000000000000000000000086614d60565b613c65565b845b6040516001600160e01b031960e084901b16815260029190910b6004820152602401602060405180830381865afa158015613ca4573d6000803e3d6000fd5b505050506040513d601f19601f82011682018060405250810190613cc89190614e47565b6001600160801b031660a085018190526060850151613ce79190614e64565b6001600160801b039081166080860152811615801590613d1c5750806001600160801b031684608001516001600160801b0316105b15613d555760405162461bcd60e51b815260206004820152600960248201526821776974686472617760b81b60448201526064016106bf565b613d7a604051806040016040528060048152602001632d2d2d2d60e01b815250613fc2565b613db76040518060400160405280600e81526020016d6c69717569646974792f7469636b60901b81525085608001516001600160801b0316613b5b565b613dc38360020b613491565b613e01604051806040016040528060068152602001651b1a5c5b995d60d21b815250856101000151600f0b8660a001516001600160801b0316614005565b505060020b60e090910152565b60005b8115610dc557600082815260208490526040902054600f0b01613e378260008190031690565b82039150613e11565b80831015613e8e57600083815260208590526040812080546fffffffffffffffffffffffffffffffff198116600f9190910b85016001600160801b0316179055839003831683019250613e40565b50505050565b60005b8115610dc55760008281526020849052604090205401613eba8260008190031690565b82039150613e97565b80831015613e8e576000838152602085905260408120805484019055839003831683019250613ec3565b6000826001600160a01b0316846001600160a01b03161115613f0d579192915b6001600160a01b038416613f4d600160601b600160e01b03606085901b16613f358787615367565b6001600160a01b0316866001600160a01b03166139d7565b610daf9190614fd3565b6000826001600160a01b0316846001600160a01b03161115613f77579192915b610daf6001600160801b038316613f8e8686615367565b6001600160a01b0316600160601b6139d7565b80516a636f6e736f6c652e6c6f67602083016000808483855afa5050505050565b6134d681604051602401613fd691906153e0565b60408051601f198184030181529190526020810180516001600160e01b031663104c13eb60e21b179052613fa1565b6137e083838360405160240161401d939291906153f3565b60408051601f198184030181529190526020810180516001600160e01b031663969cdd0360e01b179052613fa1565b6000836001600160a01b0316856001600160a01b0316111561406c579293925b8161409957614094836001600160801b03168686036001600160a01b0316600160601b6139d7565b613af3565b613af3836001600160801b03168686036001600160a01b0316600160601b61420b565b6000836001600160a01b0316856001600160a01b031611156140dc579293925b600160601b600160e01b03606084901b166001600160a01b03868603811690871661410657600080fd5b8361413c57866001600160a01b03166141298383896001600160a01b03166139d7565b8161413657614136614d85565b04614168565b6141686141538383896001600160a01b031661420b565b886001600160a01b0316808204910615150190565b979650505050505050565b600080856001600160a01b03161161418a57600080fd5b6000846001600160801b0316116141a057600080fd5b816141b2576140948585856001614326565b613af3858585600161440c565b600080856001600160a01b0316116141d657600080fd5b6000846001600160801b0316116141ec57600080fd5b816141fe57614094858585600061440c565b613af38585856000614326565b60006142188484846139d7565b90506000828061422a5761422a614d85565b8486091115610cf357600019811061424157600080fd5b6001019392505050565b806001600160801b038116811461426157600080fd5b919050565b60008082600f0b12156142d3576001600160801b03831661428683614f19565b6142909085614e64565b9150816001600160801b0316106142ce5760405162461bcd60e51b81526020600482015260026024820152614c5360f01b60448201526064016106bf565b610dc5565b6001600160801b0383166142e783856150c9565b9150816001600160801b03161015610dc55760405162461bcd60e51b81526020600482015260026024820152614c4160f01b60448201526064016106bf565b600081156143985760006001600160a01b0384111561435c5761435784600160601b876001600160801b03166139d7565b614373565b6143736001600160801b038616606086901b614fd3565b905061439061438b826001600160a01b038916614dfa565b6144fc565b915050610daf565b60006001600160a01b038411156143c6576143c184600160601b876001600160801b031661420b565b6143e3565b6143e3606085901b6001600160801b038716808204910615150190565b905080866001600160a01b0316116143fa57600080fd5b6001600160a01b038616039050610daf565b60008260000361441d575083610daf565b600160601b600160e01b03606085901b1682156144af576001600160a01b0386168481029085828161445157614451614d85565b04036144815781810182811061447f5761447583896001600160a01b03168361420b565b9350505050610daf565b505b50614390818561449a6001600160a01b038a1683614fd3565b6144a49190614dfa565b808204910615150190565b6001600160a01b038616848102908582816144cc576144cc614d85565b041480156144d957508082115b6144e257600080fd5b80820361447561438b846001600160a01b038b168461420b565b806001600160a01b038116811461426157600080fd5b604080516101e081018252600080825260208201819052918101829052606081018290526080810182905260a0810182905260c0810182905260e08101829052610100810182905261012081018290526101408101829052610160810182905261018081018290526101a081018290526101c081019190915290565b8060020b81146134d657600080fd5b600080604083850312156145b057600080fd5b82356145bb8161458e565b915060208301356145cb8161458e565b809150509250929050565b80151581146134d657600080fd5b8035614261816145d6565b6001600160a01b03811681146134d657600080fd5b6000806000806080858703121561461a57600080fd5b8435614625816145d6565b93506020850135614635816145ef565b92506040850135614645816145ef565b9396929550929360600135925050565b600081518084526020808501945080840160005b838110156146a9578151805160020b88526020808201516001600160801b0316908901526040908101519088015260608701965090820190600101614669565b509495945050505050565b8360020b81528260020b6020820152606060408201526000613af36060830184614655565b600080604083850312156146ec57600080fd5b82356146f78161458e565b915060208301356145cb816145d6565b60006020828403121561471957600080fd5b8135610cf38161458e565b634e487b7160e01b600052604160045260246000fd5b604051606081016001600160401b038111828210171561475c5761475c614724565b60405290565b6040516101a081016001600160401b038111828210171561475c5761475c614724565b604051601f8201601f191681016001600160401b03811182821017156147ad576147ad614724565b604052919050565b8035614261816145ef565b6001600160801b03811681146134d657600080fd5b8035614261816147c0565b63ffffffff811681146134d657600080fd5b8035614261816147e0565b60006001600160401b0382111561481657614816614724565b5060051b60200190565b600082601f83011261483157600080fd5b81356020614846614841836147fd565b614785565b8281526060928302850182019282820191908785111561486557600080fd5b8387015b858110156148be5781818a0312156148815760008081fd5b61488961473a565b81356148948161458e565b8152818601356148a3816147c0565b81870152604082810135908201528452928401928101614869565b5090979650505050505050565b60006101a082840312156148de57600080fd5b6148e6614762565b90506148f1826145e4565b81526148ff602083016147b5565b602082015260408201356040820152606082013560608201526080820135608082015260a082013560a082015261493860c083016147d5565b60c082015261494960e083016147d5565b60e082015261010061495c8184016147d5565b9082015261012061496e8382016145e4565b908201526101406149808382016147f2565b908201526101606149928382016147f2565b90820152610180828101356001600160401b038111156149b157600080fd5b6149bd85828601614820565b82840152505092915050565b6000602082840312156149db57600080fd5b81356001600160401b038111156149f157600080fd5b610daf848285016148cb565b60008060408385031215614a1057600080fd5b82356001600160401b03811115614a2657600080fd5b614a32858286016148cb565b92505060208301356145cb816145ef565b600080600060608486031215614a5857600080fd5b8335614a638161458e565b92506020840135614a738161458e565b91506040840135600f81900b8114614a8a57600080fd5b809150509250925092565b600080600060608486031215614aaa57600080fd5b8335614ab58161458e565b92506020840135614ac58161458e565b91506040840135614a8a816147c0565b600080600060608486031215614aea57600080fd5b83356001600160401b03811115614b0057600080fd5b614b0c868287016148cb565b9350506020840135614b1d816145ef565b929592945050506040919091013590565b600080600060608486031215614b4357600080fd5b83356001600160401b03811115614b5957600080fd5b614b6586828701614820565b935050602084013591506040840135614a8a816145d6565b60008060008060808587031215614b9357600080fd5b8435614b9e816145ef565b935060208501356001600160401b03811115614bb957600080fd5b614bc5878288016148cb565b949794965050505060408301359260600135919050565b600080600060608486031215614bf157600080fd5b83356001600160401b03811115614c0757600080fd5b614c1386828701614820565b9350506020840135614c248161458e565b91506040840135614a8a816145d6565b828152604060208201526000610daf6040830184614655565b600060208284031215614c5f57600080fd5b81356001600160401b03811115614c7557600080fd5b610daf84828501614820565b60006040820184151583526020604081850152818551808452606086019150828701935060005b818110156148be57845183529383019391830191600101614ca8565b602081526000610cf36020830184614655565b600080600060608486031215614cec57600080fd5b8335614cf78161458e565b92506020840135614c248161458e565b600080600060608486031215614d1c57600080fd5b8335614d27816145ef565b92506020840135614c24816145d6565b634e487b7160e01b600052601160045260246000fd5b81810381811115610dc557610dc5614d37565b600282810b9082900b03627fffff198112627fffff82131715610dc557610dc5614d37565b634e487b7160e01b600052601260045260246000fd5b60008160020b8360020b80614db257614db2614d85565b627fffff19821460001982141615614dcc57614dcc614d37565b90059392505050565b600281810b9083900b01627fffff8113627fffff1982121715610dc557610dc5614d37565b80820180821115610dc557610dc5614d37565b634e487b7160e01b600052603260045260246000fd5b600060018201614e3557614e35614d37565b5060010190565b8051614261816147c0565b600060208284031215614e5957600080fd5b8151610cf3816147c0565b6001600160801b03828116828216039080821115614e8457614e84614d37565b5092915050565b60008260020b8260020b028060020b9150808214614e8457614e84614d37565b602080825260059082015264042c2eae8d60db1b604082015260600190565b93151584526001600160a01b03928316602085015291166040830152606082015260800190565b8082018281126000831280158216821582161715614f1157614f11614d37565b505092915050565b600081600f0b60016001607f1b03198103614f3657614f36614d37565b60000392915050565b600f81810b9083900b0160016001607f1b03811360016001607f1b031982121715610dc557610dc5614d37565b600f82810b9082900b0360016001607f1b0319811260016001607f1b0382131715610dc557610dc5614d37565b8051614261816145d6565b60008060408385031215614fb757600080fd5b8251614fc28161458e565b60208401519092506145cb816145d6565b600082614fe257614fe2614d85565b500490565b600061010060018060a01b038351168452602083015115156020850152604083015115156040850152606083015161502a60608601826001600160a01b03169052565b506080830151608085015260a083015160a085015260c083015160c085015260e08301518160e0860152613af382860182614655565b602081526000610cf36020830184614fe7565b6040815260006150866040830185614fe7565b90508260208301529392505050565b8082028115828204841417610dc557610dc5614d37565b6000602082840312156150be57600080fd5b8151610cf3816145d6565b6001600160801b03818116838216019080821115614e8457614e84614d37565b8051614261816145ef565b8051614261816147e0565b600082601f83011261511057600080fd5b81516020615120614841836147fd565b8281526060928302850182019282820191908785111561513f57600080fd5b8387015b858110156148be5781818a03121561515b5760008081fd5b61516361473a565b815161516e8161458e565b81528186015161517d816147c0565b81870152604082810151908201528452928401928101615143565b6000602082840312156151aa57600080fd5b81516001600160401b03808211156151c157600080fd5b908301906101a082860312156151d657600080fd5b6151de614762565b6151e783614f99565b81526151f5602084016150e9565b602082015260408301516040820152606083015160608201526080830151608082015260a083015160a082015261522e60c08401614e3c565b60c082015261523f60e08401614e3c565b60e0820152610100615252818501614e3c565b90820152610120615264848201614f99565b908201526101406152768482016150f4565b908201526101606152888482016150f4565b9082015261018083810151838111156152a057600080fd5b6152ac888287016150ff565b918301919091525095945050505050565b805161ffff8116811461426157600080fd5b600080600080600080600060e0888a0312156152ea57600080fd5b87516152f5816145ef565b60208901519097506153068161458e565b9550615314604089016152bd565b9450615322606089016152bd565b9350615330608089016152bd565b925060a088015160ff8116811461534657600080fd5b60c0890151909250615357816145d6565b8091505092959891949750929550565b6001600160a01b03828116828216039080821115614e8457614e84614d37565b6000815180845260005b818110156153ad57602081850181015186830182015201615391565b506000602082860101526020601f19601f83011685010191505092915050565b6040815260006150866040830185615387565b602081526000610cf36020830184615387565b6060815260006154066060830186615387565b6020830194909452506040015291905056fea264697066735822122000e981312bf0eefd0fae644eedd54a9bee64a9613340458292cc8fa76506f34664736f6c63430008110033",
    "linkReferences": {}
  },
  "methodIdentifiers": {
    "borrowManager()": "829057e3",
    "checkBorrowRange(int24,int24,bool)": "f0ff1f33",
    "checkLiquidity(int24,int24,uint128)": "47ca56f0",
    "checkSolvency((int24,uint128,uint256)[])": "aa121458",
    "getLiqMinusBorrow(int24)": "15658261",
    "getNewPremiumQuotes((int24,uint128,uint256)[],int24,bool)": "a02032bf",
    "getPremiumGrowthInside(int24,int24)": "03a4e843",
    "getPremiumRefund((bool,address,uint256,uint256,uint256,uint256,uint128,uint128,uint128,bool,uint32,uint32,(int24,uint128,uint256)[]),address)": "424bf6f1",
    "getRefundAndpayToPool((bool,address,uint256,uint256,uint256,uint256,uint128,uint128,uint128,bool,uint32,uint32,(int24,uint128,uint256)[]),address,uint256)": "87e74faa",
    "getRemainingPremium((bool,address,uint256,uint256,uint256,uint256,uint128,uint128,uint128,bool,uint32,uint32,(int24,uint128,uint256)[]))": "2700961a",
    "getURates((int24,uint128,uint256)[])": "b6cc9c9e",
    "globalStorage()": "6502072a",
    "indexLiquidities(bool,uint160,uint160,uint256)": "053ef28b",
    "leverageManager()": "81fd6c02",
    "numticks()": "d9ba333a",
    "payPremium(address,bool,bool)": "f2801614",
    "payPremiumToPool((int24,uint128,uint256)[],uint256,bool)": "8e6be33f",
    "pool()": "16f0115b",
    "precision()": "d3b5dc3b",
    "queryLiquidity(int24)": "1b58485e",
    "queryPremium(int24)": "464869a7",
    "roundTick(int24,bool)": "3dc306ee",
    "roundTickToBorrow(int24,bool)": "0da28651",
    "tickSpacing()": "d0c93a7c",
    "token0()": "0dfe1681",
    "token1()": "d21220a7",
    "updateAndRefundPremium((bool,address,uint256,uint256,uint256,uint256,uint128,uint128,uint128,bool,uint32,uint32,(int24,uint128,uint256)[]),address,uint256)": "6ec8a672",
    "updateBorrowTreeLiq(int24,int24,int128)": "45b25e04",
    "updateLiquidityTreeLiq(int24,int24,int128)": "f26c498a",
    "updatePremiumState(address,(bool,address,uint256,uint256,uint256,uint256,uint128,uint128,uint128,bool,uint32,uint32,(int24,uint128,uint256)[]),uint256,uint256)": "99712de2"
  },
  "id": 40
}