{
  "abi": [
    {
      "inputs": [],
      "stateMutability": "nonpayable",
      "type": "constructor"
    },
    {
      "inputs": [],
      "name": "R",
      "type": "error"
    },
    {
      "inputs": [],
      "name": "T",
      "type": "error"
    },
    {
      "inputs": [],
      "name": "borrowManager",
      "outputs": [
        {
          "internalType": "address",
          "name": "",
          "type": "address"
        }
      ],
      "stateMutability": "view",
      "type": "function"
    },
    {
      "inputs": [
        {
          "internalType": "int24",
          "name": "borrowStartTick",
          "type": "int24"
        },
        {
          "internalType": "int24",
          "name": "finishTick",
          "type": "int24"
        },
        {
          "internalType": "bool",
          "name": "borrowBelow",
          "type": "bool"
        }
      ],
      "name": "checkBorrowRange",
      "outputs": [
        {
          "internalType": "bool",
          "name": "",
          "type": "bool"
        }
      ],
      "stateMutability": "view",
      "type": "function"
    },
    {
      "inputs": [
        {
          "internalType": "int24",
          "name": "startTick",
          "type": "int24"
        },
        {
          "internalType": "int24",
          "name": "endTick",
          "type": "int24"
        },
        {
          "internalType": "uint128",
          "name": "withdrawingLiquidity",
          "type": "uint128"
        }
      ],
      "name": "checkLiquidity",
      "outputs": [
        {
          "internalType": "uint256",
          "name": "",
          "type": "uint256"
        }
      ],
      "stateMutability": "view",
      "type": "function"
    },
    {
      "inputs": [
        {
          "components": [
            {
              "internalType": "int24",
              "name": "tick",
              "type": "int24"
            },
            {
              "internalType": "uint128",
              "name": "liquidity",
              "type": "uint128"
            },
            {
              "internalType": "uint256",
              "name": "premiumOrUrate",
              "type": "uint256"
            }
          ],
          "internalType": "struct LiquidityManager.Liquidity[]",
          "name": "borrowInfo",
          "type": "tuple[]"
        }
      ],
      "name": "checkSolvency",
      "outputs": [
        {
          "internalType": "bool",
          "name": "",
          "type": "bool"
        },
        {
          "internalType": "uint256[]",
          "name": "",
          "type": "uint256[]"
        }
      ],
      "stateMutability": "view",
      "type": "function"
    },
    {
      "inputs": [
        {
          "internalType": "int24",
          "name": "tick",
          "type": "int24"
        }
      ],
      "name": "getLiqMinusBorrow",
      "outputs": [
        {
          "internalType": "uint128",
          "name": "",
          "type": "uint128"
        }
      ],
      "stateMutability": "view",
      "type": "function"
    },
    {
      "inputs": [
        {
          "components": [
            {
              "internalType": "int24",
              "name": "tick",
              "type": "int24"
            },
            {
              "internalType": "uint128",
              "name": "liquidity",
              "type": "uint128"
            },
            {
              "internalType": "uint256",
              "name": "premiumOrUrate",
              "type": "uint256"
            }
          ],
          "internalType": "struct LiquidityManager.Liquidity[]",
          "name": "liquidities",
          "type": "tuple[]"
        },
        {
          "internalType": "int24",
          "name": "curTick",
          "type": "int24"
        },
        {
          "internalType": "bool",
          "name": "borrowBelow",
          "type": "bool"
        }
      ],
      "name": "getNewPremiumQuotes",
      "outputs": [
        {
          "internalType": "uint256",
          "name": "",
          "type": "uint256"
        },
        {
          "components": [
            {
              "internalType": "int24",
              "name": "tick",
              "type": "int24"
            },
            {
              "internalType": "uint128",
              "name": "liquidity",
              "type": "uint128"
            },
            {
              "internalType": "uint256",
              "name": "premiumOrUrate",
              "type": "uint256"
            }
          ],
          "internalType": "struct LiquidityManager.Liquidity[]",
          "name": "",
          "type": "tuple[]"
        }
      ],
      "stateMutability": "view",
      "type": "function"
    },
    {
      "inputs": [
        {
          "internalType": "int24",
          "name": "lowerTick",
          "type": "int24"
        },
        {
          "internalType": "int24",
          "name": "upperTick",
          "type": "int24"
        }
      ],
      "name": "getPremiumGrowthInside",
      "outputs": [
        {
          "internalType": "uint256",
          "name": "",
          "type": "uint256"
        },
        {
          "internalType": "uint256",
          "name": "",
          "type": "uint256"
        }
      ],
      "stateMutability": "view",
      "type": "function"
    },
    {
      "inputs": [
        {
          "components": [
            {
              "internalType": "bool",
              "name": "isBorrow",
              "type": "bool"
            },
            {
              "internalType": "address",
              "name": "pool",
              "type": "address"
            },
            {
              "internalType": "uint256",
              "name": "totalPosition",
              "type": "uint256"
            },
            {
              "internalType": "uint256",
              "name": "totalDebt",
              "type": "uint256"
            },
            {
              "internalType": "uint256",
              "name": "totalDebtInput",
              "type": "uint256"
            },
            {
              "internalType": "uint256",
              "name": "initCollateral",
              "type": "uint256"
            },
            {
              "internalType": "uint128",
              "name": "recentPremium",
              "type": "uint128"
            },
            {
              "internalType": "uint128",
              "name": "totalPremium",
              "type": "uint128"
            },
            {
              "internalType": "uint128",
              "name": "unusedPremium",
              "type": "uint128"
            },
            {
              "internalType": "bool",
              "name": "isToken0",
              "type": "bool"
            },
            {
              "internalType": "uint32",
              "name": "openTime",
              "type": "uint32"
            },
            {
              "internalType": "uint32",
              "name": "repayTime",
              "type": "uint32"
            },
            {
              "components": [
                {
                  "internalType": "int24",
                  "name": "tick",
                  "type": "int24"
                },
                {
                  "internalType": "uint128",
                  "name": "liquidity",
                  "type": "uint128"
                },
                {
                  "internalType": "uint256",
                  "name": "premiumOrUrate",
                  "type": "uint256"
                }
              ],
              "internalType": "struct LiquidityManager.Liquidity[]",
              "name": "borrowInfo",
              "type": "tuple[]"
            }
          ],
          "internalType": "struct GlobalStorage.Position",
          "name": "position",
          "type": "tuple"
        },
        {
          "internalType": "address",
          "name": "borrower",
          "type": "address"
        }
      ],
      "name": "getPremiumRefund",
      "outputs": [],
      "stateMutability": "nonpayable",
      "type": "function"
    },
    {
      "inputs": [
        {
          "components": [
            {
              "internalType": "bool",
              "name": "isBorrow",
              "type": "bool"
            },
            {
              "internalType": "address",
              "name": "pool",
              "type": "address"
            },
            {
              "internalType": "uint256",
              "name": "totalPosition",
              "type": "uint256"
            },
            {
              "internalType": "uint256",
              "name": "totalDebt",
              "type": "uint256"
            },
            {
              "internalType": "uint256",
              "name": "totalDebtInput",
              "type": "uint256"
            },
            {
              "internalType": "uint256",
              "name": "initCollateral",
              "type": "uint256"
            },
            {
              "internalType": "uint128",
              "name": "recentPremium",
              "type": "uint128"
            },
            {
              "internalType": "uint128",
              "name": "totalPremium",
              "type": "uint128"
            },
            {
              "internalType": "uint128",
              "name": "unusedPremium",
              "type": "uint128"
            },
            {
              "internalType": "bool",
              "name": "isToken0",
              "type": "bool"
            },
            {
              "internalType": "uint32",
              "name": "openTime",
              "type": "uint32"
            },
            {
              "internalType": "uint32",
              "name": "repayTime",
              "type": "uint32"
            },
            {
              "components": [
                {
                  "internalType": "int24",
                  "name": "tick",
                  "type": "int24"
                },
                {
                  "internalType": "uint128",
                  "name": "liquidity",
                  "type": "uint128"
                },
                {
                  "internalType": "uint256",
                  "name": "premiumOrUrate",
                  "type": "uint256"
                }
              ],
              "internalType": "struct LiquidityManager.Liquidity[]",
              "name": "borrowInfo",
              "type": "tuple[]"
            }
          ],
          "internalType": "struct GlobalStorage.Position",
          "name": "position",
          "type": "tuple"
        }
      ],
      "name": "getRemainingPremium",
      "outputs": [
        {
          "internalType": "uint128",
          "name": "",
          "type": "uint128"
        }
      ],
      "stateMutability": "view",
      "type": "function"
    },
    {
      "inputs": [
        {
          "components": [
            {
              "internalType": "int24",
              "name": "tick",
              "type": "int24"
            },
            {
              "internalType": "uint128",
              "name": "liquidity",
              "type": "uint128"
            },
            {
              "internalType": "uint256",
              "name": "premiumOrUrate",
              "type": "uint256"
            }
          ],
          "internalType": "struct LiquidityManager.Liquidity[]",
          "name": "borrowInfo",
          "type": "tuple[]"
        }
      ],
      "name": "getURates",
      "outputs": [
        {
          "components": [
            {
              "internalType": "int24",
              "name": "tick",
              "type": "int24"
            },
            {
              "internalType": "uint128",
              "name": "liquidity",
              "type": "uint128"
            },
            {
              "internalType": "uint256",
              "name": "premiumOrUrate",
              "type": "uint256"
            }
          ],
          "internalType": "struct LiquidityManager.Liquidity[]",
          "name": "",
          "type": "tuple[]"
        }
      ],
      "stateMutability": "view",
      "type": "function"
    },
    {
      "inputs": [],
      "name": "globalStorage",
      "outputs": [
        {
          "internalType": "contract GlobalStorage",
          "name": "",
          "type": "address"
        }
      ],
      "stateMutability": "view",
      "type": "function"
    },
    {
      "inputs": [
        {
          "internalType": "bool",
          "name": "borrowBelow",
          "type": "bool"
        },
        {
          "internalType": "uint160",
          "name": "strikePriceX160",
          "type": "uint160"
        },
        {
          "internalType": "uint160",
          "name": "finishPriceX160",
          "type": "uint160"
        },
        {
          "internalType": "uint256",
          "name": "borrowAmount",
          "type": "uint256"
        }
      ],
      "name": "indexLiquidities",
      "outputs": [
        {
          "internalType": "int24",
          "name": "",
          "type": "int24"
        },
        {
          "internalType": "int24",
          "name": "",
          "type": "int24"
        },
        {
          "components": [
            {
              "internalType": "int24",
              "name": "tick",
              "type": "int24"
            },
            {
              "internalType": "uint128",
              "name": "liquidity",
              "type": "uint128"
            },
            {
              "internalType": "uint256",
              "name": "premiumOrUrate",
              "type": "uint256"
            }
          ],
          "internalType": "struct LiquidityManager.Liquidity[]",
          "name": "",
          "type": "tuple[]"
        }
      ],
      "stateMutability": "view",
      "type": "function"
    },
    {
      "inputs": [],
      "name": "leverageManager",
      "outputs": [
        {
          "internalType": "address",
          "name": "",
          "type": "address"
        }
      ],
      "stateMutability": "view",
      "type": "function"
    },
    {
      "inputs": [],
      "name": "numticks",
      "outputs": [
        {
          "internalType": "uint256",
          "name": "",
          "type": "uint256"
        }
      ],
      "stateMutability": "view",
      "type": "function"
    },
    {
      "inputs": [
        {
          "internalType": "address",
          "name": "trader",
          "type": "address"
        },
        {
          "internalType": "bool",
          "name": "isBorrow",
          "type": "bool"
        },
        {
          "internalType": "bool",
          "name": "isToken0",
          "type": "bool"
        }
      ],
      "name": "payPremium",
      "outputs": [
        {
          "internalType": "uint256",
          "name": "",
          "type": "uint256"
        },
        {
          "internalType": "uint256",
          "name": "",
          "type": "uint256"
        }
      ],
      "stateMutability": "nonpayable",
      "type": "function"
    },
    {
      "inputs": [
        {
          "components": [
            {
              "internalType": "int24",
              "name": "tick",
              "type": "int24"
            },
            {
              "internalType": "uint128",
              "name": "liquidity",
              "type": "uint128"
            },
            {
              "internalType": "uint256",
              "name": "premiumOrUrate",
              "type": "uint256"
            }
          ],
          "internalType": "struct LiquidityManager.Liquidity[]",
          "name": "liquidities",
          "type": "tuple[]"
        },
        {
          "internalType": "uint256",
          "name": "percentagePaid",
          "type": "uint256"
        },
        {
          "internalType": "bool",
          "name": "borrowBelow",
          "type": "bool"
        }
      ],
      "name": "payPremiumToPool",
      "outputs": [
        {
          "internalType": "uint256",
          "name": "premium",
          "type": "uint256"
        }
      ],
      "stateMutability": "nonpayable",
      "type": "function"
    },
    {
      "inputs": [],
      "name": "pool",
      "outputs": [
        {
          "internalType": "contract UniswapV3Pool",
          "name": "",
          "type": "address"
        }
      ],
      "stateMutability": "view",
      "type": "function"
    },
    {
      "inputs": [],
      "name": "precision",
      "outputs": [
        {
          "internalType": "uint256",
          "name": "",
          "type": "uint256"
        }
      ],
      "stateMutability": "view",
      "type": "function"
    },
    {
      "inputs": [
        {
          "internalType": "int24",
          "name": "tick",
          "type": "int24"
        }
      ],
      "name": "queryLiquidity",
      "outputs": [
        {
          "internalType": "uint128",
          "name": "",
          "type": "uint128"
        }
      ],
      "stateMutability": "view",
      "type": "function"
    },
    {
      "inputs": [
        {
          "internalType": "int24",
          "name": "tick",
          "type": "int24"
        }
      ],
      "name": "queryPremium",
      "outputs": [
        {
          "internalType": "uint256",
          "name": "",
          "type": "uint256"
        },
        {
          "internalType": "uint256",
          "name": "",
          "type": "uint256"
        }
      ],
      "stateMutability": "view",
      "type": "function"
    },
    {
      "inputs": [
        {
          "internalType": "int24",
          "name": "tick",
          "type": "int24"
        },
        {
          "internalType": "bool",
          "name": "down",
          "type": "bool"
        }
      ],
      "name": "roundTick",
      "outputs": [
        {
          "internalType": "int24",
          "name": "",
          "type": "int24"
        }
      ],
      "stateMutability": "view",
      "type": "function"
    },
    {
      "inputs": [
        {
          "internalType": "int24",
          "name": "strikeTick",
          "type": "int24"
        },
        {
          "internalType": "bool",
          "name": "borrowBelow",
          "type": "bool"
        }
      ],
      "name": "roundTickToBorrow",
      "outputs": [
        {
          "internalType": "int24",
          "name": "rounded",
          "type": "int24"
        }
      ],
      "stateMutability": "view",
      "type": "function"
    },
    {
      "inputs": [],
      "name": "tickSpacing",
      "outputs": [
        {
          "internalType": "int24",
          "name": "",
          "type": "int24"
        }
      ],
      "stateMutability": "view",
      "type": "function"
    },
    {
      "inputs": [],
      "name": "token0",
      "outputs": [
        {
          "internalType": "contract ERC20",
          "name": "",
          "type": "address"
        }
      ],
      "stateMutability": "view",
      "type": "function"
    },
    {
      "inputs": [],
      "name": "token1",
      "outputs": [
        {
          "internalType": "contract ERC20",
          "name": "",
          "type": "address"
        }
      ],
      "stateMutability": "view",
      "type": "function"
    },
    {
      "inputs": [
        {
          "internalType": "int24",
          "name": "tickLower",
          "type": "int24"
        },
        {
          "internalType": "int24",
          "name": "tickUpper",
          "type": "int24"
        },
        {
          "internalType": "int128",
          "name": "liq",
          "type": "int128"
        }
      ],
      "name": "updateBorrowTreeLiq",
      "outputs": [],
      "stateMutability": "nonpayable",
      "type": "function"
    },
    {
      "inputs": [
        {
          "internalType": "int24",
          "name": "tickLower",
          "type": "int24"
        },
        {
          "internalType": "int24",
          "name": "tickUpper",
          "type": "int24"
        },
        {
          "internalType": "int128",
          "name": "liq",
          "type": "int128"
        }
      ],
      "name": "updateLiquidityTreeLiq",
      "outputs": [],
      "stateMutability": "nonpayable",
      "type": "function"
    },
    {
      "inputs": [
        {
          "internalType": "address",
          "name": "trader",
          "type": "address"
        },
        {
          "components": [
            {
              "internalType": "bool",
              "name": "isBorrow",
              "type": "bool"
            },
            {
              "internalType": "address",
              "name": "pool",
              "type": "address"
            },
            {
              "internalType": "uint256",
              "name": "totalPosition",
              "type": "uint256"
            },
            {
              "internalType": "uint256",
              "name": "totalDebt",
              "type": "uint256"
            },
            {
              "internalType": "uint256",
              "name": "totalDebtInput",
              "type": "uint256"
            },
            {
              "internalType": "uint256",
              "name": "initCollateral",
              "type": "uint256"
            },
            {
              "internalType": "uint128",
              "name": "recentPremium",
              "type": "uint128"
            },
            {
              "internalType": "uint128",
              "name": "totalPremium",
              "type": "uint128"
            },
            {
              "internalType": "uint128",
              "name": "unusedPremium",
              "type": "uint128"
            },
            {
              "internalType": "bool",
              "name": "isToken0",
              "type": "bool"
            },
            {
              "internalType": "uint32",
              "name": "openTime",
              "type": "uint32"
            },
            {
              "internalType": "uint32",
              "name": "repayTime",
              "type": "uint32"
            },
            {
              "components": [
                {
                  "internalType": "int24",
                  "name": "tick",
                  "type": "int24"
                },
                {
                  "internalType": "uint128",
                  "name": "liquidity",
                  "type": "uint128"
                },
                {
                  "internalType": "uint256",
                  "name": "premiumOrUrate",
                  "type": "uint256"
                }
              ],
              "internalType": "struct LiquidityManager.Liquidity[]",
              "name": "borrowInfo",
              "type": "tuple[]"
            }
          ],
          "internalType": "struct GlobalStorage.Position",
          "name": "position",
          "type": "tuple"
        },
        {
          "internalType": "uint256",
          "name": "premium",
          "type": "uint256"
        },
        {
          "internalType": "uint256",
          "name": "prevRemainingPremium",
          "type": "uint256"
        }
      ],
      "name": "updatePremiumState",
      "outputs": [],
      "stateMutability": "nonpayable",
      "type": "function"
    }
  ],
  "bytecode": {
    "object": "0x6101806040523480156200001257600080fd5b50600080600080336001600160a01b031663890357306040518163ffffffff1660e01b8152600401608060405180830381865afa15801562000058573d6000803e3d6000fd5b505050506040513d601f19601f820116820180604052508101906200007e91906200023a565b9350935093509350836001600160a01b0316610100816001600160a01b031681525050610100516001600160a01b0316630dfe16816040518163ffffffff1660e01b8152600401602060405180830381865afa158015620000e3573d6000803e3d6000fd5b505050506040513d601f19601f8201168201806040525081019062000109919062000297565b610100516001600160a01b031663d21220a76040518163ffffffff1660e01b8152600401602060405180830381865afa1580156200014b573d6000803e3d6000fd5b505050506040513d601f19601f8201168201806040525081019062000171919062000297565b6001600160a01b03908116610140529081166101205261010051604080516334324e9f60e21b81529051919092169163d0c93a7c9160048083019260209291908290030181865afa158015620001cb573d6000803e3d6000fd5b505050506040513d601f19601f82011682018060405250810190620001f19190620002bc565b60020b6080526001600160a01b0391821660c052811660e0521661016052506202b52e60a052620002e1565b80516001600160a01b03811681146200023557600080fd5b919050565b600080600080608085870312156200025157600080fd5b6200025c856200021d565b93506200026c602086016200021d565b92506200027c604086016200021d565b91506200028c606086016200021d565b905092959194509250565b600060208284031215620002aa57600080fd5b620002b5826200021d565b9392505050565b600060208284031215620002cf57600080fd5b81518060020b8114620002b557600080fd5b60805160a05160c05160e05161010051610120516101405161016051614b23620004f260003960008181610369015281816117e9015261233b01526000818161048d015261196a0152600081816102430152611a980152600081816102ad01528181610d200152818161109901528181611198015281816115160152818161178d01528181611d5401528181611f76015281816123e201528181612bfb01526132b50152600081816103b701528181610f1201528181610fd00152818161188301526122e601526000818161039001528181610ee001528181610faa0152818161185d0152818161193501528181611a6301526122c00152600081816104c3015281816106870152818161124301528181611280015281816112bd015281816112f40152818161140e015281816116a7015281816117080152818161211e0152818161215b015281816121bd0152818161222101526124c20152600081816104660152818161053601528181610582015281816106d701528181610721015281816108410152818161087601528181610a0001528181610c7001528181610caf01528181610e4401528181610e7201528181610eb00152818161145a015281816114e6015281816115b001528181611683015281816116e401528181611b590152818161209f01528181612199015281816121fd01528181612b9901528181612c2701526132e40152614b236000f3fe608060405234801561001057600080fd5b50600436106101c45760003560e01c806381fd6c02116100f9578063d0c93a7c11610097578063d9ba333a11610071578063d9ba333a146104be578063f0ff1f33146104e5578063f26c498a14610508578063f28016141461051b57600080fd5b8063d0c93a7c14610461578063d21220a714610488578063d3b5dc3b146104af57600080fd5b806399712de2116100d357806399712de2146103ec578063a02032bf146103ff578063aa12145814610420578063b6cc9c9e1461044157600080fd5b806381fd6c021461038b578063829057e3146103b25780638e6be33f146103d957600080fd5b80632700961a1161016657806345b25e041161014057806345b25e041461031d578063464869a71461033057806347ca56f0146103435780636502072a1461036457600080fd5b80632700961a146102e25780633dc306ee146102f5578063424bf6f11461030857600080fd5b80630dfe1681116101a25780630dfe16811461023e578063156582611461027d57806316f0115b146102a85780631b58485e146102cf57600080fd5b806303a4e843146101c9578063053ef28b146101f65780630da2865114610218575b600080fd5b6101dc6101d7366004613d09565b61052e565b604080519283526020830191909152015b60405180910390f35b610209610204366004613d70565b6105d4565b6040516101ed93929190613e20565b61022b610226366004613e45565b610c5a565b60405160029190910b81526020016101ed565b6102657f000000000000000000000000000000000000000000000000000000000000000081565b6040516001600160a01b0390911681526020016101ed565b61029061028b366004613e73565b610ce2565b6040516001600160801b0390911681526020016101ed565b6102657f000000000000000000000000000000000000000000000000000000000000000081565b6102906102dd366004613e73565b610d9f565b6102906102f0366004614135565b610db3565b61022b610303366004613e45565b610e3c565b61031b610316366004614169565b610ed5565b005b61031b61032b3660046141af565b61123a565b6101dc61033e366004613e73565b6113b5565b610356610351366004614201565b6113e9565b6040519081526020016101ed565b6102657f000000000000000000000000000000000000000000000000000000000000000081565b6102657f000000000000000000000000000000000000000000000000000000000000000081565b6102657f000000000000000000000000000000000000000000000000000000000000000081565b6103566103e7366004614241565b6115ff565b61031b6103fa366004614290565b61175e565b61041261040d3660046142ef565b611b0d565b6040516101ed929190614347565b61043361042e366004614360565b611c81565b6040516101ed929190614394565b61045461044f366004614360565b611eb5565b6040516101ed91906143d7565b61022b7f000000000000000000000000000000000000000000000000000000000000000081565b6102657f000000000000000000000000000000000000000000000000000000000000000081565b610356670de0b6b3a764000081565b6103567f000000000000000000000000000000000000000000000000000000000000000081565b6104f86104f33660046143ea565b612088565b60405190151581526020016101ed565b61031b6105163660046141af565b612115565b6101dc61052936600461441a565b6122b4565b60008061057d7f000000000000000000000000000000000000000000000000000000000000000060020b610561866124b9565b61056b9190614460565b610574856124b9565b600291906124f4565b6105c97f000000000000000000000000000000000000000000000000000000000000000060020b6105ad876124b9565b6105b79190614460565b6105c0866124b9565b600391906124f4565b915091509250929050565b60008060606105e1613c7e565b6105ea8761254c565b60020b81526105f88661254c565b60020b6020820181905261061590610610908a610e3c565b612851565b9550610625816000015189610c5a565b60020b80825260e08201819052602082015161064291908a612088565b6106805760405162461bcd60e51b815260040161067790602080825260049082015263216c697160e01b604082015260600190565b60405180910390fd5b6106ab60027f0000000000000000000000000000000000000000000000000000000000000000614489565b8160e0015160020b6106bd919061449d565b60408201526106ce81896000612b74565b60008861071f577f000000000000000000000000000000000000000000000000000000000000000061070483602001518b610e3c565b835161071091906144c5565b61071a91906144ea565b610767565b7f0000000000000000000000000000000000000000000000000000000000000000826000015161075384602001518c610e3c565b61075d91906144c5565b61076791906144ea565b905060008160020b6001600160401b0381111561078657610786613e90565b6040519080825280602002602001820160405280156107d157816020015b60408051606081018252600080825260208083018290529282015282526000199092019101816107a45790505b50905060005b60008811806107fc5750886001600160a01b03168460c001516001600160a01b031614155b15610c40576040805160e081018252600080825260208201819052918101829052606081018290526080810182905260a0810182905260c08101919091528b610874577f00000000000000000000000000000000000000000000000000000000000000008560e0015161086f91906144c5565b6108a4565b7f00000000000000000000000000000000000000000000000000000000000000008560e001516108a49190614524565b60020b602082018190526108b790612851565b6001600160a01b0316606082015260c085015160808601519092506001600160801b03166000036108f15780606001516000806000610968565b6109688560c001518d61092b5782606001516001600160a01b03168c6001600160a01b031611610925578260600151610954565b8b610954565b82606001516001600160a01b03168c6001600160a01b031610610952578260600151610954565b8b5b87608001516001600160ff1b036000612e99565b5060a0840152608083019081526001600160a01b0390911660c08701525115610b66576109d2670de0b6b3a76400008660a001516001600160801b031687608001516001600160801b03166109bd9190614549565b60a08801516001600160801b0316919061308b565b83866101a00151815181106109e9576109e961455c565b602002602001015160400181815250508b610a33577f00000000000000000000000000000000000000000000000000000000000000008560e00151610a2e91906144c5565b610a39565b8460e001515b83866101a0015181518110610a5057610a5061455c565b602090810291909101015160029190910b90528b610a9257610a8d82826060015183608001518c1015610a83578b61313d565b836080015161313d565b610ab7565b610ab782826060015183608001518c1015610aad578b6131a7565b83608001516131a7565b83866101a0015181518110610ace57610ace61455c565b6020026020010151602001906001600160801b031690816001600160801b031681525050610b22856080015184876101a0015181518110610b1157610b1161455c565b6020026020010151602001516131dd565b83866101a0015181518110610b3957610b3961455c565b6020908102919091018101516001600160801b039092169101526101a085018051610b6390614572565b90525b8060800151891015610b79576000610b88565b6080810151610b88908a614460565b9850881580610bac5750896001600160a01b03168560c001516001600160a01b0316145b15610c2957610be16040518060400160405280600e81526020016d189bdc9c9bddd959185b5bdd5b9d60921b8152508a613206565b8815610c185760405162461bcd60e51b815260040161067790602080825260049082015263216c697160e01b604082015260600190565b6020015160020b60e0850152610c40565b610c3a8582602001518e600061324f565b506107d7565b50825160e090930151929a92995097509095505050505050565b6000610c67836001610e3c565b9050610c9460027f00000000000000000000000000000000000000000000000000000000000000006144ea565b610c9e9082614524565b60020b8360020b12610cd957610cd47f000000000000000000000000000000000000000000000000000000000000000082614524565b610cdb565b805b9392505050565b600080610cf9610cf1846124b9565b600090613532565b6040516320dddaaf60e21b8152600285900b60048201529091506000906001600160a01b037f000000000000000000000000000000000000000000000000000000000000000016906383776abc90602401602060405180830381865afa158015610d67573d6000803e3d6000fd5b505050506040513d601f19601f82011682018060405250810190610d8b9190614596565b9050610d9781836145b3565b949350505050565b6000610dad610cf1836124b9565b92915050565b600080610e04610de7670de0b6b3a76400006201518086610160015163ffffffff1642610de09190614460565b919061308b565b60c08501516001600160801b031690670de0b6b3a764000061308b565b9050806001600160801b03168361010001516001600160801b031611610e2b576000610cdb565b80836101000151610cdb91906145b3565b600080610e697f0000000000000000000000000000000000000000000000000000000000000000856144ea565b905082610eab577f0000000000000000000000000000000000000000000000000000000000000000610e9c826001614524565b610ea691906145da565b610d97565b610d977f0000000000000000000000000000000000000000000000000000000000000000826145da565b336001600160a01b037f0000000000000000000000000000000000000000000000000000000000000000161480610f345750336001600160a01b037f000000000000000000000000000000000000000000000000000000000000000016145b80610f475750336001600160a01b038216145b610f7b5760405162461bcd60e51b8152602060048201526005602482015264042c2eae8d60db1b6044820152606401610677565b60008261010001518360c00151610f9291906145b3565b6001600160801b0316905060008360000151610fce577f0000000000000000000000000000000000000000000000000000000000000000610ff0565b7f00000000000000000000000000000000000000000000000000000000000000005b9050836101200151156110fa57806001600160a01b031663a352dcbf600080868861010001516001600160801b03166040518563ffffffff1660e01b815260040161103e94939291906145fa565b600060405180830381600087803b15801561105857600080fd5b505af115801561106c573d6000803e3d6000fd5b505060405163a352dcbf60e01b81526001600160a01b038416925063a352dcbf91506110c39060009081907f00000000000000000000000000000000000000000000000000000000000000009088906004016145fa565b600060405180830381600087803b1580156110dd57600080fd5b505af11580156110f1573d6000803e3d6000fd5b505050506111f5565b806001600160a01b031663a352dcbf60016000868861010001516001600160801b03166040518563ffffffff1660e01b815260040161113c94939291906145fa565b600060405180830381600087803b15801561115657600080fd5b505af115801561116a573d6000803e3d6000fd5b505060405163a352dcbf60e01b81526001600160a01b038416925063a352dcbf91506111c2906001906000907f00000000000000000000000000000000000000000000000000000000000000009088906004016145fa565b600060405180830381600087803b1580156111dc57600080fd5b505af11580156111f0573d6000803e3d6000fd5b505050505b611233846101800151611228670de0b6b3a76400008760c001516001600160801b03168661308b9092919063ffffffff16565b8661012001516115ff565b5050505050565b600061126760027f0000000000000000000000000000000000000000000000000000000000000000614489565b8460020b611275919061449d565b905060006112a460027f0000000000000000000000000000000000000000000000000000000000000000614489565b8460020b6112b2919061449d565b90506112e1600483857f0000000000000000000000000000000000000000000000000000000000000000613564565b611318816112ee85614621565b600491907f0000000000000000000000000000000000000000000000000000000000000000613564565b600285900b6000908152600560205260408120805485929061133e908490600f0b614647565b82546001600160801b039182166101009390930a928302919092021990911617905550600284900b60009081526005602052604081208054859290611387908490600f0b614674565b92506101000a8154816001600160801b030219169083600f0b6001600160801b031602179055505050505050565b6000806113cc6113c4846124b9565b6002906135b8565b6113e06113d8856124b9565b6003906135b8565b91509150915091565b60006113f3613c7e565b6113fe856001610e3c565b600290810b60e0830152611432907f0000000000000000000000000000000000000000000000000000000000000000614489565b8160e0015160020b611444919061449d565b604082015261145581600185612b74565b61147f7f0000000000000000000000000000000000000000000000000000000000000000856144c5565b60020b8160e0015160020b136115ae576040805160e081018252600080825260208201819052918101829052606081018290526080810182905260a0810182905260c081019190915260e0820151604051633bcb373960e21b8152600291820b60048201527f000000000000000000000000000000000000000000000000000000000000000090910b6024820152600060448201527f00000000000000000000000000000000000000000000000000000000000000006001600160a01b03169063ef2cdce4906064016040805180830381865afa158015611564573d6000803e3d6000fd5b505050506040513d601f19601f8201168201806040525081019061158891906146ac565b15156101c084015260020b602082018190526115a890839060018761324f565b50611455565b7f00000000000000000000000000000000000000000000000000000000000000006115d986866144c5565b6115e391906144ea565b60020b8161016001516115f69190614489565b95945050505050565b6000806000805b8651811015611754576116358782815181106116245761162461455c565b6020026020010151600001516124b9565b925061167186670de0b6b3a76400008984815181106116565761165661455c565b60200260200101516040015161308b9092919063ffffffff16565b915084156116da576116d583836116cb7f000000000000000000000000000000000000000000000000000000000000000060020b7f00000000000000000000000000000000000000000000000000000000000000006146db565b60039291906135e7565b611736565b611736838361172c7f000000000000000000000000000000000000000000000000000000000000000060020b7f00000000000000000000000000000000000000000000000000000000000000006146db565b60029291906135e7565b6117408285614549565b93508061174c81614572565b915050611606565b5050509392505050565b60408051610100810182526001600160a01b0386811682526101208601511515602083015285511515828401527f0000000000000000000000000000000000000000000000000000000000000000811660608301526001600160801b0385166080830181905260a0830181905260c083015261018086015160e083015291516324b0ada960e11b81527f0000000000000000000000000000000000000000000000000000000000000000909216916349615b529161181e916004016146f2565b600060405180830381600087803b15801561183857600080fd5b505af115801561184c573d6000803e3d6000fd5b5050505060008360000151611881577f00000000000000000000000000000000000000000000000000000000000000006118a3565b7f00000000000000000000000000000000000000000000000000000000000000005b9050836101200151156119de5760405163a352dcbf60e01b81526001600160a01b0382169063a352dcbf906118e3906000908990869089906004016145fa565b600060405180830381600087803b1580156118fd57600080fd5b505af1158015611911573d6000803e3d6000fd5b5050505060008211156119d9576040516323b872dd60e01b81526001600160a01b037f000000000000000000000000000000000000000000000000000000000000000081166004830152336024830152604482018490527f000000000000000000000000000000000000000000000000000000000000000016906323b872dd906064016020604051808303816000875af11580156119b3573d6000803e3d6000fd5b505050506040513d601f19601f820116820180604052508101906119d79190614772565b505b611233565b60405163a352dcbf60e01b81526001600160a01b0382169063a352dcbf90611a11906001908990869089906004016145fa565b600060405180830381600087803b158015611a2b57600080fd5b505af1158015611a3f573d6000803e3d6000fd5b505050506000821115611233576040516323b872dd60e01b81526001600160a01b037f000000000000000000000000000000000000000000000000000000000000000081166004830152336024830152604482018490527f000000000000000000000000000000000000000000000000000000000000000016906323b872dd906064016020604051808303816000875af1158015611ae1573d6000803e3d6000fd5b505050506040513d601f19601f82011682018060405250810190611b059190614772565b505050505050565b600060606000806000806000805b8a51811015611c735766071afd498d00009150611b548b8281518110611b4357611b4361455c565b602002602001015160000151612851565b611ba07f00000000000000000000000000000000000000000000000000000000000000008d8481518110611b8a57611b8a61455c565b6020026020010151600001516106109190614524565b909550935088611bd757611bd285858d8481518110611bc157611bc161455c565b602002602001015160200151613611565b611bff565b611bff85858d8481518110611bee57611bee61455c565b60200260200101516020015161367b565b9250611c148284670de0b6b3a764000061308b565b8b8281518110611c2657611c2661455c565b602002602001015160400181815250508a8181518110611c4857611c4861455c565b60200260200101516040015186611c5f9190614549565b955080611c6b81614572565b915050611b1b565b509399975050505050505050565b600060606000835111611cc35760405162461bcd60e51b815260206004820152600a602482015269656d70747920696e666f60b01b6044820152606401610677565b600080600085516001600160401b03811115611ce157611ce1613e90565b604051908082528060200260200182016040528015611d0a578160200160208202803683370190505b50905060005b8651811015611ea757611d31610cf18883815181106116245761162461455c565b9350836001600160801b0316600003611d5257506000969095509350505050565b7f00000000000000000000000000000000000000000000000000000000000000006001600160a01b03166383776abc888381518110611d9357611d9361455c565b6020026020010151600001516040518263ffffffff1660e01b8152600401611dc4919060029190910b815260200190565b602060405180830381865afa158015611de1573d6000803e3d6000fd5b505050506040513d601f19601f82011682018060405250810190611e059190614596565b9250611e276001600160801b0380851690670de0b6b3a764000090871661308b565b828281518110611e3957611e3961455c565b602002602001018181525050868181518110611e5757611e5761455c565b60200260200101516020015183611e6e919061478f565b6001600160801b0316846001600160801b03161015611e9557506000969095509350505050565b80611e9f81614572565b915050611d10565b506001969095509350505050565b60606000825111611ef55760405162461bcd60e51b815260206004820152600a602482015269656d70747920696e666f60b01b6044820152606401610677565b600080600084516001600160401b03811115611f1357611f13613e90565b604051908082528060200260200182016040528015611f3c578160200160208202803683370190505b50905060005b855181101561207e57611f63610cf18783815181106116245761162461455c565b93506001600160801b0384161561206c577f00000000000000000000000000000000000000000000000000000000000000006001600160a01b03166383776abc878381518110611fb557611fb561455c565b6020026020010151600001516040518263ffffffff1660e01b8152600401611fe6919060029190910b815260200190565b602060405180830381865afa158015612003573d6000803e3d6000fd5b505050506040513d601f19601f820116820180604052508101906120279190614596565b92506120496001600160801b0380851690670de0b6b3a764000090871661308b565b86828151811061205b5761205b61455c565b602002602001015160400181815250505b8061207681614572565b915050611f42565b5093949350505050565b600080612096846001610e3c565b905060006120c47f000000000000000000000000000000000000000000000000000000000000000083614524565b905083156120f1578160020b8660020b121580156120e757508060020b8660020b125b1592505050610cdb565b8160020b8660020b1380156120e757508060020b8660020b13151592505050610cdb565b600061214260027f0000000000000000000000000000000000000000000000000000000000000000614489565b8460020b612150919061449d565b9050600061217f60027f0000000000000000000000000000000000000000000000000000000000000000614489565b8460020b61218d919061449d565b90506121eb82846121e17f000000000000000000000000000000000000000000000000000000000000000060020b7f00000000000000000000000000000000000000000000000000000000000000006146db565b6000929190613564565b612245816121f885614621565b6121e17f000000000000000000000000000000000000000000000000000000000000000060020b7f00000000000000000000000000000000000000000000000000000000000000006146db565b600285900b6000908152600160205260408120805485929061226b908490600f0b614647565b82546001600160801b039182166101009390930a928302919092021990911617905550600284900b60009081526001602052604081208054859290611387908490600f0b614674565b6000806000846122e4577f0000000000000000000000000000000000000000000000000000000000000000612306565b7f00000000000000000000000000000000000000000000000000000000000000005b60405163750ff6b560e01b81526001600160a01b038083166004830152888116602483015286151560448301529192506000917f0000000000000000000000000000000000000000000000000000000000000000169063750ff6b590606401600060405180830381865afa158015612382573d6000803e3d6000fd5b505050506040513d6000823e601f3d908101601f191682016040526123aa919081019061485e565b90506123b581610db3565b6001600160801b03166101008201526123ce8188610ed5565b6123dc816101800151611eb5565b506000807f00000000000000000000000000000000000000000000000000000000000000006001600160a01b0316633850c7bd6040518163ffffffff1660e01b815260040160e060405180830381865afa15801561243e573d6000803e3d6000fd5b505050506040513d601f19601f820116820180604052508101906124629190614995565b505050505091509150600061248284610180015183866101200151611b0d565b61018086015290506124978a8583600061175e565b61010090930151929550506001600160801b0390911692505050935093915050565b60006124e660027f0000000000000000000000000000000000000000000000000000000000000000614489565b8260020b610dad919061449d565b600081831061252e5760405162461bcd60e51b815260040161067790602080825260049082015263349f1eb560e11b604082015260600190565b61253884846135b8565b61254285846135b8565b610d979190614460565b60006401000276a36001600160a01b03831610801590612588575073fffd8963efd1fc6a506488495d951d5263988d266001600160a01b038316105b6125a5576040516324c070df60e11b815260040160405180910390fd5b640100000000600160c01b03602083901b166001600160801b03811160071b81811c6001600160401b03811160061b90811c63ffffffff811160051b90811c61ffff811160041b90811c60ff8111600390811b91821c600f811160021b90811c918211600190811b92831c9790881196179094179092171790911717176080811061263857607f810383901c9150612642565b80607f0383901b91505b908002607f81811c60ff83811c9190911c800280831c81831c1c800280841c81841c1c800280851c81851c1c800280861c81861c1c800280871c81871c1c800280881c81881c1c800280891c81891c1c8002808a1c818a1c1c8002808b1c818b1c1c8002808c1c818c1c1c8002808d1c818d1c1c8002808e1c9c81901c9c909c1c80029c8d901c9e9d607f198f0160401b60c09190911c678000000000000000161760c19b909b1c674000000000000000169a909a1760c29990991c672000000000000000169890981760c39790971c671000000000000000169690961760c49590951c670800000000000000169490941760c59390931c670400000000000000169290921760c69190911c670200000000000000161760c79190911c670100000000000000161760c89190911c6680000000000000161760c99190911c6640000000000000161760ca9190911c6620000000000000161760cb9190911c6610000000000000161760cc9190911c6608000000000000161760cd9190911c66040000000000001617693627a301d71055774c8581026f028f6481ab7f045a5af012a19d003aa9198101608090811d906fdb2df09e81959a81455e260799a0632f8301901d600281810b9083900b1461284257886001600160a01b031661282782612851565b6001600160a01b0316111561283c5781612844565b80612844565b815b9998505050505050505050565b60008060008360020b12612868578260020b612870565b8260020b6000035b9050620d89e8811115612896576040516315e4079d60e11b815260040160405180910390fd5b6000816001166000036128ad57600160801b6128bf565b6ffffcb933bd6fad37aa2d162d1a5940015b70ffffffffffffffffffffffffffffffffff16905060028216156128f3576ffff97272373d413259a46990580e213a0260801c5b6004821615612912576ffff2e50f5f656932ef12357cf3c7fdcc0260801c5b6008821615612931576fffe5caca7e10e4e61c3624eaa0941cd00260801c5b6010821615612950576fffcb9843d60f6159c9db58835c9266440260801c5b602082161561296f576fff973b41fa98c081472e6896dfb254c00260801c5b604082161561298e576fff2ea16466c96a3843ec78b326b528610260801c5b60808216156129ad576ffe5dee046a99a2a811c461f1969c30530260801c5b6101008216156129cd576ffcbe86c7900a88aedcffc83b479aa3a40260801c5b6102008216156129ed576ff987a7253ac413176f2b074cf7815e540260801c5b610400821615612a0d576ff3392b0822b70005940c7a398e4b70f30260801c5b610800821615612a2d576fe7159475a2c29b7443b29c7fa6e889d90260801c5b611000821615612a4d576fd097f3bdfd2022b8845ad8f792aa58250260801c5b612000821615612a6d576fa9f746462d870fdf8a65dc1f90e061e50260801c5b614000821615612a8d576f70d869a156d2a1b890bb3df62baf32f70260801c5b618000821615612aad576f31be135f97d08fd981231505542fcfa60260801c5b62010000821615612ace576f09aa508b5b7a84e1c677de54f3e99bc90260801c5b62020000821615612aee576e5d6af8dedb81196699c329225ee6040260801c5b62040000821615612b0d576d2216e584f5fa1ea926041bedfe980260801c5b62080000821615612b2a576b048a170391f7dc42444e8fa20260801c5b60008460020b1315612b4b578060001981612b4757612b47614473565b0490505b640100000000810615612b5f576001612b62565b60005b60ff16602082901c0192505050919050565b612b818360e00151612851565b6001600160a01b031660c0840152612bdc82612bcf577f000000000000000000000000000000000000000000000000000000000000000060020b8460400151612bca9190614460565b610cf1565b8360400151600090613532565b6001600160801b03166060840181905260808401526001600160a01b037f0000000000000000000000000000000000000000000000000000000000000000166383776abc83612c5a577f00000000000000000000000000000000000000000000000000000000000000008560e00151612c5591906144c5565b612c60565b8460e001515b6040516001600160e01b031960e084901b16815260029190910b6004820152602401602060405180830381865afa158015612c9f573d6000803e3d6000fd5b505050506040513d601f19601f82011682018060405250810190612cc39190614596565b6001600160801b031660a084015260408051808201909152601781527f2d2d2d2d73746172742d2d2d2c20637572207469636b3a0000000000000000006020820152612d0e906136c5565b612d1e836020015160020b61370b565b612d786040518060400160405280602081526020017f6c69717569646974792f626f72726f7765644c69717569646974792f7469636b81525084608001516001600160801b03168560a001516001600160801b0316613750565b612d888360e0015160020b61370b565b8260a0015183608001818151612d9e91906145b3565b6001600160801b0390811690915282161580159150612dd25750806001600160801b031683608001516001600160801b0316105b15612e0b5760405162461bcd60e51b815260206004820152600960248201526821776974686472617760b81b6044820152606401610677565b60808301516001600160801b031615612e9457612e65670de0b6b3a76400008460a001516001600160801b031685608001516001600160801b0316612e509190614549565b60a08601516001600160801b0316919061308b565b8361016001818151612e779190614549565b9052506101808301805160019190612e90908390614549565b9052505b505050565b60008080806001600160a01b03808916908a161015818712801590612f1e576000612ed28989620f42400362ffffff16620f424061308b565b905082612eeb57612ee68c8c8c6001613797565b612ef8565b612ef88b8d8c6001613807565b9550858110612f09578a9650612f18565b612f158c8b83866138be565b96505b50612f68565b81612f3557612f308b8b8b6000613807565b612f42565b612f428a8c8b6000613797565b9350838860000310612f5657899550612f68565b612f658b8a8a6000038561390a565b95505b6001600160a01b038a8116908716148215612fcb57808015612f875750815b612f9d57612f98878d8c6001613807565b612f9f565b855b9550808015612fac575081155b612fc257612fbd878d8c6000613797565b612fc4565b845b9450613015565b808015612fd55750815b612feb57612fe68c888c6001613797565b612fed565b855b9550808015612ffa575081155b6130105761300b8c888c6000613807565b613012565b845b94505b8115801561302557508860000385115b15613031578860000394505b81801561305057508a6001600160a01b0316876001600160a01b031614155b1561305f57858903935061307c565b613079868962ffffff168a620f42400362ffffff16613956565b93505b50505095509550955095915050565b60008080600019858709858702925082811083820303915050806000036130c457600084116130b957600080fd5b508290049050610cdb565b8084116130d057600080fd5b6000848688096000868103871696879004966002600389028118808a02820302808a02820302808a02820302808a02820302808a02820302808a02909103029181900381900460010186841190950394909402919094039290920491909117919091029150509392505050565b6000826001600160a01b0316846001600160a01b0316111561315d579192915b6000613180856001600160a01b0316856001600160a01b0316600160601b61308b565b90506115f66131a284836131948989614a2d565b6001600160a01b031661308b565b613996565b6000826001600160a01b0316846001600160a01b031611156131c7579192915b610d976131a283600160601b6131948888614a2d565b6000816001600160801b0316836001600160801b031611156131ff5781610cdb565b5090919050565b61324b828260405160240161321c929190614a93565b60408051601f198184030181529190526020810180516001600160e01b03166309710a9d60e41b1790526139b1565b5050565b600283900b600090815260016020526040902054600f0b6101008501528161328a5783610100015161328090614621565b600f0b6101008501525b61329d84606001518561010001516139d2565b6001600160801b031660608501526001600160a01b037f0000000000000000000000000000000000000000000000000000000000000000166383776abc8361330e576133097f0000000000000000000000000000000000000000000000000000000000000000866144c5565b613310565b845b6040516001600160e01b031960e084901b16815260029190910b6004820152602401602060405180830381865afa15801561334f573d6000803e3d6000fd5b505050506040513d601f19601f820116820180604052508101906133739190614596565b6001600160801b031660a08501819052606085015161339291906145b3565b6001600160801b0390811660808601528116158015906133c75750806001600160801b031684608001516001600160801b0316105b156134005760405162461bcd60e51b815260206004820152600960248201526821776974686472617760b81b6044820152606401610677565b60808401516001600160801b0316156134795761344a670de0b6b3a764000085606001516001600160801b03168660a001516001600160801b031661308b9092919063ffffffff16565b846101600181815161345c9190614549565b9052506101808401805160019190613475908390614549565b9052505b61349e604051806040016040528060048152602001632d2d2d2d60e01b8152506136c5565b6134db6040518060400160405280600e81526020016d6c69717569646974792f7469636b60901b81525085608001516001600160801b0316613206565b6134e78360020b61370b565b613525604051806040016040528060068152602001651b1a5c5b995d60d21b815250856101000151600f0b8660a001516001600160801b0316613750565b505060020b60e090910152565b60005b8115610dad57600082815260208490526040902054600f0b0161355b8260008190031690565b82039150613535565b808310156135b257600083815260208590526040812080546fffffffffffffffffffffffffffffffff198116600f9190910b85016001600160801b0316179055839003831683019250613564565b50505050565b60005b8115610dad57600082815260208490526040902054016135de8260008190031690565b820391506135bb565b808310156135b25760008381526020859052604081208054840190558390038316830192506135e7565b6000826001600160a01b0316846001600160a01b03161115613631579192915b6001600160a01b038416613671600160601b600160e01b03606085901b166136598787614a2d565b6001600160a01b0316866001600160a01b031661308b565b610d979190614489565b6000826001600160a01b0316846001600160a01b0316111561369b579192915b610d976001600160801b0383166136b28686614a2d565b6001600160a01b0316600160601b61308b565b613708816040516024016136d99190614ab5565b60408051601f198184030181529190526020810180516001600160e01b031663104c13eb60e21b1790526139b1565b50565b6137088160405160240161372191815260200190565b60408051601f198184030181529190526020810180516001600160e01b0316634e0c1d1d60e01b1790526139b1565b612e9483838360405160240161376893929190614ac8565b60408051601f198184030181529190526020810180516001600160e01b031663969cdd0360e01b1790526139b1565b6000836001600160a01b0316856001600160a01b031611156137b7579293925b816137e4576137df836001600160801b03168686036001600160a01b0316600160601b61308b565b6115f6565b6115f6836001600160801b03168686036001600160a01b0316600160601b613956565b6000836001600160a01b0316856001600160a01b03161115613827579293925b600160601b600160e01b03606084901b166001600160a01b03868603811690871661385157600080fd5b8361388757866001600160a01b03166138748383896001600160a01b031661308b565b8161388157613881614473565b046138b3565b6138b361389e8383896001600160a01b0316613956565b886001600160a01b0316808204910615150190565b979650505050505050565b600080856001600160a01b0316116138d557600080fd5b6000846001600160801b0316116138eb57600080fd5b816138fd576137df8585856001613a92565b6115f68585856001613b78565b600080856001600160a01b03161161392157600080fd5b6000846001600160801b03161161393757600080fd5b81613949576137df8585856000613b78565b6115f68585856000613a92565b600061396384848461308b565b90506000828061397557613975614473565b8486091115610cdb57600019811061398c57600080fd5b6001019392505050565b806001600160801b03811681146139ac57600080fd5b919050565b80516a636f6e736f6c652e6c6f67602083016000808483855afa5050505050565b60008082600f0b1215613a3f576001600160801b0383166139f283614621565b6139fc90856145b3565b9150816001600160801b031610613a3a5760405162461bcd60e51b81526020600482015260026024820152614c5360f01b6044820152606401610677565b610dad565b6001600160801b038316613a53838561478f565b9150816001600160801b03161015610dad5760405162461bcd60e51b81526020600482015260026024820152614c4160f01b6044820152606401610677565b60008115613b045760006001600160a01b03841115613ac857613ac384600160601b876001600160801b031661308b565b613adf565b613adf6001600160801b038616606086901b614489565b9050613afc613af7826001600160a01b038916614549565b613c68565b915050610d97565b60006001600160a01b03841115613b3257613b2d84600160601b876001600160801b0316613956565b613b4f565b613b4f606085901b6001600160801b038716808204910615150190565b905080866001600160a01b031611613b6657600080fd5b6001600160a01b038616039050610d97565b600082600003613b89575083610d97565b600160601b600160e01b03606085901b168215613c1b576001600160a01b03861684810290858281613bbd57613bbd614473565b0403613bed57818101828110613beb57613be183896001600160a01b031683613956565b9350505050610d97565b505b50613afc8185613c066001600160a01b038a1683614489565b613c109190614549565b808204910615150190565b6001600160a01b03861684810290858281613c3857613c38614473565b04148015613c4557508082115b613c4e57600080fd5b808203613be1613af7846001600160a01b038b1684613956565b806001600160a01b03811681146139ac57600080fd5b604080516101e081018252600080825260208201819052918101829052606081018290526080810182905260a0810182905260c0810182905260e08101829052610100810182905261012081018290526101408101829052610160810182905261018081018290526101a081018290526101c081019190915290565b8060020b811461370857600080fd5b60008060408385031215613d1c57600080fd5b8235613d2781613cfa565b91506020830135613d3781613cfa565b809150509250929050565b801515811461370857600080fd5b80356139ac81613d42565b6001600160a01b038116811461370857600080fd5b60008060008060808587031215613d8657600080fd5b8435613d9181613d42565b93506020850135613da181613d5b565b92506040850135613db181613d5b565b9396929550929360600135925050565b600081518084526020808501945080840160005b83811015613e15578151805160020b88526020808201516001600160801b0316908901526040908101519088015260608701965090820190600101613dd5565b509495945050505050565b8360020b81528260020b60208201526060604082015260006115f66060830184613dc1565b60008060408385031215613e5857600080fd5b8235613e6381613cfa565b91506020830135613d3781613d42565b600060208284031215613e8557600080fd5b8135610cdb81613cfa565b634e487b7160e01b600052604160045260246000fd5b604051606081016001600160401b0381118282101715613ec857613ec8613e90565b60405290565b6040516101a081016001600160401b0381118282101715613ec857613ec8613e90565b604051601f8201601f191681016001600160401b0381118282101715613f1957613f19613e90565b604052919050565b80356139ac81613d5b565b6001600160801b038116811461370857600080fd5b80356139ac81613f2c565b63ffffffff8116811461370857600080fd5b80356139ac81613f4c565b60006001600160401b03821115613f8257613f82613e90565b5060051b60200190565b600082601f830112613f9d57600080fd5b81356020613fb2613fad83613f69565b613ef1565b82815260609283028501820192828201919087851115613fd157600080fd5b8387015b8581101561402a5781818a031215613fed5760008081fd5b613ff5613ea6565b813561400081613cfa565b81528186013561400f81613f2c565b81870152604082810135908201528452928401928101613fd5565b5090979650505050505050565b60006101a0828403121561404a57600080fd5b614052613ece565b905061405d82613d50565b815261406b60208301613f21565b602082015260408201356040820152606082013560608201526080820135608082015260a082013560a08201526140a460c08301613f41565b60c08201526140b560e08301613f41565b60e08201526101006140c8818401613f41565b908201526101206140da838201613d50565b908201526101406140ec838201613f5e565b908201526101606140fe838201613f5e565b90820152610180828101356001600160401b0381111561411d57600080fd5b61412985828601613f8c565b82840152505092915050565b60006020828403121561414757600080fd5b81356001600160401b0381111561415d57600080fd5b610d9784828501614037565b6000806040838503121561417c57600080fd5b82356001600160401b0381111561419257600080fd5b61419e85828601614037565b9250506020830135613d3781613d5b565b6000806000606084860312156141c457600080fd5b83356141cf81613cfa565b925060208401356141df81613cfa565b91506040840135600f81900b81146141f657600080fd5b809150509250925092565b60008060006060848603121561421657600080fd5b833561422181613cfa565b9250602084013561423181613cfa565b915060408401356141f681613f2c565b60008060006060848603121561425657600080fd5b83356001600160401b0381111561426c57600080fd5b61427886828701613f8c565b9350506020840135915060408401356141f681613d42565b600080600080608085870312156142a657600080fd5b84356142b181613d5b565b935060208501356001600160401b038111156142cc57600080fd5b6142d887828801614037565b949794965050505060408301359260600135919050565b60008060006060848603121561430457600080fd5b83356001600160401b0381111561431a57600080fd5b61432686828701613f8c565b935050602084013561433781613cfa565b915060408401356141f681613d42565b828152604060208201526000610d976040830184613dc1565b60006020828403121561437257600080fd5b81356001600160401b0381111561438857600080fd5b610d9784828501613f8c565b60006040820184151583526020604081850152818551808452606086019150828701935060005b8181101561402a578451835293830193918301916001016143bb565b602081526000610cdb6020830184613dc1565b6000806000606084860312156143ff57600080fd5b833561440a81613cfa565b9250602084013561433781613cfa565b60008060006060848603121561442f57600080fd5b833561443a81613d5b565b9250602084013561433781613d42565b634e487b7160e01b600052601160045260246000fd5b81810381811115610dad57610dad61444a565b634e487b7160e01b600052601260045260246000fd5b60008261449857614498614473565b500490565b80820182811260008312801582168215821617156144bd576144bd61444a565b505092915050565b600282810b9082900b03627fffff198112627fffff82131715610dad57610dad61444a565b60008160020b8360020b8061450157614501614473565b627fffff1982146000198214161561451b5761451b61444a565b90059392505050565b600281810b9083900b01627fffff8113627fffff1982121715610dad57610dad61444a565b80820180821115610dad57610dad61444a565b634e487b7160e01b600052603260045260246000fd5b6000600182016145845761458461444a565b5060010190565b80516139ac81613f2c565b6000602082840312156145a857600080fd5b8151610cdb81613f2c565b6001600160801b038281168282160390808211156145d3576145d361444a565b5092915050565b60008260020b8260020b028060020b91508082146145d3576145d361444a565b93151584526001600160a01b03928316602085015291166040830152606082015260800190565b600081600f0b60016001607f1b0319810361463e5761463e61444a565b60000392915050565b600f81810b9083900b0160016001607f1b03811360016001607f1b031982121715610dad57610dad61444a565b600f82810b9082900b0360016001607f1b0319811260016001607f1b0382131715610dad57610dad61444a565b80516139ac81613d42565b600080604083850312156146bf57600080fd5b82516146ca81613cfa565b6020840151909250613d3781613d42565b8082028115828204841417610dad57610dad61444a565b602080825282516001600160a01b031682820152820151151560408083019190915282015180151560608301526000905060608301516001600160a01b038116608084015250608083015160a083015260a083015160c083015260c083015160e083015260e0830151610100808185015250610d97610120840182613dc1565b60006020828403121561478457600080fd5b8151610cdb81613d42565b6001600160801b038181168382160190808211156145d3576145d361444a565b80516139ac81613d5b565b80516139ac81613f4c565b600082601f8301126147d657600080fd5b815160206147e6613fad83613f69565b8281526060928302850182019282820191908785111561480557600080fd5b8387015b8581101561402a5781818a0312156148215760008081fd5b614829613ea6565b815161483481613cfa565b81528186015161484381613f2c565b81870152604082810151908201528452928401928101614809565b60006020828403121561487057600080fd5b81516001600160401b038082111561488757600080fd5b908301906101a0828603121561489c57600080fd5b6148a4613ece565b6148ad836146a1565b81526148bb602084016147af565b602082015260408301516040820152606083015160608201526080830151608082015260a083015160a08201526148f460c0840161458b565b60c082015261490560e0840161458b565b60e082015261010061491881850161458b565b9082015261012061492a8482016146a1565b9082015261014061493c8482016147ba565b9082015261016061494e8482016147ba565b90820152610180838101518381111561496657600080fd5b614972888287016147c5565b918301919091525095945050505050565b805161ffff811681146139ac57600080fd5b600080600080600080600060e0888a0312156149b057600080fd5b87516149bb81613d5b565b60208901519097506149cc81613cfa565b95506149da60408901614983565b94506149e860608901614983565b93506149f660808901614983565b925060a088015160ff81168114614a0c57600080fd5b60c0890151909250614a1d81613d42565b8091505092959891949750929550565b6001600160a01b038281168282160390808211156145d3576145d361444a565b6000815180845260005b81811015614a7357602081850181015186830182015201614a57565b506000602082860101526020601f19601f83011685010191505092915050565b604081526000614aa66040830185614a4d565b90508260208301529392505050565b602081526000610cdb6020830184614a4d565b606081526000614adb6060830186614a4d565b6020830194909452506040015291905056fea264697066735822122044c4a9c19dde4823ccfdf4df8a25e5bb8fe0f8fbe2ea06e4d7624707c59960c064736f6c63430008110033",
    "linkReferences": {}
  },
  "methodIdentifiers": {
    "borrowManager()": "829057e3",
    "checkBorrowRange(int24,int24,bool)": "f0ff1f33",
    "checkLiquidity(int24,int24,uint128)": "47ca56f0",
    "checkSolvency((int24,uint128,uint256)[])": "aa121458",
    "getLiqMinusBorrow(int24)": "15658261",
    "getNewPremiumQuotes((int24,uint128,uint256)[],int24,bool)": "a02032bf",
    "getPremiumGrowthInside(int24,int24)": "03a4e843",
    "getPremiumRefund((bool,address,uint256,uint256,uint256,uint256,uint128,uint128,uint128,bool,uint32,uint32,(int24,uint128,uint256)[]),address)": "424bf6f1",
    "getRemainingPremium((bool,address,uint256,uint256,uint256,uint256,uint128,uint128,uint128,bool,uint32,uint32,(int24,uint128,uint256)[]))": "2700961a",
    "getURates((int24,uint128,uint256)[])": "b6cc9c9e",
    "globalStorage()": "6502072a",
    "indexLiquidities(bool,uint160,uint160,uint256)": "053ef28b",
    "leverageManager()": "81fd6c02",
    "numticks()": "d9ba333a",
    "payPremium(address,bool,bool)": "f2801614",
    "payPremiumToPool((int24,uint128,uint256)[],uint256,bool)": "8e6be33f",
    "pool()": "16f0115b",
    "precision()": "d3b5dc3b",
    "queryLiquidity(int24)": "1b58485e",
    "queryPremium(int24)": "464869a7",
    "roundTick(int24,bool)": "3dc306ee",
    "roundTickToBorrow(int24,bool)": "0da28651",
    "tickSpacing()": "d0c93a7c",
    "token0()": "0dfe1681",
    "token1()": "d21220a7",
    "updateBorrowTreeLiq(int24,int24,int128)": "45b25e04",
    "updateLiquidityTreeLiq(int24,int24,int128)": "f26c498a",
    "updatePremiumState(address,(bool,address,uint256,uint256,uint256,uint256,uint128,uint128,uint128,bool,uint32,uint32,(int24,uint128,uint256)[]),uint256,uint256)": "99712de2"
  },
  "id": 40
}