{
  "abi": [
    {
      "inputs": [],
      "stateMutability": "nonpayable",
      "type": "constructor"
    },
    {
      "inputs": [],
      "name": "LO",
      "type": "error"
    },
    {
      "inputs": [],
      "name": "NP",
      "type": "error"
    },
    {
      "inputs": [],
      "name": "OLD",
      "type": "error"
    },
    {
      "inputs": [],
      "name": "R",
      "type": "error"
    },
    {
      "inputs": [],
      "name": "T",
      "type": "error"
    },
    {
      "anonymous": false,
      "inputs": [
        {
          "indexed": true,
          "internalType": "address",
          "name": "owner",
          "type": "address"
        },
        {
          "indexed": true,
          "internalType": "int24",
          "name": "tickLower",
          "type": "int24"
        },
        {
          "indexed": true,
          "internalType": "int24",
          "name": "tickUpper",
          "type": "int24"
        },
        {
          "indexed": false,
          "internalType": "uint128",
          "name": "amount",
          "type": "uint128"
        },
        {
          "indexed": false,
          "internalType": "uint256",
          "name": "amount0",
          "type": "uint256"
        },
        {
          "indexed": false,
          "internalType": "uint256",
          "name": "amount1",
          "type": "uint256"
        }
      ],
      "name": "Burn",
      "type": "event"
    },
    {
      "anonymous": false,
      "inputs": [
        {
          "indexed": true,
          "internalType": "address",
          "name": "owner",
          "type": "address"
        },
        {
          "indexed": false,
          "internalType": "address",
          "name": "recipient",
          "type": "address"
        },
        {
          "indexed": true,
          "internalType": "int24",
          "name": "tickLower",
          "type": "int24"
        },
        {
          "indexed": true,
          "internalType": "int24",
          "name": "tickUpper",
          "type": "int24"
        },
        {
          "indexed": false,
          "internalType": "uint128",
          "name": "amount0",
          "type": "uint128"
        },
        {
          "indexed": false,
          "internalType": "uint128",
          "name": "amount1",
          "type": "uint128"
        }
      ],
      "name": "Collect",
      "type": "event"
    },
    {
      "anonymous": false,
      "inputs": [
        {
          "indexed": true,
          "internalType": "address",
          "name": "sender",
          "type": "address"
        },
        {
          "indexed": true,
          "internalType": "address",
          "name": "recipient",
          "type": "address"
        },
        {
          "indexed": false,
          "internalType": "uint128",
          "name": "amount0",
          "type": "uint128"
        },
        {
          "indexed": false,
          "internalType": "uint128",
          "name": "amount1",
          "type": "uint128"
        }
      ],
      "name": "CollectProtocol",
      "type": "event"
    },
    {
      "anonymous": false,
      "inputs": [
        {
          "indexed": true,
          "internalType": "address",
          "name": "sender",
          "type": "address"
        },
        {
          "indexed": true,
          "internalType": "address",
          "name": "recipient",
          "type": "address"
        },
        {
          "indexed": false,
          "internalType": "uint256",
          "name": "amount0",
          "type": "uint256"
        },
        {
          "indexed": false,
          "internalType": "uint256",
          "name": "amount1",
          "type": "uint256"
        },
        {
          "indexed": false,
          "internalType": "uint256",
          "name": "paid0",
          "type": "uint256"
        },
        {
          "indexed": false,
          "internalType": "uint256",
          "name": "paid1",
          "type": "uint256"
        }
      ],
      "name": "Flash",
      "type": "event"
    },
    {
      "anonymous": false,
      "inputs": [
        {
          "indexed": false,
          "internalType": "uint16",
          "name": "observationCardinalityNextOld",
          "type": "uint16"
        },
        {
          "indexed": false,
          "internalType": "uint16",
          "name": "observationCardinalityNextNew",
          "type": "uint16"
        }
      ],
      "name": "IncreaseObservationCardinalityNext",
      "type": "event"
    },
    {
      "anonymous": false,
      "inputs": [
        {
          "indexed": false,
          "internalType": "uint160",
          "name": "sqrtPriceX96",
          "type": "uint160"
        },
        {
          "indexed": false,
          "internalType": "int24",
          "name": "tick",
          "type": "int24"
        }
      ],
      "name": "Initialize",
      "type": "event"
    },
    {
      "anonymous": false,
      "inputs": [
        {
          "indexed": false,
          "internalType": "address",
          "name": "sender",
          "type": "address"
        },
        {
          "indexed": true,
          "internalType": "address",
          "name": "owner",
          "type": "address"
        },
        {
          "indexed": true,
          "internalType": "int24",
          "name": "tickLower",
          "type": "int24"
        },
        {
          "indexed": true,
          "internalType": "int24",
          "name": "tickUpper",
          "type": "int24"
        },
        {
          "indexed": false,
          "internalType": "uint128",
          "name": "amount",
          "type": "uint128"
        },
        {
          "indexed": false,
          "internalType": "uint256",
          "name": "amount0",
          "type": "uint256"
        },
        {
          "indexed": false,
          "internalType": "uint256",
          "name": "amount1",
          "type": "uint256"
        }
      ],
      "name": "Mint",
      "type": "event"
    },
    {
      "anonymous": false,
      "inputs": [
        {
          "indexed": false,
          "internalType": "uint8",
          "name": "feeProtocol0Old",
          "type": "uint8"
        },
        {
          "indexed": false,
          "internalType": "uint8",
          "name": "feeProtocol1Old",
          "type": "uint8"
        },
        {
          "indexed": false,
          "internalType": "uint8",
          "name": "feeProtocol0New",
          "type": "uint8"
        },
        {
          "indexed": false,
          "internalType": "uint8",
          "name": "feeProtocol1New",
          "type": "uint8"
        }
      ],
      "name": "SetFeeProtocol",
      "type": "event"
    },
    {
      "anonymous": false,
      "inputs": [
        {
          "indexed": true,
          "internalType": "address",
          "name": "sender",
          "type": "address"
        },
        {
          "indexed": true,
          "internalType": "address",
          "name": "recipient",
          "type": "address"
        },
        {
          "indexed": false,
          "internalType": "int256",
          "name": "amount0",
          "type": "int256"
        },
        {
          "indexed": false,
          "internalType": "int256",
          "name": "amount1",
          "type": "int256"
        },
        {
          "indexed": false,
          "internalType": "uint160",
          "name": "sqrtPriceX96",
          "type": "uint160"
        },
        {
          "indexed": false,
          "internalType": "uint128",
          "name": "liquidity",
          "type": "uint128"
        },
        {
          "indexed": false,
          "internalType": "int24",
          "name": "tick",
          "type": "int24"
        }
      ],
      "name": "Swap",
      "type": "event"
    },
    {
      "inputs": [
        {
          "internalType": "int24",
          "name": "tickLower",
          "type": "int24"
        },
        {
          "internalType": "int24",
          "name": "tickUpper",
          "type": "int24"
        },
        {
          "internalType": "uint256",
          "name": "premium",
          "type": "uint256"
        },
        {
          "internalType": "uint256[]",
          "name": "liquidities",
          "type": "uint256[]"
        },
        {
          "internalType": "bool",
          "name": "isToken0",
          "type": "bool"
        }
      ],
      "name": "addPremiums",
      "outputs": [],
      "stateMutability": "nonpayable",
      "type": "function"
    },
    {
      "inputs": [
        {
          "internalType": "int24",
          "name": "borrowStart",
          "type": "int24"
        },
        {
          "internalType": "int24",
          "name": "borrowFinish",
          "type": "int24"
        },
        {
          "internalType": "uint128",
          "name": "amount",
          "type": "uint128"
        },
        {
          "internalType": "bool",
          "name": "startGreater",
          "type": "bool"
        }
      ],
      "name": "borrowUpdate",
      "outputs": [],
      "stateMutability": "nonpayable",
      "type": "function"
    },
    {
      "inputs": [
        {
          "internalType": "int24",
          "name": "",
          "type": "int24"
        }
      ],
      "name": "borrowedLiquidities",
      "outputs": [
        {
          "internalType": "uint128",
          "name": "",
          "type": "uint128"
        }
      ],
      "stateMutability": "view",
      "type": "function"
    },
    {
      "inputs": [
        {
          "internalType": "int24",
          "name": "",
          "type": "int24"
        }
      ],
      "name": "borrowedLiquidity",
      "outputs": [
        {
          "internalType": "int128",
          "name": "",
          "type": "int128"
        }
      ],
      "stateMutability": "view",
      "type": "function"
    },
    {
      "inputs": [
        {
          "internalType": "int24",
          "name": "tick",
          "type": "int24"
        },
        {
          "internalType": "int128",
          "name": "borrowedLiq",
          "type": "int128"
        },
        {
          "internalType": "bool",
          "name": "add",
          "type": "bool"
        }
      ],
      "name": "borrowedLiquidityModify",
      "outputs": [],
      "stateMutability": "nonpayable",
      "type": "function"
    },
    {
      "inputs": [
        {
          "internalType": "int24",
          "name": "tickLower",
          "type": "int24"
        },
        {
          "internalType": "int24",
          "name": "tickUpper",
          "type": "int24"
        },
        {
          "internalType": "uint128",
          "name": "amount",
          "type": "uint128"
        }
      ],
      "name": "burn",
      "outputs": [
        {
          "internalType": "uint256",
          "name": "amount0",
          "type": "uint256"
        },
        {
          "internalType": "uint256",
          "name": "amount1",
          "type": "uint256"
        }
      ],
      "stateMutability": "nonpayable",
      "type": "function"
    },
    {
      "inputs": [
        {
          "internalType": "address",
          "name": "recipient",
          "type": "address"
        },
        {
          "internalType": "int24",
          "name": "tickLower",
          "type": "int24"
        },
        {
          "internalType": "int24",
          "name": "tickUpper",
          "type": "int24"
        },
        {
          "internalType": "uint128",
          "name": "amount0Requested",
          "type": "uint128"
        },
        {
          "internalType": "uint128",
          "name": "amount1Requested",
          "type": "uint128"
        }
      ],
      "name": "collect",
      "outputs": [
        {
          "internalType": "uint128",
          "name": "amount0",
          "type": "uint128"
        },
        {
          "internalType": "uint128",
          "name": "amount1",
          "type": "uint128"
        }
      ],
      "stateMutability": "nonpayable",
      "type": "function"
    },
    {
      "inputs": [
        {
          "internalType": "address",
          "name": "recipient",
          "type": "address"
        },
        {
          "internalType": "uint128",
          "name": "amount0Requested",
          "type": "uint128"
        },
        {
          "internalType": "uint128",
          "name": "amount1Requested",
          "type": "uint128"
        }
      ],
      "name": "collectProtocol",
      "outputs": [
        {
          "internalType": "uint128",
          "name": "amount0",
          "type": "uint128"
        },
        {
          "internalType": "uint128",
          "name": "amount1",
          "type": "uint128"
        }
      ],
      "stateMutability": "nonpayable",
      "type": "function"
    },
    {
      "inputs": [],
      "name": "factory",
      "outputs": [
        {
          "internalType": "address",
          "name": "",
          "type": "address"
        }
      ],
      "stateMutability": "view",
      "type": "function"
    },
    {
      "inputs": [],
      "name": "fee",
      "outputs": [
        {
          "internalType": "uint24",
          "name": "",
          "type": "uint24"
        }
      ],
      "stateMutability": "view",
      "type": "function"
    },
    {
      "inputs": [],
      "name": "feeGrowthGlobal0X128",
      "outputs": [
        {
          "internalType": "uint256",
          "name": "",
          "type": "uint256"
        }
      ],
      "stateMutability": "view",
      "type": "function"
    },
    {
      "inputs": [],
      "name": "feeGrowthGlobal1X128",
      "outputs": [
        {
          "internalType": "uint256",
          "name": "",
          "type": "uint256"
        }
      ],
      "stateMutability": "view",
      "type": "function"
    },
    {
      "inputs": [
        {
          "internalType": "int24",
          "name": "startTick",
          "type": "int24"
        }
      ],
      "name": "flipBorrowTickOn",
      "outputs": [],
      "stateMutability": "nonpayable",
      "type": "function"
    },
    {
      "inputs": [
        {
          "internalType": "int24",
          "name": "startTick",
          "type": "int24"
        },
        {
          "internalType": "int24",
          "name": "tickSpacing",
          "type": "int24"
        }
      ],
      "name": "flipTickOn",
      "outputs": [],
      "stateMutability": "nonpayable",
      "type": "function"
    },
    {
      "inputs": [
        {
          "internalType": "int24",
          "name": "tick",
          "type": "int24"
        }
      ],
      "name": "getLiquidityNet",
      "outputs": [
        {
          "internalType": "int128",
          "name": "",
          "type": "int128"
        }
      ],
      "stateMutability": "view",
      "type": "function"
    },
    {
      "inputs": [
        {
          "internalType": "int24",
          "name": "tickLower",
          "type": "int24"
        },
        {
          "internalType": "int24",
          "name": "tickUpper",
          "type": "int24"
        }
      ],
      "name": "getPremiums",
      "outputs": [
        {
          "internalType": "uint256",
          "name": "premium0",
          "type": "uint256"
        },
        {
          "internalType": "uint256",
          "name": "premium1",
          "type": "uint256"
        }
      ],
      "stateMutability": "view",
      "type": "function"
    },
    {
      "inputs": [
        {
          "internalType": "uint160",
          "name": "sqrtPriceX96",
          "type": "uint160"
        }
      ],
      "name": "initialize",
      "outputs": [],
      "stateMutability": "nonpayable",
      "type": "function"
    },
    {
      "inputs": [],
      "name": "liquidity",
      "outputs": [
        {
          "internalType": "uint128",
          "name": "",
          "type": "uint128"
        }
      ],
      "stateMutability": "view",
      "type": "function"
    },
    {
      "inputs": [],
      "name": "maxLiquidityPerTick",
      "outputs": [
        {
          "internalType": "uint128",
          "name": "",
          "type": "uint128"
        }
      ],
      "stateMutability": "view",
      "type": "function"
    },
    {
      "inputs": [
        {
          "internalType": "address",
          "name": "recipient",
          "type": "address"
        },
        {
          "internalType": "int24",
          "name": "tickLower",
          "type": "int24"
        },
        {
          "internalType": "int24",
          "name": "tickUpper",
          "type": "int24"
        },
        {
          "internalType": "uint128",
          "name": "amount",
          "type": "uint128"
        },
        {
          "internalType": "bytes",
          "name": "data",
          "type": "bytes"
        }
      ],
      "name": "mint",
      "outputs": [
        {
          "internalType": "uint256",
          "name": "amount0",
          "type": "uint256"
        },
        {
          "internalType": "uint256",
          "name": "amount1",
          "type": "uint256"
        }
      ],
      "stateMutability": "nonpayable",
      "type": "function"
    },
    {
      "inputs": [
        {
          "internalType": "int24",
          "name": "tick",
          "type": "int24"
        },
        {
          "internalType": "int24",
          "name": "tickSpacing",
          "type": "int24"
        },
        {
          "internalType": "bool",
          "name": "zeroForOne",
          "type": "bool"
        }
      ],
      "name": "nextInitializedTickWithinOneWord",
      "outputs": [
        {
          "internalType": "int24",
          "name": "",
          "type": "int24"
        },
        {
          "internalType": "bool",
          "name": "",
          "type": "bool"
        }
      ],
      "stateMutability": "view",
      "type": "function"
    },
    {
      "inputs": [
        {
          "internalType": "uint256",
          "name": "",
          "type": "uint256"
        }
      ],
      "name": "observations",
      "outputs": [
        {
          "internalType": "uint32",
          "name": "blockTimestamp",
          "type": "uint32"
        },
        {
          "internalType": "int56",
          "name": "tickCumulative",
          "type": "int56"
        },
        {
          "internalType": "uint160",
          "name": "secondsPerLiquidityCumulativeX128",
          "type": "uint160"
        },
        {
          "internalType": "bool",
          "name": "initialized",
          "type": "bool"
        }
      ],
      "stateMutability": "view",
      "type": "function"
    },
    {
      "inputs": [
        {
          "internalType": "bytes32",
          "name": "",
          "type": "bytes32"
        }
      ],
      "name": "positions",
      "outputs": [
        {
          "internalType": "uint128",
          "name": "liquidity",
          "type": "uint128"
        },
        {
          "internalType": "uint256",
          "name": "feeGrowthInside0LastX128",
          "type": "uint256"
        },
        {
          "internalType": "uint256",
          "name": "feeGrowthInside1LastX128",
          "type": "uint256"
        },
        {
          "internalType": "uint128",
          "name": "tokensOwed0",
          "type": "uint128"
        },
        {
          "internalType": "uint128",
          "name": "tokensOwed1",
          "type": "uint128"
        }
      ],
      "stateMutability": "view",
      "type": "function"
    },
    {
      "inputs": [
        {
          "internalType": "int24",
          "name": "",
          "type": "int24"
        }
      ],
      "name": "premiums",
      "outputs": [
        {
          "internalType": "uint128",
          "name": "token0Premium",
          "type": "uint128"
        },
        {
          "internalType": "uint128",
          "name": "token1Premium",
          "type": "uint128"
        }
      ],
      "stateMutability": "view",
      "type": "function"
    },
    {
      "inputs": [],
      "name": "protocolFees",
      "outputs": [
        {
          "internalType": "uint128",
          "name": "token0",
          "type": "uint128"
        },
        {
          "internalType": "uint128",
          "name": "token1",
          "type": "uint128"
        }
      ],
      "stateMutability": "view",
      "type": "function"
    },
    {
      "inputs": [
        {
          "internalType": "uint8",
          "name": "feeProtocol0",
          "type": "uint8"
        },
        {
          "internalType": "uint8",
          "name": "feeProtocol1",
          "type": "uint8"
        }
      ],
      "name": "setFeeProtocol",
      "outputs": [],
      "stateMutability": "nonpayable",
      "type": "function"
    },
    {
      "inputs": [],
      "name": "slot0",
      "outputs": [
        {
          "internalType": "uint160",
          "name": "sqrtPriceX96",
          "type": "uint160"
        },
        {
          "internalType": "int24",
          "name": "tick",
          "type": "int24"
        },
        {
          "internalType": "uint16",
          "name": "observationIndex",
          "type": "uint16"
        },
        {
          "internalType": "uint16",
          "name": "observationCardinality",
          "type": "uint16"
        },
        {
          "internalType": "uint16",
          "name": "observationCardinalityNext",
          "type": "uint16"
        },
        {
          "internalType": "uint8",
          "name": "feeProtocol",
          "type": "uint8"
        },
        {
          "internalType": "bool",
          "name": "unlocked",
          "type": "bool"
        }
      ],
      "stateMutability": "view",
      "type": "function"
    },
    {
      "inputs": [
        {
          "internalType": "address",
          "name": "recipient",
          "type": "address"
        },
        {
          "internalType": "bool",
          "name": "zeroForOne",
          "type": "bool"
        },
        {
          "internalType": "int256",
          "name": "amountSpecified",
          "type": "int256"
        },
        {
          "internalType": "uint160",
          "name": "sqrtPriceLimitX96",
          "type": "uint160"
        },
        {
          "internalType": "bytes",
          "name": "data",
          "type": "bytes"
        }
      ],
      "name": "swap",
      "outputs": [
        {
          "internalType": "int256",
          "name": "amount0",
          "type": "int256"
        },
        {
          "internalType": "int256",
          "name": "amount1",
          "type": "int256"
        }
      ],
      "stateMutability": "nonpayable",
      "type": "function"
    },
    {
      "inputs": [
        {
          "internalType": "int16",
          "name": "",
          "type": "int16"
        }
      ],
      "name": "tickBitmap",
      "outputs": [
        {
          "internalType": "uint256",
          "name": "",
          "type": "uint256"
        }
      ],
      "stateMutability": "view",
      "type": "function"
    },
    {
      "inputs": [],
      "name": "tickSpacing",
      "outputs": [
        {
          "internalType": "int24",
          "name": "",
          "type": "int24"
        }
      ],
      "stateMutability": "view",
      "type": "function"
    },
    {
      "inputs": [
        {
          "internalType": "int24",
          "name": "",
          "type": "int24"
        }
      ],
      "name": "ticks",
      "outputs": [
        {
          "internalType": "uint128",
          "name": "liquidityGross",
          "type": "uint128"
        },
        {
          "internalType": "int128",
          "name": "liquidityNet",
          "type": "int128"
        },
        {
          "internalType": "uint256",
          "name": "feeGrowthOutside0X128",
          "type": "uint256"
        },
        {
          "internalType": "uint256",
          "name": "feeGrowthOutside1X128",
          "type": "uint256"
        },
        {
          "internalType": "int56",
          "name": "tickCumulativeOutside",
          "type": "int56"
        },
        {
          "internalType": "uint160",
          "name": "secondsPerLiquidityOutsideX128",
          "type": "uint160"
        },
        {
          "internalType": "uint32",
          "name": "secondsOutside",
          "type": "uint32"
        },
        {
          "internalType": "bool",
          "name": "initialized",
          "type": "bool"
        },
        {
          "internalType": "bool",
          "name": "borrowedTick",
          "type": "bool"
        }
      ],
      "stateMutability": "view",
      "type": "function"
    },
    {
      "inputs": [],
      "name": "token0",
      "outputs": [
        {
          "internalType": "address",
          "name": "",
          "type": "address"
        }
      ],
      "stateMutability": "view",
      "type": "function"
    },
    {
      "inputs": [],
      "name": "token1",
      "outputs": [
        {
          "internalType": "address",
          "name": "",
          "type": "address"
        }
      ],
      "stateMutability": "view",
      "type": "function"
    },
    {
      "inputs": [
        {
          "internalType": "bool",
          "name": "zeroForOne",
          "type": "bool"
        },
        {
          "internalType": "uint256",
          "name": "amountSpecified",
          "type": "uint256"
        }
      ],
      "name": "transferToManager",
      "outputs": [],
      "stateMutability": "nonpayable",
      "type": "function"
    }
  ],
  "bytecode": {
    "object": "0x6101606040523480156200001257600080fd5b503060805260408051630890357360e41b81529051600091339163890357309160048082019260a0929091908290030181865afa15801562000058573d6000803e3d6000fd5b505050506040513d601f19601f820116820180604052508101906200007e919062000186565b62ffffff91909116610100526001600160a01b0391821660e05291811660c0529190911660a052600281900b610120529050620000c781620000db602090811b6200258017901c565b6001600160801b0316610140525062000220565b60008082600281900b620d89e71981620000f957620000f96200020a565b05029050600083600281900b620d89e8816200011957620001196200020a565b0502905060008460020b83830360020b816200013957620001396200020a565b0560010190508062ffffff166001600160801b038016816200015f576200015f6200020a565b0495945050505050565b80516001600160a01b03811681146200018157600080fd5b919050565b600080600080600060a086880312156200019f57600080fd5b620001aa8662000169565b9450620001ba6020870162000169565b9350620001ca6040870162000169565b9250606086015162ffffff81168114620001e357600080fd5b8092505060808601518060020b8114620001fc57600080fd5b809150509295509295909350565b634e487b7160e01b600052601260045260246000fd5b60805160a05160c05160e0516101005161012051610140516155956200031560003960008181610513015281816141e0015261421701526000818161063601528181610b4701528181611f940152818161221301528181612276015281816123b60152818161426901526142b90152600081816106aa0152610c45015260008181610670015281816111fa015281816118650152818161193e01528181611d580152613670015260008181610210015281816112e5015281816117ff0152818161191801528181611cd201526135720152600081816105b1015281816119b90152611b8b0152600061260d01526155956000f3fe608060405234801561001057600080fd5b50600436106102065760003560e01c806385b667291161011a578063d21220a7116100ad578063ef2cdce41161007c578063ef2cdce4146106f3578063f305839914610720578063f30dba9314610729578063f38e671d14610810578063f637731d1461082357600080fd5b8063d21220a71461066b578063ddc96b4a14610692578063ddca3f43146106a5578063ee5b00e0146106e057600080fd5b8063c504ae65116100e9578063c504ae65146105d3578063c9de624f1461060b578063caf75b861461061e578063d0c93a7c1461063157600080fd5b806385b6672914610573578063a34123a714610586578063b4718f9314610599578063c45a0155146105ac57600080fd5b80633c8a7d8d1161019d5780635339c2961161016c5780635339c296146104db5780636c656efc146104fb57806370cf754a1461050e5780638206a4d11461053557806383776abc1461054857600080fd5b80633c8a7d8d1461041d57806346141319146104305780634f1eb3d814610447578063514ea4bf1461045a57600080fd5b806322e24ce9116101d957806322e24ce9146102e0578063231adfa8146102f5578063252c09d71461032b5780633850c7bd1461037857600080fd5b80630dfe16811461020b578063128acb081461024f5780631a686502146102775780631ad8b03b146102a2575b600080fd5b6102327f000000000000000000000000000000000000000000000000000000000000000081565b6040516001600160a01b0390911681526020015b60405180910390f35b61026261025d366004614d3c565b610836565b60408051928352602083019190915201610246565b60045461028a906001600160801b031681565b6040516001600160801b039091168152602001610246565b6003546102c0906001600160801b0380821691600160801b90041682565b604080516001600160801b03938416815292909116602083015201610246565b6102f36102ee366004614dd3565b61145a565b005b6102c0610303366004614dd3565b62010009602052600090815260409020546001600160801b0380821691600160801b90041682565b61033e610339366004614dee565b611485565b6040805163ffffffff909516855260069390930b60208501526001600160a01b039091169183019190915215156060820152608001610246565b6000546103cc906001600160a01b03811690600160a01b810460020b9061ffff600160b81b8204811691600160c81b8104821691600160d81b8204169060ff600160e81b8204811691600160f01b90041687565b604080516001600160a01b03909816885260029690960b602088015261ffff94851695870195909552918316606086015291909116608084015260ff1660a0830152151560c082015260e001610246565b61026261042b366004614e1e565b6114ca565b61043960025481565b604051908152602001610246565b6102c0610455366004614e6c565b61170f565b6104a5610468366004614dee565b60076020526000908152604090208054600182015460028301546003909301546001600160801b0392831693919281811691600160801b90041685565b604080516001600160801b039687168152602081019590955284019290925283166060830152909116608082015260a001610246565b6104396104e9366004614ed3565b60066020526000908152604090205481565b6102f3610509366004614ef6565b61190e565b61028a7f000000000000000000000000000000000000000000000000000000000000000081565b6102f3610543366004614f33565b611969565b61028a610556366004614dd3565b62010008602052600090815260409020546001600160801b031681565b6102c0610581366004614f66565b611b38565b610262610594366004614fab565b611dee565b6102f36105a7366004614fd7565b611f46565b6102327f000000000000000000000000000000000000000000000000000000000000000081565b6105f86105e1366004614dd3565b6201000760205260009081526040902054600f0b81565b604051600f9190910b8152602001610246565b6102f3610619366004615001565b611f90565b6102f361062c366004615057565b61211b565b6106587f000000000000000000000000000000000000000000000000000000000000000081565b60405160029190910b8152602001610246565b6102327f000000000000000000000000000000000000000000000000000000000000000081565b6105f86106a0366004614dd3565b61223c565b6106cc7f000000000000000000000000000000000000000000000000000000000000000081565b60405162ffffff9091168152602001610246565b6102f36106ee3660046150bc565b612261565b6107066107013660046151ac565b612394565b6040805160029390930b8352901515602083015201610246565b61043960015481565b6107a9610737366004614dd3565b600560205260009081526040902080546001820154600283015460038401546004909401546001600160801b03841694600160801b909404600f0b93600681900b916001600160a01b03600160381b8304169163ffffffff600160d81b8204169160ff600160f81b9092048216911689565b604080516001600160801b03909a168a52600f9890980b60208a015296880195909552606087019390935260069190910b60808601526001600160a01b031660a085015263ffffffff1660c0840152151560e0830152151561010082015261012001610246565b61026261081e366004614fd7565b6123b0565b6102f36108313660046151d8565b612432565b600080610841612602565b8560000361087b5760405162461bcd60e51b8152602060048201526002602482015261415360f01b60448201526064015b60405180910390fd5b6040805160e0810182526000546001600160a01b0381168252600160a01b810460020b602083015261ffff600160b81b8204811693830193909352600160c81b810483166060830152600160d81b8104909216608082015260ff600160e81b8304811660a0830152600160f01b909204909116151560c082018190526109135760405162461bcd60e51b8152600401610872906151f5565b8761095e5780600001516001600160a01b0316866001600160a01b0316118015610959575073fffd8963efd1fc6a506488495d951d5263988d266001600160a01b038716105b610990565b80600001516001600160a01b0316866001600160a01b031610801561099057506401000276a36001600160a01b038716115b6109c25760405162461bcd60e51b815260206004820152600360248201526214d41360ea1b6044820152606401610872565b6000805460ff60f01b191681556040805160c08101909152808a6109f15760048460a0015160ff16901c610a02565b60108460a00151610a029190615228565b60ff1681526004546001600160801b031660208201526040014263ffffffff168152602001600060060b815260200160006001600160a01b031681526020016000151581525090506000808913905060006040518060e001604052808b81526020016000815260200185600001516001600160a01b03168152602001856020015160020b81526020018c610a9857600254610a9c565b6001545b815260200160006001600160801b0316815260200184602001516001600160801b031681525090505b805115801590610aeb5750886001600160a01b031681604001516001600160a01b031614155b15610ff0576040805160e081018252600080825260208201819052918101829052606081018290526080810182905260a0810182905260c081019190915260408201516001600160a01b031681526060820151610b6c906006907f00000000000000000000000000000000000000000000000000000000000000008f612639565b1515604083015260020b60208201819052620d89e7191315610b9757620d89e7196020820152610bcb565b610ba4620d89e719615260565b60020b816020015160020b1315610bcb57610bc2620d89e719615260565b60020b60208201525b610bd8816020015161277b565b6001600160a01b031660608201526040820151610c69908d610c12578b6001600160a01b031683606001516001600160a01b031611610c2c565b8b6001600160a01b031683606001516001600160a01b0316105b610c3a578260600151610c3c565b8b5b60c085015185517f0000000000000000000000000000000000000000000000000000000000000000612a9d565b60c085015260a084015260808301526001600160a01b031660408301528215610ccb57610c9f8160c00151826080015101612c8f565b825103825260a0810151610cb290612c8f565b82602001818151610cc39190615282565b905250610d0e565b610cd88160a00151612c8f565b825101825260c08101516080820151610cf991610cf4916152a9565b612c8f565b82602001818151610d0a91906152bc565b9052505b835160ff1615610d5a576000846000015160ff168260c0015181610d3457610d34615212565b60c0840180519290910491829003905260a0840180519091016001600160801b03169052505b60c08201516001600160801b031615610d9957610d8d8160c00151600160801b8460c001516001600160801b0316612ca5565b60808301805190910190525b80606001516001600160a01b031682604001516001600160a01b031603610fb357806040015115610f8e578360a00151610e1e57610e00846040015160008760200151886040015188602001518a606001516008612d58909695949392919063ffffffff16565b6001600160a01b0316608086015260060b6060850152600160a08501525b6000610f3a82602001518e610e3557600154610e3b565b84608001515b8f610e4a578560800151610e4e565b6002545b608089015160608a01516040808c0151600296870b6000908152600560205291909120600181018054909603909555948401805490930390925560038301805463ffffffff600160d81b66ffffffffffffff196001600160a01b03600160381b8086048216909703169095029485166001600160d81b031984161766ffffffffffffff670100000000000000600160d81b03198516871760060b9097039690961695861781900482169097031690950266ffffffffffffff63ffffffff60d81b0119929092166001600160f81b031990951694909417919091171790915554600160801b9004600f0b90565b60208084015160020b6000908152620100079091526040902054909150610f6490600f0b826152e4565b90508c15610f70576000035b610f7e8360c0015182612f0f565b6001600160801b031660c0840152505b8b610f9d578060200151610fa6565b60018160200151035b60020b6060830152610fea565b80600001516001600160a01b031682604001516001600160a01b031614610fea57610fe18260400151612fcf565b60020b60608301525b50610ac5565b836020015160020b816060015160020b146110ba5760008061103e86604001518660400151886020015188602001518a606001518b6080015160086132d1909695949392919063ffffffff16565b604085015160608601516000805463ffffffff60b81b1916600160c81b61ffff9586160261ffff60b81b191617600160b81b9590941694909402929092176001600160b81b031916600160a01b62ffffff909316929092026001600160a01b031916919091176001600160a01b03909116179055506110df9050565b6040810151600080546001600160a01b0319166001600160a01b039092169190911790555b8060c001516001600160801b031683602001516001600160801b0316146111255760c0810151600480546001600160801b0319166001600160801b039092169190911790555b8a1561117557608081015160015560a08101516001600160801b0316156111705760a0810151600380546001600160801b031981166001600160801b03918216909301169190911790555b6111bb565b608081015160025560a08101516001600160801b0316156111bb5760a0810151600380546001600160801b03808216600160801b92839004821690940116029190911790555b8115158b1515146111d457602081015181518b036111e1565b80600001518a0381602001515b90965094508a156112d7576000851215611223576112237f00000000000000000000000000000000000000000000000000000000000000008d87600003613458565b600061122d613558565b60405163fa461e3360e01b8152909150339063fa461e3390611259908a908a908e908e9060040161533a565b600060405180830381600087803b15801561127357600080fd5b505af1158015611287573d6000803e3d6000fd5b50505050611293613558565b61129d88836152a9565b11156112d15760405162461bcd60e51b815260206004820152600360248201526249494160e81b6044820152606401610872565b506113be565b600086121561130e5761130e7f00000000000000000000000000000000000000000000000000000000000000008d88600003613458565b6000611318613656565b60405163fa461e3360e01b8152909150339063fa461e3390611344908a908a908e908e9060040161533a565b600060405180830381600087803b15801561135e57600080fd5b505af1158015611372573d6000803e3d6000fd5b5050505061137e613656565b61138882886136a2565b11156113bc5760405162461bcd60e51b815260206004820152600360248201526249494160e81b6044820152606401610872565b505b60408082015160c083015160608085015184518b8152602081018b90526001600160a01b03948516958101959095526001600160801b039092169084015260020b60808301528d169033907fc42079f94a6350d7e6235f29174924f928cc2ac818eb64fed8004e115fbcca679060a00160405180910390a350506000805460ff60f01b1916600160f01b17905550919890975095505050505050565b61148260058260020b600090815260209190915260409020600401805460ff19166001179055565b50565b60088161ffff811061149657600080fd5b015463ffffffff81169150600160201b810460060b90600160581b81046001600160a01b031690600160f81b900460ff1684565b600080548190600160f01b900460ff166114f65760405162461bcd60e51b8152600401610872906151f5565b6000805460ff60f01b191690556001600160801b03851661151657600080fd5b60008061155e60405180608001604052808c6001600160a01b031681526020018b60020b81526020018a60020b81526020016115548a600f0b6136bd565b600f0b90526136d3565b925092505081935080925060008060008611156115805761157d613558565b91505b84156115915761158e613656565b90505b60405163d348799760e01b8152339063d3487997906115ba90899089908d908d9060040161533a565b600060405180830381600087803b1580156115d457600080fd5b505af11580156115e8573d6000803e3d6000fd5b50505050600086111561163a576115fd613558565b61160783886136a2565b111561163a5760405162461bcd60e51b815260206004820152600260248201526104d360f41b6044820152606401610872565b841561168557611648613656565b61165282876136a2565b11156116855760405162461bcd60e51b81526020600482015260026024820152614d3160f01b6044820152606401610872565b604080513381526001600160801b038b1660208201529081018790526060810186905260028b810b91908d900b906001600160a01b038f16907f7a53080ba414158be7ec69b987b5fb7d07dee101fe85488f0853ae16239d0bde9060800160405180910390a450506000805460ff60f01b1916600160f01b17905550919890975095505050505050565b600080548190600160f01b900460ff1661173b5760405162461bcd60e51b8152600401610872906151f5565b6000805460ff60f01b191681556117556007338989613908565b60038101549091506001600160801b03908116908616116117765784611785565b60038101546001600160801b03165b60038201549093506001600160801b03600160801b9091048116908516116117ad57836117c3565b6003810154600160801b90046001600160801b03165b91506001600160801b03831615611828576003810180546001600160801b031981166001600160801b03918216869003821617909155611828907f0000000000000000000000000000000000000000000000000000000000000000908a908616613458565b6001600160801b0382161561188e576003810180546001600160801b03600160801b80830482168690038216029181169190911790915561188e907f0000000000000000000000000000000000000000000000000000000000000000908a908516613458565b604080516001600160a01b038a1681526001600160801b0385811660208301528416818301529051600288810b92908a900b9133917f70935338e69775456a85ddef226c395fb668b63fa0115f5f20610b388e6ca9c0919081900360600190a4506000805460ff60f01b1916600160f01b17905590969095509350505050565b6119658261193c577f000000000000000000000000000000000000000000000000000000000000000061195e565b7f00000000000000000000000000000000000000000000000000000000000000005b3383613458565b5050565b600054600160f01b900460ff166119925760405162461bcd60e51b8152600401610872906151f5565b6000805460ff60f01b1916905560408051638da5cb5b60e01b815290516001600160a01b037f00000000000000000000000000000000000000000000000000000000000000001691638da5cb5b9160048083019260209291908290030181865afa158015611a04573d6000803e3d6000fd5b505050506040513d601f19601f82011682018060405250810190611a289190615364565b6001600160a01b0316336001600160a01b031614611a4557600080fd5b60ff82161580611a68575060048260ff1610158015611a685750600a8260ff1611155b8015611a92575060ff81161580611a92575060048160ff1610158015611a925750600a8160ff1611155b611a9b57600080fd5b60008054610ff0600484901b16840160ff908116600160e81b90810260ff60e81b19841617909355919004167f973d8d92bb299f4af6ce49b52a8adb85ae46b9f214c4c4fc06ac77401237b1336010826040805160ff9390920683168252600f600486901c16602083015286831690820152908416606082015260800160405180910390a150506000805460ff60f01b1916600160f01b17905550565b600080548190600160f01b900460ff16611b645760405162461bcd60e51b8152600401610872906151f5565b6000805460ff60f01b1916905560408051638da5cb5b60e01b815290516001600160a01b037f00000000000000000000000000000000000000000000000000000000000000001691638da5cb5b9160048083019260209291908290030181865afa158015611bd6573d6000803e3d6000fd5b505050506040513d601f19601f82011682018060405250810190611bfa9190615364565b6001600160a01b0316336001600160a01b031614611c1757600080fd5b6003546001600160801b0390811690851611611c335783611c40565b6003546001600160801b03165b6003549092506001600160801b03600160801b909104811690841611611c665782611c7a565b600354600160801b90046001600160801b03165b90506001600160801b03821615611cfb576003546001600160801b0390811690831603611ca957600019909101905b600380546001600160801b031981166001600160801b03918216859003821617909155611cfb907f00000000000000000000000000000000000000000000000000000000000000009087908516613458565b6001600160801b03811615611d81576003546001600160801b03600160801b909104811690821603611d2c57600019015b600380546001600160801b03600160801b808304821685900382160291811691909117909155611d81907f00000000000000000000000000000000000000000000000000000000000000009087908416613458565b604080516001600160801b038085168252831660208201526001600160a01b0387169133917f596b573906218d3411850b26a6b437d6c4522fdb43d2d2386263f86d50b8b151910160405180910390a36000805460ff60f01b1916600160f01b1790559094909350915050565b600080548190600160f01b900460ff16611e1a5760405162461bcd60e51b8152600401610872906151f5565b6000805460ff60f01b1916815560408051608081018252338152600288810b602083015287900b9181019190915281908190611e739060608101611e666001600160801b038a166136bd565b600003600f0b90526136d3565b9250925092508160000394508060000393506000851180611e945750600084115b15611ecf576003830180546001600160801b0380821688018116600160801b92839004821688019091169091026001600160801b0319161790555b604080516001600160801b038816815260208101879052908101859052600288810b91908a900b9033907f0c396cd989a39f4459b5fa1aed6a9a8dcdbc45908acfd67e028cd568da98982c9060600160405180910390a450506000805460ff60f01b1916600160f01b179055509094909350915050565b600080611f6d6001611f588587615381565b611f6291906153a6565b600690856001612639565b915091508360020b8260020b14611f8a57611f8a60068585613965565b50505050565b60007f00000000000000000000000000000000000000000000000000000000000000008183611fd35781611fc488886153a6565b611fce91906153cb565b611fe8565b81611fde87896153a6565b611fe891906153cb565b90508315612084575b8060020b8360020b121561207f57846201000860006120108587615405565b61201a908a615381565b60020b81526020810191909152604001600090812080549091906120489084906001600160801b0316615425565b92506101000a8154816001600160801b0302191690836001600160801b03160217905550828061207790615445565b935050611ff1565b612112565b8060020b8360020b121561211257846201000860006120a38587615405565b6120ad908b615381565b60020b81526020810191909152604001600090812080549091906120db9084906001600160801b0316615425565b92506101000a8154816001600160801b0302191690836001600160801b03160217905550828061210a90615445565b935050612084565b50505050505050565b801561217557600283900b600090815262010007602052604081208054849290612149908490600f0b615466565b92506101000a8154816001600160801b030219169083600f0b6001600160801b031602179055506121c5565b600283900b60009081526201000760205260408120805484929061219d908490600f0b6152e4565b92506101000a8154816001600160801b030219169083600f0b6001600160801b031602179055505b600283900b6000908152620100076020526040902054600f0b1580156122065750600283900b600090815260056020526040902054600160801b9004600f0b155b15612237576122376006847f0000000000000000000000000000000000000000000000000000000000000000613965565b505050565b600281900b600090815260056020526040812054600160801b9004600f0b5b92915050565b8360020b8560020b1315612273579293925b847f000000000000000000000000000000000000000000000000000000000000000060005b8660020b8360020b121561238a5783612322576122e56122e0600160801b8784815181106122c8576122c8615493565b602002602001015189612ca59092919063ffffffff16565b6139e2565b600284900b6000908152620100096020526040902080546001600160801b031981166001600160801b039182169390930116919091179055612379565b61233f6122e0600160801b8784815181106122c8576122c8615493565b600284900b6000908152620100096020526040902080546001600160801b03600160801b8083048216909401811690930292169190911790555b6123838284615381565b9250612298565b5050505050505050565b6000806123a46006868686612639565b91509150935093915050565b600080837f00000000000000000000000000000000000000000000000000000000000000005b8460020b8260020b121561242957600282900b60009081526201000960205260409020546001600160801b038082169590950194600160801b9091041692909201916124228183615381565b91506123d6565b50509250929050565b6000546001600160a01b0316156124705760405162461bcd60e51b8152602060048201526002602482015261414960f01b6044820152606401610872565b600061247b82612fcf565b905060008061248b6008426139f8565b6040805160e0810182526001600160a01b038816808252600288900b6020808401829052600084860181905261ffff888116606087018190529088166080870181905260a08701839052600160c0909701969096528154600160f01b6001600160b81b03199091168617600160a01b62ffffff8f16021765ffffffffffff60b81b1916600160c81b90920261ffff60d81b191691909117600160d81b9096029590951761ffff60e81b1916949094179093558351918252918101919091529294509092507f98636036cb66a9c19a37435efc1e90142190214e8abeb821bdba3f2990dd4c95910160405180910390a150505050565b60008082600281900b620d89e7198161259b5761259b615212565b05029050600083600281900b620d89e8816125b8576125b8615212565b0502905060008460020b83830360020b816125d5576125d5615212565b0560010190508062ffffff166001600160801b038016816125f8576125f8615212565b0495945050505050565b306001600160a01b037f0000000000000000000000000000000000000000000000000000000000000000161461263757600080fd5b565b60008060008460020b8660020b8161265357612653615212565b05905060008660020b12801561268057508460020b8660020b8161267957612679615212565b0760020b15155b1561268a57600019015b83156126fe57600281900b600881901d600181810b600090815260208b9052604090205461010090930760ff81169190911b800160001901928316801515955091929091856126e057888360ff168603026126f3565b886126ea82613a39565b840360ff168603025b965050505050612771565b600181810160020b600881901d80830b600090815260208b9052604090205461010090920760ff81169390931b60001901199182168015159550909291908561275457888360ff0360ff1686600101010261276a565b888361275f83613ad8565b0360ff168660010101025b9650505050505b5094509492505050565b60008060008360020b12612792578260020b61279a565b8260020b6000035b9050620d89e88111156127c0576040516315e4079d60e11b815260040160405180910390fd5b6000816001166000036127d757600160801b6127e9565b6ffffcb933bd6fad37aa2d162d1a5940015b70ffffffffffffffffffffffffffffffffff169050600282161561281d576ffff97272373d413259a46990580e213a0260801c5b600482161561283c576ffff2e50f5f656932ef12357cf3c7fdcc0260801c5b600882161561285b576fffe5caca7e10e4e61c3624eaa0941cd00260801c5b601082161561287a576fffcb9843d60f6159c9db58835c9266440260801c5b6020821615612899576fff973b41fa98c081472e6896dfb254c00260801c5b60408216156128b8576fff2ea16466c96a3843ec78b326b528610260801c5b60808216156128d7576ffe5dee046a99a2a811c461f1969c30530260801c5b6101008216156128f7576ffcbe86c7900a88aedcffc83b479aa3a40260801c5b610200821615612917576ff987a7253ac413176f2b074cf7815e540260801c5b610400821615612937576ff3392b0822b70005940c7a398e4b70f30260801c5b610800821615612957576fe7159475a2c29b7443b29c7fa6e889d90260801c5b611000821615612977576fd097f3bdfd2022b8845ad8f792aa58250260801c5b612000821615612997576fa9f746462d870fdf8a65dc1f90e061e50260801c5b6140008216156129b7576f70d869a156d2a1b890bb3df62baf32f70260801c5b6180008216156129d7576f31be135f97d08fd981231505542fcfa60260801c5b620100008216156129f8576f09aa508b5b7a84e1c677de54f3e99bc90260801c5b62020000821615612a18576e5d6af8dedb81196699c329225ee6040260801c5b62040000821615612a37576d2216e584f5fa1ea926041bedfe980260801c5b62080000821615612a54576b048a170391f7dc42444e8fa20260801c5b60008460020b1315612a75578060001981612a7157612a71615212565b0490505b600160201b810615612a88576001612a8b565b60005b60ff16602082901c0192505050919050565b60008080806001600160a01b03808916908a161015818712801590612b22576000612ad68989620f42400362ffffff16620f4240612ca5565b905082612aef57612aea8c8c8c6001613bc2565b612afc565b612afc8b8d8c6001613c3d565b9550858110612b0d578a9650612b1c565b612b198c8b8386613cf4565b96505b50612b6c565b81612b3957612b348b8b8b6000613c3d565b612b46565b612b468a8c8b6000613bc2565b9350838860000310612b5a57899550612b6c565b612b698b8a8a60000385613d40565b95505b6001600160a01b038a8116908716148215612bcf57808015612b8b5750815b612ba157612b9c878d8c6001613c3d565b612ba3565b855b9550808015612bb0575081155b612bc657612bc1878d8c6000613bc2565b612bc8565b845b9450612c19565b808015612bd95750815b612bef57612bea8c888c6001613bc2565b612bf1565b855b9550808015612bfe575081155b612c1457612c0f8c888c6000613c3d565b612c16565b845b94505b81158015612c2957508860000385115b15612c35578860000394505b818015612c5457508a6001600160a01b0316876001600160a01b031614155b15612c63578589039350612c80565b612c7d868962ffffff168a620f42400362ffffff16613d8c565b93505b50505095509550955095915050565b6000600160ff1b8210612ca157600080fd5b5090565b6000808060001985870985870292508281108382030391505080600003612cde5760008411612cd357600080fd5b508290049050612d51565b808411612cea57600080fd5b6000848688096000868103871696879004966002600389028118808a02820302808a02820302808a02820302808a02820302808a02820302808a02909103029181900381900460010186841190950394909402919094039290920491909117919091029150505b9392505050565b6000808663ffffffff16600003612e01576000898661ffff1661ffff8110612d8257612d82615493565b60408051608081018252919092015463ffffffff808216808452600160201b830460060b6020850152600160581b83046001600160a01b031694840194909452600160f81b90910460ff16151560608301529092508a1614612ded57612dea818a8988613dcc565b90505b806020015181604001519250925050612f03565b868803600080612e168c8c858c8c8c8c613e91565b91509150816000015163ffffffff168363ffffffff1603612e47578160200151826040015194509450505050612f03565b806000015163ffffffff168363ffffffff1603612e74578060200151816040015194509450505050612f03565b60008260000151826000015103905060008360000151850390508063ffffffff168263ffffffff1660060b856020015185602001510360060b81612eba57612eba615212565b05028460200151018263ffffffff168263ffffffff1686604001518660400151036001600160a01b03160281612ef257612ef2615212565b048560400151019650965050505050505b97509795505050505050565b60008082600f0b1215612f7c576001600160801b038316612f2f836154a9565b612f3990856154c6565b9150816001600160801b031610612f775760405162461bcd60e51b81526020600482015260026024820152614c5360f01b6044820152606401610872565b61225b565b6001600160801b038316612f908385615425565b9150816001600160801b0316101561225b5760405162461bcd60e51b81526020600482015260026024820152614c4160f01b6044820152606401610872565b60006401000276a36001600160a01b0383161080159061300b575073fffd8963efd1fc6a506488495d951d5263988d266001600160a01b038316105b613028576040516324c070df60e11b815260040160405180910390fd5b640100000000600160c01b03602083901b166001600160801b03811160071b81811c67ffffffffffffffff811160061b90811c63ffffffff811160051b90811c61ffff811160041b90811c60ff8111600390811b91821c600f811160021b90811c918211600190811b92831c979088119617909417909217179091171717608081106130bc57607f810383901c91506130c6565b80607f0383901b91505b908002607f81811c60ff83811c9190911c800280831c81831c1c800280841c81841c1c800280851c81851c1c800280861c81861c1c800280871c81871c1c800280881c81881c1c800280891c81891c1c8002808a1c818a1c1c8002808b1c818b1c1c8002808c1c818c1c1c8002808d1c818d1c1c8002808e1c9c81901c9c909c1c80029c8d901c9e9d607f198f0160401b60c09190911c678000000000000000161760c19b909b1c674000000000000000169a909a1760c29990991c672000000000000000169890981760c39790971c671000000000000000169690961760c49590951c670800000000000000169490941760c59390931c670400000000000000169290921760c69190911c670200000000000000161760c79190911c600160381b161760c89190911c6680000000000000161760c99190911c6640000000000000161760ca9190911c6620000000000000161760cb9190911c6610000000000000161760cc9190911c6608000000000000161760cd9190911c66040000000000001617693627a301d71055774c8581026f028f6481ab7f045a5af012a19d003aa9198101608090811d906fdb2df09e81959a81455e260799a0632f8301901d600281810b9083900b146132c257886001600160a01b03166132a78261277b565b6001600160a01b031611156132bc57816132c4565b806132c4565b815b9998505050505050505050565b6000806000898961ffff1661ffff81106132ed576132ed615493565b60408051608081018252919092015463ffffffff808216808452600160201b830460060b6020850152600160581b83046001600160a01b031694840194909452600160f81b90910460ff1615156060830152909250891690036133565788859250925050612f03565b8461ffff168461ffff1611801561337757506001850361ffff168961ffff16145b1561338457839150613388565b8491505b8161ffff168960010161ffff16816133a2576133a2615212565b0692506133b181898989613dcc565b8a8461ffff1661ffff81106133c8576133c8615493565b825191018054602084015160408501516060909501511515600160f81b026001600160f81b036001600160a01b03909616600160581b02959095166affffffffffffffffffffff66ffffffffffffff909216600160201b026affffffffffffffffffffff1990931663ffffffff909516949094179190911716919091179190911790555097509795505050505050565b604080516001600160a01b038481166024830152604480830185905283518084039091018152606490920183526020820180516001600160e01b031663a9059cbb60e01b17905291516000928392908716916134b491906154e6565b6000604051808303816000865af19150503d80600081146134f1576040519150601f19603f3d011682016040523d82523d6000602084013e6134f6565b606091505b50915091508180156135205750805115806135205750808060200190518101906135209190615515565b6135515760405162461bcd60e51b81526020600482015260026024820152612a2360f11b6044820152606401610872565b5050505050565b604051306024820152600090819081906001600160a01b037f000000000000000000000000000000000000000000000000000000000000000016906370a0823160e01b906044015b60408051601f198184030181529181526020820180516001600160e01b03166001600160e01b03199094169390931790925290516135de91906154e6565b600060405180830381855afa9150503d8060008114613619576040519150601f19603f3d011682016040523d82523d6000602084013e61361e565b606091505b509150915081801561363257506020815110155b61363b57600080fd5b8080602001905181019061364f9190615532565b9250505090565b604051306024820152600090819081906001600160a01b037f000000000000000000000000000000000000000000000000000000000000000016906370a0823160e01b906044016135a0565b6000826136af83826152a9565b915081101561225b57600080fd5b80600f81900b81146136ce57600080fd5b919050565b60008060006136e0612602565b6136f28460200151856040015161409d565b6040805160e0810182526000546001600160a01b0381168252600160a01b810460020b602080840182905261ffff600160b81b8404811685870152600160c81b84048116606080870191909152600160d81b8504909116608086015260ff600160e81b8504811660a0870152600160f01b909404909316151560c085015288519089015194890151928901519394613790949193909290919061415e565b93508460600151600f0b60001461390057846020015160020b816020015160020b12156137e5576137de6137c7866020015161277b565b6137d4876040015161277b565b87606001516143aa565b9250613900565b846040015160020b816020015160020b12156138d65760045460408201516001600160801b0390911690613830904260208501516060860151608087015160089493929187916132d1565b6000805463ffffffff60b81b1916600160c81b61ffff9384160261ffff60b81b191617600160b81b93909216929092021790558151604087015161388291906138789061277b565b88606001516143aa565b93506138a0613894876020015161277b565b835160608901516143e9565b92506138b0818760600151612f0f565b600480546001600160801b0319166001600160801b039290921691909117905550613900565b6138fd6138e6866020015161277b565b6138f3876040015161277b565b87606001516143e9565b91505b509193909250565b6040805160609490941b6bffffffffffffffffffffffff191660208086019190915260e893841b60348601529190921b60378401528151601a818503018152603a9093018252825192810192909220600090815292909152902090565b8060020b8260020b8161397a5761397a615212565b0760020b1561398857600080fd5b6000806139b68360020b8560020b816139a3576139a3615212565b0560020b600881901d9161010090910790565b600191820b60009081526020979097526040909620805460ff9097169190911b90951890945550505050565b806001600160801b03811681146136ce57600080fd5b6040805160808101825263ffffffff83168082526000602083018190529282019290925260016060909101819052600160f81b9091178355805b9250929050565b6000808211613a4757600080fd5b600160801b8210613a5a57608091821c91015b680100000000000000008210613a7257604091821c91015b600160201b8210613a8557602091821c91015b620100008210613a9757601091821c91015b6101008210613aa857600891821c91015b60108210613ab857600491821c91015b60048210613ac857600291821c91015b600282106136ce57600101919050565b6000808211613ae657600080fd5b5060ff6001600160801b03821615613b0157607f1901613b09565b608082901c91505b67ffffffffffffffff821615613b2257603f1901613b2a565b604082901c91505b63ffffffff821615613b3f57601f1901613b47565b602082901c91505b61ffff821615613b5a57600f1901613b62565b601082901c91505b60ff821615613b745760071901613b7c565b600882901c91505b600f821615613b8e5760031901613b96565b600482901c91505b6003821615613ba85760011901613bb0565b600282901c91505b60018216156136ce5760001901919050565b6000836001600160a01b0316856001600160a01b03161115613be2579293925b81613c0f57613c0a836001600160801b03168686036001600160a01b0316600160601b612ca5565b613c32565b613c32836001600160801b03168686036001600160a01b0316600160601b613d8c565b90505b949350505050565b6000836001600160a01b0316856001600160a01b03161115613c5d579293925b600160601b600160e01b03606084901b166001600160a01b038686038116908716613c8757600080fd5b83613cbd57866001600160a01b0316613caa8383896001600160a01b0316612ca5565b81613cb757613cb7615212565b04613ce9565b613ce9613cd48383896001600160a01b0316613d8c565b886001600160a01b0316808204910615150190565b979650505050505050565b600080856001600160a01b031611613d0b57600080fd5b6000846001600160801b031611613d2157600080fd5b81613d3357613c0a8585856001614418565b613c3285858560016144fe565b600080856001600160a01b031611613d5757600080fd5b6000846001600160801b031611613d6d57600080fd5b81613d7f57613c0a85858560006144fe565b613c328585856000614418565b6000613d99848484612ca5565b905060008280613dab57613dab615212565b8486091115612d51576000198110613dc257600080fd5b6001019392505050565b604080516080810182526000808252602082018190529181018290526060810191909152600085600001518503905060405180608001604052808663ffffffff1681526020018263ffffffff168660020b0288602001510160060b81526020016000856001600160801b031611613e44576001613e46565b845b6001600160801b031663ffffffff60801b608085901b1681613e6a57613e6a615212565b048860400151016001600160a01b0316815260200160011515815250915050949350505050565b604080516080810182526000808252602082018190529181018290526060810191909152604080516080810182526000808252602082018190529181018290526060810191909152888561ffff1661ffff8110613ef057613ef0615493565b60408051608081018252919092015463ffffffff8116808352600160201b820460060b6020840152600160581b82046001600160a01b031693830193909352600160f81b900460ff16151560608201529250613f4e908990896145ee565b15613f7a57815163ffffffff888116911614612f035781613f7183898988613dcc565b91509150612f03565b888361ffff168660010161ffff1681613f9557613f95615212565b0661ffff1661ffff8110613fab57613fab615493565b60408051608081018252929091015463ffffffff81168352600160201b810460060b60208401526001600160a01b03600160581b8204169183019190915260ff600160f81b9091041615156060820181905290925061405457604080516080810182528a5463ffffffff81168252600160201b810460060b6020830152600160581b81046001600160a01b031692820192909252600160f81b90910460ff161515606082015291505b614063888360000151896145ee565b614080576040516327e8e87560e01b815260040160405180910390fd5b61408d89898988876146af565b9150915097509795505050505050565b8060020b8260020b126140d85760405162461bcd60e51b8152602060048201526003602482015262544c5560e81b6044820152606401610872565b620d89e719600283900b12156141165760405162461bcd60e51b8152602060048201526003602482015262544c4d60e81b6044820152606401610872565b614123620d89e719615260565b60020b8160020b13156119655760405162461bcd60e51b815260206004820152600360248201526254554d60e81b6044820152606401610872565b600061416d6007878787613908565b60015460025491925090600080600f87900b156142e1576000805460045442929182916141ca9160089186918591600160a01b820460020b9161ffff600160b81b82048116926001600160801b031691600160c81b900416612d58565b909250905061420460058d8b8d8b8b87898b60007f0000000000000000000000000000000000000000000000000000000000000000614897565b945061423b60058c8b8d8b8b87898b60017f0000000000000000000000000000000000000000000000000000000000000000614897565b9350841561428d5760028c900b60009081526005602052604090206004015460ff1661428d5761428d60068d7f0000000000000000000000000000000000000000000000000000000000000000613965565b83156142dd5760028b900b60009081526005602052604090206004015460ff166142dd576142dd60068c7f0000000000000000000000000000000000000000000000000000000000000000613965565b5050505b6000806142f360058c8c8b8a8a614a38565b915091506000806143048d8d6123b0565b909250905061431382856152a9565b935061431f81846152a9565b925061433191508890508a8484614adf565b600089600f0b121561439b57831561436c5760028b900b60009081526005602052604090206004015460ff1661436c5761436c60058c614c7d565b821561439b5760028a900b60009081526005602052604090206004015460ff1661439b5761439b60058b614c7d565b50505050505095945050505050565b60008082600f0b126143cb576143c6610cf48585856001613c3d565b613c35565b6143de610cf48585856000036000613c3d565b600003949350505050565b60008082600f0b12614405576143c6610cf48585856001613bc2565b6143de610cf48585856000036000613bc2565b6000811561448a5760006001600160a01b0384111561444e5761444984600160601b876001600160801b0316612ca5565b614465565b6144656001600160801b038616606086901b61554b565b905061448261447d826001600160a01b0389166152a9565b614cb6565b915050613c35565b60006001600160a01b038411156144b8576144b384600160601b876001600160801b0316613d8c565b6144d5565b6144d5606085901b6001600160801b038716808204910615150190565b905080866001600160a01b0316116144ec57600080fd5b6001600160a01b038616039050613c35565b60008260000361450f575083613c35565b600160601b600160e01b03606085901b1682156145a1576001600160a01b0386168481029085828161454357614543615212565b0403614573578181018281106145715761456783896001600160a01b031683613d8c565b9350505050613c35565b505b50614482818561458c6001600160a01b038a168361554b565b61459691906152a9565b808204910615150190565b6001600160a01b038616848102908582816145be576145be615212565b041480156145cb57508082115b6145d457600080fd5b80820361456761447d846001600160a01b038b1684613d8c565b60008363ffffffff168363ffffffff161115801561461857508363ffffffff168263ffffffff1611155b15614634578163ffffffff168363ffffffff1611159050612d51565b60008463ffffffff168463ffffffff161161465b578363ffffffff16600160201b01614663565b8363ffffffff165b64ffffffffff16905060008563ffffffff168463ffffffff1611614693578363ffffffff16600160201b0161469b565b8363ffffffff165b64ffffffffff169091111595945050505050565b60408051608081018252600080825260208201819052918101829052606081019190915260408051608081018252600080825260208201819052918101829052606081019190915260008361ffff168560010161ffff168161471357614713615212565b0661ffff169050600060018561ffff16830103905060005b506002818301048961ffff8716828161474657614746615212565b0661ffff811061475857614758615493565b60408051608081018252929091015463ffffffff81168352600160201b810460060b60208401526001600160a01b03600160581b8204169183019190915260ff600160f81b909104161515606082018190529095506147bc5780600101925061472b565b898661ffff1682600101816147d3576147d3615212565b0661ffff81106147e5576147e5615493565b60408051608081018252929091015463ffffffff81168352600160201b810460060b60208401526001600160a01b03600160581b8204169183019190915260ff600160f81b90910416151560608201528551909450600090614849908b908b6145ee565b905080801561486257506148628a8a87600001516145ee565b1561486d575061488a565b8061487d57600182039250614884565b8160010193505b5061472b565b5050509550959350505050565b60028a900b600090815260208c90526040812080546001600160801b031682600f8c900b81136148d0576148cb8c83615425565b6148e3565b6148d98c6154a9565b6148e390836154c6565b9050846001600160801b0316816001600160801b03161115614918576040516368d2be8f60e01b815260040160405180910390fd5b6001600160801b03818116159083168015919091141594506000036149bc578c60020b8e60020b136149a457600183018b9055600283018a905560038301805466ffffffffffffff8a166001600160f81b0319909116600160381b6001600160a01b038d160266ffffffffffffff63ffffffff60d81b0119161717600160d81b63ffffffff8a16021790555b6003830180546001600160f81b0316600160f81b1790555b82546001600160801b0319166001600160801b038216178355856149f65782546149f1908d90600160801b9004600f0b615466565b614a0d565b8254614a0d908d90600160801b9004600f0b6152e4565b83546001600160801b03918216600160801b0291161790925550909c9b505050505050505050505050565b600285810b60008181526020899052604080822088850b83529082209193849391929184918291908a900b12614a7957505060018201546002830154614a8c565b8360010154880391508360020154870390505b6000808b60020b8b60020b1215614aae57505060018301546002840154614ac1565b84600101548a0391508460020154890390505b92909803979097039b96909503949094039850939650505050505050565b6040805160a08101825285546001600160801b0390811682526001870154602083015260028701549282019290925260038601548083166060830152600160801b900490911660808201526000600f85900b8103614b675781516001600160801b0316614b5f57604051632aabfc9960e11b815260040160405180910390fd5b508051614b9c565b600085600f0b12614b84578151614b7f908690615425565b614b99565b614b8d856154a9565b8251614b9991906154c6565b90505b600080614bc18460200151870385600001516001600160801b0316600160801b612ca5565b9150614be58460400151860385600001516001600160801b0316600160801b612ca5565b905086600f0b600014614c0c5787546001600160801b0319166001600160801b0384161788555b60018801869055600288018590556001600160801b038216151580614c3a57506000816001600160801b0316115b1561238a57600388018054600160801b6001600160801b03808316860181166001600160801b031990931683178290048116850116021790555050505050505050565b600290810b600090815260209290925260408220828155600181018390559081018290556003810191909155600401805460ff19169055565b806001600160a01b03811681146136ce57600080fd5b6001600160a01b038116811461148257600080fd5b801515811461148257600080fd5b80356136ce81614ce1565b60008083601f840112614d0c57600080fd5b50813567ffffffffffffffff811115614d2457600080fd5b602083019150836020828501011115613a3257600080fd5b60008060008060008060a08789031215614d5557600080fd5b8635614d6081614ccc565b95506020870135614d7081614ce1565b9450604087013593506060870135614d8781614ccc565b9250608087013567ffffffffffffffff811115614da357600080fd5b614daf89828a01614cfa565b979a9699509497509295939492505050565b8035600281900b81146136ce57600080fd5b600060208284031215614de557600080fd5b612d5182614dc1565b600060208284031215614e0057600080fd5b5035919050565b80356001600160801b03811681146136ce57600080fd5b60008060008060008060a08789031215614e3757600080fd5b8635614e4281614ccc565b9550614e5060208801614dc1565b9450614e5e60408801614dc1565b9350614d8760608801614e07565b600080600080600060a08688031215614e8457600080fd5b8535614e8f81614ccc565b9450614e9d60208701614dc1565b9350614eab60408701614dc1565b9250614eb960608701614e07565b9150614ec760808701614e07565b90509295509295909350565b600060208284031215614ee557600080fd5b81358060010b8114612d5157600080fd5b60008060408385031215614f0957600080fd5b8235614f1481614ce1565b946020939093013593505050565b803560ff811681146136ce57600080fd5b60008060408385031215614f4657600080fd5b614f4f83614f22565b9150614f5d60208401614f22565b90509250929050565b600080600060608486031215614f7b57600080fd5b8335614f8681614ccc565b9250614f9460208501614e07565b9150614fa260408501614e07565b90509250925092565b600080600060608486031215614fc057600080fd5b614fc984614dc1565b9250614f9460208501614dc1565b60008060408385031215614fea57600080fd5b614ff383614dc1565b9150614f5d60208401614dc1565b6000806000806080858703121561501757600080fd5b61502085614dc1565b935061502e60208601614dc1565b925061503c60408601614e07565b9150606085013561504c81614ce1565b939692955090935050565b60008060006060848603121561506c57600080fd5b61507584614dc1565b9250602084013580600f0b811461508b57600080fd5b9150604084013561509b81614ce1565b809150509250925092565b634e487b7160e01b600052604160045260246000fd5b600080600080600060a086880312156150d457600080fd5b6150dd86614dc1565b945060206150ec818801614dc1565b945060408701359350606087013567ffffffffffffffff8082111561511057600080fd5b818901915089601f83011261512457600080fd5b813581811115615136576151366150a6565b8060051b604051601f19603f8301168101818110858211171561515b5761515b6150a6565b60405291825284820192508381018501918c83111561517957600080fd5b938501935b828510156151975784358452938501939285019261517e565b809750505050505050614ec760808701614cef565b6000806000606084860312156151c157600080fd5b6151ca84614dc1565b925061508b60208501614dc1565b6000602082840312156151ea57600080fd5b8135612d5181614ccc565b6020808252600390820152624c4f4b60e81b604082015260600190565b634e487b7160e01b600052601260045260246000fd5b600060ff83168061523b5761523b615212565b8060ff84160691505092915050565b634e487b7160e01b600052601160045260246000fd5b60008160020b627fffff1981036152795761527961524a565b60000392915050565b81810360008312801583831316838312821617156152a2576152a261524a565b5092915050565b8082018082111561225b5761225b61524a565b80820182811260008312801582168215821617156152dc576152dc61524a565b505092915050565b600f82810b9082900b0360016001607f1b0319811260016001607f1b038213171561225b5761225b61524a565b81835281816020850137506000828201602090810191909152601f909101601f19169091010190565b84815283602082015260606040820152600061535a606083018486615311565b9695505050505050565b60006020828403121561537657600080fd5b8151612d5181614ccc565b600281810b9083900b01627fffff8113627fffff198212171561225b5761225b61524a565b600282810b9082900b03627fffff198112627fffff8213171561225b5761225b61524a565b60008160020b8360020b806153e2576153e2615212565b627fffff198214600019821416156153fc576153fc61524a565b90059392505050565b60008260020b8260020b028060020b91508082146152a2576152a261524a565b6001600160801b038181168382160190808211156152a2576152a261524a565b60008160020b627fffff810361545d5761545d61524a565b60010192915050565b600f81810b9083900b0160016001607f1b03811360016001607f1b03198212171561225b5761225b61524a565b634e487b7160e01b600052603260045260246000fd5b600081600f0b60016001607f1b031981036152795761527961524a565b6001600160801b038281168282160390808211156152a2576152a261524a565b6000825160005b8181101561550757602081860181015185830152016154ed565b506000920191825250919050565b60006020828403121561552757600080fd5b8151612d5181614ce1565b60006020828403121561554457600080fd5b5051919050565b60008261555a5761555a615212565b50049056fea26469706673582212204746b981fc4b1c1b137b76013f276acd35dce5794969d89c78e108ab142820a164736f6c63430008110033",
    "linkReferences": {}
  },
  "methodIdentifiers": {
    "addPremiums(int24,int24,uint256,uint256[],bool)": "ee5b00e0",
    "borrowUpdate(int24,int24,uint128,bool)": "c9de624f",
    "borrowedLiquidities(int24)": "83776abc",
    "borrowedLiquidity(int24)": "c504ae65",
    "borrowedLiquidityModify(int24,int128,bool)": "caf75b86",
    "burn(int24,int24,uint128)": "a34123a7",
    "collect(address,int24,int24,uint128,uint128)": "4f1eb3d8",
    "collectProtocol(address,uint128,uint128)": "85b66729",
    "factory()": "c45a0155",
    "fee()": "ddca3f43",
    "feeGrowthGlobal0X128()": "f3058399",
    "feeGrowthGlobal1X128()": "46141319",
    "flipBorrowTickOn(int24)": "22e24ce9",
    "flipTickOn(int24,int24)": "b4718f93",
    "getLiquidityNet(int24)": "ddc96b4a",
    "getPremiums(int24,int24)": "f38e671d",
    "initialize(uint160)": "f637731d",
    "liquidity()": "1a686502",
    "maxLiquidityPerTick()": "70cf754a",
    "mint(address,int24,int24,uint128,bytes)": "3c8a7d8d",
    "nextInitializedTickWithinOneWord(int24,int24,bool)": "ef2cdce4",
    "observations(uint256)": "252c09d7",
    "positions(bytes32)": "514ea4bf",
    "premiums(int24)": "231adfa8",
    "protocolFees()": "1ad8b03b",
    "setFeeProtocol(uint8,uint8)": "8206a4d1",
    "slot0()": "3850c7bd",
    "swap(address,bool,int256,uint160,bytes)": "128acb08",
    "tickBitmap(int16)": "5339c296",
    "tickSpacing()": "d0c93a7c",
    "ticks(int24)": "f30dba93",
    "token0()": "0dfe1681",
    "token1()": "d21220a7",
    "transferToManager(bool,uint256)": "6c656efc"
  },
  "id": 28
}