{
  "abi": [
    {
      "inputs": [],
      "stateMutability": "nonpayable",
      "type": "constructor"
    },
    {
      "inputs": [],
      "name": "LO",
      "type": "error"
    },
    {
      "inputs": [],
      "name": "NP",
      "type": "error"
    },
    {
      "inputs": [],
      "name": "OLD",
      "type": "error"
    },
    {
      "inputs": [],
      "name": "R",
      "type": "error"
    },
    {
      "inputs": [],
      "name": "T",
      "type": "error"
    },
    {
      "anonymous": false,
      "inputs": [
        {
          "indexed": true,
          "internalType": "address",
          "name": "owner",
          "type": "address"
        },
        {
          "indexed": true,
          "internalType": "int24",
          "name": "tickLower",
          "type": "int24"
        },
        {
          "indexed": true,
          "internalType": "int24",
          "name": "tickUpper",
          "type": "int24"
        },
        {
          "indexed": false,
          "internalType": "uint128",
          "name": "amount",
          "type": "uint128"
        },
        {
          "indexed": false,
          "internalType": "uint256",
          "name": "amount0",
          "type": "uint256"
        },
        {
          "indexed": false,
          "internalType": "uint256",
          "name": "amount1",
          "type": "uint256"
        }
      ],
      "name": "Burn",
      "type": "event"
    },
    {
      "anonymous": false,
      "inputs": [
        {
          "indexed": true,
          "internalType": "address",
          "name": "owner",
          "type": "address"
        },
        {
          "indexed": false,
          "internalType": "address",
          "name": "recipient",
          "type": "address"
        },
        {
          "indexed": true,
          "internalType": "int24",
          "name": "tickLower",
          "type": "int24"
        },
        {
          "indexed": true,
          "internalType": "int24",
          "name": "tickUpper",
          "type": "int24"
        },
        {
          "indexed": false,
          "internalType": "uint128",
          "name": "amount0",
          "type": "uint128"
        },
        {
          "indexed": false,
          "internalType": "uint128",
          "name": "amount1",
          "type": "uint128"
        }
      ],
      "name": "Collect",
      "type": "event"
    },
    {
      "anonymous": false,
      "inputs": [
        {
          "indexed": true,
          "internalType": "address",
          "name": "sender",
          "type": "address"
        },
        {
          "indexed": true,
          "internalType": "address",
          "name": "recipient",
          "type": "address"
        },
        {
          "indexed": false,
          "internalType": "uint128",
          "name": "amount0",
          "type": "uint128"
        },
        {
          "indexed": false,
          "internalType": "uint128",
          "name": "amount1",
          "type": "uint128"
        }
      ],
      "name": "CollectProtocol",
      "type": "event"
    },
    {
      "anonymous": false,
      "inputs": [
        {
          "indexed": true,
          "internalType": "address",
          "name": "sender",
          "type": "address"
        },
        {
          "indexed": true,
          "internalType": "address",
          "name": "recipient",
          "type": "address"
        },
        {
          "indexed": false,
          "internalType": "uint256",
          "name": "amount0",
          "type": "uint256"
        },
        {
          "indexed": false,
          "internalType": "uint256",
          "name": "amount1",
          "type": "uint256"
        },
        {
          "indexed": false,
          "internalType": "uint256",
          "name": "paid0",
          "type": "uint256"
        },
        {
          "indexed": false,
          "internalType": "uint256",
          "name": "paid1",
          "type": "uint256"
        }
      ],
      "name": "Flash",
      "type": "event"
    },
    {
      "anonymous": false,
      "inputs": [
        {
          "indexed": false,
          "internalType": "uint16",
          "name": "observationCardinalityNextOld",
          "type": "uint16"
        },
        {
          "indexed": false,
          "internalType": "uint16",
          "name": "observationCardinalityNextNew",
          "type": "uint16"
        }
      ],
      "name": "IncreaseObservationCardinalityNext",
      "type": "event"
    },
    {
      "anonymous": false,
      "inputs": [
        {
          "indexed": false,
          "internalType": "uint160",
          "name": "sqrtPriceX96",
          "type": "uint160"
        },
        {
          "indexed": false,
          "internalType": "int24",
          "name": "tick",
          "type": "int24"
        }
      ],
      "name": "Initialize",
      "type": "event"
    },
    {
      "anonymous": false,
      "inputs": [
        {
          "indexed": false,
          "internalType": "address",
          "name": "sender",
          "type": "address"
        },
        {
          "indexed": true,
          "internalType": "address",
          "name": "owner",
          "type": "address"
        },
        {
          "indexed": true,
          "internalType": "int24",
          "name": "tickLower",
          "type": "int24"
        },
        {
          "indexed": true,
          "internalType": "int24",
          "name": "tickUpper",
          "type": "int24"
        },
        {
          "indexed": false,
          "internalType": "uint128",
          "name": "amount",
          "type": "uint128"
        },
        {
          "indexed": false,
          "internalType": "uint256",
          "name": "amount0",
          "type": "uint256"
        },
        {
          "indexed": false,
          "internalType": "uint256",
          "name": "amount1",
          "type": "uint256"
        }
      ],
      "name": "Mint",
      "type": "event"
    },
    {
      "anonymous": false,
      "inputs": [
        {
          "indexed": false,
          "internalType": "uint8",
          "name": "feeProtocol0Old",
          "type": "uint8"
        },
        {
          "indexed": false,
          "internalType": "uint8",
          "name": "feeProtocol1Old",
          "type": "uint8"
        },
        {
          "indexed": false,
          "internalType": "uint8",
          "name": "feeProtocol0New",
          "type": "uint8"
        },
        {
          "indexed": false,
          "internalType": "uint8",
          "name": "feeProtocol1New",
          "type": "uint8"
        }
      ],
      "name": "SetFeeProtocol",
      "type": "event"
    },
    {
      "anonymous": false,
      "inputs": [
        {
          "indexed": true,
          "internalType": "address",
          "name": "sender",
          "type": "address"
        },
        {
          "indexed": true,
          "internalType": "address",
          "name": "recipient",
          "type": "address"
        },
        {
          "indexed": false,
          "internalType": "int256",
          "name": "amount0",
          "type": "int256"
        },
        {
          "indexed": false,
          "internalType": "int256",
          "name": "amount1",
          "type": "int256"
        },
        {
          "indexed": false,
          "internalType": "uint160",
          "name": "sqrtPriceX96",
          "type": "uint160"
        },
        {
          "indexed": false,
          "internalType": "uint128",
          "name": "liquidity",
          "type": "uint128"
        },
        {
          "indexed": false,
          "internalType": "int24",
          "name": "tick",
          "type": "int24"
        }
      ],
      "name": "Swap",
      "type": "event"
    },
    {
      "inputs": [
        {
          "internalType": "int24",
          "name": "",
          "type": "int24"
        }
      ],
      "name": "borrowedLiquidities",
      "outputs": [
        {
          "internalType": "uint128",
          "name": "",
          "type": "uint128"
        }
      ],
      "stateMutability": "view",
      "type": "function"
    },
    {
      "inputs": [
        {
          "internalType": "int24",
          "name": "tickLower",
          "type": "int24"
        },
        {
          "internalType": "int24",
          "name": "tickUpper",
          "type": "int24"
        },
        {
          "internalType": "uint128",
          "name": "amount",
          "type": "uint128"
        }
      ],
      "name": "burn",
      "outputs": [
        {
          "internalType": "uint256",
          "name": "amount0",
          "type": "uint256"
        },
        {
          "internalType": "uint256",
          "name": "amount1",
          "type": "uint256"
        }
      ],
      "stateMutability": "nonpayable",
      "type": "function"
    },
    {
      "inputs": [
        {
          "internalType": "address",
          "name": "recipient",
          "type": "address"
        },
        {
          "internalType": "int24",
          "name": "tickLower",
          "type": "int24"
        },
        {
          "internalType": "int24",
          "name": "tickUpper",
          "type": "int24"
        },
        {
          "internalType": "uint128",
          "name": "amount0Requested",
          "type": "uint128"
        },
        {
          "internalType": "uint128",
          "name": "amount1Requested",
          "type": "uint128"
        }
      ],
      "name": "collect",
      "outputs": [
        {
          "internalType": "uint128",
          "name": "amount0",
          "type": "uint128"
        },
        {
          "internalType": "uint128",
          "name": "amount1",
          "type": "uint128"
        }
      ],
      "stateMutability": "nonpayable",
      "type": "function"
    },
    {
      "inputs": [
        {
          "internalType": "address",
          "name": "recipient",
          "type": "address"
        },
        {
          "internalType": "uint128",
          "name": "amount0Requested",
          "type": "uint128"
        },
        {
          "internalType": "uint128",
          "name": "amount1Requested",
          "type": "uint128"
        }
      ],
      "name": "collectProtocol",
      "outputs": [
        {
          "internalType": "uint128",
          "name": "amount0",
          "type": "uint128"
        },
        {
          "internalType": "uint128",
          "name": "amount1",
          "type": "uint128"
        }
      ],
      "stateMutability": "nonpayable",
      "type": "function"
    },
    {
      "inputs": [],
      "name": "factory",
      "outputs": [
        {
          "internalType": "address",
          "name": "",
          "type": "address"
        }
      ],
      "stateMutability": "view",
      "type": "function"
    },
    {
      "inputs": [],
      "name": "fee",
      "outputs": [
        {
          "internalType": "uint24",
          "name": "",
          "type": "uint24"
        }
      ],
      "stateMutability": "view",
      "type": "function"
    },
    {
      "inputs": [],
      "name": "feeGrowthGlobal0X128",
      "outputs": [
        {
          "internalType": "uint256",
          "name": "",
          "type": "uint256"
        }
      ],
      "stateMutability": "view",
      "type": "function"
    },
    {
      "inputs": [],
      "name": "feeGrowthGlobal1X128",
      "outputs": [
        {
          "internalType": "uint256",
          "name": "",
          "type": "uint256"
        }
      ],
      "stateMutability": "view",
      "type": "function"
    },
    {
      "inputs": [
        {
          "internalType": "int24",
          "name": "startTick",
          "type": "int24"
        },
        {
          "internalType": "bool",
          "name": "on",
          "type": "bool"
        }
      ],
      "name": "flipBorrowedTick",
      "outputs": [],
      "stateMutability": "nonpayable",
      "type": "function"
    },
    {
      "inputs": [
        {
          "internalType": "uint160",
          "name": "sqrtPriceX96",
          "type": "uint160"
        }
      ],
      "name": "initialize",
      "outputs": [],
      "stateMutability": "nonpayable",
      "type": "function"
    },
    {
      "inputs": [],
      "name": "liquidity",
      "outputs": [
        {
          "internalType": "uint128",
          "name": "",
          "type": "uint128"
        }
      ],
      "stateMutability": "view",
      "type": "function"
    },
    {
      "inputs": [],
      "name": "liquidityManager",
      "outputs": [
        {
          "internalType": "address",
          "name": "",
          "type": "address"
        }
      ],
      "stateMutability": "view",
      "type": "function"
    },
    {
      "inputs": [],
      "name": "maxLiquidityPerTick",
      "outputs": [
        {
          "internalType": "uint128",
          "name": "",
          "type": "uint128"
        }
      ],
      "stateMutability": "view",
      "type": "function"
    },
    {
      "inputs": [
        {
          "internalType": "address",
          "name": "recipient",
          "type": "address"
        },
        {
          "internalType": "int24",
          "name": "tickLower",
          "type": "int24"
        },
        {
          "internalType": "int24",
          "name": "tickUpper",
          "type": "int24"
        },
        {
          "internalType": "uint128",
          "name": "amount",
          "type": "uint128"
        },
        {
          "internalType": "bytes",
          "name": "data",
          "type": "bytes"
        }
      ],
      "name": "mint",
      "outputs": [
        {
          "internalType": "uint256",
          "name": "amount0",
          "type": "uint256"
        },
        {
          "internalType": "uint256",
          "name": "amount1",
          "type": "uint256"
        }
      ],
      "stateMutability": "nonpayable",
      "type": "function"
    },
    {
      "inputs": [
        {
          "internalType": "int24",
          "name": "tick",
          "type": "int24"
        },
        {
          "internalType": "int24",
          "name": "tickSpacing",
          "type": "int24"
        },
        {
          "internalType": "bool",
          "name": "zeroForOne",
          "type": "bool"
        }
      ],
      "name": "nextInitializedTickWithinOneWord",
      "outputs": [
        {
          "internalType": "int24",
          "name": "",
          "type": "int24"
        },
        {
          "internalType": "bool",
          "name": "",
          "type": "bool"
        }
      ],
      "stateMutability": "view",
      "type": "function"
    },
    {
      "inputs": [
        {
          "internalType": "uint256",
          "name": "",
          "type": "uint256"
        }
      ],
      "name": "observations",
      "outputs": [
        {
          "internalType": "uint32",
          "name": "blockTimestamp",
          "type": "uint32"
        },
        {
          "internalType": "int56",
          "name": "tickCumulative",
          "type": "int56"
        },
        {
          "internalType": "uint160",
          "name": "secondsPerLiquidityCumulativeX128",
          "type": "uint160"
        },
        {
          "internalType": "bool",
          "name": "initialized",
          "type": "bool"
        }
      ],
      "stateMutability": "view",
      "type": "function"
    },
    {
      "inputs": [
        {
          "internalType": "bytes32",
          "name": "",
          "type": "bytes32"
        }
      ],
      "name": "positions",
      "outputs": [
        {
          "internalType": "uint128",
          "name": "liquidity",
          "type": "uint128"
        },
        {
          "internalType": "uint256",
          "name": "feeGrowthInside0LastX128",
          "type": "uint256"
        },
        {
          "internalType": "uint256",
          "name": "feeGrowthInside1LastX128",
          "type": "uint256"
        },
        {
          "internalType": "uint128",
          "name": "tokensOwed0",
          "type": "uint128"
        },
        {
          "internalType": "uint128",
          "name": "tokensOwed1",
          "type": "uint128"
        }
      ],
      "stateMutability": "view",
      "type": "function"
    },
    {
      "inputs": [],
      "name": "protocolFees",
      "outputs": [
        {
          "internalType": "uint128",
          "name": "token0",
          "type": "uint128"
        },
        {
          "internalType": "uint128",
          "name": "token1",
          "type": "uint128"
        }
      ],
      "stateMutability": "view",
      "type": "function"
    },
    {
      "inputs": [
        {
          "components": [
            {
              "internalType": "int24",
              "name": "tick",
              "type": "int24"
            },
            {
              "internalType": "uint128",
              "name": "liquidity",
              "type": "uint128"
            },
            {
              "internalType": "uint256",
              "name": "premiumOrUrate",
              "type": "uint256"
            }
          ],
          "internalType": "struct LiquidityManager.Liquidity[]",
          "name": "borrowInfo",
          "type": "tuple[]"
        },
        {
          "internalType": "uint256",
          "name": "reduceRatio",
          "type": "uint256"
        }
      ],
      "name": "reduceDebt",
      "outputs": [],
      "stateMutability": "nonpayable",
      "type": "function"
    },
    {
      "inputs": [
        {
          "internalType": "uint8",
          "name": "feeProtocol0",
          "type": "uint8"
        },
        {
          "internalType": "uint8",
          "name": "feeProtocol1",
          "type": "uint8"
        }
      ],
      "name": "setFeeProtocol",
      "outputs": [],
      "stateMutability": "nonpayable",
      "type": "function"
    },
    {
      "inputs": [
        {
          "internalType": "address",
          "name": "lmad",
          "type": "address"
        }
      ],
      "name": "setLiquidityManager",
      "outputs": [],
      "stateMutability": "nonpayable",
      "type": "function"
    },
    {
      "inputs": [],
      "name": "slot0",
      "outputs": [
        {
          "internalType": "uint160",
          "name": "sqrtPriceX96",
          "type": "uint160"
        },
        {
          "internalType": "int24",
          "name": "tick",
          "type": "int24"
        },
        {
          "internalType": "uint16",
          "name": "observationIndex",
          "type": "uint16"
        },
        {
          "internalType": "uint16",
          "name": "observationCardinality",
          "type": "uint16"
        },
        {
          "internalType": "uint16",
          "name": "observationCardinalityNext",
          "type": "uint16"
        },
        {
          "internalType": "uint8",
          "name": "feeProtocol",
          "type": "uint8"
        },
        {
          "internalType": "bool",
          "name": "unlocked",
          "type": "bool"
        }
      ],
      "stateMutability": "view",
      "type": "function"
    },
    {
      "inputs": [
        {
          "internalType": "address",
          "name": "recipient",
          "type": "address"
        },
        {
          "internalType": "bool",
          "name": "zeroForOne",
          "type": "bool"
        },
        {
          "internalType": "int256",
          "name": "amountSpecified",
          "type": "int256"
        },
        {
          "internalType": "uint160",
          "name": "sqrtPriceLimitX96",
          "type": "uint160"
        },
        {
          "internalType": "bytes",
          "name": "data",
          "type": "bytes"
        }
      ],
      "name": "swap",
      "outputs": [
        {
          "internalType": "int256",
          "name": "amount0",
          "type": "int256"
        },
        {
          "internalType": "int256",
          "name": "amount1",
          "type": "int256"
        }
      ],
      "stateMutability": "nonpayable",
      "type": "function"
    },
    {
      "inputs": [
        {
          "internalType": "int16",
          "name": "",
          "type": "int16"
        }
      ],
      "name": "tickBitmap",
      "outputs": [
        {
          "internalType": "uint256",
          "name": "",
          "type": "uint256"
        }
      ],
      "stateMutability": "view",
      "type": "function"
    },
    {
      "inputs": [],
      "name": "tickSpacing",
      "outputs": [
        {
          "internalType": "int24",
          "name": "",
          "type": "int24"
        }
      ],
      "stateMutability": "view",
      "type": "function"
    },
    {
      "inputs": [
        {
          "internalType": "int24",
          "name": "",
          "type": "int24"
        }
      ],
      "name": "ticks",
      "outputs": [
        {
          "internalType": "uint128",
          "name": "liquidityGross",
          "type": "uint128"
        },
        {
          "internalType": "int128",
          "name": "liquidityNet",
          "type": "int128"
        },
        {
          "internalType": "uint256",
          "name": "feeGrowthOutside0X128",
          "type": "uint256"
        },
        {
          "internalType": "uint256",
          "name": "feeGrowthOutside1X128",
          "type": "uint256"
        },
        {
          "internalType": "int56",
          "name": "tickCumulativeOutside",
          "type": "int56"
        },
        {
          "internalType": "uint160",
          "name": "secondsPerLiquidityOutsideX128",
          "type": "uint160"
        },
        {
          "internalType": "uint32",
          "name": "secondsOutside",
          "type": "uint32"
        },
        {
          "internalType": "bool",
          "name": "initialized",
          "type": "bool"
        },
        {
          "internalType": "bool",
          "name": "borrowedTick",
          "type": "bool"
        }
      ],
      "stateMutability": "view",
      "type": "function"
    },
    {
      "inputs": [],
      "name": "token0",
      "outputs": [
        {
          "internalType": "address",
          "name": "",
          "type": "address"
        }
      ],
      "stateMutability": "view",
      "type": "function"
    },
    {
      "inputs": [],
      "name": "token1",
      "outputs": [
        {
          "internalType": "address",
          "name": "",
          "type": "address"
        }
      ],
      "stateMutability": "view",
      "type": "function"
    },
    {
      "inputs": [
        {
          "components": [
            {
              "internalType": "int24",
              "name": "tick",
              "type": "int24"
            },
            {
              "internalType": "uint128",
              "name": "liquidity",
              "type": "uint128"
            },
            {
              "internalType": "uint256",
              "name": "premiumOrUrate",
              "type": "uint256"
            }
          ],
          "internalType": "struct LiquidityManager.Liquidity[]",
          "name": "borrowInfo",
          "type": "tuple[]"
        },
        {
          "internalType": "bool",
          "name": "borrowToken1",
          "type": "bool"
        },
        {
          "internalType": "bool",
          "name": "borrow",
          "type": "bool"
        },
        {
          "internalType": "uint256",
          "name": "amountSpecified",
          "type": "uint256"
        }
      ],
      "name": "updateDebt",
      "outputs": [],
      "stateMutability": "nonpayable",
      "type": "function"
    }
  ],
  "bytecode": {
    "object": "0x6101606040523480156200001257600080fd5b503060805260408051630890357360e41b81529051600091339163890357309160048082019260a0929091908290030181865afa15801562000058573d6000803e3d6000fd5b505050506040513d601f19601f820116820180604052508101906200007e919062000186565b62ffffff91909116610100526001600160a01b0391821660e05291811660c0529190911660a052600281900b610120529050620000c781620000db602090811b6200259a17901c565b6001600160801b0316610140525062000220565b60008082600281900b620d89e71981620000f957620000f96200020a565b05029050600083600281900b620d89e8816200011957620001196200020a565b0502905060008460020b83830360020b816200013957620001396200020a565b0560010190508062ffffff166001600160801b038016816200015f576200015f6200020a565b0495945050505050565b80516001600160a01b03811681146200018157600080fd5b919050565b600080600080600060a086880312156200019f57600080fd5b620001aa8662000169565b9450620001ba6020870162000169565b9350620001ca6040870162000169565b9250606086015162ffffff81168114620001e357600080fd5b8092505060808601518060020b8114620001fc57600080fd5b809150509295509295909350565b634e487b7160e01b600052601260045260246000fd5b60805160a05160c05160e05161010051610120516101405161555c62000331600039600081816104bb015281816142200152614257015260008181610580015281816107670152818161079b015281816107e50152818161082901528181610b6201528181610c6e01528181610cce01528181610d00015281816142b001526143070152600081816105e10152610d540152600081816105ba015281816112df015281816119e201528181611ca2015281816120bf015261373f0152600081816101d9015281816113ca0152818161197c01528181611c7c0152818161203901526136410152600081816105590152818161158601528181611d200152611ef2015260006127e6015261555c6000f3fe608060405234801561001057600080fd5b50600436106101cf5760003560e01c806370cf754a11610104578063d0c93a7c116100a2578063ef2cdce411610071578063ef2cdce41461062a578063f305839914610657578063f30dba9314610660578063f637731d1461074757600080fd5b8063d0c93a7c1461057b578063d21220a7146105b5578063ddca3f43146105dc578063e9f4fcf31461061757600080fd5b806383776abc116100de57806383776abc1461050357806385b667291461052e578063a34123a714610541578063c45a01551461055457600080fd5b806370cf754a146104b65780637c61444d146104dd5780638206a4d1146104f057600080fd5b80633850c7bd11610171578063461413191161014b57806346141319146103eb5780634f1eb3d814610402578063514ea4bf146104155780635339c2961461049657600080fd5b80633850c7bd146103205780633c1624d4146103c55780633c8a7d8d146103d857600080fd5b80631a686502116101ad5780631a686502146102555780631ad8b03b14610280578063252c09d7146102be578063338274381461030b57600080fd5b80630dfe1681146101d4578063117db63214610218578063128acb081461022d575b600080fd5b6101fb7f000000000000000000000000000000000000000000000000000000000000000081565b6040516001600160a01b0390911681526020015b60405180910390f35b61022b610226366004614db3565b61075a565b005b61024061023b366004614e41565b610853565b6040805192835260208301919091520161020f565b600454610268906001600160801b031681565b6040516001600160801b03909116815260200161020f565b60035461029e906001600160801b0380821691600160801b90041682565b604080516001600160801b0393841681529290911660208301520161020f565b6102d16102cc366004614ec6565b61153f565b6040805163ffffffff909516855260069390930b60208501526001600160a01b03909116918301919091521515606082015260800161020f565b62010008546101fb906001600160a01b031681565b600054610374906001600160a01b03811690600160a01b810460020b9061ffff600160b81b8204811691600160c81b8104821691600160d81b8204169060ff600160e81b8204811691600160f01b90041687565b604080516001600160a01b03909816885260029690960b602088015261ffff94851695870195909552918316606086015291909116608084015260ff1660a0830152151560c082015260e00161020f565b61022b6103d3366004614edf565b611584565b6102406103e6366004614f13565b611647565b6103f460025481565b60405190815260200161020f565b61029e610410366004614f61565b61188c565b610460610423366004614ec6565b60076020526000908152604090208054600182015460028301546003909301546001600160801b0392831693919281811691600160801b90041685565b604080516001600160801b039687168152602081019590955284019290925283166060830152909116608082015260a00161020f565b6103f46104a4366004614fc8565b60066020526000908152604090205481565b6102687f000000000000000000000000000000000000000000000000000000000000000081565b61022b6104eb366004615030565b611a8b565b61022b6104fe3660046150b1565b611cd0565b6102686105113660046150e4565b62010007602052600090815260409020546001600160801b031681565b61029e61053c3660046150ff565b611e9f565b61024061054f366004615144565b612155565b6101fb7f000000000000000000000000000000000000000000000000000000000000000081565b6105a27f000000000000000000000000000000000000000000000000000000000000000081565b60405160029190910b815260200161020f565b6101fb7f000000000000000000000000000000000000000000000000000000000000000081565b6106037f000000000000000000000000000000000000000000000000000000000000000081565b60405162ffffff909116815260200161020f565b61022b610625366004615170565b6122ad565b61063d6106383660046151bc565b612430565b6040805160029390930b835290151560208301520161020f565b6103f460015481565b6106e061066e3660046150e4565b600560205260009081526040902080546001820154600283015460038401546004909401546001600160801b03841694600160801b909404600f0b93600681900b916001600160a01b03600160381b8304169163ffffffff600160d81b8204169160ff600160f81b9092048216911689565b604080516001600160801b03909a168a52600f9890980b60208a015296880195909552606087019390935260069190910b60808601526001600160a01b031660a085015263ffffffff1660c0840152151560e083015215156101008201526101200161020f565b61022b610755366004614edf565b61244c565b6000806107c1600161078c7f000000000000000000000000000000000000000000000000000000000000000087615219565b610796919061523e565b6006907f0000000000000000000000000000000000000000000000000000000000000000600161261c565b915091508280156107d857508360020b8260020b14155b15610809576108096006857f000000000000000000000000000000000000000000000000000000000000000061275e565b8215801561081c57508360020b8260020b145b1561084d5761084d6006857f000000000000000000000000000000000000000000000000000000000000000061275e565b50505050565b60008061085e6127db565b856000036108985760405162461bcd60e51b8152602060048201526002602482015261415360f01b60448201526064015b60405180910390fd5b6040805160e0810182526000546001600160a01b0381168252600160a01b810460020b602083015261ffff600160b81b8204811693830193909352600160c81b810483166060830152600160d81b8104909216608082015260ff600160e81b8304811660a0830152600160f01b909204909116151560c082018190526109305760405162461bcd60e51b815260040161088f90615263565b8761097b5780600001516001600160a01b0316866001600160a01b0316118015610976575073fffd8963efd1fc6a506488495d951d5263988d266001600160a01b038716105b6109ad565b80600001516001600160a01b0316866001600160a01b03161080156109ad57506401000276a36001600160a01b038716115b6109df5760405162461bcd60e51b815260206004820152600360248201526214d41360ea1b604482015260640161088f565b6000805460ff60f01b191681556040805160c08101909152808a610a0e5760048460a0015160ff16901c610a1f565b60108460a00151610a1f9190615296565b60ff1681526004546001600160801b031660208201526040014263ffffffff168152602001600060060b815260200160006001600160a01b031681526020016000151581525090506000808913905060006040518061010001604052808b81526020016000815260200185600001516001600160a01b03168152602001856020015160020b81526020018c610ab657600254610aba565b6001545b8152600060208083018290528601516001600160801b0316604083015260609091015290505b805115801590610b065750886001600160a01b031681604001516001600160a01b031614155b156110d5576040805160e081018252600080825260208201819052918101829052606081018290526080810182905260a0810182905260c081019190915260408201516001600160a01b031681526060820151610b87906006907f00000000000000000000000000000000000000000000000000000000000000008f61261c565b1515604083015260020b60208201819052620d89e7191315610bb257620d89e7196020820152610be6565b610bbf620d89e7196152b8565b60020b816020015160020b1315610be657610bdd620d89e7196152b8565b60020b60208201525b610bf38160200151612812565b6001600160a01b031660608201526040820151610d78908d610c2d578b6001600160a01b031683606001516001600160a01b031611610c47565b8b6001600160a01b031683606001516001600160a01b0316105b610c55578260600151610c57565b8b5b8e610cc357620100076000610c92876060015160017f0000000000000000000000000000000000000000000000000000000000000000612b34565b60020b815260208101919091526040016000205460c0860151610cbe916001600160801b0316906152da565b610d50565b620100076000610d247f00000000000000000000000000000000000000000000000000000000000000008860600151610cfc919061523e565b60017f0000000000000000000000000000000000000000000000000000000000000000612b34565b60020b815260208101919091526040016000205460c0860151610d50916001600160801b0316906152da565b85517f0000000000000000000000000000000000000000000000000000000000000000612b6e565b60c085015260a084015260808301526001600160a01b031660408301528215610dda57610dae8160c00151826080015101612d60565b825103825260a0810151610dc190612d60565b82602001818151610dd29190615301565b905250610e1d565b610de78160a00151612d60565b825101825260c08101516080820151610e0891610e0391615321565b612d60565b82602001818151610e199190615334565b9052505b835160ff1615610e69576000846000015160ff168260c0015181610e4357610e43615280565b60c0840180519290910491829003905260a0840180519091016001600160801b03169052505b60c08201516001600160801b031615610ea857610e9c8160c00151600160801b8460c001516001600160801b0316612d76565b60808301805190910190525b80606001516001600160a01b031682604001516001600160a01b03160361109857806040015115611073578360a00151610f2d57610f0f846040015160008760200151886040015188602001518a606001516008612e28909695949392919063ffffffff16565b6001600160a01b0316608086015260060b6060850152600160a08501525b600061104982602001518e610f4457600154610f4a565b84608001515b8f610f59578560800151610f5d565b6002545b608089015160608a01516040808c0151600296870b6000908152600560205291909120600181018054909603909555948401805490930390925560038301805463ffffffff600160d81b66ffffffffffffff196001600160a01b03600160381b8086048216909703169095029485166001600160d81b031984161766ffffffffffffff670100000000000000600160d81b03198516871760060b9097039690961695861781900482169097031690950266ffffffffffffff63ffffffff60d81b0119929092166001600160f81b031990951694909417919091171790915554600160801b9004600f0b90565b90508c15611055576000035b6110638360c0015182612fdf565b6001600160801b031660c0840152505b8b61108257806020015161108b565b60018160200151035b60020b60608301526110cf565b80600001516001600160a01b031682604001516001600160a01b0316146110cf576110c682604001516130a5565b60020b60608301525b50610ae0565b836020015160020b816060015160020b1461119f5760008061112386604001518660400151886020015188602001518a606001518b6080015160086133a7909695949392919063ffffffff16565b604085015160608601516000805463ffffffff60b81b1916600160c81b61ffff9586160261ffff60b81b191617600160b81b9590941694909402929092176001600160b81b031916600160a01b62ffffff909316929092026001600160a01b031916919091176001600160a01b03909116179055506111c49050565b6040810151600080546001600160a01b0319166001600160a01b039092169190911790555b8060c001516001600160801b031683602001516001600160801b03161461120a5760c0810151600480546001600160801b0319166001600160801b039092169190911790555b8a1561125a57608081015160015560a08101516001600160801b0316156112555760a0810151600380546001600160801b031981166001600160801b03918216909301169190911790555b6112a0565b608081015160025560a08101516001600160801b0316156112a05760a0810151600380546001600160801b03808216600160801b92839004821690940116029190911790555b8115158b1515146112b957602081015181518b036112c6565b80600001518a0381602001515b90965094508a156113bc576000851215611308576113087f00000000000000000000000000000000000000000000000000000000000000008d8760000361352e565b6000611312613627565b60405163fa461e3360e01b8152909150339063fa461e339061133e908a908a908e908e90600401615385565b600060405180830381600087803b15801561135857600080fd5b505af115801561136c573d6000803e3d6000fd5b50505050611378613627565b6113828883615321565b11156113b65760405162461bcd60e51b815260206004820152600360248201526249494160e81b604482015260640161088f565b506114a3565b60008612156113f3576113f37f00000000000000000000000000000000000000000000000000000000000000008d8860000361352e565b60006113fd613725565b60405163fa461e3360e01b8152909150339063fa461e3390611429908a908a908e908e90600401615385565b600060405180830381600087803b15801561144357600080fd5b505af1158015611457573d6000803e3d6000fd5b50505050611463613725565b61146d8288613771565b11156114a15760405162461bcd60e51b815260206004820152600360248201526249494160e81b604482015260640161088f565b505b60408082015160c083015160608085015184518b8152602081018b90526001600160a01b03948516958101959095526001600160801b039092169084015260020b60808301528d169033907fc42079f94a6350d7e6235f29174924f928cc2ac818eb64fed8004e115fbcca679060a00160405180910390a350506000805460ff60f01b1916600160f01b17905550919890975095505050505050565b60088161ffff811061155057600080fd5b015463ffffffff81169150600160201b810460060b90600160581b81046001600160a01b031690600160f81b900460ff1684565b7f00000000000000000000000000000000000000000000000000000000000000006001600160a01b0316638da5cb5b6040518163ffffffff1660e01b8152600401602060405180830381865afa1580156115e2573d6000803e3d6000fd5b505050506040513d601f19601f8201168201806040525081019061160691906153af565b6001600160a01b0316336001600160a01b03161461162357600080fd5b6201000880546001600160a01b0319166001600160a01b0392909216919091179055565b600080548190600160f01b900460ff166116735760405162461bcd60e51b815260040161088f90615263565b6000805460ff60f01b191690556001600160801b03851661169357600080fd5b6000806116db60405180608001604052808c6001600160a01b031681526020018b60020b81526020018a60020b81526020016116d18a600f0b61378c565b600f0b90526137a2565b925092505081935080925060008060008611156116fd576116fa613627565b91505b841561170e5761170b613725565b90505b60405163d348799760e01b8152339063d34879979061173790899089908d908d90600401615385565b600060405180830381600087803b15801561175157600080fd5b505af1158015611765573d6000803e3d6000fd5b5050505060008611156117b75761177a613627565b6117848388613771565b11156117b75760405162461bcd60e51b815260206004820152600260248201526104d360f41b604482015260640161088f565b8415611802576117c5613725565b6117cf8287613771565b11156118025760405162461bcd60e51b81526020600482015260026024820152614d3160f01b604482015260640161088f565b604080513381526001600160801b038b1660208201529081018790526060810186905260028b810b91908d900b906001600160a01b038f16907f7a53080ba414158be7ec69b987b5fb7d07dee101fe85488f0853ae16239d0bde9060800160405180910390a450506000805460ff60f01b1916600160f01b17905550919890975095505050505050565b600080548190600160f01b900460ff166118b85760405162461bcd60e51b815260040161088f90615263565b6000805460ff60f01b191681556118d260073389896139d7565b60038101549091506001600160801b03908116908616116118f35784611902565b60038101546001600160801b03165b60038201549093506001600160801b03600160801b90910481169085161161192a5783611940565b6003810154600160801b90046001600160801b03165b91506001600160801b038316156119a5576003810180546001600160801b031981166001600160801b039182168690038216179091556119a5907f0000000000000000000000000000000000000000000000000000000000000000908a90861661352e565b6001600160801b03821615611a0b576003810180546001600160801b03600160801b808304821686900382160291811691909117909155611a0b907f0000000000000000000000000000000000000000000000000000000000000000908a90851661352e565b604080516001600160a01b038a1681526001600160801b0385811660208301528416818301529051600288810b92908a900b9133917f70935338e69775456a85ddef226c395fb668b63fa0115f5f20610b388e6ca9c0919081900360600190a4506000805460ff60f01b1916600160f01b17905590969095509350505050565b60005b84811015611c6b578215611b7d57858582818110611aae57611aae6153cc565b9050606002016020016020810190611ac691906153e2565b620100076000888885818110611ade57611ade6153cc565b611af492602060609092020190810191506150e4565b60020b8152602081019190915260400160009081208054909190611b229084906001600160801b03166153fd565b92506101000a8154816001600160801b0302191690836001600160801b03160217905550611b78868683818110611b5b57611b5b6153cc565b611b7192602060609092020190810191506150e4565b600161075a565b611c59565b858582818110611b8f57611b8f6153cc565b9050606002016020016020810190611ba791906153e2565b620100076000888885818110611bbf57611bbf6153cc565b611bd592602060609092020190810191506150e4565b60020b8152602081019190915260400160009081208054909190611c039084906001600160801b03166152da565b92506101000a8154816001600160801b0302191690836001600160801b03160217905550611c59868683818110611c3c57611c3c6153cc565b611c5292602060609092020190810191506150e4565b600061075a565b80611c638161541d565b915050611a8e565b508115611cc957611cc983611ca0577f0000000000000000000000000000000000000000000000000000000000000000611cc2565b7f00000000000000000000000000000000000000000000000000000000000000005b338361352e565b5050505050565b600054600160f01b900460ff16611cf95760405162461bcd60e51b815260040161088f90615263565b6000805460ff60f01b1916905560408051638da5cb5b60e01b815290516001600160a01b037f00000000000000000000000000000000000000000000000000000000000000001691638da5cb5b9160048083019260209291908290030181865afa158015611d6b573d6000803e3d6000fd5b505050506040513d601f19601f82011682018060405250810190611d8f91906153af565b6001600160a01b0316336001600160a01b031614611dac57600080fd5b60ff82161580611dcf575060048260ff1610158015611dcf5750600a8260ff1611155b8015611df9575060ff81161580611df9575060048160ff1610158015611df95750600a8160ff1611155b611e0257600080fd5b60008054610ff0600484901b16840160ff908116600160e81b90810260ff60e81b19841617909355919004167f973d8d92bb299f4af6ce49b52a8adb85ae46b9f214c4c4fc06ac77401237b1336010826040805160ff9390920683168252600f600486901c16602083015286831690820152908416606082015260800160405180910390a150506000805460ff60f01b1916600160f01b17905550565b600080548190600160f01b900460ff16611ecb5760405162461bcd60e51b815260040161088f90615263565b6000805460ff60f01b1916905560408051638da5cb5b60e01b815290516001600160a01b037f00000000000000000000000000000000000000000000000000000000000000001691638da5cb5b9160048083019260209291908290030181865afa158015611f3d573d6000803e3d6000fd5b505050506040513d601f19601f82011682018060405250810190611f6191906153af565b6001600160a01b0316336001600160a01b031614611f7e57600080fd5b6003546001600160801b0390811690851611611f9a5783611fa7565b6003546001600160801b03165b6003549092506001600160801b03600160801b909104811690841611611fcd5782611fe1565b600354600160801b90046001600160801b03165b90506001600160801b03821615612062576003546001600160801b039081169083160361201057600019909101905b600380546001600160801b031981166001600160801b03918216859003821617909155612062907f0000000000000000000000000000000000000000000000000000000000000000908790851661352e565b6001600160801b038116156120e8576003546001600160801b03600160801b90910481169082160361209357600019015b600380546001600160801b03600160801b8083048216859003821602918116919091179091556120e8907f0000000000000000000000000000000000000000000000000000000000000000908790841661352e565b604080516001600160801b038085168252831660208201526001600160a01b0387169133917f596b573906218d3411850b26a6b437d6c4522fdb43d2d2386263f86d50b8b151910160405180910390a36000805460ff60f01b1916600160f01b1790559094909350915050565b600080548190600160f01b900460ff166121815760405162461bcd60e51b815260040161088f90615263565b6000805460ff60f01b1916815560408051608081018252338152600288810b602083015287900b91810191909152819081906121da90606081016121cd6001600160801b038a1661378c565b600003600f0b90526137a2565b92509250925081600003945080600003935060008511806121fb5750600084115b15612236576003830180546001600160801b0380821688018116600160801b92839004821688019091169091026001600160801b0319161790555b604080516001600160801b038816815260208101879052908101859052600288810b91908a900b9033907f0c396cd989a39f4459b5fa1aed6a9a8dcdbc45908acfd67e028cd568da98982c9060600160405180910390a450506000805460ff60f01b1916600160f01b179055509094909350915050565b60005b8281101561084d578383828181106122ca576122ca6153cc565b90506060020160200160208101906122e291906153e2565b6001600160801b03161561241e5761233782670de0b6b3a764000086868581811061230f5761230f6153cc565b905060600201602001602081019061232791906153e2565b6001600160801b03169190612d76565b62010007600086868581811061234f5761234f6153cc565b61236592602060609092020190810191506150e4565b60020b81526020810191909152604001600090812080549091906123939084906001600160801b03166152da565b92506101000a8154816001600160801b0302191690836001600160801b0316021790555060026201000760008686858181106123d1576123d16153cc565b6123e792602060609092020190810191506150e4565b60020b81526020810191909152604001600020546001600160801b03161161241e5761241e848483818110611c3c57611c3c6153cc565b806124288161541d565b9150506122b0565b600080612440600686868661261c565b91509150935093915050565b6000546001600160a01b03161561248a5760405162461bcd60e51b8152602060048201526002602482015261414960f01b604482015260640161088f565b6000612495826130a5565b90506000806124a5600842613a34565b6040805160e0810182526001600160a01b038816808252600288900b6020808401829052600084860181905261ffff888116606087018190529088166080870181905260a08701839052600160c0909701969096528154600160f01b6001600160b81b03199091168617600160a01b62ffffff8f16021765ffffffffffff60b81b1916600160c81b90920261ffff60d81b191691909117600160d81b9096029590951761ffff60e81b1916949094179093558351918252918101919091529294509092507f98636036cb66a9c19a37435efc1e90142190214e8abeb821bdba3f2990dd4c95910160405180910390a150505050565b60008082600281900b620d89e719816125b5576125b5615280565b05029050600083600281900b620d89e8816125d2576125d2615280565b0502905060008460020b83830360020b816125ef576125ef615280565b0560010190508062ffffff166001600160801b0380168161261257612612615280565b0495945050505050565b60008060008460020b8660020b8161263657612636615280565b05905060008660020b12801561266357508460020b8660020b8161265c5761265c615280565b0760020b15155b1561266d57600019015b83156126e157600281900b600881901d600181810b600090815260208b9052604090205461010090930760ff81169190911b800160001901928316801515955091929091856126c357888360ff168603026126d6565b886126cd82613a75565b840360ff168603025b965050505050612754565b600181810160020b600881901d80830b600090815260208b9052604090205461010090920760ff81169390931b60001901199182168015159550909291908561273757888360ff0360ff1686600101010261274d565b888361274283613b14565b0360ff168660010101025b9650505050505b5094509492505050565b8060020b8260020b8161277357612773615280565b0760020b1561278157600080fd5b6000806127af8360020b8560020b8161279c5761279c615280565b0560020b600881901d9161010090910790565b600191820b60009081526020979097526040909620805460ff9097169190911b90951890945550505050565b306001600160a01b037f0000000000000000000000000000000000000000000000000000000000000000161461281057600080fd5b565b60008060008360020b12612829578260020b612831565b8260020b6000035b9050620d89e8811115612857576040516315e4079d60e11b815260040160405180910390fd5b60008160011660000361286e57600160801b612880565b6ffffcb933bd6fad37aa2d162d1a5940015b70ffffffffffffffffffffffffffffffffff16905060028216156128b4576ffff97272373d413259a46990580e213a0260801c5b60048216156128d3576ffff2e50f5f656932ef12357cf3c7fdcc0260801c5b60088216156128f2576fffe5caca7e10e4e61c3624eaa0941cd00260801c5b6010821615612911576fffcb9843d60f6159c9db58835c9266440260801c5b6020821615612930576fff973b41fa98c081472e6896dfb254c00260801c5b604082161561294f576fff2ea16466c96a3843ec78b326b528610260801c5b608082161561296e576ffe5dee046a99a2a811c461f1969c30530260801c5b61010082161561298e576ffcbe86c7900a88aedcffc83b479aa3a40260801c5b6102008216156129ae576ff987a7253ac413176f2b074cf7815e540260801c5b6104008216156129ce576ff3392b0822b70005940c7a398e4b70f30260801c5b6108008216156129ee576fe7159475a2c29b7443b29c7fa6e889d90260801c5b611000821615612a0e576fd097f3bdfd2022b8845ad8f792aa58250260801c5b612000821615612a2e576fa9f746462d870fdf8a65dc1f90e061e50260801c5b614000821615612a4e576f70d869a156d2a1b890bb3df62baf32f70260801c5b618000821615612a6e576f31be135f97d08fd981231505542fcfa60260801c5b62010000821615612a8f576f09aa508b5b7a84e1c677de54f3e99bc90260801c5b62020000821615612aaf576e5d6af8dedb81196699c329225ee6040260801c5b62040000821615612ace576d2216e584f5fa1ea926041bedfe980260801c5b62080000821615612aeb576b048a170391f7dc42444e8fa20260801c5b60008460020b1315612b0c578060001981612b0857612b08615280565b0490505b600160201b810615612b1f576001612b22565b60005b60ff16602082901c0192505050919050565b6000808260020b8560020b81612b4c57612b4c615280565b05905083612b5f57828160010102612b63565b8281025b9150505b9392505050565b60008080806001600160a01b03808916908a161015818712801590612bf3576000612ba78989620f42400362ffffff16620f4240612d76565b905082612bc057612bbb8c8c8c6001613bfe565b612bcd565b612bcd8b8d8c6001613c79565b9550858110612bde578a9650612bed565b612bea8c8b8386613d30565b96505b50612c3d565b81612c0a57612c058b8b8b6000613c79565b612c17565b612c178a8c8b6000613bfe565b9350838860000310612c2b57899550612c3d565b612c3a8b8a8a60000385613d7c565b95505b6001600160a01b038a8116908716148215612ca057808015612c5c5750815b612c7257612c6d878d8c6001613c79565b612c74565b855b9550808015612c81575081155b612c9757612c92878d8c6000613bfe565b612c99565b845b9450612cea565b808015612caa5750815b612cc057612cbb8c888c6001613bfe565b612cc2565b855b9550808015612ccf575081155b612ce557612ce08c888c6000613c79565b612ce7565b845b94505b81158015612cfa57508860000385115b15612d06578860000394505b818015612d2557508a6001600160a01b0316876001600160a01b031614155b15612d34578589039350612d51565b612d4e868962ffffff168a620f42400362ffffff16613dc8565b93505b50505095509550955095915050565b6000600160ff1b8210612d7257600080fd5b5090565b6000808060001985870985870292508281108382030391505080600003612daf5760008411612da457600080fd5b508290049050612b67565b808411612dbb57600080fd5b6000848688096000868103871696879004966002600389028118808a02820302808a02820302808a02820302808a02820302808a02820302808a02909103029181900381900460010186841190950394909402919094039290920491909117919091029150509392505050565b6000808663ffffffff16600003612ed1576000898661ffff1661ffff8110612e5257612e526153cc565b60408051608081018252919092015463ffffffff808216808452600160201b830460060b6020850152600160581b83046001600160a01b031694840194909452600160f81b90910460ff16151560608301529092508a1614612ebd57612eba818a8988613e08565b90505b806020015181604001519250925050612fd3565b868803600080612ee68c8c858c8c8c8c613ecd565b91509150816000015163ffffffff168363ffffffff1603612f17578160200151826040015194509450505050612fd3565b806000015163ffffffff168363ffffffff1603612f44578060200151816040015194509450505050612fd3565b60008260000151826000015103905060008360000151850390508063ffffffff168263ffffffff1660060b856020015185602001510360060b81612f8a57612f8a615280565b05028460200151018263ffffffff168263ffffffff1686604001518660400151036001600160a01b03160281612fc257612fc2615280565b048560400151019650965050505050505b97509795505050505050565b60008082600f0b121561304c576001600160801b038316612fff83615436565b61300990856152da565b9150816001600160801b0316106130475760405162461bcd60e51b81526020600482015260026024820152614c5360f01b604482015260640161088f565b61309f565b6001600160801b03831661306083856153fd565b9150816001600160801b0316101561309f5760405162461bcd60e51b81526020600482015260026024820152614c4160f01b604482015260640161088f565b92915050565b60006401000276a36001600160a01b038316108015906130e1575073fffd8963efd1fc6a506488495d951d5263988d266001600160a01b038316105b6130fe576040516324c070df60e11b815260040160405180910390fd5b640100000000600160c01b03602083901b166001600160801b03811160071b81811c67ffffffffffffffff811160061b90811c63ffffffff811160051b90811c61ffff811160041b90811c60ff8111600390811b91821c600f811160021b90811c918211600190811b92831c9790881196179094179092171790911717176080811061319257607f810383901c915061319c565b80607f0383901b91505b908002607f81811c60ff83811c9190911c800280831c81831c1c800280841c81841c1c800280851c81851c1c800280861c81861c1c800280871c81871c1c800280881c81881c1c800280891c81891c1c8002808a1c818a1c1c8002808b1c818b1c1c8002808c1c818c1c1c8002808d1c818d1c1c8002808e1c9c81901c9c909c1c80029c8d901c9e9d607f198f0160401b60c09190911c678000000000000000161760c19b909b1c674000000000000000169a909a1760c29990991c672000000000000000169890981760c39790971c671000000000000000169690961760c49590951c670800000000000000169490941760c59390931c670400000000000000169290921760c69190911c670200000000000000161760c79190911c600160381b161760c89190911c6680000000000000161760c99190911c6640000000000000161760ca9190911c6620000000000000161760cb9190911c6610000000000000161760cc9190911c6608000000000000161760cd9190911c66040000000000001617693627a301d71055774c8581026f028f6481ab7f045a5af012a19d003aa9198101608090811d906fdb2df09e81959a81455e260799a0632f8301901d600281810b9083900b1461339857886001600160a01b031661337d82612812565b6001600160a01b03161115613392578161339a565b8061339a565b815b9998505050505050505050565b6000806000898961ffff1661ffff81106133c3576133c36153cc565b60408051608081018252919092015463ffffffff808216808452600160201b830460060b6020850152600160581b83046001600160a01b031694840194909452600160f81b90910460ff16151560608301529092508916900361342c5788859250925050612fd3565b8461ffff168461ffff1611801561344d57506001850361ffff168961ffff16145b1561345a5783915061345e565b8491505b8161ffff168960010161ffff168161347857613478615280565b06925061348781898989613e08565b8a8461ffff1661ffff811061349e5761349e6153cc565b825191018054602084015160408501516060909501511515600160f81b026001600160f81b036001600160a01b03909616600160581b02959095166affffffffffffffffffffff66ffffffffffffff909216600160201b026affffffffffffffffffffff1990931663ffffffff909516949094179190911716919091179190911790555097509795505050505050565b604080516001600160a01b038481166024830152604480830185905283518084039091018152606490920183526020820180516001600160e01b031663a9059cbb60e01b179052915160009283929087169161358a9190615453565b6000604051808303816000865af19150503d80600081146135c7576040519150601f19603f3d011682016040523d82523d6000602084013e6135cc565b606091505b50915091508180156135f65750805115806135f65750808060200190518101906135f69190615482565b611cc95760405162461bcd60e51b81526020600482015260026024820152612a2360f11b604482015260640161088f565b604051306024820152600090819081906001600160a01b037f000000000000000000000000000000000000000000000000000000000000000016906370a0823160e01b906044015b60408051601f198184030181529181526020820180516001600160e01b03166001600160e01b03199094169390931790925290516136ad9190615453565b600060405180830381855afa9150503d80600081146136e8576040519150601f19603f3d011682016040523d82523d6000602084013e6136ed565b606091505b509150915081801561370157506020815110155b61370a57600080fd5b8080602001905181019061371e919061549f565b9250505090565b604051306024820152600090819081906001600160a01b037f000000000000000000000000000000000000000000000000000000000000000016906370a0823160e01b9060440161366f565b60008261377e8382615321565b915081101561309f57600080fd5b80600f81900b811461379d57600080fd5b919050565b60008060006137af6127db565b6137c1846020015185604001516140d9565b6040805160e0810182526000546001600160a01b0381168252600160a01b810460020b602080840182905261ffff600160b81b8404811685870152600160c81b84048116606080870191909152600160d81b8504909116608086015260ff600160e81b8504811660a0870152600160f01b909404909316151560c08501528851908901519489015192890151939461385f949193909290919061419e565b93508460600151600f0b6000146139cf57846020015160020b816020015160020b12156138b4576138ad6138968660200151612812565b6138a38760400151612812565b876060015161446d565b92506139cf565b846040015160020b816020015160020b12156139a55760045460408201516001600160801b03909116906138ff904260208501516060860151608087015160089493929187916133a7565b6000805463ffffffff60b81b1916600160c81b61ffff9384160261ffff60b81b191617600160b81b939092169290920217905581516040870151613951919061394790612812565b886060015161446d565b935061396f6139638760200151612812565b835160608901516144ac565b925061397f818760600151612fdf565b600480546001600160801b0319166001600160801b0392909216919091179055506139cf565b6139cc6139b58660200151612812565b6139c28760400151612812565b87606001516144ac565b91505b509193909250565b6040805160609490941b6bffffffffffffffffffffffff191660208086019190915260e893841b60348601529190921b60378401528151601a818503018152603a9093018252825192810192909220600090815292909152902090565b6040805160808101825263ffffffff83168082526000602083018190529282019290925260016060909101819052600160f81b9091178355805b9250929050565b6000808211613a8357600080fd5b600160801b8210613a9657608091821c91015b680100000000000000008210613aae57604091821c91015b600160201b8210613ac157602091821c91015b620100008210613ad357601091821c91015b6101008210613ae457600891821c91015b60108210613af457600491821c91015b60048210613b0457600291821c91015b6002821061379d57600101919050565b6000808211613b2257600080fd5b5060ff6001600160801b03821615613b3d57607f1901613b45565b608082901c91505b67ffffffffffffffff821615613b5e57603f1901613b66565b604082901c91505b63ffffffff821615613b7b57601f1901613b83565b602082901c91505b61ffff821615613b9657600f1901613b9e565b601082901c91505b60ff821615613bb05760071901613bb8565b600882901c91505b600f821615613bca5760031901613bd2565b600482901c91505b6003821615613be45760011901613bec565b600282901c91505b600182161561379d5760001901919050565b6000836001600160a01b0316856001600160a01b03161115613c1e579293925b81613c4b57613c46836001600160801b03168686036001600160a01b0316600160601b612d76565b613c6e565b613c6e836001600160801b03168686036001600160a01b0316600160601b613dc8565b90505b949350505050565b6000836001600160a01b0316856001600160a01b03161115613c99579293925b600160601b600160e01b03606084901b166001600160a01b038686038116908716613cc357600080fd5b83613cf957866001600160a01b0316613ce68383896001600160a01b0316612d76565b81613cf357613cf3615280565b04613d25565b613d25613d108383896001600160a01b0316613dc8565b886001600160a01b0316808204910615150190565b979650505050505050565b600080856001600160a01b031611613d4757600080fd5b6000846001600160801b031611613d5d57600080fd5b81613d6f57613c4685858560016144db565b613c6e85858560016145c1565b600080856001600160a01b031611613d9357600080fd5b6000846001600160801b031611613da957600080fd5b81613dbb57613c4685858560006145c1565b613c6e85858560006144db565b6000613dd5848484612d76565b905060008280613de757613de7615280565b8486091115612b67576000198110613dfe57600080fd5b6001019392505050565b604080516080810182526000808252602082018190529181018290526060810191909152600085600001518503905060405180608001604052808663ffffffff1681526020018263ffffffff168660020b0288602001510160060b81526020016000856001600160801b031611613e80576001613e82565b845b6001600160801b031663ffffffff60801b608085901b1681613ea657613ea6615280565b048860400151016001600160a01b0316815260200160011515815250915050949350505050565b604080516080810182526000808252602082018190529181018290526060810191909152604080516080810182526000808252602082018190529181018290526060810191909152888561ffff1661ffff8110613f2c57613f2c6153cc565b60408051608081018252919092015463ffffffff8116808352600160201b820460060b6020840152600160581b82046001600160a01b031693830193909352600160f81b900460ff16151560608201529250613f8a908990896146b1565b15613fb657815163ffffffff888116911614612fd35781613fad83898988613e08565b91509150612fd3565b888361ffff168660010161ffff1681613fd157613fd1615280565b0661ffff1661ffff8110613fe757613fe76153cc565b60408051608081018252929091015463ffffffff81168352600160201b810460060b60208401526001600160a01b03600160581b8204169183019190915260ff600160f81b9091041615156060820181905290925061409057604080516080810182528a5463ffffffff81168252600160201b810460060b6020830152600160581b81046001600160a01b031692820192909252600160f81b90910460ff161515606082015291505b61409f888360000151896146b1565b6140bc576040516327e8e87560e01b815260040160405180910390fd5b6140c98989898887614772565b9150915097509795505050505050565b8060020b8260020b126141145760405162461bcd60e51b8152602060048201526003602482015262544c5560e81b604482015260640161088f565b620d89e719600283900b12156141525760405162461bcd60e51b8152602060048201526003602482015262544c4d60e81b604482015260640161088f565b61415f620d89e7196152b8565b60020b8160020b131561419a5760405162461bcd60e51b815260206004820152600360248201526254554d60e81b604482015260640161088f565b5050565b60006141ad60078787876139d7565b60015460025491925090600080600f87900b1561432f5760008054600454429291829161420a9160089186918591600160a01b820460020b9161ffff600160b81b82048116926001600160801b031691600160c81b900416612e28565b909250905061424460058d8b8d8b8b87898b60007f000000000000000000000000000000000000000000000000000000000000000061495a565b945061427b60058c8b8d8b8b87898b60017f000000000000000000000000000000000000000000000000000000000000000061495a565b935084156142d45760028c900b60009081526201000760205260408120546001600160801b031690036142d4576142d460068d7f000000000000000000000000000000000000000000000000000000000000000061275e565b831561432b5760028c900b60009081526201000760205260408120546001600160801b0316900361432b5761432b60068c7f000000000000000000000000000000000000000000000000000000000000000061275e565b5050505b60008061434160058c8c8b8a8a614afb565b90925090506000806143538185615321565b935061435f8184615321565b925061437191508890508a8484614ba2565b600089600f0b12156143e95783156143b35760028b900b60009081526201000760205260408120546001600160801b031690036143b3576143b360058c614d41565b82156143e95760028b900b60009081526201000760205260408120546001600160801b031690036143e9576143e960058b614d41565b620100085460405163793624c560e11b815260028d810b60048301528c900b6024820152600f8b900b60448201526001600160a01b039091169063f26c498a90606401600060405180830381600087803b15801561444657600080fd5b505af115801561445a573d6000803e3d6000fd5b5050505050505050505095945050505050565b60008082600f0b1261448e57614489610e038585856001613c79565b613c71565b6144a1610e038585856000036000613c79565b600003949350505050565b60008082600f0b126144c857614489610e038585856001613bfe565b6144a1610e038585856000036000613bfe565b6000811561454d5760006001600160a01b038411156145115761450c84600160601b876001600160801b0316612d76565b614528565b6145286001600160801b038616606086901b6154b8565b9050614545614540826001600160a01b038916615321565b614d7a565b915050613c71565b60006001600160a01b0384111561457b5761457684600160601b876001600160801b0316613dc8565b614598565b614598606085901b6001600160801b038716808204910615150190565b905080866001600160a01b0316116145af57600080fd5b6001600160a01b038616039050613c71565b6000826000036145d2575083613c71565b600160601b600160e01b03606085901b168215614664576001600160a01b0386168481029085828161460657614606615280565b0403614636578181018281106146345761462a83896001600160a01b031683613dc8565b9350505050613c71565b505b50614545818561464f6001600160a01b038a16836154b8565b6146599190615321565b808204910615150190565b6001600160a01b0386168481029085828161468157614681615280565b0414801561468e57508082115b61469757600080fd5b80820361462a614540846001600160a01b038b1684613dc8565b60008363ffffffff168363ffffffff16111580156146db57508363ffffffff168263ffffffff1611155b156146f7578163ffffffff168363ffffffff1611159050612b67565b60008463ffffffff168463ffffffff161161471e578363ffffffff16600160201b01614726565b8363ffffffff165b64ffffffffff16905060008563ffffffff168463ffffffff1611614756578363ffffffff16600160201b0161475e565b8363ffffffff165b64ffffffffff169091111595945050505050565b60408051608081018252600080825260208201819052918101829052606081019190915260408051608081018252600080825260208201819052918101829052606081019190915260008361ffff168560010161ffff16816147d6576147d6615280565b0661ffff169050600060018561ffff16830103905060005b506002818301048961ffff8716828161480957614809615280565b0661ffff811061481b5761481b6153cc565b60408051608081018252929091015463ffffffff81168352600160201b810460060b60208401526001600160a01b03600160581b8204169183019190915260ff600160f81b9091041615156060820181905290955061487f578060010192506147ee565b898661ffff16826001018161489657614896615280565b0661ffff81106148a8576148a86153cc565b60408051608081018252929091015463ffffffff81168352600160201b810460060b60208401526001600160a01b03600160581b8204169183019190915260ff600160f81b9091041615156060820152855190945060009061490c908b908b6146b1565b905080801561492557506149258a8a87600001516146b1565b15614930575061494d565b8061494057600182039250614947565b8160010193505b506147ee565b5050509550959350505050565b60028a900b600090815260208c90526040812080546001600160801b031682600f8c900b81136149935761498e8c836153fd565b6149a6565b61499c8c615436565b6149a690836152da565b9050846001600160801b0316816001600160801b031611156149db576040516368d2be8f60e01b815260040160405180910390fd5b6001600160801b0381811615908316801591909114159450600003614a7f578c60020b8e60020b13614a6757600183018b9055600283018a905560038301805466ffffffffffffff8a166001600160f81b0319909116600160381b6001600160a01b038d160266ffffffffffffff63ffffffff60d81b0119161717600160d81b63ffffffff8a16021790555b6003830180546001600160f81b0316600160f81b1790555b82546001600160801b0319166001600160801b03821617835585614ab9578254614ab4908d90600160801b9004600f0b6154cc565b614ad0565b8254614ad0908d90600160801b9004600f0b6154f9565b83546001600160801b03918216600160801b0291161790925550909c9b505050505050505050505050565b600285810b60008181526020899052604080822088850b83529082209193849391929184918291908a900b12614b3c57505060018201546002830154614b4f565b8360010154880391508360020154870390505b6000808b60020b8b60020b1215614b7157505060018301546002840154614b84565b84600101548a0391508460020154890390505b92909803979097039b96909503949094039850939650505050505050565b6040805160a08101825285546001600160801b0390811682526001870154602083015260028701549282019290925260038601548083166060830152600160801b900490911660808201526000600f85900b8103614c2a5781516001600160801b0316614c2257604051632aabfc9960e11b815260040160405180910390fd5b508051614c5f565b600085600f0b12614c47578151614c429086906153fd565b614c5c565b614c5085615436565b8251614c5c91906152da565b90505b600080614c848460200151870385600001516001600160801b0316600160801b612d76565b9150614ca88460400151860385600001516001600160801b0316600160801b612d76565b905086600f0b600014614ccf5787546001600160801b0319166001600160801b0384161788555b60018801869055600288018590556001600160801b038216151580614cfd57506000816001600160801b0316115b15614d3757600388018054600160801b6001600160801b03808316860181166001600160801b031990931683178290048116850116021790555b5050505050505050565b600290810b600090815260209290925260408220828155600181018390559081018290556003810191909155600401805460ff19169055565b806001600160a01b038116811461379d57600080fd5b8035600281900b811461379d57600080fd5b8015158114614db057600080fd5b50565b60008060408385031215614dc657600080fd5b614dcf83614d90565b91506020830135614ddf81614da2565b809150509250929050565b6001600160a01b0381168114614db057600080fd5b60008083601f840112614e1157600080fd5b50813567ffffffffffffffff811115614e2957600080fd5b602083019150836020828501011115613a6e57600080fd5b60008060008060008060a08789031215614e5a57600080fd5b8635614e6581614dea565b95506020870135614e7581614da2565b9450604087013593506060870135614e8c81614dea565b9250608087013567ffffffffffffffff811115614ea857600080fd5b614eb489828a01614dff565b979a9699509497509295939492505050565b600060208284031215614ed857600080fd5b5035919050565b600060208284031215614ef157600080fd5b8135612b6781614dea565b80356001600160801b038116811461379d57600080fd5b60008060008060008060a08789031215614f2c57600080fd5b8635614f3781614dea565b9550614f4560208801614d90565b9450614f5360408801614d90565b9350614e8c60608801614efc565b600080600080600060a08688031215614f7957600080fd5b8535614f8481614dea565b9450614f9260208701614d90565b9350614fa060408701614d90565b9250614fae60608701614efc565b9150614fbc60808701614efc565b90509295509295909350565b600060208284031215614fda57600080fd5b81358060010b8114612b6757600080fd5b60008083601f840112614ffd57600080fd5b50813567ffffffffffffffff81111561501557600080fd5b602083019150836020606083028501011115613a6e57600080fd5b60008060008060006080868803121561504857600080fd5b853567ffffffffffffffff81111561505f57600080fd5b61506b88828901614feb565b909650945050602086013561507f81614da2565b9250604086013561508f81614da2565b949793965091946060013592915050565b803560ff8116811461379d57600080fd5b600080604083850312156150c457600080fd5b6150cd836150a0565b91506150db602084016150a0565b90509250929050565b6000602082840312156150f657600080fd5b612b6782614d90565b60008060006060848603121561511457600080fd5b833561511f81614dea565b925061512d60208501614efc565b915061513b60408501614efc565b90509250925092565b60008060006060848603121561515957600080fd5b61516284614d90565b925061512d60208501614d90565b60008060006040848603121561518557600080fd5b833567ffffffffffffffff81111561519c57600080fd5b6151a886828701614feb565b909790965060209590950135949350505050565b6000806000606084860312156151d157600080fd5b6151da84614d90565b92506151e860208501614d90565b915060408401356151f881614da2565b809150509250925092565b634e487b7160e01b600052601160045260246000fd5b600281810b9083900b01627fffff8113627fffff198212171561309f5761309f615203565b600282810b9082900b03627fffff198112627fffff8213171561309f5761309f615203565b6020808252600390820152624c4f4b60e81b604082015260600190565b634e487b7160e01b600052601260045260246000fd5b600060ff8316806152a9576152a9615280565b8060ff84160691505092915050565b60008160020b627fffff1981036152d1576152d1615203565b60000392915050565b6001600160801b038281168282160390808211156152fa576152fa615203565b5092915050565b81810360008312801583831316838312821617156152fa576152fa615203565b8082018082111561309f5761309f615203565b808201828112600083128015821682158216171561535457615354615203565b505092915050565b81835281816020850137506000828201602090810191909152601f909101601f19169091010190565b8481528360208201526060604082015260006153a560608301848661535c565b9695505050505050565b6000602082840312156153c157600080fd5b8151612b6781614dea565b634e487b7160e01b600052603260045260246000fd5b6000602082840312156153f457600080fd5b612b6782614efc565b6001600160801b038181168382160190808211156152fa576152fa615203565b60006001820161542f5761542f615203565b5060010190565b600081600f0b60016001607f1b031981036152d1576152d1615203565b6000825160005b81811015615474576020818601810151858301520161545a565b506000920191825250919050565b60006020828403121561549457600080fd5b8151612b6781614da2565b6000602082840312156154b157600080fd5b5051919050565b6000826154c7576154c7615280565b500490565b600f81810b9083900b0160016001607f1b03811360016001607f1b03198212171561309f5761309f615203565b600f82810b9082900b0360016001607f1b0319811260016001607f1b038213171561309f5761309f61520356fea2646970667358221220affce15268c53a96a3f1ae088281cac28d22cc5cab8a1a36d9021707af5be20a64736f6c63430008110033",
    "linkReferences": {}
  },
  "methodIdentifiers": {
    "borrowedLiquidities(int24)": "83776abc",
    "burn(int24,int24,uint128)": "a34123a7",
    "collect(address,int24,int24,uint128,uint128)": "4f1eb3d8",
    "collectProtocol(address,uint128,uint128)": "85b66729",
    "factory()": "c45a0155",
    "fee()": "ddca3f43",
    "feeGrowthGlobal0X128()": "f3058399",
    "feeGrowthGlobal1X128()": "46141319",
    "flipBorrowedTick(int24,bool)": "117db632",
    "initialize(uint160)": "f637731d",
    "liquidity()": "1a686502",
    "liquidityManager()": "33827438",
    "maxLiquidityPerTick()": "70cf754a",
    "mint(address,int24,int24,uint128,bytes)": "3c8a7d8d",
    "nextInitializedTickWithinOneWord(int24,int24,bool)": "ef2cdce4",
    "observations(uint256)": "252c09d7",
    "positions(bytes32)": "514ea4bf",
    "protocolFees()": "1ad8b03b",
    "reduceDebt((int24,uint128,uint256)[],uint256)": "e9f4fcf3",
    "setFeeProtocol(uint8,uint8)": "8206a4d1",
    "setLiquidityManager(address)": "3c1624d4",
    "slot0()": "3850c7bd",
    "swap(address,bool,int256,uint160,bytes)": "128acb08",
    "tickBitmap(int16)": "5339c296",
    "tickSpacing()": "d0c93a7c",
    "ticks(int24)": "f30dba93",
    "token0()": "0dfe1681",
    "token1()": "d21220a7",
    "updateDebt((int24,uint128,uint256)[],bool,bool,uint256)": "7c61444d"
  },
  "id": 46
}