{
    "_format": "hh-sol-artifact-1",
    "contractName": "FewWrappedToken",
    "sourceName": "contracts/FewWrappedToken.sol",
    "abi": [
        {
            "inputs": [],
            "stateMutability": "nonpayable",
            "type": "constructor"
        },
        {
            "anonymous": false,
            "inputs": [
                {
                    "indexed": true,
                    "internalType": "address",
                    "name": "owner",
                    "type": "address"
                },
                {
                    "indexed": true,
                    "internalType": "address",
                    "name": "spender",
                    "type": "address"
                },
                {
                    "indexed": false,
                    "internalType": "uint256",
                    "name": "value",
                    "type": "uint256"
                }
            ],
            "name": "Approval",
            "type": "event"
        },
        {
            "anonymous": false,
            "inputs": [
                {
                    "indexed": true,
                    "internalType": "address",
                    "name": "burner",
                    "type": "address"
                },
                {
                    "indexed": false,
                    "internalType": "uint256",
                    "name": "amount",
                    "type": "uint256"
                },
                {
                    "indexed": true,
                    "internalType": "address",
                    "name": "to",
                    "type": "address"
                }
            ],
            "name": "Burn",
            "type": "event"
        },
        {
            "anonymous": false,
            "inputs": [
                {
                    "indexed": true,
                    "internalType": "address",
                    "name": "minter",
                    "type": "address"
                },
                {
                    "indexed": false,
                    "internalType": "uint256",
                    "name": "amount",
                    "type": "uint256"
                },
                {
                    "indexed": true,
                    "internalType": "address",
                    "name": "to",
                    "type": "address"
                }
            ],
            "name": "Mint",
            "type": "event"
        },
        {
            "anonymous": false,
            "inputs": [
                {
                    "indexed": true,
                    "internalType": "address",
                    "name": "from",
                    "type": "address"
                },
                {
                    "indexed": true,
                    "internalType": "address",
                    "name": "to",
                    "type": "address"
                },
                {
                    "indexed": false,
                    "internalType": "uint256",
                    "name": "value",
                    "type": "uint256"
                }
            ],
            "name": "Transfer",
            "type": "event"
        },
        {
            "anonymous": false,
            "inputs": [
                {
                    "indexed": true,
                    "internalType": "address",
                    "name": "sender",
                    "type": "address"
                },
                {
                    "indexed": false,
                    "internalType": "uint256",
                    "name": "amount",
                    "type": "uint256"
                },
                {
                    "indexed": true,
                    "internalType": "address",
                    "name": "to",
                    "type": "address"
                }
            ],
            "name": "Unwrap",
            "type": "event"
        },
        {
            "anonymous": false,
            "inputs": [
                {
                    "indexed": true,
                    "internalType": "address",
                    "name": "sender",
                    "type": "address"
                },
                {
                    "indexed": false,
                    "internalType": "uint256",
                    "name": "amount",
                    "type": "uint256"
                },
                {
                    "indexed": true,
                    "internalType": "address",
                    "name": "to",
                    "type": "address"
                }
            ],
            "name": "Wrap",
            "type": "event"
        },
        {
            "inputs": [],
            "name": "BLAST",
            "outputs": [
                {
                    "internalType": "contract IBlast",
                    "name": "",
                    "type": "address"
                }
            ],
            "stateMutability": "view",
            "type": "function"
        },
        {
            "inputs": [],
            "name": "DOMAIN_SEPARATOR",
            "outputs": [
                {
                    "internalType": "bytes32",
                    "name": "",
                    "type": "bytes32"
                }
            ],
            "stateMutability": "view",
            "type": "function"
        },
        {
            "inputs": [],
            "name": "PERMIT_TYPEHASH",
            "outputs": [
                {
                    "internalType": "bytes32",
                    "name": "",
                    "type": "bytes32"
                }
            ],
            "stateMutability": "view",
            "type": "function"
        },
        {
            "inputs": [
                {
                    "internalType": "address",
                    "name": "",
                    "type": "address"
                },
                {
                    "internalType": "address",
                    "name": "",
                    "type": "address"
                }
            ],
            "name": "allowance",
            "outputs": [
                {
                    "internalType": "uint256",
                    "name": "",
                    "type": "uint256"
                }
            ],
            "stateMutability": "view",
            "type": "function"
        },
        {
            "inputs": [
                {
                    "internalType": "address",
                    "name": "spender",
                    "type": "address"
                },
                {
                    "internalType": "uint256",
                    "name": "value",
                    "type": "uint256"
                }
            ],
            "name": "approve",
            "outputs": [
                {
                    "internalType": "bool",
                    "name": "",
                    "type": "bool"
                }
            ],
            "stateMutability": "nonpayable",
            "type": "function"
        },
        {
            "inputs": [
                {
                    "internalType": "address",
                    "name": "",
                    "type": "address"
                }
            ],
            "name": "balanceOf",
            "outputs": [
                {
                    "internalType": "uint256",
                    "name": "",
                    "type": "uint256"
                }
            ],
            "stateMutability": "view",
            "type": "function"
        },
        {
            "inputs": [
                {
                    "internalType": "uint256",
                    "name": "amount",
                    "type": "uint256"
                }
            ],
            "name": "burn",
            "outputs": [],
            "stateMutability": "nonpayable",
            "type": "function"
        },
        {
            "inputs": [
                {
                    "internalType": "address",
                    "name": "account",
                    "type": "address"
                },
                {
                    "internalType": "uint256",
                    "name": "amount",
                    "type": "uint256"
                }
            ],
            "name": "burnFrom",
            "outputs": [],
            "stateMutability": "nonpayable",
            "type": "function"
        },
        {
            "inputs": [
                {
                    "internalType": "address",
                    "name": "recipient",
                    "type": "address"
                },
                {
                    "internalType": "bool",
                    "name": "isMax",
                    "type": "bool"
                }
            ],
            "name": "claimGas",
            "outputs": [
                {
                    "internalType": "uint256",
                    "name": "",
                    "type": "uint256"
                }
            ],
            "stateMutability": "nonpayable",
            "type": "function"
        },
        {
            "inputs": [],
            "name": "decimals",
            "outputs": [
                {
                    "internalType": "uint8",
                    "name": "",
                    "type": "uint8"
                }
            ],
            "stateMutability": "view",
            "type": "function"
        },
        {
            "inputs": [],
            "name": "factory",
            "outputs": [
                {
                    "internalType": "address",
                    "name": "",
                    "type": "address"
                }
            ],
            "stateMutability": "view",
            "type": "function"
        },
        {
            "inputs": [],
            "name": "manager",
            "outputs": [
                {
                    "internalType": "address",
                    "name": "",
                    "type": "address"
                }
            ],
            "stateMutability": "view",
            "type": "function"
        },
        {
            "inputs": [
                {
                    "internalType": "address",
                    "name": "account",
                    "type": "address"
                },
                {
                    "internalType": "uint256",
                    "name": "amount",
                    "type": "uint256"
                }
            ],
            "name": "mint",
            "outputs": [],
            "stateMutability": "nonpayable",
            "type": "function"
        },
        {
            "inputs": [],
            "name": "name",
            "outputs": [
                {
                    "internalType": "string",
                    "name": "",
                    "type": "string"
                }
            ],
            "stateMutability": "view",
            "type": "function"
        },
        {
            "inputs": [
                {
                    "internalType": "address",
                    "name": "",
                    "type": "address"
                }
            ],
            "name": "nonces",
            "outputs": [
                {
                    "internalType": "uint256",
                    "name": "",
                    "type": "uint256"
                }
            ],
            "stateMutability": "view",
            "type": "function"
        },
        {
            "inputs": [
                {
                    "internalType": "address",
                    "name": "owner",
                    "type": "address"
                },
                {
                    "internalType": "address",
                    "name": "spender",
                    "type": "address"
                },
                {
                    "internalType": "uint256",
                    "name": "value",
                    "type": "uint256"
                },
                {
                    "internalType": "uint256",
                    "name": "deadline",
                    "type": "uint256"
                },
                {
                    "internalType": "uint8",
                    "name": "v",
                    "type": "uint8"
                },
                {
                    "internalType": "bytes32",
                    "name": "r",
                    "type": "bytes32"
                },
                {
                    "internalType": "bytes32",
                    "name": "s",
                    "type": "bytes32"
                }
            ],
            "name": "permit",
            "outputs": [],
            "stateMutability": "nonpayable",
            "type": "function"
        },
        {
            "inputs": [
                {
                    "internalType": "address",
                    "name": "blastGas",
                    "type": "address"
                }
            ],
            "name": "setGasMode",
            "outputs": [],
            "stateMutability": "nonpayable",
            "type": "function"
        },
        {
            "inputs": [
                {
                    "internalType": "address",
                    "name": "_manager",
                    "type": "address"
                }
            ],
            "name": "setManager",
            "outputs": [],
            "stateMutability": "nonpayable",
            "type": "function"
        },
        {
            "inputs": [
                {
                    "internalType": "address",
                    "name": "blastPoints",
                    "type": "address"
                },
                {
                    "internalType": "address",
                    "name": "operator",
                    "type": "address"
                }
            ],
            "name": "setPointsOperator",
            "outputs": [],
            "stateMutability": "nonpayable",
            "type": "function"
        },
        {
            "inputs": [],
            "name": "symbol",
            "outputs": [
                {
                    "internalType": "string",
                    "name": "",
                    "type": "string"
                }
            ],
            "stateMutability": "view",
            "type": "function"
        },
        {
            "inputs": [],
            "name": "token",
            "outputs": [
                {
                    "internalType": "address",
                    "name": "",
                    "type": "address"
                }
            ],
            "stateMutability": "view",
            "type": "function"
        },
        {
            "inputs": [],
            "name": "totalSupply",
            "outputs": [
                {
                    "internalType": "uint256",
                    "name": "",
                    "type": "uint256"
                }
            ],
            "stateMutability": "view",
            "type": "function"
        },
        {
            "inputs": [
                {
                    "internalType": "address",
                    "name": "to",
                    "type": "address"
                },
                {
                    "internalType": "uint256",
                    "name": "value",
                    "type": "uint256"
                }
            ],
            "name": "transfer",
            "outputs": [
                {
                    "internalType": "bool",
                    "name": "",
                    "type": "bool"
                }
            ],
            "stateMutability": "nonpayable",
            "type": "function"
        },
        {
            "inputs": [
                {
                    "internalType": "address",
                    "name": "from",
                    "type": "address"
                },
                {
                    "internalType": "address",
                    "name": "to",
                    "type": "address"
                },
                {
                    "internalType": "uint256",
                    "name": "value",
                    "type": "uint256"
                }
            ],
            "name": "transferFrom",
            "outputs": [
                {
                    "internalType": "bool",
                    "name": "",
                    "type": "bool"
                }
            ],
            "stateMutability": "nonpayable",
            "type": "function"
        },
        {
            "inputs": [
                {
                    "internalType": "uint256",
                    "name": "amount",
                    "type": "uint256"
                }
            ],
            "name": "unwrap",
            "outputs": [
                {
                    "internalType": "uint256",
                    "name": "",
                    "type": "uint256"
                }
            ],
            "stateMutability": "nonpayable",
            "type": "function"
        },
        {
            "inputs": [
                {
                    "internalType": "uint256",
                    "name": "amount",
                    "type": "uint256"
                },
                {
                    "internalType": "address",
                    "name": "to",
                    "type": "address"
                }
            ],
            "name": "unwrapTo",
            "outputs": [
                {
                    "internalType": "uint256",
                    "name": "",
                    "type": "uint256"
                }
            ],
            "stateMutability": "nonpayable",
            "type": "function"
        },
        {
            "inputs": [
                {
                    "internalType": "uint256",
                    "name": "amount",
                    "type": "uint256"
                }
            ],
            "name": "wrap",
            "outputs": [
                {
                    "internalType": "uint256",
                    "name": "",
                    "type": "uint256"
                }
            ],
            "stateMutability": "nonpayable",
            "type": "function"
        },
        {
            "inputs": [
                {
                    "internalType": "uint256",
                    "name": "amount",
                    "type": "uint256"
                },
                {
                    "internalType": "address",
                    "name": "to",
                    "type": "address"
                }
            ],
            "name": "wrapTo",
            "outputs": [
                {
                    "internalType": "uint256",
                    "name": "",
                    "type": "uint256"
                }
            ],
            "stateMutability": "nonpayable",
            "type": "function"
        }
    ],
    "bytecode": "0x60806040523480156200001157600080fd5b50600080546001600160a01b031916331781556040805163388a0bbd60e11b8152905173430000000000000000000000000000000000000292637114177a926004808201939182900301818387803b1580156200006d57600080fd5b505af115801562000082573d6000803e3d6000fd5b505050507343000000000000000000000000000000000000026001600160a01b0316634e606c476040518163ffffffff1660e01b8152600401600060405180830381600087803b158015620000d657600080fd5b505af1158015620000eb573d6000803e3d6000fd5b5050600880546001600160a01b031916339081179091556040805163ad4d4e2960e01b8152905146945091925063ad4d4e29916004808301926020929190829003018186803b1580156200013e57600080fd5b505afa15801562000153573d6000803e3d6000fd5b505050506040513d60208110156200016a57600080fd5b5051600980546001600160a01b0319166001600160a01b039283161790819055604080516306fdde0360e01b8152905191909216916306fdde03916004808301926000929190829003018186803b158015620001c557600080fd5b505afa158015620001da573d6000803e3d6000fd5b505050506040513d6000823e601f3d908101601f1916820160405260208110156200020457600080fd5b81019080805160405193929190846401000000008211156200022557600080fd5b9083019060208201858111156200023b57600080fd5b82516401000000008111828201881017156200025657600080fd5b82525081516020918201929091019080838360005b83811015620002855781810151838201526020016200026b565b50505050905090810190601f168015620002b35780820380516001836020036101000a031916815260200191505b5060405250505060405160200180806b02332bb902bb930b83832b2160a51b815250600c0182805190602001908083835b60208310620003055780518252601f199092019160209182019101620002e4565b6001836020036101000a038019825116818451168082178552505050505050905001915050604051602081830303815290604052600190805190602001906200035092919062000623565b50600960009054906101000a90046001600160a01b03166001600160a01b03166395d89b416040518163ffffffff1660e01b815260040160006040518083038186803b158015620003a057600080fd5b505afa158015620003b5573d6000803e3d6000fd5b505050506040513d6000823e601f3d908101601f191682016040526020811015620003df57600080fd5b81019080805160405193929190846401000000008211156200040057600080fd5b9083019060208201858111156200041657600080fd5b82516401000000008111828201881017156200043157600080fd5b82525081516020918201929091019080838360005b838110156200046057818101518382015260200162000446565b50505050905090810190601f1680156200048e5780820380516001836020036101000a031916815260200191505b50604052505050604051602001808061667760f01b81525060020182805190602001908083835b60208310620004d65780518252601f199092019160209182019101620004b5565b6001836020036101000a038019825116818451168082178552505050505050905001915050604051602081830303815290604052600290805190602001906200052192919062000623565b5060405180605262002c55823960520190506040518091039020600160405180828054600181600116156101000203166002900480156200059c5780601f10620005795761010080835404028352918201916200059c565b820191906000526020600020905b81548152906001019060200180831162000587575b505060408051918290038220828201825260018352603160f81b602093840152815180840196909652858201527fc89efdaa54c0f20c7adf612882df0950f5a951637e0307cdcb4c672f298b8bc6606086015260808501959095523060a0808601919091528551808603909101815260c090940190945250508051910120600655620006c8565b828054600181600116156101000203166002900490600052602060002090601f016020900481019282601f106200066657805160ff191683800117855562000696565b8280016001018555821562000696579182015b828111156200069657825182559160200191906001019062000679565b50620006a4929150620006a8565b5090565b620006c591905b80821115620006a45760008155600101620006af565b90565b61257d80620006d86000396000f3fe608060405234801561001057600080fd5b50600436106101c45760003560e01c806379cc6790116100f9578063d0ebdbe711610097578063de0e9a3e11610071578063de0e9a3e14610643578063e220831d14610660578063ea598cb01461069b578063fc0c546a146106b8576101c4565b8063d0ebdbe714610577578063d505accf146105aa578063dd62ed3e14610608576101c4565b806397d75776116100d357806397d75776146104f3578063a9059cbb146104fb578063c45a015514610534578063c8b11dfe1461053c576101c4565b806379cc67901461047f5780637ecebe00146104b857806395d89b41146104eb576101c4565b8063313ce5671161016657806342966c681161014057806342966c68146103c5578063481c6a75146103e25780635dbd60591461041357806370a082311461044c576101c4565b8063313ce567146103665780633644e5151461038457806340c10f191461038c576101c4565b806323b872dd116101a257806323b872dd146102ad57806326599850146102f05780632d195bd21461032957806330adf81f1461035e576101c4565b806306fdde03146101c9578063095ea7b31461024657806318160ddd14610293575b600080fd5b6101d16106c0565b6040805160208082528351818301528351919283929083019185019080838360005b8381101561020b5781810151838201526020016101f3565b50505050905090810190601f1680156102385780820380516001836020036101000a031916815260200191505b509250505060405180910390f35b61027f6004803603604081101561025c57600080fd5b5073ffffffffffffffffffffffffffffffffffffffff813516906020013561076b565b604080519115158252519081900360200190f35b61029b610782565b60408051918252519081900360200190f35b61027f600480360360608110156102c357600080fd5b5073ffffffffffffffffffffffffffffffffffffffff813581169160208101359091169060400135610788565b61029b6004803603604081101561030657600080fd5b508035906020013573ffffffffffffffffffffffffffffffffffffffff16610867565b61035c6004803603602081101561033f57600080fd5b503573ffffffffffffffffffffffffffffffffffffffff1661095a565b005b61029b610b55565b61036e610b79565b6040805160ff9092168252519081900360200190f35b61029b610b7e565b61035c600480360360408110156103a257600080fd5b5073ffffffffffffffffffffffffffffffffffffffff8135169060200135610b84565b61035c600480360360208110156103db57600080fd5b5035610e78565b6103ea610ebc565b6040805173ffffffffffffffffffffffffffffffffffffffff9092168252519081900360200190f35b61029b6004803603604081101561042957600080fd5b508035906020013573ffffffffffffffffffffffffffffffffffffffff16610ed8565b61029b6004803603602081101561046257600080fd5b503573ffffffffffffffffffffffffffffffffffffffff16610fb4565b61035c6004803603604081101561049557600080fd5b5073ffffffffffffffffffffffffffffffffffffffff8135169060200135610fc6565b61029b600480360360208110156104ce57600080fd5b503573ffffffffffffffffffffffffffffffffffffffff166112ba565b6101d16112cc565b6103ea611342565b61027f6004803603604081101561051157600080fd5b5073ffffffffffffffffffffffffffffffffffffffff813516906020013561135a565b6103ea611367565b61029b6004803603604081101561055257600080fd5b5073ffffffffffffffffffffffffffffffffffffffff81351690602001351515611383565b61035c6004803603602081101561058d57600080fd5b503573ffffffffffffffffffffffffffffffffffffffff16611666565b61035c600480360360e08110156105c057600080fd5b5073ffffffffffffffffffffffffffffffffffffffff813581169160208101359091169060408101359060608101359060ff6080820135169060a08101359060c00135611845565b61029b6004803603604081101561061e57600080fd5b5073ffffffffffffffffffffffffffffffffffffffff81358116916020013516611b11565b61029b6004803603602081101561065957600080fd5b5035611b2e565b61035c6004803603604081101561067657600080fd5b5073ffffffffffffffffffffffffffffffffffffffff81358116916020013516611b3a565b61029b600480360360208110156106b157600080fd5b5035611d6d565b6103ea611d79565b60018054604080516020600284861615610100027fffffffffffffffffffffffffffffffffffffffffffffffffffffffffffffffff0190941693909304601f810184900484028201840190925281815292918301828280156107635780601f1061073857610100808354040283529160200191610763565b820191906000526020600020905b81548152906001019060200180831161074657829003601f168201915b505050505081565b6000610778338484611d95565b5060015b92915050565b60035481565b73ffffffffffffffffffffffffffffffffffffffff831660009081526005602090815260408083203384529091528120547fffffffffffffffffffffffffffffffffffffffffffffffffffffffffffffffff146108525773ffffffffffffffffffffffffffffffffffffffff84166000908152600560209081526040808320338452909152902054610820908363ffffffff611e0416565b73ffffffffffffffffffffffffffffffffffffffff851660009081526005602090815260408083203384529091529020555b61085d848484611e76565b5060019392505050565b60008083116108d757604080517f08c379a000000000000000000000000000000000000000000000000000000000815260206004820152601a60248201527f4665773a2063616e27742077726170207a65726f20746f6b656e000000000000604482015290519081900360640190fd5b6009546108fc9073ffffffffffffffffffffffffffffffffffffffff16333086611f57565b610906828461211f565b60408051848152905173ffffffffffffffffffffffffffffffffffffffff84169133917feb5580a0908e96b78bdcb1a3c5638793b491a6073c3ff56061a069cb205817739181900360200190a35090919050565b6000809054906101000a900473ffffffffffffffffffffffffffffffffffffffff1673ffffffffffffffffffffffffffffffffffffffff1663f2f4eb266040518163ffffffff1660e01b815260040160206040518083038186803b1580156109c157600080fd5b505afa1580156109d5573d6000803e3d6000fd5b505050506040513d60208110156109eb57600080fd5b5051604080517fe43581b8000000000000000000000000000000000000000000000000000000008152336004820152905173ffffffffffffffffffffffffffffffffffffffff9092169163e43581b891602480820192602092909190829003018186803b158015610a5b57600080fd5b505afa158015610a6f573d6000803e3d6000fd5b505050506040513d6020811015610a8557600080fd5b5051610af257604080517f08c379a000000000000000000000000000000000000000000000000000000000815260206004820152600960248201527f464f5242494444454e0000000000000000000000000000000000000000000000604482015290519081900360640190fd5b8073ffffffffffffffffffffffffffffffffffffffff16634e606c476040518163ffffffff1660e01b8152600401600060405180830381600087803b158015610b3a57600080fd5b505af1158015610b4e573d6000803e3d6000fd5b5050505050565b7f6e71edae12b1b97f4d1f60370fef10105fa2faae0126114a169c64845d6126c981565b601281565b60065481565b600860009054906101000a900473ffffffffffffffffffffffffffffffffffffffff1673ffffffffffffffffffffffffffffffffffffffff1663f2f4eb266040518163ffffffff1660e01b815260040160206040518083038186803b158015610bec57600080fd5b505afa158015610c00573d6000803e3d6000fd5b505050506040513d6020811015610c1657600080fd5b5051604080517faa271e1a000000000000000000000000000000000000000000000000000000008152336004820152905173ffffffffffffffffffffffffffffffffffffffff9092169163aa271e1a91602480820192602092909190829003018186803b158015610c8657600080fd5b505afa158015610c9a573d6000803e3d6000fd5b505050506040513d6020811015610cb057600080fd5b5051610d1d57604080517f08c379a000000000000000000000000000000000000000000000000000000000815260206004820152601f60248201527f436f72655265663a2043616c6c6572206973206e6f742061206d696e74657200604482015290519081900360640190fd5b600860009054906101000a900473ffffffffffffffffffffffffffffffffffffffff1673ffffffffffffffffffffffffffffffffffffffff16635c975abb6040518163ffffffff1660e01b815260040160206040518083038186803b158015610d8557600080fd5b505afa158015610d99573d6000803e3d6000fd5b505050506040513d6020811015610daf57600080fd5b505115610e1d57604080517f08c379a000000000000000000000000000000000000000000000000000000000815260206004820152601960248201527f436f72655265663a2043616c6c65722069732070617573656400000000000000604482015290519081900360640190fd5b610e27828261211f565b60408051828152905173ffffffffffffffffffffffffffffffffffffffff84169133917fbcad3d7d3dfccb90d49c6063bf70f828901fefc88937d90af74e58e6e55bc39d9181900360200190a35050565b610e8233826121d0565b604080518281529051339182917fdbdf9b8e4b75e75b162d151ec8fc7f0561cabab5fcccfa2600be62223e4300c49181900360200190a350565b60005473ffffffffffffffffffffffffffffffffffffffff1681565b6000808311610f32576040517f08c379a00000000000000000000000000000000000000000000000000000000081526004018080602001828103825260238152602001806124f86023913960400191505060405180910390fd5b610f3c33846121d0565b600954610f609073ffffffffffffffffffffffffffffffffffffffff168385612294565b60408051848152905173ffffffffffffffffffffffffffffffffffffffff84169133917f12d6424519838e57637c6db9df31af32d7926ff0a53dd37007c191d0fe3028189181900360200190a35090919050565b60046020526000908152604090205481565b600860009054906101000a900473ffffffffffffffffffffffffffffffffffffffff1673ffffffffffffffffffffffffffffffffffffffff1663f2f4eb266040518163ffffffff1660e01b815260040160206040518083038186803b15801561102e57600080fd5b505afa158015611042573d6000803e3d6000fd5b505050506040513d602081101561105857600080fd5b5051604080517f4334614a000000000000000000000000000000000000000000000000000000008152336004820152905173ffffffffffffffffffffffffffffffffffffffff90921691634334614a91602480820192602092909190829003018186803b1580156110c857600080fd5b505afa1580156110dc573d6000803e3d6000fd5b505050506040513d60208110156110f257600080fd5b505161115f57604080517f08c379a000000000000000000000000000000000000000000000000000000000815260206004820152601f60248201527f436f72655265663a2043616c6c6572206973206e6f742061206275726e657200604482015290519081900360640190fd5b600860009054906101000a900473ffffffffffffffffffffffffffffffffffffffff1673ffffffffffffffffffffffffffffffffffffffff16635c975abb6040518163ffffffff1660e01b815260040160206040518083038186803b1580156111c757600080fd5b505afa1580156111db573d6000803e3d6000fd5b505050506040513d60208110156111f157600080fd5b50511561125f57604080517f08c379a000000000000000000000000000000000000000000000000000000000815260206004820152601960248201527f436f72655265663a2043616c6c65722069732070617573656400000000000000604482015290519081900360640190fd5b61126982826121d0565b60408051828152905173ffffffffffffffffffffffffffffffffffffffff84169133917fdbdf9b8e4b75e75b162d151ec8fc7f0561cabab5fcccfa2600be62223e4300c49181900360200190a35050565b60076020526000908152604090205481565b600280546040805160206001841615610100027fffffffffffffffffffffffffffffffffffffffffffffffffffffffffffffffff01909316849004601f810184900484028201840190925281815292918301828280156107635780601f1061073857610100808354040283529160200191610763565b73430000000000000000000000000000000000000281565b6000610778338484611e76565b60085473ffffffffffffffffffffffffffffffffffffffff1681565b60008060009054906101000a900473ffffffffffffffffffffffffffffffffffffffff1673ffffffffffffffffffffffffffffffffffffffff1663f2f4eb266040518163ffffffff1660e01b815260040160206040518083038186803b1580156113ec57600080fd5b505afa158015611400573d6000803e3d6000fd5b505050506040513d602081101561141657600080fd5b5051604080517fe43581b8000000000000000000000000000000000000000000000000000000008152336004820152905173ffffffffffffffffffffffffffffffffffffffff9092169163e43581b891602480820192602092909190829003018186803b15801561148657600080fd5b505afa15801561149a573d6000803e3d6000fd5b505050506040513d60208110156114b057600080fd5b505161151d57604080517f08c379a000000000000000000000000000000000000000000000000000000000815260206004820152600960248201527f464f5242494444454e0000000000000000000000000000000000000000000000604482015290519081900360640190fd5b81156115de57604080517f662aa11d00000000000000000000000000000000000000000000000000000000815230600482015273ffffffffffffffffffffffffffffffffffffffff8516602482015290517343000000000000000000000000000000000000029163662aa11d9160448083019260209291908290030181600087803b1580156115ab57600080fd5b505af11580156115bf573d6000803e3d6000fd5b505050506040513d60208110156115d557600080fd5b5051905061077c565b604080517f954fa5ee00000000000000000000000000000000000000000000000000000000815230600482015273ffffffffffffffffffffffffffffffffffffffff8516602482015290517343000000000000000000000000000000000000029163954fa5ee9160448083019260209291908290030181600087803b1580156115ab57600080fd5b6000809054906101000a900473ffffffffffffffffffffffffffffffffffffffff1673ffffffffffffffffffffffffffffffffffffffff1663f2f4eb266040518163ffffffff1660e01b815260040160206040518083038186803b1580156116cd57600080fd5b505afa1580156116e1573d6000803e3d6000fd5b505050506040513d60208110156116f757600080fd5b5051604080517fe43581b8000000000000000000000000000000000000000000000000000000008152336004820152905173ffffffffffffffffffffffffffffffffffffffff9092169163e43581b891602480820192602092909190829003018186803b15801561176757600080fd5b505afa15801561177b573d6000803e3d6000fd5b505050506040513d602081101561179157600080fd5b50516117fe57604080517f08c379a000000000000000000000000000000000000000000000000000000000815260206004820152600960248201527f464f5242494444454e0000000000000000000000000000000000000000000000604482015290519081900360640190fd5b600080547fffffffffffffffffffffffff00000000000000000000000000000000000000001673ffffffffffffffffffffffffffffffffffffffff92909216919091179055565b428410156118b457604080517f08c379a000000000000000000000000000000000000000000000000000000000815260206004820152600c60248201527f4665773a20455850495245440000000000000000000000000000000000000000604482015290519081900360640190fd5b60065473ffffffffffffffffffffffffffffffffffffffff80891660008181526007602090815260408083208054600180820190925582517f6e71edae12b1b97f4d1f60370fef10105fa2faae0126114a169c64845d6126c98186015280840196909652958d166060860152608085018c905260a085019590955260c08085018b90528151808603909101815260e0850182528051908301207f19010000000000000000000000000000000000000000000000000000000000006101008601526101028501969096526101228085019690965280518085039096018652610142840180825286519683019690962095839052610162840180825286905260ff89166101828501526101a284018890526101c28401879052519193926101e2808201937fffffffffffffffffffffffffffffffffffffffffffffffffffffffffffffffe081019281900390910190855afa158015611a15573d6000803e3d6000fd5b50506040517fffffffffffffffffffffffffffffffffffffffffffffffffffffffffffffffe0015191505073ffffffffffffffffffffffffffffffffffffffff811615801590611a9057508873ffffffffffffffffffffffffffffffffffffffff168173ffffffffffffffffffffffffffffffffffffffff16145b611afb57604080517f08c379a000000000000000000000000000000000000000000000000000000000815260206004820152601660248201527f4665773a20494e56414c49445f5349474e415455524500000000000000000000604482015290519081900360640190fd5b611b06898989611d95565b505050505050505050565b600560209081526000928352604080842090915290825290205481565b600061077c8233610ed8565b6000809054906101000a900473ffffffffffffffffffffffffffffffffffffffff1673ffffffffffffffffffffffffffffffffffffffff1663f2f4eb266040518163ffffffff1660e01b815260040160206040518083038186803b158015611ba157600080fd5b505afa158015611bb5573d6000803e3d6000fd5b505050506040513d6020811015611bcb57600080fd5b5051604080517fe43581b8000000000000000000000000000000000000000000000000000000008152336004820152905173ffffffffffffffffffffffffffffffffffffffff9092169163e43581b891602480820192602092909190829003018186803b158015611c3b57600080fd5b505afa158015611c4f573d6000803e3d6000fd5b505050506040513d6020811015611c6557600080fd5b5051611cd257604080517f08c379a000000000000000000000000000000000000000000000000000000000815260206004820152600960248201527f464f5242494444454e0000000000000000000000000000000000000000000000604482015290519081900360640190fd5b8173ffffffffffffffffffffffffffffffffffffffff166336b91f2b826040518263ffffffff1660e01b8152600401808273ffffffffffffffffffffffffffffffffffffffff1673ffffffffffffffffffffffffffffffffffffffff168152602001915050600060405180830381600087803b158015611d5157600080fd5b505af1158015611d65573d6000803e3d6000fd5b505050505050565b600061077c8233610867565b60095473ffffffffffffffffffffffffffffffffffffffff1681565b73ffffffffffffffffffffffffffffffffffffffff808416600081815260056020908152604080832094871680845294825291829020859055815185815291517f8c5be1e5ebec7d5bd14f71427d1e84f3dd0314c0f7b2291e5b200ac8c7c3b9259281900390910190a3505050565b8082038281111561077c57604080517f08c379a000000000000000000000000000000000000000000000000000000000815260206004820152601560248201527f64732d6d6174682d7375622d756e646572666c6f770000000000000000000000604482015290519081900360640190fd5b73ffffffffffffffffffffffffffffffffffffffff8316600090815260046020526040902054611eac908263ffffffff611e0416565b73ffffffffffffffffffffffffffffffffffffffff8085166000908152600460205260408082209390935590841681522054611eee908263ffffffff61245416565b73ffffffffffffffffffffffffffffffffffffffff80841660008181526004602090815260409182902094909455805185815290519193928716927fddf252ad1be2c89b69c2b068fc378daa952ba7f163c4a11628f55a4df523b3ef92918290030190a3505050565b6040805173ffffffffffffffffffffffffffffffffffffffff85811660248301528481166044830152606480830185905283518084039091018152608490920183526020820180517bffffffffffffffffffffffffffffffffffffffffffffffffffffffff167f23b872dd0000000000000000000000000000000000000000000000000000000017815292518251600094606094938a169392918291908083835b6020831061203557805182527fffffffffffffffffffffffffffffffffffffffffffffffffffffffffffffffe09092019160209182019101611ff8565b6001836020036101000a0380198251168184511680821785525050505050509050019150506000604051808303816000865af19150503d8060008114612097576040519150601f19603f3d011682016040523d82523d6000602084013e61209c565b606091505b50915091508180156120ca5750805115806120ca57508080602001905160208110156120c757600080fd5b50515b611d65576040517f08c379a00000000000000000000000000000000000000000000000000000000081526004018080602001828103825260318152602001806124c76031913960400191505060405180910390fd5b600354612132908263ffffffff61245416565b60035573ffffffffffffffffffffffffffffffffffffffff821660009081526004602052604090205461216b908263ffffffff61245416565b73ffffffffffffffffffffffffffffffffffffffff831660008181526004602090815260408083209490945583518581529351929391927fddf252ad1be2c89b69c2b068fc378daa952ba7f163c4a11628f55a4df523b3ef9281900390910190a35050565b73ffffffffffffffffffffffffffffffffffffffff8216600090815260046020526040902054612206908263ffffffff611e0416565b73ffffffffffffffffffffffffffffffffffffffff831660009081526004602052604090205560035461223f908263ffffffff611e0416565b60035560408051828152905160009173ffffffffffffffffffffffffffffffffffffffff8516917fddf252ad1be2c89b69c2b068fc378daa952ba7f163c4a11628f55a4df523b3ef9181900360200190a35050565b6040805173ffffffffffffffffffffffffffffffffffffffff8481166024830152604480830185905283518084039091018152606490920183526020820180517bffffffffffffffffffffffffffffffffffffffffffffffffffffffff167fa9059cbb00000000000000000000000000000000000000000000000000000000178152925182516000946060949389169392918291908083835b6020831061236a57805182527fffffffffffffffffffffffffffffffffffffffffffffffffffffffffffffffe0909201916020918201910161232d565b6001836020036101000a0380198251168184511680821785525050505050509050019150506000604051808303816000865af19150503d80600081146123cc576040519150601f19603f3d011682016040523d82523d6000602084013e6123d1565b606091505b50915091508180156123ff5750805115806123ff57508080602001905160208110156123fc57600080fd5b50515b610b4e576040517f08c379a000000000000000000000000000000000000000000000000000000000815260040180806020018281038252602d81526020018061251b602d913960400191505060405180910390fd5b8082018281101561077c57604080517f08c379a000000000000000000000000000000000000000000000000000000000815260206004820152601460248201527f64732d6d6174682d6164642d6f766572666c6f77000000000000000000000000604482015290519081900360640190fdfe5472616e7366657248656c7065723a3a7472616e7366657246726f6d3a207472616e7366657246726f6d206661696c65644665773a207a65726f20616d6f756e7420756e77726170206e6f7420616c6c6f7765645472616e7366657248656c7065723a3a736166655472616e736665723a207472616e73666572206661696c6564a26469706673582212203fc33f19631f6982b9939229a37c5e4a768f74907515d9ac5ebe0d64086ae03d64736f6c63430006060033454950373132446f6d61696e28737472696e67206e616d652c737472696e672076657273696f6e2c75696e7432353620636861696e49642c6164647265737320766572696679696e67436f6e747261637429",
    "linkReferences": {},
    "deployedLinkReferences": {}
}