{
  "abi": [
    {
      "inputs": [],
      "name": "WETH",
      "outputs": [
        {
          "internalType": "address",
          "name": "",
          "type": "address"
        }
      ],
      "stateMutability": "view",
      "type": "function"
    },
    {
      "inputs": [
        {
          "components": [
            {
              "internalType": "address",
              "name": "from",
              "type": "address"
            },
            {
              "internalType": "address",
              "name": "to",
              "type": "address"
            },
            {
              "internalType": "bool",
              "name": "stable",
              "type": "bool"
            }
          ],
          "internalType": "struct route",
          "name": "_route",
          "type": "tuple"
        },
        {
          "internalType": "uint256",
          "name": "amountADesired",
          "type": "uint256"
        },
        {
          "internalType": "uint256",
          "name": "amountBDesired",
          "type": "uint256"
        },
        {
          "internalType": "uint256",
          "name": "amountAMin",
          "type": "uint256"
        },
        {
          "internalType": "uint256",
          "name": "amountBMin",
          "type": "uint256"
        },
        {
          "internalType": "address",
          "name": "to",
          "type": "address"
        },
        {
          "internalType": "uint256",
          "name": "deadline",
          "type": "uint256"
        }
      ],
      "name": "addLiquidity",
      "outputs": [
        {
          "internalType": "uint256",
          "name": "amountA",
          "type": "uint256"
        },
        {
          "internalType": "uint256",
          "name": "amountB",
          "type": "uint256"
        },
        {
          "internalType": "uint256",
          "name": "liquidity",
          "type": "uint256"
        }
      ],
      "stateMutability": "nonpayable",
      "type": "function"
    },
    {
      "inputs": [
        {
          "components": [
            {
              "internalType": "address",
              "name": "from",
              "type": "address"
            },
            {
              "internalType": "address",
              "name": "to",
              "type": "address"
            },
            {
              "internalType": "bool",
              "name": "stable",
              "type": "bool"
            }
          ],
          "internalType": "struct route",
          "name": "_route",
          "type": "tuple"
        },
        {
          "internalType": "uint256",
          "name": "amountTokenDesired",
          "type": "uint256"
        },
        {
          "internalType": "uint256",
          "name": "amountTokenMin",
          "type": "uint256"
        },
        {
          "internalType": "uint256",
          "name": "amountETHMin",
          "type": "uint256"
        },
        {
          "internalType": "address",
          "name": "to",
          "type": "address"
        },
        {
          "internalType": "uint256",
          "name": "deadline",
          "type": "uint256"
        }
      ],
      "name": "addLiquidityETH",
      "outputs": [
        {
          "internalType": "uint256",
          "name": "amountToken",
          "type": "uint256"
        },
        {
          "internalType": "uint256",
          "name": "amountETH",
          "type": "uint256"
        },
        {
          "internalType": "uint256",
          "name": "liquidity",
          "type": "uint256"
        }
      ],
      "stateMutability": "payable",
      "type": "function"
    },
    {
      "inputs": [],
      "name": "factory",
      "outputs": [
        {
          "internalType": "address",
          "name": "",
          "type": "address"
        }
      ],
      "stateMutability": "view",
      "type": "function"
    },
    {
      "inputs": [
        {
          "internalType": "uint256",
          "name": "amountOut",
          "type": "uint256"
        },
        {
          "internalType": "uint256",
          "name": "reserveIn",
          "type": "uint256"
        },
        {
          "internalType": "uint256",
          "name": "reserveOut",
          "type": "uint256"
        },
        {
          "internalType": "bool",
          "name": "stable",
          "type": "bool"
        },
        {
          "internalType": "uint256",
          "name": "decimalIn",
          "type": "uint256"
        },
        {
          "internalType": "uint256",
          "name": "decimalOut",
          "type": "uint256"
        }
      ],
      "name": "getAmountIn",
      "outputs": [
        {
          "internalType": "uint256",
          "name": "amountIn",
          "type": "uint256"
        }
      ],
      "stateMutability": "pure",
      "type": "function"
    },
    {
      "inputs": [
        {
          "internalType": "uint256",
          "name": "amountIn",
          "type": "uint256"
        },
        {
          "internalType": "uint256",
          "name": "reserveIn",
          "type": "uint256"
        },
        {
          "internalType": "uint256",
          "name": "reserveOut",
          "type": "uint256"
        },
        {
          "internalType": "bool",
          "name": "stable",
          "type": "bool"
        },
        {
          "internalType": "uint256",
          "name": "decimalIn",
          "type": "uint256"
        },
        {
          "internalType": "uint256",
          "name": "decimalOut",
          "type": "uint256"
        }
      ],
      "name": "getAmountOut",
      "outputs": [
        {
          "internalType": "uint256",
          "name": "amountOut",
          "type": "uint256"
        }
      ],
      "stateMutability": "pure",
      "type": "function"
    },
    {
      "inputs": [
        {
          "internalType": "uint256",
          "name": "amountOut",
          "type": "uint256"
        },
        {
          "components": [
            {
              "internalType": "address",
              "name": "from",
              "type": "address"
            },
            {
              "internalType": "address",
              "name": "to",
              "type": "address"
            },
            {
              "internalType": "bool",
              "name": "stable",
              "type": "bool"
            }
          ],
          "internalType": "struct route[]",
          "name": "_routes",
          "type": "tuple[]"
        }
      ],
      "name": "getAmountsIn",
      "outputs": [
        {
          "internalType": "uint256[]",
          "name": "amounts",
          "type": "uint256[]"
        }
      ],
      "stateMutability": "view",
      "type": "function"
    },
    {
      "inputs": [
        {
          "internalType": "uint256",
          "name": "amountIn",
          "type": "uint256"
        },
        {
          "components": [
            {
              "internalType": "address",
              "name": "from",
              "type": "address"
            },
            {
              "internalType": "address",
              "name": "to",
              "type": "address"
            },
            {
              "internalType": "bool",
              "name": "stable",
              "type": "bool"
            }
          ],
          "internalType": "struct route[]",
          "name": "_routes",
          "type": "tuple[]"
        }
      ],
      "name": "getAmountsOut",
      "outputs": [
        {
          "internalType": "uint256[]",
          "name": "amounts",
          "type": "uint256[]"
        }
      ],
      "stateMutability": "view",
      "type": "function"
    },
    {
      "inputs": [
        {
          "internalType": "address",
          "name": "_factory",
          "type": "address"
        },
        {
          "internalType": "address",
          "name": "_WETH",
          "type": "address"
        }
      ],
      "name": "initialize",
      "outputs": [],
      "stateMutability": "nonpayable",
      "type": "function"
    },
    {
      "inputs": [
        {
          "internalType": "uint256",
          "name": "amountA",
          "type": "uint256"
        },
        {
          "internalType": "uint256",
          "name": "reserveA",
          "type": "uint256"
        },
        {
          "internalType": "uint256",
          "name": "reserveB",
          "type": "uint256"
        }
      ],
      "name": "quote",
      "outputs": [
        {
          "internalType": "uint256",
          "name": "amountB",
          "type": "uint256"
        }
      ],
      "stateMutability": "pure",
      "type": "function"
    },
    {
      "inputs": [
        {
          "components": [
            {
              "internalType": "address",
              "name": "from",
              "type": "address"
            },
            {
              "internalType": "address",
              "name": "to",
              "type": "address"
            },
            {
              "internalType": "bool",
              "name": "stable",
              "type": "bool"
            }
          ],
          "internalType": "struct route",
          "name": "_route",
          "type": "tuple"
        },
        {
          "internalType": "uint256",
          "name": "liquidity",
          "type": "uint256"
        },
        {
          "internalType": "uint256",
          "name": "amountAMin",
          "type": "uint256"
        },
        {
          "internalType": "uint256",
          "name": "amountBMin",
          "type": "uint256"
        },
        {
          "internalType": "address",
          "name": "to",
          "type": "address"
        },
        {
          "internalType": "uint256",
          "name": "deadline",
          "type": "uint256"
        }
      ],
      "name": "removeLiquidity",
      "outputs": [
        {
          "internalType": "uint256",
          "name": "amountA",
          "type": "uint256"
        },
        {
          "internalType": "uint256",
          "name": "amountB",
          "type": "uint256"
        }
      ],
      "stateMutability": "nonpayable",
      "type": "function"
    },
    {
      "inputs": [
        {
          "components": [
            {
              "internalType": "address",
              "name": "from",
              "type": "address"
            },
            {
              "internalType": "address",
              "name": "to",
              "type": "address"
            },
            {
              "internalType": "bool",
              "name": "stable",
              "type": "bool"
            }
          ],
          "internalType": "struct route",
          "name": "_route",
          "type": "tuple"
        },
        {
          "internalType": "uint256",
          "name": "liquidity",
          "type": "uint256"
        },
        {
          "internalType": "uint256",
          "name": "amountTokenMin",
          "type": "uint256"
        },
        {
          "internalType": "uint256",
          "name": "amountETHMin",
          "type": "uint256"
        },
        {
          "internalType": "address",
          "name": "to",
          "type": "address"
        },
        {
          "internalType": "uint256",
          "name": "deadline",
          "type": "uint256"
        }
      ],
      "name": "removeLiquidityETH",
      "outputs": [
        {
          "internalType": "uint256",
          "name": "amountToken",
          "type": "uint256"
        },
        {
          "internalType": "uint256",
          "name": "amountETH",
          "type": "uint256"
        }
      ],
      "stateMutability": "nonpayable",
      "type": "function"
    },
    {
      "inputs": [
        {
          "components": [
            {
              "internalType": "address",
              "name": "from",
              "type": "address"
            },
            {
              "internalType": "address",
              "name": "to",
              "type": "address"
            },
            {
              "internalType": "bool",
              "name": "stable",
              "type": "bool"
            }
          ],
          "internalType": "struct route",
          "name": "_route",
          "type": "tuple"
        },
        {
          "internalType": "uint256",
          "name": "liquidity",
          "type": "uint256"
        },
        {
          "internalType": "uint256",
          "name": "amountTokenMin",
          "type": "uint256"
        },
        {
          "internalType": "uint256",
          "name": "amountETHMin",
          "type": "uint256"
        },
        {
          "internalType": "address",
          "name": "to",
          "type": "address"
        },
        {
          "internalType": "uint256",
          "name": "deadline",
          "type": "uint256"
        }
      ],
      "name": "removeLiquidityETHSupportingFeeOnTransferTokens",
      "outputs": [
        {
          "internalType": "uint256",
          "name": "amountETH",
          "type": "uint256"
        }
      ],
      "stateMutability": "nonpayable",
      "type": "function"
    },
    {
      "inputs": [
        {
          "components": [
            {
              "internalType": "address",
              "name": "from",
              "type": "address"
            },
            {
              "internalType": "address",
              "name": "to",
              "type": "address"
            },
            {
              "internalType": "bool",
              "name": "stable",
              "type": "bool"
            }
          ],
          "internalType": "struct route",
          "name": "_route",
          "type": "tuple"
        },
        {
          "internalType": "uint256",
          "name": "liquidity",
          "type": "uint256"
        },
        {
          "internalType": "uint256",
          "name": "amountTokenMin",
          "type": "uint256"
        },
        {
          "internalType": "uint256",
          "name": "amountETHMin",
          "type": "uint256"
        },
        {
          "internalType": "address",
          "name": "to",
          "type": "address"
        },
        {
          "internalType": "uint256",
          "name": "deadline",
          "type": "uint256"
        },
        {
          "internalType": "bool",
          "name": "approveMax",
          "type": "bool"
        },
        {
          "components": [
            {
              "internalType": "uint8",
              "name": "v",
              "type": "uint8"
            },
            {
              "internalType": "bytes32",
              "name": "r",
              "type": "bytes32"
            },
            {
              "internalType": "bytes32",
              "name": "s",
              "type": "bytes32"
            }
          ],
          "internalType": "struct Sig",
          "name": "sig",
          "type": "tuple"
        }
      ],
      "name": "removeLiquidityETHWithPermit",
      "outputs": [
        {
          "internalType": "uint256",
          "name": "amountToken",
          "type": "uint256"
        },
        {
          "internalType": "uint256",
          "name": "amountETH",
          "type": "uint256"
        }
      ],
      "stateMutability": "nonpayable",
      "type": "function"
    },
    {
      "inputs": [
        {
          "components": [
            {
              "internalType": "address",
              "name": "from",
              "type": "address"
            },
            {
              "internalType": "address",
              "name": "to",
              "type": "address"
            },
            {
              "internalType": "bool",
              "name": "stable",
              "type": "bool"
            }
          ],
          "internalType": "struct route",
          "name": "_route",
          "type": "tuple"
        },
        {
          "internalType": "uint256",
          "name": "liquidity",
          "type": "uint256"
        },
        {
          "internalType": "uint256",
          "name": "amountTokenMin",
          "type": "uint256"
        },
        {
          "internalType": "uint256",
          "name": "amountETHMin",
          "type": "uint256"
        },
        {
          "internalType": "address",
          "name": "to",
          "type": "address"
        },
        {
          "internalType": "uint256",
          "name": "deadline",
          "type": "uint256"
        },
        {
          "internalType": "bool",
          "name": "approveMax",
          "type": "bool"
        },
        {
          "components": [
            {
              "internalType": "uint8",
              "name": "v",
              "type": "uint8"
            },
            {
              "internalType": "bytes32",
              "name": "r",
              "type": "bytes32"
            },
            {
              "internalType": "bytes32",
              "name": "s",
              "type": "bytes32"
            }
          ],
          "internalType": "struct Sig",
          "name": "sig",
          "type": "tuple"
        }
      ],
      "name": "removeLiquidityETHWithPermitSupportingFeeOnTransferTokens",
      "outputs": [
        {
          "internalType": "uint256",
          "name": "amountETH",
          "type": "uint256"
        }
      ],
      "stateMutability": "nonpayable",
      "type": "function"
    },
    {
      "inputs": [
        {
          "components": [
            {
              "internalType": "address",
              "name": "from",
              "type": "address"
            },
            {
              "internalType": "address",
              "name": "to",
              "type": "address"
            },
            {
              "internalType": "bool",
              "name": "stable",
              "type": "bool"
            }
          ],
          "internalType": "struct route",
          "name": "_route",
          "type": "tuple"
        },
        {
          "internalType": "uint256",
          "name": "liquidity",
          "type": "uint256"
        },
        {
          "internalType": "uint256",
          "name": "amountAMin",
          "type": "uint256"
        },
        {
          "internalType": "uint256",
          "name": "amountBMin",
          "type": "uint256"
        },
        {
          "internalType": "address",
          "name": "to",
          "type": "address"
        },
        {
          "internalType": "uint256",
          "name": "deadline",
          "type": "uint256"
        },
        {
          "internalType": "bool",
          "name": "approveMax",
          "type": "bool"
        },
        {
          "components": [
            {
              "internalType": "uint8",
              "name": "v",
              "type": "uint8"
            },
            {
              "internalType": "bytes32",
              "name": "r",
              "type": "bytes32"
            },
            {
              "internalType": "bytes32",
              "name": "s",
              "type": "bytes32"
            }
          ],
          "internalType": "struct Sig",
          "name": "sig",
          "type": "tuple"
        }
      ],
      "name": "removeLiquidityWithPermit",
      "outputs": [
        {
          "internalType": "uint256",
          "name": "amountA",
          "type": "uint256"
        },
        {
          "internalType": "uint256",
          "name": "amountB",
          "type": "uint256"
        }
      ],
      "stateMutability": "nonpayable",
      "type": "function"
    },
    {
      "inputs": [
        {
          "internalType": "uint256",
          "name": "amountOut",
          "type": "uint256"
        },
        {
          "components": [
            {
              "internalType": "address",
              "name": "from",
              "type": "address"
            },
            {
              "internalType": "address",
              "name": "to",
              "type": "address"
            },
            {
              "internalType": "bool",
              "name": "stable",
              "type": "bool"
            }
          ],
          "internalType": "struct route[]",
          "name": "routes",
          "type": "tuple[]"
        },
        {
          "internalType": "address",
          "name": "to",
          "type": "address"
        },
        {
          "internalType": "uint256",
          "name": "deadline",
          "type": "uint256"
        }
      ],
      "name": "swapETHForExactTokens",
      "outputs": [
        {
          "internalType": "uint256[]",
          "name": "amounts",
          "type": "uint256[]"
        }
      ],
      "stateMutability": "payable",
      "type": "function"
    },
    {
      "inputs": [
        {
          "internalType": "uint256",
          "name": "amountOutMin",
          "type": "uint256"
        },
        {
          "components": [
            {
              "internalType": "address",
              "name": "from",
              "type": "address"
            },
            {
              "internalType": "address",
              "name": "to",
              "type": "address"
            },
            {
              "internalType": "bool",
              "name": "stable",
              "type": "bool"
            }
          ],
          "internalType": "struct route[]",
          "name": "routes",
          "type": "tuple[]"
        },
        {
          "internalType": "address",
          "name": "to",
          "type": "address"
        },
        {
          "internalType": "uint256",
          "name": "deadline",
          "type": "uint256"
        }
      ],
      "name": "swapExactETHForTokens",
      "outputs": [
        {
          "internalType": "uint256[]",
          "name": "amounts",
          "type": "uint256[]"
        }
      ],
      "stateMutability": "payable",
      "type": "function"
    },
    {
      "inputs": [
        {
          "internalType": "uint256",
          "name": "amountOutMin",
          "type": "uint256"
        },
        {
          "components": [
            {
              "internalType": "address",
              "name": "from",
              "type": "address"
            },
            {
              "internalType": "address",
              "name": "to",
              "type": "address"
            },
            {
              "internalType": "bool",
              "name": "stable",
              "type": "bool"
            }
          ],
          "internalType": "struct route[]",
          "name": "routes",
          "type": "tuple[]"
        },
        {
          "internalType": "address",
          "name": "to",
          "type": "address"
        },
        {
          "internalType": "uint256",
          "name": "deadline",
          "type": "uint256"
        }
      ],
      "name": "swapExactETHForTokensSupportingFeeOnTransferTokens",
      "outputs": [],
      "stateMutability": "payable",
      "type": "function"
    },
    {
      "inputs": [
        {
          "internalType": "uint256",
          "name": "amountIn",
          "type": "uint256"
        },
        {
          "internalType": "uint256",
          "name": "amountOutMin",
          "type": "uint256"
        },
        {
          "components": [
            {
              "internalType": "address",
              "name": "from",
              "type": "address"
            },
            {
              "internalType": "address",
              "name": "to",
              "type": "address"
            },
            {
              "internalType": "bool",
              "name": "stable",
              "type": "bool"
            }
          ],
          "internalType": "struct route[]",
          "name": "routes",
          "type": "tuple[]"
        },
        {
          "internalType": "address",
          "name": "to",
          "type": "address"
        },
        {
          "internalType": "uint256",
          "name": "deadline",
          "type": "uint256"
        }
      ],
      "name": "swapExactTokensForETH",
      "outputs": [
        {
          "internalType": "uint256[]",
          "name": "amounts",
          "type": "uint256[]"
        }
      ],
      "stateMutability": "nonpayable",
      "type": "function"
    },
    {
      "inputs": [
        {
          "internalType": "uint256",
          "name": "amountIn",
          "type": "uint256"
        },
        {
          "internalType": "uint256",
          "name": "amountOutMin",
          "type": "uint256"
        },
        {
          "components": [
            {
              "internalType": "address",
              "name": "from",
              "type": "address"
            },
            {
              "internalType": "address",
              "name": "to",
              "type": "address"
            },
            {
              "internalType": "bool",
              "name": "stable",
              "type": "bool"
            }
          ],
          "internalType": "struct route[]",
          "name": "routes",
          "type": "tuple[]"
        },
        {
          "internalType": "address",
          "name": "to",
          "type": "address"
        },
        {
          "internalType": "uint256",
          "name": "deadline",
          "type": "uint256"
        }
      ],
      "name": "swapExactTokensForETHSupportingFeeOnTransferTokens",
      "outputs": [],
      "stateMutability": "nonpayable",
      "type": "function"
    },
    {
      "inputs": [
        {
          "internalType": "uint256",
          "name": "amountIn",
          "type": "uint256"
        },
        {
          "internalType": "uint256",
          "name": "amountOutMin",
          "type": "uint256"
        },
        {
          "components": [
            {
              "internalType": "address",
              "name": "from",
              "type": "address"
            },
            {
              "internalType": "address",
              "name": "to",
              "type": "address"
            },
            {
              "internalType": "bool",
              "name": "stable",
              "type": "bool"
            }
          ],
          "internalType": "struct route[]",
          "name": "routes",
          "type": "tuple[]"
        },
        {
          "internalType": "address",
          "name": "to",
          "type": "address"
        },
        {
          "internalType": "uint256",
          "name": "deadline",
          "type": "uint256"
        }
      ],
      "name": "swapExactTokensForTokens",
      "outputs": [
        {
          "internalType": "uint256[]",
          "name": "amounts",
          "type": "uint256[]"
        }
      ],
      "stateMutability": "nonpayable",
      "type": "function"
    },
    {
      "inputs": [
        {
          "internalType": "uint256",
          "name": "amountIn",
          "type": "uint256"
        },
        {
          "internalType": "uint256",
          "name": "amountOutMin",
          "type": "uint256"
        },
        {
          "components": [
            {
              "internalType": "address",
              "name": "from",
              "type": "address"
            },
            {
              "internalType": "address",
              "name": "to",
              "type": "address"
            },
            {
              "internalType": "bool",
              "name": "stable",
              "type": "bool"
            }
          ],
          "internalType": "struct route[]",
          "name": "routes",
          "type": "tuple[]"
        },
        {
          "internalType": "address",
          "name": "to",
          "type": "address"
        },
        {
          "internalType": "uint256",
          "name": "deadline",
          "type": "uint256"
        }
      ],
      "name": "swapExactTokensForTokensSupportingFeeOnTransferTokens",
      "outputs": [],
      "stateMutability": "nonpayable",
      "type": "function"
    },
    {
      "inputs": [
        {
          "internalType": "uint256",
          "name": "amountOut",
          "type": "uint256"
        },
        {
          "internalType": "uint256",
          "name": "amountInMax",
          "type": "uint256"
        },
        {
          "components": [
            {
              "internalType": "address",
              "name": "from",
              "type": "address"
            },
            {
              "internalType": "address",
              "name": "to",
              "type": "address"
            },
            {
              "internalType": "bool",
              "name": "stable",
              "type": "bool"
            }
          ],
          "internalType": "struct route[]",
          "name": "routes",
          "type": "tuple[]"
        },
        {
          "internalType": "address",
          "name": "to",
          "type": "address"
        },
        {
          "internalType": "uint256",
          "name": "deadline",
          "type": "uint256"
        }
      ],
      "name": "swapTokensForExactETH",
      "outputs": [
        {
          "internalType": "uint256[]",
          "name": "amounts",
          "type": "uint256[]"
        }
      ],
      "stateMutability": "nonpayable",
      "type": "function"
    },
    {
      "inputs": [
        {
          "internalType": "uint256",
          "name": "amountOut",
          "type": "uint256"
        },
        {
          "internalType": "uint256",
          "name": "amountInMax",
          "type": "uint256"
        },
        {
          "components": [
            {
              "internalType": "address",
              "name": "from",
              "type": "address"
            },
            {
              "internalType": "address",
              "name": "to",
              "type": "address"
            },
            {
              "internalType": "bool",
              "name": "stable",
              "type": "bool"
            }
          ],
          "internalType": "struct route[]",
          "name": "routes",
          "type": "tuple[]"
        },
        {
          "internalType": "address",
          "name": "to",
          "type": "address"
        },
        {
          "internalType": "uint256",
          "name": "deadline",
          "type": "uint256"
        }
      ],
      "name": "swapTokensForExactTokens",
      "outputs": [
        {
          "internalType": "uint256[]",
          "name": "amounts",
          "type": "uint256[]"
        }
      ],
      "stateMutability": "nonpayable",
      "type": "function"
    },
    {
      "stateMutability": "payable",
      "type": "receive"
    }
  ],
  "evm": {
    "bytecode": {
      "linkReferences": {},
      "object": "608060405234801561001057600080fd5b5061572680620000216000396000f3fe60806040526004361061019a5760003560e01c806382179c5d116100e1578063cad77ef21161008a578063d8ec277711610064578063d8ec27771461046a578063dc2972c21461048a578063ed1fbca2146104aa578063f41766d8146104ca576101c2565b8063cad77ef21461040a578063d5c54e331461042a578063d69f344c1461044a576101c2565b8063ad5c4648116100bb578063ad5c4648146103b3578063ad615dec146103d5578063c45a0155146103f5576101c2565b806382179c5d146103535780639881fcb41461037357806399e629f914610393576101c2565b806367ffb66a116101435780637af728c81161011d5780637af728c8146102f15780637d03c793146103115780637de50ddf14610333576101c2565b806367ffb66a146102ab5780636cc1ae13146102be57806376c72751146102de576101c2565b8063485cc95511610174578063485cc9551461024b5780634b45e5351461026b578063633afc9214610298576101c2565b80630cd7ee9f146101c757806318a13086146101fe5780633e6c63c91461022b576101c2565b366101c25760015473ffffffffffffffffffffffffffffffffffffffff1633146101c057fe5b005b600080fd5b3480156101d357600080fd5b506101e76101e236600461493b565b6104ea565b6040516101f592919061557f565b60405180910390f35b34801561020a57600080fd5b5061021e610219366004614bf0565b61068d565b6040516101f59190614ed2565b34801561023757600080fd5b506101e76102463660046148de565b6109eb565b34801561025757600080fd5b506101c0610266366004614872565b610aff565b34801561027757600080fd5b5061028b61028636600461493b565b610be0565b6040516101f59190615576565b61021e6102a6366004614ab8565b610d00565b61021e6102b9366004614ab8565b611056565b3480156102ca57600080fd5b506101c06102d9366004614bf0565b611354565b6101c06102ec366004614ab8565b611640565b3480156102fd57600080fd5b506101c061030c366004614bf0565b6119ee565b61032461031f3660046148de565b611cb6565b6040516101f593929190615609565b34801561033f57600080fd5b506101e761034e36600461493b565b611f5f565b34801561035f57600080fd5b506101e761036e366004614a41565b612084565b34801561037f57600080fd5b5061021e61038e366004614b1d565b612309565b34801561039f57600080fd5b5061028b6103ae366004614c8c565b6124fc565b3480156103bf57600080fd5b506103c8612519565b6040516101f59190614ddb565b3480156103e157600080fd5b5061028b6103f0366004614c61565b612535565b34801561040157600080fd5b506103c861254c565b34801561041657600080fd5b5061028b610425366004614a41565b612568565b34801561043657600080fd5b5061021e610445366004614b1d565b6126f9565b34801561045657600080fd5b5061021e610465366004614bf0565b6128e2565b34801561047657600080fd5b5061028b610485366004614c8c565b612acf565b34801561049657600080fd5b506103246104a53660046149bd565b612adf565b3480156104b657600080fd5b5061021e6104c5366004614bf0565b612c5f565b3480156104d657600080fd5b5061021e6104e5366004614bf0565b612da0565b600254600080549091829182916105259173ffffffffffffffffffffffffffffffffffffffff16610520368f90038f018f614a26565b612f36565b9050600085610534578a610556565b7fffffffffffffffffffffffffffffffffffffffffffffffffffffffffffffffff5b905073ffffffffffffffffffffffffffffffffffffffff821663d505accf3330848b61058560208c018c614cde565b8b602001358c604001356040518863ffffffff1660e01b81526004016105b19796959493929190614dfc565b600060405180830381600087803b1580156105cb57600080fd5b505af11580156105df573d6000803e3d6000fd5b50506040517f3e6c63c9000000000000000000000000000000000000000000000000000000008152309450633e6c63c9935061062b92508e91508d908d908d908d908d906004016154f3565b6040805180830381600087803b15801561064457600080fd5b505af1158015610658573d6000803e3d6000fd5b505050506040513d601f19601f8201168201806040525081019061067c9190614bcd565b909b909a5098505050505050505050565b606081428110156106d3576040517f08c379a00000000000000000000000000000000000000000000000000000000081526004016106ca90614f16565b60405180910390fd5b60015473ffffffffffffffffffffffffffffffffffffffff1686867fffffffffffffffffffffffffffffffffffffffffffffffffffffffffffffffff810181811061071a57fe5b9050606002016020016020810190610732919061483a565b73ffffffffffffffffffffffffffffffffffffffff161461077f576040517f08c379a00000000000000000000000000000000000000000000000000000000081526004016106ca9061536e565b6107db888787808060200260200160405190810160405280939291908181526020016000905b828210156107d1576107c260608302860136819003810190614a26565b815260200190600101906107a5565b5050505050612309565b915086826001845103815181106107ee57fe5b6020026020010151101561082e576040517f08c379a00000000000000000000000000000000000000000000000000000000081526004016106ca906153dc565b6108ba8686600081811061083e57fe5b610854926020606090920201908101915061483a565b336108a06002546000809054906101000a900473ffffffffffffffffffffffffffffffffffffffff168b8b600081811061088a57fe5b9050606002018036038101906105209190614a26565b856000815181106108ad57fe5b6020026020010151612fd4565b610917828787808060200260200160405190810160405280939291908181526020016000905b8282101561090c576108fd60608302860136819003810190614a26565b815260200190600101906108e0565b505050505030613101565b600154825173ffffffffffffffffffffffffffffffffffffffff90911690632e1a7d4d9084907fffffffffffffffffffffffffffffffffffffffffffffffffffffffffffffffff810190811061096957fe5b60200260200101516040518263ffffffff1660e01b815260040161098d9190615576565b600060405180830381600087803b1580156109a757600080fd5b505af11580156109bb573d6000803e3d6000fd5b505050506109e084836001855103815181106109d357fe5b60200260200101516132f5565b509695505050505050565b6000808242811015610a29576040517f08c379a00000000000000000000000000000000000000000000000000000000081526004016106ca90614f16565b610a45610a3b368b90038b018b614a26565b8989893089612084565b9093509150610a61610a5a60208b018b61483a565b86856133ae565b6001546040517f2e1a7d4d00000000000000000000000000000000000000000000000000000000815273ffffffffffffffffffffffffffffffffffffffff90911690632e1a7d4d90610ab7908590600401615576565b600060405180830381600087803b158015610ad157600080fd5b505af1158015610ae5573d6000803e3d6000fd5b50505050610af385836132f5565b50965096945050505050565b6000805473ffffffffffffffffffffffffffffffffffffffff8085167fffffffffffffffffffffffff000000000000000000000000000000000000000092831681179093556001805491851691909216179055604080517fa35a337a000000000000000000000000000000000000000000000000000000008152905163a35a337a91600480820192602092909190829003018186803b158015610ba157600080fd5b505afa158015610bb5573d6000803e3d6000fd5b505050506040513d601f19601f82011682018060405250810190610bd991906148c6565b6002555050565b6002546000805490918291610c15919073ffffffffffffffffffffffffffffffffffffffff16610520368e90038e018e614a26565b9050600084610c245789610c46565b7fffffffffffffffffffffffffffffffffffffffffffffffffffffffffffffffff5b905073ffffffffffffffffffffffffffffffffffffffff821663d505accf3330848a610c7560208b018b614cde565b8a602001358b604001356040518863ffffffff1660e01b8152600401610ca19796959493929190614dfc565b600060405180830381600087803b158015610cbb57600080fd5b505af1158015610ccf573d6000803e3d6000fd5b50505050610cf18b803603810190610ce79190614a26565b8b8b8b8b8b612568565b9b9a5050505050505050505050565b60608142811015610d3d576040517f08c379a00000000000000000000000000000000000000000000000000000000081526004016106ca90614f16565b60015473ffffffffffffffffffffffffffffffffffffffff168686600081610d6157fe5b610d77926020606090920201908101915061483a565b73ffffffffffffffffffffffffffffffffffffffff1614610dc4576040517f08c379a00000000000000000000000000000000000000000000000000000000081526004016106ca9061536e565b610e20878787808060200260200160405190810160405280939291908181526020016000905b82821015610e1657610e0760608302860136819003810190614a26565b81526020019060010190610dea565b50505050506126f9565b91503482600081518110610e3057fe5b60200260200101511115610e70576040517f08c379a00000000000000000000000000000000000000000000000000000000081526004016106ca90615140565b600154825173ffffffffffffffffffffffffffffffffffffffff9091169063d0e30db0908490600090610e9f57fe5b60200260200101516040518263ffffffff1660e01b81526004016000604051808303818588803b158015610ed257600080fd5b505af1158015610ee6573d6000803e3d6000fd5b50506001546002546000805473ffffffffffffffffffffffffffffffffffffffff938416965063a9059cbb9550610f2994509192909116908b908b908161088a57fe5b84600081518110610f3657fe5b60200260200101516040518363ffffffff1660e01b8152600401610f5b929190614eac565b602060405180830381600087803b158015610f7557600080fd5b505af1158015610f89573d6000803e3d6000fd5b505050506040513d601f19601f82011682018060405250810190610fad91906148aa565b610fb357fe5b611010828787808060200260200160405190810160405280939291908181526020016000905b8282101561100557610ff660608302860136819003810190614a26565b81526020019060010190610fd9565b505050505086613101565b8160008151811061101d57fe5b602002602001015134111561104c5761104c338360008151811061103d57fe5b602002602001015134036132f5565b5095945050505050565b60608142811015611093576040517f08c379a00000000000000000000000000000000000000000000000000000000081526004016106ca90614f16565b60015473ffffffffffffffffffffffffffffffffffffffff1686866000816110b757fe5b6110cd926020606090920201908101915061483a565b73ffffffffffffffffffffffffffffffffffffffff161461111a576040517f08c379a00000000000000000000000000000000000000000000000000000000081526004016106ca9061536e565b61116c348787808060200260200160405190810160405280939291908181526020016000905b828210156107d15761115d60608302860136819003810190614a26565b81526020019060010190611140565b9150868260018451038151811061117f57fe5b602002602001015110156111bf576040517f08c379a00000000000000000000000000000000000000000000000000000000081526004016106ca906153dc565b600154825173ffffffffffffffffffffffffffffffffffffffff9091169063d0e30db09084906000906111ee57fe5b60200260200101516040518263ffffffff1660e01b81526004016000604051808303818588803b15801561122157600080fd5b505af1158015611235573d6000803e3d6000fd5b50506001546002546000805473ffffffffffffffffffffffffffffffffffffffff938416965063a9059cbb955061127894509192909116908b908b908161088a57fe5b8460008151811061128557fe5b60200260200101516040518363ffffffff1660e01b81526004016112aa929190614eac565b602060405180830381600087803b1580156112c457600080fd5b505af11580156112d8573d6000803e3d6000fd5b505050506040513d601f19601f820116820180604052508101906112fc91906148aa565b61130257fe5b61104c828787808060200260200160405190810160405280939291908181526020016000905b828210156110055761134560608302860136819003810190614a26565b81526020019060010190611328565b804281101561138f576040517f08c379a00000000000000000000000000000000000000000000000000000000081526004016106ca90614f16565b6113f18585600081811061139f57fe5b6113b5926020606090920201908101915061483a565b336113eb6002546000809054906101000a900473ffffffffffffffffffffffffffffffffffffffff168a8a600081811061088a57fe5b8a612fd4565b600085857fffffffffffffffffffffffffffffffffffffffffffffffffffffffffffffffff810181811061142157fe5b9050606002016020016020810190611439919061483a565b73ffffffffffffffffffffffffffffffffffffffff166370a08231856040518263ffffffff1660e01b81526004016114719190614ddb565b60206040518083038186803b15801561148957600080fd5b505afa15801561149d573d6000803e3d6000fd5b505050506040513d601f19601f820116820180604052508101906114c191906148c6565b905061151f8686808060200260200160405190810160405280939291908181526020016000905b828210156115145761150560608302860136819003810190614a26565b815260200190600101906114e8565b5050505050856134d8565b866115fe8288887fffffffffffffffffffffffffffffffffffffffffffffffffffffffffffffffff810181811061155257fe5b905060600201602001602081019061156a919061483a565b73ffffffffffffffffffffffffffffffffffffffff166370a08231886040518263ffffffff1660e01b81526004016115a29190614ddb565b60206040518083038186803b1580156115ba57600080fd5b505afa1580156115ce573d6000803e3d6000fd5b505050506040513d601f19601f820116820180604052508101906115f291906148c6565b9063ffffffff61396c16565b1015611636576040517f08c379a00000000000000000000000000000000000000000000000000000000081526004016106ca906153dc565b5050505050505050565b804281101561167b576040517f08c379a00000000000000000000000000000000000000000000000000000000081526004016106ca90614f16565b60015473ffffffffffffffffffffffffffffffffffffffff16858560008161169f57fe5b6116b5926020606090920201908101915061483a565b73ffffffffffffffffffffffffffffffffffffffff1614611702576040517f08c379a00000000000000000000000000000000000000000000000000000000081526004016106ca9061536e565b600154604080517fd0e30db00000000000000000000000000000000000000000000000000000000081529051349273ffffffffffffffffffffffffffffffffffffffff169163d0e30db091849160048082019260009290919082900301818588803b15801561177057600080fd5b505af1158015611784573d6000803e3d6000fd5b50506001546002546000805473ffffffffffffffffffffffffffffffffffffffff938416965063a9059cbb95506117c794509192909116908b908b908161088a57fe5b836040518363ffffffff1660e01b81526004016117e5929190614eac565b602060405180830381600087803b1580156117ff57600080fd5b505af1158015611813573d6000803e3d6000fd5b505050506040513d601f19601f8201168201806040525081019061183791906148aa565b61183d57fe5b600086867fffffffffffffffffffffffffffffffffffffffffffffffffffffffffffffffff810181811061186d57fe5b9050606002016020016020810190611885919061483a565b73ffffffffffffffffffffffffffffffffffffffff166370a08231866040518263ffffffff1660e01b81526004016118bd9190614ddb565b60206040518083038186803b1580156118d557600080fd5b505afa1580156118e9573d6000803e3d6000fd5b505050506040513d601f19601f8201168201806040525081019061190d91906148c6565b905061196b8787808060200260200160405190810160405280939291908181526020016000905b828210156119605761195160608302860136819003810190614a26565b81526020019060010190611934565b5050505050866134d8565b876115fe8289897fffffffffffffffffffffffffffffffffffffffffffffffffffffffffffffffff810181811061199e57fe5b90506060020160200160208101906119b6919061483a565b73ffffffffffffffffffffffffffffffffffffffff166370a08231896040518263ffffffff1660e01b81526004016115a29190614ddb565b8042811015611a29576040517f08c379a00000000000000000000000000000000000000000000000000000000081526004016106ca90614f16565b60015473ffffffffffffffffffffffffffffffffffffffff1685857fffffffffffffffffffffffffffffffffffffffffffffffffffffffffffffffff8101818110611a7057fe5b9050606002016020016020810190611a88919061483a565b73ffffffffffffffffffffffffffffffffffffffff1614611ad5576040517f08c379a00000000000000000000000000000000000000000000000000000000081526004016106ca9061536e565b611ae58585600081811061139f57fe5b611b418585808060200260200160405190810160405280939291908181526020016000905b82821015611b3657611b2760608302860136819003810190614a26565b81526020019060010190611b0a565b5050505050306134d8565b6001546040517f70a0823100000000000000000000000000000000000000000000000000000000815260009173ffffffffffffffffffffffffffffffffffffffff16906370a0823190611b98903090600401614ddb565b60206040518083038186803b158015611bb057600080fd5b505afa158015611bc4573d6000803e3d6000fd5b505050506040513d601f19601f82011682018060405250810190611be891906148c6565b905086811015611c24576040517f08c379a00000000000000000000000000000000000000000000000000000000081526004016106ca906153dc565b6001546040517f2e1a7d4d00000000000000000000000000000000000000000000000000000000815273ffffffffffffffffffffffffffffffffffffffff90911690632e1a7d4d90611c7a908490600401615576565b600060405180830381600087803b158015611c9457600080fd5b505af1158015611ca8573d6000803e3d6000fd5b5050505061163684826132f5565b60008060008342811015611cf6576040517f08c379a00000000000000000000000000000000000000000000000000000000081526004016106ca90614f16565b611d11611d08368c90038c018c614a26565b8a348b8b6139a9565b600254600080549397509195509091611d4a919073ffffffffffffffffffffffffffffffffffffffff16610520368f90038f018f614a26565b9050611d64611d5c60208d018d61483a565b338388612fd4565b600160009054906101000a900473ffffffffffffffffffffffffffffffffffffffff1673ffffffffffffffffffffffffffffffffffffffff1663d0e30db0856040518263ffffffff1660e01b81526004016000604051808303818588803b158015611dce57600080fd5b505af1158015611de2573d6000803e3d6000fd5b50506001546040517fa9059cbb00000000000000000000000000000000000000000000000000000000815273ffffffffffffffffffffffffffffffffffffffff909116935063a9059cbb9250611e3f915084908890600401614eac565b602060405180830381600087803b158015611e5957600080fd5b505af1158015611e6d573d6000803e3d6000fd5b505050506040513d601f19601f82011682018060405250810190611e9191906148aa565b611e9757fe5b6040517f6a62784200000000000000000000000000000000000000000000000000000000815273ffffffffffffffffffffffffffffffffffffffff821690636a62784290611ee9908a90600401614ddb565b602060405180830381600087803b158015611f0357600080fd5b505af1158015611f17573d6000803e3d6000fd5b505050506040513d601f19601f82011682018060405250810190611f3b91906148c6565b925083341115611f5157611f51338534036132f5565b505096509650969350505050565b60025460008054909182918291611f959173ffffffffffffffffffffffffffffffffffffffff16610520368f90038f018f614a26565b9050600085611fa4578a611fc6565b7fffffffffffffffffffffffffffffffffffffffffffffffffffffffffffffffff5b905073ffffffffffffffffffffffffffffffffffffffff821663d505accf3330848b611ff560208c018c614cde565b8b602001358c604001356040518863ffffffff1660e01b81526004016120219796959493929190614dfc565b600060405180830381600087803b15801561203b57600080fd5b505af115801561204f573d6000803e3d6000fd5b505050506120718c8036038101906120679190614a26565b8c8c8c8c8c612084565b909d909c509a5050505050505050505050565b60008082428110156120c2576040517f08c379a00000000000000000000000000000000000000000000000000000000081526004016106ca90614f16565b6002546000805490916120eb9173ffffffffffffffffffffffffffffffffffffffff168c612f36565b6040517f23b872dd00000000000000000000000000000000000000000000000000000000815290915073ffffffffffffffffffffffffffffffffffffffff8216906323b872dd9061214490339085908e90600401614e4a565b602060405180830381600087803b15801561215e57600080fd5b505af1158015612172573d6000803e3d6000fd5b505050506040513d601f19601f8201168201806040525081019061219691906148aa565b506000808273ffffffffffffffffffffffffffffffffffffffff166389afcb44896040518263ffffffff1660e01b81526004016121d39190614ddb565b6040805180830381600087803b1580156121ec57600080fd5b505af1158015612200573d6000803e3d6000fd5b505050506040513d601f19601f820116820180604052508101906122249190614bcd565b91509150600061223c8d600001518e60200151613c3f565b5090508073ffffffffffffffffffffffffffffffffffffffff168d6000015173ffffffffffffffffffffffffffffffffffffffff161461227d578183612280565b82825b90975095508a8710156122bf576040517f08c379a00000000000000000000000000000000000000000000000000000000081526004016106ca90615496565b898610156122f9576040517f08c379a00000000000000000000000000000000000000000000000000000000081526004016106ca906151fa565b5050505050965096945050505050565b606080825160010167ffffffffffffffff8111801561232757600080fd5b50604051908082528060200260200182016040528015612351578160200160208202803683370190505b5090508260008151811061236157fe5b60200260200101516000015173ffffffffffffffffffffffffffffffffffffffff1663313ce5676040518163ffffffff1660e01b815260040160206040518083038186803b1580156123b257600080fd5b505afa1580156123c6573d6000803e3d6000fd5b505050506040513d601f19601f820116820180604052508101906123ea9190614cfa565b60ff16816000815181106123fa57fe5b60200260200101818152505060005b83518110156124cc5783818151811061241e57fe5b60200260200101516020015173ffffffffffffffffffffffffffffffffffffffff1663313ce5676040518163ffffffff1660e01b815260040160206040518083038186803b15801561246f57600080fd5b505afa158015612483573d6000803e3d6000fd5b505050506040513d601f19601f820116820180604052508101906124a79190614cfa565b60ff168282600101815181106124b957fe5b6020908102919091010152600101612409565b506000546124f29073ffffffffffffffffffffffffffffffffffffffff16858584613d3e565b9150505b92915050565b600061250c878787878787613e9f565b90505b9695505050505050565b60015473ffffffffffffffffffffffffffffffffffffffff1681565b6000612542848484614010565b90505b9392505050565b60005473ffffffffffffffffffffffffffffffffffffffff1681565b600081428110156125a5576040517f08c379a00000000000000000000000000000000000000000000000000000000081526004016106ca90614f16565b6125b3888888883088612084565b89516040517f70a08231000000000000000000000000000000000000000000000000000000008152919450612667925090869073ffffffffffffffffffffffffffffffffffffffff8316906370a0823190612612903090600401614ddb565b60206040518083038186803b15801561262a57600080fd5b505afa15801561263e573d6000803e3d6000fd5b505050506040513d601f19601f8201168201806040525081019061266291906148c6565b6133ae565b6001546040517f2e1a7d4d00000000000000000000000000000000000000000000000000000000815273ffffffffffffffffffffffffffffffffffffffff90911690632e1a7d4d906126bd908590600401615576565b600060405180830381600087803b1580156126d757600080fd5b505af11580156126eb573d6000803e3d6000fd5b505050506109e084836132f5565b606080825160010167ffffffffffffffff8111801561271757600080fd5b50604051908082528060200260200182016040528015612741578160200160208202803683370190505b5090508260008151811061275157fe5b60200260200101516000015173ffffffffffffffffffffffffffffffffffffffff1663313ce5676040518163ffffffff1660e01b815260040160206040518083038186803b1580156127a257600080fd5b505afa1580156127b6573d6000803e3d6000fd5b505050506040513d601f19601f820116820180604052508101906127da9190614cfa565b60ff16816000815181106127ea57fe5b60200260200101818152505060005b83518110156128bc5783818151811061280e57fe5b60200260200101516020015173ffffffffffffffffffffffffffffffffffffffff1663313ce5676040518163ffffffff1660e01b815260040160206040518083038186803b15801561285f57600080fd5b505afa158015612873573d6000803e3d6000fd5b505050506040513d601f19601f820116820180604052508101906128979190614cfa565b60ff168282600101815181106128a957fe5b60209081029190910101526001016127f9565b506000546124f29073ffffffffffffffffffffffffffffffffffffffff168585846140b2565b6060814281101561291f576040517f08c379a00000000000000000000000000000000000000000000000000000000081526004016106ca90614f16565b60015473ffffffffffffffffffffffffffffffffffffffff1686867fffffffffffffffffffffffffffffffffffffffffffffffffffffffffffffffff810181811061296657fe5b905060600201602001602081019061297e919061483a565b73ffffffffffffffffffffffffffffffffffffffff16146129cb576040517f08c379a00000000000000000000000000000000000000000000000000000000081526004016106ca9061536e565b612a1d888787808060200260200160405190810160405280939291908181526020016000905b82821015610e1657612a0e60608302860136819003810190614a26565b815260200190600101906129f1565b91508682600081518110612a2d57fe5b60200260200101511115612a6d576040517f08c379a00000000000000000000000000000000000000000000000000000000081526004016106ca90615140565b612a7d8686600081811061083e57fe5b610917828787808060200260200160405190810160405280939291908181526020016000905b8282101561090c57612ac060608302860136819003810190614a26565b81526020019060010190612aa3565b600061250c878787878787614234565b60008060008342811015612b1f576040517f08c379a00000000000000000000000000000000000000000000000000000000081526004016106ca90614f16565b612b3a612b31368d90038d018d614a26565b8b8b8b8b6139a9565b80945081955050506000612b7d6002546000809054906101000a900473ffffffffffffffffffffffffffffffffffffffff168e8036038101906105209190614a26565b9050612b8f611d5c60208e018e61483a565b612baa612ba260408e0160208f0161483a565b338387612fd4565b6040517f6a62784200000000000000000000000000000000000000000000000000000000815273ffffffffffffffffffffffffffffffffffffffff821690636a62784290612bfc908a90600401614ddb565b602060405180830381600087803b158015612c1657600080fd5b505af1158015612c2a573d6000803e3d6000fd5b505050506040513d601f19601f82011682018060405250810190612c4e91906148c6565b925050509750975097945050505050565b60608142811015612c9c576040517f08c379a00000000000000000000000000000000000000000000000000000000081526004016106ca90614f16565b612cee888787808060200260200160405190810160405280939291908181526020016000905b82821015610e1657612cdf60608302860136819003810190614a26565b81526020019060010190612cc2565b91508682600081518110612cfe57fe5b60200260200101511115612d3e576040517f08c379a00000000000000000000000000000000000000000000000000000000081526004016106ca90615140565b612d4e8686600081811061083e57fe5b6109e0828787808060200260200160405190810160405280939291908181526020016000905b8282101561100557612d9160608302860136819003810190614a26565b81526020019060010190612d74565b60608142811015612ddd576040517f08c379a00000000000000000000000000000000000000000000000000000000081526004016106ca90614f16565b612e2f888787808060200260200160405190810160405280939291908181526020016000905b828210156107d157612e2060608302860136819003810190614a26565b81526020019060010190612e03565b91508682600184510381518110612e4257fe5b60200260200101511015612e82576040517f08c379a00000000000000000000000000000000000000000000000000000000081526004016106ca906153dc565b612ee486866000818110612e9257fe5b612ea8926020606090920201908101915061483a565b33612ede6002546000809054906101000a900473ffffffffffffffffffffffffffffffffffffffff168b8b600081811061088a57fe5b8b612fd4565b6109e0828787808060200260200160405190810160405280939291908181526020016000905b8282101561100557612f2760608302860136819003810190614a26565b81526020019060010190612f0a565b6000806000612f4d84600001518560200151613c3f565b915091508482828660400151604051602001612f6b93929190614d16565b6040516020818303038152906040528051906020012087604051602001612f9493929190614d78565b604080517fffffffffffffffffffffffffffffffffffffffffffffffffffffffffffffffe081840301815291905280516020909101209695505050505050565b600060608573ffffffffffffffffffffffffffffffffffffffff166323b872dd86868660405160240161300993929190614e4a565b6040516020818303038152906040529060e01b6020820180517bffffffffffffffffffffffffffffffffffffffffffffffffffffffff83818316178352505050506040516130579190614d5c565b6000604051808303816000865af19150503d8060008114613094576040519150601f19603f3d011682016040523d82523d6000602084013e613099565b606091505b50915091508180156130c35750805115806130c35750808060200190518101906130c391906148aa565b6130f9576040517f08c379a00000000000000000000000000000000000000000000000000000000081526004016106ca90615029565b505050505050565b60005b60018351038110156132ef5760008084838151811061311f57fe5b60200260200101516000015185848151811061313757fe5b6020026020010151602001519150915060006131538383613c3f565b509050600087856001018151811061316757fe5b602002602001015190506000808373ffffffffffffffffffffffffffffffffffffffff168673ffffffffffffffffffffffffffffffffffffffff16146131af578260006131b3565b6000835b91509150600060018a510388106131ca578861320a565b6002546000548b5161320a929173ffffffffffffffffffffffffffffffffffffffff16908d9060018d019081106131fd57fe5b6020026020010151612f36565b90506132406002546000809054906101000a900473ffffffffffffffffffffffffffffffffffffffff168c8b815181106131fd57fe5b73ffffffffffffffffffffffffffffffffffffffff1663022c0d9f84848460006040519080825280601f01601f19166020018201604052801561328a576020820181803683370190505b506040518563ffffffff1660e01b81526004016132aa949392919061558d565b600060405180830381600087803b1580156132c457600080fd5b505af11580156132d8573d6000803e3d6000fd5b505060019099019850613104975050505050505050565b50505050565b6040805160008082526020820190925273ffffffffffffffffffffffffffffffffffffffff841690839060405161332c9190614d5c565b60006040518083038185875af1925050503d8060008114613369576040519150601f19603f3d011682016040523d82523d6000602084013e61336e565b606091505b50509050806133a9576040517f08c379a00000000000000000000000000000000000000000000000000000000081526004016106ca90615086565b505050565b600060608473ffffffffffffffffffffffffffffffffffffffff1663a9059cbb85856040516024016133e1929190614eac565b6040516020818303038152906040529060e01b6020820180517bffffffffffffffffffffffffffffffffffffffffffffffffffffffff838183161783525050505060405161342f9190614d5c565b6000604051808303816000865af19150503d806000811461346c576040519150601f19603f3d011682016040523d82523d6000602084013e613471565b606091505b509150915081801561349b57508051158061349b57508080602001905181019061349b91906148aa565b6134d1576040517f08c379a00000000000000000000000000000000000000000000000000000000081526004016106ca90615439565b5050505050565b60005b82518110156133a957600061351e8483815181106134f557fe5b60200260200101516000015185848151811061350d57fe5b602002602001015160200151613c3f565b50905060006135576002546000809054906101000a900473ffffffffffffffffffffffffffffffffffffffff168786815181106131fd57fe5b90506000806000806000808673ffffffffffffffffffffffffffffffffffffffff16630902f1ac6040518163ffffffff1660e01b815260040160606040518083038186803b1580156135a857600080fd5b505afa1580156135bc573d6000803e3d6000fd5b505050506040513d601f19601f820116820180604052508101906135e09190614a64565b506dffffffffffffffffffffffffffff1691506dffffffffffffffffffffffffffff1691508773ffffffffffffffffffffffffffffffffffffffff168b8a8151811061362857fe5b60200260200101516000015173ffffffffffffffffffffffffffffffffffffffff1614613656578082613659565b81815b80945081955050506136b5848c8b8151811061367157fe5b60200260200101516000015173ffffffffffffffffffffffffffffffffffffffff166370a082318a6040518263ffffffff1660e01b81526004016115a29190614ddb565b9550505060008988815181106136c757fe5b60200260200101516000015173ffffffffffffffffffffffffffffffffffffffff1663313ce5676040518163ffffffff1660e01b815260040160206040518083038186803b15801561371857600080fd5b505afa15801561372c573d6000803e3d6000fd5b505050506040513d601f19601f820116820180604052508101906137509190614cfa565b60ff16905060008a898151811061376357fe5b60200260200101516020015173ffffffffffffffffffffffffffffffffffffffff1663313ce5676040518163ffffffff1660e01b815260040160206040518083038186803b1580156137b457600080fd5b505afa1580156137c8573d6000803e3d6000fd5b505050506040513d601f19601f820116820180604052508101906137ec9190614cfa565b60ff1690506138168685858e8d8151811061380357fe5b6020026020010151604001518686612acf565b945050506000808773ffffffffffffffffffffffffffffffffffffffff168b8a8151811061384057fe5b60200260200101516000015173ffffffffffffffffffffffffffffffffffffffff161461386f57846000613873565b6000855b91509150600060018c51038a1061388a578a6138bd565b6002546000548d516138bd929173ffffffffffffffffffffffffffffffffffffffff16908f9060018f019081106131fd57fe5b604080516000815260208101918290527f022c0d9f0000000000000000000000000000000000000000000000000000000090915290915073ffffffffffffffffffffffffffffffffffffffff89169063022c0d9f90613925908690869086906024810161558d565b600060405180830381600087803b15801561393f57600080fd5b505af1158015613953573d6000803e3d6000fd5b50506001909b019a506134db9950505050505050505050565b808203828111156124f6576040517f08c379a00000000000000000000000000000000000000000000000000000000081526004016106ca90614f84565b60008054865160208801516040808a015190517f6801cc300000000000000000000000000000000000000000000000000000000081528594859473ffffffffffffffffffffffffffffffffffffffff90911693636801cc3093613a0e93600401614e7b565b60206040518083038186803b158015613a2657600080fd5b505afa158015613a3a573d6000803e3d6000fd5b505050506040513d601f19601f82011682018060405250810190613a5e9190614856565b905073ffffffffffffffffffffffffffffffffffffffff8116613b3457600054885160208a01516040808c015190517f82dfdce400000000000000000000000000000000000000000000000000000000815273ffffffffffffffffffffffffffffffffffffffff909416936382dfdce493613adf9390929091600401614e7b565b602060405180830381600087803b158015613af957600080fd5b505af1158015613b0d573d6000803e3d6000fd5b505050506040513d601f19601f82011682018060405250810190613b319190614856565b90505b600080548190613b5a9073ffffffffffffffffffffffffffffffffffffffff168b6143a0565b91509150816000148015613b6c575080155b15613b7c57889450879350613c32565b6000613b898a8484614010565b9050888111613bd75786811015613bcc576040517f08c379a00000000000000000000000000000000000000000000000000000000081526004016106ca906151fa565b899550935083613c30565b6000613be48a8486614010565b90508a811115613bf057fe5b88811015613c2a576040517f08c379a00000000000000000000000000000000000000000000000000000000081526004016106ca90615496565b95508894505b505b5050509550959350505050565b6000808273ffffffffffffffffffffffffffffffffffffffff168473ffffffffffffffffffffffffffffffffffffffff161415613ca8576040517f08c379a00000000000000000000000000000000000000000000000000000000081526004016106ca906150e3565b8273ffffffffffffffffffffffffffffffffffffffff168473ffffffffffffffffffffffffffffffffffffffff1610613ce2578284613ce5565b83835b909250905073ffffffffffffffffffffffffffffffffffffffff8216613d37576040517f08c379a00000000000000000000000000000000000000000000000000000000081526004016106ca90614f4d565b9250929050565b6060600183511015613d7c576040517f08c379a00000000000000000000000000000000000000000000000000000000081526004016106ca906153a5565b825160010167ffffffffffffffff81118015613d9757600080fd5b50604051908082528060200260200182016040528015613dc1578160200160208202803683370190505b5090508381600081518110613dd257fe5b60200260200101818152505060005b6001845103811015613e9657600080613e0d88878581518110613e0057fe5b60200260200101516143a0565b91509150613e72848481518110613e2057fe5b60200260200101518383898781518110613e3657fe5b602002602001015160400151898881518110613e4e57fe5b60200260200101518a8960010181518110613e6557fe5b6020026020010151614234565b848460010181518110613e8157fe5b60209081029190910101525050600101613de1565b50949350505050565b6000808711613eda576040517f08c379a00000000000000000000000000000000000000000000000000000000081526004016106ca9061519d565b600086118015613eea5750600085115b613f20576040517f08c379a00000000000000000000000000000000000000000000000000000000081526004016106ca90615311565b8315613fa8576127108704870396506000613f3d8787868661453c565b90508387670de0b6b3a76400000281613f5257fe5b0496508286670de0b6b3a76400000281613f6857fe5b0495508288670de0b6b3a76400000281613f7e57fe5b049750613f8e88870382896145b7565b87039150670de0b6b3a76400008483025b0491505061250f565b6000613fcc6103e8613fc0898b63ffffffff61467816565b9063ffffffff61467816565b90506000613fe66103e5613fc0898c63ffffffff61396c16565b90506140036001828481613ff657fe5b049063ffffffff6146c916565b9998505050505050505050565b600080841161404b576040517f08c379a00000000000000000000000000000000000000000000000000000000081526004016106ca906152b4565b60008311801561405b5750600082115b614091576040517f08c379a00000000000000000000000000000000000000000000000000000000081526004016106ca90615311565b826140a2858463ffffffff61467816565b816140a957fe5b04949350505050565b60606001835110156140f0576040517f08c379a00000000000000000000000000000000000000000000000000000000081526004016106ca906153a5565b825160010167ffffffffffffffff8111801561410b57600080fd5b50604051908082528060200260200182016040528015614135578160200160208202803683370190505b509050838160018351038151811061414957fe5b602090810291909101015282517fffffffffffffffffffffffffffffffffffffffffffffffffffffffffffffffff015b60008061418c88878581518110613e0057fe5b915091506141f48484600101815181106141a257fe5b602002602001015183838987815181106141b857fe5b6020026020010151604001518988815181106141d057fe5b60200260200101518a89600101815181106141e757fe5b6020026020010151613e9f565b84848151811061420057fe5b602090810291909101015250507fffffffffffffffffffffffffffffffffffffffffffffffffffffffffffffffff01614179565b600080871161426f576040517f08c379a00000000000000000000000000000000000000000000000000000000081526004016106ca90615257565b60008611801561427f5750600085115b6142b5576040517f08c379a00000000000000000000000000000000000000000000000000000000081526004016106ca90615311565b83156143385761271087048703965060006142d28787868661453c565b90508387670de0b6b3a764000002816142e757fe5b0496508286670de0b6b3a764000002816142fd57fe5b0495508388670de0b6b3a7640000028161431357fe5b04975061432387890182886145b7565b86039150670de0b6b3a7640000838302613f9f565b600061434c886103e563ffffffff61467816565b90506000614360828863ffffffff61467816565b905060006143868361437a8b6103e863ffffffff61467816565b9063ffffffff6146c916565b905080828161439157fe5b049a9950505050505050505050565b60008060006143b784600001518560200151613c3f565b50905060008573ffffffffffffffffffffffffffffffffffffffff1663a35a337a6040518163ffffffff1660e01b815260040160206040518083038186803b15801561440257600080fd5b505afa158015614416573d6000803e3d6000fd5b505050506040513d601f19601f8201168201806040525081019061443a91906148c6565b905060008061444a838989612f36565b73ffffffffffffffffffffffffffffffffffffffff16630902f1ac6040518163ffffffff1660e01b815260040160606040518083038186803b15801561448f57600080fd5b505afa1580156144a3573d6000803e3d6000fd5b505050506040513d601f19601f820116820180604052508101906144c79190614a64565b506dffffffffffffffffffffffffffff1691506dffffffffffffffffffffffffffff1691508373ffffffffffffffffffffffffffffffffffffffff16876000015173ffffffffffffffffffffffffffffffffffffffff161461452a57808261452d565b81815b90999098509650505050505050565b6000808386670de0b6b3a7640000028161455257fe5b04905060008386670de0b6b3a7640000028161456a57fe5b0490506000670de0b6b3a76400008383020490506000670de0b6b3a764000083800204670de0b6b3a764000085800204019050670de0b6b3a7640000828202049998505050505050505050565b6000805b60ff81101561466f578260006145d18783614706565b9050858110156146075760006145e78887614756565b828803670de0b6b3a764000002816145fb57fe5b0495909501945061462e565b60006146138887614756565b878303670de0b6b3a7640000028161462757fe5b0490950394505b818511156146505760018286031161464b57849350505050612545565b614665565b60018583031161466557849350505050612545565b50506001016145bb565b50909392505050565b60008115806146935750508082028282828161469057fe5b04145b6124f6576040517f08c379a00000000000000000000000000000000000000000000000000000000081526004016106ca90614fbb565b808201828110156124f6576040517f08c379a00000000000000000000000000000000000000000000000000000000081526004016106ca90614ff2565b6000670de0b6b3a76400008281858181800204028161472157fe5b04028161472a57fe5b04670de0b6b3a764000080848181800204028161474357fe5b0485028161474d57fe5b04019392505050565b6000670de0b6b3a7640000838181800204028161476f57fe5b04670de0b6b3a7640000808480020485600302028161474d57fe5b60008083601f84011261479b578182fd5b50813567ffffffffffffffff8111156147b2578182fd5b602083019150836020606083028501011115613d3757600080fd5b6000606082840312156147de578081fd5b50919050565b6000606082840312156147f5578081fd5b6147ff606061561f565b9050813561480c81615692565b8152602082013561481c81615692565b6020820152604082013561482f816156b7565b604082015292915050565b60006020828403121561484b578081fd5b813561254581615692565b600060208284031215614867578081fd5b815161254581615692565b60008060408385031215614884578081fd5b823561488f81615692565b9150602083013561489f81615692565b809150509250929050565b6000602082840312156148bb578081fd5b8151612545816156b7565b6000602082840312156148d7578081fd5b5051919050565b60008060008060008061010087890312156148f7578182fd5b61490188886147cd565b9550606087013594506080870135935060a0870135925060c087013561492681615692565b8092505060e087013590509295509295509295565b600080600080600080600080610180898b031215614957578182fd5b6149618a8a6147cd565b9750606089013596506080890135955060a0890135945060c089013561498681615692565b935060e0890135925061010089013561499e816156b7565b91506149ae8a6101208b016147cd565b90509295985092959890939650565b6000806000806000806000610120888a0312156149d8578081fd5b6149e289896147cd565b9650606088013595506080880135945060a0880135935060c0880135925060e0880135614a0e81615692565b80925050610100880135905092959891949750929550565b600060608284031215614a37578081fd5b61254583836147e4565b6000806000806000806101008789031215614a5a578384fd5b61490188886147e4565b600080600060608486031215614a78578081fd5b8351614a83816156c5565b6020850151909350614a94816156c5565b604085015190925063ffffffff81168114614aad578182fd5b809150509250925092565b600080600080600060808688031215614acf578283fd5b85359450602086013567ffffffffffffffff811115614aec578384fd5b614af88882890161478a565b9095509350506040860135614b0c81615692565b949793965091946060013592915050565b60008060408385031215614b2f578182fd5b8235915060208084013567ffffffffffffffff811115614b4d578283fd5b80850186601f820112614b5e578384fd5b80359150614b73614b6e83615646565b61561f565b828152838101908285016060808602850187018b1015614b91578788fd5b8794505b85851015614bbd57614ba78b836147e4565b8452600194909401939286019290810190614b95565b5096999098509650505050505050565b60008060408385031215614bdf578182fd5b505080516020909101519092909150565b60008060008060008060a08789031215614c08578384fd5b8635955060208701359450604087013567ffffffffffffffff811115614c2c578485fd5b614c3889828a0161478a565b9095509350506060870135614c4c81615692565b80925050608087013590509295509295509295565b600080600060608486031215614c75578081fd5b505081359360208301359350604090920135919050565b60008060008060008060c08789031215614ca4578384fd5b8635955060208701359450604087013593506060870135614cc4816156b7565b9598949750929560808101359460a0909101359350915050565b600060208284031215614cef578081fd5b8135612545816156e1565b600060208284031215614d0b578081fd5b8151612545816156e1565b7fffffffffffffffffffffffffffffffffffffffff000000000000000000000000606094851b811682529290931b9091166014830152151560f81b602882015260290190565b60008251614d6e818460208701615666565b9190910192915050565b7fff00000000000000000000000000000000000000000000000000000000000000815260609390931b7fffffffffffffffffffffffffffffffffffffffff0000000000000000000000001660018401526015830191909152603582015260550190565b73ffffffffffffffffffffffffffffffffffffffff91909116815260200190565b73ffffffffffffffffffffffffffffffffffffffff97881681529590961660208601526040850193909352606084019190915260ff16608083015260a082015260c081019190915260e00190565b73ffffffffffffffffffffffffffffffffffffffff9384168152919092166020820152604081019190915260600190565b73ffffffffffffffffffffffffffffffffffffffff9384168152919092166020820152901515604082015260600190565b73ffffffffffffffffffffffffffffffffffffffff929092168252602082015260400190565b6020808252825182820181905260009190848201906040850190845b81811015614f0a57835183529284019291840191600101614eee565b50909695505050505050565b60208082526019908201527f54656c65737761705632526f757465723a204558504952454400000000000000604082015260600190565b6020808252601f908201527f54656c657377617056324c6962726172793a205a45524f5f4144445245535300604082015260600190565b60208082526015908201527f64732d6d6174682d7375622d756e646572666c6f770000000000000000000000604082015260600190565b60208082526014908201527f64732d6d6174682d6d756c2d6f766572666c6f77000000000000000000000000604082015260600190565b60208082526014908201527f64732d6d6174682d6164642d6f766572666c6f77000000000000000000000000604082015260600190565b60208082526031908201527f5472616e7366657248656c7065723a3a7472616e7366657246726f6d3a20747260408201527f616e7366657246726f6d206661696c6564000000000000000000000000000000606082015260800190565b60208082526034908201527f5472616e7366657248656c7065723a3a736166655472616e736665724554483a60408201527f20455448207472616e73666572206661696c6564000000000000000000000000606082015260800190565b60208082526026908201527f54656c657377617056324c6962726172793a204944454e544943414c5f41444460408201527f5245535345530000000000000000000000000000000000000000000000000000606082015260800190565b60208082526028908201527f54656c65737761705632526f757465723a204558434553534956455f494e505560408201527f545f414d4f554e54000000000000000000000000000000000000000000000000606082015260800190565b6020808252602d908201527f54656c657377617056324c6962726172793a20494e53554646494349454e545f60408201527f4f55545055545f414d4f554e5400000000000000000000000000000000000000606082015260800190565b60208082526027908201527f54656c65737761705632526f757465723a20494e53554646494349454e545f4260408201527f5f414d4f554e5400000000000000000000000000000000000000000000000000606082015260800190565b6020808252602c908201527f54656c657377617056324c6962726172793a20494e53554646494349454e545f60408201527f494e5055545f414d4f554e540000000000000000000000000000000000000000606082015260800190565b60208082526026908201527f54656c657377617056324c6962726172793a20494e53554646494349454e545f60408201527f414d4f554e540000000000000000000000000000000000000000000000000000606082015260800190565b60208082526029908201527f54656c657377617056324c6962726172793a20494e53554646494349454e545f60408201527f4c49515549444954590000000000000000000000000000000000000000000000606082015260800190565b6020808252601e908201527f54656c65737761705632526f757465723a20494e56414c49445f504154480000604082015260600190565b6020808252601f908201527f54656c657377617056324c6962726172793a20494e56414c49445f5041544800604082015260600190565b6020808252602c908201527f54656c65737761705632526f757465723a20494e53554646494349454e545f4f60408201527f55545055545f414d4f554e540000000000000000000000000000000000000000606082015260800190565b6020808252602d908201527f5472616e7366657248656c7065723a3a736166655472616e736665723a20747260408201527f616e73666572206661696c656400000000000000000000000000000000000000606082015260800190565b60208082526027908201527f54656c65737761705632526f757465723a20494e53554646494349454e545f4160408201527f5f414d4f554e5400000000000000000000000000000000000000000000000000606082015260800190565b6101008101873561550381615692565b73ffffffffffffffffffffffffffffffffffffffff908116835260208901359061552c82615692565b9081166020840152604089013590615543826156b7565b90151560408401526060830197909752608082019590955260a0810193909352931660c082015260e00191909152919050565b90815260200190565b918252602082015260400190565b600085825284602083015273ffffffffffffffffffffffffffffffffffffffff841660408301526080606083015282518060808401526155d48160a0850160208701615666565b601f017fffffffffffffffffffffffffffffffffffffffffffffffffffffffffffffffe0169190910160a00195945050505050565b9283526020830191909152604082015260600190565b60405181810167ffffffffffffffff8111828210171561563e57600080fd5b604052919050565b600067ffffffffffffffff82111561565c578081fd5b5060209081020190565b60005b83811015615681578181015183820152602001615669565b838111156132ef5750506000910152565b73ffffffffffffffffffffffffffffffffffffffff811681146156b457600080fd5b50565b80151581146156b457600080fd5b6dffffffffffffffffffffffffffff811681146156b457600080fd5b60ff811681146156b457600080fdfea2646970667358221220a75e98273aeb0e147401a527cb0a9e5f4e6518b21b5a3c11b611c65bcd55864d64736f6c63430006060033",
      "opcodes": "PUSH1 0x80 PUSH1 0x40 MSTORE CALLVALUE DUP1 ISZERO PUSH2 0x10 JUMPI PUSH1 0x0 DUP1 REVERT JUMPDEST POP PUSH2 0x5726 DUP1 PUSH3 0x21 PUSH1 0x0 CODECOPY PUSH1 0x0 RETURN INVALID PUSH1 0x80 PUSH1 0x40 MSTORE PUSH1 0x4 CALLDATASIZE LT PUSH2 0x19A JUMPI PUSH1 0x0 CALLDATALOAD PUSH1 0xE0 SHR DUP1 PUSH4 0x82179C5D GT PUSH2 0xE1 JUMPI DUP1 PUSH4 0xCAD77EF2 GT PUSH2 0x8A JUMPI DUP1 PUSH4 0xD8EC2777 GT PUSH2 0x64 JUMPI DUP1 PUSH4 0xD8EC2777 EQ PUSH2 0x46A JUMPI DUP1 PUSH4 0xDC2972C2 EQ PUSH2 0x48A JUMPI DUP1 PUSH4 0xED1FBCA2 EQ PUSH2 0x4AA JUMPI DUP1 PUSH4 0xF41766D8 EQ PUSH2 0x4CA JUMPI PUSH2 0x1C2 JUMP JUMPDEST DUP1 PUSH4 0xCAD77EF2 EQ PUSH2 0x40A JUMPI DUP1 PUSH4 0xD5C54E33 EQ PUSH2 0x42A JUMPI DUP1 PUSH4 0xD69F344C EQ PUSH2 0x44A JUMPI PUSH2 0x1C2 JUMP JUMPDEST DUP1 PUSH4 0xAD5C4648 GT PUSH2 0xBB JUMPI DUP1 PUSH4 0xAD5C4648 EQ PUSH2 0x3B3 JUMPI DUP1 PUSH4 0xAD615DEC EQ PUSH2 0x3D5 JUMPI DUP1 PUSH4 0xC45A0155 EQ PUSH2 0x3F5 JUMPI PUSH2 0x1C2 JUMP JUMPDEST DUP1 PUSH4 0x82179C5D EQ PUSH2 0x353 JUMPI DUP1 PUSH4 0x9881FCB4 EQ PUSH2 0x373 JUMPI DUP1 PUSH4 0x99E629F9 EQ PUSH2 0x393 JUMPI PUSH2 0x1C2 JUMP JUMPDEST DUP1 PUSH4 0x67FFB66A GT PUSH2 0x143 JUMPI DUP1 PUSH4 0x7AF728C8 GT PUSH2 0x11D JUMPI DUP1 PUSH4 0x7AF728C8 EQ PUSH2 0x2F1 JUMPI DUP1 PUSH4 0x7D03C793 EQ PUSH2 0x311 JUMPI DUP1 PUSH4 0x7DE50DDF EQ PUSH2 0x333 JUMPI PUSH2 0x1C2 JUMP JUMPDEST DUP1 PUSH4 0x67FFB66A EQ PUSH2 0x2AB JUMPI DUP1 PUSH4 0x6CC1AE13 EQ PUSH2 0x2BE JUMPI DUP1 PUSH4 0x76C72751 EQ PUSH2 0x2DE JUMPI PUSH2 0x1C2 JUMP JUMPDEST DUP1 PUSH4 0x485CC955 GT PUSH2 0x174 JUMPI DUP1 PUSH4 0x485CC955 EQ PUSH2 0x24B JUMPI DUP1 PUSH4 0x4B45E535 EQ PUSH2 0x26B JUMPI DUP1 PUSH4 0x633AFC92 EQ PUSH2 0x298 JUMPI PUSH2 0x1C2 JUMP JUMPDEST DUP1 PUSH4 0xCD7EE9F EQ PUSH2 0x1C7 JUMPI DUP1 PUSH4 0x18A13086 EQ PUSH2 0x1FE JUMPI DUP1 PUSH4 0x3E6C63C9 EQ PUSH2 0x22B JUMPI PUSH2 0x1C2 JUMP JUMPDEST CALLDATASIZE PUSH2 0x1C2 JUMPI PUSH1 0x1 SLOAD PUSH20 0xFFFFFFFFFFFFFFFFFFFFFFFFFFFFFFFFFFFFFFFF AND CALLER EQ PUSH2 0x1C0 JUMPI INVALID JUMPDEST STOP JUMPDEST PUSH1 0x0 DUP1 REVERT JUMPDEST CALLVALUE DUP1 ISZERO PUSH2 0x1D3 JUMPI PUSH1 0x0 DUP1 REVERT JUMPDEST POP PUSH2 0x1E7 PUSH2 0x1E2 CALLDATASIZE PUSH1 0x4 PUSH2 0x493B JUMP JUMPDEST PUSH2 0x4EA JUMP JUMPDEST PUSH1 0x40 MLOAD PUSH2 0x1F5 SWAP3 SWAP2 SWAP1 PUSH2 0x557F JUMP JUMPDEST PUSH1 0x40 MLOAD DUP1 SWAP2 SUB SWAP1 RETURN JUMPDEST CALLVALUE DUP1 ISZERO PUSH2 0x20A JUMPI PUSH1 0x0 DUP1 REVERT JUMPDEST POP PUSH2 0x21E PUSH2 0x219 CALLDATASIZE PUSH1 0x4 PUSH2 0x4BF0 JUMP JUMPDEST PUSH2 0x68D JUMP JUMPDEST PUSH1 0x40 MLOAD PUSH2 0x1F5 SWAP2 SWAP1 PUSH2 0x4ED2 JUMP JUMPDEST CALLVALUE DUP1 ISZERO PUSH2 0x237 JUMPI PUSH1 0x0 DUP1 REVERT JUMPDEST POP PUSH2 0x1E7 PUSH2 0x246 CALLDATASIZE PUSH1 0x4 PUSH2 0x48DE JUMP JUMPDEST PUSH2 0x9EB JUMP JUMPDEST CALLVALUE DUP1 ISZERO PUSH2 0x257 JUMPI PUSH1 0x0 DUP1 REVERT JUMPDEST POP PUSH2 0x1C0 PUSH2 0x266 CALLDATASIZE PUSH1 0x4 PUSH2 0x4872 JUMP JUMPDEST PUSH2 0xAFF JUMP JUMPDEST CALLVALUE DUP1 ISZERO PUSH2 0x277 JUMPI PUSH1 0x0 DUP1 REVERT JUMPDEST POP PUSH2 0x28B PUSH2 0x286 CALLDATASIZE PUSH1 0x4 PUSH2 0x493B JUMP JUMPDEST PUSH2 0xBE0 JUMP JUMPDEST PUSH1 0x40 MLOAD PUSH2 0x1F5 SWAP2 SWAP1 PUSH2 0x5576 JUMP JUMPDEST PUSH2 0x21E PUSH2 0x2A6 CALLDATASIZE PUSH1 0x4 PUSH2 0x4AB8 JUMP JUMPDEST PUSH2 0xD00 JUMP JUMPDEST PUSH2 0x21E PUSH2 0x2B9 CALLDATASIZE PUSH1 0x4 PUSH2 0x4AB8 JUMP JUMPDEST PUSH2 0x1056 JUMP JUMPDEST CALLVALUE DUP1 ISZERO PUSH2 0x2CA JUMPI PUSH1 0x0 DUP1 REVERT JUMPDEST POP PUSH2 0x1C0 PUSH2 0x2D9 CALLDATASIZE PUSH1 0x4 PUSH2 0x4BF0 JUMP JUMPDEST PUSH2 0x1354 JUMP JUMPDEST PUSH2 0x1C0 PUSH2 0x2EC CALLDATASIZE PUSH1 0x4 PUSH2 0x4AB8 JUMP JUMPDEST PUSH2 0x1640 JUMP JUMPDEST CALLVALUE DUP1 ISZERO PUSH2 0x2FD JUMPI PUSH1 0x0 DUP1 REVERT JUMPDEST POP PUSH2 0x1C0 PUSH2 0x30C CALLDATASIZE PUSH1 0x4 PUSH2 0x4BF0 JUMP JUMPDEST PUSH2 0x19EE JUMP JUMPDEST PUSH2 0x324 PUSH2 0x31F CALLDATASIZE PUSH1 0x4 PUSH2 0x48DE JUMP JUMPDEST PUSH2 0x1CB6 JUMP JUMPDEST PUSH1 0x40 MLOAD PUSH2 0x1F5 SWAP4 SWAP3 SWAP2 SWAP1 PUSH2 0x5609 JUMP JUMPDEST CALLVALUE DUP1 ISZERO PUSH2 0x33F JUMPI PUSH1 0x0 DUP1 REVERT JUMPDEST POP PUSH2 0x1E7 PUSH2 0x34E CALLDATASIZE PUSH1 0x4 PUSH2 0x493B JUMP JUMPDEST PUSH2 0x1F5F JUMP JUMPDEST CALLVALUE DUP1 ISZERO PUSH2 0x35F JUMPI PUSH1 0x0 DUP1 REVERT JUMPDEST POP PUSH2 0x1E7 PUSH2 0x36E CALLDATASIZE PUSH1 0x4 PUSH2 0x4A41 JUMP JUMPDEST PUSH2 0x2084 JUMP JUMPDEST CALLVALUE DUP1 ISZERO PUSH2 0x37F JUMPI PUSH1 0x0 DUP1 REVERT JUMPDEST POP PUSH2 0x21E PUSH2 0x38E CALLDATASIZE PUSH1 0x4 PUSH2 0x4B1D JUMP JUMPDEST PUSH2 0x2309 JUMP JUMPDEST CALLVALUE DUP1 ISZERO PUSH2 0x39F JUMPI PUSH1 0x0 DUP1 REVERT JUMPDEST POP PUSH2 0x28B PUSH2 0x3AE CALLDATASIZE PUSH1 0x4 PUSH2 0x4C8C JUMP JUMPDEST PUSH2 0x24FC JUMP JUMPDEST CALLVALUE DUP1 ISZERO PUSH2 0x3BF JUMPI PUSH1 0x0 DUP1 REVERT JUMPDEST POP PUSH2 0x3C8 PUSH2 0x2519 JUMP JUMPDEST PUSH1 0x40 MLOAD PUSH2 0x1F5 SWAP2 SWAP1 PUSH2 0x4DDB JUMP JUMPDEST CALLVALUE DUP1 ISZERO PUSH2 0x3E1 JUMPI PUSH1 0x0 DUP1 REVERT JUMPDEST POP PUSH2 0x28B PUSH2 0x3F0 CALLDATASIZE PUSH1 0x4 PUSH2 0x4C61 JUMP JUMPDEST PUSH2 0x2535 JUMP JUMPDEST CALLVALUE DUP1 ISZERO PUSH2 0x401 JUMPI PUSH1 0x0 DUP1 REVERT JUMPDEST POP PUSH2 0x3C8 PUSH2 0x254C JUMP JUMPDEST CALLVALUE DUP1 ISZERO PUSH2 0x416 JUMPI PUSH1 0x0 DUP1 REVERT JUMPDEST POP PUSH2 0x28B PUSH2 0x425 CALLDATASIZE PUSH1 0x4 PUSH2 0x4A41 JUMP JUMPDEST PUSH2 0x2568 JUMP JUMPDEST CALLVALUE DUP1 ISZERO PUSH2 0x436 JUMPI PUSH1 0x0 DUP1 REVERT JUMPDEST POP PUSH2 0x21E PUSH2 0x445 CALLDATASIZE PUSH1 0x4 PUSH2 0x4B1D JUMP JUMPDEST PUSH2 0x26F9 JUMP JUMPDEST CALLVALUE DUP1 ISZERO PUSH2 0x456 JUMPI PUSH1 0x0 DUP1 REVERT JUMPDEST POP PUSH2 0x21E PUSH2 0x465 CALLDATASIZE PUSH1 0x4 PUSH2 0x4BF0 JUMP JUMPDEST PUSH2 0x28E2 JUMP JUMPDEST CALLVALUE DUP1 ISZERO PUSH2 0x476 JUMPI PUSH1 0x0 DUP1 REVERT JUMPDEST POP PUSH2 0x28B PUSH2 0x485 CALLDATASIZE PUSH1 0x4 PUSH2 0x4C8C JUMP JUMPDEST PUSH2 0x2ACF JUMP JUMPDEST CALLVALUE DUP1 ISZERO PUSH2 0x496 JUMPI PUSH1 0x0 DUP1 REVERT JUMPDEST POP PUSH2 0x324 PUSH2 0x4A5 CALLDATASIZE PUSH1 0x4 PUSH2 0x49BD JUMP JUMPDEST PUSH2 0x2ADF JUMP JUMPDEST CALLVALUE DUP1 ISZERO PUSH2 0x4B6 JUMPI PUSH1 0x0 DUP1 REVERT JUMPDEST POP PUSH2 0x21E PUSH2 0x4C5 CALLDATASIZE PUSH1 0x4 PUSH2 0x4BF0 JUMP JUMPDEST PUSH2 0x2C5F JUMP JUMPDEST CALLVALUE DUP1 ISZERO PUSH2 0x4D6 JUMPI PUSH1 0x0 DUP1 REVERT JUMPDEST POP PUSH2 0x21E PUSH2 0x4E5 CALLDATASIZE PUSH1 0x4 PUSH2 0x4BF0 JUMP JUMPDEST PUSH2 0x2DA0 JUMP JUMPDEST PUSH1 0x2 SLOAD PUSH1 0x0 DUP1 SLOAD SWAP1 SWAP2 DUP3 SWAP2 DUP3 SWAP2 PUSH2 0x525 SWAP2 PUSH20 0xFFFFFFFFFFFFFFFFFFFFFFFFFFFFFFFFFFFFFFFF AND PUSH2 0x520 CALLDATASIZE DUP16 SWAP1 SUB DUP16 ADD DUP16 PUSH2 0x4A26 JUMP JUMPDEST PUSH2 0x2F36 JUMP JUMPDEST SWAP1 POP PUSH1 0x0 DUP6 PUSH2 0x534 JUMPI DUP11 PUSH2 0x556 JUMP JUMPDEST PUSH32 0xFFFFFFFFFFFFFFFFFFFFFFFFFFFFFFFFFFFFFFFFFFFFFFFFFFFFFFFFFFFFFFFF JUMPDEST SWAP1 POP PUSH20 0xFFFFFFFFFFFFFFFFFFFFFFFFFFFFFFFFFFFFFFFF DUP3 AND PUSH4 0xD505ACCF CALLER ADDRESS DUP5 DUP12 PUSH2 0x585 PUSH1 0x20 DUP13 ADD DUP13 PUSH2 0x4CDE JUMP JUMPDEST DUP12 PUSH1 0x20 ADD CALLDATALOAD DUP13 PUSH1 0x40 ADD CALLDATALOAD PUSH1 0x40 MLOAD DUP9 PUSH4 0xFFFFFFFF AND PUSH1 0xE0 SHL DUP2 MSTORE PUSH1 0x4 ADD PUSH2 0x5B1 SWAP8 SWAP7 SWAP6 SWAP5 SWAP4 SWAP3 SWAP2 SWAP1 PUSH2 0x4DFC JUMP JUMPDEST PUSH1 0x0 PUSH1 0x40 MLOAD DUP1 DUP4 SUB DUP2 PUSH1 0x0 DUP8 DUP1 EXTCODESIZE ISZERO DUP1 ISZERO PUSH2 0x5CB JUMPI PUSH1 0x0 DUP1 REVERT JUMPDEST POP GAS CALL ISZERO DUP1 ISZERO PUSH2 0x5DF JUMPI RETURNDATASIZE PUSH1 0x0 DUP1 RETURNDATACOPY RETURNDATASIZE PUSH1 0x0 REVERT JUMPDEST POP POP PUSH1 0x40 MLOAD PUSH32 0x3E6C63C900000000000000000000000000000000000000000000000000000000 DUP2 MSTORE ADDRESS SWAP5 POP PUSH4 0x3E6C63C9 SWAP4 POP PUSH2 0x62B SWAP3 POP DUP15 SWAP2 POP DUP14 SWAP1 DUP14 SWAP1 DUP14 SWAP1 DUP14 SWAP1 DUP14 SWAP1 PUSH1 0x4 ADD PUSH2 0x54F3 JUMP JUMPDEST PUSH1 0x40 DUP1 MLOAD DUP1 DUP4 SUB DUP2 PUSH1 0x0 DUP8 DUP1 EXTCODESIZE ISZERO DUP1 ISZERO PUSH2 0x644 JUMPI PUSH1 0x0 DUP1 REVERT JUMPDEST POP GAS CALL ISZERO DUP1 ISZERO PUSH2 0x658 JUMPI RETURNDATASIZE PUSH1 0x0 DUP1 RETURNDATACOPY RETURNDATASIZE PUSH1 0x0 REVERT JUMPDEST POP POP POP POP PUSH1 0x40 MLOAD RETURNDATASIZE PUSH1 0x1F NOT PUSH1 0x1F DUP3 ADD AND DUP3 ADD DUP1 PUSH1 0x40 MSTORE POP DUP2 ADD SWAP1 PUSH2 0x67C SWAP2 SWAP1 PUSH2 0x4BCD JUMP JUMPDEST SWAP1 SWAP12 SWAP1 SWAP11 POP SWAP9 POP POP POP POP POP POP POP POP POP JUMP JUMPDEST PUSH1 0x60 DUP2 TIMESTAMP DUP2 LT ISZERO PUSH2 0x6D3 JUMPI PUSH1 0x40 MLOAD PUSH32 0x8C379A000000000000000000000000000000000000000000000000000000000 DUP2 MSTORE PUSH1 0x4 ADD PUSH2 0x6CA SWAP1 PUSH2 0x4F16 JUMP JUMPDEST PUSH1 0x40 MLOAD DUP1 SWAP2 SUB SWAP1 REVERT JUMPDEST PUSH1 0x1 SLOAD PUSH20 0xFFFFFFFFFFFFFFFFFFFFFFFFFFFFFFFFFFFFFFFF AND DUP7 DUP7 PUSH32 0xFFFFFFFFFFFFFFFFFFFFFFFFFFFFFFFFFFFFFFFFFFFFFFFFFFFFFFFFFFFFFFFF DUP2 ADD DUP2 DUP2 LT PUSH2 0x71A JUMPI INVALID JUMPDEST SWAP1 POP PUSH1 0x60 MUL ADD PUSH1 0x20 ADD PUSH1 0x20 DUP2 ADD SWAP1 PUSH2 0x732 SWAP2 SWAP1 PUSH2 0x483A JUMP JUMPDEST PUSH20 0xFFFFFFFFFFFFFFFFFFFFFFFFFFFFFFFFFFFFFFFF AND EQ PUSH2 0x77F JUMPI PUSH1 0x40 MLOAD PUSH32 0x8C379A000000000000000000000000000000000000000000000000000000000 DUP2 MSTORE PUSH1 0x4 ADD PUSH2 0x6CA SWAP1 PUSH2 0x536E JUMP JUMPDEST PUSH2 0x7DB DUP9 DUP8 DUP8 DUP1 DUP1 PUSH1 0x20 MUL PUSH1 0x20 ADD PUSH1 0x40 MLOAD SWAP1 DUP2 ADD PUSH1 0x40 MSTORE DUP1 SWAP4 SWAP3 SWAP2 SWAP1 DUP2 DUP2 MSTORE PUSH1 0x20 ADD PUSH1 0x0 SWAP1 JUMPDEST DUP3 DUP3 LT ISZERO PUSH2 0x7D1 JUMPI PUSH2 0x7C2 PUSH1 0x60 DUP4 MUL DUP7 ADD CALLDATASIZE DUP2 SWAP1 SUB DUP2 ADD SWAP1 PUSH2 0x4A26 JUMP JUMPDEST DUP2 MSTORE PUSH1 0x20 ADD SWAP1 PUSH1 0x1 ADD SWAP1 PUSH2 0x7A5 JUMP JUMPDEST POP POP POP POP POP PUSH2 0x2309 JUMP JUMPDEST SWAP2 POP DUP7 DUP3 PUSH1 0x1 DUP5 MLOAD SUB DUP2 MLOAD DUP2 LT PUSH2 0x7EE JUMPI INVALID JUMPDEST PUSH1 0x20 MUL PUSH1 0x20 ADD ADD MLOAD LT ISZERO PUSH2 0x82E JUMPI PUSH1 0x40 MLOAD PUSH32 0x8C379A000000000000000000000000000000000000000000000000000000000 DUP2 MSTORE PUSH1 0x4 ADD PUSH2 0x6CA SWAP1 PUSH2 0x53DC JUMP JUMPDEST PUSH2 0x8BA DUP7 DUP7 PUSH1 0x0 DUP2 DUP2 LT PUSH2 0x83E JUMPI INVALID JUMPDEST PUSH2 0x854 SWAP3 PUSH1 0x20 PUSH1 0x60 SWAP1 SWAP3 MUL ADD SWAP1 DUP2 ADD SWAP2 POP PUSH2 0x483A JUMP JUMPDEST CALLER PUSH2 0x8A0 PUSH1 0x2 SLOAD PUSH1 0x0 DUP1 SWAP1 SLOAD SWAP1 PUSH2 0x100 EXP SWAP1 DIV PUSH20 0xFFFFFFFFFFFFFFFFFFFFFFFFFFFFFFFFFFFFFFFF AND DUP12 DUP12 PUSH1 0x0 DUP2 DUP2 LT PUSH2 0x88A JUMPI INVALID JUMPDEST SWAP1 POP PUSH1 0x60 MUL ADD DUP1 CALLDATASIZE SUB DUP2 ADD SWAP1 PUSH2 0x520 SWAP2 SWAP1 PUSH2 0x4A26 JUMP JUMPDEST DUP6 PUSH1 0x0 DUP2 MLOAD DUP2 LT PUSH2 0x8AD JUMPI INVALID JUMPDEST PUSH1 0x20 MUL PUSH1 0x20 ADD ADD MLOAD PUSH2 0x2FD4 JUMP JUMPDEST PUSH2 0x917 DUP3 DUP8 DUP8 DUP1 DUP1 PUSH1 0x20 MUL PUSH1 0x20 ADD PUSH1 0x40 MLOAD SWAP1 DUP2 ADD PUSH1 0x40 MSTORE DUP1 SWAP4 SWAP3 SWAP2 SWAP1 DUP2 DUP2 MSTORE PUSH1 0x20 ADD PUSH1 0x0 SWAP1 JUMPDEST DUP3 DUP3 LT ISZERO PUSH2 0x90C JUMPI PUSH2 0x8FD PUSH1 0x60 DUP4 MUL DUP7 ADD CALLDATASIZE DUP2 SWAP1 SUB DUP2 ADD SWAP1 PUSH2 0x4A26 JUMP JUMPDEST DUP2 MSTORE PUSH1 0x20 ADD SWAP1 PUSH1 0x1 ADD SWAP1 PUSH2 0x8E0 JUMP JUMPDEST POP POP POP POP POP ADDRESS PUSH2 0x3101 JUMP JUMPDEST PUSH1 0x1 SLOAD DUP3 MLOAD PUSH20 0xFFFFFFFFFFFFFFFFFFFFFFFFFFFFFFFFFFFFFFFF SWAP1 SWAP2 AND SWAP1 PUSH4 0x2E1A7D4D SWAP1 DUP5 SWAP1 PUSH32 0xFFFFFFFFFFFFFFFFFFFFFFFFFFFFFFFFFFFFFFFFFFFFFFFFFFFFFFFFFFFFFFFF DUP2 ADD SWAP1 DUP2 LT PUSH2 0x969 JUMPI INVALID JUMPDEST PUSH1 0x20 MUL PUSH1 0x20 ADD ADD MLOAD PUSH1 0x40 MLOAD DUP3 PUSH4 0xFFFFFFFF AND PUSH1 0xE0 SHL DUP2 MSTORE PUSH1 0x4 ADD PUSH2 0x98D SWAP2 SWAP1 PUSH2 0x5576 JUMP JUMPDEST PUSH1 0x0 PUSH1 0x40 MLOAD DUP1 DUP4 SUB DUP2 PUSH1 0x0 DUP8 DUP1 EXTCODESIZE ISZERO DUP1 ISZERO PUSH2 0x9A7 JUMPI PUSH1 0x0 DUP1 REVERT JUMPDEST POP GAS CALL ISZERO DUP1 ISZERO PUSH2 0x9BB JUMPI RETURNDATASIZE PUSH1 0x0 DUP1 RETURNDATACOPY RETURNDATASIZE PUSH1 0x0 REVERT JUMPDEST POP POP POP POP PUSH2 0x9E0 DUP5 DUP4 PUSH1 0x1 DUP6 MLOAD SUB DUP2 MLOAD DUP2 LT PUSH2 0x9D3 JUMPI INVALID JUMPDEST PUSH1 0x20 MUL PUSH1 0x20 ADD ADD MLOAD PUSH2 0x32F5 JUMP JUMPDEST POP SWAP7 SWAP6 POP POP POP POP POP POP JUMP JUMPDEST PUSH1 0x0 DUP1 DUP3 TIMESTAMP DUP2 LT ISZERO PUSH2 0xA29 JUMPI PUSH1 0x40 MLOAD PUSH32 0x8C379A000000000000000000000000000000000000000000000000000000000 DUP2 MSTORE PUSH1 0x4 ADD PUSH2 0x6CA SWAP1 PUSH2 0x4F16 JUMP JUMPDEST PUSH2 0xA45 PUSH2 0xA3B CALLDATASIZE DUP12 SWAP1 SUB DUP12 ADD DUP12 PUSH2 0x4A26 JUMP JUMPDEST DUP10 DUP10 DUP10 ADDRESS DUP10 PUSH2 0x2084 JUMP JUMPDEST SWAP1 SWAP4 POP SWAP2 POP PUSH2 0xA61 PUSH2 0xA5A PUSH1 0x20 DUP12 ADD DUP12 PUSH2 0x483A JUMP JUMPDEST DUP7 DUP6 PUSH2 0x33AE JUMP JUMPDEST PUSH1 0x1 SLOAD PUSH1 0x40 MLOAD PUSH32 0x2E1A7D4D00000000000000000000000000000000000000000000000000000000 DUP2 MSTORE PUSH20 0xFFFFFFFFFFFFFFFFFFFFFFFFFFFFFFFFFFFFFFFF SWAP1 SWAP2 AND SWAP1 PUSH4 0x2E1A7D4D SWAP1 PUSH2 0xAB7 SWAP1 DUP6 SWAP1 PUSH1 0x4 ADD PUSH2 0x5576 JUMP JUMPDEST PUSH1 0x0 PUSH1 0x40 MLOAD DUP1 DUP4 SUB DUP2 PUSH1 0x0 DUP8 DUP1 EXTCODESIZE ISZERO DUP1 ISZERO PUSH2 0xAD1 JUMPI PUSH1 0x0 DUP1 REVERT JUMPDEST POP GAS CALL ISZERO DUP1 ISZERO PUSH2 0xAE5 JUMPI RETURNDATASIZE PUSH1 0x0 DUP1 RETURNDATACOPY RETURNDATASIZE PUSH1 0x0 REVERT JUMPDEST POP POP POP POP PUSH2 0xAF3 DUP6 DUP4 PUSH2 0x32F5 JUMP JUMPDEST POP SWAP7 POP SWAP7 SWAP5 POP POP POP POP POP JUMP JUMPDEST PUSH1 0x0 DUP1 SLOAD PUSH20 0xFFFFFFFFFFFFFFFFFFFFFFFFFFFFFFFFFFFFFFFF DUP1 DUP6 AND PUSH32 0xFFFFFFFFFFFFFFFFFFFFFFFF0000000000000000000000000000000000000000 SWAP3 DUP4 AND DUP2 OR SWAP1 SWAP4 SSTORE PUSH1 0x1 DUP1 SLOAD SWAP2 DUP6 AND SWAP2 SWAP1 SWAP3 AND OR SWAP1 SSTORE PUSH1 0x40 DUP1 MLOAD PUSH32 0xA35A337A00000000000000000000000000000000000000000000000000000000 DUP2 MSTORE SWAP1 MLOAD PUSH4 0xA35A337A SWAP2 PUSH1 0x4 DUP1 DUP3 ADD SWAP3 PUSH1 0x20 SWAP3 SWAP1 SWAP2 SWAP1 DUP3 SWAP1 SUB ADD DUP2 DUP7 DUP1 EXTCODESIZE ISZERO DUP1 ISZERO PUSH2 0xBA1 JUMPI PUSH1 0x0 DUP1 REVERT JUMPDEST POP GAS STATICCALL ISZERO DUP1 ISZERO PUSH2 0xBB5 JUMPI RETURNDATASIZE PUSH1 0x0 DUP1 RETURNDATACOPY RETURNDATASIZE PUSH1 0x0 REVERT JUMPDEST POP POP POP POP PUSH1 0x40 MLOAD RETURNDATASIZE PUSH1 0x1F NOT PUSH1 0x1F DUP3 ADD AND DUP3 ADD DUP1 PUSH1 0x40 MSTORE POP DUP2 ADD SWAP1 PUSH2 0xBD9 SWAP2 SWAP1 PUSH2 0x48C6 JUMP JUMPDEST PUSH1 0x2 SSTORE POP POP JUMP JUMPDEST PUSH1 0x2 SLOAD PUSH1 0x0 DUP1 SLOAD SWAP1 SWAP2 DUP3 SWAP2 PUSH2 0xC15 SWAP2 SWAP1 PUSH20 0xFFFFFFFFFFFFFFFFFFFFFFFFFFFFFFFFFFFFFFFF AND PUSH2 0x520 CALLDATASIZE DUP15 SWAP1 SUB DUP15 ADD DUP15 PUSH2 0x4A26 JUMP JUMPDEST SWAP1 POP PUSH1 0x0 DUP5 PUSH2 0xC24 JUMPI DUP10 PUSH2 0xC46 JUMP JUMPDEST PUSH32 0xFFFFFFFFFFFFFFFFFFFFFFFFFFFFFFFFFFFFFFFFFFFFFFFFFFFFFFFFFFFFFFFF JUMPDEST SWAP1 POP PUSH20 0xFFFFFFFFFFFFFFFFFFFFFFFFFFFFFFFFFFFFFFFF DUP3 AND PUSH4 0xD505ACCF CALLER ADDRESS DUP5 DUP11 PUSH2 0xC75 PUSH1 0x20 DUP12 ADD DUP12 PUSH2 0x4CDE JUMP JUMPDEST DUP11 PUSH1 0x20 ADD CALLDATALOAD DUP12 PUSH1 0x40 ADD CALLDATALOAD PUSH1 0x40 MLOAD DUP9 PUSH4 0xFFFFFFFF AND PUSH1 0xE0 SHL DUP2 MSTORE PUSH1 0x4 ADD PUSH2 0xCA1 SWAP8 SWAP7 SWAP6 SWAP5 SWAP4 SWAP3 SWAP2 SWAP1 PUSH2 0x4DFC JUMP JUMPDEST PUSH1 0x0 PUSH1 0x40 MLOAD DUP1 DUP4 SUB DUP2 PUSH1 0x0 DUP8 DUP1 EXTCODESIZE ISZERO DUP1 ISZERO PUSH2 0xCBB JUMPI PUSH1 0x0 DUP1 REVERT JUMPDEST POP GAS CALL ISZERO DUP1 ISZERO PUSH2 0xCCF JUMPI RETURNDATASIZE PUSH1 0x0 DUP1 RETURNDATACOPY RETURNDATASIZE PUSH1 0x0 REVERT JUMPDEST POP POP POP POP PUSH2 0xCF1 DUP12 DUP1 CALLDATASIZE SUB DUP2 ADD SWAP1 PUSH2 0xCE7 SWAP2 SWAP1 PUSH2 0x4A26 JUMP JUMPDEST DUP12 DUP12 DUP12 DUP12 DUP12 PUSH2 0x2568 JUMP JUMPDEST SWAP12 SWAP11 POP POP POP POP POP POP POP POP POP POP POP JUMP JUMPDEST PUSH1 0x60 DUP2 TIMESTAMP DUP2 LT ISZERO PUSH2 0xD3D JUMPI PUSH1 0x40 MLOAD PUSH32 0x8C379A000000000000000000000000000000000000000000000000000000000 DUP2 MSTORE PUSH1 0x4 ADD PUSH2 0x6CA SWAP1 PUSH2 0x4F16 JUMP JUMPDEST PUSH1 0x1 SLOAD PUSH20 0xFFFFFFFFFFFFFFFFFFFFFFFFFFFFFFFFFFFFFFFF AND DUP7 DUP7 PUSH1 0x0 DUP2 PUSH2 0xD61 JUMPI INVALID JUMPDEST PUSH2 0xD77 SWAP3 PUSH1 0x20 PUSH1 0x60 SWAP1 SWAP3 MUL ADD SWAP1 DUP2 ADD SWAP2 POP PUSH2 0x483A JUMP JUMPDEST PUSH20 0xFFFFFFFFFFFFFFFFFFFFFFFFFFFFFFFFFFFFFFFF AND EQ PUSH2 0xDC4 JUMPI PUSH1 0x40 MLOAD PUSH32 0x8C379A000000000000000000000000000000000000000000000000000000000 DUP2 MSTORE PUSH1 0x4 ADD PUSH2 0x6CA SWAP1 PUSH2 0x536E JUMP JUMPDEST PUSH2 0xE20 DUP8 DUP8 DUP8 DUP1 DUP1 PUSH1 0x20 MUL PUSH1 0x20 ADD PUSH1 0x40 MLOAD SWAP1 DUP2 ADD PUSH1 0x40 MSTORE DUP1 SWAP4 SWAP3 SWAP2 SWAP1 DUP2 DUP2 MSTORE PUSH1 0x20 ADD PUSH1 0x0 SWAP1 JUMPDEST DUP3 DUP3 LT ISZERO PUSH2 0xE16 JUMPI PUSH2 0xE07 PUSH1 0x60 DUP4 MUL DUP7 ADD CALLDATASIZE DUP2 SWAP1 SUB DUP2 ADD SWAP1 PUSH2 0x4A26 JUMP JUMPDEST DUP2 MSTORE PUSH1 0x20 ADD SWAP1 PUSH1 0x1 ADD SWAP1 PUSH2 0xDEA JUMP JUMPDEST POP POP POP POP POP PUSH2 0x26F9 JUMP JUMPDEST SWAP2 POP CALLVALUE DUP3 PUSH1 0x0 DUP2 MLOAD DUP2 LT PUSH2 0xE30 JUMPI INVALID JUMPDEST PUSH1 0x20 MUL PUSH1 0x20 ADD ADD MLOAD GT ISZERO PUSH2 0xE70 JUMPI PUSH1 0x40 MLOAD PUSH32 0x8C379A000000000000000000000000000000000000000000000000000000000 DUP2 MSTORE PUSH1 0x4 ADD PUSH2 0x6CA SWAP1 PUSH2 0x5140 JUMP JUMPDEST PUSH1 0x1 SLOAD DUP3 MLOAD PUSH20 0xFFFFFFFFFFFFFFFFFFFFFFFFFFFFFFFFFFFFFFFF SWAP1 SWAP2 AND SWAP1 PUSH4 0xD0E30DB0 SWAP1 DUP5 SWAP1 PUSH1 0x0 SWAP1 PUSH2 0xE9F JUMPI INVALID JUMPDEST PUSH1 0x20 MUL PUSH1 0x20 ADD ADD MLOAD PUSH1 0x40 MLOAD DUP3 PUSH4 0xFFFFFFFF AND PUSH1 0xE0 SHL DUP2 MSTORE PUSH1 0x4 ADD PUSH1 0x0 PUSH1 0x40 MLOAD DUP1 DUP4 SUB DUP2 DUP6 DUP9 DUP1 EXTCODESIZE ISZERO DUP1 ISZERO PUSH2 0xED2 JUMPI PUSH1 0x0 DUP1 REVERT JUMPDEST POP GAS CALL ISZERO DUP1 ISZERO PUSH2 0xEE6 JUMPI RETURNDATASIZE PUSH1 0x0 DUP1 RETURNDATACOPY RETURNDATASIZE PUSH1 0x0 REVERT JUMPDEST POP POP PUSH1 0x1 SLOAD PUSH1 0x2 SLOAD PUSH1 0x0 DUP1 SLOAD PUSH20 0xFFFFFFFFFFFFFFFFFFFFFFFFFFFFFFFFFFFFFFFF SWAP4 DUP5 AND SWAP7 POP PUSH4 0xA9059CBB SWAP6 POP PUSH2 0xF29 SWAP5 POP SWAP2 SWAP3 SWAP1 SWAP2 AND SWAP1 DUP12 SWAP1 DUP12 SWAP1 DUP2 PUSH2 0x88A JUMPI INVALID JUMPDEST DUP5 PUSH1 0x0 DUP2 MLOAD DUP2 LT PUSH2 0xF36 JUMPI INVALID JUMPDEST PUSH1 0x20 MUL PUSH1 0x20 ADD ADD MLOAD PUSH1 0x40 MLOAD DUP4 PUSH4 0xFFFFFFFF AND PUSH1 0xE0 SHL DUP2 MSTORE PUSH1 0x4 ADD PUSH2 0xF5B SWAP3 SWAP2 SWAP1 PUSH2 0x4EAC JUMP JUMPDEST PUSH1 0x20 PUSH1 0x40 MLOAD DUP1 DUP4 SUB DUP2 PUSH1 0x0 DUP8 DUP1 EXTCODESIZE ISZERO DUP1 ISZERO PUSH2 0xF75 JUMPI PUSH1 0x0 DUP1 REVERT JUMPDEST POP GAS CALL ISZERO DUP1 ISZERO PUSH2 0xF89 JUMPI RETURNDATASIZE PUSH1 0x0 DUP1 RETURNDATACOPY RETURNDATASIZE PUSH1 0x0 REVERT JUMPDEST POP POP POP POP PUSH1 0x40 MLOAD RETURNDATASIZE PUSH1 0x1F NOT PUSH1 0x1F DUP3 ADD AND DUP3 ADD DUP1 PUSH1 0x40 MSTORE POP DUP2 ADD SWAP1 PUSH2 0xFAD SWAP2 SWAP1 PUSH2 0x48AA JUMP JUMPDEST PUSH2 0xFB3 JUMPI INVALID JUMPDEST PUSH2 0x1010 DUP3 DUP8 DUP8 DUP1 DUP1 PUSH1 0x20 MUL PUSH1 0x20 ADD PUSH1 0x40 MLOAD SWAP1 DUP2 ADD PUSH1 0x40 MSTORE DUP1 SWAP4 SWAP3 SWAP2 SWAP1 DUP2 DUP2 MSTORE PUSH1 0x20 ADD PUSH1 0x0 SWAP1 JUMPDEST DUP3 DUP3 LT ISZERO PUSH2 0x1005 JUMPI PUSH2 0xFF6 PUSH1 0x60 DUP4 MUL DUP7 ADD CALLDATASIZE DUP2 SWAP1 SUB DUP2 ADD SWAP1 PUSH2 0x4A26 JUMP JUMPDEST DUP2 MSTORE PUSH1 0x20 ADD SWAP1 PUSH1 0x1 ADD SWAP1 PUSH2 0xFD9 JUMP JUMPDEST POP POP POP POP POP DUP7 PUSH2 0x3101 JUMP JUMPDEST DUP2 PUSH1 0x0 DUP2 MLOAD DUP2 LT PUSH2 0x101D JUMPI INVALID JUMPDEST PUSH1 0x20 MUL PUSH1 0x20 ADD ADD MLOAD CALLVALUE GT ISZERO PUSH2 0x104C JUMPI PUSH2 0x104C CALLER DUP4 PUSH1 0x0 DUP2 MLOAD DUP2 LT PUSH2 0x103D JUMPI INVALID JUMPDEST PUSH1 0x20 MUL PUSH1 0x20 ADD ADD MLOAD CALLVALUE SUB PUSH2 0x32F5 JUMP JUMPDEST POP SWAP6 SWAP5 POP POP POP POP POP JUMP JUMPDEST PUSH1 0x60 DUP2 TIMESTAMP DUP2 LT ISZERO PUSH2 0x1093 JUMPI PUSH1 0x40 MLOAD PUSH32 0x8C379A000000000000000000000000000000000000000000000000000000000 DUP2 MSTORE PUSH1 0x4 ADD PUSH2 0x6CA SWAP1 PUSH2 0x4F16 JUMP JUMPDEST PUSH1 0x1 SLOAD PUSH20 0xFFFFFFFFFFFFFFFFFFFFFFFFFFFFFFFFFFFFFFFF AND DUP7 DUP7 PUSH1 0x0 DUP2 PUSH2 0x10B7 JUMPI INVALID JUMPDEST PUSH2 0x10CD SWAP3 PUSH1 0x20 PUSH1 0x60 SWAP1 SWAP3 MUL ADD SWAP1 DUP2 ADD SWAP2 POP PUSH2 0x483A JUMP JUMPDEST PUSH20 0xFFFFFFFFFFFFFFFFFFFFFFFFFFFFFFFFFFFFFFFF AND EQ PUSH2 0x111A JUMPI PUSH1 0x40 MLOAD PUSH32 0x8C379A000000000000000000000000000000000000000000000000000000000 DUP2 MSTORE PUSH1 0x4 ADD PUSH2 0x6CA SWAP1 PUSH2 0x536E JUMP JUMPDEST PUSH2 0x116C CALLVALUE DUP8 DUP8 DUP1 DUP1 PUSH1 0x20 MUL PUSH1 0x20 ADD PUSH1 0x40 MLOAD SWAP1 DUP2 ADD PUSH1 0x40 MSTORE DUP1 SWAP4 SWAP3 SWAP2 SWAP1 DUP2 DUP2 MSTORE PUSH1 0x20 ADD PUSH1 0x0 SWAP1 JUMPDEST DUP3 DUP3 LT ISZERO PUSH2 0x7D1 JUMPI PUSH2 0x115D PUSH1 0x60 DUP4 MUL DUP7 ADD CALLDATASIZE DUP2 SWAP1 SUB DUP2 ADD SWAP1 PUSH2 0x4A26 JUMP JUMPDEST DUP2 MSTORE PUSH1 0x20 ADD SWAP1 PUSH1 0x1 ADD SWAP1 PUSH2 0x1140 JUMP JUMPDEST SWAP2 POP DUP7 DUP3 PUSH1 0x1 DUP5 MLOAD SUB DUP2 MLOAD DUP2 LT PUSH2 0x117F JUMPI INVALID JUMPDEST PUSH1 0x20 MUL PUSH1 0x20 ADD ADD MLOAD LT ISZERO PUSH2 0x11BF JUMPI PUSH1 0x40 MLOAD PUSH32 0x8C379A000000000000000000000000000000000000000000000000000000000 DUP2 MSTORE PUSH1 0x4 ADD PUSH2 0x6CA SWAP1 PUSH2 0x53DC JUMP JUMPDEST PUSH1 0x1 SLOAD DUP3 MLOAD PUSH20 0xFFFFFFFFFFFFFFFFFFFFFFFFFFFFFFFFFFFFFFFF SWAP1 SWAP2 AND SWAP1 PUSH4 0xD0E30DB0 SWAP1 DUP5 SWAP1 PUSH1 0x0 SWAP1 PUSH2 0x11EE JUMPI INVALID JUMPDEST PUSH1 0x20 MUL PUSH1 0x20 ADD ADD MLOAD PUSH1 0x40 MLOAD DUP3 PUSH4 0xFFFFFFFF AND PUSH1 0xE0 SHL DUP2 MSTORE PUSH1 0x4 ADD PUSH1 0x0 PUSH1 0x40 MLOAD DUP1 DUP4 SUB DUP2 DUP6 DUP9 DUP1 EXTCODESIZE ISZERO DUP1 ISZERO PUSH2 0x1221 JUMPI PUSH1 0x0 DUP1 REVERT JUMPDEST POP GAS CALL ISZERO DUP1 ISZERO PUSH2 0x1235 JUMPI RETURNDATASIZE PUSH1 0x0 DUP1 RETURNDATACOPY RETURNDATASIZE PUSH1 0x0 REVERT JUMPDEST POP POP PUSH1 0x1 SLOAD PUSH1 0x2 SLOAD PUSH1 0x0 DUP1 SLOAD PUSH20 0xFFFFFFFFFFFFFFFFFFFFFFFFFFFFFFFFFFFFFFFF SWAP4 DUP5 AND SWAP7 POP PUSH4 0xA9059CBB SWAP6 POP PUSH2 0x1278 SWAP5 POP SWAP2 SWAP3 SWAP1 SWAP2 AND SWAP1 DUP12 SWAP1 DUP12 SWAP1 DUP2 PUSH2 0x88A JUMPI INVALID JUMPDEST DUP5 PUSH1 0x0 DUP2 MLOAD DUP2 LT PUSH2 0x1285 JUMPI INVALID JUMPDEST PUSH1 0x20 MUL PUSH1 0x20 ADD ADD MLOAD PUSH1 0x40 MLOAD DUP4 PUSH4 0xFFFFFFFF AND PUSH1 0xE0 SHL DUP2 MSTORE PUSH1 0x4 ADD PUSH2 0x12AA SWAP3 SWAP2 SWAP1 PUSH2 0x4EAC JUMP JUMPDEST PUSH1 0x20 PUSH1 0x40 MLOAD DUP1 DUP4 SUB DUP2 PUSH1 0x0 DUP8 DUP1 EXTCODESIZE ISZERO DUP1 ISZERO PUSH2 0x12C4 JUMPI PUSH1 0x0 DUP1 REVERT JUMPDEST POP GAS CALL ISZERO DUP1 ISZERO PUSH2 0x12D8 JUMPI RETURNDATASIZE PUSH1 0x0 DUP1 RETURNDATACOPY RETURNDATASIZE PUSH1 0x0 REVERT JUMPDEST POP POP POP POP PUSH1 0x40 MLOAD RETURNDATASIZE PUSH1 0x1F NOT PUSH1 0x1F DUP3 ADD AND DUP3 ADD DUP1 PUSH1 0x40 MSTORE POP DUP2 ADD SWAP1 PUSH2 0x12FC SWAP2 SWAP1 PUSH2 0x48AA JUMP JUMPDEST PUSH2 0x1302 JUMPI INVALID JUMPDEST PUSH2 0x104C DUP3 DUP8 DUP8 DUP1 DUP1 PUSH1 0x20 MUL PUSH1 0x20 ADD PUSH1 0x40 MLOAD SWAP1 DUP2 ADD PUSH1 0x40 MSTORE DUP1 SWAP4 SWAP3 SWAP2 SWAP1 DUP2 DUP2 MSTORE PUSH1 0x20 ADD PUSH1 0x0 SWAP1 JUMPDEST DUP3 DUP3 LT ISZERO PUSH2 0x1005 JUMPI PUSH2 0x1345 PUSH1 0x60 DUP4 MUL DUP7 ADD CALLDATASIZE DUP2 SWAP1 SUB DUP2 ADD SWAP1 PUSH2 0x4A26 JUMP JUMPDEST DUP2 MSTORE PUSH1 0x20 ADD SWAP1 PUSH1 0x1 ADD SWAP1 PUSH2 0x1328 JUMP JUMPDEST DUP1 TIMESTAMP DUP2 LT ISZERO PUSH2 0x138F JUMPI PUSH1 0x40 MLOAD PUSH32 0x8C379A000000000000000000000000000000000000000000000000000000000 DUP2 MSTORE PUSH1 0x4 ADD PUSH2 0x6CA SWAP1 PUSH2 0x4F16 JUMP JUMPDEST PUSH2 0x13F1 DUP6 DUP6 PUSH1 0x0 DUP2 DUP2 LT PUSH2 0x139F JUMPI INVALID JUMPDEST PUSH2 0x13B5 SWAP3 PUSH1 0x20 PUSH1 0x60 SWAP1 SWAP3 MUL ADD SWAP1 DUP2 ADD SWAP2 POP PUSH2 0x483A JUMP JUMPDEST CALLER PUSH2 0x13EB PUSH1 0x2 SLOAD PUSH1 0x0 DUP1 SWAP1 SLOAD SWAP1 PUSH2 0x100 EXP SWAP1 DIV PUSH20 0xFFFFFFFFFFFFFFFFFFFFFFFFFFFFFFFFFFFFFFFF AND DUP11 DUP11 PUSH1 0x0 DUP2 DUP2 LT PUSH2 0x88A JUMPI INVALID JUMPDEST DUP11 PUSH2 0x2FD4 JUMP JUMPDEST PUSH1 0x0 DUP6 DUP6 PUSH32 0xFFFFFFFFFFFFFFFFFFFFFFFFFFFFFFFFFFFFFFFFFFFFFFFFFFFFFFFFFFFFFFFF DUP2 ADD DUP2 DUP2 LT PUSH2 0x1421 JUMPI INVALID JUMPDEST SWAP1 POP PUSH1 0x60 MUL ADD PUSH1 0x20 ADD PUSH1 0x20 DUP2 ADD SWAP1 PUSH2 0x1439 SWAP2 SWAP1 PUSH2 0x483A JUMP JUMPDEST PUSH20 0xFFFFFFFFFFFFFFFFFFFFFFFFFFFFFFFFFFFFFFFF AND PUSH4 0x70A08231 DUP6 PUSH1 0x40 MLOAD DUP3 PUSH4 0xFFFFFFFF AND PUSH1 0xE0 SHL DUP2 MSTORE PUSH1 0x4 ADD PUSH2 0x1471 SWAP2 SWAP1 PUSH2 0x4DDB JUMP JUMPDEST PUSH1 0x20 PUSH1 0x40 MLOAD DUP1 DUP4 SUB DUP2 DUP7 DUP1 EXTCODESIZE ISZERO DUP1 ISZERO PUSH2 0x1489 JUMPI PUSH1 0x0 DUP1 REVERT JUMPDEST POP GAS STATICCALL ISZERO DUP1 ISZERO PUSH2 0x149D JUMPI RETURNDATASIZE PUSH1 0x0 DUP1 RETURNDATACOPY RETURNDATASIZE PUSH1 0x0 REVERT JUMPDEST POP POP POP POP PUSH1 0x40 MLOAD RETURNDATASIZE PUSH1 0x1F NOT PUSH1 0x1F DUP3 ADD AND DUP3 ADD DUP1 PUSH1 0x40 MSTORE POP DUP2 ADD SWAP1 PUSH2 0x14C1 SWAP2 SWAP1 PUSH2 0x48C6 JUMP JUMPDEST SWAP1 POP PUSH2 0x151F DUP7 DUP7 DUP1 DUP1 PUSH1 0x20 MUL PUSH1 0x20 ADD PUSH1 0x40 MLOAD SWAP1 DUP2 ADD PUSH1 0x40 MSTORE DUP1 SWAP4 SWAP3 SWAP2 SWAP1 DUP2 DUP2 MSTORE PUSH1 0x20 ADD PUSH1 0x0 SWAP1 JUMPDEST DUP3 DUP3 LT ISZERO PUSH2 0x1514 JUMPI PUSH2 0x1505 PUSH1 0x60 DUP4 MUL DUP7 ADD CALLDATASIZE DUP2 SWAP1 SUB DUP2 ADD SWAP1 PUSH2 0x4A26 JUMP JUMPDEST DUP2 MSTORE PUSH1 0x20 ADD SWAP1 PUSH1 0x1 ADD SWAP1 PUSH2 0x14E8 JUMP JUMPDEST POP POP POP POP POP DUP6 PUSH2 0x34D8 JUMP JUMPDEST DUP7 PUSH2 0x15FE DUP3 DUP9 DUP9 PUSH32 0xFFFFFFFFFFFFFFFFFFFFFFFFFFFFFFFFFFFFFFFFFFFFFFFFFFFFFFFFFFFFFFFF DUP2 ADD DUP2 DUP2 LT PUSH2 0x1552 JUMPI INVALID JUMPDEST SWAP1 POP PUSH1 0x60 MUL ADD PUSH1 0x20 ADD PUSH1 0x20 DUP2 ADD SWAP1 PUSH2 0x156A SWAP2 SWAP1 PUSH2 0x483A JUMP JUMPDEST PUSH20 0xFFFFFFFFFFFFFFFFFFFFFFFFFFFFFFFFFFFFFFFF AND PUSH4 0x70A08231 DUP9 PUSH1 0x40 MLOAD DUP3 PUSH4 0xFFFFFFFF AND PUSH1 0xE0 SHL DUP2 MSTORE PUSH1 0x4 ADD PUSH2 0x15A2 SWAP2 SWAP1 PUSH2 0x4DDB JUMP JUMPDEST PUSH1 0x20 PUSH1 0x40 MLOAD DUP1 DUP4 SUB DUP2 DUP7 DUP1 EXTCODESIZE ISZERO DUP1 ISZERO PUSH2 0x15BA JUMPI PUSH1 0x0 DUP1 REVERT JUMPDEST POP GAS STATICCALL ISZERO DUP1 ISZERO PUSH2 0x15CE JUMPI RETURNDATASIZE PUSH1 0x0 DUP1 RETURNDATACOPY RETURNDATASIZE PUSH1 0x0 REVERT JUMPDEST POP POP POP POP PUSH1 0x40 MLOAD RETURNDATASIZE PUSH1 0x1F NOT PUSH1 0x1F DUP3 ADD AND DUP3 ADD DUP1 PUSH1 0x40 MSTORE POP DUP2 ADD SWAP1 PUSH2 0x15F2 SWAP2 SWAP1 PUSH2 0x48C6 JUMP JUMPDEST SWAP1 PUSH4 0xFFFFFFFF PUSH2 0x396C AND JUMP JUMPDEST LT ISZERO PUSH2 0x1636 JUMPI PUSH1 0x40 MLOAD PUSH32 0x8C379A000000000000000000000000000000000000000000000000000000000 DUP2 MSTORE PUSH1 0x4 ADD PUSH2 0x6CA SWAP1 PUSH2 0x53DC JUMP JUMPDEST POP POP POP POP POP POP POP POP JUMP JUMPDEST DUP1 TIMESTAMP DUP2 LT ISZERO PUSH2 0x167B JUMPI PUSH1 0x40 MLOAD PUSH32 0x8C379A000000000000000000000000000000000000000000000000000000000 DUP2 MSTORE PUSH1 0x4 ADD PUSH2 0x6CA SWAP1 PUSH2 0x4F16 JUMP JUMPDEST PUSH1 0x1 SLOAD PUSH20 0xFFFFFFFFFFFFFFFFFFFFFFFFFFFFFFFFFFFFFFFF AND DUP6 DUP6 PUSH1 0x0 DUP2 PUSH2 0x169F JUMPI INVALID JUMPDEST PUSH2 0x16B5 SWAP3 PUSH1 0x20 PUSH1 0x60 SWAP1 SWAP3 MUL ADD SWAP1 DUP2 ADD SWAP2 POP PUSH2 0x483A JUMP JUMPDEST PUSH20 0xFFFFFFFFFFFFFFFFFFFFFFFFFFFFFFFFFFFFFFFF AND EQ PUSH2 0x1702 JUMPI PUSH1 0x40 MLOAD PUSH32 0x8C379A000000000000000000000000000000000000000000000000000000000 DUP2 MSTORE PUSH1 0x4 ADD PUSH2 0x6CA SWAP1 PUSH2 0x536E JUMP JUMPDEST PUSH1 0x1 SLOAD PUSH1 0x40 DUP1 MLOAD PUSH32 0xD0E30DB000000000000000000000000000000000000000000000000000000000 DUP2 MSTORE SWAP1 MLOAD CALLVALUE SWAP3 PUSH20 0xFFFFFFFFFFFFFFFFFFFFFFFFFFFFFFFFFFFFFFFF AND SWAP2 PUSH4 0xD0E30DB0 SWAP2 DUP5 SWAP2 PUSH1 0x4 DUP1 DUP3 ADD SWAP3 PUSH1 0x0 SWAP3 SWAP1 SWAP2 SWAP1 DUP3 SWAP1 SUB ADD DUP2 DUP6 DUP9 DUP1 EXTCODESIZE ISZERO DUP1 ISZERO PUSH2 0x1770 JUMPI PUSH1 0x0 DUP1 REVERT JUMPDEST POP GAS CALL ISZERO DUP1 ISZERO PUSH2 0x1784 JUMPI RETURNDATASIZE PUSH1 0x0 DUP1 RETURNDATACOPY RETURNDATASIZE PUSH1 0x0 REVERT JUMPDEST POP POP PUSH1 0x1 SLOAD PUSH1 0x2 SLOAD PUSH1 0x0 DUP1 SLOAD PUSH20 0xFFFFFFFFFFFFFFFFFFFFFFFFFFFFFFFFFFFFFFFF SWAP4 DUP5 AND SWAP7 POP PUSH4 0xA9059CBB SWAP6 POP PUSH2 0x17C7 SWAP5 POP SWAP2 SWAP3 SWAP1 SWAP2 AND SWAP1 DUP12 SWAP1 DUP12 SWAP1 DUP2 PUSH2 0x88A JUMPI INVALID JUMPDEST DUP4 PUSH1 0x40 MLOAD DUP4 PUSH4 0xFFFFFFFF AND PUSH1 0xE0 SHL DUP2 MSTORE PUSH1 0x4 ADD PUSH2 0x17E5 SWAP3 SWAP2 SWAP1 PUSH2 0x4EAC JUMP JUMPDEST PUSH1 0x20 PUSH1 0x40 MLOAD DUP1 DUP4 SUB DUP2 PUSH1 0x0 DUP8 DUP1 EXTCODESIZE ISZERO DUP1 ISZERO PUSH2 0x17FF JUMPI PUSH1 0x0 DUP1 REVERT JUMPDEST POP GAS CALL ISZERO DUP1 ISZERO PUSH2 0x1813 JUMPI RETURNDATASIZE PUSH1 0x0 DUP1 RETURNDATACOPY RETURNDATASIZE PUSH1 0x0 REVERT JUMPDEST POP POP POP POP PUSH1 0x40 MLOAD RETURNDATASIZE PUSH1 0x1F NOT PUSH1 0x1F DUP3 ADD AND DUP3 ADD DUP1 PUSH1 0x40 MSTORE POP DUP2 ADD SWAP1 PUSH2 0x1837 SWAP2 SWAP1 PUSH2 0x48AA JUMP JUMPDEST PUSH2 0x183D JUMPI INVALID JUMPDEST PUSH1 0x0 DUP7 DUP7 PUSH32 0xFFFFFFFFFFFFFFFFFFFFFFFFFFFFFFFFFFFFFFFFFFFFFFFFFFFFFFFFFFFFFFFF DUP2 ADD DUP2 DUP2 LT PUSH2 0x186D JUMPI INVALID JUMPDEST SWAP1 POP PUSH1 0x60 MUL ADD PUSH1 0x20 ADD PUSH1 0x20 DUP2 ADD SWAP1 PUSH2 0x1885 SWAP2 SWAP1 PUSH2 0x483A JUMP JUMPDEST PUSH20 0xFFFFFFFFFFFFFFFFFFFFFFFFFFFFFFFFFFFFFFFF AND PUSH4 0x70A08231 DUP7 PUSH1 0x40 MLOAD DUP3 PUSH4 0xFFFFFFFF AND PUSH1 0xE0 SHL DUP2 MSTORE PUSH1 0x4 ADD PUSH2 0x18BD SWAP2 SWAP1 PUSH2 0x4DDB JUMP JUMPDEST PUSH1 0x20 PUSH1 0x40 MLOAD DUP1 DUP4 SUB DUP2 DUP7 DUP1 EXTCODESIZE ISZERO DUP1 ISZERO PUSH2 0x18D5 JUMPI PUSH1 0x0 DUP1 REVERT JUMPDEST POP GAS STATICCALL ISZERO DUP1 ISZERO PUSH2 0x18E9 JUMPI RETURNDATASIZE PUSH1 0x0 DUP1 RETURNDATACOPY RETURNDATASIZE PUSH1 0x0 REVERT JUMPDEST POP POP POP POP PUSH1 0x40 MLOAD RETURNDATASIZE PUSH1 0x1F NOT PUSH1 0x1F DUP3 ADD AND DUP3 ADD DUP1 PUSH1 0x40 MSTORE POP DUP2 ADD SWAP1 PUSH2 0x190D SWAP2 SWAP1 PUSH2 0x48C6 JUMP JUMPDEST SWAP1 POP PUSH2 0x196B DUP8 DUP8 DUP1 DUP1 PUSH1 0x20 MUL PUSH1 0x20 ADD PUSH1 0x40 MLOAD SWAP1 DUP2 ADD PUSH1 0x40 MSTORE DUP1 SWAP4 SWAP3 SWAP2 SWAP1 DUP2 DUP2 MSTORE PUSH1 0x20 ADD PUSH1 0x0 SWAP1 JUMPDEST DUP3 DUP3 LT ISZERO PUSH2 0x1960 JUMPI PUSH2 0x1951 PUSH1 0x60 DUP4 MUL DUP7 ADD CALLDATASIZE DUP2 SWAP1 SUB DUP2 ADD SWAP1 PUSH2 0x4A26 JUMP JUMPDEST DUP2 MSTORE PUSH1 0x20 ADD SWAP1 PUSH1 0x1 ADD SWAP1 PUSH2 0x1934 JUMP JUMPDEST POP POP POP POP POP DUP7 PUSH2 0x34D8 JUMP JUMPDEST DUP8 PUSH2 0x15FE DUP3 DUP10 DUP10 PUSH32 0xFFFFFFFFFFFFFFFFFFFFFFFFFFFFFFFFFFFFFFFFFFFFFFFFFFFFFFFFFFFFFFFF DUP2 ADD DUP2 DUP2 LT PUSH2 0x199E JUMPI INVALID JUMPDEST SWAP1 POP PUSH1 0x60 MUL ADD PUSH1 0x20 ADD PUSH1 0x20 DUP2 ADD SWAP1 PUSH2 0x19B6 SWAP2 SWAP1 PUSH2 0x483A JUMP JUMPDEST PUSH20 0xFFFFFFFFFFFFFFFFFFFFFFFFFFFFFFFFFFFFFFFF AND PUSH4 0x70A08231 DUP10 PUSH1 0x40 MLOAD DUP3 PUSH4 0xFFFFFFFF AND PUSH1 0xE0 SHL DUP2 MSTORE PUSH1 0x4 ADD PUSH2 0x15A2 SWAP2 SWAP1 PUSH2 0x4DDB JUMP JUMPDEST DUP1 TIMESTAMP DUP2 LT ISZERO PUSH2 0x1A29 JUMPI PUSH1 0x40 MLOAD PUSH32 0x8C379A000000000000000000000000000000000000000000000000000000000 DUP2 MSTORE PUSH1 0x4 ADD PUSH2 0x6CA SWAP1 PUSH2 0x4F16 JUMP JUMPDEST PUSH1 0x1 SLOAD PUSH20 0xFFFFFFFFFFFFFFFFFFFFFFFFFFFFFFFFFFFFFFFF AND DUP6 DUP6 PUSH32 0xFFFFFFFFFFFFFFFFFFFFFFFFFFFFFFFFFFFFFFFFFFFFFFFFFFFFFFFFFFFFFFFF DUP2 ADD DUP2 DUP2 LT PUSH2 0x1A70 JUMPI INVALID JUMPDEST SWAP1 POP PUSH1 0x60 MUL ADD PUSH1 0x20 ADD PUSH1 0x20 DUP2 ADD SWAP1 PUSH2 0x1A88 SWAP2 SWAP1 PUSH2 0x483A JUMP JUMPDEST PUSH20 0xFFFFFFFFFFFFFFFFFFFFFFFFFFFFFFFFFFFFFFFF AND EQ PUSH2 0x1AD5 JUMPI PUSH1 0x40 MLOAD PUSH32 0x8C379A000000000000000000000000000000000000000000000000000000000 DUP2 MSTORE PUSH1 0x4 ADD PUSH2 0x6CA SWAP1 PUSH2 0x536E JUMP JUMPDEST PUSH2 0x1AE5 DUP6 DUP6 PUSH1 0x0 DUP2 DUP2 LT PUSH2 0x139F JUMPI INVALID JUMPDEST PUSH2 0x1B41 DUP6 DUP6 DUP1 DUP1 PUSH1 0x20 MUL PUSH1 0x20 ADD PUSH1 0x40 MLOAD SWAP1 DUP2 ADD PUSH1 0x40 MSTORE DUP1 SWAP4 SWAP3 SWAP2 SWAP1 DUP2 DUP2 MSTORE PUSH1 0x20 ADD PUSH1 0x0 SWAP1 JUMPDEST DUP3 DUP3 LT ISZERO PUSH2 0x1B36 JUMPI PUSH2 0x1B27 PUSH1 0x60 DUP4 MUL DUP7 ADD CALLDATASIZE DUP2 SWAP1 SUB DUP2 ADD SWAP1 PUSH2 0x4A26 JUMP JUMPDEST DUP2 MSTORE PUSH1 0x20 ADD SWAP1 PUSH1 0x1 ADD SWAP1 PUSH2 0x1B0A JUMP JUMPDEST POP POP POP POP POP ADDRESS PUSH2 0x34D8 JUMP JUMPDEST PUSH1 0x1 SLOAD PUSH1 0x40 MLOAD PUSH32 0x70A0823100000000000000000000000000000000000000000000000000000000 DUP2 MSTORE PUSH1 0x0 SWAP2 PUSH20 0xFFFFFFFFFFFFFFFFFFFFFFFFFFFFFFFFFFFFFFFF AND SWAP1 PUSH4 0x70A08231 SWAP1 PUSH2 0x1B98 SWAP1 ADDRESS SWAP1 PUSH1 0x4 ADD PUSH2 0x4DDB JUMP JUMPDEST PUSH1 0x20 PUSH1 0x40 MLOAD DUP1 DUP4 SUB DUP2 DUP7 DUP1 EXTCODESIZE ISZERO DUP1 ISZERO PUSH2 0x1BB0 JUMPI PUSH1 0x0 DUP1 REVERT JUMPDEST POP GAS STATICCALL ISZERO DUP1 ISZERO PUSH2 0x1BC4 JUMPI RETURNDATASIZE PUSH1 0x0 DUP1 RETURNDATACOPY RETURNDATASIZE PUSH1 0x0 REVERT JUMPDEST POP POP POP POP PUSH1 0x40 MLOAD RETURNDATASIZE PUSH1 0x1F NOT PUSH1 0x1F DUP3 ADD AND DUP3 ADD DUP1 PUSH1 0x40 MSTORE POP DUP2 ADD SWAP1 PUSH2 0x1BE8 SWAP2 SWAP1 PUSH2 0x48C6 JUMP JUMPDEST SWAP1 POP DUP7 DUP2 LT ISZERO PUSH2 0x1C24 JUMPI PUSH1 0x40 MLOAD PUSH32 0x8C379A000000000000000000000000000000000000000000000000000000000 DUP2 MSTORE PUSH1 0x4 ADD PUSH2 0x6CA SWAP1 PUSH2 0x53DC JUMP JUMPDEST PUSH1 0x1 SLOAD PUSH1 0x40 MLOAD PUSH32 0x2E1A7D4D00000000000000000000000000000000000000000000000000000000 DUP2 MSTORE PUSH20 0xFFFFFFFFFFFFFFFFFFFFFFFFFFFFFFFFFFFFFFFF SWAP1 SWAP2 AND SWAP1 PUSH4 0x2E1A7D4D SWAP1 PUSH2 0x1C7A SWAP1 DUP5 SWAP1 PUSH1 0x4 ADD PUSH2 0x5576 JUMP JUMPDEST PUSH1 0x0 PUSH1 0x40 MLOAD DUP1 DUP4 SUB DUP2 PUSH1 0x0 DUP8 DUP1 EXTCODESIZE ISZERO DUP1 ISZERO PUSH2 0x1C94 JUMPI PUSH1 0x0 DUP1 REVERT JUMPDEST POP GAS CALL ISZERO DUP1 ISZERO PUSH2 0x1CA8 JUMPI RETURNDATASIZE PUSH1 0x0 DUP1 RETURNDATACOPY RETURNDATASIZE PUSH1 0x0 REVERT JUMPDEST POP POP POP POP PUSH2 0x1636 DUP5 DUP3 PUSH2 0x32F5 JUMP JUMPDEST PUSH1 0x0 DUP1 PUSH1 0x0 DUP4 TIMESTAMP DUP2 LT ISZERO PUSH2 0x1CF6 JUMPI PUSH1 0x40 MLOAD PUSH32 0x8C379A000000000000000000000000000000000000000000000000000000000 DUP2 MSTORE PUSH1 0x4 ADD PUSH2 0x6CA SWAP1 PUSH2 0x4F16 JUMP JUMPDEST PUSH2 0x1D11 PUSH2 0x1D08 CALLDATASIZE DUP13 SWAP1 SUB DUP13 ADD DUP13 PUSH2 0x4A26 JUMP JUMPDEST DUP11 CALLVALUE DUP12 DUP12 PUSH2 0x39A9 JUMP JUMPDEST PUSH1 0x2 SLOAD PUSH1 0x0 DUP1 SLOAD SWAP4 SWAP8 POP SWAP2 SWAP6 POP SWAP1 SWAP2 PUSH2 0x1D4A SWAP2 SWAP1 PUSH20 0xFFFFFFFFFFFFFFFFFFFFFFFFFFFFFFFFFFFFFFFF AND PUSH2 0x520 CALLDATASIZE DUP16 SWAP1 SUB DUP16 ADD DUP16 PUSH2 0x4A26 JUMP JUMPDEST SWAP1 POP PUSH2 0x1D64 PUSH2 0x1D5C PUSH1 0x20 DUP14 ADD DUP14 PUSH2 0x483A JUMP JUMPDEST CALLER DUP4 DUP9 PUSH2 0x2FD4 JUMP JUMPDEST PUSH1 0x1 PUSH1 0x0 SWAP1 SLOAD SWAP1 PUSH2 0x100 EXP SWAP1 DIV PUSH20 0xFFFFFFFFFFFFFFFFFFFFFFFFFFFFFFFFFFFFFFFF AND PUSH20 0xFFFFFFFFFFFFFFFFFFFFFFFFFFFFFFFFFFFFFFFF AND PUSH4 0xD0E30DB0 DUP6 PUSH1 0x40 MLOAD DUP3 PUSH4 0xFFFFFFFF AND PUSH1 0xE0 SHL DUP2 MSTORE PUSH1 0x4 ADD PUSH1 0x0 PUSH1 0x40 MLOAD DUP1 DUP4 SUB DUP2 DUP6 DUP9 DUP1 EXTCODESIZE ISZERO DUP1 ISZERO PUSH2 0x1DCE JUMPI PUSH1 0x0 DUP1 REVERT JUMPDEST POP GAS CALL ISZERO DUP1 ISZERO PUSH2 0x1DE2 JUMPI RETURNDATASIZE PUSH1 0x0 DUP1 RETURNDATACOPY RETURNDATASIZE PUSH1 0x0 REVERT JUMPDEST POP POP PUSH1 0x1 SLOAD PUSH1 0x40 MLOAD PUSH32 0xA9059CBB00000000000000000000000000000000000000000000000000000000 DUP2 MSTORE PUSH20 0xFFFFFFFFFFFFFFFFFFFFFFFFFFFFFFFFFFFFFFFF SWAP1 SWAP2 AND SWAP4 POP PUSH4 0xA9059CBB SWAP3 POP PUSH2 0x1E3F SWAP2 POP DUP5 SWAP1 DUP9 SWAP1 PUSH1 0x4 ADD PUSH2 0x4EAC JUMP JUMPDEST PUSH1 0x20 PUSH1 0x40 MLOAD DUP1 DUP4 SUB DUP2 PUSH1 0x0 DUP8 DUP1 EXTCODESIZE ISZERO DUP1 ISZERO PUSH2 0x1E59 JUMPI PUSH1 0x0 DUP1 REVERT JUMPDEST POP GAS CALL ISZERO DUP1 ISZERO PUSH2 0x1E6D JUMPI RETURNDATASIZE PUSH1 0x0 DUP1 RETURNDATACOPY RETURNDATASIZE PUSH1 0x0 REVERT JUMPDEST POP POP POP POP PUSH1 0x40 MLOAD RETURNDATASIZE PUSH1 0x1F NOT PUSH1 0x1F DUP3 ADD AND DUP3 ADD DUP1 PUSH1 0x40 MSTORE POP DUP2 ADD SWAP1 PUSH2 0x1E91 SWAP2 SWAP1 PUSH2 0x48AA JUMP JUMPDEST PUSH2 0x1E97 JUMPI INVALID JUMPDEST PUSH1 0x40 MLOAD PUSH32 0x6A62784200000000000000000000000000000000000000000000000000000000 DUP2 MSTORE PUSH20 0xFFFFFFFFFFFFFFFFFFFFFFFFFFFFFFFFFFFFFFFF DUP3 AND SWAP1 PUSH4 0x6A627842 SWAP1 PUSH2 0x1EE9 SWAP1 DUP11 SWAP1 PUSH1 0x4 ADD PUSH2 0x4DDB JUMP JUMPDEST PUSH1 0x20 PUSH1 0x40 MLOAD DUP1 DUP4 SUB DUP2 PUSH1 0x0 DUP8 DUP1 EXTCODESIZE ISZERO DUP1 ISZERO PUSH2 0x1F03 JUMPI PUSH1 0x0 DUP1 REVERT JUMPDEST POP GAS CALL ISZERO DUP1 ISZERO PUSH2 0x1F17 JUMPI RETURNDATASIZE PUSH1 0x0 DUP1 RETURNDATACOPY RETURNDATASIZE PUSH1 0x0 REVERT JUMPDEST POP POP POP POP PUSH1 0x40 MLOAD RETURNDATASIZE PUSH1 0x1F NOT PUSH1 0x1F DUP3 ADD AND DUP3 ADD DUP1 PUSH1 0x40 MSTORE POP DUP2 ADD SWAP1 PUSH2 0x1F3B SWAP2 SWAP1 PUSH2 0x48C6 JUMP JUMPDEST SWAP3 POP DUP4 CALLVALUE GT ISZERO PUSH2 0x1F51 JUMPI PUSH2 0x1F51 CALLER DUP6 CALLVALUE SUB PUSH2 0x32F5 JUMP JUMPDEST POP POP SWAP7 POP SWAP7 POP SWAP7 SWAP4 POP POP POP POP JUMP JUMPDEST PUSH1 0x2 SLOAD PUSH1 0x0 DUP1 SLOAD SWAP1 SWAP2 DUP3 SWAP2 DUP3 SWAP2 PUSH2 0x1F95 SWAP2 PUSH20 0xFFFFFFFFFFFFFFFFFFFFFFFFFFFFFFFFFFFFFFFF AND PUSH2 0x520 CALLDATASIZE DUP16 SWAP1 SUB DUP16 ADD DUP16 PUSH2 0x4A26 JUMP JUMPDEST SWAP1 POP PUSH1 0x0 DUP6 PUSH2 0x1FA4 JUMPI DUP11 PUSH2 0x1FC6 JUMP JUMPDEST PUSH32 0xFFFFFFFFFFFFFFFFFFFFFFFFFFFFFFFFFFFFFFFFFFFFFFFFFFFFFFFFFFFFFFFF JUMPDEST SWAP1 POP PUSH20 0xFFFFFFFFFFFFFFFFFFFFFFFFFFFFFFFFFFFFFFFF DUP3 AND PUSH4 0xD505ACCF CALLER ADDRESS DUP5 DUP12 PUSH2 0x1FF5 PUSH1 0x20 DUP13 ADD DUP13 PUSH2 0x4CDE JUMP JUMPDEST DUP12 PUSH1 0x20 ADD CALLDATALOAD DUP13 PUSH1 0x40 ADD CALLDATALOAD PUSH1 0x40 MLOAD DUP9 PUSH4 0xFFFFFFFF AND PUSH1 0xE0 SHL DUP2 MSTORE PUSH1 0x4 ADD PUSH2 0x2021 SWAP8 SWAP7 SWAP6 SWAP5 SWAP4 SWAP3 SWAP2 SWAP1 PUSH2 0x4DFC JUMP JUMPDEST PUSH1 0x0 PUSH1 0x40 MLOAD DUP1 DUP4 SUB DUP2 PUSH1 0x0 DUP8 DUP1 EXTCODESIZE ISZERO DUP1 ISZERO PUSH2 0x203B JUMPI PUSH1 0x0 DUP1 REVERT JUMPDEST POP GAS CALL ISZERO DUP1 ISZERO PUSH2 0x204F JUMPI RETURNDATASIZE PUSH1 0x0 DUP1 RETURNDATACOPY RETURNDATASIZE PUSH1 0x0 REVERT JUMPDEST POP POP POP POP PUSH2 0x2071 DUP13 DUP1 CALLDATASIZE SUB DUP2 ADD SWAP1 PUSH2 0x2067 SWAP2 SWAP1 PUSH2 0x4A26 JUMP JUMPDEST DUP13 DUP13 DUP13 DUP13 DUP13 PUSH2 0x2084 JUMP JUMPDEST SWAP1 SWAP14 SWAP1 SWAP13 POP SWAP11 POP POP POP POP POP POP POP POP POP POP POP JUMP JUMPDEST PUSH1 0x0 DUP1 DUP3 TIMESTAMP DUP2 LT ISZERO PUSH2 0x20C2 JUMPI PUSH1 0x40 MLOAD PUSH32 0x8C379A000000000000000000000000000000000000000000000000000000000 DUP2 MSTORE PUSH1 0x4 ADD PUSH2 0x6CA SWAP1 PUSH2 0x4F16 JUMP JUMPDEST PUSH1 0x2 SLOAD PUSH1 0x0 DUP1 SLOAD SWAP1 SWAP2 PUSH2 0x20EB SWAP2 PUSH20 0xFFFFFFFFFFFFFFFFFFFFFFFFFFFFFFFFFFFFFFFF AND DUP13 PUSH2 0x2F36 JUMP JUMPDEST PUSH1 0x40 MLOAD PUSH32 0x23B872DD00000000000000000000000000000000000000000000000000000000 DUP2 MSTORE SWAP1 SWAP2 POP PUSH20 0xFFFFFFFFFFFFFFFFFFFFFFFFFFFFFFFFFFFFFFFF DUP3 AND SWAP1 PUSH4 0x23B872DD SWAP1 PUSH2 0x2144 SWAP1 CALLER SWAP1 DUP6 SWAP1 DUP15 SWAP1 PUSH1 0x4 ADD PUSH2 0x4E4A JUMP JUMPDEST PUSH1 0x20 PUSH1 0x40 MLOAD DUP1 DUP4 SUB DUP2 PUSH1 0x0 DUP8 DUP1 EXTCODESIZE ISZERO DUP1 ISZERO PUSH2 0x215E JUMPI PUSH1 0x0 DUP1 REVERT JUMPDEST POP GAS CALL ISZERO DUP1 ISZERO PUSH2 0x2172 JUMPI RETURNDATASIZE PUSH1 0x0 DUP1 RETURNDATACOPY RETURNDATASIZE PUSH1 0x0 REVERT JUMPDEST POP POP POP POP PUSH1 0x40 MLOAD RETURNDATASIZE PUSH1 0x1F NOT PUSH1 0x1F DUP3 ADD AND DUP3 ADD DUP1 PUSH1 0x40 MSTORE POP DUP2 ADD SWAP1 PUSH2 0x2196 SWAP2 SWAP1 PUSH2 0x48AA JUMP JUMPDEST POP PUSH1 0x0 DUP1 DUP3 PUSH20 0xFFFFFFFFFFFFFFFFFFFFFFFFFFFFFFFFFFFFFFFF AND PUSH4 0x89AFCB44 DUP10 PUSH1 0x40 MLOAD DUP3 PUSH4 0xFFFFFFFF AND PUSH1 0xE0 SHL DUP2 MSTORE PUSH1 0x4 ADD PUSH2 0x21D3 SWAP2 SWAP1 PUSH2 0x4DDB JUMP JUMPDEST PUSH1 0x40 DUP1 MLOAD DUP1 DUP4 SUB DUP2 PUSH1 0x0 DUP8 DUP1 EXTCODESIZE ISZERO DUP1 ISZERO PUSH2 0x21EC JUMPI PUSH1 0x0 DUP1 REVERT JUMPDEST POP GAS CALL ISZERO DUP1 ISZERO PUSH2 0x2200 JUMPI RETURNDATASIZE PUSH1 0x0 DUP1 RETURNDATACOPY RETURNDATASIZE PUSH1 0x0 REVERT JUMPDEST POP POP POP POP PUSH1 0x40 MLOAD RETURNDATASIZE PUSH1 0x1F NOT PUSH1 0x1F DUP3 ADD AND DUP3 ADD DUP1 PUSH1 0x40 MSTORE POP DUP2 ADD SWAP1 PUSH2 0x2224 SWAP2 SWAP1 PUSH2 0x4BCD JUMP JUMPDEST SWAP2 POP SWAP2 POP PUSH1 0x0 PUSH2 0x223C DUP14 PUSH1 0x0 ADD MLOAD DUP15 PUSH1 0x20 ADD MLOAD PUSH2 0x3C3F JUMP JUMPDEST POP SWAP1 POP DUP1 PUSH20 0xFFFFFFFFFFFFFFFFFFFFFFFFFFFFFFFFFFFFFFFF AND DUP14 PUSH1 0x0 ADD MLOAD PUSH20 0xFFFFFFFFFFFFFFFFFFFFFFFFFFFFFFFFFFFFFFFF AND EQ PUSH2 0x227D JUMPI DUP2 DUP4 PUSH2 0x2280 JUMP JUMPDEST DUP3 DUP3 JUMPDEST SWAP1 SWAP8 POP SWAP6 POP DUP11 DUP8 LT ISZERO PUSH2 0x22BF JUMPI PUSH1 0x40 MLOAD PUSH32 0x8C379A000000000000000000000000000000000000000000000000000000000 DUP2 MSTORE PUSH1 0x4 ADD PUSH2 0x6CA SWAP1 PUSH2 0x5496 JUMP JUMPDEST DUP10 DUP7 LT ISZERO PUSH2 0x22F9 JUMPI PUSH1 0x40 MLOAD PUSH32 0x8C379A000000000000000000000000000000000000000000000000000000000 DUP2 MSTORE PUSH1 0x4 ADD PUSH2 0x6CA SWAP1 PUSH2 0x51FA JUMP JUMPDEST POP POP POP POP POP SWAP7 POP SWAP7 SWAP5 POP POP POP POP POP JUMP JUMPDEST PUSH1 0x60 DUP1 DUP3 MLOAD PUSH1 0x1 ADD PUSH8 0xFFFFFFFFFFFFFFFF DUP2 GT DUP1 ISZERO PUSH2 0x2327 JUMPI PUSH1 0x0 DUP1 REVERT JUMPDEST POP PUSH1 0x40 MLOAD SWAP1 DUP1 DUP3 MSTORE DUP1 PUSH1 0x20 MUL PUSH1 0x20 ADD DUP3 ADD PUSH1 0x40 MSTORE DUP1 ISZERO PUSH2 0x2351 JUMPI DUP2 PUSH1 0x20 ADD PUSH1 0x20 DUP3 MUL DUP1 CALLDATASIZE DUP4 CALLDATACOPY ADD SWAP1 POP JUMPDEST POP SWAP1 POP DUP3 PUSH1 0x0 DUP2 MLOAD DUP2 LT PUSH2 0x2361 JUMPI INVALID JUMPDEST PUSH1 0x20 MUL PUSH1 0x20 ADD ADD MLOAD PUSH1 0x0 ADD MLOAD PUSH20 0xFFFFFFFFFFFFFFFFFFFFFFFFFFFFFFFFFFFFFFFF AND PUSH4 0x313CE567 PUSH1 0x40 MLOAD DUP2 PUSH4 0xFFFFFFFF AND PUSH1 0xE0 SHL DUP2 MSTORE PUSH1 0x4 ADD PUSH1 0x20 PUSH1 0x40 MLOAD DUP1 DUP4 SUB DUP2 DUP7 DUP1 EXTCODESIZE ISZERO DUP1 ISZERO PUSH2 0x23B2 JUMPI PUSH1 0x0 DUP1 REVERT JUMPDEST POP GAS STATICCALL ISZERO DUP1 ISZERO PUSH2 0x23C6 JUMPI RETURNDATASIZE PUSH1 0x0 DUP1 RETURNDATACOPY RETURNDATASIZE PUSH1 0x0 REVERT JUMPDEST POP POP POP POP PUSH1 0x40 MLOAD RETURNDATASIZE PUSH1 0x1F NOT PUSH1 0x1F DUP3 ADD AND DUP3 ADD DUP1 PUSH1 0x40 MSTORE POP DUP2 ADD SWAP1 PUSH2 0x23EA SWAP2 SWAP1 PUSH2 0x4CFA JUMP JUMPDEST PUSH1 0xFF AND DUP2 PUSH1 0x0 DUP2 MLOAD DUP2 LT PUSH2 0x23FA JUMPI INVALID JUMPDEST PUSH1 0x20 MUL PUSH1 0x20 ADD ADD DUP2 DUP2 MSTORE POP POP PUSH1 0x0 JUMPDEST DUP4 MLOAD DUP2 LT ISZERO PUSH2 0x24CC JUMPI DUP4 DUP2 DUP2 MLOAD DUP2 LT PUSH2 0x241E JUMPI INVALID JUMPDEST PUSH1 0x20 MUL PUSH1 0x20 ADD ADD MLOAD PUSH1 0x20 ADD MLOAD PUSH20 0xFFFFFFFFFFFFFFFFFFFFFFFFFFFFFFFFFFFFFFFF AND PUSH4 0x313CE567 PUSH1 0x40 MLOAD DUP2 PUSH4 0xFFFFFFFF AND PUSH1 0xE0 SHL DUP2 MSTORE PUSH1 0x4 ADD PUSH1 0x20 PUSH1 0x40 MLOAD DUP1 DUP4 SUB DUP2 DUP7 DUP1 EXTCODESIZE ISZERO DUP1 ISZERO PUSH2 0x246F JUMPI PUSH1 0x0 DUP1 REVERT JUMPDEST POP GAS STATICCALL ISZERO DUP1 ISZERO PUSH2 0x2483 JUMPI RETURNDATASIZE PUSH1 0x0 DUP1 RETURNDATACOPY RETURNDATASIZE PUSH1 0x0 REVERT JUMPDEST POP POP POP POP PUSH1 0x40 MLOAD RETURNDATASIZE PUSH1 0x1F NOT PUSH1 0x1F DUP3 ADD AND DUP3 ADD DUP1 PUSH1 0x40 MSTORE POP DUP2 ADD SWAP1 PUSH2 0x24A7 SWAP2 SWAP1 PUSH2 0x4CFA JUMP JUMPDEST PUSH1 0xFF AND DUP3 DUP3 PUSH1 0x1 ADD DUP2 MLOAD DUP2 LT PUSH2 0x24B9 JUMPI INVALID JUMPDEST PUSH1 0x20 SWAP1 DUP2 MUL SWAP2 SWAP1 SWAP2 ADD ADD MSTORE PUSH1 0x1 ADD PUSH2 0x2409 JUMP JUMPDEST POP PUSH1 0x0 SLOAD PUSH2 0x24F2 SWAP1 PUSH20 0xFFFFFFFFFFFFFFFFFFFFFFFFFFFFFFFFFFFFFFFF AND DUP6 DUP6 DUP5 PUSH2 0x3D3E JUMP JUMPDEST SWAP2 POP POP JUMPDEST SWAP3 SWAP2 POP POP JUMP JUMPDEST PUSH1 0x0 PUSH2 0x250C DUP8 DUP8 DUP8 DUP8 DUP8 DUP8 PUSH2 0x3E9F JUMP JUMPDEST SWAP1 POP JUMPDEST SWAP7 SWAP6 POP POP POP POP POP POP JUMP JUMPDEST PUSH1 0x1 SLOAD PUSH20 0xFFFFFFFFFFFFFFFFFFFFFFFFFFFFFFFFFFFFFFFF AND DUP2 JUMP JUMPDEST PUSH1 0x0 PUSH2 0x2542 DUP5 DUP5 DUP5 PUSH2 0x4010 JUMP JUMPDEST SWAP1 POP JUMPDEST SWAP4 SWAP3 POP POP POP JUMP JUMPDEST PUSH1 0x0 SLOAD PUSH20 0xFFFFFFFFFFFFFFFFFFFFFFFFFFFFFFFFFFFFFFFF AND DUP2 JUMP JUMPDEST PUSH1 0x0 DUP2 TIMESTAMP DUP2 LT ISZERO PUSH2 0x25A5 JUMPI PUSH1 0x40 MLOAD PUSH32 0x8C379A000000000000000000000000000000000000000000000000000000000 DUP2 MSTORE PUSH1 0x4 ADD PUSH2 0x6CA SWAP1 PUSH2 0x4F16 JUMP JUMPDEST PUSH2 0x25B3 DUP9 DUP9 DUP9 DUP9 ADDRESS DUP9 PUSH2 0x2084 JUMP JUMPDEST DUP10 MLOAD PUSH1 0x40 MLOAD PUSH32 0x70A0823100000000000000000000000000000000000000000000000000000000 DUP2 MSTORE SWAP2 SWAP5 POP PUSH2 0x2667 SWAP3 POP SWAP1 DUP7 SWAP1 PUSH20 0xFFFFFFFFFFFFFFFFFFFFFFFFFFFFFFFFFFFFFFFF DUP4 AND SWAP1 PUSH4 0x70A08231 SWAP1 PUSH2 0x2612 SWAP1 ADDRESS SWAP1 PUSH1 0x4 ADD PUSH2 0x4DDB JUMP JUMPDEST PUSH1 0x20 PUSH1 0x40 MLOAD DUP1 DUP4 SUB DUP2 DUP7 DUP1 EXTCODESIZE ISZERO DUP1 ISZERO PUSH2 0x262A JUMPI PUSH1 0x0 DUP1 REVERT JUMPDEST POP GAS STATICCALL ISZERO DUP1 ISZERO PUSH2 0x263E JUMPI RETURNDATASIZE PUSH1 0x0 DUP1 RETURNDATACOPY RETURNDATASIZE PUSH1 0x0 REVERT JUMPDEST POP POP POP POP PUSH1 0x40 MLOAD RETURNDATASIZE PUSH1 0x1F NOT PUSH1 0x1F DUP3 ADD AND DUP3 ADD DUP1 PUSH1 0x40 MSTORE POP DUP2 ADD SWAP1 PUSH2 0x2662 SWAP2 SWAP1 PUSH2 0x48C6 JUMP JUMPDEST PUSH2 0x33AE JUMP JUMPDEST PUSH1 0x1 SLOAD PUSH1 0x40 MLOAD PUSH32 0x2E1A7D4D00000000000000000000000000000000000000000000000000000000 DUP2 MSTORE PUSH20 0xFFFFFFFFFFFFFFFFFFFFFFFFFFFFFFFFFFFFFFFF SWAP1 SWAP2 AND SWAP1 PUSH4 0x2E1A7D4D SWAP1 PUSH2 0x26BD SWAP1 DUP6 SWAP1 PUSH1 0x4 ADD PUSH2 0x5576 JUMP JUMPDEST PUSH1 0x0 PUSH1 0x40 MLOAD DUP1 DUP4 SUB DUP2 PUSH1 0x0 DUP8 DUP1 EXTCODESIZE ISZERO DUP1 ISZERO PUSH2 0x26D7 JUMPI PUSH1 0x0 DUP1 REVERT JUMPDEST POP GAS CALL ISZERO DUP1 ISZERO PUSH2 0x26EB JUMPI RETURNDATASIZE PUSH1 0x0 DUP1 RETURNDATACOPY RETURNDATASIZE PUSH1 0x0 REVERT JUMPDEST POP POP POP POP PUSH2 0x9E0 DUP5 DUP4 PUSH2 0x32F5 JUMP JUMPDEST PUSH1 0x60 DUP1 DUP3 MLOAD PUSH1 0x1 ADD PUSH8 0xFFFFFFFFFFFFFFFF DUP2 GT DUP1 ISZERO PUSH2 0x2717 JUMPI PUSH1 0x0 DUP1 REVERT JUMPDEST POP PUSH1 0x40 MLOAD SWAP1 DUP1 DUP3 MSTORE DUP1 PUSH1 0x20 MUL PUSH1 0x20 ADD DUP3 ADD PUSH1 0x40 MSTORE DUP1 ISZERO PUSH2 0x2741 JUMPI DUP2 PUSH1 0x20 ADD PUSH1 0x20 DUP3 MUL DUP1 CALLDATASIZE DUP4 CALLDATACOPY ADD SWAP1 POP JUMPDEST POP SWAP1 POP DUP3 PUSH1 0x0 DUP2 MLOAD DUP2 LT PUSH2 0x2751 JUMPI INVALID JUMPDEST PUSH1 0x20 MUL PUSH1 0x20 ADD ADD MLOAD PUSH1 0x0 ADD MLOAD PUSH20 0xFFFFFFFFFFFFFFFFFFFFFFFFFFFFFFFFFFFFFFFF AND PUSH4 0x313CE567 PUSH1 0x40 MLOAD DUP2 PUSH4 0xFFFFFFFF AND PUSH1 0xE0 SHL DUP2 MSTORE PUSH1 0x4 ADD PUSH1 0x20 PUSH1 0x40 MLOAD DUP1 DUP4 SUB DUP2 DUP7 DUP1 EXTCODESIZE ISZERO DUP1 ISZERO PUSH2 0x27A2 JUMPI PUSH1 0x0 DUP1 REVERT JUMPDEST POP GAS STATICCALL ISZERO DUP1 ISZERO PUSH2 0x27B6 JUMPI RETURNDATASIZE PUSH1 0x0 DUP1 RETURNDATACOPY RETURNDATASIZE PUSH1 0x0 REVERT JUMPDEST POP POP POP POP PUSH1 0x40 MLOAD RETURNDATASIZE PUSH1 0x1F NOT PUSH1 0x1F DUP3 ADD AND DUP3 ADD DUP1 PUSH1 0x40 MSTORE POP DUP2 ADD SWAP1 PUSH2 0x27DA SWAP2 SWAP1 PUSH2 0x4CFA JUMP JUMPDEST PUSH1 0xFF AND DUP2 PUSH1 0x0 DUP2 MLOAD DUP2 LT PUSH2 0x27EA JUMPI INVALID JUMPDEST PUSH1 0x20 MUL PUSH1 0x20 ADD ADD DUP2 DUP2 MSTORE POP POP PUSH1 0x0 JUMPDEST DUP4 MLOAD DUP2 LT ISZERO PUSH2 0x28BC JUMPI DUP4 DUP2 DUP2 MLOAD DUP2 LT PUSH2 0x280E JUMPI INVALID JUMPDEST PUSH1 0x20 MUL PUSH1 0x20 ADD ADD MLOAD PUSH1 0x20 ADD MLOAD PUSH20 0xFFFFFFFFFFFFFFFFFFFFFFFFFFFFFFFFFFFFFFFF AND PUSH4 0x313CE567 PUSH1 0x40 MLOAD DUP2 PUSH4 0xFFFFFFFF AND PUSH1 0xE0 SHL DUP2 MSTORE PUSH1 0x4 ADD PUSH1 0x20 PUSH1 0x40 MLOAD DUP1 DUP4 SUB DUP2 DUP7 DUP1 EXTCODESIZE ISZERO DUP1 ISZERO PUSH2 0x285F JUMPI PUSH1 0x0 DUP1 REVERT JUMPDEST POP GAS STATICCALL ISZERO DUP1 ISZERO PUSH2 0x2873 JUMPI RETURNDATASIZE PUSH1 0x0 DUP1 RETURNDATACOPY RETURNDATASIZE PUSH1 0x0 REVERT JUMPDEST POP POP POP POP PUSH1 0x40 MLOAD RETURNDATASIZE PUSH1 0x1F NOT PUSH1 0x1F DUP3 ADD AND DUP3 ADD DUP1 PUSH1 0x40 MSTORE POP DUP2 ADD SWAP1 PUSH2 0x2897 SWAP2 SWAP1 PUSH2 0x4CFA JUMP JUMPDEST PUSH1 0xFF AND DUP3 DUP3 PUSH1 0x1 ADD DUP2 MLOAD DUP2 LT PUSH2 0x28A9 JUMPI INVALID JUMPDEST PUSH1 0x20 SWAP1 DUP2 MUL SWAP2 SWAP1 SWAP2 ADD ADD MSTORE PUSH1 0x1 ADD PUSH2 0x27F9 JUMP JUMPDEST POP PUSH1 0x0 SLOAD PUSH2 0x24F2 SWAP1 PUSH20 0xFFFFFFFFFFFFFFFFFFFFFFFFFFFFFFFFFFFFFFFF AND DUP6 DUP6 DUP5 PUSH2 0x40B2 JUMP JUMPDEST PUSH1 0x60 DUP2 TIMESTAMP DUP2 LT ISZERO PUSH2 0x291F JUMPI PUSH1 0x40 MLOAD PUSH32 0x8C379A000000000000000000000000000000000000000000000000000000000 DUP2 MSTORE PUSH1 0x4 ADD PUSH2 0x6CA SWAP1 PUSH2 0x4F16 JUMP JUMPDEST PUSH1 0x1 SLOAD PUSH20 0xFFFFFFFFFFFFFFFFFFFFFFFFFFFFFFFFFFFFFFFF AND DUP7 DUP7 PUSH32 0xFFFFFFFFFFFFFFFFFFFFFFFFFFFFFFFFFFFFFFFFFFFFFFFFFFFFFFFFFFFFFFFF DUP2 ADD DUP2 DUP2 LT PUSH2 0x2966 JUMPI INVALID JUMPDEST SWAP1 POP PUSH1 0x60 MUL ADD PUSH1 0x20 ADD PUSH1 0x20 DUP2 ADD SWAP1 PUSH2 0x297E SWAP2 SWAP1 PUSH2 0x483A JUMP JUMPDEST PUSH20 0xFFFFFFFFFFFFFFFFFFFFFFFFFFFFFFFFFFFFFFFF AND EQ PUSH2 0x29CB JUMPI PUSH1 0x40 MLOAD PUSH32 0x8C379A000000000000000000000000000000000000000000000000000000000 DUP2 MSTORE PUSH1 0x4 ADD PUSH2 0x6CA SWAP1 PUSH2 0x536E JUMP JUMPDEST PUSH2 0x2A1D DUP9 DUP8 DUP8 DUP1 DUP1 PUSH1 0x20 MUL PUSH1 0x20 ADD PUSH1 0x40 MLOAD SWAP1 DUP2 ADD PUSH1 0x40 MSTORE DUP1 SWAP4 SWAP3 SWAP2 SWAP1 DUP2 DUP2 MSTORE PUSH1 0x20 ADD PUSH1 0x0 SWAP1 JUMPDEST DUP3 DUP3 LT ISZERO PUSH2 0xE16 JUMPI PUSH2 0x2A0E PUSH1 0x60 DUP4 MUL DUP7 ADD CALLDATASIZE DUP2 SWAP1 SUB DUP2 ADD SWAP1 PUSH2 0x4A26 JUMP JUMPDEST DUP2 MSTORE PUSH1 0x20 ADD SWAP1 PUSH1 0x1 ADD SWAP1 PUSH2 0x29F1 JUMP JUMPDEST SWAP2 POP DUP7 DUP3 PUSH1 0x0 DUP2 MLOAD DUP2 LT PUSH2 0x2A2D JUMPI INVALID JUMPDEST PUSH1 0x20 MUL PUSH1 0x20 ADD ADD MLOAD GT ISZERO PUSH2 0x2A6D JUMPI PUSH1 0x40 MLOAD PUSH32 0x8C379A000000000000000000000000000000000000000000000000000000000 DUP2 MSTORE PUSH1 0x4 ADD PUSH2 0x6CA SWAP1 PUSH2 0x5140 JUMP JUMPDEST PUSH2 0x2A7D DUP7 DUP7 PUSH1 0x0 DUP2 DUP2 LT PUSH2 0x83E JUMPI INVALID JUMPDEST PUSH2 0x917 DUP3 DUP8 DUP8 DUP1 DUP1 PUSH1 0x20 MUL PUSH1 0x20 ADD PUSH1 0x40 MLOAD SWAP1 DUP2 ADD PUSH1 0x40 MSTORE DUP1 SWAP4 SWAP3 SWAP2 SWAP1 DUP2 DUP2 MSTORE PUSH1 0x20 ADD PUSH1 0x0 SWAP1 JUMPDEST DUP3 DUP3 LT ISZERO PUSH2 0x90C JUMPI PUSH2 0x2AC0 PUSH1 0x60 DUP4 MUL DUP7 ADD CALLDATASIZE DUP2 SWAP1 SUB DUP2 ADD SWAP1 PUSH2 0x4A26 JUMP JUMPDEST DUP2 MSTORE PUSH1 0x20 ADD SWAP1 PUSH1 0x1 ADD SWAP1 PUSH2 0x2AA3 JUMP JUMPDEST PUSH1 0x0 PUSH2 0x250C DUP8 DUP8 DUP8 DUP8 DUP8 DUP8 PUSH2 0x4234 JUMP JUMPDEST PUSH1 0x0 DUP1 PUSH1 0x0 DUP4 TIMESTAMP DUP2 LT ISZERO PUSH2 0x2B1F JUMPI PUSH1 0x40 MLOAD PUSH32 0x8C379A000000000000000000000000000000000000000000000000000000000 DUP2 MSTORE PUSH1 0x4 ADD PUSH2 0x6CA SWAP1 PUSH2 0x4F16 JUMP JUMPDEST PUSH2 0x2B3A PUSH2 0x2B31 CALLDATASIZE DUP14 SWAP1 SUB DUP14 ADD DUP14 PUSH2 0x4A26 JUMP JUMPDEST DUP12 DUP12 DUP12 DUP12 PUSH2 0x39A9 JUMP JUMPDEST DUP1 SWAP5 POP DUP2 SWAP6 POP POP POP PUSH1 0x0 PUSH2 0x2B7D PUSH1 0x2 SLOAD PUSH1 0x0 DUP1 SWAP1 SLOAD SWAP1 PUSH2 0x100 EXP SWAP1 DIV PUSH20 0xFFFFFFFFFFFFFFFFFFFFFFFFFFFFFFFFFFFFFFFF AND DUP15 DUP1 CALLDATASIZE SUB DUP2 ADD SWAP1 PUSH2 0x520 SWAP2 SWAP1 PUSH2 0x4A26 JUMP JUMPDEST SWAP1 POP PUSH2 0x2B8F PUSH2 0x1D5C PUSH1 0x20 DUP15 ADD DUP15 PUSH2 0x483A JUMP JUMPDEST PUSH2 0x2BAA PUSH2 0x2BA2 PUSH1 0x40 DUP15 ADD PUSH1 0x20 DUP16 ADD PUSH2 0x483A JUMP JUMPDEST CALLER DUP4 DUP8 PUSH2 0x2FD4 JUMP JUMPDEST PUSH1 0x40 MLOAD PUSH32 0x6A62784200000000000000000000000000000000000000000000000000000000 DUP2 MSTORE PUSH20 0xFFFFFFFFFFFFFFFFFFFFFFFFFFFFFFFFFFFFFFFF DUP3 AND SWAP1 PUSH4 0x6A627842 SWAP1 PUSH2 0x2BFC SWAP1 DUP11 SWAP1 PUSH1 0x4 ADD PUSH2 0x4DDB JUMP JUMPDEST PUSH1 0x20 PUSH1 0x40 MLOAD DUP1 DUP4 SUB DUP2 PUSH1 0x0 DUP8 DUP1 EXTCODESIZE ISZERO DUP1 ISZERO PUSH2 0x2C16 JUMPI PUSH1 0x0 DUP1 REVERT JUMPDEST POP GAS CALL ISZERO DUP1 ISZERO PUSH2 0x2C2A JUMPI RETURNDATASIZE PUSH1 0x0 DUP1 RETURNDATACOPY RETURNDATASIZE PUSH1 0x0 REVERT JUMPDEST POP POP POP POP PUSH1 0x40 MLOAD RETURNDATASIZE PUSH1 0x1F NOT PUSH1 0x1F DUP3 ADD AND DUP3 ADD DUP1 PUSH1 0x40 MSTORE POP DUP2 ADD SWAP1 PUSH2 0x2C4E SWAP2 SWAP1 PUSH2 0x48C6 JUMP JUMPDEST SWAP3 POP POP POP SWAP8 POP SWAP8 POP SWAP8 SWAP5 POP POP POP POP POP JUMP JUMPDEST PUSH1 0x60 DUP2 TIMESTAMP DUP2 LT ISZERO PUSH2 0x2C9C JUMPI PUSH1 0x40 MLOAD PUSH32 0x8C379A000000000000000000000000000000000000000000000000000000000 DUP2 MSTORE PUSH1 0x4 ADD PUSH2 0x6CA SWAP1 PUSH2 0x4F16 JUMP JUMPDEST PUSH2 0x2CEE DUP9 DUP8 DUP8 DUP1 DUP1 PUSH1 0x20 MUL PUSH1 0x20 ADD PUSH1 0x40 MLOAD SWAP1 DUP2 ADD PUSH1 0x40 MSTORE DUP1 SWAP4 SWAP3 SWAP2 SWAP1 DUP2 DUP2 MSTORE PUSH1 0x20 ADD PUSH1 0x0 SWAP1 JUMPDEST DUP3 DUP3 LT ISZERO PUSH2 0xE16 JUMPI PUSH2 0x2CDF PUSH1 0x60 DUP4 MUL DUP7 ADD CALLDATASIZE DUP2 SWAP1 SUB DUP2 ADD SWAP1 PUSH2 0x4A26 JUMP JUMPDEST DUP2 MSTORE PUSH1 0x20 ADD SWAP1 PUSH1 0x1 ADD SWAP1 PUSH2 0x2CC2 JUMP JUMPDEST SWAP2 POP DUP7 DUP3 PUSH1 0x0 DUP2 MLOAD DUP2 LT PUSH2 0x2CFE JUMPI INVALID JUMPDEST PUSH1 0x20 MUL PUSH1 0x20 ADD ADD MLOAD GT ISZERO PUSH2 0x2D3E JUMPI PUSH1 0x40 MLOAD PUSH32 0x8C379A000000000000000000000000000000000000000000000000000000000 DUP2 MSTORE PUSH1 0x4 ADD PUSH2 0x6CA SWAP1 PUSH2 0x5140 JUMP JUMPDEST PUSH2 0x2D4E DUP7 DUP7 PUSH1 0x0 DUP2 DUP2 LT PUSH2 0x83E JUMPI INVALID JUMPDEST PUSH2 0x9E0 DUP3 DUP8 DUP8 DUP1 DUP1 PUSH1 0x20 MUL PUSH1 0x20 ADD PUSH1 0x40 MLOAD SWAP1 DUP2 ADD PUSH1 0x40 MSTORE DUP1 SWAP4 SWAP3 SWAP2 SWAP1 DUP2 DUP2 MSTORE PUSH1 0x20 ADD PUSH1 0x0 SWAP1 JUMPDEST DUP3 DUP3 LT ISZERO PUSH2 0x1005 JUMPI PUSH2 0x2D91 PUSH1 0x60 DUP4 MUL DUP7 ADD CALLDATASIZE DUP2 SWAP1 SUB DUP2 ADD SWAP1 PUSH2 0x4A26 JUMP JUMPDEST DUP2 MSTORE PUSH1 0x20 ADD SWAP1 PUSH1 0x1 ADD SWAP1 PUSH2 0x2D74 JUMP JUMPDEST PUSH1 0x60 DUP2 TIMESTAMP DUP2 LT ISZERO PUSH2 0x2DDD JUMPI PUSH1 0x40 MLOAD PUSH32 0x8C379A000000000000000000000000000000000000000000000000000000000 DUP2 MSTORE PUSH1 0x4 ADD PUSH2 0x6CA SWAP1 PUSH2 0x4F16 JUMP JUMPDEST PUSH2 0x2E2F DUP9 DUP8 DUP8 DUP1 DUP1 PUSH1 0x20 MUL PUSH1 0x20 ADD PUSH1 0x40 MLOAD SWAP1 DUP2 ADD PUSH1 0x40 MSTORE DUP1 SWAP4 SWAP3 SWAP2 SWAP1 DUP2 DUP2 MSTORE PUSH1 0x20 ADD PUSH1 0x0 SWAP1 JUMPDEST DUP3 DUP3 LT ISZERO PUSH2 0x7D1 JUMPI PUSH2 0x2E20 PUSH1 0x60 DUP4 MUL DUP7 ADD CALLDATASIZE DUP2 SWAP1 SUB DUP2 ADD SWAP1 PUSH2 0x4A26 JUMP JUMPDEST DUP2 MSTORE PUSH1 0x20 ADD SWAP1 PUSH1 0x1 ADD SWAP1 PUSH2 0x2E03 JUMP JUMPDEST SWAP2 POP DUP7 DUP3 PUSH1 0x1 DUP5 MLOAD SUB DUP2 MLOAD DUP2 LT PUSH2 0x2E42 JUMPI INVALID JUMPDEST PUSH1 0x20 MUL PUSH1 0x20 ADD ADD MLOAD LT ISZERO PUSH2 0x2E82 JUMPI PUSH1 0x40 MLOAD PUSH32 0x8C379A000000000000000000000000000000000000000000000000000000000 DUP2 MSTORE PUSH1 0x4 ADD PUSH2 0x6CA SWAP1 PUSH2 0x53DC JUMP JUMPDEST PUSH2 0x2EE4 DUP7 DUP7 PUSH1 0x0 DUP2 DUP2 LT PUSH2 0x2E92 JUMPI INVALID JUMPDEST PUSH2 0x2EA8 SWAP3 PUSH1 0x20 PUSH1 0x60 SWAP1 SWAP3 MUL ADD SWAP1 DUP2 ADD SWAP2 POP PUSH2 0x483A JUMP JUMPDEST CALLER PUSH2 0x2EDE PUSH1 0x2 SLOAD PUSH1 0x0 DUP1 SWAP1 SLOAD SWAP1 PUSH2 0x100 EXP SWAP1 DIV PUSH20 0xFFFFFFFFFFFFFFFFFFFFFFFFFFFFFFFFFFFFFFFF AND DUP12 DUP12 PUSH1 0x0 DUP2 DUP2 LT PUSH2 0x88A JUMPI INVALID JUMPDEST DUP12 PUSH2 0x2FD4 JUMP JUMPDEST PUSH2 0x9E0 DUP3 DUP8 DUP8 DUP1 DUP1 PUSH1 0x20 MUL PUSH1 0x20 ADD PUSH1 0x40 MLOAD SWAP1 DUP2 ADD PUSH1 0x40 MSTORE DUP1 SWAP4 SWAP3 SWAP2 SWAP1 DUP2 DUP2 MSTORE PUSH1 0x20 ADD PUSH1 0x0 SWAP1 JUMPDEST DUP3 DUP3 LT ISZERO PUSH2 0x1005 JUMPI PUSH2 0x2F27 PUSH1 0x60 DUP4 MUL DUP7 ADD CALLDATASIZE DUP2 SWAP1 SUB DUP2 ADD SWAP1 PUSH2 0x4A26 JUMP JUMPDEST DUP2 MSTORE PUSH1 0x20 ADD SWAP1 PUSH1 0x1 ADD SWAP1 PUSH2 0x2F0A JUMP JUMPDEST PUSH1 0x0 DUP1 PUSH1 0x0 PUSH2 0x2F4D DUP5 PUSH1 0x0 ADD MLOAD DUP6 PUSH1 0x20 ADD MLOAD PUSH2 0x3C3F JUMP JUMPDEST SWAP2 POP SWAP2 POP DUP5 DUP3 DUP3 DUP7 PUSH1 0x40 ADD MLOAD PUSH1 0x40 MLOAD PUSH1 0x20 ADD PUSH2 0x2F6B SWAP4 SWAP3 SWAP2 SWAP1 PUSH2 0x4D16 JUMP JUMPDEST PUSH1 0x40 MLOAD PUSH1 0x20 DUP2 DUP4 SUB SUB DUP2 MSTORE SWAP1 PUSH1 0x40 MSTORE DUP1 MLOAD SWAP1 PUSH1 0x20 ADD KECCAK256 DUP8 PUSH1 0x40 MLOAD PUSH1 0x20 ADD PUSH2 0x2F94 SWAP4 SWAP3 SWAP2 SWAP1 PUSH2 0x4D78 JUMP JUMPDEST PUSH1 0x40 DUP1 MLOAD PUSH32 0xFFFFFFFFFFFFFFFFFFFFFFFFFFFFFFFFFFFFFFFFFFFFFFFFFFFFFFFFFFFFFFE0 DUP2 DUP5 SUB ADD DUP2 MSTORE SWAP2 SWAP1 MSTORE DUP1 MLOAD PUSH1 0x20 SWAP1 SWAP2 ADD KECCAK256 SWAP7 SWAP6 POP POP POP POP POP POP JUMP JUMPDEST PUSH1 0x0 PUSH1 0x60 DUP6 PUSH20 0xFFFFFFFFFFFFFFFFFFFFFFFFFFFFFFFFFFFFFFFF AND PUSH4 0x23B872DD DUP7 DUP7 DUP7 PUSH1 0x40 MLOAD PUSH1 0x24 ADD PUSH2 0x3009 SWAP4 SWAP3 SWAP2 SWAP1 PUSH2 0x4E4A JUMP JUMPDEST PUSH1 0x40 MLOAD PUSH1 0x20 DUP2 DUP4 SUB SUB DUP2 MSTORE SWAP1 PUSH1 0x40 MSTORE SWAP1 PUSH1 0xE0 SHL PUSH1 0x20 DUP3 ADD DUP1 MLOAD PUSH28 0xFFFFFFFFFFFFFFFFFFFFFFFFFFFFFFFFFFFFFFFFFFFFFFFFFFFFFFFF DUP4 DUP2 DUP4 AND OR DUP4 MSTORE POP POP POP POP PUSH1 0x40 MLOAD PUSH2 0x3057 SWAP2 SWAP1 PUSH2 0x4D5C JUMP JUMPDEST PUSH1 0x0 PUSH1 0x40 MLOAD DUP1 DUP4 SUB DUP2 PUSH1 0x0 DUP7 GAS CALL SWAP2 POP POP RETURNDATASIZE DUP1 PUSH1 0x0 DUP2 EQ PUSH2 0x3094 JUMPI PUSH1 0x40 MLOAD SWAP2 POP PUSH1 0x1F NOT PUSH1 0x3F RETURNDATASIZE ADD AND DUP3 ADD PUSH1 0x40 MSTORE RETURNDATASIZE DUP3 MSTORE RETURNDATASIZE PUSH1 0x0 PUSH1 0x20 DUP5 ADD RETURNDATACOPY PUSH2 0x3099 JUMP JUMPDEST PUSH1 0x60 SWAP2 POP JUMPDEST POP SWAP2 POP SWAP2 POP DUP2 DUP1 ISZERO PUSH2 0x30C3 JUMPI POP DUP1 MLOAD ISZERO DUP1 PUSH2 0x30C3 JUMPI POP DUP1 DUP1 PUSH1 0x20 ADD SWAP1 MLOAD DUP2 ADD SWAP1 PUSH2 0x30C3 SWAP2 SWAP1 PUSH2 0x48AA JUMP JUMPDEST PUSH2 0x30F9 JUMPI PUSH1 0x40 MLOAD PUSH32 0x8C379A000000000000000000000000000000000000000000000000000000000 DUP2 MSTORE PUSH1 0x4 ADD PUSH2 0x6CA SWAP1 PUSH2 0x5029 JUMP JUMPDEST POP POP POP POP POP POP JUMP JUMPDEST PUSH1 0x0 JUMPDEST PUSH1 0x1 DUP4 MLOAD SUB DUP2 LT ISZERO PUSH2 0x32EF JUMPI PUSH1 0x0 DUP1 DUP5 DUP4 DUP2 MLOAD DUP2 LT PUSH2 0x311F JUMPI INVALID JUMPDEST PUSH1 0x20 MUL PUSH1 0x20 ADD ADD MLOAD PUSH1 0x0 ADD MLOAD DUP6 DUP5 DUP2 MLOAD DUP2 LT PUSH2 0x3137 JUMPI INVALID JUMPDEST PUSH1 0x20 MUL PUSH1 0x20 ADD ADD MLOAD PUSH1 0x20 ADD MLOAD SWAP2 POP SWAP2 POP PUSH1 0x0 PUSH2 0x3153 DUP4 DUP4 PUSH2 0x3C3F JUMP JUMPDEST POP SWAP1 POP PUSH1 0x0 DUP8 DUP6 PUSH1 0x1 ADD DUP2 MLOAD DUP2 LT PUSH2 0x3167 JUMPI INVALID JUMPDEST PUSH1 0x20 MUL PUSH1 0x20 ADD ADD MLOAD SWAP1 POP PUSH1 0x0 DUP1 DUP4 PUSH20 0xFFFFFFFFFFFFFFFFFFFFFFFFFFFFFFFFFFFFFFFF AND DUP7 PUSH20 0xFFFFFFFFFFFFFFFFFFFFFFFFFFFFFFFFFFFFFFFF AND EQ PUSH2 0x31AF JUMPI DUP3 PUSH1 0x0 PUSH2 0x31B3 JUMP JUMPDEST PUSH1 0x0 DUP4 JUMPDEST SWAP2 POP SWAP2 POP PUSH1 0x0 PUSH1 0x1 DUP11 MLOAD SUB DUP9 LT PUSH2 0x31CA JUMPI DUP9 PUSH2 0x320A JUMP JUMPDEST PUSH1 0x2 SLOAD PUSH1 0x0 SLOAD DUP12 MLOAD PUSH2 0x320A SWAP3 SWAP2 PUSH20 0xFFFFFFFFFFFFFFFFFFFFFFFFFFFFFFFFFFFFFFFF AND SWAP1 DUP14 SWAP1 PUSH1 0x1 DUP14 ADD SWAP1 DUP2 LT PUSH2 0x31FD JUMPI INVALID JUMPDEST PUSH1 0x20 MUL PUSH1 0x20 ADD ADD MLOAD PUSH2 0x2F36 JUMP JUMPDEST SWAP1 POP PUSH2 0x3240 PUSH1 0x2 SLOAD PUSH1 0x0 DUP1 SWAP1 SLOAD SWAP1 PUSH2 0x100 EXP SWAP1 DIV PUSH20 0xFFFFFFFFFFFFFFFFFFFFFFFFFFFFFFFFFFFFFFFF AND DUP13 DUP12 DUP2 MLOAD DUP2 LT PUSH2 0x31FD JUMPI INVALID JUMPDEST PUSH20 0xFFFFFFFFFFFFFFFFFFFFFFFFFFFFFFFFFFFFFFFF AND PUSH4 0x22C0D9F DUP5 DUP5 DUP5 PUSH1 0x0 PUSH1 0x40 MLOAD SWAP1 DUP1 DUP3 MSTORE DUP1 PUSH1 0x1F ADD PUSH1 0x1F NOT AND PUSH1 0x20 ADD DUP3 ADD PUSH1 0x40 MSTORE DUP1 ISZERO PUSH2 0x328A JUMPI PUSH1 0x20 DUP3 ADD DUP2 DUP1 CALLDATASIZE DUP4 CALLDATACOPY ADD SWAP1 POP JUMPDEST POP PUSH1 0x40 MLOAD DUP6 PUSH4 0xFFFFFFFF AND PUSH1 0xE0 SHL DUP2 MSTORE PUSH1 0x4 ADD PUSH2 0x32AA SWAP5 SWAP4 SWAP3 SWAP2 SWAP1 PUSH2 0x558D JUMP JUMPDEST PUSH1 0x0 PUSH1 0x40 MLOAD DUP1 DUP4 SUB DUP2 PUSH1 0x0 DUP8 DUP1 EXTCODESIZE ISZERO DUP1 ISZERO PUSH2 0x32C4 JUMPI PUSH1 0x0 DUP1 REVERT JUMPDEST POP GAS CALL ISZERO DUP1 ISZERO PUSH2 0x32D8 JUMPI RETURNDATASIZE PUSH1 0x0 DUP1 RETURNDATACOPY RETURNDATASIZE PUSH1 0x0 REVERT JUMPDEST POP POP PUSH1 0x1 SWAP1 SWAP10 ADD SWAP9 POP PUSH2 0x3104 SWAP8 POP POP POP POP POP POP POP POP JUMP JUMPDEST POP POP POP POP JUMP JUMPDEST PUSH1 0x40 DUP1 MLOAD PUSH1 0x0 DUP1 DUP3 MSTORE PUSH1 0x20 DUP3 ADD SWAP1 SWAP3 MSTORE PUSH20 0xFFFFFFFFFFFFFFFFFFFFFFFFFFFFFFFFFFFFFFFF DUP5 AND SWAP1 DUP4 SWAP1 PUSH1 0x40 MLOAD PUSH2 0x332C SWAP2 SWAP1 PUSH2 0x4D5C JUMP JUMPDEST PUSH1 0x0 PUSH1 0x40 MLOAD DUP1 DUP4 SUB DUP2 DUP6 DUP8 GAS CALL SWAP3 POP POP POP RETURNDATASIZE DUP1 PUSH1 0x0 DUP2 EQ PUSH2 0x3369 JUMPI PUSH1 0x40 MLOAD SWAP2 POP PUSH1 0x1F NOT PUSH1 0x3F RETURNDATASIZE ADD AND DUP3 ADD PUSH1 0x40 MSTORE RETURNDATASIZE DUP3 MSTORE RETURNDATASIZE PUSH1 0x0 PUSH1 0x20 DUP5 ADD RETURNDATACOPY PUSH2 0x336E JUMP JUMPDEST PUSH1 0x60 SWAP2 POP JUMPDEST POP POP SWAP1 POP DUP1 PUSH2 0x33A9 JUMPI PUSH1 0x40 MLOAD PUSH32 0x8C379A000000000000000000000000000000000000000000000000000000000 DUP2 MSTORE PUSH1 0x4 ADD PUSH2 0x6CA SWAP1 PUSH2 0x5086 JUMP JUMPDEST POP POP POP JUMP JUMPDEST PUSH1 0x0 PUSH1 0x60 DUP5 PUSH20 0xFFFFFFFFFFFFFFFFFFFFFFFFFFFFFFFFFFFFFFFF AND PUSH4 0xA9059CBB DUP6 DUP6 PUSH1 0x40 MLOAD PUSH1 0x24 ADD PUSH2 0x33E1 SWAP3 SWAP2 SWAP1 PUSH2 0x4EAC JUMP JUMPDEST PUSH1 0x40 MLOAD PUSH1 0x20 DUP2 DUP4 SUB SUB DUP2 MSTORE SWAP1 PUSH1 0x40 MSTORE SWAP1 PUSH1 0xE0 SHL PUSH1 0x20 DUP3 ADD DUP1 MLOAD PUSH28 0xFFFFFFFFFFFFFFFFFFFFFFFFFFFFFFFFFFFFFFFFFFFFFFFFFFFFFFFF DUP4 DUP2 DUP4 AND OR DUP4 MSTORE POP POP POP POP PUSH1 0x40 MLOAD PUSH2 0x342F SWAP2 SWAP1 PUSH2 0x4D5C JUMP JUMPDEST PUSH1 0x0 PUSH1 0x40 MLOAD DUP1 DUP4 SUB DUP2 PUSH1 0x0 DUP7 GAS CALL SWAP2 POP POP RETURNDATASIZE DUP1 PUSH1 0x0 DUP2 EQ PUSH2 0x346C JUMPI PUSH1 0x40 MLOAD SWAP2 POP PUSH1 0x1F NOT PUSH1 0x3F RETURNDATASIZE ADD AND DUP3 ADD PUSH1 0x40 MSTORE RETURNDATASIZE DUP3 MSTORE RETURNDATASIZE PUSH1 0x0 PUSH1 0x20 DUP5 ADD RETURNDATACOPY PUSH2 0x3471 JUMP JUMPDEST PUSH1 0x60 SWAP2 POP JUMPDEST POP SWAP2 POP SWAP2 POP DUP2 DUP1 ISZERO PUSH2 0x349B JUMPI POP DUP1 MLOAD ISZERO DUP1 PUSH2 0x349B JUMPI POP DUP1 DUP1 PUSH1 0x20 ADD SWAP1 MLOAD DUP2 ADD SWAP1 PUSH2 0x349B SWAP2 SWAP1 PUSH2 0x48AA JUMP JUMPDEST PUSH2 0x34D1 JUMPI PUSH1 0x40 MLOAD PUSH32 0x8C379A000000000000000000000000000000000000000000000000000000000 DUP2 MSTORE PUSH1 0x4 ADD PUSH2 0x6CA SWAP1 PUSH2 0x5439 JUMP JUMPDEST POP POP POP POP POP JUMP JUMPDEST PUSH1 0x0 JUMPDEST DUP3 MLOAD DUP2 LT ISZERO PUSH2 0x33A9 JUMPI PUSH1 0x0 PUSH2 0x351E DUP5 DUP4 DUP2 MLOAD DUP2 LT PUSH2 0x34F5 JUMPI INVALID JUMPDEST PUSH1 0x20 MUL PUSH1 0x20 ADD ADD MLOAD PUSH1 0x0 ADD MLOAD DUP6 DUP5 DUP2 MLOAD DUP2 LT PUSH2 0x350D JUMPI INVALID JUMPDEST PUSH1 0x20 MUL PUSH1 0x20 ADD ADD MLOAD PUSH1 0x20 ADD MLOAD PUSH2 0x3C3F JUMP JUMPDEST POP SWAP1 POP PUSH1 0x0 PUSH2 0x3557 PUSH1 0x2 SLOAD PUSH1 0x0 DUP1 SWAP1 SLOAD SWAP1 PUSH2 0x100 EXP SWAP1 DIV PUSH20 0xFFFFFFFFFFFFFFFFFFFFFFFFFFFFFFFFFFFFFFFF AND DUP8 DUP7 DUP2 MLOAD DUP2 LT PUSH2 0x31FD JUMPI INVALID JUMPDEST SWAP1 POP PUSH1 0x0 DUP1 PUSH1 0x0 DUP1 PUSH1 0x0 DUP1 DUP7 PUSH20 0xFFFFFFFFFFFFFFFFFFFFFFFFFFFFFFFFFFFFFFFF AND PUSH4 0x902F1AC PUSH1 0x40 MLOAD DUP2 PUSH4 0xFFFFFFFF AND PUSH1 0xE0 SHL DUP2 MSTORE PUSH1 0x4 ADD PUSH1 0x60 PUSH1 0x40 MLOAD DUP1 DUP4 SUB DUP2 DUP7 DUP1 EXTCODESIZE ISZERO DUP1 ISZERO PUSH2 0x35A8 JUMPI PUSH1 0x0 DUP1 REVERT JUMPDEST POP GAS STATICCALL ISZERO DUP1 ISZERO PUSH2 0x35BC JUMPI RETURNDATASIZE PUSH1 0x0 DUP1 RETURNDATACOPY RETURNDATASIZE PUSH1 0x0 REVERT JUMPDEST POP POP POP POP PUSH1 0x40 MLOAD RETURNDATASIZE PUSH1 0x1F NOT PUSH1 0x1F DUP3 ADD AND DUP3 ADD DUP1 PUSH1 0x40 MSTORE POP DUP2 ADD SWAP1 PUSH2 0x35E0 SWAP2 SWAP1 PUSH2 0x4A64 JUMP JUMPDEST POP PUSH14 0xFFFFFFFFFFFFFFFFFFFFFFFFFFFF AND SWAP2 POP PUSH14 0xFFFFFFFFFFFFFFFFFFFFFFFFFFFF AND SWAP2 POP DUP8 PUSH20 0xFFFFFFFFFFFFFFFFFFFFFFFFFFFFFFFFFFFFFFFF AND DUP12 DUP11 DUP2 MLOAD DUP2 LT PUSH2 0x3628 JUMPI INVALID JUMPDEST PUSH1 0x20 MUL PUSH1 0x20 ADD ADD MLOAD PUSH1 0x0 ADD MLOAD PUSH20 0xFFFFFFFFFFFFFFFFFFFFFFFFFFFFFFFFFFFFFFFF AND EQ PUSH2 0x3656 JUMPI DUP1 DUP3 PUSH2 0x3659 JUMP JUMPDEST DUP2 DUP2 JUMPDEST DUP1 SWAP5 POP DUP2 SWAP6 POP POP POP PUSH2 0x36B5 DUP5 DUP13 DUP12 DUP2 MLOAD DUP2 LT PUSH2 0x3671 JUMPI INVALID JUMPDEST PUSH1 0x20 MUL PUSH1 0x20 ADD ADD MLOAD PUSH1 0x0 ADD MLOAD PUSH20 0xFFFFFFFFFFFFFFFFFFFFFFFFFFFFFFFFFFFFFFFF AND PUSH4 0x70A08231 DUP11 PUSH1 0x40 MLOAD DUP3 PUSH4 0xFFFFFFFF AND PUSH1 0xE0 SHL DUP2 MSTORE PUSH1 0x4 ADD PUSH2 0x15A2 SWAP2 SWAP1 PUSH2 0x4DDB JUMP JUMPDEST SWAP6 POP POP POP PUSH1 0x0 DUP10 DUP9 DUP2 MLOAD DUP2 LT PUSH2 0x36C7 JUMPI INVALID JUMPDEST PUSH1 0x20 MUL PUSH1 0x20 ADD ADD MLOAD PUSH1 0x0 ADD MLOAD PUSH20 0xFFFFFFFFFFFFFFFFFFFFFFFFFFFFFFFFFFFFFFFF AND PUSH4 0x313CE567 PUSH1 0x40 MLOAD DUP2 PUSH4 0xFFFFFFFF AND PUSH1 0xE0 SHL DUP2 MSTORE PUSH1 0x4 ADD PUSH1 0x20 PUSH1 0x40 MLOAD DUP1 DUP4 SUB DUP2 DUP7 DUP1 EXTCODESIZE ISZERO DUP1 ISZERO PUSH2 0x3718 JUMPI PUSH1 0x0 DUP1 REVERT JUMPDEST POP GAS STATICCALL ISZERO DUP1 ISZERO PUSH2 0x372C JUMPI RETURNDATASIZE PUSH1 0x0 DUP1 RETURNDATACOPY RETURNDATASIZE PUSH1 0x0 REVERT JUMPDEST POP POP POP POP PUSH1 0x40 MLOAD RETURNDATASIZE PUSH1 0x1F NOT PUSH1 0x1F DUP3 ADD AND DUP3 ADD DUP1 PUSH1 0x40 MSTORE POP DUP2 ADD SWAP1 PUSH2 0x3750 SWAP2 SWAP1 PUSH2 0x4CFA JUMP JUMPDEST PUSH1 0xFF AND SWAP1 POP PUSH1 0x0 DUP11 DUP10 DUP2 MLOAD DUP2 LT PUSH2 0x3763 JUMPI INVALID JUMPDEST PUSH1 0x20 MUL PUSH1 0x20 ADD ADD MLOAD PUSH1 0x20 ADD MLOAD PUSH20 0xFFFFFFFFFFFFFFFFFFFFFFFFFFFFFFFFFFFFFFFF AND PUSH4 0x313CE567 PUSH1 0x40 MLOAD DUP2 PUSH4 0xFFFFFFFF AND PUSH1 0xE0 SHL DUP2 MSTORE PUSH1 0x4 ADD PUSH1 0x20 PUSH1 0x40 MLOAD DUP1 DUP4 SUB DUP2 DUP7 DUP1 EXTCODESIZE ISZERO DUP1 ISZERO PUSH2 0x37B4 JUMPI PUSH1 0x0 DUP1 REVERT JUMPDEST POP GAS STATICCALL ISZERO DUP1 ISZERO PUSH2 0x37C8 JUMPI RETURNDATASIZE PUSH1 0x0 DUP1 RETURNDATACOPY RETURNDATASIZE PUSH1 0x0 REVERT JUMPDEST POP POP POP POP PUSH1 0x40 MLOAD RETURNDATASIZE PUSH1 0x1F NOT PUSH1 0x1F DUP3 ADD AND DUP3 ADD DUP1 PUSH1 0x40 MSTORE POP DUP2 ADD SWAP1 PUSH2 0x37EC SWAP2 SWAP1 PUSH2 0x4CFA JUMP JUMPDEST PUSH1 0xFF AND SWAP1 POP PUSH2 0x3816 DUP7 DUP6 DUP6 DUP15 DUP14 DUP2 MLOAD DUP2 LT PUSH2 0x3803 JUMPI INVALID JUMPDEST PUSH1 0x20 MUL PUSH1 0x20 ADD ADD MLOAD PUSH1 0x40 ADD MLOAD DUP7 DUP7 PUSH2 0x2ACF JUMP JUMPDEST SWAP5 POP POP POP PUSH1 0x0 DUP1 DUP8 PUSH20 0xFFFFFFFFFFFFFFFFFFFFFFFFFFFFFFFFFFFFFFFF AND DUP12 DUP11 DUP2 MLOAD DUP2 LT PUSH2 0x3840 JUMPI INVALID JUMPDEST PUSH1 0x20 MUL PUSH1 0x20 ADD ADD MLOAD PUSH1 0x0 ADD MLOAD PUSH20 0xFFFFFFFFFFFFFFFFFFFFFFFFFFFFFFFFFFFFFFFF AND EQ PUSH2 0x386F JUMPI DUP5 PUSH1 0x0 PUSH2 0x3873 JUMP JUMPDEST PUSH1 0x0 DUP6 JUMPDEST SWAP2 POP SWAP2 POP PUSH1 0x0 PUSH1 0x1 DUP13 MLOAD SUB DUP11 LT PUSH2 0x388A JUMPI DUP11 PUSH2 0x38BD JUMP JUMPDEST PUSH1 0x2 SLOAD PUSH1 0x0 SLOAD DUP14 MLOAD PUSH2 0x38BD SWAP3 SWAP2 PUSH20 0xFFFFFFFFFFFFFFFFFFFFFFFFFFFFFFFFFFFFFFFF AND SWAP1 DUP16 SWAP1 PUSH1 0x1 DUP16 ADD SWAP1 DUP2 LT PUSH2 0x31FD JUMPI INVALID JUMPDEST PUSH1 0x40 DUP1 MLOAD PUSH1 0x0 DUP2 MSTORE PUSH1 0x20 DUP2 ADD SWAP2 DUP3 SWAP1 MSTORE PUSH32 0x22C0D9F00000000000000000000000000000000000000000000000000000000 SWAP1 SWAP2 MSTORE SWAP1 SWAP2 POP PUSH20 0xFFFFFFFFFFFFFFFFFFFFFFFFFFFFFFFFFFFFFFFF DUP10 AND SWAP1 PUSH4 0x22C0D9F SWAP1 PUSH2 0x3925 SWAP1 DUP7 SWAP1 DUP7 SWAP1 DUP7 SWAP1 PUSH1 0x24 DUP2 ADD PUSH2 0x558D JUMP JUMPDEST PUSH1 0x0 PUSH1 0x40 MLOAD DUP1 DUP4 SUB DUP2 PUSH1 0x0 DUP8 DUP1 EXTCODESIZE ISZERO DUP1 ISZERO PUSH2 0x393F JUMPI PUSH1 0x0 DUP1 REVERT JUMPDEST POP GAS CALL ISZERO DUP1 ISZERO PUSH2 0x3953 JUMPI RETURNDATASIZE PUSH1 0x0 DUP1 RETURNDATACOPY RETURNDATASIZE PUSH1 0x0 REVERT JUMPDEST POP POP PUSH1 0x1 SWAP1 SWAP12 ADD SWAP11 POP PUSH2 0x34DB SWAP10 POP POP POP POP POP POP POP POP POP POP JUMP JUMPDEST DUP1 DUP3 SUB DUP3 DUP2 GT ISZERO PUSH2 0x24F6 JUMPI PUSH1 0x40 MLOAD PUSH32 0x8C379A000000000000000000000000000000000000000000000000000000000 DUP2 MSTORE PUSH1 0x4 ADD PUSH2 0x6CA SWAP1 PUSH2 0x4F84 JUMP JUMPDEST PUSH1 0x0 DUP1 SLOAD DUP7 MLOAD PUSH1 0x20 DUP9 ADD MLOAD PUSH1 0x40 DUP1 DUP11 ADD MLOAD SWAP1 MLOAD PUSH32 0x6801CC3000000000000000000000000000000000000000000000000000000000 DUP2 MSTORE DUP6 SWAP5 DUP6 SWAP5 PUSH20 0xFFFFFFFFFFFFFFFFFFFFFFFFFFFFFFFFFFFFFFFF SWAP1 SWAP2 AND SWAP4 PUSH4 0x6801CC30 SWAP4 PUSH2 0x3A0E SWAP4 PUSH1 0x4 ADD PUSH2 0x4E7B JUMP JUMPDEST PUSH1 0x20 PUSH1 0x40 MLOAD DUP1 DUP4 SUB DUP2 DUP7 DUP1 EXTCODESIZE ISZERO DUP1 ISZERO PUSH2 0x3A26 JUMPI PUSH1 0x0 DUP1 REVERT JUMPDEST POP GAS STATICCALL ISZERO DUP1 ISZERO PUSH2 0x3A3A JUMPI RETURNDATASIZE PUSH1 0x0 DUP1 RETURNDATACOPY RETURNDATASIZE PUSH1 0x0 REVERT JUMPDEST POP POP POP POP PUSH1 0x40 MLOAD RETURNDATASIZE PUSH1 0x1F NOT PUSH1 0x1F DUP3 ADD AND DUP3 ADD DUP1 PUSH1 0x40 MSTORE POP DUP2 ADD SWAP1 PUSH2 0x3A5E SWAP2 SWAP1 PUSH2 0x4856 JUMP JUMPDEST SWAP1 POP PUSH20 0xFFFFFFFFFFFFFFFFFFFFFFFFFFFFFFFFFFFFFFFF DUP2 AND PUSH2 0x3B34 JUMPI PUSH1 0x0 SLOAD DUP9 MLOAD PUSH1 0x20 DUP11 ADD MLOAD PUSH1 0x40 DUP1 DUP13 ADD MLOAD SWAP1 MLOAD PUSH32 0x82DFDCE400000000000000000000000000000000000000000000000000000000 DUP2 MSTORE PUSH20 0xFFFFFFFFFFFFFFFFFFFFFFFFFFFFFFFFFFFFFFFF SWAP1 SWAP5 AND SWAP4 PUSH4 0x82DFDCE4 SWAP4 PUSH2 0x3ADF SWAP4 SWAP1 SWAP3 SWAP1 SWAP2 PUSH1 0x4 ADD PUSH2 0x4E7B JUMP JUMPDEST PUSH1 0x20 PUSH1 0x40 MLOAD DUP1 DUP4 SUB DUP2 PUSH1 0x0 DUP8 DUP1 EXTCODESIZE ISZERO DUP1 ISZERO PUSH2 0x3AF9 JUMPI PUSH1 0x0 DUP1 REVERT JUMPDEST POP GAS CALL ISZERO DUP1 ISZERO PUSH2 0x3B0D JUMPI RETURNDATASIZE PUSH1 0x0 DUP1 RETURNDATACOPY RETURNDATASIZE PUSH1 0x0 REVERT JUMPDEST POP POP POP POP PUSH1 0x40 MLOAD RETURNDATASIZE PUSH1 0x1F NOT PUSH1 0x1F DUP3 ADD AND DUP3 ADD DUP1 PUSH1 0x40 MSTORE POP DUP2 ADD SWAP1 PUSH2 0x3B31 SWAP2 SWAP1 PUSH2 0x4856 JUMP JUMPDEST SWAP1 POP JUMPDEST PUSH1 0x0 DUP1 SLOAD DUP2 SWAP1 PUSH2 0x3B5A SWAP1 PUSH20 0xFFFFFFFFFFFFFFFFFFFFFFFFFFFFFFFFFFFFFFFF AND DUP12 PUSH2 0x43A0 JUMP JUMPDEST SWAP2 POP SWAP2 POP DUP2 PUSH1 0x0 EQ DUP1 ISZERO PUSH2 0x3B6C JUMPI POP DUP1 ISZERO JUMPDEST ISZERO PUSH2 0x3B7C JUMPI DUP9 SWAP5 POP DUP8 SWAP4 POP PUSH2 0x3C32 JUMP JUMPDEST PUSH1 0x0 PUSH2 0x3B89 DUP11 DUP5 DUP5 PUSH2 0x4010 JUMP JUMPDEST SWAP1 POP DUP9 DUP2 GT PUSH2 0x3BD7 JUMPI DUP7 DUP2 LT ISZERO PUSH2 0x3BCC JUMPI PUSH1 0x40 MLOAD PUSH32 0x8C379A000000000000000000000000000000000000000000000000000000000 DUP2 MSTORE PUSH1 0x4 ADD PUSH2 0x6CA SWAP1 PUSH2 0x51FA JUMP JUMPDEST DUP10 SWAP6 POP SWAP4 POP DUP4 PUSH2 0x3C30 JUMP JUMPDEST PUSH1 0x0 PUSH2 0x3BE4 DUP11 DUP5 DUP7 PUSH2 0x4010 JUMP JUMPDEST SWAP1 POP DUP11 DUP2 GT ISZERO PUSH2 0x3BF0 JUMPI INVALID JUMPDEST DUP9 DUP2 LT ISZERO PUSH2 0x3C2A JUMPI PUSH1 0x40 MLOAD PUSH32 0x8C379A000000000000000000000000000000000000000000000000000000000 DUP2 MSTORE PUSH1 0x4 ADD PUSH2 0x6CA SWAP1 PUSH2 0x5496 JUMP JUMPDEST SWAP6 POP DUP9 SWAP5 POP JUMPDEST POP JUMPDEST POP POP POP SWAP6 POP SWAP6 SWAP4 POP POP POP POP JUMP JUMPDEST PUSH1 0x0 DUP1 DUP3 PUSH20 0xFFFFFFFFFFFFFFFFFFFFFFFFFFFFFFFFFFFFFFFF AND DUP5 PUSH20 0xFFFFFFFFFFFFFFFFFFFFFFFFFFFFFFFFFFFFFFFF AND EQ ISZERO PUSH2 0x3CA8 JUMPI PUSH1 0x40 MLOAD PUSH32 0x8C379A000000000000000000000000000000000000000000000000000000000 DUP2 MSTORE PUSH1 0x4 ADD PUSH2 0x6CA SWAP1 PUSH2 0x50E3 JUMP JUMPDEST DUP3 PUSH20 0xFFFFFFFFFFFFFFFFFFFFFFFFFFFFFFFFFFFFFFFF AND DUP5 PUSH20 0xFFFFFFFFFFFFFFFFFFFFFFFFFFFFFFFFFFFFFFFF AND LT PUSH2 0x3CE2 JUMPI DUP3 DUP5 PUSH2 0x3CE5 JUMP JUMPDEST DUP4 DUP4 JUMPDEST SWAP1 SWAP3 POP SWAP1 POP PUSH20 0xFFFFFFFFFFFFFFFFFFFFFFFFFFFFFFFFFFFFFFFF DUP3 AND PUSH2 0x3D37 JUMPI PUSH1 0x40 MLOAD PUSH32 0x8C379A000000000000000000000000000000000000000000000000000000000 DUP2 MSTORE PUSH1 0x4 ADD PUSH2 0x6CA SWAP1 PUSH2 0x4F4D JUMP JUMPDEST SWAP3 POP SWAP3 SWAP1 POP JUMP JUMPDEST PUSH1 0x60 PUSH1 0x1 DUP4 MLOAD LT ISZERO PUSH2 0x3D7C JUMPI PUSH1 0x40 MLOAD PUSH32 0x8C379A000000000000000000000000000000000000000000000000000000000 DUP2 MSTORE PUSH1 0x4 ADD PUSH2 0x6CA SWAP1 PUSH2 0x53A5 JUMP JUMPDEST DUP3 MLOAD PUSH1 0x1 ADD PUSH8 0xFFFFFFFFFFFFFFFF DUP2 GT DUP1 ISZERO PUSH2 0x3D97 JUMPI PUSH1 0x0 DUP1 REVERT JUMPDEST POP PUSH1 0x40 MLOAD SWAP1 DUP1 DUP3 MSTORE DUP1 PUSH1 0x20 MUL PUSH1 0x20 ADD DUP3 ADD PUSH1 0x40 MSTORE DUP1 ISZERO PUSH2 0x3DC1 JUMPI DUP2 PUSH1 0x20 ADD PUSH1 0x20 DUP3 MUL DUP1 CALLDATASIZE DUP4 CALLDATACOPY ADD SWAP1 POP JUMPDEST POP SWAP1 POP DUP4 DUP2 PUSH1 0x0 DUP2 MLOAD DUP2 LT PUSH2 0x3DD2 JUMPI INVALID JUMPDEST PUSH1 0x20 MUL PUSH1 0x20 ADD ADD DUP2 DUP2 MSTORE POP POP PUSH1 0x0 JUMPDEST PUSH1 0x1 DUP5 MLOAD SUB DUP2 LT ISZERO PUSH2 0x3E96 JUMPI PUSH1 0x0 DUP1 PUSH2 0x3E0D DUP9 DUP8 DUP6 DUP2 MLOAD DUP2 LT PUSH2 0x3E00 JUMPI INVALID JUMPDEST PUSH1 0x20 MUL PUSH1 0x20 ADD ADD MLOAD PUSH2 0x43A0 JUMP JUMPDEST SWAP2 POP SWAP2 POP PUSH2 0x3E72 DUP5 DUP5 DUP2 MLOAD DUP2 LT PUSH2 0x3E20 JUMPI INVALID JUMPDEST PUSH1 0x20 MUL PUSH1 0x20 ADD ADD MLOAD DUP4 DUP4 DUP10 DUP8 DUP2 MLOAD DUP2 LT PUSH2 0x3E36 JUMPI INVALID JUMPDEST PUSH1 0x20 MUL PUSH1 0x20 ADD ADD MLOAD PUSH1 0x40 ADD MLOAD DUP10 DUP9 DUP2 MLOAD DUP2 LT PUSH2 0x3E4E JUMPI INVALID JUMPDEST PUSH1 0x20 MUL PUSH1 0x20 ADD ADD MLOAD DUP11 DUP10 PUSH1 0x1 ADD DUP2 MLOAD DUP2 LT PUSH2 0x3E65 JUMPI INVALID JUMPDEST PUSH1 0x20 MUL PUSH1 0x20 ADD ADD MLOAD PUSH2 0x4234 JUMP JUMPDEST DUP5 DUP5 PUSH1 0x1 ADD DUP2 MLOAD DUP2 LT PUSH2 0x3E81 JUMPI INVALID JUMPDEST PUSH1 0x20 SWAP1 DUP2 MUL SWAP2 SWAP1 SWAP2 ADD ADD MSTORE POP POP PUSH1 0x1 ADD PUSH2 0x3DE1 JUMP JUMPDEST POP SWAP5 SWAP4 POP POP POP POP JUMP JUMPDEST PUSH1 0x0 DUP1 DUP8 GT PUSH2 0x3EDA JUMPI PUSH1 0x40 MLOAD PUSH32 0x8C379A000000000000000000000000000000000000000000000000000000000 DUP2 MSTORE PUSH1 0x4 ADD PUSH2 0x6CA SWAP1 PUSH2 0x519D JUMP JUMPDEST PUSH1 0x0 DUP7 GT DUP1 ISZERO PUSH2 0x3EEA JUMPI POP PUSH1 0x0 DUP6 GT JUMPDEST PUSH2 0x3F20 JUMPI PUSH1 0x40 MLOAD PUSH32 0x8C379A000000000000000000000000000000000000000000000000000000000 DUP2 MSTORE PUSH1 0x4 ADD PUSH2 0x6CA SWAP1 PUSH2 0x5311 JUMP JUMPDEST DUP4 ISZERO PUSH2 0x3FA8 JUMPI PUSH2 0x2710 DUP8 DIV DUP8 SUB SWAP7 POP PUSH1 0x0 PUSH2 0x3F3D DUP8 DUP8 DUP7 DUP7 PUSH2 0x453C JUMP JUMPDEST SWAP1 POP DUP4 DUP8 PUSH8 0xDE0B6B3A7640000 MUL DUP2 PUSH2 0x3F52 JUMPI INVALID JUMPDEST DIV SWAP7 POP DUP3 DUP7 PUSH8 0xDE0B6B3A7640000 MUL DUP2 PUSH2 0x3F68 JUMPI INVALID JUMPDEST DIV SWAP6 POP DUP3 DUP9 PUSH8 0xDE0B6B3A7640000 MUL DUP2 PUSH2 0x3F7E JUMPI INVALID JUMPDEST DIV SWAP8 POP PUSH2 0x3F8E DUP9 DUP8 SUB DUP3 DUP10 PUSH2 0x45B7 JUMP JUMPDEST DUP8 SUB SWAP2 POP PUSH8 0xDE0B6B3A7640000 DUP5 DUP4 MUL JUMPDEST DIV SWAP2 POP POP PUSH2 0x250F JUMP JUMPDEST PUSH1 0x0 PUSH2 0x3FCC PUSH2 0x3E8 PUSH2 0x3FC0 DUP10 DUP12 PUSH4 0xFFFFFFFF PUSH2 0x4678 AND JUMP JUMPDEST SWAP1 PUSH4 0xFFFFFFFF PUSH2 0x4678 AND JUMP JUMPDEST SWAP1 POP PUSH1 0x0 PUSH2 0x3FE6 PUSH2 0x3E5 PUSH2 0x3FC0 DUP10 DUP13 PUSH4 0xFFFFFFFF PUSH2 0x396C AND JUMP JUMPDEST SWAP1 POP PUSH2 0x4003 PUSH1 0x1 DUP3 DUP5 DUP2 PUSH2 0x3FF6 JUMPI INVALID JUMPDEST DIV SWAP1 PUSH4 0xFFFFFFFF PUSH2 0x46C9 AND JUMP JUMPDEST SWAP10 SWAP9 POP POP POP POP POP POP POP POP POP JUMP JUMPDEST PUSH1 0x0 DUP1 DUP5 GT PUSH2 0x404B JUMPI PUSH1 0x40 MLOAD PUSH32 0x8C379A000000000000000000000000000000000000000000000000000000000 DUP2 MSTORE PUSH1 0x4 ADD PUSH2 0x6CA SWAP1 PUSH2 0x52B4 JUMP JUMPDEST PUSH1 0x0 DUP4 GT DUP1 ISZERO PUSH2 0x405B JUMPI POP PUSH1 0x0 DUP3 GT JUMPDEST PUSH2 0x4091 JUMPI PUSH1 0x40 MLOAD PUSH32 0x8C379A000000000000000000000000000000000000000000000000000000000 DUP2 MSTORE PUSH1 0x4 ADD PUSH2 0x6CA SWAP1 PUSH2 0x5311 JUMP JUMPDEST DUP3 PUSH2 0x40A2 DUP6 DUP5 PUSH4 0xFFFFFFFF PUSH2 0x4678 AND JUMP JUMPDEST DUP2 PUSH2 0x40A9 JUMPI INVALID JUMPDEST DIV SWAP5 SWAP4 POP POP POP POP JUMP JUMPDEST PUSH1 0x60 PUSH1 0x1 DUP4 MLOAD LT ISZERO PUSH2 0x40F0 JUMPI PUSH1 0x40 MLOAD PUSH32 0x8C379A000000000000000000000000000000000000000000000000000000000 DUP2 MSTORE PUSH1 0x4 ADD PUSH2 0x6CA SWAP1 PUSH2 0x53A5 JUMP JUMPDEST DUP3 MLOAD PUSH1 0x1 ADD PUSH8 0xFFFFFFFFFFFFFFFF DUP2 GT DUP1 ISZERO PUSH2 0x410B JUMPI PUSH1 0x0 DUP1 REVERT JUMPDEST POP PUSH1 0x40 MLOAD SWAP1 DUP1 DUP3 MSTORE DUP1 PUSH1 0x20 MUL PUSH1 0x20 ADD DUP3 ADD PUSH1 0x40 MSTORE DUP1 ISZERO PUSH2 0x4135 JUMPI DUP2 PUSH1 0x20 ADD PUSH1 0x20 DUP3 MUL DUP1 CALLDATASIZE DUP4 CALLDATACOPY ADD SWAP1 POP JUMPDEST POP SWAP1 POP DUP4 DUP2 PUSH1 0x1 DUP4 MLOAD SUB DUP2 MLOAD DUP2 LT PUSH2 0x4149 JUMPI INVALID JUMPDEST PUSH1 0x20 SWAP1 DUP2 MUL SWAP2 SWAP1 SWAP2 ADD ADD MSTORE DUP3 MLOAD PUSH32 0xFFFFFFFFFFFFFFFFFFFFFFFFFFFFFFFFFFFFFFFFFFFFFFFFFFFFFFFFFFFFFFFF ADD JUMPDEST PUSH1 0x0 DUP1 PUSH2 0x418C DUP9 DUP8 DUP6 DUP2 MLOAD DUP2 LT PUSH2 0x3E00 JUMPI INVALID JUMPDEST SWAP2 POP SWAP2 POP PUSH2 0x41F4 DUP5 DUP5 PUSH1 0x1 ADD DUP2 MLOAD DUP2 LT PUSH2 0x41A2 JUMPI INVALID JUMPDEST PUSH1 0x20 MUL PUSH1 0x20 ADD ADD MLOAD DUP4 DUP4 DUP10 DUP8 DUP2 MLOAD DUP2 LT PUSH2 0x41B8 JUMPI INVALID JUMPDEST PUSH1 0x20 MUL PUSH1 0x20 ADD ADD MLOAD PUSH1 0x40 ADD MLOAD DUP10 DUP9 DUP2 MLOAD DUP2 LT PUSH2 0x41D0 JUMPI INVALID JUMPDEST PUSH1 0x20 MUL PUSH1 0x20 ADD ADD MLOAD DUP11 DUP10 PUSH1 0x1 ADD DUP2 MLOAD DUP2 LT PUSH2 0x41E7 JUMPI INVALID JUMPDEST PUSH1 0x20 MUL PUSH1 0x20 ADD ADD MLOAD PUSH2 0x3E9F JUMP JUMPDEST DUP5 DUP5 DUP2 MLOAD DUP2 LT PUSH2 0x4200 JUMPI INVALID JUMPDEST PUSH1 0x20 SWAP1 DUP2 MUL SWAP2 SWAP1 SWAP2 ADD ADD MSTORE POP POP PUSH32 0xFFFFFFFFFFFFFFFFFFFFFFFFFFFFFFFFFFFFFFFFFFFFFFFFFFFFFFFFFFFFFFFF ADD PUSH2 0x4179 JUMP JUMPDEST PUSH1 0x0 DUP1 DUP8 GT PUSH2 0x426F JUMPI PUSH1 0x40 MLOAD PUSH32 0x8C379A000000000000000000000000000000000000000000000000000000000 DUP2 MSTORE PUSH1 0x4 ADD PUSH2 0x6CA SWAP1 PUSH2 0x5257 JUMP JUMPDEST PUSH1 0x0 DUP7 GT DUP1 ISZERO PUSH2 0x427F JUMPI POP PUSH1 0x0 DUP6 GT JUMPDEST PUSH2 0x42B5 JUMPI PUSH1 0x40 MLOAD PUSH32 0x8C379A000000000000000000000000000000000000000000000000000000000 DUP2 MSTORE PUSH1 0x4 ADD PUSH2 0x6CA SWAP1 PUSH2 0x5311 JUMP JUMPDEST DUP4 ISZERO PUSH2 0x4338 JUMPI PUSH2 0x2710 DUP8 DIV DUP8 SUB SWAP7 POP PUSH1 0x0 PUSH2 0x42D2 DUP8 DUP8 DUP7 DUP7 PUSH2 0x453C JUMP JUMPDEST SWAP1 POP DUP4 DUP8 PUSH8 0xDE0B6B3A7640000 MUL DUP2 PUSH2 0x42E7 JUMPI INVALID JUMPDEST DIV SWAP7 POP DUP3 DUP7 PUSH8 0xDE0B6B3A7640000 MUL DUP2 PUSH2 0x42FD JUMPI INVALID JUMPDEST DIV SWAP6 POP DUP4 DUP9 PUSH8 0xDE0B6B3A7640000 MUL DUP2 PUSH2 0x4313 JUMPI INVALID JUMPDEST DIV SWAP8 POP PUSH2 0x4323 DUP8 DUP10 ADD DUP3 DUP9 PUSH2 0x45B7 JUMP JUMPDEST DUP7 SUB SWAP2 POP PUSH8 0xDE0B6B3A7640000 DUP4 DUP4 MUL PUSH2 0x3F9F JUMP JUMPDEST PUSH1 0x0 PUSH2 0x434C DUP9 PUSH2 0x3E5 PUSH4 0xFFFFFFFF PUSH2 0x4678 AND JUMP JUMPDEST SWAP1 POP PUSH1 0x0 PUSH2 0x4360 DUP3 DUP9 PUSH4 0xFFFFFFFF PUSH2 0x4678 AND JUMP JUMPDEST SWAP1 POP PUSH1 0x0 PUSH2 0x4386 DUP4 PUSH2 0x437A DUP12 PUSH2 0x3E8 PUSH4 0xFFFFFFFF PUSH2 0x4678 AND JUMP JUMPDEST SWAP1 PUSH4 0xFFFFFFFF PUSH2 0x46C9 AND JUMP JUMPDEST SWAP1 POP DUP1 DUP3 DUP2 PUSH2 0x4391 JUMPI INVALID JUMPDEST DIV SWAP11 SWAP10 POP POP POP POP POP POP POP POP POP POP JUMP JUMPDEST PUSH1 0x0 DUP1 PUSH1 0x0 PUSH2 0x43B7 DUP5 PUSH1 0x0 ADD MLOAD DUP6 PUSH1 0x20 ADD MLOAD PUSH2 0x3C3F JUMP JUMPDEST POP SWAP1 POP PUSH1 0x0 DUP6 PUSH20 0xFFFFFFFFFFFFFFFFFFFFFFFFFFFFFFFFFFFFFFFF AND PUSH4 0xA35A337A PUSH1 0x40 MLOAD DUP2 PUSH4 0xFFFFFFFF AND PUSH1 0xE0 SHL DUP2 MSTORE PUSH1 0x4 ADD PUSH1 0x20 PUSH1 0x40 MLOAD DUP1 DUP4 SUB DUP2 DUP7 DUP1 EXTCODESIZE ISZERO DUP1 ISZERO PUSH2 0x4402 JUMPI PUSH1 0x0 DUP1 REVERT JUMPDEST POP GAS STATICCALL ISZERO DUP1 ISZERO PUSH2 0x4416 JUMPI RETURNDATASIZE PUSH1 0x0 DUP1 RETURNDATACOPY RETURNDATASIZE PUSH1 0x0 REVERT JUMPDEST POP POP POP POP PUSH1 0x40 MLOAD RETURNDATASIZE PUSH1 0x1F NOT PUSH1 0x1F DUP3 ADD AND DUP3 ADD DUP1 PUSH1 0x40 MSTORE POP DUP2 ADD SWAP1 PUSH2 0x443A SWAP2 SWAP1 PUSH2 0x48C6 JUMP JUMPDEST SWAP1 POP PUSH1 0x0 DUP1 PUSH2 0x444A DUP4 DUP10 DUP10 PUSH2 0x2F36 JUMP JUMPDEST PUSH20 0xFFFFFFFFFFFFFFFFFFFFFFFFFFFFFFFFFFFFFFFF AND PUSH4 0x902F1AC PUSH1 0x40 MLOAD DUP2 PUSH4 0xFFFFFFFF AND PUSH1 0xE0 SHL DUP2 MSTORE PUSH1 0x4 ADD PUSH1 0x60 PUSH1 0x40 MLOAD DUP1 DUP4 SUB DUP2 DUP7 DUP1 EXTCODESIZE ISZERO DUP1 ISZERO PUSH2 0x448F JUMPI PUSH1 0x0 DUP1 REVERT JUMPDEST POP GAS STATICCALL ISZERO DUP1 ISZERO PUSH2 0x44A3 JUMPI RETURNDATASIZE PUSH1 0x0 DUP1 RETURNDATACOPY RETURNDATASIZE PUSH1 0x0 REVERT JUMPDEST POP POP POP POP PUSH1 0x40 MLOAD RETURNDATASIZE PUSH1 0x1F NOT PUSH1 0x1F DUP3 ADD AND DUP3 ADD DUP1 PUSH1 0x40 MSTORE POP DUP2 ADD SWAP1 PUSH2 0x44C7 SWAP2 SWAP1 PUSH2 0x4A64 JUMP JUMPDEST POP PUSH14 0xFFFFFFFFFFFFFFFFFFFFFFFFFFFF AND SWAP2 POP PUSH14 0xFFFFFFFFFFFFFFFFFFFFFFFFFFFF AND SWAP2 POP DUP4 PUSH20 0xFFFFFFFFFFFFFFFFFFFFFFFFFFFFFFFFFFFFFFFF AND DUP8 PUSH1 0x0 ADD MLOAD PUSH20 0xFFFFFFFFFFFFFFFFFFFFFFFFFFFFFFFFFFFFFFFF AND EQ PUSH2 0x452A JUMPI DUP1 DUP3 PUSH2 0x452D JUMP JUMPDEST DUP2 DUP2 JUMPDEST SWAP1 SWAP10 SWAP1 SWAP9 POP SWAP7 POP POP POP POP POP POP POP JUMP JUMPDEST PUSH1 0x0 DUP1 DUP4 DUP7 PUSH8 0xDE0B6B3A7640000 MUL DUP2 PUSH2 0x4552 JUMPI INVALID JUMPDEST DIV SWAP1 POP PUSH1 0x0 DUP4 DUP7 PUSH8 0xDE0B6B3A7640000 MUL DUP2 PUSH2 0x456A JUMPI INVALID JUMPDEST DIV SWAP1 POP PUSH1 0x0 PUSH8 0xDE0B6B3A7640000 DUP4 DUP4 MUL DIV SWAP1 POP PUSH1 0x0 PUSH8 0xDE0B6B3A7640000 DUP4 DUP1 MUL DIV PUSH8 0xDE0B6B3A7640000 DUP6 DUP1 MUL DIV ADD SWAP1 POP PUSH8 0xDE0B6B3A7640000 DUP3 DUP3 MUL DIV SWAP10 SWAP9 POP POP POP POP POP POP POP POP POP JUMP JUMPDEST PUSH1 0x0 DUP1 JUMPDEST PUSH1 0xFF DUP2 LT ISZERO PUSH2 0x466F JUMPI DUP3 PUSH1 0x0 PUSH2 0x45D1 DUP8 DUP4 PUSH2 0x4706 JUMP JUMPDEST SWAP1 POP DUP6 DUP2 LT ISZERO PUSH2 0x4607 JUMPI PUSH1 0x0 PUSH2 0x45E7 DUP9 DUP8 PUSH2 0x4756 JUMP JUMPDEST DUP3 DUP9 SUB PUSH8 0xDE0B6B3A7640000 MUL DUP2 PUSH2 0x45FB JUMPI INVALID JUMPDEST DIV SWAP6 SWAP1 SWAP6 ADD SWAP5 POP PUSH2 0x462E JUMP JUMPDEST PUSH1 0x0 PUSH2 0x4613 DUP9 DUP8 PUSH2 0x4756 JUMP JUMPDEST DUP8 DUP4 SUB PUSH8 0xDE0B6B3A7640000 MUL DUP2 PUSH2 0x4627 JUMPI INVALID JUMPDEST DIV SWAP1 SWAP6 SUB SWAP5 POP JUMPDEST DUP2 DUP6 GT ISZERO PUSH2 0x4650 JUMPI PUSH1 0x1 DUP3 DUP7 SUB GT PUSH2 0x464B JUMPI DUP5 SWAP4 POP POP POP POP PUSH2 0x2545 JUMP JUMPDEST PUSH2 0x4665 JUMP JUMPDEST PUSH1 0x1 DUP6 DUP4 SUB GT PUSH2 0x4665 JUMPI DUP5 SWAP4 POP POP POP POP PUSH2 0x2545 JUMP JUMPDEST POP POP PUSH1 0x1 ADD PUSH2 0x45BB JUMP JUMPDEST POP SWAP1 SWAP4 SWAP3 POP POP POP JUMP JUMPDEST PUSH1 0x0 DUP2 ISZERO DUP1 PUSH2 0x4693 JUMPI POP POP DUP1 DUP3 MUL DUP3 DUP3 DUP3 DUP2 PUSH2 0x4690 JUMPI INVALID JUMPDEST DIV EQ JUMPDEST PUSH2 0x24F6 JUMPI PUSH1 0x40 MLOAD PUSH32 0x8C379A000000000000000000000000000000000000000000000000000000000 DUP2 MSTORE PUSH1 0x4 ADD PUSH2 0x6CA SWAP1 PUSH2 0x4FBB JUMP JUMPDEST DUP1 DUP3 ADD DUP3 DUP2 LT ISZERO PUSH2 0x24F6 JUMPI PUSH1 0x40 MLOAD PUSH32 0x8C379A000000000000000000000000000000000000000000000000000000000 DUP2 MSTORE PUSH1 0x4 ADD PUSH2 0x6CA SWAP1 PUSH2 0x4FF2 JUMP JUMPDEST PUSH1 0x0 PUSH8 0xDE0B6B3A7640000 DUP3 DUP2 DUP6 DUP2 DUP2 DUP1 MUL DIV MUL DUP2 PUSH2 0x4721 JUMPI INVALID JUMPDEST DIV MUL DUP2 PUSH2 0x472A JUMPI INVALID JUMPDEST DIV PUSH8 0xDE0B6B3A7640000 DUP1 DUP5 DUP2 DUP2 DUP1 MUL DIV MUL DUP2 PUSH2 0x4743 JUMPI INVALID JUMPDEST DIV DUP6 MUL DUP2 PUSH2 0x474D JUMPI INVALID JUMPDEST DIV ADD SWAP4 SWAP3 POP POP POP JUMP JUMPDEST PUSH1 0x0 PUSH8 0xDE0B6B3A7640000 DUP4 DUP2 DUP2 DUP1 MUL DIV MUL DUP2 PUSH2 0x476F JUMPI INVALID JUMPDEST DIV PUSH8 0xDE0B6B3A7640000 DUP1 DUP5 DUP1 MUL DIV DUP6 PUSH1 0x3 MUL MUL DUP2 PUSH2 0x474D JUMPI INVALID JUMPDEST PUSH1 0x0 DUP1 DUP4 PUSH1 0x1F DUP5 ADD SLT PUSH2 0x479B JUMPI DUP2 DUP3 REVERT JUMPDEST POP DUP2 CALLDATALOAD PUSH8 0xFFFFFFFFFFFFFFFF DUP2 GT ISZERO PUSH2 0x47B2 JUMPI DUP2 DUP3 REVERT JUMPDEST PUSH1 0x20 DUP4 ADD SWAP2 POP DUP4 PUSH1 0x20 PUSH1 0x60 DUP4 MUL DUP6 ADD ADD GT ISZERO PUSH2 0x3D37 JUMPI PUSH1 0x0 DUP1 REVERT JUMPDEST PUSH1 0x0 PUSH1 0x60 DUP3 DUP5 SUB SLT ISZERO PUSH2 0x47DE JUMPI DUP1 DUP2 REVERT JUMPDEST POP SWAP2 SWAP1 POP JUMP JUMPDEST PUSH1 0x0 PUSH1 0x60 DUP3 DUP5 SUB SLT ISZERO PUSH2 0x47F5 JUMPI DUP1 DUP2 REVERT JUMPDEST PUSH2 0x47FF PUSH1 0x60 PUSH2 0x561F JUMP JUMPDEST SWAP1 POP DUP2 CALLDATALOAD PUSH2 0x480C DUP2 PUSH2 0x5692 JUMP JUMPDEST DUP2 MSTORE PUSH1 0x20 DUP3 ADD CALLDATALOAD PUSH2 0x481C DUP2 PUSH2 0x5692 JUMP JUMPDEST PUSH1 0x20 DUP3 ADD MSTORE PUSH1 0x40 DUP3 ADD CALLDATALOAD PUSH2 0x482F DUP2 PUSH2 0x56B7 JUMP JUMPDEST PUSH1 0x40 DUP3 ADD MSTORE SWAP3 SWAP2 POP POP JUMP JUMPDEST PUSH1 0x0 PUSH1 0x20 DUP3 DUP5 SUB SLT ISZERO PUSH2 0x484B JUMPI DUP1 DUP2 REVERT JUMPDEST DUP2 CALLDATALOAD PUSH2 0x2545 DUP2 PUSH2 0x5692 JUMP JUMPDEST PUSH1 0x0 PUSH1 0x20 DUP3 DUP5 SUB SLT ISZERO PUSH2 0x4867 JUMPI DUP1 DUP2 REVERT JUMPDEST DUP2 MLOAD PUSH2 0x2545 DUP2 PUSH2 0x5692 JUMP JUMPDEST PUSH1 0x0 DUP1 PUSH1 0x40 DUP4 DUP6 SUB SLT ISZERO PUSH2 0x4884 JUMPI DUP1 DUP2 REVERT JUMPDEST DUP3 CALLDATALOAD PUSH2 0x488F DUP2 PUSH2 0x5692 JUMP JUMPDEST SWAP2 POP PUSH1 0x20 DUP4 ADD CALLDATALOAD PUSH2 0x489F DUP2 PUSH2 0x5692 JUMP JUMPDEST DUP1 SWAP2 POP POP SWAP3 POP SWAP3 SWAP1 POP JUMP JUMPDEST PUSH1 0x0 PUSH1 0x20 DUP3 DUP5 SUB SLT ISZERO PUSH2 0x48BB JUMPI DUP1 DUP2 REVERT JUMPDEST DUP2 MLOAD PUSH2 0x2545 DUP2 PUSH2 0x56B7 JUMP JUMPDEST PUSH1 0x0 PUSH1 0x20 DUP3 DUP5 SUB SLT ISZERO PUSH2 0x48D7 JUMPI DUP1 DUP2 REVERT JUMPDEST POP MLOAD SWAP2 SWAP1 POP JUMP JUMPDEST PUSH1 0x0 DUP1 PUSH1 0x0 DUP1 PUSH1 0x0 DUP1 PUSH2 0x100 DUP8 DUP10 SUB SLT ISZERO PUSH2 0x48F7 JUMPI DUP2 DUP3 REVERT JUMPDEST PUSH2 0x4901 DUP9 DUP9 PUSH2 0x47CD JUMP JUMPDEST SWAP6 POP PUSH1 0x60 DUP8 ADD CALLDATALOAD SWAP5 POP PUSH1 0x80 DUP8 ADD CALLDATALOAD SWAP4 POP PUSH1 0xA0 DUP8 ADD CALLDATALOAD SWAP3 POP PUSH1 0xC0 DUP8 ADD CALLDATALOAD PUSH2 0x4926 DUP2 PUSH2 0x5692 JUMP JUMPDEST DUP1 SWAP3 POP POP PUSH1 0xE0 DUP8 ADD CALLDATALOAD SWAP1 POP SWAP3 SWAP6 POP SWAP3 SWAP6 POP SWAP3 SWAP6 JUMP JUMPDEST PUSH1 0x0 DUP1 PUSH1 0x0 DUP1 PUSH1 0x0 DUP1 PUSH1 0x0 DUP1 PUSH2 0x180 DUP10 DUP12 SUB SLT ISZERO PUSH2 0x4957 JUMPI DUP2 DUP3 REVERT JUMPDEST PUSH2 0x4961 DUP11 DUP11 PUSH2 0x47CD JUMP JUMPDEST SWAP8 POP PUSH1 0x60 DUP10 ADD CALLDATALOAD SWAP7 POP PUSH1 0x80 DUP10 ADD CALLDATALOAD SWAP6 POP PUSH1 0xA0 DUP10 ADD CALLDATALOAD SWAP5 POP PUSH1 0xC0 DUP10 ADD CALLDATALOAD PUSH2 0x4986 DUP2 PUSH2 0x5692 JUMP JUMPDEST SWAP4 POP PUSH1 0xE0 DUP10 ADD CALLDATALOAD SWAP3 POP PUSH2 0x100 DUP10 ADD CALLDATALOAD PUSH2 0x499E DUP2 PUSH2 0x56B7 JUMP JUMPDEST SWAP2 POP PUSH2 0x49AE DUP11 PUSH2 0x120 DUP12 ADD PUSH2 0x47CD JUMP JUMPDEST SWAP1 POP SWAP3 SWAP6 SWAP9 POP SWAP3 SWAP6 SWAP9 SWAP1 SWAP4 SWAP7 POP JUMP JUMPDEST PUSH1 0x0 DUP1 PUSH1 0x0 DUP1 PUSH1 0x0 DUP1 PUSH1 0x0 PUSH2 0x120 DUP9 DUP11 SUB SLT ISZERO PUSH2 0x49D8 JUMPI DUP1 DUP2 REVERT JUMPDEST PUSH2 0x49E2 DUP10 DUP10 PUSH2 0x47CD JUMP JUMPDEST SWAP7 POP PUSH1 0x60 DUP9 ADD CALLDATALOAD SWAP6 POP PUSH1 0x80 DUP9 ADD CALLDATALOAD SWAP5 POP PUSH1 0xA0 DUP9 ADD CALLDATALOAD SWAP4 POP PUSH1 0xC0 DUP9 ADD CALLDATALOAD SWAP3 POP PUSH1 0xE0 DUP9 ADD CALLDATALOAD PUSH2 0x4A0E DUP2 PUSH2 0x5692 JUMP JUMPDEST DUP1 SWAP3 POP POP PUSH2 0x100 DUP9 ADD CALLDATALOAD SWAP1 POP SWAP3 SWAP6 SWAP9 SWAP2 SWAP5 SWAP8 POP SWAP3 SWAP6 POP JUMP JUMPDEST PUSH1 0x0 PUSH1 0x60 DUP3 DUP5 SUB SLT ISZERO PUSH2 0x4A37 JUMPI DUP1 DUP2 REVERT JUMPDEST PUSH2 0x2545 DUP4 DUP4 PUSH2 0x47E4 JUMP JUMPDEST PUSH1 0x0 DUP1 PUSH1 0x0 DUP1 PUSH1 0x0 DUP1 PUSH2 0x100 DUP8 DUP10 SUB SLT ISZERO PUSH2 0x4A5A JUMPI DUP4 DUP5 REVERT JUMPDEST PUSH2 0x4901 DUP9 DUP9 PUSH2 0x47E4 JUMP JUMPDEST PUSH1 0x0 DUP1 PUSH1 0x0 PUSH1 0x60 DUP5 DUP7 SUB SLT ISZERO PUSH2 0x4A78 JUMPI DUP1 DUP2 REVERT JUMPDEST DUP4 MLOAD PUSH2 0x4A83 DUP2 PUSH2 0x56C5 JUMP JUMPDEST PUSH1 0x20 DUP6 ADD MLOAD SWAP1 SWAP4 POP PUSH2 0x4A94 DUP2 PUSH2 0x56C5 JUMP JUMPDEST PUSH1 0x40 DUP6 ADD MLOAD SWAP1 SWAP3 POP PUSH4 0xFFFFFFFF DUP2 AND DUP2 EQ PUSH2 0x4AAD JUMPI DUP2 DUP3 REVERT JUMPDEST DUP1 SWAP2 POP POP SWAP3 POP SWAP3 POP SWAP3 JUMP JUMPDEST PUSH1 0x0 DUP1 PUSH1 0x0 DUP1 PUSH1 0x0 PUSH1 0x80 DUP7 DUP9 SUB SLT ISZERO PUSH2 0x4ACF JUMPI DUP3 DUP4 REVERT JUMPDEST DUP6 CALLDATALOAD SWAP5 POP PUSH1 0x20 DUP7 ADD CALLDATALOAD PUSH8 0xFFFFFFFFFFFFFFFF DUP2 GT ISZERO PUSH2 0x4AEC JUMPI DUP4 DUP5 REVERT JUMPDEST PUSH2 0x4AF8 DUP9 DUP3 DUP10 ADD PUSH2 0x478A JUMP JUMPDEST SWAP1 SWAP6 POP SWAP4 POP POP PUSH1 0x40 DUP7 ADD CALLDATALOAD PUSH2 0x4B0C DUP2 PUSH2 0x5692 JUMP JUMPDEST SWAP5 SWAP8 SWAP4 SWAP7 POP SWAP2 SWAP5 PUSH1 0x60 ADD CALLDATALOAD SWAP3 SWAP2 POP POP JUMP JUMPDEST PUSH1 0x0 DUP1 PUSH1 0x40 DUP4 DUP6 SUB SLT ISZERO PUSH2 0x4B2F JUMPI DUP2 DUP3 REVERT JUMPDEST DUP3 CALLDATALOAD SWAP2 POP PUSH1 0x20 DUP1 DUP5 ADD CALLDATALOAD PUSH8 0xFFFFFFFFFFFFFFFF DUP2 GT ISZERO PUSH2 0x4B4D JUMPI DUP3 DUP4 REVERT JUMPDEST DUP1 DUP6 ADD DUP7 PUSH1 0x1F DUP3 ADD SLT PUSH2 0x4B5E JUMPI DUP4 DUP5 REVERT JUMPDEST DUP1 CALLDATALOAD SWAP2 POP PUSH2 0x4B73 PUSH2 0x4B6E DUP4 PUSH2 0x5646 JUMP JUMPDEST PUSH2 0x561F JUMP JUMPDEST DUP3 DUP2 MSTORE DUP4 DUP2 ADD SWAP1 DUP3 DUP6 ADD PUSH1 0x60 DUP1 DUP7 MUL DUP6 ADD DUP8 ADD DUP12 LT ISZERO PUSH2 0x4B91 JUMPI DUP8 DUP9 REVERT JUMPDEST DUP8 SWAP5 POP JUMPDEST DUP6 DUP6 LT ISZERO PUSH2 0x4BBD JUMPI PUSH2 0x4BA7 DUP12 DUP4 PUSH2 0x47E4 JUMP JUMPDEST DUP5 MSTORE PUSH1 0x1 SWAP5 SWAP1 SWAP5 ADD SWAP4 SWAP3 DUP7 ADD SWAP3 SWAP1 DUP2 ADD SWAP1 PUSH2 0x4B95 JUMP JUMPDEST POP SWAP7 SWAP10 SWAP1 SWAP9 POP SWAP7 POP POP POP POP POP POP POP JUMP JUMPDEST PUSH1 0x0 DUP1 PUSH1 0x40 DUP4 DUP6 SUB SLT ISZERO PUSH2 0x4BDF JUMPI DUP2 DUP3 REVERT JUMPDEST POP POP DUP1 MLOAD PUSH1 0x20 SWAP1 SWAP2 ADD MLOAD SWAP1 SWAP3 SWAP1 SWAP2 POP JUMP JUMPDEST PUSH1 0x0 DUP1 PUSH1 0x0 DUP1 PUSH1 0x0 DUP1 PUSH1 0xA0 DUP8 DUP10 SUB SLT ISZERO PUSH2 0x4C08 JUMPI DUP4 DUP5 REVERT JUMPDEST DUP7 CALLDATALOAD SWAP6 POP PUSH1 0x20 DUP8 ADD CALLDATALOAD SWAP5 POP PUSH1 0x40 DUP8 ADD CALLDATALOAD PUSH8 0xFFFFFFFFFFFFFFFF DUP2 GT ISZERO PUSH2 0x4C2C JUMPI DUP5 DUP6 REVERT JUMPDEST PUSH2 0x4C38 DUP10 DUP3 DUP11 ADD PUSH2 0x478A JUMP JUMPDEST SWAP1 SWAP6 POP SWAP4 POP POP PUSH1 0x60 DUP8 ADD CALLDATALOAD PUSH2 0x4C4C DUP2 PUSH2 0x5692 JUMP JUMPDEST DUP1 SWAP3 POP POP PUSH1 0x80 DUP8 ADD CALLDATALOAD SWAP1 POP SWAP3 SWAP6 POP SWAP3 SWAP6 POP SWAP3 SWAP6 JUMP JUMPDEST PUSH1 0x0 DUP1 PUSH1 0x0 PUSH1 0x60 DUP5 DUP7 SUB SLT ISZERO PUSH2 0x4C75 JUMPI DUP1 DUP2 REVERT JUMPDEST POP POP DUP2 CALLDATALOAD SWAP4 PUSH1 0x20 DUP4 ADD CALLDATALOAD SWAP4 POP PUSH1 0x40 SWAP1 SWAP3 ADD CALLDATALOAD SWAP2 SWAP1 POP JUMP JUMPDEST PUSH1 0x0 DUP1 PUSH1 0x0 DUP1 PUSH1 0x0 DUP1 PUSH1 0xC0 DUP8 DUP10 SUB SLT ISZERO PUSH2 0x4CA4 JUMPI DUP4 DUP5 REVERT JUMPDEST DUP7 CALLDATALOAD SWAP6 POP PUSH1 0x20 DUP8 ADD CALLDATALOAD SWAP5 POP PUSH1 0x40 DUP8 ADD CALLDATALOAD SWAP4 POP PUSH1 0x60 DUP8 ADD CALLDATALOAD PUSH2 0x4CC4 DUP2 PUSH2 0x56B7 JUMP JUMPDEST SWAP6 SWAP9 SWAP5 SWAP8 POP SWAP3 SWAP6 PUSH1 0x80 DUP2 ADD CALLDATALOAD SWAP5 PUSH1 0xA0 SWAP1 SWAP2 ADD CALLDATALOAD SWAP4 POP SWAP2 POP POP JUMP JUMPDEST PUSH1 0x0 PUSH1 0x20 DUP3 DUP5 SUB SLT ISZERO PUSH2 0x4CEF JUMPI DUP1 DUP2 REVERT JUMPDEST DUP2 CALLDATALOAD PUSH2 0x2545 DUP2 PUSH2 0x56E1 JUMP JUMPDEST PUSH1 0x0 PUSH1 0x20 DUP3 DUP5 SUB SLT ISZERO PUSH2 0x4D0B JUMPI DUP1 DUP2 REVERT JUMPDEST DUP2 MLOAD PUSH2 0x2545 DUP2 PUSH2 0x56E1 JUMP JUMPDEST PUSH32 0xFFFFFFFFFFFFFFFFFFFFFFFFFFFFFFFFFFFFFFFF000000000000000000000000 PUSH1 0x60 SWAP5 DUP6 SHL DUP2 AND DUP3 MSTORE SWAP3 SWAP1 SWAP4 SHL SWAP1 SWAP2 AND PUSH1 0x14 DUP4 ADD MSTORE ISZERO ISZERO PUSH1 0xF8 SHL PUSH1 0x28 DUP3 ADD MSTORE PUSH1 0x29 ADD SWAP1 JUMP JUMPDEST PUSH1 0x0 DUP3 MLOAD PUSH2 0x4D6E DUP2 DUP5 PUSH1 0x20 DUP8 ADD PUSH2 0x5666 JUMP JUMPDEST SWAP2 SWAP1 SWAP2 ADD SWAP3 SWAP2 POP POP JUMP JUMPDEST PUSH32 0xFF00000000000000000000000000000000000000000000000000000000000000 DUP2 MSTORE PUSH1 0x60 SWAP4 SWAP1 SWAP4 SHL PUSH32 0xFFFFFFFFFFFFFFFFFFFFFFFFFFFFFFFFFFFFFFFF000000000000000000000000 AND PUSH1 0x1 DUP5 ADD MSTORE PUSH1 0x15 DUP4 ADD SWAP2 SWAP1 SWAP2 MSTORE PUSH1 0x35 DUP3 ADD MSTORE PUSH1 0x55 ADD SWAP1 JUMP JUMPDEST PUSH20 0xFFFFFFFFFFFFFFFFFFFFFFFFFFFFFFFFFFFFFFFF SWAP2 SWAP1 SWAP2 AND DUP2 MSTORE PUSH1 0x20 ADD SWAP1 JUMP JUMPDEST PUSH20 0xFFFFFFFFFFFFFFFFFFFFFFFFFFFFFFFFFFFFFFFF SWAP8 DUP9 AND DUP2 MSTORE SWAP6 SWAP1 SWAP7 AND PUSH1 0x20 DUP7 ADD MSTORE PUSH1 0x40 DUP6 ADD SWAP4 SWAP1 SWAP4 MSTORE PUSH1 0x60 DUP5 ADD SWAP2 SWAP1 SWAP2 MSTORE PUSH1 0xFF AND PUSH1 0x80 DUP4 ADD MSTORE PUSH1 0xA0 DUP3 ADD MSTORE PUSH1 0xC0 DUP2 ADD SWAP2 SWAP1 SWAP2 MSTORE PUSH1 0xE0 ADD SWAP1 JUMP JUMPDEST PUSH20 0xFFFFFFFFFFFFFFFFFFFFFFFFFFFFFFFFFFFFFFFF SWAP4 DUP5 AND DUP2 MSTORE SWAP2 SWAP1 SWAP3 AND PUSH1 0x20 DUP3 ADD MSTORE PUSH1 0x40 DUP2 ADD SWAP2 SWAP1 SWAP2 MSTORE PUSH1 0x60 ADD SWAP1 JUMP JUMPDEST PUSH20 0xFFFFFFFFFFFFFFFFFFFFFFFFFFFFFFFFFFFFFFFF SWAP4 DUP5 AND DUP2 MSTORE SWAP2 SWAP1 SWAP3 AND PUSH1 0x20 DUP3 ADD MSTORE SWAP1 ISZERO ISZERO PUSH1 0x40 DUP3 ADD MSTORE PUSH1 0x60 ADD SWAP1 JUMP JUMPDEST PUSH20 0xFFFFFFFFFFFFFFFFFFFFFFFFFFFFFFFFFFFFFFFF SWAP3 SWAP1 SWAP3 AND DUP3 MSTORE PUSH1 0x20 DUP3 ADD MSTORE PUSH1 0x40 ADD SWAP1 JUMP JUMPDEST PUSH1 0x20 DUP1 DUP3 MSTORE DUP3 MLOAD DUP3 DUP3 ADD DUP2 SWAP1 MSTORE PUSH1 0x0 SWAP2 SWAP1 DUP5 DUP3 ADD SWAP1 PUSH1 0x40 DUP6 ADD SWAP1 DUP5 JUMPDEST DUP2 DUP2 LT ISZERO PUSH2 0x4F0A JUMPI DUP4 MLOAD DUP4 MSTORE SWAP3 DUP5 ADD SWAP3 SWAP2 DUP5 ADD SWAP2 PUSH1 0x1 ADD PUSH2 0x4EEE JUMP JUMPDEST POP SWAP1 SWAP7 SWAP6 POP POP POP POP POP POP JUMP JUMPDEST PUSH1 0x20 DUP1 DUP3 MSTORE PUSH1 0x19 SWAP1 DUP3 ADD MSTORE PUSH32 0x54656C65737761705632526F757465723A204558504952454400000000000000 PUSH1 0x40 DUP3 ADD MSTORE PUSH1 0x60 ADD SWAP1 JUMP JUMPDEST PUSH1 0x20 DUP1 DUP3 MSTORE PUSH1 0x1F SWAP1 DUP3 ADD MSTORE PUSH32 0x54656C657377617056324C6962726172793A205A45524F5F4144445245535300 PUSH1 0x40 DUP3 ADD MSTORE PUSH1 0x60 ADD SWAP1 JUMP JUMPDEST PUSH1 0x20 DUP1 DUP3 MSTORE PUSH1 0x15 SWAP1 DUP3 ADD MSTORE PUSH32 0x64732D6D6174682D7375622D756E646572666C6F770000000000000000000000 PUSH1 0x40 DUP3 ADD MSTORE PUSH1 0x60 ADD SWAP1 JUMP JUMPDEST PUSH1 0x20 DUP1 DUP3 MSTORE PUSH1 0x14 SWAP1 DUP3 ADD MSTORE PUSH32 0x64732D6D6174682D6D756C2D6F766572666C6F77000000000000000000000000 PUSH1 0x40 DUP3 ADD MSTORE PUSH1 0x60 ADD SWAP1 JUMP JUMPDEST PUSH1 0x20 DUP1 DUP3 MSTORE PUSH1 0x14 SWAP1 DUP3 ADD MSTORE PUSH32 0x64732D6D6174682D6164642D6F766572666C6F77000000000000000000000000 PUSH1 0x40 DUP3 ADD MSTORE PUSH1 0x60 ADD SWAP1 JUMP JUMPDEST PUSH1 0x20 DUP1 DUP3 MSTORE PUSH1 0x31 SWAP1 DUP3 ADD MSTORE PUSH32 0x5472616E7366657248656C7065723A3A7472616E7366657246726F6D3A207472 PUSH1 0x40 DUP3 ADD MSTORE PUSH32 0x616E7366657246726F6D206661696C6564000000000000000000000000000000 PUSH1 0x60 DUP3 ADD MSTORE PUSH1 0x80 ADD SWAP1 JUMP JUMPDEST PUSH1 0x20 DUP1 DUP3 MSTORE PUSH1 0x34 SWAP1 DUP3 ADD MSTORE PUSH32 0x5472616E7366657248656C7065723A3A736166655472616E736665724554483A PUSH1 0x40 DUP3 ADD MSTORE PUSH32 0x20455448207472616E73666572206661696C6564000000000000000000000000 PUSH1 0x60 DUP3 ADD MSTORE PUSH1 0x80 ADD SWAP1 JUMP JUMPDEST PUSH1 0x20 DUP1 DUP3 MSTORE PUSH1 0x26 SWAP1 DUP3 ADD MSTORE PUSH32 0x54656C657377617056324C6962726172793A204944454E544943414C5F414444 PUSH1 0x40 DUP3 ADD MSTORE PUSH32 0x5245535345530000000000000000000000000000000000000000000000000000 PUSH1 0x60 DUP3 ADD MSTORE PUSH1 0x80 ADD SWAP1 JUMP JUMPDEST PUSH1 0x20 DUP1 DUP3 MSTORE PUSH1 0x28 SWAP1 DUP3 ADD MSTORE PUSH32 0x54656C65737761705632526F757465723A204558434553534956455F494E5055 PUSH1 0x40 DUP3 ADD MSTORE PUSH32 0x545F414D4F554E54000000000000000000000000000000000000000000000000 PUSH1 0x60 DUP3 ADD MSTORE PUSH1 0x80 ADD SWAP1 JUMP JUMPDEST PUSH1 0x20 DUP1 DUP3 MSTORE PUSH1 0x2D SWAP1 DUP3 ADD MSTORE PUSH32 0x54656C657377617056324C6962726172793A20494E53554646494349454E545F PUSH1 0x40 DUP3 ADD MSTORE PUSH32 0x4F55545055545F414D4F554E5400000000000000000000000000000000000000 PUSH1 0x60 DUP3 ADD MSTORE PUSH1 0x80 ADD SWAP1 JUMP JUMPDEST PUSH1 0x20 DUP1 DUP3 MSTORE PUSH1 0x27 SWAP1 DUP3 ADD MSTORE PUSH32 0x54656C65737761705632526F757465723A20494E53554646494349454E545F42 PUSH1 0x40 DUP3 ADD MSTORE PUSH32 0x5F414D4F554E5400000000000000000000000000000000000000000000000000 PUSH1 0x60 DUP3 ADD MSTORE PUSH1 0x80 ADD SWAP1 JUMP JUMPDEST PUSH1 0x20 DUP1 DUP3 MSTORE PUSH1 0x2C SWAP1 DUP3 ADD MSTORE PUSH32 0x54656C657377617056324C6962726172793A20494E53554646494349454E545F PUSH1 0x40 DUP3 ADD MSTORE PUSH32 0x494E5055545F414D4F554E540000000000000000000000000000000000000000 PUSH1 0x60 DUP3 ADD MSTORE PUSH1 0x80 ADD SWAP1 JUMP JUMPDEST PUSH1 0x20 DUP1 DUP3 MSTORE PUSH1 0x26 SWAP1 DUP3 ADD MSTORE PUSH32 0x54656C657377617056324C6962726172793A20494E53554646494349454E545F PUSH1 0x40 DUP3 ADD MSTORE PUSH32 0x414D4F554E540000000000000000000000000000000000000000000000000000 PUSH1 0x60 DUP3 ADD MSTORE PUSH1 0x80 ADD SWAP1 JUMP JUMPDEST PUSH1 0x20 DUP1 DUP3 MSTORE PUSH1 0x29 SWAP1 DUP3 ADD MSTORE PUSH32 0x54656C657377617056324C6962726172793A20494E53554646494349454E545F PUSH1 0x40 DUP3 ADD MSTORE PUSH32 0x4C49515549444954590000000000000000000000000000000000000000000000 PUSH1 0x60 DUP3 ADD MSTORE PUSH1 0x80 ADD SWAP1 JUMP JUMPDEST PUSH1 0x20 DUP1 DUP3 MSTORE PUSH1 0x1E SWAP1 DUP3 ADD MSTORE PUSH32 0x54656C65737761705632526F757465723A20494E56414C49445F504154480000 PUSH1 0x40 DUP3 ADD MSTORE PUSH1 0x60 ADD SWAP1 JUMP JUMPDEST PUSH1 0x20 DUP1 DUP3 MSTORE PUSH1 0x1F SWAP1 DUP3 ADD MSTORE PUSH32 0x54656C657377617056324C6962726172793A20494E56414C49445F5041544800 PUSH1 0x40 DUP3 ADD MSTORE PUSH1 0x60 ADD SWAP1 JUMP JUMPDEST PUSH1 0x20 DUP1 DUP3 MSTORE PUSH1 0x2C SWAP1 DUP3 ADD MSTORE PUSH32 0x54656C65737761705632526F757465723A20494E53554646494349454E545F4F PUSH1 0x40 DUP3 ADD MSTORE PUSH32 0x55545055545F414D4F554E540000000000000000000000000000000000000000 PUSH1 0x60 DUP3 ADD MSTORE PUSH1 0x80 ADD SWAP1 JUMP JUMPDEST PUSH1 0x20 DUP1 DUP3 MSTORE PUSH1 0x2D SWAP1 DUP3 ADD MSTORE PUSH32 0x5472616E7366657248656C7065723A3A736166655472616E736665723A207472 PUSH1 0x40 DUP3 ADD MSTORE PUSH32 0x616E73666572206661696C656400000000000000000000000000000000000000 PUSH1 0x60 DUP3 ADD MSTORE PUSH1 0x80 ADD SWAP1 JUMP JUMPDEST PUSH1 0x20 DUP1 DUP3 MSTORE PUSH1 0x27 SWAP1 DUP3 ADD MSTORE PUSH32 0x54656C65737761705632526F757465723A20494E53554646494349454E545F41 PUSH1 0x40 DUP3 ADD MSTORE PUSH32 0x5F414D4F554E5400000000000000000000000000000000000000000000000000 PUSH1 0x60 DUP3 ADD MSTORE PUSH1 0x80 ADD SWAP1 JUMP JUMPDEST PUSH2 0x100 DUP2 ADD DUP8 CALLDATALOAD PUSH2 0x5503 DUP2 PUSH2 0x5692 JUMP JUMPDEST PUSH20 0xFFFFFFFFFFFFFFFFFFFFFFFFFFFFFFFFFFFFFFFF SWAP1 DUP2 AND DUP4 MSTORE PUSH1 0x20 DUP10 ADD CALLDATALOAD SWAP1 PUSH2 0x552C DUP3 PUSH2 0x5692 JUMP JUMPDEST SWAP1 DUP2 AND PUSH1 0x20 DUP5 ADD MSTORE PUSH1 0x40 DUP10 ADD CALLDATALOAD SWAP1 PUSH2 0x5543 DUP3 PUSH2 0x56B7 JUMP JUMPDEST SWAP1 ISZERO ISZERO PUSH1 0x40 DUP5 ADD MSTORE PUSH1 0x60 DUP4 ADD SWAP8 SWAP1 SWAP8 MSTORE PUSH1 0x80 DUP3 ADD SWAP6 SWAP1 SWAP6 MSTORE PUSH1 0xA0 DUP2 ADD SWAP4 SWAP1 SWAP4 MSTORE SWAP4 AND PUSH1 0xC0 DUP3 ADD MSTORE PUSH1 0xE0 ADD SWAP2 SWAP1 SWAP2 MSTORE SWAP2 SWAP1 POP JUMP JUMPDEST SWAP1 DUP2 MSTORE PUSH1 0x20 ADD SWAP1 JUMP JUMPDEST SWAP2 DUP3 MSTORE PUSH1 0x20 DUP3 ADD MSTORE PUSH1 0x40 ADD SWAP1 JUMP JUMPDEST PUSH1 0x0 DUP6 DUP3 MSTORE DUP5 PUSH1 0x20 DUP4 ADD MSTORE PUSH20 0xFFFFFFFFFFFFFFFFFFFFFFFFFFFFFFFFFFFFFFFF DUP5 AND PUSH1 0x40 DUP4 ADD MSTORE PUSH1 0x80 PUSH1 0x60 DUP4 ADD MSTORE DUP3 MLOAD DUP1 PUSH1 0x80 DUP5 ADD MSTORE PUSH2 0x55D4 DUP2 PUSH1 0xA0 DUP6 ADD PUSH1 0x20 DUP8 ADD PUSH2 0x5666 JUMP JUMPDEST PUSH1 0x1F ADD PUSH32 0xFFFFFFFFFFFFFFFFFFFFFFFFFFFFFFFFFFFFFFFFFFFFFFFFFFFFFFFFFFFFFFE0 AND SWAP2 SWAP1 SWAP2 ADD PUSH1 0xA0 ADD SWAP6 SWAP5 POP POP POP POP POP JUMP JUMPDEST SWAP3 DUP4 MSTORE PUSH1 0x20 DUP4 ADD SWAP2 SWAP1 SWAP2 MSTORE PUSH1 0x40 DUP3 ADD MSTORE PUSH1 0x60 ADD SWAP1 JUMP JUMPDEST PUSH1 0x40 MLOAD DUP2 DUP2 ADD PUSH8 0xFFFFFFFFFFFFFFFF DUP2 GT DUP3 DUP3 LT OR ISZERO PUSH2 0x563E JUMPI PUSH1 0x0 DUP1 REVERT JUMPDEST PUSH1 0x40 MSTORE SWAP2 SWAP1 POP JUMP JUMPDEST PUSH1 0x0 PUSH8 0xFFFFFFFFFFFFFFFF DUP3 GT ISZERO PUSH2 0x565C JUMPI DUP1 DUP2 REVERT JUMPDEST POP PUSH1 0x20 SWAP1 DUP2 MUL ADD SWAP1 JUMP JUMPDEST PUSH1 0x0 JUMPDEST DUP4 DUP2 LT ISZERO PUSH2 0x5681 JUMPI DUP2 DUP2 ADD MLOAD DUP4 DUP3 ADD MSTORE PUSH1 0x20 ADD PUSH2 0x5669 JUMP JUMPDEST DUP4 DUP2 GT ISZERO PUSH2 0x32EF JUMPI POP POP PUSH1 0x0 SWAP2 ADD MSTORE JUMP JUMPDEST PUSH20 0xFFFFFFFFFFFFFFFFFFFFFFFFFFFFFFFFFFFFFFFF DUP2 AND DUP2 EQ PUSH2 0x56B4 JUMPI PUSH1 0x0 DUP1 REVERT JUMPDEST POP JUMP JUMPDEST DUP1 ISZERO ISZERO DUP2 EQ PUSH2 0x56B4 JUMPI PUSH1 0x0 DUP1 REVERT JUMPDEST PUSH14 0xFFFFFFFFFFFFFFFFFFFFFFFFFFFF DUP2 AND DUP2 EQ PUSH2 0x56B4 JUMPI PUSH1 0x0 DUP1 REVERT JUMPDEST PUSH1 0xFF DUP2 AND DUP2 EQ PUSH2 0x56B4 JUMPI PUSH1 0x0 DUP1 REVERT INVALID LOG2 PUSH5 0x6970667358 0x22 SLT KECCAK256 0xA7 0x5E SWAP9 0x27 GASPRICE 0xEB 0xE EQ PUSH21 0x1A527CB0A9E5F4E6518B21B5A3C11B611C65BCD55 DUP7 0x4D PUSH5 0x736F6C6343 STOP MOD MOD STOP CALLER "
    }
  },
  "interface": [
    {
      "inputs": [],
      "name": "WETH",
      "outputs": [
        {
          "internalType": "address",
          "name": "",
          "type": "address"
        }
      ],
      "stateMutability": "view",
      "type": "function"
    },
    {
      "inputs": [
        {
          "components": [
            {
              "internalType": "address",
              "name": "from",
              "type": "address"
            },
            {
              "internalType": "address",
              "name": "to",
              "type": "address"
            },
            {
              "internalType": "bool",
              "name": "stable",
              "type": "bool"
            }
          ],
          "internalType": "struct route",
          "name": "_route",
          "type": "tuple"
        },
        {
          "internalType": "uint256",
          "name": "amountADesired",
          "type": "uint256"
        },
        {
          "internalType": "uint256",
          "name": "amountBDesired",
          "type": "uint256"
        },
        {
          "internalType": "uint256",
          "name": "amountAMin",
          "type": "uint256"
        },
        {
          "internalType": "uint256",
          "name": "amountBMin",
          "type": "uint256"
        },
        {
          "internalType": "address",
          "name": "to",
          "type": "address"
        },
        {
          "internalType": "uint256",
          "name": "deadline",
          "type": "uint256"
        }
      ],
      "name": "addLiquidity",
      "outputs": [
        {
          "internalType": "uint256",
          "name": "amountA",
          "type": "uint256"
        },
        {
          "internalType": "uint256",
          "name": "amountB",
          "type": "uint256"
        },
        {
          "internalType": "uint256",
          "name": "liquidity",
          "type": "uint256"
        }
      ],
      "stateMutability": "nonpayable",
      "type": "function"
    },
    {
      "inputs": [
        {
          "components": [
            {
              "internalType": "address",
              "name": "from",
              "type": "address"
            },
            {
              "internalType": "address",
              "name": "to",
              "type": "address"
            },
            {
              "internalType": "bool",
              "name": "stable",
              "type": "bool"
            }
          ],
          "internalType": "struct route",
          "name": "_route",
          "type": "tuple"
        },
        {
          "internalType": "uint256",
          "name": "amountTokenDesired",
          "type": "uint256"
        },
        {
          "internalType": "uint256",
          "name": "amountTokenMin",
          "type": "uint256"
        },
        {
          "internalType": "uint256",
          "name": "amountETHMin",
          "type": "uint256"
        },
        {
          "internalType": "address",
          "name": "to",
          "type": "address"
        },
        {
          "internalType": "uint256",
          "name": "deadline",
          "type": "uint256"
        }
      ],
      "name": "addLiquidityETH",
      "outputs": [
        {
          "internalType": "uint256",
          "name": "amountToken",
          "type": "uint256"
        },
        {
          "internalType": "uint256",
          "name": "amountETH",
          "type": "uint256"
        },
        {
          "internalType": "uint256",
          "name": "liquidity",
          "type": "uint256"
        }
      ],
      "stateMutability": "payable",
      "type": "function"
    },
    {
      "inputs": [],
      "name": "factory",
      "outputs": [
        {
          "internalType": "address",
          "name": "",
          "type": "address"
        }
      ],
      "stateMutability": "view",
      "type": "function"
    },
    {
      "inputs": [
        {
          "internalType": "uint256",
          "name": "amountOut",
          "type": "uint256"
        },
        {
          "internalType": "uint256",
          "name": "reserveIn",
          "type": "uint256"
        },
        {
          "internalType": "uint256",
          "name": "reserveOut",
          "type": "uint256"
        },
        {
          "internalType": "bool",
          "name": "stable",
          "type": "bool"
        },
        {
          "internalType": "uint256",
          "name": "decimalIn",
          "type": "uint256"
        },
        {
          "internalType": "uint256",
          "name": "decimalOut",
          "type": "uint256"
        }
      ],
      "name": "getAmountIn",
      "outputs": [
        {
          "internalType": "uint256",
          "name": "amountIn",
          "type": "uint256"
        }
      ],
      "stateMutability": "pure",
      "type": "function"
    },
    {
      "inputs": [
        {
          "internalType": "uint256",
          "name": "amountIn",
          "type": "uint256"
        },
        {
          "internalType": "uint256",
          "name": "reserveIn",
          "type": "uint256"
        },
        {
          "internalType": "uint256",
          "name": "reserveOut",
          "type": "uint256"
        },
        {
          "internalType": "bool",
          "name": "stable",
          "type": "bool"
        },
        {
          "internalType": "uint256",
          "name": "decimalIn",
          "type": "uint256"
        },
        {
          "internalType": "uint256",
          "name": "decimalOut",
          "type": "uint256"
        }
      ],
      "name": "getAmountOut",
      "outputs": [
        {
          "internalType": "uint256",
          "name": "amountOut",
          "type": "uint256"
        }
      ],
      "stateMutability": "pure",
      "type": "function"
    },
    {
      "inputs": [
        {
          "internalType": "uint256",
          "name": "amountOut",
          "type": "uint256"
        },
        {
          "components": [
            {
              "internalType": "address",
              "name": "from",
              "type": "address"
            },
            {
              "internalType": "address",
              "name": "to",
              "type": "address"
            },
            {
              "internalType": "bool",
              "name": "stable",
              "type": "bool"
            }
          ],
          "internalType": "struct route[]",
          "name": "_routes",
          "type": "tuple[]"
        }
      ],
      "name": "getAmountsIn",
      "outputs": [
        {
          "internalType": "uint256[]",
          "name": "amounts",
          "type": "uint256[]"
        }
      ],
      "stateMutability": "view",
      "type": "function"
    },
    {
      "inputs": [
        {
          "internalType": "uint256",
          "name": "amountIn",
          "type": "uint256"
        },
        {
          "components": [
            {
              "internalType": "address",
              "name": "from",
              "type": "address"
            },
            {
              "internalType": "address",
              "name": "to",
              "type": "address"
            },
            {
              "internalType": "bool",
              "name": "stable",
              "type": "bool"
            }
          ],
          "internalType": "struct route[]",
          "name": "_routes",
          "type": "tuple[]"
        }
      ],
      "name": "getAmountsOut",
      "outputs": [
        {
          "internalType": "uint256[]",
          "name": "amounts",
          "type": "uint256[]"
        }
      ],
      "stateMutability": "view",
      "type": "function"
    },
    {
      "inputs": [
        {
          "internalType": "address",
          "name": "_factory",
          "type": "address"
        },
        {
          "internalType": "address",
          "name": "_WETH",
          "type": "address"
        }
      ],
      "name": "initialize",
      "outputs": [],
      "stateMutability": "nonpayable",
      "type": "function"
    },
    {
      "inputs": [
        {
          "internalType": "uint256",
          "name": "amountA",
          "type": "uint256"
        },
        {
          "internalType": "uint256",
          "name": "reserveA",
          "type": "uint256"
        },
        {
          "internalType": "uint256",
          "name": "reserveB",
          "type": "uint256"
        }
      ],
      "name": "quote",
      "outputs": [
        {
          "internalType": "uint256",
          "name": "amountB",
          "type": "uint256"
        }
      ],
      "stateMutability": "pure",
      "type": "function"
    },
    {
      "inputs": [
        {
          "components": [
            {
              "internalType": "address",
              "name": "from",
              "type": "address"
            },
            {
              "internalType": "address",
              "name": "to",
              "type": "address"
            },
            {
              "internalType": "bool",
              "name": "stable",
              "type": "bool"
            }
          ],
          "internalType": "struct route",
          "name": "_route",
          "type": "tuple"
        },
        {
          "internalType": "uint256",
          "name": "liquidity",
          "type": "uint256"
        },
        {
          "internalType": "uint256",
          "name": "amountAMin",
          "type": "uint256"
        },
        {
          "internalType": "uint256",
          "name": "amountBMin",
          "type": "uint256"
        },
        {
          "internalType": "address",
          "name": "to",
          "type": "address"
        },
        {
          "internalType": "uint256",
          "name": "deadline",
          "type": "uint256"
        }
      ],
      "name": "removeLiquidity",
      "outputs": [
        {
          "internalType": "uint256",
          "name": "amountA",
          "type": "uint256"
        },
        {
          "internalType": "uint256",
          "name": "amountB",
          "type": "uint256"
        }
      ],
      "stateMutability": "nonpayable",
      "type": "function"
    },
    {
      "inputs": [
        {
          "components": [
            {
              "internalType": "address",
              "name": "from",
              "type": "address"
            },
            {
              "internalType": "address",
              "name": "to",
              "type": "address"
            },
            {
              "internalType": "bool",
              "name": "stable",
              "type": "bool"
            }
          ],
          "internalType": "struct route",
          "name": "_route",
          "type": "tuple"
        },
        {
          "internalType": "uint256",
          "name": "liquidity",
          "type": "uint256"
        },
        {
          "internalType": "uint256",
          "name": "amountTokenMin",
          "type": "uint256"
        },
        {
          "internalType": "uint256",
          "name": "amountETHMin",
          "type": "uint256"
        },
        {
          "internalType": "address",
          "name": "to",
          "type": "address"
        },
        {
          "internalType": "uint256",
          "name": "deadline",
          "type": "uint256"
        }
      ],
      "name": "removeLiquidityETH",
      "outputs": [
        {
          "internalType": "uint256",
          "name": "amountToken",
          "type": "uint256"
        },
        {
          "internalType": "uint256",
          "name": "amountETH",
          "type": "uint256"
        }
      ],
      "stateMutability": "nonpayable",
      "type": "function"
    },
    {
      "inputs": [
        {
          "components": [
            {
              "internalType": "address",
              "name": "from",
              "type": "address"
            },
            {
              "internalType": "address",
              "name": "to",
              "type": "address"
            },
            {
              "internalType": "bool",
              "name": "stable",
              "type": "bool"
            }
          ],
          "internalType": "struct route",
          "name": "_route",
          "type": "tuple"
        },
        {
          "internalType": "uint256",
          "name": "liquidity",
          "type": "uint256"
        },
        {
          "internalType": "uint256",
          "name": "amountTokenMin",
          "type": "uint256"
        },
        {
          "internalType": "uint256",
          "name": "amountETHMin",
          "type": "uint256"
        },
        {
          "internalType": "address",
          "name": "to",
          "type": "address"
        },
        {
          "internalType": "uint256",
          "name": "deadline",
          "type": "uint256"
        }
      ],
      "name": "removeLiquidityETHSupportingFeeOnTransferTokens",
      "outputs": [
        {
          "internalType": "uint256",
          "name": "amountETH",
          "type": "uint256"
        }
      ],
      "stateMutability": "nonpayable",
      "type": "function"
    },
    {
      "inputs": [
        {
          "components": [
            {
              "internalType": "address",
              "name": "from",
              "type": "address"
            },
            {
              "internalType": "address",
              "name": "to",
              "type": "address"
            },
            {
              "internalType": "bool",
              "name": "stable",
              "type": "bool"
            }
          ],
          "internalType": "struct route",
          "name": "_route",
          "type": "tuple"
        },
        {
          "internalType": "uint256",
          "name": "liquidity",
          "type": "uint256"
        },
        {
          "internalType": "uint256",
          "name": "amountTokenMin",
          "type": "uint256"
        },
        {
          "internalType": "uint256",
          "name": "amountETHMin",
          "type": "uint256"
        },
        {
          "internalType": "address",
          "name": "to",
          "type": "address"
        },
        {
          "internalType": "uint256",
          "name": "deadline",
          "type": "uint256"
        },
        {
          "internalType": "bool",
          "name": "approveMax",
          "type": "bool"
        },
        {
          "components": [
            {
              "internalType": "uint8",
              "name": "v",
              "type": "uint8"
            },
            {
              "internalType": "bytes32",
              "name": "r",
              "type": "bytes32"
            },
            {
              "internalType": "bytes32",
              "name": "s",
              "type": "bytes32"
            }
          ],
          "internalType": "struct Sig",
          "name": "sig",
          "type": "tuple"
        }
      ],
      "name": "removeLiquidityETHWithPermit",
      "outputs": [
        {
          "internalType": "uint256",
          "name": "amountToken",
          "type": "uint256"
        },
        {
          "internalType": "uint256",
          "name": "amountETH",
          "type": "uint256"
        }
      ],
      "stateMutability": "nonpayable",
      "type": "function"
    },
    {
      "inputs": [
        {
          "components": [
            {
              "internalType": "address",
              "name": "from",
              "type": "address"
            },
            {
              "internalType": "address",
              "name": "to",
              "type": "address"
            },
            {
              "internalType": "bool",
              "name": "stable",
              "type": "bool"
            }
          ],
          "internalType": "struct route",
          "name": "_route",
          "type": "tuple"
        },
        {
          "internalType": "uint256",
          "name": "liquidity",
          "type": "uint256"
        },
        {
          "internalType": "uint256",
          "name": "amountTokenMin",
          "type": "uint256"
        },
        {
          "internalType": "uint256",
          "name": "amountETHMin",
          "type": "uint256"
        },
        {
          "internalType": "address",
          "name": "to",
          "type": "address"
        },
        {
          "internalType": "uint256",
          "name": "deadline",
          "type": "uint256"
        },
        {
          "internalType": "bool",
          "name": "approveMax",
          "type": "bool"
        },
        {
          "components": [
            {
              "internalType": "uint8",
              "name": "v",
              "type": "uint8"
            },
            {
              "internalType": "bytes32",
              "name": "r",
              "type": "bytes32"
            },
            {
              "internalType": "bytes32",
              "name": "s",
              "type": "bytes32"
            }
          ],
          "internalType": "struct Sig",
          "name": "sig",
          "type": "tuple"
        }
      ],
      "name": "removeLiquidityETHWithPermitSupportingFeeOnTransferTokens",
      "outputs": [
        {
          "internalType": "uint256",
          "name": "amountETH",
          "type": "uint256"
        }
      ],
      "stateMutability": "nonpayable",
      "type": "function"
    },
    {
      "inputs": [
        {
          "components": [
            {
              "internalType": "address",
              "name": "from",
              "type": "address"
            },
            {
              "internalType": "address",
              "name": "to",
              "type": "address"
            },
            {
              "internalType": "bool",
              "name": "stable",
              "type": "bool"
            }
          ],
          "internalType": "struct route",
          "name": "_route",
          "type": "tuple"
        },
        {
          "internalType": "uint256",
          "name": "liquidity",
          "type": "uint256"
        },
        {
          "internalType": "uint256",
          "name": "amountAMin",
          "type": "uint256"
        },
        {
          "internalType": "uint256",
          "name": "amountBMin",
          "type": "uint256"
        },
        {
          "internalType": "address",
          "name": "to",
          "type": "address"
        },
        {
          "internalType": "uint256",
          "name": "deadline",
          "type": "uint256"
        },
        {
          "internalType": "bool",
          "name": "approveMax",
          "type": "bool"
        },
        {
          "components": [
            {
              "internalType": "uint8",
              "name": "v",
              "type": "uint8"
            },
            {
              "internalType": "bytes32",
              "name": "r",
              "type": "bytes32"
            },
            {
              "internalType": "bytes32",
              "name": "s",
              "type": "bytes32"
            }
          ],
          "internalType": "struct Sig",
          "name": "sig",
          "type": "tuple"
        }
      ],
      "name": "removeLiquidityWithPermit",
      "outputs": [
        {
          "internalType": "uint256",
          "name": "amountA",
          "type": "uint256"
        },
        {
          "internalType": "uint256",
          "name": "amountB",
          "type": "uint256"
        }
      ],
      "stateMutability": "nonpayable",
      "type": "function"
    },
    {
      "inputs": [
        {
          "internalType": "uint256",
          "name": "amountOut",
          "type": "uint256"
        },
        {
          "components": [
            {
              "internalType": "address",
              "name": "from",
              "type": "address"
            },
            {
              "internalType": "address",
              "name": "to",
              "type": "address"
            },
            {
              "internalType": "bool",
              "name": "stable",
              "type": "bool"
            }
          ],
          "internalType": "struct route[]",
          "name": "routes",
          "type": "tuple[]"
        },
        {
          "internalType": "address",
          "name": "to",
          "type": "address"
        },
        {
          "internalType": "uint256",
          "name": "deadline",
          "type": "uint256"
        }
      ],
      "name": "swapETHForExactTokens",
      "outputs": [
        {
          "internalType": "uint256[]",
          "name": "amounts",
          "type": "uint256[]"
        }
      ],
      "stateMutability": "payable",
      "type": "function"
    },
    {
      "inputs": [
        {
          "internalType": "uint256",
          "name": "amountOutMin",
          "type": "uint256"
        },
        {
          "components": [
            {
              "internalType": "address",
              "name": "from",
              "type": "address"
            },
            {
              "internalType": "address",
              "name": "to",
              "type": "address"
            },
            {
              "internalType": "bool",
              "name": "stable",
              "type": "bool"
            }
          ],
          "internalType": "struct route[]",
          "name": "routes",
          "type": "tuple[]"
        },
        {
          "internalType": "address",
          "name": "to",
          "type": "address"
        },
        {
          "internalType": "uint256",
          "name": "deadline",
          "type": "uint256"
        }
      ],
      "name": "swapExactETHForTokens",
      "outputs": [
        {
          "internalType": "uint256[]",
          "name": "amounts",
          "type": "uint256[]"
        }
      ],
      "stateMutability": "payable",
      "type": "function"
    },
    {
      "inputs": [
        {
          "internalType": "uint256",
          "name": "amountOutMin",
          "type": "uint256"
        },
        {
          "components": [
            {
              "internalType": "address",
              "name": "from",
              "type": "address"
            },
            {
              "internalType": "address",
              "name": "to",
              "type": "address"
            },
            {
              "internalType": "bool",
              "name": "stable",
              "type": "bool"
            }
          ],
          "internalType": "struct route[]",
          "name": "routes",
          "type": "tuple[]"
        },
        {
          "internalType": "address",
          "name": "to",
          "type": "address"
        },
        {
          "internalType": "uint256",
          "name": "deadline",
          "type": "uint256"
        }
      ],
      "name": "swapExactETHForTokensSupportingFeeOnTransferTokens",
      "outputs": [],
      "stateMutability": "payable",
      "type": "function"
    },
    {
      "inputs": [
        {
          "internalType": "uint256",
          "name": "amountIn",
          "type": "uint256"
        },
        {
          "internalType": "uint256",
          "name": "amountOutMin",
          "type": "uint256"
        },
        {
          "components": [
            {
              "internalType": "address",
              "name": "from",
              "type": "address"
            },
            {
              "internalType": "address",
              "name": "to",
              "type": "address"
            },
            {
              "internalType": "bool",
              "name": "stable",
              "type": "bool"
            }
          ],
          "internalType": "struct route[]",
          "name": "routes",
          "type": "tuple[]"
        },
        {
          "internalType": "address",
          "name": "to",
          "type": "address"
        },
        {
          "internalType": "uint256",
          "name": "deadline",
          "type": "uint256"
        }
      ],
      "name": "swapExactTokensForETH",
      "outputs": [
        {
          "internalType": "uint256[]",
          "name": "amounts",
          "type": "uint256[]"
        }
      ],
      "stateMutability": "nonpayable",
      "type": "function"
    },
    {
      "inputs": [
        {
          "internalType": "uint256",
          "name": "amountIn",
          "type": "uint256"
        },
        {
          "internalType": "uint256",
          "name": "amountOutMin",
          "type": "uint256"
        },
        {
          "components": [
            {
              "internalType": "address",
              "name": "from",
              "type": "address"
            },
            {
              "internalType": "address",
              "name": "to",
              "type": "address"
            },
            {
              "internalType": "bool",
              "name": "stable",
              "type": "bool"
            }
          ],
          "internalType": "struct route[]",
          "name": "routes",
          "type": "tuple[]"
        },
        {
          "internalType": "address",
          "name": "to",
          "type": "address"
        },
        {
          "internalType": "uint256",
          "name": "deadline",
          "type": "uint256"
        }
      ],
      "name": "swapExactTokensForETHSupportingFeeOnTransferTokens",
      "outputs": [],
      "stateMutability": "nonpayable",
      "type": "function"
    },
    {
      "inputs": [
        {
          "internalType": "uint256",
          "name": "amountIn",
          "type": "uint256"
        },
        {
          "internalType": "uint256",
          "name": "amountOutMin",
          "type": "uint256"
        },
        {
          "components": [
            {
              "internalType": "address",
              "name": "from",
              "type": "address"
            },
            {
              "internalType": "address",
              "name": "to",
              "type": "address"
            },
            {
              "internalType": "bool",
              "name": "stable",
              "type": "bool"
            }
          ],
          "internalType": "struct route[]",
          "name": "routes",
          "type": "tuple[]"
        },
        {
          "internalType": "address",
          "name": "to",
          "type": "address"
        },
        {
          "internalType": "uint256",
          "name": "deadline",
          "type": "uint256"
        }
      ],
      "name": "swapExactTokensForTokens",
      "outputs": [
        {
          "internalType": "uint256[]",
          "name": "amounts",
          "type": "uint256[]"
        }
      ],
      "stateMutability": "nonpayable",
      "type": "function"
    },
    {
      "inputs": [
        {
          "internalType": "uint256",
          "name": "amountIn",
          "type": "uint256"
        },
        {
          "internalType": "uint256",
          "name": "amountOutMin",
          "type": "uint256"
        },
        {
          "components": [
            {
              "internalType": "address",
              "name": "from",
              "type": "address"
            },
            {
              "internalType": "address",
              "name": "to",
              "type": "address"
            },
            {
              "internalType": "bool",
              "name": "stable",
              "type": "bool"
            }
          ],
          "internalType": "struct route[]",
          "name": "routes",
          "type": "tuple[]"
        },
        {
          "internalType": "address",
          "name": "to",
          "type": "address"
        },
        {
          "internalType": "uint256",
          "name": "deadline",
          "type": "uint256"
        }
      ],
      "name": "swapExactTokensForTokensSupportingFeeOnTransferTokens",
      "outputs": [],
      "stateMutability": "nonpayable",
      "type": "function"
    },
    {
      "inputs": [
        {
          "internalType": "uint256",
          "name": "amountOut",
          "type": "uint256"
        },
        {
          "internalType": "uint256",
          "name": "amountInMax",
          "type": "uint256"
        },
        {
          "components": [
            {
              "internalType": "address",
              "name": "from",
              "type": "address"
            },
            {
              "internalType": "address",
              "name": "to",
              "type": "address"
            },
            {
              "internalType": "bool",
              "name": "stable",
              "type": "bool"
            }
          ],
          "internalType": "struct route[]",
          "name": "routes",
          "type": "tuple[]"
        },
        {
          "internalType": "address",
          "name": "to",
          "type": "address"
        },
        {
          "internalType": "uint256",
          "name": "deadline",
          "type": "uint256"
        }
      ],
      "name": "swapTokensForExactETH",
      "outputs": [
        {
          "internalType": "uint256[]",
          "name": "amounts",
          "type": "uint256[]"
        }
      ],
      "stateMutability": "nonpayable",
      "type": "function"
    },
    {
      "inputs": [
        {
          "internalType": "uint256",
          "name": "amountOut",
          "type": "uint256"
        },
        {
          "internalType": "uint256",
          "name": "amountInMax",
          "type": "uint256"
        },
        {
          "components": [
            {
              "internalType": "address",
              "name": "from",
              "type": "address"
            },
            {
              "internalType": "address",
              "name": "to",
              "type": "address"
            },
            {
              "internalType": "bool",
              "name": "stable",
              "type": "bool"
            }
          ],
          "internalType": "struct route[]",
          "name": "routes",
          "type": "tuple[]"
        },
        {
          "internalType": "address",
          "name": "to",
          "type": "address"
        },
        {
          "internalType": "uint256",
          "name": "deadline",
          "type": "uint256"
        }
      ],
      "name": "swapTokensForExactTokens",
      "outputs": [
        {
          "internalType": "uint256[]",
          "name": "amounts",
          "type": "uint256[]"
        }
      ],
      "stateMutability": "nonpayable",
      "type": "function"
    },
    {
      "stateMutability": "payable",
      "type": "receive"
    }
  ]
}